{
  "_format": "hh3-artifact-1",
  "contractName": "BeamioUserCard",
  "sourceName": "src/BeamioUserCard/BeamioUserCard.sol",
  "abi": [
    {
      "inputs": [
        {
          "internalType": "string",
          "name": "uri_",
          "type": "string"
        },
        {
          "internalType": "enum BeamioCurrency.CurrencyType",
          "name": "currency_",
          "type": "uint8"
        },
        {
          "internalType": "uint256",
          "name": "pointsUnitPriceInCurrencyE6_",
          "type": "uint256"
        },
        {
          "internalType": "address",
          "name": "initialOwner",
          "type": "address"
        },
        {
          "internalType": "address",
          "name": "gateway_",
          "type": "address"
        },
        {
          "internalType": "uint8",
          "name": "upgradeType_",
          "type": "uint8"
        },
        {
          "internalType": "bool",
          "name": "initialTransferWhitelistEnabled",
          "type": "bool"
        }
      ],
      "stateMutability": "nonpayable",
      "type": "constructor"
    },
    {
      "inputs": [],
      "name": "BM_CallFailed",
      "type": "error"
    },
    {
      "inputs": [],
      "name": "BM_NotAuthorized",
      "type": "error"
    },
    {
      "inputs": [],
      "name": "BM_ZeroAddress",
      "type": "error"
    },
    {
      "inputs": [
        {
          "internalType": "address",
          "name": "sender",
          "type": "address"
        },
        {
          "internalType": "uint256",
          "name": "balance",
          "type": "uint256"
        },
        {
          "internalType": "uint256",
          "name": "needed",
          "type": "uint256"
        },
        {
          "internalType": "uint256",
          "name": "tokenId",
          "type": "uint256"
        }
      ],
      "name": "ERC1155InsufficientBalance",
      "type": "error"
    },
    {
      "inputs": [
        {
          "internalType": "address",
          "name": "approver",
          "type": "address"
        }
      ],
      "name": "ERC1155InvalidApprover",
      "type": "error"
    },
    {
      "inputs": [
        {
          "internalType": "uint256",
          "name": "idsLength",
          "type": "uint256"
        },
        {
          "internalType": "uint256",
          "name": "valuesLength",
          "type": "uint256"
        }
      ],
      "name": "ERC1155InvalidArrayLength",
      "type": "error"
    },
    {
      "inputs": [
        {
          "internalType": "address",
          "name": "operator",
          "type": "address"
        }
      ],
      "name": "ERC1155InvalidOperator",
      "type": "error"
    },
    {
      "inputs": [
        {
          "internalType": "address",
          "name": "receiver",
          "type": "address"
        }
      ],
      "name": "ERC1155InvalidReceiver",
      "type": "error"
    },
    {
      "inputs": [
        {
          "internalType": "address",
          "name": "sender",
          "type": "address"
        }
      ],
      "name": "ERC1155InvalidSender",
      "type": "error"
    },
    {
      "inputs": [
        {
          "internalType": "address",
          "name": "operator",
          "type": "address"
        },
        {
          "internalType": "address",
          "name": "owner",
          "type": "address"
        }
      ],
      "name": "ERC1155MissingApprovalForAll",
      "type": "error"
    },
    {
      "inputs": [
        {
          "internalType": "address",
          "name": "owner",
          "type": "address"
        }
      ],
      "name": "OwnableInvalidOwner",
      "type": "error"
    },
    {
      "inputs": [
        {
          "internalType": "address",
          "name": "account",
          "type": "address"
        }
      ],
      "name": "OwnableUnauthorizedAccount",
      "type": "error"
    },
    {
      "inputs": [],
      "name": "ReentrancyGuardReentrantCall",
      "type": "error"
    },
    {
      "inputs": [],
      "name": "UC_AdminManagerRequiresOwnerSignature",
      "type": "error"
    },
    {
      "inputs": [],
      "name": "UC_AmountZero",
      "type": "error"
    },
    {
      "inputs": [],
      "name": "UC_BelowMinThreshold",
      "type": "error"
    },
    {
      "inputs": [],
      "name": "UC_GlobalMisconfigured",
      "type": "error"
    },
    {
      "inputs": [
        {
          "internalType": "address",
          "name": "fromAccount",
          "type": "address"
        },
        {
          "internalType": "uint256",
          "name": "id",
          "type": "uint256"
        },
        {
          "internalType": "uint256",
          "name": "have",
          "type": "uint256"
        },
        {
          "internalType": "uint256",
          "name": "need",
          "type": "uint256"
        }
      ],
      "name": "UC_InsufficientBalance",
      "type": "error"
    },
    {
      "inputs": [],
      "name": "UC_InvalidProposal",
      "type": "error"
    },
    {
      "inputs": [],
      "name": "UC_InvalidUpgradeType",
      "type": "error"
    },
    {
      "inputs": [],
      "name": "UC_NoBeamioAccount",
      "type": "error"
    },
    {
      "inputs": [],
      "name": "UC_NotAdmin",
      "type": "error"
    },
    {
      "inputs": [],
      "name": "UC_OpenMintExecutorUnauthorized",
      "type": "error"
    },
    {
      "inputs": [],
      "name": "UC_PriceZero",
      "type": "error"
    },
    {
      "inputs": [
        {
          "internalType": "bytes",
          "name": "data",
          "type": "bytes"
        }
      ],
      "name": "UC_RedeemDelegateFailed",
      "type": "error"
    },
    {
      "inputs": [],
      "name": "UC_RedeemModuleZero",
      "type": "error"
    },
    {
      "inputs": [],
      "name": "UC_StatsModuleZero",
      "type": "error"
    },
    {
      "inputs": [],
      "name": "UC_TierLenMismatch",
      "type": "error"
    },
    {
      "inputs": [],
      "name": "UC_TierMinZero",
      "type": "error"
    },
    {
      "inputs": [],
      "name": "UC_UnauthorizedGateway",
      "type": "error"
    },
    {
      "anonymous": false,
      "inputs": [
        {
          "indexed": true,
          "internalType": "address",
          "name": "beneficiaryAccount",
          "type": "address"
        },
        {
          "indexed": true,
          "internalType": "uint256",
          "name": "tokenId",
          "type": "uint256"
        },
        {
          "indexed": false,
          "internalType": "uint256",
          "name": "attr",
          "type": "uint256"
        },
        {
          "indexed": false,
          "internalType": "uint256",
          "name": "expiry",
          "type": "uint256"
        }
      ],
      "name": "AdminCardMinted",
      "type": "event"
    },
    {
      "anonymous": false,
      "inputs": [
        {
          "indexed": true,
          "internalType": "address",
          "name": "account",
          "type": "address"
        },
        {
          "indexed": false,
          "internalType": "uint256",
          "name": "amount",
          "type": "uint256"
        }
      ],
      "name": "AdminPointsBurned",
      "type": "event"
    },
    {
      "anonymous": false,
      "inputs": [
        {
          "indexed": true,
          "internalType": "address",
          "name": "beneficiaryAccount",
          "type": "address"
        },
        {
          "indexed": false,
          "internalType": "uint256",
          "name": "points6",
          "type": "uint256"
        }
      ],
      "name": "AdminPointsMinted",
      "type": "event"
    },
    {
      "anonymous": false,
      "inputs": [
        {
          "indexed": true,
          "internalType": "address",
          "name": "account",
          "type": "address"
        },
        {
          "indexed": true,
          "internalType": "address",
          "name": "operator",
          "type": "address"
        },
        {
          "indexed": false,
          "internalType": "bool",
          "name": "approved",
          "type": "bool"
        }
      ],
      "name": "ApprovalForAll",
      "type": "event"
    },
    {
      "anonymous": false,
      "inputs": [
        {
          "indexed": false,
          "internalType": "uint256",
          "name": "attr",
          "type": "uint256"
        }
      ],
      "name": "DefaultAttrUpdated",
      "type": "event"
    },
    {
      "anonymous": false,
      "inputs": [
        {
          "indexed": false,
          "internalType": "uint256",
          "name": "oldSecs",
          "type": "uint256"
        },
        {
          "indexed": false,
          "internalType": "uint256",
          "name": "newSecs",
          "type": "uint256"
        }
      ],
      "name": "ExpirySecondsUpdated",
      "type": "event"
    },
    {
      "anonymous": false,
      "inputs": [
        {
          "indexed": true,
          "internalType": "uint256",
          "name": "id",
          "type": "uint256"
        },
        {
          "indexed": true,
          "internalType": "address",
          "name": "userEOA",
          "type": "address"
        },
        {
          "indexed": true,
          "internalType": "address",
          "name": "acct",
          "type": "address"
        },
        {
          "indexed": false,
          "internalType": "uint256",
          "name": "amount",
          "type": "uint256"
        },
        {
          "indexed": false,
          "internalType": "uint256",
          "name": "claimedAfter",
          "type": "uint256"
        }
      ],
      "name": "FaucetClaimed",
      "type": "event"
    },
    {
      "anonymous": false,
      "inputs": [
        {
          "indexed": true,
          "internalType": "uint256",
          "name": "id",
          "type": "uint256"
        },
        {
          "components": [
            {
              "internalType": "uint64",
              "name": "validUntil",
              "type": "uint64"
            },
            {
              "internalType": "uint64",
              "name": "perClaimMax",
              "type": "uint64"
            },
            {
              "internalType": "uint128",
              "name": "maxPerUser",
              "type": "uint128"
            },
            {
              "internalType": "uint128",
              "name": "maxGlobal",
              "type": "uint128"
            },
            {
              "internalType": "bool",
              "name": "enabled",
              "type": "bool"
            },
            {
              "internalType": "uint8",
              "name": "currency",
              "type": "uint8"
            },
            {
              "internalType": "uint8",
              "name": "decimals",
              "type": "uint8"
            },
            {
              "internalType": "uint128",
              "name": "priceInCurrency6",
              "type": "uint128"
            }
          ],
          "indexed": false,
          "internalType": "struct FaucetStorage.FaucetConfig",
          "name": "cfg",
          "type": "tuple"
        }
      ],
      "name": "FaucetConfigUpdated",
      "type": "event"
    },
    {
      "anonymous": false,
      "inputs": [
        {
          "indexed": true,
          "internalType": "uint256",
          "name": "tokenId",
          "type": "uint256"
        },
        {
          "indexed": false,
          "internalType": "bytes32",
          "name": "title",
          "type": "bytes32"
        },
        {
          "indexed": false,
          "internalType": "uint64",
          "name": "validAfter",
          "type": "uint64"
        },
        {
          "indexed": false,
          "internalType": "uint64",
          "name": "validBefore",
          "type": "uint64"
        },
        {
          "indexed": false,
          "internalType": "uint256",
          "name": "maxSupply",
          "type": "uint256"
        },
        {
          "indexed": false,
          "internalType": "uint256",
          "name": "priceInCurrency6",
          "type": "uint256"
        },
        {
          "indexed": false,
          "internalType": "bytes32",
          "name": "sharedMetadataHash",
          "type": "bytes32"
        }
      ],
      "name": "IssuedNftCreated",
      "type": "event"
    },
    {
      "anonymous": false,
      "inputs": [
        {
          "indexed": true,
          "internalType": "uint256",
          "name": "tokenId",
          "type": "uint256"
        },
        {
          "indexed": true,
          "internalType": "address",
          "name": "recipient",
          "type": "address"
        },
        {
          "indexed": false,
          "internalType": "uint256",
          "name": "amount",
          "type": "uint256"
        }
      ],
      "name": "IssuedNftMinted",
      "type": "event"
    },
    {
      "anonymous": false,
      "inputs": [
        {
          "indexed": true,
          "internalType": "address",
          "name": "user",
          "type": "address"
        },
        {
          "indexed": true,
          "internalType": "uint256",
          "name": "tokenId",
          "type": "uint256"
        },
        {
          "indexed": false,
          "internalType": "uint256",
          "name": "tierIndexOrMax",
          "type": "uint256"
        },
        {
          "indexed": false,
          "internalType": "uint256",
          "name": "minUsdc6",
          "type": "uint256"
        },
        {
          "indexed": false,
          "internalType": "uint256",
          "name": "expiry",
          "type": "uint256"
        }
      ],
      "name": "MemberNFTIssued",
      "type": "event"
    },
    {
      "anonymous": false,
      "inputs": [
        {
          "indexed": true,
          "internalType": "address",
          "name": "user",
          "type": "address"
        },
        {
          "indexed": true,
          "internalType": "uint256",
          "name": "oldActiveTokenId",
          "type": "uint256"
        },
        {
          "indexed": true,
          "internalType": "uint256",
          "name": "newTokenId",
          "type": "uint256"
        },
        {
          "indexed": false,
          "internalType": "uint256",
          "name": "oldTierIndexOrMax",
          "type": "uint256"
        },
        {
          "indexed": false,
          "internalType": "uint256",
          "name": "newTierIndex",
          "type": "uint256"
        },
        {
          "indexed": false,
          "internalType": "uint256",
          "name": "newExpiry",
          "type": "uint256"
        }
      ],
      "name": "MemberNFTUpgraded",
      "type": "event"
    },
    {
      "anonymous": false,
      "inputs": [
        {
          "indexed": true,
          "internalType": "address",
          "name": "previousOwner",
          "type": "address"
        },
        {
          "indexed": true,
          "internalType": "address",
          "name": "newOwner",
          "type": "address"
        }
      ],
      "name": "OwnershipTransferred",
      "type": "event"
    },
    {
      "anonymous": false,
      "inputs": [
        {
          "indexed": true,
          "internalType": "address",
          "name": "userEOA",
          "type": "address"
        },
        {
          "indexed": true,
          "internalType": "address",
          "name": "acct",
          "type": "address"
        },
        {
          "indexed": false,
          "internalType": "uint256",
          "name": "points6",
          "type": "uint256"
        }
      ],
      "name": "PointsMintedByGateway",
      "type": "event"
    },
    {
      "anonymous": false,
      "inputs": [
        {
          "indexed": true,
          "internalType": "address",
          "name": "payerEOA",
          "type": "address"
        },
        {
          "indexed": true,
          "internalType": "address",
          "name": "beneficiaryAccount",
          "type": "address"
        },
        {
          "indexed": true,
          "internalType": "address",
          "name": "usdc",
          "type": "address"
        },
        {
          "indexed": false,
          "internalType": "uint256",
          "name": "usdcIn6",
          "type": "uint256"
        },
        {
          "indexed": false,
          "internalType": "uint256",
          "name": "pointsMinted6",
          "type": "uint256"
        },
        {
          "indexed": false,
          "internalType": "uint256",
          "name": "unitPointPriceUsdc6",
          "type": "uint256"
        },
        {
          "indexed": false,
          "internalType": "bytes32",
          "name": "nonce",
          "type": "bytes32"
        }
      ],
      "name": "PointsPurchasedWithUSDC",
      "type": "event"
    },
    {
      "anonymous": false,
      "inputs": [
        {
          "indexed": false,
          "internalType": "uint256",
          "name": "priceInCurrencyE6",
          "type": "uint256"
        }
      ],
      "name": "PointsUnitPriceUpdated",
      "type": "event"
    },
    {
      "anonymous": false,
      "inputs": [
        {
          "indexed": true,
          "internalType": "uint256",
          "name": "id",
          "type": "uint256"
        },
        {
          "indexed": true,
          "internalType": "address",
          "name": "admin",
          "type": "address"
        }
      ],
      "name": "ProposalApproved",
      "type": "event"
    },
    {
      "anonymous": false,
      "inputs": [
        {
          "indexed": true,
          "internalType": "uint256",
          "name": "id",
          "type": "uint256"
        },
        {
          "indexed": true,
          "internalType": "bytes4",
          "name": "selector",
          "type": "bytes4"
        },
        {
          "indexed": true,
          "internalType": "address",
          "name": "proposer",
          "type": "address"
        }
      ],
      "name": "ProposalCreated",
      "type": "event"
    },
    {
      "anonymous": false,
      "inputs": [
        {
          "indexed": true,
          "internalType": "uint256",
          "name": "id",
          "type": "uint256"
        }
      ],
      "name": "ProposalExecuted",
      "type": "event"
    },
    {
      "anonymous": false,
      "inputs": [
        {
          "indexed": true,
          "internalType": "bytes32",
          "name": "hash",
          "type": "bytes32"
        }
      ],
      "name": "RedeemCancelled",
      "type": "event"
    },
    {
      "anonymous": false,
      "inputs": [
        {
          "indexed": true,
          "internalType": "bytes32",
          "name": "hash",
          "type": "bytes32"
        },
        {
          "indexed": false,
          "internalType": "uint256",
          "name": "points6",
          "type": "uint256"
        },
        {
          "indexed": false,
          "internalType": "uint256",
          "name": "attr",
          "type": "uint256"
        }
      ],
      "name": "RedeemCreated",
      "type": "event"
    },
    {
      "anonymous": false,
      "inputs": [
        {
          "indexed": false,
          "internalType": "uint256",
          "name": "index",
          "type": "uint256"
        },
        {
          "indexed": false,
          "internalType": "uint256",
          "name": "minUsdc6",
          "type": "uint256"
        },
        {
          "indexed": false,
          "internalType": "uint256",
          "name": "attr",
          "type": "uint256"
        },
        {
          "indexed": false,
          "internalType": "uint256",
          "name": "tierExpirySeconds",
          "type": "uint256"
        }
      ],
      "name": "TierAppended",
      "type": "event"
    },
    {
      "anonymous": false,
      "inputs": [
        {
          "indexed": false,
          "internalType": "uint256",
          "name": "count",
          "type": "uint256"
        }
      ],
      "name": "TiersUpdated",
      "type": "event"
    },
    {
      "anonymous": false,
      "inputs": [
        {
          "indexed": true,
          "internalType": "address",
          "name": "operator",
          "type": "address"
        },
        {
          "indexed": true,
          "internalType": "address",
          "name": "from",
          "type": "address"
        },
        {
          "indexed": true,
          "internalType": "address",
          "name": "to",
          "type": "address"
        },
        {
          "indexed": false,
          "internalType": "uint256[]",
          "name": "ids",
          "type": "uint256[]"
        },
        {
          "indexed": false,
          "internalType": "uint256[]",
          "name": "values",
          "type": "uint256[]"
        }
      ],
      "name": "TransferBatch",
      "type": "event"
    },
    {
      "anonymous": false,
      "inputs": [
        {
          "indexed": true,
          "internalType": "address",
          "name": "operator",
          "type": "address"
        },
        {
          "indexed": true,
          "internalType": "address",
          "name": "from",
          "type": "address"
        },
        {
          "indexed": true,
          "internalType": "address",
          "name": "to",
          "type": "address"
        },
        {
          "indexed": false,
          "internalType": "uint256",
          "name": "id",
          "type": "uint256"
        },
        {
          "indexed": false,
          "internalType": "uint256",
          "name": "value",
          "type": "uint256"
        }
      ],
      "name": "TransferSingle",
      "type": "event"
    },
    {
      "anonymous": false,
      "inputs": [
        {
          "indexed": false,
          "internalType": "bool",
          "name": "enabled",
          "type": "bool"
        }
      ],
      "name": "TransferWhitelistEnabledUpdated",
      "type": "event"
    },
    {
      "anonymous": false,
      "inputs": [
        {
          "indexed": false,
          "internalType": "string",
          "name": "value",
          "type": "string"
        },
        {
          "indexed": true,
          "internalType": "uint256",
          "name": "id",
          "type": "uint256"
        }
      ],
      "name": "URI",
      "type": "event"
    },
    {
      "stateMutability": "nonpayable",
      "type": "fallback"
    },
    {
      "inputs": [],
      "name": "ISSUED_NFT_START_ID",
      "outputs": [
        {
          "internalType": "uint256",
          "name": "",
          "type": "uint256"
        }
      ],
      "stateMutability": "view",
      "type": "function"
    },
    {
      "inputs": [],
      "name": "NFT_START_ID",
      "outputs": [
        {
          "internalType": "uint256",
          "name": "",
          "type": "uint256"
        }
      ],
      "stateMutability": "view",
      "type": "function"
    },
    {
      "inputs": [],
      "name": "POINTS_DECIMALS",
      "outputs": [
        {
          "internalType": "uint8",
          "name": "",
          "type": "uint8"
        }
      ],
      "stateMutability": "view",
      "type": "function"
    },
    {
      "inputs": [],
      "name": "POINTS_ID",
      "outputs": [
        {
          "internalType": "uint256",
          "name": "",
          "type": "uint256"
        }
      ],
      "stateMutability": "view",
      "type": "function"
    },
    {
      "inputs": [],
      "name": "VERSION",
      "outputs": [
        {
          "internalType": "uint256",
          "name": "",
          "type": "uint256"
        }
      ],
      "stateMutability": "view",
      "type": "function"
    },
    {
      "inputs": [
        {
          "internalType": "address",
          "name": "",
          "type": "address"
        },
        {
          "internalType": "uint256",
          "name": "",
          "type": "uint256"
        }
      ],
      "name": "_userOwnedNfts",
      "outputs": [
        {
          "internalType": "uint256",
          "name": "",
          "type": "uint256"
        }
      ],
      "stateMutability": "view",
      "type": "function"
    },
    {
      "inputs": [
        {
          "internalType": "uint256",
          "name": "",
          "type": "uint256"
        }
      ],
      "name": "activeMembershipCountByTierIndex",
      "outputs": [
        {
          "internalType": "uint256",
          "name": "",
          "type": "uint256"
        }
      ],
      "stateMutability": "view",
      "type": "function"
    },
    {
      "inputs": [
        {
          "internalType": "uint256",
          "name": "",
          "type": "uint256"
        }
      ],
      "name": "activeMembershipCountByTokenId",
      "outputs": [
        {
          "internalType": "uint256",
          "name": "",
          "type": "uint256"
        }
      ],
      "stateMutability": "view",
      "type": "function"
    },
    {
      "inputs": [
        {
          "internalType": "address",
          "name": "",
          "type": "address"
        }
      ],
      "name": "activeMembershipId",
      "outputs": [
        {
          "internalType": "uint256",
          "name": "",
          "type": "uint256"
        }
      ],
      "stateMutability": "view",
      "type": "function"
    },
    {
      "inputs": [
        {
          "internalType": "address",
          "name": "",
          "type": "address"
        }
      ],
      "name": "activeTierIndexOrMax",
      "outputs": [
        {
          "internalType": "uint256",
          "name": "",
          "type": "uint256"
        }
      ],
      "stateMutability": "view",
      "type": "function"
    },
    {
      "inputs": [
        {
          "internalType": "address",
          "name": "a",
          "type": "address"
        }
      ],
      "name": "adminParent",
      "outputs": [
        {
          "internalType": "address",
          "name": "",
          "type": "address"
        }
      ],
      "stateMutability": "view",
      "type": "function"
    },
    {
      "inputs": [
        {
          "internalType": "uint256",
          "name": "minUsdc6",
          "type": "uint256"
        },
        {
          "internalType": "uint256",
          "name": "attr",
          "type": "uint256"
        },
        {
          "internalType": "uint256",
          "name": "tierExpirySeconds",
          "type": "uint256"
        }
      ],
      "name": "appendTier",
      "outputs": [],
      "stateMutability": "nonpayable",
      "type": "function"
    },
    {
      "inputs": [
        {
          "internalType": "uint256",
          "name": "id",
          "type": "uint256"
        }
      ],
      "name": "approveProposal",
      "outputs": [],
      "stateMutability": "nonpayable",
      "type": "function"
    },
    {
      "inputs": [
        {
          "internalType": "uint256",
          "name": "id",
          "type": "uint256"
        },
        {
          "internalType": "address",
          "name": "adminSigner",
          "type": "address"
        }
      ],
      "name": "approveProposalByGateway",
      "outputs": [],
      "stateMutability": "nonpayable",
      "type": "function"
    },
    {
      "inputs": [
        {
          "internalType": "uint256",
          "name": "",
          "type": "uint256"
        }
      ],
      "name": "attributes",
      "outputs": [
        {
          "internalType": "uint256",
          "name": "",
          "type": "uint256"
        }
      ],
      "stateMutability": "view",
      "type": "function"
    },
    {
      "inputs": [
        {
          "internalType": "address",
          "name": "account",
          "type": "address"
        },
        {
          "internalType": "uint256",
          "name": "id",
          "type": "uint256"
        }
      ],
      "name": "balanceOf",
      "outputs": [
        {
          "internalType": "uint256",
          "name": "",
          "type": "uint256"
        }
      ],
      "stateMutability": "view",
      "type": "function"
    },
    {
      "inputs": [
        {
          "internalType": "address[]",
          "name": "accounts",
          "type": "address[]"
        },
        {
          "internalType": "uint256[]",
          "name": "ids",
          "type": "uint256[]"
        }
      ],
      "name": "balanceOfBatch",
      "outputs": [
        {
          "internalType": "uint256[]",
          "name": "",
          "type": "uint256[]"
        }
      ],
      "stateMutability": "view",
      "type": "function"
    },
    {
      "inputs": [
        {
          "internalType": "address",
          "name": "target",
          "type": "address"
        },
        {
          "internalType": "uint256",
          "name": "amount",
          "type": "uint256"
        }
      ],
      "name": "burnPointsByAdmin",
      "outputs": [],
      "stateMutability": "nonpayable",
      "type": "function"
    },
    {
      "inputs": [
        {
          "internalType": "address",
          "name": "subordinate",
          "type": "address"
        },
        {
          "internalType": "address",
          "name": "authorizer",
          "type": "address"
        }
      ],
      "name": "clearAdminMintCounterForSubordinate",
      "outputs": [],
      "stateMutability": "nonpayable",
      "type": "function"
    },
    {
      "inputs": [
        {
          "internalType": "bytes4",
          "name": "selector",
          "type": "bytes4"
        },
        {
          "internalType": "address",
          "name": "target",
          "type": "address"
        },
        {
          "internalType": "uint256",
          "name": "v1",
          "type": "uint256"
        },
        {
          "internalType": "uint256",
          "name": "v2",
          "type": "uint256"
        },
        {
          "internalType": "uint256",
          "name": "v3",
          "type": "uint256"
        }
      ],
      "name": "createProposal",
      "outputs": [
        {
          "internalType": "uint256",
          "name": "",
          "type": "uint256"
        }
      ],
      "stateMutability": "nonpayable",
      "type": "function"
    },
    {
      "inputs": [],
      "name": "currency",
      "outputs": [
        {
          "internalType": "enum BeamioCurrency.CurrencyType",
          "name": "",
          "type": "uint8"
        }
      ],
      "stateMutability": "view",
      "type": "function"
    },
    {
      "inputs": [],
      "name": "debugGateway",
      "outputs": [
        {
          "internalType": "address",
          "name": "",
          "type": "address"
        }
      ],
      "stateMutability": "view",
      "type": "function"
    },
    {
      "inputs": [],
      "name": "defaultAttrWhenNoTiers",
      "outputs": [
        {
          "internalType": "uint256",
          "name": "",
          "type": "uint256"
        }
      ],
      "stateMutability": "view",
      "type": "function"
    },
    {
      "inputs": [],
      "name": "deployer",
      "outputs": [
        {
          "internalType": "address",
          "name": "",
          "type": "address"
        }
      ],
      "stateMutability": "view",
      "type": "function"
    },
    {
      "inputs": [
        {
          "internalType": "uint256",
          "name": "",
          "type": "uint256"
        }
      ],
      "name": "expiresAt",
      "outputs": [
        {
          "internalType": "uint256",
          "name": "",
          "type": "uint256"
        }
      ],
      "stateMutability": "view",
      "type": "function"
    },
    {
      "inputs": [],
      "name": "expirySeconds",
      "outputs": [
        {
          "internalType": "uint256",
          "name": "",
          "type": "uint256"
        }
      ],
      "stateMutability": "view",
      "type": "function"
    },
    {
      "inputs": [],
      "name": "factoryGateway",
      "outputs": [
        {
          "internalType": "address",
          "name": "",
          "type": "address"
        }
      ],
      "stateMutability": "view",
      "type": "function"
    },
    {
      "inputs": [
        {
          "internalType": "address",
          "name": "userEOA",
          "type": "address"
        },
        {
          "internalType": "uint256",
          "name": "id",
          "type": "uint256"
        },
        {
          "internalType": "uint256",
          "name": "amount",
          "type": "uint256"
        }
      ],
      "name": "faucetByGateway",
      "outputs": [],
      "stateMutability": "nonpayable",
      "type": "function"
    },
    {
      "inputs": [
        {
          "internalType": "uint256",
          "name": "id",
          "type": "uint256"
        }
      ],
      "name": "faucetConfig",
      "outputs": [
        {
          "components": [
            {
              "internalType": "uint64",
              "name": "validUntil",
              "type": "uint64"
            },
            {
              "internalType": "uint64",
              "name": "perClaimMax",
              "type": "uint64"
            },
            {
              "internalType": "uint128",
              "name": "maxPerUser",
              "type": "uint128"
            },
            {
              "internalType": "uint128",
              "name": "maxGlobal",
              "type": "uint128"
            },
            {
              "internalType": "bool",
              "name": "enabled",
              "type": "bool"
            },
            {
              "internalType": "uint8",
              "name": "currency",
              "type": "uint8"
            },
            {
              "internalType": "uint8",
              "name": "decimals",
              "type": "uint8"
            },
            {
              "internalType": "uint128",
              "name": "priceInCurrency6",
              "type": "uint128"
            }
          ],
          "internalType": "struct FaucetStorage.FaucetConfig",
          "name": "",
          "type": "tuple"
        }
      ],
      "stateMutability": "view",
      "type": "function"
    },
    {
      "inputs": [],
      "name": "gateway",
      "outputs": [
        {
          "internalType": "address",
          "name": "",
          "type": "address"
        }
      ],
      "stateMutability": "view",
      "type": "function"
    },
    {
      "inputs": [
        {
          "internalType": "address",
          "name": "admin",
          "type": "address"
        }
      ],
      "name": "getAdminBurnCounter",
      "outputs": [
        {
          "internalType": "uint256",
          "name": "",
          "type": "uint256"
        }
      ],
      "stateMutability": "view",
      "type": "function"
    },
    {
      "inputs": [
        {
          "internalType": "address",
          "name": "admin",
          "type": "address"
        }
      ],
      "name": "getAdminMintCounter",
      "outputs": [
        {
          "internalType": "uint256",
          "name": "",
          "type": "uint256"
        }
      ],
      "stateMutability": "view",
      "type": "function"
    },
    {
      "inputs": [
        {
          "internalType": "address",
          "name": "admin",
          "type": "address"
        }
      ],
      "name": "getAdminRedeemMintCounter",
      "outputs": [
        {
          "internalType": "uint256",
          "name": "",
          "type": "uint256"
        }
      ],
      "stateMutability": "view",
      "type": "function"
    },
    {
      "inputs": [
        {
          "internalType": "address",
          "name": "admin",
          "type": "address"
        }
      ],
      "name": "getAdminTransferAmountCounter",
      "outputs": [
        {
          "internalType": "uint256",
          "name": "",
          "type": "uint256"
        }
      ],
      "stateMutability": "view",
      "type": "function"
    },
    {
      "inputs": [
        {
          "internalType": "address",
          "name": "admin",
          "type": "address"
        }
      ],
      "name": "getAdminTransferCounter",
      "outputs": [
        {
          "internalType": "uint256",
          "name": "",
          "type": "uint256"
        }
      ],
      "stateMutability": "view",
      "type": "function"
    },
    {
      "inputs": [
        {
          "internalType": "address",
          "name": "admin",
          "type": "address"
        }
      ],
      "name": "getAdminUSDCMintCounter",
      "outputs": [
        {
          "internalType": "uint256",
          "name": "",
          "type": "uint256"
        }
      ],
      "stateMutability": "view",
      "type": "function"
    },
    {
      "inputs": [
        {
          "internalType": "address",
          "name": "user",
          "type": "address"
        }
      ],
      "name": "getOwnership",
      "outputs": [
        {
          "internalType": "uint256",
          "name": "pt",
          "type": "uint256"
        },
        {
          "components": [
            {
              "internalType": "uint256",
              "name": "tokenId",
              "type": "uint256"
            },
            {
              "internalType": "uint256",
              "name": "attribute",
              "type": "uint256"
            },
            {
              "internalType": "uint256",
              "name": "tierIndexOrMax",
              "type": "uint256"
            },
            {
              "internalType": "uint256",
              "name": "expiry",
              "type": "uint256"
            },
            {
              "internalType": "bool",
              "name": "isExpired",
              "type": "bool"
            }
          ],
          "internalType": "struct BeamioUserCard.NFTDetail[]",
          "name": "nfts",
          "type": "tuple[]"
        }
      ],
      "stateMutability": "view",
      "type": "function"
    },
    {
      "inputs": [
        {
          "internalType": "address",
          "name": "userEOA",
          "type": "address"
        }
      ],
      "name": "getOwnershipByEOA",
      "outputs": [
        {
          "internalType": "uint256",
          "name": "pt",
          "type": "uint256"
        },
        {
          "components": [
            {
              "internalType": "uint256",
              "name": "tokenId",
              "type": "uint256"
            },
            {
              "internalType": "uint256",
              "name": "attribute",
              "type": "uint256"
            },
            {
              "internalType": "uint256",
              "name": "tierIndexOrMax",
              "type": "uint256"
            },
            {
              "internalType": "uint256",
              "name": "expiry",
              "type": "uint256"
            },
            {
              "internalType": "bool",
              "name": "isExpired",
              "type": "bool"
            }
          ],
          "internalType": "struct BeamioUserCard.NFTDetail[]",
          "name": "nfts",
          "type": "tuple[]"
        }
      ],
      "stateMutability": "view",
      "type": "function"
    },
    {
      "inputs": [
        {
          "internalType": "address",
          "name": "a",
          "type": "address"
        }
      ],
      "name": "isAdmin",
      "outputs": [
        {
          "internalType": "bool",
          "name": "",
          "type": "bool"
        }
      ],
      "stateMutability": "view",
      "type": "function"
    },
    {
      "inputs": [
        {
          "internalType": "address",
          "name": "account",
          "type": "address"
        },
        {
          "internalType": "address",
          "name": "operator",
          "type": "address"
        }
      ],
      "name": "isApprovedForAll",
      "outputs": [
        {
          "internalType": "bool",
          "name": "",
          "type": "bool"
        }
      ],
      "stateMutability": "view",
      "type": "function"
    },
    {
      "inputs": [
        {
          "internalType": "uint256",
          "name": "tokenId",
          "type": "uint256"
        }
      ],
      "name": "isIssuedNftValid",
      "outputs": [
        {
          "internalType": "bool",
          "name": "",
          "type": "bool"
        }
      ],
      "stateMutability": "view",
      "type": "function"
    },
    {
      "inputs": [
        {
          "internalType": "address",
          "name": "effectiveTo",
          "type": "address"
        }
      ],
      "name": "isPointsTransferRecipientAllowed",
      "outputs": [
        {
          "internalType": "bool",
          "name": "",
          "type": "bool"
        }
      ],
      "stateMutability": "view",
      "type": "function"
    },
    {
      "inputs": [
        {
          "internalType": "uint256",
          "name": "tokenId",
          "type": "uint256"
        }
      ],
      "name": "issuedNftPriceInCurrency6",
      "outputs": [
        {
          "internalType": "uint256",
          "name": "",
          "type": "uint256"
        }
      ],
      "stateMutability": "view",
      "type": "function"
    },
    {
      "inputs": [
        {
          "internalType": "uint256",
          "name": "tokenId",
          "type": "uint256"
        }
      ],
      "name": "issuedNftSharedMetadataHash",
      "outputs": [
        {
          "internalType": "bytes32",
          "name": "",
          "type": "bytes32"
        }
      ],
      "stateMutability": "view",
      "type": "function"
    },
    {
      "inputs": [
        {
          "internalType": "address",
          "name": "userEOA",
          "type": "address"
        },
        {
          "internalType": "uint256",
          "name": "tokenId",
          "type": "uint256"
        }
      ],
      "name": "issuedNftUserSigClaimUsed",
      "outputs": [
        {
          "internalType": "bool",
          "name": "",
          "type": "bool"
        }
      ],
      "stateMutability": "view",
      "type": "function"
    },
    {
      "inputs": [
        {
          "internalType": "uint64",
          "name": "hourIndex",
          "type": "uint64"
        }
      ],
      "name": "membershipFlowBucketAtHour",
      "outputs": [
        {
          "internalType": "uint256",
          "name": "issuedCount",
          "type": "uint256"
        },
        {
          "internalType": "uint256",
          "name": "upgradedCount",
          "type": "uint256"
        },
        {
          "internalType": "uint256",
          "name": "expiredDiscoveredCount",
          "type": "uint256"
        },
        {
          "internalType": "uint256",
          "name": "activeSwitchCount",
          "type": "uint256"
        },
        {
          "internalType": "uint256",
          "name": "activatedCount",
          "type": "uint256"
        },
        {
          "internalType": "uint256",
          "name": "deactivatedCount",
          "type": "uint256"
        },
        {
          "internalType": "bool",
          "name": "hasData",
          "type": "bool"
        }
      ],
      "stateMutability": "view",
      "type": "function"
    },
    {
      "inputs": [
        {
          "internalType": "uint8",
          "name": "scopeType",
          "type": "uint8"
        },
        {
          "internalType": "uint256",
          "name": "scopeKey",
          "type": "uint256"
        },
        {
          "internalType": "uint64",
          "name": "hourIndex",
          "type": "uint64"
        }
      ],
      "name": "membershipScopedFlowBucketAtHour",
      "outputs": [
        {
          "internalType": "uint256",
          "name": "issuedCount",
          "type": "uint256"
        },
        {
          "internalType": "uint256",
          "name": "upgradedCount",
          "type": "uint256"
        },
        {
          "internalType": "uint256",
          "name": "expiredDiscoveredCount",
          "type": "uint256"
        },
        {
          "internalType": "uint256",
          "name": "activeSwitchCount",
          "type": "uint256"
        },
        {
          "internalType": "uint256",
          "name": "activatedCount",
          "type": "uint256"
        },
        {
          "internalType": "uint256",
          "name": "deactivatedCount",
          "type": "uint256"
        },
        {
          "internalType": "bool",
          "name": "hasData",
          "type": "bool"
        }
      ],
      "stateMutability": "view",
      "type": "function"
    },
    {
      "inputs": [],
      "name": "metadataBaseURI",
      "outputs": [
        {
          "internalType": "string",
          "name": "",
          "type": "string"
        }
      ],
      "stateMutability": "view",
      "type": "function"
    },
    {
      "inputs": [
        {
          "internalType": "address",
          "name": "userEOA",
          "type": "address"
        },
        {
          "internalType": "uint256",
          "name": "id",
          "type": "uint256"
        },
        {
          "internalType": "uint256",
          "name": "amount6",
          "type": "uint256"
        }
      ],
      "name": "mintFaucetByGateway",
      "outputs": [],
      "stateMutability": "nonpayable",
      "type": "function"
    },
    {
      "inputs": [
        {
          "internalType": "address",
          "name": "userEOA",
          "type": "address"
        },
        {
          "internalType": "uint256",
          "name": "tokenId",
          "type": "uint256"
        },
        {
          "internalType": "uint256",
          "name": "amount",
          "type": "uint256"
        }
      ],
      "name": "mintIssuedNftByGateway",
      "outputs": [],
      "stateMutability": "nonpayable",
      "type": "function"
    },
    {
      "inputs": [
        {
          "internalType": "address",
          "name": "to",
          "type": "address"
        },
        {
          "internalType": "uint256",
          "name": "tokenId",
          "type": "uint256"
        },
        {
          "internalType": "uint256",
          "name": "amount",
          "type": "uint256"
        }
      ],
      "name": "mintIssuedNftByOwner",
      "outputs": [],
      "stateMutability": "nonpayable",
      "type": "function"
    },
    {
      "inputs": [
        {
          "internalType": "address",
          "name": "userEOA",
          "type": "address"
        },
        {
          "internalType": "uint256",
          "name": "tokenId",
          "type": "uint256"
        }
      ],
      "name": "mintIssuedNftByUserSigClaim",
      "outputs": [],
      "stateMutability": "nonpayable",
      "type": "function"
    },
    {
      "inputs": [
        {
          "internalType": "address",
          "name": "user",
          "type": "address"
        },
        {
          "internalType": "uint256",
          "name": "tierIndex",
          "type": "uint256"
        }
      ],
      "name": "mintMemberCardByAdmin",
      "outputs": [],
      "stateMutability": "nonpayable",
      "type": "function"
    },
    {
      "inputs": [
        {
          "internalType": "address",
          "name": "user",
          "type": "address"
        },
        {
          "internalType": "uint256",
          "name": "points6",
          "type": "uint256"
        }
      ],
      "name": "mintPointsByAdmin",
      "outputs": [],
      "stateMutability": "nonpayable",
      "type": "function"
    },
    {
      "inputs": [
        {
          "internalType": "address",
          "name": "user",
          "type": "address"
        },
        {
          "internalType": "uint256",
          "name": "points6",
          "type": "uint256"
        },
        {
          "internalType": "address",
          "name": "operator",
          "type": "address"
        }
      ],
      "name": "mintPointsByAdminWithOperator",
      "outputs": [],
      "stateMutability": "nonpayable",
      "type": "function"
    },
    {
      "inputs": [
        {
          "internalType": "address",
          "name": "userEOA",
          "type": "address"
        },
        {
          "internalType": "uint256",
          "name": "points6",
          "type": "uint256"
        }
      ],
      "name": "mintPointsByGateway",
      "outputs": [],
      "stateMutability": "nonpayable",
      "type": "function"
    },
    {
      "inputs": [
        {
          "internalType": "address",
          "name": "userEOA",
          "type": "address"
        },
        {
          "internalType": "uint256",
          "name": "points6",
          "type": "uint256"
        },
        {
          "internalType": "address",
          "name": "operator",
          "type": "address"
        }
      ],
      "name": "mintPointsByGatewayWithOperator",
      "outputs": [],
      "stateMutability": "nonpayable",
      "type": "function"
    },
    {
      "inputs": [
        {
          "internalType": "address",
          "name": "payerAA",
          "type": "address"
        },
        {
          "internalType": "uint256",
          "name": "points6",
          "type": "uint256"
        },
        {
          "internalType": "address",
          "name": "operatorForStats",
          "type": "address"
        }
      ],
      "name": "mintPointsOpenContainerRelay",
      "outputs": [],
      "stateMutability": "nonpayable",
      "type": "function"
    },
    {
      "inputs": [],
      "name": "owner",
      "outputs": [
        {
          "internalType": "address",
          "name": "",
          "type": "address"
        }
      ],
      "stateMutability": "view",
      "type": "function"
    },
    {
      "inputs": [],
      "name": "pointsUnitPriceInCurrencyE6",
      "outputs": [
        {
          "internalType": "uint256",
          "name": "",
          "type": "uint256"
        }
      ],
      "stateMutability": "view",
      "type": "function"
    },
    {
      "inputs": [
        {
          "internalType": "address",
          "name": "operator",
          "type": "address"
        },
        {
          "internalType": "uint256",
          "name": "amount",
          "type": "uint256"
        }
      ],
      "name": "recordAdminBurnForStats",
      "outputs": [],
      "stateMutability": "nonpayable",
      "type": "function"
    },
    {
      "inputs": [
        {
          "internalType": "address",
          "name": "admin",
          "type": "address"
        },
        {
          "internalType": "uint256",
          "name": "amount",
          "type": "uint256"
        }
      ],
      "name": "recordAdminMintForStats",
      "outputs": [],
      "stateMutability": "nonpayable",
      "type": "function"
    },
    {
      "inputs": [
        {
          "internalType": "string",
          "name": "code",
          "type": "string"
        },
        {
          "internalType": "address",
          "name": "to",
          "type": "address"
        }
      ],
      "name": "redeemAdminByGateway",
      "outputs": [],
      "stateMutability": "nonpayable",
      "type": "function"
    },
    {
      "inputs": [
        {
          "internalType": "string[]",
          "name": "codes",
          "type": "string[]"
        },
        {
          "internalType": "address",
          "name": "userEOA",
          "type": "address"
        }
      ],
      "name": "redeemBatchByGateway",
      "outputs": [],
      "stateMutability": "nonpayable",
      "type": "function"
    },
    {
      "inputs": [
        {
          "internalType": "string",
          "name": "code",
          "type": "string"
        },
        {
          "internalType": "address",
          "name": "userEOA",
          "type": "address"
        }
      ],
      "name": "redeemByGateway",
      "outputs": [],
      "stateMutability": "nonpayable",
      "type": "function"
    },
    {
      "inputs": [
        {
          "internalType": "string",
          "name": "code",
          "type": "string"
        },
        {
          "internalType": "address",
          "name": "userEOA",
          "type": "address"
        }
      ],
      "name": "redeemPoolByGateway",
      "outputs": [],
      "stateMutability": "nonpayable",
      "type": "function"
    },
    {
      "inputs": [],
      "name": "renounceOwnership",
      "outputs": [],
      "stateMutability": "nonpayable",
      "type": "function"
    },
    {
      "inputs": [
        {
          "internalType": "address",
          "name": "adminAddr",
          "type": "address"
        }
      ],
      "name": "resetAdminLimit",
      "outputs": [],
      "stateMutability": "nonpayable",
      "type": "function"
    },
    {
      "inputs": [
        {
          "internalType": "address",
          "name": "adminAddr",
          "type": "address"
        },
        {
          "internalType": "address",
          "name": "authorizer",
          "type": "address"
        }
      ],
      "name": "resetAdminLimitByAdmin",
      "outputs": [],
      "stateMutability": "nonpayable",
      "type": "function"
    },
    {
      "inputs": [
        {
          "internalType": "address",
          "name": "from",
          "type": "address"
        },
        {
          "internalType": "address",
          "name": "to",
          "type": "address"
        },
        {
          "internalType": "uint256[]",
          "name": "ids",
          "type": "uint256[]"
        },
        {
          "internalType": "uint256[]",
          "name": "values",
          "type": "uint256[]"
        },
        {
          "internalType": "bytes",
          "name": "data",
          "type": "bytes"
        }
      ],
      "name": "safeBatchTransferFrom",
      "outputs": [],
      "stateMutability": "nonpayable",
      "type": "function"
    },
    {
      "inputs": [
        {
          "internalType": "address",
          "name": "from",
          "type": "address"
        },
        {
          "internalType": "address",
          "name": "to",
          "type": "address"
        },
        {
          "internalType": "uint256",
          "name": "id",
          "type": "uint256"
        },
        {
          "internalType": "uint256",
          "name": "value",
          "type": "uint256"
        },
        {
          "internalType": "bytes",
          "name": "data",
          "type": "bytes"
        }
      ],
      "name": "safeTransferFrom",
      "outputs": [],
      "stateMutability": "nonpayable",
      "type": "function"
    },
    {
      "inputs": [
        {
          "internalType": "address",
          "name": "operator",
          "type": "address"
        },
        {
          "internalType": "bool",
          "name": "approved",
          "type": "bool"
        }
      ],
      "name": "setApprovalForAll",
      "outputs": [],
      "stateMutability": "nonpayable",
      "type": "function"
    },
    {
      "inputs": [
        {
          "internalType": "uint256",
          "name": "attr",
          "type": "uint256"
        }
      ],
      "name": "setDefaultAttr",
      "outputs": [],
      "stateMutability": "nonpayable",
      "type": "function"
    },
    {
      "inputs": [
        {
          "internalType": "uint256",
          "name": "secs",
          "type": "uint256"
        }
      ],
      "name": "setExpirySeconds",
      "outputs": [],
      "stateMutability": "nonpayable",
      "type": "function"
    },
    {
      "inputs": [
        {
          "internalType": "uint256",
          "name": "priceInCurrencyE6",
          "type": "uint256"
        }
      ],
      "name": "setPointsUnitPrice",
      "outputs": [],
      "stateMutability": "nonpayable",
      "type": "function"
    },
    {
      "inputs": [
        {
          "components": [
            {
              "internalType": "uint256",
              "name": "minUsdc6",
              "type": "uint256"
            },
            {
              "internalType": "uint256",
              "name": "attr",
              "type": "uint256"
            },
            {
              "internalType": "uint256",
              "name": "tierExpirySeconds",
              "type": "uint256"
            }
          ],
          "internalType": "struct Tier[]",
          "name": "newTiers",
          "type": "tuple[]"
        }
      ],
      "name": "setTiers",
      "outputs": [],
      "stateMutability": "nonpayable",
      "type": "function"
    },
    {
      "inputs": [
        {
          "internalType": "address",
          "name": "target",
          "type": "address"
        },
        {
          "internalType": "bool",
          "name": "allowed",
          "type": "bool"
        }
      ],
      "name": "setTransferWhitelist",
      "outputs": [],
      "stateMutability": "nonpayable",
      "type": "function"
    },
    {
      "inputs": [
        {
          "internalType": "bool",
          "name": "enabled",
          "type": "bool"
        }
      ],
      "name": "setTransferWhitelistEnabled",
      "outputs": [],
      "stateMutability": "nonpayable",
      "type": "function"
    },
    {
      "inputs": [
        {
          "internalType": "bytes4",
          "name": "interfaceId",
          "type": "bytes4"
        }
      ],
      "name": "supportsInterface",
      "outputs": [
        {
          "internalType": "bool",
          "name": "",
          "type": "bool"
        }
      ],
      "stateMutability": "view",
      "type": "function"
    },
    {
      "inputs": [
        {
          "internalType": "uint256",
          "name": "",
          "type": "uint256"
        }
      ],
      "name": "tiers",
      "outputs": [
        {
          "internalType": "uint256",
          "name": "minUsdc6",
          "type": "uint256"
        },
        {
          "internalType": "uint256",
          "name": "attr",
          "type": "uint256"
        },
        {
          "internalType": "uint256",
          "name": "tierExpirySeconds",
          "type": "uint256"
        }
      ],
      "stateMutability": "view",
      "type": "function"
    },
    {
      "inputs": [
        {
          "internalType": "uint256",
          "name": "",
          "type": "uint256"
        }
      ],
      "name": "tokenTierIndexOrMax",
      "outputs": [
        {
          "internalType": "uint256",
          "name": "",
          "type": "uint256"
        }
      ],
      "stateMutability": "view",
      "type": "function"
    },
    {
      "inputs": [],
      "name": "totalActiveMemberships",
      "outputs": [
        {
          "internalType": "uint256",
          "name": "",
          "type": "uint256"
        }
      ],
      "stateMutability": "view",
      "type": "function"
    },
    {
      "inputs": [],
      "name": "totalMembershipIssued",
      "outputs": [
        {
          "internalType": "uint256",
          "name": "",
          "type": "uint256"
        }
      ],
      "stateMutability": "view",
      "type": "function"
    },
    {
      "inputs": [
        {
          "internalType": "uint256",
          "name": "",
          "type": "uint256"
        }
      ],
      "name": "totalMembershipIssuedByTierIndex",
      "outputs": [
        {
          "internalType": "uint256",
          "name": "",
          "type": "uint256"
        }
      ],
      "stateMutability": "view",
      "type": "function"
    },
    {
      "inputs": [],
      "name": "totalMembershipUpgraded",
      "outputs": [
        {
          "internalType": "uint256",
          "name": "",
          "type": "uint256"
        }
      ],
      "stateMutability": "view",
      "type": "function"
    },
    {
      "inputs": [],
      "name": "totalSupply",
      "outputs": [
        {
          "internalType": "uint256",
          "name": "",
          "type": "uint256"
        }
      ],
      "stateMutability": "view",
      "type": "function"
    },
    {
      "inputs": [
        {
          "internalType": "uint256",
          "name": "id",
          "type": "uint256"
        }
      ],
      "name": "totalSupply",
      "outputs": [
        {
          "internalType": "uint256",
          "name": "",
          "type": "uint256"
        }
      ],
      "stateMutability": "view",
      "type": "function"
    },
    {
      "inputs": [
        {
          "internalType": "address",
          "name": "newOwner",
          "type": "address"
        }
      ],
      "name": "transferOwnership",
      "outputs": [],
      "stateMutability": "nonpayable",
      "type": "function"
    },
    {
      "inputs": [
        {
          "internalType": "address",
          "name": "",
          "type": "address"
        }
      ],
      "name": "transferWhitelist",
      "outputs": [
        {
          "internalType": "bool",
          "name": "",
          "type": "bool"
        }
      ],
      "stateMutability": "view",
      "type": "function"
    },
    {
      "inputs": [],
      "name": "transferWhitelistEnabled",
      "outputs": [
        {
          "internalType": "bool",
          "name": "",
          "type": "bool"
        }
      ],
      "stateMutability": "view",
      "type": "function"
    },
    {
      "inputs": [],
      "name": "upgradeType",
      "outputs": [
        {
          "internalType": "uint8",
          "name": "",
          "type": "uint8"
        }
      ],
      "stateMutability": "view",
      "type": "function"
    },
    {
      "inputs": [
        {
          "internalType": "uint256",
          "name": "",
          "type": "uint256"
        }
      ],
      "name": "uri",
      "outputs": [
        {
          "internalType": "string",
          "name": "",
          "type": "string"
        }
      ],
      "stateMutability": "view",
      "type": "function"
    }
  ],
  "bytecode": "0x60a0604052346103b95761640680380380610019816103bd565b928339810160e0828203126103b95781516001600160401b0381116103b957820181601f820112156103b95780516001600160401b03811161031a57610068601f8201601f19166020016103bd565b92818452602082840101116103b9575f928160208094018483015e010152602081015160098110156103b95760408201516100a5606084016103e2565b916100b2608085016103e2565b9360a08101519060ff82168092036103b95760c001519283151584036103b9576020945f6100df876103bd565b52600254600181811c911680156103af575b8782101461039b57601f8111610369575b505f6002556001600160a01b031692831561035657600380546001600160a01b031981168617909155604051979085906001600160a01b03167f8be0079c531659141344cd1fd0a4f28419497f9722a3daafe3b4186f6b6457e05f80a3600160045560646019556001600160a01b03811690811590811561034c575b5061033d576002841161032e57336080528060018060a01b031960055416176005556006549160ff60a01b9060a01b169160018060a81b031916171760065560075560ff19601a541617601a5560017fbc488d3e2575f0f2113dc4d9a0cd6bc52445c6bc28a8974ed97a6ba3ecfd657a55805f527fbc488d3e2575f0f2113dc4d9a0cd6bc52445c6bc28a8974ed97a6ba3ecfd657b835260405f20600160ff198254161790555f5160206163e65f395f51905f52546801000000000000000081101561031a5760018101805f5160206163e65f395f51905f5255811015610306575f5160206163e65f395f51905f525f9081528490200180546001600160a01b031916909117905564174876e8007ffed699897f2561c8a98f833aa3de83c4904370d413fe5fb15abe26e9f8150b29556102cb575b604051615fef90816103f7823960805181612b010152f35b7fc52867146282c253c04e94eb2a948478a1f7ef84cf2d6f5864facc99f2203f2c91600160ff19600a541617600a5560018152a15f806102b3565b634e487b7160e01b5f52603260045260245ffd5b634e487b7160e01b5f52604160045260245ffd5b63c7e283e160e01b5f5260045ffd5b63ab82bb9960e01b5f5260045ffd5b90503b155f61017e565b631e4fbdf760e01b5f525f60045260245ffd5b80156101025760025f52601f875f20910160051c905f5b82811061038e575050610102565b5f82820155600101610380565b634e487b7160e01b5f52602260045260245ffd5b90607f16906100f1565b5f80fd5b6040519190601f01601f191682016001600160401b0381118382101761031a57604052565b51906001600160a01b03821682036103b95756fe60806040526004361015610019575b3415613b6c575b5f80fd5b5f3560e01c8062fdd58e146105cd57806301ffc9a7146105c8578063039af9eb146105c357806303ca3e38146105be5780630a106e9c146105b95780630b6c8d71146105b45780630cb85641146105af5780630e4ab487146105aa5780630e89341c146105a55780630ec3786b146105a05780631018c34b1461059b57806310bba86414610596578063116191b6146105325780631284b92f1461059157806317c957091461058c57806318160ddd146105875780631c790e24146105825780631fe56e6a1461057d57806324d7806c146105785780632aff2a59146105735780632b681a541461056e5780632dd50a49146105695780632eb2c2d61461056457806333d4e5621461055f5780633c703d451461055a5780633c970fb91461055557806343159ce514610550578063475e53ec1461054b57806348ed7ebe1461054657806349dd0900146105415780634dda22151461053c5780634e1273f41461053757806353785619146105325780635476d0711461052d57806356217848146105285780635637d5bc14610523578063564da7571461051e57806356c689fa146105195780636465c3a714610514578063671395c81461050f578063684cc3a51461050a5780636f0fa0cb146105055780636f5def3914610500578063706e0132146104fb578063715018a6146104f657806371b8982f1461041f5780637766fa44146104f15780637ffbe241146104ec57806382b720c9146104e757806383dbbf53146104e2578063897828a8146104dd5780638a1b32bb146104d85780638abc9b25146104d35780638da5cb5b146104ce5780638db55308146104c957806394b2e946146104c45780639565c542146104bf57806398951b56146104ba5780639b52f90d146104b55780639f1bbda7146104b05780639f3d1a2a146104ab5780639f48facc146104a6578063a22cb465146104a1578063a47904461461049c578063a657a65b14610497578063a876c75914610492578063a98d916e1461048d578063acf12d3d14610488578063aeadb04b14610483578063af7ffa2b1461047e578063b84f1fe814610479578063bd85b03914610474578063c926bbfd1461046f578063c9840daf1461046a578063d05dcc6a14610465578063d182793714610460578063d4506e771461045b578063d52dc51514610456578063d5f3948814610451578063dd1bc5e91461044c578063e4a34dce14610447578063e5a6b10f14610442578063e80304321461043d578063e985e9c514610438578063ea2b867214610433578063f242432a1461042e578063f2fde38b14610429578063f540f22714610424578063f986f6761461041f578063fcef6b011461041a578063fee3d73e146104155763ffa1ad740361000e57612f42565b612f22565b612f05565b611db5565b612edb565b612e64565b612d77565b612c83565b612c52565b612bd8565b612b98565b612b5a565b612b30565b612aec565b612aca565b612a72565b612a18565b6129ee565b612913565b6128ee565b6128b8565b61285e565b6127eb565b6127c4565b6127a7565b612788565b61276b565b612710565b6126a8565b61261d565b6124bf565b612408565b6123eb565b6123c4565b612350565b612328565b6122ed565b6122cf565b6122a7565b6121c6565b612141565b6120df565b612073565b611f7c565b611f3c565b611e02565b611d14565b611cf5565b611cce565b611ca7565b611c5e565b611c23565b611aea565b611a5b565b611967565b61194c565b611922565b611905565b610d9d565b611844565b6117e3565b611780565b611659565b6115e7565b61149c565b611459565b611410565b6113df565b61134b565b6111c3565b61119e565b611137565b611102565b6110d8565b61101b565b610ff2565b610fc8565b610f3f565b610d71565b610d0a565b610cae565b610be7565b610b64565b610b07565b610a46565b61096c565b61074d565b6106e0565b61063d565b6105ef565b6001600160a01b031690565b6001600160a01b0381160361001557565b34610015576040366003190112610015576020610622600435610611816105de565b6024355f525f835260405f20610f15565b54604051908152f35b6001600160e01b031981160361001557565b3461001557602036600319011261001557602060043561065c8161062b565b63ffffffff60e01b16636cdb3d1360e11b811490811561069a575b8115610689575b506040519015158152f35b6301ffc9a760e01b1490505f61067e565b6303a24d0760e21b81149150610677565b634e487b7160e01b5f52603260045260245ffd5b6017548110156106db5760175f52600360205f20910201905f90565b6106ab565b3461001557602036600319011261001557600435601754811015610015576107096060916106bf565b50805490600260018201549101549060405192835260208301526040820152f35b606090600319011261001557600435610742816105de565b906024359060443590565b346100155761075b3661072a565b600654919290916001600160a01b03168061093f57506005546001600160a01b03165b6001600160a01b0316330361093057610795613c6a565b6001600160a01b038116918215610921578015610912576107f8610807916107f35f516020615f035f395f51905f52966107e560405193849263c791063b60e01b60208501528860248501612f74565b03601f198101835282611232565b613c8a565b60208082518301019101612f92565b93909161089761081682613cea565b9161082083613d5c565b61088961082c84613d99565b86158080610909575b6108fa575b61084d610845612fa8565b8b8a89613e95565b156108f35788905b6013546014549290916108de576017546108c2576108739087613edc565b6003546001600160a01b0316613f03565b613f03565b61089285610f9b565b610f15565b546040516001600160a01b039092169582916108b39183612fbc565b0390a46108c06001600455565b005b806108ce575b50610873565b6108d89087613edc565b5f6108c8565b806108e95750610873565b6108d89087613eb5565b5f90610855565b6109048a87613e09565b61083a565b50891515610835565b63201165f360e21b5f5260045ffd5b63a9b8048960e01b5f5260045ffd5b6396f47d2360e01b5f5260045ffd5b61077e565b60409060031901126100155760043561095c816105de565b90602435610969816105de565b90565b346100155761097a36610944565b6006546001600160a01b0316806109d357506005546001600160a01b03165b6001600160a01b03163303610930576109ce6108c0926107e56040519384926302841ba760e21b602085015260248401612fcd565b613cb7565b610999565b6060602091604081019381526040838201528451809452019201905f5b818110610a025750505090565b909192602060a060019260808751805183528481015185840152604081015160408401526060810151606084015201511515608082015201940191019190916109f5565b3461001557602036600319011261001557610a8f6020600435610a68816105de565b60055460405163805a016360e01b815293849283926001600160a01b031660048401612fcd565b038173__$a9219284c3f0d74f57f4dcfc58f5429559$__5af48015610b0257610abf915f91610ad3575b5061312f565b90610acf604051928392836109d8565b0390f35b610af5915060203d602011610afb575b610aed8183611232565b81019061323b565b5f610ab9565b503d610ae3565b613063565b3461001557604036600319011261001557600435610b24816105de565b600654602435906001600160a01b031680610b5f57506005546001600160a01b03165b6001600160a01b03163303610930576108c091613f71565b610b47565b3461001557602036600319011261001557600435610b8061407d565b7ff316e065e93b4fddef3d2d93a57817985081f76ea9e0ca7417ed5b4b086b1fcb6020601854604051908152a1601855005b805180835260209291819084018484015e5f828201840152601f01601f1916010190565b906020610969928181520190610bb2565b3461001557602036600319011261001557610c265f610c046140e1565b604051809381926319c56d4160e21b8352604060048401526044830190610bb2565b306024830152038173__$9326044641c87b14e434c703319e7fbd9b$__5af48015610b0257610acf915f91610c63575b5060405191829182610bd6565b610c7f91503d805f833e610c778183611232565b81019061303e565b5f610c56565b606090600319011261001557600435610c9d816105de565b9060243590604435610969816105de565b3461001557610cbc36610c85565b6006549091906001600160a01b031680610d0557506005546001600160a01b03165b6001600160a01b0316330361093057610cfe92610cf9613c6a565b614150565b6001600455005b610cde565b3461001557604036600319011261001557600435610d27816105de565b600654602435906001600160a01b031680610d6257506005546001600160a01b03165b6001600160a01b03163303610930576108c091614213565b610d4a565b5f91031261001557565b34610015575f36600319011261001557602060405160068152f35b6001600160a01b0316600452602490565b34610015575f366003190112610015576005546040516001600160a01b039091168152602090f35b6001600160a01b03165f9081527fbc488d3e2575f0f2113dc4d9a0cd6bc52445c6bc28a8974ed97a6ba3ecfd657b6020526040902090565b6001600160a01b03165f9081527fbe5c2328713858b26c97b83c5ace333ac35b55572be4794180ba426b12cc48be6020526040902090565b6001600160a01b03165f9081527fbe5c2328713858b26c97b83c5ace333ac35b55572be4794180ba426b12cc48bf6020526040902090565b6001600160a01b03165f9081527fbe5c2328713858b26c97b83c5ace333ac35b55572be4794180ba426b12cc48c26020526040902090565b6001600160a01b03165f9081527fbe5c2328713858b26c97b83c5ace333ac35b55572be4794180ba426b12cc48c36020526040902090565b6001600160a01b03165f9081527fbe5c2328713858b26c97b83c5ace333ac35b55572be4794180ba426b12cc48c46020526040902090565b9060018060a01b03165f5260205260405f2090565b80548210156106db575f5260205f2001905f90565b3461001557604036600319011261001557600435610f5c816105de565b6001600160a01b03165f908152600e602052604090208054602435919082101561001557602091610f8c91610f2a565b90549060031b1c604051908152f35b5f527fe5fcefe92466b78c655fa732b80b16e07a00f2a897e833e17d9914703cad563360205260405f2090565b34610015576020366003190112610015576004355f52600b602052602060405f2054604051908152f35b34610015575f3660031901126100155760205f516020615fa35f395f51905f5254604051908152f35b346100155760403660031901126100155760243560043561103b826105de565b6006546001600160a01b0316806110d357506005546001600160a01b03165b6001600160a01b03163303610930575f806110736142c0565b93604051602081019163071e438960e21b835285602483015260018060a01b03166044820152604481526110a8606482611232565b5190855af46110b561306e565b50156110c4576108c091614670565b6363bc5ecb60e11b5f5260045ffd5b61105a565b34610015576020366003190112610015576004355f526011602052602060405f2054604051908152f35b3461001557602036600319011261001557602060ff61112b600435611126816105de565b610dc5565b54166040519015158152f35b346100155761114536610944565b6006546001600160a01b03168061119957506005546001600160a01b03165b6001600160a01b03163303610930576109ce6108c0926107e5604051938492630ed647d960e11b602085015260248401612fcd565b611164565b3461001557602036600319011261001557610abf6004356111be816105de565b61312f565b3461001557610cfe6111d436610c85565b916111dd613c6a565b613265565b634e487b7160e01b5f52604160045260245ffd5b606081019081106001600160401b0382111761121157604052565b6111e2565b61010081019081106001600160401b0382111761121157604052565b601f909101601f19168101906001600160401b0382119082101761121157604052565b6040519061126460a083611232565b565b6040519061126461010083611232565b6001600160401b0381116112115760051b60200190565b9080601f830112156100155781356112a481611276565b926112b26040519485611232565b81845260208085019260051b82010192831161001557602001905b8282106112da5750505090565b81358152602091820191016112cd565b6001600160401b03811161121157601f01601f191660200190565b81601f820112156100155780359061131c826112ea565b9261132a6040519485611232565b8284526020838301011161001557815f926020809301838601378301015290565b346100155760a036600319011261001557600435611368816105de565b60243590611375826105de565b6044356001600160401b0381116100155761139490369060040161128d565b6064356001600160401b038111610015576113b390369060040161128d565b608435939091906001600160401b038511610015576113d96108c0953690600401611305565b93613425565b34610015576020366003190112610015576020611406600435611401816105de565b61347e565b6040519015158152f35b34610015576020366003190112610015576004355f527ffed699897f2561c8a98f833aa3de83c4904370d413fe5fb15abe26e9f8150b30602052602060405f2054604051908152f35b3461001557604036600319011261001557610cfe600435611479816105de565b602435611484613c6a565b61148c61407d565b6108736013549160145493614751565b34610015576040366003190112610015576004356114b9816105de565b6024356006546001600160a01b0316806115e257506005546001600160a01b03165b6001600160a01b03163303610930576114f2613c6a565b9081906001600160a01b038116156109215761150d90613cea565b5f8080526020529061152c825f516020615fc35f395f51905f52610f15565b54908115610912575f19146115da575b8083116115a0575081156109125761159381611579847fcfaedf921126ed75cd0b52e9418d816572c256b67104e03066bd3f067f2d53c094614778565b6040519384526001600160a01b0316929081906020820190565b0390a26108c06001600455565b60405163406e3ab960e01b81526001600160a01b0390921660048301525f60248301526044820152606481019190915280608481015b0390fd5b91508161153c565b6114db565b34610015576115f53661072a565b6006549091906001600160a01b03168061165457506005546001600160a01b03165b6001600160a01b031633036109305761162e613c6a565b6001600160a01b038316156109215781156109125761164f610cfe93613cea565b61496b565b611617565b346100155761166736610c85565b600654919290916001600160a01b03168061177b57506005546001600160a01b03165b6001600160a01b03163303610930576116a1613c6a565b6001600160a01b03811615801561176a575b610921578215610912576116d76116d36116cc84610dc5565b5460ff1690565b1590565b6110c4575f516020615f235f395f51905f529161157961171f61159393611719604051631deff10f60e11b60208201526109ce816107e58b89602484016134e6565b50613cea565b9161172983613d5c565b6117338684613e09565b6013546014549161174c611745612fa8565b8987613e50565b6117568882613f71565b61176088866149d0565b6108848886613eb5565b506001600160a01b038216156116b3565b61168a565b346100155760203660031901126100155760043561179d816105de565b6001600160a01b039081165f9081527fbc488d3e2575f0f2113dc4d9a0cd6bc52445c6bc28a8974ed97a6ba3ecfd65816020908152604091829020549151919092168152f35b34610015575f366003190112610015576020600754604051908152f35b90602080835192838152019201905f5b81811061181d5750505090565b8251845260209384019390920191600101611810565b906020610969928181520190611800565b34610015576040366003190112610015576004356001600160401b03811161001557366023820112156100155780600401359061188082611276565b9161188e6040519384611232565b8083526024602084019160051b8301019136831161001557602401905b8282106118eb57836024356001600160401b03811161001557610acf916118d96118df92369060040161128d565b90613501565b60405191829182611833565b6020809183356118fa816105de565b8152019101906118ab565b34610015575f366003190112610015576020601554604051908152f35b34610015576020366003190112610015576004355f526012602052602060405f2054604051908152f35b34610015575f36600319011261001557602060405160648152f35b3461001557604036600319011261001557600435611984816105de565b60243590611990613c6a565b61199861407d565b6001600160a01b03811615610921578115610912576115936119c75f516020615f235f395f51905f5292613cea565b6119d081613d5c565b6119da8482613e09565b611579601354601454906119ff6040516119f5602082611232565b5f81528886613e50565b611a0987856149d0565b6108738785613eb5565b604435906001600160401b038216820361001557565b959260c09592989794919860e08801998852602088015260408701526060860152608085015260a08401521515910152565b34610015576020366003190112610015576004356001600160401b0381168103610015576001600160401b03165f9081527f348bae4e1f5cd16c7acea618682eb9de87b5f8161d5b94b9b5591b7620ae71a2602052604090208054610acf600183015492600281015490600381015460048201549060ff60066005850154940154169360405197889788611a29565b3461001557611af83661072a565b600654919290916001600160a01b031680611c1e57506005546001600160a01b03165b6001600160a01b0316330361093057611b32613c6a565b6001600160a01b038116918215610921578015610912576107f8611b82916107f35f516020615f035f395f51905f52966107e5604051938492634404589760e01b60208501528860248501612f74565b939091610897611b9182613cea565b91611b9b83613d5c565b84158080611c15575b611c06575b611bbc611bb4612fa8565b898887613e95565b15611c0057865b80611bd3575b5061089285610f9b565b610873611bfa91611be76013549060145490565b929091611bf481896149d0565b87613eb5565b5f611bc9565b5f611bc3565b611c108885613e09565b611ba9565b50871515611ba4565b611b1b565b3461001557602036600319011261001557600435611c40816105de565b60018060a01b03165f52600f602052602060405f2054604051908152f35b34610015576020366003190112610015576004355f527ffed699897f2561c8a98f833aa3de83c4904370d413fe5fb15abe26e9f8150b2d602052602060405f2054604051908152f35b34610015576020366003190112610015576020610622600435611cc9816105de565b610dfd565b34610015576020366003190112610015576020610622600435611cf0816105de565b610e35565b3461001557611d033661072a565b90611d0c613c6a565b61162e61407d565b34610015575f36600319011261001557611d2c6149f7565b600380546001600160a01b031981169091555f906001600160a01b03165f516020615f635f395f51905f528280a3005b906040600319830112610015576004356001600160401b0381116100155782602382011215610015576004810135926001600160401b0384116100155760248483010111610015576024019190602435610969816105de565b3461001557611dc336611d5c565b6006549091906001600160a01b031680611dfd57506005546001600160a01b03165b6001600160a01b03163303610930576108c0926135ab565b611de5565b3461001557611e1036611d5c565b6006549192916001600160a01b031680611f3757506005546001600160a01b03165b6001600160a01b0316330361093057611e49613c6a565b6001600160a01b0381161561092157611e98611e895f94611e8486956107e5604051938492633aa2954160e11b60208501526024840161365e565b613cc4565b6020808251830101910161366f565b611ea39291926142c0565b928115158514611efe57611ed2906107e5604051938492602084019663d8bdbdf560e01b8852602485016136cf565b51915af4611ede61306e565b505b15611eef576108c06001600455565b63fb713d2b60e01b5f5260045ffd5b6107e59150611f25906040519283916020830195630b18ae1d60e11b87526024840161369f565b51915af4611f3161306e565b50611ee0565b611e32565b3461001557602036600319011261001557600435611f59816105de565b60018060a01b03165f526009602052602060ff60405f2054166040519015158152f35b346100155760a036600319011261001557600435611f998161062b565b60243590611fa6826105de565b604435906064356084356006549091906001600160a01b03168061206e57506005546001600160a01b03165b6001600160a01b031633036109305761203e93611fed6142c0565b6040516382b720c960e01b60208201526001600160e01b031990951660248601526001600160a01b0390961660448501526064840152608483015260a48083019190915281526109ce60c482611232565b906020828051810103126100155761205e6020610acf9301518092614670565b6040519081529081906020820190565b611fd2565b346100155760203660031901126100155760043561208f61407d565b80156120c6576020817fd45b01a2f21a7aa8a0f57023efdce73147de071e77875c3f4d486b1e13eaef7092600755604051908152a1005b6376024b7160e01b5f5260045ffd5b8015150361001557565b34610015576020366003190112610015577fc52867146282c253c04e94eb2a948478a1f7ef84cf2d6f5864facc99f2203f2c602060043561211f816120d5565b61212761407d565b151560ff19600a541660ff821617600a55604051908152a1005b346100155760203660031901126100155760043561215e816105de565b6006546001600160a01b0316806121c157506005546001600160a01b03165b6001600160a01b0316330361093057604051638a1b32bb60e01b60208201526001600160a01b0390911660248083019190915281526108c0906109ce604482611232565b61217d565b34610015576060366003190112610015576044356004356024356121e861407d565b81156122985760175490604051936121ff856111f6565b83855260208501918083526040860195828752600160401b851015611211576001850160175561222e856106bf565b919091612293577fc9553df3224b08515381089b4a0e07d62144ba87c402485fabd66899cadc2ab19761228e9560029251845551600184015551910155604051948594859094939260609260808301968352602083015260408201520152565b0390a1005b613707565b639033099360e01b5f5260045ffd5b34610015575f366003190112610015576003546040516001600160a01b039091168152602090f35b3461001557602036600319011261001557602061140660043561371a565b346100155760203660031901126100155760043561230a816105de565b60018060a01b03165f526010602052602060405f2054604051908152f35b34610015575f366003190112610015576006546040516001600160a01b039091168152602090f35b346100155760203660031901126100155760043560ff61236f33610dc5565b5416156110c45761237e6142c0565b905f806040516020810190634c4a8dab60e11b8252846024820152602481526123a8604482611232565b5190855af46123b561306e565b5015611eef576108c091614670565b346100155760203660031901126100155760206106226004356123e6816105de565b610e6d565b34610015575f366003190112610015576020600854604051908152f35b34610015575f36600319011261001557610acf6124236140e1565b604051918291602083526020830190610bb2565b81516001600160401b039081168252602080840151909116908201526040808301516001600160801b03908116918301919091526060808401519091169082015261010081019291611264919060e090819060808181015115159085015260a08181015160ff169085015260c08181015160ff169085015201516001600160801b0316910152565b34610015576020366003190112610015576004355f60e06040516124e281611216565b8281528260208201528260408201528260608201528260808201528260a08201528260c082015201525f527fe5fcefe92466b78c655fa732b80b16e07a00f2a897e833e17d9914703cad5632602052610acf60405f206125ec6125dc60026040519361254d85611216565b80546001600160401b038082168752604082901c16602087015261257e9060801c6001600160801b03166040870152565b60018101546001600160801b03811660608701526125ce906125c4906125ae608082901c60ff16151560808a0152565b60ff608882901c1660a089015260901c60ff1690565b60ff1660c0870152565b01546001600160801b031690565b6001600160801b031660e0830152565b60405191829182612437565b604090600319011261001557600435612610816105de565b90602435610969816120d5565b346100155761262b366125f8565b6001600160a01b038216918215612696578161265561266692335f52600160205260405f20610f15565b9060ff801983541691151516179055565b60405190151581527f17307eab39ab6107e8899845ad3d59bd9653f200f220920489ca2b5937696c3160203392a3005b62ced3e160e81b5f525f60045260245ffd5b34610015576040366003190112610015576004356001600160401b0381116100155736602382011215610015576004810135906001600160401b038211610015573660248360051b83010111610015576108c091602480359261270a846105de565b016137d4565b34610015576020366003190112610015576004356001600160401b03811161001557366023820112156100155760048101356001600160401b0381116100155736602460608302840101116100155760246108c09201613aba565b34610015575f366003190112610015576020601854604051908152f35b34610015575f36600319011261001557602060405164174876e8008152f35b34610015575f366003190112610015576020601354604051908152f35b346100155760203660031901126100155760206106226004356127e6816105de565b610ea5565b3461001557604036600319011261001557600435612808816105de565b60065460243591906001600160a01b03168061285957506005546001600160a01b03165b6001600160a01b0316330361093057610cfe91612847613c6a565b6003546001600160a01b031691614150565b61282c565b346100155760203660031901126100155760043561287b816105de565b60018060a01b03165f527fbe5c2328713858b26c97b83c5ace333ac35b55572be4794180ba426b12cc48c0602052602060405f2054604051908152f35b34610015576020366003190112610015576004355f525f516020615f435f395f51905f52602052602060405f2054604051908152f35b34610015575f3660031901126100155760206040515f8152f35b60ff81160361001557565b346100155760603660031901126100155760043561293081612908565b60243590600160ff612940611a13565b9216036129b65761297a915f527f348bae4e1f5cd16c7acea618682eb9de87b5f8161d5b94b9b5591b7620ae71a360205260405f20613596565b8054610acf60018301549260028101549060038101546004820154906129a96006600585015494015460ff1690565b9360405197889788611a29565b6129e9915f527f348bae4e1f5cd16c7acea618682eb9de87b5f8161d5b94b9b5591b7620ae71a460205260405f20613596565b61297a565b34610015576020366003190112610015576004355f52600c602052602060405f2054604051908152f35b3461001557602036600319011261001557600435612a35816105de565b60018060a01b03165f527fbe5c2328713858b26c97b83c5ace333ac35b55572be4794180ba426b12cc48c1602052602060405f2054604051908152f35b3461001557602036600319011261001557600435612a8e61407d565b7f1c8121c98d871a1523a6112e29ac660378afbcb9b921cff8f187c3da35d1708181600854612ac260405192839283612fbc565b0390a1600855005b34610015575f36600319011261001557602060ff600a54166040519015158152f35b34610015575f366003190112610015576040517f00000000000000000000000000000000000000000000000000000000000000006001600160a01b03168152602090f35b34610015576020366003190112610015576004355f526016602052602060405f2054604051908152f35b34610015576108c0612b6b366125f8565b90612b7461407d565b60018060a01b03165f52600960205260405f209060ff801983541691151516179055565b34610015575f3660031901126100155760ff60065460a01c166040516009821015612bc4576020918152f35b634e487b7160e01b5f52602160045260245ffd5b3461001557604036600319011261001557600435612bf5816105de565b6107e5612c0f6024356040519283916020830195866134e6565b5190205f527ffed699897f2561c8a98f833aa3de83c4904370d413fe5fb15abe26e9f8150b3160205260ff60405f20541660405180916020820190151582520390f35b3461001557602060ff61112b612c6736610944565b6001600160a01b039091165f9081526001855260409020610f15565b3461001557604036600319011261001557600435612ca0816105de565b6024356006546001600160a01b031680612d7257506005546001600160a01b03165b6001600160a01b0316330361093057612cd9613c6a565b6001600160a01b03821691821561092157612cf6612d4e91613cea565b6040516335be6eb960e21b602082015260248101949094526001600160a01b038116604485018190526064808601859052855293612d3e90612d39608482611232565b613cd0565b5082612d48612fa8565b91613e75565b604051600181525f516020615f835f395f51905f5290602090a36108c06001600455565b612cc2565b346100155760a036600319011261001557600435612d94816105de565b602435612da0816105de565b60443590606435926084356001600160401b03811161001557612dc7903690600401611305565b926001600160a01b0382163381141580612e44575b612e2e576001600160a01b03841615612e1b5715612e09576108c094612e0191614e03565b92909161500d565b626a0d4560e21b5f525f60045260245ffd5b632bfa23e760e11b5f525f60045260245ffd5b63711bec9160e11b5f523360045260245260445ffd5b50805f52600160205260ff612e5c3360405f20610f15565b541615612ddc565b3461001557602036600319011261001557600435612e81816105de565b612e896149f7565b6001600160a01b03168015612ec857600380546001600160a01b0319811683179091556001600160a01b03165f516020615f635f395f51905f525f80a3005b631e4fbdf760e01b5f525f60045260245ffd5b34610015576020366003190112610015576004355f52600d602052602060405f2054604051908152f35b34610015575f366003190112610015576020601454604051908152f35b34610015575f36600319011261001557602060ff601a5416604051908152f35b34610015575f36600319011261001557602060405160148152f35b612f70915f525f60205260405f20610f15565b5490565b604091949392606082019560018060a01b0316825260208201520152565b9190826040910312610015576020825192015190565b60405190612fb7602083611232565b5f8252565b908152602081019190915260400190565b6001600160a01b0391821681529116602082015260400190565b5f516020615fa35f395f51905f5255565b81601f820112156100155780519061300f826112ea565b9261301d6040519485611232565b8284526020838301011161001557815f9260208093018386015e8301015290565b906020828203126100155781516001600160401b038111610015576109699201612ff8565b6040513d5f823e3d90fd5b3d15613098573d9061307f826112ea565b9161308d6040519384611232565b82523d5f602084013e565b606090565b906130a782611276565b6130b46040519182611232565b82815280926130c5601f1991611276565b015f5b8181106130d457505050565b60405160a0810191906001600160401b03831181841017611211576020926040525f81525f838201525f60408201525f60608201525f6080820152828286010152016130c8565b80518210156106db5760209160051b010190565b6001600160a01b0381165f908152600e602052604090209091909182546131558161309d565b935f5b8281106131855750505f80805260205250613180905f516020615fc35f395f51905f52610f15565b549190565b8061319f61319560019385610f2a565b90549060031b1c90565b6132096131b4825f52600b60205260405f2090565b548015159081613225575b6131d1845f52600c60205260405f2090565b546131e4855f52600d60205260405f2090565b54906131ee611255565b95865260208601526040850152606084015215156080830152565b613213828961311b565b5261321e818861311b565b5001613158565b8091504211906131bf565b5190611264826105de565b908160209103126100155751610969816105de565b908160209103126100155751610969816120d5565b91908015613420576001600160a01b038316928315610921576001600160a01b038316156109215760405163c45a015560e01b8152602081600481885afa908115610b02575f91613401575b506001600160a01b031680156109215760405163054c14ed60e51b8152602081600481855afa908115610b02575f916133e2575b506001600160a01b031680156133d35733036133c5576040516303330c7960e41b81526001600160a01b03929092166004830152602090829060249082905afa908115610b02575f91613396575b501561338757602060049360405194858092638da5cb5b60e01b82525afa8015610b0257611264935f91613368575b50614150565b613381915060203d602011610afb57610aed8183611232565b5f613362565b632ad05f3360e11b5f5260045ffd5b6133b8915060203d6020116133be575b6133b08183611232565b810190613250565b5f613333565b503d6133a6565b62645ab960e51b5f5260045ffd5b63ab82bb9960e01b5f5260045ffd5b6133fb915060203d602011610afb57610aed8183611232565b5f6132e5565b61341a915060203d602011610afb57610aed8183611232565b5f6132b1565b505050565b939291906001600160a01b038516338114158061345e575b612e2e576001600160a01b03821615612e1b5715612e09576112649461500d565b50805f52600160205260ff6134763360405f20610f15565b54161561343d565b60ff600a5416156134e0575f805260096020527fec8156718a8372b1db44bb411437d0870f3e3790d4a08526d024ce1b0b668f6b5460ff169081156134c1575090565b6001600160a01b03165f9081526009602052604090205460ff16919050565b50600190565b6001600160a01b039091168152602081019190915260400190565b9190918051835180820361358157505080519061351d82611276565b9161352b6040519384611232565b80835261353a601f1991611276565b013660208401375f5b815181101561357a578061356960019260051b6020808287010151918901015190612f5d565b613573828661311b565b5201613543565b5090925050565b635b05999160e01b5f5260045260245260445ffd5b9060018060401b03165f5260205260405f2090565b91906135b5613c6a565b6001600160a01b0382169182156109215761361884611e846135da8561363798614a2b565b95909661360460405194859363fd44e85560e01b602086015260406024860152606485019161363e565b90604483015203601f198101835282611232565b9261362c60208551860101602086016139aa565b959293915093614acd565b6001600455565b908060209392818452848401375f828201840152601f01601f1916010190565b91602061096993818152019161363e565b91906040838203126100155782516001600160401b03811161001557602091613699918501612ff8565b92015190565b6001600160a01b039091168152600160208201819052604082015260806060820181905261096992910190610bb2565b9392916137029060809260018060a01b03168652600160208701526001604087015260a0606087015260a0860190610bb2565b930152565b634e487b7160e01b5f525f60045260245ffd5b64174876e80081106137c5575f9081527ffed699897f2561c8a98f833aa3de83c4904370d413fe5fb15abe26e9f8150b2a60209081526040808320547ffed699897f2561c8a98f833aa3de83c4904370d413fe5fb15abe26e9f8150b2b909252909120546001600160401b03908116911680151590816137ca575b506137c5576001600160401b031680151590816137bb575b506137b757600190565b5f90565b905042115f6137ad565b505f90565b905042105f613795565b6006549091906001600160a01b03168061386d57506005546001600160a01b03165b6001600160a01b031633036109305761380d613c6a565b6001600160a01b03831615610921578015611eef5761386392613618611e849261384061383a8287613872565b90614a2b565b9490956107e58560405194859363bca0e27d60e01b6020860152602485016138ac565b6112646001600455565b6137f6565b90156106db57803590601e19813603018212156100155701803591906001600160401b038311610015576020018236038113610015579190565b93929190816040860160408752526060850160608360051b87010192825f90601e19813603015b8383106138f6575050505050509060206112649294019060018060a01b03169052565b909192939495605f198a8203018652863582811215610015578301602081019190356001600160401b0381116100155780360383136100155761393f602092839260019561363e565b9801960194930191906138d3565b9080601f8301121561001557815161396481611276565b926139726040519485611232565b81845260208085019260051b82010192831161001557602001905b82821061399a5750505090565b815181526020918201910161398d565b9060808282031261001557815192602083015192604081015160018060401b03811161001557836139dc91830161394d565b60608201519093906001600160401b03811161001557610969920161394d565b91908110156106db576060020190565b634e487b7160e01b5f52601160045260245ffd5b6017545f60175580613a2f5750565b80600302906003820403613a6d5760175f5260205f205f5b828110613a5357505050565b805f60026003938501828155826001820155015501613a47565b613a0c565b601754600160401b81101561121157600181016017556017548110156106db57604060029160175f52600360205f209102019280358455602081013560018501550135910155565b613ac261407d565b8115613b48575f5b828110613b2f5750613ada613a20565b5f5b828110613b135750506040519081527f2f291eaf494dc7eca20457441a1df7d9119f0c0d764309daf9cb6b148810ee3690602090a1565b80613b29613b2460019386866139fc565b613a72565b01613adc565b613b3a8184846139fc565b351561229857600101613aca565b6308ba5b6160e01b5f5260045ffd5b90816020910312610015575161096981612908565b613b74614cb7565b60405163426dc88f60e01b81526001600160e01b03195f351660048201526020816024816001600160a01b0386165afa908115610b02575f91613c3b575b5060ff1660fd198101613bde57505f80915b368280378136915af43d90815f803e15613bdb575ff35b5ffd5b905080613bf557505f80613bf0614436565b613bc4565b60038103613c0857505f80613bf06142c0565b60018103613c1b57505f80613bf06143c4565b600203613c2c575f80613bf0614352565b633655084960e01b5f5260045ffd5b613c5d915060203d602011613c63575b613c558183611232565b810190613b57565b5f613bb2565b503d613c4b565b600260045414613c7b576002600455565b633ee5aeb560e01b5f5260045ffd5b5f8091613c9760016144a7565b602082519201905af490613ca961306e565b9115613cb157565b50614d53565b5f8091613c9760036144a7565b5f8091613c97826144a7565b5f8091613c9760026144a7565b5f8091613c9760046144a7565b6005546040516306e0faf160e21b81529160209183918291613d1991906001600160a01b031660048401612fcd565b038173__$a9219284c3f0d74f57f4dcfc58f5429559$__5af4908115610b02575f91613d43575090565b610969915060203d602011610afb57610aed8183611232565b60405163e6a84c7760e01b60208201526001600160a01b039091166024808301919091528152613d9690613d91604482611232565b613cdd565b50565b6001600160a01b0381165f908152600f60205260409020548015159182613de9575b5081613dc5575090565b90505f52600b60205260405f20548015159081613de157501590565b905042111590565b81613dff9293505f525f60205260405f20610f15565b541515905f613dbb565b8115613e4c57613e1890613d99565b613d965760175415613d9657613e34613e2f614d85565b6106bf565b505411613e3d57565b63559d06d760e01b5f5260045ffd5b5050565b9091906001600160a01b03811615612e1b57613e6f611264935f614e03565b91614e28565b9091906001600160a01b03811615612e1b57613e6f600161126494614e03565b919291906001600160a01b03821615612e1b5761126493613e6f91614e03565b90613d91613d96926107e560405193849263a55d613f60e01b6020850152602484016134e6565b90613d91613d96926107e560405193849263179953bf60e11b6020850152602484016134e6565b9160135482810391818311613a6d576014549080820394828611613a6d576001600160a01b03871615938415613f45575b5050505061342057611264926153b1565b1492509082613f5a575b50505f808080613f34565b1490505f80613f4f565b91908201809211613a6d57565b906001600160a01b038216158015614075575b613e4c57613f9182610dfd565b805492828401809411613a6d57600893613fab9255610edd565b610e1042045f5260205260405f209060098201613fcc6116d3825460ff1690565b614066575b50613fdd5f8354613f64565b8255613fee60018301918254613f64565b905560028101613fff5f8254613f64565b9055600381016140105f8254613f64565b9055600481016140215f8254613f64565b9055600581016140325f8254613f64565b9055600681016140435f8254613f64565b9055600781016140545f8254613f64565b9055016140625f8254613f64565b9055565b61406f90614a1e565b5f613fd1565b508015613f84565b6006546001600160a01b0316806140dc57506005546001600160a01b03165b6003546001600160a01b031633141590816140c8575b506140b957565b630fc5e1ab60e41b5f5260045ffd5b6001600160a01b031633141590505f6140b2565b61409c565b6005546001600160a01b03168015818115614146575b506133d3575f60049160405192838092634f9e8d1560e11b82525afa908115610b02575f9161412c575b508051156133d35790565b61414091503d805f833e610c778183611232565b5f614121565b90503b155f6140f7565b90916001600160a01b038216918215610921576001600160a01b03821615610921578315610912577f6ac4f60455173f2148d89d52868ac4ffb14111720d245aa36ad26e0d7e64c59b916141f46141a961420e93613cea565b916141b383613d5c565b6141bd8784613e09565b601354601454916141d66141cf612fa8565b8a87613e50565b6141e089866149d0565b6141ea8986613eb5565b61088489826154aa565b6040519485526001600160a01b0316939081906020820190565b0390a3565b906001600160a01b0382161580156142b8575b613e4c5761423382610e35565b805492828401809411613a6d576008936142639255614256610e10420491610edd565b905f5260205260405f2090565b90600982016142766116d3825460ff1690565b6142a9575b506142875f8354613f64565b8255600182016142985f8254613f64565b9055613fff60028301918254613f64565b6142b290614a1e565b5f61427b565b508015614226565b6142cb6005546105d2565b6001600160a01b038116908115908115614348575b506133d357602060049160405192838092632502c7e760e11b82525afa908115610b02575f91614329575b506001600160a01b0381166109695763a9d04f8760e01b5f5260045ffd5b614342915060203d602011610afb57610aed8183611232565b5f61430b565b90503b155f6142e0565b61435d6005546105d2565b6001600160a01b0381169081159081156143ba575b506133d357602060049160405192838092632b5e757b60e11b82525afa908115610b02575f9161432957506001600160a01b0381166109695763a9d04f8760e01b5f5260045ffd5b90503b155f614372565b6143cf6005546105d2565b6001600160a01b03811690811590811561442c575b506133d357602060049160405192838092635ee738d560e11b82525afa908115610b02575f9161432957506001600160a01b0381166109695763a9d04f8760e01b5f5260045ffd5b90503b155f6143e4565b6144416005546105d2565b6001600160a01b03811690811590811561449d575b506133d357602060049160405192838092620c3c5d60e81b82525afa908115610b02575f9161432957506001600160a01b0381166109695763a9d04f8760e01b5f5260045ffd5b90503b155f614456565b6144b26005546105d2565b6001600160a01b0381169190821590811561462d575b506133d357602060ff600492169283155f1461455957604051620c3c5d60e81b815292839182905afa908115610b02575f9161453a575b505b6001600160a01b03811661453557600482146145265763a9d04f8760e01b5f5260045ffd5b632dc6cc2360e01b5f5260045ffd5b905090565b614553915060203d602011610afb57610aed8183611232565b5f6144ff565b600184036145a857604051635ee738d560e11b815292839182905afa908115610b02575f91614589575b50614501565b6145a2915060203d602011610afb57610aed8183611232565b5f614583565b600284036145d757604051632b5e757b60e11b815292839182905afa908115610b02575f916145895750614501565b6003840361460657604051632502c7e760e11b815292839182905afa908115610b02575f916145895750614501565b6040516324e1067960e11b815292839182905afa908115610b02575f916145895750614501565b90503b155f6144c8565b908160a091031261001557805161464d8161062b565b91602082015161465c816105de565b916040810151916080606083015192015190565b906146a2815f527fbc488d3e2575f0f2113dc4d9a0cd6bc52445c6bc28a8974ed97a6ba3ecfd657d60205260405f2090565b600681015460ff16908115614722575b50613e4c575f9182916040516146e2816107e56020820194630d61b51960e01b8652602483019190602083019252565b51915af46146ee61306e565b901561471d5761470a8160208061126494518301019101614637565b509290916001600160a01b0316906154d2565b614d53565b6005915001547fbc488d3e2575f0f2113dc4d9a0cd6bc52445c6bc28a8974ed97a6ba3ecfd657a54115f6146b2565b90613d91613d96926107e5604051938492635bcc7ca960e11b6020850152602484016134e6565b91906001600160a01b03831615612e0957614793905f614e03565b925f6040516147a3602082611232565b526147b084835f84615af4565b906147c685846147c085516105d2565b84615bc8565b600260ff6147d6601a5460ff1690565b161480614964575b61492c575b5f91825b8451841015614836576001906147fd858961311b565b519061482761480c878961311b565b515f525f516020615f435f395f51905f5260205260405f2090565b828154039055019301926147e7565b614855919492969593505f516020615fa35f395f51905f525403612fe7565b5f9460e084019460c060a086019501965b86518110156148a857806148a26148906148836001948a5161311b565b516001600160a01b031690565b61489b838c5161311b565b5190615d81565b01614866565b509295505f94509250835b8151811015614923576148c6818361311b565b511580614910575b6148da576001016148b3565b505050905060015b806148f8575b6148ef5750565b61126490615ec7565b50600160ff614909601a5460ff1690565b16146148e8565b5061491b818461311b565b5115156148ce565b505050906148e2565b61495e83613d9161493d85516105d2565b6107e589604051948593635d935afb60e01b60208601528860248601615569565b506147e3565b505f6147de565b60205f516020615f835f395f51905f52916149a1604051633c2f328b60e11b84820152612d39816107e589898760248501612f74565b506149bd6040516149b28482611232565b5f8152868684613e95565b6040519485526001600160a01b031693a3565b90613d91613d96926107e560405193849263b932546160e01b6020850152602484016134e6565b6003546001600160a01b03163303614a0b57565b63118cdaa760e01b5f523360045260245ffd5b805460ff19166001179055565b60408051630d01186b60e41b8152602060048201529392909184918291614a5691602484019161363e565b038173__$a9219284c3f0d74f57f4dcfc58f5429559$__5af4918215610b02575f905f93614a8357509190565b9250506040823d604011614ac5575b81614a9f60409383611232565b81010312610015576020825192614ab5846105de565b015191614ac1836105de565b9190565b3d9150614a92565b90929596919493968751855103614c9a5750614ae890613cea565b90614af282613d5c565b614afb82613d99565b5f955f975f5b8a51811015614b4657614b14818c61311b565b5115614b23575b600101614b01565b985096614b3b90614b348a8961311b565b5190613f64565b600198909790614b1b565b50909192949796939615614c92575b508280614c39575b50505f5b8751811015614bea57614b74818661311b565b5190811561091257600191614b89828b61311b565b5115614be45764174876e800614b9f838c61311b565b5110614bc057614bba90614bb3838c61311b565b518961496b565b01614b61565b614bdf90614bce838c61311b565b5190614bd8612fa8565b918a613e95565b614bba565b50614bba565b509195506112649490939192506001600160a01b03811615614c2757905b601354601454949093614c1e5761088491613edc565b61088491613eb5565b50614c336003546105d2565b90614c08565b614c7791614c478289613e09565b614c59614c52612fa8565b838a613e50565b6001600160a01b03891615614c7e57614c72828a613f71565b615541565b5f82614b5d565b614c7282614c8d6003546105d2565b613f71565b92505f614b55565b60405163dccff66960e01b81529081906115d69060048301610bd6565b614cc26005546105d2565b6001600160a01b03811691908215908115614d49575b506133d357602060049260405193848092634e077ded60e11b82525afa918215610b02575f92614d28575b506001600160a01b03821615828115614d1e575b506133d357565b90503b155f614d17565b614d4291925060203d602011610afb57610aed8183611232565b905f614d03565b90503b155f614cd8565b80519081614d805760405163dccff66960e01b8152602060048201529081906115d6906024830190610bb2565b602001fd5b6017548015614dfd575f90601754156106db5760175f527fc624b66cc0138b8fabc209247f72d758e1cf3343756d543badbf24212bed8c155460015b828110614dce5750505090565b81614dd8826106bf565b505410614de8575b600101614dc1565b809350614df591506106bf565b505482614de0565b505f1990565b9160405192600184526020840152604083019160018352606084015260808301604052565b909193614e378584845f615af4565b91614e4d8685614e4786516105d2565b5f615bc8565b600260ff614e5d601a5460ff1690565b161480615006575b614fce575b5f5b8451811015614ec25780614ebc614eb7614e886001948b61311b565b51614e9661480c858b61311b565b614ea1828254613f64565b90555f516020615fa35f395f51905f5254613f64565b612fe7565b01614e6c565b509091929360018060a01b038216159586614f67575b5f969560e086019660c060a088019701985b8851811015614f195780614f138b61489b83614f0c6148836001978f5161311b565b925161311b565b01614eea565b5092955092955092955015614f2f575b50505050565b8051600103614f575790602080614f4e95930151910151915f3361572c565b5f808080614f29565b614f62935f3361560e565b614f4e565b9591925f95949195935f945b8651861015614fa757600190614f89878b61311b565b5190614f9861480c898b61311b565b82815403905501950194614f73565b614fc9919498929550969295965f516020615fa35f395f51905f525403612fe7565b614ed8565b61500084613d91614fdf86516105d2565b6107e58a604051948593635d935afb60e01b60208601525f60248601615569565b50614e6a565b505f614e65565b929491909361501e86838787615af4565b9361502e87846147c088516105d2565b6001600160a01b0381161580159790888061539f575b806152ea575b80806152d0575b61529b575b600260ff615066601a5460ff1690565b16149081615293575b5061525b575b615212575b6001600160a01b0387161596876151a7575b5f989760e088019860c060a08a0199019a5b8a518110156150c757806150c18d61489b83614f0c8f600197614883915161311b565b0161509e565b50929598509295985092955061511c575b156150e5575b5050505050565b845160010361510b57602080615101960151920151923361572c565b5f808080806150de565b6151179491923361560e565b615101565b94939291905f955f5b865181101561519b57615138818861311b565b511580615188575b61514c57600101615125565b509091929394955060015b80615170575b156150d85761516b84615ec7565b6150d8565b50600160ff615181601a5460ff1690565b161461515d565b50615193818561311b565b511515615140565b50909192939495615157565b96925f98949692959198955f965b88518810156151e9576001906151cb898d61311b565b51906151da61480c8b8d61311b565b828154039055019701966151b5565b61520d919498969a939750989194985f516020615fa35f395f51905f525403612fe7565b61508c565b94915f9794919693975b885181101561524d5780615247614eb78b614e9661480c856152406001988f61311b565b519361311b565b0161521c565b50919496929590939661507a565b61528d85613d9161526c8a516105d2565b6107e586604051948593635d935afb60e01b60208601528a60248601615569565b50615075565b90505f61506f565b6152cb6152ab60208a01516105d2565b6152b860408b01516105d2565b60608b01519060808c0151928d89615e1c565b615056565b506060880151151580615051575060808801511515615051565b979295919893905f985f995b87518b1015615379576153098b8961311b565b51908c60648310801561536a575b61535f578c6153259161311b565b511561535557508061533a615349928b615d81565b6153448b516105d2565b615da8565b6001809a5b01996152f6565b9a6001915061534e565b509a6001915061534e565b5064174876e800831015615317565b909192959a93979499501561504a5761539a61539589516105d2565b613d5c565b61504a565b506001600160a01b0388161515615044565b6001600160a01b038116158015615499575b61342057614062916153d6600892610edd565b610e1042045f5260205260405f2090600982016153f76116d3825460ff1690565b61548a575b506154085f8354613f64565b8255600182016154195f8254613f64565b90556002820161542a5f8254613f64565b90556003820161543b5f8254613f64565b90556004820161544c5f8254613f64565b90556005820161545d5f8254613f64565b90556006820161546e5f8254613f64565b905561547f60078301918254613f64565b905501918254613f64565b61549390614a1e565b5f6153fc565b50811580156153c3575082156153c3565b906001600160a01b0382161580156154ca575b613e4c57611264916157ca565b5080156154bd565b9092906001600160e01b031916630b18ae1d60e11b81036154fc57632bb82cb360e01b5f5260045ffd5b631cb4772560e21b8103615528575050906112649160405191615520602084611232565b5f8352613e50565b90915063178fb21b60e11b03611eef5761126491614751565b906001600160a01b038216158015615561575b613e4c57611264916158ae565b508015615554565b6001600160a01b0391821681529116602082015260806040820181905261096993919261559891840190611800565b916060818403910152611800565b9081602091031261001557516109698161062b565b6001600160a01b0391821681529116602082015260a060408201819052610969949193919261560092916155f29190860190611800565b908482036060860152611800565b916080818403910152610bb2565b9091949293853b615622575b505050505050565b60209361564491604051968795869563bc197c8160e01b8752600487016155bb565b03815f6001600160a01b0387165af15f91816156c2575b5061568c575061566961306e565b805191908261568557632bfa23e760e11b5f52613bdb82610d8c565b6020915001fd5b6001600160e01b0319166343e6837f60e01b016156af57505f808080808061561a565b632bfa23e760e11b5f52613bdb90610d8c565b6156e591925060203d6020116156ec575b6156dd8183611232565b8101906155a6565b905f61565b565b503d6156d3565b6001600160a01b039182168152911660208201526040810191909152606081019190915260a06080820181905261096992910190610bb2565b9091949293853b61573f57505050505050565b60209361576191604051968795869563f23a6e6160e01b8752600487016156f3565b03815f6001600160a01b0387165af15f91816157a9575b50615786575061566961306e565b6001600160e01b031916630dc5919f60e01b016156af57505f808080808061561a565b6157c391925060203d6020116156ec576156dd8183611232565b905f615778565b906001600160a01b0382161580156158a6575b613e4c576157ea82610ea5565b805492828401809411613a6d5760089361580d9255614256610e10420491610edd565b90600982016158206116d3825460ff1690565b615897575b506158315f8354613f64565b8255600182016158425f8254613f64565b9055600282016158535f8254613f64565b9055600382016158645f8254613f64565b9055600482016158755f8254613f64565b9055600582016158865f8254613f64565b905561404360068301918254613f64565b6158a090614a1e565b5f615825565b5080156157dd565b906001600160a01b038216158015615979575b613e4c576158ce82610e6d565b805492828401809411613a6d576008936158f19255614256610e10420491610edd565b90600982016159046116d3825460ff1690565b61596a575b506159155f8354613f64565b8255600182016159265f8254613f64565b9055600282016159375f8254613f64565b9055600382016159485f8254613f64565b9055600482016159595f8254613f64565b905561403260058301918254613f64565b61597390614a1e565b5f615909565b5080156158c1565b9080601f8301121561001557815161599881611276565b926159a66040519485611232565b81845260208085019260051b82010192831161001557602001905b8282106159ce5750505090565b6020809183516159dd816105de565b8152019101906159c1565b602081830312610015578051906001600160401b0382116100155701906101008282031261001557615a18611266565b91615a2281613230565b8352615a3060208201613230565b6020840152615a4160408201613230565b6040840152606081810151908401526080808201519084015260a08101516001600160401b0381116100155782615a79918301615981565b60a084015260c08101516001600160401b0381116100155760e092615a9f91830161394d565b60c0840152015160e082015290565b6001600160a01b0391821681529181166020830152909116604082015260a060608201819052610969939192615ae691840190611800565b916080818403910152611800565b909291615b5d5f938460e0604051615b0b81611216565b828152826020820152826040820152826060820152826080820152606060a0820152606060c08201520152615b416005546105d2565b604051637bd8ece960e11b815296879586959260048701615aae565b038173__$a9219284c3f0d74f57f4dcfc58f5429559$__5af4908115610b02575f91615b87575090565b61096991503d805f833e615b9b8183611232565b8101906159e8565b9091615bba61096993604084526040840190611800565b916020818403910152611800565b9392918051835190818103615d6c5750505f5b8151811015615cc7578060051b90602080838501015192860101518460018060a01b038916615c4a575b6001936001600160a01b038216615c20575b50505001615bdb565b615c4091610892615c38925f525f60205260405f2090565b918254613f64565b90555f8481615c17565b509091615c6288610892835f525f60205260405f2090565b54828110615c9057829160019493879203615c888b610892845f525f60205260405f2090565b559350615c05565b6040516303dee4c560e01b81526001600160a01b038a16600482015260248101919091526044810183905260648101829052608490fd5b508051939493919291600103615d29576020908101519101516040516001600160a01b03938416949093169233927fc3d58168c5ae7397731d063d5bbf3d657854427343f4c083240f7aacaa2d0f62928291615d24919083612fbc565b0390a4565b6040516001600160a01b03938416949093169233927f4a39dc06d4c0dbc64b70af90fd698a233a518aa5d07e595d983b8c0526c8f7fb928291615d249183615ba3565b635b05999160e01b5f5260045260245260445ffd5b90613d91613d96926107e5604051938492637e4152e760e11b6020850152602484016134e6565b6001600160a01b03165f908152600e60205260408120805490915b818110615dfd5750600160401b81101561121157615de691600182018155610f2a565b819291549060031b91821b915f19901b1916179055565b83615e088285610f2a565b90549060031b1c14614f2957600101615dc3565b6003549295919392909173__$a9219284c3f0d74f57f4dcfc58f5429559$__916001600160a01b031690823b156100155760405163451cddf960e11b81526001600160a01b03948516600482015295841660248701529683166044860152929091166064840152608483019390935260a482019390935260c48101929092525f90829060e49082905af48015610b0257615eb35750565b80615ec15f61126493611232565b80610d67565b60405163adebc2d360e01b60208201526001600160a01b0390911660248201525f6044808301919091528152613d9690613d9160648261123256fe3bf2de114e2e7636c289f21be023528e47d89b45e873b976c78989c3ddc683f53e38a9410c08ddb4af8b083bfd2b197b1c3e61a651bd1c54c51ebce0cdcdc48ed34312c2e21f45f2b6715cf87d9e919b2098c835582e2b5c6e716490b0dfd0d48be0079c531659141344cd1fd0a4f28419497f9722a3daafe3b4186f6b6457e0ae2f87dbf103db294ddd4ab45caa7a914d70bb3d06eeb8a8dc23e03e84548c8dd34312c2e21f45f2b6715cf87d9e919b2098c835582e2b5c6e716490b0dfd0d5ad3228b676f7d3cd4284a5443f17f1962b36e491b30a40b2405849e597ba5fb5a164736f6c6343000821000abc488d3e2575f0f2113dc4d9a0cd6bc52445c6bc28a8974ed97a6ba3ecfd657c",
  "linkReferences": {
    "project/src/BeamioUserCard/BeamioUserCardFormattingLib.sol": {
      "BeamioUserCardFormattingLib": [
        {
          "length": 20,
          "start": 4135
        }
      ]
    },
    "project/src/BeamioUserCard/BeamioUserCardTransferLib.sol": {
      "BeamioUserCardTransferLib": [
        {
          "length": 20,
          "start": 3722
        },
        {
          "length": 20,
          "start": 16660
        },
        {
          "length": 20,
          "start": 20049
        },
        {
          "length": 20,
          "start": 24408
        },
        {
          "length": 20,
          "start": 25119
        }
      ]
    }
  },
  "deployedLinkReferences": {
    "project/src/BeamioUserCard/BeamioUserCardFormattingLib.sol": {
      "BeamioUserCardFormattingLib": [
        {
          "length": 20,
          "start": 3120
        }
      ]
    },
    "project/src/BeamioUserCard/BeamioUserCardTransferLib.sol": {
      "BeamioUserCardTransferLib": [
        {
          "length": 20,
          "start": 2707
        },
        {
          "length": 20,
          "start": 15645
        },
        {
          "length": 20,
          "start": 19034
        },
        {
          "length": 20,
          "start": 23393
        },
        {
          "length": 20,
          "start": 24104
        }
      ]
    }
  },
  "immutableReferences": {
    "19569": [
      {
        "length": 32,
        "start": 11009
      }
    ]
  },
  "inputSourceName": "project/src/BeamioUserCard/BeamioUserCard.sol",
  "buildInfoId": "solc-0_8_33-a67c9f35403d8e0122fa5ee78427b67e7d146afd"
}