{
  "_format": "hh3-artifact-1",
  "contractName": "BeamioUserCard",
  "sourceName": "src/BeamioUserCard/BeamioUserCard.sol",
  "abi": [
    {
      "inputs": [
        {
          "internalType": "string",
          "name": "uri_",
          "type": "string"
        },
        {
          "internalType": "enum BeamioCurrency.CurrencyType",
          "name": "currency_",
          "type": "uint8"
        },
        {
          "internalType": "uint256",
          "name": "pointsUnitPriceInCurrencyE6_",
          "type": "uint256"
        },
        {
          "internalType": "address",
          "name": "initialOwner",
          "type": "address"
        },
        {
          "internalType": "address",
          "name": "gateway_",
          "type": "address"
        }
      ],
      "stateMutability": "nonpayable",
      "type": "constructor"
    },
    {
      "inputs": [],
      "name": "BM_NotAuthorized",
      "type": "error"
    },
    {
      "inputs": [],
      "name": "BM_ZeroAddress",
      "type": "error"
    },
    {
      "inputs": [],
      "name": "ECDSAInvalidSignature",
      "type": "error"
    },
    {
      "inputs": [
        {
          "internalType": "uint256",
          "name": "length",
          "type": "uint256"
        }
      ],
      "name": "ECDSAInvalidSignatureLength",
      "type": "error"
    },
    {
      "inputs": [
        {
          "internalType": "bytes32",
          "name": "s",
          "type": "bytes32"
        }
      ],
      "name": "ECDSAInvalidSignatureS",
      "type": "error"
    },
    {
      "inputs": [
        {
          "internalType": "address",
          "name": "sender",
          "type": "address"
        },
        {
          "internalType": "uint256",
          "name": "balance",
          "type": "uint256"
        },
        {
          "internalType": "uint256",
          "name": "needed",
          "type": "uint256"
        },
        {
          "internalType": "uint256",
          "name": "tokenId",
          "type": "uint256"
        }
      ],
      "name": "ERC1155InsufficientBalance",
      "type": "error"
    },
    {
      "inputs": [
        {
          "internalType": "address",
          "name": "approver",
          "type": "address"
        }
      ],
      "name": "ERC1155InvalidApprover",
      "type": "error"
    },
    {
      "inputs": [
        {
          "internalType": "uint256",
          "name": "idsLength",
          "type": "uint256"
        },
        {
          "internalType": "uint256",
          "name": "valuesLength",
          "type": "uint256"
        }
      ],
      "name": "ERC1155InvalidArrayLength",
      "type": "error"
    },
    {
      "inputs": [
        {
          "internalType": "address",
          "name": "operator",
          "type": "address"
        }
      ],
      "name": "ERC1155InvalidOperator",
      "type": "error"
    },
    {
      "inputs": [
        {
          "internalType": "address",
          "name": "receiver",
          "type": "address"
        }
      ],
      "name": "ERC1155InvalidReceiver",
      "type": "error"
    },
    {
      "inputs": [
        {
          "internalType": "address",
          "name": "sender",
          "type": "address"
        }
      ],
      "name": "ERC1155InvalidSender",
      "type": "error"
    },
    {
      "inputs": [
        {
          "internalType": "address",
          "name": "operator",
          "type": "address"
        },
        {
          "internalType": "address",
          "name": "owner",
          "type": "address"
        }
      ],
      "name": "ERC1155MissingApprovalForAll",
      "type": "error"
    },
    {
      "inputs": [
        {
          "internalType": "address",
          "name": "owner",
          "type": "address"
        }
      ],
      "name": "OwnableInvalidOwner",
      "type": "error"
    },
    {
      "inputs": [
        {
          "internalType": "address",
          "name": "account",
          "type": "address"
        }
      ],
      "name": "OwnableUnauthorizedAccount",
      "type": "error"
    },
    {
      "inputs": [],
      "name": "ReentrancyGuardReentrantCall",
      "type": "error"
    },
    {
      "inputs": [],
      "name": "UC_AlreadyHasValidCard",
      "type": "error"
    },
    {
      "inputs": [],
      "name": "UC_AmountZero",
      "type": "error"
    },
    {
      "inputs": [],
      "name": "UC_BelowMinThreshold",
      "type": "error"
    },
    {
      "inputs": [],
      "name": "UC_FaucetAmountTooLarge",
      "type": "error"
    },
    {
      "inputs": [],
      "name": "UC_FaucetConfigFrozen",
      "type": "error"
    },
    {
      "inputs": [],
      "name": "UC_FaucetConfigInvalid",
      "type": "error"
    },
    {
      "inputs": [],
      "name": "UC_FaucetDisabledBecausePriced",
      "type": "error"
    },
    {
      "inputs": [],
      "name": "UC_FaucetExpired",
      "type": "error"
    },
    {
      "inputs": [],
      "name": "UC_FaucetGlobalMaxExceeded",
      "type": "error"
    },
    {
      "inputs": [],
      "name": "UC_FaucetIdNotIssued",
      "type": "error"
    },
    {
      "inputs": [],
      "name": "UC_FaucetMaxExceeded",
      "type": "error"
    },
    {
      "inputs": [],
      "name": "UC_FaucetNotEnabled",
      "type": "error"
    },
    {
      "inputs": [],
      "name": "UC_GlobalMisconfigured",
      "type": "error"
    },
    {
      "inputs": [
        {
          "internalType": "address",
          "name": "fromAccount",
          "type": "address"
        },
        {
          "internalType": "uint256",
          "name": "id",
          "type": "uint256"
        },
        {
          "internalType": "uint256",
          "name": "have",
          "type": "uint256"
        },
        {
          "internalType": "uint256",
          "name": "need",
          "type": "uint256"
        }
      ],
      "name": "UC_InsufficientBalance",
      "type": "error"
    },
    {
      "inputs": [],
      "name": "UC_InvalidProposal",
      "type": "error"
    },
    {
      "inputs": [
        {
          "internalType": "address",
          "name": "recovered",
          "type": "address"
        },
        {
          "internalType": "address",
          "name": "expected",
          "type": "address"
        }
      ],
      "name": "UC_InvalidSignature",
      "type": "error"
    },
    {
      "inputs": [
        {
          "internalType": "uint256",
          "name": "nowTs",
          "type": "uint256"
        },
        {
          "internalType": "uint256",
          "name": "validAfter",
          "type": "uint256"
        },
        {
          "internalType": "uint256",
          "name": "validBefore",
          "type": "uint256"
        }
      ],
      "name": "UC_InvalidTimeWindow",
      "type": "error"
    },
    {
      "inputs": [
        {
          "internalType": "uint256",
          "name": "got",
          "type": "uint256"
        },
        {
          "internalType": "uint256",
          "name": "expected",
          "type": "uint256"
        }
      ],
      "name": "UC_InvalidTokenId",
      "type": "error"
    },
    {
      "inputs": [],
      "name": "UC_MustGrow",
      "type": "error"
    },
    {
      "inputs": [],
      "name": "UC_NoBeamioAccount",
      "type": "error"
    },
    {
      "inputs": [],
      "name": "UC_NotAdmin",
      "type": "error"
    },
    {
      "inputs": [
        {
          "internalType": "bytes32",
          "name": "key",
          "type": "bytes32"
        }
      ],
      "name": "UC_OpenAuthAlreadyUsed",
      "type": "error"
    },
    {
      "inputs": [],
      "name": "UC_PointsToNotWhitelisted",
      "type": "error"
    },
    {
      "inputs": [],
      "name": "UC_PointsZero",
      "type": "error"
    },
    {
      "inputs": [],
      "name": "UC_PriceZero",
      "type": "error"
    },
    {
      "inputs": [],
      "name": "UC_PurchaseDisabledBecauseFree",
      "type": "error"
    },
    {
      "inputs": [
        {
          "internalType": "bytes",
          "name": "data",
          "type": "bytes"
        }
      ],
      "name": "UC_RedeemDelegateFailed",
      "type": "error"
    },
    {
      "inputs": [],
      "name": "UC_RedeemModuleZero",
      "type": "error"
    },
    {
      "inputs": [
        {
          "internalType": "address",
          "name": "eoa",
          "type": "address"
        },
        {
          "internalType": "address",
          "name": "aaFactory",
          "type": "address"
        },
        {
          "internalType": "address",
          "name": "acct",
          "type": "address"
        }
      ],
      "name": "UC_ResolveAccountFailed",
      "type": "error"
    },
    {
      "inputs": [],
      "name": "UC_SBTNonTransferable",
      "type": "error"
    },
    {
      "inputs": [],
      "name": "UC_Slippage",
      "type": "error"
    },
    {
      "inputs": [],
      "name": "UC_TierLenMismatch",
      "type": "error"
    },
    {
      "inputs": [],
      "name": "UC_TierMinZero",
      "type": "error"
    },
    {
      "inputs": [],
      "name": "UC_TiersNotDecreasing",
      "type": "error"
    },
    {
      "inputs": [],
      "name": "UC_UnauthorizedGateway",
      "type": "error"
    },
    {
      "anonymous": false,
      "inputs": [
        {
          "indexed": true,
          "internalType": "address",
          "name": "beneficiaryAccount",
          "type": "address"
        },
        {
          "indexed": true,
          "internalType": "uint256",
          "name": "tokenId",
          "type": "uint256"
        },
        {
          "indexed": false,
          "internalType": "uint256",
          "name": "attr",
          "type": "uint256"
        },
        {
          "indexed": false,
          "internalType": "uint256",
          "name": "expiry",
          "type": "uint256"
        }
      ],
      "name": "AdminCardMinted",
      "type": "event"
    },
    {
      "anonymous": false,
      "inputs": [
        {
          "indexed": true,
          "internalType": "address",
          "name": "beneficiaryAccount",
          "type": "address"
        },
        {
          "indexed": false,
          "internalType": "uint256",
          "name": "points6",
          "type": "uint256"
        }
      ],
      "name": "AdminPointsMinted",
      "type": "event"
    },
    {
      "anonymous": false,
      "inputs": [
        {
          "indexed": true,
          "internalType": "address",
          "name": "account",
          "type": "address"
        },
        {
          "indexed": true,
          "internalType": "address",
          "name": "operator",
          "type": "address"
        },
        {
          "indexed": false,
          "internalType": "bool",
          "name": "approved",
          "type": "bool"
        }
      ],
      "name": "ApprovalForAll",
      "type": "event"
    },
    {
      "anonymous": false,
      "inputs": [
        {
          "indexed": false,
          "internalType": "uint256",
          "name": "attr",
          "type": "uint256"
        }
      ],
      "name": "DefaultAttrUpdated",
      "type": "event"
    },
    {
      "anonymous": false,
      "inputs": [
        {
          "indexed": false,
          "internalType": "uint256",
          "name": "oldSecs",
          "type": "uint256"
        },
        {
          "indexed": false,
          "internalType": "uint256",
          "name": "newSecs",
          "type": "uint256"
        }
      ],
      "name": "ExpirySecondsUpdated",
      "type": "event"
    },
    {
      "anonymous": false,
      "inputs": [
        {
          "indexed": true,
          "internalType": "uint256",
          "name": "id",
          "type": "uint256"
        },
        {
          "indexed": true,
          "internalType": "address",
          "name": "userEOA",
          "type": "address"
        },
        {
          "indexed": true,
          "internalType": "address",
          "name": "acct",
          "type": "address"
        },
        {
          "indexed": false,
          "internalType": "uint256",
          "name": "amount",
          "type": "uint256"
        },
        {
          "indexed": false,
          "internalType": "uint256",
          "name": "claimedAfter",
          "type": "uint256"
        }
      ],
      "name": "FaucetClaimed",
      "type": "event"
    },
    {
      "anonymous": false,
      "inputs": [
        {
          "indexed": true,
          "internalType": "uint256",
          "name": "id",
          "type": "uint256"
        },
        {
          "components": [
            {
              "internalType": "uint64",
              "name": "validUntil",
              "type": "uint64"
            },
            {
              "internalType": "uint64",
              "name": "perClaimMax",
              "type": "uint64"
            },
            {
              "internalType": "uint128",
              "name": "maxPerUser",
              "type": "uint128"
            },
            {
              "internalType": "uint128",
              "name": "maxGlobal",
              "type": "uint128"
            },
            {
              "internalType": "bool",
              "name": "enabled",
              "type": "bool"
            },
            {
              "internalType": "uint8",
              "name": "currency",
              "type": "uint8"
            },
            {
              "internalType": "uint8",
              "name": "decimals",
              "type": "uint8"
            },
            {
              "internalType": "uint128",
              "name": "priceInCurrency6",
              "type": "uint128"
            }
          ],
          "indexed": false,
          "internalType": "struct BeamioUserCard.FaucetConfig",
          "name": "cfg",
          "type": "tuple"
        }
      ],
      "name": "FaucetConfigUpdated",
      "type": "event"
    },
    {
      "anonymous": false,
      "inputs": [
        {
          "indexed": true,
          "internalType": "address",
          "name": "user",
          "type": "address"
        },
        {
          "indexed": true,
          "internalType": "uint256",
          "name": "tokenId",
          "type": "uint256"
        },
        {
          "indexed": false,
          "internalType": "uint256",
          "name": "tierIndexOrMax",
          "type": "uint256"
        },
        {
          "indexed": false,
          "internalType": "uint256",
          "name": "minUsdc6",
          "type": "uint256"
        },
        {
          "indexed": false,
          "internalType": "uint256",
          "name": "expiry",
          "type": "uint256"
        }
      ],
      "name": "MemberNFTIssued",
      "type": "event"
    },
    {
      "anonymous": false,
      "inputs": [
        {
          "indexed": true,
          "internalType": "address",
          "name": "user",
          "type": "address"
        },
        {
          "indexed": true,
          "internalType": "uint256",
          "name": "oldActiveTokenId",
          "type": "uint256"
        },
        {
          "indexed": true,
          "internalType": "uint256",
          "name": "newTokenId",
          "type": "uint256"
        },
        {
          "indexed": false,
          "internalType": "uint256",
          "name": "oldTierIndexOrMax",
          "type": "uint256"
        },
        {
          "indexed": false,
          "internalType": "uint256",
          "name": "newTierIndex",
          "type": "uint256"
        },
        {
          "indexed": false,
          "internalType": "uint256",
          "name": "newExpiry",
          "type": "uint256"
        }
      ],
      "name": "MemberNFTUpgraded",
      "type": "event"
    },
    {
      "anonymous": false,
      "inputs": [
        {
          "indexed": true,
          "internalType": "address",
          "name": "fromEOA",
          "type": "address"
        },
        {
          "indexed": true,
          "internalType": "address",
          "name": "fromAccount",
          "type": "address"
        },
        {
          "indexed": true,
          "internalType": "uint256",
          "name": "id",
          "type": "uint256"
        },
        {
          "indexed": false,
          "internalType": "uint256",
          "name": "amount",
          "type": "uint256"
        },
        {
          "indexed": false,
          "internalType": "uint256",
          "name": "maxAmount",
          "type": "uint256"
        },
        {
          "indexed": false,
          "internalType": "bytes32",
          "name": "nonce",
          "type": "bytes32"
        },
        {
          "indexed": false,
          "internalType": "address",
          "name": "toAccount",
          "type": "address"
        }
      ],
      "name": "OpenTransferAuthorized",
      "type": "event"
    },
    {
      "anonymous": false,
      "inputs": [
        {
          "indexed": true,
          "internalType": "address",
          "name": "previousOwner",
          "type": "address"
        },
        {
          "indexed": true,
          "internalType": "address",
          "name": "newOwner",
          "type": "address"
        }
      ],
      "name": "OwnershipTransferred",
      "type": "event"
    },
    {
      "anonymous": false,
      "inputs": [
        {
          "indexed": true,
          "internalType": "address",
          "name": "payerEOA",
          "type": "address"
        },
        {
          "indexed": true,
          "internalType": "address",
          "name": "beneficiaryAccount",
          "type": "address"
        },
        {
          "indexed": true,
          "internalType": "address",
          "name": "usdc",
          "type": "address"
        },
        {
          "indexed": false,
          "internalType": "uint256",
          "name": "usdcIn6",
          "type": "uint256"
        },
        {
          "indexed": false,
          "internalType": "uint256",
          "name": "pointsMinted6",
          "type": "uint256"
        },
        {
          "indexed": false,
          "internalType": "uint256",
          "name": "unitPointPriceUsdc6",
          "type": "uint256"
        },
        {
          "indexed": false,
          "internalType": "bytes32",
          "name": "nonce",
          "type": "bytes32"
        }
      ],
      "name": "PointsPurchasedWithUSDC",
      "type": "event"
    },
    {
      "anonymous": false,
      "inputs": [
        {
          "indexed": false,
          "internalType": "uint256",
          "name": "priceInCurrencyE6",
          "type": "uint256"
        }
      ],
      "name": "PointsUnitPriceUpdated",
      "type": "event"
    },
    {
      "anonymous": false,
      "inputs": [
        {
          "indexed": true,
          "internalType": "uint256",
          "name": "id",
          "type": "uint256"
        },
        {
          "indexed": true,
          "internalType": "address",
          "name": "admin",
          "type": "address"
        }
      ],
      "name": "ProposalApproved",
      "type": "event"
    },
    {
      "anonymous": false,
      "inputs": [
        {
          "indexed": true,
          "internalType": "uint256",
          "name": "id",
          "type": "uint256"
        },
        {
          "indexed": true,
          "internalType": "bytes4",
          "name": "selector",
          "type": "bytes4"
        },
        {
          "indexed": true,
          "internalType": "address",
          "name": "proposer",
          "type": "address"
        }
      ],
      "name": "ProposalCreated",
      "type": "event"
    },
    {
      "anonymous": false,
      "inputs": [
        {
          "indexed": true,
          "internalType": "uint256",
          "name": "id",
          "type": "uint256"
        }
      ],
      "name": "ProposalExecuted",
      "type": "event"
    },
    {
      "anonymous": false,
      "inputs": [
        {
          "indexed": true,
          "internalType": "bytes32",
          "name": "hash",
          "type": "bytes32"
        }
      ],
      "name": "RedeemCancelled",
      "type": "event"
    },
    {
      "anonymous": false,
      "inputs": [
        {
          "indexed": true,
          "internalType": "bytes32",
          "name": "hash",
          "type": "bytes32"
        },
        {
          "indexed": false,
          "internalType": "uint256",
          "name": "points6",
          "type": "uint256"
        },
        {
          "indexed": false,
          "internalType": "uint256",
          "name": "attr",
          "type": "uint256"
        }
      ],
      "name": "RedeemCreated",
      "type": "event"
    },
    {
      "anonymous": false,
      "inputs": [
        {
          "indexed": false,
          "internalType": "uint256",
          "name": "index",
          "type": "uint256"
        },
        {
          "indexed": false,
          "internalType": "uint256",
          "name": "minUsdc6",
          "type": "uint256"
        },
        {
          "indexed": false,
          "internalType": "uint256",
          "name": "attr",
          "type": "uint256"
        }
      ],
      "name": "TierAppended",
      "type": "event"
    },
    {
      "anonymous": false,
      "inputs": [
        {
          "indexed": false,
          "internalType": "uint256",
          "name": "count",
          "type": "uint256"
        }
      ],
      "name": "TiersUpdated",
      "type": "event"
    },
    {
      "anonymous": false,
      "inputs": [
        {
          "indexed": true,
          "internalType": "address",
          "name": "operator",
          "type": "address"
        },
        {
          "indexed": true,
          "internalType": "address",
          "name": "from",
          "type": "address"
        },
        {
          "indexed": true,
          "internalType": "address",
          "name": "to",
          "type": "address"
        },
        {
          "indexed": false,
          "internalType": "uint256[]",
          "name": "ids",
          "type": "uint256[]"
        },
        {
          "indexed": false,
          "internalType": "uint256[]",
          "name": "values",
          "type": "uint256[]"
        }
      ],
      "name": "TransferBatch",
      "type": "event"
    },
    {
      "anonymous": false,
      "inputs": [
        {
          "indexed": true,
          "internalType": "address",
          "name": "operator",
          "type": "address"
        },
        {
          "indexed": true,
          "internalType": "address",
          "name": "from",
          "type": "address"
        },
        {
          "indexed": true,
          "internalType": "address",
          "name": "to",
          "type": "address"
        },
        {
          "indexed": false,
          "internalType": "uint256",
          "name": "id",
          "type": "uint256"
        },
        {
          "indexed": false,
          "internalType": "uint256",
          "name": "value",
          "type": "uint256"
        }
      ],
      "name": "TransferSingle",
      "type": "event"
    },
    {
      "anonymous": false,
      "inputs": [
        {
          "indexed": false,
          "internalType": "bool",
          "name": "enabled",
          "type": "bool"
        }
      ],
      "name": "TransferWhitelistEnabledUpdated",
      "type": "event"
    },
    {
      "anonymous": false,
      "inputs": [
        {
          "indexed": false,
          "internalType": "string",
          "name": "value",
          "type": "string"
        },
        {
          "indexed": true,
          "internalType": "uint256",
          "name": "id",
          "type": "uint256"
        }
      ],
      "name": "URI",
      "type": "event"
    },
    {
      "inputs": [],
      "name": "ISSUED_NFT_START_ID",
      "outputs": [
        {
          "internalType": "uint256",
          "name": "",
          "type": "uint256"
        }
      ],
      "stateMutability": "view",
      "type": "function"
    },
    {
      "inputs": [],
      "name": "NFT_START_ID",
      "outputs": [
        {
          "internalType": "uint256",
          "name": "",
          "type": "uint256"
        }
      ],
      "stateMutability": "view",
      "type": "function"
    },
    {
      "inputs": [],
      "name": "POINTS_DECIMALS",
      "outputs": [
        {
          "internalType": "uint8",
          "name": "",
          "type": "uint8"
        }
      ],
      "stateMutability": "view",
      "type": "function"
    },
    {
      "inputs": [],
      "name": "POINTS_ID",
      "outputs": [
        {
          "internalType": "uint256",
          "name": "",
          "type": "uint256"
        }
      ],
      "stateMutability": "view",
      "type": "function"
    },
    {
      "inputs": [],
      "name": "VERSION",
      "outputs": [
        {
          "internalType": "uint256",
          "name": "",
          "type": "uint256"
        }
      ],
      "stateMutability": "view",
      "type": "function"
    },
    {
      "inputs": [
        {
          "internalType": "address",
          "name": "",
          "type": "address"
        },
        {
          "internalType": "uint256",
          "name": "",
          "type": "uint256"
        }
      ],
      "name": "_userOwnedNfts",
      "outputs": [
        {
          "internalType": "uint256",
          "name": "",
          "type": "uint256"
        }
      ],
      "stateMutability": "view",
      "type": "function"
    },
    {
      "inputs": [
        {
          "internalType": "address",
          "name": "",
          "type": "address"
        }
      ],
      "name": "activeMembershipId",
      "outputs": [
        {
          "internalType": "uint256",
          "name": "",
          "type": "uint256"
        }
      ],
      "stateMutability": "view",
      "type": "function"
    },
    {
      "inputs": [
        {
          "internalType": "address",
          "name": "",
          "type": "address"
        }
      ],
      "name": "activeTierIndexOrMax",
      "outputs": [
        {
          "internalType": "uint256",
          "name": "",
          "type": "uint256"
        }
      ],
      "stateMutability": "view",
      "type": "function"
    },
    {
      "inputs": [
        {
          "internalType": "address",
          "name": "newAdmin",
          "type": "address"
        },
        {
          "internalType": "uint256",
          "name": "newThreshold",
          "type": "uint256"
        }
      ],
      "name": "addAdmin",
      "outputs": [],
      "stateMutability": "nonpayable",
      "type": "function"
    },
    {
      "inputs": [
        {
          "internalType": "uint256",
          "name": "",
          "type": "uint256"
        }
      ],
      "name": "adminList",
      "outputs": [
        {
          "internalType": "address",
          "name": "",
          "type": "address"
        }
      ],
      "stateMutability": "view",
      "type": "function"
    },
    {
      "inputs": [
        {
          "internalType": "uint256",
          "name": "minUsdc6",
          "type": "uint256"
        },
        {
          "internalType": "uint256",
          "name": "attr",
          "type": "uint256"
        }
      ],
      "name": "appendTier",
      "outputs": [],
      "stateMutability": "nonpayable",
      "type": "function"
    },
    {
      "inputs": [
        {
          "internalType": "uint256",
          "name": "id",
          "type": "uint256"
        }
      ],
      "name": "approveProposal",
      "outputs": [],
      "stateMutability": "nonpayable",
      "type": "function"
    },
    {
      "inputs": [
        {
          "internalType": "uint256",
          "name": "id",
          "type": "uint256"
        },
        {
          "internalType": "address",
          "name": "adminSigner",
          "type": "address"
        }
      ],
      "name": "approveProposalByGateway",
      "outputs": [],
      "stateMutability": "nonpayable",
      "type": "function"
    },
    {
      "inputs": [
        {
          "internalType": "uint256",
          "name": "",
          "type": "uint256"
        }
      ],
      "name": "attributes",
      "outputs": [
        {
          "internalType": "uint256",
          "name": "",
          "type": "uint256"
        }
      ],
      "stateMutability": "view",
      "type": "function"
    },
    {
      "inputs": [
        {
          "internalType": "address",
          "name": "account",
          "type": "address"
        },
        {
          "internalType": "uint256",
          "name": "id",
          "type": "uint256"
        }
      ],
      "name": "balanceOf",
      "outputs": [
        {
          "internalType": "uint256",
          "name": "",
          "type": "uint256"
        }
      ],
      "stateMutability": "view",
      "type": "function"
    },
    {
      "inputs": [
        {
          "internalType": "address[]",
          "name": "accounts",
          "type": "address[]"
        },
        {
          "internalType": "uint256[]",
          "name": "ids",
          "type": "uint256[]"
        }
      ],
      "name": "balanceOfBatch",
      "outputs": [
        {
          "internalType": "uint256[]",
          "name": "",
          "type": "uint256[]"
        }
      ],
      "stateMutability": "view",
      "type": "function"
    },
    {
      "inputs": [
        {
          "internalType": "address",
          "name": "fromEOA",
          "type": "address"
        },
        {
          "internalType": "uint256",
          "name": "usdcAmount6",
          "type": "uint256"
        },
        {
          "internalType": "uint256",
          "name": "validAfter",
          "type": "uint256"
        },
        {
          "internalType": "uint256",
          "name": "validBefore",
          "type": "uint256"
        },
        {
          "internalType": "bytes32",
          "name": "nonce",
          "type": "bytes32"
        },
        {
          "internalType": "bytes",
          "name": "signature",
          "type": "bytes"
        },
        {
          "internalType": "uint256",
          "name": "minPointsOut6",
          "type": "uint256"
        }
      ],
      "name": "buyPointsWith3009Authorization",
      "outputs": [
        {
          "internalType": "uint256",
          "name": "pointsOut6",
          "type": "uint256"
        }
      ],
      "stateMutability": "nonpayable",
      "type": "function"
    },
    {
      "inputs": [
        {
          "internalType": "string",
          "name": "code",
          "type": "string"
        }
      ],
      "name": "cancelRedeem",
      "outputs": [],
      "stateMutability": "nonpayable",
      "type": "function"
    },
    {
      "inputs": [
        {
          "internalType": "bytes4",
          "name": "selector",
          "type": "bytes4"
        },
        {
          "internalType": "address",
          "name": "target",
          "type": "address"
        },
        {
          "internalType": "uint256",
          "name": "v1",
          "type": "uint256"
        },
        {
          "internalType": "uint256",
          "name": "v2",
          "type": "uint256"
        },
        {
          "internalType": "uint256",
          "name": "v3",
          "type": "uint256"
        }
      ],
      "name": "createProposal",
      "outputs": [
        {
          "internalType": "uint256",
          "name": "",
          "type": "uint256"
        }
      ],
      "stateMutability": "nonpayable",
      "type": "function"
    },
    {
      "inputs": [
        {
          "internalType": "bytes32",
          "name": "hash",
          "type": "bytes32"
        },
        {
          "internalType": "uint256",
          "name": "points6",
          "type": "uint256"
        },
        {
          "internalType": "uint256",
          "name": "attr",
          "type": "uint256"
        },
        {
          "internalType": "uint64",
          "name": "validAfter",
          "type": "uint64"
        },
        {
          "internalType": "uint64",
          "name": "validBefore",
          "type": "uint64"
        },
        {
          "internalType": "uint256[]",
          "name": "tokenIds",
          "type": "uint256[]"
        },
        {
          "internalType": "uint256[]",
          "name": "amounts",
          "type": "uint256[]"
        }
      ],
      "name": "createRedeem",
      "outputs": [],
      "stateMutability": "nonpayable",
      "type": "function"
    },
    {
      "inputs": [
        {
          "internalType": "bytes32",
          "name": "poolHash",
          "type": "bytes32"
        },
        {
          "internalType": "uint64",
          "name": "validAfter",
          "type": "uint64"
        },
        {
          "internalType": "uint64",
          "name": "validBefore",
          "type": "uint64"
        },
        {
          "internalType": "uint256[][]",
          "name": "tokenIdsList",
          "type": "uint256[][]"
        },
        {
          "internalType": "uint256[][]",
          "name": "amountsList",
          "type": "uint256[][]"
        },
        {
          "internalType": "uint32[]",
          "name": "counts",
          "type": "uint32[]"
        }
      ],
      "name": "createRedeemPool",
      "outputs": [],
      "stateMutability": "nonpayable",
      "type": "function"
    },
    {
      "inputs": [],
      "name": "currency",
      "outputs": [
        {
          "internalType": "enum BeamioCurrency.CurrencyType",
          "name": "",
          "type": "uint8"
        }
      ],
      "stateMutability": "view",
      "type": "function"
    },
    {
      "inputs": [],
      "name": "debugGateway",
      "outputs": [
        {
          "internalType": "address",
          "name": "",
          "type": "address"
        }
      ],
      "stateMutability": "view",
      "type": "function"
    },
    {
      "inputs": [],
      "name": "defaultAttrWhenNoTiers",
      "outputs": [
        {
          "internalType": "uint256",
          "name": "",
          "type": "uint256"
        }
      ],
      "stateMutability": "view",
      "type": "function"
    },
    {
      "inputs": [],
      "name": "deployer",
      "outputs": [
        {
          "internalType": "address",
          "name": "",
          "type": "address"
        }
      ],
      "stateMutability": "view",
      "type": "function"
    },
    {
      "inputs": [
        {
          "internalType": "uint256",
          "name": "",
          "type": "uint256"
        }
      ],
      "name": "expiresAt",
      "outputs": [
        {
          "internalType": "uint256",
          "name": "",
          "type": "uint256"
        }
      ],
      "stateMutability": "view",
      "type": "function"
    },
    {
      "inputs": [],
      "name": "expirySeconds",
      "outputs": [
        {
          "internalType": "uint256",
          "name": "",
          "type": "uint256"
        }
      ],
      "stateMutability": "view",
      "type": "function"
    },
    {
      "inputs": [],
      "name": "factoryGateway",
      "outputs": [
        {
          "internalType": "address",
          "name": "",
          "type": "address"
        }
      ],
      "stateMutability": "view",
      "type": "function"
    },
    {
      "inputs": [
        {
          "internalType": "address",
          "name": "userEOA",
          "type": "address"
        },
        {
          "internalType": "uint256",
          "name": "id",
          "type": "uint256"
        },
        {
          "internalType": "uint256",
          "name": "amount",
          "type": "uint256"
        }
      ],
      "name": "faucetByGateway",
      "outputs": [],
      "stateMutability": "nonpayable",
      "type": "function"
    },
    {
      "inputs": [
        {
          "internalType": "uint256",
          "name": "",
          "type": "uint256"
        },
        {
          "internalType": "address",
          "name": "",
          "type": "address"
        }
      ],
      "name": "faucetClaimed",
      "outputs": [
        {
          "internalType": "uint256",
          "name": "",
          "type": "uint256"
        }
      ],
      "stateMutability": "view",
      "type": "function"
    },
    {
      "inputs": [
        {
          "internalType": "uint256",
          "name": "",
          "type": "uint256"
        }
      ],
      "name": "faucetConfig",
      "outputs": [
        {
          "internalType": "uint64",
          "name": "validUntil",
          "type": "uint64"
        },
        {
          "internalType": "uint64",
          "name": "perClaimMax",
          "type": "uint64"
        },
        {
          "internalType": "uint128",
          "name": "maxPerUser",
          "type": "uint128"
        },
        {
          "internalType": "uint128",
          "name": "maxGlobal",
          "type": "uint128"
        },
        {
          "internalType": "bool",
          "name": "enabled",
          "type": "bool"
        },
        {
          "internalType": "uint8",
          "name": "currency",
          "type": "uint8"
        },
        {
          "internalType": "uint8",
          "name": "decimals",
          "type": "uint8"
        },
        {
          "internalType": "uint128",
          "name": "priceInCurrency6",
          "type": "uint128"
        }
      ],
      "stateMutability": "view",
      "type": "function"
    },
    {
      "inputs": [
        {
          "internalType": "uint256",
          "name": "",
          "type": "uint256"
        }
      ],
      "name": "faucetConfigFrozen",
      "outputs": [
        {
          "internalType": "bool",
          "name": "",
          "type": "bool"
        }
      ],
      "stateMutability": "view",
      "type": "function"
    },
    {
      "inputs": [
        {
          "internalType": "uint256",
          "name": "",
          "type": "uint256"
        }
      ],
      "name": "faucetGlobalMinted",
      "outputs": [
        {
          "internalType": "uint256",
          "name": "",
          "type": "uint256"
        }
      ],
      "stateMutability": "view",
      "type": "function"
    },
    {
      "inputs": [
        {
          "internalType": "address",
          "name": "userEOA",
          "type": "address"
        },
        {
          "internalType": "uint256",
          "name": "id",
          "type": "uint256"
        },
        {
          "internalType": "uint256",
          "name": "amount6",
          "type": "uint256"
        },
        {
          "internalType": "uint256",
          "name": "validAfter",
          "type": "uint256"
        },
        {
          "internalType": "uint256",
          "name": "validBefore",
          "type": "uint256"
        },
        {
          "internalType": "bytes32",
          "name": "nonce",
          "type": "bytes32"
        },
        {
          "internalType": "bytes",
          "name": "signature",
          "type": "bytes"
        }
      ],
      "name": "faucetPurchaseWith3009AuthorizationByGateway",
      "outputs": [],
      "stateMutability": "nonpayable",
      "type": "function"
    },
    {
      "inputs": [],
      "name": "gateway",
      "outputs": [
        {
          "internalType": "address",
          "name": "",
          "type": "address"
        }
      ],
      "stateMutability": "view",
      "type": "function"
    },
    {
      "inputs": [
        {
          "internalType": "address",
          "name": "user",
          "type": "address"
        }
      ],
      "name": "getOwnership",
      "outputs": [
        {
          "internalType": "uint256",
          "name": "pt",
          "type": "uint256"
        },
        {
          "components": [
            {
              "internalType": "uint256",
              "name": "tokenId",
              "type": "uint256"
            },
            {
              "internalType": "uint256",
              "name": "attribute",
              "type": "uint256"
            },
            {
              "internalType": "uint256",
              "name": "tierIndexOrMax",
              "type": "uint256"
            },
            {
              "internalType": "uint256",
              "name": "expiry",
              "type": "uint256"
            },
            {
              "internalType": "bool",
              "name": "isExpired",
              "type": "bool"
            }
          ],
          "internalType": "struct BeamioUserCard.NFTDetail[]",
          "name": "nfts",
          "type": "tuple[]"
        }
      ],
      "stateMutability": "view",
      "type": "function"
    },
    {
      "inputs": [
        {
          "internalType": "address",
          "name": "userEOA",
          "type": "address"
        }
      ],
      "name": "getOwnershipByEOA",
      "outputs": [
        {
          "internalType": "uint256",
          "name": "pt",
          "type": "uint256"
        },
        {
          "components": [
            {
              "internalType": "uint256",
              "name": "tokenId",
              "type": "uint256"
            },
            {
              "internalType": "uint256",
              "name": "attribute",
              "type": "uint256"
            },
            {
              "internalType": "uint256",
              "name": "tierIndexOrMax",
              "type": "uint256"
            },
            {
              "internalType": "uint256",
              "name": "expiry",
              "type": "uint256"
            },
            {
              "internalType": "bool",
              "name": "isExpired",
              "type": "bool"
            }
          ],
          "internalType": "struct BeamioUserCard.NFTDetail[]",
          "name": "nfts",
          "type": "tuple[]"
        }
      ],
      "stateMutability": "view",
      "type": "function"
    },
    {
      "inputs": [
        {
          "internalType": "uint256",
          "name": "idx",
          "type": "uint256"
        }
      ],
      "name": "getTierAt",
      "outputs": [
        {
          "components": [
            {
              "internalType": "uint256",
              "name": "minUsdc6",
              "type": "uint256"
            },
            {
              "internalType": "uint256",
              "name": "attr",
              "type": "uint256"
            }
          ],
          "internalType": "struct BeamioUserCard.Tier",
          "name": "",
          "type": "tuple"
        }
      ],
      "stateMutability": "view",
      "type": "function"
    },
    {
      "inputs": [],
      "name": "getTiersCount",
      "outputs": [
        {
          "internalType": "uint256",
          "name": "",
          "type": "uint256"
        }
      ],
      "stateMutability": "view",
      "type": "function"
    },
    {
      "inputs": [
        {
          "internalType": "address",
          "name": "",
          "type": "address"
        }
      ],
      "name": "isAdmin",
      "outputs": [
        {
          "internalType": "bool",
          "name": "",
          "type": "bool"
        }
      ],
      "stateMutability": "view",
      "type": "function"
    },
    {
      "inputs": [
        {
          "internalType": "uint256",
          "name": "",
          "type": "uint256"
        },
        {
          "internalType": "address",
          "name": "",
          "type": "address"
        }
      ],
      "name": "isApproved",
      "outputs": [
        {
          "internalType": "bool",
          "name": "",
          "type": "bool"
        }
      ],
      "stateMutability": "view",
      "type": "function"
    },
    {
      "inputs": [
        {
          "internalType": "address",
          "name": "account",
          "type": "address"
        },
        {
          "internalType": "address",
          "name": "operator",
          "type": "address"
        }
      ],
      "name": "isApprovedForAll",
      "outputs": [
        {
          "internalType": "bool",
          "name": "",
          "type": "bool"
        }
      ],
      "stateMutability": "view",
      "type": "function"
    },
    {
      "inputs": [
        {
          "internalType": "address",
          "name": "user",
          "type": "address"
        },
        {
          "internalType": "uint256",
          "name": "tierIndex",
          "type": "uint256"
        }
      ],
      "name": "mintMemberCardByAdmin",
      "outputs": [],
      "stateMutability": "nonpayable",
      "type": "function"
    },
    {
      "inputs": [
        {
          "internalType": "address",
          "name": "user",
          "type": "address"
        },
        {
          "internalType": "uint256",
          "name": "points6",
          "type": "uint256"
        }
      ],
      "name": "mintPointsByAdmin",
      "outputs": [],
      "stateMutability": "nonpayable",
      "type": "function"
    },
    {
      "inputs": [
        {
          "internalType": "bytes32",
          "name": "",
          "type": "bytes32"
        }
      ],
      "name": "openAuthUsed",
      "outputs": [
        {
          "internalType": "bool",
          "name": "",
          "type": "bool"
        }
      ],
      "stateMutability": "view",
      "type": "function"
    },
    {
      "inputs": [],
      "name": "owner",
      "outputs": [
        {
          "internalType": "address",
          "name": "",
          "type": "address"
        }
      ],
      "stateMutability": "view",
      "type": "function"
    },
    {
      "inputs": [],
      "name": "pointsUnitPriceInCurrencyE6",
      "outputs": [
        {
          "internalType": "uint256",
          "name": "",
          "type": "uint256"
        }
      ],
      "stateMutability": "view",
      "type": "function"
    },
    {
      "inputs": [],
      "name": "proposalCount",
      "outputs": [
        {
          "internalType": "uint256",
          "name": "",
          "type": "uint256"
        }
      ],
      "stateMutability": "view",
      "type": "function"
    },
    {
      "inputs": [
        {
          "internalType": "uint256",
          "name": "",
          "type": "uint256"
        }
      ],
      "name": "proposals",
      "outputs": [
        {
          "internalType": "address",
          "name": "target",
          "type": "address"
        },
        {
          "internalType": "uint256",
          "name": "v1",
          "type": "uint256"
        },
        {
          "internalType": "uint256",
          "name": "v2",
          "type": "uint256"
        },
        {
          "internalType": "uint256",
          "name": "v3",
          "type": "uint256"
        },
        {
          "internalType": "bytes4",
          "name": "selector",
          "type": "bytes4"
        },
        {
          "internalType": "uint256",
          "name": "approvals",
          "type": "uint256"
        },
        {
          "internalType": "bool",
          "name": "executed",
          "type": "bool"
        }
      ],
      "stateMutability": "view",
      "type": "function"
    },
    {
      "inputs": [
        {
          "internalType": "string",
          "name": "code",
          "type": "string"
        },
        {
          "internalType": "address",
          "name": "userEOA",
          "type": "address"
        }
      ],
      "name": "redeemByGateway",
      "outputs": [],
      "stateMutability": "nonpayable",
      "type": "function"
    },
    {
      "inputs": [
        {
          "internalType": "string",
          "name": "code",
          "type": "string"
        },
        {
          "internalType": "address",
          "name": "userEOA",
          "type": "address"
        }
      ],
      "name": "redeemPoolByGateway",
      "outputs": [],
      "stateMutability": "nonpayable",
      "type": "function"
    },
    {
      "inputs": [],
      "name": "renounceOwnership",
      "outputs": [],
      "stateMutability": "nonpayable",
      "type": "function"
    },
    {
      "inputs": [
        {
          "internalType": "address",
          "name": "from",
          "type": "address"
        },
        {
          "internalType": "address",
          "name": "to",
          "type": "address"
        },
        {
          "internalType": "uint256[]",
          "name": "ids",
          "type": "uint256[]"
        },
        {
          "internalType": "uint256[]",
          "name": "values",
          "type": "uint256[]"
        },
        {
          "internalType": "bytes",
          "name": "data",
          "type": "bytes"
        }
      ],
      "name": "safeBatchTransferFrom",
      "outputs": [],
      "stateMutability": "nonpayable",
      "type": "function"
    },
    {
      "inputs": [
        {
          "internalType": "address",
          "name": "from",
          "type": "address"
        },
        {
          "internalType": "address",
          "name": "to",
          "type": "address"
        },
        {
          "internalType": "uint256",
          "name": "id",
          "type": "uint256"
        },
        {
          "internalType": "uint256",
          "name": "value",
          "type": "uint256"
        },
        {
          "internalType": "bytes",
          "name": "data",
          "type": "bytes"
        }
      ],
      "name": "safeTransferFrom",
      "outputs": [],
      "stateMutability": "nonpayable",
      "type": "function"
    },
    {
      "inputs": [
        {
          "internalType": "address",
          "name": "operator",
          "type": "address"
        },
        {
          "internalType": "bool",
          "name": "approved",
          "type": "bool"
        }
      ],
      "name": "setApprovalForAll",
      "outputs": [],
      "stateMutability": "nonpayable",
      "type": "function"
    },
    {
      "inputs": [
        {
          "internalType": "uint256",
          "name": "attr",
          "type": "uint256"
        }
      ],
      "name": "setDefaultAttr",
      "outputs": [],
      "stateMutability": "nonpayable",
      "type": "function"
    },
    {
      "inputs": [
        {
          "internalType": "uint256",
          "name": "secs",
          "type": "uint256"
        }
      ],
      "name": "setExpirySeconds",
      "outputs": [],
      "stateMutability": "nonpayable",
      "type": "function"
    },
    {
      "inputs": [
        {
          "internalType": "uint256",
          "name": "id",
          "type": "uint256"
        },
        {
          "internalType": "uint64",
          "name": "validUntil",
          "type": "uint64"
        },
        {
          "internalType": "uint64",
          "name": "perClaimMax",
          "type": "uint64"
        },
        {
          "internalType": "uint128",
          "name": "maxPerUser",
          "type": "uint128"
        },
        {
          "internalType": "uint128",
          "name": "maxGlobal",
          "type": "uint128"
        },
        {
          "internalType": "bool",
          "name": "enabled",
          "type": "bool"
        },
        {
          "internalType": "enum BeamioCurrency.CurrencyType",
          "name": "cur",
          "type": "uint8"
        },
        {
          "internalType": "uint128",
          "name": "priceInCurrency6",
          "type": "uint128"
        }
      ],
      "name": "setFaucetConfig",
      "outputs": [],
      "stateMutability": "nonpayable",
      "type": "function"
    },
    {
      "inputs": [
        {
          "internalType": "uint256",
          "name": "priceInCurrencyE6",
          "type": "uint256"
        }
      ],
      "name": "setPointsUnitPrice",
      "outputs": [],
      "stateMutability": "nonpayable",
      "type": "function"
    },
    {
      "inputs": [
        {
          "components": [
            {
              "internalType": "uint256",
              "name": "minUsdc6",
              "type": "uint256"
            },
            {
              "internalType": "uint256",
              "name": "attr",
              "type": "uint256"
            }
          ],
          "internalType": "struct BeamioUserCard.Tier[]",
          "name": "newTiers",
          "type": "tuple[]"
        }
      ],
      "name": "setTiers",
      "outputs": [],
      "stateMutability": "nonpayable",
      "type": "function"
    },
    {
      "inputs": [
        {
          "internalType": "address",
          "name": "target",
          "type": "address"
        },
        {
          "internalType": "bool",
          "name": "allowed",
          "type": "bool"
        }
      ],
      "name": "setTransferWhitelist",
      "outputs": [],
      "stateMutability": "nonpayable",
      "type": "function"
    },
    {
      "inputs": [
        {
          "internalType": "bool",
          "name": "enabled",
          "type": "bool"
        }
      ],
      "name": "setTransferWhitelistEnabled",
      "outputs": [],
      "stateMutability": "nonpayable",
      "type": "function"
    },
    {
      "inputs": [
        {
          "internalType": "bytes4",
          "name": "interfaceId",
          "type": "bytes4"
        }
      ],
      "name": "supportsInterface",
      "outputs": [
        {
          "internalType": "bool",
          "name": "",
          "type": "bool"
        }
      ],
      "stateMutability": "view",
      "type": "function"
    },
    {
      "inputs": [
        {
          "internalType": "bytes32",
          "name": "poolHash",
          "type": "bytes32"
        }
      ],
      "name": "terminateRedeemPool",
      "outputs": [],
      "stateMutability": "nonpayable",
      "type": "function"
    },
    {
      "inputs": [],
      "name": "threshold",
      "outputs": [
        {
          "internalType": "uint256",
          "name": "",
          "type": "uint256"
        }
      ],
      "stateMutability": "view",
      "type": "function"
    },
    {
      "inputs": [
        {
          "internalType": "uint256",
          "name": "",
          "type": "uint256"
        }
      ],
      "name": "tiers",
      "outputs": [
        {
          "internalType": "uint256",
          "name": "minUsdc6",
          "type": "uint256"
        },
        {
          "internalType": "uint256",
          "name": "attr",
          "type": "uint256"
        }
      ],
      "stateMutability": "view",
      "type": "function"
    },
    {
      "inputs": [
        {
          "internalType": "uint256",
          "name": "",
          "type": "uint256"
        }
      ],
      "name": "tokenTierIndexOrMax",
      "outputs": [
        {
          "internalType": "uint256",
          "name": "",
          "type": "uint256"
        }
      ],
      "stateMutability": "view",
      "type": "function"
    },
    {
      "inputs": [
        {
          "internalType": "address",
          "name": "newOwner",
          "type": "address"
        }
      ],
      "name": "transferOwnership",
      "outputs": [],
      "stateMutability": "nonpayable",
      "type": "function"
    },
    {
      "inputs": [
        {
          "internalType": "address",
          "name": "",
          "type": "address"
        }
      ],
      "name": "transferWhitelist",
      "outputs": [
        {
          "internalType": "bool",
          "name": "",
          "type": "bool"
        }
      ],
      "stateMutability": "view",
      "type": "function"
    },
    {
      "inputs": [],
      "name": "transferWhitelistEnabled",
      "outputs": [
        {
          "internalType": "bool",
          "name": "",
          "type": "bool"
        }
      ],
      "stateMutability": "view",
      "type": "function"
    },
    {
      "inputs": [
        {
          "internalType": "address",
          "name": "fromEOA",
          "type": "address"
        },
        {
          "internalType": "address",
          "name": "toEOA",
          "type": "address"
        },
        {
          "internalType": "uint256",
          "name": "id",
          "type": "uint256"
        },
        {
          "internalType": "uint256",
          "name": "amount",
          "type": "uint256"
        },
        {
          "internalType": "uint256",
          "name": "maxAmount",
          "type": "uint256"
        },
        {
          "internalType": "uint256",
          "name": "validAfter",
          "type": "uint256"
        },
        {
          "internalType": "uint256",
          "name": "validBefore",
          "type": "uint256"
        },
        {
          "internalType": "bytes32",
          "name": "nonce",
          "type": "bytes32"
        },
        {
          "internalType": "bytes",
          "name": "sig",
          "type": "bytes"
        }
      ],
      "name": "transferWithOpenAuthorizationByGateway",
      "outputs": [],
      "stateMutability": "nonpayable",
      "type": "function"
    },
    {
      "inputs": [
        {
          "internalType": "uint256",
          "name": "",
          "type": "uint256"
        }
      ],
      "name": "uri",
      "outputs": [
        {
          "internalType": "string",
          "name": "",
          "type": "string"
        }
      ],
      "stateMutability": "view",
      "type": "function"
    }
  ],
  "bytecode": "0x60a0604052346103b857615b2580380380610019816103bc565b92833981019060a0818303126103b85780516001600160401b0381116103b857810182601f820112156103b8578051906001600160401b0382116102735761006a601f8301601f19166020016103bc565b93828552602083830101116103b857815f9260208093018387015e8401015260208101519060098210156103b8576040810151906100b660806100af606084016103e1565b92016103e1565b845190946001600160401b0382116102735760025490600182811c921680156103ae575b602083101461039a5781601f849311610324575b50602090601f83116001146102be575f926102b3575b50508160011b915f199060031b1c1916176002555b6001600160a01b03169182156102a057600380546001600160a01b031981168517909155604051949084906001600160a01b03167f8be0079c531659141344cd1fd0a4f28419497f9722a3daafe3b4186f6b6457e05f80a360016004556064601d556001600160a01b038116908115908115610296575b506102875733608052600580546001600160a01b03191682179055600680546001600160a81b03191690911760a09290921b60ff60a01b16919091179055600755600160098190555f828152600a60205260409020805460ff19169091179055600b5468010000000000000000811015610273576001810180600b5581101561025f57600b5f527f0175b7a638427703f0dbe7bb9bbf987a2551717b34e79f33b5b1008d1fa01db90180546001600160a01b031916909117905561572f90816103f68239608051816126460152f35b634e487b7160e01b5f52603260045260245ffd5b634e487b7160e01b5f52604160045260245ffd5b63ab82bb9960e01b5f5260045ffd5b90503b155f610190565b631e4fbdf760e01b5f525f60045260245ffd5b015190505f80610104565b60025f9081528281209350601f198516905b81811061030c57509084600195949392106102f4575b505050811b01600255610119565b01515f1960f88460031b161c191690555f80806102e6565b929360206001819287860151815501950193016102d0565b828111156100ee5760025f52909150601f830160051c7f405787fa12a823e0f2b7631cc41b3ba8828b3321ca811111fa75cd3aa3bb5ace60208510610392575b849392601f0160051c82900391015f5b8281106103825750506100ee565b5f81830155859450600101610374565b5f9150610364565b634e487b7160e01b5f52602260045260245ffd5b91607f16916100da565b5f80fd5b6040519190601f01601f191682016001600160401b0381118382101761027357604052565b51906001600160a01b03821682036103b85756fe60806040526004361015610011575f80fd5b5f3560e01c8062fdd58e1461048e578063013cf08b1461048957806301f28d911461048457806301ffc9a71461047f578063039af9eb1461047a57806303ca3e38146104755780630b6c8d71146104705780630bd678331461046b5780630e4ab487146104665780630e89341c1461046157806310bba8641461045c57806311117fc814610457578063116191b6146104025780631284b92f1461045257806315a762291461044d57806317c95709146104485780631c790e241461044357806324d7806c1461043e57806328613678146104395780632b681a54146104345780632c0c4cfd1461042f5780632d0890731461042a5780632eb2c2d6146104255780633c970fb91461042057806342cde4e81461041b57806349c01d8a146104165780634dda2215146104115780634e1273f41461040c57806352b9ec231461040757806353785619146104025780635637d5bc146103fd578063564da757146103f857806356988130146103f357806356c31637146103ee578063671395c8146103e95780636948a911146103e4578063715018a6146103df57806371b8982f146103da5780637fcb29c9146103d55780637ffbe241146103d057806382b720c9146103cb57806383dbbf53146103c6578063897828a8146103c15780638da5cb5b146103bc57806391afe172146103b757806394b2e946146103b25780639565c542146103ad57806398951b56146103a85780639f1bbda7146103a35780639f48facc1461039e578063a22cb46514610399578063a876c75914610394578063a98d916e1461038f578063bcdc66011461038a578063c926bbfd14610385578063cbc4e1aa14610380578063d05dcc6a1461037b578063d4506e7714610376578063d52dc51514610371578063d5f394881461036c578063da35c66414610367578063daac7af714610362578063e41021371461035d578063e4a34dce14610358578063e5a6b10f14610353578063e985e9c51461034e578063f242432a14610349578063f2fde38b14610344578063f540f2271461033f578063f6058c721461033a578063f986f676146103355763ffa1ad7414610330575f80fd5b612b76565b612a4d565b612941565b612917565b61288d565b6127e2565b612797565b61276b565b61271c565b6126ed565b612692565b612675565b612631565b61260f565b6125ad565b612583565b61249e565b612484565b61219b565b61217c565b61215f565b6120d4565b612011565b611ff4565b611fc0565b611f98565b611f5d565b611eef565b611ec7565b611e8c565b611e2c565b611ce0565b611ca0565b611c62565b611a93565b611a00565b611998565b61195d565b61191b565b611898565b6117dd565b6117c2565b610dd5565b611730565b61163f565b6115de565b6115aa565b61158d565b611540565b6114ae565b61130e565b6112e4565b6112c4565b610ff7565b610f8a565b610f2f565b610f05565b610eb9565b610e5d565b610d7b565b610d38565b610c48565b610ba6565b610b2e565b610a8f565b610699565b610657565b6105b4565b610585565b6104e4565b6104a8565b6001600160a01b038116036104a457565b5f80fd5b346104a45760403660031901126104a45760206104db6004356104ca81610493565b6024355f525f835260405f20610e48565b54604051908152f35b346104a45760203660031901126104a457600480355f908152600c6020908152604091829020805460018201546002830154600384015496840154600585015460069095015487516001600160a01b039095168552958401929092529482019490945260608101949094526001600160e01b031960e093841b16608085015260a084015260ff16151560c0830152819081015b0390f35b5f9103126104a457565b346104a4575f3660031901126104a4576020601754604051908152f35b6001600160e01b03198116036104a457565b346104a45760203660031901126104a45760206004356105d3816105a2565b63ffffffff60e01b16636cdb3d1360e11b8114908115610611575b8115610600575b506040519015158152f35b6301ffc9a760e01b1490505f6105f5565b6303a24d0760e21b811491506105ee565b634e487b7160e01b5f52603260045260245ffd5b6017548110156106525760175f5260205f209060011b01905f90565b610622565b346104a45760203660031901126104a4576004356017548110156104a45761067e90610636565b50805460019091015460408051928352602083019190915290f35b346104a45760603660031901126104a4576004356106b681610493565b6006546044359190602435906001600160a01b031680610a1c57506005546001600160a01b03165b6001600160a01b03163303610a0d576106f5613c72565b6001600160a01b0382169182156109fe5783156109ef5761071e825f52601960205260405f2090565b60018101549060ff608083901c1615610736565b1590565b6109e0578054906107576001600160401b0383165b6001600160401b031690565b42116109d157610773604083901c6001600160401b031661074b565b87116109c25760055461079c90610790906001600160a01b031681565b6001600160a01b031690565b6040516326387a5160e21b81523060048201526024810187905290602090829060449082905afa9081156109bd575f9161098e575b501561097f57600201546001600160801b03166109705761082661081a6108138861080d876108088a5f52601a60205260405f2090565b610e48565b54612bdc565b9260801c90565b6001600160801b031690565b106109615761085461081a6108478761080d875f52601b60205260405f2090565b926001600160801b031690565b1061095257806108917f3bf2de114e2e7636c289f21be023528e47d89b45e873b976c78989c3ddc683f592610808855f52601a60205260405f2090565b61089c868254612bdc565b90556108b0835f52601b60205260405f2090565b6108bb868254612bdc565b90556109116108c982613c92565b916108d383613d87565b6108dc83610dfd565b54156108f16108e9612be9565b898887613ef9565b8561094b5787905b61093b575b50610808855f52601a60205260405f2090565b546040805196875260208701919091526001600160a01b039190911694a46109396001600455565b005b6109459084613f54565b5f6108fe565b5f906108f9565b633eb230e560e21b5f5260045ffd5b632fb3850b60e11b5f5260045ffd5b6311fc944f60e31b5f5260045ffd5b631f3263b960e01b5f5260045ffd5b6109b0915060203d6020116109b6575b6109a8818361138d565b810190612ba8565b5f6107d1565b503d61099e565b612bbd565b6314a447a760e11b5f5260045ffd5b638242235f60e01b5f5260045ffd5b63ab6138a560e01b5f5260045ffd5b63201165f360e21b5f5260045ffd5b63a9b8048960e01b5f5260045ffd5b6396f47d2360e01b5f5260045ffd5b6106de565b6060602091604081019381526040838201528451809452019201905f5b818110610a4b5750505090565b909192602060a06001926080875180518352848101518584015260408101516040840152606081015160608401520151151560808201520194019101919091610a3e565b346104a45760203660031901126104a457610abc610ab7600435610ab281610493565b6141b3565b61304e565b9061057760405192839283610a21565b602435906001600160401b03821682036104a457565b604435906001600160401b03821682036104a457565b608435906001600160401b03821682036104a457565b60e435906001600160801b03821682036104a457565b801515036104a457565b346104a4576101003660031901126104a457600435610b4b610acc565b90610b54610ae2565b6064356001600160801b03811681036104a4576084356001600160801b03811681036104a45760a43591610b8783610b24565b60c4359360098510156104a45761093996610ba0610b0e565b96612bfd565b346104a45760203660031901126104a457600435335f52600a60205260ff60405f20541615610c01577ff316e065e93b4fddef3d2d93a57817985081f76ea9e0ca7417ed5b4b086b1fcb6020601854604051908152a1601855005b6363bc5ecb60e11b5f5260045ffd5b805180835260209291819084018484015e5f828201840152601f01601f1916010190565b906020610c45928181520190610c10565b90565b346104a45760203660031901126104a4576040515f6002548060011c9060018116908115610d2e575b602083108214610d1a578285526020850191908115610d015750600114610caf575b61057784610ca38186038261138d565b60405191829182610c34565b60025f9081529250907f405787fa12a823e0f2b7631cc41b3ba8828b3321ca811111fa75cd3aa3bb5ace5b818410610ced57505001610ca382610c93565b805484840152602090930192600101610cda565b60ff191682525090151560051b019050610ca382610c93565b634e487b7160e01b5f52602260045260245ffd5b91607f1691610c71565b346104a4575f3660031901126104a457602060405160068152f35b8054821015610652575f5260205f2001905f90565b6001600160a01b03909116815260200190565b346104a45760203660031901126104a457600435600b548110156104a457600b5f527f0175b7a638427703f0dbe7bb9bbf987a2551717b34e79f33b5b1008d1fa01db901546040516001600160a01b039091168152602090f35b346104a4575f3660031901126104a4576005546040516001600160a01b039091168152602090f35b6001600160a01b03165f90815260156020526040902090565b6001600160a01b03165f90815260146020526040902090565b6001600160a01b03165f90815260166020526040902090565b9060018060a01b03165f5260205260405f2090565b346104a45760403660031901126104a457600435610e7a81610493565b6001600160a01b03165f908152601460205260409020805460243591908210156104a457602091610eaa91610d53565b90549060031b1c604051908152f35b346104a45760203660031901126104a4576040610ef3610eed6004355f60208551610ee381611351565b8281520152610636565b50612f3b565b60208251918051835201516020820152f35b346104a45760203660031901126104a4576004355f526011602052602060405f2054604051908152f35b346104a45760403660031901126104a457600435602435610f4f81610493565b6005546001600160a01b03163303610a0d576001600160a01b0381165f908152600a602052604090205460ff1615610c015761093991614382565b346104a45760203660031901126104a457600435610fa781610493565b60018060a01b03165f52600a602052602060ff60405f2054166040519015158152f35b9181601f840112156104a4578235916001600160401b0383116104a457602083818601950101116104a457565b346104a45760e03660031901126104a45760043561101481610493565b6064359060443560243560843560a4356001600160401b0381116104a457611040903690600401610fca565b91909360c4359561104f613c72565b6001600160a01b0381169384156109fe5785156109ef5761106f82613c92565b60055490979061108990610790906001600160a01b031681565b996020604051809c631d4d9cf760e01b825281806110aa3060048301610d68565b03915afa9a8b156109bd575f9b611293575b508a15611284576110d98b6110d4620f42408b612f68565b612f7b565b998a15611275578a106112665785906110f18a613d87565b6110fd6107328b614574565b9589878061125b575b611224575b61111496614618565b61112661111f612be9565b8787613eb4565b611215575b60055460049060209061114890610790906001600160a01b031681565b6040516389a3027160e01b815292839182905afa9687156109bd57610577977fadc5499e3129aa16ae51df0b01166f155e2d16cc24db0165684a9d0647cf4a989388935f926111e2575b506040805197885260208801949094529286019190915260608501919091526001600160a01b0390811694169280608081015b0390a46111d26001600455565b6040519081529081906020820190565b6111c592506112089060203d60201161120e575b611200818361138d565b810190612fa7565b91611192565b503d6111f6565b61121f8585613f54565b61112b565b5094915061123b611236601754612f99565b610636565b50548b1061124c578691948961110b565b63559d06d760e01b5f5260045ffd5b506017541515611106565b63c02e577360e01b5f5260045ffd5b6313f3da3f60e21b5f5260045ffd5b6376024b7160e01b5f5260045ffd5b6112b6919b5060203d6020116112bd575b6112ae818361138d565b810190612f59565b995f6110bc565b503d6112a4565b346104a45760203660031901126104a457610abc600435610ab781610493565b346104a45760203660031901126104a4576004355f52601b602052602060405f2054604051908152f35b346104a45760203660031901126104a4576004355f52601e602052602060ff60405f2054166040519015158152f35b634e487b7160e01b5f52604160045260245ffd5b604081019081106001600160401b0382111761136c57604052565b61133d565b61010081019081106001600160401b0382111761136c57604052565b90601f801991011681019081106001600160401b0382111761136c57604052565b604051906113bd60e08361138d565b565b604051906113bd60a08361138d565b6001600160401b03811161136c5760051b60200190565b9080601f830112156104a45781356113fc816113ce565b9261140a604051948561138d565b81845260208085019260051b8201019283116104a457602001905b8282106114325750505090565b8135815260209182019101611425565b6001600160401b03811161136c57601f01601f191660200190565b92919261146982611442565b91611477604051938461138d565b8294818452818301116104a4578281602093845f960137010152565b9080601f830112156104a457816020610c459335910161145d565b346104a45760a03660031901126104a4576004356114cb81610493565b602435906114d882610493565b6044356001600160401b0381116104a4576114f79036906004016113e5565b6064356001600160401b0381116104a4576115169036906004016113e5565b90608435936001600160401b0385116104a45761153a610939953690600401611493565b93613152565b346104a45760403660031901126104a45760043561155d81610493565b602435335f52600a60205260ff60405f20541615610c015761158691611581613c72565b6146f1565b6001600455005b346104a4575f3660031901126104a4576020600954604051908152f35b346104a45760403660031901126104a45760206104db6024356004356115cf82610493565b5f52601a835260405f20610e48565b346104a4575f3660031901126104a4576020600754604051908152f35b90602080835192838152019201905f5b8181106116185750505090565b825184526020938401939092019160010161160b565b906020610c459281815201906115fb565b346104a45760403660031901126104a4576004356001600160401b0381116104a457366023820112156104a45780600401359061167b826113ce565b91611689604051938461138d565b8083526024602084019160051b830101913683116104a457602401905b8282106116e657836024356001600160401b0381116104a457610577916116d46116da9236906004016113e5565b906131e6565b6040519182918261162e565b6020809183356116f581610493565b8152019101906116a6565b9181601f840112156104a4578235916001600160401b0383116104a4576020808501948460051b0101116104a457565b346104a45760c03660031901126104a45760043561174c610acc565b611754610ae2565b916064356001600160401b0381116104a457611774903690600401611700565b906084356001600160401b0381116104a457611794903690600401611700565b92909160a435966001600160401b0388116104a4576117ba610939983690600401611700565b97909661327b565b346104a4575f3660031901126104a457602060405160648152f35b346104a45760403660031901126104a4576004356117fa81610493565b60243590335f52600a60205260ff60405f20541615610c015761181b613c72565b6001600160a01b038116156109fe5781156109ef57602061185c7f3e38a9410c08ddb4af8b083bfd2b197b1c3e61a651bd1c54c51ebce0cdcdc48e92613c92565b61187660405161186c848261138d565b5f81528583613eb4565b6118808482614945565b6040519384526001600160a01b031692a26001600455005b346104a45760e03660031901126104a4576044356024356004356064356001600160401b03811681036104a4576118cd610af8565b9060a4356001600160401b0381116104a4576118ed903690600401611700565b92909160c435966001600160401b0388116104a457611913610939983690600401611700565b979096613455565b346104a45760403660031901126104a457602060ff61195160243560043561194282610493565b5f52600d845260405f20610e48565b54166040519015158152f35b346104a45760203660031901126104a45760043561197a81610493565b60018060a01b03165f526015602052602060405f2054604051908152f35b346104a4576101203660031901126104a4576004356119b681610493565b6024356119c281610493565b610104359160e43560c43560a4356084356064356044356001600160401b0389116104a4576119f8610939993690600401610fca565b98909761354e565b346104a4575f3660031901126104a457611a186149f0565b600380546001600160a01b031981169091555f906001600160a01b03167f8be0079c531659141344cd1fd0a4f28419497f9722a3daafe3b4186f6b6457e08280a3005b60406003198201126104a457600435906001600160401b0382116104a457611a8591600401610fca565b9091602435610c4581610493565b346104a457611aa136611a5b565b6006549092906001600160a01b031680611c5d57506005546001600160a01b03165b6001600160a01b03163303610a0d57611ada613c72565b6001600160a01b038316156109fe575f91829184611b29611af96148b8565b93611b1b604051938492602084019663fd44e85560e01b88526024850161394b565b03601f19810183528261138d565b51915af4611b35613426565b9015611c3c57611b4e60208251830101602083016139d1565b94915091928251855103611c3c5750611b6690613c92565b92611b7084613d87565b611b7984610dfd565b5415928380611c31575b611c0b575b80611bf4575b5f5b8351811015611bd257611ba3818461303a565b519081156109ef57611bcc600192611bbb838861303a565b5190611bc5612be9565b918a613ef9565b01611b90565b858286611be4575b6109396001600455565b611bed91613f54565b8080611bda565b611c06611bff612be9565b8287613eb4565b611b8e565b611c19611236601754612f99565b5054811015611b885763559d06d760e01b5f5260045ffd5b506017541515611b83565b60405163dccff66960e01b8152908190611c599060048301610c34565b0390fd5b611ac3565b346104a45760403660031901126104a457600435611c7f81610493565b602435335f52600a60205260ff60405f20541615610c015761093991614a17565b346104a45760203660031901126104a457600435611cbd81610493565b60018060a01b03165f52600f602052602060ff60405f2054166040519015158152f35b346104a45760a03660031901126104a457600435611cfd816105a2565b60243590611d0a82610493565b604435906064356084356006549094906001600160a01b031680611e2757506005546001600160a01b03165b6001600160a01b03163303610a0d5761057794611db992600e5495611d5a87613a22565b600e55611d77611d686113ae565b6001600160a01b039095168552565b6020840152604083015260608201526001600160e01b0319831660808201525f60a08201525f60c0820152611db4845f52600c60205260405f2090565b613a43565b33906001600160e01b031916827f5cad714c75d7c75eabb440ba28d3f6a407c16bf6e9c4f54fa1fdddc068de20745f80a4335f908152600a60205260409020611e04905b5460ff1690565b611e18576040519081529081906020820190565b611e223382614382565b6111d2565b611d36565b346104a45760203660031901126104a457600435335f52600a60205260ff60405f20541615610c01578015611284576020817fd45b01a2f21a7aa8a0f57023efdce73147de071e77875c3f4d486b1e13eaef7092600755604051908152a1005b346104a45760203660031901126104a457600435611ea981610b24565b335f52600a60205260ff60405f20541615610c015761093990614ad0565b346104a4575f3660031901126104a4576003546040516001600160a01b039091168152602090f35b346104a45760203660031901126104a4575f80600435611f0d613c72565b611f15614854565b611f1d6148b8565b9060405160208101916348d7f0b960e11b8352602482015260248152611f4460448261138d565b51915af4611f50613426565b9015611c3c576001600455005b346104a45760203660031901126104a457600435611f7a81610493565b60018060a01b03165f526016602052602060405f2054604051908152f35b346104a4575f3660031901126104a4576006546040516001600160a01b039091168152602090f35b346104a45760203660031901126104a457600435335f52600a60205260ff60405f20541615610c0157610939903390614382565b346104a4575f3660031901126104a4576020600854604051908152f35b346104a45760203660031901126104a4576004355f908152601960209081526040918290208054600182015460029092015484516001600160401b03808416825283871c1694810194909452608091821c948401949094526001600160801b03808316606085015260ff83831c8116151592850192909252608883901c821660a085015260909290921c1660c083015290911660e082015261010090f35b60409060031901126104a4576004356120c781610493565b90602435610c4581610b24565b346104a4576120e2366120af565b6001600160a01b03821691821561214d578161210c61211d92335f52600160205260405f20610e48565b9060ff801983541691151516179055565b60405190151581527f17307eab39ab6107e8899845ad3d59bd9653f200f220920489ca2b5937696c3160203392a3005b62ced3e160e81b5f525f60045260245ffd5b346104a4575f3660031901126104a4576020601854604051908152f35b346104a4575f3660031901126104a457602060405164174876e8008152f35b346104a45760e03660031901126104a4576004356121b881610493565b602435604435606435926084359060a43560c4356001600160401b0381116104a4576121e8903690600401610fca565b6006549091906001600160a01b03168061247f57506005546001600160a01b03165b6001600160a01b03163303610a0d57612221613c72565b6001600160a01b038416156109fe5785156109ef57612248875f52601960205260405f2090565b92600184015461225f6107328260ff9060801c1690565b6109e05784546122776001600160401b03821661074b565b42116109d157612293604082901c6001600160401b031661074b565b89116109c2576005546122b090610790906001600160a01b031681565b6040516326387a5160e21b8152306004820152602481018c90529096906020816044818b5afa9081156109bd575f91612460575b501561097f57600201546001600160801b03169081156124515761231f61081a6108138c61080d8f6108088e915f52601a60205260405f2090565b106109615761233a8961080d8c5f52601b60205260405f2090565b61234c6001600160801b03841661081a565b10610952576123b79561238b6123818b61237c61236f60209760ff9060881c1690565b956001600160801b031690565b612f68565b620f424090612f7b565b60405163145ab73960e31b815260ff909316600484015260248301529095869190829081906044820190565b03915afa9586156109bd57611bda99612423976123dc965f91612432575b5087614618565b6123f281610808865f52601a60205260405f2090565b6123fd848254612bdc565b9055612411845f52601b60205260405f2090565b61241c848254612bdc565b9055613c92565b9161242c612be9565b92613ef9565b61244b915060203d6020116112bd576112ae818361138d565b5f6123d5565b63225426e360e01b5f5260045ffd5b612479915060203d6020116109b6576109a8818361138d565b5f6122e4565b61220a565b346104a4575f3660031901126104a45760206040515f8152f35b346104a45760203660031901126104a4576004356001600160401b0381116104a4576124ce903690600401610fca565b906124d7613c72565b6124df614854565b5f806124e96148b8565b6040516365e270d560e11b602080830191825260248301529061251481611b1b604482018a8a61392b565b51915af491612521613426565b9215612568576125339250369161145d565b602081519101207fc0701a0c15577896ad516e3ca2668eb0cee26a8f32bc862c0d94950619e368035f80a26109396001600455565b60405163dccff66960e01b815280611c598560048301610c34565b346104a45760203660031901126104a4576004355f526012602052602060405f2054604051908152f35b346104a45760203660031901126104a457600435335f52600a60205260ff60405f20541615610c015760085460408051918252602082018390527f1c8121c98d871a1523a6112e29ac660378afbcb9b921cff8f187c3da35d1708191a1600855005b346104a4575f3660031901126104a457602060ff601054166040519015158152f35b346104a4575f3660031901126104a4576040517f00000000000000000000000000000000000000000000000000000000000000006001600160a01b03168152602090f35b346104a4575f3660031901126104a4576020600e54604051908152f35b346104a45760203660031901126104a4576004356001600160401b0381116104a457366023820112156104a45780600401356001600160401b0381116104a4573660248260061b840101116104a45760246109399201613ad9565b346104a45760203660031901126104a4576004355f52601c602052602060ff60405f2054166040519015158152f35b346104a45761272a366120af565b335f52600a60205260ff60405f20541615610c015761093991614b0e565b634e487b7160e01b5f52602160045260245ffd5b6009111561276657565b612748565b346104a4575f3660031901126104a45760ff60065460a01c166040516009821015612766576020918152f35b346104a45760403660031901126104a457602060ff6119516004356127bb81610493565b602435906127c882610493565b6001600160a01b03165f9081526001855260409020610e48565b346104a45760a03660031901126104a4576004356127ff81610493565b60243561280b81610493565b6064356044356084356001600160401b0381116104a457612830903690600401611493565b6001600160a01b03851694909390338614158061286d575b612856576109399550614b37565b8563711bec9160e11b5f523360045260245260445ffd5b50855f52600160205260ff6128853360405f20610e48565b541615612848565b346104a45760203660031901126104a4576004356128aa81610493565b6128b26149f0565b6001600160a01b0316801561290457600380546001600160a01b0319811683179091556001600160a01b03167f8be0079c531659141344cd1fd0a4f28419497f9722a3daafe3b4186f6b6457e05f80a3005b631e4fbdf760e01b5f525f60045260245ffd5b346104a45760203660031901126104a4576004355f526013602052602060405f2054604051908152f35b346104a45760403660031901126104a45760043560243590335f52600a60205260ff60405f20541615610c01578015612a3e5760175480612a0b575b6040519261298a84611351565b8284526020840181815290600160401b83101561136c57600183016017556129b183610636565b612a06576001612a01937f43ffca21091a59007ab01ce17706b008d44c6a12005a297c7e3263fcfe08cf1c9751835551910155604051938493846040919493926060820195825260208201520152565b0390a1005b613a30565b5f198101818111612a3957610eed612a2291610636565b51821061297d575b6372d7397d60e11b5f5260045ffd5b612bc8565b639033099360e01b5f5260045ffd5b346104a457612a5b36611a5b565b6006549092906001600160a01b031680612b7157506005546001600160a01b03165b6001600160a01b03163303610a0d57612a94613c72565b6001600160a01b038316156109fe575f91829184612ad5612ab36148b8565b93611b1b6040519384926020840196632230d3f960e11b88526024850161394b565b51915af490612ae2613426565b9115612b5657612afb6020835184010160208401613c2b565b9190928351835103611c3c5750612b1190613c92565b915f5b8151811015611bda57612b27818461303a565b519081156109ef57612b50600192612b3f838661303a565b5190612b49612be9565b9188613ef9565b01612b14565b60405163dccff66960e01b815280611c598460048301610c34565b612a7d565b346104a4575f3660031901126104a4576020604051600a8152f35b612ba4915f525f60205260405f20610e48565b5490565b908160209103126104a45751610c4581610b24565b6040513d5f823e3d90fd5b634e487b7160e01b5f52601160045260245ffd5b91908201809211612a3957565b60405190612bf860208361138d565b5f8252565b60065490979296959194906001600160a01b031680612ddc57506005546001600160a01b03165b6001600160a01b03163303610a0d57875f52601c60205260ff60405f205416612dcd57612d53612dc896612d30612d6694612cf5612d8998612cd57ff236e4a60720cc79b1fa956ec64fd78f4d702ba14614ed969c4912a86a3e99519d8f5f526019602052612cad60405f209d8e906001600160401b03166001600160401b0319825416179055565b8c5467ffffffffffffffff60401b191660409190911b67ffffffffffffffff60401b16178c55565b8a546001600160801b031660809190911b6001600160801b031916178a55565b6001890180546001600160801b0319166001600160801b03909616959095178555845460ff60801b191690151560801b60ff60801b16178455565b612d398161275c565b825460ff60881b191660889190911b60ff60881b16178255565b805460ff60901b1916600360911b179055565b6002830180546001600160801b0319166001600160801b03909216919091179055565b612d9a612d9582612de1565b6142c2565b612dbc612daf855f52601c60205260405f2090565b805460ff19166001179055565b60405191829182612ea4565b0390a2565b6325ddcb7760e21b5f5260045ffd5b612c24565b906113bd604051612df181611371565b60e0612e9660028396612e38612e2882546001600160401b03811688526001600160401b03808260401c1616602089015260801c90565b6001600160801b03166040870152565b60018101546001600160801b0381166060870152612e8890612e7e90612e68608082901c60ff16151560808a0152565b60ff608882901c1660a089015260901c60ff1690565b60ff1660c0870152565b01546001600160801b031690565b6001600160801b0316910152565b6113bd9092919260e0612e966002610100840196612ef58154612ed8876001600160401b0383166001600160401b03169052565b604081901c6001600160401b0316602088015260801c6040870152565b60018101546001600160801b0381166060870152612e8890612f216080880160ff8360801c1615159052565b608881901c60ff1660a088015260901c60ff1660c0870152565b90604051612f4881611351565b602060018294805484520154910152565b908160209103126104a4575190565b81810292918115918404141715612a3957565b8115612f85570490565b634e487b7160e01b5f52601260045260245ffd5b5f19810191908211612a3957565b908160209103126104a45751610c4581610493565b90612fc6826113ce565b612fd3604051918261138d565b8281528092612fe4601f19916113ce565b015f5b818110612ff357505050565b6040519060a08201918083106001600160401b0384111761136c576020926040525f81525f838201525f60408201525f60608201525f608082015282828601015201612fe7565b80518210156106525760209160051b010190565b9061305882610e16565b91825461306481612fbc565b935f5b8281106130a75750505f808052602052506130a2907fad3228b676f7d3cd4284a5443f17f1962b36e491b30a40b2405849e597ba5fb5610e48565b549190565b806130c16130b760019385610d53565b90549060031b1c90565b61312b6130d6825f52601160205260405f2090565b548015159081613147575b6130f3845f52601260205260405f2090565b54613106855f52601360205260405f2090565b54906131106113bf565b95865260208601526040850152606084015215156080830152565b613135828961303a565b52613140818861303a565b5001613067565b8091504211906130e1565b939291906001600160a01b03851633811415806131c6575b6131b0576001600160a01b0382161561319d571561318b576113bd94614df2565b626a0d4560e21b5f525f60045260245ffd5b632bfa23e760e11b5f525f60045260245ffd5b63711bec9160e11b5f523360045260245260445ffd5b50805f52600160205260ff6131de3360405f20610e48565b54161561316a565b91909180518351808203613266575050805190613202826113ce565b91613210604051938461138d565b80835261321f601f19916113ce565b013660208401375f5b815181101561325f578061324e60019260051b6020808287010151918901015190612b91565b613258828661303a565b5201613228565b5090925050565b635b05999160e01b5f5260045260245260445ffd5b969492909591979361328b613c72565b613293614854565b61329b6148b8565b986040519760208901996352b9ec2360e01b8b5260248a01526001600160401b031660448901526001600160401b031660648801526084870160c0905260e48701906132e69261339e565b906023198683030160a48701526132fc9261339e565b8381036023190160c485015281815260200191905f905b8082106133525750505091816133355f9593869503601f19810183528261138d565b51915af4613341613426565b9015611c3c57506113bd6001600455565b90919283359063ffffffff82168092036104a457602081600193829352019401920190613313565b81835290916001600160fb1b0383116104a45760209260051b809284830137010190565b90602083828152019060208160051b85010193835f915b8383106133c55750505050505090565b909192939495601f198282030186528635601e19843603018112156104a457830190602082359201916001600160401b0381116104a4578060051b360383136104a457613418602092839260019561337a565b9801960194930191906133b5565b3d15613450573d9061343782611442565b91613445604051938461138d565b82523d5f602084013e565b606090565b979690959294939196613466613c72565b61346e614854565b6134766148b8565b946040519485946020860198630569881360e41b8a528c60248801528a60448801528b60648801526001600160401b031660848701526001600160401b031660a486015260c4850160e090526101048501906134d19261337a565b906023198483030160e48501526134e79261337a565b03601f19810182526134f9908261138d565b515a925f93928493f461350a613426565b9015611c3c57506040805191825260208201929092527f5d5ebc8105f0482c05c969b7e79cf039bd47ae3ad5b49c5ffe0e2e1e26f3974f9190a26113bd6001600455565b93969592989094919760018060a01b036006541680155f1461392657506005546001600160a01b03165b6001600160a01b03163303610a0d5761358f613c72565b6040519461359c86611371565b6001600160a01b03908116808752961660208601818152604087019a8b52606087019b8c5260808701998a5260a0870194855260c0870195865260e08701988952961590811561390c575b506109fe578751156109ef5789518015908115613901575b506109ef578851806138e757509061370a61371092613702878b6136d28e611b1b8e61364361363560055460018060a01b031690565b96516001600160a01b031690565b925194518c518e5192516040805161014060208201818152600c6101608401526b27b832b72a3930b739b332b960a11b6101808401526001600160a01b039c8d16938301939093523060608301524660808301529a90971660a088015260c087019890985260e086019290925261010085015261012084019190915294820194909452919282906101a0820190565b5190207f19457468657265756d205369676e6564204d6573736167653a0a3332000000005f52601c52603c5f2090565b92369161145d565b9061509d565b83516001600160a01b0316906001600160a01b0382166001600160a01b038216036138c6575050519081421080156138bc575b61389f5750508051613762906001600160a01b031686518551916150b3565b613777611dfd825f52601e60205260405f2090565b61388d57612daf613790915f52601e60205260405f2090565b80516137b890610ab2906137aa906001600160a01b031682565b93516001600160a01b031690565b906137c4865184612b91565b875180821061386c5750507f6bef223eeb67ca5dc7afaf4d9e655a1f1daa9b78d33d5347add46e7ade3df6ad93929161381e61385f9261381189518b51613809612be9565b918689614b37565b516001600160a01b031690565b9651975195519351604080519788526020880195909552938601939093526001600160a01b0392831660608601529082169491909116929081906080820190565b0390a46113bd6001600455565b611c59859189519360405194859463406e3ab960e01b8652600486016149cc565b63e0a0777960e01b5f5260045260245ffd5b51631f1183ed60e31b5f524260045260249190915260445260645ffd5b5080514211613743565b636cf57d9160e11b5f526001600160a01b039081166004521660245260445ffd5b631f21179960e21b5f90815260049190915260245260445ffd5b90508851105f6135ff565b61391f91506001600160a01b0316610790565b155f6135e7565b613578565b908060209392818452848401375f828201840152601f01601f1916010190565b916020916139649195949560408552604085019161392b565b6001600160a01b03909416910152565b9080601f830112156104a457815161398b816113ce565b92613999604051948561138d565b81845260208085019260051b8201019283116104a457602001905b8282106139c15750505090565b81518152602091820191016139b4565b906080828203126104a45781519260208301519260408101516001600160401b0381116104a45783613a04918301613974565b9260608201516001600160401b0381116104a457610c459201613974565b5f198114612a395760010190565b634e487b7160e01b5f525f60045260245ffd5b815181546001600160a01b0319166001600160a01b039190911617815560208201516001820155604082015160028201556060820151600382015560808201516113bd92600691613ac69160c091613ab5906001600160e01b031916600487019060e01c63ffffffff19825416179055565b60a081015160058601550151151590565b91019060ff801983541691151516179055565b335f52600a60205260ff60405f20541615610c01578115613b83575f5f195b838210613b5e575050613b09613ba2565b5f5b828110613b425750506040519081527f2f291eaf494dc7eca20457441a1df7d9119f0c0d764309daf9cb6b148810ee3690602090a1565b80613b58613b536001938686613b92565b613bef565b01613b0b565b613b69828585613b92565b35908115612a3e57811015612a2a57600190910190613af8565b6308ba5b6160e01b5f5260045ffd5b91908110156106525760061b0190565b6017545f60175580613bb15750565b600181901b906001600160ff1b03811603612a395760175f5260205f205f5b828110613bdc57505050565b5f82820181815560010155600201613bd0565b601754600160401b81101561136c576001810160175560175481101561065257602060019160175f52815f2090831b0192803584550135910155565b9190916040818403126104a45780516001600160401b0381116104a45783613c54918301613974565b9260208201516001600160401b0381116104a457610c459201613974565b600260045414613c83576002600455565b633ee5aeb560e01b5f5260045ffd5b600554600490602090613caf90610790906001600160a01b031681565b604051630e83251360e01b815292839182905afa9081156109bd575f91613d68575b506001600160a01b03168015613d5957602060405180926303330c7960e41b82528180613d018760048301610d68565b03915afa9081156109bd575f91613d3a575b50613d2157610c45906141b3565b803b15613d2b5790565b632ad05f3360e11b5f5260045ffd5b613d53915060203d6020116109b6576109a8818361138d565b5f613d13565b63ab82bb9960e01b5f5260045ffd5b613d81915060203d60201161120e57611200818361138d565b5f613cd1565b613d9081610dfd565b5480613e63575b5090613da282610e16565b91825415613e495782545f1991905f90815b818110613dd6575050613dd392939450613dcd82610dfd565b55610e2f565b55565b613de36130b78289610d53565b613df885610808835f525f60205260405f2090565b5415613e4057613e0781614b6f565b613e4057613e1d815f52601360205260405f2090565b5490868210613e33575b50506001905b01613db4565b909550925060015f613e27565b50600190613e2d565b6113bd919250805f613dcd613e5d93610dfd565b5f199055565b613e7882610808835f525f60205260405f2090565b54151580613ea2575b15613d9757613e9b613dd3915f52601360205260405f2090565b5491610e2f565b50613eaf61073282614b6f565b613e81565b9091906001600160a01b0381161561319d57613ed36113bd935f614b8f565b91614bb4565b9091906001600160a01b0381161561319d57613ed360016113bd94614b8f565b919291906001600160a01b0382161561319d576113bd93613ed391614b8f565b80549190600160401b83101561136c5782613f3c9160016113bd95018155610d53565b90919082549060031b91821b915f19901b1916179055565b90613f5e82610dfd565b546141a457601754156140c4575f19915f915f90601754915b82811061408d575b5050505f19831461408857613dd39160085480155f1461407857505f905b601d54918291613fb4613faf84613a22565b601d55565b613fc6613fbf612be9565b8487613ed9565b81613fd9845f52601160205260405f2090565b55613fec835f52601260205260405f2090565b5585614000835f52601360205260405f2090565b556140138261400e86610e16565b613f19565b7fa1617247f4f1078375680895d347eab75e7ccbda5c9bde1acb40416494a1683861406c61404088610636565b5054604080518a815260208101929092528101939093526001600160a01b038616929081906060820190565b0390a3613dcd82610dfd565b6140829042612bdc565b90613f9d565b505050565b61409681610636565b50548210156140a757600101613f77565b94505050905060016140b883610636565b500154905f8080613f7f565b50613e5d6113bd9160085480155f1461419557505f5b601d5480916140eb613faf83613a22565b6140fd6140f6612be9565b8386613ed9565b80614110835f52601160205260405f2090565b55601854614126835f52601260205260405f2090565b5561413c613e5d835f52601360205260405f2090565b6141498261400e86610e16565b604080515f1981525f6020820152908101919091526001600160a01b038416907fa1617247f4f1078375680895d347eab75e7ccbda5c9bde1acb40416494a1683890806060810161406c565b61419f9042612bdc565b6140da565b630275df1160e01b5f5260045ffd5b6005546004906020906141d090610790906001600160a01b031681565b60405163fb3894d360e01b815292839182905afa9081156109bd575f916142a3575b506001600160a01b038116918215613d5957602060405180946308a8c59960e01b825281806142248660048301610d68565b03915afa9283156109bd575f93614282575b506001600160a01b038316158015614279575b61425257505090565b63ad12d34160e01b5f526001600160a01b039081166004529081166024521660445260645ffd5b50823b15614249565b61429c91935060203d60201161120e57611200818361138d565b915f614236565b6142bc915060203d60201161120e57611200818361138d565b5f6141f2565b6142d26107326080830151151590565b80614361575b61433457600660ff6142ee60c084015160ff1690565b1603614334576001600160401b0361431060208301516001600160401b031690565b16156143345760408101516001600160801b031615908115614343575b5061433457565b633c425ec360e21b5f5260045ffd5b6060015161435a91506001600160801b031661081a565b155f61432d565b506001600160401b0361437b82516001600160401b031690565b16156142d8565b90614395825f52600c60205260405f2090565b60ff6006820154166145655760ff6143b983610808865f52600d60205260405f2090565b5416614565576005906143db612daf84610808875f52600d60205260405f2090565b01906143e78254613a22565b82556001600160a01b0316827f049c28adfe50bcf1b76fd95273b6a24566b9f377e52fddc653c3355248dad07a5f80a35460095411156144245750565b614436815f52600c60205260405f2090565b60068101805460ff1661456557805460ff1916600117905560048101546001600160e01b03199060e01b16637fcb29c960e01b81036144b05750805460019091015461448a916001600160a01b0316614a17565b7f712ae1383f79ac853f8d882153778e0260ef8f03b504e2866e0593e04d2b291f5f80a2565b631cb4772560e21b81036144e8575080546144e391906001906001600160a01b03169101546144dd612be9565b91613eb4565b61448a565b63178fb21b60e11b8103614511575080546002909101546144e3916001600160a01b03166146f1565b637251a6e760e11b810361453c575080546001918201546144e39214906001600160a01b0316614b0e565b63112f051560e31b14614550575b5061448a565b60018061455f92015414614ad0565b5f61454a565b63fb713d2b60e01b5f5260045ffd5b61457d81613d87565b6001600160a01b0381165f9081526015602052604090205480151591826145b3575b50816145a9575090565b6107329150614b6f565b816145c99293505f525f60205260405f20610e48565b541515905f61459f565b93909260e09592610c4599979460018060a01b0316865260018060a01b0316602086015260408501526060840152608083015260a08201528160c0820152019161392b565b60055492969194919260049060209061463b90610790906001600160a01b031681565b6040516389a3027160e01b815292839182905afa9081156109bd575f916146d2575b506001600160a01b03169384156109fe576003546001600160a01b03169384156109fe57853b156104a4575f9788946146ad936040519b8c9a8b998a9863cf09299560e01b8a5260048a016145d3565b03925af180156109bd576146be5750565b806146cc5f6113bd9361138d565b8061057b565b6146eb915060203d60201161120e57611200818361138d565b5f61465d565b6001600160a01b038116156109fe576017548015614845578210156148455761471990613c92565b61472281610dfd565b548015159081614831575b506141a4577fef80dfae739c4e8cf106d33ce054e670379e6a87d72585303558960b7675844c601d5492614763613faf85613a22565b6020614771610eed83610636565b61478361477c612be9565b8787613ed9565b6008548061482257505f5b6147a0875f52601160205260405f2090565b55019081516147b7865f52601260205260405f2090565b55806147cb865f52601360205260405f2090565b556147d98561400e86610e16565b846147e385610dfd565b556147ed84610e2f565b555191614802845f52601160205260405f2090565b546040805194855260208501919091526001600160a01b039190911692a3565b61482c9042612bdc565b61478e565b61483f915061073290614b6f565b5f61472d565b63c759a36760e01b5f5260045ffd5b6006546001600160a01b0316806148b357506005546001600160a01b03165b6003546001600160a01b0316331415908161489f575b5061489057565b630fc5e1ab60e41b5f5260045ffd5b6001600160a01b031633141590505f614889565b614873565b6005546001600160a01b031690811582811561493b575b50613d5957602060049260405193848092620c3c5d60e81b82525afa9182156109bd575f9261491a575b506001600160a01b0382161561490b57565b63a9d04f8760e01b5f5260045ffd5b61493491925060203d60201161120e57611200818361138d565b905f6148f9565b90503b155f6148cf565b61494e90613c92565b9061495882613d87565b61496182610dfd565b546149c857601754156140c4575f19915f915f90601754915b8281106149b0575050505f19831461408857613dd39160085480155f1461407857505f90601d54918291613fb4613faf84613a22565b6149b98161508f565b8210156140a75760010161497a565b5050565b90949392606092608083019660018060a01b03168352602083015260408201520152565b6003546001600160a01b03163303614a0457565b63118cdaa760e01b5f523360045260245ffd5b6001600160a01b0381169081156109fe57815f52600a60205260ff60405f20541615614a4e575b5050600b54811161456557600955565b6001600160a01b03165f908152600a60205260409020614a6d90612daf565b600b54600160401b81101561136c5760018101600b55600b5481101561065257600b5f9081527f0175b7a638427703f0dbe7bb9bbf987a2551717b34e79f33b5b1008d1fa01db99190910180546001600160a01b03191690921790915580614a3e565b60207fc52867146282c253c04e94eb2a948478a1f7ef84cf2d6f5864facc99f2203f2c91151560ff196010541660ff821617601055604051908152a1565b906113bd9160018060a01b03165f52600f60205260405f209060ff801983541691151516179055565b92939290916001600160a01b0383161561319d576001600160a01b0382161561318b576113bd94614b6791614b8f565b929091614df2565b5f52601160205260405f20548015159081614b88575090565b9050421190565b9160405192600184526020840152604083019160018352606084015260808301604052565b92939091935f5b8351811015614d9457614bce818561303a565b51606481101580614d86575b614d4f571580614d48575b614bf4575b6001905b01614bbb565b60105460ff16614cd7575b600554600490602090614c1c90610790906001600160a01b031681565b604051630e83251360e01b815292839182905afa9081156109bd575f91614cb9575b506001600160a01b03168015613d5957602060405180926303330c7960e41b82528180614c6e8b60048301610d68565b03915afa9081156109bd575f91614c9b575b5015613d2b57843b614bea57632ad05f3360e11b5f5260045ffd5b614cb3915060203d81116109b6576109a8818361138d565b5f614c80565b614cd1915060203d811161120e57611200818361138d565b5f614c3e565b5f8052600f602052614d0b6107327ff4803e074bd026baaf6ed2e288c9515f68c72fb7216eebdd7cae1718a53ec375611dfd565b15614bff576001600160a01b0385165f908152600f60205260409020614d349061073290611dfd565b15614bff57639798976560e01b5f5260045ffd5b505f614be5565b600191906001600160a01b0387161580614d7f575b614d6f575b50614bee565b614d79905f61541b565b5f614d69565b505f614d64565b5064174876e8008110614bda565b5091939093614da58282865f6154df565b6001600160a01b038416614dba575b50505050565b8051600103614de25790602080614dd995930151910151915f33615282565b5f808080614db4565b614ded935f33615153565b614dd9565b929490936001600160a01b038416158015949093909285928361507c575b5f5b835181101561501957614e25818561303a565b5160648110158061500b575b614fa8571580614fa1575b614e4b575b6001905b01614e12565b60105460ff16614f30575b600554600490602090614e7390610790906001600160a01b031681565b604051630e83251360e01b815292839182905afa9081156109bd575f91614f12575b506001600160a01b03168015613d59576040516303330c7960e41b81529060209082908180614ec78f60048301610d68565b03915afa9081156109bd575f91614ef4575b5015613d2b57883b614e4157632ad05f3360e11b5f5260045ffd5b614f0c915060203d81116109b6576109a8818361138d565b5f614ed9565b614f2a915060203d811161120e57611200818361138d565b5f614e95565b5f8052600f602052614f646107327ff4803e074bd026baaf6ed2e288c9515f68c72fb7216eebdd7cae1718a53ec375611dfd565b15614e56576001600160a01b0389165f908152600f60205260409020614f8d9061073290611dfd565b15614e5657639798976560e01b5f5260045ffd5b5087614e3c565b908786614ffa575b15614feb576001916001600160a01b038b161580614fe4575b614fd4575b50614e45565b614fde908861541b565b5f614fce565b5086614fc9565b63b8333dc960e01b5f5260045ffd5b506001600160a01b038a1615614fb0565b5064174876e8008110614e31565b5095509692935094905061502f828683866154df565b6001600160a01b038116615045575b5050505050565b845160010361506b576020806150619601519201519233615282565b5f8080808061503e565b61507794919233615153565b615061565b6001600160a01b03881615159650614e10565b61509890610636565b505490565b610c45916150aa91615320565b90929192615364565b9160405191602083019360018060601b03199060601b16845260348301526054820152605481526150e560748261138d565b51902090565b908160209103126104a45751610c45816105a2565b6001600160a01b0391821681529116602082015260a060408201819052610c459491939192615145929161513791908601906115fb565b9084820360608601526115fb565b916080818403910152610c10565b9091949293853b615167575b505050505050565b60209361518991604051968795869563bc197c8160e01b875260048701615100565b03815f6001600160a01b0387165af15f9181615218575b506151da57506151ae613426565b80519190826151d357632bfa23e760e11b5f526001600160a01b03821660045260245ffd5b6020915001fd5b6001600160e01b0319166343e6837f60e01b016151fd57505f808080808061515f565b632bfa23e760e11b5f526001600160a01b031660045260245ffd5b61523b91925060203d602011615242575b615233818361138d565b8101906150eb565b905f6151a0565b503d615229565b6001600160a01b039182168152911660208201526040810191909152606081019190915260a060808201819052610c4592910190610c10565b9091949293853b61529557505050505050565b6020936152b791604051968795869563f23a6e6160e01b875260048701615249565b03815f6001600160a01b0387165af15f91816152ff575b506152dc57506151ae613426565b6001600160e01b031916630dc5919f60e01b016151fd57505f808080808061515f565b61531991925060203d60201161524257615233818361138d565b905f6152ce565b8151919060418303615350576153499250602082015190606060408401519301515f1a90615681565b9192909190565b50505f9160029190565b6004111561276657565b61536d8161535a565b80615376575050565b61537f8161535a565b600181036153965763f645eedf60e01b5f5260045ffd5b61539f8161535a565b600281036153ba575063fce698f760e01b5f5260045260245ffd5b806153c660039261535a565b146153ce5750565b6335e2f38360e21b5f5260045260245ffd5b80548015615407575f1901906153f68282610d53565b8154905f199060031b1b1916905555565b634e487b7160e01b5f52603160045260245ffd5b6001600160a01b0381165f90815260146020526040812092905b8354808210156154b0578261544a8387610d53565b90549060031b1c1461545f5750600101615435565b61548d92939491613f3c6154816130b761547b61548895612f99565b86610d53565b9184610d53565b6153e0565b61549682610dfd565b541461549f5750565b613e5d815f613dcd6113bd94610dfd565b505090915061548d565b90916154d1610c45936040845260408401906115fb565b9160208184039101526115fb565b939291805183519081810361566c5750505f5b81518110156155c6578060051b90602080838501015192860101518460018060a01b038916615561575b6001936001600160a01b038216615537575b505050016154f2565b6155579161080861554f925f525f60205260405f2090565b918254612bdc565b90555f848161552e565b50909161557988610808835f525f60205260405f2090565b548281106155a75782916001949387920361559f8b610808845f525f60205260405f2090565b55935061551c565b88611c5983856040519485946303dee4c560e01b8652600486016149cc565b508051939493919291600103615629576020908101519181015160408051938452918301526001600160a01b03928316939092169133917fc3d58168c5ae7397731d063d5bbf3d657854427343f4c083240f7aacaa2d0f6291819081015b0390a4565b6040516001600160a01b03938416949093169233927f4a39dc06d4c0dbc64b70af90fd698a233a518aa5d07e595d983b8c0526c8f7fb92829161562491836154ba565b635b05999160e01b5f5260045260245260445ffd5b91906fa2a8918ca85bafe22016d0b997e4df60600160ff1b0384116156ee579160209360809260ff5f9560405194855216868401526040830152606082015282805260015afa156109bd575f516001600160a01b038116156156e457905f905f90565b505f906001905f90565b5050505f916003919056fea26469706673582212206f915cea38b7d058debecc3e1e320317392244c4a9b774457c305578bc150aab64736f6c63430008210033",
  "linkReferences": {},
  "deployedLinkReferences": {},
  "immutableReferences": {
    "2021": [
      {
        "length": 32,
        "start": 9798
      }
    ]
  },
  "inputSourceName": "project/src/BeamioUserCard/BeamioUserCard.sol",
  "buildInfoId": "solc-0_8_33-f76be6e4e598a04b68e3e6b7595512a31622a6af"
}