{
  "_format": "hh3-artifact-1",
  "contractName": "BeamioUserCardFactoryPaymasterV07",
  "sourceName": "src/BeamioUserCard/BeamioUserCardFactoryPaymasterV07.sol",
  "abi": [
    {
      "inputs": [
        {
          "internalType": "address",
          "name": "usdcToken_",
          "type": "address"
        },
        {
          "internalType": "address",
          "name": "redeemModule_",
          "type": "address"
        },
        {
          "internalType": "address",
          "name": "quoteHelper_",
          "type": "address"
        },
        {
          "internalType": "address",
          "name": "deployer_",
          "type": "address"
        },
        {
          "internalType": "address",
          "name": "aaFactory_",
          "type": "address"
        },
        {
          "internalType": "address",
          "name": "initialOwner",
          "type": "address"
        }
      ],
      "stateMutability": "nonpayable",
      "type": "constructor"
    },
    {
      "inputs": [],
      "name": "BM_CallFailed",
      "type": "error"
    },
    {
      "inputs": [],
      "name": "BM_DeployFailed",
      "type": "error"
    },
    {
      "inputs": [
        {
          "internalType": "uint8",
          "name": "step",
          "type": "uint8"
        }
      ],
      "name": "BM_DeployFailedAtStep",
      "type": "error"
    },
    {
      "inputs": [],
      "name": "BM_NotAuthorized",
      "type": "error"
    },
    {
      "inputs": [],
      "name": "BM_ZeroAddress",
      "type": "error"
    },
    {
      "inputs": [],
      "name": "ECDSAInvalidSignature",
      "type": "error"
    },
    {
      "inputs": [
        {
          "internalType": "uint256",
          "name": "length",
          "type": "uint256"
        }
      ],
      "name": "ECDSAInvalidSignatureLength",
      "type": "error"
    },
    {
      "inputs": [
        {
          "internalType": "bytes32",
          "name": "s",
          "type": "bytes32"
        }
      ],
      "name": "ECDSAInvalidSignatureS",
      "type": "error"
    },
    {
      "inputs": [],
      "name": "F_AlreadyRegistered",
      "type": "error"
    },
    {
      "inputs": [],
      "name": "F_BadDeployedCard",
      "type": "error"
    },
    {
      "inputs": [],
      "name": "F_InvalidRedeemHash",
      "type": "error"
    },
    {
      "inputs": [
        {
          "internalType": "address",
          "name": "admin",
          "type": "address"
        }
      ],
      "name": "UC_AdminDepthExceeded",
      "type": "error"
    },
    {
      "inputs": [],
      "name": "UC_AmountZero",
      "type": "error"
    },
    {
      "inputs": [],
      "name": "UC_FaucetNotEnabled",
      "type": "error"
    },
    {
      "inputs": [],
      "name": "UC_InvalidProposal",
      "type": "error"
    },
    {
      "inputs": [
        {
          "internalType": "address",
          "name": "recovered",
          "type": "address"
        },
        {
          "internalType": "address",
          "name": "expected",
          "type": "address"
        }
      ],
      "name": "UC_InvalidSignature",
      "type": "error"
    },
    {
      "inputs": [
        {
          "internalType": "uint256",
          "name": "nowTs",
          "type": "uint256"
        },
        {
          "internalType": "uint256",
          "name": "validAfter",
          "type": "uint256"
        },
        {
          "internalType": "uint256",
          "name": "validBefore",
          "type": "uint256"
        }
      ],
      "name": "UC_InvalidTimeWindow",
      "type": "error"
    },
    {
      "inputs": [],
      "name": "UC_NonceUsed",
      "type": "error"
    },
    {
      "inputs": [],
      "name": "UC_NotAdmin",
      "type": "error"
    },
    {
      "inputs": [],
      "name": "UC_PointsZero",
      "type": "error"
    },
    {
      "inputs": [],
      "name": "UC_PriceZero",
      "type": "error"
    },
    {
      "inputs": [],
      "name": "UC_PurchaseDisabledBecauseFree",
      "type": "error"
    },
    {
      "inputs": [],
      "name": "UC_Slippage",
      "type": "error"
    },
    {
      "inputs": [],
      "name": "UC_TierMinZero",
      "type": "error"
    },
    {
      "anonymous": false,
      "inputs": [
        {
          "indexed": true,
          "internalType": "address",
          "name": "oldFactory",
          "type": "address"
        },
        {
          "indexed": true,
          "internalType": "address",
          "name": "newFactory",
          "type": "address"
        }
      ],
      "name": "AAFactoryChanged",
      "type": "event"
    },
    {
      "anonymous": false,
      "inputs": [
        {
          "indexed": true,
          "internalType": "address",
          "name": "card",
          "type": "address"
        },
        {
          "indexed": true,
          "internalType": "address",
          "name": "adminSigner",
          "type": "address"
        },
        {
          "indexed": false,
          "internalType": "bytes32",
          "name": "nonce",
          "type": "bytes32"
        }
      ],
      "name": "AdminExecuteExecuted",
      "type": "event"
    },
    {
      "anonymous": false,
      "inputs": [
        {
          "indexed": true,
          "internalType": "address",
          "name": "cardOwner",
          "type": "address"
        },
        {
          "indexed": true,
          "internalType": "address",
          "name": "card",
          "type": "address"
        },
        {
          "indexed": false,
          "internalType": "uint8",
          "name": "currency",
          "type": "uint8"
        },
        {
          "indexed": false,
          "internalType": "uint256",
          "name": "priceE18",
          "type": "uint256"
        }
      ],
      "name": "CardDeployed",
      "type": "event"
    },
    {
      "anonymous": false,
      "inputs": [
        {
          "indexed": true,
          "internalType": "address",
          "name": "cardOwner",
          "type": "address"
        },
        {
          "indexed": true,
          "internalType": "address",
          "name": "card",
          "type": "address"
        }
      ],
      "name": "CardRegistered",
      "type": "event"
    },
    {
      "anonymous": false,
      "inputs": [
        {
          "indexed": true,
          "internalType": "address",
          "name": "oldM",
          "type": "address"
        },
        {
          "indexed": true,
          "internalType": "address",
          "name": "newM",
          "type": "address"
        }
      ],
      "name": "DefaultAdminStatsQueryModuleUpdated",
      "type": "event"
    },
    {
      "anonymous": false,
      "inputs": [
        {
          "indexed": true,
          "internalType": "address",
          "name": "oldM",
          "type": "address"
        },
        {
          "indexed": true,
          "internalType": "address",
          "name": "newM",
          "type": "address"
        }
      ],
      "name": "DefaultFaucetModuleUpdated",
      "type": "event"
    },
    {
      "anonymous": false,
      "inputs": [
        {
          "indexed": true,
          "internalType": "address",
          "name": "oldM",
          "type": "address"
        },
        {
          "indexed": true,
          "internalType": "address",
          "name": "newM",
          "type": "address"
        }
      ],
      "name": "DefaultGovernanceModuleUpdated",
      "type": "event"
    },
    {
      "anonymous": false,
      "inputs": [
        {
          "indexed": true,
          "internalType": "address",
          "name": "oldM",
          "type": "address"
        },
        {
          "indexed": true,
          "internalType": "address",
          "name": "newM",
          "type": "address"
        }
      ],
      "name": "DefaultIssuedNftModuleUpdated",
      "type": "event"
    },
    {
      "anonymous": false,
      "inputs": [
        {
          "indexed": true,
          "internalType": "address",
          "name": "oldM",
          "type": "address"
        },
        {
          "indexed": true,
          "internalType": "address",
          "name": "newM",
          "type": "address"
        }
      ],
      "name": "DefaultMembershipStatsModuleUpdated",
      "type": "event"
    },
    {
      "anonymous": false,
      "inputs": [
        {
          "indexed": true,
          "internalType": "address",
          "name": "oldM",
          "type": "address"
        },
        {
          "indexed": true,
          "internalType": "address",
          "name": "newM",
          "type": "address"
        }
      ],
      "name": "DefaultRedeemModuleUpdated",
      "type": "event"
    },
    {
      "anonymous": false,
      "inputs": [
        {
          "indexed": false,
          "internalType": "uint8",
          "name": "step",
          "type": "uint8"
        }
      ],
      "name": "DeployFailedStep",
      "type": "event"
    },
    {
      "anonymous": false,
      "inputs": [
        {
          "indexed": true,
          "internalType": "address",
          "name": "oldD",
          "type": "address"
        },
        {
          "indexed": true,
          "internalType": "address",
          "name": "newD",
          "type": "address"
        }
      ],
      "name": "DeployerChanged",
      "type": "event"
    },
    {
      "anonymous": false,
      "inputs": [
        {
          "indexed": true,
          "internalType": "address",
          "name": "card",
          "type": "address"
        },
        {
          "indexed": true,
          "internalType": "address",
          "name": "userEOA",
          "type": "address"
        },
        {
          "indexed": true,
          "internalType": "address",
          "name": "cardOwner",
          "type": "address"
        },
        {
          "indexed": false,
          "internalType": "uint256",
          "name": "tokenId",
          "type": "uint256"
        },
        {
          "indexed": false,
          "internalType": "uint256",
          "name": "amount",
          "type": "uint256"
        },
        {
          "indexed": false,
          "internalType": "uint256",
          "name": "usdcAmount6",
          "type": "uint256"
        },
        {
          "indexed": false,
          "internalType": "bytes32",
          "name": "nonce",
          "type": "bytes32"
        }
      ],
      "name": "IssuedNftPurchasedForUser",
      "type": "event"
    },
    {
      "anonymous": false,
      "inputs": [
        {
          "indexed": false,
          "internalType": "string",
          "name": "oldURI",
          "type": "string"
        },
        {
          "indexed": false,
          "internalType": "string",
          "name": "newURI",
          "type": "string"
        }
      ],
      "name": "MetadataBaseURIUpdated",
      "type": "event"
    },
    {
      "anonymous": false,
      "inputs": [
        {
          "indexed": true,
          "internalType": "address",
          "name": "oldOwner",
          "type": "address"
        },
        {
          "indexed": true,
          "internalType": "address",
          "name": "newOwner",
          "type": "address"
        }
      ],
      "name": "OwnerChanged",
      "type": "event"
    },
    {
      "anonymous": false,
      "inputs": [
        {
          "indexed": true,
          "internalType": "address",
          "name": "account",
          "type": "address"
        },
        {
          "indexed": false,
          "internalType": "bool",
          "name": "allowed",
          "type": "bool"
        }
      ],
      "name": "PaymasterStatusChanged",
      "type": "event"
    },
    {
      "anonymous": false,
      "inputs": [
        {
          "indexed": true,
          "internalType": "address",
          "name": "card",
          "type": "address"
        },
        {
          "indexed": true,
          "internalType": "address",
          "name": "fromEOA",
          "type": "address"
        },
        {
          "indexed": true,
          "internalType": "address",
          "name": "cardOwner",
          "type": "address"
        },
        {
          "indexed": false,
          "internalType": "uint256",
          "name": "usdcAmount6",
          "type": "uint256"
        },
        {
          "indexed": false,
          "internalType": "uint256",
          "name": "pointsOut6",
          "type": "uint256"
        },
        {
          "indexed": false,
          "internalType": "bytes32",
          "name": "nonce",
          "type": "bytes32"
        }
      ],
      "name": "PointsPurchasedForUser",
      "type": "event"
    },
    {
      "anonymous": false,
      "inputs": [
        {
          "indexed": true,
          "internalType": "address",
          "name": "oldH",
          "type": "address"
        },
        {
          "indexed": true,
          "internalType": "address",
          "name": "newH",
          "type": "address"
        }
      ],
      "name": "QuoteHelperChanged",
      "type": "event"
    },
    {
      "anonymous": false,
      "inputs": [
        {
          "indexed": true,
          "internalType": "address",
          "name": "card",
          "type": "address"
        },
        {
          "indexed": true,
          "internalType": "address",
          "name": "user",
          "type": "address"
        },
        {
          "indexed": false,
          "internalType": "bytes32",
          "name": "redeemHash",
          "type": "bytes32"
        }
      ],
      "name": "RedeemExecuted",
      "type": "event"
    },
    {
      "anonymous": false,
      "inputs": [
        {
          "indexed": true,
          "internalType": "address",
          "name": "card",
          "type": "address"
        },
        {
          "indexed": true,
          "internalType": "uint256",
          "name": "id",
          "type": "uint256"
        },
        {
          "indexed": false,
          "internalType": "bool",
          "name": "isNft",
          "type": "bool"
        }
      ],
      "name": "TokenIdIssued",
      "type": "event"
    },
    {
      "inputs": [],
      "name": "CLEAR_ADMIN_MINT_COUNTER_TYPEHASH",
      "outputs": [
        {
          "internalType": "bytes32",
          "name": "",
          "type": "bytes32"
        }
      ],
      "stateMutability": "view",
      "type": "function"
    },
    {
      "inputs": [],
      "name": "DOMAIN_SEPARATOR",
      "outputs": [
        {
          "internalType": "bytes32",
          "name": "",
          "type": "bytes32"
        }
      ],
      "stateMutability": "view",
      "type": "function"
    },
    {
      "inputs": [],
      "name": "EXECUTE_FOR_ADMIN_TYPEHASH",
      "outputs": [
        {
          "internalType": "bytes32",
          "name": "",
          "type": "bytes32"
        }
      ],
      "stateMutability": "view",
      "type": "function"
    },
    {
      "inputs": [],
      "name": "EXECUTE_FOR_OWNER_TYPEHASH",
      "outputs": [
        {
          "internalType": "bytes32",
          "name": "",
          "type": "bytes32"
        }
      ],
      "stateMutability": "view",
      "type": "function"
    },
    {
      "inputs": [],
      "name": "USDC",
      "outputs": [
        {
          "internalType": "address",
          "name": "",
          "type": "address"
        }
      ],
      "stateMutability": "view",
      "type": "function"
    },
    {
      "inputs": [],
      "name": "USDC_TOKEN",
      "outputs": [
        {
          "internalType": "address",
          "name": "",
          "type": "address"
        }
      ],
      "stateMutability": "view",
      "type": "function"
    },
    {
      "inputs": [],
      "name": "_aaFactory",
      "outputs": [
        {
          "internalType": "address",
          "name": "",
          "type": "address"
        }
      ],
      "stateMutability": "view",
      "type": "function"
    },
    {
      "inputs": [],
      "name": "aaFactory",
      "outputs": [
        {
          "internalType": "address",
          "name": "",
          "type": "address"
        }
      ],
      "stateMutability": "view",
      "type": "function"
    },
    {
      "inputs": [
        {
          "internalType": "address",
          "name": "cardAddr",
          "type": "address"
        },
        {
          "internalType": "uint256",
          "name": "minUsdc6",
          "type": "uint256"
        },
        {
          "internalType": "uint256",
          "name": "attr",
          "type": "uint256"
        },
        {
          "internalType": "uint256",
          "name": "tierExpirySeconds",
          "type": "uint256"
        }
      ],
      "name": "appendTierForCard",
      "outputs": [],
      "stateMutability": "nonpayable",
      "type": "function"
    },
    {
      "inputs": [
        {
          "internalType": "address",
          "name": "cardAddr",
          "type": "address"
        },
        {
          "internalType": "uint256",
          "name": "minUsdc6",
          "type": "uint256"
        },
        {
          "internalType": "uint256",
          "name": "attr",
          "type": "uint256"
        },
        {
          "internalType": "uint256",
          "name": "tierExpirySeconds",
          "type": "uint256"
        },
        {
          "internalType": "uint256",
          "name": "deadline",
          "type": "uint256"
        },
        {
          "internalType": "bytes32",
          "name": "nonce",
          "type": "bytes32"
        },
        {
          "internalType": "bytes",
          "name": "ownerSignature",
          "type": "bytes"
        }
      ],
      "name": "appendTierForCardWithOwnerSignature",
      "outputs": [],
      "stateMutability": "nonpayable",
      "type": "function"
    },
    {
      "inputs": [
        {
          "internalType": "address",
          "name": "",
          "type": "address"
        }
      ],
      "name": "beamioUserCardOwner",
      "outputs": [
        {
          "internalType": "address",
          "name": "",
          "type": "address"
        }
      ],
      "stateMutability": "view",
      "type": "function"
    },
    {
      "inputs": [
        {
          "internalType": "address",
          "name": "cardAddr",
          "type": "address"
        },
        {
          "internalType": "address",
          "name": "fromEOA",
          "type": "address"
        },
        {
          "internalType": "uint256",
          "name": "usdcAmount6",
          "type": "uint256"
        },
        {
          "internalType": "uint256",
          "name": "validAfter",
          "type": "uint256"
        },
        {
          "internalType": "uint256",
          "name": "validBefore",
          "type": "uint256"
        },
        {
          "internalType": "bytes32",
          "name": "nonce",
          "type": "bytes32"
        },
        {
          "internalType": "bytes",
          "name": "signature",
          "type": "bytes"
        },
        {
          "internalType": "uint256",
          "name": "minPointsOut6",
          "type": "uint256"
        }
      ],
      "name": "buyPointsForUser",
      "outputs": [
        {
          "internalType": "uint256",
          "name": "pointsOut6",
          "type": "uint256"
        }
      ],
      "stateMutability": "nonpayable",
      "type": "function"
    },
    {
      "inputs": [
        {
          "internalType": "address",
          "name": "cardAddr",
          "type": "address"
        },
        {
          "internalType": "address",
          "name": "fromEOA",
          "type": "address"
        },
        {
          "internalType": "uint256",
          "name": "usdcAmount6",
          "type": "uint256"
        },
        {
          "internalType": "uint256",
          "name": "validAfter",
          "type": "uint256"
        },
        {
          "internalType": "uint256",
          "name": "validBefore",
          "type": "uint256"
        },
        {
          "internalType": "bytes32",
          "name": "nonce",
          "type": "bytes32"
        },
        {
          "internalType": "bytes",
          "name": "signature",
          "type": "bytes"
        },
        {
          "internalType": "uint256",
          "name": "minPointsOut6",
          "type": "uint256"
        },
        {
          "internalType": "address",
          "name": "recommender",
          "type": "address"
        }
      ],
      "name": "buyPointsForUser",
      "outputs": [
        {
          "internalType": "uint256",
          "name": "pointsOut6",
          "type": "uint256"
        }
      ],
      "stateMutability": "nonpayable",
      "type": "function"
    },
    {
      "inputs": [
        {
          "internalType": "address",
          "name": "cardOwner",
          "type": "address"
        }
      ],
      "name": "cardsOfOwner",
      "outputs": [
        {
          "internalType": "address[]",
          "name": "",
          "type": "address[]"
        }
      ],
      "stateMutability": "view",
      "type": "function"
    },
    {
      "inputs": [
        {
          "internalType": "address",
          "name": "a",
          "type": "address"
        },
        {
          "internalType": "bool",
          "name": "ok",
          "type": "bool"
        }
      ],
      "name": "changePaymasterStatus",
      "outputs": [],
      "stateMutability": "nonpayable",
      "type": "function"
    },
    {
      "inputs": [
        {
          "internalType": "address",
          "name": "cardOwner",
          "type": "address"
        },
        {
          "internalType": "uint8",
          "name": "currency",
          "type": "uint8"
        },
        {
          "internalType": "uint256",
          "name": "priceInCurrencyE6",
          "type": "uint256"
        },
        {
          "internalType": "bytes",
          "name": "initCode",
          "type": "bytes"
        }
      ],
      "name": "createCardCollectionWithInitCode",
      "outputs": [
        {
          "internalType": "address",
          "name": "card",
          "type": "address"
        }
      ],
      "stateMutability": "nonpayable",
      "type": "function"
    },
    {
      "inputs": [
        {
          "internalType": "address",
          "name": "cardOwner",
          "type": "address"
        },
        {
          "internalType": "uint8",
          "name": "currency",
          "type": "uint8"
        },
        {
          "internalType": "uint256",
          "name": "priceInCurrencyE6",
          "type": "uint256"
        },
        {
          "internalType": "bytes",
          "name": "initCode",
          "type": "bytes"
        },
        {
          "components": [
            {
              "internalType": "uint256",
              "name": "minUsdc6",
              "type": "uint256"
            },
            {
              "internalType": "uint256",
              "name": "attr",
              "type": "uint256"
            },
            {
              "internalType": "uint256",
              "name": "tierExpirySeconds",
              "type": "uint256"
            }
          ],
          "internalType": "struct Tier[]",
          "name": "tiers",
          "type": "tuple[]"
        }
      ],
      "name": "createCardCollectionWithInitCodeAndTiers",
      "outputs": [
        {
          "internalType": "address",
          "name": "card",
          "type": "address"
        }
      ],
      "stateMutability": "nonpayable",
      "type": "function"
    },
    {
      "inputs": [],
      "name": "defaultAdminStatsQueryModule",
      "outputs": [
        {
          "internalType": "address",
          "name": "",
          "type": "address"
        }
      ],
      "stateMutability": "view",
      "type": "function"
    },
    {
      "inputs": [],
      "name": "defaultFaucetModule",
      "outputs": [
        {
          "internalType": "address",
          "name": "",
          "type": "address"
        }
      ],
      "stateMutability": "view",
      "type": "function"
    },
    {
      "inputs": [],
      "name": "defaultGovernanceModule",
      "outputs": [
        {
          "internalType": "address",
          "name": "",
          "type": "address"
        }
      ],
      "stateMutability": "view",
      "type": "function"
    },
    {
      "inputs": [],
      "name": "defaultIssuedNftModule",
      "outputs": [
        {
          "internalType": "address",
          "name": "",
          "type": "address"
        }
      ],
      "stateMutability": "view",
      "type": "function"
    },
    {
      "inputs": [],
      "name": "defaultMembershipStatsModule",
      "outputs": [
        {
          "internalType": "address",
          "name": "",
          "type": "address"
        }
      ],
      "stateMutability": "view",
      "type": "function"
    },
    {
      "inputs": [],
      "name": "defaultRedeemModule",
      "outputs": [
        {
          "internalType": "address",
          "name": "",
          "type": "address"
        }
      ],
      "stateMutability": "view",
      "type": "function"
    },
    {
      "inputs": [],
      "name": "deployer",
      "outputs": [
        {
          "internalType": "address",
          "name": "",
          "type": "address"
        }
      ],
      "stateMutability": "view",
      "type": "function"
    },
    {
      "inputs": [
        {
          "internalType": "address",
          "name": "cardAddr",
          "type": "address"
        },
        {
          "internalType": "address",
          "name": "subordinate",
          "type": "address"
        },
        {
          "internalType": "uint256",
          "name": "deadline",
          "type": "uint256"
        },
        {
          "internalType": "bytes32",
          "name": "nonce",
          "type": "bytes32"
        },
        {
          "internalType": "bytes",
          "name": "adminSignature",
          "type": "bytes"
        }
      ],
      "name": "executeClearAdminMintCounter",
      "outputs": [],
      "stateMutability": "nonpayable",
      "type": "function"
    },
    {
      "inputs": [
        {
          "internalType": "address",
          "name": "cardAddr",
          "type": "address"
        },
        {
          "internalType": "bytes",
          "name": "data",
          "type": "bytes"
        },
        {
          "internalType": "uint256",
          "name": "deadline",
          "type": "uint256"
        },
        {
          "internalType": "bytes32",
          "name": "nonce",
          "type": "bytes32"
        },
        {
          "internalType": "bytes",
          "name": "adminSignature",
          "type": "bytes"
        }
      ],
      "name": "executeForAdmin",
      "outputs": [],
      "stateMutability": "nonpayable",
      "type": "function"
    },
    {
      "inputs": [
        {
          "internalType": "address",
          "name": "cardAddr",
          "type": "address"
        },
        {
          "internalType": "bytes",
          "name": "data",
          "type": "bytes"
        },
        {
          "internalType": "uint256",
          "name": "deadline",
          "type": "uint256"
        },
        {
          "internalType": "bytes32",
          "name": "nonce",
          "type": "bytes32"
        },
        {
          "internalType": "bytes",
          "name": "ownerSignature",
          "type": "bytes"
        }
      ],
      "name": "executeForOwner",
      "outputs": [],
      "stateMutability": "nonpayable",
      "type": "function"
    },
    {
      "inputs": [
        {
          "internalType": "address",
          "name": "card",
          "type": "address"
        }
      ],
      "name": "isBeamioUserCard",
      "outputs": [
        {
          "internalType": "bool",
          "name": "",
          "type": "bool"
        }
      ],
      "stateMutability": "view",
      "type": "function"
    },
    {
      "inputs": [
        {
          "internalType": "address",
          "name": "",
          "type": "address"
        },
        {
          "internalType": "address",
          "name": "",
          "type": "address"
        }
      ],
      "name": "isCardOfOwner",
      "outputs": [
        {
          "internalType": "bool",
          "name": "",
          "type": "bool"
        }
      ],
      "stateMutability": "view",
      "type": "function"
    },
    {
      "inputs": [
        {
          "internalType": "address",
          "name": "",
          "type": "address"
        }
      ],
      "name": "isPaymaster",
      "outputs": [
        {
          "internalType": "bool",
          "name": "",
          "type": "bool"
        }
      ],
      "stateMutability": "view",
      "type": "function"
    },
    {
      "inputs": [
        {
          "internalType": "address",
          "name": "card",
          "type": "address"
        },
        {
          "internalType": "uint256",
          "name": "id",
          "type": "uint256"
        }
      ],
      "name": "isTokenIdIssued",
      "outputs": [
        {
          "internalType": "bool",
          "name": "",
          "type": "bool"
        }
      ],
      "stateMutability": "view",
      "type": "function"
    },
    {
      "inputs": [
        {
          "internalType": "address",
          "name": "card",
          "type": "address"
        },
        {
          "internalType": "bool",
          "name": "isNft",
          "type": "bool"
        }
      ],
      "name": "issueTokenId",
      "outputs": [
        {
          "internalType": "uint256",
          "name": "id",
          "type": "uint256"
        }
      ],
      "stateMutability": "nonpayable",
      "type": "function"
    },
    {
      "inputs": [
        {
          "internalType": "address",
          "name": "cardOwner",
          "type": "address"
        }
      ],
      "name": "latestCardOfOwner",
      "outputs": [
        {
          "internalType": "address",
          "name": "",
          "type": "address"
        }
      ],
      "stateMutability": "view",
      "type": "function"
    },
    {
      "inputs": [],
      "name": "metadataBaseURI",
      "outputs": [
        {
          "internalType": "string",
          "name": "",
          "type": "string"
        }
      ],
      "stateMutability": "view",
      "type": "function"
    },
    {
      "inputs": [],
      "name": "nextFungibleId",
      "outputs": [
        {
          "internalType": "uint256",
          "name": "",
          "type": "uint256"
        }
      ],
      "stateMutability": "view",
      "type": "function"
    },
    {
      "inputs": [],
      "name": "nextNftId",
      "outputs": [
        {
          "internalType": "uint256",
          "name": "",
          "type": "uint256"
        }
      ],
      "stateMutability": "view",
      "type": "function"
    },
    {
      "inputs": [],
      "name": "owner",
      "outputs": [
        {
          "internalType": "address",
          "name": "",
          "type": "address"
        }
      ],
      "stateMutability": "view",
      "type": "function"
    },
    {
      "inputs": [
        {
          "internalType": "address",
          "name": "cardAddr",
          "type": "address"
        },
        {
          "internalType": "address",
          "name": "userEOA",
          "type": "address"
        },
        {
          "internalType": "uint256",
          "name": "id",
          "type": "uint256"
        },
        {
          "internalType": "uint256",
          "name": "amount6",
          "type": "uint256"
        },
        {
          "internalType": "uint256",
          "name": "validAfter",
          "type": "uint256"
        },
        {
          "internalType": "uint256",
          "name": "validBefore",
          "type": "uint256"
        },
        {
          "internalType": "bytes32",
          "name": "nonce",
          "type": "bytes32"
        },
        {
          "internalType": "bytes",
          "name": "signature",
          "type": "bytes"
        }
      ],
      "name": "purchaseFaucetForUser",
      "outputs": [],
      "stateMutability": "nonpayable",
      "type": "function"
    },
    {
      "inputs": [
        {
          "internalType": "address",
          "name": "cardAddr",
          "type": "address"
        },
        {
          "internalType": "address",
          "name": "userEOA",
          "type": "address"
        },
        {
          "internalType": "uint256",
          "name": "tokenId",
          "type": "uint256"
        },
        {
          "internalType": "uint256",
          "name": "amount",
          "type": "uint256"
        },
        {
          "internalType": "uint256",
          "name": "validAfter",
          "type": "uint256"
        },
        {
          "internalType": "uint256",
          "name": "validBefore",
          "type": "uint256"
        },
        {
          "internalType": "bytes32",
          "name": "nonce",
          "type": "bytes32"
        },
        {
          "internalType": "bytes",
          "name": "signature",
          "type": "bytes"
        }
      ],
      "name": "purchaseIssuedNftForUser",
      "outputs": [],
      "stateMutability": "nonpayable",
      "type": "function"
    },
    {
      "inputs": [
        {
          "internalType": "uint8",
          "name": "cur",
          "type": "uint8"
        },
        {
          "internalType": "uint256",
          "name": "amount6",
          "type": "uint256"
        }
      ],
      "name": "quoteCurrencyAmountInUSDC6",
      "outputs": [
        {
          "internalType": "uint256",
          "name": "",
          "type": "uint256"
        }
      ],
      "stateMutability": "view",
      "type": "function"
    },
    {
      "inputs": [],
      "name": "quoteHelper",
      "outputs": [
        {
          "internalType": "address",
          "name": "",
          "type": "address"
        }
      ],
      "stateMutability": "view",
      "type": "function"
    },
    {
      "inputs": [
        {
          "internalType": "address",
          "name": "card",
          "type": "address"
        }
      ],
      "name": "quoteUnitPointInUSDC6",
      "outputs": [
        {
          "internalType": "uint256",
          "name": "",
          "type": "uint256"
        }
      ],
      "stateMutability": "view",
      "type": "function"
    },
    {
      "inputs": [
        {
          "internalType": "address",
          "name": "cardAddr",
          "type": "address"
        },
        {
          "internalType": "string",
          "name": "code",
          "type": "string"
        },
        {
          "internalType": "address",
          "name": "to",
          "type": "address"
        }
      ],
      "name": "redeemAdminForUser",
      "outputs": [],
      "stateMutability": "nonpayable",
      "type": "function"
    },
    {
      "inputs": [
        {
          "internalType": "address",
          "name": "cardAddr",
          "type": "address"
        },
        {
          "internalType": "string[]",
          "name": "codes",
          "type": "string[]"
        },
        {
          "internalType": "address",
          "name": "userEOA",
          "type": "address"
        }
      ],
      "name": "redeemBatchForUser",
      "outputs": [],
      "stateMutability": "nonpayable",
      "type": "function"
    },
    {
      "inputs": [
        {
          "internalType": "address",
          "name": "cardAddr",
          "type": "address"
        },
        {
          "internalType": "string",
          "name": "code",
          "type": "string"
        },
        {
          "internalType": "address",
          "name": "userEOA",
          "type": "address"
        }
      ],
      "name": "redeemForUser",
      "outputs": [],
      "stateMutability": "nonpayable",
      "type": "function"
    },
    {
      "inputs": [
        {
          "internalType": "address",
          "name": "cardAddr",
          "type": "address"
        },
        {
          "internalType": "string",
          "name": "code",
          "type": "string"
        },
        {
          "internalType": "address",
          "name": "userEOA",
          "type": "address"
        }
      ],
      "name": "redeemPoolForUser",
      "outputs": [],
      "stateMutability": "nonpayable",
      "type": "function"
    },
    {
      "inputs": [
        {
          "internalType": "address",
          "name": "cardOwner",
          "type": "address"
        },
        {
          "internalType": "address",
          "name": "card",
          "type": "address"
        }
      ],
      "name": "registerExistingCard",
      "outputs": [],
      "stateMutability": "nonpayable",
      "type": "function"
    },
    {
      "inputs": [
        {
          "internalType": "address",
          "name": "f",
          "type": "address"
        }
      ],
      "name": "setAAFactory",
      "outputs": [],
      "stateMutability": "nonpayable",
      "type": "function"
    },
    {
      "inputs": [
        {
          "internalType": "address",
          "name": "m",
          "type": "address"
        }
      ],
      "name": "setAdminStatsQueryModule",
      "outputs": [],
      "stateMutability": "nonpayable",
      "type": "function"
    },
    {
      "inputs": [
        {
          "internalType": "address",
          "name": "d",
          "type": "address"
        }
      ],
      "name": "setDeployer",
      "outputs": [],
      "stateMutability": "nonpayable",
      "type": "function"
    },
    {
      "inputs": [
        {
          "internalType": "address",
          "name": "m",
          "type": "address"
        }
      ],
      "name": "setFaucetModule",
      "outputs": [],
      "stateMutability": "nonpayable",
      "type": "function"
    },
    {
      "inputs": [
        {
          "internalType": "address",
          "name": "m",
          "type": "address"
        }
      ],
      "name": "setGovernanceModule",
      "outputs": [],
      "stateMutability": "nonpayable",
      "type": "function"
    },
    {
      "inputs": [
        {
          "internalType": "address",
          "name": "m",
          "type": "address"
        }
      ],
      "name": "setIssuedNftModule",
      "outputs": [],
      "stateMutability": "nonpayable",
      "type": "function"
    },
    {
      "inputs": [
        {
          "internalType": "address",
          "name": "m",
          "type": "address"
        }
      ],
      "name": "setMembershipStatsModule",
      "outputs": [],
      "stateMutability": "nonpayable",
      "type": "function"
    },
    {
      "inputs": [
        {
          "internalType": "string",
          "name": "newBaseURI",
          "type": "string"
        }
      ],
      "name": "setMetadataBaseURI",
      "outputs": [],
      "stateMutability": "nonpayable",
      "type": "function"
    },
    {
      "inputs": [
        {
          "internalType": "address",
          "name": "h",
          "type": "address"
        }
      ],
      "name": "setQuoteHelper",
      "outputs": [],
      "stateMutability": "nonpayable",
      "type": "function"
    },
    {
      "inputs": [
        {
          "internalType": "address",
          "name": "m",
          "type": "address"
        }
      ],
      "name": "setRedeemModule",
      "outputs": [],
      "stateMutability": "nonpayable",
      "type": "function"
    },
    {
      "inputs": [
        {
          "internalType": "address",
          "name": "",
          "type": "address"
        },
        {
          "internalType": "uint256",
          "name": "",
          "type": "uint256"
        }
      ],
      "name": "tokenIdIssued",
      "outputs": [
        {
          "internalType": "bool",
          "name": "",
          "type": "bool"
        }
      ],
      "stateMutability": "view",
      "type": "function"
    },
    {
      "inputs": [
        {
          "internalType": "address",
          "name": "newOwner",
          "type": "address"
        }
      ],
      "name": "transferOwner",
      "outputs": [],
      "stateMutability": "nonpayable",
      "type": "function"
    },
    {
      "inputs": [
        {
          "internalType": "bytes32",
          "name": "",
          "type": "bytes32"
        }
      ],
      "name": "usedAdminExecuteNonces",
      "outputs": [
        {
          "internalType": "bool",
          "name": "",
          "type": "bool"
        }
      ],
      "stateMutability": "view",
      "type": "function"
    },
    {
      "inputs": [
        {
          "internalType": "bytes32",
          "name": "",
          "type": "bytes32"
        }
      ],
      "name": "usedClearAdminMintCounterNonces",
      "outputs": [
        {
          "internalType": "bool",
          "name": "",
          "type": "bool"
        }
      ],
      "stateMutability": "view",
      "type": "function"
    },
    {
      "inputs": [
        {
          "internalType": "bytes32",
          "name": "",
          "type": "bytes32"
        }
      ],
      "name": "usedOwnerExecuteNonces",
      "outputs": [
        {
          "internalType": "bool",
          "name": "",
          "type": "bool"
        }
      ],
      "stateMutability": "view",
      "type": "function"
    }
  ],
  "bytecode": "0x60c080604052346102d25760c081615925803803809161001f82856102d6565b8339810103126102d2576100328161030d565b61003e6020830161030d565b61004a6040840161030d565b906100576060850161030d565b9261007060a06100696080880161030d565b960161030d565b906001600160a01b0381161580156102c1575b80156102b0575b801561029f575b801561028e575b801561027d575b61026e576080525f80546001600160a01b03199081166001600160a01b039384169081178355825260016020819052604092839020805460ff191682179055600280548316958516958617905560038054831686179055600480548316861790556005805483168617905560068054831690951790945560078054821690556008805482169584169590951790945560098054851695831695909517909455600b80549093169416939093179055600c919091556064600d5580519061016590826102d6565b601581527f4265616d696f5573657243617264466163746f72790000000000000000000000602090910152604080517fb77f4f874d464e6b89d928e63195f8e6a3efa6ad7d73e629a7033d854b4099b9916101c090826102d6565b600181526020810190603160f81b82525190206040519060208201927f8b73c3c69bb8fe3d512ecc4cf759cc79239f7b179b0ffacaa9a75d522b39400f8452604083015260608201524660808201523060a082015260a0815261022460c0826102d6565b51902060a0526040516156039081610322823960805181818161062f01528181611715015281816119ba01528181613ab70152613db1015260a051818181610c860152610ef00152f35b63a9b8048960e01b5f5260045ffd5b506001600160a01b0382161561009f565b506001600160a01b03861615610098565b506001600160a01b03851615610091565b506001600160a01b0384161561008a565b506001600160a01b03831615610083565b5f80fd5b601f909101601f19168101906001600160401b038211908210176102f957604052565b634e487b7160e01b5f52604160045260245ffd5b51906001600160a01b03821682036102d25756fe60806040526004361015610011575f80fd5b5f3560e01c80630562f3e7146103e5578063058c71e6146103e05780630895a8601461034a5780630c3c5d00146103db5780630e1398b9146103d65780630e832513146102d25780631d4d9cf7146103d15780632590b4f6146103cc57806331a04f1d146103c75780633644e515146103c25780633650ec85146103bd57806337f71dfd146103b857806339a8886d146103b35780633cc29bb3146103ae5780633d8807f8146103a9578063409826d3146103a457806349c20cf21461039f5780634a058fce1461039a5780634f11ef12146103955780634fb2e45d1461039057806356bceaf61461038b5780636eb30f651461038657806371326e55146103815780637264becd1461037c5780637b422f3914610377578063803efb8a1461037257806389a30271146102dc5780638d0c57861461036d5780638da5cb5b1461036857806393f1da4f14610363578063962147351461035e5780639688856f1461035957806396964e0b146103545780639858d8241461034f57806398e1e9441461034a5780639a7eb0f0146103455780639c0efbda146103405780639f3d1a2a1461033b578063a2d5b9c814610336578063a3d64fc314610331578063ac68fc001461032c578063b2592cf714610327578063bdce71aa14610322578063c1cfc34a1461031d578063c374a7a914610318578063c60cfbd214610313578063cc7dcbe81461030e578063ce85715d14610309578063d5f3948814610304578063d68a7bf7146102ff578063dcc96a34146102fa578063dd16dfdc146102f5578063deaefff2146102f0578063e83492d1146102eb578063e8e35113146102e6578063ef759095146102e1578063fa569274146102dc578063fa957c2e146102d7578063fb3894d3146102d2578063fb94bd8a146102cd578063fd722edb146102c85763ff391567146102c3575f80fd5b613105565b6130d6565b612f74565b6109d4565b612ef5565b6119a5565b612e6d565b612df9565b612654565b6125d5565b612556565b6124d7565b612354565b6122fd565b6122d5565b612104565b612083565b611ffa565b611fa2565b611f18565b611e9d565b611e60565b611d43565b611cf1565b611cc2565b611c76565b611bcc565b6108b1565b611b81565b611b02565b611adb565b611a5c565b611a3f565b611a18565b6119e9565b611962565b6118ed565b61159f565b611520565b6114f9565b6114d1565b61145a565b611362565b61133a565b611312565b6112cd565b611243565b6111e4565b61107d565b610f3a565b610f13565b610ed9565b610eaa565b610b4d565b6109fc565b610955565b61092d565b61081d565b610496565b6001600160a01b031690565b6001600160a01b0381160361040757565b5f80fd5b9181601f84011215610407578235916001600160401b038311610407576020838186019501011161040757565b9061010060031983011261040757600435610452816103f6565b9160243561045f816103f6565b9160443591606435916084359160a4359160c4359160e435906001600160401b038211610407576104929160040161040b565b9091565b34610407576104a436610438565b929060018060a09a97989a1b035f541633148015610807575b156107cf576001600160a01b03881615610780576001600160a01b0386169586159081156107fd575b5061078057604051635378561960e01b81526020816004818a5afa9081156106e7575f916107de575b50306001600160a01b03909116036107cf5786156107c057604051638da5cb5b60e01b8152906020826004818a5afa9182156106e7575f9261078f575b506001600160a01b03821615610780576040516327d23eb360e21b8152600481018b905293610100856024818b5afa9485156106e7575f9561074f575b5061059e61059a6080870151151590565b1590565b6107405760e0850180516001600160801b03161561073157610619956105fe60a06105f56105ec8e6105e76105db6020985160018060801b031690565b6001600160801b031690565b61333a565b620f4240900490565b92015160ff1690565b60405163145ab73960e31b815297889283926004840161337a565b0381305afa9485156106e7575f95610700575b507f00000000000000000000000000000000000000000000000000000000000000006001600160a01b031693843b15610407575f9687938c93610686936040519b8c9a8b998a9863cf09299560e01b8a5260048a016133af565b03925af180156106e7576106ec575b50803b15610407576106c1935f809460405196879586948593636465c3a760e01b8552600485016133f4565b03925af180156106e7576106d157005b806106df5f6106e5936131ec565b806108ff565b005b613224565b806106df5f6106fa936131ec565b5f610695565b61072391955060203d60201161072a575b61071b81836131ec565b81019061336b565b935f61062c565b503d610711565b63225426e360e01b5f5260045ffd5b63ab6138a560e01b5f5260045ffd5b6107729195506101003d8111610779575b61076a81836131ec565b81019061326f565b935f610589565b503d610760565b63a9b8048960e01b5f5260045ffd5b6107b291925060203d6020116107b9575b6107aa81836131ec565b81019061320f565b905f61054c565b503d6107a0565b63201165f360e21b5f5260045ffd5b630fc5e1ab60e41b5f5260045ffd5b6107f7915060203d6020116107b9576107aa81836131ec565b5f61050f565b90503b155f6104e6565b50335f52600160205260ff60405f2054166104bd565b346104075760203660031901126104075760043561083a816103f6565b5f546001600160a01b031633036107cf576001600160a01b0316801561078057600654816001600160a01b0382167f68c2faaf0ebfd42d2518b6fbf5130982e7ad496f58df6975a54886e81d5a084b5f80a36001600160a01b03191617600655005b9060018060a01b03165f5260205260405f2090565b34610407576040366003190112610407576004356108ce816103f6565b6024359060018060a01b03165f52600e60205260405f20905f52602052602060ff60405f2054166040519015158152f35b5f91031261040757565b6001600160a01b0316600452602490565b6001600160a01b03909116815260200190565b34610407575f366003190112610407576002546040516001600160a01b039091168152602090f35b3461040757602036600319011261040757600435610972816103f6565b5f546001600160a01b031633036107cf576001600160a01b0316801561078057600854816001600160a01b0382167feb7103e1b7fa12591abe0ba2fb5df1720e3786a45a1684846043c1b7dcfcb9c75f80a36001600160a01b03191617600855005b34610407575f36600319011261040757600b546040516001600160a01b039091168152602090f35b3461040757602036600319011261040757600435610a19816103f6565b60018060a01b0316610a37610a32610a326008546103ea565b6103ea565b60405163e5a6b10f60e01b815290602082600481865afa9182156106e7575f92610b1a575b5060208293610a6c60049461343e565b604051634dda221560e01b815293849182905afa9081156106e757610ab2936020935f93610afb575b5060405180958194829363577e933760e11b84526004840161337a565b03915afa80156106e757610ad8915f91610adc575b506040519081529081906020820190565b0390f35b610af5915060203d60201161072a5761071b81836131ec565b5f610ac7565b610b13919350843d861161072a5761071b81836131ec565b915f610a95565b60049250610b3f602091823d8411610b46575b610b3781836131ec565b810190613412565b9250610a5c565b503d610b2d565b346104075760a036600319011261040757600435610b6a816103f6565b602435610b76816103f6565b60443591606435906084356001600160401b03811161040757610b9d90369060040161040b565b5f546001600160a01b031633148015610e94575b156107cf576001600160a01b0383169586158015610e8b575b610780576001600160a01b0386161561078057804211610e7757604051635378561960e01b81526020816004818b5afa9081156106e7575f91610e58575b50306001600160a01b03909116036107cf57604080515f5160206154f75f395f51905f52602082019081526001600160a01b03808816938301939093529188166060820152608081019290925260a08201869052610cd093610cca929091610cc291610c818160c081015b03601f1981018352826131ec565b5190207f00000000000000000000000000000000000000000000000000000000000000006042916040519161190160f01b8352600283015260228201522090565b923691613477565b906141b9565b916040516249dd0960e81b815260208180610cee886004830161091a565b0381895afa9081156106e7575f91610e39575b506001600160a01b03168015610e2a576001600160a01b03841603610e2a576040516249dd0960e81b815260208180610d3d876004830161091a565b0381895afa9081156106e7575f91610e0b575b506001600160a01b0316610df557610d77610c7391604051928391876020840196876134ad565b519020610d96610d8f825f52601460205260405f2090565b5460ff1690565b610de657610daf610dbc915f52601460205260405f2090565b805460ff19166001179055565b823b15610407576106c1925f9283604051809681958294632aff2a5960e01b8452600484016134cf565b637b7fc77160e01b5f5260045ffd5b636a57bcd560e11b5f52610e0883610909565b5ffd5b610e24915060203d6020116107b9576107aa81836131ec565b5f610d50565b6363bc5ecb60e11b5f5260045ffd5b610e52915060203d6020116107b9576107aa81836131ec565b5f610d01565b610e71915060203d6020116107b9576107aa81836131ec565b5f610c08565b631f1183ed60e31b5f52610e08904261344d565b50833b15610bca565b50335f52600160205260ff60405f205416610bb1565b34610407576020366003190112610407576004355f526012602052602060ff60405f2054166040519015158152f35b34610407575f3660031901126104075760206040517f00000000000000000000000000000000000000000000000000000000000000008152f35b34610407575f3660031901126104075760206040515f5160206154f75f395f51905f528152f35b3461040757608036600319011261040757600435610f57816103f6565b602435604435916064359060018060a01b035f54163314801561101e575b156107cf576001600160a01b038116908115908115611014575b5061078057604051635378561960e01b8152602081600481855afa9081156106e7575f91610ff5575b50306001600160a01b03909116036107cf57803b15610407576106c1935f809460405196879586948593638abc9b2560e01b8552600485016134e9565b61100e915060203d6020116107b9576107aa81836131ec565b5f610fb8565b90503b155f610f8f565b50335f52600160205260ff60405f205416610f75565b9060606003198301126104075760043561104d816103f6565b91602435906001600160401b0382116104075761106c9160040161040b565b909160443561107a816103f6565b90565b346104075761108b36611034565b5f549293926001600160a01b0316331480156111ce575b156107cf576001600160a01b038116938415610780576001600160a01b0384169384159081156111c4575b5061078057604051635378561960e01b8152602081600481885afa9081156106e7575f916111a5575b50306001600160a01b03909116036107cf57821561119657833b15610407575f6111369260405180948192637cc37b3b60e11b83528786600485016134ff565b038183885af19081156106e7575f5160206155d75f395f51905f529361117d9361116793611182575b503691613477565b8051602091820120604051908152918291820190565b0390a3005b806106df5f611190936131ec565b5f61115f565b63411581df60e11b5f5260045ffd5b6111be915060203d6020116107b9576107aa81836131ec565b5f6110f6565b90503b155f6110cd565b50335f52600160205260ff60405f2054166110a2565b34610407575f366003190112610407576020600c54604051908152f35b60206040818301928281528451809452019201905f5b8181106112245750505090565b82516001600160a01b0316845260209384019390920191600101611217565b3461040757602036600319011261040757600435611260816103f6565b60018060a01b03165f52600f60205260405f206040519081602082549182815201915f5260205f20905f5b8181106112ae57610ad8856112a2818703826131ec565b60405191829182611201565b82546001600160a01b031684526020909301926001928301920161128b565b34610407576020366003190112610407576004356112ea816103f6565b60018060a01b03165f526011602052602060018060a01b0360405f2054161515604051908152f35b34610407575f366003190112610407576006546040516001600160a01b039091168152602090f35b34610407575f366003190112610407576005546040516001600160a01b039091168152602090f35b346104075761137036611034565b5f549293926001600160a01b031633148015611444575b156107cf576001600160a01b038116938415610780576001600160a01b03841693841590811561143a575b5061078057604051635378561960e01b8152602081600481885afa9081156106e7575f9161141b575b50306001600160a01b03909116036107cf57821561119657833b15610407575f61113692604051809481926371b8982f60e01b83528786600485016134ff565b611434915060203d6020116107b9576107aa81836131ec565b5f6113db565b90503b155f6113b2565b50335f52600160205260ff60405f205416611387565b3461040757602036600319011261040757600435611477816103f6565b5f546001600160a01b03811691338390036107cf576001600160a01b03169182156107805782907fb532073b38c83145e3e5135377a08bf9aab55bc0fd7c1179cd4fb995d2a5159c5f80a36001600160a01b031916175f55005b34610407575f366003190112610407576004546040516001600160a01b039091168152602090f35b34610407575f3660031901126104075760206040515f5160206155775f395f51905f528152f35b346104075760203660031901126104075760043561153d816103f6565b5f546001600160a01b031633036107cf576001600160a01b0316801561078057600454816001600160a01b0382167f604f85697fb330a944d96c7ccaa0cc8e84f90ae4e43e07c4fb7a17614c1aa2755f80a36001600160a01b03191617600455005b34610407576115ad36610438565b9795929190969360018060a01b035f5416331480156118d7575b156107cf576001600160a01b038516978815610780576001600160a01b0388169788159081156118cd575b5061078057604051635378561960e01b81526020816004818c5afa9081156106e7575f916118ae575b50306001600160a01b03909116036107cf5786156107c057604051638da5cb5b60e01b8152936020856004818c5afa9485156106e7575f9561188d575b506001600160a01b0385169a8b1561078057604051633c703d4560e01b8152600481018890526020816024818e5afa9081156106e7575f9161186e575b508015610731576116a6908a61333a565b60405163e5a6b10f60e01b81529096906020816004818f5afa9788156106e7576116f9986020925f91611851575b506116de8161343e565b60405163145ab73960e31b8152998a9283926004840161337a565b0381305afa9687156106e7575f97611830575b5086156107c0577f00000000000000000000000000000000000000000000000000000000000000006001600160a01b031691823b15610407578961176e5f969287938a8c986040519b8c9a8b998a9863cf09299560e01b8a5260048a016133af565b03925af180156106e75761181c575b50853b15610407575f8386956117a760405198899384936311d794fb60e21b8552600485016133f4565b0381838a5af19182156106e7577f46153b28e9a3688aede6f2c4c60c8d2cd1e2181b36e413211bf9134a7b1959969561180393611808575b50604051948594859094939260609260808301968352602083015260408201520152565b0390a4005b806106df5f611816936131ec565b5f6117df565b806106df5f61182a936131ec565b5f61177d565b61184a91975060203d60201161072a5761071b81836131ec565b955f61170c565b6118689150833d8511610b4657610b3781836131ec565b5f6116d4565b611887915060203d60201161072a5761071b81836131ec565b5f611695565b6118a791955060203d6020116107b9576107aa81836131ec565b935f611658565b6118c7915060203d6020116107b9576107aa81836131ec565b5f61161b565b90503b155f6115f2565b50335f52600160205260ff60405f2054166115c7565b346104075760603660031901126104075760043561190a816103f6565b6024356001600160401b03811161040757366023820112156104075760048101356001600160401b038111610407573660248260051b84010111610407576106e59260246044359361195b856103f6565b0190613528565b346104075760203660031901126104075760043561197f816103f6565b60018060a01b03165f526011602052602060018060a01b0360405f205416604051908152f35b34610407575f366003190112610407576040517f00000000000000000000000000000000000000000000000000000000000000006001600160a01b03168152602090f35b34610407576020366003190112610407576004355f526014602052602060ff60405f2054166040519015158152f35b34610407575f366003190112610407575f546040516001600160a01b039091168152602090f35b34610407575f366003190112610407576020600d54604051908152f35b3461040757602036600319011261040757600435611a79816103f6565b5f546001600160a01b031633036107cf576001600160a01b0316801561078057600954816001600160a01b0382167fb425bf30023a30c35ee17f3f416360da7ea96a46b589cfa6a14f39dc98a52bca5f80a36001600160a01b03191617600955005b34610407575f3660031901126104075760206040515f5160206155575f395f51905f528152f35b3461040757602036600319011261040757600435611b1f816103f6565b5f546001600160a01b031633036107cf576001600160a01b0316801561078057600754816001600160a01b0382167faef56aa2dfc2ea6be1a594657b24cdaed49e90855b6510f3880a4fafffd825f15f80a36001600160a01b03191617600755005b3461040757602036600319011261040757600435611b9e816103f6565b60018060a01b03165f526001602052602060ff60405f2054166040519015158152f35b60ff81160361040757565b346104075760a036600319011261040757600435611be9816103f6565b60243590611bf682611bc1565b6044356064356001600160401b03811161040757611c1890369060040161040b565b60843593916001600160401b0385116104075736602386011215610407576004850135936001600160401b03851161040757366024606087028801011161040757610ad8966024611c6a970194613776565b6040519182918261091a565b34610407575f366003190112610407576007546040516001600160a01b039091168152602090f35b805180835260209291819084018484015e5f828201840152601f01601f1916010190565b34610407575f36600319011261040757610ad8611cdd6138e8565b604051918291602083526020830190611c9e565b3461040757604036600319011261040757610ab26020600435611d1381611bc1565b60085460405163145ab73960e31b81529384926001600160a01b039092169183918291602435906004840161337a565b3461040757611d5136611034565b5f549293926001600160a01b031633148015611e25575b156107cf576001600160a01b038116938415610780576001600160a01b038416938415908115611e1b575b5061078057604051635378561960e01b8152602081600481885afa9081156106e7575f91611dfc575b50306001600160a01b03909116036107cf57821561119657833b15610407575f6111369260405180948192631dd9be9160e21b83528786600485016134ff565b611e15915060203d6020116107b9576107aa81836131ec565b5f611dbc565b90503b155f611d93565b50335f52600160205260ff60405f205416611d68565b604090600319011261040757600435611e53816103f6565b9060243561107a816103f6565b3461040757602060ff611e91611e7536611e3b565b6001600160a01b039091165f908152601085526040902061089c565b54166040519015158152f35b346104075761010036600319011261040757600435611ebb816103f6565b602435611ec7816103f6565b6064359160c435916044359060a4356084356001600160401b03861161040757610ad896611efc611f0897369060040161040b565b95909460e4359761398a565b6040519081529081906020820190565b34610407575f366003190112610407576003546040516001600160a01b039091168152602090f35b9060a060031983011261040757600435611f59816103f6565b916024356001600160401b0381116104075781611f789160040161040b565b909290916044359160643591608435906001600160401b038211610407576104929160040161040b565b3461040757611fb036611f40565b9495909360018060a09594951b035f541633148015611fe4575b156107cf576106e596611fde913691613477565b90614cc8565b50335f52600160205260ff60405f205416611fca565b3461040757602036600319011261040757600435612017816103f6565b6001600160a01b03165f818152600f6020526040902054908161204457505060405180610ad85f8261091a565b5f52600f60205260405f205f19820191821161207e57610ad89161206791613c8c565b905460039190911b1c6001600160a01b0316611c6a565b61330c565b3461040757610120366003190112610407576004356120a1816103f6565b602435906120ae826103f6565b60443590606435926120bf60843590565b9360c4359360a4356001600160401b03861161040757610ad8966120ea611f0897369060040161040b565b94909360e4359661010435986120ff8a6103f6565b613ca1565b346104075761211236611e3b565b5f546001600160a01b0316331480156122bf575b156107cf576001600160a01b03821690811580156122ae575b61078057612169610d8f826121648660018060a01b03165f52601060205260405f2090565b61089c565b61229f57604051635378561960e01b81526001600160a01b0382169390602081600481885afa9081156106e7575f91612280575b50306001600160a01b039091160361225257604051638da5cb5b60e01b8152602081600481885afa80156106e75784915f91612261575b506001600160a01b0316036122525761220d826121f461222c94846152c0565b6001600160a01b03165f90815260116020526040902090565b80546001600160a01b0319166001600160a01b03909216919091179055565b7fc063fc300750e8c5649c6b3779f6c4b05e7b38b170ee5c4a4b222ede9a2880835f80a3005b633a307eb360e01b5f5260045ffd5b61227a915060203d6020116107b9576107aa81836131ec565b5f6121d4565b612299915060203d6020116107b9576107aa81836131ec565b5f61219d565b63d62a8c9560e01b5f5260045ffd5b506001600160a01b0381161561213f565b50335f52600160205260ff60405f205416612126565b34610407575f366003190112610407576008546040516001600160a01b039091168152602090f35b34610407575f366003190112610407576009546040516001600160a01b039091168152602090f35b8015150361040757565b604090600319011261040757600435612347816103f6565b9060243561107a81612325565b34610407576123623661232f565b5f546001600160a01b0316331480156124c1575b156107cf576001600160a01b03821691821580156124b8575b61078057604051635378561960e01b8152602081600481875afa9081156106e7575f91612499575b50306001600160a01b03909116036107cf57610ad8927f4c1cbefbba6c448ac41213acf5c22774d44a2ba3b12119ff1f747a82cf887d8e61244f61243094805f146124625761243d610daf600d5461241661241182613f7d565b600d55565b8098819860018060a01b03165f52600e60205260405f2090565b905f5260205260405f2090565b60405190151581529081906020820190565b0390a36040519081529081906020820190565b61243d610daf600c5461247c61247782613f7d565b600c55565b809881986001600160a01b03165f908152600e6020526040902090565b6124b2915060203d6020116107b9576107aa81836131ec565b5f6123b7565b50803b1561238f565b50335f52600160205260ff60405f205416612376565b34610407576020366003190112610407576004356124f4816103f6565b5f546001600160a01b031633036107cf576001600160a01b0316801561078057600354816001600160a01b0382167f5e8861c011b27f9301ab1873c22d74fa961d4262fad8e19488f049cd48d3aaba5f80a36001600160a01b03191617600355005b3461040757602036600319011261040757600435612573816103f6565b5f546001600160a01b031633036107cf576001600160a01b0316801561078057600554816001600160a01b0382167fd6dc2c603206d37bd08c10999d5659ccd709ea565580b7d63cda117c96a90c2b5f80a36001600160a01b03191617600555005b34610407576020366003190112610407576004356125f2816103f6565b5f546001600160a01b031633036107cf576001600160a01b0316801561078057600b54816001600160a01b0382167fb30a75ccd0bb0742ffc18720f7e4013b83d98b9d9236dc4532955541a1df3a655f80a36001600160a01b03191617600b55005b346104075761266236611f40565b9094919560018060a09695961b035f541633148015612de3575b156107cf576001600160a01b0381169586158015612dda575b610780576004851061119657854211612dc657604051635378561960e01b81526020816004818b5afa9081156106e7575f91612da7575b50306001600160a01b03909116036107cf576126fb6126eb8686613f8b565b6001600160e01b03199291613fb6565b169263564da75760e01b841496871580612d96575b80612d85575b80612d74575b80612d63575b80612d52575b80612d41575b612d325761279b92610cc2610cca928c610c8161274c368d8d613477565b6020815191012092610c7360405193849260208401968d889094939260809260a08301965f5160206155575f395f51905f52845260018060a01b03166020840152604083015260608201520152565b94604051630935e01b60e21b8152602081806127ba8a6004830161091a565b03818b5afa9081156106e7575f91612d03575b5015610e2a5760405160208101906127eb81610c738c8b88876134ad565b519020612803610d8f825f52601360205260405f2090565b610de657610daf61281c915f52601360205260405f2090565b612827368686613477565b90630b18ae1d60e11b84036129755750505f8091610c73612885886128586128508a808b613f99565b81019061410d565b6040516303bbece160e21b602082015296879590949093919291906001600160a01b031660248701614156565b905b82602083519301915af161289961418a565b901561295957506343159ce560e01b146128d9575b50506040519283526001600160a01b0316915f5160206155175f395f51905f5290806020810161117d565b816128ef926128e792613f99565b810190613fec565b919050823b15610407575f6129199260405180948192631018c34b60e01b8352856004840161400b565b038183875af19081156106e7575f5160206155175f395f51905f529261117d92612945575b50916128ae565b806106df5f612953936131ec565b5f61293e565b8051908161297057633655084960e01b5f5260045ffd5b602001fd5b63d8bdbdf560e01b84036129d85750505f8091610c736129d1886129a561299d8a808b613f99565b81019061407b565b60405163037fe8db60e51b6020820152978896909591949093916001600160a01b0316602488016140c9565b905b612887565b63738abdef60e01b8403612afd5750506129f66128e7858086613f99565b6040516249dd0960e81b815290916001600160a01b03169060208180612a1f856004830161091a565b03818c5afa9081156106e7575f91612ade575b506001600160a01b03888116911603610e2a576040516249dd0960e81b815260208180612a628b6004830161091a565b03818c5afa9081156106e7575f91612abf575b506001600160a01b0316612aac57915f92916129d18493610c738a604051948593636f5d64cf60e11b602086015260248501613f5a565b636a57bcd560e11b5f52610e0887610909565b612ad8915060203d6020116107b9576107aa81836131ec565b5f612a75565b612af7915060203d6020116107b9576107aa81836131ec565b5f612a32565b632aff2a5960e01b8403612c1e575050612b23612b1b858086613f99565b81019061403b565b6001600160a01b039081169181169087168203610e2a576040516249dd0960e81b815260208180612b57856004830161091a565b03818c5afa80156106e75783915f91612bff575b506001600160a01b031603610e2a576040516249dd0960e81b815260208180612b978b6004830161091a565b03818c5afa9081156106e7575f91612be0575b506001600160a01b0316612aac57915f92916129d18493610c73604051938492632aff2a5960e01b6020850152602484016134cf565b612bf9915060203d6020116107b9576107aa81836131ec565b5f612baa565b612c18915060203d6020116107b9576107aa81836131ec565b5f612b6b565b5f92839291638a1b32bb60e01b8603612c7057509050866129d1612c51610a32612c498a808b613f99565b810190614026565b610c736040519384926302841ba760e21b6020850152602484016134cf565b6343159ce560e01b86148414612cbe575090506129d1612c946128e7888089613f99565b6040516343159ce560e01b602082015292918391610c73916001600160a01b03166024840161400b565b156129d35790506129d1612cd66128e7888089613f99565b604051632476bf5f60e11b602082015292918391610c73918c91906001600160a01b031660248501613f5a565b612d25915060203d602011612d2b575b612d1d81836131ec565b810190613f45565b5f6127cd565b503d612d13565b63fb713d2b60e01b5f5260045ffd5b50638a1b32bb60e01b85141561272e565b50632aff2a5960e01b851415612728565b5063738abdef60e01b851415612722565b5063d8bdbdf560e01b85141561271c565b50630b18ae1d60e11b851415612716565b506343159ce560e01b851415612710565b612dc0915060203d6020116107b9576107aa81836131ec565b5f6126cc565b631f1183ed60e31b5f52610e08864261344d565b50813b15612695565b50335f52600160205260ff60405f20541661267c565b3461040757612e073661232f565b5f549091906001600160a01b031633036107cf5760207f70f3008dcbe7ca1157c0809d9b79a5751736957d08f23274121a0903a38cfa999160018060a01b031692835f526001825260405f209015159060ff1981541660ff8316179055604051908152a2005b3461040757608036600319011261040757600435612e8a816103f6565b60243590612e9782611bc1565b6044356064356001600160401b03811161040757612eb990369060040161040b565b9160018060a01b035f541633148015612edf575b156107cf57610ad894611c6a946141e0565b50335f52600160205260ff60405f205416612ecd565b3461040757602036600319011261040757600435612f12816103f6565b5f546001600160a01b031633036107cf576001600160a01b0316801561078057600254816001600160a01b0382167f2744eeda02c397774dc1a9c7576a416e8d6ee463c636b09a5c558cd3263843ea5f80a36001600160a01b03191617600255005b34610407576020366003190112610407576004356001600160401b03811161040757612fa490369060040161040b565b5f549091906001600160a01b031633036107cf57612fc3913691613477565b80511561078057612fd26138e8565b815191906001600160401b0383116130d157612ff883612ff3600a546138b0565b61533a565b6020601f841160011461305657835f5160206155975f395f51905f5294613033925f9161304b575b508160011b915f199060031b1c19161790565b600a555b61304660405192839283615399565b0390a1005b90508401515f613020565b600a5f52601f198416905f5160206155375f395f51905f52915f5b8181106130b957509185915f5160206155975f395f51905f5296600194106130a1575b5050811b01600a55613037565b8501515f1960f88460031b161c191690555f80613094565b91926020600181928689015181550194019201613071565b6131bc565b34610407576020366003190112610407576004355f526013602052602060ff60405f2054166040519015158152f35b346104075760e036600319011261040757600435613122816103f6565b6024359060643560a43560843560443560c4356001600160401b0381116104075761315190369060040161040b565b95909460018060a01b035f5416331480156131a6575b156107cf576106e5976131936131a192604051958693638abc9b2560e01b6020860152602485016134e9565b03601f1981018452836131ec565b614cc8565b50335f52600160205260ff60405f205416613167565b634e487b7160e01b5f52604160045260245ffd5b61010081019081106001600160401b038211176130d157604052565b601f909101601f19168101906001600160401b038211908210176130d157604052565b90816020910312610407575161107a816103f6565b6040513d5f823e3d90fd5b51906001600160401b038216820361040757565b51906001600160801b038216820361040757565b519061326282612325565b565b519061326282611bc1565b90816101009103126104075761330460e06040519261328d846131d0565b6132968161322f565b84526132a46020820161322f565b60208501526132b560408201613243565b60408501526132c660608201613243565b60608501526132d760808201613257565b60808501526132e860a08201613264565b60a08501526132f960c08201613264565b60c085015201613243565b60e082015290565b634e487b7160e01b5f52601160045260245ffd5b90620f4240820291808304620f4240149015171561207e57565b8181029291811591840414171561207e57565b8115613357570490565b634e487b7160e01b5f52601260045260245ffd5b90816020910312610407575190565b6020909392919360ff60408201951681520152565b908060209392818452848401375f828201840152601f01601f1916010190565b93909260e0959261107a99979460018060a01b0316865260018060a01b0316602086015260408501526060840152608083015260a08201528160c0820152019161338f565b604091949392606082019560018060a01b0316825260208201520152565b90816020910312610407575160098110156104075790565b634e487b7160e01b5f52602160045260245ffd5b6009111561344857565b61342a565b6004525f602452604452606490565b6001600160401b0381116130d157601f01601f191660200190565b9291926134838261345c565b9161349160405193846131ec565b829481845281830111610407578281602093845f960137010152565b6001600160a01b03918216815291166020820152604081019190915260600190565b6001600160a01b0391821681529116602082015260400190565b6040919493926060820195825260208201520152565b916020916135189195949560408552604085019161338f565b6001600160a01b03909416910152565b90929160018060a01b035f541633148015613665575b156107cf576001600160a01b038316928315610780576001600160a01b03831692831590811561365b575b5061078057604051635378561960e01b8152602081600481875afa9081156106e7575f9161363c575b50306001600160a01b03909116036107cf57811561119657823b15610407575f6135d2916040518093819263523c822360e11b8352868a6004850161367b565b038183875af180156106e757613628575b505f5b8181106135f4575050505050565b8084845f5160206155d75f395f51905f5261361f611167613618600197898d613730565b3691613477565b0390a3016135e6565b806106df5f613636936131ec565b5f6135e3565b613655915060203d6020116107b9576107aa81836131ec565b5f613592565b90503b155f613569565b50335f52600160205260ff60405f20541661353e565b93929190816040860160408752526060850160608360051b87010192825f90601e19813603015b8383106136c5575050505050509060206132629294019060018060a01b03169052565b909192939495605f198a8203018652863582811215610407578301602081019190356001600160401b0381116104075780360383136104075761370e602092839260019561338f565b9801960194930191906136a2565b634e487b7160e01b5f52603260045260245ffd5b91908110156137715760051b81013590601e19813603018212156104075701803591906001600160401b038311610407576020018236038113610407579190565b61371c565b9392919095949560018060a01b035f541633148015613848575b156107cf5761379e946141e0565b916001600160a01b038316915f5b8181106137ba575050505090565b6137cd6137c882848661385e565b61386e565b908151156138395781516040602084015193015192863b15610407575f916138096040519586938493638abc9b2560e01b8552600485016134e9565b038183895af19182156106e757600192613825575b50016137ac565b806106df5f613833936131ec565b5f61381e565b639033099360e01b5f5260045ffd5b50335f52600160205260ff60405f205416613790565b9190811015613771576060020190565b606081360312610407576040519060608201906001600160401b038211838310176130d157604091825280358352602081013560208401520135604082015290565b90600182811c921680156138de575b60208310146138ca57565b634e487b7160e01b5f52602260045260245ffd5b91607f16916138bf565b604051905f82600a54916138fb836138b0565b808352926001811690811561396b575060011461391f575b613262925003836131ec565b50600a5f90815290915f5160206155375f395f51905f525b81831061394f57505090602061326292820101613913565b6020919350806001915483858901015201910190918492613937565b6020925061326294915060ff191682840152151560051b820101613913565b969594939260018060a01b035f541633148015613c67575b156107cf575f546001600160a01b031633148015613c51575b156107cf576001600160a01b038216968715610780576001600160a01b0389169687158015613c48575b61078057604051635378561960e01b81526020816004818c5afa9081156106e7575f91613c29575b50306001600160a01b03909116036107cf5784156107c057604051638da5cb5b60e01b8152956020876004818c5afa9687156106e7575f97613c08575b506001600160a01b0387169a8b15610780576020613a7c9160405180938192631d4d9cf760e01b83526004830161091a565b0381305afa9081156106e7575f91613be9575b508015613bda57613aa890613aa388613320565b61334d565b9b8c15613bcb578c10613bbc577f00000000000000000000000000000000000000000000000000000000000000006001600160a01b031690813b15610407575f86613b1082968a968d8d966040519b8c9a8b998a9863cf09299560e01b8a5260048a016133af565b03925af180156106e757613ba8575b50843b1561040757875f91613b486040519586938493630ec3786b60e01b855260048501613f5a565b038183885af180156106e7577f246821f0caf9ce5a9ae8fb3bd7097a6d47299d00676d0ec0b40b429694a8684d938893613b8e92613b94575b50604051938493846134e9565b0390a490565b806106df5f613ba2936131ec565b5f613b81565b806106df5f613bb6936131ec565b5f613b1f565b63c02e577360e01b5f5260045ffd5b6313f3da3f60e21b5f5260045ffd5b6376024b7160e01b5f5260045ffd5b613c02915060203d60201161072a5761071b81836131ec565b5f613a8f565b613c2291975060203d6020116107b9576107aa81836131ec565b955f613a4a565b613c42915060203d6020116107b9576107aa81836131ec565b5f613a0d565b50893b156139e5565b50335f52600160205260ff60405f2054166139bb565b50335f52600160205260ff60405f2054166139a2565b60031981019190821161207e57565b8054821015613771575f5260205f2001905f90565b97989390919260018060a01b035f541633148015613f2f575b156107cf576001600160a01b038316978815610780576001600160a01b038a169788158015613f26575b61078057604051635378561960e01b81526020816004818d5afa9081156106e7575f91613f07575b50306001600160a01b03909116036107cf5785156107c057604051638da5cb5b60e01b8152936020856004818d5afa9485156106e7575f95613ee6575b506001600160a01b0385169b8c15610780576020613d7b9160405180938192631d4d9cf760e01b83526004830161091a565b0381305afa9081156106e7575f91613ec7575b508015613bda57613da290613aa389613320565b9c8d15613bcb578d10613bbc577f00000000000000000000000000000000000000000000000000000000000000006001600160a01b031690813b15610407575f87613e0a82968b968e8b966040519b8c9a8b998a9863cf09299560e01b8a5260048a016133af565b03925af180156106e757613eb3575b50926001600160a01b038116613e525750843b1561040757875f91613b486040519586938493630ec3786b60e01b855260048501613f5a565b604051630935e01b60e21b81529193509060208180613e74856004830161091a565b0381895afa9081156106e7575f91613e94575b5015610e2a57915f613b1f565b613ead915060203d602011612d2b57612d1d81836131ec565b5f613e87565b806106df5f613ec1936131ec565b5f613e19565b613ee0915060203d60201161072a5761071b81836131ec565b5f613d8e565b613f0091955060203d6020116107b9576107aa81836131ec565b935f613d49565b613f20915060203d6020116107b9576107aa81836131ec565b5f613d0c565b508a3b15613ce4565b50335f52600160205260ff60405f205416613cba565b90816020910312610407575161107a81612325565b6001600160a01b0391821681526020810192909252909116604082015260600190565b5f19811461207e5760010190565b906004116104075790600490565b909291928360041161040757831161040757600401916003190190565b356001600160e01b0319811692919060048210613fd1575050565b6001600160e01b031960049290920360031b82901b16169150565b91908260409103126104075760208235614005816103f6565b92013590565b6001600160a01b039091168152602081019190915260400190565b90816020910312610407573561107a816103f6565b91908260409103126104075760208235614054816103f6565b92013561107a816103f6565b9080601f830112156104075781602061107a93359101613477565b919060a083820312610407578235614092816103f6565b9260208101356140a181612325565b9260408201359260608301356001600160401b03811161040757608091614005918501614060565b926140fc9260a0959298979698600180881b0316855215156020850152604084015260c0606084015260c0830190611c9e565b94600180841b031660808201520152565b90608082820312610407578135614123816103f6565b92602083013561413281612325565b9260408101359260608201356001600160401b0381116104075761107a9201614060565b9390926135189260809497969760018060a01b0316865215156020860152604085015260a0606085015260a0840190611c9e565b3d156141b4573d9061419b8261345c565b916141a960405193846131ec565b82523d5f602084013e565b606090565b61107a916141c6916153be565b90929192615402565b91602061107a93818152019161338f565b909493926001600160a01b038216929083156107805784156145005761423194602091614214610a32610a326009546103ea565b905f6040518099819582946203ba1b60e51b8452600484016141cf565b03925af19384156106e7575f946144df575b5092946001600160a01b038616939086851580156144d6575b6144a957604051635378561960e01b81526020816004818a5afa9081156106e7575f9161448a575b50306001600160a01b039091160361445c57604051638da5cb5b60e01b81526020816004818a5afa80156106e75786915f9161443d575b506001600160a01b03160361440f5760405163e5a6b10f60e01b81526020816004818a5afa9081156106e7575f916143f0575b506142f88161343e565b60ff8084169116036143c257604051634dda221560e01b81526020816004818a5afa80156106e75784915f916143a3575b5003614376578361220d826121f4614362947fb6ce9f4a6c24844ee121b78004db1a1773ef64e1d804b875dd31413a87560cc0986152c0565b6143716040519283928361337a565b0390a3565b604051600481525f5160206155b75f395f51905f5290602090a16355c7c7ff60e01b5f526004805260245ffd5b6143bc915060203d60201161072a5761071b81836131ec565b5f614329565b604051600381525f5160206155b75f395f51905f5290602090a16355c7c7ff60e01b5f52600360045260245ffd5b614409915060203d602011610b4657610b3781836131ec565b5f6142ee565b604051600281525f5160206155b75f395f51905f5290602090a16355c7c7ff60e01b5f52600260045260245ffd5b614456915060203d6020116107b9576107aa81836131ec565b5f6142bb565b604051600181525f5160206155b75f395f51905f5290602090a16355c7c7ff60e01b5f52600160045260245ffd5b6144a3915060203d6020116107b9576107aa81836131ec565b5f614284565b6040515f81525f5160206155b75f395f51905f5290602090a16355c7c7ff60e01b5f90815260045260245ffd5b50803b1561425c565b6144f991945060203d6020116107b9576107aa81836131ec565b925f614243565b633448691b60e11b5f5260045ffd5b906145198261345c565b61452660405191826131ec565b8281528092614537601f199161345c565b0190602036910137565b906004820180921161207e57565b908151811015613771570160200190565b6001600160401b0381116130d15760051b60200190565b9080601f8301121561040757815161458e81614560565b9261459c60405194856131ec565b81845260208085019260051b82010192831161040757602001905b8282106145c45750505090565b81518152602091820191016145b7565b9080601f830112156104075781516145eb81614560565b926145f960405194856131ec565b81845260208085019260051b820101918383116104075760208201905b83821061462557505050505090565b81516001600160401b0381116104075760209161464787848094880101614577565b815201910190614616565b9080601f830112156104075781519061466a82614560565b9261467860405194856131ec565b82845260208085019360051b82010191821161040757602001915b8183106146a05750505090565b825163ffffffff8116810361040757815260209283019201614693565b5190613262826103f6565b60e081830312610407578051926146e16020830161322f565b926146ee6040840161322f565b60608401519093906001600160401b03811161040757826147109183016145d4565b60808201519093906001600160401b03811161040757836147329184016145d4565b60a08301519093906001600160401b0381116104075760c091614756918501614652565b92015161107a816103f6565b90602080835192838152019201905f5b81811061477f5750505090565b8251845260209384019390920191600101614772565b9080602083519182815201916020808360051b8301019401925f915b8383106147c057505050505090565b90919293946020806147de600193601f198682030187528951614762565b970193019301919392906147b1565b90602080835192838152019201905f5b81811061480a5750505090565b825163ffffffff168452602093840193909201916001016147fd565b9081526001600160401b0391821660208201529116604082015261010060608201819052949695909460e094919361488593614877926148699190890190614795565b908782036080890152614795565b9085820360a08701526147ed565b6001600160a01b0395861660c08501529416910152565b9160c083830312610407578251926148b66020820161322f565b926148c36040830161322f565b60608301519093906001600160401b03811161040757826148e59185016145d4565b60808401519093906001600160401b03811161040757836149079183016145d4565b60a08201519093906001600160401b0381116104075761107a9201614652565b9081526001600160401b0391821660208201529116604082015260e060608201819052949594909360c0936135189391926149769261496891880190614795565b908682036080880152614795565b9084820360a08601526147ed565b9190610100838203126104075782516001600160401b03811161040757816149ad918501614577565b926020810151926040820151926149c66060840161322f565b926149d36080820161322f565b60a08201519093906001600160401b03811161040757836149f5918401614577565b60c083015190936001600160401b03821161040757614a1b60e09161107a938601614577565b93016146bd565b9799989590946101009794614a7894614a48614a86986101208d526101208d0190614762565b60208c019590955260408b01526001600160401b0390811660608b015216608089015287820360a0890152614762565b9085820360c0870152614762565b6001600160a01b0395861660e08501529416910152565b9060e0828203126104075781516001600160401b0381116104075781614ac4918401614577565b92602083015192604081015192614add6060830161322f565b92614aea6080840161322f565b60a08401519093906001600160401b0381116104075783614b0c918301614577565b60c08201519093906001600160401b0381116104075761107a9201614577565b96939461351895614b8194614b5160e099949c9b9c6101008c526101008c0190614762565b60208b019590955260408a01526001600160401b0390811660608a015216608088015286820360a0880152614762565b9084820360c0860152614762565b91906101008382031261040757825192602081015192604082015192614bb76060840161322f565b92614bc46080820161322f565b60a08201519093906001600160401b0381116104075783614be6918401614577565b60c08301519093906001600160401b0381116104075760e091614756918501614577565b979998959193614a78936101009895614a8697938b5260208b015260408a015260018060401b0316606089015260018060401b0316608088015261012060a0880152610120870190614762565b9060e08282031261040757815192602083015192604081015192614add6060830161322f565b9693614b819360e0979361351897939b9a9b8a5260208a0152604089015260018060401b0316606088015260018060401b0316608087015261010060a0870152610100860190614762565b9194919390926001600160a01b038516929091831580156152b7575b61078057845115611196578642116152a357604051635378561960e01b8152602081600481885afa9081156106e7575f91615284575b50306001600160a01b03909116036107cf57602060049460405195868092638da5cb5b60e01b82525afa9384156106e7575f94615259575b5090610cca614db392610cc28888519a610c8160208b019c8d20610c738a6040519485936020850197889094939260809260a08301965f5160206155775f395f51905f52845260018060a01b03166020840152604083015260608201520152565b916001600160a01b03808216908416036152385750604051614dde81610c736020820194888661400b565b519020614df6610d8f825f52601260205260405f2090565b610de657610daf614e0f915f52601260205260405f2090565b81938251906004821015614e42575b50505050815f92918360208194519301915af1614e3961418a565b90156129595750565b5192959194919260e01c6001600160e01b031916630569881360e41b8103614f0e57505050614e79614e748551613c7d565b61450f565b915f5b8351811015614ebe5780614eab614e9d614e97600194614541565b8961454f565b516001600160f81b03191690565b5f1a614eb7828761454f565b5301614e7c565b50909350610c73614f035f94614ede869560208082518301019101614c57565b936040999697959993919351998a986347b5881360e01b60208b015260248a01614c7d565b905b9181935f614e1e565b63c0ab3ba360e01b8103614fb557505050614f2c614e748551613c7d565b915f5b8351811015614f5d5780614f4a614e9d614e97600194614541565b5f1a614f56828761454f565b5301614f2f565b509093505f92614faf610c73614f7d869560208082518301019101614b8f565b6040516361e3f2a560e11b60208201529a8b99986001600160a01b039092169790969295939493929160248b01614c0a565b90614f05565b631163081760e11b810361504957505050614fd3614e748551613c7d565b915f5b83518110156150045780614ff1614e9d614e97600194614541565b5f1a614ffd828761454f565b5301614fd6565b50909350610c73614faf5f94615024869560208082518301019101614a9d565b936040999697959993919351998a9863b04e83b760e01b60208b015260248a01614b2c565b63294ae08160e11b81036150ea57505050615067614e748551613c7d565b915f5b83518110156150985780615085614e9d614e97600194614541565b5f1a615091828761454f565b530161506a565b509093505f92614faf610c736150b8869560208082518301019101614984565b6040516301247ab760e61b60208201529a8b99986001600160a01b039092169790969295939493929160248b01614a22565b6352b9ec2360e01b810361517e57505050615108614e748551613c7d565b915f5b83518110156151395780615126614e9d614e97600194614541565b5f1a615132828761454f565b530161510b565b50909350610c73614faf5f9461515986956020808251830101910161489c565b926040989596949892919251988997638568e38360e01b60208a015260248901614927565b92959194919263f249d30360e01b1461519e575b5050505f918291614f05565b6151b0919450614e7490959295613c7d565b915f5b83518110156151e157806151ce614e9d614e97600194614541565b5f1a6151da828761454f565b53016151b3565b509093505f92615230610c736152018695602080825183010191016146c8565b6040516393e8419160e01b6020820152998a98976001600160a01b039092169690959294929160248a01614826565b928192615192565b636cf57d9160e11b5f526001600160a01b038084166004521660245260445ffd5b614db39291945061527b610cca9160203d6020116107b9576107aa81836131ec565b94919250614d52565b61529d915060203d6020116107b9576107aa81836131ec565b5f614d1a565b631f1183ed60e31b5f52610e08874261344d565b50853b15614ce4565b6001600160a01b03165f8181526010602052604090206152e190839061089c565b805460ff191660011790555f908152600f602052604090208054600160401b8110156130d15761531691600182018155613c8c565b81546001600160a01b0393841660039290921b91821b9390911b1916919091179055565b90601f8211615347575050565b808211615352575050565b600a5f5260205f206020601f830160051c9210615391575b81601f9101920160051c03905f5b82811061538457505050565b5f82820155600101615378565b5f915061536a565b90916153b061107a93604084526040840190611c9e565b916020818403910152611c9e565b81519190604183036153ee576153e79250602082015190606060408401519301515f1a9061547e565b9192909190565b50505f9160029190565b6004111561344857565b61540b816153f8565b80615414575050565b61541d816153f8565b600181036154345763f645eedf60e01b5f5260045ffd5b61543d816153f8565b60028103615458575063fce698f760e01b5f5260045260245ffd5b806154646003926153f8565b1461546c5750565b6335e2f38360e21b5f5260045260245ffd5b91906fa2a8918ca85bafe22016d0b997e4df60600160ff1b0384116154eb579160209360809260ff5f9560405194855216868401526040830152606082015282805260015afa156106e7575f516001600160a01b038116156154e157905f905f90565b505f906001905f90565b5050505f916003919056fe37d334dabaf41e43aacc723ac58fb37530ae1cc7b9c266f832352d3b33d1d2e1c2d58ddd39bae8d891e64c790e06675be0c60c0c8abaaceac647c83798f19d71c65a7bb8d6351c1cf70c95a316cc6a92839c986682d98bc35f958f4883f9d2a88b5e44529430631511cdb2103b51a2b17522f3ccef30b4cecb8b600e589b21845d2010d98a8af54e10756d0f1f88c21936f3cee3282ba1a12e8b6ea9dc3cd00b944f9ca1b679ec8381ef5d5419085e9ea4df3b274eb009910b19bd295bd18fc303b08423472f7ab3868687f6f058518938a70d81f39d56bbef07d72ad5207adc6fda4e9204adb930edd263bf167f0f95464e9f84006d5c89c84ed55f50528b33a164736f6c6343000821000a",
  "linkReferences": {},
  "deployedLinkReferences": {},
  "immutableReferences": {
    "25728": [
      {
        "length": 32,
        "start": 1583
      },
      {
        "length": 32,
        "start": 5909
      },
      {
        "length": 32,
        "start": 6586
      },
      {
        "length": 32,
        "start": 15031
      },
      {
        "length": 32,
        "start": 15793
      }
    ],
    "28029": [
      {
        "length": 32,
        "start": 3206
      },
      {
        "length": 32,
        "start": 3824
      }
    ]
  },
  "inputSourceName": "project/src/BeamioUserCard/BeamioUserCardFactoryPaymasterV07.sol",
  "buildInfoId": "solc-0_8_33-dffc24197d0dc2a78a8f8808c9bf86ed9de682e8"
}