{
  "_format": "hh3-artifact-1",
  "contractName": "BeamioUserCard",
  "sourceName": "src/BeamioUserCard/BeamioUserCard.sol",
  "abi": [
    {
      "inputs": [
        {
          "internalType": "string",
          "name": "uri_",
          "type": "string"
        },
        {
          "internalType": "enum BeamioCurrency.CurrencyType",
          "name": "currency_",
          "type": "uint8"
        },
        {
          "internalType": "uint256",
          "name": "pointsUnitPriceInCurrencyE6_",
          "type": "uint256"
        },
        {
          "internalType": "address",
          "name": "initialOwner",
          "type": "address"
        },
        {
          "internalType": "address",
          "name": "gateway_",
          "type": "address"
        },
        {
          "internalType": "uint8",
          "name": "upgradeType_",
          "type": "uint8"
        },
        {
          "internalType": "bool",
          "name": "initialTransferWhitelistEnabled",
          "type": "bool"
        }
      ],
      "stateMutability": "nonpayable",
      "type": "constructor"
    },
    {
      "inputs": [],
      "name": "BM_NotAuthorized",
      "type": "error"
    },
    {
      "inputs": [],
      "name": "BM_ZeroAddress",
      "type": "error"
    },
    {
      "inputs": [
        {
          "internalType": "address",
          "name": "sender",
          "type": "address"
        },
        {
          "internalType": "uint256",
          "name": "balance",
          "type": "uint256"
        },
        {
          "internalType": "uint256",
          "name": "needed",
          "type": "uint256"
        },
        {
          "internalType": "uint256",
          "name": "tokenId",
          "type": "uint256"
        }
      ],
      "name": "ERC1155InsufficientBalance",
      "type": "error"
    },
    {
      "inputs": [
        {
          "internalType": "address",
          "name": "approver",
          "type": "address"
        }
      ],
      "name": "ERC1155InvalidApprover",
      "type": "error"
    },
    {
      "inputs": [
        {
          "internalType": "uint256",
          "name": "idsLength",
          "type": "uint256"
        },
        {
          "internalType": "uint256",
          "name": "valuesLength",
          "type": "uint256"
        }
      ],
      "name": "ERC1155InvalidArrayLength",
      "type": "error"
    },
    {
      "inputs": [
        {
          "internalType": "address",
          "name": "operator",
          "type": "address"
        }
      ],
      "name": "ERC1155InvalidOperator",
      "type": "error"
    },
    {
      "inputs": [
        {
          "internalType": "address",
          "name": "receiver",
          "type": "address"
        }
      ],
      "name": "ERC1155InvalidReceiver",
      "type": "error"
    },
    {
      "inputs": [
        {
          "internalType": "address",
          "name": "sender",
          "type": "address"
        }
      ],
      "name": "ERC1155InvalidSender",
      "type": "error"
    },
    {
      "inputs": [
        {
          "internalType": "address",
          "name": "operator",
          "type": "address"
        },
        {
          "internalType": "address",
          "name": "owner",
          "type": "address"
        }
      ],
      "name": "ERC1155MissingApprovalForAll",
      "type": "error"
    },
    {
      "inputs": [
        {
          "internalType": "address",
          "name": "owner",
          "type": "address"
        }
      ],
      "name": "OwnableInvalidOwner",
      "type": "error"
    },
    {
      "inputs": [
        {
          "internalType": "address",
          "name": "account",
          "type": "address"
        }
      ],
      "name": "OwnableUnauthorizedAccount",
      "type": "error"
    },
    {
      "inputs": [],
      "name": "ReentrancyGuardReentrantCall",
      "type": "error"
    },
    {
      "inputs": [],
      "name": "UC_AmountZero",
      "type": "error"
    },
    {
      "inputs": [],
      "name": "UC_BelowMinThreshold",
      "type": "error"
    },
    {
      "inputs": [],
      "name": "UC_GlobalMisconfigured",
      "type": "error"
    },
    {
      "inputs": [
        {
          "internalType": "address",
          "name": "fromAccount",
          "type": "address"
        },
        {
          "internalType": "uint256",
          "name": "id",
          "type": "uint256"
        },
        {
          "internalType": "uint256",
          "name": "have",
          "type": "uint256"
        },
        {
          "internalType": "uint256",
          "name": "need",
          "type": "uint256"
        }
      ],
      "name": "UC_InsufficientBalance",
      "type": "error"
    },
    {
      "inputs": [],
      "name": "UC_InvalidUpgradeType",
      "type": "error"
    },
    {
      "inputs": [],
      "name": "UC_NoBeamioAccount",
      "type": "error"
    },
    {
      "inputs": [],
      "name": "UC_NotAdmin",
      "type": "error"
    },
    {
      "inputs": [],
      "name": "UC_OpenMintExecutorUnauthorized",
      "type": "error"
    },
    {
      "inputs": [],
      "name": "UC_PriceZero",
      "type": "error"
    },
    {
      "inputs": [
        {
          "internalType": "bytes",
          "name": "data",
          "type": "bytes"
        }
      ],
      "name": "UC_RedeemDelegateFailed",
      "type": "error"
    },
    {
      "inputs": [],
      "name": "UC_TierLenMismatch",
      "type": "error"
    },
    {
      "inputs": [],
      "name": "UC_TierMinZero",
      "type": "error"
    },
    {
      "inputs": [],
      "name": "UC_UnauthorizedGateway",
      "type": "error"
    },
    {
      "anonymous": false,
      "inputs": [
        {
          "indexed": true,
          "internalType": "address",
          "name": "beneficiaryAccount",
          "type": "address"
        },
        {
          "indexed": true,
          "internalType": "uint256",
          "name": "tokenId",
          "type": "uint256"
        },
        {
          "indexed": false,
          "internalType": "uint256",
          "name": "attr",
          "type": "uint256"
        },
        {
          "indexed": false,
          "internalType": "uint256",
          "name": "expiry",
          "type": "uint256"
        }
      ],
      "name": "AdminCardMinted",
      "type": "event"
    },
    {
      "anonymous": false,
      "inputs": [
        {
          "indexed": true,
          "internalType": "address",
          "name": "account",
          "type": "address"
        },
        {
          "indexed": false,
          "internalType": "uint256",
          "name": "amount",
          "type": "uint256"
        }
      ],
      "name": "AdminPointsBurned",
      "type": "event"
    },
    {
      "anonymous": false,
      "inputs": [
        {
          "indexed": true,
          "internalType": "address",
          "name": "beneficiaryAccount",
          "type": "address"
        },
        {
          "indexed": false,
          "internalType": "uint256",
          "name": "points6",
          "type": "uint256"
        }
      ],
      "name": "AdminPointsMinted",
      "type": "event"
    },
    {
      "anonymous": false,
      "inputs": [
        {
          "indexed": true,
          "internalType": "address",
          "name": "account",
          "type": "address"
        },
        {
          "indexed": true,
          "internalType": "address",
          "name": "operator",
          "type": "address"
        },
        {
          "indexed": false,
          "internalType": "bool",
          "name": "approved",
          "type": "bool"
        }
      ],
      "name": "ApprovalForAll",
      "type": "event"
    },
    {
      "anonymous": false,
      "inputs": [
        {
          "indexed": true,
          "internalType": "address",
          "name": "userEOA",
          "type": "address"
        },
        {
          "indexed": true,
          "internalType": "address",
          "name": "acct",
          "type": "address"
        },
        {
          "indexed": false,
          "internalType": "uint8",
          "name": "chargeCurrency",
          "type": "uint8"
        },
        {
          "indexed": false,
          "internalType": "uint256",
          "name": "amountFiat6",
          "type": "uint256"
        },
        {
          "indexed": false,
          "internalType": "uint256",
          "name": "rewardMinted",
          "type": "uint256"
        }
      ],
      "name": "ChargeRewardAirdropped",
      "type": "event"
    },
    {
      "anonymous": false,
      "inputs": [
        {
          "indexed": false,
          "internalType": "uint256",
          "name": "attr",
          "type": "uint256"
        }
      ],
      "name": "DefaultAttrUpdated",
      "type": "event"
    },
    {
      "anonymous": false,
      "inputs": [
        {
          "indexed": false,
          "internalType": "uint256",
          "name": "oldSecs",
          "type": "uint256"
        },
        {
          "indexed": false,
          "internalType": "uint256",
          "name": "newSecs",
          "type": "uint256"
        }
      ],
      "name": "ExpirySecondsUpdated",
      "type": "event"
    },
    {
      "anonymous": false,
      "inputs": [
        {
          "indexed": true,
          "internalType": "uint256",
          "name": "id",
          "type": "uint256"
        },
        {
          "indexed": true,
          "internalType": "address",
          "name": "userEOA",
          "type": "address"
        },
        {
          "indexed": true,
          "internalType": "address",
          "name": "acct",
          "type": "address"
        },
        {
          "indexed": false,
          "internalType": "uint256",
          "name": "amount",
          "type": "uint256"
        },
        {
          "indexed": false,
          "internalType": "uint256",
          "name": "claimedAfter",
          "type": "uint256"
        }
      ],
      "name": "FaucetClaimed",
      "type": "event"
    },
    {
      "anonymous": false,
      "inputs": [
        {
          "indexed": true,
          "internalType": "uint256",
          "name": "id",
          "type": "uint256"
        },
        {
          "components": [
            {
              "internalType": "uint64",
              "name": "validUntil",
              "type": "uint64"
            },
            {
              "internalType": "uint64",
              "name": "perClaimMax",
              "type": "uint64"
            },
            {
              "internalType": "uint128",
              "name": "maxPerUser",
              "type": "uint128"
            },
            {
              "internalType": "uint128",
              "name": "maxGlobal",
              "type": "uint128"
            },
            {
              "internalType": "bool",
              "name": "enabled",
              "type": "bool"
            },
            {
              "internalType": "uint8",
              "name": "currency",
              "type": "uint8"
            },
            {
              "internalType": "uint8",
              "name": "decimals",
              "type": "uint8"
            },
            {
              "internalType": "uint128",
              "name": "priceInCurrency6",
              "type": "uint128"
            }
          ],
          "indexed": false,
          "internalType": "struct FaucetStorage.FaucetConfig",
          "name": "cfg",
          "type": "tuple"
        }
      ],
      "name": "FaucetConfigUpdated",
      "type": "event"
    },
    {
      "anonymous": false,
      "inputs": [
        {
          "indexed": true,
          "internalType": "uint256",
          "name": "tokenId",
          "type": "uint256"
        },
        {
          "indexed": false,
          "internalType": "bytes32",
          "name": "title",
          "type": "bytes32"
        },
        {
          "indexed": false,
          "internalType": "uint64",
          "name": "validAfter",
          "type": "uint64"
        },
        {
          "indexed": false,
          "internalType": "uint64",
          "name": "validBefore",
          "type": "uint64"
        },
        {
          "indexed": false,
          "internalType": "uint256",
          "name": "maxSupply",
          "type": "uint256"
        },
        {
          "indexed": false,
          "internalType": "uint256",
          "name": "priceInCurrency6",
          "type": "uint256"
        },
        {
          "indexed": false,
          "internalType": "bytes32",
          "name": "sharedMetadataHash",
          "type": "bytes32"
        }
      ],
      "name": "IssuedNftCreated",
      "type": "event"
    },
    {
      "anonymous": false,
      "inputs": [
        {
          "indexed": true,
          "internalType": "uint256",
          "name": "tokenId",
          "type": "uint256"
        },
        {
          "indexed": true,
          "internalType": "address",
          "name": "recipient",
          "type": "address"
        },
        {
          "indexed": false,
          "internalType": "uint256",
          "name": "amount",
          "type": "uint256"
        }
      ],
      "name": "IssuedNftMinted",
      "type": "event"
    },
    {
      "anonymous": false,
      "inputs": [
        {
          "indexed": true,
          "internalType": "address",
          "name": "userEOA",
          "type": "address"
        },
        {
          "indexed": true,
          "internalType": "address",
          "name": "payeeEOA",
          "type": "address"
        },
        {
          "indexed": true,
          "internalType": "uint256",
          "name": "tokenId",
          "type": "uint256"
        },
        {
          "indexed": false,
          "internalType": "uint256",
          "name": "amount",
          "type": "uint256"
        },
        {
          "indexed": false,
          "internalType": "uint256",
          "name": "totalPriceInCurrency6",
          "type": "uint256"
        },
        {
          "indexed": false,
          "internalType": "uint256",
          "name": "pointsCharged6",
          "type": "uint256"
        }
      ],
      "name": "IssuedNftPurchasedWithPointsCharge",
      "type": "event"
    },
    {
      "anonymous": false,
      "inputs": [
        {
          "indexed": true,
          "internalType": "address",
          "name": "user",
          "type": "address"
        },
        {
          "indexed": true,
          "internalType": "uint256",
          "name": "tokenId",
          "type": "uint256"
        },
        {
          "indexed": false,
          "internalType": "uint256",
          "name": "tierIndexOrMax",
          "type": "uint256"
        },
        {
          "indexed": false,
          "internalType": "uint256",
          "name": "minUsdc6",
          "type": "uint256"
        },
        {
          "indexed": false,
          "internalType": "uint256",
          "name": "expiry",
          "type": "uint256"
        }
      ],
      "name": "MemberNFTIssued",
      "type": "event"
    },
    {
      "anonymous": false,
      "inputs": [
        {
          "indexed": true,
          "internalType": "address",
          "name": "user",
          "type": "address"
        },
        {
          "indexed": true,
          "internalType": "uint256",
          "name": "oldActiveTokenId",
          "type": "uint256"
        },
        {
          "indexed": true,
          "internalType": "uint256",
          "name": "newTokenId",
          "type": "uint256"
        },
        {
          "indexed": false,
          "internalType": "uint256",
          "name": "oldTierIndexOrMax",
          "type": "uint256"
        },
        {
          "indexed": false,
          "internalType": "uint256",
          "name": "newTierIndex",
          "type": "uint256"
        },
        {
          "indexed": false,
          "internalType": "uint256",
          "name": "newExpiry",
          "type": "uint256"
        }
      ],
      "name": "MemberNFTUpgraded",
      "type": "event"
    },
    {
      "anonymous": false,
      "inputs": [
        {
          "indexed": true,
          "internalType": "address",
          "name": "previousOwner",
          "type": "address"
        },
        {
          "indexed": true,
          "internalType": "address",
          "name": "newOwner",
          "type": "address"
        }
      ],
      "name": "OwnershipTransferred",
      "type": "event"
    },
    {
      "anonymous": false,
      "inputs": [
        {
          "indexed": true,
          "internalType": "address",
          "name": "userEOA",
          "type": "address"
        },
        {
          "indexed": true,
          "internalType": "address",
          "name": "acct",
          "type": "address"
        },
        {
          "indexed": false,
          "internalType": "uint256",
          "name": "points6",
          "type": "uint256"
        }
      ],
      "name": "PointsMintedByGateway",
      "type": "event"
    },
    {
      "anonymous": false,
      "inputs": [
        {
          "indexed": true,
          "internalType": "address",
          "name": "payerEOA",
          "type": "address"
        },
        {
          "indexed": true,
          "internalType": "address",
          "name": "beneficiaryAccount",
          "type": "address"
        },
        {
          "indexed": true,
          "internalType": "address",
          "name": "usdc",
          "type": "address"
        },
        {
          "indexed": false,
          "internalType": "uint256",
          "name": "usdcIn6",
          "type": "uint256"
        },
        {
          "indexed": false,
          "internalType": "uint256",
          "name": "pointsMinted6",
          "type": "uint256"
        },
        {
          "indexed": false,
          "internalType": "uint256",
          "name": "unitPointPriceUsdc6",
          "type": "uint256"
        },
        {
          "indexed": false,
          "internalType": "bytes32",
          "name": "nonce",
          "type": "bytes32"
        }
      ],
      "name": "PointsPurchasedWithUSDC",
      "type": "event"
    },
    {
      "anonymous": false,
      "inputs": [
        {
          "indexed": false,
          "internalType": "uint256",
          "name": "priceInCurrencyE6",
          "type": "uint256"
        }
      ],
      "name": "PointsUnitPriceUpdated",
      "type": "event"
    },
    {
      "anonymous": false,
      "inputs": [
        {
          "indexed": true,
          "internalType": "uint256",
          "name": "id",
          "type": "uint256"
        },
        {
          "indexed": true,
          "internalType": "address",
          "name": "admin",
          "type": "address"
        }
      ],
      "name": "ProposalApproved",
      "type": "event"
    },
    {
      "anonymous": false,
      "inputs": [
        {
          "indexed": true,
          "internalType": "uint256",
          "name": "id",
          "type": "uint256"
        },
        {
          "indexed": true,
          "internalType": "bytes4",
          "name": "selector",
          "type": "bytes4"
        },
        {
          "indexed": true,
          "internalType": "address",
          "name": "proposer",
          "type": "address"
        }
      ],
      "name": "ProposalCreated",
      "type": "event"
    },
    {
      "anonymous": false,
      "inputs": [
        {
          "indexed": true,
          "internalType": "uint256",
          "name": "id",
          "type": "uint256"
        }
      ],
      "name": "ProposalExecuted",
      "type": "event"
    },
    {
      "anonymous": false,
      "inputs": [
        {
          "indexed": true,
          "internalType": "bytes32",
          "name": "hash",
          "type": "bytes32"
        }
      ],
      "name": "RedeemCancelled",
      "type": "event"
    },
    {
      "anonymous": false,
      "inputs": [
        {
          "indexed": true,
          "internalType": "bytes32",
          "name": "hash",
          "type": "bytes32"
        },
        {
          "indexed": false,
          "internalType": "uint256",
          "name": "points6",
          "type": "uint256"
        },
        {
          "indexed": false,
          "internalType": "uint256",
          "name": "attr",
          "type": "uint256"
        }
      ],
      "name": "RedeemCreated",
      "type": "event"
    },
    {
      "anonymous": false,
      "inputs": [
        {
          "indexed": true,
          "internalType": "address",
          "name": "refereeAA",
          "type": "address"
        },
        {
          "indexed": true,
          "internalType": "address",
          "name": "referrerAA",
          "type": "address"
        },
        {
          "indexed": true,
          "internalType": "address",
          "name": "operator",
          "type": "address"
        }
      ],
      "name": "RefereeReferrerUpdated",
      "type": "event"
    },
    {
      "anonymous": false,
      "inputs": [
        {
          "indexed": true,
          "internalType": "address",
          "name": "refereeAA",
          "type": "address"
        },
        {
          "indexed": true,
          "internalType": "address",
          "name": "operator",
          "type": "address"
        }
      ],
      "name": "RefereeRegistered",
      "type": "event"
    },
    {
      "anonymous": false,
      "inputs": [
        {
          "indexed": true,
          "internalType": "address",
          "name": "refereeAA",
          "type": "address"
        },
        {
          "indexed": true,
          "internalType": "address",
          "name": "operator",
          "type": "address"
        }
      ],
      "name": "RefereeUnregistered",
      "type": "event"
    },
    {
      "anonymous": false,
      "inputs": [
        {
          "indexed": true,
          "internalType": "address",
          "name": "refereeAA",
          "type": "address"
        },
        {
          "indexed": true,
          "internalType": "address",
          "name": "referrerAA",
          "type": "address"
        },
        {
          "indexed": false,
          "internalType": "uint256",
          "name": "rewardAmount",
          "type": "uint256"
        }
      ],
      "name": "ReferrerRewardMinted",
      "type": "event"
    },
    {
      "anonymous": false,
      "inputs": [
        {
          "indexed": false,
          "internalType": "uint256",
          "name": "oldRatioE6",
          "type": "uint256"
        },
        {
          "indexed": false,
          "internalType": "uint256",
          "name": "newRatioE6",
          "type": "uint256"
        }
      ],
      "name": "ReferrerRewardRatioUpdated",
      "type": "event"
    },
    {
      "anonymous": false,
      "inputs": [
        {
          "indexed": false,
          "internalType": "uint256",
          "name": "index",
          "type": "uint256"
        },
        {
          "indexed": false,
          "internalType": "uint256",
          "name": "minUsdc6",
          "type": "uint256"
        },
        {
          "indexed": false,
          "internalType": "uint256",
          "name": "attr",
          "type": "uint256"
        },
        {
          "indexed": false,
          "internalType": "uint256",
          "name": "tierExpirySeconds",
          "type": "uint256"
        }
      ],
      "name": "TierAppended",
      "type": "event"
    },
    {
      "anonymous": false,
      "inputs": [
        {
          "indexed": false,
          "internalType": "uint256",
          "name": "count",
          "type": "uint256"
        }
      ],
      "name": "TiersUpdated",
      "type": "event"
    },
    {
      "anonymous": false,
      "inputs": [
        {
          "indexed": true,
          "internalType": "address",
          "name": "operator",
          "type": "address"
        },
        {
          "indexed": true,
          "internalType": "address",
          "name": "from",
          "type": "address"
        },
        {
          "indexed": true,
          "internalType": "address",
          "name": "to",
          "type": "address"
        },
        {
          "indexed": false,
          "internalType": "uint256[]",
          "name": "ids",
          "type": "uint256[]"
        },
        {
          "indexed": false,
          "internalType": "uint256[]",
          "name": "values",
          "type": "uint256[]"
        }
      ],
      "name": "TransferBatch",
      "type": "event"
    },
    {
      "anonymous": false,
      "inputs": [
        {
          "indexed": true,
          "internalType": "address",
          "name": "operator",
          "type": "address"
        },
        {
          "indexed": true,
          "internalType": "address",
          "name": "from",
          "type": "address"
        },
        {
          "indexed": true,
          "internalType": "address",
          "name": "to",
          "type": "address"
        },
        {
          "indexed": false,
          "internalType": "uint256",
          "name": "id",
          "type": "uint256"
        },
        {
          "indexed": false,
          "internalType": "uint256",
          "name": "value",
          "type": "uint256"
        }
      ],
      "name": "TransferSingle",
      "type": "event"
    },
    {
      "anonymous": false,
      "inputs": [
        {
          "indexed": false,
          "internalType": "bool",
          "name": "enabled",
          "type": "bool"
        }
      ],
      "name": "TransferWhitelistEnabledUpdated",
      "type": "event"
    },
    {
      "anonymous": false,
      "inputs": [
        {
          "indexed": false,
          "internalType": "string",
          "name": "value",
          "type": "string"
        },
        {
          "indexed": true,
          "internalType": "uint256",
          "name": "id",
          "type": "uint256"
        }
      ],
      "name": "URI",
      "type": "event"
    },
    {
      "stateMutability": "nonpayable",
      "type": "fallback"
    },
    {
      "inputs": [],
      "name": "CHARGE_REWARD_TOKEN_ID",
      "outputs": [
        {
          "internalType": "uint256",
          "name": "",
          "type": "uint256"
        }
      ],
      "stateMutability": "view",
      "type": "function"
    },
    {
      "inputs": [],
      "name": "ISSUED_NFT_START_ID",
      "outputs": [
        {
          "internalType": "uint256",
          "name": "",
          "type": "uint256"
        }
      ],
      "stateMutability": "view",
      "type": "function"
    },
    {
      "inputs": [],
      "name": "NFT_START_ID",
      "outputs": [
        {
          "internalType": "uint256",
          "name": "",
          "type": "uint256"
        }
      ],
      "stateMutability": "view",
      "type": "function"
    },
    {
      "inputs": [],
      "name": "POINTS_DECIMALS",
      "outputs": [
        {
          "internalType": "uint8",
          "name": "",
          "type": "uint8"
        }
      ],
      "stateMutability": "view",
      "type": "function"
    },
    {
      "inputs": [],
      "name": "POINTS_ID",
      "outputs": [
        {
          "internalType": "uint256",
          "name": "",
          "type": "uint256"
        }
      ],
      "stateMutability": "view",
      "type": "function"
    },
    {
      "inputs": [],
      "name": "REFERRER_REWARD_TOKEN_ID",
      "outputs": [
        {
          "internalType": "uint256",
          "name": "",
          "type": "uint256"
        }
      ],
      "stateMutability": "view",
      "type": "function"
    },
    {
      "inputs": [],
      "name": "VERSION",
      "outputs": [
        {
          "internalType": "uint256",
          "name": "",
          "type": "uint256"
        }
      ],
      "stateMutability": "view",
      "type": "function"
    },
    {
      "inputs": [
        {
          "internalType": "address",
          "name": "",
          "type": "address"
        },
        {
          "internalType": "uint256",
          "name": "",
          "type": "uint256"
        }
      ],
      "name": "_userOwnedNfts",
      "outputs": [
        {
          "internalType": "uint256",
          "name": "",
          "type": "uint256"
        }
      ],
      "stateMutability": "view",
      "type": "function"
    },
    {
      "inputs": [
        {
          "internalType": "uint256",
          "name": "",
          "type": "uint256"
        }
      ],
      "name": "activeMembershipCountByTierIndex",
      "outputs": [
        {
          "internalType": "uint256",
          "name": "",
          "type": "uint256"
        }
      ],
      "stateMutability": "view",
      "type": "function"
    },
    {
      "inputs": [
        {
          "internalType": "uint256",
          "name": "",
          "type": "uint256"
        }
      ],
      "name": "activeMembershipCountByTokenId",
      "outputs": [
        {
          "internalType": "uint256",
          "name": "",
          "type": "uint256"
        }
      ],
      "stateMutability": "view",
      "type": "function"
    },
    {
      "inputs": [
        {
          "internalType": "address",
          "name": "",
          "type": "address"
        }
      ],
      "name": "activeMembershipId",
      "outputs": [
        {
          "internalType": "uint256",
          "name": "",
          "type": "uint256"
        }
      ],
      "stateMutability": "view",
      "type": "function"
    },
    {
      "inputs": [
        {
          "internalType": "address",
          "name": "",
          "type": "address"
        }
      ],
      "name": "activeTierIndexOrMax",
      "outputs": [
        {
          "internalType": "uint256",
          "name": "",
          "type": "uint256"
        }
      ],
      "stateMutability": "view",
      "type": "function"
    },
    {
      "inputs": [
        {
          "internalType": "address",
          "name": "a",
          "type": "address"
        }
      ],
      "name": "adminParent",
      "outputs": [
        {
          "internalType": "address",
          "name": "",
          "type": "address"
        }
      ],
      "stateMutability": "view",
      "type": "function"
    },
    {
      "inputs": [
        {
          "internalType": "uint256",
          "name": "minUsdc6",
          "type": "uint256"
        },
        {
          "internalType": "uint256",
          "name": "attr",
          "type": "uint256"
        },
        {
          "internalType": "uint256",
          "name": "tierExpirySeconds",
          "type": "uint256"
        }
      ],
      "name": "appendTier",
      "outputs": [],
      "stateMutability": "nonpayable",
      "type": "function"
    },
    {
      "inputs": [
        {
          "internalType": "uint256",
          "name": "id",
          "type": "uint256"
        }
      ],
      "name": "approveProposal",
      "outputs": [],
      "stateMutability": "nonpayable",
      "type": "function"
    },
    {
      "inputs": [
        {
          "internalType": "uint256",
          "name": "id",
          "type": "uint256"
        },
        {
          "internalType": "address",
          "name": "adminSigner",
          "type": "address"
        }
      ],
      "name": "approveProposalByGateway",
      "outputs": [],
      "stateMutability": "nonpayable",
      "type": "function"
    },
    {
      "inputs": [
        {
          "internalType": "uint256",
          "name": "",
          "type": "uint256"
        }
      ],
      "name": "attributes",
      "outputs": [
        {
          "internalType": "uint256",
          "name": "",
          "type": "uint256"
        }
      ],
      "stateMutability": "view",
      "type": "function"
    },
    {
      "inputs": [
        {
          "internalType": "address",
          "name": "account",
          "type": "address"
        },
        {
          "internalType": "uint256",
          "name": "id",
          "type": "uint256"
        }
      ],
      "name": "balanceOf",
      "outputs": [
        {
          "internalType": "uint256",
          "name": "",
          "type": "uint256"
        }
      ],
      "stateMutability": "view",
      "type": "function"
    },
    {
      "inputs": [
        {
          "internalType": "address[]",
          "name": "accounts",
          "type": "address[]"
        },
        {
          "internalType": "uint256[]",
          "name": "ids",
          "type": "uint256[]"
        }
      ],
      "name": "balanceOfBatch",
      "outputs": [
        {
          "internalType": "uint256[]",
          "name": "",
          "type": "uint256[]"
        }
      ],
      "stateMutability": "view",
      "type": "function"
    },
    {
      "inputs": [
        {
          "internalType": "address",
          "name": "target",
          "type": "address"
        },
        {
          "internalType": "uint256",
          "name": "amount",
          "type": "uint256"
        }
      ],
      "name": "burnPointsByAdmin",
      "outputs": [],
      "stateMutability": "nonpayable",
      "type": "function"
    },
    {
      "inputs": [
        {
          "internalType": "address",
          "name": "acct",
          "type": "address"
        },
        {
          "internalType": "uint256",
          "name": "id",
          "type": "uint256"
        }
      ],
      "name": "cardSelfAppendMembershipNftIfMissing",
      "outputs": [],
      "stateMutability": "nonpayable",
      "type": "function"
    },
    {
      "inputs": [
        {
          "internalType": "uint8",
          "name": "kind",
          "type": "uint8"
        },
        {
          "internalType": "bytes",
          "name": "data",
          "type": "bytes"
        }
      ],
      "name": "cardSelfCallModule",
      "outputs": [
        {
          "internalType": "bytes",
          "name": "",
          "type": "bytes"
        }
      ],
      "stateMutability": "nonpayable",
      "type": "function"
    },
    {
      "inputs": [],
      "name": "cardSelfCurrencyType",
      "outputs": [
        {
          "internalType": "uint8",
          "name": "",
          "type": "uint8"
        }
      ],
      "stateMutability": "view",
      "type": "function"
    },
    {
      "inputs": [
        {
          "internalType": "address",
          "name": "acct",
          "type": "address"
        },
        {
          "internalType": "uint256",
          "name": "points6",
          "type": "uint256"
        }
      ],
      "name": "cardSelfEmitAdminPointsMinted",
      "outputs": [],
      "stateMutability": "nonpayable",
      "type": "function"
    },
    {
      "inputs": [
        {
          "internalType": "address",
          "name": "userEOA",
          "type": "address"
        },
        {
          "internalType": "address",
          "name": "acct",
          "type": "address"
        },
        {
          "internalType": "uint8",
          "name": "chargeCurrency",
          "type": "uint8"
        },
        {
          "internalType": "uint256",
          "name": "amountFiat6",
          "type": "uint256"
        },
        {
          "internalType": "uint256",
          "name": "reward",
          "type": "uint256"
        }
      ],
      "name": "cardSelfEmitChargeRewardAirdropped",
      "outputs": [],
      "stateMutability": "nonpayable",
      "type": "function"
    },
    {
      "inputs": [
        {
          "internalType": "uint256",
          "name": "id",
          "type": "uint256"
        },
        {
          "internalType": "address",
          "name": "userEOA",
          "type": "address"
        },
        {
          "internalType": "address",
          "name": "acct",
          "type": "address"
        },
        {
          "internalType": "uint256",
          "name": "amount",
          "type": "uint256"
        },
        {
          "internalType": "uint256",
          "name": "claimedAfter",
          "type": "uint256"
        }
      ],
      "name": "cardSelfEmitFaucetClaimed",
      "outputs": [],
      "stateMutability": "nonpayable",
      "type": "function"
    },
    {
      "inputs": [
        {
          "internalType": "uint256",
          "name": "tokenId",
          "type": "uint256"
        },
        {
          "internalType": "address",
          "name": "acct",
          "type": "address"
        },
        {
          "internalType": "uint256",
          "name": "amount",
          "type": "uint256"
        }
      ],
      "name": "cardSelfEmitIssuedNftMinted",
      "outputs": [],
      "stateMutability": "nonpayable",
      "type": "function"
    },
    {
      "inputs": [
        {
          "internalType": "address",
          "name": "userEOA",
          "type": "address"
        },
        {
          "internalType": "address",
          "name": "payeeEOA",
          "type": "address"
        },
        {
          "internalType": "uint256",
          "name": "tokenId",
          "type": "uint256"
        },
        {
          "internalType": "uint256",
          "name": "amount",
          "type": "uint256"
        },
        {
          "internalType": "uint256",
          "name": "totalPriceInCurrency6",
          "type": "uint256"
        },
        {
          "internalType": "uint256",
          "name": "pointsCharged6",
          "type": "uint256"
        }
      ],
      "name": "cardSelfEmitIssuedNftPurchasedWithPointsCharge",
      "outputs": [],
      "stateMutability": "nonpayable",
      "type": "function"
    },
    {
      "inputs": [
        {
          "internalType": "address",
          "name": "userEOA",
          "type": "address"
        },
        {
          "internalType": "address",
          "name": "acct",
          "type": "address"
        },
        {
          "internalType": "uint256",
          "name": "points6",
          "type": "uint256"
        }
      ],
      "name": "cardSelfEmitPointsMintedByGateway",
      "outputs": [],
      "stateMutability": "nonpayable",
      "type": "function"
    },
    {
      "inputs": [
        {
          "internalType": "address",
          "name": "refereeAA",
          "type": "address"
        },
        {
          "internalType": "address",
          "name": "referrerAA",
          "type": "address"
        },
        {
          "internalType": "uint256",
          "name": "rewardAmount",
          "type": "uint256"
        }
      ],
      "name": "cardSelfEmitReferrerRewardMinted",
      "outputs": [],
      "stateMutability": "nonpayable",
      "type": "function"
    },
    {
      "inputs": [
        {
          "internalType": "address",
          "name": "module",
          "type": "address"
        },
        {
          "internalType": "bytes",
          "name": "data",
          "type": "bytes"
        }
      ],
      "name": "cardSelfGovernanceDelegate",
      "outputs": [
        {
          "internalType": "bool",
          "name": "",
          "type": "bool"
        }
      ],
      "stateMutability": "nonpayable",
      "type": "function"
    },
    {
      "inputs": [
        {
          "internalType": "address",
          "name": "acct",
          "type": "address"
        }
      ],
      "name": "cardSelfHasValidCard",
      "outputs": [
        {
          "internalType": "bool",
          "name": "",
          "type": "bool"
        }
      ],
      "stateMutability": "view",
      "type": "function"
    },
    {
      "inputs": [],
      "name": "cardSelfMembershipFlowTotals",
      "outputs": [
        {
          "internalType": "uint256",
          "name": "issued",
          "type": "uint256"
        },
        {
          "internalType": "uint256",
          "name": "upgraded",
          "type": "uint256"
        }
      ],
      "stateMutability": "view",
      "type": "function"
    },
    {
      "inputs": [
        {
          "internalType": "address",
          "name": "to",
          "type": "address"
        },
        {
          "internalType": "uint256",
          "name": "id",
          "type": "uint256"
        },
        {
          "internalType": "uint256",
          "name": "amount",
          "type": "uint256"
        }
      ],
      "name": "cardSelfMint",
      "outputs": [],
      "stateMutability": "nonpayable",
      "type": "function"
    },
    {
      "inputs": [],
      "name": "cardSelfOwner",
      "outputs": [
        {
          "internalType": "address",
          "name": "",
          "type": "address"
        }
      ],
      "stateMutability": "view",
      "type": "function"
    },
    {
      "inputs": [],
      "name": "cardSelfPointsUnitPriceInCurrencyE6",
      "outputs": [
        {
          "internalType": "uint256",
          "name": "",
          "type": "uint256"
        }
      ],
      "stateMutability": "view",
      "type": "function"
    },
    {
      "inputs": [
        {
          "internalType": "address",
          "name": "operator",
          "type": "address"
        },
        {
          "internalType": "uint256",
          "name": "issuedBefore",
          "type": "uint256"
        },
        {
          "internalType": "uint256",
          "name": "upgradedBefore",
          "type": "uint256"
        }
      ],
      "name": "cardSelfRecordAdminMembershipFlow",
      "outputs": [],
      "stateMutability": "nonpayable",
      "type": "function"
    },
    {
      "inputs": [
        {
          "internalType": "address",
          "name": "operator",
          "type": "address"
        },
        {
          "internalType": "uint256",
          "name": "amount",
          "type": "uint256"
        }
      ],
      "name": "cardSelfRecordAdminRedeemMint",
      "outputs": [],
      "stateMutability": "nonpayable",
      "type": "function"
    },
    {
      "inputs": [
        {
          "internalType": "address",
          "name": "operator",
          "type": "address"
        },
        {
          "internalType": "uint256",
          "name": "amount",
          "type": "uint256"
        }
      ],
      "name": "cardSelfRecordAdminStatsMint",
      "outputs": [],
      "stateMutability": "nonpayable",
      "type": "function"
    },
    {
      "inputs": [
        {
          "internalType": "address",
          "name": "operator",
          "type": "address"
        },
        {
          "internalType": "uint256",
          "name": "amount",
          "type": "uint256"
        }
      ],
      "name": "cardSelfRecordAdminUsdcMint",
      "outputs": [],
      "stateMutability": "nonpayable",
      "type": "function"
    },
    {
      "inputs": [
        {
          "internalType": "address",
          "name": "acct",
          "type": "address"
        },
        {
          "internalType": "uint256",
          "name": "points6",
          "type": "uint256"
        }
      ],
      "name": "cardSelfRequirePointsMintAllowsFirstMembership",
      "outputs": [],
      "stateMutability": "view",
      "type": "function"
    },
    {
      "inputs": [
        {
          "internalType": "address",
          "name": "eoa",
          "type": "address"
        }
      ],
      "name": "cardSelfToAccount",
      "outputs": [
        {
          "internalType": "address",
          "name": "",
          "type": "address"
        }
      ],
      "stateMutability": "view",
      "type": "function"
    },
    {
      "inputs": [
        {
          "internalType": "address",
          "name": "from",
          "type": "address"
        },
        {
          "internalType": "address",
          "name": "to",
          "type": "address"
        },
        {
          "internalType": "uint256",
          "name": "amount",
          "type": "uint256"
        }
      ],
      "name": "cardSelfTransferPointsUpdate",
      "outputs": [],
      "stateMutability": "nonpayable",
      "type": "function"
    },
    {
      "inputs": [],
      "name": "cardSelfUpgradeType",
      "outputs": [
        {
          "internalType": "uint8",
          "name": "",
          "type": "uint8"
        }
      ],
      "stateMutability": "view",
      "type": "function"
    },
    {
      "inputs": [
        {
          "internalType": "address",
          "name": "subordinate",
          "type": "address"
        },
        {
          "internalType": "address",
          "name": "authorizer",
          "type": "address"
        }
      ],
      "name": "clearAdminMintCounterForSubordinate",
      "outputs": [],
      "stateMutability": "nonpayable",
      "type": "function"
    },
    {
      "inputs": [
        {
          "internalType": "address",
          "name": "refereeAA",
          "type": "address"
        }
      ],
      "name": "clearRefereeReferrer",
      "outputs": [],
      "stateMutability": "nonpayable",
      "type": "function"
    },
    {
      "inputs": [
        {
          "internalType": "bytes4",
          "name": "selector",
          "type": "bytes4"
        },
        {
          "internalType": "address",
          "name": "target",
          "type": "address"
        },
        {
          "internalType": "uint256",
          "name": "v1",
          "type": "uint256"
        },
        {
          "internalType": "uint256",
          "name": "v2",
          "type": "uint256"
        },
        {
          "internalType": "uint256",
          "name": "v3",
          "type": "uint256"
        }
      ],
      "name": "createProposal",
      "outputs": [
        {
          "internalType": "uint256",
          "name": "",
          "type": "uint256"
        }
      ],
      "stateMutability": "nonpayable",
      "type": "function"
    },
    {
      "inputs": [],
      "name": "currency",
      "outputs": [
        {
          "internalType": "enum BeamioCurrency.CurrencyType",
          "name": "",
          "type": "uint8"
        }
      ],
      "stateMutability": "view",
      "type": "function"
    },
    {
      "inputs": [],
      "name": "debugGateway",
      "outputs": [
        {
          "internalType": "address",
          "name": "",
          "type": "address"
        }
      ],
      "stateMutability": "view",
      "type": "function"
    },
    {
      "inputs": [],
      "name": "defaultAttrWhenNoTiers",
      "outputs": [
        {
          "internalType": "uint256",
          "name": "",
          "type": "uint256"
        }
      ],
      "stateMutability": "view",
      "type": "function"
    },
    {
      "inputs": [],
      "name": "deployer",
      "outputs": [
        {
          "internalType": "address",
          "name": "",
          "type": "address"
        }
      ],
      "stateMutability": "view",
      "type": "function"
    },
    {
      "inputs": [
        {
          "internalType": "uint256",
          "name": "",
          "type": "uint256"
        }
      ],
      "name": "expiresAt",
      "outputs": [
        {
          "internalType": "uint256",
          "name": "",
          "type": "uint256"
        }
      ],
      "stateMutability": "view",
      "type": "function"
    },
    {
      "inputs": [],
      "name": "expirySeconds",
      "outputs": [
        {
          "internalType": "uint256",
          "name": "",
          "type": "uint256"
        }
      ],
      "stateMutability": "view",
      "type": "function"
    },
    {
      "inputs": [],
      "name": "factoryGateway",
      "outputs": [
        {
          "internalType": "address",
          "name": "",
          "type": "address"
        }
      ],
      "stateMutability": "view",
      "type": "function"
    },
    {
      "inputs": [
        {
          "internalType": "address",
          "name": "userEOA",
          "type": "address"
        },
        {
          "internalType": "uint256",
          "name": "id",
          "type": "uint256"
        },
        {
          "internalType": "uint256",
          "name": "amount",
          "type": "uint256"
        }
      ],
      "name": "faucetByGateway",
      "outputs": [],
      "stateMutability": "nonpayable",
      "type": "function"
    },
    {
      "inputs": [
        {
          "internalType": "uint256",
          "name": "id",
          "type": "uint256"
        }
      ],
      "name": "faucetConfig",
      "outputs": [
        {
          "components": [
            {
              "internalType": "uint64",
              "name": "validUntil",
              "type": "uint64"
            },
            {
              "internalType": "uint64",
              "name": "perClaimMax",
              "type": "uint64"
            },
            {
              "internalType": "uint128",
              "name": "maxPerUser",
              "type": "uint128"
            },
            {
              "internalType": "uint128",
              "name": "maxGlobal",
              "type": "uint128"
            },
            {
              "internalType": "bool",
              "name": "enabled",
              "type": "bool"
            },
            {
              "internalType": "uint8",
              "name": "currency",
              "type": "uint8"
            },
            {
              "internalType": "uint8",
              "name": "decimals",
              "type": "uint8"
            },
            {
              "internalType": "uint128",
              "name": "priceInCurrency6",
              "type": "uint128"
            }
          ],
          "internalType": "struct FaucetStorage.FaucetConfig",
          "name": "",
          "type": "tuple"
        }
      ],
      "stateMutability": "view",
      "type": "function"
    },
    {
      "inputs": [],
      "name": "gateway",
      "outputs": [
        {
          "internalType": "address",
          "name": "",
          "type": "address"
        }
      ],
      "stateMutability": "view",
      "type": "function"
    },
    {
      "inputs": [
        {
          "internalType": "address",
          "name": "user",
          "type": "address"
        }
      ],
      "name": "getOwnership",
      "outputs": [
        {
          "internalType": "uint256",
          "name": "pt",
          "type": "uint256"
        },
        {
          "components": [
            {
              "internalType": "uint256",
              "name": "tokenId",
              "type": "uint256"
            },
            {
              "internalType": "uint256",
              "name": "attribute",
              "type": "uint256"
            },
            {
              "internalType": "uint256",
              "name": "tierIndexOrMax",
              "type": "uint256"
            },
            {
              "internalType": "uint256",
              "name": "expiry",
              "type": "uint256"
            },
            {
              "internalType": "bool",
              "name": "isExpired",
              "type": "bool"
            }
          ],
          "internalType": "struct NFTDetail[]",
          "name": "nfts",
          "type": "tuple[]"
        }
      ],
      "stateMutability": "view",
      "type": "function"
    },
    {
      "inputs": [
        {
          "internalType": "address",
          "name": "userEOA",
          "type": "address"
        }
      ],
      "name": "getOwnershipByEOA",
      "outputs": [
        {
          "internalType": "uint256",
          "name": "pt",
          "type": "uint256"
        },
        {
          "components": [
            {
              "internalType": "uint256",
              "name": "tokenId",
              "type": "uint256"
            },
            {
              "internalType": "uint256",
              "name": "attribute",
              "type": "uint256"
            },
            {
              "internalType": "uint256",
              "name": "tierIndexOrMax",
              "type": "uint256"
            },
            {
              "internalType": "uint256",
              "name": "expiry",
              "type": "uint256"
            },
            {
              "internalType": "bool",
              "name": "isExpired",
              "type": "bool"
            }
          ],
          "internalType": "struct NFTDetail[]",
          "name": "nfts",
          "type": "tuple[]"
        }
      ],
      "stateMutability": "view",
      "type": "function"
    },
    {
      "inputs": [
        {
          "internalType": "address",
          "name": "referrerAA",
          "type": "address"
        },
        {
          "internalType": "uint256",
          "name": "offset",
          "type": "uint256"
        },
        {
          "internalType": "uint256",
          "name": "pageSize",
          "type": "uint256"
        }
      ],
      "name": "getRefereesByReferrerPage",
      "outputs": [
        {
          "internalType": "address[]",
          "name": "referees",
          "type": "address[]"
        },
        {
          "internalType": "uint256[]",
          "name": "refereeChargeTotals6",
          "type": "uint256[]"
        },
        {
          "internalType": "uint256",
          "name": "total",
          "type": "uint256"
        },
        {
          "internalType": "uint256",
          "name": "nextOffset",
          "type": "uint256"
        }
      ],
      "stateMutability": "view",
      "type": "function"
    },
    {
      "inputs": [
        {
          "internalType": "uint256",
          "name": "offset",
          "type": "uint256"
        },
        {
          "internalType": "uint256",
          "name": "pageSize",
          "type": "uint256"
        }
      ],
      "name": "getReferrersPage",
      "outputs": [
        {
          "internalType": "address[]",
          "name": "referrers",
          "type": "address[]"
        },
        {
          "internalType": "uint256[]",
          "name": "referrerRewardBalances",
          "type": "uint256[]"
        },
        {
          "internalType": "uint256",
          "name": "total",
          "type": "uint256"
        },
        {
          "internalType": "uint256",
          "name": "nextOffset",
          "type": "uint256"
        }
      ],
      "stateMutability": "view",
      "type": "function"
    },
    {
      "inputs": [
        {
          "internalType": "uint256",
          "name": "offset",
          "type": "uint256"
        },
        {
          "internalType": "uint256",
          "name": "pageSize",
          "type": "uint256"
        }
      ],
      "name": "getRegisteredRefereesPage",
      "outputs": [
        {
          "internalType": "address[]",
          "name": "referees",
          "type": "address[]"
        },
        {
          "internalType": "uint256",
          "name": "total",
          "type": "uint256"
        },
        {
          "internalType": "uint256",
          "name": "nextOffset",
          "type": "uint256"
        }
      ],
      "stateMutability": "view",
      "type": "function"
    },
    {
      "inputs": [
        {
          "internalType": "address",
          "name": "a",
          "type": "address"
        }
      ],
      "name": "isAdmin",
      "outputs": [
        {
          "internalType": "bool",
          "name": "",
          "type": "bool"
        }
      ],
      "stateMutability": "view",
      "type": "function"
    },
    {
      "inputs": [
        {
          "internalType": "address",
          "name": "account",
          "type": "address"
        },
        {
          "internalType": "address",
          "name": "operator",
          "type": "address"
        }
      ],
      "name": "isApprovedForAll",
      "outputs": [
        {
          "internalType": "bool",
          "name": "",
          "type": "bool"
        }
      ],
      "stateMutability": "view",
      "type": "function"
    },
    {
      "inputs": [
        {
          "internalType": "address",
          "name": "effectiveTo",
          "type": "address"
        }
      ],
      "name": "isPointsTransferRecipientAllowed",
      "outputs": [
        {
          "internalType": "bool",
          "name": "",
          "type": "bool"
        }
      ],
      "stateMutability": "view",
      "type": "function"
    },
    {
      "inputs": [
        {
          "internalType": "address",
          "name": "refereeAA",
          "type": "address"
        }
      ],
      "name": "isRegisteredReferee",
      "outputs": [
        {
          "internalType": "bool",
          "name": "",
          "type": "bool"
        }
      ],
      "stateMutability": "view",
      "type": "function"
    },
    {
      "inputs": [
        {
          "internalType": "uint256",
          "name": "tokenId",
          "type": "uint256"
        }
      ],
      "name": "issuedNftPriceInCurrency6",
      "outputs": [
        {
          "internalType": "uint256",
          "name": "",
          "type": "uint256"
        }
      ],
      "stateMutability": "view",
      "type": "function"
    },
    {
      "inputs": [
        {
          "internalType": "uint256",
          "name": "tokenId",
          "type": "uint256"
        }
      ],
      "name": "issuedNftSharedMetadataHash",
      "outputs": [
        {
          "internalType": "bytes32",
          "name": "",
          "type": "bytes32"
        }
      ],
      "stateMutability": "view",
      "type": "function"
    },
    {
      "inputs": [],
      "name": "metadataBaseURI",
      "outputs": [
        {
          "internalType": "string",
          "name": "",
          "type": "string"
        }
      ],
      "stateMutability": "view",
      "type": "function"
    },
    {
      "inputs": [
        {
          "internalType": "address",
          "name": "userEOA",
          "type": "address"
        },
        {
          "internalType": "uint256",
          "name": "id",
          "type": "uint256"
        },
        {
          "internalType": "uint256",
          "name": "amount6",
          "type": "uint256"
        }
      ],
      "name": "mintFaucetByGateway",
      "outputs": [],
      "stateMutability": "nonpayable",
      "type": "function"
    },
    {
      "inputs": [
        {
          "internalType": "address",
          "name": "userEOA",
          "type": "address"
        },
        {
          "internalType": "uint256",
          "name": "tokenId",
          "type": "uint256"
        },
        {
          "internalType": "uint256",
          "name": "amount",
          "type": "uint256"
        }
      ],
      "name": "mintIssuedNftByGateway",
      "outputs": [],
      "stateMutability": "nonpayable",
      "type": "function"
    },
    {
      "inputs": [
        {
          "internalType": "address",
          "name": "to",
          "type": "address"
        },
        {
          "internalType": "uint256",
          "name": "tokenId",
          "type": "uint256"
        },
        {
          "internalType": "uint256",
          "name": "amount",
          "type": "uint256"
        }
      ],
      "name": "mintIssuedNftByOwner",
      "outputs": [],
      "stateMutability": "nonpayable",
      "type": "function"
    },
    {
      "inputs": [
        {
          "internalType": "address",
          "name": "userEOA",
          "type": "address"
        },
        {
          "internalType": "uint256",
          "name": "tokenId",
          "type": "uint256"
        }
      ],
      "name": "mintIssuedNftByUserSigClaim",
      "outputs": [],
      "stateMutability": "nonpayable",
      "type": "function"
    },
    {
      "inputs": [
        {
          "internalType": "address",
          "name": "user",
          "type": "address"
        },
        {
          "internalType": "uint256",
          "name": "tierIndex",
          "type": "uint256"
        }
      ],
      "name": "mintMemberCardByAdmin",
      "outputs": [],
      "stateMutability": "nonpayable",
      "type": "function"
    },
    {
      "inputs": [
        {
          "internalType": "address",
          "name": "user",
          "type": "address"
        },
        {
          "internalType": "uint256",
          "name": "points6",
          "type": "uint256"
        }
      ],
      "name": "mintPointsByAdmin",
      "outputs": [],
      "stateMutability": "nonpayable",
      "type": "function"
    },
    {
      "inputs": [
        {
          "internalType": "address",
          "name": "user",
          "type": "address"
        },
        {
          "internalType": "uint256",
          "name": "points6",
          "type": "uint256"
        },
        {
          "internalType": "address",
          "name": "operator",
          "type": "address"
        }
      ],
      "name": "mintPointsByAdminWithOperator",
      "outputs": [],
      "stateMutability": "nonpayable",
      "type": "function"
    },
    {
      "inputs": [
        {
          "internalType": "address",
          "name": "userEOA",
          "type": "address"
        },
        {
          "internalType": "uint256",
          "name": "points6",
          "type": "uint256"
        }
      ],
      "name": "mintPointsByGateway",
      "outputs": [],
      "stateMutability": "nonpayable",
      "type": "function"
    },
    {
      "inputs": [
        {
          "internalType": "address",
          "name": "userEOA",
          "type": "address"
        },
        {
          "internalType": "uint256",
          "name": "points6",
          "type": "uint256"
        },
        {
          "internalType": "address",
          "name": "operator",
          "type": "address"
        }
      ],
      "name": "mintPointsByGatewayWithOperator",
      "outputs": [],
      "stateMutability": "nonpayable",
      "type": "function"
    },
    {
      "inputs": [
        {
          "internalType": "address",
          "name": "payerAA",
          "type": "address"
        },
        {
          "internalType": "uint256",
          "name": "points6",
          "type": "uint256"
        },
        {
          "internalType": "address",
          "name": "operatorForStats",
          "type": "address"
        }
      ],
      "name": "mintPointsOpenContainerRelay",
      "outputs": [],
      "stateMutability": "nonpayable",
      "type": "function"
    },
    {
      "inputs": [
        {
          "internalType": "uint256",
          "name": "tokenId",
          "type": "uint256"
        }
      ],
      "name": "nftAttributes",
      "outputs": [
        {
          "internalType": "uint256",
          "name": "",
          "type": "uint256"
        }
      ],
      "stateMutability": "view",
      "type": "function"
    },
    {
      "inputs": [
        {
          "internalType": "uint256",
          "name": "tokenId",
          "type": "uint256"
        }
      ],
      "name": "nftExpiresAt",
      "outputs": [
        {
          "internalType": "uint256",
          "name": "",
          "type": "uint256"
        }
      ],
      "stateMutability": "view",
      "type": "function"
    },
    {
      "inputs": [
        {
          "internalType": "address",
          "name": "user",
          "type": "address"
        },
        {
          "internalType": "uint256",
          "name": "index",
          "type": "uint256"
        }
      ],
      "name": "nftInventoryAt",
      "outputs": [
        {
          "internalType": "uint256",
          "name": "",
          "type": "uint256"
        }
      ],
      "stateMutability": "view",
      "type": "function"
    },
    {
      "inputs": [
        {
          "internalType": "address",
          "name": "user",
          "type": "address"
        }
      ],
      "name": "nftInventoryLength",
      "outputs": [
        {
          "internalType": "uint256",
          "name": "",
          "type": "uint256"
        }
      ],
      "stateMutability": "view",
      "type": "function"
    },
    {
      "inputs": [
        {
          "internalType": "uint256",
          "name": "tokenId",
          "type": "uint256"
        }
      ],
      "name": "nftTierIndexOrMax",
      "outputs": [
        {
          "internalType": "uint256",
          "name": "",
          "type": "uint256"
        }
      ],
      "stateMutability": "view",
      "type": "function"
    },
    {
      "inputs": [],
      "name": "owner",
      "outputs": [
        {
          "internalType": "address",
          "name": "",
          "type": "address"
        }
      ],
      "stateMutability": "view",
      "type": "function"
    },
    {
      "inputs": [
        {
          "internalType": "address",
          "name": "user",
          "type": "address"
        }
      ],
      "name": "pointsBalanceOf",
      "outputs": [
        {
          "internalType": "uint256",
          "name": "",
          "type": "uint256"
        }
      ],
      "stateMutability": "view",
      "type": "function"
    },
    {
      "inputs": [],
      "name": "pointsUnitPriceInCurrencyE6",
      "outputs": [
        {
          "internalType": "uint256",
          "name": "",
          "type": "uint256"
        }
      ],
      "stateMutability": "view",
      "type": "function"
    },
    {
      "inputs": [
        {
          "internalType": "uint256",
          "name": "chargeRewardAmount",
          "type": "uint256"
        }
      ],
      "name": "previewReferrerRewardFromChargeReward",
      "outputs": [
        {
          "internalType": "uint256",
          "name": "",
          "type": "uint256"
        }
      ],
      "stateMutability": "view",
      "type": "function"
    },
    {
      "inputs": [
        {
          "internalType": "address",
          "name": "userEOA",
          "type": "address"
        },
        {
          "internalType": "uint256",
          "name": "tokenId",
          "type": "uint256"
        },
        {
          "internalType": "uint256",
          "name": "amount",
          "type": "uint256"
        },
        {
          "internalType": "address",
          "name": "payeeEOA",
          "type": "address"
        }
      ],
      "name": "purchaseIssuedNftWithPointsCharge",
      "outputs": [],
      "stateMutability": "nonpayable",
      "type": "function"
    },
    {
      "inputs": [
        {
          "internalType": "uint256",
          "name": "tokenId",
          "type": "uint256"
        },
        {
          "internalType": "uint256",
          "name": "amount",
          "type": "uint256"
        }
      ],
      "name": "quoteIssuedNftPurchasePoints6",
      "outputs": [
        {
          "internalType": "uint256",
          "name": "points6",
          "type": "uint256"
        },
        {
          "internalType": "uint256",
          "name": "totalPriceInCurrency6",
          "type": "uint256"
        }
      ],
      "stateMutability": "view",
      "type": "function"
    },
    {
      "inputs": [
        {
          "internalType": "address",
          "name": "operator",
          "type": "address"
        },
        {
          "internalType": "uint256",
          "name": "amount",
          "type": "uint256"
        }
      ],
      "name": "recordAdminBurnForStats",
      "outputs": [],
      "stateMutability": "nonpayable",
      "type": "function"
    },
    {
      "inputs": [
        {
          "internalType": "address",
          "name": "admin",
          "type": "address"
        },
        {
          "internalType": "uint256",
          "name": "amount",
          "type": "uint256"
        }
      ],
      "name": "recordAdminMintForStats",
      "outputs": [],
      "stateMutability": "nonpayable",
      "type": "function"
    },
    {
      "inputs": [
        {
          "internalType": "string",
          "name": "code",
          "type": "string"
        },
        {
          "internalType": "address",
          "name": "to",
          "type": "address"
        }
      ],
      "name": "redeemAdminByGateway",
      "outputs": [],
      "stateMutability": "nonpayable",
      "type": "function"
    },
    {
      "inputs": [
        {
          "internalType": "string[]",
          "name": "codes",
          "type": "string[]"
        },
        {
          "internalType": "address",
          "name": "userEOA",
          "type": "address"
        }
      ],
      "name": "redeemBatchByGateway",
      "outputs": [],
      "stateMutability": "nonpayable",
      "type": "function"
    },
    {
      "inputs": [
        {
          "internalType": "string",
          "name": "code",
          "type": "string"
        },
        {
          "internalType": "address",
          "name": "userEOA",
          "type": "address"
        }
      ],
      "name": "redeemByGateway",
      "outputs": [],
      "stateMutability": "nonpayable",
      "type": "function"
    },
    {
      "inputs": [
        {
          "internalType": "string",
          "name": "code",
          "type": "string"
        },
        {
          "internalType": "address",
          "name": "userEOA",
          "type": "address"
        }
      ],
      "name": "redeemPoolByGateway",
      "outputs": [],
      "stateMutability": "nonpayable",
      "type": "function"
    },
    {
      "inputs": [
        {
          "internalType": "address",
          "name": "refereeAA",
          "type": "address"
        }
      ],
      "name": "refereeChargePointsTotal6",
      "outputs": [
        {
          "internalType": "uint256",
          "name": "",
          "type": "uint256"
        }
      ],
      "stateMutability": "view",
      "type": "function"
    },
    {
      "inputs": [
        {
          "internalType": "address",
          "name": "referrerAA",
          "type": "address"
        }
      ],
      "name": "refereeCountByReferrer",
      "outputs": [
        {
          "internalType": "uint256",
          "name": "",
          "type": "uint256"
        }
      ],
      "stateMutability": "view",
      "type": "function"
    },
    {
      "inputs": [
        {
          "internalType": "address",
          "name": "refereeAA",
          "type": "address"
        }
      ],
      "name": "refereeReferrer",
      "outputs": [
        {
          "internalType": "address",
          "name": "",
          "type": "address"
        }
      ],
      "stateMutability": "view",
      "type": "function"
    },
    {
      "inputs": [],
      "name": "referrerRewardFromChargeRewardRatioE6",
      "outputs": [
        {
          "internalType": "uint256",
          "name": "",
          "type": "uint256"
        }
      ],
      "stateMutability": "view",
      "type": "function"
    },
    {
      "inputs": [],
      "name": "referrerTotalCount",
      "outputs": [
        {
          "internalType": "uint256",
          "name": "",
          "type": "uint256"
        }
      ],
      "stateMutability": "view",
      "type": "function"
    },
    {
      "inputs": [
        {
          "internalType": "address",
          "name": "refereeAA",
          "type": "address"
        }
      ],
      "name": "registerReferee",
      "outputs": [],
      "stateMutability": "nonpayable",
      "type": "function"
    },
    {
      "inputs": [],
      "name": "registeredRefereeTotalCount",
      "outputs": [
        {
          "internalType": "uint256",
          "name": "",
          "type": "uint256"
        }
      ],
      "stateMutability": "view",
      "type": "function"
    },
    {
      "inputs": [],
      "name": "renounceOwnership",
      "outputs": [],
      "stateMutability": "nonpayable",
      "type": "function"
    },
    {
      "inputs": [
        {
          "internalType": "address",
          "name": "adminAddr",
          "type": "address"
        }
      ],
      "name": "resetAdminLimit",
      "outputs": [],
      "stateMutability": "nonpayable",
      "type": "function"
    },
    {
      "inputs": [
        {
          "internalType": "address",
          "name": "adminAddr",
          "type": "address"
        },
        {
          "internalType": "address",
          "name": "authorizer",
          "type": "address"
        }
      ],
      "name": "resetAdminLimitByAdmin",
      "outputs": [],
      "stateMutability": "nonpayable",
      "type": "function"
    },
    {
      "inputs": [
        {
          "internalType": "address",
          "name": "from",
          "type": "address"
        },
        {
          "internalType": "address",
          "name": "to",
          "type": "address"
        },
        {
          "internalType": "uint256[]",
          "name": "ids",
          "type": "uint256[]"
        },
        {
          "internalType": "uint256[]",
          "name": "values",
          "type": "uint256[]"
        },
        {
          "internalType": "bytes",
          "name": "data",
          "type": "bytes"
        }
      ],
      "name": "safeBatchTransferFrom",
      "outputs": [],
      "stateMutability": "nonpayable",
      "type": "function"
    },
    {
      "inputs": [
        {
          "internalType": "address",
          "name": "from",
          "type": "address"
        },
        {
          "internalType": "address",
          "name": "to",
          "type": "address"
        },
        {
          "internalType": "uint256",
          "name": "id",
          "type": "uint256"
        },
        {
          "internalType": "uint256",
          "name": "value",
          "type": "uint256"
        },
        {
          "internalType": "bytes",
          "name": "data",
          "type": "bytes"
        }
      ],
      "name": "safeTransferFrom",
      "outputs": [],
      "stateMutability": "nonpayable",
      "type": "function"
    },
    {
      "inputs": [
        {
          "internalType": "address",
          "name": "operator",
          "type": "address"
        },
        {
          "internalType": "bool",
          "name": "approved",
          "type": "bool"
        }
      ],
      "name": "setApprovalForAll",
      "outputs": [],
      "stateMutability": "nonpayable",
      "type": "function"
    },
    {
      "inputs": [
        {
          "internalType": "uint256",
          "name": "attr",
          "type": "uint256"
        }
      ],
      "name": "setDefaultAttr",
      "outputs": [],
      "stateMutability": "nonpayable",
      "type": "function"
    },
    {
      "inputs": [
        {
          "internalType": "uint256",
          "name": "secs",
          "type": "uint256"
        }
      ],
      "name": "setExpirySeconds",
      "outputs": [],
      "stateMutability": "nonpayable",
      "type": "function"
    },
    {
      "inputs": [
        {
          "internalType": "uint256",
          "name": "priceInCurrencyE6",
          "type": "uint256"
        }
      ],
      "name": "setPointsUnitPrice",
      "outputs": [],
      "stateMutability": "nonpayable",
      "type": "function"
    },
    {
      "inputs": [
        {
          "internalType": "address",
          "name": "refereeAA",
          "type": "address"
        },
        {
          "internalType": "address",
          "name": "referrerAA",
          "type": "address"
        }
      ],
      "name": "setRefereeReferrer",
      "outputs": [],
      "stateMutability": "nonpayable",
      "type": "function"
    },
    {
      "inputs": [
        {
          "internalType": "uint256",
          "name": "ratioE6",
          "type": "uint256"
        }
      ],
      "name": "setReferrerRewardRatio",
      "outputs": [],
      "stateMutability": "nonpayable",
      "type": "function"
    },
    {
      "inputs": [
        {
          "components": [
            {
              "internalType": "uint256",
              "name": "minUsdc6",
              "type": "uint256"
            },
            {
              "internalType": "uint256",
              "name": "attr",
              "type": "uint256"
            },
            {
              "internalType": "uint256",
              "name": "tierExpirySeconds",
              "type": "uint256"
            }
          ],
          "internalType": "struct Tier[]",
          "name": "newTiers",
          "type": "tuple[]"
        }
      ],
      "name": "setTiers",
      "outputs": [],
      "stateMutability": "nonpayable",
      "type": "function"
    },
    {
      "inputs": [
        {
          "internalType": "address",
          "name": "target",
          "type": "address"
        },
        {
          "internalType": "bool",
          "name": "allowed",
          "type": "bool"
        }
      ],
      "name": "setTransferWhitelist",
      "outputs": [],
      "stateMutability": "nonpayable",
      "type": "function"
    },
    {
      "inputs": [
        {
          "internalType": "bool",
          "name": "enabled",
          "type": "bool"
        }
      ],
      "name": "setTransferWhitelistEnabled",
      "outputs": [],
      "stateMutability": "nonpayable",
      "type": "function"
    },
    {
      "inputs": [
        {
          "internalType": "bytes4",
          "name": "interfaceId",
          "type": "bytes4"
        }
      ],
      "name": "supportsInterface",
      "outputs": [
        {
          "internalType": "bool",
          "name": "",
          "type": "bool"
        }
      ],
      "stateMutability": "view",
      "type": "function"
    },
    {
      "inputs": [
        {
          "internalType": "uint256",
          "name": "",
          "type": "uint256"
        }
      ],
      "name": "tiers",
      "outputs": [
        {
          "internalType": "uint256",
          "name": "minUsdc6",
          "type": "uint256"
        },
        {
          "internalType": "uint256",
          "name": "attr",
          "type": "uint256"
        },
        {
          "internalType": "uint256",
          "name": "tierExpirySeconds",
          "type": "uint256"
        }
      ],
      "stateMutability": "view",
      "type": "function"
    },
    {
      "inputs": [
        {
          "internalType": "uint256",
          "name": "",
          "type": "uint256"
        }
      ],
      "name": "tokenTierIndexOrMax",
      "outputs": [
        {
          "internalType": "uint256",
          "name": "",
          "type": "uint256"
        }
      ],
      "stateMutability": "view",
      "type": "function"
    },
    {
      "inputs": [],
      "name": "totalActiveMemberships",
      "outputs": [
        {
          "internalType": "uint256",
          "name": "",
          "type": "uint256"
        }
      ],
      "stateMutability": "view",
      "type": "function"
    },
    {
      "inputs": [],
      "name": "totalMembershipIssued",
      "outputs": [
        {
          "internalType": "uint256",
          "name": "",
          "type": "uint256"
        }
      ],
      "stateMutability": "view",
      "type": "function"
    },
    {
      "inputs": [
        {
          "internalType": "uint256",
          "name": "",
          "type": "uint256"
        }
      ],
      "name": "totalMembershipIssuedByTierIndex",
      "outputs": [
        {
          "internalType": "uint256",
          "name": "",
          "type": "uint256"
        }
      ],
      "stateMutability": "view",
      "type": "function"
    },
    {
      "inputs": [],
      "name": "totalMembershipUpgraded",
      "outputs": [
        {
          "internalType": "uint256",
          "name": "",
          "type": "uint256"
        }
      ],
      "stateMutability": "view",
      "type": "function"
    },
    {
      "inputs": [],
      "name": "totalSupply",
      "outputs": [
        {
          "internalType": "uint256",
          "name": "",
          "type": "uint256"
        }
      ],
      "stateMutability": "view",
      "type": "function"
    },
    {
      "inputs": [
        {
          "internalType": "uint256",
          "name": "id",
          "type": "uint256"
        }
      ],
      "name": "totalSupply",
      "outputs": [
        {
          "internalType": "uint256",
          "name": "",
          "type": "uint256"
        }
      ],
      "stateMutability": "view",
      "type": "function"
    },
    {
      "inputs": [
        {
          "internalType": "address",
          "name": "newOwner",
          "type": "address"
        }
      ],
      "name": "transferOwnership",
      "outputs": [],
      "stateMutability": "nonpayable",
      "type": "function"
    },
    {
      "inputs": [
        {
          "internalType": "address",
          "name": "",
          "type": "address"
        }
      ],
      "name": "transferWhitelist",
      "outputs": [
        {
          "internalType": "bool",
          "name": "",
          "type": "bool"
        }
      ],
      "stateMutability": "view",
      "type": "function"
    },
    {
      "inputs": [],
      "name": "transferWhitelistEnabled",
      "outputs": [
        {
          "internalType": "bool",
          "name": "",
          "type": "bool"
        }
      ],
      "stateMutability": "view",
      "type": "function"
    },
    {
      "inputs": [
        {
          "internalType": "address",
          "name": "refereeAA",
          "type": "address"
        }
      ],
      "name": "unregisterReferee",
      "outputs": [],
      "stateMutability": "nonpayable",
      "type": "function"
    },
    {
      "inputs": [],
      "name": "upgradeType",
      "outputs": [
        {
          "internalType": "uint8",
          "name": "",
          "type": "uint8"
        }
      ],
      "stateMutability": "view",
      "type": "function"
    },
    {
      "inputs": [
        {
          "internalType": "uint256",
          "name": "",
          "type": "uint256"
        }
      ],
      "name": "uri",
      "outputs": [
        {
          "internalType": "string",
          "name": "",
          "type": "string"
        }
      ],
      "stateMutability": "view",
      "type": "function"
    }
  ],
  "bytecode": "0x60a0604052346104055761625e8038038061001981610409565b928339810160e0828203126104055781516001600160401b03811161040557820181601f820112156104055780516001600160401b03811161036657610068601f8201601f1916602001610409565b9281845260208284010111610405575f928160208094018483015e010152602081015160098110156104055760408201516100a56060840161042e565b916100b26080850161042e565b9360a08101519060ff82168092036104055760c00151928315158403610405576020945f6100df87610409565b52600254600181811c911680156103fb575b878210146103e757601f81116103b5575b505f6002556001600160a01b03169283156103a257600380546001600160a01b031981168617909155604051979085906001600160a01b03167f8be0079c531659141344cd1fd0a4f28419497f9722a3daafe3b4186f6b6457e05f80a3600160045560646019556001600160a01b038116908115908115610398575b50610389576002841161037a57336080528060018060a01b031960055416176005556006549160ff60a01b9060a01b169160018060a81b0319161717600655600755620f42407f669d986a32f5e30674d7f66bb8d44cc28fe3e0e39e2f1cd4349a57cbd64d6cc855620f42407f22c0a15d444e21db16bbb52e03d65846fb96a18771ae18cefb26e2b75b089ee25560ff19601a541617601a5560017fbc488d3e2575f0f2113dc4d9a0cd6bc52445c6bc28a8974ed97a6ba3ecfd657a55805f527fbc488d3e2575f0f2113dc4d9a0cd6bc52445c6bc28a8974ed97a6ba3ecfd657b835260405f20600160ff198254161790555f51602061623e5f395f51905f5254680100000000000000008110156103665760018101805f51602061623e5f395f51905f5255811015610352575f51602061623e5f395f51905f525f9081528490200180546001600160a01b031916909117905564174876e8007ffed699897f2561c8a98f833aa3de83c4904370d413fe5fb15abe26e9f8150b2955610317575b604051615dfb908161044382396080518161373a0152f35b7fc52867146282c253c04e94eb2a948478a1f7ef84cf2d6f5864facc99f2203f2c91600160ff19600a541617600a5560018152a15f806102ff565b634e487b7160e01b5f52603260045260245ffd5b634e487b7160e01b5f52604160045260245ffd5b63c7e283e160e01b5f5260045ffd5b63ab82bb9960e01b5f5260045ffd5b90503b155f61017e565b631e4fbdf760e01b5f525f60045260245ffd5b80156101025760025f52601f875f20910160051c905f5b8281106103da575050610102565b5f828201556001016103cc565b634e487b7160e01b5f52602260045260245ffd5b90607f16906100f1565b5f80fd5b6040519190601f01601f191682016001600160401b0381118382101761036657604052565b51906001600160a01b03821682036104055756fe60806040526004361015610021575b3461001d5761001b614a71565b005b5f80fd5b5f3560e01c80629019b214610840578062fdd58e1461083b57806301ffc9a714610836578063039af9eb1461083157806303ca3e381461082c57806304edc1a7146108275780630a106e9c146108225780630a96cefa1461081d5780630b6c8d71146108185780630cb85641146108135780630e4ab4871461080e5780630e89341c146108095780630ec3786b146108045780631018c34b146107ff57806310bba864146107fa578063116191b6146107645780631284b92f146107f5578063132220f0146107f057806315c39d9d146107eb57806317c957091461066057806318160ddd146107e65780631b09a97e146106d85780631c790e24146107e15780631fe56e6a146107dc57806324d7806c146107d7578063279181f3146107d25780632a27fc3c146107cd5780632aff2a59146107c85780632b681a54146107c35780632d0da7d2146107be5780632dd50a49146107b95780632df08b9c146107b45780632eb2c2d6146107af57806330617703146107aa57806333d4e562146107a55780633c703d45146107a05780633c970fb91461079b57806343159ce5146107965780634321976f14610791578063475e53ec1461078c57806348ed7ebe146107875780634932c0d61461078257806349dd09001461077d5780634a1fb451146107785780634dda2215146107735780634e1273f41461076e578063523046911461076957806353785619146107645780635476d0711461075f578063562178481461075a5780635637d5bc14610755578063564da757146107505780635932ab261461074b5780635cae09f2146107465780636465c3a714610741578063671395c81461073c578063684cc3a5146107375780636e636a8c14610732578063706e01321461072d578063715018a61461072857806371b8982f146105e35780637766fa44146107235780637d879f9b1461071e5780637e1ed94b146107195780637ffbe24114610714578063810b0e011461070f57806382b720c91461070a57806383dbbf53146107055780638842fe4614610700578063897828a8146106fb5780638a1b32bb146106f65780638abc9b25146106f15780638da5cb5b146106ec57806394b2e946146106e75780639557ff44146106e25780639565c542146106dd578063976ae386146106d857806398951b56146106d35780639a1ffd55146106ce5780639d712e3b146106c95780639f1bbda7146106c45780639f3d1a2a146106bf5780639f48facc146106ba578063a22cb465146106b5578063a4790446146106b0578063a657a65b146106ab578063a876c759146106a6578063a98d916e146106a1578063aad3d45e1461069c578063acf12d3d14610697578063af7ffa2b14610692578063b676a96c1461068d578063b6c12c5f146105e8578063b9ad3aa714610688578063bd85b03914610683578063bdf70fd91461067e578063bf70f55914610679578063c163292e14610674578063c231c2a71461066f578063c926bbfd1461066a578063cb94096914610665578063cb975e8114610660578063cc73bcbe1461065b578063d05dcc6a1461064c578063d4506e7714610656578063d4772f5214610651578063d4b5d6031461064c578063d52dc51514610647578063d5f3948814610642578063d85fa3621461063d578063dd1bc5e914610638578063df1f44ac14610633578063df6811dd1461062e578063e221c8f314610629578063e2f9727114610624578063e4a34dce1461061f578063e5a6b10f1461061a578063e5df8c2f14610615578063e985e9c514610610578063ea2b86721461060b578063eae134fd14610606578063ec12577114610601578063ee3bb7b8146105fc578063f141b0a1146105f7578063f242432a146105f2578063f2fde38b146105ed578063f540f227146105e8578063f986f676146105e3578063fcef6b01146105de578063fee3d73e146105d9578063ff9b25f4146105d45763ffa1ad740361000e57613ee5565b613e2d565b613e0d565b613df0565b612568565b61327d565b613d79565b613c9f565b613c21565b613c06565b613bb4565b613b04565b613a65565b613a34565b6139c9565b61399d565b61395f565b6138e7565b613895565b61386e565b6137de565b613788565b613769565b613725565b613703565b6135f4565b613676565b61361e565b6135c5565b61131a565b613595565b61357b565b613552565b6134af565b613360565b61333c565b6132f3565b6132a7565b6131d0565b61315d565b613140565b613111565b6130f2565b6130d5565b61307a565b613012565b612f87565b612e29565b612d72565b612d55565b612d1a565b612ced565b612c6b565b611380565b612c43565b612bf0565b612bb5565b612b8d565b612aac565b6129f6565b612994565b612915565b6128b3565b6127bb565b61277b565b61273b565b6126b3565b612683565b6125b5565b6124e8565b612469565b6123cd565b61234f565b612314565b612287565b612228565b6121e7565b612174565b612159565b61212f565b612112565b611168565b612054565b611f93565b611f32565b611f02565b611e9f565b611e1b565b611d4a565b611cbd565b611bbb565b611a65565b6119d8565b61198f565b61195e565b6118fb565b611867565b61168d565b61166e565b61163d565b611618565b611593565b611510565b6114ad565b611478565b61144e565b6113b0565b611344565b6112a1565b611286565b61122a565b611129565b6110c2565b611066565b610f9f565b610f51565b610ef4565b610e3c565b610d12565b610c11565b610b83565b610a42565b6109d8565b61091f565b6108d1565b610862565b6001600160a01b031690565b6001600160a01b0381160361001d57565b3461001d57604036600319011261001d5760043561087f81610851565b602435903033036108c2576040519182526001600160a01b0316907f3e38a9410c08ddb4af8b083bfd2b197b1c3e61a651bd1c54c51ebce0cdcdc48e90602090a2005b630fc5e1ab60e41b5f5260045ffd5b3461001d57604036600319011261001d5760206109046004356108f381610851565b6024355f525f835260405f20611200565b54604051908152f35b6001600160e01b031981160361001d57565b3461001d57602036600319011261001d57602060043561093e8161090d565b63ffffffff60e01b16636cdb3d1360e11b811490811561097c575b811561096b575b506040519015158152f35b6301ffc9a760e01b1490505f610960565b6303a24d0760e21b81149150610959565b634e487b7160e01b5f52603260045260245ffd5b6017548110156109bd5760175f52600360205f20910201905f90565b61098d565b6040919493926060820195825260208201520152565b3461001d57602036600319011261001d5760043560175481101561001d576109ff906109a1565b508054610a1b60026001840154930154604051938493846109c2565b0390f35b606090600319011261001d57600435610a3781610851565b906024359060443590565b3461001d57610a5036610a1f565b6006545f9391906001600160a01b031680610b0957506005546001600160a01b03165b6001600160a01b03163303610afa57610a8a614b4c565b73__$3eaf591ed8966daf2821da51125ab266f1$__803b1561001d57610aca935f9360405195869485938493636f246bab60e11b85523060048601613f00565b03915af48015610af557610ae2575b50600160045580f35b610aee91505f90611752565b5f5f610ad9565b613f2a565b6396f47d2360e01b5f5260045ffd5b610a73565b6044359060ff8216820361001d57565b9181601f8401121561001d578235916001600160401b03831161001d576020838186019501011161001d57565b805180835260209291819084018484015e5f828201840152601f01601f1916010190565b906020610b80928181520190610b4b565b90565b3461001d57604036600319011261001d5760043560ff8116810361001d576024356001600160401b03811161001d57610bc0903690600401610b1e565b913033036108c257610bda610be092610a1b943691611816565b90614bc6565b60405191829182610b6f565b604090600319011261001d57600435610c0481610851565b90602435610b8081610851565b3461001d57610c1f36610bec565b6006545f92906001600160a01b031680610caf57506005546001600160a01b03165b6001600160a01b03163303610afa5773__$3c477d5d68b513e5270f7570f908764970$__91823b1561001d5760405163055a8d8160e51b8152925f92849283918291610c91913060048501613f35565b03915af48015610af557610ca3575080f35b61001b91505f90611752565b610c41565b90602080835192838152019201905f5b818110610cd15750505090565b82516001600160a01b0316845260209384019390920191600101610cc4565b610d0860409295949395606083526060830190610cb4565b9460208201520152565b3461001d57604036600319011261001d5760405163054b677d60e11b81525f8180610d4560243560048035908401612cdc565b038173__$d22e98e2656d9a6189be97d809b75d9ca7$__5af48015610af5575f905f925f91610d80575b50610a1b9060405193849384610cf0565b925050503d805f833e610d938183611752565b810160608282031261001d578151906001600160401b03821161001d57610dbb918301613f63565b6020820151604090920151610a1b610d6f565b6060602091604081019381526040838201528451809452019201905f5b818110610df85750505090565b909192602060a06001926080875180518352848101518584015260408101516040840152606081015160608401520151151560808201520194019101919091610deb565b3461001d57602036600319011261001d57610e856020600435610e5e81610851565b60055460405163805a016360e01b815293849283926001600160a01b0316600484016143ae565b038173__$a9219284c3f0d74f57f4dcfc58f5429559$__5af48015610af557610eb5915f91610ec5575b50614094565b90610a1b60405192839283610dce565b610ee7915060203d602011610eed575b610edf8183611752565b8101906141c8565b5f610eaf565b503d610ed5565b3461001d57604036600319011261001d57600435610f1181610851565b600654602435906001600160a01b031680610f4c57506005546001600160a01b03165b6001600160a01b03163303610afa5761001b91614bdf565b610f34565b3461001d57602036600319011261001d57600435610f6d614d0d565b7ff316e065e93b4fddef3d2d93a57817985081f76ea9e0ca7417ed5b4b086b1fcb6020601854604051908152a1601855005b3461001d57602036600319011261001d57610fde5f610fbc614d62565b604051809381926319c56d4160e21b8352604060048401526044830190610b4b565b306024830152038173__$9326044641c87b14e434c703319e7fbd9b$__5af48015610af557610a1b915f9161101b575b5060405191829182610b6f565b61103791503d805f833e61102f8183611752565b810190613fca565b5f61100e565b606090600319011261001d5760043561105581610851565b9060243590604435610b8081610851565b3461001d576110743661103d565b6006549091906001600160a01b0316806110bd57506005546001600160a01b03165b6001600160a01b03163303610afa576110b6926110b1614b4c565b614dd1565b6001600455005b611096565b3461001d57604036600319011261001d576004356110df81610851565b600654602435906001600160a01b03168061111a57506005546001600160a01b03165b6001600160a01b03163303610afa5761001b91614e2e565b611102565b5f91031261001d57565b3461001d575f36600319011261001d57602060405160068152f35b6001600160a01b0316600452602490565b6001600160a01b03909116815260200190565b3461001d575f36600319011261001d576005546040516001600160a01b039091168152602090f35b6001600160a01b03165f9081527fbc488d3e2575f0f2113dc4d9a0cd6bc52445c6bc28a8974ed97a6ba3ecfd657b6020526040902090565b6001600160a01b03165f9081527fbe5c2328713858b26c97b83c5ace333ac35b55572be4794180ba426b12cc48c46020526040902090565b9060018060a01b03165f5260205260405f2090565b80548210156109bd575f5260205f2001905f90565b3461001d57604036600319011261001d5760043561124781610851565b6001600160a01b03165f908152600e602052604090208054602435919082101561001d5760209161127791611215565b90549060031b1c604051908152f35b3461001d575f36600319011261001d57602060405160018152f35b3461001d57604036600319011261001d576004356112be81610851565b6024356001600160401b03811161001d576112dd903690600401610b1e565b903033036108c2575f83838293610a1b956040519283928337810184815203915af461130761402c565b5060405190151581529081906020820190565b3461001d57602036600319011261001d576004355f52600b602052602060405f2054604051908152f35b3461001d575f36600319011261001d5760207fd34312c2e21f45f2b6715cf87d9e919b2098c835582e2b5c6e716490b0dfd0d554604051908152f35b3461001d57604036600319011261001d5760043561139d81610851565b6024353033036108c25761001b91614725565b3461001d575f604036600319011261001d576004356024356113d181610851565b6006546001600160a01b03168061144957506005546001600160a01b03165b6001600160a01b03163303610afa5773__$9c8bea727f7bd63306a827421d136dff37$__9061141d614efd565b91803b1561001d57610c91935f9360405195869485938493634961ea3960e01b8552306004860161405b565b6113f0565b3461001d57602036600319011261001d576004355f526011602052602060405f2054604051908152f35b3461001d57602036600319011261001d57602060ff6114a160043561149c81610851565b611190565b54166040519015158152f35b3461001d57606036600319011261001d576024356004356114cd82610851565b604435913033036108c2576040519283526001600160a01b0316917fae2f87dbf103db294ddd4ab45caa7a914d70bb3d06eeb8a8dc23e03e84548c8d90602090a3005b3461001d575f36600319011261001d57604051630a89ff0f60e21b815260208160048173__$d22e98e2656d9a6189be97d809b75d9ca7$__5af4908115610af5575f91611564575b50604051908152602090f35b611586915060203d60201161158c575b61157e8183611752565b810190614085565b5f611558565b503d611574565b3461001d576115a136610bec565b6006545f92906001600160a01b03168061161357506005546001600160a01b03165b6001600160a01b03163303610afa5773__$3c477d5d68b513e5270f7570f908764970$__91823b1561001d57604051638461257560e01b8152925f92849283918291610c91913060048501613f35565b6115c3565b3461001d57602036600319011261001d57610eb560043561163881610851565b614094565b3461001d57602036600319011261001d57602061090460043561165f81610851565b5f80525f835260405f20611200565b3461001d576110b661167f3661103d565b91611688614b4c565b6141f2565b3461001d57602036600319011261001d576004356116aa81610851565b60018060a01b03165f527f22c0a15d444e21db16bbb52e03d65846fb96a18771ae18cefb26e2b75b089ee9602052602060405f2054604051908152f35b634e487b7160e01b5f52604160045260245ffd5b606081019081106001600160401b0382111761171657604052565b6116e7565b61010081019081106001600160401b0382111761171657604052565b60a081019081106001600160401b0382111761171657604052565b601f909101601f19168101906001600160401b0382119082101761171657604052565b6040519061178561010083611752565b565b6001600160401b0381116117165760051b60200190565b9080601f8301121561001d5781356117b581611787565b926117c36040519485611752565b81845260208085019260051b82010192831161001d57602001905b8282106117eb5750505090565b81358152602091820191016117de565b6001600160401b03811161171657601f01601f191660200190565b929192611822826117fb565b916118306040519384611752565b82948184528183011161001d578281602093845f960137010152565b9080601f8301121561001d57816020610b8093359101611816565b3461001d5760a036600319011261001d5760043561188481610851565b6024359061189182610851565b6044356001600160401b03811161001d576118b090369060040161179e565b6064356001600160401b03811161001d576118cf90369060040161179e565b608435939091906001600160401b03851161001d576118f561001b95369060040161184c565b936143c8565b3461001d57602036600319011261001d5760043561191881610851565b6001600160a01b039081165f9081527f22c0a15d444e21db16bbb52e03d65846fb96a18771ae18cefb26e2b75b089ee16020908152604091829020549151919092168152f35b3461001d57602036600319011261001d57602061198560043561198081610851565b614421565b6040519015158152f35b3461001d57602036600319011261001d576004355f527ffed699897f2561c8a98f833aa3de83c4904370d413fe5fb15abe26e9f8150b30602052602060405f2054604051908152f35b3461001d57604036600319011261001d576110b66004356119f881610851565b60243590611a04614b4c565b611a0c614d0d565b601354601454604051635bcc7ca960e11b60208201526001600160a01b03909316602484015260448084019490945292825290611a5390611a4e606482611752565b614b6c565b506003546001600160a01b0316614fc4565b3461001d57604036600319011261001d57600435611a8281610851565b6024356006546001600160a01b031680611bb657506005546001600160a01b03165b6001600160a01b03163303610afa57611abb614b4c565b9081906001600160a01b03811615611ba757611ad690615025565b5f80805260205290611afa825f516020615dcf5f395f51905f52611200565b611200565b54908115611b6e575f1914611b9f575b808311611b7d57508115611b6e57611b6181611b47847fcfaedf921126ed75cd0b52e9418d816572c256b67104e03066bd3f067f2d53c09461507e565b6040519384526001600160a01b0316929081906020820190565b0390a261001b6001600455565b63201165f360e21b5f5260045ffd5b60405163406e3ab960e01b8152928392611b9b929060048501614489565b0390fd5b915081611b0a565b63a9b8048960e01b5f5260045ffd5b611aa4565b3461001d57608036600319011261001d57600435611bd881610851565b60443590602435606435611beb81610851565b6006546001600160a01b031680611cb857506005546001600160a01b03165b6001600160a01b03163303610afa57611c21614b4c565b6007549273__$ff68ecfc9a6b7df0c313e683766fad5a92$__803b1561001d575f9460c4936040519788968795639120622d60e01b875230600488015260018060a01b031660248701526044860152606485015260018060a01b0316608484015260a48301525af48015610af557611c9e575b61001b6001600455565b80611cac5f611cb293611752565b8061111f565b5f611c94565b611c0a565b3461001d57611ccb36610a1f565b6006545f9391906001600160a01b031680611d4557506005546001600160a01b03165b6001600160a01b03163303610afa57611d05614b4c565b73__$ff68ecfc9a6b7df0c313e683766fad5a92$__803b1561001d57610aca935f93604051958694859384936302f46e9b60e41b85523060048601613f00565b611cee565b3461001d57611d583661103d565b6006549192916001600160a01b031680611e1657506005546001600160a01b03165b6001600160a01b03163303610afa57611d91614b4c565b611dab611da7611da083611190565b5460ff1690565b1590565b611e075773__$91c961bf2335aa1fea43924da854687380$__803b1561001d57611def935f936040519586948593849363298a0b4f60e01b8552306004860161405b565b03915af48015610af557611c9e5761001b6001600455565b6363bc5ecb60e11b5f5260045ffd5b611d7a565b3461001d57602036600319011261001d5760405163272048d960e01b8152600480359082015260208160248173__$d22e98e2656d9a6189be97d809b75d9ca7$__5af48015610af557610a1b915f91611e80575b506040519081529081906020820190565b611e99915060203d60201161158c5761157e8183611752565b5f611e6f565b3461001d57602036600319011261001d57600435611ebc81610851565b6001600160a01b039081165f9081527fbc488d3e2575f0f2113dc4d9a0cd6bc52445c6bc28a8974ed97a6ba3ecfd65816020908152604091829020549151919092168152f35b3461001d57604036600319011261001d57600435611f1f81610851565b6024353033036108c25761001b916150b5565b3461001d575f36600319011261001d576020600754604051908152f35b90602080835192838152019201905f5b818110611f6c5750505090565b8251845260209384019390920191600101611f5f565b906020610b80928181520190611f4f565b3461001d57604036600319011261001d576004356001600160401b03811161001d573660238201121561001d57806004013590611fcf82611787565b91611fdd6040519384611752565b8083526024602084019160051b8301019136831161001d57602401905b82821061203a57836024356001600160401b03811161001d57610a1b9161202861202e92369060040161179e565b90614515565b60405191829182611f82565b60208091833561204981610851565b815201910190611ffa565b3461001d57602036600319011261001d5760043561207181610851565b6120796150fb565b6120828161512a565b73__$d22e98e2656d9a6189be97d809b75d9ca7$__90813b1561001d57604051635230469160e01b81526001600160a01b0390911660048201819052915f90829060249082905af48015610af5576120fe575b5033907fb414de90006d2f0dee7e12639f50b309b8fbca8e8e9323c07fd358cef0ce92085f80a3005b80611cac5f61210c93611752565b5f6120d5565b3461001d575f36600319011261001d576020601554604051908152f35b3461001d57602036600319011261001d576004355f526012602052602060405f2054604051908152f35b3461001d575f36600319011261001d57602060405160648152f35b3461001d575f604036600319011261001d5760043561219281610851565b6024359061219e614b4c565b6121a6614d0d565b73__$91c961bf2335aa1fea43924da854687380$__91823b1561001d57604051636042127160e11b8152925f92849283918291610aca91306004850161458f565b3461001d57602036600319011261001d5760043561220481610851565b3033036108c257612216602091615025565b6040516001600160a01b039091168152f35b3461001d57602036600319011261001d5760043561224581610851565b60018060a01b03165f527f22c0a15d444e21db16bbb52e03d65846fb96a18771ae18cefb26e2b75b089ee0602052602060ff60405f2054166040519015158152f35b3461001d5761229536610a1f565b6006545f9391906001600160a01b03168061230f57506005546001600160a01b03165b6001600160a01b03163303610afa576122cf614b4c565b73__$3eaf591ed8966daf2821da51125ab266f1$__803b1561001d57610aca935f936040519586948593849363379d191f60e01b85523060048601613f00565b6122b8565b3461001d57602036600319011261001d5760043561233181610851565b60018060a01b03165f52600f602052602060405f2054604051908152f35b3461001d57602036600319011261001d576004355f527ffed699897f2561c8a98f833aa3de83c4904370d413fe5fb15abe26e9f8150b2d602052602060405f2054604051908152f35b906060926123b56123c39297969597608085526080850190610cb4565b908382036020850152611f4f565b9460408201520152565b3461001d57604036600319011261001d57604051631b98daa360e21b81525f818061240060243560048035908401612cdc565b038173__$d22e98e2656d9a6189be97d809b75d9ca7$__5af48015610af5575f5f915f5f9161243b575b90610a1b9160405194859485612398565b5050505061245d610a1b913d805f833e6124558183611752565b81019061460e565b9193508392919061242a565b3461001d5761247736610a1f565b612482929192614b4c565b61248a614d0d565b6001600160a01b03821615611ba7578015611b6e576124bd73__$ff68ecfc9a6b7df0c313e683766fad5a92$__92615025565b91803b1561001d57611def935f9360405195869485938493626fbc3360e31b85523060048601613f00565b3461001d575f36600319011261001d576125006151f7565b600380546001600160a01b031981169091555f906001600160a01b03165f516020615daf5f395f51905f528280a3005b604060031982011261001d57600435906001600160401b03821161001d5761255a91600401610b1e565b9091602435610b8081610851565b3461001d5761257636612530565b6006549091906001600160a01b0316806125b057506005546001600160a01b03165b6001600160a01b03163303610afa5761001b92614665565b612598565b3461001d576125c336612530565b6006546001600160a01b03168061267e57506005546001600160a01b03165b6001600160a01b03163303610afa576125f9614b4c565b73__$14fcd45fd929aea0b8f272435d174b619d$__612616614efd565b93813b1561001d575f9361264f936040519687958694859463add0055d60e01b86523060048701526080602487015260848601916146f2565b6001600160a01b0392831660448501529116606483015203915af48015610af557611c9e5761001b6001600455565b6125e2565b3461001d57604036600319011261001d576004356126a081610851565b6024353033036108c25761001b9161521e565b3461001d5760c036600319011261001d576004356126d081610851565b602435906126dd82610851565b604435916064359060843560a435913033036108c2576127367fd8315aa093986599acfce9ddc9df890135154ffe58abebb49d1874c03575f9d99360405193849360018060a01b03169760018060a01b031696846109c2565b0390a4005b3461001d57602036600319011261001d5760043561275881610851565b60018060a01b03165f526009602052602060ff60405f2054166040519015158152f35b3461001d57604036600319011261001d57602061127760043561279d81610851565b6001600160a01b03165f908152600e83526040902060243590611215565b3461001d5760a036600319011261001d576004356127d88161090d565b6024356127e481610851565b604435606435906084356006549093906001600160a01b0316806128ae57506005546001600160a01b03165b6001600160a01b03163303610afa57612827614efd565b6040516333033a9960e21b81523060048201526001600160a01b0391821660248201526001600160e01b03199096166044870152166064850152608484015260a483015260c482015260208160e48173__$9c8bea727f7bd63306a827421d136dff37$__5af48015610af557610a1b915f91611e8057506040519081529081906020820190565b612810565b3461001d57602036600319011261001d576004356128cf614d0d565b8015612906576020817fd45b01a2f21a7aa8a0f57023efdce73147de071e77875c3f4d486b1e13eaef7092600755604051908152a1005b6376024b7160e01b5f5260045ffd5b3461001d5761292336610a1f565b6040516344217f2360e11b81526001600160a01b039093166004840152602483019190915260448201525f8160648173__$d22e98e2656d9a6189be97d809b75d9ca7$__5af48015610af5575f5f915f5f9161243b5790610a1b9160405194859485612398565b8015150361001d57565b3461001d57602036600319011261001d577fc52867146282c253c04e94eb2a948478a1f7ef84cf2d6f5864facc99f2203f2c60206004356129d48161298a565b6129dc614d0d565b151560ff19600a541660ff821617600a55604051908152a1005b3461001d57602036600319011261001d57600435612a1381610851565b6006546001600160a01b031680612aa757506005546001600160a01b03165b6001600160a01b03163303610afa5773__$3c477d5d68b513e5270f7570f908764970$__90813b1561001d57604051630c94249760e21b81523060048201526001600160a01b039091166024820152905f90829060449082905af48015610af557612a9957005b80611cac5f61001b93611752565b612a32565b3461001d57606036600319011261001d57604435600435602435612ace614d0d565b8115612b7e576017549060405193612ae5856116fb565b83855260208501918083526040860195828752600160401b8510156117165760018501601755612b14856109a1565b919091612b79577fc9553df3224b08515381089b4a0e07d62144ba87c402485fabd66899cadc2ab197612b749560029251845551600184015551910155604051948594859094939260609260808301968352602083015260408201520152565b0390a1005b614712565b639033099360e01b5f5260045ffd5b3461001d575f36600319011261001d576003546040516001600160a01b039091168152602090f35b3461001d57602036600319011261001d57600435612bd281610851565b60018060a01b03165f526010602052602060405f2054604051908152f35b3461001d575f36600319011261001d57604051632555ffd160e21b815260208160048173__$d22e98e2656d9a6189be97d809b75d9ca7$__5af4908115610af5575f916115645750604051908152602090f35b3461001d575f36600319011261001d576006546040516001600160a01b039091168152602090f35b3461001d575f602036600319011261001d5760043560ff612c8b33611190565b541615611e075773__$9c8bea727f7bd63306a827421d136dff37$__90612cb0614efd565b90823b1561001d57604051633225b39f60e01b8152925f92849283918291610c9191306004850161458f565b908152602081019190915260400190565b3461001d575f36600319011261001d573033036108c25760135460145490610a1b60405192839283612cdc565b3461001d57602036600319011261001d57600435612d3781610851565b60018060a01b03165f52600e602052602060405f2054604051908152f35b3461001d575f36600319011261001d576020600854604051908152f35b3461001d575f36600319011261001d57610a1b612d8d614d62565b604051918291602083526020830190610b4b565b81516001600160401b039081168252602080840151909116908201526040808301516001600160801b03908116918301919091526060808401519091169082015261010081019291611785919060e090819060808181015115159085015260a08181015160ff169085015260c08181015160ff169085015201516001600160801b0316910152565b3461001d57602036600319011261001d576004355f60e0604051612e4c8161171b565b8281528260208201528260408201528260608201528260808201528260a08201528260c082015201525f527fe5fcefe92466b78c655fa732b80b16e07a00f2a897e833e17d9914703cad5632602052610a1b60405f20612f56612f46600260405193612eb78561171b565b80546001600160401b038082168752604082901c166020870152612ee89060801c6001600160801b03166040870152565b60018101546001600160801b0381166060870152612f3890612f2e90612f18608082901c60ff16151560808a0152565b60ff608882901c1660a089015260901c60ff1690565b60ff1660c0870152565b01546001600160801b031690565b6001600160801b031660e0830152565b60405191829182612da1565b604090600319011261001d57600435612f7a81610851565b90602435610b808161298a565b3461001d57612f9536612f62565b6001600160a01b0382169182156130005781612fbf612fd092335f52600160205260405f20611200565b9060ff801983541691151516179055565b60405190151581527f17307eab39ab6107e8899845ad3d59bd9653f200f220920489ca2b5937696c3160203392a3005b62ced3e160e81b5f525f60045260245ffd5b3461001d57604036600319011261001d576004356001600160401b03811161001d573660238201121561001d576004810135906001600160401b03821161001d573660248360051b8301011161001d5761001b91602480359261307484610851565b01614751565b3461001d57602036600319011261001d576004356001600160401b03811161001d573660238201121561001d5760048101356001600160401b03811161001d57366024606083028401011161001d57602461001b920161495a565b3461001d575f36600319011261001d576020601854604051908152f35b3461001d575f36600319011261001d57602060405164174876e8008152f35b3461001d575f36600319011261001d573033036108c2576003546040516001600160a01b039091168152602090f35b3461001d575f36600319011261001d576020601354604051908152f35b3461001d57604036600319011261001d5760043561317a81610851565b60065460243591906001600160a01b0316806131cb57506005546001600160a01b03165b6001600160a01b03163303610afa576110b6916131b9614b4c565b6003546001600160a01b031691614dd1565b61319e565b3461001d57604036600319011261001d576007546040805163cc383d9f60e01b8152918290819061320a90602435600480359085016109c2565b038173__$ff68ecfc9a6b7df0c313e683766fad5a92$__5af4908115610af5575f905f92613243575b50610a1b60405192839283612cdc565b9150506040813d604011613275575b8161325f60409383611752565b8101031261001d5760208151910151905f613233565b3d9150613252565b3461001d57602036600319011261001d576004355f52600d602052602060405f2054604051908152f35b3461001d575f36600319011261001d573033036108c25760ff60065460a01c1660098110156132df5760405160ff9091168152602090f35b634e487b7160e01b5f52602160045260245ffd5b3461001d57602036600319011261001d576004355f527fd34312c2e21f45f2b6715cf87d9e919b2098c835582e2b5c6e716490b0dfd0d4602052602060405f2054604051908152f35b3461001d575f36600319011261001d573033036108c2576020600754604051908152f35b3461001d5761336e36610a1f565b913033036108c257602092604051926133878585611752565b5f84526001600160a01b03831691821561349c576133a4916157ad565b916133b18383865f61549d565b81516001036133ce5750938061001b950151910151915f33615cd0565b83949192933b6133da57005b613400935f87946040519687958694859363bc197c8160e01b8552853360048701615c44565b03925af15f918161346d575b5061343e575061341a61402c565b805192908361343957632bfa23e760e11b5f5261343683611144565b5ffd5b019050fd5b9091506001600160e01b0319166343e6837f60e01b0161345a57005b632bfa23e760e11b5f5261343690611144565b61348e919250843d8611613495575b6134868183611752565b810190615c2f565b905f61340c565b503d61347c565b632bfa23e760e11b5f525f60045260245ffd5b3461001d57602036600319011261001d576004356134cc81610851565b6134d46150fb565b73__$d22e98e2656d9a6189be97d809b75d9ca7$__90813b1561001d576040516360b1949760e11b81526001600160a01b0390911660048201819052915f90829060249082905af48015610af55761353e575b505f33915f516020615d6f5f395f51905f528280a4005b80611cac5f61354c93611752565b5f613527565b3461001d575f36600319011261001d5760205f516020615d8f5f395f51905f5254604051908152f35b3461001d575f36600319011261001d5760206040515f8152f35b3461001d57604036600319011261001d576004356135b281610851565b6024353033036108c25761001b916149f7565b3461001d57602036600319011261001d576004356135e281610851565b3033036108c257611985602091615359565b3461001d57602036600319011261001d576004355f52600c602052602060405f2054604051908152f35b3461001d57602036600319011261001d5760043561363a614d0d565b7f1c8121c98d871a1523a6112e29ac660378afbcb9b921cff8f187c3da35d170818160085461366e60405192839283612cdc565b0390a1600855005b3461001d5760a036600319011261001d5760043561369381610851565b60243561369f81610851565b6136a7610b0e565b90606435608435913033036108c2577faec7eac010683474b50da2ca2793836009e34ef09022b5ec5d16de3342dbb7469260609260ff604051961686526020860152604085015260018060a01b03169360018060a01b031692a3005b3461001d575f36600319011261001d57602060ff600a54166040519015158152f35b3461001d575f36600319011261001d576040517f00000000000000000000000000000000000000000000000000000000000000006001600160a01b03168152602090f35b3461001d5761377736610a1f565b903033036108c25761001b92614fc4565b3461001d57602036600319011261001d576004355f526016602052602060405f2054604051908152f35b606090600319011261001d576004356137ca81610851565b906024356137d781610851565b9060443590565b3461001d576137ec366137b2565b91903033036108c2575f808052602052613813825f516020615dcf5f395f51905f52611200565b5480841161385057506138246144ad565b9061382d6144ad565b928251156109bd575f60208401528351156109bd5761001b94602085015261549d565b82611b9b8560405193849363406e3ab960e01b855260048501614489565b3461001d575f36600319011261001d573033036108c257602060ff601a5416604051908152f35b3461001d576138a3366137b2565b903033036108c2576040519182526001600160a01b039081169216907f6ac4f60455173f2148d89d52868ac4ffb14111720d245aa36ad26e0d7e64c59b90602090a3005b3461001d57602036600319011261001d5760043561390481610851565b60405163e2f9727160e01b81526001600160a01b03909116600482015260208160248173__$d22e98e2656d9a6189be97d809b75d9ca7$__5af48015610af557610a1b915f91611e8057506040519081529081906020820190565b3461001d5761001b61397036612f62565b90613979614d0d565b60018060a01b03165f52600960205260405f209060ff801983541691151516179055565b3461001d575f36600319011261001d5760ff60065460a01c1660405160098210156132df576020918152f35b3461001d57602036600319011261001d577f22347ec833323e597ceae8cffe5b0b7024b50a318357296b6ad3a548e1c66ec7600435613a066150fb565b5f516020615d8f5f395f51905f5254815f516020615d8f5f395f51905f5255612b7460405192839283612cdc565b3461001d57602060ff6114a1613a4936610bec565b6001600160a01b039091165f9081526001855260409020611200565b3461001d575f604036600319011261001d57600435613a8381610851565b60065460243591906001600160a01b031680613aff57506005546001600160a01b03165b6001600160a01b03163303610afa57613abe614b4c565b73__$ff68ecfc9a6b7df0c313e683766fad5a92$__91823b1561001d576040516351aa172f60e01b8152925f92849283918291610aca91306004850161458f565b613aa7565b3461001d57613b1236610bec565b90613b1b6150fb565b613b248161512a565b613b2d8261512a565b73__$d22e98e2656d9a6189be97d809b75d9ca7$__803b1561001d575f604051809263eae134fd60e01b82528180613b698888600484016143ae565b03915af48015610af557613b9b575b5033916001600160a01b0390811691165f516020615d6f5f395f51905f525f80a4005b80613ba75f8093611752565b80031261001d575f613b78565b3461001d57613bc2366137b2565b903033036108c2576040519182526001600160a01b039081169216907f01ff503732e46b833fc2900bbc89c476968a545f18c9ec757e33526c88b4002e90602090a3005b3461001d575f36600319011261001d57602060405160028152f35b3461001d5760a036600319011261001d57602435600435613c4182610851565b60443590613c4e82610851565b606435916084353033036108c2576040516001600160a01b0392831695909216937f3bf2de114e2e7636c289f21be023528e47d89b45e873b976c78989c3ddc683f592918291612736919083612cdc565b3461001d5760a036600319011261001d57600435613cbc81610851565b602435613cc881610851565b60443590606435926084356001600160401b03811161001d57613cef90369060040161184c565b926001600160a01b0382163381141580613d59575b613d43576001600160a01b0384161561349c5715613d315761001b94613d29916157ad565b9290916155a9565b626a0d4560e21b5f525f60045260245ffd5b63711bec9160e11b5f523360045260245260445ffd5b50805f52600160205260ff613d713360405f20611200565b541615613d04565b3461001d57602036600319011261001d57600435613d9681610851565b613d9e6151f7565b6001600160a01b03168015613ddd57600380546001600160a01b0319811683179091556001600160a01b03165f516020615daf5f395f51905f525f80a3005b631e4fbdf760e01b5f525f60045260245ffd5b3461001d575f36600319011261001d576020601454604051908152f35b3461001d575f36600319011261001d57602060ff601a5416604051908152f35b3461001d57602036600319011261001d57600435613e4a81610851565b613e526150fb565b73__$d22e98e2656d9a6189be97d809b75d9ca7$__90813b1561001d5760405160016219368360e21b031981526001600160a01b0390911660048201819052915f90829060249082905af48015610af557613ed1575b5033907fd6aa15bb31cca0774d36bdd90707bb8705e5031d7392febcb7678dd8e1c9c2405f80a3005b80611cac5f613edf93611752565b5f613ea8565b3461001d575f36600319011261001d576020604051601b8152f35b6001600160a01b039182168152911660208201526040810191909152606081019190915260800190565b6040513d5f823e3d90fd5b6001600160a01b0391821681529181166020830152909116604082015260600190565b519061178582610851565b9080601f8301121561001d578151613f7a81611787565b92613f886040519485611752565b81845260208085019260051b82010192831161001d57602001905b828210613fb05750505090565b602080918351613fbf81610851565b815201910190613fa3565b60208183031261001d578051906001600160401b03821161001d570181601f8201121561001d57805190613ffd826117fb565b9261400b6040519485611752565b8284526020838301011161001d57815f9260208093018386015e8301015290565b3d15614056573d9061403d826117fb565b9161404b6040519384611752565b82523d5f602084013e565b606090565b6001600160a01b039182168152918116602083015260408201929092529116606082015260800190565b9081602091031261001d575190565b604051630789b7b160e51b81523060048201526001600160a01b039091166024820152905f8260448173__$c358c1027d02ab1c17f0ade0d7945ec897$__5af4918215610af5575f905f936140e857509190565b9250503d805f843e6140fa8184611752565b82019160408184031261001d578051602082015190916001600160401b03821161001d570183601f8201121561001d5780519061413682611787565b946141446040519687611752565b828652602060a081880194028301019181831161001d57602001925b82841061416f57505050509190565b60a08483031261001d57602060a09160405161418a81611737565b865181528287015183820152604087015160408201526060870151606082015260808701516141b88161298a565b6080820152815201930192614160565b9081602091031261001d5751610b8081610851565b9081602091031261001d5751610b808161298a565b919080156143a9576001600160a01b038316928315611ba7576001600160a01b03831615611ba75760405163c45a015560e01b8152602081600481885afa908115610af5575f9161438a575b506001600160a01b03168015611ba75760405163054c14ed60e51b8152602081600481855afa908115610af5575f9161436b575b506001600160a01b0316801561435c57330361434e576142aa9160209160405180809581946303330c7960e41b835260048301611155565b03915afa908115610af5575f9161431f575b501561431057602060049360405194858092638da5cb5b60e01b82525afa8015610af557611785935f916142f1575b50614dd1565b61430a915060203d602011610eed57610edf8183611752565b5f6142eb565b632ad05f3360e11b5f5260045ffd5b614341915060203d602011614347575b6143398183611752565b8101906141dd565b5f6142bc565b503d61432f565b62645ab960e51b5f5260045ffd5b63ab82bb9960e01b5f5260045ffd5b614384915060203d602011610eed57610edf8183611752565b5f614272565b6143a3915060203d602011610eed57610edf8183611752565b5f61423e565b505050565b6001600160a01b0391821681529116602082015260400190565b939291906001600160a01b0385163381141580614401575b613d43576001600160a01b0382161561349c5715613d3157611785946155a9565b50805f52600160205260ff6144193360405f20611200565b5416156143e0565b60ff600a541615614483575f805260096020527fec8156718a8372b1db44bb411437d0870f3e3790d4a08526d024ce1b0b668f6b5460ff16908115614464575090565b6001600160a01b03165f9081526009602052604090205460ff16919050565b50600190565b606091949392608082019560018060a01b031682525f602083015260408201520152565b604080519091906144be8382611752565b6001815291601f1901366020840137565b906144d982611787565b6144e66040519182611752565b82815280926144f7601f1991611787565b0190602036910137565b80518210156109bd5760209160051b010190565b9190918051835180820361457a57505061452f81516144cf565b905f5b8151811015614573578061456160019260051b602080828701015191890101515f525f60205260405f20611200565b5461456c8286614501565b5201614532565b5090925050565b635b05999160e01b5f5260045260245260445ffd5b6001600160a01b03918216815291166020820152604081019190915260600190565b9080601f8301121561001d5781516145c881611787565b926145d66040519485611752565b81845260208085019260051b82010192831161001d57602001905b8282106145fe5750505090565b81518152602091820191016145f1565b91909160808184031261001d5780516001600160401b03811161001d5783614637918301613f63565b602082015190936001600160401b03821161001d576146579183016145b1565b916060604083015192015190565b9061466e614b4c565b73__$14fcd45fd929aea0b8f272435d174b619d$__803b1561001d575f926146bb92604051958694859384936379616bbd60e11b85523060048601526060602486015260648501916146f2565b6001600160a01b03909116604483015203915af48015610af5576146e2575b506001600455565b5f6146ec91611752565b5f6146da565b908060209392818452848401375f828201840152601f01601f1916010190565b634e487b7160e01b5f525f60045260245ffd5b906001600160a01b038216158015614749575b6147455761178591615253565b5050565b508015614738565b600654909291906001600160a01b03168061489757506005546001600160a01b03165b6001600160a01b03163303610afa5761478b614b4c565b73__$14fcd45fd929aea0b8f272435d174b619d$__91823b1561001d579290604051938492633d88d6a560e11b8452826064850130600487015260606024870152526084840160848460051b86010193825f90601e19813603015b838310614838575050506001600160a01b039093166044860152505f949284925082915003915af48015610af557614824575b506117856001600455565b80611cac5f61483293611752565b5f614819565b9193959690929497506083198a820301865287358281121561001d578301602081019190356001600160401b03811161001d57803603831361001d5761488460209283926001956146f2565b99019601930190918997969594926147e6565b614774565b91908110156109bd576060020190565b634e487b7160e01b5f52601160045260245ffd5b6017545f601755806148cf5750565b8060030290600382040361490d5760175f5260205f205f5b8281106148f357505050565b805f600260039385018281558260018201550155016148e7565b6148ac565b601754600160401b81101561171657600181016017556017548110156109bd57604060029160175f52600360205f209102019280358455602081013560018501550135910155565b614962614d0d565b81156149e8575f5b8281106149cf575061497a6148c0565b5f5b8281106149b35750506040519081527f2f291eaf494dc7eca20457441a1df7d9119f0c0d764309daf9cb6b148810ee3690602090a1565b806149c96149c4600193868661489c565b614912565b0161497c565b6149da81848461489c565b3515612b7e5760010161496a565b6308ba5b6160e01b5f5260045ffd5b6001600160a01b03165f908152600e60205260408120805490915b818110614a4c5750600160401b81101561171657614a3591600182018155611215565b819291549060031b91821b915f19901b1916179055565b83614a578285611215565b90549060031b1c14614a6b57600101614a12565b50505050565b614ad073__$071cf681b03e9c24fcf6005bc28358a856$__6020614a96600554610845565b604051635f62570d60e11b81526001600160a01b0390911660048201525f356001600160e01b031916602482015292839081906044820190565b0381845af4918215610af5575f92614b2b575b50803b1561001d57614b0c915f91604051808095819463923bbc3960e01b835260048301611155565b03915af48015610af557614b1d5750565b80611cac5f61178593611752565b614b4591925060203d602011610eed57610edf8183611752565b905f614ae3565b600260045414614b5d576002600455565b633ee5aeb560e01b5f5260045ffd5b5f8091614b796004614f6b565b602082519201905af490614b8b61402c565b9115614b9357565b5080519081614bc15760405163dccff66960e01b815260206004820152908190611b9b906024830190610b4b565b602001fd5b5f91614b798392614f6b565b9190820180921161490d57565b906001600160a01b03821680158015614d05575b6143a9575f527fbe5c2328713858b26c97b83c5ace333ac35b55572be4794180ba426b12cc48be60205260405f2080549282840180941161490d57600893614c3b92556111c8565b610e1042045f5260205260405f209060098201614c5c611da7825460ff1690565b614cf6575b50614c6d5f8354614bd2565b8255614c7e60018301918254614bd2565b905560028101614c8f5f8254614bd2565b905560038101614ca05f8254614bd2565b905560048101614cb15f8254614bd2565b905560058101614cc25f8254614bd2565b905560068101614cd35f8254614bd2565b905560078101614ce45f8254614bd2565b905501614cf25f8254614bd2565b9055565b614cff90615246565b5f614c61565b508115614bf3565b6006546001600160a01b031680614d5d57506005546001600160a01b03165b6003546001600160a01b03163314159081614d49575b506108c257565b6001600160a01b031633141590505f614d42565b614d2c565b6005546001600160a01b03168015818115614dc7575b5061435c575f60049160405192838092634f9e8d1560e11b82525afa908115610af5575f91614dad575b5080511561435c5790565b614dc191503d805f833e61102f8183611752565b5f614da2565b90503b155f614d78565b909173__$91c961bf2335aa1fea43924da854687380$__803b1561001d57614e13935f936040519586948593849363f3523b7360e01b8552306004860161405b565b03915af48015610af557614e245750565b5f61178591611752565b906001600160a01b03821680158015614ef5575b6143a9575f527fbe5c2328713858b26c97b83c5ace333ac35b55572be4794180ba426b12cc48bf60205260405f2080549282840180941161490d57600893614ea09255614e93610e104204916111c8565b905f5260205260405f2090565b9060098201614eb3611da7825460ff1690565b614ee6575b50614ec45f8354614bd2565b825560018201614ed55f8254614bd2565b9055614c8f60028301918254614bd2565b614eef90615246565b5f614eb8565b508115614e42565b600554604051636664034560e11b81526001600160a01b0390911660048201526003602482015260208160448173__$071cf681b03e9c24fcf6005bc28358a856$__5af4908115610af5575f91614f52575090565b610b80915060203d602011610eed57610edf8183611752565b600554604051636664034560e11b81526001600160a01b03909116600482015260ff91909116602482015260208160448173__$071cf681b03e9c24fcf6005bc28358a856$__5af4908115610af5575f91614f52575090565b916013548281039181831161490d57601454908082039482861161490d576001600160a01b03871615938415615006575b505050506143a957611785926156b4565b149250908261501b575b50505f808080614ff5565b1490505f80615010565b6005546040516306e0faf160e21b8152916020918391829161505491906001600160a01b0316600484016143ae565b038173__$a9219284c3f0d74f57f4dcfc58f5429559$__5af4908115610af5575f91614f52575090565b906001600160a01b03821615613d31576117859161509d5f92836157ad565b929091816040516150af602082611752565b5261549d565b8115614745576150c490615359565b6150f857601754156150f8576150e06150db6157d2565b6109a1565b5054116150e957565b63559d06d760e01b5f5260045ffd5b50565b6003546001600160a01b031633141580615116575b6108c257565b5060ff61512233611190565b541615615110565b6001600160a01b03811615611ba7576004602061515361514e61514e600554610845565b610845565b604051630e83251360e01b815292839182905afa918215610af557615198926020925f916151da575b5060405180809581946303330c7960e41b835260048301611155565b03916001600160a01b03165afa908115610af5575f916151bb575b501561431057565b6151d4915060203d602011614347576143398183611752565b5f6151b3565b6151f19150833d8511610eed57610edf8183611752565b5f61517c565b6003546001600160a01b0316330361520b57565b63118cdaa760e01b5f523360045260245ffd5b906001600160a01b03821615801561523e575b6147455761178591615850565b508015615231565b805460ff19166001179055565b906001600160a01b03821680158015615351575b6143a9575f527fbe5c2328713858b26c97b83c5ace333ac35b55572be4794180ba426b12cc48c360205260405f2080549282840180941161490d576008936152b89255614e93610e104204916111c8565b90600982016152cb611da7825460ff1690565b615342575b506152dc5f8354614bd2565b8255600182016152ed5f8254614bd2565b9055600282016152fe5f8254614bd2565b90556003820161530f5f8254614bd2565b9055600482016153205f8254614bd2565b9055600582016153315f8254614bd2565b9055614cd360068301918254614bd2565b61534b90615246565b5f6152d0565b508115615267565b6001600160a01b0381165f908152600f602052604090205480151591826153a9575b5081615385575090565b90505f52600b60205260405f205480151590816153a157501590565b905042111590565b816153bf9293505f525f60205260405f20611200565b541515905f61537b565b6001600160a01b0391821681529181166020830152909116604082015260c06060820181905290926154129290916154049190850190611f4f565b908382036080850152611f4f565b81810360a09092019190915281516001600160a01b039081168252602080840151909116908201526040828101516001600160a01b031690820152606082015160608201526080820151608082015260e08061549461548260a086015161010060a0870152610100860190610cb4565b60c086015185820360c0870152611f4f565b93015191015290565b9190915f60e06040516154af8161171b565b828152826020820152826040820152826060820152826080820152606060a0820152606060c08201520152825f826154e8600554610845565b6155088887604051998a958695637bd8ece960e11b875260048701615a0b565b038173__$a9219284c3f0d74f57f4dcfc58f5429559$__5af4938415610af5575f94615585575b50615545858461553f8751610845565b85615a76565b73__$22d83b6ff1da5ba98b89a83b211093667b$__91823b1561001d57614b0c5f95604051978896879586956304c70af760e31b875230600488016153c9565b6155a29194503d805f833e61559a8183611752565b810190615945565b925f61552f565b91939290936155ba8282878661549d565b6001600160a01b038516806155d2575b505050505050565b81516001036155fb5750936020806155f09601519201519233615cd0565b5f80808080806155ca565b90853b61560e575b5050505050506155f0565b5f6020946156336040519788968795869463bc197c8160e01b86523360048701615c44565b03925af15f9181615693575b50615670575061564d61402c565b805191908261566957632bfa23e760e11b5f5261343682611144565b6020915001fd5b6001600160e01b0319166343e6837f60e01b0161345a57505f8080808080615603565b6156ad91925060203d602011613495576134868183611752565b905f61563f565b6001600160a01b03811615801561579c575b6143a957614cf2916156d96008926111c8565b610e1042045f5260205260405f2090600982016156fa611da7825460ff1690565b61578d575b5061570b5f8354614bd2565b82556001820161571c5f8254614bd2565b90556002820161572d5f8254614bd2565b90556003820161573e5f8254614bd2565b90556004820161574f5f8254614bd2565b9055600582016157605f8254614bd2565b9055600682016157715f8254614bd2565b905561578260078301918254614bd2565b905501918254614bd2565b61579690615246565b5f6156ff565b50811580156156c6575082156156c6565b9160405192600184526020840152604083019160018352606084015260808301604052565b601754801561584a575f90601754156109bd5760175f527fc624b66cc0138b8fabc209247f72d758e1cf3343756d543badbf24212bed8c155460015b82811061581b5750505090565b81615825826109a1565b505410615835575b60010161580e565b80935061584291506109a1565b50548261582d565b505f1990565b906001600160a01b0382168015801561593d575b6143a9575f527fbe5c2328713858b26c97b83c5ace333ac35b55572be4794180ba426b12cc48c260205260405f2080549282840180941161490d576008936158b59255614e93610e104204916111c8565b90600982016158c8611da7825460ff1690565b61592e575b506158d95f8354614bd2565b8255600182016158ea5f8254614bd2565b9055600282016158fb5f8254614bd2565b90556003820161590c5f8254614bd2565b90556004820161591d5f8254614bd2565b9055614cc260058301918254614bd2565b61593790615246565b5f6158cd565b508115615864565b60208183031261001d578051906001600160401b03821161001d5701906101008282031261001d57615975611775565b9161597f81613f58565b835261598d60208201613f58565b602084015261599e60408201613f58565b6040840152606081810151908401526080808201519084015260a08101516001600160401b03811161001d57826159d6918301613f63565b60a084015260c08101516001600160401b03811161001d5760e0926159fc9183016145b1565b60c0840152015160e082015290565b6001600160a01b0391821681529181166020830152909116604082015260a060608201819052610b80939192615a4391840190611f4f565b916080818403910152611f4f565b9091615a68610b8093604084526040840190611f4f565b916020818403910152611f4f565b9392918051835190818103615c1a5750505f5b8151811015615b75578060051b90602080838501015192860101518460018060a01b038916615af8575b6001936001600160a01b038216615ace575b50505001615a89565b615aee91611af5615ae6925f525f60205260405f2090565b918254614bd2565b90555f8481615ac5565b509091615b1088611af5835f525f60205260405f2090565b54828110615b3e57829160019493879203615b368b611af5845f525f60205260405f2090565b559350615ab3565b6040516303dee4c560e01b81526001600160a01b038a16600482015260248101919091526044810183905260648101829052608490fd5b508051939493919291600103615bd7576020908101519101516040516001600160a01b03938416949093169233927fc3d58168c5ae7397731d063d5bbf3d657854427343f4c083240f7aacaa2d0f62928291615bd2919083612cdc565b0390a4565b6040516001600160a01b03938416949093169233927f4a39dc06d4c0dbc64b70af90fd698a233a518aa5d07e595d983b8c0526c8f7fb928291615bd29183615a51565b635b05999160e01b5f5260045260245260445ffd5b9081602091031261001d5751610b808161090d565b6001600160a01b0391821681529116602082015260a060408201819052610b809491939192615c899291615c7b9190860190611f4f565b908482036060860152611f4f565b916080818403910152610b4b565b6001600160a01b039182168152911660208201526040810191909152606081019190915260a060808201819052610b8092910190610b4b565b9091949293853b615ce357505050505050565b602093615d0591604051968795869563f23a6e6160e01b875260048701615c97565b03815f6001600160a01b0387165af15f9181615d4d575b50615d2a575061564d61402c565b6001600160e01b031916630dc5919f60e01b0161345a57505f80808080806155ca565b615d6791925060203d602011613495576134868183611752565b905f615d1c56fef1b2bf0f075c4489d90ad473efa5fb2849d46fa0376db8fab751a98e03b3ce1b22c0a15d444e21db16bbb52e03d65846fb96a18771ae18cefb26e2b75b089ee28be0079c531659141344cd1fd0a4f28419497f9722a3daafe3b4186f6b6457e0ad3228b676f7d3cd4284a5443f17f1962b36e491b30a40b2405849e597ba5fb5a164736f6c6343000821000abc488d3e2575f0f2113dc4d9a0cd6bc52445c6bc28a8974ed97a6ba3ecfd657c",
  "linkReferences": {
    "project/src/BeamioUserCard/BeamioUserCardAdminGatewayLib.sol": {
      "BeamioUserCardAdminGatewayLib": [
        {
          "length": 20,
          "start": 4245
        },
        {
          "length": 20,
          "start": 6679
        },
        {
          "length": 20,
          "start": 11910
        }
      ]
    },
    "project/src/BeamioUserCard/BeamioUserCardFaucetGatewayLib.sol": {
      "BeamioUserCardFaucetGatewayLib": [
        {
          "length": 20,
          "start": 3791
        },
        {
          "length": 20,
          "start": 10004
        }
      ]
    },
    "project/src/BeamioUserCard/BeamioUserCardFormattingLib.sol": {
      "BeamioUserCardFormattingLib": [
        {
          "length": 20,
          "start": 5163
        }
      ]
    },
    "project/src/BeamioUserCard/BeamioUserCardGatewayMintLib.sol": {
      "BeamioUserCardGatewayMintLib": [
        {
          "length": 20,
          "start": 8692
        },
        {
          "length": 20,
          "start": 9707
        },
        {
          "length": 20,
          "start": 21016
        }
      ]
    },
    "project/src/BeamioUserCard/BeamioUserCardGovernanceLib.sol": {
      "BeamioUserCardGovernanceLib": [
        {
          "length": 20,
          "start": 6212
        },
        {
          "length": 20,
          "start": 11451
        },
        {
          "length": 20,
          "start": 12503
        }
      ]
    },
    "project/src/BeamioUserCard/BeamioUserCardIssuedNftGatewayLib.sol": {
      "BeamioUserCardIssuedNftGatewayLib": [
        {
          "length": 20,
          "start": 8298
        },
        {
          "length": 20,
          "start": 8522
        },
        {
          "length": 20,
          "start": 10471
        },
        {
          "length": 20,
          "start": 13905
        },
        {
          "length": 20,
          "start": 16131
        }
      ]
    },
    "project/src/BeamioUserCard/BeamioUserCardModuleRouterLib.sol": {
      "BeamioUserCardModuleRouterLib": [
        {
          "length": 20,
          "start": 20153
        },
        {
          "length": 20,
          "start": 21359
        },
        {
          "length": 20,
          "start": 21473
        }
      ]
    },
    "project/src/BeamioUserCard/BeamioUserCardRedeemGatewayLib.sol": {
      "BeamioUserCardRedeemGatewayLib": [
        {
          "length": 20,
          "start": 10814
        },
        {
          "length": 20,
          "start": 19123
        },
        {
          "length": 20,
          "start": 19408
        }
      ]
    },
    "project/src/BeamioUserCard/BeamioUserCardReferrerLib.sol": {
      "BeamioUserCardReferrerLib": [
        {
          "length": 20,
          "start": 4492
        },
        {
          "length": 20,
          "start": 6520
        },
        {
          "length": 20,
          "start": 8844
        },
        {
          "length": 20,
          "start": 9415
        },
        {
          "length": 20,
          "start": 10311
        },
        {
          "length": 20,
          "start": 11671
        },
        {
          "length": 20,
          "start": 12376
        },
        {
          "length": 20,
          "start": 14617
        },
        {
          "length": 20,
          "start": 15724
        },
        {
          "length": 20,
          "start": 16242
        },
        {
          "length": 20,
          "start": 17047
        }
      ]
    },
    "project/src/BeamioUserCard/BeamioUserCardTransferLib.sol": {
      "BeamioUserCardTransferLib": [
        {
          "length": 20,
          "start": 4812
        },
        {
          "length": 20,
          "start": 21659
        },
        {
          "length": 20,
          "start": 22863
        }
      ]
    },
    "project/src/BeamioUserCard/BeamioUserCardUpdateLib.sol": {
      "BeamioUserCardUpdateLib": [
        {
          "length": 20,
          "start": 22922
        }
      ]
    },
    "project/src/BeamioUserCard/BeamioUserCardViewsLib.sol": {
      "BeamioUserCardViewsLib": [
        {
          "length": 20,
          "start": 17666
        }
      ]
    }
  },
  "deployedLinkReferences": {
    "project/src/BeamioUserCard/BeamioUserCardAdminGatewayLib.sol": {
      "BeamioUserCardAdminGatewayLib": [
        {
          "length": 20,
          "start": 3154
        },
        {
          "length": 20,
          "start": 5588
        },
        {
          "length": 20,
          "start": 10819
        }
      ]
    },
    "project/src/BeamioUserCard/BeamioUserCardFaucetGatewayLib.sol": {
      "BeamioUserCardFaucetGatewayLib": [
        {
          "length": 20,
          "start": 2700
        },
        {
          "length": 20,
          "start": 8913
        }
      ]
    },
    "project/src/BeamioUserCard/BeamioUserCardFormattingLib.sol": {
      "BeamioUserCardFormattingLib": [
        {
          "length": 20,
          "start": 4072
        }
      ]
    },
    "project/src/BeamioUserCard/BeamioUserCardGatewayMintLib.sol": {
      "BeamioUserCardGatewayMintLib": [
        {
          "length": 20,
          "start": 7601
        },
        {
          "length": 20,
          "start": 8616
        },
        {
          "length": 20,
          "start": 19925
        }
      ]
    },
    "project/src/BeamioUserCard/BeamioUserCardGovernanceLib.sol": {
      "BeamioUserCardGovernanceLib": [
        {
          "length": 20,
          "start": 5121
        },
        {
          "length": 20,
          "start": 10360
        },
        {
          "length": 20,
          "start": 11412
        }
      ]
    },
    "project/src/BeamioUserCard/BeamioUserCardIssuedNftGatewayLib.sol": {
      "BeamioUserCardIssuedNftGatewayLib": [
        {
          "length": 20,
          "start": 7207
        },
        {
          "length": 20,
          "start": 7431
        },
        {
          "length": 20,
          "start": 9380
        },
        {
          "length": 20,
          "start": 12814
        },
        {
          "length": 20,
          "start": 15040
        }
      ]
    },
    "project/src/BeamioUserCard/BeamioUserCardModuleRouterLib.sol": {
      "BeamioUserCardModuleRouterLib": [
        {
          "length": 20,
          "start": 19062
        },
        {
          "length": 20,
          "start": 20268
        },
        {
          "length": 20,
          "start": 20382
        }
      ]
    },
    "project/src/BeamioUserCard/BeamioUserCardRedeemGatewayLib.sol": {
      "BeamioUserCardRedeemGatewayLib": [
        {
          "length": 20,
          "start": 9723
        },
        {
          "length": 20,
          "start": 18032
        },
        {
          "length": 20,
          "start": 18317
        }
      ]
    },
    "project/src/BeamioUserCard/BeamioUserCardReferrerLib.sol": {
      "BeamioUserCardReferrerLib": [
        {
          "length": 20,
          "start": 3401
        },
        {
          "length": 20,
          "start": 5429
        },
        {
          "length": 20,
          "start": 7753
        },
        {
          "length": 20,
          "start": 8324
        },
        {
          "length": 20,
          "start": 9220
        },
        {
          "length": 20,
          "start": 10580
        },
        {
          "length": 20,
          "start": 11285
        },
        {
          "length": 20,
          "start": 13526
        },
        {
          "length": 20,
          "start": 14633
        },
        {
          "length": 20,
          "start": 15151
        },
        {
          "length": 20,
          "start": 15956
        }
      ]
    },
    "project/src/BeamioUserCard/BeamioUserCardTransferLib.sol": {
      "BeamioUserCardTransferLib": [
        {
          "length": 20,
          "start": 3721
        },
        {
          "length": 20,
          "start": 20568
        },
        {
          "length": 20,
          "start": 21772
        }
      ]
    },
    "project/src/BeamioUserCard/BeamioUserCardUpdateLib.sol": {
      "BeamioUserCardUpdateLib": [
        {
          "length": 20,
          "start": 21831
        }
      ]
    },
    "project/src/BeamioUserCard/BeamioUserCardViewsLib.sol": {
      "BeamioUserCardViewsLib": [
        {
          "length": 20,
          "start": 16575
        }
      ]
    }
  },
  "immutableReferences": {
    "19866": [
      {
        "length": 32,
        "start": 14138
      }
    ]
  },
  "inputSourceName": "project/src/BeamioUserCard/BeamioUserCard.sol",
  "buildInfoId": "solc-0_8_33-6d56e9b8a7235e206a20aa233b6c0aefcd83d5aa"
}