{
  "_format": "hh3-artifact-1",
  "contractName": "BeamioUserCardFactoryPaymasterV07",
  "sourceName": "src/BeamioUserCard/BeamioUserCardFactoryPaymasterV07.sol",
  "abi": [
    {
      "inputs": [
        {
          "internalType": "address",
          "name": "usdcToken_",
          "type": "address"
        },
        {
          "internalType": "address",
          "name": "redeemModule_",
          "type": "address"
        },
        {
          "internalType": "address",
          "name": "quoteHelper_",
          "type": "address"
        },
        {
          "internalType": "address",
          "name": "deployer_",
          "type": "address"
        },
        {
          "internalType": "address",
          "name": "aaFactory_",
          "type": "address"
        },
        {
          "internalType": "address",
          "name": "initialOwner",
          "type": "address"
        }
      ],
      "stateMutability": "nonpayable",
      "type": "constructor"
    },
    {
      "inputs": [],
      "name": "BM_CallFailed",
      "type": "error"
    },
    {
      "inputs": [],
      "name": "BM_DeployFailed",
      "type": "error"
    },
    {
      "inputs": [],
      "name": "BM_NotAuthorized",
      "type": "error"
    },
    {
      "inputs": [],
      "name": "BM_ZeroAddress",
      "type": "error"
    },
    {
      "inputs": [],
      "name": "ECDSAInvalidSignature",
      "type": "error"
    },
    {
      "inputs": [
        {
          "internalType": "uint256",
          "name": "length",
          "type": "uint256"
        }
      ],
      "name": "ECDSAInvalidSignatureLength",
      "type": "error"
    },
    {
      "inputs": [
        {
          "internalType": "bytes32",
          "name": "s",
          "type": "bytes32"
        }
      ],
      "name": "ECDSAInvalidSignatureS",
      "type": "error"
    },
    {
      "inputs": [],
      "name": "F_AlreadyRegistered",
      "type": "error"
    },
    {
      "inputs": [],
      "name": "F_BadDeployedCard",
      "type": "error"
    },
    {
      "inputs": [],
      "name": "F_InvalidRedeemHash",
      "type": "error"
    },
    {
      "inputs": [],
      "name": "UC_AmountZero",
      "type": "error"
    },
    {
      "inputs": [],
      "name": "UC_FaucetNotEnabled",
      "type": "error"
    },
    {
      "inputs": [
        {
          "internalType": "address",
          "name": "recovered",
          "type": "address"
        },
        {
          "internalType": "address",
          "name": "expected",
          "type": "address"
        }
      ],
      "name": "UC_InvalidSignature",
      "type": "error"
    },
    {
      "inputs": [
        {
          "internalType": "uint256",
          "name": "nowTs",
          "type": "uint256"
        },
        {
          "internalType": "uint256",
          "name": "validAfter",
          "type": "uint256"
        },
        {
          "internalType": "uint256",
          "name": "validBefore",
          "type": "uint256"
        }
      ],
      "name": "UC_InvalidTimeWindow",
      "type": "error"
    },
    {
      "inputs": [],
      "name": "UC_NonceUsed",
      "type": "error"
    },
    {
      "inputs": [],
      "name": "UC_NotAdmin",
      "type": "error"
    },
    {
      "inputs": [],
      "name": "UC_PointsZero",
      "type": "error"
    },
    {
      "inputs": [],
      "name": "UC_PriceZero",
      "type": "error"
    },
    {
      "inputs": [],
      "name": "UC_PurchaseDisabledBecauseFree",
      "type": "error"
    },
    {
      "inputs": [],
      "name": "UC_Slippage",
      "type": "error"
    },
    {
      "anonymous": false,
      "inputs": [
        {
          "indexed": true,
          "internalType": "address",
          "name": "oldFactory",
          "type": "address"
        },
        {
          "indexed": true,
          "internalType": "address",
          "name": "newFactory",
          "type": "address"
        }
      ],
      "name": "AAFactoryChanged",
      "type": "event"
    },
    {
      "anonymous": false,
      "inputs": [
        {
          "indexed": true,
          "internalType": "address",
          "name": "card",
          "type": "address"
        },
        {
          "indexed": true,
          "internalType": "address",
          "name": "adminSigner",
          "type": "address"
        },
        {
          "indexed": false,
          "internalType": "bytes32",
          "name": "nonce",
          "type": "bytes32"
        }
      ],
      "name": "AdminExecuteExecuted",
      "type": "event"
    },
    {
      "anonymous": false,
      "inputs": [
        {
          "indexed": true,
          "internalType": "address",
          "name": "cardOwner",
          "type": "address"
        },
        {
          "indexed": true,
          "internalType": "address",
          "name": "card",
          "type": "address"
        },
        {
          "indexed": false,
          "internalType": "uint8",
          "name": "currency",
          "type": "uint8"
        },
        {
          "indexed": false,
          "internalType": "uint256",
          "name": "priceE18",
          "type": "uint256"
        }
      ],
      "name": "CardDeployed",
      "type": "event"
    },
    {
      "anonymous": false,
      "inputs": [
        {
          "indexed": true,
          "internalType": "address",
          "name": "cardOwner",
          "type": "address"
        },
        {
          "indexed": true,
          "internalType": "address",
          "name": "card",
          "type": "address"
        }
      ],
      "name": "CardRegistered",
      "type": "event"
    },
    {
      "anonymous": false,
      "inputs": [
        {
          "indexed": true,
          "internalType": "address",
          "name": "oldM",
          "type": "address"
        },
        {
          "indexed": true,
          "internalType": "address",
          "name": "newM",
          "type": "address"
        }
      ],
      "name": "DefaultRedeemModuleUpdated",
      "type": "event"
    },
    {
      "anonymous": false,
      "inputs": [
        {
          "indexed": true,
          "internalType": "address",
          "name": "oldD",
          "type": "address"
        },
        {
          "indexed": true,
          "internalType": "address",
          "name": "newD",
          "type": "address"
        }
      ],
      "name": "DeployerChanged",
      "type": "event"
    },
    {
      "anonymous": false,
      "inputs": [
        {
          "indexed": true,
          "internalType": "address",
          "name": "card",
          "type": "address"
        },
        {
          "indexed": true,
          "internalType": "address",
          "name": "userEOA",
          "type": "address"
        },
        {
          "indexed": true,
          "internalType": "address",
          "name": "cardOwner",
          "type": "address"
        },
        {
          "indexed": false,
          "internalType": "uint256",
          "name": "tokenId",
          "type": "uint256"
        },
        {
          "indexed": false,
          "internalType": "uint256",
          "name": "amount",
          "type": "uint256"
        },
        {
          "indexed": false,
          "internalType": "uint256",
          "name": "usdcAmount6",
          "type": "uint256"
        },
        {
          "indexed": false,
          "internalType": "bytes32",
          "name": "nonce",
          "type": "bytes32"
        }
      ],
      "name": "IssuedNftPurchasedForUser",
      "type": "event"
    },
    {
      "anonymous": false,
      "inputs": [
        {
          "indexed": true,
          "internalType": "address",
          "name": "oldOwner",
          "type": "address"
        },
        {
          "indexed": true,
          "internalType": "address",
          "name": "newOwner",
          "type": "address"
        }
      ],
      "name": "OwnerChanged",
      "type": "event"
    },
    {
      "anonymous": false,
      "inputs": [
        {
          "indexed": true,
          "internalType": "address",
          "name": "account",
          "type": "address"
        },
        {
          "indexed": false,
          "internalType": "bool",
          "name": "allowed",
          "type": "bool"
        }
      ],
      "name": "PaymasterStatusChanged",
      "type": "event"
    },
    {
      "anonymous": false,
      "inputs": [
        {
          "indexed": true,
          "internalType": "address",
          "name": "card",
          "type": "address"
        },
        {
          "indexed": true,
          "internalType": "address",
          "name": "fromEOA",
          "type": "address"
        },
        {
          "indexed": true,
          "internalType": "address",
          "name": "cardOwner",
          "type": "address"
        },
        {
          "indexed": false,
          "internalType": "uint256",
          "name": "usdcAmount6",
          "type": "uint256"
        },
        {
          "indexed": false,
          "internalType": "uint256",
          "name": "pointsOut6",
          "type": "uint256"
        },
        {
          "indexed": false,
          "internalType": "bytes32",
          "name": "nonce",
          "type": "bytes32"
        }
      ],
      "name": "PointsPurchasedForUser",
      "type": "event"
    },
    {
      "anonymous": false,
      "inputs": [
        {
          "indexed": true,
          "internalType": "address",
          "name": "oldH",
          "type": "address"
        },
        {
          "indexed": true,
          "internalType": "address",
          "name": "newH",
          "type": "address"
        }
      ],
      "name": "QuoteHelperChanged",
      "type": "event"
    },
    {
      "anonymous": false,
      "inputs": [
        {
          "indexed": true,
          "internalType": "address",
          "name": "card",
          "type": "address"
        },
        {
          "indexed": true,
          "internalType": "address",
          "name": "user",
          "type": "address"
        },
        {
          "indexed": false,
          "internalType": "bytes32",
          "name": "redeemHash",
          "type": "bytes32"
        }
      ],
      "name": "RedeemExecuted",
      "type": "event"
    },
    {
      "anonymous": false,
      "inputs": [
        {
          "indexed": true,
          "internalType": "address",
          "name": "card",
          "type": "address"
        },
        {
          "indexed": true,
          "internalType": "uint256",
          "name": "id",
          "type": "uint256"
        },
        {
          "indexed": false,
          "internalType": "bool",
          "name": "isNft",
          "type": "bool"
        }
      ],
      "name": "TokenIdIssued",
      "type": "event"
    },
    {
      "inputs": [],
      "name": "DOMAIN_SEPARATOR",
      "outputs": [
        {
          "internalType": "bytes32",
          "name": "",
          "type": "bytes32"
        }
      ],
      "stateMutability": "view",
      "type": "function"
    },
    {
      "inputs": [],
      "name": "EXECUTE_FOR_ADMIN_TYPEHASH",
      "outputs": [
        {
          "internalType": "bytes32",
          "name": "",
          "type": "bytes32"
        }
      ],
      "stateMutability": "view",
      "type": "function"
    },
    {
      "inputs": [],
      "name": "EXECUTE_FOR_OWNER_TYPEHASH",
      "outputs": [
        {
          "internalType": "bytes32",
          "name": "",
          "type": "bytes32"
        }
      ],
      "stateMutability": "view",
      "type": "function"
    },
    {
      "inputs": [],
      "name": "USDC",
      "outputs": [
        {
          "internalType": "address",
          "name": "",
          "type": "address"
        }
      ],
      "stateMutability": "view",
      "type": "function"
    },
    {
      "inputs": [],
      "name": "USDC_TOKEN",
      "outputs": [
        {
          "internalType": "address",
          "name": "",
          "type": "address"
        }
      ],
      "stateMutability": "view",
      "type": "function"
    },
    {
      "inputs": [],
      "name": "_aaFactory",
      "outputs": [
        {
          "internalType": "address",
          "name": "",
          "type": "address"
        }
      ],
      "stateMutability": "view",
      "type": "function"
    },
    {
      "inputs": [],
      "name": "aaFactory",
      "outputs": [
        {
          "internalType": "address",
          "name": "",
          "type": "address"
        }
      ],
      "stateMutability": "view",
      "type": "function"
    },
    {
      "inputs": [
        {
          "internalType": "address",
          "name": "",
          "type": "address"
        }
      ],
      "name": "beamioUserCardOwner",
      "outputs": [
        {
          "internalType": "address",
          "name": "",
          "type": "address"
        }
      ],
      "stateMutability": "view",
      "type": "function"
    },
    {
      "inputs": [
        {
          "internalType": "address",
          "name": "cardAddr",
          "type": "address"
        },
        {
          "internalType": "address",
          "name": "fromEOA",
          "type": "address"
        },
        {
          "internalType": "uint256",
          "name": "usdcAmount6",
          "type": "uint256"
        },
        {
          "internalType": "uint256",
          "name": "validAfter",
          "type": "uint256"
        },
        {
          "internalType": "uint256",
          "name": "validBefore",
          "type": "uint256"
        },
        {
          "internalType": "bytes32",
          "name": "nonce",
          "type": "bytes32"
        },
        {
          "internalType": "bytes",
          "name": "signature",
          "type": "bytes"
        },
        {
          "internalType": "uint256",
          "name": "minPointsOut6",
          "type": "uint256"
        }
      ],
      "name": "buyPointsForUser",
      "outputs": [
        {
          "internalType": "uint256",
          "name": "pointsOut6",
          "type": "uint256"
        }
      ],
      "stateMutability": "nonpayable",
      "type": "function"
    },
    {
      "inputs": [
        {
          "internalType": "address",
          "name": "cardOwner",
          "type": "address"
        }
      ],
      "name": "cardsOfOwner",
      "outputs": [
        {
          "internalType": "address[]",
          "name": "",
          "type": "address[]"
        }
      ],
      "stateMutability": "view",
      "type": "function"
    },
    {
      "inputs": [
        {
          "internalType": "address",
          "name": "a",
          "type": "address"
        },
        {
          "internalType": "bool",
          "name": "ok",
          "type": "bool"
        }
      ],
      "name": "changePaymasterStatus",
      "outputs": [],
      "stateMutability": "nonpayable",
      "type": "function"
    },
    {
      "inputs": [
        {
          "internalType": "address",
          "name": "cardOwner",
          "type": "address"
        },
        {
          "internalType": "uint8",
          "name": "currency",
          "type": "uint8"
        },
        {
          "internalType": "uint256",
          "name": "priceInCurrencyE6",
          "type": "uint256"
        },
        {
          "internalType": "bytes",
          "name": "initCode",
          "type": "bytes"
        }
      ],
      "name": "createCardCollectionWithInitCode",
      "outputs": [
        {
          "internalType": "address",
          "name": "card",
          "type": "address"
        }
      ],
      "stateMutability": "nonpayable",
      "type": "function"
    },
    {
      "inputs": [],
      "name": "defaultRedeemModule",
      "outputs": [
        {
          "internalType": "address",
          "name": "",
          "type": "address"
        }
      ],
      "stateMutability": "view",
      "type": "function"
    },
    {
      "inputs": [],
      "name": "deployer",
      "outputs": [
        {
          "internalType": "address",
          "name": "",
          "type": "address"
        }
      ],
      "stateMutability": "view",
      "type": "function"
    },
    {
      "inputs": [
        {
          "internalType": "address",
          "name": "cardAddr",
          "type": "address"
        },
        {
          "internalType": "bytes",
          "name": "data",
          "type": "bytes"
        },
        {
          "internalType": "uint256",
          "name": "deadline",
          "type": "uint256"
        },
        {
          "internalType": "bytes32",
          "name": "nonce",
          "type": "bytes32"
        },
        {
          "internalType": "bytes",
          "name": "adminSignature",
          "type": "bytes"
        }
      ],
      "name": "executeForAdmin",
      "outputs": [],
      "stateMutability": "nonpayable",
      "type": "function"
    },
    {
      "inputs": [
        {
          "internalType": "address",
          "name": "cardAddr",
          "type": "address"
        },
        {
          "internalType": "bytes",
          "name": "data",
          "type": "bytes"
        },
        {
          "internalType": "uint256",
          "name": "deadline",
          "type": "uint256"
        },
        {
          "internalType": "bytes32",
          "name": "nonce",
          "type": "bytes32"
        },
        {
          "internalType": "bytes",
          "name": "ownerSignature",
          "type": "bytes"
        }
      ],
      "name": "executeForOwner",
      "outputs": [],
      "stateMutability": "nonpayable",
      "type": "function"
    },
    {
      "inputs": [
        {
          "internalType": "address",
          "name": "card",
          "type": "address"
        }
      ],
      "name": "isBeamioUserCard",
      "outputs": [
        {
          "internalType": "bool",
          "name": "",
          "type": "bool"
        }
      ],
      "stateMutability": "view",
      "type": "function"
    },
    {
      "inputs": [
        {
          "internalType": "address",
          "name": "",
          "type": "address"
        },
        {
          "internalType": "address",
          "name": "",
          "type": "address"
        }
      ],
      "name": "isCardOfOwner",
      "outputs": [
        {
          "internalType": "bool",
          "name": "",
          "type": "bool"
        }
      ],
      "stateMutability": "view",
      "type": "function"
    },
    {
      "inputs": [
        {
          "internalType": "address",
          "name": "",
          "type": "address"
        }
      ],
      "name": "isPaymaster",
      "outputs": [
        {
          "internalType": "bool",
          "name": "",
          "type": "bool"
        }
      ],
      "stateMutability": "view",
      "type": "function"
    },
    {
      "inputs": [
        {
          "internalType": "address",
          "name": "card",
          "type": "address"
        },
        {
          "internalType": "uint256",
          "name": "id",
          "type": "uint256"
        }
      ],
      "name": "isTokenIdIssued",
      "outputs": [
        {
          "internalType": "bool",
          "name": "",
          "type": "bool"
        }
      ],
      "stateMutability": "view",
      "type": "function"
    },
    {
      "inputs": [
        {
          "internalType": "address",
          "name": "card",
          "type": "address"
        },
        {
          "internalType": "bool",
          "name": "isNft",
          "type": "bool"
        }
      ],
      "name": "issueTokenId",
      "outputs": [
        {
          "internalType": "uint256",
          "name": "id",
          "type": "uint256"
        }
      ],
      "stateMutability": "nonpayable",
      "type": "function"
    },
    {
      "inputs": [
        {
          "internalType": "address",
          "name": "cardOwner",
          "type": "address"
        }
      ],
      "name": "latestCardOfOwner",
      "outputs": [
        {
          "internalType": "address",
          "name": "",
          "type": "address"
        }
      ],
      "stateMutability": "view",
      "type": "function"
    },
    {
      "inputs": [],
      "name": "nextFungibleId",
      "outputs": [
        {
          "internalType": "uint256",
          "name": "",
          "type": "uint256"
        }
      ],
      "stateMutability": "view",
      "type": "function"
    },
    {
      "inputs": [],
      "name": "nextNftId",
      "outputs": [
        {
          "internalType": "uint256",
          "name": "",
          "type": "uint256"
        }
      ],
      "stateMutability": "view",
      "type": "function"
    },
    {
      "inputs": [],
      "name": "owner",
      "outputs": [
        {
          "internalType": "address",
          "name": "",
          "type": "address"
        }
      ],
      "stateMutability": "view",
      "type": "function"
    },
    {
      "inputs": [
        {
          "internalType": "address",
          "name": "cardAddr",
          "type": "address"
        },
        {
          "internalType": "address",
          "name": "userEOA",
          "type": "address"
        },
        {
          "internalType": "uint256",
          "name": "id",
          "type": "uint256"
        },
        {
          "internalType": "uint256",
          "name": "amount6",
          "type": "uint256"
        },
        {
          "internalType": "uint256",
          "name": "validAfter",
          "type": "uint256"
        },
        {
          "internalType": "uint256",
          "name": "validBefore",
          "type": "uint256"
        },
        {
          "internalType": "bytes32",
          "name": "nonce",
          "type": "bytes32"
        },
        {
          "internalType": "bytes",
          "name": "signature",
          "type": "bytes"
        }
      ],
      "name": "purchaseFaucetForUser",
      "outputs": [],
      "stateMutability": "nonpayable",
      "type": "function"
    },
    {
      "inputs": [
        {
          "internalType": "address",
          "name": "cardAddr",
          "type": "address"
        },
        {
          "internalType": "address",
          "name": "userEOA",
          "type": "address"
        },
        {
          "internalType": "uint256",
          "name": "tokenId",
          "type": "uint256"
        },
        {
          "internalType": "uint256",
          "name": "amount",
          "type": "uint256"
        },
        {
          "internalType": "uint256",
          "name": "validAfter",
          "type": "uint256"
        },
        {
          "internalType": "uint256",
          "name": "validBefore",
          "type": "uint256"
        },
        {
          "internalType": "bytes32",
          "name": "nonce",
          "type": "bytes32"
        },
        {
          "internalType": "bytes",
          "name": "signature",
          "type": "bytes"
        }
      ],
      "name": "purchaseIssuedNftForUser",
      "outputs": [],
      "stateMutability": "nonpayable",
      "type": "function"
    },
    {
      "inputs": [
        {
          "internalType": "uint8",
          "name": "cur",
          "type": "uint8"
        },
        {
          "internalType": "uint256",
          "name": "amount6",
          "type": "uint256"
        }
      ],
      "name": "quoteCurrencyAmountInUSDC6",
      "outputs": [
        {
          "internalType": "uint256",
          "name": "",
          "type": "uint256"
        }
      ],
      "stateMutability": "view",
      "type": "function"
    },
    {
      "inputs": [],
      "name": "quoteHelper",
      "outputs": [
        {
          "internalType": "address",
          "name": "",
          "type": "address"
        }
      ],
      "stateMutability": "view",
      "type": "function"
    },
    {
      "inputs": [
        {
          "internalType": "address",
          "name": "card",
          "type": "address"
        }
      ],
      "name": "quoteUnitPointInUSDC6",
      "outputs": [
        {
          "internalType": "uint256",
          "name": "",
          "type": "uint256"
        }
      ],
      "stateMutability": "view",
      "type": "function"
    },
    {
      "inputs": [
        {
          "internalType": "address",
          "name": "cardAddr",
          "type": "address"
        },
        {
          "internalType": "string[]",
          "name": "codes",
          "type": "string[]"
        },
        {
          "internalType": "address",
          "name": "userEOA",
          "type": "address"
        }
      ],
      "name": "redeemBatchForUser",
      "outputs": [],
      "stateMutability": "nonpayable",
      "type": "function"
    },
    {
      "inputs": [
        {
          "internalType": "address",
          "name": "cardAddr",
          "type": "address"
        },
        {
          "internalType": "string",
          "name": "code",
          "type": "string"
        },
        {
          "internalType": "address",
          "name": "userEOA",
          "type": "address"
        }
      ],
      "name": "redeemForUser",
      "outputs": [],
      "stateMutability": "nonpayable",
      "type": "function"
    },
    {
      "inputs": [
        {
          "internalType": "address",
          "name": "cardAddr",
          "type": "address"
        },
        {
          "internalType": "string",
          "name": "code",
          "type": "string"
        },
        {
          "internalType": "address",
          "name": "userEOA",
          "type": "address"
        }
      ],
      "name": "redeemPoolForUser",
      "outputs": [],
      "stateMutability": "nonpayable",
      "type": "function"
    },
    {
      "inputs": [
        {
          "internalType": "address",
          "name": "cardOwner",
          "type": "address"
        },
        {
          "internalType": "address",
          "name": "card",
          "type": "address"
        }
      ],
      "name": "registerExistingCard",
      "outputs": [],
      "stateMutability": "nonpayable",
      "type": "function"
    },
    {
      "inputs": [
        {
          "internalType": "address",
          "name": "f",
          "type": "address"
        }
      ],
      "name": "setAAFactory",
      "outputs": [],
      "stateMutability": "nonpayable",
      "type": "function"
    },
    {
      "inputs": [
        {
          "internalType": "address",
          "name": "d",
          "type": "address"
        }
      ],
      "name": "setDeployer",
      "outputs": [],
      "stateMutability": "nonpayable",
      "type": "function"
    },
    {
      "inputs": [
        {
          "internalType": "address",
          "name": "h",
          "type": "address"
        }
      ],
      "name": "setQuoteHelper",
      "outputs": [],
      "stateMutability": "nonpayable",
      "type": "function"
    },
    {
      "inputs": [
        {
          "internalType": "address",
          "name": "m",
          "type": "address"
        }
      ],
      "name": "setRedeemModule",
      "outputs": [],
      "stateMutability": "nonpayable",
      "type": "function"
    },
    {
      "inputs": [
        {
          "internalType": "address",
          "name": "",
          "type": "address"
        },
        {
          "internalType": "uint256",
          "name": "",
          "type": "uint256"
        }
      ],
      "name": "tokenIdIssued",
      "outputs": [
        {
          "internalType": "bool",
          "name": "",
          "type": "bool"
        }
      ],
      "stateMutability": "view",
      "type": "function"
    },
    {
      "inputs": [
        {
          "internalType": "address",
          "name": "newOwner",
          "type": "address"
        }
      ],
      "name": "transferOwner",
      "outputs": [],
      "stateMutability": "nonpayable",
      "type": "function"
    },
    {
      "inputs": [
        {
          "internalType": "bytes32",
          "name": "",
          "type": "bytes32"
        }
      ],
      "name": "usedAdminExecuteNonces",
      "outputs": [
        {
          "internalType": "bool",
          "name": "",
          "type": "bool"
        }
      ],
      "stateMutability": "view",
      "type": "function"
    },
    {
      "inputs": [
        {
          "internalType": "bytes32",
          "name": "",
          "type": "bytes32"
        }
      ],
      "name": "usedOwnerExecuteNonces",
      "outputs": [
        {
          "internalType": "bool",
          "name": "",
          "type": "bool"
        }
      ],
      "stateMutability": "view",
      "type": "function"
    }
  ],
  "bytecode": "0x60c0806040523461029b5760c081613188803803809161001f828561029f565b83398101031261029b57610032816102d6565b61003e602083016102d6565b61004a604084016102d6565b90610057606085016102d6565b9261007060a0610069608088016102d6565b96016102d6565b906001600160a01b03811615801561028a575b8015610279575b8015610268575b8015610257575b8015610246575b610237576080525f80546001600160a01b03199081166001600160a01b039384169081178355825260016020819052604092839020805460ff1916821790556002805483169585169590951790945560038054821695841695909517909455600480548516958316959095179094556005805490931694169390931790556006919091556064600755805190610135908261029f565b601581527f4265616d696f5573657243617264466163746f72790000000000000000000000602090910152604080517fb77f4f874d464e6b89d928e63195f8e6a3efa6ad7d73e629a7033d854b4099b991610190908261029f565b600181526020810190603160f81b82525190206040519060208201927f8b73c3c69bb8fe3d512ecc4cf759cc79239f7b179b0ffacaa9a75d522b39400f8452604083015260608201524660808201523060a082015260a081526101f460c08261029f565b51902060a052604051612e9d90816102eb82396080518181816104a201528181610fa90152818161125e0152612a53015260a05181818161097601526116b40152f35b63a9b8048960e01b5f5260045ffd5b506001600160a01b0382161561009f565b506001600160a01b03861615610098565b506001600160a01b03851615610091565b506001600160a01b0384161561008a565b506001600160a01b03831615610083565b5f80fd5b601f909101601f19168101906001600160401b038211908210176102c257604052565b634e487b7160e01b5f52604160045260245ffd5b51906001600160a01b038216820361029b5756fe60806040526004361015610011575f80fd5b5f3560e01c80630562f3e7146102a55780630895a8601461023c5780630c3c5d00146102a05780630e1398b91461029b5780630e832513146101ec5780631d4d9cf71461029657806331a04f1d146102915780633644e5151461028c57806339a8886d146102875780633cc29bb3146102825780633d8807f81461027d578063409826d3146102785780634f11ef12146102735780634fb2e45d1461026e5780636eb30f65146102695780637264becd146102645780637b422f391461025f578063803efb8a1461025a57806389a30271146101f65780638da5cb5b1461025557806393f1da4f14610250578063962147351461024b5780639688856f146102465780639858d8241461024157806398e1e9441461023c578063a2d5b9c814610237578063ac68fc0014610232578063b2592cf71461022d578063c1cfc34a14610228578063c374a7a914610223578063cc7dcbe81461021e578063ce85715d14610219578063d5f3948814610214578063d68a7bf71461020f578063deaefff21461020a578063e83492d114610205578063e8e3511314610200578063ef759095146101fb578063fa569274146101f6578063fa957c2e146101f1578063fb3894d3146101ec5763fd722edb146101e7575f80fd5b612414565b6107ae565b612395565b611249565b61209c565b612028565b611d89565b611d0a565b611b87565b611b30565b611b08565b611927565b61188d565b611572565b611495565b61144c565b6113d5565b6106af565b61138a565b611350565b6112d1565b6112b4565b61128d565b611206565b611191565b610e33565b610df9565b610d82565b610c8a565b610c45565b610bbb565b610b5c565b6109e2565b61095f565b610930565b6107d6565b61072f565b610707565b61034a565b6001600160a01b038116036102bb57565b5f80fd5b9181601f840112156102bb578235916001600160401b0383116102bb57602083818601950101116102bb57565b906101006003198301126102bb57600435610306816102aa565b91602435610313816102aa565b9160443591606435916084359160a4359160c4359160e435906001600160401b0382116102bb57610346916004016102bf565b9091565b346102bb57610358366102ec565b929060018060a09a97989a1b035f541633148015610699575b15610661576001600160a01b03881615610612576001600160a01b03861695861590811561068f575b5061061257604051635378561960e01b81526020816004818a5afa90811561056b575f91610670575b50306001600160a01b039091160361066157861561065257604051638da5cb5b60e01b8152906020826004818a5afa91821561056b575f92610621575b506001600160a01b03821615610612576040516327d23eb360e21b8152600481018b905293610100856024818b5afa801561056b575f5f965f926105d3575b50156105c4576001600160801b031680156105b55761048c956104706104678c602094612569565b620f4240900490565b60405163145ab73960e31b8152978892839290600484016125a9565b0381305afa94851561056b575f95610584575b507f00000000000000000000000000000000000000000000000000000000000000006001600160a01b031693843b156102bb575f9687938c936104f9936040519b8c9a8b998a9863cf09299560e01b8a5260048a016125de565b03925af1801561056b57610570575b50803b156102bb57604051636465c3a760e01b81526001600160a01b0393909316600484015260248301939093526044820152905f908290606490829084905af1801561056b5761055557005b806105635f61056993612457565b806106fd565b005b612492565b806105635f61057e93612457565b5f610508565b6105a791955060203d6020116105ae575b61059f8183612457565b81019061259a565b935f61049f565b503d610595565b63225426e360e01b5f5260045ffd5b63ab6138a560e01b5f5260045ffd5b9150506105f99195506101003d811161060b575b6105f18183612457565b8101906124c5565b9a96505093509150509095905f61043f565b503d6105e7565b63a9b8048960e01b5f5260045ffd5b61064491925060203d60201161064b575b61063c8183612457565b81019061247d565b905f610400565b503d610632565b63201165f360e21b5f5260045ffd5b630fc5e1ab60e41b5f5260045ffd5b610689915060203d60201161064b5761063c8183612457565b5f6103c3565b90503b155f61039a565b50335f52600160205260ff60405f205416610371565b346102bb5760403660031901126102bb576004356106cc816102aa565b6024359060018060a01b03165f52600860205260405f20905f52602052602060ff60405f2054166040519015158152f35b5f9103126102bb57565b346102bb575f3660031901126102bb576002546040516001600160a01b039091168152602090f35b346102bb5760203660031901126102bb5760043561074c816102aa565b5f546001600160a01b03163303610661576001600160a01b0316801561061257600354816001600160a01b0382167feb7103e1b7fa12591abe0ba2fb5df1720e3786a45a1684846043c1b7dcfcb9c75f80a36001600160a01b03191617600355005b346102bb575f3660031901126102bb576005546040516001600160a01b039091168152602090f35b346102bb5760203660031901126102bb576004356107f3816102aa565b6003546001600160a01b039182169161081a9161080e911681565b6001600160a01b031690565b60405163e5a6b10f60e01b815290602082600481865afa91821561056b575f926108fd575b506020829361084f60049461264f565b604051634dda221560e01b815293849182905afa90811561056b57610895936020935f936108de575b5060405180958194829363577e933760e11b8452600484016125a9565b03915afa801561056b576108bb915f916108bf575b506040519081529081906020820190565b0390f35b6108d8915060203d6020116105ae5761059f8183612457565b5f6108aa565b6108f6919350843d86116105ae5761059f8183612457565b915f610878565b60049250610922602091823d8411610929575b61091a8183612457565b810190612623565b925061083f565b503d610910565b346102bb5760203660031901126102bb576004355f52600c602052602060ff60405f2054166040519015158152f35b346102bb575f3660031901126102bb5760206040517f00000000000000000000000000000000000000000000000000000000000000008152f35b9060606003198301126102bb576004356109b2816102aa565b91602435906001600160401b0382116102bb576109d1916004016102bf565b90916044356109df816102aa565b90565b346102bb576109f036610999565b5f549293926001600160a01b031633148015610b46575b15610661576001600160a01b038116938415610612576001600160a01b038416938415908115610b3c575b5061061257604051635378561960e01b8152602081600481885afa90811561056b575f91610b1d575b50306001600160a01b0390911603610661578215610b0e57833b156102bb575f610a9b9260405180948192637cc37b3b60e11b835287866004850161265e565b038183885af190811561056b577f6fda4e9204adb930edd263bf167f0f95464e9f84006d5c89c84ed55f50528b3393610af593610adf93610afa575b5036916126a2565b8051602091820120604051908152918291820190565b0390a3005b806105635f610b0893612457565b5f610ad7565b63411581df60e11b5f5260045ffd5b610b36915060203d60201161064b5761063c8183612457565b5f610a5b565b90503b155f610a32565b50335f52600160205260ff60405f205416610a07565b346102bb575f3660031901126102bb576020600654604051908152f35b60206040818301928281528451809452019201905f5b818110610b9c5750505090565b82516001600160a01b0316845260209384019390920191600101610b8f565b346102bb5760203660031901126102bb57600435610bd8816102aa565b60018060a01b03165f52600960205260405f206040519081602082549182815201915f5260205f20905f5b818110610c26576108bb85610c1a81870382612457565b60405191829182610b79565b82546001600160a01b0316845260209093019260019283019201610c03565b346102bb5760203660031901126102bb57600435610c62816102aa565b60018060a01b03165f52600b602052602060018060a01b0360405f2054161515604051908152f35b346102bb57610c9836610999565b5f549293926001600160a01b031633148015610d6c575b15610661576001600160a01b038116938415610612576001600160a01b038416938415908115610d62575b5061061257604051635378561960e01b8152602081600481885afa90811561056b575f91610d43575b50306001600160a01b0390911603610661578215610b0e57833b156102bb575f610a9b92604051809481926371b8982f60e01b835287866004850161265e565b610d5c915060203d60201161064b5761063c8183612457565b5f610d03565b90503b155f610cda565b50335f52600160205260ff60405f205416610caf565b346102bb5760203660031901126102bb57600435610d9f816102aa565b5f546001600160a01b0381169133839003610661576001600160a01b03169182156106125782907fb532073b38c83145e3e5135377a08bf9aab55bc0fd7c1179cd4fb995d2a5159c5f80a36001600160a01b031916175f55005b346102bb575f3660031901126102bb5760206040517f5d2010d98a8af54e10756d0f1f88c21936f3cee3282ba1a12e8b6ea9dc3cd00b8152f35b346102bb57610e41366102ec565b9795929190969360018060a01b035f54163314801561117b575b15610661576001600160a01b038516978815610612576001600160a01b038816978815908115611171575b5061061257604051635378561960e01b81526020816004818c5afa90811561056b575f91611152575b50306001600160a01b039091160361066157861561065257604051638da5cb5b60e01b8152936020856004818c5afa94851561056b575f95611131575b506001600160a01b0385169a8b1561061257604051633c703d4560e01b8152600481018890526020816024818e5afa90811561056b575f91611112575b5080156105b557610f3a908a612569565b60405163e5a6b10f60e01b81529096906020816004818f5afa97881561056b57610f8d986020925f916110f5575b50610f728161264f565b60405163145ab73960e31b8152998a928392600484016125a9565b0381305afa96871561056b575f976110d4575b508615610652577f00000000000000000000000000000000000000000000000000000000000000006001600160a01b031691823b156102bb57896110025f969287938a8c986040519b8c9a8b998a9863cf09299560e01b8a5260048a016125de565b03925af1801561056b576110c0575b50853b156102bb576040516311d794fb60e21b81526001600160a01b0394909416600485015260248401839052604484018590529293925f85606481838a5af191821561056b577f46153b28e9a3688aede6f2c4c60c8d2cd1e2181b36e413211bf9134a7b195996956110a7936110ac575b50604051948594859094939260609260808301968352602083015260408201520152565b0390a4005b806105635f6110ba93612457565b5f611083565b806105635f6110ce93612457565b5f611011565b6110ee91975060203d6020116105ae5761059f8183612457565b955f610fa0565b61110c9150833d85116109295761091a8183612457565b5f610f68565b61112b915060203d6020116105ae5761059f8183612457565b5f610f29565b61114b91955060203d60201161064b5761063c8183612457565b935f610eec565b61116b915060203d60201161064b5761063c8183612457565b5f610eaf565b90503b155f610e86565b50335f52600160205260ff60405f205416610e5b565b346102bb5760603660031901126102bb576004356111ae816102aa565b6024356001600160401b0381116102bb57366023820112156102bb5780600401356001600160401b0381116102bb573660248260051b840101116102bb57610569926024604435936111ff856102aa565b01906126d8565b346102bb5760203660031901126102bb57600435611223816102aa565b60018060a01b03165f52600b602052602060018060a01b0360405f205416604051908152f35b346102bb575f3660031901126102bb576040517f00000000000000000000000000000000000000000000000000000000000000006001600160a01b03168152602090f35b346102bb575f3660031901126102bb575f546040516001600160a01b039091168152602090f35b346102bb575f3660031901126102bb576020600754604051908152f35b346102bb5760203660031901126102bb576004356112ee816102aa565b5f546001600160a01b03163303610661576001600160a01b0316801561061257600454816001600160a01b0382167fb425bf30023a30c35ee17f3f416360da7ea96a46b589cfa6a14f39dc98a52bca5f80a36001600160a01b03191617600455005b346102bb575f3660031901126102bb5760206040517f8b5e44529430631511cdb2103b51a2b17522f3ccef30b4cecb8b600e589b21848152f35b346102bb5760203660031901126102bb576004356113a7816102aa565b60018060a01b03165f526001602052602060ff60405f2054166040519015158152f35b60ff8116036102bb57565b346102bb5760403660031901126102bb5761089560206004356113f7816113ca565b60035460405163145ab73960e31b81529384926001600160a01b03909216918391829160243590600484016125a9565b60409060031901126102bb5760043561143f816102aa565b906024356109df816102aa565b346102bb57602060ff61148961146136611427565b6001600160a01b039182165f908152600a865260408082209290931681526020919091522090565b54166040519015158152f35b346102bb576101003660031901126102bb576004356114b3816102aa565b6024356114bf816102aa565b6064359160c435916044359060a4356084356001600160401b0386116102bb576108bb966114f46115009736906004016102bf565b95909460e4359761293c565b6040519081529081906020820190565b9060a06003198301126102bb57600435611529816102aa565b916024356001600160401b0381116102bb5781611548916004016102bf565b929092916044359160643591608435906001600160401b0382116102bb57610346916004016102bf565b346102bb5761158036611510565b5f549496949293926001600160a01b031633148015611877575b15610661576001600160a01b038516918215801561186e575b610612578715610b0e5783421161185157604051635378561960e01b8152602081600481875afa90811561056b575f91611832575b50306001600160a01b039091160361066157602060049360405194858092638da5cb5b60e01b82525afa92831561056b5788948888925f966117f7575b50916116f0916116af6116426116f896956116fe999a36916126a2565b8051602091820120604080517f5d2010d98a8af54e10756d0f1f88c21936f3cee3282ba1a12e8b6ea9dc3cd00b9381019384526001600160a01b03909616908601526060850152608084019290925260a083018a90529091908160c081015b03601f198101835282612457565b5190207f00000000000000000000000000000000000000000000000000000000000000006042916040519161190160f01b8352600283015260228201522090565b9236916126a2565b90612c9e565b6001600160a01b03828116908216036117d6575050604080516001600160a01b03841660208201908152918101929092529061173d81606081016116a1565b5190209261175d611756855f52600c60205260405f2090565b5460ff1690565b6117c7575f80949361178861177b83965f52600c60205260405f2090565b805460ff19166001179055565b61179760405180948193612c19565b03925af16117a3612c26565b90156117ab57005b805190816117c257633655084960e01b5f5260045ffd5b602001fd5b637b7fc77160e01b5f5260045ffd5b636cf57d9160e11b5f526001600160a01b039081166004521660245260445ffd5b6116fe9650916116af6116426116f89695936118246116f09660203d60201161064b5761063c8183612457565b995093959650505091611625565b61184b915060203d60201161064b5761063c8183612457565b5f6115e8565b631f1183ed60e31b5f90815242600452602452604484905260645ffd5b50853b156115b3565b50335f52600160205260ff60405f20541661159a565b346102bb5760203660031901126102bb576004356118aa816102aa565b6001600160a01b03165f8181526009602052604090205490816118e85750506108bb5f5b6040516001600160a01b0390911681529081906020820190565b5f52600960205260405f205f198201918211611922576108bb9161190b91612c55565b905460039190911b1c6001600160a01b03166118ce565b61253b565b346102bb5761193536611427565b5f546001600160a01b031633148015611af2575b15610661576001600160a01b0382169081158015611ae1575b6106125761199c611756826119878660018060a01b03165f52600a60205260405f2090565b9060018060a01b03165f5260205260405f2090565b611ad257604051635378561960e01b81526001600160a01b0382169390602081600481885afa90811561056b575f91611ab3575b50306001600160a01b0390911603611a8557604051638da5cb5b60e01b8152602081600481885afa801561056b5784915f91611a94575b506001600160a01b031603611a8557611a4082611a27611a5f9484612cb4565b6001600160a01b03165f908152600b6020526040902090565b80546001600160a01b0319166001600160a01b03909216919091179055565b7fc063fc300750e8c5649c6b3779f6c4b05e7b38b170ee5c4a4b222ede9a2880835f80a3005b633a307eb360e01b5f5260045ffd5b611aad915060203d60201161064b5761063c8183612457565b5f611a07565b611acc915060203d60201161064b5761063c8183612457565b5f6119d0565b63d62a8c9560e01b5f5260045ffd5b506001600160a01b03811615611962565b50335f52600160205260ff60405f205416611949565b346102bb575f3660031901126102bb576003546040516001600160a01b039091168152602090f35b346102bb575f3660031901126102bb576004546040516001600160a01b039091168152602090f35b801515036102bb57565b60409060031901126102bb57600435611b7a816102aa565b906024356109df81611b58565b346102bb57611b9536611b62565b5f546001600160a01b031633148015611cf4575b15610661576001600160a01b0382169182158015611ceb575b61061257604051635378561960e01b8152602081600481875afa90811561056b575f91611ccc575b50306001600160a01b0390911603610661576108bb927f4c1cbefbba6c448ac41213acf5c22774d44a2ba3b12119ff1f747a82cf887d8e611c82611c6394805f14611c9557611c7061177b600754611c49611c4482612c6a565b600755565b8098819860018060a01b03165f52600860205260405f2090565b905f5260205260405f2090565b60405190151581529081906020820190565b0390a36040519081529081906020820190565b611c7061177b600654611caf611caa82612c6a565b600655565b809881986001600160a01b03165f90815260086020526040902090565b611ce5915060203d60201161064b5761063c8183612457565b5f611bea565b50803b15611bc2565b50335f52600160205260ff60405f205416611ba9565b346102bb5760203660031901126102bb57600435611d27816102aa565b5f546001600160a01b03163303610661576001600160a01b0316801561061257600554816001600160a01b0382167fb30a75ccd0bb0742ffc18720f7e4013b83d98b9d9236dc4532955541a1df3a655f80a36001600160a01b03191617600555005b346102bb57611d9736611510565b60018060a09896959794981b035f541633148015612012575b15610661576001600160a01b0385169586158015612009575b610612578415610b0e57804211611fee57604051635378561960e01b81526020816004818b5afa90811561056b575f91611fcf575b50306001600160a01b039091160361066157611e8c926116f0876116f8936116af8c6116a1611e2e368d8d6126a2565b60208151910120916040519485936020850197889094939260809260a08301967f8b5e44529430631511cdb2103b51a2b17522f3ccef30b4cecb8b600e589b2184845260018060a01b03166020840152604083015260608201520152565b604051630935e01b60e21b81526001600160a01b0382166004820152909390602081602481895afa90811561056b575f91611fa0575b5015611f9157604080516001600160a01b03808416602083019081529087169282019290925260608101889052611efc81608081016116a1565b51902092611f15611756855f52600d60205260405f2090565b6117c7575f809493611f3361177b83965f52600d60205260405f2090565b611f4260405180948193612c19565b03925af1611f4e612c26565b90156117ab57506040519283526001600160a01b0316917fc2d58ddd39bae8d891e64c790e06675be0c60c0c8abaaceac647c83798f19d71908060208101610af5565b6363bc5ecb60e11b5f5260045ffd5b611fc2915060203d602011611fc8575b611fba8183612457565b810190612c78565b5f611ec2565b503d611fb0565b611fe8915060203d60201161064b5761063c8183612457565b5f611dfe565b631f1183ed60e31b5f9081524260045260245260445260645ffd5b50853b15611dc9565b50335f52600160205260ff60405f205416611db0565b346102bb5761203636611b62565b5f549091906001600160a01b031633036106615760207f70f3008dcbe7ca1157c0809d9b79a5751736957d08f23274121a0903a38cfa999160018060a01b031692835f526001825260405f209015159060ff1981541660ff8316179055604051908152a2005b346102bb5760803660031901126102bb576004356120b9816102aa565b602435906120c6826113ca565b6044356064356001600160401b0381116102bb576120e89036906004016102bf565b9260018060a01b035f54163314801561237f575b15610661576001600160a01b038116918215610612578415612346576004546121559560209290916121389061080e906001600160a01b031681565b905f6040518099819582946203ba1b60e51b845260048401612c8d565b03925af193841561056b575f9461235e575b506001600160a01b0384169283158015612355575b61234657604051635378561960e01b8152602081600481885afa90811561056b575f91612327575b50306001600160a01b0390911603611a8557604051638da5cb5b60e01b8152602081600481885afa801561056b5784915f91612308575b506001600160a01b031603611a855760405163e5a6b10f60e01b8152602081600481885afa90811561056b575f916122e9575b506122188161264f565b60ff808816911603611a8557604051634dda221560e01b8152602081600481885afa801561056b5782915f916122ca575b5003611a85576108bb9561229e83612282887fb6ce9f4a6c24844ee121b78004db1a1773ef64e1d804b875dd31413a87560cc096612cb4565b6001600160a01b0388165f908152600b60205260409020611a40565b6122ad604051928392836125a9565b0390a36040516001600160a01b0390911681529081906020820190565b6122e3915060203d6020116105ae5761059f8183612457565b5f612249565b612302915060203d6020116109295761091a8183612457565b5f61220e565b612321915060203d60201161064b5761063c8183612457565b5f6121db565b612340915060203d60201161064b5761063c8183612457565b5f6121a4565b633448691b60e11b5f5260045ffd5b50843b1561217c565b61237891945060203d60201161064b5761063c8183612457565b925f612167565b50335f52600160205260ff60405f2054166120fc565b346102bb5760203660031901126102bb576004356123b2816102aa565b5f546001600160a01b03163303610661576001600160a01b0316801561061257600254816001600160a01b0382167f2744eeda02c397774dc1a9c7576a416e8d6ee463c636b09a5c558cd3263843ea5f80a36001600160a01b03191617600255005b346102bb5760203660031901126102bb576004355f52600d602052602060ff60405f2054166040519015158152f35b634e487b7160e01b5f52604160045260245ffd5b90601f801991011681019081106001600160401b0382111761247857604052565b612443565b908160209103126102bb57516109df816102aa565b6040513d5f823e3d90fd5b51906001600160401b03821682036102bb57565b51906001600160801b03821682036102bb57565b9190826101009103126102bb576124db8261249d565b916124e86020820161249d565b916124f5604083016124b1565b91612502606082016124b1565b91608082015161251181611b58565b9160a0810151612520816113ca565b916109df60e060c0840151612534816113ca565b93016124b1565b634e487b7160e01b5f52601160045260245ffd5b90620f4240820291808304620f4240149015171561192257565b8181029291811591840414171561192257565b8115612586570490565b634e487b7160e01b5f52601260045260245ffd5b908160209103126102bb575190565b6020909392919360ff60408201951681520152565b908060209392818452848401375f828201840152601f01601f1916010190565b93909260e095926109df99979460018060a01b0316865260018060a01b0316602086015260408501526060840152608083015260a08201528160c082015201916125be565b908160209103126102bb5751600d8110156102bb5790565b634e487b7160e01b5f52602160045260245ffd5b600d111561265957565b61263b565b91602091612677919594956040855260408501916125be565b6001600160a01b03909416910152565b6001600160401b03811161247857601f01601f191660200190565b9291926126ae82612687565b916126bc6040519384612457565b8294818452818301116102bb578281602093845f960137010152565b90929160018060a01b035f541633148015612828575b15610661576001600160a01b038316928315610612576001600160a01b03831692831590811561281e575b5061061257604051635378561960e01b8152602081600481875afa90811561056b575f916127ff575b50306001600160a01b0390911603610661578115610b0e57823b156102bb575f612782916040518093819263523c822360e11b8352868a6004850161283e565b038183875af1801561056b576127eb575b505f5b8181106127a4575050505050565b8084847f6fda4e9204adb930edd263bf167f0f95464e9f84006d5c89c84ed55f50528b336127e2610adf6127db600197898d6128f6565b36916126a2565b0390a301612796565b806105635f6127f993612457565b5f612793565b612818915060203d60201161064b5761063c8183612457565b5f612742565b90503b155f612719565b50335f52600160205260ff60405f2054166126ee565b93929190816040860160408752526060850160608360051b87010192825f90601e19813603015b83831061288a575050505050509060206128889294019060018060a01b03169052565b565b909192939495605f198a82030186528635828112156102bb57830190602082359201916001600160401b0381116102bb5780360383136102bb576128d460209283926001956125be565b980196019493019190612865565b634e487b7160e01b5f52603260045260245ffd5b91908110156129375760051b81013590601e19813603018212156102bb5701908135916001600160401b0383116102bb5760200182360381136102bb579190565b6128e2565b9694939592909260018060a01b035f541633148015612c03575b15610661576001600160a01b038416968715610612576001600160a01b0389169687158015612bfa575b61061257604051635378561960e01b81526020816004818c5afa90811561056b575f91612bdb575b50306001600160a01b039091160361066157841561065257604051638da5cb5b60e01b81526020816004818c5afa90811561056b575f91612bbc575b506001600160a01b0381169a8b1561061257604051631d4d9cf760e01b81526001600160a01b03919091166004820152602081602481305afa90811561056b575f91612b9d575b508015612b8e57612a4490612a3f8861254f565b61257c565b9b8c15612b7f578c10612b70577f00000000000000000000000000000000000000000000000000000000000000006001600160a01b031691823b156102bb5787612aac5f969287938c8b986040519b8c9a8b998a9863cf09299560e01b8a5260048a016125de565b03925af1801561056b57612b5c575b50833b156102bb5760405163af7ffa2b60e01b81526001600160a01b03929092166004830152602482018790525f8260448183885af1801561056b577f246821f0caf9ce5a9ae8fb3bd7097a6d47299d00676d0ec0b40b429694a8684d938893612b4292612b48575b50604051938493846040919493926060820195825260208201520152565b0390a490565b806105635f612b5693612457565b5f612b24565b806105635f612b6a93612457565b5f612abb565b63c02e577360e01b5f5260045ffd5b6313f3da3f60e21b5f5260045ffd5b6376024b7160e01b5f5260045ffd5b612bb6915060203d6020116105ae5761059f8183612457565b5f612a2b565b612bd5915060203d60201161064b5761063c8183612457565b5f6129e4565b612bf4915060203d60201161064b5761063c8183612457565b5f6129a8565b50893b15612980565b50335f52600160205260ff60405f205416612956565b908092918237015f815290565b3d15612c50573d90612c3782612687565b91612c456040519384612457565b82523d5f602084013e565b606090565b8054821015612937575f5260205f2001905f90565b5f1981146119225760010190565b908160209103126102bb57516109df81611b58565b9160206109df9381815201916125be565b6109df91612cab91612d2f565b90929192612d73565b6001600160a01b039081165f818152600a602090815260408083209486168352938152838220805460ff191660011790559181526009909152208054600160401b81101561247857612d0b91600182018155612c55565b81546001600160a01b0393841660039290921b91821b9390911b1916919091179055565b8151919060418303612d5f57612d589250602082015190606060408401519301515f1a90612def565b9192909190565b50505f9160029190565b6004111561265957565b612d7c81612d69565b80612d85575050565b612d8e81612d69565b60018103612da55763f645eedf60e01b5f5260045ffd5b612dae81612d69565b60028103612dc9575063fce698f760e01b5f5260045260245ffd5b80612dd5600392612d69565b14612ddd5750565b6335e2f38360e21b5f5260045260245ffd5b91906fa2a8918ca85bafe22016d0b997e4df60600160ff1b038411612e5c579160209360809260ff5f9560405194855216868401526040830152606082015282805260015afa1561056b575f516001600160a01b03811615612e5257905f905f90565b505f906001905f90565b5050505f916003919056fea2646970667358221220e48d7e1ea57a8408aa017dff733bc85b00c0e87d3c619d28094deae602f8a7e064736f6c63430008210033",
  "linkReferences": {},
  "deployedLinkReferences": {},
  "immutableReferences": {
    "19065": [
      {
        "length": 32,
        "start": 1186
      },
      {
        "length": 32,
        "start": 4009
      },
      {
        "length": 32,
        "start": 4702
      },
      {
        "length": 32,
        "start": 10835
      }
    ],
    "20722": [
      {
        "length": 32,
        "start": 2422
      },
      {
        "length": 32,
        "start": 5812
      }
    ]
  },
  "inputSourceName": "project/src/BeamioUserCard/BeamioUserCardFactoryPaymasterV07.sol",
  "buildInfoId": "solc-0_8_33-39cb7d06e89750ce6dc1ee92451db5429192d000"
}