{
  "_format": "hh3-artifact-1",
  "contractName": "BeamioUserCard",
  "sourceName": "src/BeamioUserCard/BeamioUserCard.sol",
  "abi": [
    {
      "inputs": [
        {
          "internalType": "string",
          "name": "uri_",
          "type": "string"
        },
        {
          "internalType": "enum BeamioCurrency.CurrencyType",
          "name": "currency_",
          "type": "uint8"
        },
        {
          "internalType": "uint256",
          "name": "pointsUnitPriceInCurrencyE6_",
          "type": "uint256"
        },
        {
          "internalType": "address",
          "name": "initialOwner",
          "type": "address"
        },
        {
          "internalType": "address",
          "name": "gateway_",
          "type": "address"
        },
        {
          "internalType": "uint8",
          "name": "upgradeType_",
          "type": "uint8"
        },
        {
          "internalType": "bool",
          "name": "initialTransferWhitelistEnabled",
          "type": "bool"
        }
      ],
      "stateMutability": "nonpayable",
      "type": "constructor"
    },
    {
      "inputs": [],
      "name": "BM_CallFailed",
      "type": "error"
    },
    {
      "inputs": [],
      "name": "BM_NotAuthorized",
      "type": "error"
    },
    {
      "inputs": [],
      "name": "BM_ZeroAddress",
      "type": "error"
    },
    {
      "inputs": [
        {
          "internalType": "address",
          "name": "sender",
          "type": "address"
        },
        {
          "internalType": "uint256",
          "name": "balance",
          "type": "uint256"
        },
        {
          "internalType": "uint256",
          "name": "needed",
          "type": "uint256"
        },
        {
          "internalType": "uint256",
          "name": "tokenId",
          "type": "uint256"
        }
      ],
      "name": "ERC1155InsufficientBalance",
      "type": "error"
    },
    {
      "inputs": [
        {
          "internalType": "address",
          "name": "approver",
          "type": "address"
        }
      ],
      "name": "ERC1155InvalidApprover",
      "type": "error"
    },
    {
      "inputs": [
        {
          "internalType": "uint256",
          "name": "idsLength",
          "type": "uint256"
        },
        {
          "internalType": "uint256",
          "name": "valuesLength",
          "type": "uint256"
        }
      ],
      "name": "ERC1155InvalidArrayLength",
      "type": "error"
    },
    {
      "inputs": [
        {
          "internalType": "address",
          "name": "operator",
          "type": "address"
        }
      ],
      "name": "ERC1155InvalidOperator",
      "type": "error"
    },
    {
      "inputs": [
        {
          "internalType": "address",
          "name": "receiver",
          "type": "address"
        }
      ],
      "name": "ERC1155InvalidReceiver",
      "type": "error"
    },
    {
      "inputs": [
        {
          "internalType": "address",
          "name": "sender",
          "type": "address"
        }
      ],
      "name": "ERC1155InvalidSender",
      "type": "error"
    },
    {
      "inputs": [
        {
          "internalType": "address",
          "name": "operator",
          "type": "address"
        },
        {
          "internalType": "address",
          "name": "owner",
          "type": "address"
        }
      ],
      "name": "ERC1155MissingApprovalForAll",
      "type": "error"
    },
    {
      "inputs": [
        {
          "internalType": "address",
          "name": "owner",
          "type": "address"
        }
      ],
      "name": "OwnableInvalidOwner",
      "type": "error"
    },
    {
      "inputs": [
        {
          "internalType": "address",
          "name": "account",
          "type": "address"
        }
      ],
      "name": "OwnableUnauthorizedAccount",
      "type": "error"
    },
    {
      "inputs": [],
      "name": "ReentrancyGuardReentrantCall",
      "type": "error"
    },
    {
      "inputs": [],
      "name": "UC_AdminManagerRequiresOwnerSignature",
      "type": "error"
    },
    {
      "inputs": [],
      "name": "UC_AmountZero",
      "type": "error"
    },
    {
      "inputs": [],
      "name": "UC_BelowMinThreshold",
      "type": "error"
    },
    {
      "inputs": [],
      "name": "UC_GlobalMisconfigured",
      "type": "error"
    },
    {
      "inputs": [
        {
          "internalType": "address",
          "name": "fromAccount",
          "type": "address"
        },
        {
          "internalType": "uint256",
          "name": "id",
          "type": "uint256"
        },
        {
          "internalType": "uint256",
          "name": "have",
          "type": "uint256"
        },
        {
          "internalType": "uint256",
          "name": "need",
          "type": "uint256"
        }
      ],
      "name": "UC_InsufficientBalance",
      "type": "error"
    },
    {
      "inputs": [],
      "name": "UC_InvalidProposal",
      "type": "error"
    },
    {
      "inputs": [],
      "name": "UC_InvalidUpgradeType",
      "type": "error"
    },
    {
      "inputs": [],
      "name": "UC_NoBeamioAccount",
      "type": "error"
    },
    {
      "inputs": [],
      "name": "UC_NotAdmin",
      "type": "error"
    },
    {
      "inputs": [],
      "name": "UC_OpenMintExecutorUnauthorized",
      "type": "error"
    },
    {
      "inputs": [],
      "name": "UC_PriceZero",
      "type": "error"
    },
    {
      "inputs": [
        {
          "internalType": "bytes",
          "name": "data",
          "type": "bytes"
        }
      ],
      "name": "UC_RedeemDelegateFailed",
      "type": "error"
    },
    {
      "inputs": [],
      "name": "UC_RedeemModuleZero",
      "type": "error"
    },
    {
      "inputs": [],
      "name": "UC_StatsModuleZero",
      "type": "error"
    },
    {
      "inputs": [],
      "name": "UC_TierLenMismatch",
      "type": "error"
    },
    {
      "inputs": [],
      "name": "UC_TierMinZero",
      "type": "error"
    },
    {
      "inputs": [],
      "name": "UC_UnauthorizedGateway",
      "type": "error"
    },
    {
      "anonymous": false,
      "inputs": [
        {
          "indexed": true,
          "internalType": "address",
          "name": "beneficiaryAccount",
          "type": "address"
        },
        {
          "indexed": true,
          "internalType": "uint256",
          "name": "tokenId",
          "type": "uint256"
        },
        {
          "indexed": false,
          "internalType": "uint256",
          "name": "attr",
          "type": "uint256"
        },
        {
          "indexed": false,
          "internalType": "uint256",
          "name": "expiry",
          "type": "uint256"
        }
      ],
      "name": "AdminCardMinted",
      "type": "event"
    },
    {
      "anonymous": false,
      "inputs": [
        {
          "indexed": true,
          "internalType": "address",
          "name": "account",
          "type": "address"
        },
        {
          "indexed": false,
          "internalType": "uint256",
          "name": "amount",
          "type": "uint256"
        }
      ],
      "name": "AdminPointsBurned",
      "type": "event"
    },
    {
      "anonymous": false,
      "inputs": [
        {
          "indexed": true,
          "internalType": "address",
          "name": "beneficiaryAccount",
          "type": "address"
        },
        {
          "indexed": false,
          "internalType": "uint256",
          "name": "points6",
          "type": "uint256"
        }
      ],
      "name": "AdminPointsMinted",
      "type": "event"
    },
    {
      "anonymous": false,
      "inputs": [
        {
          "indexed": true,
          "internalType": "address",
          "name": "account",
          "type": "address"
        },
        {
          "indexed": true,
          "internalType": "address",
          "name": "operator",
          "type": "address"
        },
        {
          "indexed": false,
          "internalType": "bool",
          "name": "approved",
          "type": "bool"
        }
      ],
      "name": "ApprovalForAll",
      "type": "event"
    },
    {
      "anonymous": false,
      "inputs": [
        {
          "indexed": false,
          "internalType": "uint256",
          "name": "attr",
          "type": "uint256"
        }
      ],
      "name": "DefaultAttrUpdated",
      "type": "event"
    },
    {
      "anonymous": false,
      "inputs": [
        {
          "indexed": false,
          "internalType": "uint256",
          "name": "oldSecs",
          "type": "uint256"
        },
        {
          "indexed": false,
          "internalType": "uint256",
          "name": "newSecs",
          "type": "uint256"
        }
      ],
      "name": "ExpirySecondsUpdated",
      "type": "event"
    },
    {
      "anonymous": false,
      "inputs": [
        {
          "indexed": true,
          "internalType": "uint256",
          "name": "id",
          "type": "uint256"
        },
        {
          "indexed": true,
          "internalType": "address",
          "name": "userEOA",
          "type": "address"
        },
        {
          "indexed": true,
          "internalType": "address",
          "name": "acct",
          "type": "address"
        },
        {
          "indexed": false,
          "internalType": "uint256",
          "name": "amount",
          "type": "uint256"
        },
        {
          "indexed": false,
          "internalType": "uint256",
          "name": "claimedAfter",
          "type": "uint256"
        }
      ],
      "name": "FaucetClaimed",
      "type": "event"
    },
    {
      "anonymous": false,
      "inputs": [
        {
          "indexed": true,
          "internalType": "uint256",
          "name": "id",
          "type": "uint256"
        },
        {
          "components": [
            {
              "internalType": "uint64",
              "name": "validUntil",
              "type": "uint64"
            },
            {
              "internalType": "uint64",
              "name": "perClaimMax",
              "type": "uint64"
            },
            {
              "internalType": "uint128",
              "name": "maxPerUser",
              "type": "uint128"
            },
            {
              "internalType": "uint128",
              "name": "maxGlobal",
              "type": "uint128"
            },
            {
              "internalType": "bool",
              "name": "enabled",
              "type": "bool"
            },
            {
              "internalType": "uint8",
              "name": "currency",
              "type": "uint8"
            },
            {
              "internalType": "uint8",
              "name": "decimals",
              "type": "uint8"
            },
            {
              "internalType": "uint128",
              "name": "priceInCurrency6",
              "type": "uint128"
            }
          ],
          "indexed": false,
          "internalType": "struct FaucetStorage.FaucetConfig",
          "name": "cfg",
          "type": "tuple"
        }
      ],
      "name": "FaucetConfigUpdated",
      "type": "event"
    },
    {
      "anonymous": false,
      "inputs": [
        {
          "indexed": true,
          "internalType": "uint256",
          "name": "tokenId",
          "type": "uint256"
        },
        {
          "indexed": false,
          "internalType": "bytes32",
          "name": "title",
          "type": "bytes32"
        },
        {
          "indexed": false,
          "internalType": "uint64",
          "name": "validAfter",
          "type": "uint64"
        },
        {
          "indexed": false,
          "internalType": "uint64",
          "name": "validBefore",
          "type": "uint64"
        },
        {
          "indexed": false,
          "internalType": "uint256",
          "name": "maxSupply",
          "type": "uint256"
        },
        {
          "indexed": false,
          "internalType": "uint256",
          "name": "priceInCurrency6",
          "type": "uint256"
        },
        {
          "indexed": false,
          "internalType": "bytes32",
          "name": "sharedMetadataHash",
          "type": "bytes32"
        }
      ],
      "name": "IssuedNftCreated",
      "type": "event"
    },
    {
      "anonymous": false,
      "inputs": [
        {
          "indexed": true,
          "internalType": "uint256",
          "name": "tokenId",
          "type": "uint256"
        },
        {
          "indexed": true,
          "internalType": "address",
          "name": "recipient",
          "type": "address"
        },
        {
          "indexed": false,
          "internalType": "uint256",
          "name": "amount",
          "type": "uint256"
        }
      ],
      "name": "IssuedNftMinted",
      "type": "event"
    },
    {
      "anonymous": false,
      "inputs": [
        {
          "indexed": true,
          "internalType": "address",
          "name": "user",
          "type": "address"
        },
        {
          "indexed": true,
          "internalType": "uint256",
          "name": "tokenId",
          "type": "uint256"
        },
        {
          "indexed": false,
          "internalType": "uint256",
          "name": "tierIndexOrMax",
          "type": "uint256"
        },
        {
          "indexed": false,
          "internalType": "uint256",
          "name": "minUsdc6",
          "type": "uint256"
        },
        {
          "indexed": false,
          "internalType": "uint256",
          "name": "expiry",
          "type": "uint256"
        }
      ],
      "name": "MemberNFTIssued",
      "type": "event"
    },
    {
      "anonymous": false,
      "inputs": [
        {
          "indexed": true,
          "internalType": "address",
          "name": "user",
          "type": "address"
        },
        {
          "indexed": true,
          "internalType": "uint256",
          "name": "oldActiveTokenId",
          "type": "uint256"
        },
        {
          "indexed": true,
          "internalType": "uint256",
          "name": "newTokenId",
          "type": "uint256"
        },
        {
          "indexed": false,
          "internalType": "uint256",
          "name": "oldTierIndexOrMax",
          "type": "uint256"
        },
        {
          "indexed": false,
          "internalType": "uint256",
          "name": "newTierIndex",
          "type": "uint256"
        },
        {
          "indexed": false,
          "internalType": "uint256",
          "name": "newExpiry",
          "type": "uint256"
        }
      ],
      "name": "MemberNFTUpgraded",
      "type": "event"
    },
    {
      "anonymous": false,
      "inputs": [
        {
          "indexed": true,
          "internalType": "address",
          "name": "previousOwner",
          "type": "address"
        },
        {
          "indexed": true,
          "internalType": "address",
          "name": "newOwner",
          "type": "address"
        }
      ],
      "name": "OwnershipTransferred",
      "type": "event"
    },
    {
      "anonymous": false,
      "inputs": [
        {
          "indexed": true,
          "internalType": "address",
          "name": "userEOA",
          "type": "address"
        },
        {
          "indexed": true,
          "internalType": "address",
          "name": "acct",
          "type": "address"
        },
        {
          "indexed": false,
          "internalType": "uint256",
          "name": "points6",
          "type": "uint256"
        }
      ],
      "name": "PointsMintedByGateway",
      "type": "event"
    },
    {
      "anonymous": false,
      "inputs": [
        {
          "indexed": true,
          "internalType": "address",
          "name": "payerEOA",
          "type": "address"
        },
        {
          "indexed": true,
          "internalType": "address",
          "name": "beneficiaryAccount",
          "type": "address"
        },
        {
          "indexed": true,
          "internalType": "address",
          "name": "usdc",
          "type": "address"
        },
        {
          "indexed": false,
          "internalType": "uint256",
          "name": "usdcIn6",
          "type": "uint256"
        },
        {
          "indexed": false,
          "internalType": "uint256",
          "name": "pointsMinted6",
          "type": "uint256"
        },
        {
          "indexed": false,
          "internalType": "uint256",
          "name": "unitPointPriceUsdc6",
          "type": "uint256"
        },
        {
          "indexed": false,
          "internalType": "bytes32",
          "name": "nonce",
          "type": "bytes32"
        }
      ],
      "name": "PointsPurchasedWithUSDC",
      "type": "event"
    },
    {
      "anonymous": false,
      "inputs": [
        {
          "indexed": false,
          "internalType": "uint256",
          "name": "priceInCurrencyE6",
          "type": "uint256"
        }
      ],
      "name": "PointsUnitPriceUpdated",
      "type": "event"
    },
    {
      "anonymous": false,
      "inputs": [
        {
          "indexed": true,
          "internalType": "uint256",
          "name": "id",
          "type": "uint256"
        },
        {
          "indexed": true,
          "internalType": "address",
          "name": "admin",
          "type": "address"
        }
      ],
      "name": "ProposalApproved",
      "type": "event"
    },
    {
      "anonymous": false,
      "inputs": [
        {
          "indexed": true,
          "internalType": "uint256",
          "name": "id",
          "type": "uint256"
        },
        {
          "indexed": true,
          "internalType": "bytes4",
          "name": "selector",
          "type": "bytes4"
        },
        {
          "indexed": true,
          "internalType": "address",
          "name": "proposer",
          "type": "address"
        }
      ],
      "name": "ProposalCreated",
      "type": "event"
    },
    {
      "anonymous": false,
      "inputs": [
        {
          "indexed": true,
          "internalType": "uint256",
          "name": "id",
          "type": "uint256"
        }
      ],
      "name": "ProposalExecuted",
      "type": "event"
    },
    {
      "anonymous": false,
      "inputs": [
        {
          "indexed": true,
          "internalType": "bytes32",
          "name": "hash",
          "type": "bytes32"
        }
      ],
      "name": "RedeemCancelled",
      "type": "event"
    },
    {
      "anonymous": false,
      "inputs": [
        {
          "indexed": true,
          "internalType": "bytes32",
          "name": "hash",
          "type": "bytes32"
        },
        {
          "indexed": false,
          "internalType": "uint256",
          "name": "points6",
          "type": "uint256"
        },
        {
          "indexed": false,
          "internalType": "uint256",
          "name": "attr",
          "type": "uint256"
        }
      ],
      "name": "RedeemCreated",
      "type": "event"
    },
    {
      "anonymous": false,
      "inputs": [
        {
          "indexed": false,
          "internalType": "uint256",
          "name": "index",
          "type": "uint256"
        },
        {
          "indexed": false,
          "internalType": "uint256",
          "name": "minUsdc6",
          "type": "uint256"
        },
        {
          "indexed": false,
          "internalType": "uint256",
          "name": "attr",
          "type": "uint256"
        },
        {
          "indexed": false,
          "internalType": "uint256",
          "name": "tierExpirySeconds",
          "type": "uint256"
        }
      ],
      "name": "TierAppended",
      "type": "event"
    },
    {
      "anonymous": false,
      "inputs": [
        {
          "indexed": false,
          "internalType": "uint256",
          "name": "count",
          "type": "uint256"
        }
      ],
      "name": "TiersUpdated",
      "type": "event"
    },
    {
      "anonymous": false,
      "inputs": [
        {
          "indexed": true,
          "internalType": "address",
          "name": "operator",
          "type": "address"
        },
        {
          "indexed": true,
          "internalType": "address",
          "name": "from",
          "type": "address"
        },
        {
          "indexed": true,
          "internalType": "address",
          "name": "to",
          "type": "address"
        },
        {
          "indexed": false,
          "internalType": "uint256[]",
          "name": "ids",
          "type": "uint256[]"
        },
        {
          "indexed": false,
          "internalType": "uint256[]",
          "name": "values",
          "type": "uint256[]"
        }
      ],
      "name": "TransferBatch",
      "type": "event"
    },
    {
      "anonymous": false,
      "inputs": [
        {
          "indexed": true,
          "internalType": "address",
          "name": "operator",
          "type": "address"
        },
        {
          "indexed": true,
          "internalType": "address",
          "name": "from",
          "type": "address"
        },
        {
          "indexed": true,
          "internalType": "address",
          "name": "to",
          "type": "address"
        },
        {
          "indexed": false,
          "internalType": "uint256",
          "name": "id",
          "type": "uint256"
        },
        {
          "indexed": false,
          "internalType": "uint256",
          "name": "value",
          "type": "uint256"
        }
      ],
      "name": "TransferSingle",
      "type": "event"
    },
    {
      "anonymous": false,
      "inputs": [
        {
          "indexed": false,
          "internalType": "bool",
          "name": "enabled",
          "type": "bool"
        }
      ],
      "name": "TransferWhitelistEnabledUpdated",
      "type": "event"
    },
    {
      "anonymous": false,
      "inputs": [
        {
          "indexed": false,
          "internalType": "string",
          "name": "value",
          "type": "string"
        },
        {
          "indexed": true,
          "internalType": "uint256",
          "name": "id",
          "type": "uint256"
        }
      ],
      "name": "URI",
      "type": "event"
    },
    {
      "stateMutability": "nonpayable",
      "type": "fallback"
    },
    {
      "inputs": [],
      "name": "ISSUED_NFT_START_ID",
      "outputs": [
        {
          "internalType": "uint256",
          "name": "",
          "type": "uint256"
        }
      ],
      "stateMutability": "view",
      "type": "function"
    },
    {
      "inputs": [],
      "name": "NFT_START_ID",
      "outputs": [
        {
          "internalType": "uint256",
          "name": "",
          "type": "uint256"
        }
      ],
      "stateMutability": "view",
      "type": "function"
    },
    {
      "inputs": [],
      "name": "POINTS_DECIMALS",
      "outputs": [
        {
          "internalType": "uint8",
          "name": "",
          "type": "uint8"
        }
      ],
      "stateMutability": "view",
      "type": "function"
    },
    {
      "inputs": [],
      "name": "POINTS_ID",
      "outputs": [
        {
          "internalType": "uint256",
          "name": "",
          "type": "uint256"
        }
      ],
      "stateMutability": "view",
      "type": "function"
    },
    {
      "inputs": [],
      "name": "VERSION",
      "outputs": [
        {
          "internalType": "uint256",
          "name": "",
          "type": "uint256"
        }
      ],
      "stateMutability": "view",
      "type": "function"
    },
    {
      "inputs": [
        {
          "internalType": "address",
          "name": "",
          "type": "address"
        },
        {
          "internalType": "uint256",
          "name": "",
          "type": "uint256"
        }
      ],
      "name": "_userOwnedNfts",
      "outputs": [
        {
          "internalType": "uint256",
          "name": "",
          "type": "uint256"
        }
      ],
      "stateMutability": "view",
      "type": "function"
    },
    {
      "inputs": [
        {
          "internalType": "uint256",
          "name": "",
          "type": "uint256"
        }
      ],
      "name": "activeMembershipCountByTierIndex",
      "outputs": [
        {
          "internalType": "uint256",
          "name": "",
          "type": "uint256"
        }
      ],
      "stateMutability": "view",
      "type": "function"
    },
    {
      "inputs": [
        {
          "internalType": "uint256",
          "name": "",
          "type": "uint256"
        }
      ],
      "name": "activeMembershipCountByTokenId",
      "outputs": [
        {
          "internalType": "uint256",
          "name": "",
          "type": "uint256"
        }
      ],
      "stateMutability": "view",
      "type": "function"
    },
    {
      "inputs": [
        {
          "internalType": "address",
          "name": "",
          "type": "address"
        }
      ],
      "name": "activeMembershipId",
      "outputs": [
        {
          "internalType": "uint256",
          "name": "",
          "type": "uint256"
        }
      ],
      "stateMutability": "view",
      "type": "function"
    },
    {
      "inputs": [
        {
          "internalType": "address",
          "name": "",
          "type": "address"
        }
      ],
      "name": "activeTierIndexOrMax",
      "outputs": [
        {
          "internalType": "uint256",
          "name": "",
          "type": "uint256"
        }
      ],
      "stateMutability": "view",
      "type": "function"
    },
    {
      "inputs": [
        {
          "internalType": "address",
          "name": "a",
          "type": "address"
        }
      ],
      "name": "adminParent",
      "outputs": [
        {
          "internalType": "address",
          "name": "",
          "type": "address"
        }
      ],
      "stateMutability": "view",
      "type": "function"
    },
    {
      "inputs": [
        {
          "internalType": "uint256",
          "name": "minUsdc6",
          "type": "uint256"
        },
        {
          "internalType": "uint256",
          "name": "attr",
          "type": "uint256"
        },
        {
          "internalType": "uint256",
          "name": "tierExpirySeconds",
          "type": "uint256"
        }
      ],
      "name": "appendTier",
      "outputs": [],
      "stateMutability": "nonpayable",
      "type": "function"
    },
    {
      "inputs": [
        {
          "internalType": "uint256",
          "name": "id",
          "type": "uint256"
        }
      ],
      "name": "approveProposal",
      "outputs": [],
      "stateMutability": "nonpayable",
      "type": "function"
    },
    {
      "inputs": [
        {
          "internalType": "uint256",
          "name": "id",
          "type": "uint256"
        },
        {
          "internalType": "address",
          "name": "adminSigner",
          "type": "address"
        }
      ],
      "name": "approveProposalByGateway",
      "outputs": [],
      "stateMutability": "nonpayable",
      "type": "function"
    },
    {
      "inputs": [
        {
          "internalType": "uint256",
          "name": "",
          "type": "uint256"
        }
      ],
      "name": "attributes",
      "outputs": [
        {
          "internalType": "uint256",
          "name": "",
          "type": "uint256"
        }
      ],
      "stateMutability": "view",
      "type": "function"
    },
    {
      "inputs": [
        {
          "internalType": "address",
          "name": "account",
          "type": "address"
        },
        {
          "internalType": "uint256",
          "name": "id",
          "type": "uint256"
        }
      ],
      "name": "balanceOf",
      "outputs": [
        {
          "internalType": "uint256",
          "name": "",
          "type": "uint256"
        }
      ],
      "stateMutability": "view",
      "type": "function"
    },
    {
      "inputs": [
        {
          "internalType": "address[]",
          "name": "accounts",
          "type": "address[]"
        },
        {
          "internalType": "uint256[]",
          "name": "ids",
          "type": "uint256[]"
        }
      ],
      "name": "balanceOfBatch",
      "outputs": [
        {
          "internalType": "uint256[]",
          "name": "",
          "type": "uint256[]"
        }
      ],
      "stateMutability": "view",
      "type": "function"
    },
    {
      "inputs": [
        {
          "internalType": "address",
          "name": "target",
          "type": "address"
        },
        {
          "internalType": "uint256",
          "name": "amount",
          "type": "uint256"
        }
      ],
      "name": "burnPointsByAdmin",
      "outputs": [],
      "stateMutability": "nonpayable",
      "type": "function"
    },
    {
      "inputs": [
        {
          "internalType": "address",
          "name": "subordinate",
          "type": "address"
        },
        {
          "internalType": "address",
          "name": "authorizer",
          "type": "address"
        }
      ],
      "name": "clearAdminMintCounterForSubordinate",
      "outputs": [],
      "stateMutability": "nonpayable",
      "type": "function"
    },
    {
      "inputs": [
        {
          "internalType": "bytes4",
          "name": "selector",
          "type": "bytes4"
        },
        {
          "internalType": "address",
          "name": "target",
          "type": "address"
        },
        {
          "internalType": "uint256",
          "name": "v1",
          "type": "uint256"
        },
        {
          "internalType": "uint256",
          "name": "v2",
          "type": "uint256"
        },
        {
          "internalType": "uint256",
          "name": "v3",
          "type": "uint256"
        }
      ],
      "name": "createProposal",
      "outputs": [
        {
          "internalType": "uint256",
          "name": "",
          "type": "uint256"
        }
      ],
      "stateMutability": "nonpayable",
      "type": "function"
    },
    {
      "inputs": [],
      "name": "currency",
      "outputs": [
        {
          "internalType": "enum BeamioCurrency.CurrencyType",
          "name": "",
          "type": "uint8"
        }
      ],
      "stateMutability": "view",
      "type": "function"
    },
    {
      "inputs": [],
      "name": "debugGateway",
      "outputs": [
        {
          "internalType": "address",
          "name": "",
          "type": "address"
        }
      ],
      "stateMutability": "view",
      "type": "function"
    },
    {
      "inputs": [],
      "name": "defaultAttrWhenNoTiers",
      "outputs": [
        {
          "internalType": "uint256",
          "name": "",
          "type": "uint256"
        }
      ],
      "stateMutability": "view",
      "type": "function"
    },
    {
      "inputs": [],
      "name": "deployer",
      "outputs": [
        {
          "internalType": "address",
          "name": "",
          "type": "address"
        }
      ],
      "stateMutability": "view",
      "type": "function"
    },
    {
      "inputs": [
        {
          "internalType": "uint256",
          "name": "",
          "type": "uint256"
        }
      ],
      "name": "expiresAt",
      "outputs": [
        {
          "internalType": "uint256",
          "name": "",
          "type": "uint256"
        }
      ],
      "stateMutability": "view",
      "type": "function"
    },
    {
      "inputs": [],
      "name": "expirySeconds",
      "outputs": [
        {
          "internalType": "uint256",
          "name": "",
          "type": "uint256"
        }
      ],
      "stateMutability": "view",
      "type": "function"
    },
    {
      "inputs": [],
      "name": "factoryGateway",
      "outputs": [
        {
          "internalType": "address",
          "name": "",
          "type": "address"
        }
      ],
      "stateMutability": "view",
      "type": "function"
    },
    {
      "inputs": [
        {
          "internalType": "address",
          "name": "userEOA",
          "type": "address"
        },
        {
          "internalType": "uint256",
          "name": "id",
          "type": "uint256"
        },
        {
          "internalType": "uint256",
          "name": "amount",
          "type": "uint256"
        }
      ],
      "name": "faucetByGateway",
      "outputs": [],
      "stateMutability": "nonpayable",
      "type": "function"
    },
    {
      "inputs": [
        {
          "internalType": "uint256",
          "name": "id",
          "type": "uint256"
        }
      ],
      "name": "faucetConfig",
      "outputs": [
        {
          "components": [
            {
              "internalType": "uint64",
              "name": "validUntil",
              "type": "uint64"
            },
            {
              "internalType": "uint64",
              "name": "perClaimMax",
              "type": "uint64"
            },
            {
              "internalType": "uint128",
              "name": "maxPerUser",
              "type": "uint128"
            },
            {
              "internalType": "uint128",
              "name": "maxGlobal",
              "type": "uint128"
            },
            {
              "internalType": "bool",
              "name": "enabled",
              "type": "bool"
            },
            {
              "internalType": "uint8",
              "name": "currency",
              "type": "uint8"
            },
            {
              "internalType": "uint8",
              "name": "decimals",
              "type": "uint8"
            },
            {
              "internalType": "uint128",
              "name": "priceInCurrency6",
              "type": "uint128"
            }
          ],
          "internalType": "struct FaucetStorage.FaucetConfig",
          "name": "",
          "type": "tuple"
        }
      ],
      "stateMutability": "view",
      "type": "function"
    },
    {
      "inputs": [],
      "name": "gateway",
      "outputs": [
        {
          "internalType": "address",
          "name": "",
          "type": "address"
        }
      ],
      "stateMutability": "view",
      "type": "function"
    },
    {
      "inputs": [
        {
          "internalType": "address",
          "name": "admin",
          "type": "address"
        }
      ],
      "name": "getAdminBurnCounter",
      "outputs": [
        {
          "internalType": "uint256",
          "name": "",
          "type": "uint256"
        }
      ],
      "stateMutability": "view",
      "type": "function"
    },
    {
      "inputs": [
        {
          "internalType": "address",
          "name": "admin",
          "type": "address"
        }
      ],
      "name": "getAdminMintCounter",
      "outputs": [
        {
          "internalType": "uint256",
          "name": "",
          "type": "uint256"
        }
      ],
      "stateMutability": "view",
      "type": "function"
    },
    {
      "inputs": [
        {
          "internalType": "address",
          "name": "admin",
          "type": "address"
        }
      ],
      "name": "getAdminRedeemMintCounter",
      "outputs": [
        {
          "internalType": "uint256",
          "name": "",
          "type": "uint256"
        }
      ],
      "stateMutability": "view",
      "type": "function"
    },
    {
      "inputs": [
        {
          "internalType": "address",
          "name": "admin",
          "type": "address"
        }
      ],
      "name": "getAdminTransferAmountCounter",
      "outputs": [
        {
          "internalType": "uint256",
          "name": "",
          "type": "uint256"
        }
      ],
      "stateMutability": "view",
      "type": "function"
    },
    {
      "inputs": [
        {
          "internalType": "address",
          "name": "admin",
          "type": "address"
        }
      ],
      "name": "getAdminTransferCounter",
      "outputs": [
        {
          "internalType": "uint256",
          "name": "",
          "type": "uint256"
        }
      ],
      "stateMutability": "view",
      "type": "function"
    },
    {
      "inputs": [
        {
          "internalType": "address",
          "name": "admin",
          "type": "address"
        }
      ],
      "name": "getAdminUSDCMintCounter",
      "outputs": [
        {
          "internalType": "uint256",
          "name": "",
          "type": "uint256"
        }
      ],
      "stateMutability": "view",
      "type": "function"
    },
    {
      "inputs": [
        {
          "internalType": "address",
          "name": "user",
          "type": "address"
        }
      ],
      "name": "getOwnership",
      "outputs": [
        {
          "internalType": "uint256",
          "name": "pt",
          "type": "uint256"
        },
        {
          "components": [
            {
              "internalType": "uint256",
              "name": "tokenId",
              "type": "uint256"
            },
            {
              "internalType": "uint256",
              "name": "attribute",
              "type": "uint256"
            },
            {
              "internalType": "uint256",
              "name": "tierIndexOrMax",
              "type": "uint256"
            },
            {
              "internalType": "uint256",
              "name": "expiry",
              "type": "uint256"
            },
            {
              "internalType": "bool",
              "name": "isExpired",
              "type": "bool"
            }
          ],
          "internalType": "struct BeamioUserCard.NFTDetail[]",
          "name": "nfts",
          "type": "tuple[]"
        }
      ],
      "stateMutability": "view",
      "type": "function"
    },
    {
      "inputs": [
        {
          "internalType": "address",
          "name": "userEOA",
          "type": "address"
        }
      ],
      "name": "getOwnershipByEOA",
      "outputs": [
        {
          "internalType": "uint256",
          "name": "pt",
          "type": "uint256"
        },
        {
          "components": [
            {
              "internalType": "uint256",
              "name": "tokenId",
              "type": "uint256"
            },
            {
              "internalType": "uint256",
              "name": "attribute",
              "type": "uint256"
            },
            {
              "internalType": "uint256",
              "name": "tierIndexOrMax",
              "type": "uint256"
            },
            {
              "internalType": "uint256",
              "name": "expiry",
              "type": "uint256"
            },
            {
              "internalType": "bool",
              "name": "isExpired",
              "type": "bool"
            }
          ],
          "internalType": "struct BeamioUserCard.NFTDetail[]",
          "name": "nfts",
          "type": "tuple[]"
        }
      ],
      "stateMutability": "view",
      "type": "function"
    },
    {
      "inputs": [
        {
          "internalType": "address",
          "name": "a",
          "type": "address"
        }
      ],
      "name": "isAdmin",
      "outputs": [
        {
          "internalType": "bool",
          "name": "",
          "type": "bool"
        }
      ],
      "stateMutability": "view",
      "type": "function"
    },
    {
      "inputs": [
        {
          "internalType": "address",
          "name": "account",
          "type": "address"
        },
        {
          "internalType": "address",
          "name": "operator",
          "type": "address"
        }
      ],
      "name": "isApprovedForAll",
      "outputs": [
        {
          "internalType": "bool",
          "name": "",
          "type": "bool"
        }
      ],
      "stateMutability": "view",
      "type": "function"
    },
    {
      "inputs": [
        {
          "internalType": "uint256",
          "name": "tokenId",
          "type": "uint256"
        }
      ],
      "name": "isIssuedNftValid",
      "outputs": [
        {
          "internalType": "bool",
          "name": "",
          "type": "bool"
        }
      ],
      "stateMutability": "view",
      "type": "function"
    },
    {
      "inputs": [
        {
          "internalType": "address",
          "name": "effectiveTo",
          "type": "address"
        }
      ],
      "name": "isPointsTransferRecipientAllowed",
      "outputs": [
        {
          "internalType": "bool",
          "name": "",
          "type": "bool"
        }
      ],
      "stateMutability": "view",
      "type": "function"
    },
    {
      "inputs": [
        {
          "internalType": "uint256",
          "name": "tokenId",
          "type": "uint256"
        }
      ],
      "name": "issuedNftPriceInCurrency6",
      "outputs": [
        {
          "internalType": "uint256",
          "name": "",
          "type": "uint256"
        }
      ],
      "stateMutability": "view",
      "type": "function"
    },
    {
      "inputs": [
        {
          "internalType": "uint64",
          "name": "hourIndex",
          "type": "uint64"
        }
      ],
      "name": "membershipFlowBucketAtHour",
      "outputs": [
        {
          "internalType": "uint256",
          "name": "issuedCount",
          "type": "uint256"
        },
        {
          "internalType": "uint256",
          "name": "upgradedCount",
          "type": "uint256"
        },
        {
          "internalType": "uint256",
          "name": "expiredDiscoveredCount",
          "type": "uint256"
        },
        {
          "internalType": "uint256",
          "name": "activeSwitchCount",
          "type": "uint256"
        },
        {
          "internalType": "uint256",
          "name": "activatedCount",
          "type": "uint256"
        },
        {
          "internalType": "uint256",
          "name": "deactivatedCount",
          "type": "uint256"
        },
        {
          "internalType": "bool",
          "name": "hasData",
          "type": "bool"
        }
      ],
      "stateMutability": "view",
      "type": "function"
    },
    {
      "inputs": [
        {
          "internalType": "uint8",
          "name": "scopeType",
          "type": "uint8"
        },
        {
          "internalType": "uint256",
          "name": "scopeKey",
          "type": "uint256"
        },
        {
          "internalType": "uint64",
          "name": "hourIndex",
          "type": "uint64"
        }
      ],
      "name": "membershipScopedFlowBucketAtHour",
      "outputs": [
        {
          "internalType": "uint256",
          "name": "issuedCount",
          "type": "uint256"
        },
        {
          "internalType": "uint256",
          "name": "upgradedCount",
          "type": "uint256"
        },
        {
          "internalType": "uint256",
          "name": "expiredDiscoveredCount",
          "type": "uint256"
        },
        {
          "internalType": "uint256",
          "name": "activeSwitchCount",
          "type": "uint256"
        },
        {
          "internalType": "uint256",
          "name": "activatedCount",
          "type": "uint256"
        },
        {
          "internalType": "uint256",
          "name": "deactivatedCount",
          "type": "uint256"
        },
        {
          "internalType": "bool",
          "name": "hasData",
          "type": "bool"
        }
      ],
      "stateMutability": "view",
      "type": "function"
    },
    {
      "inputs": [],
      "name": "metadataBaseURI",
      "outputs": [
        {
          "internalType": "string",
          "name": "",
          "type": "string"
        }
      ],
      "stateMutability": "view",
      "type": "function"
    },
    {
      "inputs": [
        {
          "internalType": "address",
          "name": "userEOA",
          "type": "address"
        },
        {
          "internalType": "uint256",
          "name": "id",
          "type": "uint256"
        },
        {
          "internalType": "uint256",
          "name": "amount6",
          "type": "uint256"
        }
      ],
      "name": "mintFaucetByGateway",
      "outputs": [],
      "stateMutability": "nonpayable",
      "type": "function"
    },
    {
      "inputs": [
        {
          "internalType": "address",
          "name": "userEOA",
          "type": "address"
        },
        {
          "internalType": "uint256",
          "name": "tokenId",
          "type": "uint256"
        },
        {
          "internalType": "uint256",
          "name": "amount",
          "type": "uint256"
        }
      ],
      "name": "mintIssuedNftByGateway",
      "outputs": [],
      "stateMutability": "nonpayable",
      "type": "function"
    },
    {
      "inputs": [
        {
          "internalType": "address",
          "name": "to",
          "type": "address"
        },
        {
          "internalType": "uint256",
          "name": "tokenId",
          "type": "uint256"
        },
        {
          "internalType": "uint256",
          "name": "amount",
          "type": "uint256"
        }
      ],
      "name": "mintIssuedNftByOwner",
      "outputs": [],
      "stateMutability": "nonpayable",
      "type": "function"
    },
    {
      "inputs": [
        {
          "internalType": "address",
          "name": "user",
          "type": "address"
        },
        {
          "internalType": "uint256",
          "name": "tierIndex",
          "type": "uint256"
        }
      ],
      "name": "mintMemberCardByAdmin",
      "outputs": [],
      "stateMutability": "nonpayable",
      "type": "function"
    },
    {
      "inputs": [
        {
          "internalType": "address",
          "name": "user",
          "type": "address"
        },
        {
          "internalType": "uint256",
          "name": "points6",
          "type": "uint256"
        }
      ],
      "name": "mintPointsByAdmin",
      "outputs": [],
      "stateMutability": "nonpayable",
      "type": "function"
    },
    {
      "inputs": [
        {
          "internalType": "address",
          "name": "user",
          "type": "address"
        },
        {
          "internalType": "uint256",
          "name": "points6",
          "type": "uint256"
        },
        {
          "internalType": "address",
          "name": "operator",
          "type": "address"
        }
      ],
      "name": "mintPointsByAdminWithOperator",
      "outputs": [],
      "stateMutability": "nonpayable",
      "type": "function"
    },
    {
      "inputs": [
        {
          "internalType": "address",
          "name": "userEOA",
          "type": "address"
        },
        {
          "internalType": "uint256",
          "name": "points6",
          "type": "uint256"
        }
      ],
      "name": "mintPointsByGateway",
      "outputs": [],
      "stateMutability": "nonpayable",
      "type": "function"
    },
    {
      "inputs": [
        {
          "internalType": "address",
          "name": "userEOA",
          "type": "address"
        },
        {
          "internalType": "uint256",
          "name": "points6",
          "type": "uint256"
        },
        {
          "internalType": "address",
          "name": "operator",
          "type": "address"
        }
      ],
      "name": "mintPointsByGatewayWithOperator",
      "outputs": [],
      "stateMutability": "nonpayable",
      "type": "function"
    },
    {
      "inputs": [
        {
          "internalType": "address",
          "name": "payerAA",
          "type": "address"
        },
        {
          "internalType": "uint256",
          "name": "points6",
          "type": "uint256"
        },
        {
          "internalType": "address",
          "name": "operatorForStats",
          "type": "address"
        }
      ],
      "name": "mintPointsOpenContainerRelay",
      "outputs": [],
      "stateMutability": "nonpayable",
      "type": "function"
    },
    {
      "inputs": [],
      "name": "owner",
      "outputs": [
        {
          "internalType": "address",
          "name": "",
          "type": "address"
        }
      ],
      "stateMutability": "view",
      "type": "function"
    },
    {
      "inputs": [],
      "name": "pointsUnitPriceInCurrencyE6",
      "outputs": [
        {
          "internalType": "uint256",
          "name": "",
          "type": "uint256"
        }
      ],
      "stateMutability": "view",
      "type": "function"
    },
    {
      "inputs": [
        {
          "internalType": "address",
          "name": "operator",
          "type": "address"
        },
        {
          "internalType": "uint256",
          "name": "amount",
          "type": "uint256"
        }
      ],
      "name": "recordAdminBurnForStats",
      "outputs": [],
      "stateMutability": "nonpayable",
      "type": "function"
    },
    {
      "inputs": [
        {
          "internalType": "address",
          "name": "admin",
          "type": "address"
        },
        {
          "internalType": "uint256",
          "name": "amount",
          "type": "uint256"
        }
      ],
      "name": "recordAdminMintForStats",
      "outputs": [],
      "stateMutability": "nonpayable",
      "type": "function"
    },
    {
      "inputs": [
        {
          "internalType": "string",
          "name": "code",
          "type": "string"
        },
        {
          "internalType": "address",
          "name": "to",
          "type": "address"
        }
      ],
      "name": "redeemAdminByGateway",
      "outputs": [],
      "stateMutability": "nonpayable",
      "type": "function"
    },
    {
      "inputs": [
        {
          "internalType": "string[]",
          "name": "codes",
          "type": "string[]"
        },
        {
          "internalType": "address",
          "name": "userEOA",
          "type": "address"
        }
      ],
      "name": "redeemBatchByGateway",
      "outputs": [],
      "stateMutability": "nonpayable",
      "type": "function"
    },
    {
      "inputs": [
        {
          "internalType": "string",
          "name": "code",
          "type": "string"
        },
        {
          "internalType": "address",
          "name": "userEOA",
          "type": "address"
        }
      ],
      "name": "redeemByGateway",
      "outputs": [],
      "stateMutability": "nonpayable",
      "type": "function"
    },
    {
      "inputs": [
        {
          "internalType": "string",
          "name": "code",
          "type": "string"
        },
        {
          "internalType": "address",
          "name": "userEOA",
          "type": "address"
        }
      ],
      "name": "redeemPoolByGateway",
      "outputs": [],
      "stateMutability": "nonpayable",
      "type": "function"
    },
    {
      "inputs": [],
      "name": "renounceOwnership",
      "outputs": [],
      "stateMutability": "nonpayable",
      "type": "function"
    },
    {
      "inputs": [
        {
          "internalType": "address",
          "name": "adminAddr",
          "type": "address"
        }
      ],
      "name": "resetAdminLimit",
      "outputs": [],
      "stateMutability": "nonpayable",
      "type": "function"
    },
    {
      "inputs": [
        {
          "internalType": "address",
          "name": "adminAddr",
          "type": "address"
        },
        {
          "internalType": "address",
          "name": "authorizer",
          "type": "address"
        }
      ],
      "name": "resetAdminLimitByAdmin",
      "outputs": [],
      "stateMutability": "nonpayable",
      "type": "function"
    },
    {
      "inputs": [
        {
          "internalType": "address",
          "name": "from",
          "type": "address"
        },
        {
          "internalType": "address",
          "name": "to",
          "type": "address"
        },
        {
          "internalType": "uint256[]",
          "name": "ids",
          "type": "uint256[]"
        },
        {
          "internalType": "uint256[]",
          "name": "values",
          "type": "uint256[]"
        },
        {
          "internalType": "bytes",
          "name": "data",
          "type": "bytes"
        }
      ],
      "name": "safeBatchTransferFrom",
      "outputs": [],
      "stateMutability": "nonpayable",
      "type": "function"
    },
    {
      "inputs": [
        {
          "internalType": "address",
          "name": "from",
          "type": "address"
        },
        {
          "internalType": "address",
          "name": "to",
          "type": "address"
        },
        {
          "internalType": "uint256",
          "name": "id",
          "type": "uint256"
        },
        {
          "internalType": "uint256",
          "name": "value",
          "type": "uint256"
        },
        {
          "internalType": "bytes",
          "name": "data",
          "type": "bytes"
        }
      ],
      "name": "safeTransferFrom",
      "outputs": [],
      "stateMutability": "nonpayable",
      "type": "function"
    },
    {
      "inputs": [
        {
          "internalType": "address",
          "name": "operator",
          "type": "address"
        },
        {
          "internalType": "bool",
          "name": "approved",
          "type": "bool"
        }
      ],
      "name": "setApprovalForAll",
      "outputs": [],
      "stateMutability": "nonpayable",
      "type": "function"
    },
    {
      "inputs": [
        {
          "internalType": "uint256",
          "name": "attr",
          "type": "uint256"
        }
      ],
      "name": "setDefaultAttr",
      "outputs": [],
      "stateMutability": "nonpayable",
      "type": "function"
    },
    {
      "inputs": [
        {
          "internalType": "uint256",
          "name": "secs",
          "type": "uint256"
        }
      ],
      "name": "setExpirySeconds",
      "outputs": [],
      "stateMutability": "nonpayable",
      "type": "function"
    },
    {
      "inputs": [
        {
          "internalType": "uint256",
          "name": "priceInCurrencyE6",
          "type": "uint256"
        }
      ],
      "name": "setPointsUnitPrice",
      "outputs": [],
      "stateMutability": "nonpayable",
      "type": "function"
    },
    {
      "inputs": [
        {
          "components": [
            {
              "internalType": "uint256",
              "name": "minUsdc6",
              "type": "uint256"
            },
            {
              "internalType": "uint256",
              "name": "attr",
              "type": "uint256"
            },
            {
              "internalType": "uint256",
              "name": "tierExpirySeconds",
              "type": "uint256"
            }
          ],
          "internalType": "struct Tier[]",
          "name": "newTiers",
          "type": "tuple[]"
        }
      ],
      "name": "setTiers",
      "outputs": [],
      "stateMutability": "nonpayable",
      "type": "function"
    },
    {
      "inputs": [
        {
          "internalType": "address",
          "name": "target",
          "type": "address"
        },
        {
          "internalType": "bool",
          "name": "allowed",
          "type": "bool"
        }
      ],
      "name": "setTransferWhitelist",
      "outputs": [],
      "stateMutability": "nonpayable",
      "type": "function"
    },
    {
      "inputs": [
        {
          "internalType": "bool",
          "name": "enabled",
          "type": "bool"
        }
      ],
      "name": "setTransferWhitelistEnabled",
      "outputs": [],
      "stateMutability": "nonpayable",
      "type": "function"
    },
    {
      "inputs": [
        {
          "internalType": "bytes4",
          "name": "interfaceId",
          "type": "bytes4"
        }
      ],
      "name": "supportsInterface",
      "outputs": [
        {
          "internalType": "bool",
          "name": "",
          "type": "bool"
        }
      ],
      "stateMutability": "view",
      "type": "function"
    },
    {
      "inputs": [
        {
          "internalType": "uint256",
          "name": "",
          "type": "uint256"
        }
      ],
      "name": "tiers",
      "outputs": [
        {
          "internalType": "uint256",
          "name": "minUsdc6",
          "type": "uint256"
        },
        {
          "internalType": "uint256",
          "name": "attr",
          "type": "uint256"
        },
        {
          "internalType": "uint256",
          "name": "tierExpirySeconds",
          "type": "uint256"
        }
      ],
      "stateMutability": "view",
      "type": "function"
    },
    {
      "inputs": [
        {
          "internalType": "uint256",
          "name": "",
          "type": "uint256"
        }
      ],
      "name": "tokenTierIndexOrMax",
      "outputs": [
        {
          "internalType": "uint256",
          "name": "",
          "type": "uint256"
        }
      ],
      "stateMutability": "view",
      "type": "function"
    },
    {
      "inputs": [],
      "name": "totalActiveMemberships",
      "outputs": [
        {
          "internalType": "uint256",
          "name": "",
          "type": "uint256"
        }
      ],
      "stateMutability": "view",
      "type": "function"
    },
    {
      "inputs": [],
      "name": "totalMembershipIssued",
      "outputs": [
        {
          "internalType": "uint256",
          "name": "",
          "type": "uint256"
        }
      ],
      "stateMutability": "view",
      "type": "function"
    },
    {
      "inputs": [
        {
          "internalType": "uint256",
          "name": "",
          "type": "uint256"
        }
      ],
      "name": "totalMembershipIssuedByTierIndex",
      "outputs": [
        {
          "internalType": "uint256",
          "name": "",
          "type": "uint256"
        }
      ],
      "stateMutability": "view",
      "type": "function"
    },
    {
      "inputs": [],
      "name": "totalMembershipUpgraded",
      "outputs": [
        {
          "internalType": "uint256",
          "name": "",
          "type": "uint256"
        }
      ],
      "stateMutability": "view",
      "type": "function"
    },
    {
      "inputs": [],
      "name": "totalSupply",
      "outputs": [
        {
          "internalType": "uint256",
          "name": "",
          "type": "uint256"
        }
      ],
      "stateMutability": "view",
      "type": "function"
    },
    {
      "inputs": [
        {
          "internalType": "uint256",
          "name": "id",
          "type": "uint256"
        }
      ],
      "name": "totalSupply",
      "outputs": [
        {
          "internalType": "uint256",
          "name": "",
          "type": "uint256"
        }
      ],
      "stateMutability": "view",
      "type": "function"
    },
    {
      "inputs": [
        {
          "internalType": "address",
          "name": "newOwner",
          "type": "address"
        }
      ],
      "name": "transferOwnership",
      "outputs": [],
      "stateMutability": "nonpayable",
      "type": "function"
    },
    {
      "inputs": [
        {
          "internalType": "address",
          "name": "",
          "type": "address"
        }
      ],
      "name": "transferWhitelist",
      "outputs": [
        {
          "internalType": "bool",
          "name": "",
          "type": "bool"
        }
      ],
      "stateMutability": "view",
      "type": "function"
    },
    {
      "inputs": [],
      "name": "transferWhitelistEnabled",
      "outputs": [
        {
          "internalType": "bool",
          "name": "",
          "type": "bool"
        }
      ],
      "stateMutability": "view",
      "type": "function"
    },
    {
      "inputs": [],
      "name": "upgradeType",
      "outputs": [
        {
          "internalType": "uint8",
          "name": "",
          "type": "uint8"
        }
      ],
      "stateMutability": "view",
      "type": "function"
    },
    {
      "inputs": [
        {
          "internalType": "uint256",
          "name": "",
          "type": "uint256"
        }
      ],
      "name": "uri",
      "outputs": [
        {
          "internalType": "string",
          "name": "",
          "type": "string"
        }
      ],
      "stateMutability": "view",
      "type": "function"
    }
  ],
  "bytecode": "0x60a0604052346103b9576161ff80380380610019816103bd565b928339810160e0828203126103b95781516001600160401b0381116103b957820181601f820112156103b95780516001600160401b03811161031a57610068601f8201601f19166020016103bd565b92818452602082840101116103b9575f928160208094018483015e010152602081015160098110156103b95760408201516100a5606084016103e2565b916100b2608085016103e2565b9360a08101519060ff82168092036103b95760c001519283151584036103b9576020945f6100df876103bd565b52600254600181811c911680156103af575b8782101461039b57601f8111610369575b505f6002556001600160a01b031692831561035657600380546001600160a01b031981168617909155604051979085906001600160a01b03167f8be0079c531659141344cd1fd0a4f28419497f9722a3daafe3b4186f6b6457e05f80a3600160045560646019556001600160a01b03811690811590811561034c575b5061033d576002841161032e57336080528060018060a01b031960055416176005556006549160ff60a01b9060a01b169160018060a81b031916171760065560075560ff19601a541617601a5560017fbc488d3e2575f0f2113dc4d9a0cd6bc52445c6bc28a8974ed97a6ba3ecfd657a55805f527fbc488d3e2575f0f2113dc4d9a0cd6bc52445c6bc28a8974ed97a6ba3ecfd657b835260405f20600160ff198254161790555f5160206161df5f395f51905f52546801000000000000000081101561031a5760018101805f5160206161df5f395f51905f5255811015610306575f5160206161df5f395f51905f525f9081528490200180546001600160a01b031916909117905564174876e8007ffed699897f2561c8a98f833aa3de83c4904370d413fe5fb15abe26e9f8150b29556102cb575b604051615de890816103f7823960805181612a880152f35b7fc52867146282c253c04e94eb2a948478a1f7ef84cf2d6f5864facc99f2203f2c91600160ff19600a541617600a5560018152a15f806102b3565b634e487b7160e01b5f52603260045260245ffd5b634e487b7160e01b5f52604160045260245ffd5b63c7e283e160e01b5f5260045ffd5b63ab82bb9960e01b5f5260045ffd5b90503b155f61017e565b631e4fbdf760e01b5f525f60045260245ffd5b80156101025760025f52601f875f20910160051c905f5b82811061038e575050610102565b5f82820155600101610380565b634e487b7160e01b5f52602260045260245ffd5b90607f16906100f1565b5f80fd5b6040519190601f01601f191682016001600160401b0381118382101761031a57604052565b51906001600160a01b03821682036103b95756fe60806040526004361015610019575b3415613985575b5f80fd5b5f3560e01c8062fdd58e1461059d57806301ffc9a714610598578063039af9eb1461059357806303ca3e381461058e5780630a106e9c146105895780630b6c8d71146105845780630cb856411461057f5780630e4ab4871461057a5780630e89341c146105755780630ec3786b146105705780631018c34b1461056b57806310bba86414610566578063116191b6146105025780631284b92f1461056157806317c957091461055c57806318160ddd146105575780631c790e24146105525780631fe56e6a1461054d57806324d7806c146105485780632aff2a59146105435780632b681a541461053e5780632dd50a49146105395780632eb2c2d61461053457806333d4e5621461052f5780633c703d451461052a5780633c970fb91461052557806343159ce514610520578063475e53ec1461051b57806348ed7ebe1461051657806349dd0900146105115780634dda22151461050c5780634e1273f41461050757806353785619146105025780635476d071146104fd57806356217848146104f85780635637d5bc146104f3578063564da757146104ee57806356c689fa146104e95780636465c3a7146104e4578063671395c8146104df5780636f0fa0cb146104da5780636f5def39146104d5578063706e0132146104d0578063715018a6146104cb57806371b8982f146103fe5780637766fa44146104c65780637ffbe241146104c157806382b720c9146104bc57806383dbbf53146104b7578063897828a8146104b25780638a1b32bb146104ad5780638abc9b25146104a85780638da5cb5b146104a35780638db553081461049e57806394b2e946146104995780639565c5421461049457806398951b561461048f5780639b52f90d1461048a5780639f1bbda7146104855780639f3d1a2a146104805780639f48facc1461047b578063a22cb46514610476578063a479044614610471578063a657a65b1461046c578063a876c75914610467578063a98d916e14610462578063acf12d3d1461045d578063aeadb04b14610458578063af7ffa2b14610453578063b84f1fe81461044e578063bd85b03914610449578063c926bbfd14610444578063c9840daf1461043f578063d05dcc6a1461043a578063d182793714610435578063d4506e7714610430578063d52dc5151461042b578063d5f3948814610426578063dd1bc5e914610421578063e4a34dce1461041c578063e5a6b10f14610417578063e985e9c514610412578063f242432a1461040d578063f2fde38b14610408578063f540f22714610403578063f986f676146103fe578063fcef6b01146103f9578063fee3d73e146103f45763ffa1ad740361000e57612d5b565b612d3b565b612d1e565b611d3c565b612cf4565b612c7d565b612b90565b612b5f565b612b1f565b612ae1565b612ab7565b612a73565b612a51565b6129f9565b61299f565b612975565b61289a565b612875565b61283f565b6127e5565b612772565b61274b565b61272e565b61270f565b6126f2565b612697565b61262f565b6125a4565b612446565b61238f565b612372565b61234b565b6122d7565b6122af565b612274565b612256565b61222e565b61214d565b6120c8565b612066565b611ffa565b611f03565b611ec3565b611d89565b611c9b565b611c7c565b611c55565b611c2e565b611bf3565b611aba565b611a2b565b611937565b61191c565b6118f2565b6118d5565b610d6d565b611814565b6117b3565b611750565b611629565b6115b7565b61146c565b611429565b6113e0565b6113af565b61131b565b611193565b61116e565b611107565b6110d2565b6110a8565b610feb565b610fc2565b610f98565b610f0f565b610d41565b610cda565b610c7e565b610bb7565b610b34565b610ad7565b610a16565b61093c565b61071d565b6106b0565b61060d565b6105bf565b6001600160a01b031690565b6001600160a01b0381160361001557565b346100155760403660031901126100155760206105f26004356105e1816105ae565b6024355f525f835260405f20610ee5565b54604051908152f35b6001600160e01b031981160361001557565b3461001557602036600319011261001557602060043561062c816105fb565b63ffffffff60e01b16636cdb3d1360e11b811490811561066a575b8115610659575b506040519015158152f35b6301ffc9a760e01b1490505f61064e565b6303a24d0760e21b81149150610647565b634e487b7160e01b5f52603260045260245ffd5b6017548110156106ab5760175f52600360205f20910201905f90565b61067b565b3461001557602036600319011261001557600435601754811015610015576106d960609161068f565b50805490600260018201549101549060405192835260208301526040820152f35b606090600319011261001557600435610712816105ae565b906024359060443590565b346100155761072b366106fa565b600654919290916001600160a01b03168061090f57506005546001600160a01b03165b6001600160a01b0316330361090057610765613a83565b6001600160a01b0381169182156108f15780156108e2576107c86107d7916107c35f516020615d1c5f395f51905f52966107b560405193849263c791063b60e01b60208501528860248501612d8d565b03601f198101835282611202565b613aa3565b60208082518301019101612dab565b9390916108676107e682613b03565b916107f083613b75565b6108596107fc84613bb2565b861580806108d9575b6108ca575b61081d610815612dc1565b8b8a89613c8e565b156108c35788905b6013546014549290916108ae57601754610892576108439087613cd5565b6003546001600160a01b0316613cfc565b613cfc565b61086285610f6b565b610ee5565b546040516001600160a01b039092169582916108839183612dd5565b0390a46108906001600455565b005b8061089e575b50610843565b6108a89087613cd5565b5f610898565b806108b95750610843565b6108a89087613cae565b5f90610825565b6108d48a87613c22565b61080a565b50891515610805565b63201165f360e21b5f5260045ffd5b63a9b8048960e01b5f5260045ffd5b6396f47d2360e01b5f5260045ffd5b61074e565b60409060031901126100155760043561092c816105ae565b90602435610939816105ae565b90565b346100155761094a36610914565b6006546001600160a01b0316806109a357506005546001600160a01b03165b6001600160a01b031633036109005761099e610890926107b56040519384926302841ba760e21b602085015260248401612de6565b613ad0565b610969565b6060602091604081019381526040838201528451809452019201905f5b8181106109d25750505090565b909192602060a060019260808751805183528481015185840152604081015160408401526060810151606084015201511515608082015201940191019190916109c5565b3461001557602036600319011261001557610a5f6020600435610a38816105ae565b60055460405163805a016360e01b815293849283926001600160a01b031660048401612de6565b038173__$a9219284c3f0d74f57f4dcfc58f5429559$__5af48015610ad257610a8f915f91610aa3575b50612f48565b90610a9f604051928392836109a8565b0390f35b610ac5915060203d602011610acb575b610abd8183611202565b810190613054565b5f610a89565b503d610ab3565b612e7c565b3461001557604036600319011261001557600435610af4816105ae565b600654602435906001600160a01b031680610b2f57506005546001600160a01b03165b6001600160a01b031633036109005761089091613d6a565b610b17565b3461001557602036600319011261001557600435610b50613e76565b7ff316e065e93b4fddef3d2d93a57817985081f76ea9e0ca7417ed5b4b086b1fcb6020601854604051908152a1601855005b805180835260209291819084018484015e5f828201840152601f01601f1916010190565b906020610939928181520190610b82565b3461001557602036600319011261001557610bf65f610bd4613eda565b604051809381926319c56d4160e21b8352604060048401526044830190610b82565b306024830152038173__$9326044641c87b14e434c703319e7fbd9b$__5af48015610ad257610a9f915f91610c33575b5060405191829182610ba6565b610c4f91503d805f833e610c478183611202565b810190612e57565b5f610c26565b606090600319011261001557600435610c6d816105ae565b9060243590604435610939816105ae565b3461001557610c8c36610c55565b6006549091906001600160a01b031680610cd557506005546001600160a01b03165b6001600160a01b0316330361090057610cce92610cc9613a83565b613f49565b6001600455005b610cae565b3461001557604036600319011261001557600435610cf7816105ae565b600654602435906001600160a01b031680610d3257506005546001600160a01b03165b6001600160a01b03163303610900576108909161400c565b610d1a565b5f91031261001557565b34610015575f36600319011261001557602060405160068152f35b6001600160a01b0316600452602490565b34610015575f366003190112610015576005546040516001600160a01b039091168152602090f35b6001600160a01b03165f9081527fbc488d3e2575f0f2113dc4d9a0cd6bc52445c6bc28a8974ed97a6ba3ecfd657b6020526040902090565b6001600160a01b03165f9081527fbe5c2328713858b26c97b83c5ace333ac35b55572be4794180ba426b12cc48be6020526040902090565b6001600160a01b03165f9081527fbe5c2328713858b26c97b83c5ace333ac35b55572be4794180ba426b12cc48bf6020526040902090565b6001600160a01b03165f9081527fbe5c2328713858b26c97b83c5ace333ac35b55572be4794180ba426b12cc48c26020526040902090565b6001600160a01b03165f9081527fbe5c2328713858b26c97b83c5ace333ac35b55572be4794180ba426b12cc48c36020526040902090565b6001600160a01b03165f9081527fbe5c2328713858b26c97b83c5ace333ac35b55572be4794180ba426b12cc48c46020526040902090565b9060018060a01b03165f5260205260405f2090565b80548210156106ab575f5260205f2001905f90565b3461001557604036600319011261001557600435610f2c816105ae565b6001600160a01b03165f908152600e602052604090208054602435919082101561001557602091610f5c91610efa565b90549060031b1c604051908152f35b5f527fe5fcefe92466b78c655fa732b80b16e07a00f2a897e833e17d9914703cad563360205260405f2090565b34610015576020366003190112610015576004355f52600b602052602060405f2054604051908152f35b34610015575f3660031901126100155760205f516020615d9c5f395f51905f5254604051908152f35b346100155760403660031901126100155760243560043561100b826105ae565b6006546001600160a01b0316806110a357506005546001600160a01b03165b6001600160a01b03163303610900575f806110436140b9565b93604051602081019163071e438960e21b835285602483015260018060a01b0316604482015260448152611078606482611202565b5190855af4611085612e87565b50156110945761089091614469565b6363bc5ecb60e11b5f5260045ffd5b61102a565b34610015576020366003190112610015576004355f526011602052602060405f2054604051908152f35b3461001557602036600319011261001557602060ff6110fb6004356110f6816105ae565b610d95565b54166040519015158152f35b346100155761111536610914565b6006546001600160a01b03168061116957506005546001600160a01b03165b6001600160a01b031633036109005761099e610890926107b5604051938492630ed647d960e11b602085015260248401612de6565b611134565b3461001557602036600319011261001557610a8f60043561118e816105ae565b612f48565b3461001557610cce6111a436610c55565b916111ad613a83565b61307e565b634e487b7160e01b5f52604160045260245ffd5b606081019081106001600160401b038211176111e157604052565b6111b2565b61010081019081106001600160401b038211176111e157604052565b601f909101601f19168101906001600160401b038211908210176111e157604052565b6040519061123460a083611202565b565b6040519061123461010083611202565b6001600160401b0381116111e15760051b60200190565b9080601f8301121561001557813561127481611246565b926112826040519485611202565b81845260208085019260051b82010192831161001557602001905b8282106112aa5750505090565b813581526020918201910161129d565b6001600160401b0381116111e157601f01601f191660200190565b81601f82011215610015578035906112ec826112ba565b926112fa6040519485611202565b8284526020838301011161001557815f926020809301838601378301015290565b346100155760a036600319011261001557600435611338816105ae565b60243590611345826105ae565b6044356001600160401b0381116100155761136490369060040161125d565b6064356001600160401b0381116100155761138390369060040161125d565b608435939091906001600160401b038511610015576113a96108909536906004016112d5565b9361323e565b346100155760203660031901126100155760206113d66004356113d1816105ae565b613297565b6040519015158152f35b34610015576020366003190112610015576004355f527ffed699897f2561c8a98f833aa3de83c4904370d413fe5fb15abe26e9f8150b30602052602060405f2054604051908152f35b3461001557604036600319011261001557610cce600435611449816105ae565b602435611454613a83565b61145c613e76565b610843601354916014549361454a565b3461001557604036600319011261001557600435611489816105ae565b6024356006546001600160a01b0316806115b257506005546001600160a01b03165b6001600160a01b03163303610900576114c2613a83565b9081906001600160a01b038116156108f1576114dd90613b03565b5f808052602052906114fc825f516020615dbc5f395f51905f52610ee5565b549081156108e2575f19146115aa575b808311611570575081156108e25761156381611549847fcfaedf921126ed75cd0b52e9418d816572c256b67104e03066bd3f067f2d53c094614571565b6040519384526001600160a01b0316929081906020820190565b0390a26108906001600455565b60405163406e3ab960e01b81526001600160a01b0390921660048301525f60248301526044820152606481019190915280608481015b0390fd5b91508161150c565b6114ab565b34610015576115c5366106fa565b6006549091906001600160a01b03168061162457506005546001600160a01b03165b6001600160a01b03163303610900576115fe613a83565b6001600160a01b038316156108f15781156108e25761161f610cce93613b03565b61476b565b6115e7565b346100155761163736610c55565b600654919290916001600160a01b03168061174b57506005546001600160a01b03165b6001600160a01b0316330361090057611671613a83565b6001600160a01b03811615801561173a575b6108f15782156108e2576116a76116a361169c84610d95565b5460ff1690565b1590565b611094575f516020615d3c5f395f51905f52916115496116ef611563936116e9604051631deff10f60e11b602082015261099e816107b58b89602484016132ff565b50613b03565b916116f983613b75565b6117038684613c22565b6013546014549161171c611715612dc1565b8987613c69565b6117268882613d6a565b61173088866147e8565b6108548886613cae565b506001600160a01b03821615611683565b61165a565b346100155760203660031901126100155760043561176d816105ae565b6001600160a01b039081165f9081527fbc488d3e2575f0f2113dc4d9a0cd6bc52445c6bc28a8974ed97a6ba3ecfd65816020908152604091829020549151919092168152f35b34610015575f366003190112610015576020600754604051908152f35b90602080835192838152019201905f5b8181106117ed5750505090565b82518452602093840193909201916001016117e0565b9060206109399281815201906117d0565b34610015576040366003190112610015576004356001600160401b03811161001557366023820112156100155780600401359061185082611246565b9161185e6040519384611202565b8083526024602084019160051b8301019136831161001557602401905b8282106118bb57836024356001600160401b03811161001557610a9f916118a96118af92369060040161125d565b9061331a565b60405191829182611803565b6020809183356118ca816105ae565b81520191019061187b565b34610015575f366003190112610015576020601554604051908152f35b34610015576020366003190112610015576004355f526012602052602060405f2054604051908152f35b34610015575f36600319011261001557602060405160648152f35b3461001557604036600319011261001557600435611954816105ae565b60243590611960613a83565b611968613e76565b6001600160a01b038116156108f15781156108e2576115636119975f516020615d3c5f395f51905f5292613b03565b6119a081613b75565b6119aa8482613c22565b611549601354601454906119cf6040516119c5602082611202565b5f81528886613c69565b6119d987856147e8565b6108438785613cae565b604435906001600160401b038216820361001557565b959260c09592989794919860e08801998852602088015260408701526060860152608085015260a08401521515910152565b34610015576020366003190112610015576004356001600160401b0381168103610015576001600160401b03165f9081527f348bae4e1f5cd16c7acea618682eb9de87b5f8161d5b94b9b5591b7620ae71a2602052604090208054610a9f600183015492600281015490600381015460048201549060ff600660058501549401541693604051978897886119f9565b3461001557611ac8366106fa565b600654919290916001600160a01b031680611bee57506005546001600160a01b03165b6001600160a01b0316330361090057611b02613a83565b6001600160a01b0381169182156108f15780156108e2576107c8611b52916107c35f516020615d1c5f395f51905f52966107b5604051938492634404589760e01b60208501528860248501612d8d565b939091610867611b6182613b03565b91611b6b83613b75565b84158080611be5575b611bd6575b611b8c611b84612dc1565b898887613c8e565b15611bd057865b80611ba3575b5061086285610f6b565b610843611bca91611bb76013549060145490565b929091611bc481896147e8565b87613cae565b5f611b99565b5f611b93565b611be08885613c22565b611b79565b50871515611b74565b611aeb565b3461001557602036600319011261001557600435611c10816105ae565b60018060a01b03165f52600f602052602060405f2054604051908152f35b346100155760203660031901126100155760206105f2600435611c50816105ae565b610dcd565b346100155760203660031901126100155760206105f2600435611c77816105ae565b610e05565b3461001557611c8a366106fa565b90611c93613a83565b6115fe613e76565b34610015575f36600319011261001557611cb361480f565b600380546001600160a01b031981169091555f906001600160a01b03165f516020615d7c5f395f51905f528280a3005b906040600319830112610015576004356001600160401b0381116100155782602382011215610015576004810135926001600160401b0384116100155760248483010111610015576024019190602435610939816105ae565b3461001557611d4a36611ce3565b6006549091906001600160a01b031680611d8457506005546001600160a01b03165b6001600160a01b0316330361090057610890926133c4565b611d6c565b3461001557611d9736611ce3565b6006549192916001600160a01b031680611ebe57506005546001600160a01b03165b6001600160a01b0316330361090057611dd0613a83565b6001600160a01b038116156108f157611e1f611e105f94611e0b86956107b5604051938492633aa2954160e11b602085015260248401613477565b613add565b60208082518301019101613488565b611e2a9291926140b9565b928115158514611e8557611e59906107b5604051938492602084019663d8bdbdf560e01b8852602485016134e8565b51915af4611e65612e87565b505b15611e76576108906001600455565b63fb713d2b60e01b5f5260045ffd5b6107b59150611eac906040519283916020830195630b18ae1d60e11b8752602484016134b8565b51915af4611eb8612e87565b50611e67565b611db9565b3461001557602036600319011261001557600435611ee0816105ae565b60018060a01b03165f526009602052602060ff60405f2054166040519015158152f35b346100155760a036600319011261001557600435611f20816105fb565b60243590611f2d826105ae565b604435906064356084356006549091906001600160a01b031680611ff557506005546001600160a01b03165b6001600160a01b0316330361090057611fc593611f746140b9565b6040516382b720c960e01b60208201526001600160e01b031990951660248601526001600160a01b0390961660448501526064840152608483015260a480830191909152815261099e60c482611202565b9060208280518101031261001557611fe56020610a9f9301518092614469565b6040519081529081906020820190565b611f59565b3461001557602036600319011261001557600435612016613e76565b801561204d576020817fd45b01a2f21a7aa8a0f57023efdce73147de071e77875c3f4d486b1e13eaef7092600755604051908152a1005b6376024b7160e01b5f5260045ffd5b8015150361001557565b34610015576020366003190112610015577fc52867146282c253c04e94eb2a948478a1f7ef84cf2d6f5864facc99f2203f2c60206004356120a68161205c565b6120ae613e76565b151560ff19600a541660ff821617600a55604051908152a1005b34610015576020366003190112610015576004356120e5816105ae565b6006546001600160a01b03168061214857506005546001600160a01b03165b6001600160a01b0316330361090057604051638a1b32bb60e01b60208201526001600160a01b0390911660248083019190915281526108909061099e604482611202565b612104565b346100155760603660031901126100155760443560043560243561216f613e76565b811561221f576017549060405193612186856111c6565b83855260208501918083526040860195828752600160401b8510156111e157600185016017556121b58561068f565b91909161221a577fc9553df3224b08515381089b4a0e07d62144ba87c402485fabd66899cadc2ab1976122159560029251845551600184015551910155604051948594859094939260609260808301968352602083015260408201520152565b0390a1005b613520565b639033099360e01b5f5260045ffd5b34610015575f366003190112610015576003546040516001600160a01b039091168152602090f35b346100155760203660031901126100155760206113d6600435613533565b3461001557602036600319011261001557600435612291816105ae565b60018060a01b03165f526010602052602060405f2054604051908152f35b34610015575f366003190112610015576006546040516001600160a01b039091168152602090f35b346100155760203660031901126100155760043560ff6122f633610d95565b541615611094576123056140b9565b905f806040516020810190634c4a8dab60e11b82528460248201526024815261232f604482611202565b5190855af461233c612e87565b5015611e765761089091614469565b346100155760203660031901126100155760206105f260043561236d816105ae565b610e3d565b34610015575f366003190112610015576020600854604051908152f35b34610015575f36600319011261001557610a9f6123aa613eda565b604051918291602083526020830190610b82565b81516001600160401b039081168252602080840151909116908201526040808301516001600160801b03908116918301919091526060808401519091169082015261010081019291611234919060e090819060808181015115159085015260a08181015160ff169085015260c08181015160ff169085015201516001600160801b0316910152565b34610015576020366003190112610015576004355f60e0604051612469816111e6565b8281528260208201528260408201528260608201528260808201528260a08201528260c082015201525f527fe5fcefe92466b78c655fa732b80b16e07a00f2a897e833e17d9914703cad5632602052610a9f60405f206125736125636002604051936124d4856111e6565b80546001600160401b038082168752604082901c1660208701526125059060801c6001600160801b03166040870152565b60018101546001600160801b03811660608701526125559061254b90612535608082901c60ff16151560808a0152565b60ff608882901c1660a089015260901c60ff1690565b60ff1660c0870152565b01546001600160801b031690565b6001600160801b031660e0830152565b604051918291826123be565b604090600319011261001557600435612597816105ae565b906024356109398161205c565b34610015576125b23661257f565b6001600160a01b03821691821561261d57816125dc6125ed92335f52600160205260405f20610ee5565b9060ff801983541691151516179055565b60405190151581527f17307eab39ab6107e8899845ad3d59bd9653f200f220920489ca2b5937696c3160203392a3005b62ced3e160e81b5f525f60045260245ffd5b34610015576040366003190112610015576004356001600160401b0381116100155736602382011215610015576004810135906001600160401b038211610015573660248360051b8301011161001557610890916024803592612691846105ae565b016135ed565b34610015576020366003190112610015576004356001600160401b03811161001557366023820112156100155760048101356001600160401b03811161001557366024606083028401011161001557602461089092016138d3565b34610015575f366003190112610015576020601854604051908152f35b34610015575f36600319011261001557602060405164174876e8008152f35b34610015575f366003190112610015576020601354604051908152f35b346100155760203660031901126100155760206105f260043561276d816105ae565b610e75565b346100155760403660031901126100155760043561278f816105ae565b60065460243591906001600160a01b0316806127e057506005546001600160a01b03165b6001600160a01b0316330361090057610cce916127ce613a83565b6003546001600160a01b031691613f49565b6127b3565b3461001557602036600319011261001557600435612802816105ae565b60018060a01b03165f527fbe5c2328713858b26c97b83c5ace333ac35b55572be4794180ba426b12cc48c0602052602060405f2054604051908152f35b34610015576020366003190112610015576004355f525f516020615d5c5f395f51905f52602052602060405f2054604051908152f35b34610015575f3660031901126100155760206040515f8152f35b60ff81160361001557565b34610015576060366003190112610015576004356128b78161288f565b60243590600160ff6128c76119e3565b92160361293d57612901915f527f348bae4e1f5cd16c7acea618682eb9de87b5f8161d5b94b9b5591b7620ae71a360205260405f206133af565b8054610a9f60018301549260028101549060038101546004820154906129306006600585015494015460ff1690565b93604051978897886119f9565b612970915f527f348bae4e1f5cd16c7acea618682eb9de87b5f8161d5b94b9b5591b7620ae71a460205260405f206133af565b612901565b34610015576020366003190112610015576004355f52600c602052602060405f2054604051908152f35b34610015576020366003190112610015576004356129bc816105ae565b60018060a01b03165f527fbe5c2328713858b26c97b83c5ace333ac35b55572be4794180ba426b12cc48c1602052602060405f2054604051908152f35b3461001557602036600319011261001557600435612a15613e76565b7f1c8121c98d871a1523a6112e29ac660378afbcb9b921cff8f187c3da35d1708181600854612a4960405192839283612dd5565b0390a1600855005b34610015575f36600319011261001557602060ff600a54166040519015158152f35b34610015575f366003190112610015576040517f00000000000000000000000000000000000000000000000000000000000000006001600160a01b03168152602090f35b34610015576020366003190112610015576004355f526016602052602060405f2054604051908152f35b3461001557610890612af23661257f565b90612afb613e76565b60018060a01b03165f52600960205260405f209060ff801983541691151516179055565b34610015575f3660031901126100155760ff60065460a01c166040516009821015612b4b576020918152f35b634e487b7160e01b5f52602160045260245ffd5b3461001557602060ff6110fb612b7436610914565b6001600160a01b039091165f9081526001855260409020610ee5565b346100155760a036600319011261001557600435612bad816105ae565b602435612bb9816105ae565b60443590606435926084356001600160401b03811161001557612be09036906004016112d5565b926001600160a01b0382163381141580612c5d575b612c47576001600160a01b03841615612c345715612c225761089094612c1a91614c1b565b929091614e25565b626a0d4560e21b5f525f60045260245ffd5b632bfa23e760e11b5f525f60045260245ffd5b63711bec9160e11b5f523360045260245260445ffd5b50805f52600160205260ff612c753360405f20610ee5565b541615612bf5565b3461001557602036600319011261001557600435612c9a816105ae565b612ca261480f565b6001600160a01b03168015612ce157600380546001600160a01b0319811683179091556001600160a01b03165f516020615d7c5f395f51905f525f80a3005b631e4fbdf760e01b5f525f60045260245ffd5b34610015576020366003190112610015576004355f52600d602052602060405f2054604051908152f35b34610015575f366003190112610015576020601454604051908152f35b34610015575f36600319011261001557602060ff601a5416604051908152f35b34610015575f36600319011261001557602060405160148152f35b612d89915f525f60205260405f20610ee5565b5490565b604091949392606082019560018060a01b0316825260208201520152565b9190826040910312610015576020825192015190565b60405190612dd0602083611202565b5f8252565b908152602081019190915260400190565b6001600160a01b0391821681529116602082015260400190565b5f516020615d9c5f395f51905f5255565b81601f8201121561001557805190612e28826112ba565b92612e366040519485611202565b8284526020838301011161001557815f9260208093018386015e8301015290565b906020828203126100155781516001600160401b038111610015576109399201612e11565b6040513d5f823e3d90fd5b3d15612eb1573d90612e98826112ba565b91612ea66040519384611202565b82523d5f602084013e565b606090565b90612ec082611246565b612ecd6040519182611202565b8281528092612ede601f1991611246565b015f5b818110612eed57505050565b60405160a0810191906001600160401b038311818410176111e1576020926040525f81525f838201525f60408201525f60608201525f608082015282828601015201612ee1565b80518210156106ab5760209160051b010190565b6001600160a01b0381165f908152600e60205260409020909190918254612f6e81612eb6565b935f5b828110612f9e5750505f80805260205250612f99905f516020615dbc5f395f51905f52610ee5565b549190565b80612fb8612fae60019385610efa565b90549060031b1c90565b613022612fcd825f52600b60205260405f2090565b54801515908161303e575b612fea845f52600c60205260405f2090565b54612ffd855f52600d60205260405f2090565b5490613007611225565b95865260208601526040850152606084015215156080830152565b61302c8289612f34565b526130378188612f34565b5001612f71565b809150421190612fd8565b5190611234826105ae565b908160209103126100155751610939816105ae565b9081602091031261001557516109398161205c565b91908015613239576001600160a01b0383169283156108f1576001600160a01b038316156108f15760405163c45a015560e01b8152602081600481885afa908115610ad2575f9161321a575b506001600160a01b031680156108f15760405163054c14ed60e51b8152602081600481855afa908115610ad2575f916131fb575b506001600160a01b031680156131ec5733036131de576040516303330c7960e41b81526001600160a01b03929092166004830152602090829060249082905afa908115610ad2575f916131af575b50156131a057602060049360405194858092638da5cb5b60e01b82525afa8015610ad257611234935f91613181575b50613f49565b61319a915060203d602011610acb57610abd8183611202565b5f61317b565b632ad05f3360e11b5f5260045ffd5b6131d1915060203d6020116131d7575b6131c98183611202565b810190613069565b5f61314c565b503d6131bf565b62645ab960e51b5f5260045ffd5b63ab82bb9960e01b5f5260045ffd5b613214915060203d602011610acb57610abd8183611202565b5f6130fe565b613233915060203d602011610acb57610abd8183611202565b5f6130ca565b505050565b939291906001600160a01b0385163381141580613277575b612c47576001600160a01b03821615612c345715612c225761123494614e25565b50805f52600160205260ff61328f3360405f20610ee5565b541615613256565b60ff600a5416156132f9575f805260096020527fec8156718a8372b1db44bb411437d0870f3e3790d4a08526d024ce1b0b668f6b5460ff169081156132da575090565b6001600160a01b03165f9081526009602052604090205460ff16919050565b50600190565b6001600160a01b039091168152602081019190915260400190565b9190918051835180820361339a57505080519061333682611246565b916133446040519384611202565b808352613353601f1991611246565b013660208401375f5b8151811015613393578061338260019260051b6020808287010151918901015190612d76565b61338c8286612f34565b520161335c565b5090925050565b635b05999160e01b5f5260045260245260445ffd5b9060018060401b03165f5260205260405f2090565b91906133ce613a83565b6001600160a01b0382169182156108f15761343184611e0b6133f38561345098614843565b95909661341d60405194859363fd44e85560e01b6020860152604060248601526064850191613457565b90604483015203601f198101835282611202565b9261344560208551860101602086016137c3565b9592939150936148e5565b6001600455565b908060209392818452848401375f828201840152601f01601f1916010190565b916020610939938181520191613457565b91906040838203126100155782516001600160401b038111610015576020916134b2918501612e11565b92015190565b6001600160a01b039091168152600160208201819052604082015260806060820181905261093992910190610b82565b93929161351b9060809260018060a01b03168652600160208701526001604087015260a0606087015260a0860190610b82565b930152565b634e487b7160e01b5f525f60045260245ffd5b64174876e80081106135de575f9081527ffed699897f2561c8a98f833aa3de83c4904370d413fe5fb15abe26e9f8150b2a60209081526040808320547ffed699897f2561c8a98f833aa3de83c4904370d413fe5fb15abe26e9f8150b2b909252909120546001600160401b03908116911680151590816135e3575b506135de576001600160401b031680151590816135d4575b506135d057600190565b5f90565b905042115f6135c6565b505f90565b905042105f6135ae565b6006549091906001600160a01b03168061368657506005546001600160a01b03165b6001600160a01b0316330361090057613626613a83565b6001600160a01b038316156108f1578015611e765761367c92613431611e0b92613659613653828761368b565b90614843565b9490956107b58560405194859363bca0e27d60e01b6020860152602485016136c5565b6112346001600455565b61360f565b90156106ab57803590601e19813603018212156100155701803591906001600160401b038311610015576020018236038113610015579190565b93929190816040860160408752526060850160608360051b87010192825f90601e19813603015b83831061370f575050505050509060206112349294019060018060a01b03169052565b909192939495605f198a8203018652863582811215610015578301602081019190356001600160401b038111610015578036038313610015576137586020928392600195613457565b9801960194930191906136ec565b9080601f8301121561001557815161377d81611246565b9261378b6040519485611202565b81845260208085019260051b82010192831161001557602001905b8282106137b35750505090565b81518152602091820191016137a6565b9060808282031261001557815192602083015192604081015160018060401b03811161001557836137f5918301613766565b60608201519093906001600160401b038111610015576109399201613766565b91908110156106ab576060020190565b634e487b7160e01b5f52601160045260245ffd5b6017545f601755806138485750565b806003029060038204036138865760175f5260205f205f5b82811061386c57505050565b805f60026003938501828155826001820155015501613860565b613825565b601754600160401b8110156111e157600181016017556017548110156106ab57604060029160175f52600360205f209102019280358455602081013560018501550135910155565b6138db613e76565b8115613961575f5b82811061394857506138f3613839565b5f5b82811061392c5750506040519081527f2f291eaf494dc7eca20457441a1df7d9119f0c0d764309daf9cb6b148810ee3690602090a1565b8061394261393d6001938686613815565b61388b565b016138f5565b613953818484613815565b351561221f576001016138e3565b6308ba5b6160e01b5f5260045ffd5b9081602091031261001557516109398161288f565b61398d614acf565b60405163426dc88f60e01b81526001600160e01b03195f351660048201526020816024816001600160a01b0386165afa908115610ad2575f91613a54575b5060ff1660fd1981016139f757505f80915b368280378136915af43d90815f803e156139f4575ff35b5ffd5b905080613a0e57505f80613a0961422f565b6139dd565b60038103613a2157505f80613a096140b9565b60018103613a3457505f80613a096141bd565b600203613a45575f80613a0961414b565b633655084960e01b5f5260045ffd5b613a76915060203d602011613a7c575b613a6e8183611202565b810190613970565b5f6139cb565b503d613a64565b600260045414613a94576002600455565b633ee5aeb560e01b5f5260045ffd5b5f8091613ab060016142a0565b602082519201905af490613ac2612e87565b9115613aca57565b50614b6b565b5f8091613ab060036142a0565b5f8091613ab0826142a0565b5f8091613ab060046142a0565b5f8091613ab060026142a0565b6005546040516306e0faf160e21b81529160209183918291613b3291906001600160a01b031660048401612de6565b038173__$a9219284c3f0d74f57f4dcfc58f5429559$__5af4908115610ad2575f91613b5c575090565b610939915060203d602011610acb57610abd8183611202565b60405163e6a84c7760e01b60208201526001600160a01b039091166024808301919091528152613baf90613baa604482611202565b613ae9565b50565b6001600160a01b0381165f908152600f60205260409020548015159182613c02575b5081613bde575090565b90505f52600b60205260405f20548015159081613bfa57501590565b905042111590565b81613c189293505f525f60205260405f20610ee5565b541515905f613bd4565b8115613c6557613c3190613bb2565b613baf5760175415613baf57613c4d613c48614b9d565b61068f565b505411613c5657565b63559d06d760e01b5f5260045ffd5b5050565b9091906001600160a01b03811615612c3457613c88611234935f614c1b565b91614c40565b919291906001600160a01b03821615612c345761123493613c8891614c1b565b90613baa613baf926107b560405193849263a55d613f60e01b6020850152602484016132ff565b90613baa613baf926107b560405193849263179953bf60e11b6020850152602484016132ff565b9160135482810391818311613886576014549080820394828611613886576001600160a01b03871615938415613d3e575b5050505061323957611234926151ca565b1492509082613d53575b50505f808080613d2d565b1490505f80613d48565b9190820180921161388657565b906001600160a01b038216158015613e6e575b613c6557613d8a82610dcd565b80549282840180941161388657600893613da49255610ead565b610e1042045f5260205260405f209060098201613dc56116a3825460ff1690565b613e5f575b50613dd65f8354613d5d565b8255613de760018301918254613d5d565b905560028101613df85f8254613d5d565b905560038101613e095f8254613d5d565b905560048101613e1a5f8254613d5d565b905560058101613e2b5f8254613d5d565b905560068101613e3c5f8254613d5d565b905560078101613e4d5f8254613d5d565b905501613e5b5f8254613d5d565b9055565b613e6890614836565b5f613dca565b508015613d7d565b6006546001600160a01b031680613ed557506005546001600160a01b03165b6003546001600160a01b03163314159081613ec1575b50613eb257565b630fc5e1ab60e41b5f5260045ffd5b6001600160a01b031633141590505f613eab565b613e95565b6005546001600160a01b03168015818115613f3f575b506131ec575f60049160405192838092634f9e8d1560e11b82525afa908115610ad2575f91613f25575b508051156131ec5790565b613f3991503d805f833e610c478183611202565b5f613f1a565b90503b155f613ef0565b90916001600160a01b0382169182156108f1576001600160a01b038216156108f15783156108e2577f6ac4f60455173f2148d89d52868ac4ffb14111720d245aa36ad26e0d7e64c59b91613fed613fa261400793613b03565b91613fac83613b75565b613fb68784613c22565b60135460145491613fcf613fc8612dc1565b8a87613c69565b613fd989866147e8565b613fe38986613cae565b61085489826152c3565b6040519485526001600160a01b0316939081906020820190565b0390a3565b906001600160a01b0382161580156140b1575b613c655761402c82610e05565b8054928284018094116138865760089361405c925561404f610e10420491610ead565b905f5260205260405f2090565b906009820161406f6116a3825460ff1690565b6140a2575b506140805f8354613d5d565b8255600182016140915f8254613d5d565b9055613df860028301918254613d5d565b6140ab90614836565b5f614074565b50801561401f565b6140c46005546105a2565b6001600160a01b038116908115908115614141575b506131ec57602060049160405192838092632502c7e760e11b82525afa908115610ad2575f91614122575b506001600160a01b0381166109395763a9d04f8760e01b5f5260045ffd5b61413b915060203d602011610acb57610abd8183611202565b5f614104565b90503b155f6140d9565b6141566005546105a2565b6001600160a01b0381169081159081156141b3575b506131ec57602060049160405192838092632b5e757b60e11b82525afa908115610ad2575f9161412257506001600160a01b0381166109395763a9d04f8760e01b5f5260045ffd5b90503b155f61416b565b6141c86005546105a2565b6001600160a01b038116908115908115614225575b506131ec57602060049160405192838092635ee738d560e11b82525afa908115610ad2575f9161412257506001600160a01b0381166109395763a9d04f8760e01b5f5260045ffd5b90503b155f6141dd565b61423a6005546105a2565b6001600160a01b038116908115908115614296575b506131ec57602060049160405192838092620c3c5d60e81b82525afa908115610ad2575f9161412257506001600160a01b0381166109395763a9d04f8760e01b5f5260045ffd5b90503b155f61424f565b6142ab6005546105a2565b6001600160a01b03811691908215908115614426575b506131ec57602060ff600492169283155f1461435257604051620c3c5d60e81b815292839182905afa908115610ad2575f91614333575b505b6001600160a01b03811661432e576004821461431f5763a9d04f8760e01b5f5260045ffd5b632dc6cc2360e01b5f5260045ffd5b905090565b61434c915060203d602011610acb57610abd8183611202565b5f6142f8565b600184036143a157604051635ee738d560e11b815292839182905afa908115610ad2575f91614382575b506142fa565b61439b915060203d602011610acb57610abd8183611202565b5f61437c565b600284036143d057604051632b5e757b60e11b815292839182905afa908115610ad2575f9161438257506142fa565b600384036143ff57604051632502c7e760e11b815292839182905afa908115610ad2575f9161438257506142fa565b6040516324e1067960e11b815292839182905afa908115610ad2575f9161438257506142fa565b90503b155f6142c1565b908160a0910312610015578051614446816105fb565b916020820151614455816105ae565b916040810151916080606083015192015190565b9061449b815f527fbc488d3e2575f0f2113dc4d9a0cd6bc52445c6bc28a8974ed97a6ba3ecfd657d60205260405f2090565b600681015460ff1690811561451b575b50613c65575f9182916040516144db816107b56020820194630d61b51960e01b8652602483019190602083019252565b51915af46144e7612e87565b9015614516576145038160208061123494518301019101614430565b509290916001600160a01b0316906152eb565b614b6b565b6005915001547fbc488d3e2575f0f2113dc4d9a0cd6bc52445c6bc28a8974ed97a6ba3ecfd657a54115f6144ab565b90613baa613baf926107b5604051938492635bcc7ca960e11b6020850152602484016132ff565b91906001600160a01b03831615612c225761458c905f614c1b565b925f60405161459c602082611202565b526145a984835f8461590d565b906145bf85846145b985516105a2565b846159e1565b600260ff6145cf601a5460ff1690565b161480614764575b61472c575b5f91825b845184101561462f576001906145f68589612f34565b51906146206146058789612f34565b515f525f516020615d5c5f395f51905f5260205260405f2090565b828154039055019301926145e0565b61464e919492969593505f516020615d9c5f395f51905f525403612e00565b5f9460e084019460c060a086019501965b86518110156146a1578061469b61468961467c6001948a51612f34565b516001600160a01b031690565b614694838c51612f34565b5190615b9a565b0161465f565b509295505f94509250835b8151811015614723576146bf8183612f34565b511580614710575b6146d3576001016146ac565b505050905060015b806146f1575b6146e85750565b61123490615ce0565b506002614709614703601a5460ff1690565b60ff1690565b14156146e1565b5061471b8184612f34565b5115156146c7565b505050906146db565b61475e83613baa61473d85516105a2565b6107b589604051948593635d935afb60e01b60208601528860248601615382565b506145dc565b505f6145d7565b60207fae2f87dbf103db294ddd4ab45caa7a914d70bb3d06eeb8a8dc23e03e84548c8d916147b9604051633c2f328b60e11b848201526147b4816107b589898760248501612d8d565b613af6565b506147d56040516147ca8482611202565b5f8152868684613c8e565b6040519485526001600160a01b031693a3565b90613baa613baf926107b560405193849263b932546160e01b6020850152602484016132ff565b6003546001600160a01b0316330361482357565b63118cdaa760e01b5f523360045260245ffd5b805460ff19166001179055565b60408051630d01186b60e41b815260206004820152939290918491829161486e916024840191613457565b038173__$a9219284c3f0d74f57f4dcfc58f5429559$__5af4918215610ad2575f905f9361489b57509190565b9250506040823d6040116148dd575b816148b760409383611202565b810103126100155760208251926148cd846105ae565b0151916148d9836105ae565b9190565b3d91506148aa565b90929596919493968751855103614ab2575061490090613b03565b9061490a82613b75565b61491382613bb2565b5f955f975f5b8a5181101561495e5761492c818c612f34565b511561493b575b600101614919565b9850966149539061494c8a89612f34565b5190613d5d565b600198909790614933565b50909192949796939615614aaa575b508280614a51575b50505f5b8751811015614a025761498c8186612f34565b519081156108e2576001916149a1828b612f34565b51156149fc5764174876e8006149b7838c612f34565b51106149d8576149d2906149cb838c612f34565b518961476b565b01614979565b6149f7906149e6838c612f34565b51906149f0612dc1565b918a613c8e565b6149d2565b506149d2565b509195506112349490939192506001600160a01b03811615614a3f57905b601354601454949093614a365761085491613cd5565b61085491613cae565b50614a4b6003546105a2565b90614a20565b614a8f91614a5f8289613c22565b614a71614a6a612dc1565b838a613c69565b6001600160a01b03891615614a9657614a8a828a613d6a565b61535a565b5f82614975565b614a8a82614aa56003546105a2565b613d6a565b92505f61496d565b60405163dccff66960e01b81529081906115a69060048301610ba6565b614ada6005546105a2565b6001600160a01b03811691908215908115614b61575b506131ec57602060049260405193848092634e077ded60e11b82525afa918215610ad2575f92614b40575b506001600160a01b03821615828115614b36575b506131ec57565b90503b155f614b2f565b614b5a91925060203d602011610acb57610abd8183611202565b905f614b1b565b90503b155f614af0565b80519081614b985760405163dccff66960e01b8152602060048201529081906115a6906024830190610b82565b602001fd5b6017548015614c15575f90601754156106ab5760175f527fc624b66cc0138b8fabc209247f72d758e1cf3343756d543badbf24212bed8c155460015b828110614be65750505090565b81614bf08261068f565b505410614c00575b600101614bd9565b809350614c0d915061068f565b505482614bf8565b505f1990565b9160405192600184526020840152604083019160018352606084015260808301604052565b909193614c4f8584845f61590d565b91614c658685614c5f86516105a2565b5f6159e1565b600260ff614c75601a5460ff1690565b161480614e1e575b614de6575b5f5b8451811015614cda5780614cd4614ccf614ca06001948b612f34565b51614cae614605858b612f34565b614cb9828254613d5d565b90555f516020615d9c5f395f51905f5254613d5d565b612e00565b01614c84565b509091929360018060a01b038216159586614d7f575b5f969560e086019660c060a088019701985b8851811015614d315780614d2b8b61469483614d2461467c6001978f51612f34565b9251612f34565b01614d02565b5092955092955092955015614d47575b50505050565b8051600103614d6f5790602080614d6695930151910151915f33615545565b5f808080614d41565b614d7a935f33615427565b614d66565b9591925f95949195935f945b8651861015614dbf57600190614da1878b612f34565b5190614db0614605898b612f34565b82815403905501950194614d8b565b614de1919498929550969295965f516020615d9c5f395f51905f525403612e00565b614cf0565b614e1884613baa614df786516105a2565b6107b58a604051948593635d935afb60e01b60208601525f60248601615382565b50614c82565b505f614c7d565b9294919093614e368683878761590d565b93614e4687846145b988516105a2565b6001600160a01b038116158015979088806151b8575b80615103575b80806150e9575b6150b4575b600260ff614e7e601a5460ff1690565b161490816150ac575b50615074575b61502b575b6001600160a01b038716159687614fc0575b5f989760e088019860c060a08a0199019a5b8a51811015614edf5780614ed98d61469483614d248f60019761467c9151612f34565b01614eb6565b509295985092959850929550614f34575b15614efd575b5050505050565b8451600103614f2357602080614f199601519201519233615545565b5f80808080614ef6565b614f2f94919233615427565b614f19565b94939291905f955f5b8651811015614fb457614f508188612f34565b511580614fa1575b614f6457600101614f3d565b509091929394955060015b80614f88575b15614ef057614f8384615ce0565b614ef0565b506002614f9a614703601a5460ff1690565b1415614f75565b50614fac8185612f34565b511515614f58565b50909192939495614f6f565b96925f98949692959198955f965b885188101561500257600190614fe4898d612f34565b5190614ff36146058b8d612f34565b82815403905501970196614fce565b615026919498969a939750989194985f516020615d9c5f395f51905f525403612e00565b614ea4565b94915f9794919693975b88518110156150665780615060614ccf8b614cae614605856150596001988f612f34565b5193612f34565b01615035565b509194969295909396614e92565b6150a685613baa6150858a516105a2565b6107b586604051948593635d935afb60e01b60208601528a60248601615382565b50614e8d565b90505f614e87565b6150e46150c460208a01516105a2565b6150d160408b01516105a2565b60608b01519060808c0151928d89615c35565b614e6e565b506060880151151580614e69575060808801511515614e69565b979295919893905f985f995b87518b1015615192576151228b89612f34565b51908c606483108015615183575b615178578c61513e91612f34565b511561516e575080615153615162928b615b9a565b61515d8b516105a2565b615bc1565b6001809a5b019961510f565b9a60019150615167565b509a60019150615167565b5064174876e800831015615130565b909192959a939794995015614e62576151b36151ae89516105a2565b613b75565b614e62565b506001600160a01b0388161515614e5c565b6001600160a01b0381161580156152b2575b61323957613e5b916151ef600892610ead565b610e1042045f5260205260405f2090600982016152106116a3825460ff1690565b6152a3575b506152215f8354613d5d565b8255600182016152325f8254613d5d565b9055600282016152435f8254613d5d565b9055600382016152545f8254613d5d565b9055600482016152655f8254613d5d565b9055600582016152765f8254613d5d565b9055600682016152875f8254613d5d565b905561529860078301918254613d5d565b905501918254613d5d565b6152ac90614836565b5f615215565b50811580156151dc575082156151dc565b906001600160a01b0382161580156152e3575b613c6557611234916155e3565b5080156152d6565b9092906001600160e01b031916630b18ae1d60e11b810361531557632bb82cb360e01b5f5260045ffd5b631cb4772560e21b8103615341575050906112349160405191615339602084611202565b5f8352613c69565b90915063178fb21b60e11b03611e76576112349161454a565b906001600160a01b03821615801561537a575b613c6557611234916156c7565b50801561536d565b6001600160a01b039182168152911660208201526080604082018190526109399391926153b1918401906117d0565b9160608184039101526117d0565b908160209103126100155751610939816105fb565b6001600160a01b0391821681529116602082015260a0604082018190526109399491939192615419929161540b91908601906117d0565b9084820360608601526117d0565b916080818403910152610b82565b9091949293853b61543b575b505050505050565b60209361545d91604051968795869563bc197c8160e01b8752600487016153d4565b03815f6001600160a01b0387165af15f91816154db575b506154a55750615482612e87565b805191908261549e57632bfa23e760e11b5f526139f482610d5c565b6020915001fd5b6001600160e01b0319166343e6837f60e01b016154c857505f8080808080615433565b632bfa23e760e11b5f526139f490610d5c565b6154fe91925060203d602011615505575b6154f68183611202565b8101906153bf565b905f615474565b503d6154ec565b6001600160a01b039182168152911660208201526040810191909152606081019190915260a06080820181905261093992910190610b82565b9091949293853b61555857505050505050565b60209361557a91604051968795869563f23a6e6160e01b87526004870161550c565b03815f6001600160a01b0387165af15f91816155c2575b5061559f5750615482612e87565b6001600160e01b031916630dc5919f60e01b016154c857505f8080808080615433565b6155dc91925060203d602011615505576154f68183611202565b905f615591565b906001600160a01b0382161580156156bf575b613c655761560382610e75565b80549282840180941161388657600893615626925561404f610e10420491610ead565b90600982016156396116a3825460ff1690565b6156b0575b5061564a5f8354613d5d565b82556001820161565b5f8254613d5d565b90556002820161566c5f8254613d5d565b90556003820161567d5f8254613d5d565b90556004820161568e5f8254613d5d565b90556005820161569f5f8254613d5d565b9055613e3c60068301918254613d5d565b6156b990614836565b5f61563e565b5080156155f6565b906001600160a01b038216158015615792575b613c65576156e782610e3d565b8054928284018094116138865760089361570a925561404f610e10420491610ead565b906009820161571d6116a3825460ff1690565b615783575b5061572e5f8354613d5d565b82556001820161573f5f8254613d5d565b9055600282016157505f8254613d5d565b9055600382016157615f8254613d5d565b9055600482016157725f8254613d5d565b9055613e2b60058301918254613d5d565b61578c90614836565b5f615722565b5080156156da565b9080601f830112156100155781516157b181611246565b926157bf6040519485611202565b81845260208085019260051b82010192831161001557602001905b8282106157e75750505090565b6020809183516157f6816105ae565b8152019101906157da565b602081830312610015578051906001600160401b0382116100155701906101008282031261001557615831611236565b9161583b81613049565b835261584960208201613049565b602084015261585a60408201613049565b6040840152606081810151908401526080808201519084015260a08101516001600160401b038111610015578261589291830161579a565b60a084015260c08101516001600160401b0381116100155760e0926158b8918301613766565b60c0840152015160e082015290565b6001600160a01b0391821681529181166020830152909116604082015260a0606082018190526109399391926158ff918401906117d0565b9160808184039101526117d0565b9092916159765f938460e0604051615924816111e6565b828152826020820152826040820152826060820152826080820152606060a0820152606060c0820152015261595a6005546105a2565b604051637bd8ece960e11b8152968795869592600487016158c7565b038173__$a9219284c3f0d74f57f4dcfc58f5429559$__5af4908115610ad2575f916159a0575090565b61093991503d805f833e6159b48183611202565b810190615801565b90916159d3610939936040845260408401906117d0565b9160208184039101526117d0565b9392918051835190818103615b855750505f5b8151811015615ae0578060051b90602080838501015192860101518460018060a01b038916615a63575b6001936001600160a01b038216615a39575b505050016159f4565b615a5991610862615a51925f525f60205260405f2090565b918254613d5d565b90555f8481615a30565b509091615a7b88610862835f525f60205260405f2090565b54828110615aa957829160019493879203615aa18b610862845f525f60205260405f2090565b559350615a1e565b6040516303dee4c560e01b81526001600160a01b038a16600482015260248101919091526044810183905260648101829052608490fd5b508051939493919291600103615b42576020908101519101516040516001600160a01b03938416949093169233927fc3d58168c5ae7397731d063d5bbf3d657854427343f4c083240f7aacaa2d0f62928291615b3d919083612dd5565b0390a4565b6040516001600160a01b03938416949093169233927f4a39dc06d4c0dbc64b70af90fd698a233a518aa5d07e595d983b8c0526c8f7fb928291615b3d91836159bc565b635b05999160e01b5f5260045260245260445ffd5b90613baa613baf926107b5604051938492637e4152e760e11b6020850152602484016132ff565b6001600160a01b03165f908152600e60205260408120805490915b818110615c165750600160401b8110156111e157615bff91600182018155610efa565b819291549060031b91821b915f19901b1916179055565b83615c218285610efa565b90549060031b1c14614d4157600101615bdc565b6003549295919392909173__$a9219284c3f0d74f57f4dcfc58f5429559$__916001600160a01b031690823b156100155760405163451cddf960e11b81526001600160a01b03948516600482015295841660248701529683166044860152929091166064840152608483019390935260a482019390935260c48101929092525f90829060e49082905af48015610ad257615ccc5750565b80615cda5f61123493611202565b80610d37565b60405163adebc2d360e01b60208201526001600160a01b0390911660248201525f6044808301919091528152613baf90613baa60648261120256fe3bf2de114e2e7636c289f21be023528e47d89b45e873b976c78989c3ddc683f53e38a9410c08ddb4af8b083bfd2b197b1c3e61a651bd1c54c51ebce0cdcdc48ed34312c2e21f45f2b6715cf87d9e919b2098c835582e2b5c6e716490b0dfd0d48be0079c531659141344cd1fd0a4f28419497f9722a3daafe3b4186f6b6457e0d34312c2e21f45f2b6715cf87d9e919b2098c835582e2b5c6e716490b0dfd0d5ad3228b676f7d3cd4284a5443f17f1962b36e491b30a40b2405849e597ba5fb5a164736f6c6343000821000abc488d3e2575f0f2113dc4d9a0cd6bc52445c6bc28a8974ed97a6ba3ecfd657c",
  "linkReferences": {
    "project/src/BeamioUserCard/BeamioUserCardFormattingLib.sol": {
      "BeamioUserCardFormattingLib": [
        {
          "length": 20,
          "start": 4087
        }
      ]
    },
    "project/src/BeamioUserCard/BeamioUserCardTransferLib.sol": {
      "BeamioUserCardTransferLib": [
        {
          "length": 20,
          "start": 3674
        },
        {
          "length": 20,
          "start": 16173
        },
        {
          "length": 20,
          "start": 19561
        },
        {
          "length": 20,
          "start": 23921
        },
        {
          "length": 20,
          "start": 24632
        }
      ]
    }
  },
  "deployedLinkReferences": {
    "project/src/BeamioUserCard/BeamioUserCardFormattingLib.sol": {
      "BeamioUserCardFormattingLib": [
        {
          "length": 20,
          "start": 3072
        }
      ]
    },
    "project/src/BeamioUserCard/BeamioUserCardTransferLib.sol": {
      "BeamioUserCardTransferLib": [
        {
          "length": 20,
          "start": 2659
        },
        {
          "length": 20,
          "start": 15158
        },
        {
          "length": 20,
          "start": 18546
        },
        {
          "length": 20,
          "start": 22906
        },
        {
          "length": 20,
          "start": 23617
        }
      ]
    }
  },
  "immutableReferences": {
    "19542": [
      {
        "length": 32,
        "start": 10888
      }
    ]
  },
  "inputSourceName": "project/src/BeamioUserCard/BeamioUserCard.sol",
  "buildInfoId": "solc-0_8_33-7bb7072399fa0558830996ccf8146b4462d047a1"
}