{
  "_format": "hh3-artifact-1",
  "contractName": "BeamioUserCard",
  "sourceName": "src/BeamioUserCard/BeamioUserCard.sol",
  "abi": [
    {
      "inputs": [
        {
          "internalType": "string",
          "name": "uri_",
          "type": "string"
        },
        {
          "internalType": "enum BeamioCurrency.CurrencyType",
          "name": "currency_",
          "type": "uint8"
        },
        {
          "internalType": "uint256",
          "name": "pointsUnitPriceInCurrencyE6_",
          "type": "uint256"
        },
        {
          "internalType": "address",
          "name": "initialOwner",
          "type": "address"
        },
        {
          "internalType": "address",
          "name": "gateway_",
          "type": "address"
        }
      ],
      "stateMutability": "nonpayable",
      "type": "constructor"
    },
    {
      "inputs": [],
      "name": "BM_NotAuthorized",
      "type": "error"
    },
    {
      "inputs": [],
      "name": "BM_ZeroAddress",
      "type": "error"
    },
    {
      "inputs": [
        {
          "internalType": "address",
          "name": "sender",
          "type": "address"
        },
        {
          "internalType": "uint256",
          "name": "balance",
          "type": "uint256"
        },
        {
          "internalType": "uint256",
          "name": "needed",
          "type": "uint256"
        },
        {
          "internalType": "uint256",
          "name": "tokenId",
          "type": "uint256"
        }
      ],
      "name": "ERC1155InsufficientBalance",
      "type": "error"
    },
    {
      "inputs": [
        {
          "internalType": "address",
          "name": "approver",
          "type": "address"
        }
      ],
      "name": "ERC1155InvalidApprover",
      "type": "error"
    },
    {
      "inputs": [
        {
          "internalType": "uint256",
          "name": "idsLength",
          "type": "uint256"
        },
        {
          "internalType": "uint256",
          "name": "valuesLength",
          "type": "uint256"
        }
      ],
      "name": "ERC1155InvalidArrayLength",
      "type": "error"
    },
    {
      "inputs": [
        {
          "internalType": "address",
          "name": "operator",
          "type": "address"
        }
      ],
      "name": "ERC1155InvalidOperator",
      "type": "error"
    },
    {
      "inputs": [
        {
          "internalType": "address",
          "name": "receiver",
          "type": "address"
        }
      ],
      "name": "ERC1155InvalidReceiver",
      "type": "error"
    },
    {
      "inputs": [
        {
          "internalType": "address",
          "name": "sender",
          "type": "address"
        }
      ],
      "name": "ERC1155InvalidSender",
      "type": "error"
    },
    {
      "inputs": [
        {
          "internalType": "address",
          "name": "operator",
          "type": "address"
        },
        {
          "internalType": "address",
          "name": "owner",
          "type": "address"
        }
      ],
      "name": "ERC1155MissingApprovalForAll",
      "type": "error"
    },
    {
      "inputs": [
        {
          "internalType": "address",
          "name": "owner",
          "type": "address"
        }
      ],
      "name": "OwnableInvalidOwner",
      "type": "error"
    },
    {
      "inputs": [
        {
          "internalType": "address",
          "name": "account",
          "type": "address"
        }
      ],
      "name": "OwnableUnauthorizedAccount",
      "type": "error"
    },
    {
      "inputs": [],
      "name": "ReentrancyGuardReentrantCall",
      "type": "error"
    },
    {
      "inputs": [],
      "name": "UC_AlreadyHasValidCard",
      "type": "error"
    },
    {
      "inputs": [],
      "name": "UC_AmountZero",
      "type": "error"
    },
    {
      "inputs": [],
      "name": "UC_BelowMinThreshold",
      "type": "error"
    },
    {
      "inputs": [],
      "name": "UC_FaucetAmountTooLarge",
      "type": "error"
    },
    {
      "inputs": [],
      "name": "UC_FaucetConfigFrozen",
      "type": "error"
    },
    {
      "inputs": [],
      "name": "UC_FaucetConfigInvalid",
      "type": "error"
    },
    {
      "inputs": [],
      "name": "UC_FaucetDisabledBecausePriced",
      "type": "error"
    },
    {
      "inputs": [],
      "name": "UC_FaucetExpired",
      "type": "error"
    },
    {
      "inputs": [],
      "name": "UC_FaucetGlobalMaxExceeded",
      "type": "error"
    },
    {
      "inputs": [],
      "name": "UC_FaucetIdNotIssued",
      "type": "error"
    },
    {
      "inputs": [],
      "name": "UC_FaucetMaxExceeded",
      "type": "error"
    },
    {
      "inputs": [],
      "name": "UC_FaucetNotEnabled",
      "type": "error"
    },
    {
      "inputs": [],
      "name": "UC_GlobalMisconfigured",
      "type": "error"
    },
    {
      "inputs": [
        {
          "internalType": "address",
          "name": "fromAccount",
          "type": "address"
        },
        {
          "internalType": "uint256",
          "name": "id",
          "type": "uint256"
        },
        {
          "internalType": "uint256",
          "name": "have",
          "type": "uint256"
        },
        {
          "internalType": "uint256",
          "name": "need",
          "type": "uint256"
        }
      ],
      "name": "UC_InsufficientBalance",
      "type": "error"
    },
    {
      "inputs": [
        {
          "internalType": "uint64",
          "name": "validAfter",
          "type": "uint64"
        },
        {
          "internalType": "uint64",
          "name": "validBefore",
          "type": "uint64"
        }
      ],
      "name": "UC_InvalidDateRange",
      "type": "error"
    },
    {
      "inputs": [],
      "name": "UC_InvalidProposal",
      "type": "error"
    },
    {
      "inputs": [
        {
          "internalType": "uint256",
          "name": "got",
          "type": "uint256"
        },
        {
          "internalType": "uint256",
          "name": "expected",
          "type": "uint256"
        }
      ],
      "name": "UC_InvalidTokenId",
      "type": "error"
    },
    {
      "inputs": [],
      "name": "UC_MustGrow",
      "type": "error"
    },
    {
      "inputs": [],
      "name": "UC_NoBeamioAccount",
      "type": "error"
    },
    {
      "inputs": [],
      "name": "UC_NotAdmin",
      "type": "error"
    },
    {
      "inputs": [],
      "name": "UC_PointsToNotWhitelisted",
      "type": "error"
    },
    {
      "inputs": [],
      "name": "UC_PriceZero",
      "type": "error"
    },
    {
      "inputs": [],
      "name": "UC_PurchaseDisabledBecauseFree",
      "type": "error"
    },
    {
      "inputs": [
        {
          "internalType": "bytes",
          "name": "data",
          "type": "bytes"
        }
      ],
      "name": "UC_RedeemDelegateFailed",
      "type": "error"
    },
    {
      "inputs": [],
      "name": "UC_RedeemModuleZero",
      "type": "error"
    },
    {
      "inputs": [
        {
          "internalType": "address",
          "name": "eoa",
          "type": "address"
        },
        {
          "internalType": "address",
          "name": "aaFactory",
          "type": "address"
        },
        {
          "internalType": "address",
          "name": "acct",
          "type": "address"
        }
      ],
      "name": "UC_ResolveAccountFailed",
      "type": "error"
    },
    {
      "inputs": [],
      "name": "UC_SBTNonTransferable",
      "type": "error"
    },
    {
      "inputs": [],
      "name": "UC_TierLenMismatch",
      "type": "error"
    },
    {
      "inputs": [],
      "name": "UC_TierMinZero",
      "type": "error"
    },
    {
      "inputs": [],
      "name": "UC_TiersNotDecreasing",
      "type": "error"
    },
    {
      "inputs": [],
      "name": "UC_UnauthorizedGateway",
      "type": "error"
    },
    {
      "anonymous": false,
      "inputs": [
        {
          "indexed": true,
          "internalType": "address",
          "name": "beneficiaryAccount",
          "type": "address"
        },
        {
          "indexed": true,
          "internalType": "uint256",
          "name": "tokenId",
          "type": "uint256"
        },
        {
          "indexed": false,
          "internalType": "uint256",
          "name": "attr",
          "type": "uint256"
        },
        {
          "indexed": false,
          "internalType": "uint256",
          "name": "expiry",
          "type": "uint256"
        }
      ],
      "name": "AdminCardMinted",
      "type": "event"
    },
    {
      "anonymous": false,
      "inputs": [
        {
          "indexed": true,
          "internalType": "address",
          "name": "beneficiaryAccount",
          "type": "address"
        },
        {
          "indexed": false,
          "internalType": "uint256",
          "name": "points6",
          "type": "uint256"
        }
      ],
      "name": "AdminPointsMinted",
      "type": "event"
    },
    {
      "anonymous": false,
      "inputs": [
        {
          "indexed": true,
          "internalType": "address",
          "name": "account",
          "type": "address"
        },
        {
          "indexed": true,
          "internalType": "address",
          "name": "operator",
          "type": "address"
        },
        {
          "indexed": false,
          "internalType": "bool",
          "name": "approved",
          "type": "bool"
        }
      ],
      "name": "ApprovalForAll",
      "type": "event"
    },
    {
      "anonymous": false,
      "inputs": [
        {
          "indexed": false,
          "internalType": "uint256",
          "name": "attr",
          "type": "uint256"
        }
      ],
      "name": "DefaultAttrUpdated",
      "type": "event"
    },
    {
      "anonymous": false,
      "inputs": [
        {
          "indexed": false,
          "internalType": "uint256",
          "name": "oldSecs",
          "type": "uint256"
        },
        {
          "indexed": false,
          "internalType": "uint256",
          "name": "newSecs",
          "type": "uint256"
        }
      ],
      "name": "ExpirySecondsUpdated",
      "type": "event"
    },
    {
      "anonymous": false,
      "inputs": [
        {
          "indexed": true,
          "internalType": "uint256",
          "name": "id",
          "type": "uint256"
        },
        {
          "indexed": true,
          "internalType": "address",
          "name": "userEOA",
          "type": "address"
        },
        {
          "indexed": true,
          "internalType": "address",
          "name": "acct",
          "type": "address"
        },
        {
          "indexed": false,
          "internalType": "uint256",
          "name": "amount",
          "type": "uint256"
        },
        {
          "indexed": false,
          "internalType": "uint256",
          "name": "claimedAfter",
          "type": "uint256"
        }
      ],
      "name": "FaucetClaimed",
      "type": "event"
    },
    {
      "anonymous": false,
      "inputs": [
        {
          "indexed": true,
          "internalType": "uint256",
          "name": "id",
          "type": "uint256"
        },
        {
          "components": [
            {
              "internalType": "uint64",
              "name": "validUntil",
              "type": "uint64"
            },
            {
              "internalType": "uint64",
              "name": "perClaimMax",
              "type": "uint64"
            },
            {
              "internalType": "uint128",
              "name": "maxPerUser",
              "type": "uint128"
            },
            {
              "internalType": "uint128",
              "name": "maxGlobal",
              "type": "uint128"
            },
            {
              "internalType": "bool",
              "name": "enabled",
              "type": "bool"
            },
            {
              "internalType": "uint8",
              "name": "currency",
              "type": "uint8"
            },
            {
              "internalType": "uint8",
              "name": "decimals",
              "type": "uint8"
            },
            {
              "internalType": "uint128",
              "name": "priceInCurrency6",
              "type": "uint128"
            }
          ],
          "indexed": false,
          "internalType": "struct BeamioUserCard.FaucetConfig",
          "name": "cfg",
          "type": "tuple"
        }
      ],
      "name": "FaucetConfigUpdated",
      "type": "event"
    },
    {
      "anonymous": false,
      "inputs": [
        {
          "indexed": true,
          "internalType": "uint256",
          "name": "tokenId",
          "type": "uint256"
        },
        {
          "indexed": false,
          "internalType": "bytes32",
          "name": "title",
          "type": "bytes32"
        },
        {
          "indexed": false,
          "internalType": "uint64",
          "name": "validAfter",
          "type": "uint64"
        },
        {
          "indexed": false,
          "internalType": "uint64",
          "name": "validBefore",
          "type": "uint64"
        },
        {
          "indexed": false,
          "internalType": "uint256",
          "name": "maxSupply",
          "type": "uint256"
        },
        {
          "indexed": false,
          "internalType": "uint256",
          "name": "priceInCurrency6",
          "type": "uint256"
        },
        {
          "indexed": false,
          "internalType": "bytes32",
          "name": "sharedMetadataHash",
          "type": "bytes32"
        }
      ],
      "name": "IssuedNftCreated",
      "type": "event"
    },
    {
      "anonymous": false,
      "inputs": [
        {
          "indexed": true,
          "internalType": "uint256",
          "name": "tokenId",
          "type": "uint256"
        },
        {
          "indexed": true,
          "internalType": "address",
          "name": "recipient",
          "type": "address"
        },
        {
          "indexed": false,
          "internalType": "uint256",
          "name": "amount",
          "type": "uint256"
        }
      ],
      "name": "IssuedNftMinted",
      "type": "event"
    },
    {
      "anonymous": false,
      "inputs": [
        {
          "indexed": true,
          "internalType": "address",
          "name": "user",
          "type": "address"
        },
        {
          "indexed": true,
          "internalType": "uint256",
          "name": "tokenId",
          "type": "uint256"
        },
        {
          "indexed": false,
          "internalType": "uint256",
          "name": "tierIndexOrMax",
          "type": "uint256"
        },
        {
          "indexed": false,
          "internalType": "uint256",
          "name": "minUsdc6",
          "type": "uint256"
        },
        {
          "indexed": false,
          "internalType": "uint256",
          "name": "expiry",
          "type": "uint256"
        }
      ],
      "name": "MemberNFTIssued",
      "type": "event"
    },
    {
      "anonymous": false,
      "inputs": [
        {
          "indexed": true,
          "internalType": "address",
          "name": "user",
          "type": "address"
        },
        {
          "indexed": true,
          "internalType": "uint256",
          "name": "oldActiveTokenId",
          "type": "uint256"
        },
        {
          "indexed": true,
          "internalType": "uint256",
          "name": "newTokenId",
          "type": "uint256"
        },
        {
          "indexed": false,
          "internalType": "uint256",
          "name": "oldTierIndexOrMax",
          "type": "uint256"
        },
        {
          "indexed": false,
          "internalType": "uint256",
          "name": "newTierIndex",
          "type": "uint256"
        },
        {
          "indexed": false,
          "internalType": "uint256",
          "name": "newExpiry",
          "type": "uint256"
        }
      ],
      "name": "MemberNFTUpgraded",
      "type": "event"
    },
    {
      "anonymous": false,
      "inputs": [
        {
          "indexed": true,
          "internalType": "address",
          "name": "previousOwner",
          "type": "address"
        },
        {
          "indexed": true,
          "internalType": "address",
          "name": "newOwner",
          "type": "address"
        }
      ],
      "name": "OwnershipTransferred",
      "type": "event"
    },
    {
      "anonymous": false,
      "inputs": [
        {
          "indexed": true,
          "internalType": "address",
          "name": "userEOA",
          "type": "address"
        },
        {
          "indexed": true,
          "internalType": "address",
          "name": "acct",
          "type": "address"
        },
        {
          "indexed": false,
          "internalType": "uint256",
          "name": "points6",
          "type": "uint256"
        }
      ],
      "name": "PointsMintedByGateway",
      "type": "event"
    },
    {
      "anonymous": false,
      "inputs": [
        {
          "indexed": true,
          "internalType": "address",
          "name": "payerEOA",
          "type": "address"
        },
        {
          "indexed": true,
          "internalType": "address",
          "name": "beneficiaryAccount",
          "type": "address"
        },
        {
          "indexed": true,
          "internalType": "address",
          "name": "usdc",
          "type": "address"
        },
        {
          "indexed": false,
          "internalType": "uint256",
          "name": "usdcIn6",
          "type": "uint256"
        },
        {
          "indexed": false,
          "internalType": "uint256",
          "name": "pointsMinted6",
          "type": "uint256"
        },
        {
          "indexed": false,
          "internalType": "uint256",
          "name": "unitPointPriceUsdc6",
          "type": "uint256"
        },
        {
          "indexed": false,
          "internalType": "bytes32",
          "name": "nonce",
          "type": "bytes32"
        }
      ],
      "name": "PointsPurchasedWithUSDC",
      "type": "event"
    },
    {
      "anonymous": false,
      "inputs": [
        {
          "indexed": false,
          "internalType": "uint256",
          "name": "priceInCurrencyE6",
          "type": "uint256"
        }
      ],
      "name": "PointsUnitPriceUpdated",
      "type": "event"
    },
    {
      "anonymous": false,
      "inputs": [
        {
          "indexed": true,
          "internalType": "uint256",
          "name": "id",
          "type": "uint256"
        },
        {
          "indexed": true,
          "internalType": "address",
          "name": "admin",
          "type": "address"
        }
      ],
      "name": "ProposalApproved",
      "type": "event"
    },
    {
      "anonymous": false,
      "inputs": [
        {
          "indexed": true,
          "internalType": "uint256",
          "name": "id",
          "type": "uint256"
        },
        {
          "indexed": true,
          "internalType": "bytes4",
          "name": "selector",
          "type": "bytes4"
        },
        {
          "indexed": true,
          "internalType": "address",
          "name": "proposer",
          "type": "address"
        }
      ],
      "name": "ProposalCreated",
      "type": "event"
    },
    {
      "anonymous": false,
      "inputs": [
        {
          "indexed": true,
          "internalType": "uint256",
          "name": "id",
          "type": "uint256"
        }
      ],
      "name": "ProposalExecuted",
      "type": "event"
    },
    {
      "anonymous": false,
      "inputs": [
        {
          "indexed": true,
          "internalType": "bytes32",
          "name": "hash",
          "type": "bytes32"
        }
      ],
      "name": "RedeemCancelled",
      "type": "event"
    },
    {
      "anonymous": false,
      "inputs": [
        {
          "indexed": true,
          "internalType": "bytes32",
          "name": "hash",
          "type": "bytes32"
        },
        {
          "indexed": false,
          "internalType": "uint256",
          "name": "points6",
          "type": "uint256"
        },
        {
          "indexed": false,
          "internalType": "uint256",
          "name": "attr",
          "type": "uint256"
        }
      ],
      "name": "RedeemCreated",
      "type": "event"
    },
    {
      "anonymous": false,
      "inputs": [
        {
          "indexed": false,
          "internalType": "uint256",
          "name": "index",
          "type": "uint256"
        },
        {
          "indexed": false,
          "internalType": "uint256",
          "name": "minUsdc6",
          "type": "uint256"
        },
        {
          "indexed": false,
          "internalType": "uint256",
          "name": "attr",
          "type": "uint256"
        },
        {
          "indexed": false,
          "internalType": "uint256",
          "name": "tierExpirySeconds",
          "type": "uint256"
        }
      ],
      "name": "TierAppended",
      "type": "event"
    },
    {
      "anonymous": false,
      "inputs": [
        {
          "indexed": false,
          "internalType": "uint256",
          "name": "count",
          "type": "uint256"
        }
      ],
      "name": "TiersUpdated",
      "type": "event"
    },
    {
      "anonymous": false,
      "inputs": [
        {
          "indexed": true,
          "internalType": "address",
          "name": "operator",
          "type": "address"
        },
        {
          "indexed": true,
          "internalType": "address",
          "name": "from",
          "type": "address"
        },
        {
          "indexed": true,
          "internalType": "address",
          "name": "to",
          "type": "address"
        },
        {
          "indexed": false,
          "internalType": "uint256[]",
          "name": "ids",
          "type": "uint256[]"
        },
        {
          "indexed": false,
          "internalType": "uint256[]",
          "name": "values",
          "type": "uint256[]"
        }
      ],
      "name": "TransferBatch",
      "type": "event"
    },
    {
      "anonymous": false,
      "inputs": [
        {
          "indexed": true,
          "internalType": "address",
          "name": "operator",
          "type": "address"
        },
        {
          "indexed": true,
          "internalType": "address",
          "name": "from",
          "type": "address"
        },
        {
          "indexed": true,
          "internalType": "address",
          "name": "to",
          "type": "address"
        },
        {
          "indexed": false,
          "internalType": "uint256",
          "name": "id",
          "type": "uint256"
        },
        {
          "indexed": false,
          "internalType": "uint256",
          "name": "value",
          "type": "uint256"
        }
      ],
      "name": "TransferSingle",
      "type": "event"
    },
    {
      "anonymous": false,
      "inputs": [
        {
          "indexed": false,
          "internalType": "bool",
          "name": "enabled",
          "type": "bool"
        }
      ],
      "name": "TransferWhitelistEnabledUpdated",
      "type": "event"
    },
    {
      "anonymous": false,
      "inputs": [
        {
          "indexed": false,
          "internalType": "string",
          "name": "value",
          "type": "string"
        },
        {
          "indexed": true,
          "internalType": "uint256",
          "name": "id",
          "type": "uint256"
        }
      ],
      "name": "URI",
      "type": "event"
    },
    {
      "inputs": [],
      "name": "ISSUED_NFT_START_ID",
      "outputs": [
        {
          "internalType": "uint256",
          "name": "",
          "type": "uint256"
        }
      ],
      "stateMutability": "view",
      "type": "function"
    },
    {
      "inputs": [],
      "name": "NFT_START_ID",
      "outputs": [
        {
          "internalType": "uint256",
          "name": "",
          "type": "uint256"
        }
      ],
      "stateMutability": "view",
      "type": "function"
    },
    {
      "inputs": [],
      "name": "POINTS_DECIMALS",
      "outputs": [
        {
          "internalType": "uint8",
          "name": "",
          "type": "uint8"
        }
      ],
      "stateMutability": "view",
      "type": "function"
    },
    {
      "inputs": [],
      "name": "POINTS_ID",
      "outputs": [
        {
          "internalType": "uint256",
          "name": "",
          "type": "uint256"
        }
      ],
      "stateMutability": "view",
      "type": "function"
    },
    {
      "inputs": [],
      "name": "VERSION",
      "outputs": [
        {
          "internalType": "uint256",
          "name": "",
          "type": "uint256"
        }
      ],
      "stateMutability": "view",
      "type": "function"
    },
    {
      "inputs": [
        {
          "internalType": "address",
          "name": "",
          "type": "address"
        },
        {
          "internalType": "uint256",
          "name": "",
          "type": "uint256"
        }
      ],
      "name": "_userOwnedNfts",
      "outputs": [
        {
          "internalType": "uint256",
          "name": "",
          "type": "uint256"
        }
      ],
      "stateMutability": "view",
      "type": "function"
    },
    {
      "inputs": [
        {
          "internalType": "address",
          "name": "",
          "type": "address"
        }
      ],
      "name": "activeMembershipId",
      "outputs": [
        {
          "internalType": "uint256",
          "name": "",
          "type": "uint256"
        }
      ],
      "stateMutability": "view",
      "type": "function"
    },
    {
      "inputs": [
        {
          "internalType": "address",
          "name": "",
          "type": "address"
        }
      ],
      "name": "activeTierIndexOrMax",
      "outputs": [
        {
          "internalType": "uint256",
          "name": "",
          "type": "uint256"
        }
      ],
      "stateMutability": "view",
      "type": "function"
    },
    {
      "inputs": [
        {
          "internalType": "address",
          "name": "newAdmin",
          "type": "address"
        },
        {
          "internalType": "uint256",
          "name": "newThreshold",
          "type": "uint256"
        }
      ],
      "name": "addAdmin",
      "outputs": [],
      "stateMutability": "nonpayable",
      "type": "function"
    },
    {
      "inputs": [
        {
          "internalType": "uint256",
          "name": "",
          "type": "uint256"
        }
      ],
      "name": "adminList",
      "outputs": [
        {
          "internalType": "address",
          "name": "",
          "type": "address"
        }
      ],
      "stateMutability": "view",
      "type": "function"
    },
    {
      "inputs": [
        {
          "internalType": "uint256",
          "name": "minUsdc6",
          "type": "uint256"
        },
        {
          "internalType": "uint256",
          "name": "attr",
          "type": "uint256"
        },
        {
          "internalType": "uint256",
          "name": "tierExpirySeconds",
          "type": "uint256"
        }
      ],
      "name": "appendTier",
      "outputs": [],
      "stateMutability": "nonpayable",
      "type": "function"
    },
    {
      "inputs": [
        {
          "internalType": "uint256",
          "name": "id",
          "type": "uint256"
        }
      ],
      "name": "approveProposal",
      "outputs": [],
      "stateMutability": "nonpayable",
      "type": "function"
    },
    {
      "inputs": [
        {
          "internalType": "uint256",
          "name": "id",
          "type": "uint256"
        },
        {
          "internalType": "address",
          "name": "adminSigner",
          "type": "address"
        }
      ],
      "name": "approveProposalByGateway",
      "outputs": [],
      "stateMutability": "nonpayable",
      "type": "function"
    },
    {
      "inputs": [
        {
          "internalType": "uint256",
          "name": "",
          "type": "uint256"
        }
      ],
      "name": "attributes",
      "outputs": [
        {
          "internalType": "uint256",
          "name": "",
          "type": "uint256"
        }
      ],
      "stateMutability": "view",
      "type": "function"
    },
    {
      "inputs": [
        {
          "internalType": "address",
          "name": "account",
          "type": "address"
        },
        {
          "internalType": "uint256",
          "name": "id",
          "type": "uint256"
        }
      ],
      "name": "balanceOf",
      "outputs": [
        {
          "internalType": "uint256",
          "name": "",
          "type": "uint256"
        }
      ],
      "stateMutability": "view",
      "type": "function"
    },
    {
      "inputs": [
        {
          "internalType": "address[]",
          "name": "accounts",
          "type": "address[]"
        },
        {
          "internalType": "uint256[]",
          "name": "ids",
          "type": "uint256[]"
        }
      ],
      "name": "balanceOfBatch",
      "outputs": [
        {
          "internalType": "uint256[]",
          "name": "",
          "type": "uint256[]"
        }
      ],
      "stateMutability": "view",
      "type": "function"
    },
    {
      "inputs": [
        {
          "internalType": "string",
          "name": "code",
          "type": "string"
        }
      ],
      "name": "cancelRedeem",
      "outputs": [],
      "stateMutability": "nonpayable",
      "type": "function"
    },
    {
      "inputs": [
        {
          "internalType": "bytes32",
          "name": "title",
          "type": "bytes32"
        },
        {
          "internalType": "uint64",
          "name": "validAfter",
          "type": "uint64"
        },
        {
          "internalType": "uint64",
          "name": "validBefore",
          "type": "uint64"
        },
        {
          "internalType": "uint256",
          "name": "maxSupply",
          "type": "uint256"
        },
        {
          "internalType": "uint256",
          "name": "priceInCurrency6",
          "type": "uint256"
        },
        {
          "internalType": "bytes32",
          "name": "sharedMetadataHash",
          "type": "bytes32"
        }
      ],
      "name": "createIssuedNft",
      "outputs": [
        {
          "internalType": "uint256",
          "name": "tokenId",
          "type": "uint256"
        }
      ],
      "stateMutability": "nonpayable",
      "type": "function"
    },
    {
      "inputs": [
        {
          "internalType": "bytes4",
          "name": "selector",
          "type": "bytes4"
        },
        {
          "internalType": "address",
          "name": "target",
          "type": "address"
        },
        {
          "internalType": "uint256",
          "name": "v1",
          "type": "uint256"
        },
        {
          "internalType": "uint256",
          "name": "v2",
          "type": "uint256"
        },
        {
          "internalType": "uint256",
          "name": "v3",
          "type": "uint256"
        }
      ],
      "name": "createProposal",
      "outputs": [
        {
          "internalType": "uint256",
          "name": "",
          "type": "uint256"
        }
      ],
      "stateMutability": "nonpayable",
      "type": "function"
    },
    {
      "inputs": [
        {
          "internalType": "bytes32",
          "name": "hash",
          "type": "bytes32"
        },
        {
          "internalType": "uint256",
          "name": "points6",
          "type": "uint256"
        },
        {
          "internalType": "uint256",
          "name": "attr",
          "type": "uint256"
        },
        {
          "internalType": "uint64",
          "name": "validAfter",
          "type": "uint64"
        },
        {
          "internalType": "uint64",
          "name": "validBefore",
          "type": "uint64"
        },
        {
          "internalType": "uint256[]",
          "name": "tokenIds",
          "type": "uint256[]"
        },
        {
          "internalType": "uint256[]",
          "name": "amounts",
          "type": "uint256[]"
        }
      ],
      "name": "createRedeem",
      "outputs": [],
      "stateMutability": "nonpayable",
      "type": "function"
    },
    {
      "inputs": [
        {
          "internalType": "bytes32[]",
          "name": "hashes",
          "type": "bytes32[]"
        },
        {
          "internalType": "uint256",
          "name": "points6",
          "type": "uint256"
        },
        {
          "internalType": "uint256",
          "name": "attr",
          "type": "uint256"
        },
        {
          "internalType": "uint64",
          "name": "validAfter",
          "type": "uint64"
        },
        {
          "internalType": "uint64",
          "name": "validBefore",
          "type": "uint64"
        },
        {
          "internalType": "uint256[]",
          "name": "tokenIds",
          "type": "uint256[]"
        },
        {
          "internalType": "uint256[]",
          "name": "amounts",
          "type": "uint256[]"
        }
      ],
      "name": "createRedeemBatch",
      "outputs": [],
      "stateMutability": "nonpayable",
      "type": "function"
    },
    {
      "inputs": [
        {
          "internalType": "bytes32",
          "name": "poolHash",
          "type": "bytes32"
        },
        {
          "internalType": "uint64",
          "name": "validAfter",
          "type": "uint64"
        },
        {
          "internalType": "uint64",
          "name": "validBefore",
          "type": "uint64"
        },
        {
          "internalType": "uint256[][]",
          "name": "tokenIdsList",
          "type": "uint256[][]"
        },
        {
          "internalType": "uint256[][]",
          "name": "amountsList",
          "type": "uint256[][]"
        },
        {
          "internalType": "uint32[]",
          "name": "counts",
          "type": "uint32[]"
        }
      ],
      "name": "createRedeemPool",
      "outputs": [],
      "stateMutability": "nonpayable",
      "type": "function"
    },
    {
      "inputs": [],
      "name": "currency",
      "outputs": [
        {
          "internalType": "enum BeamioCurrency.CurrencyType",
          "name": "",
          "type": "uint8"
        }
      ],
      "stateMutability": "view",
      "type": "function"
    },
    {
      "inputs": [],
      "name": "debugGateway",
      "outputs": [
        {
          "internalType": "address",
          "name": "",
          "type": "address"
        }
      ],
      "stateMutability": "view",
      "type": "function"
    },
    {
      "inputs": [],
      "name": "defaultAttrWhenNoTiers",
      "outputs": [
        {
          "internalType": "uint256",
          "name": "",
          "type": "uint256"
        }
      ],
      "stateMutability": "view",
      "type": "function"
    },
    {
      "inputs": [],
      "name": "deployer",
      "outputs": [
        {
          "internalType": "address",
          "name": "",
          "type": "address"
        }
      ],
      "stateMutability": "view",
      "type": "function"
    },
    {
      "inputs": [
        {
          "internalType": "uint256",
          "name": "",
          "type": "uint256"
        }
      ],
      "name": "expiresAt",
      "outputs": [
        {
          "internalType": "uint256",
          "name": "",
          "type": "uint256"
        }
      ],
      "stateMutability": "view",
      "type": "function"
    },
    {
      "inputs": [],
      "name": "expirySeconds",
      "outputs": [
        {
          "internalType": "uint256",
          "name": "",
          "type": "uint256"
        }
      ],
      "stateMutability": "view",
      "type": "function"
    },
    {
      "inputs": [],
      "name": "factoryGateway",
      "outputs": [
        {
          "internalType": "address",
          "name": "",
          "type": "address"
        }
      ],
      "stateMutability": "view",
      "type": "function"
    },
    {
      "inputs": [
        {
          "internalType": "address",
          "name": "userEOA",
          "type": "address"
        },
        {
          "internalType": "uint256",
          "name": "id",
          "type": "uint256"
        },
        {
          "internalType": "uint256",
          "name": "amount",
          "type": "uint256"
        }
      ],
      "name": "faucetByGateway",
      "outputs": [],
      "stateMutability": "nonpayable",
      "type": "function"
    },
    {
      "inputs": [
        {
          "internalType": "uint256",
          "name": "",
          "type": "uint256"
        },
        {
          "internalType": "address",
          "name": "",
          "type": "address"
        }
      ],
      "name": "faucetClaimed",
      "outputs": [
        {
          "internalType": "uint256",
          "name": "",
          "type": "uint256"
        }
      ],
      "stateMutability": "view",
      "type": "function"
    },
    {
      "inputs": [
        {
          "internalType": "uint256",
          "name": "",
          "type": "uint256"
        }
      ],
      "name": "faucetConfig",
      "outputs": [
        {
          "internalType": "uint64",
          "name": "validUntil",
          "type": "uint64"
        },
        {
          "internalType": "uint64",
          "name": "perClaimMax",
          "type": "uint64"
        },
        {
          "internalType": "uint128",
          "name": "maxPerUser",
          "type": "uint128"
        },
        {
          "internalType": "uint128",
          "name": "maxGlobal",
          "type": "uint128"
        },
        {
          "internalType": "bool",
          "name": "enabled",
          "type": "bool"
        },
        {
          "internalType": "uint8",
          "name": "currency",
          "type": "uint8"
        },
        {
          "internalType": "uint8",
          "name": "decimals",
          "type": "uint8"
        },
        {
          "internalType": "uint128",
          "name": "priceInCurrency6",
          "type": "uint128"
        }
      ],
      "stateMutability": "view",
      "type": "function"
    },
    {
      "inputs": [
        {
          "internalType": "uint256",
          "name": "",
          "type": "uint256"
        }
      ],
      "name": "faucetConfigFrozen",
      "outputs": [
        {
          "internalType": "bool",
          "name": "",
          "type": "bool"
        }
      ],
      "stateMutability": "view",
      "type": "function"
    },
    {
      "inputs": [
        {
          "internalType": "uint256",
          "name": "",
          "type": "uint256"
        }
      ],
      "name": "faucetGlobalMinted",
      "outputs": [
        {
          "internalType": "uint256",
          "name": "",
          "type": "uint256"
        }
      ],
      "stateMutability": "view",
      "type": "function"
    },
    {
      "inputs": [],
      "name": "gateway",
      "outputs": [
        {
          "internalType": "address",
          "name": "",
          "type": "address"
        }
      ],
      "stateMutability": "view",
      "type": "function"
    },
    {
      "inputs": [
        {
          "internalType": "address",
          "name": "user",
          "type": "address"
        }
      ],
      "name": "getOwnership",
      "outputs": [
        {
          "internalType": "uint256",
          "name": "pt",
          "type": "uint256"
        },
        {
          "components": [
            {
              "internalType": "uint256",
              "name": "tokenId",
              "type": "uint256"
            },
            {
              "internalType": "uint256",
              "name": "attribute",
              "type": "uint256"
            },
            {
              "internalType": "uint256",
              "name": "tierIndexOrMax",
              "type": "uint256"
            },
            {
              "internalType": "uint256",
              "name": "expiry",
              "type": "uint256"
            },
            {
              "internalType": "bool",
              "name": "isExpired",
              "type": "bool"
            }
          ],
          "internalType": "struct BeamioUserCard.NFTDetail[]",
          "name": "nfts",
          "type": "tuple[]"
        }
      ],
      "stateMutability": "view",
      "type": "function"
    },
    {
      "inputs": [
        {
          "internalType": "address",
          "name": "userEOA",
          "type": "address"
        }
      ],
      "name": "getOwnershipByEOA",
      "outputs": [
        {
          "internalType": "uint256",
          "name": "pt",
          "type": "uint256"
        },
        {
          "components": [
            {
              "internalType": "uint256",
              "name": "tokenId",
              "type": "uint256"
            },
            {
              "internalType": "uint256",
              "name": "attribute",
              "type": "uint256"
            },
            {
              "internalType": "uint256",
              "name": "tierIndexOrMax",
              "type": "uint256"
            },
            {
              "internalType": "uint256",
              "name": "expiry",
              "type": "uint256"
            },
            {
              "internalType": "bool",
              "name": "isExpired",
              "type": "bool"
            }
          ],
          "internalType": "struct BeamioUserCard.NFTDetail[]",
          "name": "nfts",
          "type": "tuple[]"
        }
      ],
      "stateMutability": "view",
      "type": "function"
    },
    {
      "inputs": [
        {
          "internalType": "bytes32",
          "name": "hash",
          "type": "bytes32"
        }
      ],
      "name": "getRedeemStatus",
      "outputs": [
        {
          "internalType": "bool",
          "name": "active",
          "type": "bool"
        },
        {
          "internalType": "uint256",
          "name": "totalPoints6",
          "type": "uint256"
        }
      ],
      "stateMutability": "view",
      "type": "function"
    },
    {
      "inputs": [
        {
          "internalType": "string[]",
          "name": "codes",
          "type": "string[]"
        }
      ],
      "name": "getRedeemStatusBatch",
      "outputs": [
        {
          "internalType": "bool[]",
          "name": "active",
          "type": "bool[]"
        },
        {
          "internalType": "uint256[]",
          "name": "totalPoints6",
          "type": "uint256[]"
        }
      ],
      "stateMutability": "view",
      "type": "function"
    },
    {
      "inputs": [
        {
          "internalType": "bytes32[]",
          "name": "hashes",
          "type": "bytes32[]"
        }
      ],
      "name": "getRedeemStatusBatch",
      "outputs": [
        {
          "internalType": "bool[]",
          "name": "active",
          "type": "bool[]"
        },
        {
          "internalType": "uint256[]",
          "name": "totalPoints6",
          "type": "uint256[]"
        }
      ],
      "stateMutability": "view",
      "type": "function"
    },
    {
      "inputs": [
        {
          "internalType": "bytes32",
          "name": "hash",
          "type": "bytes32"
        },
        {
          "internalType": "address",
          "name": "claimer",
          "type": "address"
        }
      ],
      "name": "getRedeemStatusEx",
      "outputs": [
        {
          "internalType": "bool",
          "name": "active",
          "type": "bool"
        },
        {
          "internalType": "uint128",
          "name": "points6",
          "type": "uint128"
        },
        {
          "internalType": "bool",
          "name": "isPool",
          "type": "bool"
        }
      ],
      "stateMutability": "view",
      "type": "function"
    },
    {
      "inputs": [
        {
          "internalType": "uint256",
          "name": "idx",
          "type": "uint256"
        }
      ],
      "name": "getTierAt",
      "outputs": [
        {
          "components": [
            {
              "internalType": "uint256",
              "name": "minUsdc6",
              "type": "uint256"
            },
            {
              "internalType": "uint256",
              "name": "attr",
              "type": "uint256"
            },
            {
              "internalType": "uint256",
              "name": "tierExpirySeconds",
              "type": "uint256"
            }
          ],
          "internalType": "struct BeamioUserCard.Tier",
          "name": "",
          "type": "tuple"
        }
      ],
      "stateMutability": "view",
      "type": "function"
    },
    {
      "inputs": [],
      "name": "getTiersCount",
      "outputs": [
        {
          "internalType": "uint256",
          "name": "",
          "type": "uint256"
        }
      ],
      "stateMutability": "view",
      "type": "function"
    },
    {
      "inputs": [
        {
          "internalType": "address",
          "name": "",
          "type": "address"
        }
      ],
      "name": "isAdmin",
      "outputs": [
        {
          "internalType": "bool",
          "name": "",
          "type": "bool"
        }
      ],
      "stateMutability": "view",
      "type": "function"
    },
    {
      "inputs": [
        {
          "internalType": "uint256",
          "name": "",
          "type": "uint256"
        },
        {
          "internalType": "address",
          "name": "",
          "type": "address"
        }
      ],
      "name": "isApproved",
      "outputs": [
        {
          "internalType": "bool",
          "name": "",
          "type": "bool"
        }
      ],
      "stateMutability": "view",
      "type": "function"
    },
    {
      "inputs": [
        {
          "internalType": "address",
          "name": "account",
          "type": "address"
        },
        {
          "internalType": "address",
          "name": "operator",
          "type": "address"
        }
      ],
      "name": "isApprovedForAll",
      "outputs": [
        {
          "internalType": "bool",
          "name": "",
          "type": "bool"
        }
      ],
      "stateMutability": "view",
      "type": "function"
    },
    {
      "inputs": [
        {
          "internalType": "uint256",
          "name": "tokenId",
          "type": "uint256"
        }
      ],
      "name": "isIssuedNftValid",
      "outputs": [
        {
          "internalType": "bool",
          "name": "",
          "type": "bool"
        }
      ],
      "stateMutability": "view",
      "type": "function"
    },
    {
      "inputs": [],
      "name": "issuedNftIndex",
      "outputs": [
        {
          "internalType": "uint256",
          "name": "",
          "type": "uint256"
        }
      ],
      "stateMutability": "view",
      "type": "function"
    },
    {
      "inputs": [
        {
          "internalType": "uint256",
          "name": "",
          "type": "uint256"
        }
      ],
      "name": "issuedNftMaxSupply",
      "outputs": [
        {
          "internalType": "uint256",
          "name": "",
          "type": "uint256"
        }
      ],
      "stateMutability": "view",
      "type": "function"
    },
    {
      "inputs": [
        {
          "internalType": "uint256",
          "name": "",
          "type": "uint256"
        }
      ],
      "name": "issuedNftMintedCount",
      "outputs": [
        {
          "internalType": "uint256",
          "name": "",
          "type": "uint256"
        }
      ],
      "stateMutability": "view",
      "type": "function"
    },
    {
      "inputs": [
        {
          "internalType": "uint256",
          "name": "",
          "type": "uint256"
        }
      ],
      "name": "issuedNftPriceInCurrency6",
      "outputs": [
        {
          "internalType": "uint256",
          "name": "",
          "type": "uint256"
        }
      ],
      "stateMutability": "view",
      "type": "function"
    },
    {
      "inputs": [
        {
          "internalType": "uint256",
          "name": "",
          "type": "uint256"
        }
      ],
      "name": "issuedNftSharedMetadataHash",
      "outputs": [
        {
          "internalType": "bytes32",
          "name": "",
          "type": "bytes32"
        }
      ],
      "stateMutability": "view",
      "type": "function"
    },
    {
      "inputs": [
        {
          "internalType": "uint256",
          "name": "",
          "type": "uint256"
        }
      ],
      "name": "issuedNftTitle",
      "outputs": [
        {
          "internalType": "bytes32",
          "name": "",
          "type": "bytes32"
        }
      ],
      "stateMutability": "view",
      "type": "function"
    },
    {
      "inputs": [
        {
          "internalType": "uint256",
          "name": "",
          "type": "uint256"
        }
      ],
      "name": "issuedNftValidAfter",
      "outputs": [
        {
          "internalType": "uint64",
          "name": "",
          "type": "uint64"
        }
      ],
      "stateMutability": "view",
      "type": "function"
    },
    {
      "inputs": [
        {
          "internalType": "uint256",
          "name": "",
          "type": "uint256"
        }
      ],
      "name": "issuedNftValidBefore",
      "outputs": [
        {
          "internalType": "uint64",
          "name": "",
          "type": "uint64"
        }
      ],
      "stateMutability": "view",
      "type": "function"
    },
    {
      "inputs": [
        {
          "internalType": "address",
          "name": "userEOA",
          "type": "address"
        },
        {
          "internalType": "uint256",
          "name": "id",
          "type": "uint256"
        },
        {
          "internalType": "uint256",
          "name": "amount6",
          "type": "uint256"
        }
      ],
      "name": "mintFaucetByGateway",
      "outputs": [],
      "stateMutability": "nonpayable",
      "type": "function"
    },
    {
      "inputs": [
        {
          "internalType": "address",
          "name": "userEOA",
          "type": "address"
        },
        {
          "internalType": "uint256",
          "name": "tokenId",
          "type": "uint256"
        },
        {
          "internalType": "uint256",
          "name": "amount",
          "type": "uint256"
        }
      ],
      "name": "mintIssuedNftByGateway",
      "outputs": [],
      "stateMutability": "nonpayable",
      "type": "function"
    },
    {
      "inputs": [
        {
          "internalType": "address",
          "name": "to",
          "type": "address"
        },
        {
          "internalType": "uint256",
          "name": "tokenId",
          "type": "uint256"
        },
        {
          "internalType": "uint256",
          "name": "amount",
          "type": "uint256"
        }
      ],
      "name": "mintIssuedNftByOwner",
      "outputs": [],
      "stateMutability": "nonpayable",
      "type": "function"
    },
    {
      "inputs": [
        {
          "internalType": "address",
          "name": "user",
          "type": "address"
        },
        {
          "internalType": "uint256",
          "name": "tierIndex",
          "type": "uint256"
        }
      ],
      "name": "mintMemberCardByAdmin",
      "outputs": [],
      "stateMutability": "nonpayable",
      "type": "function"
    },
    {
      "inputs": [
        {
          "internalType": "address",
          "name": "user",
          "type": "address"
        },
        {
          "internalType": "uint256",
          "name": "points6",
          "type": "uint256"
        }
      ],
      "name": "mintPointsByAdmin",
      "outputs": [],
      "stateMutability": "nonpayable",
      "type": "function"
    },
    {
      "inputs": [
        {
          "internalType": "address",
          "name": "userEOA",
          "type": "address"
        },
        {
          "internalType": "uint256",
          "name": "points6",
          "type": "uint256"
        }
      ],
      "name": "mintPointsByGateway",
      "outputs": [],
      "stateMutability": "nonpayable",
      "type": "function"
    },
    {
      "inputs": [],
      "name": "owner",
      "outputs": [
        {
          "internalType": "address",
          "name": "",
          "type": "address"
        }
      ],
      "stateMutability": "view",
      "type": "function"
    },
    {
      "inputs": [],
      "name": "pointsUnitPriceInCurrencyE6",
      "outputs": [
        {
          "internalType": "uint256",
          "name": "",
          "type": "uint256"
        }
      ],
      "stateMutability": "view",
      "type": "function"
    },
    {
      "inputs": [],
      "name": "proposalCount",
      "outputs": [
        {
          "internalType": "uint256",
          "name": "",
          "type": "uint256"
        }
      ],
      "stateMutability": "view",
      "type": "function"
    },
    {
      "inputs": [
        {
          "internalType": "uint256",
          "name": "",
          "type": "uint256"
        }
      ],
      "name": "proposals",
      "outputs": [
        {
          "internalType": "address",
          "name": "target",
          "type": "address"
        },
        {
          "internalType": "uint256",
          "name": "v1",
          "type": "uint256"
        },
        {
          "internalType": "uint256",
          "name": "v2",
          "type": "uint256"
        },
        {
          "internalType": "uint256",
          "name": "v3",
          "type": "uint256"
        },
        {
          "internalType": "bytes4",
          "name": "selector",
          "type": "bytes4"
        },
        {
          "internalType": "uint256",
          "name": "approvals",
          "type": "uint256"
        },
        {
          "internalType": "bool",
          "name": "executed",
          "type": "bool"
        }
      ],
      "stateMutability": "view",
      "type": "function"
    },
    {
      "inputs": [
        {
          "internalType": "string[]",
          "name": "codes",
          "type": "string[]"
        },
        {
          "internalType": "address",
          "name": "userEOA",
          "type": "address"
        }
      ],
      "name": "redeemBatchByGateway",
      "outputs": [],
      "stateMutability": "nonpayable",
      "type": "function"
    },
    {
      "inputs": [
        {
          "internalType": "string",
          "name": "code",
          "type": "string"
        },
        {
          "internalType": "address",
          "name": "userEOA",
          "type": "address"
        }
      ],
      "name": "redeemByGateway",
      "outputs": [],
      "stateMutability": "nonpayable",
      "type": "function"
    },
    {
      "inputs": [
        {
          "internalType": "string",
          "name": "code",
          "type": "string"
        },
        {
          "internalType": "address",
          "name": "userEOA",
          "type": "address"
        }
      ],
      "name": "redeemPoolByGateway",
      "outputs": [],
      "stateMutability": "nonpayable",
      "type": "function"
    },
    {
      "inputs": [],
      "name": "renounceOwnership",
      "outputs": [],
      "stateMutability": "nonpayable",
      "type": "function"
    },
    {
      "inputs": [
        {
          "internalType": "address",
          "name": "from",
          "type": "address"
        },
        {
          "internalType": "address",
          "name": "to",
          "type": "address"
        },
        {
          "internalType": "uint256[]",
          "name": "ids",
          "type": "uint256[]"
        },
        {
          "internalType": "uint256[]",
          "name": "values",
          "type": "uint256[]"
        },
        {
          "internalType": "bytes",
          "name": "data",
          "type": "bytes"
        }
      ],
      "name": "safeBatchTransferFrom",
      "outputs": [],
      "stateMutability": "nonpayable",
      "type": "function"
    },
    {
      "inputs": [
        {
          "internalType": "address",
          "name": "from",
          "type": "address"
        },
        {
          "internalType": "address",
          "name": "to",
          "type": "address"
        },
        {
          "internalType": "uint256",
          "name": "id",
          "type": "uint256"
        },
        {
          "internalType": "uint256",
          "name": "value",
          "type": "uint256"
        },
        {
          "internalType": "bytes",
          "name": "data",
          "type": "bytes"
        }
      ],
      "name": "safeTransferFrom",
      "outputs": [],
      "stateMutability": "nonpayable",
      "type": "function"
    },
    {
      "inputs": [
        {
          "internalType": "address",
          "name": "operator",
          "type": "address"
        },
        {
          "internalType": "bool",
          "name": "approved",
          "type": "bool"
        }
      ],
      "name": "setApprovalForAll",
      "outputs": [],
      "stateMutability": "nonpayable",
      "type": "function"
    },
    {
      "inputs": [
        {
          "internalType": "uint256",
          "name": "attr",
          "type": "uint256"
        }
      ],
      "name": "setDefaultAttr",
      "outputs": [],
      "stateMutability": "nonpayable",
      "type": "function"
    },
    {
      "inputs": [
        {
          "internalType": "uint256",
          "name": "secs",
          "type": "uint256"
        }
      ],
      "name": "setExpirySeconds",
      "outputs": [],
      "stateMutability": "nonpayable",
      "type": "function"
    },
    {
      "inputs": [
        {
          "internalType": "uint256",
          "name": "id",
          "type": "uint256"
        },
        {
          "internalType": "uint64",
          "name": "validUntil",
          "type": "uint64"
        },
        {
          "internalType": "uint64",
          "name": "perClaimMax",
          "type": "uint64"
        },
        {
          "internalType": "uint128",
          "name": "maxPerUser",
          "type": "uint128"
        },
        {
          "internalType": "uint128",
          "name": "maxGlobal",
          "type": "uint128"
        },
        {
          "internalType": "bool",
          "name": "enabled",
          "type": "bool"
        },
        {
          "internalType": "enum BeamioCurrency.CurrencyType",
          "name": "cur",
          "type": "uint8"
        },
        {
          "internalType": "uint128",
          "name": "priceInCurrency6",
          "type": "uint128"
        }
      ],
      "name": "setFaucetConfig",
      "outputs": [],
      "stateMutability": "nonpayable",
      "type": "function"
    },
    {
      "inputs": [
        {
          "internalType": "uint256",
          "name": "priceInCurrencyE6",
          "type": "uint256"
        }
      ],
      "name": "setPointsUnitPrice",
      "outputs": [],
      "stateMutability": "nonpayable",
      "type": "function"
    },
    {
      "inputs": [
        {
          "components": [
            {
              "internalType": "uint256",
              "name": "minUsdc6",
              "type": "uint256"
            },
            {
              "internalType": "uint256",
              "name": "attr",
              "type": "uint256"
            },
            {
              "internalType": "uint256",
              "name": "tierExpirySeconds",
              "type": "uint256"
            }
          ],
          "internalType": "struct BeamioUserCard.Tier[]",
          "name": "newTiers",
          "type": "tuple[]"
        }
      ],
      "name": "setTiers",
      "outputs": [],
      "stateMutability": "nonpayable",
      "type": "function"
    },
    {
      "inputs": [
        {
          "internalType": "address",
          "name": "target",
          "type": "address"
        },
        {
          "internalType": "bool",
          "name": "allowed",
          "type": "bool"
        }
      ],
      "name": "setTransferWhitelist",
      "outputs": [],
      "stateMutability": "nonpayable",
      "type": "function"
    },
    {
      "inputs": [
        {
          "internalType": "bool",
          "name": "enabled",
          "type": "bool"
        }
      ],
      "name": "setTransferWhitelistEnabled",
      "outputs": [],
      "stateMutability": "nonpayable",
      "type": "function"
    },
    {
      "inputs": [
        {
          "internalType": "bytes4",
          "name": "interfaceId",
          "type": "bytes4"
        }
      ],
      "name": "supportsInterface",
      "outputs": [
        {
          "internalType": "bool",
          "name": "",
          "type": "bool"
        }
      ],
      "stateMutability": "view",
      "type": "function"
    },
    {
      "inputs": [
        {
          "internalType": "bytes32",
          "name": "poolHash",
          "type": "bytes32"
        }
      ],
      "name": "terminateRedeemPool",
      "outputs": [],
      "stateMutability": "nonpayable",
      "type": "function"
    },
    {
      "inputs": [],
      "name": "threshold",
      "outputs": [
        {
          "internalType": "uint256",
          "name": "",
          "type": "uint256"
        }
      ],
      "stateMutability": "view",
      "type": "function"
    },
    {
      "inputs": [
        {
          "internalType": "uint256",
          "name": "",
          "type": "uint256"
        }
      ],
      "name": "tiers",
      "outputs": [
        {
          "internalType": "uint256",
          "name": "minUsdc6",
          "type": "uint256"
        },
        {
          "internalType": "uint256",
          "name": "attr",
          "type": "uint256"
        },
        {
          "internalType": "uint256",
          "name": "tierExpirySeconds",
          "type": "uint256"
        }
      ],
      "stateMutability": "view",
      "type": "function"
    },
    {
      "inputs": [
        {
          "internalType": "uint256",
          "name": "",
          "type": "uint256"
        }
      ],
      "name": "tokenTierIndexOrMax",
      "outputs": [
        {
          "internalType": "uint256",
          "name": "",
          "type": "uint256"
        }
      ],
      "stateMutability": "view",
      "type": "function"
    },
    {
      "inputs": [
        {
          "internalType": "address",
          "name": "newOwner",
          "type": "address"
        }
      ],
      "name": "transferOwnership",
      "outputs": [],
      "stateMutability": "nonpayable",
      "type": "function"
    },
    {
      "inputs": [
        {
          "internalType": "address",
          "name": "",
          "type": "address"
        }
      ],
      "name": "transferWhitelist",
      "outputs": [
        {
          "internalType": "bool",
          "name": "",
          "type": "bool"
        }
      ],
      "stateMutability": "view",
      "type": "function"
    },
    {
      "inputs": [],
      "name": "transferWhitelistEnabled",
      "outputs": [
        {
          "internalType": "bool",
          "name": "",
          "type": "bool"
        }
      ],
      "stateMutability": "view",
      "type": "function"
    },
    {
      "inputs": [
        {
          "internalType": "uint256",
          "name": "",
          "type": "uint256"
        }
      ],
      "name": "uri",
      "outputs": [
        {
          "internalType": "string",
          "name": "",
          "type": "string"
        }
      ],
      "stateMutability": "view",
      "type": "function"
    }
  ],
  "bytecode": "0x60a0604052346103c157615f6f80380380610019816103c5565b92833981019060a0818303126103c15780516001600160401b0381116103c157810182601f820112156103c1578051906001600160401b03821161027c5761006a601f8301601f19166020016103c5565b93828552602083830101116103c157815f9260208093018387015e84010152602081015190600d8210156103c1576040810151906100b660806100af606084016103ea565b92016103ea565b845190946001600160401b03821161027c5760025490600182811c921680156103b7575b60208310146103a35781601f84931161032d575b50602090601f83116001146102c7575f926102bc575b50508160011b915f199060031b1c1916176002555b6001600160a01b03169182156102a957600380546001600160a01b031981168517909155604051949084906001600160a01b03167f8be0079c531659141344cd1fd0a4f28419497f9722a3daafe3b4186f6b6457e05f80a360016004556064601d5564174876e800601e556001600160a01b03811690811590811561029f575b506102905733608052600580546001600160a01b03191682179055600680546001600160a81b03191690911760a09290921b60ff60a01b16919091179055600755600160098190555f828152600a60205260409020805460ff19169091179055600b546801000000000000000081101561027c576001810180600b5581101561026857600b5f527f0175b7a638427703f0dbe7bb9bbf987a2551717b34e79f33b5b1008d1fa01db90180546001600160a01b0319169091179055615b7090816103ff823960805181612e6c0152f35b634e487b7160e01b5f52603260045260245ffd5b634e487b7160e01b5f52604160045260245ffd5b63ab82bb9960e01b5f5260045ffd5b90503b155f610199565b631e4fbdf760e01b5f525f60045260245ffd5b015190505f80610104565b60025f9081528281209350601f198516905b81811061031557509084600195949392106102fd575b505050811b01600255610119565b01515f1960f88460031b161c191690555f80806102ef565b929360206001819287860151815501950193016102d9565b828111156100ee5760025f52909150601f830160051c7f405787fa12a823e0f2b7631cc41b3ba8828b3321ca811111fa75cd3aa3bb5ace6020851061039b575b849392601f0160051c82900391015f5b82811061038b5750506100ee565b5f8183015585945060010161037d565b5f915061036d565b634e487b7160e01b5f52602260045260245ffd5b91607f16916100da565b5f80fd5b6040519190601f01601f191682016001600160401b0381118382101761027c57604052565b51906001600160a01b03821682036103c15756fe60806040526004361015610011575f80fd5b5f3560e01c8062fdd58e14610589578063013cf08b1461058457806301f28d911461057f57806301ffc9a71461057a578063039af9eb1461057557806303ca3e38146105705780630b6c8d711461056b5780630bd67833146105665780630e4ab487146105615780630e89341c1461055c57806310bba8641461055757806311117fc814610552578063116191b6146104e95780631284b92f1461054d57806315a762291461054857806317c95709146105435780631c790e241461053e57806322c6102e1461053957806324d7806c14610534578063254582651461052f5780632b681a541461052a5780632c0c4cfd146105255780632eb2c2d61461052057806331b86d351461051b57806334bca52c146105165780633c703d45146105115780633c970fb91461050c57806342cde4e814610507578063475e53ec1461050257806349c01d8a146104fd5780634dda2215146104f85780634e1273f4146104f357806352b9ec23146104ee57806353785619146104e95780635637d5bc146104e4578063564da757146104df57806356988130146104da57806356c31637146104d55780636465c3a7146104d0578063671395c8146104cb578063677f58b9146104c6578063684cc3a5146104c1578063706e0132146104bc578063715018a6146104b757806371b8982f146103e557806371d7193b146104b25780637940482b146104ad5780637fcb29c9146104a85780637ffbe241146104a357806382b720c91461049e57806383dbbf5314610499578063897828a8146104945780638abc9b251461048f5780638b3c6f8f1461048a5780638da5cb5b146104855780638db553081461048057806391afe1721461047b57806394b2e946146104765780639565c5421461047157806395f7b2ff1461046c57806398951b56146104675780639f1bbda7146104625780639f48facc1461045d578063a22cb46514610458578063a479044614610453578063a657a65b1461044e578063a876c75914610449578063a98d916e14610444578063af7ffa2b1461043f578063b3b86ddc1461043a578063c6073f1614610435578063c926bbfd14610430578063cbc4e1aa1461042b578063d05dcc6a14610426578063d4506e7714610421578063d52dc5151461041c578063d5f3948814610417578063da35c66414610412578063e41021371461040d578063e4a34dce14610408578063e5a6b10f14610403578063e985e9c5146103fe578063f242432a146103f9578063f2fde38b146103f4578063f51089f6146103ef578063f540f227146103ea578063f986f676146103e55763ffa1ad74146103e0575f80fd5b613242565b611e10565b613218565b613131565b6130a7565b612fba565b612f6f565b612f43565b612ee7565b612eb8565b612e9b565b612e57565b612e35565b612de0565b612db6565b612cd1565b612cb7565b612b04565b612ad1565b6129f5565b6129d6565b6129b9565b61295e565b6126a9565b61261e565b61255b565b61253e565b61250a565b6124e0565b6124b8565b61247d565b6123f2565b6123ca565b6123a2565b612378565b612297565b612235565b6121d3565b612086565b612046565b612015565b611fe3565b611edc565b611d50565b611d31565b611d07565b611cbc565b611c81565b611a53565b611a11565b611898565b6117ea565b6117cf565b610f41565b61173d565b61167c565b61161b565b6115e7565b611575565b611558565b611518565b6114ee565b6114c4565b611498565b611406565b611278565b611258565b61123b565b6111fb565b611166565b6110ab565b611081565b611025565b610fc9565b610ee7565b610eb7565b610dc7565b610d41565b610cc9565b610c14565b610832565b6107bb565b6106ff565b6106d0565b610639565b6105a3565b6001600160a01b0381160361059f57565b5f80fd5b3461059f57604036600319011261059f5760206105d66004356105c58161058e565b6024355f525f835260405f20610fb4565b54604051908152f35b5f527fcb1a422c9916903f224af4db9a3bf1529921bf95ff7b75d7d9ed9073a48394ab60205260405f2090565b5f527fcb1a422c9916903f224af4db9a3bf1529921bf95ff7b75d7d9ed9073a48394ac60205260405f2090565b3461059f57602036600319011261059f57600480355f908152600c6020908152604091829020805460018201546002830154600384015496840154600585015460069095015487516001600160a01b039095168552958401929092529482019490945260608101949094526001600160e01b031960e093841b16608085015260a084015260ff16151560c0830152819081015b0390f35b3461059f575f36600319011261059f576020601754604051908152f35b6001600160e01b031981160361059f57565b3461059f57602036600319011261059f57602060043561071e816106ed565b63ffffffff60e01b16636cdb3d1360e11b811490811561075c575b811561074b575b506040519015158152f35b6301ffc9a760e01b1490505f610740565b6303a24d0760e21b81149150610739565b634e487b7160e01b5f52603260045260245ffd5b60175481101561079d5760175f52600360205f20910201905f90565b61076d565b805482101561079d575f52600360205f20910201905f90565b3461059f57602036600319011261059f5760043560175481101561059f576107e290610781565b5080546106cc60026001840154930154604051938493846040919493926060820195825260208201520152565b606090600319011261059f576004356108278161058e565b906024359060443590565b3461059f576108403661080f565b600654909291906001600160a01b031680610ba157506005546001600160a01b03165b6001600160a01b03163303610b925761087a6143f0565b6001600160a01b038216918215610b83578315610b74576108a3825f52601960205260405f2090565b60018101549060ff608083901c16156108bb565b1590565b610b65578054906108dc6001600160401b0383165b6001600160401b031690565b4211610b56576108f8604083901c6001600160401b03166108d0565b8711610b475760055461092190610915906001600160a01b031681565b6001600160a01b031690565b6040516326387a5160e21b81523060048201526024810187905290602090829060449082905afa908115610b42575f91610b13575b5015610b0457600201546001600160801b0316610af5576109ab61099f610998886109928761098d8a5f52601a60205260405f2090565b610fb4565b54613291565b9260801c90565b6001600160801b031690565b10610ae6576109d961099f6109cc87610992875f52601b60205260405f2090565b926001600160801b031690565b10610ad75780610a167f3bf2de114e2e7636c289f21be023528e47d89b45e873b976c78989c3ddc683f59261098d855f52601a60205260405f2090565b610a21868254613291565b9055610a35835f52601b60205260405f2090565b610a40868254613291565b9055610a96610a4e82614425565b91610a588361452f565b610a6183610f69565b5415610a76610a6e61329e565b8988876146a1565b85610ad05787905b610ac0575b5061098d855f52601a60205260405f2090565b546040805196875260208701919091526001600160a01b039190911694a4610abe6001600455565b005b610aca90846146fc565b5f610a83565b5f90610a7e565b633eb230e560e21b5f5260045ffd5b632fb3850b60e11b5f5260045ffd5b6311fc944f60e31b5f5260045ffd5b631f3263b960e01b5f5260045ffd5b610b35915060203d602011610b3b575b610b2d81836112d6565b81019061325d565b5f610956565b503d610b23565b613272565b6314a447a760e11b5f5260045ffd5b638242235f60e01b5f5260045ffd5b63ab6138a560e01b5f5260045ffd5b63201165f360e21b5f5260045ffd5b63a9b8048960e01b5f5260045ffd5b6396f47d2360e01b5f5260045ffd5b610863565b6060602091604081019381526040838201528451809452019201905f5b818110610bd05750505090565b909192602060a06001926080875180518352848101518584015260408101516040840152606081015160608401520151151560808201520194019101919091610bc3565b3461059f57602036600319011261059f57610c41610c3c600435610c378161058e565b61495e565b613851565b906106cc60405192839283610ba6565b602435906001600160401b038216820361059f57565b604435906001600160401b038216820361059f57565b606435906001600160401b038216820361059f57565b608435906001600160401b038216820361059f57565b60e435906001600160801b038216820361059f57565b8015150361059f57565b3461059f5761010036600319011261059f57600435610ce6610c51565b90610cef610c67565b6064356001600160801b038116810361059f576084356001600160801b038116810361059f5760a43591610d2283610cbf565b60c43593600d85101561059f57610abe96610d3b610ca9565b966132b2565b3461059f57602036600319011261059f57600435610d5d614b32565b7ff316e065e93b4fddef3d2d93a57817985081f76ea9e0ca7417ed5b4b086b1fcb6020601854604051908152a1601855005b805180835260209291819084018484015e5f828201840152601f01601f1916010190565b906020610dc4928181520190610d8f565b90565b3461059f57602036600319011261059f576040515f6002548060011c9060018116908115610ead575b602083108214610e99578285526020850191908115610e805750600114610e2e575b6106cc84610e22818603826112d6565b60405191829182610db3565b60025f9081529250907f405787fa12a823e0f2b7631cc41b3ba8828b3321ca811111fa75cd3aa3bb5ace5b818410610e6c57505001610e2282610e12565b805484840152602090930192600101610e59565b60ff191682525090151560051b019050610e2282610e12565b634e487b7160e01b5f52602260045260245ffd5b91607f1691610df0565b3461059f575f36600319011261059f57602060405160068152f35b805482101561079d575f5260205f2001905f90565b3461059f57602036600319011261059f57600435600b5481101561059f57600b5f527f0175b7a638427703f0dbe7bb9bbf987a2551717b34e79f33b5b1008d1fa01db901546040516001600160a01b039091168152602090f35b3461059f575f36600319011261059f576005546040516001600160a01b039091168152602090f35b6001600160a01b03165f90815260156020526040902090565b6001600160a01b03165f90815260146020526040902090565b6001600160a01b03165f90815260166020526040902090565b9060018060a01b03165f5260205260405f2090565b3461059f57604036600319011261059f57600435610fe68161058e565b6001600160a01b03165f9081526014602052604090208054602435919082101561059f5760209161101691610ed2565b90549060031b1c604051908152f35b3461059f57602036600319011261059f57606061106561105f6004355f6040805161104f816112b6565b8281528260208201520152610781565b50613616565b6040805191805183526020810151602084015201516040820152f35b3461059f57602036600319011261059f576004355f526011602052602060405f2054604051908152f35b3461059f57604036600319011261059f576004356024356110cb8161058e565b6006546001600160a01b03168061113157506005546001600160a01b03165b6001600160a01b03163303610b92576001600160a01b0381165f908152600a602052604090205460ff161561112257610abe91614b96565b6363bc5ecb60e11b5f5260045ffd5b6110ea565b9181601f8401121561059f578235916001600160401b03831161059f576020808501948460051b01011161059f57565b3461059f5760e036600319011261059f576004356001600160401b03811161059f57611196903690600401611136565b602435916044356111a5610c7d565b906111ae610c93565b60a4356001600160401b03811161059f576111cd903690600401611136565b93909260c435976001600160401b03891161059f576111f3610abe993690600401611136565b98909761363e565b3461059f57602036600319011261059f576004356112188161058e565b60018060a01b03165f52600a602052602060ff60405f2054166040519015158152f35b3461059f575f36600319011261059f576020601e54604051908152f35b3461059f57602036600319011261059f57610c41600435610c3c8161058e565b3461059f57602036600319011261059f576004355f52601b602052602060405f2054604051908152f35b634e487b7160e01b5f52604160045260245ffd5b606081019081106001600160401b038211176112d157604052565b6112a2565b90601f801991011681019081106001600160401b038211176112d157604052565b6040519061130660e0836112d6565b565b604051906113066060836112d6565b6040519061130660a0836112d6565b6001600160401b0381116112d15760051b60200190565b9080601f8301121561059f57813561135481611326565b9261136260405194856112d6565b81845260208085019260051b82010192831161059f57602001905b82821061138a5750505090565b813581526020918201910161137d565b6001600160401b0381116112d157601f01601f191660200190565b9291926113c18261139a565b916113cf60405193846112d6565b82948184528183011161059f578281602093845f960137010152565b9080601f8301121561059f57816020610dc4933591016113b5565b3461059f5760a036600319011261059f576004356114238161058e565b602435906114308261058e565b6044356001600160401b03811161059f5761144f90369060040161133d565b6064356001600160401b03811161059f5761146e90369060040161133d565b90608435936001600160401b03851161059f57611492610abe9536906004016113eb565b93613955565b3461059f57602036600319011261059f5760406114b66004356139ae565b825191151582526020820152f35b3461059f57602036600319011261059f576004355f526024602052602060405f2054604051908152f35b3461059f57602036600319011261059f576004355f526025602052602060405f2054604051908152f35b3461059f57604036600319011261059f576115516004356115388161058e565b602435906115446143f0565b61154c614b32565b614e9a565b6001600455005b3461059f575f36600319011261059f576020600954604051908152f35b3461059f576115833661080f565b6006549091906001600160a01b0316806115e257506005546001600160a01b03165b6001600160a01b03163303610b92576115bc6143f0565b6001600160a01b03831615610b83578115610b74576115dd61155193614425565b61502e565b6115a5565b3461059f57604036600319011261059f5760206105d660243560043561160c8261058e565b5f52601a835260405f20610fb4565b3461059f575f36600319011261059f576020600754604051908152f35b90602080835192838152019201905f5b8181106116555750505090565b8251845260209384019390920191600101611648565b906020610dc4928181520190611638565b3461059f57604036600319011261059f576004356001600160401b03811161059f573660238201121561059f578060040135906116b882611326565b916116c660405193846112d6565b8083526024602084019160051b8301019136831161059f57602401905b82821061172357836024356001600160401b03811161059f576106cc9161171161171792369060040161133d565b90613a86565b6040519182918261166b565b6020809183356117328161058e565b8152019101906116e3565b3461059f5760c036600319011261059f57600435611759610c51565b611761610c67565b916064356001600160401b03811161059f57611781903690600401611136565b906084356001600160401b03811161059f576117a1903690600401611136565b92909160a435966001600160401b03881161059f576117c7610abe983690600401611136565b979096613b00565b3461059f575f36600319011261059f57602060405160648152f35b3461059f57604036600319011261059f576004356118078161058e565b602435906118136143f0565b61181b614b32565b6001600160a01b03811615610b83578115610b7457602061185c7f3e38a9410c08ddb4af8b083bfd2b197b1c3e61a651bd1c54c51ebce0cdcdc48e92614425565b61187660405161186c84826112d6565b5f8152858361465c565b6118808482615147565b6040519384526001600160a01b031692a26001600455005b3461059f5760e036600319011261059f576024356004356044356118ba610c7d565b6118c2610c93565b60a4356001600160401b03811161059f576118e1903690600401611136565b909160c4356001600160401b03811161059f57611902903690600401611136565b61190a6143f0565b611912614b32565b61191a614d23565b946040519485946020860198630569881360e41b8a528b60248801528c60448801528a60648801526001600160401b031660848701526001600160401b031660a486015260c4850160e09052610104850190611975926136ff565b906023198483030160e485015261198b926136ff565b03601f198101825261199d90826112d6565b515a925f93928493f4926119af613780565b93156119f2576040805191825260208201929092527f5d5ebc8105f0482c05c969b7e79cf039bd47ae3ad5b49c5ffe0e2e1e26f3974f9190a2610abe6001600455565b60405163dccff66960e01b815280611a0d8660048301610db3565b0390fd5b3461059f57604036600319011261059f57602060ff611a47602435600435611a388261058e565b5f52600d845260405f20610fb4565b54166040519015158152f35b3461059f57611a613661080f565b600654909291906001600160a01b031680611c7c57506005546001600160a01b03165b6001600160a01b03163303610b9257611a9b6143f0565b6001600160a01b038216918215610b83578315610b7457611ac4825f52601960205260405f2090565b60018101549060ff608083901c1615610b6557805490611aec6001600160401b0383166108d0565b4211610b5657611b08604083901c6001600160401b03166108d0565b8711610b4757600554611b2590610915906001600160a01b031681565b6040516326387a5160e21b81523060048201526024810187905290602090829060449082905afa908115610b42575f91611c5d575b5015610b0457600201546001600160801b031615611c4e57611b9261099f610998886109928761098d8a5f52601a60205260405f2090565b10610ae657611bb361099f6109cc87610992875f52601b60205260405f2090565b10610ad75780611bf07f3bf2de114e2e7636c289f21be023528e47d89b45e873b976c78989c3ddc683f59261098d855f52601a60205260405f2090565b611bfb868254613291565b9055611c0f835f52601b60205260405f2090565b611c1a868254613291565b9055610a96611c2882614425565b91611c3c611c3461329e565b8887866146a1565b61098d855f52601a60205260405f2090565b63225426e360e01b5f5260045ffd5b611c76915060203d602011610b3b57610b2d81836112d6565b5f611b5a565b611a84565b3461059f57602036600319011261059f57600435611c9e8161058e565b60018060a01b03165f526015602052602060405f2054604051908152f35b3461059f57604036600319011261059f576060611ce6602435600435611ce18261058e565b613c87565b6040805193151584526001600160801b039092166020840152151590820152f35b3461059f57602036600319011261059f576004355f526022602052602060405f2054604051908152f35b3461059f57611d3f3661080f565b90611d486143f0565b6115bc614b32565b3461059f575f36600319011261059f57611d686151b7565b600380546001600160a01b031981169091555f906001600160a01b03167f8be0079c531659141344cd1fd0a4f28419497f9722a3daafe3b4186f6b6457e08280a3005b9181601f8401121561059f578235916001600160401b03831161059f576020838186019501011161059f57565b604060031982011261059f57600435906001600160401b03821161059f57611e0291600401611dab565b9091602435610dc48161058e565b3461059f57611e1e36611dd8565b6006549091906001600160a01b031680611e5857506005546001600160a01b03165b6001600160a01b03163303610b9257610abe92613d57565b611e40565b602060031982011261059f57600435906001600160401b03821161059f57611e8791600401611136565b9091565b9291604084019360408152825180955260206060820193015f955b808710611ec2575050610dc49394506020818403910152611638565b909360208060019287511515815201950196019590611ea6565b3461059f57611eea36611e5d565b90611ef482613a54565b90611efe83613a54565b925f5b818110611f1a575050506106cc60405192839283611e8b565b80611f32611f2b6001938587613f5a565b36916113b5565b60208151910120611f42816105df565b90611f52825460ff9060a01c1690565b15611f865750611f7490611f6f611f69848961383d565b60019052565b614db0565b611f7e828861383d565b525b01611f01565b611f90915061060c565b805460ff81169081611fd0575b50611fa9575b50611f80565b611fbf90611fba611f69848961383d565b614e0f565b611fc9828861383d565b525f611fa3565b60881c63ffffffff16151590505f611f9d565b3461059f57602036600319011261059f576004355f526020805260206001600160401b0360405f205416604051908152f35b3461059f57604036600319011261059f57610abe6004356120358161058e565b60243590612041614b32565b615207565b3461059f57602036600319011261059f576004356120638161058e565b60018060a01b03165f52600f602052602060ff60405f2054166040519015158152f35b3461059f5760a036600319011261059f576004356120a3816106ed565b602435906120b08261058e565b604435906064356084356006549094906001600160a01b0316806121ce57506005546001600160a01b03165b6001600160a01b03163303610b92576106cc9461215f92600e549561210087613f9b565b600e5561211d61210e6112f7565b6001600160a01b039095168552565b6020840152604083015260608201526001600160e01b0319831660808201525f60a08201525f60c082015261215a845f52600c60205260405f2090565b613fbc565b33906001600160e01b031916827f5cad714c75d7c75eabb440ba28d3f6a407c16bf6e9c4f54fa1fdddc068de20745f80a4335f908152600a602052604090206121aa905b5460ff1690565b6121bf575b6040519081529081906020820190565b6121c93382614b96565b6121af565b6120dc565b3461059f57602036600319011261059f576004356121ef614b32565b8015612226576020817fd45b01a2f21a7aa8a0f57023efdce73147de071e77875c3f4d486b1e13eaef7092600755604051908152a1005b6376024b7160e01b5f5260045ffd5b3461059f57602036600319011261059f577fc52867146282c253c04e94eb2a948478a1f7ef84cf2d6f5864facc99f2203f2c602060043561227581610cbf565b61227d614b32565b151560ff196010541660ff821617601055604051908152a1005b3461059f57606036600319011261059f576044356004356024356122b9614b32565b8115612369576017549081612336575b7fc9553df3224b08515381089b4a0e07d62144ba87c402485fabd66899cadc2ab1936123319161230e6122fa611308565b86815282602082015283604082015261406d565b604051948594859094939260609260808301968352602083015260408201520152565b0390a1005b5f1982018281116123645761105f61234d91610781565b5183106122c9575b6372d7397d60e11b5f5260045ffd5b61327d565b639033099360e01b5f5260045ffd5b3461059f57602036600319011261059f576004355f526021602052602060405f2054604051908152f35b3461059f575f36600319011261059f576003546040516001600160a01b039091168152602090f35b3461059f57602036600319011261059f5760206123e86004356140b4565b6040519015158152f35b3461059f57602036600319011261059f575f806004356124106143f0565b612418614b32565b612420614d23565b9060405160208101916348d7f0b960e11b83526024820152602481526124476044826112d6565b51915af4612453613780565b9015612460576001600455005b60405163dccff66960e01b8152908190611a0d9060048301610db3565b3461059f57602036600319011261059f5760043561249a8161058e565b60018060a01b03165f526016602052602060405f2054604051908152f35b3461059f575f36600319011261059f576006546040516001600160a01b039091168152602090f35b3461059f57602036600319011261059f576004355f526023602052602060405f2054604051908152f35b3461059f57602036600319011261059f57600435335f52600a60205260ff60405f2054161561112257610abe903390614b96565b3461059f575f36600319011261059f576020600854604051908152f35b3461059f57602036600319011261059f576004355f908152601960209081526040918290208054600182015460029092015484516001600160401b03808416825283871c1694810194909452608091821c948401949094526001600160801b03808316606085015260ff83831c8116151592850192909252608883901c821660a085015260909290921c1660c083015290911660e082015261010090f35b604090600319011261059f576004356126118161058e565b90602435610dc481610cbf565b3461059f5761262c366125f9565b6001600160a01b038216918215612697578161265661266792335f52600160205260405f20610fb4565b9060ff801983541691151516179055565b60405190151581527f17307eab39ab6107e8899845ad3d59bd9653f200f220920489ca2b5937696c3160203392a3005b62ced3e160e81b5f525f60045260245ffd5b3461059f57604036600319011261059f576004356001600160401b03811161059f576126d9903690600401611136565b602435916126e68361058e565b6006546001600160a01b03168061295957506005546001600160a01b03165b6001600160a01b03163303610b925761271c6143f0565b6001600160a01b03831615610b8357811561294a575f91829184612771612741614d23565b93612763604051938492602084019663bca0e27d60e01b885260248501614155565b03601f1981018352826112d6565b51915af49061277e613780565b911561292f576127976020835184010160208401614254565b9293915093845183510361246057506127af90614425565b906127b98261452f565b6127c282610f69565b54155f925f945f5b875181101561280f576127dd818961383d565b51156127ec575b6001016127ca565b955093612804906127fd878661383d565b5190613291565b6001959094906127e4565b509093919415612927575b50838061291c575b6128f1575b806128da575b5f5b85518110156128b857612842818461383d565b51908115610b7457600191612857828961383d565b51156128b25764174876e80061286d838a61383d565b511061288e5761288890612881838a61383d565b518761502e565b0161282f565b6128ad9061289c838a61383d565b51906128a661329e565b91886146a1565b612888565b50612888565b8382866128ca575b610abe6001600455565b6128d3916146fc565b80806128c0565b6128ec6128e561329e565b828561465c565b61282d565b6129046128ff601754614052565b610781565b50548110156128275763559d06d760e01b5f5260045ffd5b506017541515612822565b90505f61281a565b60405163dccff66960e01b815280611a0d8460048301610db3565b63fb713d2b60e01b5f5260045ffd5b612705565b3461059f57602036600319011261059f576004356001600160401b03811161059f573660238201121561059f5780600401356001600160401b03811161059f57366024606083028401011161059f576024610abe9201614344565b3461059f575f36600319011261059f576020601854604051908152f35b3461059f575f36600319011261059f57602060405164174876e8008152f35b3461059f57604036600319011261059f57600435612a128161058e565b60065460243591906001600160a01b031680612acc57506005546001600160a01b03165b6001600160a01b03163303610b9257612a4d6143f0565b6001600160a01b038116908115610b83578215610b74576020612a907f6ac4f60455173f2148d89d52868ac4ffb14111720d245aa36ad26e0d7e64c59b92614425565b612aaa604051612aa084826112d6565b5f8152868361465c565b612ab48582615147565b6040519485526001600160a01b031693a36001600455005b612a36565b3461059f57602036600319011261059f576004355f52601f60205260206001600160401b0360405f205416604051908152f35b3461059f5760c036600319011261059f57600435612b20610c51565b90612b29610c67565b6064359160a435608435612b3b6143f0565b612b43614b32565b8415610b74576001600160401b0384168015159081612ca4575b50612c825791612c756106cc96927f0d52bfb4760322d7d520c725a53d2a1b3a1d17bdc1615c95867a525cbf7916f394601e54978897612ba4612b9f8a613f9b565b601e55565b85612bb78a5f52602160205260405f2090565b55612be987612bce8b5f52601f60205260405f2090565b906001600160401b03166001600160401b0319825416179055565b612bfe81612bce8b5f526020805260405f2090565b81612c118a5f52602360205260405f2090565b5582612c258a5f52602560205260405f2090565b5583612c398a5f52602260205260405f2090565b5560405196879687926001600160401b03908160a096939998979460c087019a8752166020860152166040840152606083015260808201520152565b0390a26121af6001600455565b630640952160e21b5f526001600160401b03808716600452841660245260445ffd5b90506001600160401b038716115f612b5d565b3461059f575f36600319011261059f5760206040515f8152f35b3461059f57602036600319011261059f576004356001600160401b03811161059f57612d01903690600401611dab565b90612d0a6143f0565b612d12614b32565b5f80612d1c614d23565b6040516365e270d560e11b6020808301918252602483015290612d4781612763604482018a8a614135565b51915af491612d54613780565b9215612d9b57612d66925036916113b5565b602081519101207fc0701a0c15577896ad516e3ca2668eb0cee26a8f32bc862c0d94950619e368035f80a2610abe6001600455565b60405163dccff66960e01b815280611a0d8560048301610db3565b3461059f57602036600319011261059f576004355f526012602052602060405f2054604051908152f35b3461059f57602036600319011261059f57600435612dfc614b32565b60085460408051918252602082018390527f1c8121c98d871a1523a6112e29ac660378afbcb9b921cff8f187c3da35d1708191a1600855005b3461059f575f36600319011261059f57602060ff601054166040519015158152f35b3461059f575f36600319011261059f576040517f00000000000000000000000000000000000000000000000000000000000000006001600160a01b03168152602090f35b3461059f575f36600319011261059f576020600e54604051908152f35b3461059f57602036600319011261059f576004355f52601c602052602060ff60405f2054166040519015158152f35b3461059f57610abe612ef8366125f9565b90612f01614b32565b60018060a01b03165f52600f60205260405f209060ff801983541691151516179055565b600d1115612f2f57565b634e487b7160e01b5f52602160045260245ffd5b3461059f575f36600319011261059f5760ff60065460a01c16604051600d821015612f2f576020918152f35b3461059f57604036600319011261059f57602060ff611a47600435612f938161058e565b60243590612fa08261058e565b6001600160a01b03165f9081526001855260409020610fb4565b3461059f5760a036600319011261059f57600435612fd78161058e565b602435612fe38161058e565b60443590606435926084356001600160401b03811161059f5761300a9036906004016113eb565b926001600160a01b0382163381141580613087575b613071576001600160a01b0384161561305e571561304c57610abe94613044916152e0565b929091615470565b626a0d4560e21b5f525f60045260245ffd5b632bfa23e760e11b5f525f60045260245ffd5b63711bec9160e11b5f523360045260245260445ffd5b50805f52600160205260ff61309f3360405f20610fb4565b54161561301f565b3461059f57602036600319011261059f576004356130c48161058e565b6130cc6151b7565b6001600160a01b0316801561311e57600380546001600160a01b0319811683179091556001600160a01b03167f8be0079c531659141344cd1fd0a4f28419497f9722a3daafe3b4186f6b6457e05f80a3005b631e4fbdf760e01b5f525f60045260245ffd5b3461059f5761313f36611e5d565b9061314982613a54565b9061315383613a54565b925f5b81811061316f575050506106cc60405192839283611e8b565b8061317d60019284866137af565b35613187816105df565b90613197825460ff9060a01c1690565b156131c057506131ae90611f6f611f69848961383d565b6131b8828861383d565b525b01613156565b6131ca915061060c565b805460ff81169081613205575b506131e3575b506131ba565b6131f490611fba611f69848961383d565b6131fe828861383d565b525f6131dd565b60881c63ffffffff16151590505f6131d7565b3461059f57602036600319011261059f576004355f526013602052602060405f2054604051908152f35b3461059f575f36600319011261059f576020604051600a8152f35b9081602091031261059f5751610dc481610cbf565b6040513d5f823e3d90fd5b634e487b7160e01b5f52601160045260245ffd5b9190820180921161236457565b604051906132ad6020836112d6565b5f8252565b60065490979296959194906001600160a01b03168061349157506005546001600160a01b03165b6001600160a01b03163303610b9257875f52601c60205260ff60405f2054166134825761340861347d966133e561341b946133aa61343e9861338a7ff236e4a60720cc79b1fa956ec64fd78f4d702ba14614ed969c4912a86a3e99519d8f5f52601960205261336260405f209d8e906001600160401b03166001600160401b0319825416179055565b8c5467ffffffffffffffff60401b191660409190911b67ffffffffffffffff60401b16178c55565b8a546001600160801b031660809190911b6001600160801b031916178a55565b6001890180546001600160801b0319166001600160801b03909616959095178555845460ff60801b191690151560801b60ff60801b16178455565b6133ee81612f25565b825460ff60881b191660889190911b60ff60881b16178255565b805460ff60901b1916600360911b179055565b6002830180546001600160801b0319166001600160801b03909216919091179055565b61344f61344a82613496565b614a72565b613471613464855f52601c60205260405f2090565b805460ff19166001179055565b6040519182918261357f565b0390a2565b6325ddcb7760e21b5f5260045ffd5b6132d9565b906040516101008101908082106001600160401b038311176112d1576113069160405260e06135716002839661351361350382546001600160401b03811688526134fd6134ed826001600160401b039060401c1690565b6001600160401b031660208a0152565b60801c90565b6001600160801b03166040870152565b60018101546001600160801b03811660608701526135639061355990613543608082901c60ff16151560808a0152565b60ff608882901c1660a089015260901c60ff1690565b60ff1660c0870152565b01546001600160801b031690565b6001600160801b0316910152565b6113069092919260e061357160026101008401966135d081546135b3876001600160401b0383166001600160401b03169052565b604081901c6001600160401b0316602088015260801c6040870152565b60018101546001600160801b0381166060870152613563906135fc6080880160ff8360801c1615159052565b608881901c60ff1660a088015260901c60ff1660c0870152565b90604051613623816112b6565b60406002829480548452600181015460208501520154910152565b988161276361368b92859b879b8e97969b5f9b8c9b61365b6143f0565b613663614b32565b61366b614d23565b9b6040519a8b9960208b019d8e631163081760e11b905260248c01613723565b51915af4613697613780565b901561246057505f5b8181106136b65750505050506113066001600455565b806136c460019284886137af565b60408051878152602081018790529135917f5d5ebc8105f0482c05c969b7e79cf039bd47ae3ad5b49c5ffe0e2e1e26f3974f9190a2016136a0565b81835290916001600160fb1b03831161059f5760209260051b809284830137010190565b989692946001600160401b039290610dc49b999561374e6137729994869460e08f81815201916136ff565b9760208d015260408c01521660608a015216608088015286830360a08801526136ff565b9260c08185039101526136ff565b3d156137aa573d906137918261139a565b9161379f60405193846112d6565b82523d5f602084013e565b606090565b919081101561079d5760051b0190565b906137c982611326565b6137d660405191826112d6565b82815280926137e7601f1991611326565b015f5b8181106137f657505050565b6040519060a08201918083106001600160401b038411176112d1576020926040525f81525f838201525f60408201525f60608201525f6080820152828286010152016137ea565b805182101561079d5760209160051b010190565b9061385b82610f82565b918254613867816137bf565b935f5b8281106138aa5750505f808052602052506138a5907fad3228b676f7d3cd4284a5443f17f1962b36e491b30a40b2405849e597ba5fb5610fb4565b549190565b806138c46138ba60019385610ed2565b90549060031b1c90565b61392e6138d9825f52601160205260405f2090565b54801515908161394a575b6138f6845f52601260205260405f2090565b54613909855f52601360205260405f2090565b5490613913611317565b95865260208601526040850152606084015215156080830152565b613938828961383d565b52613943818861383d565b500161386a565b8091504211906138e4565b939291906001600160a01b038516338114158061398e575b613071576001600160a01b0382161561305e571561304c5761130694615470565b50805f52600160205260ff6139a63360405f20610fb4565b54161561396d565b805f527fcb1a422c9916903f224af4db9a3bf1529921bf95ff7b75d7d9ed9073a48394ab60205260405f2060ff815460a01c16613a4a57505f527fcb1a422c9916903f224af4db9a3bf1529921bf95ff7b75d7d9ed9073a48394ac60205260405f20805460ff81169081613a37575b50613a2957505f905f90565b613a3290614e0f565b600191565b63ffffffff915060881c1615155f613a1d565b613a329150614db0565b90613a5e82611326565b613a6b60405191826112d6565b8281528092613a7c601f1991611326565b0190602036910137565b91909180518351808203613aeb575050613aa08151613a54565b905f5b8151811015613ae45780613ad260019260051b602080828701015191890101515f525f60205260405f20610fb4565b54613add828661383d565b5201613aa3565b5090925050565b635b05999160e01b5f5260045260245260445ffd5b9694929095919793613b106143f0565b613b18614b32565b613b20614d23565b986040519760208901996352b9ec2360e01b8b5260248a01526001600160401b031660448901526001600160401b031660648801526084870160c0905260e4870190613b6b92613bff565b906023198683030160a4870152613b8192613bff565b8381036023190160c485015281815260200191905f905b808210613bd7575050509181613bba5f9593869503601f1981018352826112d6565b51915af4613bc6613780565b901561246057506113066001600455565b90919283359063ffffffff821680920361059f57602081600193829352019401920190613b98565b90602083828152019060208160051b85010193835f915b838310613c265750505050505090565b909192939495601f198282030186528635601e198436030181121561059f57830190602082359201916001600160401b03811161059f578060051b3603831361059f57613c7960209283926001956136ff565b980196019493019190613c16565b90613c91826105df565b5460ff8160a01c16613d425750613ca78261060c565b5460ff81169081613d2f575b50613cc25750505f905f905f90565b6001600160a01b03811615159182613cee575b5050613ce5576001905f90600190565b5f905f90600190565b613d2892509061098d6121a3925f527fcb1a422c9916903f224af4db9a3bf1529921bf95ff7b75d7d9ed9073a48394ad60205260405f2090565b5f80613cd5565b60881c63ffffffff16151590505f613cb3565b6001936001600160801b0390911692505f9150565b613d5f6143f0565b6001600160a01b03831615610b83575f91829184613da0613d7e614d23565b93612763604051938492602084019663fd44e85560e01b8852602485016151de565b51915af491613dad613780565b9215612d9b57613dc66020845185010160208501614254565b929491509485518351036124605750613dde90614425565b613de78161452f565b613df081610f69565b5415905f935f955f5b8851811015613e3757613e0c818a61383d565b5115613e1b575b600101613df9565b965094613e2c906127fd888761383d565b600196909590613e13565b5090929594919415613f52575b508480613f47575b613f21575b80613f0a575b5f5b8651811015613ee257613e6c818561383d565b51908115610b7457600191613e81828a61383d565b5115613edc5764174876e800613e97838b61383d565b5110613eb857613eb290613eab838b61383d565b518861502e565b01613e59565b613ed790613ec6838b61383d565b5190613ed061329e565b91896146a1565b613eb2565b50613eb2565b50929391509350613efa575b50506113066001600455565b613f03916146fc565b5f80613eee565b613f1c613f1561329e565b828661465c565b613e57565b613f2f6128ff601754614052565b5054811015613e515763559d06d760e01b5f5260045ffd5b506017541515613e4c565b90505f613e44565b919081101561079d5760051b81013590601e198136030182121561059f5701908135916001600160401b03831161059f57602001823603811361059f579190565b5f1981146123645760010190565b634e487b7160e01b5f525f60045260245ffd5b815181546001600160a01b0319166001600160a01b039190911617815560208201516001820155604082015160028201556060820151600382015560808201516113069260069161403f9160c09161402e906001600160e01b031916600487019060e01c63ffffffff19825416179055565b60a081015160058601550151151590565b91019060ff801983541691151516179055565b5f1981019190821161236457565b9190820391821161236457565b601754600160401b8110156112d15780600161408e920160175560176107a2565b9190916140af57604081600292518455602081015160018501550151910155565b613fa9565b64174876e800811061412657805f52601f6020526001600160401b0360405f205416905f52602080526001600160401b0360405f20541690801515908161412b575b50614126576001600160401b0316801515908161411c575b5061411857600190565b5f90565b905042115f61410e565b505f90565b905042105f6140f6565b908060209392818452848401375f828201840152601f01601f1916010190565b93929190816040860160408752526060850160608360051b87010192825f90601e19813603015b83831061419f575050505050509060206113069294019060018060a01b03169052565b909192939495605f198a820301865286358281121561059f57830190602082359201916001600160401b03811161059f57803603831361059f576141e96020928392600195614135565b98019601949301919061417c565b9080601f8301121561059f57815161420e81611326565b9261421c60405194856112d6565b81845260208085019260051b82010192831161059f57602001905b8282106142445750505090565b8151815260209182019101614237565b9060808282031261059f5781519260208301519260408101516001600160401b03811161059f57836142879183016141f7565b9260608201516001600160401b03811161059f57610dc492016141f7565b919081101561079d576060020190565b6017545f601755806142c45750565b806003029060038204036123645760175f5260205f205f5b8281106142e857505050565b805f600260039385018281558260018201550155016142dc565b601754600160401b8110156112d157806001614323920160175560176107a2565b9190916140af57604060029180358455602081013560018501550135910155565b61434c614b32565b81156143e1575f5f195b8382106143bc5750506143676142b5565b5f5b8281106143a05750506040519081527f2f291eaf494dc7eca20457441a1df7d9119f0c0d764309daf9cb6b148810ee3690602090a1565b806143b66143b160019386866142a5565b614302565b01614369565b6143c78285856142a5565b359081156123695781101561235557600190910190614356565b6308ba5b6160e01b5f5260045ffd5b600260045414614401576002600455565b633ee5aeb560e01b5f5260045ffd5b9081602091031261059f5751610dc48161058e565b60055460049060209061444290610915906001600160a01b031681565b604051630e83251360e01b815292839182905afa908115610b42575f91614500575b506001600160a01b031680156144f1576040516303330c7960e41b81526001600160a01b038316600482015290602090829060249082905afa908115610b42575f916144d2575b506144b957610dc49061495e565b803b156144c35790565b632ad05f3360e11b5f5260045ffd5b6144eb915060203d602011610b3b57610b2d81836112d6565b5f6144ab565b63ab82bb9960e01b5f5260045ffd5b614522915060203d602011614528575b61451a81836112d6565b810190614410565b5f614464565b503d614510565b61453881610f69565b548061460b575b509061454a82610f82565b918254156145f15782545f1991905f90815b81811061457e57505061457b9293945061457582610f69565b55610f9b565b55565b61458b6138ba8289610ed2565b6145a08561098d835f525f60205260405f2090565b54156145e8576145af816152c0565b6145e8576145c5815f52601360205260405f2090565b54908682106145db575b50506001905b0161455c565b909550925060015f6145cf565b506001906145d5565b611306919250805f61457561460593610f69565b5f199055565b6146208261098d835f525f60205260405f2090565b5415158061464a575b1561453f5761464361457b915f52601360205260405f2090565b5491610f9b565b506146576108b7826152c0565b614629565b9091906001600160a01b0381161561305e5761467b611306935f6152e0565b91615305565b9091906001600160a01b0381161561305e5761467b6001611306946152e0565b919291906001600160a01b0382161561305e576113069361467b916152e0565b80549190600160401b8310156112d157826146e491600161130695018155610ed2565b90919082549060031b91821b915f19901b1916179055565b9061470682610f69565b5461494f576017541561486f575f19915f915f90601754915b828110614838575b5050505f1983146148335761457b9161473f84615638565b8061482357505f905b601d5491829161475f61475a84613f9b565b601d55565b61477161476a61329e565b8487614681565b81614784845f52601160205260405f2090565b55614797835f52601260205260405f2090565b55856147ab835f52601360205260405f2090565b556147be826147b986610f82565b6146c1565b7fa1617247f4f1078375680895d347eab75e7ccbda5c9bde1acb40416494a168386148176147eb88610781565b5054604080518a815260208101929092528101939093526001600160a01b038616929081906060820190565b0390a361457582610f69565b61482d9042613291565b90614748565b505050565b61484181610781565b50548210156148525760010161471f565b945050509050600161486383610781565b500154905f8080614727565b506146056113069160085480155f1461494057505f5b601d54809161489661475a83613f9b565b6148a86148a161329e565b8386614681565b806148bb835f52601160205260405f2090565b556018546148d1835f52601260205260405f2090565b556148e7614605835f52601360205260405f2090565b6148f4826147b986610f82565b604080515f1981525f6020820152908101919091526001600160a01b038416907fa1617247f4f1078375680895d347eab75e7ccbda5c9bde1acb40416494a16838908060608101614817565b61494a9042613291565b614885565b630275df1160e01b5f5260045ffd5b60055460049060209061497b90610915906001600160a01b031681565b60405163fb3894d360e01b815292839182905afa908115610b42575f91614a53575b506001600160a01b0381169182156144f1576040516308a8c59960e01b81526001600160a01b038216600482015292602090849060249082905afa928315610b42575f93614a32575b506001600160a01b038316158015614a29575b614a0257505090565b63ad12d34160e01b5f526001600160a01b039081166004529081166024521660445260645ffd5b50823b156149f9565b614a4c91935060203d6020116145285761451a81836112d6565b915f6149e6565b614a6c915060203d6020116145285761451a81836112d6565b5f61499d565b614a826108b76080830151151590565b80614b11575b614ae457600660ff614a9e60c084015160ff1690565b1603614ae4576001600160401b03614ac060208301516001600160401b031690565b1615614ae45760408101516001600160801b031615908115614af3575b50614ae457565b633c425ec360e21b5f5260045ffd5b60600151614b0a91506001600160801b031661099f565b155f614add565b506001600160401b03614b2b82516001600160401b031690565b1615614a88565b6006546001600160a01b031680614b9157506005546001600160a01b03165b6003546001600160a01b03163314159081614b7d575b50614b6e57565b630fc5e1ab60e41b5f5260045ffd5b6001600160a01b031633141590505f614b67565b614b51565b90614ba9825f52600c60205260405f2090565b60ff60068201541661294a5760ff614bcd8361098d865f52600d60205260405f2090565b541661294a57600590614bef6134648461098d875f52600d60205260405f2090565b0190614bfb8254613f9b565b82556001600160a01b0316827f049c28adfe50bcf1b76fd95273b6a24566b9f377e52fddc653c3355248dad07a5f80a3546009541115614c385750565b614c4a815f52600c60205260405f2090565b60068101805460ff1661294a57805460ff1916600117905560048101546001600160e01b03199060e01b16637fcb29c960e01b8103614cc457508054600190910154614c9e916001600160a01b0316615207565b7f712ae1383f79ac853f8d882153778e0260ef8f03b504e2866e0593e04d2b291f5f80a2565b631cb4772560e21b8103614cfc57508054614cf791906001906001600160a01b0316910154614cf161329e565b9161465c565b614c9e565b63178fb21b60e11b0361294a578054600290910154614cf7916001600160a01b0316614e9a565b6005546001600160a01b0316908115828115614da6575b506144f157602060049260405193848092620c3c5d60e81b82525afa918215610b42575f92614d85575b506001600160a01b03821615614d7657565b63a9d04f8760e01b5f5260045ffd5b614d9f91925060203d6020116145285761451a81836112d6565b905f614d64565b90503b155f614d3a565b80546001600160801b031691905f5b6002820180548210156148335781614dd691610ed2565b90549060031b1c15614deb575b600101614dbf565b92614df98460038401610ed2565b90549060031b1c81018091116123645792614de3565b5f5f5b600183018054821015614e935781614e29916107a2565b505f90600181018054925b838110614e4b575050505060018091019050614e12565b614e558183610ed2565b90549060031b1c15614e6a575b600101614e34565b94614e8b600191614e7e8860028701610ed2565b90549060031b1c90613291565b959050614e62565b5050905090565b6001600160a01b03811615610b83576017548015614ffb57821015614ffb57614ec290614425565b614ecb81610f69565b548015159081614fe7575b5061494f577fef80dfae739c4e8cf106d33ce054e670379e6a87d72585303558960b7675844c601d5492614f0c61475a85613f9b565b6020614f1a61105f83610781565b614f2383615638565b614f35614f2e61329e565b8888614681565b80614fd857505f5b614f4f875f52601160205260405f2090565b5501908151614f66865f52601260205260405f2090565b5580614f7a865f52601360205260405f2090565b55614f88856147b986610f82565b84614f9285610f69565b55614f9c84610f9b565b555191614fb1845f52601160205260405f2090565b546040805194855260208501919091526001600160a01b039091169290819081015b0390a3565b614fe29042613291565b614f3d565b614ff591506108b7906152c0565b5f614ed6565b63c759a36760e01b5f5260045ffd5b90949392606092608083019660018060a01b03168352602083015260408201520152565b64174876e800821061512a5761504c825f52602360205260405f2090565b54801561511157615065835f52602460205260405f2090565b5490806150728684613291565b116150e757507fae2f87dbf103db294ddd4ab45caa7a914d70bb3d06eeb8a8dc23e03e84548c8d916150a785614fd393613291565b6150b9855f52602460205260405f2090565b556150cd6150c561329e565b8686846146a1565b6040519485526001600160a01b0316939081906020820190565b611a0d9250906150f691614060565b9260405193849363406e3ab960e01b8552306004860161500a565b631f21179960e21b5f908152600484905260245260445ffd5b631f21179960e21b5f52600482905264174876e80060245260445ffd5b61515090614425565b9061515a8261452f565b61516382610f69565b546151b3576017541561486f575f19915f915f90601754915b82811061519b575050505f1983146148335761457b9161473f84615638565b6151a481615656565b8210156148525760010161517c565b5050565b6003546001600160a01b031633036151cb57565b63118cdaa760e01b5f523360045260245ffd5b916020916151f791959495604085526040850191614135565b6001600160a01b03909416910152565b6001600160a01b038116908115610b8357815f52600a60205260ff60405f2054161561523e575b5050600b54811161294a57600955565b6001600160a01b03165f908152600a6020526040902061525d90613464565b600b54600160401b8110156112d15760018101600b55600b5481101561079d57600b5f9081527f0175b7a638427703f0dbe7bb9bbf987a2551717b34e79f33b5b1008d1fa01db99190910180546001600160a01b0319169092179091558061522e565b5f52601160205260405f205480151590816152d9575090565b9050421190565b9160405192600184526020840152604083019160018352606084015260808301604052565b92939091935f5b83518110156154125761531f818561383d565b51606481101580615404575b6153cd5715806153c6575b615345575b6001905b0161530c565b60105460ff16615355575b61533b565b5f8052600f6020526153896108b77ff4803e074bd026baaf6ed2e288c9515f68c72fb7216eebdd7cae1718a53ec3756121a3565b1561533b576001600160a01b0385165f908152600f602052604090206153b2906108b7906121a3565b1561535057639798976560e01b5f5260045ffd5b505f615336565b600191906001600160a01b03871615806153fd575b6153ed575b5061533f565b6153f7905f6158d4565b5f6153e7565b505f6153e2565b5064174876e800811061532b565b50919390936154238282865f615998565b6001600160a01b038416615438575b50505050565b8051600103615460579060208061545795930151910151915f336157fb565b5f808080615432565b61546b935f336156cc565b615457565b929490936001600160a01b0384161580159490939092859283615625575b5f5b83518110156155c2576154a3818561383d565b516064811015806155b4575b61555157158061554a575b6154c9575b6001905b01615490565b60105460ff166154d9575b6154bf565b5f8052600f60205261550d6108b77ff4803e074bd026baaf6ed2e288c9515f68c72fb7216eebdd7cae1718a53ec3756121a3565b156154bf576001600160a01b0389165f908152600f60205260409020615536906108b7906121a3565b156154d457639798976560e01b5f5260045ffd5b50876154ba565b9087866155a3575b15615594576001916001600160a01b038b16158061558d575b61557d575b506154c3565b61558790886158d4565b5f615577565b5086615572565b63b8333dc960e01b5f5260045ffd5b506001600160a01b038a1615615559565b5064174876e80081106154af565b509550969293509490506155d882868386615998565b6001600160a01b0381166155ee575b5050505050565b84516001036156145760208061560a96015192015192336157fb565b5f808080806155e7565b615620949192336156cc565b61560a565b6001600160a01b0388161515965061548e565b615643600291610781565b500154801561564f5790565b5060085490565b61565f90610781565b505490565b9081602091031261059f5751610dc4816106ed565b6001600160a01b0391821681529116602082015260a060408201819052610dc494919391926156be92916156b09190860190611638565b908482036060860152611638565b916080818403910152610d8f565b9091949293853b6156e0575b505050505050565b60209361570291604051968795869563bc197c8160e01b875260048701615679565b03815f6001600160a01b0387165af15f9181615791575b506157535750615727613780565b805191908261574c57632bfa23e760e11b5f526001600160a01b03821660045260245ffd5b6020915001fd5b6001600160e01b0319166343e6837f60e01b0161577657505f80808080806156d8565b632bfa23e760e11b5f526001600160a01b031660045260245ffd5b6157b491925060203d6020116157bb575b6157ac81836112d6565b810190615664565b905f615719565b503d6157a2565b6001600160a01b039182168152911660208201526040810191909152606081019190915260a060808201819052610dc492910190610d8f565b9091949293853b61580e57505050505050565b60209361583091604051968795869563f23a6e6160e01b8752600487016157c2565b03815f6001600160a01b0387165af15f9181615878575b506158555750615727613780565b6001600160e01b031916630dc5919f60e01b0161577657505f80808080806156d8565b61589291925060203d6020116157bb576157ac81836112d6565b905f615847565b805480156158c0575f1901906158af8282610ed2565b8154905f199060031b1b1916905555565b634e487b7160e01b5f52603160045260245ffd5b6001600160a01b0381165f90815260146020526040812092905b83548082101561596957826159038387610ed2565b90549060031b1c1461591857506001016158ee565b615946929394916146e461593a6138ba61593461594195614052565b86610ed2565b9184610ed2565b615899565b61594f82610f69565b54146159585750565b614605815f61457561130694610f69565b5050909150615946565b909161598a610dc493604084526040840190611638565b916020818403910152611638565b9392918051835190818103615b255750505f5b8151811015615a7f578060051b90602080838501015192860101518460018060a01b038916615a1a575b6001936001600160a01b0382166159f0575b505050016159ab565b615a109161098d615a08925f525f60205260405f2090565b918254613291565b90555f84816159e7565b509091615a328861098d835f525f60205260405f2090565b54828110615a6057829160019493879203615a588b61098d845f525f60205260405f2090565b5593506159d5565b88611a0d83856040519485946303dee4c560e01b86526004860161500a565b508051939493919291600103615ae2576020908101519181015160408051938452918301526001600160a01b03928316939092169133917fc3d58168c5ae7397731d063d5bbf3d657854427343f4c083240f7aacaa2d0f6291819081015b0390a4565b6040516001600160a01b03938416949093169233927f4a39dc06d4c0dbc64b70af90fd698a233a518aa5d07e595d983b8c0526c8f7fb928291615add9183615973565b635b05999160e01b5f5260045260245260445ffdfea264697066735822122091a521fb662b44f44ca0d59b139d2e3bb5691ae4459638dfa92abd80251cc0fe64736f6c63430008210033",
  "linkReferences": {},
  "deployedLinkReferences": {},
  "immutableReferences": {
    "14114": [
      {
        "length": 32,
        "start": 11884
      }
    ]
  },
  "inputSourceName": "project/src/BeamioUserCard/BeamioUserCard.sol",
  "buildInfoId": "solc-0_8_33-39cb7d06e89750ce6dc1ee92451db5429192d000"
}