{
  "_format": "hh3-artifact-1",
  "contractName": "BeamioUserCardFactoryPaymasterV07",
  "sourceName": "src/BeamioUserCard/BeamioUserCardFactoryPaymasterV07.sol",
  "abi": [
    {
      "inputs": [
        {
          "internalType": "address",
          "name": "usdcToken_",
          "type": "address"
        },
        {
          "internalType": "address",
          "name": "redeemModule_",
          "type": "address"
        },
        {
          "internalType": "address",
          "name": "quoteHelper_",
          "type": "address"
        },
        {
          "internalType": "address",
          "name": "deployer_",
          "type": "address"
        },
        {
          "internalType": "address",
          "name": "aaFactory_",
          "type": "address"
        },
        {
          "internalType": "address",
          "name": "initialOwner",
          "type": "address"
        }
      ],
      "stateMutability": "nonpayable",
      "type": "constructor"
    },
    {
      "inputs": [],
      "name": "BM_CallFailed",
      "type": "error"
    },
    {
      "inputs": [],
      "name": "BM_DeployFailed",
      "type": "error"
    },
    {
      "inputs": [
        {
          "internalType": "uint8",
          "name": "step",
          "type": "uint8"
        }
      ],
      "name": "BM_DeployFailedAtStep",
      "type": "error"
    },
    {
      "inputs": [],
      "name": "BM_NotAuthorized",
      "type": "error"
    },
    {
      "inputs": [],
      "name": "BM_ZeroAddress",
      "type": "error"
    },
    {
      "inputs": [],
      "name": "ECDSAInvalidSignature",
      "type": "error"
    },
    {
      "inputs": [
        {
          "internalType": "uint256",
          "name": "length",
          "type": "uint256"
        }
      ],
      "name": "ECDSAInvalidSignatureLength",
      "type": "error"
    },
    {
      "inputs": [
        {
          "internalType": "bytes32",
          "name": "s",
          "type": "bytes32"
        }
      ],
      "name": "ECDSAInvalidSignatureS",
      "type": "error"
    },
    {
      "inputs": [],
      "name": "F_AlreadyRegistered",
      "type": "error"
    },
    {
      "inputs": [],
      "name": "F_BadDeployedCard",
      "type": "error"
    },
    {
      "inputs": [],
      "name": "F_InvalidRedeemHash",
      "type": "error"
    },
    {
      "inputs": [
        {
          "internalType": "address",
          "name": "admin",
          "type": "address"
        }
      ],
      "name": "UC_AdminDepthExceeded",
      "type": "error"
    },
    {
      "inputs": [],
      "name": "UC_AmountZero",
      "type": "error"
    },
    {
      "inputs": [],
      "name": "UC_FaucetNotEnabled",
      "type": "error"
    },
    {
      "inputs": [
        {
          "internalType": "address",
          "name": "recovered",
          "type": "address"
        },
        {
          "internalType": "address",
          "name": "expected",
          "type": "address"
        }
      ],
      "name": "UC_InvalidSignature",
      "type": "error"
    },
    {
      "inputs": [
        {
          "internalType": "uint256",
          "name": "nowTs",
          "type": "uint256"
        },
        {
          "internalType": "uint256",
          "name": "validAfter",
          "type": "uint256"
        },
        {
          "internalType": "uint256",
          "name": "validBefore",
          "type": "uint256"
        }
      ],
      "name": "UC_InvalidTimeWindow",
      "type": "error"
    },
    {
      "inputs": [
        {
          "internalType": "uint256",
          "name": "tokenId",
          "type": "uint256"
        }
      ],
      "name": "UC_IssuedNftInactive",
      "type": "error"
    },
    {
      "inputs": [],
      "name": "UC_NonceUsed",
      "type": "error"
    },
    {
      "inputs": [],
      "name": "UC_NotAdmin",
      "type": "error"
    },
    {
      "inputs": [],
      "name": "UC_PointsZero",
      "type": "error"
    },
    {
      "inputs": [],
      "name": "UC_PriceZero",
      "type": "error"
    },
    {
      "inputs": [],
      "name": "UC_PurchaseDisabledBecauseFree",
      "type": "error"
    },
    {
      "inputs": [],
      "name": "UC_Slippage",
      "type": "error"
    },
    {
      "inputs": [],
      "name": "UC_TierLenMismatch",
      "type": "error"
    },
    {
      "inputs": [],
      "name": "UC_TierMinZero",
      "type": "error"
    },
    {
      "anonymous": false,
      "inputs": [
        {
          "indexed": true,
          "internalType": "address",
          "name": "oldFactory",
          "type": "address"
        },
        {
          "indexed": true,
          "internalType": "address",
          "name": "newFactory",
          "type": "address"
        }
      ],
      "name": "AAFactoryChanged",
      "type": "event"
    },
    {
      "anonymous": false,
      "inputs": [
        {
          "indexed": true,
          "internalType": "address",
          "name": "card",
          "type": "address"
        },
        {
          "indexed": true,
          "internalType": "address",
          "name": "adminSigner",
          "type": "address"
        },
        {
          "indexed": false,
          "internalType": "bytes32",
          "name": "nonce",
          "type": "bytes32"
        }
      ],
      "name": "AdminExecuteExecuted",
      "type": "event"
    },
    {
      "anonymous": false,
      "inputs": [
        {
          "indexed": true,
          "internalType": "address",
          "name": "cardOwner",
          "type": "address"
        },
        {
          "indexed": true,
          "internalType": "address",
          "name": "card",
          "type": "address"
        },
        {
          "indexed": false,
          "internalType": "uint8",
          "name": "currency",
          "type": "uint8"
        },
        {
          "indexed": false,
          "internalType": "uint256",
          "name": "priceE18",
          "type": "uint256"
        }
      ],
      "name": "CardDeployed",
      "type": "event"
    },
    {
      "anonymous": false,
      "inputs": [
        {
          "indexed": true,
          "internalType": "address",
          "name": "cardOwner",
          "type": "address"
        },
        {
          "indexed": true,
          "internalType": "address",
          "name": "card",
          "type": "address"
        }
      ],
      "name": "CardRegistered",
      "type": "event"
    },
    {
      "anonymous": false,
      "inputs": [
        {
          "indexed": true,
          "internalType": "uint8",
          "name": "kind",
          "type": "uint8"
        },
        {
          "indexed": true,
          "internalType": "address",
          "name": "oldModule",
          "type": "address"
        },
        {
          "indexed": true,
          "internalType": "address",
          "name": "newModule",
          "type": "address"
        }
      ],
      "name": "DefaultModuleUpdated",
      "type": "event"
    },
    {
      "anonymous": false,
      "inputs": [
        {
          "indexed": false,
          "internalType": "uint256",
          "name": "initCodeLength",
          "type": "uint256"
        },
        {
          "indexed": false,
          "internalType": "bytes32",
          "name": "initCodeHash",
          "type": "bytes32"
        }
      ],
      "name": "DeployFailedCreateDebug",
      "type": "event"
    },
    {
      "anonymous": false,
      "inputs": [
        {
          "indexed": false,
          "internalType": "uint8",
          "name": "step",
          "type": "uint8"
        }
      ],
      "name": "DeployFailedStep",
      "type": "event"
    },
    {
      "anonymous": false,
      "inputs": [
        {
          "indexed": true,
          "internalType": "address",
          "name": "oldD",
          "type": "address"
        },
        {
          "indexed": true,
          "internalType": "address",
          "name": "newD",
          "type": "address"
        }
      ],
      "name": "DeployerChanged",
      "type": "event"
    },
    {
      "anonymous": false,
      "inputs": [
        {
          "indexed": true,
          "internalType": "address",
          "name": "card",
          "type": "address"
        },
        {
          "indexed": true,
          "internalType": "address",
          "name": "userEOA",
          "type": "address"
        },
        {
          "indexed": true,
          "internalType": "uint256",
          "name": "tokenId",
          "type": "uint256"
        },
        {
          "indexed": false,
          "internalType": "bytes32",
          "name": "nonce",
          "type": "bytes32"
        }
      ],
      "name": "IssuedNftClaimedWithUserSig",
      "type": "event"
    },
    {
      "anonymous": false,
      "inputs": [
        {
          "indexed": true,
          "internalType": "address",
          "name": "card",
          "type": "address"
        },
        {
          "indexed": true,
          "internalType": "address",
          "name": "userEOA",
          "type": "address"
        },
        {
          "indexed": true,
          "internalType": "address",
          "name": "cardOwner",
          "type": "address"
        },
        {
          "indexed": false,
          "internalType": "uint256",
          "name": "tokenId",
          "type": "uint256"
        },
        {
          "indexed": false,
          "internalType": "uint256",
          "name": "amount",
          "type": "uint256"
        },
        {
          "indexed": false,
          "internalType": "uint256",
          "name": "usdcAmount6",
          "type": "uint256"
        },
        {
          "indexed": false,
          "internalType": "bytes32",
          "name": "nonce",
          "type": "bytes32"
        }
      ],
      "name": "IssuedNftPurchasedForUser",
      "type": "event"
    },
    {
      "anonymous": false,
      "inputs": [
        {
          "indexed": false,
          "internalType": "string",
          "name": "oldURI",
          "type": "string"
        },
        {
          "indexed": false,
          "internalType": "string",
          "name": "newURI",
          "type": "string"
        }
      ],
      "name": "MetadataBaseURIUpdated",
      "type": "event"
    },
    {
      "anonymous": false,
      "inputs": [
        {
          "indexed": true,
          "internalType": "address",
          "name": "oldOwner",
          "type": "address"
        },
        {
          "indexed": true,
          "internalType": "address",
          "name": "newOwner",
          "type": "address"
        }
      ],
      "name": "OwnerChanged",
      "type": "event"
    },
    {
      "anonymous": false,
      "inputs": [
        {
          "indexed": true,
          "internalType": "address",
          "name": "account",
          "type": "address"
        },
        {
          "indexed": false,
          "internalType": "bool",
          "name": "allowed",
          "type": "bool"
        }
      ],
      "name": "PaymasterStatusChanged",
      "type": "event"
    },
    {
      "anonymous": false,
      "inputs": [
        {
          "indexed": true,
          "internalType": "address",
          "name": "card",
          "type": "address"
        },
        {
          "indexed": true,
          "internalType": "address",
          "name": "fromEOA",
          "type": "address"
        },
        {
          "indexed": true,
          "internalType": "address",
          "name": "cardOwner",
          "type": "address"
        },
        {
          "indexed": false,
          "internalType": "uint256",
          "name": "usdcAmount6",
          "type": "uint256"
        },
        {
          "indexed": false,
          "internalType": "uint256",
          "name": "pointsOut6",
          "type": "uint256"
        },
        {
          "indexed": false,
          "internalType": "bytes32",
          "name": "nonce",
          "type": "bytes32"
        }
      ],
      "name": "PointsPurchasedForUser",
      "type": "event"
    },
    {
      "anonymous": false,
      "inputs": [
        {
          "indexed": true,
          "internalType": "address",
          "name": "oldH",
          "type": "address"
        },
        {
          "indexed": true,
          "internalType": "address",
          "name": "newH",
          "type": "address"
        }
      ],
      "name": "QuoteHelperChanged",
      "type": "event"
    },
    {
      "anonymous": false,
      "inputs": [
        {
          "indexed": true,
          "internalType": "address",
          "name": "card",
          "type": "address"
        },
        {
          "indexed": true,
          "internalType": "address",
          "name": "user",
          "type": "address"
        },
        {
          "indexed": false,
          "internalType": "bytes32",
          "name": "redeemHash",
          "type": "bytes32"
        }
      ],
      "name": "RedeemExecuted",
      "type": "event"
    },
    {
      "anonymous": false,
      "inputs": [
        {
          "indexed": true,
          "internalType": "address",
          "name": "card",
          "type": "address"
        },
        {
          "indexed": true,
          "internalType": "uint256",
          "name": "id",
          "type": "uint256"
        },
        {
          "indexed": false,
          "internalType": "bool",
          "name": "isNft",
          "type": "bool"
        }
      ],
      "name": "TokenIdIssued",
      "type": "event"
    },
    {
      "inputs": [],
      "name": "CLAIM_ISSUED_NFT_TYPEHASH",
      "outputs": [
        {
          "internalType": "bytes32",
          "name": "",
          "type": "bytes32"
        }
      ],
      "stateMutability": "view",
      "type": "function"
    },
    {
      "inputs": [],
      "name": "CLEAR_ADMIN_MINT_COUNTER_TYPEHASH",
      "outputs": [
        {
          "internalType": "bytes32",
          "name": "",
          "type": "bytes32"
        }
      ],
      "stateMutability": "view",
      "type": "function"
    },
    {
      "inputs": [],
      "name": "DOMAIN_SEPARATOR",
      "outputs": [
        {
          "internalType": "bytes32",
          "name": "",
          "type": "bytes32"
        }
      ],
      "stateMutability": "view",
      "type": "function"
    },
    {
      "inputs": [],
      "name": "EXECUTE_FOR_ADMIN_TYPEHASH",
      "outputs": [
        {
          "internalType": "bytes32",
          "name": "",
          "type": "bytes32"
        }
      ],
      "stateMutability": "view",
      "type": "function"
    },
    {
      "inputs": [],
      "name": "EXECUTE_FOR_OWNER_TYPEHASH",
      "outputs": [
        {
          "internalType": "bytes32",
          "name": "",
          "type": "bytes32"
        }
      ],
      "stateMutability": "view",
      "type": "function"
    },
    {
      "inputs": [],
      "name": "USDC",
      "outputs": [
        {
          "internalType": "address",
          "name": "",
          "type": "address"
        }
      ],
      "stateMutability": "view",
      "type": "function"
    },
    {
      "inputs": [],
      "name": "USDC_TOKEN",
      "outputs": [
        {
          "internalType": "address",
          "name": "",
          "type": "address"
        }
      ],
      "stateMutability": "view",
      "type": "function"
    },
    {
      "inputs": [],
      "name": "_aaFactory",
      "outputs": [
        {
          "internalType": "address",
          "name": "",
          "type": "address"
        }
      ],
      "stateMutability": "view",
      "type": "function"
    },
    {
      "inputs": [],
      "name": "aaFactory",
      "outputs": [
        {
          "internalType": "address",
          "name": "",
          "type": "address"
        }
      ],
      "stateMutability": "view",
      "type": "function"
    },
    {
      "inputs": [
        {
          "internalType": "address",
          "name": "cardAddr",
          "type": "address"
        },
        {
          "internalType": "uint256",
          "name": "minUsdc6",
          "type": "uint256"
        },
        {
          "internalType": "uint256",
          "name": "attr",
          "type": "uint256"
        },
        {
          "internalType": "uint256",
          "name": "tierExpirySeconds",
          "type": "uint256"
        }
      ],
      "name": "appendTierForCard",
      "outputs": [],
      "stateMutability": "nonpayable",
      "type": "function"
    },
    {
      "inputs": [
        {
          "internalType": "address",
          "name": "cardAddr",
          "type": "address"
        },
        {
          "internalType": "uint256",
          "name": "minUsdc6",
          "type": "uint256"
        },
        {
          "internalType": "uint256",
          "name": "attr",
          "type": "uint256"
        },
        {
          "internalType": "uint256",
          "name": "tierExpirySeconds",
          "type": "uint256"
        },
        {
          "internalType": "uint256",
          "name": "deadline",
          "type": "uint256"
        },
        {
          "internalType": "bytes32",
          "name": "nonce",
          "type": "bytes32"
        },
        {
          "internalType": "bytes",
          "name": "ownerSignature",
          "type": "bytes"
        }
      ],
      "name": "appendTierForCardWithOwnerSignature",
      "outputs": [],
      "stateMutability": "nonpayable",
      "type": "function"
    },
    {
      "inputs": [
        {
          "internalType": "address",
          "name": "",
          "type": "address"
        }
      ],
      "name": "beamioUserCardOwner",
      "outputs": [
        {
          "internalType": "address",
          "name": "",
          "type": "address"
        }
      ],
      "stateMutability": "view",
      "type": "function"
    },
    {
      "inputs": [
        {
          "internalType": "address",
          "name": "cardAddr",
          "type": "address"
        },
        {
          "internalType": "address",
          "name": "fromEOA",
          "type": "address"
        },
        {
          "internalType": "uint256",
          "name": "usdcAmount6",
          "type": "uint256"
        },
        {
          "internalType": "uint256",
          "name": "validAfter",
          "type": "uint256"
        },
        {
          "internalType": "uint256",
          "name": "validBefore",
          "type": "uint256"
        },
        {
          "internalType": "bytes32",
          "name": "nonce",
          "type": "bytes32"
        },
        {
          "internalType": "bytes",
          "name": "signature",
          "type": "bytes"
        },
        {
          "internalType": "uint256",
          "name": "minPointsOut6",
          "type": "uint256"
        }
      ],
      "name": "buyPointsForUser",
      "outputs": [
        {
          "internalType": "uint256",
          "name": "pointsOut6",
          "type": "uint256"
        }
      ],
      "stateMutability": "nonpayable",
      "type": "function"
    },
    {
      "inputs": [
        {
          "internalType": "address",
          "name": "cardAddr",
          "type": "address"
        },
        {
          "internalType": "address",
          "name": "fromEOA",
          "type": "address"
        },
        {
          "internalType": "uint256",
          "name": "usdcAmount6",
          "type": "uint256"
        },
        {
          "internalType": "uint256",
          "name": "validAfter",
          "type": "uint256"
        },
        {
          "internalType": "uint256",
          "name": "validBefore",
          "type": "uint256"
        },
        {
          "internalType": "bytes32",
          "name": "nonce",
          "type": "bytes32"
        },
        {
          "internalType": "bytes",
          "name": "signature",
          "type": "bytes"
        },
        {
          "internalType": "uint256",
          "name": "minPointsOut6",
          "type": "uint256"
        },
        {
          "internalType": "address",
          "name": "recommender",
          "type": "address"
        }
      ],
      "name": "buyPointsForUser",
      "outputs": [
        {
          "internalType": "uint256",
          "name": "pointsOut6",
          "type": "uint256"
        }
      ],
      "stateMutability": "nonpayable",
      "type": "function"
    },
    {
      "inputs": [
        {
          "internalType": "address",
          "name": "cardOwner",
          "type": "address"
        }
      ],
      "name": "cardsOfOwner",
      "outputs": [
        {
          "internalType": "address[]",
          "name": "",
          "type": "address[]"
        }
      ],
      "stateMutability": "view",
      "type": "function"
    },
    {
      "inputs": [
        {
          "internalType": "address",
          "name": "a",
          "type": "address"
        },
        {
          "internalType": "bool",
          "name": "ok",
          "type": "bool"
        }
      ],
      "name": "changePaymasterStatus",
      "outputs": [],
      "stateMutability": "nonpayable",
      "type": "function"
    },
    {
      "inputs": [
        {
          "internalType": "address",
          "name": "cardAddr",
          "type": "address"
        },
        {
          "internalType": "address",
          "name": "userEOA",
          "type": "address"
        },
        {
          "internalType": "uint256",
          "name": "tokenId",
          "type": "uint256"
        },
        {
          "internalType": "uint256",
          "name": "deadline",
          "type": "uint256"
        },
        {
          "internalType": "bytes32",
          "name": "nonce",
          "type": "bytes32"
        },
        {
          "internalType": "bytes",
          "name": "userSignature",
          "type": "bytes"
        }
      ],
      "name": "claimIssuedNftWithUserSig",
      "outputs": [],
      "stateMutability": "nonpayable",
      "type": "function"
    },
    {
      "inputs": [
        {
          "internalType": "address",
          "name": "cardOwner",
          "type": "address"
        },
        {
          "internalType": "uint8",
          "name": "currency",
          "type": "uint8"
        },
        {
          "internalType": "uint256",
          "name": "priceInCurrencyE6",
          "type": "uint256"
        },
        {
          "internalType": "bytes",
          "name": "initCode",
          "type": "bytes"
        }
      ],
      "name": "createCardCollectionWithInitCode",
      "outputs": [
        {
          "internalType": "address",
          "name": "card",
          "type": "address"
        }
      ],
      "stateMutability": "nonpayable",
      "type": "function"
    },
    {
      "inputs": [
        {
          "internalType": "address",
          "name": "cardOwner",
          "type": "address"
        },
        {
          "internalType": "uint8",
          "name": "currency",
          "type": "uint8"
        },
        {
          "internalType": "uint256",
          "name": "priceInCurrencyE6",
          "type": "uint256"
        },
        {
          "internalType": "bytes",
          "name": "initCode",
          "type": "bytes"
        },
        {
          "components": [
            {
              "internalType": "uint256",
              "name": "minUsdc6",
              "type": "uint256"
            },
            {
              "internalType": "uint256",
              "name": "attr",
              "type": "uint256"
            },
            {
              "internalType": "uint256",
              "name": "tierExpirySeconds",
              "type": "uint256"
            }
          ],
          "internalType": "struct Tier[]",
          "name": "tiers",
          "type": "tuple[]"
        }
      ],
      "name": "createCardCollectionWithInitCodeAndTiers",
      "outputs": [
        {
          "internalType": "address",
          "name": "card",
          "type": "address"
        }
      ],
      "stateMutability": "nonpayable",
      "type": "function"
    },
    {
      "inputs": [],
      "name": "defaultAdminStatsQueryModule",
      "outputs": [
        {
          "internalType": "address",
          "name": "",
          "type": "address"
        }
      ],
      "stateMutability": "view",
      "type": "function"
    },
    {
      "inputs": [],
      "name": "defaultChargeRewardModule",
      "outputs": [
        {
          "internalType": "address",
          "name": "",
          "type": "address"
        }
      ],
      "stateMutability": "view",
      "type": "function"
    },
    {
      "inputs": [],
      "name": "defaultFaucetModule",
      "outputs": [
        {
          "internalType": "address",
          "name": "",
          "type": "address"
        }
      ],
      "stateMutability": "view",
      "type": "function"
    },
    {
      "inputs": [],
      "name": "defaultGovernanceModule",
      "outputs": [
        {
          "internalType": "address",
          "name": "",
          "type": "address"
        }
      ],
      "stateMutability": "view",
      "type": "function"
    },
    {
      "inputs": [],
      "name": "defaultIssuedNftModule",
      "outputs": [
        {
          "internalType": "address",
          "name": "",
          "type": "address"
        }
      ],
      "stateMutability": "view",
      "type": "function"
    },
    {
      "inputs": [],
      "name": "defaultMembershipStatsModule",
      "outputs": [
        {
          "internalType": "address",
          "name": "",
          "type": "address"
        }
      ],
      "stateMutability": "view",
      "type": "function"
    },
    {
      "inputs": [
        {
          "internalType": "uint8",
          "name": "kind",
          "type": "uint8"
        }
      ],
      "name": "defaultModule",
      "outputs": [
        {
          "internalType": "address",
          "name": "",
          "type": "address"
        }
      ],
      "stateMutability": "view",
      "type": "function"
    },
    {
      "inputs": [],
      "name": "defaultRedeemModule",
      "outputs": [
        {
          "internalType": "address",
          "name": "",
          "type": "address"
        }
      ],
      "stateMutability": "view",
      "type": "function"
    },
    {
      "inputs": [],
      "name": "deployer",
      "outputs": [
        {
          "internalType": "address",
          "name": "",
          "type": "address"
        }
      ],
      "stateMutability": "view",
      "type": "function"
    },
    {
      "inputs": [
        {
          "internalType": "address",
          "name": "cardAddr",
          "type": "address"
        },
        {
          "internalType": "address",
          "name": "subordinate",
          "type": "address"
        },
        {
          "internalType": "uint256",
          "name": "deadline",
          "type": "uint256"
        },
        {
          "internalType": "bytes32",
          "name": "nonce",
          "type": "bytes32"
        },
        {
          "internalType": "bytes",
          "name": "adminSignature",
          "type": "bytes"
        }
      ],
      "name": "executeClearAdminMintCounter",
      "outputs": [],
      "stateMutability": "nonpayable",
      "type": "function"
    },
    {
      "inputs": [
        {
          "internalType": "address",
          "name": "cardAddr",
          "type": "address"
        },
        {
          "internalType": "bytes",
          "name": "data",
          "type": "bytes"
        },
        {
          "internalType": "uint256",
          "name": "deadline",
          "type": "uint256"
        },
        {
          "internalType": "bytes32",
          "name": "nonce",
          "type": "bytes32"
        },
        {
          "internalType": "bytes",
          "name": "adminSignature",
          "type": "bytes"
        }
      ],
      "name": "executeForAdmin",
      "outputs": [],
      "stateMutability": "nonpayable",
      "type": "function"
    },
    {
      "inputs": [
        {
          "internalType": "address",
          "name": "cardAddr",
          "type": "address"
        },
        {
          "internalType": "bytes",
          "name": "data",
          "type": "bytes"
        },
        {
          "internalType": "uint256",
          "name": "deadline",
          "type": "uint256"
        },
        {
          "internalType": "bytes32",
          "name": "nonce",
          "type": "bytes32"
        },
        {
          "internalType": "bytes",
          "name": "ownerSignature",
          "type": "bytes"
        }
      ],
      "name": "executeForOwner",
      "outputs": [],
      "stateMutability": "nonpayable",
      "type": "function"
    },
    {
      "inputs": [
        {
          "internalType": "address",
          "name": "card",
          "type": "address"
        }
      ],
      "name": "isBeamioUserCard",
      "outputs": [
        {
          "internalType": "bool",
          "name": "",
          "type": "bool"
        }
      ],
      "stateMutability": "view",
      "type": "function"
    },
    {
      "inputs": [
        {
          "internalType": "address",
          "name": "",
          "type": "address"
        },
        {
          "internalType": "address",
          "name": "",
          "type": "address"
        }
      ],
      "name": "isCardOfOwner",
      "outputs": [
        {
          "internalType": "bool",
          "name": "",
          "type": "bool"
        }
      ],
      "stateMutability": "view",
      "type": "function"
    },
    {
      "inputs": [
        {
          "internalType": "address",
          "name": "",
          "type": "address"
        }
      ],
      "name": "isPaymaster",
      "outputs": [
        {
          "internalType": "bool",
          "name": "",
          "type": "bool"
        }
      ],
      "stateMutability": "view",
      "type": "function"
    },
    {
      "inputs": [
        {
          "internalType": "address",
          "name": "card",
          "type": "address"
        },
        {
          "internalType": "uint256",
          "name": "id",
          "type": "uint256"
        }
      ],
      "name": "isTokenIdIssued",
      "outputs": [
        {
          "internalType": "bool",
          "name": "",
          "type": "bool"
        }
      ],
      "stateMutability": "view",
      "type": "function"
    },
    {
      "inputs": [
        {
          "internalType": "address",
          "name": "card",
          "type": "address"
        },
        {
          "internalType": "bool",
          "name": "isNft",
          "type": "bool"
        }
      ],
      "name": "issueTokenId",
      "outputs": [
        {
          "internalType": "uint256",
          "name": "id",
          "type": "uint256"
        }
      ],
      "stateMutability": "nonpayable",
      "type": "function"
    },
    {
      "inputs": [
        {
          "internalType": "address",
          "name": "cardOwner",
          "type": "address"
        }
      ],
      "name": "latestCardOfOwner",
      "outputs": [
        {
          "internalType": "address",
          "name": "",
          "type": "address"
        }
      ],
      "stateMutability": "view",
      "type": "function"
    },
    {
      "inputs": [],
      "name": "metadataBaseURI",
      "outputs": [
        {
          "internalType": "string",
          "name": "",
          "type": "string"
        }
      ],
      "stateMutability": "view",
      "type": "function"
    },
    {
      "inputs": [],
      "name": "nextFungibleId",
      "outputs": [
        {
          "internalType": "uint256",
          "name": "",
          "type": "uint256"
        }
      ],
      "stateMutability": "view",
      "type": "function"
    },
    {
      "inputs": [],
      "name": "nextNftId",
      "outputs": [
        {
          "internalType": "uint256",
          "name": "",
          "type": "uint256"
        }
      ],
      "stateMutability": "view",
      "type": "function"
    },
    {
      "inputs": [],
      "name": "owner",
      "outputs": [
        {
          "internalType": "address",
          "name": "",
          "type": "address"
        }
      ],
      "stateMutability": "view",
      "type": "function"
    },
    {
      "inputs": [
        {
          "internalType": "address",
          "name": "cardAddr",
          "type": "address"
        },
        {
          "internalType": "address",
          "name": "userEOA",
          "type": "address"
        },
        {
          "internalType": "uint256",
          "name": "id",
          "type": "uint256"
        },
        {
          "internalType": "uint256",
          "name": "amount6",
          "type": "uint256"
        },
        {
          "internalType": "uint256",
          "name": "validAfter",
          "type": "uint256"
        },
        {
          "internalType": "uint256",
          "name": "validBefore",
          "type": "uint256"
        },
        {
          "internalType": "bytes32",
          "name": "nonce",
          "type": "bytes32"
        },
        {
          "internalType": "bytes",
          "name": "signature",
          "type": "bytes"
        }
      ],
      "name": "purchaseFaucetForUser",
      "outputs": [],
      "stateMutability": "nonpayable",
      "type": "function"
    },
    {
      "inputs": [
        {
          "internalType": "address",
          "name": "cardAddr",
          "type": "address"
        },
        {
          "internalType": "address",
          "name": "userEOA",
          "type": "address"
        },
        {
          "internalType": "uint256",
          "name": "tokenId",
          "type": "uint256"
        },
        {
          "internalType": "uint256",
          "name": "amount",
          "type": "uint256"
        },
        {
          "internalType": "uint256",
          "name": "validAfter",
          "type": "uint256"
        },
        {
          "internalType": "uint256",
          "name": "validBefore",
          "type": "uint256"
        },
        {
          "internalType": "bytes32",
          "name": "nonce",
          "type": "bytes32"
        },
        {
          "internalType": "bytes",
          "name": "signature",
          "type": "bytes"
        }
      ],
      "name": "purchaseIssuedNftForUser",
      "outputs": [],
      "stateMutability": "nonpayable",
      "type": "function"
    },
    {
      "inputs": [
        {
          "internalType": "uint8",
          "name": "cur",
          "type": "uint8"
        },
        {
          "internalType": "uint256",
          "name": "amount6",
          "type": "uint256"
        }
      ],
      "name": "quoteCurrencyAmountInUSDC6",
      "outputs": [
        {
          "internalType": "uint256",
          "name": "",
          "type": "uint256"
        }
      ],
      "stateMutability": "view",
      "type": "function"
    },
    {
      "inputs": [],
      "name": "quoteHelper",
      "outputs": [
        {
          "internalType": "address",
          "name": "",
          "type": "address"
        }
      ],
      "stateMutability": "view",
      "type": "function"
    },
    {
      "inputs": [
        {
          "internalType": "address",
          "name": "card",
          "type": "address"
        }
      ],
      "name": "quoteUnitPointInUSDC6",
      "outputs": [
        {
          "internalType": "uint256",
          "name": "",
          "type": "uint256"
        }
      ],
      "stateMutability": "view",
      "type": "function"
    },
    {
      "inputs": [
        {
          "internalType": "address",
          "name": "cardAddr",
          "type": "address"
        },
        {
          "internalType": "string",
          "name": "code",
          "type": "string"
        },
        {
          "internalType": "address",
          "name": "to",
          "type": "address"
        }
      ],
      "name": "redeemAdminForUser",
      "outputs": [],
      "stateMutability": "nonpayable",
      "type": "function"
    },
    {
      "inputs": [
        {
          "internalType": "address",
          "name": "cardAddr",
          "type": "address"
        },
        {
          "internalType": "string[]",
          "name": "codes",
          "type": "string[]"
        },
        {
          "internalType": "address",
          "name": "userEOA",
          "type": "address"
        }
      ],
      "name": "redeemBatchForUser",
      "outputs": [],
      "stateMutability": "nonpayable",
      "type": "function"
    },
    {
      "inputs": [
        {
          "internalType": "address",
          "name": "cardAddr",
          "type": "address"
        },
        {
          "internalType": "string",
          "name": "code",
          "type": "string"
        },
        {
          "internalType": "address",
          "name": "userEOA",
          "type": "address"
        }
      ],
      "name": "redeemForUser",
      "outputs": [],
      "stateMutability": "nonpayable",
      "type": "function"
    },
    {
      "inputs": [
        {
          "internalType": "address",
          "name": "cardAddr",
          "type": "address"
        },
        {
          "internalType": "string",
          "name": "code",
          "type": "string"
        },
        {
          "internalType": "address",
          "name": "userEOA",
          "type": "address"
        }
      ],
      "name": "redeemPoolForUser",
      "outputs": [],
      "stateMutability": "nonpayable",
      "type": "function"
    },
    {
      "inputs": [
        {
          "internalType": "address",
          "name": "cardOwner",
          "type": "address"
        },
        {
          "internalType": "address",
          "name": "card",
          "type": "address"
        }
      ],
      "name": "registerExistingCard",
      "outputs": [],
      "stateMutability": "nonpayable",
      "type": "function"
    },
    {
      "inputs": [
        {
          "internalType": "address",
          "name": "f",
          "type": "address"
        }
      ],
      "name": "setAAFactory",
      "outputs": [],
      "stateMutability": "nonpayable",
      "type": "function"
    },
    {
      "inputs": [
        {
          "internalType": "address",
          "name": "m",
          "type": "address"
        }
      ],
      "name": "setAdminStatsQueryModule",
      "outputs": [],
      "stateMutability": "nonpayable",
      "type": "function"
    },
    {
      "inputs": [
        {
          "internalType": "address",
          "name": "m",
          "type": "address"
        }
      ],
      "name": "setChargeRewardModule",
      "outputs": [],
      "stateMutability": "nonpayable",
      "type": "function"
    },
    {
      "inputs": [
        {
          "internalType": "uint8",
          "name": "kind",
          "type": "uint8"
        },
        {
          "internalType": "address",
          "name": "module",
          "type": "address"
        }
      ],
      "name": "setDefaultModule",
      "outputs": [],
      "stateMutability": "nonpayable",
      "type": "function"
    },
    {
      "inputs": [
        {
          "internalType": "uint8[]",
          "name": "kinds",
          "type": "uint8[]"
        },
        {
          "internalType": "address[]",
          "name": "modules",
          "type": "address[]"
        }
      ],
      "name": "setDefaultModules",
      "outputs": [],
      "stateMutability": "nonpayable",
      "type": "function"
    },
    {
      "inputs": [
        {
          "internalType": "address",
          "name": "d",
          "type": "address"
        }
      ],
      "name": "setDeployer",
      "outputs": [],
      "stateMutability": "nonpayable",
      "type": "function"
    },
    {
      "inputs": [
        {
          "internalType": "address",
          "name": "m",
          "type": "address"
        }
      ],
      "name": "setFaucetModule",
      "outputs": [],
      "stateMutability": "nonpayable",
      "type": "function"
    },
    {
      "inputs": [
        {
          "internalType": "address",
          "name": "m",
          "type": "address"
        }
      ],
      "name": "setGovernanceModule",
      "outputs": [],
      "stateMutability": "nonpayable",
      "type": "function"
    },
    {
      "inputs": [
        {
          "internalType": "address",
          "name": "m",
          "type": "address"
        }
      ],
      "name": "setIssuedNftModule",
      "outputs": [],
      "stateMutability": "nonpayable",
      "type": "function"
    },
    {
      "inputs": [
        {
          "internalType": "address",
          "name": "m",
          "type": "address"
        }
      ],
      "name": "setMembershipStatsModule",
      "outputs": [],
      "stateMutability": "nonpayable",
      "type": "function"
    },
    {
      "inputs": [
        {
          "internalType": "string",
          "name": "newBaseURI",
          "type": "string"
        }
      ],
      "name": "setMetadataBaseURI",
      "outputs": [],
      "stateMutability": "nonpayable",
      "type": "function"
    },
    {
      "inputs": [
        {
          "internalType": "address",
          "name": "h",
          "type": "address"
        }
      ],
      "name": "setQuoteHelper",
      "outputs": [],
      "stateMutability": "nonpayable",
      "type": "function"
    },
    {
      "inputs": [
        {
          "internalType": "address",
          "name": "m",
          "type": "address"
        }
      ],
      "name": "setRedeemModule",
      "outputs": [],
      "stateMutability": "nonpayable",
      "type": "function"
    },
    {
      "inputs": [
        {
          "internalType": "address",
          "name": "",
          "type": "address"
        },
        {
          "internalType": "uint256",
          "name": "",
          "type": "uint256"
        }
      ],
      "name": "tokenIdIssued",
      "outputs": [
        {
          "internalType": "bool",
          "name": "",
          "type": "bool"
        }
      ],
      "stateMutability": "view",
      "type": "function"
    },
    {
      "inputs": [
        {
          "internalType": "address",
          "name": "newOwner",
          "type": "address"
        }
      ],
      "name": "transferOwner",
      "outputs": [],
      "stateMutability": "nonpayable",
      "type": "function"
    },
    {
      "inputs": [
        {
          "internalType": "bytes32",
          "name": "",
          "type": "bytes32"
        }
      ],
      "name": "usedAdminExecuteNonces",
      "outputs": [
        {
          "internalType": "bool",
          "name": "",
          "type": "bool"
        }
      ],
      "stateMutability": "view",
      "type": "function"
    },
    {
      "inputs": [
        {
          "internalType": "bytes32",
          "name": "",
          "type": "bytes32"
        }
      ],
      "name": "usedClearAdminMintCounterNonces",
      "outputs": [
        {
          "internalType": "bool",
          "name": "",
          "type": "bool"
        }
      ],
      "stateMutability": "view",
      "type": "function"
    },
    {
      "inputs": [
        {
          "internalType": "bytes32",
          "name": "",
          "type": "bytes32"
        }
      ],
      "name": "usedIssuedNftClaimSigNonces",
      "outputs": [
        {
          "internalType": "bool",
          "name": "",
          "type": "bool"
        }
      ],
      "stateMutability": "view",
      "type": "function"
    },
    {
      "inputs": [
        {
          "internalType": "bytes32",
          "name": "",
          "type": "bytes32"
        }
      ],
      "name": "usedOwnerExecuteNonces",
      "outputs": [
        {
          "internalType": "bool",
          "name": "",
          "type": "bool"
        }
      ],
      "stateMutability": "view",
      "type": "function"
    }
  ],
  "bytecode": "0x60c080604052346103975760c0816160ed803803809161001f828561039b565b83398101031261039757610032816103d2565b61003e602083016103d2565b61004a604084016103d2565b90610057606085016103d2565b9261007060a0610069608088016103d2565b96016103d2565b906001600160a01b038116158015610386575b8015610375575b8015610364575b8015610353575b8015610342575b610333576080525f80546001600160a01b03199081166001600160a01b0393841690811783558252600160208181526040808520805460ff19168417905560029091527fac33ff75c19e70fe83507db0d683fd3465c996598dc972688b7ace676c89077b8054841696861696871790557fe90b7bceb6e7df5418fb78d8ee546e97c83a08bbccc01a0644d599ccd2a7c2e080548416871790557f679795a0195a1b76cdebb7c51d74e058aee92919b8c3389af86ef24535e8a28c80548416871790557f88601476d11616a71c5be67555bd1dff4b1cbf21533d2669b768b61518cfe1c380548416871790557fee60d0579bcffd98e668647d59fec1ff86a7fb340ce572e844f234ae73a6918f805484168717905560059093527fb98b78633099fa36ed8b8680c4f8092689e1e04080eb9cbb077ca38a14d7e384805483169095179094556003805482169584169590951790945560048054851695831695909517909455600680549093169416939093179055600791909155606460085580519061022a908261039b565b601581527f4265616d696f5573657243617264466163746f72790000000000000000000000602090910152604080517fb77f4f874d464e6b89d928e63195f8e6a3efa6ad7d73e629a7033d854b4099b991610285908261039b565b600181526020810190603160f81b82525190206040519060208201927f8b73c3c69bb8fe3d512ecc4cf759cc79239f7b179b0ffacaa9a75d522b39400f8452604083015260608201524660808201523060a082015260a081526102e960c08261039b565b51902060a052604051615d0690816103e782396080518181816106af015281816118f201528181611ce801528181613be40152613ede015260a051818181610d680152610fd20152f35b63a9b8048960e01b5f5260045ffd5b506001600160a01b0382161561009f565b506001600160a01b03861615610098565b506001600160a01b03851615610091565b506001600160a01b0384161561008a565b506001600160a01b03831615610083565b5f80fd5b601f909101601f19168101906001600160401b038211908210176103be57604052565b634e487b7160e01b5f52604160045260245ffd5b51906001600160a01b03821682036103975756fe60806040526004361015610011575f80fd5b5f3560e01c80630562f3e714610465578063058c71e6146104605780630895a860146103bb5780630c3c5d001461045b5780630e1398b9146104565780630e8325131461032f57806310fc2ec3146104515780631d4d9cf71461044c5780632590b4f61461044757806331a04f1d146104425780633644e5151461043d5780633650ec851461043857806337f71dfd1461043357806339a8886d1461042e5780633cc29bb3146104295780633d8807f814610424578063409826d31461041f57806349c20cf21461041a5780634a058fce146104155780634f11ef12146104105780634fb2e45d1461040b57806356bceaf6146104065780635aba048614610401578063649e906c146103fc5780636eb30f65146103f757806371326e55146103f25780637264becd146103ed5780637b422f39146103e8578063803efb8a146103e357806389a30271146103395780638d0c5786146103de5780638da5cb5b146103d957806393f1da4f146103d457806396214735146103cf5780639688856f146103ca57806396964e0b146103c55780639858d824146103c057806398e1e944146103bb5780639a7eb0f0146103b65780639c0efbda146103b15780639f3d1a2a146103ac578063a2d5b9c8146103a7578063a3d64fc3146103a2578063a901e5561461039d578063ac68fc0014610398578063b2592cf714610393578063b8f216591461038e578063bdce71aa14610389578063c1cfc34a14610384578063c374a7a91461037f578063c60cfbd21461037a578063cc7dcbe814610375578063ce85715d14610370578063ce9fb0241461036b578063d5f3948814610366578063d68a7bf714610361578063dcc96a341461035c578063dd16dfdc14610357578063deaefff214610352578063e83492d11461034d578063e8e3511314610348578063ef75909514610343578063f0e7642a1461033e578063fa56927414610339578063fa957c2e14610334578063fb3894d31461032f578063fb94bd8a1461032a578063fc8cbfec14610325578063fd722edb146103205763ff3915671461031b575f80fd5b61333f565b613310565b6132e1565b61317f565b610a68565b613101565b611cd3565b6130c5565b61303d565b612fc9565b612ccb565b612c4c565b612bcc565b612b4c565b6129c9565b612972565b6126e2565b6126ba565b612503565b612482565b6123f9565b6123a1565b612303565b6122dc565b612261565b612224565b61213f565b612047565b611ff5565b611fc6565b611f53565b611ea9565b610932565b611e69565b611e30565b611e09565b611d8a565b611d6d565b611d46565b611d17565b611c90565b611afa565b61177c565b6116fc565b6116d5565b611697565b611617565b6115db565b611564565b61146c565b611430565b6113f4565b6113af565b611325565b6112c6565b61115f565b61101c565b610ff5565b610fbb565b610f8c565b610c2f565b610ade565b610a9b565b6109e9565b6109ae565b61089d565b610516565b6001600160a01b031690565b6001600160a01b0381160361048757565b5f80fd5b9181601f84011215610487578235916001600160401b038311610487576020838186019501011161048757565b90610100600319830112610487576004356104d281610476565b916024356104df81610476565b9160443591606435916084359160a4359160c4359160e435906001600160401b038211610487576105129160040161048b565b9091565b3461048757610524366104b8565b929060018060a09a97989a1b035f541633148015610887575b1561084f576001600160a01b03881615610800576001600160a01b03861695861590811561087d575b5061080057604051635378561960e01b81526020816004818a5afa908115610767575f9161085e575b50306001600160a01b039091160361084f57861561084057604051638da5cb5b60e01b8152906020826004818a5afa918215610767575f9261080f575b506001600160a01b03821615610800576040516327d23eb360e21b8152600481018b905293610100856024818b5afa948515610767575f956107cf575b5061061e61061a6080870151151590565b1590565b6107c05760e0850180516001600160801b0316156107b1576106999561067e60a061067561066c8e61066761065b6020985160018060801b031690565b6001600160801b031690565b613574565b620f4240900490565b92015160ff1690565b60405163145ab73960e31b81529788928392600484016135b4565b0381305afa948515610767575f95610780575b507f00000000000000000000000000000000000000000000000000000000000000006001600160a01b031693843b15610487575f9687938c93610706936040519b8c9a8b998a9863cf09299560e01b8a5260048a016135e9565b03925af180156107675761076c575b50803b1561048757610741935f809460405196879586948593636465c3a760e01b85526004850161362e565b03925af180156107675761075157005b8061075f5f61076593613426565b80610980565b005b61345e565b8061075f5f61077a93613426565b5f610715565b6107a391955060203d6020116107aa575b61079b8183613426565b8101906135a5565b935f6106ac565b503d610791565b63225426e360e01b5f5260045ffd5b63ab6138a560e01b5f5260045ffd5b6107f29195506101003d81116107f9575b6107ea8183613426565b8101906134a9565b935f610609565b503d6107e0565b63a9b8048960e01b5f5260045ffd5b61083291925060203d602011610839575b61082a8183613426565b810190613449565b905f6105cc565b503d610820565b63201165f360e21b5f5260045ffd5b630fc5e1ab60e41b5f5260045ffd5b610877915060203d6020116108395761082a8183613426565b5f61058f565b90503b155f610566565b50335f52600160205260ff60405f20541661053d565b34610487576020366003190112610487576004356108ba81610476565b5f546001600160a01b0316330361084f576001600160a01b0381169081156108005760045f5260026020525f516020615b7a5f395f51905f5280546001600160a01b0316916109089161364c565b60045f516020615c5a5f395f51905f525f80a4005b9060018060a01b03165f5260205260405f2090565b346104875760403660031901126104875760043561094f81610476565b6024359060018060a01b03165f52600960205260405f20905f52602052602060ff60405f2054166040519015158152f35b5f91031261048757565b6001600160a01b0316600452602490565b6001600160a01b03909116815260200190565b34610487575f366003190112610487575f8052600260209081525f516020615bda5f395f51905f52546040516001600160a01b039091168152f35b3461048757602036600319011261048757600435610a0681610476565b5f546001600160a01b0316330361084f576001600160a01b0316801561080057600354816001600160a01b0382167feb7103e1b7fa12591abe0ba2fb5df1720e3786a45a1684846043c1b7dcfcb9c75f80a36001600160a01b03191617600355005b34610487575f366003190112610487576006546040516001600160a01b039091168152602090f35b60ff81160361048757565b3461048757604036600319011261048757600435610ab881610a90565b602435610ac481610476565b5f546001600160a01b0316330361084f5761076591614182565b3461048757602036600319011261048757600435610afb81610476565b60018060a01b0316610b19610b14610b1460035461046a565b61046a565b60405163e5a6b10f60e01b815290602082600481865afa918215610767575f92610bfc575b5060208293610b4e600494613697565b604051634dda221560e01b815293849182905afa90811561076757610b94936020935f93610bdd575b5060405180958194829363577e933760e11b8452600484016135b4565b03915afa801561076757610bba915f91610bbe575b506040519081529081906020820190565b0390f35b610bd7915060203d6020116107aa5761079b8183613426565b5f610ba9565b610bf5919350843d86116107aa5761079b8183613426565b915f610b77565b60049250610c21602091823d8411610c28575b610c198183613426565b81019061366b565b9250610b3e565b503d610c0f565b346104875760a036600319011261048757600435610c4c81610476565b602435610c5881610476565b60443591606435906084356001600160401b03811161048757610c7f90369060040161048b565b5f546001600160a01b031633148015610f76575b1561084f576001600160a01b0383169586158015610f6d575b610800576001600160a01b0386161561080057804211610f5957604051635378561960e01b81526020816004818b5afa908115610767575f91610f3a575b50306001600160a01b039091160361084f57604080515f516020615b1a5f395f51905f52602082019081526001600160a01b03808816938301939093529188166060820152608081019290925260a08201869052610db293610dac929091610da491610d638160c081015b03601f198101835282613426565b5190207f00000000000000000000000000000000000000000000000000000000000000006042916040519161190160f01b8352600283015260228201522090565b9236916136d0565b906141cc565b916040516249dd0960e81b815260208180610dd0886004830161099b565b0381895afa908115610767575f91610f1b575b506001600160a01b03168015610f0c576001600160a01b03841603610f0c576040516249dd0960e81b815260208180610e1f876004830161099b565b0381895afa908115610767575f91610eed575b506001600160a01b0316610ed757610e59610d559160405192839187602084019687613706565b519020610e78610e71825f52601060205260405f2090565b5460ff1690565b610ec857610e91610e9e915f52601060205260405f2090565b805460ff19166001179055565b823b1561048757610741925f9283604051809681958294632aff2a5960e01b84526004840161373f565b637b7fc77160e01b5f5260045ffd5b636a57bcd560e11b5f52610eea8361098a565b5ffd5b610f06915060203d6020116108395761082a8183613426565b5f610e32565b6363bc5ecb60e11b5f5260045ffd5b610f34915060203d6020116108395761082a8183613426565b5f610de3565b610f53915060203d6020116108395761082a8183613426565b5f610cea565b631f1183ed60e31b5f52610eea90426136a6565b50833b15610cac565b50335f52600160205260ff60405f205416610c93565b34610487576020366003190112610487576004355f52600d602052602060ff60405f2054166040519015158152f35b34610487575f3660031901126104875760206040517f00000000000000000000000000000000000000000000000000000000000000008152f35b34610487575f3660031901126104875760206040515f516020615b1a5f395f51905f528152f35b346104875760803660031901126104875760043561103981610476565b602435604435916064359060018060a01b035f541633148015611100575b1561084f576001600160a01b0381169081159081156110f6575b5061080057604051635378561960e01b8152602081600481855afa908115610767575f916110d7575b50306001600160a01b039091160361084f57803b1561048757610741935f809460405196879586948593638abc9b2560e01b855260048501613759565b6110f0915060203d6020116108395761082a8183613426565b5f61109a565b90503b155f611071565b50335f52600160205260ff60405f205416611057565b9060606003198301126104875760043561112f81610476565b91602435906001600160401b0382116104875761114e9160040161048b565b909160443561115c81610476565b90565b346104875761116d36611116565b5f549293926001600160a01b0316331480156112b0575b1561084f576001600160a01b038116938415610800576001600160a01b0384169384159081156112a6575b5061080057604051635378561960e01b8152602081600481885afa908115610767575f91611287575b50306001600160a01b039091160361084f57821561127857833b15610487575f6112189260405180948192637cc37b3b60e11b835287866004850161376f565b038183885af1908115610767575f516020615cda5f395f51905f529361125f9361124993611264575b5036916136d0565b8051602091820120604051908152918291820190565b0390a3005b8061075f5f61127293613426565b5f611241565b63411581df60e11b5f5260045ffd5b6112a0915060203d6020116108395761082a8183613426565b5f6111d8565b90503b155f6111af565b50335f52600160205260ff60405f205416611184565b34610487575f366003190112610487576020600754604051908152f35b60206040818301928281528451809452019201905f5b8181106113065750505090565b82516001600160a01b03168452602093840193909201916001016112f9565b346104875760203660031901126104875760043561134281610476565b60018060a01b03165f52600a60205260405f206040519081602082549182815201915f5260205f20905f5b81811061139057610bba8561138481870382613426565b604051918291826112e3565b82546001600160a01b031684526020909301926001928301920161136d565b34610487576020366003190112610487576004356113cc81610476565b60018060a01b03165f52600c602052602060018060a01b0360405f2054161515604051908152f35b34610487575f3660031901126104875760045f52600260209081525f516020615b7a5f395f51905f52546040516001600160a01b039091168152f35b34610487575f3660031901126104875760035f52600260209081525f516020615b5a5f395f51905f52546040516001600160a01b039091168152f35b346104875761147a36611116565b5f549293926001600160a01b03163314801561154e575b1561084f576001600160a01b038116938415610800576001600160a01b038416938415908115611544575b5061080057604051635378561960e01b8152602081600481885afa908115610767575f91611525575b50306001600160a01b039091160361084f57821561127857833b15610487575f61121892604051809481926371b8982f60e01b835287866004850161376f565b61153e915060203d6020116108395761082a8183613426565b5f6114e5565b90503b155f6114bc565b50335f52600160205260ff60405f205416611491565b346104875760203660031901126104875760043561158181610476565b5f546001600160a01b038116913383900361084f576001600160a01b03169182156108005782907fb532073b38c83145e3e5135377a08bf9aab55bc0fd7c1179cd4fb995d2a5159c5f80a36001600160a01b031916175f55005b34610487575f3660031901126104875760025f81905260209081525f516020615c9a5f395f51905f52546040516001600160a01b039091168152f35b346104875760203660031901126104875760043561163481610476565b5f546001600160a01b0316330361084f576001600160a01b0381169081156108005760055f5260026020525f516020615bba5f395f51905f5280546001600160a01b0316916116829161364c565b60055f516020615c5a5f395f51905f525f80a4005b346104875760203660031901126104875760ff6004356116b681610a90565b165f526002602052602060018060a01b0360405f205416604051908152f35b34610487575f3660031901126104875760206040515f516020615c1a5f395f51905f528152f35b346104875760203660031901126104875760043561171981610476565b5f546001600160a01b0316330361084f576001600160a01b0381169081156108005760025f8190526020525f516020615c9a5f395f51905f5280546001600160a01b0316916117679161364c565b60025f516020615c5a5f395f51905f525f80a4005b346104875761178a366104b8565b9795929190969360018060a01b035f541633148015611ab4575b1561084f576001600160a01b038516978815610800576001600160a01b038816978815908115611aaa575b5061080057604051635378561960e01b81526020816004818c5afa908115610767575f91611a8b575b50306001600160a01b039091160361084f57861561084057604051638da5cb5b60e01b8152936020856004818c5afa948515610767575f95611a6a575b506001600160a01b0385169a8b1561080057604051633c703d4560e01b8152600481018890526020816024818e5afa908115610767575f91611a4b575b5080156107b157611883908a613574565b60405163e5a6b10f60e01b81529096906020816004818f5afa978815610767576118d6986020925f91611a2e575b506118bb81613697565b60405163145ab73960e31b8152998a928392600484016135b4565b0381305afa968715610767575f97611a0d575b508615610840577f00000000000000000000000000000000000000000000000000000000000000006001600160a01b031691823b15610487578961194b5f969287938a8c986040519b8c9a8b998a9863cf09299560e01b8a5260048a016135e9565b03925af18015610767576119f9575b50853b15610487575f83869561198460405198899384936311d794fb60e21b85526004850161362e565b0381838a5af1918215610767577f46153b28e9a3688aede6f2c4c60c8d2cd1e2181b36e413211bf9134a7b195996956119e0936119e5575b50604051948594859094939260609260808301968352602083015260408201520152565b0390a4005b8061075f5f6119f393613426565b5f6119bc565b8061075f5f611a0793613426565b5f61195a565b611a2791975060203d6020116107aa5761079b8183613426565b955f6118e9565b611a459150833d8511610c2857610c198183613426565b5f6118b1565b611a64915060203d6020116107aa5761079b8183613426565b5f611872565b611a8491955060203d6020116108395761082a8183613426565b935f611835565b611aa4915060203d6020116108395761082a8183613426565b5f6117f8565b90503b155f6117cf565b50335f52600160205260ff60405f2054166117a4565b9181601f84011215610487578235916001600160401b038311610487576020808501948460051b01011161048757565b3461048757606036600319011261048757600435611b1781610476565b6024356001600160401b03811161048757611b36903690600401611aca565b9160443590611b4482610476565b5f546001600160a01b031633148015611c7a575b1561084f576001600160a01b038216918215610800576001600160a01b038216918215908115611c70575b5061080057604051635378561960e01b8152602081600481865afa908115610767575f91611c51575b50306001600160a01b039091160361084f57841561127857813b15610487575f611bec916040518093819263523c822360e11b8352898960048501613798565b038183865af1801561076757611c3d575b505f5b848110611c0957005b8083835f516020615cda5f395f51905f52611c34611249611c2d6001978c8c61384d565b36916136d0565b0390a301611c00565b8061075f5f611c4b93613426565b5f611bfd565b611c6a915060203d6020116108395761082a8183613426565b5f611bac565b90503b155f611b83565b50335f52600160205260ff60405f205416611b58565b3461048757602036600319011261048757600435611cad81610476565b60018060a01b03165f52600c602052602060018060a01b0360405f205416604051908152f35b34610487575f366003190112610487576040517f00000000000000000000000000000000000000000000000000000000000000006001600160a01b03168152602090f35b34610487576020366003190112610487576004355f526010602052602060ff60405f2054166040519015158152f35b34610487575f366003190112610487575f546040516001600160a01b039091168152602090f35b34610487575f366003190112610487576020600854604051908152f35b3461048757602036600319011261048757600435611da781610476565b5f546001600160a01b0316330361084f576001600160a01b0316801561080057600454816001600160a01b0382167fb425bf30023a30c35ee17f3f416360da7ea96a46b589cfa6a14f39dc98a52bca5f80a36001600160a01b03191617600455005b34610487575f3660031901126104875760206040515f516020615b9a5f395f51905f528152f35b3461048757602036600319011261048757600435611e4d81610476565b5f546001600160a01b0316330361084f576107659060fe614182565b3461048757602036600319011261048757600435611e8681610476565b60018060a01b03165f526001602052602060ff60405f2054166040519015158152f35b346104875760a036600319011261048757600435611ec681610476565b60243590611ed382610a90565b6044356064356001600160401b03811161048757611ef590369060040161048b565b60843593916001600160401b0385116104875736602386011215610487576004850135936001600160401b03851161048757366024606087028801011161048757610bba966024611f47970194613893565b6040519182918261099b565b34610487575f3660031901126104875760fe5f52600260209081527fed5fe9c6675215d4498a95e1e7721b19f482a53305007bcccaf785ca157007bb546040516001600160a01b039091168152f35b805180835260209291819084018484015e5f828201840152601f01601f1916010190565b34610487575f36600319011261048757610bba611fe1613a05565b604051918291602083526020830190611fa2565b3461048757604036600319011261048757610b94602060043561201781610a90565b60035460405163145ab73960e31b81529384926001600160a01b03909216918391829160243590600484016135b4565b346104875761205536611116565b5f549293926001600160a01b031633148015612129575b1561084f576001600160a01b038116938415610800576001600160a01b03841693841590811561211f575b5061080057604051635378561960e01b8152602081600481885afa908115610767575f91612100575b50306001600160a01b039091160361084f57821561127857833b15610487575f6112189260405180948192631dd9be9160e21b835287866004850161376f565b612119915060203d6020116108395761082a8183613426565b5f6120c0565b90503b155f612097565b50335f52600160205260ff60405f20541661206c565b34610487576040366003190112610487576004356001600160401b0381116104875761216f903690600401611aca565b6024356001600160401b0381116104875761218e903690600401611aca565b5f549091906001600160a01b0316330361084f578183036121f0575f5b8381106121b457005b806121ea6121c56001938789613aa7565b356121cf81610a90565b6121da838787613aa7565b35906121e582610476565b614182565b016121ab565b6308ba5b6160e01b5f5260045ffd5b60409060031901126104875760043561221781610476565b9060243561115c81610476565b3461048757602060ff612255612239366121ff565b6001600160a01b039091165f908152600b85526040902061091d565b54166040519015158152f35b34610487576101003660031901126104875760043561227f81610476565b60243561228b81610476565b6064359160c435916044359060a4356084356001600160401b03861161048757610bba966122c06122cc97369060040161048b565b95909460e43597613ab7565b6040519081529081906020820190565b34610487575f3660031901126104875760206040515f516020615c3a5f395f51905f528152f35b34610487575f3660031901126104875760015f52600260209081525f516020615bfa5f395f51905f52546040516001600160a01b039091168152f35b9060a06003198301126104875760043561235881610476565b916024356001600160401b03811161048757816123779160040161048b565b909290916044359160643591608435906001600160401b038211610487576105129160040161048b565b34610487576123af3661233f565b9495909360018060a09594951b035f5416331480156123e3575b1561084f57610765966123dd9136916136d0565b90614d4f565b50335f52600160205260ff60405f2054166123c9565b346104875760203660031901126104875760043561241681610476565b6001600160a01b03165f818152600a6020526040902054908161244357505060405180610bba5f8261099b565b5f52600a60205260405f205f19820191821161247d57610bba9161246691613db9565b905460039190911b1c6001600160a01b0316611f47565b613546565b3461048757610120366003190112610487576004356124a081610476565b602435906124ad82610476565b60443590606435926124be60843590565b9360c4359360a4356001600160401b03861161048757610bba966124e96122cc97369060040161048b565b94909360e4359661010435986124fe8a610476565b613dce565b3461048757612511366121ff565b5f546001600160a01b0316331480156126a4575b1561084f576001600160a01b0382169081158015612693575b61080057612568610e71826125638660018060a01b03165f52600b60205260405f2090565b61091d565b61268457604051635378561960e01b81526001600160a01b0382169390602081600481885afa908115610767575f91612665575b50306001600160a01b039091160361263757604051638da5cb5b60e01b8152602081600481885afa80156107675784915f91612646575b506001600160a01b0316036126375761260c826125f3612611948461533a565b6001600160a01b03165f908152600c6020526040902090565b61364c565b7fc063fc300750e8c5649c6b3779f6c4b05e7b38b170ee5c4a4b222ede9a2880835f80a3005b633a307eb360e01b5f5260045ffd5b61265f915060203d6020116108395761082a8183613426565b5f6125d3565b61267e915060203d6020116108395761082a8183613426565b5f61259c565b63d62a8c9560e01b5f5260045ffd5b506001600160a01b0381161561253e565b50335f52600160205260ff60405f205416612525565b34610487575f366003190112610487576003546040516001600160a01b039091168152602090f35b346104875760c0366003190112610487576004356126ff81610476565b6024359061270c82610476565b604435916064359060843560a4356001600160401b0381116104875761273690369060040161048b565b94909360018060a01b035f54163314801561295c575b1561084f576001600160a01b038416958615610800576001600160a01b0383169586158015612953575b6108005782421161293f57604051635378561960e01b81526020816004818b5afa908115610767575f91612920575b50306001600160a01b039091160361084f5760405160208101906127ce81610d55898b866140aa565b519020906127e7610e71835f52600f60205260405f2090565b610ec857610da48a87610d636128569761280f610e91610dac985f52600f60205260405f2090565b610d5560405193849260208401968d889094939260809260a08301965f516020615c3a5f395f51905f52845260018060a01b03166020840152604083015260608201520152565b6001600160a01b03811686900361290b575061061a86612875926153b4565b6128f757823b15610487575f856128a1936040519485928392637515c33960e11b8452600484016140aa565b038183875af1908115610767577f02a5cfa0774140c79ecbc7453e40d4a62b6dd1c823c43d931cf55824748fee00926119e0926128e957506040519081529081906020820190565b8061075f5f610bd793613426565b63053c2ff560e01b5f52600485905260245ffd5b636cf57d9160e11b5f52610eea908490613728565b612939915060203d6020116108395761082a8183613426565b5f6127a5565b631f1183ed60e31b5f52610eea83426136a6565b50833b15612776565b50335f52600160205260ff60405f20541661274c565b34610487575f366003190112610487576004546040516001600160a01b039091168152602090f35b8015150361048757565b6040906003190112610487576004356129bc81610476565b9060243561115c8161299a565b34610487576129d7366129a4565b5f546001600160a01b031633148015612b36575b1561084f576001600160a01b0382169182158015612b2d575b61080057604051635378561960e01b8152602081600481875afa908115610767575f91612b0e575b50306001600160a01b039091160361084f57610bba927f4c1cbefbba6c448ac41213acf5c22774d44a2ba3b12119ff1f747a82cf887d8e612ac4612aa594805f14612ad757612ab2610e91600854612a8b612a86826140c5565b600855565b8098819860018060a01b03165f52600960205260405f2090565b905f5260205260405f2090565b60405190151581529081906020820190565b0390a36040519081529081906020820190565b612ab2610e91600754612af1612aec826140c5565b600755565b809881986001600160a01b03165f90815260096020526040902090565b612b27915060203d6020116108395761082a8183613426565b5f612a2c565b50803b15612a04565b50335f52600160205260ff60405f2054166129eb565b3461048757602036600319011261048757600435612b6981610476565b5f546001600160a01b0316330361084f576001600160a01b0381169081156108005760015f5260026020525f516020615bfa5f395f51905f5280546001600160a01b031691612bb79161364c565b60015f516020615c5a5f395f51905f525f80a4005b3461048757602036600319011261048757600435612be981610476565b5f546001600160a01b0316330361084f576001600160a01b0381169081156108005760035f5260026020525f516020615b5a5f395f51905f5280546001600160a01b031691612c379161364c565b60035f516020615c5a5f395f51905f525f80a4005b3461048757602036600319011261048757600435612c6981610476565b5f546001600160a01b0316330361084f576001600160a01b0316801561080057600654816001600160a01b0382167fb30a75ccd0bb0742ffc18720f7e4013b83d98b9d9236dc4532955541a1df3a655f80a36001600160a01b03191617600655005b3461048757612cd93661233f565b94919593929060018060a01b035f541633148015612fb3575b1561084f576001600160a01b0385169586158015612faa575b61080057600485106112785782421161293f57604051635378561960e01b81526020816004818b5afa908115610767575f91612f8b575b50306001600160a01b039091160361084f57610dac612dd292610da4888896610d638d610d55612d878c612d7f612d798e836140d3565b906140fe565b9c36916136d0565b60208151910120916040519485936020850197889094939260809260a08301965f516020615b9a5f395f51905f52845260018060a01b03166020840152604083015260608201520152565b93604051630935e01b60e21b815260208180612df1896004830161099b565b03818a5afa908115610767575f91612f5c575b5015610f0c576040516020810190612e2281610d558b8a8787613706565b519020612e3a610e71825f52600e60205260405f2090565b610ec8575f91612e56610e9184935f52600e60205260405f2090565b612e63878288888861557f565b9082602083519301915af1612e76614134565b9015612f4057506001600160e01b0319166343159ce560e01b14612ec0575b50506040519283526001600160a01b0316915f516020615b3a5f395f51905f5290806020810161125f565b81612ed692612ece926140e1565b810190614163565b919050823b15610487575f612f009260405180948192631018c34b60e01b835285600484016140aa565b038183875af1908115610767575f516020615b3a5f395f51905f529261125f92612f2c575b5091612e95565b8061075f5f612f3a93613426565b5f612f25565b80519081612f5757633655084960e01b5f5260045ffd5b602001fd5b612f7e915060203d602011612f84575b612f768183613426565b810190614072565b5f612e04565b503d612f6c565b612fa4915060203d6020116108395761082a8183613426565b5f612d42565b50853b15612d0b565b50335f52600160205260ff60405f205416612cf2565b3461048757612fd7366129a4565b5f549091906001600160a01b0316330361084f5760207f70f3008dcbe7ca1157c0809d9b79a5751736957d08f23274121a0903a38cfa999160018060a01b031692835f526001825260405f209015159060ff1981541660ff8316179055604051908152a2005b346104875760803660031901126104875760043561305a81610476565b6024359061306782610a90565b6044356064356001600160401b0381116104875761308990369060040161048b565b9160018060a01b035f5416331480156130af575b1561084f57610bba94611f479461421d565b50335f52600160205260ff60405f20541661309d565b34610487575f3660031901126104875760055f52600260209081525f516020615bba5f395f51905f52546040516001600160a01b039091168152f35b346104875760203660031901126104875760043561311e81610476565b5f546001600160a01b0316330361084f576001600160a01b038116908115610800575f805260026020525f516020615bda5f395f51905f5280546001600160a01b03169161316b9161364c565b5f5f516020615c5a5f395f51905f528180a4005b34610487576020366003190112610487576004356001600160401b038111610487576131af90369060040161048b565b5f549091906001600160a01b0316330361084f576131ce9136916136d0565b805115610800576131dd613a05565b815191906001600160401b0383116132dc57613203836131fe6005546139cd565b61593d565b6020601f841160011461326157835f516020615c7a5f395f51905f529461323e925f91613256575b508160011b915f199060031b1c19161790565b6005555b6132516040519283928361599c565b0390a1005b90508401515f61322b565b60055f52601f198416905f516020615afa5f395f51905f52915f5b8181106132c457509185915f516020615c7a5f395f51905f5296600194106132ac575b5050811b01600555613242565b8501515f1960f88460031b161c191690555f8061329f565b9192602060018192868901518155019401920161327c565b6133f6565b34610487576020366003190112610487576004355f52600f602052602060ff60405f2054166040519015158152f35b34610487576020366003190112610487576004355f52600e602052602060ff60405f2054166040519015158152f35b346104875760e03660031901126104875760043561335c81610476565b6024359060643560a43560843560443560c4356001600160401b0381116104875761338b90369060040161048b565b95909460018060a01b035f5416331480156133e0575b1561084f57610765976133cd6133db92604051958693638abc9b2560e01b602086015260248501613759565b03601f198101845283613426565b614d4f565b50335f52600160205260ff60405f2054166133a1565b634e487b7160e01b5f52604160045260245ffd5b61010081019081106001600160401b038211176132dc57604052565b601f909101601f19168101906001600160401b038211908210176132dc57604052565b90816020910312610487575161115c81610476565b6040513d5f823e3d90fd5b51906001600160401b038216820361048757565b51906001600160801b038216820361048757565b519061349c8261299a565b565b519061349c82610a90565b90816101009103126104875761353e60e0604051926134c78461340a565b6134d081613469565b84526134de60208201613469565b60208501526134ef6040820161347d565b60408501526135006060820161347d565b606085015261351160808201613491565b608085015261352260a0820161349e565b60a085015261353360c0820161349e565b60c08501520161347d565b60e082015290565b634e487b7160e01b5f52601160045260245ffd5b90620f4240820291808304620f4240149015171561247d57565b8181029291811591840414171561247d57565b8115613591570490565b634e487b7160e01b5f52601260045260245ffd5b90816020910312610487575190565b6020909392919360ff60408201951681520152565b908060209392818452848401375f828201840152601f01601f1916010190565b93909260e0959261115c99979460018060a01b0316865260018060a01b0316602086015260408501526060840152608083015260a08201528160c082015201916135c9565b604091949392606082019560018060a01b0316825260208201520152565b80546001600160a01b0319166001600160a01b03909216919091179055565b90816020910312610487575160098110156104875790565b634e487b7160e01b5f52602160045260245ffd5b600911156136a157565b613683565b6004525f602452604452606490565b6001600160401b0381116132dc57601f01601f191660200190565b9291926136dc826136b5565b916136ea6040519384613426565b829481845281830111610487578281602093845f960137010152565b6001600160a01b03918216815291166020820152604081019190915260600190565b6001600160a01b0390811660045216602452604490565b6001600160a01b0391821681529116602082015260400190565b6040919493926060820195825260208201520152565b91602091613788919594956040855260408501916135c9565b6001600160a01b03909416910152565b93929190816040860160408752526060850160608360051b87010192825f90601e19813603015b8383106137e25750505050505090602061349c9294019060018060a01b03169052565b909192939495605f198a8203018652863582811215610487578301602081019190356001600160401b0381116104875780360383136104875761382b60209283926001956135c9565b9801960194930191906137bf565b634e487b7160e01b5f52603260045260245ffd5b919081101561388e5760051b81013590601e19813603018212156104875701803591906001600160401b038311610487576020018236038113610487579190565b613839565b9392919095949560018060a01b035f541633148015613965575b1561084f576138bb9461421d565b916001600160a01b038316915f5b8181106138d7575050505090565b6138ea6138e582848661397b565b61398b565b908151156139565781516040602084015193015192863b15610487575f916139266040519586938493638abc9b2560e01b855260048501613759565b038183895af191821561076757600192613942575b50016138c9565b8061075f5f61395093613426565b5f61393b565b639033099360e01b5f5260045ffd5b50335f52600160205260ff60405f2054166138ad565b919081101561388e576060020190565b606081360312610487576040519060608201906001600160401b038211838310176132dc57604091825280358352602081013560208401520135604082015290565b90600182811c921680156139fb575b60208310146139e757565b634e487b7160e01b5f52602260045260245ffd5b91607f16916139dc565b604051905f8260055491613a18836139cd565b8083529260018116908115613a885750600114613a3c575b61349c92500383613426565b5060055f90815290915f516020615afa5f395f51905f525b818310613a6c57505090602061349c92820101613a30565b6020919350806001915483858901015201910190918492613a54565b6020925061349c94915060ff191682840152151560051b820101613a30565b919081101561388e5760051b0190565b969594939260018060a01b035f541633148015613d94575b1561084f575f546001600160a01b031633148015613d7e575b1561084f576001600160a01b038216968715610800576001600160a01b0389169687158015613d75575b61080057604051635378561960e01b81526020816004818c5afa908115610767575f91613d56575b50306001600160a01b039091160361084f57841561084057604051638da5cb5b60e01b8152956020876004818c5afa968715610767575f97613d35575b506001600160a01b0387169a8b15610800576020613ba99160405180938192631d4d9cf760e01b83526004830161099b565b0381305afa908115610767575f91613d16575b508015613d0757613bd590613bd08861355a565b613587565b9b8c15613cf8578c10613ce9577f00000000000000000000000000000000000000000000000000000000000000006001600160a01b031690813b15610487575f86613c3d82968a968d8d966040519b8c9a8b998a9863cf09299560e01b8a5260048a016135e9565b03925af1801561076757613cd5575b50843b1561048757875f91613c756040519586938493630ec3786b60e01b855260048501614087565b038183885af18015610767577f246821f0caf9ce5a9ae8fb3bd7097a6d47299d00676d0ec0b40b429694a8684d938893613cbb92613cc1575b5060405193849384613759565b0390a490565b8061075f5f613ccf93613426565b5f613cae565b8061075f5f613ce393613426565b5f613c4c565b63c02e577360e01b5f5260045ffd5b6313f3da3f60e21b5f5260045ffd5b6376024b7160e01b5f5260045ffd5b613d2f915060203d6020116107aa5761079b8183613426565b5f613bbc565b613d4f91975060203d6020116108395761082a8183613426565b955f613b77565b613d6f915060203d6020116108395761082a8183613426565b5f613b3a565b50893b15613b12565b50335f52600160205260ff60405f205416613ae8565b50335f52600160205260ff60405f205416613acf565b60031981019190821161247d57565b805482101561388e575f5260205f2001905f90565b97989390919260018060a01b035f54163314801561405c575b1561084f576001600160a01b038316978815610800576001600160a01b038a169788158015614053575b61080057604051635378561960e01b81526020816004818d5afa908115610767575f91614034575b50306001600160a01b039091160361084f57851561084057604051638da5cb5b60e01b8152936020856004818d5afa948515610767575f95614013575b506001600160a01b0385169b8c15610800576020613ea89160405180938192631d4d9cf760e01b83526004830161099b565b0381305afa908115610767575f91613ff4575b508015613d0757613ecf90613bd08961355a565b9c8d15613cf8578d10613ce9577f00000000000000000000000000000000000000000000000000000000000000006001600160a01b031690813b15610487575f87613f3782968b968e8b966040519b8c9a8b998a9863cf09299560e01b8a5260048a016135e9565b03925af1801561076757613fe0575b50926001600160a01b038116613f7f5750843b1561048757875f91613c756040519586938493630ec3786b60e01b855260048501614087565b604051630935e01b60e21b81529193509060208180613fa1856004830161099b565b0381895afa908115610767575f91613fc1575b5015610f0c57915f613c4c565b613fda915060203d602011612f8457612f768183613426565b5f613fb4565b8061075f5f613fee93613426565b5f613f46565b61400d915060203d6020116107aa5761079b8183613426565b5f613ebb565b61402d91955060203d6020116108395761082a8183613426565b935f613e76565b61404d915060203d6020116108395761082a8183613426565b5f613e39565b508a3b15613e11565b50335f52600160205260ff60405f205416613de7565b90816020910312610487575161115c8161299a565b6001600160a01b0391821681526020810192909252909116604082015260600190565b6001600160a01b039091168152602081019190915260400190565b5f19811461247d5760010190565b906004116104875790600490565b909291928360041161048757831161048757600401916003190190565b356001600160e01b0319811692919060048210614119575050565b6001600160e01b031960049290920360031b82901b16169150565b3d1561415e573d90614145826136b5565b916141536040519384613426565b82523d5f602084013e565b606090565b9190826040910312610487576020823561417c81610476565b92013590565b6001600160a01b038216919082156108005760ff165f81815260026020526040902080546001600160a01b0316926141b99161364c565b5f516020615c5a5f395f51905f525f80a4565b61115c916141d9916159c1565b90929192615a05565b91602061115c9381815201916135c9565b602061349c91939293846040519586928484013781015f838201520301601f198101845283613426565b9394936001600160a01b0381169290918315610800578615614587575f602061426d614250610b14610b1460045461046a565b8a6040519485809481936203ba1b60e51b83528d600484016141e2565b03925af1908115610767575f91614568575b50966001600160a01b038816958891908715801561455f575b6144e7575050604051635378561960e01b81526020816004818a5afa908115610767575f916144c8575b50306001600160a01b039091160361449a57604051638da5cb5b60e01b81526020816004818a5afa80156107675786915f9161447b575b506001600160a01b03160361444d5760405163e5a6b10f60e01b81526020816004818a5afa908115610767575f9161442e575b5061433681613697565b60ff80841691160361440057604051634dda221560e01b81526020816004818a5afa80156107675784915f916143e1575b50036143b4578361260c826125f36143a0947fb6ce9f4a6c24844ee121b78004db1a1773ef64e1d804b875dd31413a87560cc09861533a565b6143af604051928392836135b4565b0390a3565b604051600481525f516020615cba5f395f51905f5290602090a16355c7c7ff60e01b5f526004805260245ffd5b6143fa915060203d6020116107aa5761079b8183613426565b5f614367565b604051600381525f516020615cba5f395f51905f5290602090a16355c7c7ff60e01b5f52600360045260245ffd5b614447915060203d602011610c2857610c198183613426565b5f61432c565b604051600281525f516020615cba5f395f51905f5290602090a16355c7c7ff60e01b5f52600260045260245ffd5b614494915060203d6020116108395761082a8183613426565b5f6142f9565b604051600181525f516020615cba5f395f51905f5290602090a16355c7c7ff60e01b5f52600160045260245ffd5b6144e1915060203d6020116108395761082a8183613426565b5f6142c2565b90614536817ffa7e837357b85adf6c0b6025a56fd0847a7bf3cfa72b66ccc8afe138d0451f26935f516020615cba5f395f51905f526040518061452e81905f602083019252565b0390a16141f3565b8051602091820120604080519384529183015290a16355c7c7ff60e01b5f90815260045260245ffd5b50823b15614298565b614581915060203d6020116108395761082a8183613426565b5f61427f565b633448691b60e11b5f5260045ffd5b906145a0826136b5565b6145ad6040519182613426565b82815280926145be601f19916136b5565b0190602036910137565b906004820180921161247d57565b90815181101561388e570160200190565b6001600160401b0381116132dc5760051b60200190565b9080601f83011215610487578151614615816145e7565b926146236040519485613426565b81845260208085019260051b82010192831161048757602001905b82821061464b5750505090565b815181526020918201910161463e565b9080601f83011215610487578151614672816145e7565b926146806040519485613426565b81845260208085019260051b820101918383116104875760208201905b8382106146ac57505050505090565b81516001600160401b038111610487576020916146ce878480948801016145fe565b81520191019061469d565b9080601f83011215610487578151906146f1826145e7565b926146ff6040519485613426565b82845260208085019360051b82010191821161048757602001915b8183106147275750505090565b825163ffffffff811681036104875781526020928301920161471a565b519061349c82610476565b60e0818303126104875780519261476860208301613469565b9261477560408401613469565b60608401519093906001600160401b038111610487578261479791830161465b565b60808201519093906001600160401b03811161048757836147b991840161465b565b60a08301519093906001600160401b0381116104875760c0916147dd9185016146d9565b92015161115c81610476565b90602080835192838152019201905f5b8181106148065750505090565b82518452602093840193909201916001016147f9565b9080602083519182815201916020808360051b8301019401925f915b83831061484757505050505090565b9091929394602080614865600193601f1986820301875289516147e9565b97019301930191939290614838565b90602080835192838152019201905f5b8181106148915750505090565b825163ffffffff16845260209384019390920191600101614884565b9081526001600160401b0391821660208201529116604082015261010060608201819052949695909460e094919361490c936148fe926148f0919089019061481c565b90878203608089015261481c565b9085820360a0870152614874565b6001600160a01b0395861660c08501529416910152565b9160c0838303126104875782519261493d60208201613469565b9261494a60408301613469565b60608301519093906001600160401b038111610487578261496c91850161465b565b60808401519093906001600160401b038111610487578361498e91830161465b565b60a08201519093906001600160401b0381116104875761115c92016146d9565b9081526001600160401b0391821660208201529116604082015260e060608201819052949594909360c0936137889391926149fd926149ef9188019061481c565b90868203608088015261481c565b9084820360a0860152614874565b9190610100838203126104875782516001600160401b0381116104875781614a349185016145fe565b92602081015192604082015192614a4d60608401613469565b92614a5a60808201613469565b60a08201519093906001600160401b0381116104875783614a7c9184016145fe565b60c083015190936001600160401b03821161048757614aa260e09161115c9386016145fe565b9301614744565b9799989590946101009794614aff94614acf614b0d986101208d526101208d01906147e9565b60208c019590955260408b01526001600160401b0390811660608b015216608089015287820360a08901526147e9565b9085820360c08701526147e9565b6001600160a01b0395861660e08501529416910152565b9060e0828203126104875781516001600160401b0381116104875781614b4b9184016145fe565b92602083015192604081015192614b6460608301613469565b92614b7160808401613469565b60a08401519093906001600160401b0381116104875783614b939183016145fe565b60c08201519093906001600160401b0381116104875761115c92016145fe565b96939461378895614c0894614bd860e099949c9b9c6101008c526101008c01906147e9565b60208b019590955260408a01526001600160401b0390811660608a015216608088015286820360a08801526147e9565b9084820360c08601526147e9565b91906101008382031261048757825192602081015192604082015192614c3e60608401613469565b92614c4b60808201613469565b60a08201519093906001600160401b0381116104875783614c6d9184016145fe565b60c08301519093906001600160401b0381116104875760e0916147dd9185016145fe565b979998959193614aff936101009895614b0d97938b5260208b015260408a015260018060401b0316606089015260018060401b0316608088015261012060a08801526101208701906147e9565b9060e08282031261048757815192602083015192604081015192614b6460608301613469565b9693614c089360e0979361378897939b9a9b8a5260208a0152604089015260018060401b0316606088015260018060401b0316608087015261010060a08701526101008601906147e9565b9194919390926001600160a01b03851692909183158015615331575b610800578451156112785786421161531d57604051635378561960e01b8152602081600481885afa908115610767575f916152fe575b50306001600160a01b039091160361084f57602060049460405195868092638da5cb5b60e01b82525afa938415610767575f946152d3575b5090610dac614e3a92610da48888519a610d6360208b019c8d20610d558a6040519485936020850197889094939260809260a08301965f516020615c1a5f395f51905f52845260018060a01b03166020840152604083015260608201520152565b916001600160a01b03808216908416036152bf5750604051614e6581610d55602082019488866140aa565b519020614e7d610e71825f52600d60205260405f2090565b610ec857610e91614e96915f52600d60205260405f2090565b81938251906004821015614ec9575b50505050815f92918360208194519301915af1614ec0614134565b9015612f405750565b5192959194919260e01c6001600160e01b031916630569881360e41b8103614f9557505050614f00614efb8551613daa565b614596565b915f5b8351811015614f455780614f32614f24614f1e6001946145c8565b896145d6565b516001600160f81b03191690565b5f1a614f3e82876145d6565b5301614f03565b50909350610d55614f8a5f94614f65869560208082518301019101614cde565b936040999697959993919351998a986347b5881360e01b60208b015260248a01614d04565b905b9181935f614ea5565b63c0ab3ba360e01b810361503c57505050614fb3614efb8551613daa565b915f5b8351811015614fe45780614fd1614f24614f1e6001946145c8565b5f1a614fdd82876145d6565b5301614fb6565b509093505f92615036610d55615004869560208082518301019101614c16565b6040516361e3f2a560e11b60208201529a8b99986001600160a01b039092169790969295939493929160248b01614c91565b90614f8c565b631163081760e11b81036150d05750505061505a614efb8551613daa565b915f5b835181101561508b5780615078614f24614f1e6001946145c8565b5f1a61508482876145d6565b530161505d565b50909350610d556150365f946150ab869560208082518301019101614b24565b936040999697959993919351998a9863b04e83b760e01b60208b015260248a01614bb3565b63294ae08160e11b8103615171575050506150ee614efb8551613daa565b915f5b835181101561511f578061510c614f24614f1e6001946145c8565b5f1a61511882876145d6565b53016150f1565b509093505f92615036610d5561513f869560208082518301019101614a0b565b6040516301247ab760e61b60208201529a8b99986001600160a01b039092169790969295939493929160248b01614aa9565b6352b9ec2360e01b81036152055750505061518f614efb8551613daa565b915f5b83518110156151c057806151ad614f24614f1e6001946145c8565b5f1a6151b982876145d6565b5301615192565b50909350610d556150365f946151e0869560208082518301019101614923565b926040989596949892919251988997638568e38360e01b60208a0152602489016149ae565b92959194919263f249d30360e01b14615225575b5050505f918291614f8c565b615237919450614efb90959295613daa565b915f5b83518110156152685780615255614f24614f1e6001946145c8565b5f1a61526182876145d6565b530161523a565b509093505f926152b7610d5561528886956020808251830101910161474f565b6040516393e8419160e01b6020820152998a98976001600160a01b039092169690959294929160248a016148ad565b928192615219565b636cf57d9160e11b5f52610eea9083613728565b614e3a929194506152f5610dac9160203d6020116108395761082a8183613426565b94919250614dd9565b615317915060203d6020116108395761082a8183613426565b5f614da1565b631f1183ed60e31b5f52610eea87426136a6565b50853b15614d6b565b6001600160a01b03165f818152600b6020526040902061535b90839061091d565b805460ff191660011790555f908152600a602052604090208054600160401b8110156132dc5761539091600182018155613db9565b81546001600160a01b0393841660039290921b91821b9390911b1916919091179055565b5f9190829160405160208101916311b6aa6160e31b83526024820152602481526153df604482613426565b51915afa6153eb614134565b90158015615410575b61540b578060208061115c93518301019101614072565b505f90565b5060208151106153f4565b9080601f830112156104875781602061115c933591016136d0565b9060808282031261048757813561544c81610476565b92602083013561545b8161299a565b9260408101359260608201356001600160401b0381116104875761115c920161541b565b9390926137889260809497969760018060a01b0316865215156020860152604085015260a0606085015260a0840190611fa2565b919060a0838203126104875782356154ca81610476565b9260208101356154d98161299a565b9260408201359260608301356001600160401b0381116104875760809161417c91850161541b565b926155349260a0959298979698600180881b0316855215156020850152604084015260c0606084015260c0830190611fa2565b94600180841b031660808201520152565b9190826040910312610487576020823561555e81610476565b92013561115c81610476565b90816020910312610487573561115c81610476565b9193909290916001600160e01b03191690630b18ae1d60e11b82146158f25763d8bdbdf560e01b82146158a85763738abdef60e01b82146157a057632aff2a5960e01b821461566b5750638a1b32bb60e01b811461562e5763564da75760e01b146155f0575061115c9136916136d0565b615604612ece84610d559561115c956140e1565b604051632476bf5f60e11b602082015294859390929091906001600160a01b031660248501614087565b5091610b146156448261564c9361115c956140e1565b81019061556a565b610d556040519384926302841ba760e21b60208501526024840161373f565b9361567c91508061568493946140e1565b810190615545565b6001600160a01b039081169391811692919082168403610f0c576040516249dd0960e81b81526001600160a01b039190911690602081806156c8876004830161099b565b0381855afa80156107675785915f91615781575b506001600160a01b031603610f0c57602060405180926249dd0960e81b8252818061570a876004830161099b565b03915afa908115610767575f91615762575b506001600160a01b031661574f5750604051632aff2a5960e01b60208201529161115c918391610d55916024840161373f565b636a57bcd560e11b5f52610eea9061098a565b61577b915060203d6020116108395761082a8183613426565b5f61571c565b61579a915060203d6020116108395761082a8183613426565b5f6156dc565b92612ece915093806157b293956140e1565b6040516249dd0960e81b815290936001600160a01b039283169390921690602081806157e1876004830161099b565b0381855afa908115610767575f91615889575b506001600160a01b03838116911603610f0c57602060405180926249dd0960e81b82528180615826876004830161099b565b03915afa908115610767575f9161586a575b506001600160a01b031661574f5790610d5561115c92604051948593636f5d64cf60e11b602086015260248501614087565b615883915060203d6020116108395761082a8183613426565b5f615838565b6158a2915060203d6020116108395761082a8183613426565b5f6157f4565b50506158c66158be84610d559561115c956140e1565b8101906154b3565b60405163037fe8db60e51b6020820152978896909591949093916001600160a01b031660248801615501565b505061591061590884610d559561115c956140e1565b810190615436565b6040516303bbece160e21b602082015296879590949093919291906001600160a01b03166024870161547f565b90601f821161594a575050565b808211615955575050565b60055f5260205f206020601f830160051c9210615994575b81601f9101920160051c03905f5b82811061598757505050565b5f8282015560010161597b565b5f915061596d565b90916159b361115c93604084526040840190611fa2565b916020818403910152611fa2565b81519190604183036159f1576159ea9250602082015190606060408401519301515f1a90615a81565b9192909190565b50505f9160029190565b600411156136a157565b615a0e816159fb565b80615a17575050565b615a20816159fb565b60018103615a375763f645eedf60e01b5f5260045ffd5b615a40816159fb565b60028103615a5b575063fce698f760e01b5f5260045260245ffd5b80615a676003926159fb565b14615a6f5750565b6335e2f38360e21b5f5260045260245ffd5b91906fa2a8918ca85bafe22016d0b997e4df60600160ff1b038411615aee579160209360809260ff5f9560405194855216868401526040830152606082015282805260015afa15610767575f516001600160a01b03811615615ae457905f905f90565b505f906001905f90565b5050505f916003919056fe036b6384b5eca791c62761152d0c79bb0604c104a5fb6f4eb0703f3154bb3db037d334dabaf41e43aacc723ac58fb37530ae1cc7b9c266f832352d3b33d1d2e1c2d58ddd39bae8d891e64c790e06675be0c60c0c8abaaceac647c83798f19d7188601476d11616a71c5be67555bd1dff4b1cbf21533d2669b768b61518cfe1c3ee60d0579bcffd98e668647d59fec1ff86a7fb340ce572e844f234ae73a6918f8b5e44529430631511cdb2103b51a2b17522f3ccef30b4cecb8b600e589b2184b98b78633099fa36ed8b8680c4f8092689e1e04080eb9cbb077ca38a14d7e384ac33ff75c19e70fe83507db0d683fd3465c996598dc972688b7ace676c89077be90b7bceb6e7df5418fb78d8ee546e97c83a08bbccc01a0644d599ccd2a7c2e05d2010d98a8af54e10756d0f1f88c21936f3cee3282ba1a12e8b6ea9dc3cd00b463abe3f6cb651e419dc0721d255e765e90e8b7d6b0696d62ff4651fd8d4bc334f1512725bb8951a156203bb2c7133d48bffe176d32b44d125e6ebe0ce01e8e8944f9ca1b679ec8381ef5d5419085e9ea4df3b274eb009910b19bd295bd18fc3679795a0195a1b76cdebb7c51d74e058aee92919b8c3389af86ef24535e8a28c03b08423472f7ab3868687f6f058518938a70d81f39d56bbef07d72ad5207adc6fda4e9204adb930edd263bf167f0f95464e9f84006d5c89c84ed55f50528b33a164736f6c6343000821000a",
  "linkReferences": {},
  "deployedLinkReferences": {},
  "immutableReferences": {
    "25916": [
      {
        "length": 32,
        "start": 1711
      },
      {
        "length": 32,
        "start": 6386
      },
      {
        "length": 32,
        "start": 7400
      },
      {
        "length": 32,
        "start": 15332
      },
      {
        "length": 32,
        "start": 16094
      }
    ],
    "28562": [
      {
        "length": 32,
        "start": 3432
      },
      {
        "length": 32,
        "start": 4050
      }
    ]
  },
  "inputSourceName": "project/src/BeamioUserCard/BeamioUserCardFactoryPaymasterV07.sol",
  "buildInfoId": "solc-0_8_33-952ce3c6c8cf715b8d678bfce9b318ee3c4fd06d"
}