{
  "_format": "hh3-artifact-1",
  "contractName": "BeamioUserCard",
  "sourceName": "src/BeamioUserCard/BeamioUserCard.sol",
  "abi": [
    {
      "inputs": [
        {
          "internalType": "string",
          "name": "uri_",
          "type": "string"
        },
        {
          "internalType": "enum BeamioCurrency.CurrencyType",
          "name": "currency_",
          "type": "uint8"
        },
        {
          "internalType": "uint256",
          "name": "pointsUnitPriceInCurrencyE6_",
          "type": "uint256"
        },
        {
          "internalType": "address",
          "name": "initialOwner",
          "type": "address"
        },
        {
          "internalType": "address",
          "name": "gateway_",
          "type": "address"
        },
        {
          "internalType": "uint8",
          "name": "upgradeType_",
          "type": "uint8"
        },
        {
          "internalType": "bool",
          "name": "initialTransferWhitelistEnabled",
          "type": "bool"
        }
      ],
      "stateMutability": "nonpayable",
      "type": "constructor"
    },
    {
      "inputs": [],
      "name": "BM_NotAuthorized",
      "type": "error"
    },
    {
      "inputs": [],
      "name": "BM_ZeroAddress",
      "type": "error"
    },
    {
      "inputs": [
        {
          "internalType": "address",
          "name": "sender",
          "type": "address"
        },
        {
          "internalType": "uint256",
          "name": "balance",
          "type": "uint256"
        },
        {
          "internalType": "uint256",
          "name": "needed",
          "type": "uint256"
        },
        {
          "internalType": "uint256",
          "name": "tokenId",
          "type": "uint256"
        }
      ],
      "name": "ERC1155InsufficientBalance",
      "type": "error"
    },
    {
      "inputs": [
        {
          "internalType": "address",
          "name": "approver",
          "type": "address"
        }
      ],
      "name": "ERC1155InvalidApprover",
      "type": "error"
    },
    {
      "inputs": [
        {
          "internalType": "uint256",
          "name": "idsLength",
          "type": "uint256"
        },
        {
          "internalType": "uint256",
          "name": "valuesLength",
          "type": "uint256"
        }
      ],
      "name": "ERC1155InvalidArrayLength",
      "type": "error"
    },
    {
      "inputs": [
        {
          "internalType": "address",
          "name": "operator",
          "type": "address"
        }
      ],
      "name": "ERC1155InvalidOperator",
      "type": "error"
    },
    {
      "inputs": [
        {
          "internalType": "address",
          "name": "receiver",
          "type": "address"
        }
      ],
      "name": "ERC1155InvalidReceiver",
      "type": "error"
    },
    {
      "inputs": [
        {
          "internalType": "address",
          "name": "sender",
          "type": "address"
        }
      ],
      "name": "ERC1155InvalidSender",
      "type": "error"
    },
    {
      "inputs": [
        {
          "internalType": "address",
          "name": "operator",
          "type": "address"
        },
        {
          "internalType": "address",
          "name": "owner",
          "type": "address"
        }
      ],
      "name": "ERC1155MissingApprovalForAll",
      "type": "error"
    },
    {
      "inputs": [
        {
          "internalType": "address",
          "name": "owner",
          "type": "address"
        }
      ],
      "name": "OwnableInvalidOwner",
      "type": "error"
    },
    {
      "inputs": [
        {
          "internalType": "address",
          "name": "account",
          "type": "address"
        }
      ],
      "name": "OwnableUnauthorizedAccount",
      "type": "error"
    },
    {
      "inputs": [],
      "name": "ReentrancyGuardReentrantCall",
      "type": "error"
    },
    {
      "inputs": [],
      "name": "UC_AmountZero",
      "type": "error"
    },
    {
      "inputs": [],
      "name": "UC_BelowMinThreshold",
      "type": "error"
    },
    {
      "inputs": [],
      "name": "UC_GlobalMisconfigured",
      "type": "error"
    },
    {
      "inputs": [
        {
          "internalType": "address",
          "name": "fromAccount",
          "type": "address"
        },
        {
          "internalType": "uint256",
          "name": "id",
          "type": "uint256"
        },
        {
          "internalType": "uint256",
          "name": "have",
          "type": "uint256"
        },
        {
          "internalType": "uint256",
          "name": "need",
          "type": "uint256"
        }
      ],
      "name": "UC_InsufficientBalance",
      "type": "error"
    },
    {
      "inputs": [],
      "name": "UC_InvalidUpgradeType",
      "type": "error"
    },
    {
      "inputs": [],
      "name": "UC_NoBeamioAccount",
      "type": "error"
    },
    {
      "inputs": [],
      "name": "UC_NotAdmin",
      "type": "error"
    },
    {
      "inputs": [],
      "name": "UC_OpenMintExecutorUnauthorized",
      "type": "error"
    },
    {
      "inputs": [],
      "name": "UC_PriceZero",
      "type": "error"
    },
    {
      "inputs": [
        {
          "internalType": "bytes",
          "name": "data",
          "type": "bytes"
        }
      ],
      "name": "UC_RedeemDelegateFailed",
      "type": "error"
    },
    {
      "inputs": [],
      "name": "UC_TierLenMismatch",
      "type": "error"
    },
    {
      "inputs": [],
      "name": "UC_TierMinZero",
      "type": "error"
    },
    {
      "inputs": [],
      "name": "UC_UnauthorizedGateway",
      "type": "error"
    },
    {
      "anonymous": false,
      "inputs": [
        {
          "indexed": true,
          "internalType": "address",
          "name": "beneficiaryAccount",
          "type": "address"
        },
        {
          "indexed": true,
          "internalType": "uint256",
          "name": "tokenId",
          "type": "uint256"
        },
        {
          "indexed": false,
          "internalType": "uint256",
          "name": "attr",
          "type": "uint256"
        },
        {
          "indexed": false,
          "internalType": "uint256",
          "name": "expiry",
          "type": "uint256"
        }
      ],
      "name": "AdminCardMinted",
      "type": "event"
    },
    {
      "anonymous": false,
      "inputs": [
        {
          "indexed": true,
          "internalType": "address",
          "name": "account",
          "type": "address"
        },
        {
          "indexed": false,
          "internalType": "uint256",
          "name": "amount",
          "type": "uint256"
        }
      ],
      "name": "AdminPointsBurned",
      "type": "event"
    },
    {
      "anonymous": false,
      "inputs": [
        {
          "indexed": true,
          "internalType": "address",
          "name": "beneficiaryAccount",
          "type": "address"
        },
        {
          "indexed": false,
          "internalType": "uint256",
          "name": "points6",
          "type": "uint256"
        }
      ],
      "name": "AdminPointsMinted",
      "type": "event"
    },
    {
      "anonymous": false,
      "inputs": [
        {
          "indexed": true,
          "internalType": "address",
          "name": "account",
          "type": "address"
        },
        {
          "indexed": true,
          "internalType": "address",
          "name": "operator",
          "type": "address"
        },
        {
          "indexed": false,
          "internalType": "bool",
          "name": "approved",
          "type": "bool"
        }
      ],
      "name": "ApprovalForAll",
      "type": "event"
    },
    {
      "anonymous": false,
      "inputs": [
        {
          "indexed": true,
          "internalType": "address",
          "name": "userEOA",
          "type": "address"
        },
        {
          "indexed": true,
          "internalType": "address",
          "name": "acct",
          "type": "address"
        },
        {
          "indexed": false,
          "internalType": "uint8",
          "name": "chargeCurrency",
          "type": "uint8"
        },
        {
          "indexed": false,
          "internalType": "uint256",
          "name": "amountFiat6",
          "type": "uint256"
        },
        {
          "indexed": false,
          "internalType": "uint256",
          "name": "rewardMinted",
          "type": "uint256"
        }
      ],
      "name": "ChargeRewardAirdropped",
      "type": "event"
    },
    {
      "anonymous": false,
      "inputs": [
        {
          "indexed": false,
          "internalType": "uint256",
          "name": "attr",
          "type": "uint256"
        }
      ],
      "name": "DefaultAttrUpdated",
      "type": "event"
    },
    {
      "anonymous": false,
      "inputs": [
        {
          "indexed": false,
          "internalType": "uint256",
          "name": "oldSecs",
          "type": "uint256"
        },
        {
          "indexed": false,
          "internalType": "uint256",
          "name": "newSecs",
          "type": "uint256"
        }
      ],
      "name": "ExpirySecondsUpdated",
      "type": "event"
    },
    {
      "anonymous": false,
      "inputs": [
        {
          "indexed": true,
          "internalType": "uint256",
          "name": "id",
          "type": "uint256"
        },
        {
          "indexed": true,
          "internalType": "address",
          "name": "userEOA",
          "type": "address"
        },
        {
          "indexed": true,
          "internalType": "address",
          "name": "acct",
          "type": "address"
        },
        {
          "indexed": false,
          "internalType": "uint256",
          "name": "amount",
          "type": "uint256"
        },
        {
          "indexed": false,
          "internalType": "uint256",
          "name": "claimedAfter",
          "type": "uint256"
        }
      ],
      "name": "FaucetClaimed",
      "type": "event"
    },
    {
      "anonymous": false,
      "inputs": [
        {
          "indexed": true,
          "internalType": "uint256",
          "name": "id",
          "type": "uint256"
        },
        {
          "components": [
            {
              "internalType": "uint64",
              "name": "validUntil",
              "type": "uint64"
            },
            {
              "internalType": "uint64",
              "name": "perClaimMax",
              "type": "uint64"
            },
            {
              "internalType": "uint128",
              "name": "maxPerUser",
              "type": "uint128"
            },
            {
              "internalType": "uint128",
              "name": "maxGlobal",
              "type": "uint128"
            },
            {
              "internalType": "bool",
              "name": "enabled",
              "type": "bool"
            },
            {
              "internalType": "uint8",
              "name": "currency",
              "type": "uint8"
            },
            {
              "internalType": "uint8",
              "name": "decimals",
              "type": "uint8"
            },
            {
              "internalType": "uint128",
              "name": "priceInCurrency6",
              "type": "uint128"
            }
          ],
          "indexed": false,
          "internalType": "struct FaucetStorage.FaucetConfig",
          "name": "cfg",
          "type": "tuple"
        }
      ],
      "name": "FaucetConfigUpdated",
      "type": "event"
    },
    {
      "anonymous": false,
      "inputs": [
        {
          "indexed": true,
          "internalType": "uint256",
          "name": "tokenId",
          "type": "uint256"
        },
        {
          "indexed": false,
          "internalType": "bytes32",
          "name": "title",
          "type": "bytes32"
        },
        {
          "indexed": false,
          "internalType": "uint64",
          "name": "validAfter",
          "type": "uint64"
        },
        {
          "indexed": false,
          "internalType": "uint64",
          "name": "validBefore",
          "type": "uint64"
        },
        {
          "indexed": false,
          "internalType": "uint256",
          "name": "maxSupply",
          "type": "uint256"
        },
        {
          "indexed": false,
          "internalType": "uint256",
          "name": "priceInCurrency6",
          "type": "uint256"
        },
        {
          "indexed": false,
          "internalType": "bytes32",
          "name": "sharedMetadataHash",
          "type": "bytes32"
        }
      ],
      "name": "IssuedNftCreated",
      "type": "event"
    },
    {
      "anonymous": false,
      "inputs": [
        {
          "indexed": true,
          "internalType": "uint256",
          "name": "tokenId",
          "type": "uint256"
        },
        {
          "indexed": true,
          "internalType": "address",
          "name": "recipient",
          "type": "address"
        },
        {
          "indexed": false,
          "internalType": "uint256",
          "name": "amount",
          "type": "uint256"
        }
      ],
      "name": "IssuedNftMinted",
      "type": "event"
    },
    {
      "anonymous": false,
      "inputs": [
        {
          "indexed": true,
          "internalType": "address",
          "name": "userEOA",
          "type": "address"
        },
        {
          "indexed": true,
          "internalType": "address",
          "name": "payeeEOA",
          "type": "address"
        },
        {
          "indexed": true,
          "internalType": "uint256",
          "name": "tokenId",
          "type": "uint256"
        },
        {
          "indexed": false,
          "internalType": "uint256",
          "name": "amount",
          "type": "uint256"
        },
        {
          "indexed": false,
          "internalType": "uint256",
          "name": "totalPriceInCurrency6",
          "type": "uint256"
        },
        {
          "indexed": false,
          "internalType": "uint256",
          "name": "pointsCharged6",
          "type": "uint256"
        }
      ],
      "name": "IssuedNftPurchasedWithPointsCharge",
      "type": "event"
    },
    {
      "anonymous": false,
      "inputs": [
        {
          "indexed": true,
          "internalType": "address",
          "name": "user",
          "type": "address"
        },
        {
          "indexed": true,
          "internalType": "uint256",
          "name": "tokenId",
          "type": "uint256"
        },
        {
          "indexed": false,
          "internalType": "uint256",
          "name": "tierIndexOrMax",
          "type": "uint256"
        },
        {
          "indexed": false,
          "internalType": "uint256",
          "name": "minUsdc6",
          "type": "uint256"
        },
        {
          "indexed": false,
          "internalType": "uint256",
          "name": "expiry",
          "type": "uint256"
        }
      ],
      "name": "MemberNFTIssued",
      "type": "event"
    },
    {
      "anonymous": false,
      "inputs": [
        {
          "indexed": true,
          "internalType": "address",
          "name": "user",
          "type": "address"
        },
        {
          "indexed": true,
          "internalType": "uint256",
          "name": "oldActiveTokenId",
          "type": "uint256"
        },
        {
          "indexed": true,
          "internalType": "uint256",
          "name": "newTokenId",
          "type": "uint256"
        },
        {
          "indexed": false,
          "internalType": "uint256",
          "name": "oldTierIndexOrMax",
          "type": "uint256"
        },
        {
          "indexed": false,
          "internalType": "uint256",
          "name": "newTierIndex",
          "type": "uint256"
        },
        {
          "indexed": false,
          "internalType": "uint256",
          "name": "newExpiry",
          "type": "uint256"
        }
      ],
      "name": "MemberNFTUpgraded",
      "type": "event"
    },
    {
      "anonymous": false,
      "inputs": [
        {
          "indexed": true,
          "internalType": "address",
          "name": "previousOwner",
          "type": "address"
        },
        {
          "indexed": true,
          "internalType": "address",
          "name": "newOwner",
          "type": "address"
        }
      ],
      "name": "OwnershipTransferred",
      "type": "event"
    },
    {
      "anonymous": false,
      "inputs": [
        {
          "indexed": true,
          "internalType": "address",
          "name": "userEOA",
          "type": "address"
        },
        {
          "indexed": true,
          "internalType": "address",
          "name": "acct",
          "type": "address"
        },
        {
          "indexed": false,
          "internalType": "uint256",
          "name": "points6",
          "type": "uint256"
        }
      ],
      "name": "PointsMintedByGateway",
      "type": "event"
    },
    {
      "anonymous": false,
      "inputs": [
        {
          "indexed": true,
          "internalType": "address",
          "name": "payerEOA",
          "type": "address"
        },
        {
          "indexed": true,
          "internalType": "address",
          "name": "beneficiaryAccount",
          "type": "address"
        },
        {
          "indexed": true,
          "internalType": "address",
          "name": "usdc",
          "type": "address"
        },
        {
          "indexed": false,
          "internalType": "uint256",
          "name": "usdcIn6",
          "type": "uint256"
        },
        {
          "indexed": false,
          "internalType": "uint256",
          "name": "pointsMinted6",
          "type": "uint256"
        },
        {
          "indexed": false,
          "internalType": "uint256",
          "name": "unitPointPriceUsdc6",
          "type": "uint256"
        },
        {
          "indexed": false,
          "internalType": "bytes32",
          "name": "nonce",
          "type": "bytes32"
        }
      ],
      "name": "PointsPurchasedWithUSDC",
      "type": "event"
    },
    {
      "anonymous": false,
      "inputs": [
        {
          "indexed": false,
          "internalType": "uint256",
          "name": "priceInCurrencyE6",
          "type": "uint256"
        }
      ],
      "name": "PointsUnitPriceUpdated",
      "type": "event"
    },
    {
      "anonymous": false,
      "inputs": [
        {
          "indexed": true,
          "internalType": "uint256",
          "name": "id",
          "type": "uint256"
        },
        {
          "indexed": true,
          "internalType": "address",
          "name": "admin",
          "type": "address"
        }
      ],
      "name": "ProposalApproved",
      "type": "event"
    },
    {
      "anonymous": false,
      "inputs": [
        {
          "indexed": true,
          "internalType": "uint256",
          "name": "id",
          "type": "uint256"
        },
        {
          "indexed": true,
          "internalType": "bytes4",
          "name": "selector",
          "type": "bytes4"
        },
        {
          "indexed": true,
          "internalType": "address",
          "name": "proposer",
          "type": "address"
        }
      ],
      "name": "ProposalCreated",
      "type": "event"
    },
    {
      "anonymous": false,
      "inputs": [
        {
          "indexed": true,
          "internalType": "uint256",
          "name": "id",
          "type": "uint256"
        }
      ],
      "name": "ProposalExecuted",
      "type": "event"
    },
    {
      "anonymous": false,
      "inputs": [
        {
          "indexed": true,
          "internalType": "bytes32",
          "name": "hash",
          "type": "bytes32"
        }
      ],
      "name": "RedeemCancelled",
      "type": "event"
    },
    {
      "anonymous": false,
      "inputs": [
        {
          "indexed": true,
          "internalType": "bytes32",
          "name": "hash",
          "type": "bytes32"
        },
        {
          "indexed": false,
          "internalType": "uint256",
          "name": "points6",
          "type": "uint256"
        },
        {
          "indexed": false,
          "internalType": "uint256",
          "name": "attr",
          "type": "uint256"
        }
      ],
      "name": "RedeemCreated",
      "type": "event"
    },
    {
      "anonymous": false,
      "inputs": [
        {
          "indexed": true,
          "internalType": "address",
          "name": "refereeAA",
          "type": "address"
        },
        {
          "indexed": true,
          "internalType": "address",
          "name": "referrerAA",
          "type": "address"
        },
        {
          "indexed": true,
          "internalType": "address",
          "name": "operator",
          "type": "address"
        }
      ],
      "name": "RefereeReferrerUpdated",
      "type": "event"
    },
    {
      "anonymous": false,
      "inputs": [
        {
          "indexed": true,
          "internalType": "address",
          "name": "refereeAA",
          "type": "address"
        },
        {
          "indexed": true,
          "internalType": "address",
          "name": "operator",
          "type": "address"
        }
      ],
      "name": "RefereeRegistered",
      "type": "event"
    },
    {
      "anonymous": false,
      "inputs": [
        {
          "indexed": true,
          "internalType": "address",
          "name": "refereeAA",
          "type": "address"
        },
        {
          "indexed": true,
          "internalType": "address",
          "name": "operator",
          "type": "address"
        }
      ],
      "name": "RefereeUnregistered",
      "type": "event"
    },
    {
      "anonymous": false,
      "inputs": [
        {
          "indexed": true,
          "internalType": "address",
          "name": "refereeAA",
          "type": "address"
        },
        {
          "indexed": true,
          "internalType": "address",
          "name": "referrerAA",
          "type": "address"
        },
        {
          "indexed": false,
          "internalType": "uint256",
          "name": "rewardAmount",
          "type": "uint256"
        }
      ],
      "name": "ReferrerRewardMinted",
      "type": "event"
    },
    {
      "anonymous": false,
      "inputs": [
        {
          "indexed": false,
          "internalType": "uint256",
          "name": "oldRatioE6",
          "type": "uint256"
        },
        {
          "indexed": false,
          "internalType": "uint256",
          "name": "newRatioE6",
          "type": "uint256"
        }
      ],
      "name": "ReferrerRewardRatioUpdated",
      "type": "event"
    },
    {
      "anonymous": false,
      "inputs": [
        {
          "indexed": false,
          "internalType": "uint256",
          "name": "index",
          "type": "uint256"
        },
        {
          "indexed": false,
          "internalType": "uint256",
          "name": "minUsdc6",
          "type": "uint256"
        },
        {
          "indexed": false,
          "internalType": "uint256",
          "name": "attr",
          "type": "uint256"
        },
        {
          "indexed": false,
          "internalType": "uint256",
          "name": "tierExpirySeconds",
          "type": "uint256"
        }
      ],
      "name": "TierAppended",
      "type": "event"
    },
    {
      "anonymous": false,
      "inputs": [
        {
          "indexed": false,
          "internalType": "uint256",
          "name": "count",
          "type": "uint256"
        }
      ],
      "name": "TiersUpdated",
      "type": "event"
    },
    {
      "anonymous": false,
      "inputs": [
        {
          "indexed": true,
          "internalType": "address",
          "name": "operator",
          "type": "address"
        },
        {
          "indexed": true,
          "internalType": "address",
          "name": "from",
          "type": "address"
        },
        {
          "indexed": true,
          "internalType": "address",
          "name": "to",
          "type": "address"
        },
        {
          "indexed": false,
          "internalType": "uint256[]",
          "name": "ids",
          "type": "uint256[]"
        },
        {
          "indexed": false,
          "internalType": "uint256[]",
          "name": "values",
          "type": "uint256[]"
        }
      ],
      "name": "TransferBatch",
      "type": "event"
    },
    {
      "anonymous": false,
      "inputs": [
        {
          "indexed": true,
          "internalType": "address",
          "name": "operator",
          "type": "address"
        },
        {
          "indexed": true,
          "internalType": "address",
          "name": "from",
          "type": "address"
        },
        {
          "indexed": true,
          "internalType": "address",
          "name": "to",
          "type": "address"
        },
        {
          "indexed": false,
          "internalType": "uint256",
          "name": "id",
          "type": "uint256"
        },
        {
          "indexed": false,
          "internalType": "uint256",
          "name": "value",
          "type": "uint256"
        }
      ],
      "name": "TransferSingle",
      "type": "event"
    },
    {
      "anonymous": false,
      "inputs": [
        {
          "indexed": false,
          "internalType": "bool",
          "name": "enabled",
          "type": "bool"
        }
      ],
      "name": "TransferWhitelistEnabledUpdated",
      "type": "event"
    },
    {
      "anonymous": false,
      "inputs": [
        {
          "indexed": false,
          "internalType": "string",
          "name": "value",
          "type": "string"
        },
        {
          "indexed": true,
          "internalType": "uint256",
          "name": "id",
          "type": "uint256"
        }
      ],
      "name": "URI",
      "type": "event"
    },
    {
      "stateMutability": "nonpayable",
      "type": "fallback"
    },
    {
      "inputs": [],
      "name": "CHARGE_REWARD_TOKEN_ID",
      "outputs": [
        {
          "internalType": "uint256",
          "name": "",
          "type": "uint256"
        }
      ],
      "stateMutability": "view",
      "type": "function"
    },
    {
      "inputs": [],
      "name": "ISSUED_NFT_START_ID",
      "outputs": [
        {
          "internalType": "uint256",
          "name": "",
          "type": "uint256"
        }
      ],
      "stateMutability": "view",
      "type": "function"
    },
    {
      "inputs": [],
      "name": "NFT_START_ID",
      "outputs": [
        {
          "internalType": "uint256",
          "name": "",
          "type": "uint256"
        }
      ],
      "stateMutability": "view",
      "type": "function"
    },
    {
      "inputs": [],
      "name": "POINTS_DECIMALS",
      "outputs": [
        {
          "internalType": "uint8",
          "name": "",
          "type": "uint8"
        }
      ],
      "stateMutability": "view",
      "type": "function"
    },
    {
      "inputs": [],
      "name": "POINTS_ID",
      "outputs": [
        {
          "internalType": "uint256",
          "name": "",
          "type": "uint256"
        }
      ],
      "stateMutability": "view",
      "type": "function"
    },
    {
      "inputs": [],
      "name": "REFERRER_REWARD_TOKEN_ID",
      "outputs": [
        {
          "internalType": "uint256",
          "name": "",
          "type": "uint256"
        }
      ],
      "stateMutability": "view",
      "type": "function"
    },
    {
      "inputs": [],
      "name": "VERSION",
      "outputs": [
        {
          "internalType": "uint256",
          "name": "",
          "type": "uint256"
        }
      ],
      "stateMutability": "view",
      "type": "function"
    },
    {
      "inputs": [
        {
          "internalType": "address",
          "name": "",
          "type": "address"
        },
        {
          "internalType": "uint256",
          "name": "",
          "type": "uint256"
        }
      ],
      "name": "_userOwnedNfts",
      "outputs": [
        {
          "internalType": "uint256",
          "name": "",
          "type": "uint256"
        }
      ],
      "stateMutability": "view",
      "type": "function"
    },
    {
      "inputs": [
        {
          "internalType": "uint256",
          "name": "",
          "type": "uint256"
        }
      ],
      "name": "activeMembershipCountByTierIndex",
      "outputs": [
        {
          "internalType": "uint256",
          "name": "",
          "type": "uint256"
        }
      ],
      "stateMutability": "view",
      "type": "function"
    },
    {
      "inputs": [
        {
          "internalType": "uint256",
          "name": "",
          "type": "uint256"
        }
      ],
      "name": "activeMembershipCountByTokenId",
      "outputs": [
        {
          "internalType": "uint256",
          "name": "",
          "type": "uint256"
        }
      ],
      "stateMutability": "view",
      "type": "function"
    },
    {
      "inputs": [
        {
          "internalType": "address",
          "name": "",
          "type": "address"
        }
      ],
      "name": "activeMembershipId",
      "outputs": [
        {
          "internalType": "uint256",
          "name": "",
          "type": "uint256"
        }
      ],
      "stateMutability": "view",
      "type": "function"
    },
    {
      "inputs": [
        {
          "internalType": "address",
          "name": "",
          "type": "address"
        }
      ],
      "name": "activeTierIndexOrMax",
      "outputs": [
        {
          "internalType": "uint256",
          "name": "",
          "type": "uint256"
        }
      ],
      "stateMutability": "view",
      "type": "function"
    },
    {
      "inputs": [
        {
          "internalType": "address",
          "name": "a",
          "type": "address"
        }
      ],
      "name": "adminParent",
      "outputs": [
        {
          "internalType": "address",
          "name": "",
          "type": "address"
        }
      ],
      "stateMutability": "view",
      "type": "function"
    },
    {
      "inputs": [
        {
          "internalType": "uint256",
          "name": "minUsdc6",
          "type": "uint256"
        },
        {
          "internalType": "uint256",
          "name": "attr",
          "type": "uint256"
        },
        {
          "internalType": "uint256",
          "name": "tierExpirySeconds",
          "type": "uint256"
        }
      ],
      "name": "appendTier",
      "outputs": [],
      "stateMutability": "nonpayable",
      "type": "function"
    },
    {
      "inputs": [
        {
          "internalType": "uint256",
          "name": "id",
          "type": "uint256"
        }
      ],
      "name": "approveProposal",
      "outputs": [],
      "stateMutability": "nonpayable",
      "type": "function"
    },
    {
      "inputs": [
        {
          "internalType": "uint256",
          "name": "id",
          "type": "uint256"
        },
        {
          "internalType": "address",
          "name": "adminSigner",
          "type": "address"
        }
      ],
      "name": "approveProposalByGateway",
      "outputs": [],
      "stateMutability": "nonpayable",
      "type": "function"
    },
    {
      "inputs": [
        {
          "internalType": "uint256",
          "name": "",
          "type": "uint256"
        }
      ],
      "name": "attributes",
      "outputs": [
        {
          "internalType": "uint256",
          "name": "",
          "type": "uint256"
        }
      ],
      "stateMutability": "view",
      "type": "function"
    },
    {
      "inputs": [
        {
          "internalType": "address",
          "name": "account",
          "type": "address"
        },
        {
          "internalType": "uint256",
          "name": "id",
          "type": "uint256"
        }
      ],
      "name": "balanceOf",
      "outputs": [
        {
          "internalType": "uint256",
          "name": "",
          "type": "uint256"
        }
      ],
      "stateMutability": "view",
      "type": "function"
    },
    {
      "inputs": [
        {
          "internalType": "address[]",
          "name": "accounts",
          "type": "address[]"
        },
        {
          "internalType": "uint256[]",
          "name": "ids",
          "type": "uint256[]"
        }
      ],
      "name": "balanceOfBatch",
      "outputs": [
        {
          "internalType": "uint256[]",
          "name": "",
          "type": "uint256[]"
        }
      ],
      "stateMutability": "view",
      "type": "function"
    },
    {
      "inputs": [
        {
          "internalType": "address",
          "name": "target",
          "type": "address"
        },
        {
          "internalType": "uint256",
          "name": "amount",
          "type": "uint256"
        }
      ],
      "name": "burnPointsByAdmin",
      "outputs": [],
      "stateMutability": "nonpayable",
      "type": "function"
    },
    {
      "inputs": [
        {
          "internalType": "address",
          "name": "acct",
          "type": "address"
        },
        {
          "internalType": "uint256",
          "name": "id",
          "type": "uint256"
        }
      ],
      "name": "cardSelfAppendMembershipNftIfMissing",
      "outputs": [],
      "stateMutability": "nonpayable",
      "type": "function"
    },
    {
      "inputs": [
        {
          "internalType": "uint8",
          "name": "kind",
          "type": "uint8"
        },
        {
          "internalType": "bytes",
          "name": "data",
          "type": "bytes"
        }
      ],
      "name": "cardSelfCallModule",
      "outputs": [
        {
          "internalType": "bytes",
          "name": "",
          "type": "bytes"
        }
      ],
      "stateMutability": "nonpayable",
      "type": "function"
    },
    {
      "inputs": [],
      "name": "cardSelfCurrencyType",
      "outputs": [
        {
          "internalType": "uint8",
          "name": "",
          "type": "uint8"
        }
      ],
      "stateMutability": "view",
      "type": "function"
    },
    {
      "inputs": [
        {
          "internalType": "address",
          "name": "acct",
          "type": "address"
        },
        {
          "internalType": "uint256",
          "name": "points6",
          "type": "uint256"
        }
      ],
      "name": "cardSelfEmitAdminPointsMinted",
      "outputs": [],
      "stateMutability": "nonpayable",
      "type": "function"
    },
    {
      "inputs": [
        {
          "internalType": "address",
          "name": "userEOA",
          "type": "address"
        },
        {
          "internalType": "address",
          "name": "acct",
          "type": "address"
        },
        {
          "internalType": "uint8",
          "name": "chargeCurrency",
          "type": "uint8"
        },
        {
          "internalType": "uint256",
          "name": "amountFiat6",
          "type": "uint256"
        },
        {
          "internalType": "uint256",
          "name": "reward",
          "type": "uint256"
        }
      ],
      "name": "cardSelfEmitChargeRewardAirdropped",
      "outputs": [],
      "stateMutability": "nonpayable",
      "type": "function"
    },
    {
      "inputs": [
        {
          "internalType": "uint256",
          "name": "id",
          "type": "uint256"
        },
        {
          "internalType": "address",
          "name": "userEOA",
          "type": "address"
        },
        {
          "internalType": "address",
          "name": "acct",
          "type": "address"
        },
        {
          "internalType": "uint256",
          "name": "amount",
          "type": "uint256"
        },
        {
          "internalType": "uint256",
          "name": "claimedAfter",
          "type": "uint256"
        }
      ],
      "name": "cardSelfEmitFaucetClaimed",
      "outputs": [],
      "stateMutability": "nonpayable",
      "type": "function"
    },
    {
      "inputs": [
        {
          "internalType": "uint256",
          "name": "tokenId",
          "type": "uint256"
        },
        {
          "internalType": "address",
          "name": "acct",
          "type": "address"
        },
        {
          "internalType": "uint256",
          "name": "amount",
          "type": "uint256"
        }
      ],
      "name": "cardSelfEmitIssuedNftMinted",
      "outputs": [],
      "stateMutability": "nonpayable",
      "type": "function"
    },
    {
      "inputs": [
        {
          "internalType": "address",
          "name": "userEOA",
          "type": "address"
        },
        {
          "internalType": "address",
          "name": "payeeEOA",
          "type": "address"
        },
        {
          "internalType": "uint256",
          "name": "tokenId",
          "type": "uint256"
        },
        {
          "internalType": "uint256",
          "name": "amount",
          "type": "uint256"
        },
        {
          "internalType": "uint256",
          "name": "totalPriceInCurrency6",
          "type": "uint256"
        },
        {
          "internalType": "uint256",
          "name": "pointsCharged6",
          "type": "uint256"
        }
      ],
      "name": "cardSelfEmitIssuedNftPurchasedWithPointsCharge",
      "outputs": [],
      "stateMutability": "nonpayable",
      "type": "function"
    },
    {
      "inputs": [
        {
          "internalType": "address",
          "name": "userEOA",
          "type": "address"
        },
        {
          "internalType": "address",
          "name": "acct",
          "type": "address"
        },
        {
          "internalType": "uint256",
          "name": "points6",
          "type": "uint256"
        }
      ],
      "name": "cardSelfEmitPointsMintedByGateway",
      "outputs": [],
      "stateMutability": "nonpayable",
      "type": "function"
    },
    {
      "inputs": [
        {
          "internalType": "address",
          "name": "refereeAA",
          "type": "address"
        },
        {
          "internalType": "address",
          "name": "referrerAA",
          "type": "address"
        },
        {
          "internalType": "uint256",
          "name": "rewardAmount",
          "type": "uint256"
        }
      ],
      "name": "cardSelfEmitReferrerRewardMinted",
      "outputs": [],
      "stateMutability": "nonpayable",
      "type": "function"
    },
    {
      "inputs": [
        {
          "internalType": "address",
          "name": "module",
          "type": "address"
        },
        {
          "internalType": "bytes",
          "name": "data",
          "type": "bytes"
        }
      ],
      "name": "cardSelfGovernanceDelegate",
      "outputs": [
        {
          "internalType": "bool",
          "name": "",
          "type": "bool"
        }
      ],
      "stateMutability": "nonpayable",
      "type": "function"
    },
    {
      "inputs": [
        {
          "internalType": "address",
          "name": "acct",
          "type": "address"
        }
      ],
      "name": "cardSelfHasValidCard",
      "outputs": [
        {
          "internalType": "bool",
          "name": "",
          "type": "bool"
        }
      ],
      "stateMutability": "view",
      "type": "function"
    },
    {
      "inputs": [],
      "name": "cardSelfMembershipFlowTotals",
      "outputs": [
        {
          "internalType": "uint256",
          "name": "issued",
          "type": "uint256"
        },
        {
          "internalType": "uint256",
          "name": "upgraded",
          "type": "uint256"
        }
      ],
      "stateMutability": "view",
      "type": "function"
    },
    {
      "inputs": [
        {
          "internalType": "address",
          "name": "to",
          "type": "address"
        },
        {
          "internalType": "uint256",
          "name": "id",
          "type": "uint256"
        },
        {
          "internalType": "uint256",
          "name": "amount",
          "type": "uint256"
        }
      ],
      "name": "cardSelfMint",
      "outputs": [],
      "stateMutability": "nonpayable",
      "type": "function"
    },
    {
      "inputs": [],
      "name": "cardSelfOwner",
      "outputs": [
        {
          "internalType": "address",
          "name": "",
          "type": "address"
        }
      ],
      "stateMutability": "view",
      "type": "function"
    },
    {
      "inputs": [],
      "name": "cardSelfPointsUnitPriceInCurrencyE6",
      "outputs": [
        {
          "internalType": "uint256",
          "name": "",
          "type": "uint256"
        }
      ],
      "stateMutability": "view",
      "type": "function"
    },
    {
      "inputs": [
        {
          "internalType": "address",
          "name": "operator",
          "type": "address"
        },
        {
          "internalType": "uint256",
          "name": "issuedBefore",
          "type": "uint256"
        },
        {
          "internalType": "uint256",
          "name": "upgradedBefore",
          "type": "uint256"
        }
      ],
      "name": "cardSelfRecordAdminMembershipFlow",
      "outputs": [],
      "stateMutability": "nonpayable",
      "type": "function"
    },
    {
      "inputs": [
        {
          "internalType": "address",
          "name": "operator",
          "type": "address"
        },
        {
          "internalType": "uint256",
          "name": "amount",
          "type": "uint256"
        }
      ],
      "name": "cardSelfRecordAdminRedeemMint",
      "outputs": [],
      "stateMutability": "nonpayable",
      "type": "function"
    },
    {
      "inputs": [
        {
          "internalType": "address",
          "name": "operator",
          "type": "address"
        },
        {
          "internalType": "uint256",
          "name": "amount",
          "type": "uint256"
        }
      ],
      "name": "cardSelfRecordAdminStatsMint",
      "outputs": [],
      "stateMutability": "nonpayable",
      "type": "function"
    },
    {
      "inputs": [
        {
          "internalType": "address",
          "name": "operator",
          "type": "address"
        },
        {
          "internalType": "uint256",
          "name": "amount",
          "type": "uint256"
        }
      ],
      "name": "cardSelfRecordAdminUsdcMint",
      "outputs": [],
      "stateMutability": "nonpayable",
      "type": "function"
    },
    {
      "inputs": [
        {
          "internalType": "address",
          "name": "acct",
          "type": "address"
        },
        {
          "internalType": "uint256",
          "name": "points6",
          "type": "uint256"
        }
      ],
      "name": "cardSelfRequirePointsMintAllowsFirstMembership",
      "outputs": [],
      "stateMutability": "view",
      "type": "function"
    },
    {
      "inputs": [
        {
          "internalType": "address",
          "name": "eoa",
          "type": "address"
        }
      ],
      "name": "cardSelfToAccount",
      "outputs": [
        {
          "internalType": "address",
          "name": "",
          "type": "address"
        }
      ],
      "stateMutability": "view",
      "type": "function"
    },
    {
      "inputs": [
        {
          "internalType": "address",
          "name": "from",
          "type": "address"
        },
        {
          "internalType": "address",
          "name": "to",
          "type": "address"
        },
        {
          "internalType": "uint256",
          "name": "amount",
          "type": "uint256"
        }
      ],
      "name": "cardSelfTransferPointsUpdate",
      "outputs": [],
      "stateMutability": "nonpayable",
      "type": "function"
    },
    {
      "inputs": [],
      "name": "cardSelfUpgradeType",
      "outputs": [
        {
          "internalType": "uint8",
          "name": "",
          "type": "uint8"
        }
      ],
      "stateMutability": "view",
      "type": "function"
    },
    {
      "inputs": [
        {
          "internalType": "address",
          "name": "subordinate",
          "type": "address"
        },
        {
          "internalType": "address",
          "name": "authorizer",
          "type": "address"
        }
      ],
      "name": "clearAdminMintCounterForSubordinate",
      "outputs": [],
      "stateMutability": "nonpayable",
      "type": "function"
    },
    {
      "inputs": [
        {
          "internalType": "address",
          "name": "refereeAA",
          "type": "address"
        }
      ],
      "name": "clearRefereeReferrer",
      "outputs": [],
      "stateMutability": "nonpayable",
      "type": "function"
    },
    {
      "inputs": [
        {
          "internalType": "bytes4",
          "name": "selector",
          "type": "bytes4"
        },
        {
          "internalType": "address",
          "name": "target",
          "type": "address"
        },
        {
          "internalType": "uint256",
          "name": "v1",
          "type": "uint256"
        },
        {
          "internalType": "uint256",
          "name": "v2",
          "type": "uint256"
        },
        {
          "internalType": "uint256",
          "name": "v3",
          "type": "uint256"
        }
      ],
      "name": "createProposal",
      "outputs": [
        {
          "internalType": "uint256",
          "name": "",
          "type": "uint256"
        }
      ],
      "stateMutability": "nonpayable",
      "type": "function"
    },
    {
      "inputs": [],
      "name": "currency",
      "outputs": [
        {
          "internalType": "enum BeamioCurrency.CurrencyType",
          "name": "",
          "type": "uint8"
        }
      ],
      "stateMutability": "view",
      "type": "function"
    },
    {
      "inputs": [],
      "name": "debugGateway",
      "outputs": [
        {
          "internalType": "address",
          "name": "",
          "type": "address"
        }
      ],
      "stateMutability": "view",
      "type": "function"
    },
    {
      "inputs": [],
      "name": "defaultAttrWhenNoTiers",
      "outputs": [
        {
          "internalType": "uint256",
          "name": "",
          "type": "uint256"
        }
      ],
      "stateMutability": "view",
      "type": "function"
    },
    {
      "inputs": [],
      "name": "deployer",
      "outputs": [
        {
          "internalType": "address",
          "name": "",
          "type": "address"
        }
      ],
      "stateMutability": "view",
      "type": "function"
    },
    {
      "inputs": [
        {
          "internalType": "uint256",
          "name": "",
          "type": "uint256"
        }
      ],
      "name": "expiresAt",
      "outputs": [
        {
          "internalType": "uint256",
          "name": "",
          "type": "uint256"
        }
      ],
      "stateMutability": "view",
      "type": "function"
    },
    {
      "inputs": [],
      "name": "expirySeconds",
      "outputs": [
        {
          "internalType": "uint256",
          "name": "",
          "type": "uint256"
        }
      ],
      "stateMutability": "view",
      "type": "function"
    },
    {
      "inputs": [],
      "name": "factoryGateway",
      "outputs": [
        {
          "internalType": "address",
          "name": "",
          "type": "address"
        }
      ],
      "stateMutability": "view",
      "type": "function"
    },
    {
      "inputs": [
        {
          "internalType": "address",
          "name": "userEOA",
          "type": "address"
        },
        {
          "internalType": "uint256",
          "name": "id",
          "type": "uint256"
        },
        {
          "internalType": "uint256",
          "name": "amount",
          "type": "uint256"
        }
      ],
      "name": "faucetByGateway",
      "outputs": [],
      "stateMutability": "nonpayable",
      "type": "function"
    },
    {
      "inputs": [
        {
          "internalType": "uint256",
          "name": "id",
          "type": "uint256"
        }
      ],
      "name": "faucetConfig",
      "outputs": [
        {
          "components": [
            {
              "internalType": "uint64",
              "name": "validUntil",
              "type": "uint64"
            },
            {
              "internalType": "uint64",
              "name": "perClaimMax",
              "type": "uint64"
            },
            {
              "internalType": "uint128",
              "name": "maxPerUser",
              "type": "uint128"
            },
            {
              "internalType": "uint128",
              "name": "maxGlobal",
              "type": "uint128"
            },
            {
              "internalType": "bool",
              "name": "enabled",
              "type": "bool"
            },
            {
              "internalType": "uint8",
              "name": "currency",
              "type": "uint8"
            },
            {
              "internalType": "uint8",
              "name": "decimals",
              "type": "uint8"
            },
            {
              "internalType": "uint128",
              "name": "priceInCurrency6",
              "type": "uint128"
            }
          ],
          "internalType": "struct FaucetStorage.FaucetConfig",
          "name": "",
          "type": "tuple"
        }
      ],
      "stateMutability": "view",
      "type": "function"
    },
    {
      "inputs": [],
      "name": "gateway",
      "outputs": [
        {
          "internalType": "address",
          "name": "",
          "type": "address"
        }
      ],
      "stateMutability": "view",
      "type": "function"
    },
    {
      "inputs": [
        {
          "internalType": "address",
          "name": "user",
          "type": "address"
        }
      ],
      "name": "getOwnership",
      "outputs": [
        {
          "internalType": "uint256",
          "name": "pt",
          "type": "uint256"
        },
        {
          "components": [
            {
              "internalType": "uint256",
              "name": "tokenId",
              "type": "uint256"
            },
            {
              "internalType": "uint256",
              "name": "attribute",
              "type": "uint256"
            },
            {
              "internalType": "uint256",
              "name": "tierIndexOrMax",
              "type": "uint256"
            },
            {
              "internalType": "uint256",
              "name": "expiry",
              "type": "uint256"
            },
            {
              "internalType": "bool",
              "name": "isExpired",
              "type": "bool"
            }
          ],
          "internalType": "struct NFTDetail[]",
          "name": "nfts",
          "type": "tuple[]"
        }
      ],
      "stateMutability": "view",
      "type": "function"
    },
    {
      "inputs": [
        {
          "internalType": "address",
          "name": "userEOA",
          "type": "address"
        }
      ],
      "name": "getOwnershipByEOA",
      "outputs": [
        {
          "internalType": "uint256",
          "name": "pt",
          "type": "uint256"
        },
        {
          "components": [
            {
              "internalType": "uint256",
              "name": "tokenId",
              "type": "uint256"
            },
            {
              "internalType": "uint256",
              "name": "attribute",
              "type": "uint256"
            },
            {
              "internalType": "uint256",
              "name": "tierIndexOrMax",
              "type": "uint256"
            },
            {
              "internalType": "uint256",
              "name": "expiry",
              "type": "uint256"
            },
            {
              "internalType": "bool",
              "name": "isExpired",
              "type": "bool"
            }
          ],
          "internalType": "struct NFTDetail[]",
          "name": "nfts",
          "type": "tuple[]"
        }
      ],
      "stateMutability": "view",
      "type": "function"
    },
    {
      "inputs": [
        {
          "internalType": "address",
          "name": "referrerAA",
          "type": "address"
        },
        {
          "internalType": "uint256",
          "name": "offset",
          "type": "uint256"
        },
        {
          "internalType": "uint256",
          "name": "pageSize",
          "type": "uint256"
        }
      ],
      "name": "getRefereesByReferrerPage",
      "outputs": [
        {
          "internalType": "address[]",
          "name": "referees",
          "type": "address[]"
        },
        {
          "internalType": "uint256[]",
          "name": "refereeChargeTotals6",
          "type": "uint256[]"
        },
        {
          "internalType": "uint256",
          "name": "total",
          "type": "uint256"
        },
        {
          "internalType": "uint256",
          "name": "nextOffset",
          "type": "uint256"
        }
      ],
      "stateMutability": "view",
      "type": "function"
    },
    {
      "inputs": [
        {
          "internalType": "uint256",
          "name": "offset",
          "type": "uint256"
        },
        {
          "internalType": "uint256",
          "name": "pageSize",
          "type": "uint256"
        }
      ],
      "name": "getReferrersPage",
      "outputs": [
        {
          "internalType": "address[]",
          "name": "referrers",
          "type": "address[]"
        },
        {
          "internalType": "uint256[]",
          "name": "referrerRewardBalances",
          "type": "uint256[]"
        },
        {
          "internalType": "uint256",
          "name": "total",
          "type": "uint256"
        },
        {
          "internalType": "uint256",
          "name": "nextOffset",
          "type": "uint256"
        }
      ],
      "stateMutability": "view",
      "type": "function"
    },
    {
      "inputs": [
        {
          "internalType": "uint256",
          "name": "offset",
          "type": "uint256"
        },
        {
          "internalType": "uint256",
          "name": "pageSize",
          "type": "uint256"
        }
      ],
      "name": "getRegisteredRefereesPage",
      "outputs": [
        {
          "internalType": "address[]",
          "name": "referees",
          "type": "address[]"
        },
        {
          "internalType": "uint256",
          "name": "total",
          "type": "uint256"
        },
        {
          "internalType": "uint256",
          "name": "nextOffset",
          "type": "uint256"
        }
      ],
      "stateMutability": "view",
      "type": "function"
    },
    {
      "inputs": [
        {
          "internalType": "address",
          "name": "a",
          "type": "address"
        }
      ],
      "name": "isAdmin",
      "outputs": [
        {
          "internalType": "bool",
          "name": "",
          "type": "bool"
        }
      ],
      "stateMutability": "view",
      "type": "function"
    },
    {
      "inputs": [
        {
          "internalType": "address",
          "name": "account",
          "type": "address"
        },
        {
          "internalType": "address",
          "name": "operator",
          "type": "address"
        }
      ],
      "name": "isApprovedForAll",
      "outputs": [
        {
          "internalType": "bool",
          "name": "",
          "type": "bool"
        }
      ],
      "stateMutability": "view",
      "type": "function"
    },
    {
      "inputs": [
        {
          "internalType": "address",
          "name": "effectiveTo",
          "type": "address"
        }
      ],
      "name": "isPointsTransferRecipientAllowed",
      "outputs": [
        {
          "internalType": "bool",
          "name": "",
          "type": "bool"
        }
      ],
      "stateMutability": "view",
      "type": "function"
    },
    {
      "inputs": [
        {
          "internalType": "address",
          "name": "refereeAA",
          "type": "address"
        }
      ],
      "name": "isRegisteredReferee",
      "outputs": [
        {
          "internalType": "bool",
          "name": "",
          "type": "bool"
        }
      ],
      "stateMutability": "view",
      "type": "function"
    },
    {
      "inputs": [
        {
          "internalType": "uint256",
          "name": "tokenId",
          "type": "uint256"
        }
      ],
      "name": "issuedNftPriceInCurrency6",
      "outputs": [
        {
          "internalType": "uint256",
          "name": "",
          "type": "uint256"
        }
      ],
      "stateMutability": "view",
      "type": "function"
    },
    {
      "inputs": [
        {
          "internalType": "uint256",
          "name": "tokenId",
          "type": "uint256"
        }
      ],
      "name": "issuedNftSharedMetadataHash",
      "outputs": [
        {
          "internalType": "bytes32",
          "name": "",
          "type": "bytes32"
        }
      ],
      "stateMutability": "view",
      "type": "function"
    },
    {
      "inputs": [],
      "name": "metadataBaseURI",
      "outputs": [
        {
          "internalType": "string",
          "name": "",
          "type": "string"
        }
      ],
      "stateMutability": "view",
      "type": "function"
    },
    {
      "inputs": [
        {
          "internalType": "address",
          "name": "userEOA",
          "type": "address"
        },
        {
          "internalType": "uint256",
          "name": "id",
          "type": "uint256"
        },
        {
          "internalType": "uint256",
          "name": "amount6",
          "type": "uint256"
        }
      ],
      "name": "mintFaucetByGateway",
      "outputs": [],
      "stateMutability": "nonpayable",
      "type": "function"
    },
    {
      "inputs": [
        {
          "internalType": "address",
          "name": "userEOA",
          "type": "address"
        },
        {
          "internalType": "uint256",
          "name": "tokenId",
          "type": "uint256"
        },
        {
          "internalType": "uint256",
          "name": "amount",
          "type": "uint256"
        }
      ],
      "name": "mintIssuedNftByGateway",
      "outputs": [],
      "stateMutability": "nonpayable",
      "type": "function"
    },
    {
      "inputs": [
        {
          "internalType": "address",
          "name": "to",
          "type": "address"
        },
        {
          "internalType": "uint256",
          "name": "tokenId",
          "type": "uint256"
        },
        {
          "internalType": "uint256",
          "name": "amount",
          "type": "uint256"
        }
      ],
      "name": "mintIssuedNftByOwner",
      "outputs": [],
      "stateMutability": "nonpayable",
      "type": "function"
    },
    {
      "inputs": [
        {
          "internalType": "address",
          "name": "userEOA",
          "type": "address"
        },
        {
          "internalType": "uint256",
          "name": "tokenId",
          "type": "uint256"
        }
      ],
      "name": "mintIssuedNftByUserSigClaim",
      "outputs": [],
      "stateMutability": "nonpayable",
      "type": "function"
    },
    {
      "inputs": [
        {
          "internalType": "address",
          "name": "user",
          "type": "address"
        },
        {
          "internalType": "uint256",
          "name": "tierIndex",
          "type": "uint256"
        }
      ],
      "name": "mintMemberCardByAdmin",
      "outputs": [],
      "stateMutability": "nonpayable",
      "type": "function"
    },
    {
      "inputs": [
        {
          "internalType": "address",
          "name": "user",
          "type": "address"
        },
        {
          "internalType": "uint256",
          "name": "points6",
          "type": "uint256"
        }
      ],
      "name": "mintPointsByAdmin",
      "outputs": [],
      "stateMutability": "nonpayable",
      "type": "function"
    },
    {
      "inputs": [
        {
          "internalType": "address",
          "name": "user",
          "type": "address"
        },
        {
          "internalType": "uint256",
          "name": "points6",
          "type": "uint256"
        },
        {
          "internalType": "address",
          "name": "operator",
          "type": "address"
        }
      ],
      "name": "mintPointsByAdminWithOperator",
      "outputs": [],
      "stateMutability": "nonpayable",
      "type": "function"
    },
    {
      "inputs": [
        {
          "internalType": "address",
          "name": "userEOA",
          "type": "address"
        },
        {
          "internalType": "uint256",
          "name": "points6",
          "type": "uint256"
        }
      ],
      "name": "mintPointsByGateway",
      "outputs": [],
      "stateMutability": "nonpayable",
      "type": "function"
    },
    {
      "inputs": [
        {
          "internalType": "address",
          "name": "userEOA",
          "type": "address"
        },
        {
          "internalType": "uint256",
          "name": "points6",
          "type": "uint256"
        },
        {
          "internalType": "address",
          "name": "operator",
          "type": "address"
        }
      ],
      "name": "mintPointsByGatewayWithOperator",
      "outputs": [],
      "stateMutability": "nonpayable",
      "type": "function"
    },
    {
      "inputs": [
        {
          "internalType": "address",
          "name": "payerAA",
          "type": "address"
        },
        {
          "internalType": "uint256",
          "name": "points6",
          "type": "uint256"
        },
        {
          "internalType": "address",
          "name": "operatorForStats",
          "type": "address"
        }
      ],
      "name": "mintPointsOpenContainerRelay",
      "outputs": [],
      "stateMutability": "nonpayable",
      "type": "function"
    },
    {
      "inputs": [
        {
          "internalType": "uint256",
          "name": "tokenId",
          "type": "uint256"
        }
      ],
      "name": "nftAttributes",
      "outputs": [
        {
          "internalType": "uint256",
          "name": "",
          "type": "uint256"
        }
      ],
      "stateMutability": "view",
      "type": "function"
    },
    {
      "inputs": [
        {
          "internalType": "uint256",
          "name": "tokenId",
          "type": "uint256"
        }
      ],
      "name": "nftExpiresAt",
      "outputs": [
        {
          "internalType": "uint256",
          "name": "",
          "type": "uint256"
        }
      ],
      "stateMutability": "view",
      "type": "function"
    },
    {
      "inputs": [
        {
          "internalType": "address",
          "name": "user",
          "type": "address"
        },
        {
          "internalType": "uint256",
          "name": "index",
          "type": "uint256"
        }
      ],
      "name": "nftInventoryAt",
      "outputs": [
        {
          "internalType": "uint256",
          "name": "",
          "type": "uint256"
        }
      ],
      "stateMutability": "view",
      "type": "function"
    },
    {
      "inputs": [
        {
          "internalType": "address",
          "name": "user",
          "type": "address"
        }
      ],
      "name": "nftInventoryLength",
      "outputs": [
        {
          "internalType": "uint256",
          "name": "",
          "type": "uint256"
        }
      ],
      "stateMutability": "view",
      "type": "function"
    },
    {
      "inputs": [
        {
          "internalType": "uint256",
          "name": "tokenId",
          "type": "uint256"
        }
      ],
      "name": "nftTierIndexOrMax",
      "outputs": [
        {
          "internalType": "uint256",
          "name": "",
          "type": "uint256"
        }
      ],
      "stateMutability": "view",
      "type": "function"
    },
    {
      "inputs": [],
      "name": "owner",
      "outputs": [
        {
          "internalType": "address",
          "name": "",
          "type": "address"
        }
      ],
      "stateMutability": "view",
      "type": "function"
    },
    {
      "inputs": [
        {
          "internalType": "address",
          "name": "user",
          "type": "address"
        }
      ],
      "name": "pointsBalanceOf",
      "outputs": [
        {
          "internalType": "uint256",
          "name": "",
          "type": "uint256"
        }
      ],
      "stateMutability": "view",
      "type": "function"
    },
    {
      "inputs": [],
      "name": "pointsUnitPriceInCurrencyE6",
      "outputs": [
        {
          "internalType": "uint256",
          "name": "",
          "type": "uint256"
        }
      ],
      "stateMutability": "view",
      "type": "function"
    },
    {
      "inputs": [
        {
          "internalType": "uint256",
          "name": "chargeRewardAmount",
          "type": "uint256"
        }
      ],
      "name": "previewReferrerRewardFromChargeReward",
      "outputs": [
        {
          "internalType": "uint256",
          "name": "",
          "type": "uint256"
        }
      ],
      "stateMutability": "view",
      "type": "function"
    },
    {
      "inputs": [
        {
          "internalType": "address",
          "name": "userEOA",
          "type": "address"
        },
        {
          "internalType": "uint256",
          "name": "tokenId",
          "type": "uint256"
        },
        {
          "internalType": "uint256",
          "name": "amount",
          "type": "uint256"
        },
        {
          "internalType": "address",
          "name": "payeeEOA",
          "type": "address"
        }
      ],
      "name": "purchaseIssuedNftWithPointsCharge",
      "outputs": [],
      "stateMutability": "nonpayable",
      "type": "function"
    },
    {
      "inputs": [
        {
          "internalType": "uint256",
          "name": "tokenId",
          "type": "uint256"
        },
        {
          "internalType": "uint256",
          "name": "amount",
          "type": "uint256"
        }
      ],
      "name": "quoteIssuedNftPurchasePoints6",
      "outputs": [
        {
          "internalType": "uint256",
          "name": "points6",
          "type": "uint256"
        },
        {
          "internalType": "uint256",
          "name": "totalPriceInCurrency6",
          "type": "uint256"
        }
      ],
      "stateMutability": "view",
      "type": "function"
    },
    {
      "inputs": [
        {
          "internalType": "address",
          "name": "operator",
          "type": "address"
        },
        {
          "internalType": "uint256",
          "name": "amount",
          "type": "uint256"
        }
      ],
      "name": "recordAdminBurnForStats",
      "outputs": [],
      "stateMutability": "nonpayable",
      "type": "function"
    },
    {
      "inputs": [
        {
          "internalType": "address",
          "name": "admin",
          "type": "address"
        },
        {
          "internalType": "uint256",
          "name": "amount",
          "type": "uint256"
        }
      ],
      "name": "recordAdminMintForStats",
      "outputs": [],
      "stateMutability": "nonpayable",
      "type": "function"
    },
    {
      "inputs": [
        {
          "internalType": "string",
          "name": "code",
          "type": "string"
        },
        {
          "internalType": "address",
          "name": "to",
          "type": "address"
        }
      ],
      "name": "redeemAdminByGateway",
      "outputs": [],
      "stateMutability": "nonpayable",
      "type": "function"
    },
    {
      "inputs": [
        {
          "internalType": "string[]",
          "name": "codes",
          "type": "string[]"
        },
        {
          "internalType": "address",
          "name": "userEOA",
          "type": "address"
        }
      ],
      "name": "redeemBatchByGateway",
      "outputs": [],
      "stateMutability": "nonpayable",
      "type": "function"
    },
    {
      "inputs": [
        {
          "internalType": "string",
          "name": "code",
          "type": "string"
        },
        {
          "internalType": "address",
          "name": "userEOA",
          "type": "address"
        }
      ],
      "name": "redeemByGateway",
      "outputs": [],
      "stateMutability": "nonpayable",
      "type": "function"
    },
    {
      "inputs": [
        {
          "internalType": "string",
          "name": "code",
          "type": "string"
        },
        {
          "internalType": "address",
          "name": "userEOA",
          "type": "address"
        }
      ],
      "name": "redeemPoolByGateway",
      "outputs": [],
      "stateMutability": "nonpayable",
      "type": "function"
    },
    {
      "inputs": [
        {
          "internalType": "address",
          "name": "refereeAA",
          "type": "address"
        }
      ],
      "name": "refereeChargePointsTotal6",
      "outputs": [
        {
          "internalType": "uint256",
          "name": "",
          "type": "uint256"
        }
      ],
      "stateMutability": "view",
      "type": "function"
    },
    {
      "inputs": [
        {
          "internalType": "address",
          "name": "referrerAA",
          "type": "address"
        }
      ],
      "name": "refereeCountByReferrer",
      "outputs": [
        {
          "internalType": "uint256",
          "name": "",
          "type": "uint256"
        }
      ],
      "stateMutability": "view",
      "type": "function"
    },
    {
      "inputs": [
        {
          "internalType": "address",
          "name": "refereeAA",
          "type": "address"
        }
      ],
      "name": "refereeReferrer",
      "outputs": [
        {
          "internalType": "address",
          "name": "",
          "type": "address"
        }
      ],
      "stateMutability": "view",
      "type": "function"
    },
    {
      "inputs": [],
      "name": "referrerRewardFromChargeRewardRatioE6",
      "outputs": [
        {
          "internalType": "uint256",
          "name": "",
          "type": "uint256"
        }
      ],
      "stateMutability": "view",
      "type": "function"
    },
    {
      "inputs": [],
      "name": "referrerTotalCount",
      "outputs": [
        {
          "internalType": "uint256",
          "name": "",
          "type": "uint256"
        }
      ],
      "stateMutability": "view",
      "type": "function"
    },
    {
      "inputs": [
        {
          "internalType": "address",
          "name": "refereeAA",
          "type": "address"
        }
      ],
      "name": "registerReferee",
      "outputs": [],
      "stateMutability": "nonpayable",
      "type": "function"
    },
    {
      "inputs": [],
      "name": "registeredRefereeTotalCount",
      "outputs": [
        {
          "internalType": "uint256",
          "name": "",
          "type": "uint256"
        }
      ],
      "stateMutability": "view",
      "type": "function"
    },
    {
      "inputs": [],
      "name": "renounceOwnership",
      "outputs": [],
      "stateMutability": "nonpayable",
      "type": "function"
    },
    {
      "inputs": [
        {
          "internalType": "address",
          "name": "adminAddr",
          "type": "address"
        }
      ],
      "name": "resetAdminLimit",
      "outputs": [],
      "stateMutability": "nonpayable",
      "type": "function"
    },
    {
      "inputs": [
        {
          "internalType": "address",
          "name": "adminAddr",
          "type": "address"
        },
        {
          "internalType": "address",
          "name": "authorizer",
          "type": "address"
        }
      ],
      "name": "resetAdminLimitByAdmin",
      "outputs": [],
      "stateMutability": "nonpayable",
      "type": "function"
    },
    {
      "inputs": [
        {
          "internalType": "address",
          "name": "from",
          "type": "address"
        },
        {
          "internalType": "address",
          "name": "to",
          "type": "address"
        },
        {
          "internalType": "uint256[]",
          "name": "ids",
          "type": "uint256[]"
        },
        {
          "internalType": "uint256[]",
          "name": "values",
          "type": "uint256[]"
        },
        {
          "internalType": "bytes",
          "name": "data",
          "type": "bytes"
        }
      ],
      "name": "safeBatchTransferFrom",
      "outputs": [],
      "stateMutability": "nonpayable",
      "type": "function"
    },
    {
      "inputs": [
        {
          "internalType": "address",
          "name": "from",
          "type": "address"
        },
        {
          "internalType": "address",
          "name": "to",
          "type": "address"
        },
        {
          "internalType": "uint256",
          "name": "id",
          "type": "uint256"
        },
        {
          "internalType": "uint256",
          "name": "value",
          "type": "uint256"
        },
        {
          "internalType": "bytes",
          "name": "data",
          "type": "bytes"
        }
      ],
      "name": "safeTransferFrom",
      "outputs": [],
      "stateMutability": "nonpayable",
      "type": "function"
    },
    {
      "inputs": [
        {
          "internalType": "address",
          "name": "operator",
          "type": "address"
        },
        {
          "internalType": "bool",
          "name": "approved",
          "type": "bool"
        }
      ],
      "name": "setApprovalForAll",
      "outputs": [],
      "stateMutability": "nonpayable",
      "type": "function"
    },
    {
      "inputs": [
        {
          "internalType": "uint256",
          "name": "attr",
          "type": "uint256"
        }
      ],
      "name": "setDefaultAttr",
      "outputs": [],
      "stateMutability": "nonpayable",
      "type": "function"
    },
    {
      "inputs": [
        {
          "internalType": "uint256",
          "name": "secs",
          "type": "uint256"
        }
      ],
      "name": "setExpirySeconds",
      "outputs": [],
      "stateMutability": "nonpayable",
      "type": "function"
    },
    {
      "inputs": [
        {
          "internalType": "uint256",
          "name": "priceInCurrencyE6",
          "type": "uint256"
        }
      ],
      "name": "setPointsUnitPrice",
      "outputs": [],
      "stateMutability": "nonpayable",
      "type": "function"
    },
    {
      "inputs": [
        {
          "internalType": "address",
          "name": "refereeAA",
          "type": "address"
        },
        {
          "internalType": "address",
          "name": "referrerAA",
          "type": "address"
        }
      ],
      "name": "setRefereeReferrer",
      "outputs": [],
      "stateMutability": "nonpayable",
      "type": "function"
    },
    {
      "inputs": [
        {
          "internalType": "uint256",
          "name": "ratioE6",
          "type": "uint256"
        }
      ],
      "name": "setReferrerRewardRatio",
      "outputs": [],
      "stateMutability": "nonpayable",
      "type": "function"
    },
    {
      "inputs": [
        {
          "components": [
            {
              "internalType": "uint256",
              "name": "minUsdc6",
              "type": "uint256"
            },
            {
              "internalType": "uint256",
              "name": "attr",
              "type": "uint256"
            },
            {
              "internalType": "uint256",
              "name": "tierExpirySeconds",
              "type": "uint256"
            }
          ],
          "internalType": "struct Tier[]",
          "name": "newTiers",
          "type": "tuple[]"
        }
      ],
      "name": "setTiers",
      "outputs": [],
      "stateMutability": "nonpayable",
      "type": "function"
    },
    {
      "inputs": [
        {
          "internalType": "address",
          "name": "target",
          "type": "address"
        },
        {
          "internalType": "bool",
          "name": "allowed",
          "type": "bool"
        }
      ],
      "name": "setTransferWhitelist",
      "outputs": [],
      "stateMutability": "nonpayable",
      "type": "function"
    },
    {
      "inputs": [
        {
          "internalType": "bool",
          "name": "enabled",
          "type": "bool"
        }
      ],
      "name": "setTransferWhitelistEnabled",
      "outputs": [],
      "stateMutability": "nonpayable",
      "type": "function"
    },
    {
      "inputs": [
        {
          "internalType": "bytes4",
          "name": "interfaceId",
          "type": "bytes4"
        }
      ],
      "name": "supportsInterface",
      "outputs": [
        {
          "internalType": "bool",
          "name": "",
          "type": "bool"
        }
      ],
      "stateMutability": "view",
      "type": "function"
    },
    {
      "inputs": [
        {
          "internalType": "uint256",
          "name": "",
          "type": "uint256"
        }
      ],
      "name": "tiers",
      "outputs": [
        {
          "internalType": "uint256",
          "name": "minUsdc6",
          "type": "uint256"
        },
        {
          "internalType": "uint256",
          "name": "attr",
          "type": "uint256"
        },
        {
          "internalType": "uint256",
          "name": "tierExpirySeconds",
          "type": "uint256"
        }
      ],
      "stateMutability": "view",
      "type": "function"
    },
    {
      "inputs": [
        {
          "internalType": "uint256",
          "name": "",
          "type": "uint256"
        }
      ],
      "name": "tokenTierIndexOrMax",
      "outputs": [
        {
          "internalType": "uint256",
          "name": "",
          "type": "uint256"
        }
      ],
      "stateMutability": "view",
      "type": "function"
    },
    {
      "inputs": [],
      "name": "totalActiveMemberships",
      "outputs": [
        {
          "internalType": "uint256",
          "name": "",
          "type": "uint256"
        }
      ],
      "stateMutability": "view",
      "type": "function"
    },
    {
      "inputs": [],
      "name": "totalMembershipIssued",
      "outputs": [
        {
          "internalType": "uint256",
          "name": "",
          "type": "uint256"
        }
      ],
      "stateMutability": "view",
      "type": "function"
    },
    {
      "inputs": [
        {
          "internalType": "uint256",
          "name": "",
          "type": "uint256"
        }
      ],
      "name": "totalMembershipIssuedByTierIndex",
      "outputs": [
        {
          "internalType": "uint256",
          "name": "",
          "type": "uint256"
        }
      ],
      "stateMutability": "view",
      "type": "function"
    },
    {
      "inputs": [],
      "name": "totalMembershipUpgraded",
      "outputs": [
        {
          "internalType": "uint256",
          "name": "",
          "type": "uint256"
        }
      ],
      "stateMutability": "view",
      "type": "function"
    },
    {
      "inputs": [],
      "name": "totalSupply",
      "outputs": [
        {
          "internalType": "uint256",
          "name": "",
          "type": "uint256"
        }
      ],
      "stateMutability": "view",
      "type": "function"
    },
    {
      "inputs": [
        {
          "internalType": "uint256",
          "name": "id",
          "type": "uint256"
        }
      ],
      "name": "totalSupply",
      "outputs": [
        {
          "internalType": "uint256",
          "name": "",
          "type": "uint256"
        }
      ],
      "stateMutability": "view",
      "type": "function"
    },
    {
      "inputs": [
        {
          "internalType": "address",
          "name": "newOwner",
          "type": "address"
        }
      ],
      "name": "transferOwnership",
      "outputs": [],
      "stateMutability": "nonpayable",
      "type": "function"
    },
    {
      "inputs": [
        {
          "internalType": "address",
          "name": "",
          "type": "address"
        }
      ],
      "name": "transferWhitelist",
      "outputs": [
        {
          "internalType": "bool",
          "name": "",
          "type": "bool"
        }
      ],
      "stateMutability": "view",
      "type": "function"
    },
    {
      "inputs": [],
      "name": "transferWhitelistEnabled",
      "outputs": [
        {
          "internalType": "bool",
          "name": "",
          "type": "bool"
        }
      ],
      "stateMutability": "view",
      "type": "function"
    },
    {
      "inputs": [
        {
          "internalType": "address",
          "name": "refereeAA",
          "type": "address"
        }
      ],
      "name": "unregisterReferee",
      "outputs": [],
      "stateMutability": "nonpayable",
      "type": "function"
    },
    {
      "inputs": [],
      "name": "upgradeType",
      "outputs": [
        {
          "internalType": "uint8",
          "name": "",
          "type": "uint8"
        }
      ],
      "stateMutability": "view",
      "type": "function"
    },
    {
      "inputs": [
        {
          "internalType": "uint256",
          "name": "",
          "type": "uint256"
        }
      ],
      "name": "uri",
      "outputs": [
        {
          "internalType": "string",
          "name": "",
          "type": "string"
        }
      ],
      "stateMutability": "view",
      "type": "function"
    }
  ],
  "bytecode": "0x60a060405234610405576162408038038061001981610409565b928339810160e0828203126104055781516001600160401b03811161040557820181601f820112156104055780516001600160401b03811161036657610068601f8201601f1916602001610409565b9281845260208284010111610405575f928160208094018483015e010152602081015160098110156104055760408201516100a56060840161042e565b916100b26080850161042e565b9360a08101519060ff82168092036104055760c00151928315158403610405576020945f6100df87610409565b52600254600181811c911680156103fb575b878210146103e757601f81116103b5575b505f6002556001600160a01b03169283156103a257600380546001600160a01b031981168617909155604051979085906001600160a01b03167f8be0079c531659141344cd1fd0a4f28419497f9722a3daafe3b4186f6b6457e05f80a3600160045560646019556001600160a01b038116908115908115610398575b50610389576002841161037a57336080528060018060a01b031960055416176005556006549160ff60a01b9060a01b169160018060a81b0319161717600655600755620f42407f669d986a32f5e30674d7f66bb8d44cc28fe3e0e39e2f1cd4349a57cbd64d6cc855620f42407f22c0a15d444e21db16bbb52e03d65846fb96a18771ae18cefb26e2b75b089ee25560ff19601a541617601a5560017fbc488d3e2575f0f2113dc4d9a0cd6bc52445c6bc28a8974ed97a6ba3ecfd657a55805f527fbc488d3e2575f0f2113dc4d9a0cd6bc52445c6bc28a8974ed97a6ba3ecfd657b835260405f20600160ff198254161790555f5160206162205f395f51905f5254680100000000000000008110156103665760018101805f5160206162205f395f51905f5255811015610352575f5160206162205f395f51905f525f9081528490200180546001600160a01b031916909117905564174876e8007ffed699897f2561c8a98f833aa3de83c4904370d413fe5fb15abe26e9f8150b2955610317575b604051615ddd90816104438239608051816137280152f35b7fc52867146282c253c04e94eb2a948478a1f7ef84cf2d6f5864facc99f2203f2c91600160ff19600a541617600a5560018152a15f806102ff565b634e487b7160e01b5f52603260045260245ffd5b634e487b7160e01b5f52604160045260245ffd5b63c7e283e160e01b5f5260045ffd5b63ab82bb9960e01b5f5260045ffd5b90503b155f61017e565b631e4fbdf760e01b5f525f60045260245ffd5b80156101025760025f52601f875f20910160051c905f5b8281106103da575050610102565b5f828201556001016103cc565b634e487b7160e01b5f52602260045260245ffd5b90607f16906100f1565b5f80fd5b6040519190601f01601f191682016001600160401b0381118382101761036657604052565b51906001600160a01b03821682036104055756fe60806040526004361015610019575b3415614a5f575b5f80fd5b5f3560e01c80629019b214610838578062fdd58e1461083357806301ffc9a71461082e578063039af9eb1461082957806303ca3e381461082457806304edc1a71461081f5780630a106e9c1461081a5780630a96cefa146108155780630b6c8d71146108105780630cb856411461080b5780630e4ab487146108065780630e89341c146108015780630ec3786b146107fc5780631018c34b146107f757806310bba864146107f2578063116191b61461075c5780631284b92f146107ed578063132220f0146107e857806315c39d9d146107e357806317c957091461065857806318160ddd146107de5780631b09a97e146106d05780631c790e24146107d95780631fe56e6a146107d457806324d7806c146107cf578063279181f3146107ca5780632a27fc3c146107c55780632aff2a59146107c05780632b681a54146107bb5780632d0da7d2146107b65780632dd50a49146107b15780632df08b9c146107ac5780632eb2c2d6146107a757806330617703146107a257806333d4e5621461079d5780633c703d45146107985780633c970fb91461079357806343159ce51461078e5780634321976f14610789578063475e53ec1461078457806348ed7ebe1461077f5780634932c0d61461077a57806349dd0900146107755780634a1fb451146107705780634dda22151461076b5780634e1273f4146107665780635230469114610761578063537856191461075c5780635476d0711461075757806356217848146107525780635637d5bc1461074d578063564da757146107485780635932ab26146107435780635cae09f21461073e5780636465c3a714610739578063671395c814610734578063684cc3a51461072f5780636e636a8c1461072a578063706e013214610725578063715018a61461072057806371b8982f146105db5780637766fa441461071b5780637d879f9b146107165780637e1ed94b146107115780637ffbe2411461070c578063810b0e011461070757806382b720c91461070257806383dbbf53146106fd5780638842fe46146106f8578063897828a8146106f35780638a1b32bb146106ee5780638abc9b25146106e95780638da5cb5b146106e457806394b2e946146106df5780639557ff44146106da5780639565c542146106d5578063976ae386146106d057806398951b56146106cb5780639a1ffd55146106c65780639d712e3b146106c15780639f1bbda7146106bc5780639f3d1a2a146106b75780639f48facc146106b2578063a22cb465146106ad578063a4790446146106a8578063a657a65b146106a3578063a876c7591461069e578063a98d916e14610699578063aad3d45e14610694578063acf12d3d1461068f578063af7ffa2b1461068a578063b676a96c14610685578063b6c12c5f146105e0578063b9ad3aa714610680578063bd85b0391461067b578063bdf70fd914610676578063bf70f55914610671578063c163292e1461066c578063c231c2a714610667578063c926bbfd14610662578063cb9409691461065d578063cb975e8114610658578063cc73bcbe14610653578063d05dcc6a14610644578063d4506e771461064e578063d4772f5214610649578063d4b5d60314610644578063d52dc5151461063f578063d5f394881461063a578063d85fa36214610635578063dd1bc5e914610630578063df1f44ac1461062b578063df6811dd14610626578063e221c8f314610621578063e2f972711461061c578063e4a34dce14610617578063e5a6b10f14610612578063e5df8c2f1461060d578063e985e9c514610608578063ea2b867214610603578063eae134fd146105fe578063ec125771146105f9578063ee3bb7b8146105f4578063f141b0a1146105ef578063f242432a146105ea578063f2fde38b146105e5578063f540f227146105e0578063f986f676146105db578063fcef6b01146105d6578063fee3d73e146105d1578063ff9b25f4146105cc5763ffa1ad740361000e57613ed3565b613e1b565b613dfb565b613dde565b612556565b61326b565b613d67565b613c8d565b613c0f565b613bf4565b613ba2565b613af2565b613a53565b613a22565b6139b7565b61398b565b61394d565b6138d5565b613883565b61385c565b6137cc565b613776565b613757565b613713565b6136f1565b6135e2565b613664565b61360c565b6135b3565b611308565b613583565b613569565b613540565b61349d565b61334e565b61332a565b6132e1565b613295565b6131be565b61314b565b61312e565b6130ff565b6130e0565b6130c3565b613068565b613000565b612f75565b612e17565b612d60565b612d43565b612d08565b612cdb565b612c59565b61136e565b612c31565b612bde565b612ba3565b612b7b565b612a9a565b6129e4565b612982565b612903565b6128a1565b6127a9565b612769565b612729565b6126a1565b612671565b6125a3565b6124d6565b612457565b6123bb565b61233d565b612302565b612275565b612216565b6121d5565b612162565b612147565b61211d565b612100565b611156565b612042565b611f81565b611f20565b611ef0565b611e8d565b611e09565b611d38565b611cab565b611ba9565b611a53565b6119c6565b61197d565b61194c565b6118e9565b611855565b61167b565b61165c565b61162b565b611606565b611581565b6114fe565b61149b565b611466565b61143c565b61139e565b611332565b61128f565b611274565b611218565b611117565b6110b0565b611054565b610f8d565b610f3f565b610ee2565b610e2a565b610d00565b610bfd565b610b6f565b610a2e565b6109c4565b61090b565b6108bd565b61084e565b6001600160a01b0381160361001557565b346100155760403660031901126100155760043561086b8161083d565b602435903033036108ae576040519182526001600160a01b0316907f3e38a9410c08ddb4af8b083bfd2b197b1c3e61a651bd1c54c51ebce0cdcdc48e90602090a2005b630fc5e1ab60e41b5f5260045ffd5b346100155760403660031901126100155760206108f06004356108df8161083d565b6024355f525f835260405f206111ee565b54604051908152f35b6001600160e01b031981160361001557565b3461001557602036600319011261001557602060043561092a816108f9565b63ffffffff60e01b16636cdb3d1360e11b8114908115610968575b8115610957575b506040519015158152f35b6301ffc9a760e01b1490505f61094c565b6303a24d0760e21b81149150610945565b634e487b7160e01b5f52603260045260245ffd5b6017548110156109a95760175f52600360205f20910201905f90565b610979565b6040919493926060820195825260208201520152565b3461001557602036600319011261001557600435601754811015610015576109eb9061098d565b508054610a0760026001840154930154604051938493846109ae565b0390f35b606090600319011261001557600435610a238161083d565b906024359060443590565b3461001557610a3c36610a0b565b6006545f9391906001600160a01b031680610af557506005546001600160a01b03165b6001600160a01b03163303610ae657610a76614af6565b73__$3eaf591ed8966daf2821da51125ab266f1$__803b1561001557610ab6935f9360405195869485938493636f246bab60e11b85523060048601613eee565b03915af48015610ae157610ace575b50600160045580f35b610ada91505f90611740565b5f5f610ac5565b613f18565b6396f47d2360e01b5f5260045ffd5b610a5f565b6044359060ff8216820361001557565b9181601f84011215610015578235916001600160401b038311610015576020838186019501011161001557565b805180835260209291819084018484015e5f828201840152601f01601f1916010190565b906020610b6c928181520190610b37565b90565b346100155760403660031901126100155760043560ff81168103610015576024356001600160401b03811161001557610bac903690600401610b0a565b913033036108ae57610bc6610bcc92610a07943691611804565b90614b70565b60405191829182610b5b565b604090600319011261001557600435610bf08161083d565b90602435610b6c8161083d565b3461001557610c0b36610bd8565b6006545f92906001600160a01b031680610c9d57506005546001600160a01b03165b6001600160a01b03163303610ae65773__$3c477d5d68b513e5270f7570f908764970$__91823b156100155760405163055a8d8160e51b8152925f92849283918291610c7d913060048501613f23565b03915af48015610ae157610c8f575080f35b610c9b91505f90611740565b005b610c2d565b90602080835192838152019201905f5b818110610cbf5750505090565b82516001600160a01b0316845260209384019390920191600101610cb2565b610cf660409295949395606083526060830190610ca2565b9460208201520152565b346100155760403660031901126100155760405163054b677d60e11b81525f8180610d3360243560048035908401612cca565b038173__$d22e98e2656d9a6189be97d809b75d9ca7$__5af48015610ae1575f905f925f91610d6e575b50610a079060405193849384610cde565b925050503d805f833e610d818183611740565b8101606082820312610015578151906001600160401b03821161001557610da9918301613f51565b6020820151604090920151610a07610d5d565b6060602091604081019381526040838201528451809452019201905f5b818110610de65750505090565b909192602060a06001926080875180518352848101518584015260408101516040840152606081015160608401520151151560808201520194019101919091610dd9565b3461001557602036600319011261001557610e736020600435610e4c8161083d565b60055460405163805a016360e01b815293849283926001600160a01b03166004840161439c565b038173__$a9219284c3f0d74f57f4dcfc58f5429559$__5af48015610ae157610ea3915f91610eb3575b50614082565b90610a0760405192839283610dbc565b610ed5915060203d602011610edb575b610ecd8183611740565b8101906141b6565b5f610e9d565b503d610ec3565b3461001557604036600319011261001557600435610eff8161083d565b600654602435906001600160a01b031680610f3a57506005546001600160a01b03165b6001600160a01b03163303610ae657610c9b91614b89565b610f22565b3461001557602036600319011261001557600435610f5b614cb7565b7ff316e065e93b4fddef3d2d93a57817985081f76ea9e0ca7417ed5b4b086b1fcb6020601854604051908152a1601855005b3461001557602036600319011261001557610fcc5f610faa614d0c565b604051809381926319c56d4160e21b8352604060048401526044830190610b37565b306024830152038173__$9326044641c87b14e434c703319e7fbd9b$__5af48015610ae157610a07915f91611009575b5060405191829182610b5b565b61102591503d805f833e61101d8183611740565b810190613fb8565b5f610ffc565b6060906003190112610015576004356110438161083d565b9060243590604435610b6c8161083d565b34610015576110623661102b565b6006549091906001600160a01b0316806110ab57506005546001600160a01b03165b6001600160a01b03163303610ae6576110a49261109f614af6565b614d7b565b6001600455005b611084565b34610015576040366003190112610015576004356110cd8161083d565b600654602435906001600160a01b03168061110857506005546001600160a01b03165b6001600160a01b03163303610ae657610c9b91614dd8565b6110f0565b5f91031261001557565b34610015575f36600319011261001557602060405160068152f35b6001600160a01b0316600452602490565b6001600160a01b03909116815260200190565b34610015575f366003190112610015576005546040516001600160a01b039091168152602090f35b6001600160a01b03165f9081527fbc488d3e2575f0f2113dc4d9a0cd6bc52445c6bc28a8974ed97a6ba3ecfd657b6020526040902090565b6001600160a01b03165f9081527fbe5c2328713858b26c97b83c5ace333ac35b55572be4794180ba426b12cc48c46020526040902090565b9060018060a01b03165f5260205260405f2090565b80548210156109a9575f5260205f2001905f90565b34610015576040366003190112610015576004356112358161083d565b6001600160a01b03165f908152600e60205260409020805460243591908210156100155760209161126591611203565b90549060031b1c604051908152f35b34610015575f36600319011261001557602060405160018152f35b34610015576040366003190112610015576004356112ac8161083d565b6024356001600160401b038111610015576112cb903690600401610b0a565b903033036108ae575f83838293610a07956040519283928337810184815203915af46112f561401a565b5060405190151581529081906020820190565b34610015576020366003190112610015576004355f52600b602052602060405f2054604051908152f35b34610015575f3660031901126100155760207fd34312c2e21f45f2b6715cf87d9e919b2098c835582e2b5c6e716490b0dfd0d554604051908152f35b346100155760403660031901126100155760043561138b8161083d565b6024353033036108ae57610c9b91614713565b34610015575f6040366003190112610015576004356024356113bf8161083d565b6006546001600160a01b03168061143757506005546001600160a01b03165b6001600160a01b03163303610ae65773__$9c8bea727f7bd63306a827421d136dff37$__9061140b614ea7565b91803b1561001557610c7d935f9360405195869485938493634961ea3960e01b85523060048601614049565b6113de565b34610015576020366003190112610015576004355f526011602052602060405f2054604051908152f35b3461001557602036600319011261001557602060ff61148f60043561148a8161083d565b61117e565b54166040519015158152f35b34610015576060366003190112610015576024356004356114bb8261083d565b604435913033036108ae576040519283526001600160a01b0316917fae2f87dbf103db294ddd4ab45caa7a914d70bb3d06eeb8a8dc23e03e84548c8d90602090a3005b34610015575f36600319011261001557604051630a89ff0f60e21b815260208160048173__$d22e98e2656d9a6189be97d809b75d9ca7$__5af4908115610ae1575f91611552575b50604051908152602090f35b611574915060203d60201161157a575b61156c8183611740565b810190614073565b5f611546565b503d611562565b346100155761158f36610bd8565b6006545f92906001600160a01b03168061160157506005546001600160a01b03165b6001600160a01b03163303610ae65773__$3c477d5d68b513e5270f7570f908764970$__91823b1561001557604051638461257560e01b8152925f92849283918291610c7d913060048501613f23565b6115b1565b3461001557602036600319011261001557610ea36004356116268161083d565b614082565b346100155760203660031901126100155760206108f060043561164d8161083d565b5f80525f835260405f206111ee565b34610015576110a461166d3661102b565b91611676614af6565b6141e0565b34610015576020366003190112610015576004356116988161083d565b60018060a01b03165f527f22c0a15d444e21db16bbb52e03d65846fb96a18771ae18cefb26e2b75b089ee9602052602060405f2054604051908152f35b634e487b7160e01b5f52604160045260245ffd5b606081019081106001600160401b0382111761170457604052565b6116d5565b61010081019081106001600160401b0382111761170457604052565b60a081019081106001600160401b0382111761170457604052565b601f909101601f19168101906001600160401b0382119082101761170457604052565b6040519061177361010083611740565b565b6001600160401b0381116117045760051b60200190565b9080601f830112156100155781356117a381611775565b926117b16040519485611740565b81845260208085019260051b82010192831161001557602001905b8282106117d95750505090565b81358152602091820191016117cc565b6001600160401b03811161170457601f01601f191660200190565b929192611810826117e9565b9161181e6040519384611740565b829481845281830111610015578281602093845f960137010152565b9080601f8301121561001557816020610b6c93359101611804565b346100155760a0366003190112610015576004356118728161083d565b6024359061187f8261083d565b6044356001600160401b0381116100155761189e90369060040161178c565b6064356001600160401b038111610015576118bd90369060040161178c565b608435939091906001600160401b038511610015576118e3610c9b95369060040161183a565b936143b6565b34610015576020366003190112610015576004356119068161083d565b6001600160a01b039081165f9081527f22c0a15d444e21db16bbb52e03d65846fb96a18771ae18cefb26e2b75b089ee16020908152604091829020549151919092168152f35b3461001557602036600319011261001557602061197360043561196e8161083d565b61440f565b6040519015158152f35b34610015576020366003190112610015576004355f527ffed699897f2561c8a98f833aa3de83c4904370d413fe5fb15abe26e9f8150b30602052602060405f2054604051908152f35b34610015576040366003190112610015576110a46004356119e68161083d565b602435906119f2614af6565b6119fa614cb7565b601354601454604051635bcc7ca960e11b60208201526001600160a01b03909316602484015260448084019490945292825290611a4190611a3c606482611740565b614b16565b506003546001600160a01b0316614f6e565b3461001557604036600319011261001557600435611a708161083d565b6024356006546001600160a01b031680611ba457506005546001600160a01b03165b6001600160a01b03163303610ae657611aa9614af6565b9081906001600160a01b03811615611b9557611ac490614fcf565b5f80805260205290611ae8825f516020615db15f395f51905f526111ee565b6111ee565b54908115611b5c575f1914611b8d575b808311611b6b57508115611b5c57611b4f81611b35847fcfaedf921126ed75cd0b52e9418d816572c256b67104e03066bd3f067f2d53c094615028565b6040519384526001600160a01b0316929081906020820190565b0390a2610c9b6001600455565b63201165f360e21b5f5260045ffd5b60405163406e3ab960e01b8152928392611b89929060048501614477565b0390fd5b915081611af8565b63a9b8048960e01b5f5260045ffd5b611a92565b3461001557608036600319011261001557600435611bc68161083d565b60443590602435606435611bd98161083d565b6006546001600160a01b031680611ca657506005546001600160a01b03165b6001600160a01b03163303610ae657611c0f614af6565b6007549273__$ff68ecfc9a6b7df0c313e683766fad5a92$__803b15610015575f9460c4936040519788968795639120622d60e01b875230600488015260018060a01b031660248701526044860152606485015260018060a01b0316608484015260a48301525af48015610ae157611c8c575b610c9b6001600455565b80611c9a5f611ca093611740565b8061110d565b5f611c82565b611bf8565b3461001557611cb936610a0b565b6006545f9391906001600160a01b031680611d3357506005546001600160a01b03165b6001600160a01b03163303610ae657611cf3614af6565b73__$ff68ecfc9a6b7df0c313e683766fad5a92$__803b1561001557610ab6935f93604051958694859384936302f46e9b60e41b85523060048601613eee565b611cdc565b3461001557611d463661102b565b6006549192916001600160a01b031680611e0457506005546001600160a01b03165b6001600160a01b03163303610ae657611d7f614af6565b611d99611d95611d8e8361117e565b5460ff1690565b1590565b611df55773__$91c961bf2335aa1fea43924da854687380$__803b1561001557611ddd935f936040519586948593849363298a0b4f60e01b85523060048601614049565b03915af48015610ae157611c8c57610c9b6001600455565b6363bc5ecb60e11b5f5260045ffd5b611d68565b346100155760203660031901126100155760405163272048d960e01b8152600480359082015260208160248173__$d22e98e2656d9a6189be97d809b75d9ca7$__5af48015610ae157610a07915f91611e6e575b506040519081529081906020820190565b611e87915060203d60201161157a5761156c8183611740565b5f611e5d565b3461001557602036600319011261001557600435611eaa8161083d565b6001600160a01b039081165f9081527fbc488d3e2575f0f2113dc4d9a0cd6bc52445c6bc28a8974ed97a6ba3ecfd65816020908152604091829020549151919092168152f35b3461001557604036600319011261001557600435611f0d8161083d565b6024353033036108ae57610c9b9161505f565b34610015575f366003190112610015576020600754604051908152f35b90602080835192838152019201905f5b818110611f5a5750505090565b8251845260209384019390920191600101611f4d565b906020610b6c928181520190611f3d565b34610015576040366003190112610015576004356001600160401b038111610015573660238201121561001557806004013590611fbd82611775565b91611fcb6040519384611740565b8083526024602084019160051b8301019136831161001557602401905b82821061202857836024356001600160401b03811161001557610a079161201661201c92369060040161178c565b90614503565b60405191829182611f70565b6020809183356120378161083d565b815201910190611fe8565b346100155760203660031901126100155760043561205f8161083d565b6120676150a5565b612070816150d4565b73__$d22e98e2656d9a6189be97d809b75d9ca7$__90813b1561001557604051635230469160e01b81526001600160a01b0390911660048201819052915f90829060249082905af48015610ae1576120ec575b5033907fb414de90006d2f0dee7e12639f50b309b8fbca8e8e9323c07fd358cef0ce92085f80a3005b80611c9a5f6120fa93611740565b5f6120c3565b34610015575f366003190112610015576020601554604051908152f35b34610015576020366003190112610015576004355f526012602052602060405f2054604051908152f35b34610015575f36600319011261001557602060405160648152f35b34610015575f6040366003190112610015576004356121808161083d565b6024359061218c614af6565b612194614cb7565b73__$91c961bf2335aa1fea43924da854687380$__91823b1561001557604051636042127160e11b8152925f92849283918291610ab691306004850161457d565b34610015576020366003190112610015576004356121f28161083d565b3033036108ae57612204602091614fcf565b6040516001600160a01b039091168152f35b34610015576020366003190112610015576004356122338161083d565b60018060a01b03165f527f22c0a15d444e21db16bbb52e03d65846fb96a18771ae18cefb26e2b75b089ee0602052602060ff60405f2054166040519015158152f35b346100155761228336610a0b565b6006545f9391906001600160a01b0316806122fd57506005546001600160a01b03165b6001600160a01b03163303610ae6576122bd614af6565b73__$3eaf591ed8966daf2821da51125ab266f1$__803b1561001557610ab6935f936040519586948593849363379d191f60e01b85523060048601613eee565b6122a6565b346100155760203660031901126100155760043561231f8161083d565b60018060a01b03165f52600f602052602060405f2054604051908152f35b34610015576020366003190112610015576004355f527ffed699897f2561c8a98f833aa3de83c4904370d413fe5fb15abe26e9f8150b2d602052602060405f2054604051908152f35b906060926123a36123b19297969597608085526080850190610ca2565b908382036020850152611f3d565b9460408201520152565b3461001557604036600319011261001557604051631b98daa360e21b81525f81806123ee60243560048035908401612cca565b038173__$d22e98e2656d9a6189be97d809b75d9ca7$__5af48015610ae1575f5f915f5f91612429575b90610a079160405194859485612386565b5050505061244b610a07913d805f833e6124438183611740565b8101906145fc565b91935083929190612418565b346100155761246536610a0b565b612470929192614af6565b612478614cb7565b6001600160a01b03821615611b95578015611b5c576124ab73__$ff68ecfc9a6b7df0c313e683766fad5a92$__92614fcf565b91803b1561001557611ddd935f9360405195869485938493626fbc3360e31b85523060048601613eee565b34610015575f366003190112610015576124ee6151b0565b600380546001600160a01b031981169091555f906001600160a01b03165f516020615d915f395f51905f528280a3005b604060031982011261001557600435906001600160401b0382116100155761254891600401610b0a565b9091602435610b6c8161083d565b34610015576125643661251e565b6006549091906001600160a01b03168061259e57506005546001600160a01b03165b6001600160a01b03163303610ae657610c9b92614653565b612586565b34610015576125b13661251e565b6006546001600160a01b03168061266c57506005546001600160a01b03165b6001600160a01b03163303610ae6576125e7614af6565b73__$14fcd45fd929aea0b8f272435d174b619d$__612604614ea7565b93813b15610015575f9361263d936040519687958694859463add0055d60e01b86523060048701526080602487015260848601916146e0565b6001600160a01b0392831660448501529116606483015203915af48015610ae157611c8c57610c9b6001600455565b6125d0565b346100155760403660031901126100155760043561268e8161083d565b6024353033036108ae57610c9b916151d7565b346100155760c0366003190112610015576004356126be8161083d565b602435906126cb8261083d565b604435916064359060843560a435913033036108ae576127247fd8315aa093986599acfce9ddc9df890135154ffe58abebb49d1874c03575f9d99360405193849360018060a01b03169760018060a01b031696846109ae565b0390a4005b34610015576020366003190112610015576004356127468161083d565b60018060a01b03165f526009602052602060ff60405f2054166040519015158152f35b3461001557604036600319011261001557602061126560043561278b8161083d565b6001600160a01b03165f908152600e83526040902060243590611203565b346100155760a0366003190112610015576004356127c6816108f9565b6024356127d28161083d565b604435606435906084356006549093906001600160a01b03168061289c57506005546001600160a01b03165b6001600160a01b03163303610ae657612815614ea7565b6040516333033a9960e21b81523060048201526001600160a01b0391821660248201526001600160e01b03199096166044870152166064850152608484015260a483015260c482015260208160e48173__$9c8bea727f7bd63306a827421d136dff37$__5af48015610ae157610a07915f91611e6e57506040519081529081906020820190565b6127fe565b34610015576020366003190112610015576004356128bd614cb7565b80156128f4576020817fd45b01a2f21a7aa8a0f57023efdce73147de071e77875c3f4d486b1e13eaef7092600755604051908152a1005b6376024b7160e01b5f5260045ffd5b346100155761291136610a0b565b6040516344217f2360e11b81526001600160a01b039093166004840152602483019190915260448201525f8160648173__$d22e98e2656d9a6189be97d809b75d9ca7$__5af48015610ae1575f5f915f5f916124295790610a079160405194859485612386565b8015150361001557565b34610015576020366003190112610015577fc52867146282c253c04e94eb2a948478a1f7ef84cf2d6f5864facc99f2203f2c60206004356129c281612978565b6129ca614cb7565b151560ff19600a541660ff821617600a55604051908152a1005b3461001557602036600319011261001557600435612a018161083d565b6006546001600160a01b031680612a9557506005546001600160a01b03165b6001600160a01b03163303610ae65773__$3c477d5d68b513e5270f7570f908764970$__90813b1561001557604051630c94249760e21b81523060048201526001600160a01b039091166024820152905f90829060449082905af48015610ae157612a8757005b80611c9a5f610c9b93611740565b612a20565b3461001557606036600319011261001557604435600435602435612abc614cb7565b8115612b6c576017549060405193612ad3856116e9565b83855260208501918083526040860195828752600160401b8510156117045760018501601755612b028561098d565b919091612b67577fc9553df3224b08515381089b4a0e07d62144ba87c402485fabd66899cadc2ab197612b629560029251845551600184015551910155604051948594859094939260609260808301968352602083015260408201520152565b0390a1005b614700565b639033099360e01b5f5260045ffd5b34610015575f366003190112610015576003546040516001600160a01b039091168152602090f35b3461001557602036600319011261001557600435612bc08161083d565b60018060a01b03165f526010602052602060405f2054604051908152f35b34610015575f36600319011261001557604051632555ffd160e21b815260208160048173__$d22e98e2656d9a6189be97d809b75d9ca7$__5af4908115610ae1575f916115525750604051908152602090f35b34610015575f366003190112610015576006546040516001600160a01b039091168152602090f35b34610015575f60203660031901126100155760043560ff612c793361117e565b541615611df55773__$9c8bea727f7bd63306a827421d136dff37$__90612c9e614ea7565b90823b1561001557604051633225b39f60e01b8152925f92849283918291610c7d91306004850161457d565b908152602081019190915260400190565b34610015575f366003190112610015573033036108ae5760135460145490610a0760405192839283612cca565b3461001557602036600319011261001557600435612d258161083d565b60018060a01b03165f52600e602052602060405f2054604051908152f35b34610015575f366003190112610015576020600854604051908152f35b34610015575f36600319011261001557610a07612d7b614d0c565b604051918291602083526020830190610b37565b81516001600160401b039081168252602080840151909116908201526040808301516001600160801b03908116918301919091526060808401519091169082015261010081019291611773919060e090819060808181015115159085015260a08181015160ff169085015260c08181015160ff169085015201516001600160801b0316910152565b34610015576020366003190112610015576004355f60e0604051612e3a81611709565b8281528260208201528260408201528260608201528260808201528260a08201528260c082015201525f527fe5fcefe92466b78c655fa732b80b16e07a00f2a897e833e17d9914703cad5632602052610a0760405f20612f44612f34600260405193612ea585611709565b80546001600160401b038082168752604082901c166020870152612ed69060801c6001600160801b03166040870152565b60018101546001600160801b0381166060870152612f2690612f1c90612f06608082901c60ff16151560808a0152565b60ff608882901c1660a089015260901c60ff1690565b60ff1660c0870152565b01546001600160801b031690565b6001600160801b031660e0830152565b60405191829182612d8f565b604090600319011261001557600435612f688161083d565b90602435610b6c81612978565b3461001557612f8336612f50565b6001600160a01b038216918215612fee5781612fad612fbe92335f52600160205260405f206111ee565b9060ff801983541691151516179055565b60405190151581527f17307eab39ab6107e8899845ad3d59bd9653f200f220920489ca2b5937696c3160203392a3005b62ced3e160e81b5f525f60045260245ffd5b34610015576040366003190112610015576004356001600160401b0381116100155736602382011215610015576004810135906001600160401b038211610015573660248360051b8301011161001557610c9b9160248035926130628461083d565b0161473f565b34610015576020366003190112610015576004356001600160401b03811161001557366023820112156100155760048101356001600160401b038111610015573660246060830284010111610015576024610c9b9201614948565b34610015575f366003190112610015576020601854604051908152f35b34610015575f36600319011261001557602060405164174876e8008152f35b34610015575f366003190112610015573033036108ae576003546040516001600160a01b039091168152602090f35b34610015575f366003190112610015576020601354604051908152f35b34610015576040366003190112610015576004356131688161083d565b60065460243591906001600160a01b0316806131b957506005546001600160a01b03165b6001600160a01b03163303610ae6576110a4916131a7614af6565b6003546001600160a01b031691614d7b565b61318c565b34610015576040366003190112610015576007546040805163cc383d9f60e01b815291829081906131f890602435600480359085016109ae565b038173__$ff68ecfc9a6b7df0c313e683766fad5a92$__5af4908115610ae1575f905f92613231575b50610a0760405192839283612cca565b9150506040813d604011613263575b8161324d60409383611740565b810103126100155760208151910151905f613221565b3d9150613240565b34610015576020366003190112610015576004355f52600d602052602060405f2054604051908152f35b34610015575f366003190112610015573033036108ae5760ff60065460a01c1660098110156132cd5760405160ff9091168152602090f35b634e487b7160e01b5f52602160045260245ffd5b34610015576020366003190112610015576004355f527fd34312c2e21f45f2b6715cf87d9e919b2098c835582e2b5c6e716490b0dfd0d4602052602060405f2054604051908152f35b34610015575f366003190112610015573033036108ae576020600754604051908152f35b346100155761335c36610a0b565b913033036108ae57602092604051926133758585611740565b5f84526001600160a01b03831691821561348a576133929161578f565b9161339f8383865f615456565b81516001036133bc57509380610c9b950151910151915f33615cb2565b83949192933b6133c857005b6133ee935f87946040519687958694859363bc197c8160e01b8552853360048701615c26565b03925af15f918161345b575b5061342c575061340861401a565b805192908361342757632bfa23e760e11b5f5261342483611132565b5ffd5b019050fd5b9091506001600160e01b0319166343e6837f60e01b0161344857005b632bfa23e760e11b5f5261342490611132565b61347c919250843d8611613483575b6134748183611740565b810190615c11565b905f6133fa565b503d61346a565b632bfa23e760e11b5f525f60045260245ffd5b34610015576020366003190112610015576004356134ba8161083d565b6134c26150a5565b73__$d22e98e2656d9a6189be97d809b75d9ca7$__90813b15610015576040516360b1949760e11b81526001600160a01b0390911660048201819052915f90829060249082905af48015610ae15761352c575b505f33915f516020615d515f395f51905f528280a4005b80611c9a5f61353a93611740565b5f613515565b34610015575f3660031901126100155760205f516020615d715f395f51905f5254604051908152f35b34610015575f3660031901126100155760206040515f8152f35b34610015576040366003190112610015576004356135a08161083d565b6024353033036108ae57610c9b916149e5565b34610015576020366003190112610015576004356135d08161083d565b3033036108ae57611973602091615312565b34610015576020366003190112610015576004355f52600c602052602060405f2054604051908152f35b3461001557602036600319011261001557600435613628614cb7565b7f1c8121c98d871a1523a6112e29ac660378afbcb9b921cff8f187c3da35d170818160085461365c60405192839283612cca565b0390a1600855005b346100155760a0366003190112610015576004356136818161083d565b60243561368d8161083d565b613695610afa565b90606435608435913033036108ae577faec7eac010683474b50da2ca2793836009e34ef09022b5ec5d16de3342dbb7469260609260ff604051961686526020860152604085015260018060a01b03169360018060a01b031692a3005b34610015575f36600319011261001557602060ff600a54166040519015158152f35b34610015575f366003190112610015576040517f00000000000000000000000000000000000000000000000000000000000000006001600160a01b03168152602090f35b346100155761376536610a0b565b903033036108ae57610c9b92614f6e565b34610015576020366003190112610015576004355f526016602052602060405f2054604051908152f35b6060906003190112610015576004356137b88161083d565b906024356137c58161083d565b9060443590565b34610015576137da366137a0565b91903033036108ae575f808052602052613801825f516020615db15f395f51905f526111ee565b5480841161383e575061381261449b565b9061381b61449b565b928251156109a9575f60208401528351156109a957610c9b946020850152615456565b82611b898560405193849363406e3ab960e01b855260048501614477565b34610015575f366003190112610015573033036108ae57602060ff601a5416604051908152f35b3461001557613891366137a0565b903033036108ae576040519182526001600160a01b039081169216907f6ac4f60455173f2148d89d52868ac4ffb14111720d245aa36ad26e0d7e64c59b90602090a3005b34610015576020366003190112610015576004356138f28161083d565b60405163e2f9727160e01b81526001600160a01b03909116600482015260208160248173__$d22e98e2656d9a6189be97d809b75d9ca7$__5af48015610ae157610a07915f91611e6e57506040519081529081906020820190565b3461001557610c9b61395e36612f50565b90613967614cb7565b60018060a01b03165f52600960205260405f209060ff801983541691151516179055565b34610015575f3660031901126100155760ff60065460a01c1660405160098210156132cd576020918152f35b34610015576020366003190112610015577f22347ec833323e597ceae8cffe5b0b7024b50a318357296b6ad3a548e1c66ec76004356139f46150a5565b5f516020615d715f395f51905f5254815f516020615d715f395f51905f5255612b6260405192839283612cca565b3461001557602060ff61148f613a3736610bd8565b6001600160a01b039091165f90815260018552604090206111ee565b34610015575f604036600319011261001557600435613a718161083d565b60065460243591906001600160a01b031680613aed57506005546001600160a01b03165b6001600160a01b03163303610ae657613aac614af6565b73__$ff68ecfc9a6b7df0c313e683766fad5a92$__91823b15610015576040516351aa172f60e01b8152925f92849283918291610ab691306004850161457d565b613a95565b3461001557613b0036610bd8565b90613b096150a5565b613b12816150d4565b613b1b826150d4565b73__$d22e98e2656d9a6189be97d809b75d9ca7$__803b15610015575f604051809263eae134fd60e01b82528180613b5788886004840161439c565b03915af48015610ae157613b89575b5033916001600160a01b0390811691165f516020615d515f395f51905f525f80a4005b80613b955f8093611740565b800312610015575f613b66565b3461001557613bb0366137a0565b903033036108ae576040519182526001600160a01b039081169216907f01ff503732e46b833fc2900bbc89c476968a545f18c9ec757e33526c88b4002e90602090a3005b34610015575f36600319011261001557602060405160028152f35b346100155760a036600319011261001557602435600435613c2f8261083d565b60443590613c3c8261083d565b606435916084353033036108ae576040516001600160a01b0392831695909216937f3bf2de114e2e7636c289f21be023528e47d89b45e873b976c78989c3ddc683f592918291612724919083612cca565b346100155760a036600319011261001557600435613caa8161083d565b602435613cb68161083d565b60443590606435926084356001600160401b03811161001557613cdd90369060040161183a565b926001600160a01b0382163381141580613d47575b613d31576001600160a01b0384161561348a5715613d1f57610c9b94613d179161578f565b92909161558b565b626a0d4560e21b5f525f60045260245ffd5b63711bec9160e11b5f523360045260245260445ffd5b50805f52600160205260ff613d5f3360405f206111ee565b541615613cf2565b3461001557602036600319011261001557600435613d848161083d565b613d8c6151b0565b6001600160a01b03168015613dcb57600380546001600160a01b0319811683179091556001600160a01b03165f516020615d915f395f51905f525f80a3005b631e4fbdf760e01b5f525f60045260245ffd5b34610015575f366003190112610015576020601454604051908152f35b34610015575f36600319011261001557602060ff601a5416604051908152f35b3461001557602036600319011261001557600435613e388161083d565b613e406150a5565b73__$d22e98e2656d9a6189be97d809b75d9ca7$__90813b156100155760405160016219368360e21b031981526001600160a01b0390911660048201819052915f90829060249082905af48015610ae157613ebf575b5033907fd6aa15bb31cca0774d36bdd90707bb8705e5031d7392febcb7678dd8e1c9c2405f80a3005b80611c9a5f613ecd93611740565b5f613e96565b34610015575f366003190112610015576020604051601b8152f35b6001600160a01b039182168152911660208201526040810191909152606081019190915260800190565b6040513d5f823e3d90fd5b6001600160a01b0391821681529181166020830152909116604082015260600190565b51906117738261083d565b9080601f83011215610015578151613f6881611775565b92613f766040519485611740565b81845260208085019260051b82010192831161001557602001905b828210613f9e5750505090565b602080918351613fad8161083d565b815201910190613f91565b602081830312610015578051906001600160401b038211610015570181601f8201121561001557805190613feb826117e9565b92613ff96040519485611740565b8284526020838301011161001557815f9260208093018386015e8301015290565b3d15614044573d9061402b826117e9565b916140396040519384611740565b82523d5f602084013e565b606090565b6001600160a01b039182168152918116602083015260408201929092529116606082015260800190565b90816020910312610015575190565b604051630789b7b160e51b81523060048201526001600160a01b039091166024820152905f8260448173__$c358c1027d02ab1c17f0ade0d7945ec897$__5af4918215610ae1575f905f936140d657509190565b9250503d805f843e6140e88184611740565b820191604081840312610015578051602082015190916001600160401b038211610015570183601f820112156100155780519061412482611775565b946141326040519687611740565b828652602060a081880194028301019181831161001557602001925b82841061415d57505050509190565b60a08483031261001557602060a09160405161417881611725565b865181528287015183820152604087015160408201526060870151606082015260808701516141a681612978565b608082015281520193019261414e565b908160209103126100155751610b6c8161083d565b908160209103126100155751610b6c81612978565b91908015614397576001600160a01b038316928315611b95576001600160a01b03831615611b955760405163c45a015560e01b8152602081600481885afa908115610ae1575f91614378575b506001600160a01b03168015611b955760405163054c14ed60e51b8152602081600481855afa908115610ae1575f91614359575b506001600160a01b0316801561434a57330361433c576142989160209160405180809581946303330c7960e41b835260048301611143565b03915afa908115610ae1575f9161430d575b50156142fe57602060049360405194858092638da5cb5b60e01b82525afa8015610ae157611773935f916142df575b50614d7b565b6142f8915060203d602011610edb57610ecd8183611740565b5f6142d9565b632ad05f3360e11b5f5260045ffd5b61432f915060203d602011614335575b6143278183611740565b8101906141cb565b5f6142aa565b503d61431d565b62645ab960e51b5f5260045ffd5b63ab82bb9960e01b5f5260045ffd5b614372915060203d602011610edb57610ecd8183611740565b5f614260565b614391915060203d602011610edb57610ecd8183611740565b5f61422c565b505050565b6001600160a01b0391821681529116602082015260400190565b939291906001600160a01b03851633811415806143ef575b613d31576001600160a01b0382161561348a5715613d1f576117739461558b565b50805f52600160205260ff6144073360405f206111ee565b5416156143ce565b60ff600a541615614471575f805260096020527fec8156718a8372b1db44bb411437d0870f3e3790d4a08526d024ce1b0b668f6b5460ff16908115614452575090565b6001600160a01b03165f9081526009602052604090205460ff16919050565b50600190565b606091949392608082019560018060a01b031682525f602083015260408201520152565b604080519091906144ac8382611740565b6001815291601f1901366020840137565b906144c782611775565b6144d46040519182611740565b82815280926144e5601f1991611775565b0190602036910137565b80518210156109a95760209160051b010190565b9190918051835180820361456857505061451d81516144bd565b905f5b8151811015614561578061454f60019260051b602080828701015191890101515f525f60205260405f206111ee565b5461455a82866144ef565b5201614520565b5090925050565b635b05999160e01b5f5260045260245260445ffd5b6001600160a01b03918216815291166020820152604081019190915260600190565b9080601f830112156100155781516145b681611775565b926145c46040519485611740565b81845260208085019260051b82010192831161001557602001905b8282106145ec5750505090565b81518152602091820191016145df565b9190916080818403126100155780516001600160401b0381116100155783614625918301613f51565b602082015190936001600160401b0382116100155761464591830161459f565b916060604083015192015190565b9061465c614af6565b73__$14fcd45fd929aea0b8f272435d174b619d$__803b15610015575f926146a992604051958694859384936379616bbd60e11b85523060048601526060602486015260648501916146e0565b6001600160a01b03909116604483015203915af48015610ae1576146d0575b506001600455565b5f6146da91611740565b5f6146c8565b908060209392818452848401375f828201840152601f01601f1916010190565b634e487b7160e01b5f525f60045260245ffd5b906001600160a01b038216158015614737575b614733576117739161520c565b5050565b508015614726565b600654909291906001600160a01b03168061488557506005546001600160a01b03165b6001600160a01b03163303610ae657614779614af6565b73__$14fcd45fd929aea0b8f272435d174b619d$__91823b15610015579290604051938492633d88d6a560e11b8452826064850130600487015260606024870152526084840160848460051b86010193825f90601e19813603015b838310614826575050506001600160a01b039093166044860152505f949284925082915003915af48015610ae157614812575b506117736001600455565b80611c9a5f61482093611740565b5f614807565b9193959690929497506083198a8203018652873582811215610015578301602081019190356001600160401b0381116100155780360383136100155761487260209283926001956146e0565b99019601930190918997969594926147d4565b614762565b91908110156109a9576060020190565b634e487b7160e01b5f52601160045260245ffd5b6017545f601755806148bd5750565b806003029060038204036148fb5760175f5260205f205f5b8281106148e157505050565b805f600260039385018281558260018201550155016148d5565b61489a565b601754600160401b81101561170457600181016017556017548110156109a957604060029160175f52600360205f209102019280358455602081013560018501550135910155565b614950614cb7565b81156149d6575f5b8281106149bd57506149686148ae565b5f5b8281106149a15750506040519081527f2f291eaf494dc7eca20457441a1df7d9119f0c0d764309daf9cb6b148810ee3690602090a1565b806149b76149b2600193868661488a565b614900565b0161496a565b6149c881848461488a565b3515612b6c57600101614958565b6308ba5b6160e01b5f5260045ffd5b6001600160a01b03165f908152600e60205260408120805490915b818110614a3a5750600160401b81101561170457614a2391600182018155611203565b819291549060031b91821b915f19901b1916179055565b83614a458285611203565b90549060031b1c14614a5957600101614a00565b50505050565b600554604051635f62570d60e11b81526001600160a01b0390911660048201526001600160e01b03195f3516602482015260208160448173__$071cf681b03e9c24fcf6005bc28358a856$__5af4908115610ae1575f9182918291614ad7575b50368280378136915af43d90815f803e15613424575ff35b614af0915060203d602011610edb57610ecd8183611740565b5f614abf565b600260045414614b07576002600455565b633ee5aeb560e01b5f5260045ffd5b5f8091614b236004614f15565b602082519201905af490614b3561401a565b9115614b3d57565b5080519081614b6b5760405163dccff66960e01b815260206004820152908190611b89906024830190610b37565b602001fd5b5f91614b238392614f15565b919082018092116148fb57565b906001600160a01b03821680158015614caf575b614397575f527fbe5c2328713858b26c97b83c5ace333ac35b55572be4794180ba426b12cc48be60205260405f208054928284018094116148fb57600893614be592556111b6565b610e1042045f5260205260405f209060098201614c06611d95825460ff1690565b614ca0575b50614c175f8354614b7c565b8255614c2860018301918254614b7c565b905560028101614c395f8254614b7c565b905560038101614c4a5f8254614b7c565b905560048101614c5b5f8254614b7c565b905560058101614c6c5f8254614b7c565b905560068101614c7d5f8254614b7c565b905560078101614c8e5f8254614b7c565b905501614c9c5f8254614b7c565b9055565b614ca9906151ff565b5f614c0b565b508115614b9d565b6006546001600160a01b031680614d0757506005546001600160a01b03165b6003546001600160a01b03163314159081614cf3575b506108ae57565b6001600160a01b031633141590505f614cec565b614cd6565b6005546001600160a01b03168015818115614d71575b5061434a575f60049160405192838092634f9e8d1560e11b82525afa908115610ae1575f91614d57575b5080511561434a5790565b614d6b91503d805f833e61101d8183611740565b5f614d4c565b90503b155f614d22565b909173__$91c961bf2335aa1fea43924da854687380$__803b1561001557614dbd935f936040519586948593849363f3523b7360e01b85523060048601614049565b03915af48015610ae157614dce5750565b5f61177391611740565b906001600160a01b03821680158015614e9f575b614397575f527fbe5c2328713858b26c97b83c5ace333ac35b55572be4794180ba426b12cc48bf60205260405f208054928284018094116148fb57600893614e4a9255614e3d610e104204916111b6565b905f5260205260405f2090565b9060098201614e5d611d95825460ff1690565b614e90575b50614e6e5f8354614b7c565b825560018201614e7f5f8254614b7c565b9055614c3960028301918254614b7c565b614e99906151ff565b5f614e62565b508115614dec565b600554604051636664034560e11b81526001600160a01b0390911660048201526003602482015260208160448173__$071cf681b03e9c24fcf6005bc28358a856$__5af4908115610ae1575f91614efc575090565b610b6c915060203d602011610edb57610ecd8183611740565b600554604051636664034560e11b81526001600160a01b03909116600482015260ff91909116602482015260208160448173__$071cf681b03e9c24fcf6005bc28358a856$__5af4908115610ae1575f91614efc575090565b91601354828103918183116148fb5760145490808203948286116148fb576001600160a01b03871615938415614fb0575b505050506143975761177392615696565b1492509082614fc5575b50505f808080614f9f565b1490505f80614fba565b6005546040516306e0faf160e21b81529160209183918291614ffe91906001600160a01b03166004840161439c565b038173__$a9219284c3f0d74f57f4dcfc58f5429559$__5af4908115610ae1575f91614efc575090565b906001600160a01b03821615613d1f57611773916150475f928361578f565b92909181604051615059602082611740565b52615456565b81156147335761506e90615312565b6150a257601754156150a25761508a6150856157b4565b61098d565b50541161509357565b63559d06d760e01b5f5260045ffd5b50565b6003546001600160a01b0316331415806150c0575b6108ae57565b5060ff6150cc3361117e565b5416156150ba565b6001600160a01b03811615611b955760055460049060209061510c90615100906001600160a01b031681565b6001600160a01b031690565b604051630e83251360e01b815292839182905afa918215610ae157615151926020925f91615193575b5060405180809581946303330c7960e41b835260048301611143565b03916001600160a01b03165afa908115610ae1575f91615174575b50156142fe57565b61518d915060203d602011614335576143278183611740565b5f61516c565b6151aa9150833d8511610edb57610ecd8183611740565b5f615135565b6003546001600160a01b031633036151c457565b63118cdaa760e01b5f523360045260245ffd5b906001600160a01b0382161580156151f7575b6147335761177391615832565b5080156151ea565b805460ff19166001179055565b906001600160a01b0382168015801561530a575b614397575f527fbe5c2328713858b26c97b83c5ace333ac35b55572be4794180ba426b12cc48c360205260405f208054928284018094116148fb576008936152719255614e3d610e104204916111b6565b9060098201615284611d95825460ff1690565b6152fb575b506152955f8354614b7c565b8255600182016152a65f8254614b7c565b9055600282016152b75f8254614b7c565b9055600382016152c85f8254614b7c565b9055600482016152d95f8254614b7c565b9055600582016152ea5f8254614b7c565b9055614c7d60068301918254614b7c565b615304906151ff565b5f615289565b508115615220565b6001600160a01b0381165f908152600f60205260409020548015159182615362575b508161533e575090565b90505f52600b60205260405f2054801515908161535a57501590565b905042111590565b816153789293505f525f60205260405f206111ee565b541515905f615334565b6001600160a01b0391821681529181166020830152909116604082015260c06060820181905290926153cb9290916153bd9190850190611f3d565b908382036080850152611f3d565b81810360a09092019190915281516001600160a01b039081168252602080840151909116908201526040828101516001600160a01b031690820152606082015160608201526080820151608082015260e08061544d61543b60a086015161010060a0870152610100860190610ca2565b60c086015185820360c0870152611f3d565b93015191015290565b9190915f60e060405161546881611709565b828152826020820152826040820152826060820152826080820152606060a0820152606060c08201520152825f826154a760055460018060a01b031690565b6154c78887604051998a958695637bd8ece960e11b8752600487016159ed565b038173__$a9219284c3f0d74f57f4dcfc58f5429559$__5af4938415610ae1575f94615567575b50835161550890869085906001600160a01b031685615a58565b73__$22d83b6ff1da5ba98b89a83b211093667b$__91823b15610015576155485f95604051978896879586956304c70af760e31b87523060048801615382565b03915af48015610ae1576155595750565b80611c9a5f61177393611740565b6155849194503d805f833e61557c8183611740565b810190615927565b925f6154ee565b919392909361559c82828786615456565b6001600160a01b038516806155b4575b505050505050565b81516001036155dd5750936020806155d29601519201519233615cb2565b5f80808080806155ac565b90853b6155f0575b5050505050506155d2565b5f6020946156156040519788968795869463bc197c8160e01b86523360048701615c26565b03925af15f9181615675575b50615652575061562f61401a565b805191908261564b57632bfa23e760e11b5f5261342482611132565b6020915001fd5b6001600160e01b0319166343e6837f60e01b0161344857505f80808080806155e5565b61568f91925060203d602011613483576134748183611740565b905f615621565b6001600160a01b03811615801561577e575b61439757614c9c916156bb6008926111b6565b610e1042045f5260205260405f2090600982016156dc611d95825460ff1690565b61576f575b506156ed5f8354614b7c565b8255600182016156fe5f8254614b7c565b90556002820161570f5f8254614b7c565b9055600382016157205f8254614b7c565b9055600482016157315f8254614b7c565b9055600582016157425f8254614b7c565b9055600682016157535f8254614b7c565b905561576460078301918254614b7c565b905501918254614b7c565b615778906151ff565b5f6156e1565b50811580156156a8575082156156a8565b9160405192600184526020840152604083019160018352606084015260808301604052565b601754801561582c575f90601754156109a95760175f527fc624b66cc0138b8fabc209247f72d758e1cf3343756d543badbf24212bed8c155460015b8281106157fd5750505090565b816158078261098d565b505410615817575b6001016157f0565b809350615824915061098d565b50548261580f565b505f1990565b906001600160a01b0382168015801561591f575b614397575f527fbe5c2328713858b26c97b83c5ace333ac35b55572be4794180ba426b12cc48c260205260405f208054928284018094116148fb576008936158979255614e3d610e104204916111b6565b90600982016158aa611d95825460ff1690565b615910575b506158bb5f8354614b7c565b8255600182016158cc5f8254614b7c565b9055600282016158dd5f8254614b7c565b9055600382016158ee5f8254614b7c565b9055600482016158ff5f8254614b7c565b9055614c6c60058301918254614b7c565b615919906151ff565b5f6158af565b508115615846565b602081830312610015578051906001600160401b0382116100155701906101008282031261001557615957611763565b9161596181613f46565b835261596f60208201613f46565b602084015261598060408201613f46565b6040840152606081810151908401526080808201519084015260a08101516001600160401b03811161001557826159b8918301613f51565b60a084015260c08101516001600160401b0381116100155760e0926159de91830161459f565b60c0840152015160e082015290565b6001600160a01b0391821681529181166020830152909116604082015260a060608201819052610b6c939192615a2591840190611f3d565b916080818403910152611f3d565b9091615a4a610b6c93604084526040840190611f3d565b916020818403910152611f3d565b9392918051835190818103615bfc5750505f5b8151811015615b57578060051b90602080838501015192860101518460018060a01b038916615ada575b6001936001600160a01b038216615ab0575b50505001615a6b565b615ad091611ae3615ac8925f525f60205260405f2090565b918254614b7c565b90555f8481615aa7565b509091615af288611ae3835f525f60205260405f2090565b54828110615b2057829160019493879203615b188b611ae3845f525f60205260405f2090565b559350615a95565b6040516303dee4c560e01b81526001600160a01b038a16600482015260248101919091526044810183905260648101829052608490fd5b508051939493919291600103615bb9576020908101519101516040516001600160a01b03938416949093169233927fc3d58168c5ae7397731d063d5bbf3d657854427343f4c083240f7aacaa2d0f62928291615bb4919083612cca565b0390a4565b6040516001600160a01b03938416949093169233927f4a39dc06d4c0dbc64b70af90fd698a233a518aa5d07e595d983b8c0526c8f7fb928291615bb49183615a33565b635b05999160e01b5f5260045260245260445ffd5b908160209103126100155751610b6c816108f9565b6001600160a01b0391821681529116602082015260a060408201819052610b6c9491939192615c6b9291615c5d9190860190611f3d565b908482036060860152611f3d565b916080818403910152610b37565b6001600160a01b039182168152911660208201526040810191909152606081019190915260a060808201819052610b6c92910190610b37565b9091949293853b615cc557505050505050565b602093615ce791604051968795869563f23a6e6160e01b875260048701615c79565b03815f6001600160a01b0387165af15f9181615d2f575b50615d0c575061562f61401a565b6001600160e01b031916630dc5919f60e01b0161344857505f80808080806155ac565b615d4991925060203d602011613483576134748183611740565b905f615cfe56fef1b2bf0f075c4489d90ad473efa5fb2849d46fa0376db8fab751a98e03b3ce1b22c0a15d444e21db16bbb52e03d65846fb96a18771ae18cefb26e2b75b089ee28be0079c531659141344cd1fd0a4f28419497f9722a3daafe3b4186f6b6457e0ad3228b676f7d3cd4284a5443f17f1962b36e491b30a40b2405849e597ba5fb5a164736f6c6343000821000abc488d3e2575f0f2113dc4d9a0cd6bc52445c6bc28a8974ed97a6ba3ecfd657c",
  "linkReferences": {
    "project/src/BeamioUserCard/BeamioUserCardAdminGatewayLib.sol": {
      "BeamioUserCardAdminGatewayLib": [
        {
          "length": 20,
          "start": 4225
        },
        {
          "length": 20,
          "start": 6661
        },
        {
          "length": 20,
          "start": 11892
        }
      ]
    },
    "project/src/BeamioUserCard/BeamioUserCardFaucetGatewayLib.sol": {
      "BeamioUserCardFaucetGatewayLib": [
        {
          "length": 20,
          "start": 3771
        },
        {
          "length": 20,
          "start": 9986
        }
      ]
    },
    "project/src/BeamioUserCard/BeamioUserCardFormattingLib.sol": {
      "BeamioUserCardFormattingLib": [
        {
          "length": 20,
          "start": 5145
        }
      ]
    },
    "project/src/BeamioUserCard/BeamioUserCardGatewayMintLib.sol": {
      "BeamioUserCardGatewayMintLib": [
        {
          "length": 20,
          "start": 8674
        },
        {
          "length": 20,
          "start": 9689
        },
        {
          "length": 20,
          "start": 20930
        }
      ]
    },
    "project/src/BeamioUserCard/BeamioUserCardGovernanceLib.sol": {
      "BeamioUserCardGovernanceLib": [
        {
          "length": 20,
          "start": 6194
        },
        {
          "length": 20,
          "start": 11433
        },
        {
          "length": 20,
          "start": 12485
        }
      ]
    },
    "project/src/BeamioUserCard/BeamioUserCardIssuedNftGatewayLib.sol": {
      "BeamioUserCardIssuedNftGatewayLib": [
        {
          "length": 20,
          "start": 8280
        },
        {
          "length": 20,
          "start": 8504
        },
        {
          "length": 20,
          "start": 10453
        },
        {
          "length": 20,
          "start": 13887
        },
        {
          "length": 20,
          "start": 16113
        }
      ]
    },
    "project/src/BeamioUserCard/BeamioUserCardModuleRouterLib.sol": {
      "BeamioUserCardModuleRouterLib": [
        {
          "length": 20,
          "start": 20187
        },
        {
          "length": 20,
          "start": 21273
        },
        {
          "length": 20,
          "start": 21387
        }
      ]
    },
    "project/src/BeamioUserCard/BeamioUserCardRedeemGatewayLib.sol": {
      "BeamioUserCardRedeemGatewayLib": [
        {
          "length": 20,
          "start": 10796
        },
        {
          "length": 20,
          "start": 19105
        },
        {
          "length": 20,
          "start": 19390
        }
      ]
    },
    "project/src/BeamioUserCard/BeamioUserCardReferrerLib.sol": {
      "BeamioUserCardReferrerLib": [
        {
          "length": 20,
          "start": 4474
        },
        {
          "length": 20,
          "start": 6502
        },
        {
          "length": 20,
          "start": 8826
        },
        {
          "length": 20,
          "start": 9397
        },
        {
          "length": 20,
          "start": 10293
        },
        {
          "length": 20,
          "start": 11653
        },
        {
          "length": 20,
          "start": 12358
        },
        {
          "length": 20,
          "start": 14599
        },
        {
          "length": 20,
          "start": 15706
        },
        {
          "length": 20,
          "start": 16224
        },
        {
          "length": 20,
          "start": 17029
        }
      ]
    },
    "project/src/BeamioUserCard/BeamioUserCardTransferLib.sol": {
      "BeamioUserCardTransferLib": [
        {
          "length": 20,
          "start": 4794
        },
        {
          "length": 20,
          "start": 21573
        },
        {
          "length": 20,
          "start": 22798
        }
      ]
    },
    "project/src/BeamioUserCard/BeamioUserCardUpdateLib.sol": {
      "BeamioUserCardUpdateLib": [
        {
          "length": 20,
          "start": 22861
        }
      ]
    },
    "project/src/BeamioUserCard/BeamioUserCardViewsLib.sol": {
      "BeamioUserCardViewsLib": [
        {
          "length": 20,
          "start": 17648
        }
      ]
    }
  },
  "deployedLinkReferences": {
    "project/src/BeamioUserCard/BeamioUserCardAdminGatewayLib.sol": {
      "BeamioUserCardAdminGatewayLib": [
        {
          "length": 20,
          "start": 3134
        },
        {
          "length": 20,
          "start": 5570
        },
        {
          "length": 20,
          "start": 10801
        }
      ]
    },
    "project/src/BeamioUserCard/BeamioUserCardFaucetGatewayLib.sol": {
      "BeamioUserCardFaucetGatewayLib": [
        {
          "length": 20,
          "start": 2680
        },
        {
          "length": 20,
          "start": 8895
        }
      ]
    },
    "project/src/BeamioUserCard/BeamioUserCardFormattingLib.sol": {
      "BeamioUserCardFormattingLib": [
        {
          "length": 20,
          "start": 4054
        }
      ]
    },
    "project/src/BeamioUserCard/BeamioUserCardGatewayMintLib.sol": {
      "BeamioUserCardGatewayMintLib": [
        {
          "length": 20,
          "start": 7583
        },
        {
          "length": 20,
          "start": 8598
        },
        {
          "length": 20,
          "start": 19839
        }
      ]
    },
    "project/src/BeamioUserCard/BeamioUserCardGovernanceLib.sol": {
      "BeamioUserCardGovernanceLib": [
        {
          "length": 20,
          "start": 5103
        },
        {
          "length": 20,
          "start": 10342
        },
        {
          "length": 20,
          "start": 11394
        }
      ]
    },
    "project/src/BeamioUserCard/BeamioUserCardIssuedNftGatewayLib.sol": {
      "BeamioUserCardIssuedNftGatewayLib": [
        {
          "length": 20,
          "start": 7189
        },
        {
          "length": 20,
          "start": 7413
        },
        {
          "length": 20,
          "start": 9362
        },
        {
          "length": 20,
          "start": 12796
        },
        {
          "length": 20,
          "start": 15022
        }
      ]
    },
    "project/src/BeamioUserCard/BeamioUserCardModuleRouterLib.sol": {
      "BeamioUserCardModuleRouterLib": [
        {
          "length": 20,
          "start": 19096
        },
        {
          "length": 20,
          "start": 20182
        },
        {
          "length": 20,
          "start": 20296
        }
      ]
    },
    "project/src/BeamioUserCard/BeamioUserCardRedeemGatewayLib.sol": {
      "BeamioUserCardRedeemGatewayLib": [
        {
          "length": 20,
          "start": 9705
        },
        {
          "length": 20,
          "start": 18014
        },
        {
          "length": 20,
          "start": 18299
        }
      ]
    },
    "project/src/BeamioUserCard/BeamioUserCardReferrerLib.sol": {
      "BeamioUserCardReferrerLib": [
        {
          "length": 20,
          "start": 3383
        },
        {
          "length": 20,
          "start": 5411
        },
        {
          "length": 20,
          "start": 7735
        },
        {
          "length": 20,
          "start": 8306
        },
        {
          "length": 20,
          "start": 9202
        },
        {
          "length": 20,
          "start": 10562
        },
        {
          "length": 20,
          "start": 11267
        },
        {
          "length": 20,
          "start": 13508
        },
        {
          "length": 20,
          "start": 14615
        },
        {
          "length": 20,
          "start": 15133
        },
        {
          "length": 20,
          "start": 15938
        }
      ]
    },
    "project/src/BeamioUserCard/BeamioUserCardTransferLib.sol": {
      "BeamioUserCardTransferLib": [
        {
          "length": 20,
          "start": 3703
        },
        {
          "length": 20,
          "start": 20482
        },
        {
          "length": 20,
          "start": 21707
        }
      ]
    },
    "project/src/BeamioUserCard/BeamioUserCardUpdateLib.sol": {
      "BeamioUserCardUpdateLib": [
        {
          "length": 20,
          "start": 21770
        }
      ]
    },
    "project/src/BeamioUserCard/BeamioUserCardViewsLib.sol": {
      "BeamioUserCardViewsLib": [
        {
          "length": 20,
          "start": 16557
        }
      ]
    }
  },
  "immutableReferences": {
    "19866": [
      {
        "length": 32,
        "start": 14120
      }
    ]
  },
  "inputSourceName": "project/src/BeamioUserCard/BeamioUserCard.sol",
  "buildInfoId": "solc-0_8_33-c1b6f9bc87c9977390f67f15f9a27f05fa48cfcd"
}