{
  "_format": "hh3-artifact-1",
  "contractName": "BeamioUserCard",
  "sourceName": "src/BeamioUserCard/BeamioUserCard.sol",
  "abi": [
    {
      "inputs": [
        {
          "internalType": "string",
          "name": "uri_",
          "type": "string"
        },
        {
          "internalType": "enum BeamioCurrency.CurrencyType",
          "name": "currency_",
          "type": "uint8"
        },
        {
          "internalType": "uint256",
          "name": "pointsUnitPriceInCurrencyE6_",
          "type": "uint256"
        },
        {
          "internalType": "address",
          "name": "initialOwner",
          "type": "address"
        },
        {
          "internalType": "address",
          "name": "gateway_",
          "type": "address"
        }
      ],
      "stateMutability": "nonpayable",
      "type": "constructor"
    },
    {
      "inputs": [],
      "name": "BM_CallFailed",
      "type": "error"
    },
    {
      "inputs": [],
      "name": "BM_NotAuthorized",
      "type": "error"
    },
    {
      "inputs": [],
      "name": "BM_ZeroAddress",
      "type": "error"
    },
    {
      "inputs": [
        {
          "internalType": "address",
          "name": "sender",
          "type": "address"
        },
        {
          "internalType": "uint256",
          "name": "balance",
          "type": "uint256"
        },
        {
          "internalType": "uint256",
          "name": "needed",
          "type": "uint256"
        },
        {
          "internalType": "uint256",
          "name": "tokenId",
          "type": "uint256"
        }
      ],
      "name": "ERC1155InsufficientBalance",
      "type": "error"
    },
    {
      "inputs": [
        {
          "internalType": "address",
          "name": "approver",
          "type": "address"
        }
      ],
      "name": "ERC1155InvalidApprover",
      "type": "error"
    },
    {
      "inputs": [
        {
          "internalType": "uint256",
          "name": "idsLength",
          "type": "uint256"
        },
        {
          "internalType": "uint256",
          "name": "valuesLength",
          "type": "uint256"
        }
      ],
      "name": "ERC1155InvalidArrayLength",
      "type": "error"
    },
    {
      "inputs": [
        {
          "internalType": "address",
          "name": "operator",
          "type": "address"
        }
      ],
      "name": "ERC1155InvalidOperator",
      "type": "error"
    },
    {
      "inputs": [
        {
          "internalType": "address",
          "name": "receiver",
          "type": "address"
        }
      ],
      "name": "ERC1155InvalidReceiver",
      "type": "error"
    },
    {
      "inputs": [
        {
          "internalType": "address",
          "name": "sender",
          "type": "address"
        }
      ],
      "name": "ERC1155InvalidSender",
      "type": "error"
    },
    {
      "inputs": [
        {
          "internalType": "address",
          "name": "operator",
          "type": "address"
        },
        {
          "internalType": "address",
          "name": "owner",
          "type": "address"
        }
      ],
      "name": "ERC1155MissingApprovalForAll",
      "type": "error"
    },
    {
      "inputs": [
        {
          "internalType": "address",
          "name": "owner",
          "type": "address"
        }
      ],
      "name": "OwnableInvalidOwner",
      "type": "error"
    },
    {
      "inputs": [
        {
          "internalType": "address",
          "name": "account",
          "type": "address"
        }
      ],
      "name": "OwnableUnauthorizedAccount",
      "type": "error"
    },
    {
      "inputs": [],
      "name": "ReentrancyGuardReentrantCall",
      "type": "error"
    },
    {
      "inputs": [],
      "name": "UC_AdminManagerRequiresOwnerSignature",
      "type": "error"
    },
    {
      "inputs": [],
      "name": "UC_AmountZero",
      "type": "error"
    },
    {
      "inputs": [],
      "name": "UC_BelowMinThreshold",
      "type": "error"
    },
    {
      "inputs": [],
      "name": "UC_GlobalMisconfigured",
      "type": "error"
    },
    {
      "inputs": [
        {
          "internalType": "address",
          "name": "fromAccount",
          "type": "address"
        },
        {
          "internalType": "uint256",
          "name": "id",
          "type": "uint256"
        },
        {
          "internalType": "uint256",
          "name": "have",
          "type": "uint256"
        },
        {
          "internalType": "uint256",
          "name": "need",
          "type": "uint256"
        }
      ],
      "name": "UC_InsufficientBalance",
      "type": "error"
    },
    {
      "inputs": [],
      "name": "UC_InvalidProposal",
      "type": "error"
    },
    {
      "inputs": [],
      "name": "UC_NoBeamioAccount",
      "type": "error"
    },
    {
      "inputs": [],
      "name": "UC_NotAdmin",
      "type": "error"
    },
    {
      "inputs": [],
      "name": "UC_PointsToNotWhitelisted",
      "type": "error"
    },
    {
      "inputs": [],
      "name": "UC_PriceZero",
      "type": "error"
    },
    {
      "inputs": [
        {
          "internalType": "bytes",
          "name": "data",
          "type": "bytes"
        }
      ],
      "name": "UC_RedeemDelegateFailed",
      "type": "error"
    },
    {
      "inputs": [],
      "name": "UC_RedeemModuleZero",
      "type": "error"
    },
    {
      "inputs": [
        {
          "internalType": "address",
          "name": "eoa",
          "type": "address"
        },
        {
          "internalType": "address",
          "name": "aaFactory",
          "type": "address"
        },
        {
          "internalType": "address",
          "name": "acct",
          "type": "address"
        }
      ],
      "name": "UC_ResolveAccountFailed",
      "type": "error"
    },
    {
      "inputs": [],
      "name": "UC_SBTNonTransferable",
      "type": "error"
    },
    {
      "inputs": [],
      "name": "UC_StatsModuleZero",
      "type": "error"
    },
    {
      "inputs": [],
      "name": "UC_TierLenMismatch",
      "type": "error"
    },
    {
      "inputs": [],
      "name": "UC_TierMinZero",
      "type": "error"
    },
    {
      "inputs": [],
      "name": "UC_UnauthorizedGateway",
      "type": "error"
    },
    {
      "anonymous": false,
      "inputs": [
        {
          "indexed": true,
          "internalType": "address",
          "name": "beneficiaryAccount",
          "type": "address"
        },
        {
          "indexed": true,
          "internalType": "uint256",
          "name": "tokenId",
          "type": "uint256"
        },
        {
          "indexed": false,
          "internalType": "uint256",
          "name": "attr",
          "type": "uint256"
        },
        {
          "indexed": false,
          "internalType": "uint256",
          "name": "expiry",
          "type": "uint256"
        }
      ],
      "name": "AdminCardMinted",
      "type": "event"
    },
    {
      "anonymous": false,
      "inputs": [
        {
          "indexed": true,
          "internalType": "address",
          "name": "account",
          "type": "address"
        },
        {
          "indexed": false,
          "internalType": "uint256",
          "name": "amount",
          "type": "uint256"
        }
      ],
      "name": "AdminPointsBurned",
      "type": "event"
    },
    {
      "anonymous": false,
      "inputs": [
        {
          "indexed": true,
          "internalType": "address",
          "name": "beneficiaryAccount",
          "type": "address"
        },
        {
          "indexed": false,
          "internalType": "uint256",
          "name": "points6",
          "type": "uint256"
        }
      ],
      "name": "AdminPointsMinted",
      "type": "event"
    },
    {
      "anonymous": false,
      "inputs": [
        {
          "indexed": true,
          "internalType": "address",
          "name": "account",
          "type": "address"
        },
        {
          "indexed": true,
          "internalType": "address",
          "name": "operator",
          "type": "address"
        },
        {
          "indexed": false,
          "internalType": "bool",
          "name": "approved",
          "type": "bool"
        }
      ],
      "name": "ApprovalForAll",
      "type": "event"
    },
    {
      "anonymous": false,
      "inputs": [
        {
          "indexed": false,
          "internalType": "uint256",
          "name": "attr",
          "type": "uint256"
        }
      ],
      "name": "DefaultAttrUpdated",
      "type": "event"
    },
    {
      "anonymous": false,
      "inputs": [
        {
          "indexed": false,
          "internalType": "uint256",
          "name": "oldSecs",
          "type": "uint256"
        },
        {
          "indexed": false,
          "internalType": "uint256",
          "name": "newSecs",
          "type": "uint256"
        }
      ],
      "name": "ExpirySecondsUpdated",
      "type": "event"
    },
    {
      "anonymous": false,
      "inputs": [
        {
          "indexed": true,
          "internalType": "uint256",
          "name": "id",
          "type": "uint256"
        },
        {
          "indexed": true,
          "internalType": "address",
          "name": "userEOA",
          "type": "address"
        },
        {
          "indexed": true,
          "internalType": "address",
          "name": "acct",
          "type": "address"
        },
        {
          "indexed": false,
          "internalType": "uint256",
          "name": "amount",
          "type": "uint256"
        },
        {
          "indexed": false,
          "internalType": "uint256",
          "name": "claimedAfter",
          "type": "uint256"
        }
      ],
      "name": "FaucetClaimed",
      "type": "event"
    },
    {
      "anonymous": false,
      "inputs": [
        {
          "indexed": true,
          "internalType": "uint256",
          "name": "id",
          "type": "uint256"
        },
        {
          "components": [
            {
              "internalType": "uint64",
              "name": "validUntil",
              "type": "uint64"
            },
            {
              "internalType": "uint64",
              "name": "perClaimMax",
              "type": "uint64"
            },
            {
              "internalType": "uint128",
              "name": "maxPerUser",
              "type": "uint128"
            },
            {
              "internalType": "uint128",
              "name": "maxGlobal",
              "type": "uint128"
            },
            {
              "internalType": "bool",
              "name": "enabled",
              "type": "bool"
            },
            {
              "internalType": "uint8",
              "name": "currency",
              "type": "uint8"
            },
            {
              "internalType": "uint8",
              "name": "decimals",
              "type": "uint8"
            },
            {
              "internalType": "uint128",
              "name": "priceInCurrency6",
              "type": "uint128"
            }
          ],
          "indexed": false,
          "internalType": "struct FaucetStorage.FaucetConfig",
          "name": "cfg",
          "type": "tuple"
        }
      ],
      "name": "FaucetConfigUpdated",
      "type": "event"
    },
    {
      "anonymous": false,
      "inputs": [
        {
          "indexed": true,
          "internalType": "uint256",
          "name": "tokenId",
          "type": "uint256"
        },
        {
          "indexed": false,
          "internalType": "bytes32",
          "name": "title",
          "type": "bytes32"
        },
        {
          "indexed": false,
          "internalType": "uint64",
          "name": "validAfter",
          "type": "uint64"
        },
        {
          "indexed": false,
          "internalType": "uint64",
          "name": "validBefore",
          "type": "uint64"
        },
        {
          "indexed": false,
          "internalType": "uint256",
          "name": "maxSupply",
          "type": "uint256"
        },
        {
          "indexed": false,
          "internalType": "uint256",
          "name": "priceInCurrency6",
          "type": "uint256"
        },
        {
          "indexed": false,
          "internalType": "bytes32",
          "name": "sharedMetadataHash",
          "type": "bytes32"
        }
      ],
      "name": "IssuedNftCreated",
      "type": "event"
    },
    {
      "anonymous": false,
      "inputs": [
        {
          "indexed": true,
          "internalType": "uint256",
          "name": "tokenId",
          "type": "uint256"
        },
        {
          "indexed": true,
          "internalType": "address",
          "name": "recipient",
          "type": "address"
        },
        {
          "indexed": false,
          "internalType": "uint256",
          "name": "amount",
          "type": "uint256"
        }
      ],
      "name": "IssuedNftMinted",
      "type": "event"
    },
    {
      "anonymous": false,
      "inputs": [
        {
          "indexed": true,
          "internalType": "address",
          "name": "user",
          "type": "address"
        },
        {
          "indexed": true,
          "internalType": "uint256",
          "name": "tokenId",
          "type": "uint256"
        },
        {
          "indexed": false,
          "internalType": "uint256",
          "name": "tierIndexOrMax",
          "type": "uint256"
        },
        {
          "indexed": false,
          "internalType": "uint256",
          "name": "minUsdc6",
          "type": "uint256"
        },
        {
          "indexed": false,
          "internalType": "uint256",
          "name": "expiry",
          "type": "uint256"
        }
      ],
      "name": "MemberNFTIssued",
      "type": "event"
    },
    {
      "anonymous": false,
      "inputs": [
        {
          "indexed": true,
          "internalType": "address",
          "name": "user",
          "type": "address"
        },
        {
          "indexed": true,
          "internalType": "uint256",
          "name": "oldActiveTokenId",
          "type": "uint256"
        },
        {
          "indexed": true,
          "internalType": "uint256",
          "name": "newTokenId",
          "type": "uint256"
        },
        {
          "indexed": false,
          "internalType": "uint256",
          "name": "oldTierIndexOrMax",
          "type": "uint256"
        },
        {
          "indexed": false,
          "internalType": "uint256",
          "name": "newTierIndex",
          "type": "uint256"
        },
        {
          "indexed": false,
          "internalType": "uint256",
          "name": "newExpiry",
          "type": "uint256"
        }
      ],
      "name": "MemberNFTUpgraded",
      "type": "event"
    },
    {
      "anonymous": false,
      "inputs": [
        {
          "indexed": true,
          "internalType": "address",
          "name": "previousOwner",
          "type": "address"
        },
        {
          "indexed": true,
          "internalType": "address",
          "name": "newOwner",
          "type": "address"
        }
      ],
      "name": "OwnershipTransferred",
      "type": "event"
    },
    {
      "anonymous": false,
      "inputs": [
        {
          "indexed": true,
          "internalType": "address",
          "name": "userEOA",
          "type": "address"
        },
        {
          "indexed": true,
          "internalType": "address",
          "name": "acct",
          "type": "address"
        },
        {
          "indexed": false,
          "internalType": "uint256",
          "name": "points6",
          "type": "uint256"
        }
      ],
      "name": "PointsMintedByGateway",
      "type": "event"
    },
    {
      "anonymous": false,
      "inputs": [
        {
          "indexed": true,
          "internalType": "address",
          "name": "payerEOA",
          "type": "address"
        },
        {
          "indexed": true,
          "internalType": "address",
          "name": "beneficiaryAccount",
          "type": "address"
        },
        {
          "indexed": true,
          "internalType": "address",
          "name": "usdc",
          "type": "address"
        },
        {
          "indexed": false,
          "internalType": "uint256",
          "name": "usdcIn6",
          "type": "uint256"
        },
        {
          "indexed": false,
          "internalType": "uint256",
          "name": "pointsMinted6",
          "type": "uint256"
        },
        {
          "indexed": false,
          "internalType": "uint256",
          "name": "unitPointPriceUsdc6",
          "type": "uint256"
        },
        {
          "indexed": false,
          "internalType": "bytes32",
          "name": "nonce",
          "type": "bytes32"
        }
      ],
      "name": "PointsPurchasedWithUSDC",
      "type": "event"
    },
    {
      "anonymous": false,
      "inputs": [
        {
          "indexed": false,
          "internalType": "uint256",
          "name": "priceInCurrencyE6",
          "type": "uint256"
        }
      ],
      "name": "PointsUnitPriceUpdated",
      "type": "event"
    },
    {
      "anonymous": false,
      "inputs": [
        {
          "indexed": true,
          "internalType": "uint256",
          "name": "id",
          "type": "uint256"
        },
        {
          "indexed": true,
          "internalType": "address",
          "name": "admin",
          "type": "address"
        }
      ],
      "name": "ProposalApproved",
      "type": "event"
    },
    {
      "anonymous": false,
      "inputs": [
        {
          "indexed": true,
          "internalType": "uint256",
          "name": "id",
          "type": "uint256"
        },
        {
          "indexed": true,
          "internalType": "bytes4",
          "name": "selector",
          "type": "bytes4"
        },
        {
          "indexed": true,
          "internalType": "address",
          "name": "proposer",
          "type": "address"
        }
      ],
      "name": "ProposalCreated",
      "type": "event"
    },
    {
      "anonymous": false,
      "inputs": [
        {
          "indexed": true,
          "internalType": "uint256",
          "name": "id",
          "type": "uint256"
        }
      ],
      "name": "ProposalExecuted",
      "type": "event"
    },
    {
      "anonymous": false,
      "inputs": [
        {
          "indexed": true,
          "internalType": "bytes32",
          "name": "hash",
          "type": "bytes32"
        }
      ],
      "name": "RedeemCancelled",
      "type": "event"
    },
    {
      "anonymous": false,
      "inputs": [
        {
          "indexed": true,
          "internalType": "bytes32",
          "name": "hash",
          "type": "bytes32"
        },
        {
          "indexed": false,
          "internalType": "uint256",
          "name": "points6",
          "type": "uint256"
        },
        {
          "indexed": false,
          "internalType": "uint256",
          "name": "attr",
          "type": "uint256"
        }
      ],
      "name": "RedeemCreated",
      "type": "event"
    },
    {
      "anonymous": false,
      "inputs": [
        {
          "indexed": false,
          "internalType": "uint256",
          "name": "index",
          "type": "uint256"
        },
        {
          "indexed": false,
          "internalType": "uint256",
          "name": "minUsdc6",
          "type": "uint256"
        },
        {
          "indexed": false,
          "internalType": "uint256",
          "name": "attr",
          "type": "uint256"
        },
        {
          "indexed": false,
          "internalType": "uint256",
          "name": "tierExpirySeconds",
          "type": "uint256"
        },
        {
          "indexed": false,
          "internalType": "bool",
          "name": "upgradeByBalance",
          "type": "bool"
        }
      ],
      "name": "TierAppended",
      "type": "event"
    },
    {
      "anonymous": false,
      "inputs": [
        {
          "indexed": false,
          "internalType": "uint256",
          "name": "count",
          "type": "uint256"
        }
      ],
      "name": "TiersUpdated",
      "type": "event"
    },
    {
      "anonymous": false,
      "inputs": [
        {
          "indexed": true,
          "internalType": "address",
          "name": "operator",
          "type": "address"
        },
        {
          "indexed": true,
          "internalType": "address",
          "name": "from",
          "type": "address"
        },
        {
          "indexed": true,
          "internalType": "address",
          "name": "to",
          "type": "address"
        },
        {
          "indexed": false,
          "internalType": "uint256[]",
          "name": "ids",
          "type": "uint256[]"
        },
        {
          "indexed": false,
          "internalType": "uint256[]",
          "name": "values",
          "type": "uint256[]"
        }
      ],
      "name": "TransferBatch",
      "type": "event"
    },
    {
      "anonymous": false,
      "inputs": [
        {
          "indexed": true,
          "internalType": "address",
          "name": "operator",
          "type": "address"
        },
        {
          "indexed": true,
          "internalType": "address",
          "name": "from",
          "type": "address"
        },
        {
          "indexed": true,
          "internalType": "address",
          "name": "to",
          "type": "address"
        },
        {
          "indexed": false,
          "internalType": "uint256",
          "name": "id",
          "type": "uint256"
        },
        {
          "indexed": false,
          "internalType": "uint256",
          "name": "value",
          "type": "uint256"
        }
      ],
      "name": "TransferSingle",
      "type": "event"
    },
    {
      "anonymous": false,
      "inputs": [
        {
          "indexed": false,
          "internalType": "bool",
          "name": "enabled",
          "type": "bool"
        }
      ],
      "name": "TransferWhitelistEnabledUpdated",
      "type": "event"
    },
    {
      "anonymous": false,
      "inputs": [
        {
          "indexed": false,
          "internalType": "string",
          "name": "value",
          "type": "string"
        },
        {
          "indexed": true,
          "internalType": "uint256",
          "name": "id",
          "type": "uint256"
        }
      ],
      "name": "URI",
      "type": "event"
    },
    {
      "stateMutability": "nonpayable",
      "type": "fallback"
    },
    {
      "inputs": [],
      "name": "ISSUED_NFT_START_ID",
      "outputs": [
        {
          "internalType": "uint256",
          "name": "",
          "type": "uint256"
        }
      ],
      "stateMutability": "view",
      "type": "function"
    },
    {
      "inputs": [],
      "name": "NFT_START_ID",
      "outputs": [
        {
          "internalType": "uint256",
          "name": "",
          "type": "uint256"
        }
      ],
      "stateMutability": "view",
      "type": "function"
    },
    {
      "inputs": [],
      "name": "POINTS_DECIMALS",
      "outputs": [
        {
          "internalType": "uint8",
          "name": "",
          "type": "uint8"
        }
      ],
      "stateMutability": "view",
      "type": "function"
    },
    {
      "inputs": [],
      "name": "POINTS_ID",
      "outputs": [
        {
          "internalType": "uint256",
          "name": "",
          "type": "uint256"
        }
      ],
      "stateMutability": "view",
      "type": "function"
    },
    {
      "inputs": [],
      "name": "VERSION",
      "outputs": [
        {
          "internalType": "uint256",
          "name": "",
          "type": "uint256"
        }
      ],
      "stateMutability": "view",
      "type": "function"
    },
    {
      "inputs": [
        {
          "internalType": "address",
          "name": "",
          "type": "address"
        },
        {
          "internalType": "uint256",
          "name": "",
          "type": "uint256"
        }
      ],
      "name": "_userOwnedNfts",
      "outputs": [
        {
          "internalType": "uint256",
          "name": "",
          "type": "uint256"
        }
      ],
      "stateMutability": "view",
      "type": "function"
    },
    {
      "inputs": [
        {
          "internalType": "uint256",
          "name": "",
          "type": "uint256"
        }
      ],
      "name": "activeMembershipCountByTierIndex",
      "outputs": [
        {
          "internalType": "uint256",
          "name": "",
          "type": "uint256"
        }
      ],
      "stateMutability": "view",
      "type": "function"
    },
    {
      "inputs": [
        {
          "internalType": "uint256",
          "name": "",
          "type": "uint256"
        }
      ],
      "name": "activeMembershipCountByTokenId",
      "outputs": [
        {
          "internalType": "uint256",
          "name": "",
          "type": "uint256"
        }
      ],
      "stateMutability": "view",
      "type": "function"
    },
    {
      "inputs": [
        {
          "internalType": "address",
          "name": "",
          "type": "address"
        }
      ],
      "name": "activeMembershipId",
      "outputs": [
        {
          "internalType": "uint256",
          "name": "",
          "type": "uint256"
        }
      ],
      "stateMutability": "view",
      "type": "function"
    },
    {
      "inputs": [
        {
          "internalType": "address",
          "name": "",
          "type": "address"
        }
      ],
      "name": "activeTierIndexOrMax",
      "outputs": [
        {
          "internalType": "uint256",
          "name": "",
          "type": "uint256"
        }
      ],
      "stateMutability": "view",
      "type": "function"
    },
    {
      "inputs": [
        {
          "internalType": "address",
          "name": "a",
          "type": "address"
        }
      ],
      "name": "adminParent",
      "outputs": [
        {
          "internalType": "address",
          "name": "",
          "type": "address"
        }
      ],
      "stateMutability": "view",
      "type": "function"
    },
    {
      "inputs": [
        {
          "internalType": "uint256",
          "name": "minUsdc6",
          "type": "uint256"
        },
        {
          "internalType": "uint256",
          "name": "attr",
          "type": "uint256"
        },
        {
          "internalType": "uint256",
          "name": "tierExpirySeconds",
          "type": "uint256"
        },
        {
          "internalType": "bool",
          "name": "upgradeByBalance",
          "type": "bool"
        }
      ],
      "name": "appendTier",
      "outputs": [],
      "stateMutability": "nonpayable",
      "type": "function"
    },
    {
      "inputs": [
        {
          "internalType": "uint256",
          "name": "id",
          "type": "uint256"
        }
      ],
      "name": "approveProposal",
      "outputs": [],
      "stateMutability": "nonpayable",
      "type": "function"
    },
    {
      "inputs": [
        {
          "internalType": "uint256",
          "name": "id",
          "type": "uint256"
        },
        {
          "internalType": "address",
          "name": "adminSigner",
          "type": "address"
        }
      ],
      "name": "approveProposalByGateway",
      "outputs": [],
      "stateMutability": "nonpayable",
      "type": "function"
    },
    {
      "inputs": [
        {
          "internalType": "uint256",
          "name": "",
          "type": "uint256"
        }
      ],
      "name": "attributes",
      "outputs": [
        {
          "internalType": "uint256",
          "name": "",
          "type": "uint256"
        }
      ],
      "stateMutability": "view",
      "type": "function"
    },
    {
      "inputs": [
        {
          "internalType": "address",
          "name": "account",
          "type": "address"
        },
        {
          "internalType": "uint256",
          "name": "id",
          "type": "uint256"
        }
      ],
      "name": "balanceOf",
      "outputs": [
        {
          "internalType": "uint256",
          "name": "",
          "type": "uint256"
        }
      ],
      "stateMutability": "view",
      "type": "function"
    },
    {
      "inputs": [
        {
          "internalType": "address[]",
          "name": "accounts",
          "type": "address[]"
        },
        {
          "internalType": "uint256[]",
          "name": "ids",
          "type": "uint256[]"
        }
      ],
      "name": "balanceOfBatch",
      "outputs": [
        {
          "internalType": "uint256[]",
          "name": "",
          "type": "uint256[]"
        }
      ],
      "stateMutability": "view",
      "type": "function"
    },
    {
      "inputs": [
        {
          "internalType": "address",
          "name": "target",
          "type": "address"
        },
        {
          "internalType": "uint256",
          "name": "amount",
          "type": "uint256"
        }
      ],
      "name": "burnPointsByAdmin",
      "outputs": [],
      "stateMutability": "nonpayable",
      "type": "function"
    },
    {
      "inputs": [
        {
          "internalType": "address",
          "name": "subordinate",
          "type": "address"
        },
        {
          "internalType": "address",
          "name": "authorizer",
          "type": "address"
        }
      ],
      "name": "clearAdminMintCounterForSubordinate",
      "outputs": [],
      "stateMutability": "nonpayable",
      "type": "function"
    },
    {
      "inputs": [
        {
          "internalType": "bytes4",
          "name": "selector",
          "type": "bytes4"
        },
        {
          "internalType": "address",
          "name": "target",
          "type": "address"
        },
        {
          "internalType": "uint256",
          "name": "v1",
          "type": "uint256"
        },
        {
          "internalType": "uint256",
          "name": "v2",
          "type": "uint256"
        },
        {
          "internalType": "uint256",
          "name": "v3",
          "type": "uint256"
        }
      ],
      "name": "createProposal",
      "outputs": [
        {
          "internalType": "uint256",
          "name": "",
          "type": "uint256"
        }
      ],
      "stateMutability": "nonpayable",
      "type": "function"
    },
    {
      "inputs": [],
      "name": "currency",
      "outputs": [
        {
          "internalType": "enum BeamioCurrency.CurrencyType",
          "name": "",
          "type": "uint8"
        }
      ],
      "stateMutability": "view",
      "type": "function"
    },
    {
      "inputs": [],
      "name": "debugGateway",
      "outputs": [
        {
          "internalType": "address",
          "name": "",
          "type": "address"
        }
      ],
      "stateMutability": "view",
      "type": "function"
    },
    {
      "inputs": [],
      "name": "defaultAttrWhenNoTiers",
      "outputs": [
        {
          "internalType": "uint256",
          "name": "",
          "type": "uint256"
        }
      ],
      "stateMutability": "view",
      "type": "function"
    },
    {
      "inputs": [],
      "name": "deployer",
      "outputs": [
        {
          "internalType": "address",
          "name": "",
          "type": "address"
        }
      ],
      "stateMutability": "view",
      "type": "function"
    },
    {
      "inputs": [
        {
          "internalType": "uint256",
          "name": "",
          "type": "uint256"
        }
      ],
      "name": "expiresAt",
      "outputs": [
        {
          "internalType": "uint256",
          "name": "",
          "type": "uint256"
        }
      ],
      "stateMutability": "view",
      "type": "function"
    },
    {
      "inputs": [],
      "name": "expirySeconds",
      "outputs": [
        {
          "internalType": "uint256",
          "name": "",
          "type": "uint256"
        }
      ],
      "stateMutability": "view",
      "type": "function"
    },
    {
      "inputs": [],
      "name": "factoryGateway",
      "outputs": [
        {
          "internalType": "address",
          "name": "",
          "type": "address"
        }
      ],
      "stateMutability": "view",
      "type": "function"
    },
    {
      "inputs": [
        {
          "internalType": "address",
          "name": "userEOA",
          "type": "address"
        },
        {
          "internalType": "uint256",
          "name": "id",
          "type": "uint256"
        },
        {
          "internalType": "uint256",
          "name": "amount",
          "type": "uint256"
        }
      ],
      "name": "faucetByGateway",
      "outputs": [],
      "stateMutability": "nonpayable",
      "type": "function"
    },
    {
      "inputs": [
        {
          "internalType": "uint256",
          "name": "id",
          "type": "uint256"
        }
      ],
      "name": "faucetConfig",
      "outputs": [
        {
          "components": [
            {
              "internalType": "uint64",
              "name": "validUntil",
              "type": "uint64"
            },
            {
              "internalType": "uint64",
              "name": "perClaimMax",
              "type": "uint64"
            },
            {
              "internalType": "uint128",
              "name": "maxPerUser",
              "type": "uint128"
            },
            {
              "internalType": "uint128",
              "name": "maxGlobal",
              "type": "uint128"
            },
            {
              "internalType": "bool",
              "name": "enabled",
              "type": "bool"
            },
            {
              "internalType": "uint8",
              "name": "currency",
              "type": "uint8"
            },
            {
              "internalType": "uint8",
              "name": "decimals",
              "type": "uint8"
            },
            {
              "internalType": "uint128",
              "name": "priceInCurrency6",
              "type": "uint128"
            }
          ],
          "internalType": "struct FaucetStorage.FaucetConfig",
          "name": "",
          "type": "tuple"
        }
      ],
      "stateMutability": "view",
      "type": "function"
    },
    {
      "inputs": [],
      "name": "gateway",
      "outputs": [
        {
          "internalType": "address",
          "name": "",
          "type": "address"
        }
      ],
      "stateMutability": "view",
      "type": "function"
    },
    {
      "inputs": [
        {
          "internalType": "address",
          "name": "admin",
          "type": "address"
        }
      ],
      "name": "getAdminBurnCounter",
      "outputs": [
        {
          "internalType": "uint256",
          "name": "",
          "type": "uint256"
        }
      ],
      "stateMutability": "view",
      "type": "function"
    },
    {
      "inputs": [
        {
          "internalType": "address",
          "name": "admin",
          "type": "address"
        }
      ],
      "name": "getAdminMintCounter",
      "outputs": [
        {
          "internalType": "uint256",
          "name": "",
          "type": "uint256"
        }
      ],
      "stateMutability": "view",
      "type": "function"
    },
    {
      "inputs": [
        {
          "internalType": "address",
          "name": "admin",
          "type": "address"
        }
      ],
      "name": "getAdminRedeemMintCounter",
      "outputs": [
        {
          "internalType": "uint256",
          "name": "",
          "type": "uint256"
        }
      ],
      "stateMutability": "view",
      "type": "function"
    },
    {
      "inputs": [
        {
          "internalType": "address",
          "name": "admin",
          "type": "address"
        }
      ],
      "name": "getAdminTransferCounter",
      "outputs": [
        {
          "internalType": "uint256",
          "name": "",
          "type": "uint256"
        }
      ],
      "stateMutability": "view",
      "type": "function"
    },
    {
      "inputs": [
        {
          "internalType": "address",
          "name": "admin",
          "type": "address"
        }
      ],
      "name": "getAdminUSDCMintCounter",
      "outputs": [
        {
          "internalType": "uint256",
          "name": "",
          "type": "uint256"
        }
      ],
      "stateMutability": "view",
      "type": "function"
    },
    {
      "inputs": [
        {
          "internalType": "address",
          "name": "user",
          "type": "address"
        }
      ],
      "name": "getOwnership",
      "outputs": [
        {
          "internalType": "uint256",
          "name": "pt",
          "type": "uint256"
        },
        {
          "components": [
            {
              "internalType": "uint256",
              "name": "tokenId",
              "type": "uint256"
            },
            {
              "internalType": "uint256",
              "name": "attribute",
              "type": "uint256"
            },
            {
              "internalType": "uint256",
              "name": "tierIndexOrMax",
              "type": "uint256"
            },
            {
              "internalType": "uint256",
              "name": "expiry",
              "type": "uint256"
            },
            {
              "internalType": "bool",
              "name": "isExpired",
              "type": "bool"
            }
          ],
          "internalType": "struct BeamioUserCard.NFTDetail[]",
          "name": "nfts",
          "type": "tuple[]"
        }
      ],
      "stateMutability": "view",
      "type": "function"
    },
    {
      "inputs": [
        {
          "internalType": "address",
          "name": "userEOA",
          "type": "address"
        }
      ],
      "name": "getOwnershipByEOA",
      "outputs": [
        {
          "internalType": "uint256",
          "name": "pt",
          "type": "uint256"
        },
        {
          "components": [
            {
              "internalType": "uint256",
              "name": "tokenId",
              "type": "uint256"
            },
            {
              "internalType": "uint256",
              "name": "attribute",
              "type": "uint256"
            },
            {
              "internalType": "uint256",
              "name": "tierIndexOrMax",
              "type": "uint256"
            },
            {
              "internalType": "uint256",
              "name": "expiry",
              "type": "uint256"
            },
            {
              "internalType": "bool",
              "name": "isExpired",
              "type": "bool"
            }
          ],
          "internalType": "struct BeamioUserCard.NFTDetail[]",
          "name": "nfts",
          "type": "tuple[]"
        }
      ],
      "stateMutability": "view",
      "type": "function"
    },
    {
      "inputs": [
        {
          "internalType": "address",
          "name": "a",
          "type": "address"
        }
      ],
      "name": "isAdmin",
      "outputs": [
        {
          "internalType": "bool",
          "name": "",
          "type": "bool"
        }
      ],
      "stateMutability": "view",
      "type": "function"
    },
    {
      "inputs": [
        {
          "internalType": "address",
          "name": "account",
          "type": "address"
        },
        {
          "internalType": "address",
          "name": "operator",
          "type": "address"
        }
      ],
      "name": "isApprovedForAll",
      "outputs": [
        {
          "internalType": "bool",
          "name": "",
          "type": "bool"
        }
      ],
      "stateMutability": "view",
      "type": "function"
    },
    {
      "inputs": [
        {
          "internalType": "uint256",
          "name": "tokenId",
          "type": "uint256"
        }
      ],
      "name": "isIssuedNftValid",
      "outputs": [
        {
          "internalType": "bool",
          "name": "",
          "type": "bool"
        }
      ],
      "stateMutability": "view",
      "type": "function"
    },
    {
      "inputs": [
        {
          "internalType": "uint256",
          "name": "tokenId",
          "type": "uint256"
        }
      ],
      "name": "issuedNftPriceInCurrency6",
      "outputs": [
        {
          "internalType": "uint256",
          "name": "",
          "type": "uint256"
        }
      ],
      "stateMutability": "view",
      "type": "function"
    },
    {
      "inputs": [
        {
          "internalType": "uint64",
          "name": "hourIndex",
          "type": "uint64"
        }
      ],
      "name": "membershipFlowBucketAtHour",
      "outputs": [
        {
          "internalType": "uint256",
          "name": "issuedCount",
          "type": "uint256"
        },
        {
          "internalType": "uint256",
          "name": "upgradedCount",
          "type": "uint256"
        },
        {
          "internalType": "uint256",
          "name": "expiredDiscoveredCount",
          "type": "uint256"
        },
        {
          "internalType": "uint256",
          "name": "activeSwitchCount",
          "type": "uint256"
        },
        {
          "internalType": "uint256",
          "name": "activatedCount",
          "type": "uint256"
        },
        {
          "internalType": "uint256",
          "name": "deactivatedCount",
          "type": "uint256"
        },
        {
          "internalType": "bool",
          "name": "hasData",
          "type": "bool"
        }
      ],
      "stateMutability": "view",
      "type": "function"
    },
    {
      "inputs": [
        {
          "internalType": "uint8",
          "name": "scopeType",
          "type": "uint8"
        },
        {
          "internalType": "uint256",
          "name": "scopeKey",
          "type": "uint256"
        },
        {
          "internalType": "uint64",
          "name": "hourIndex",
          "type": "uint64"
        }
      ],
      "name": "membershipScopedFlowBucketAtHour",
      "outputs": [
        {
          "internalType": "uint256",
          "name": "issuedCount",
          "type": "uint256"
        },
        {
          "internalType": "uint256",
          "name": "upgradedCount",
          "type": "uint256"
        },
        {
          "internalType": "uint256",
          "name": "expiredDiscoveredCount",
          "type": "uint256"
        },
        {
          "internalType": "uint256",
          "name": "activeSwitchCount",
          "type": "uint256"
        },
        {
          "internalType": "uint256",
          "name": "activatedCount",
          "type": "uint256"
        },
        {
          "internalType": "uint256",
          "name": "deactivatedCount",
          "type": "uint256"
        },
        {
          "internalType": "bool",
          "name": "hasData",
          "type": "bool"
        }
      ],
      "stateMutability": "view",
      "type": "function"
    },
    {
      "inputs": [],
      "name": "metadataBaseURI",
      "outputs": [
        {
          "internalType": "string",
          "name": "",
          "type": "string"
        }
      ],
      "stateMutability": "view",
      "type": "function"
    },
    {
      "inputs": [
        {
          "internalType": "address",
          "name": "userEOA",
          "type": "address"
        },
        {
          "internalType": "uint256",
          "name": "id",
          "type": "uint256"
        },
        {
          "internalType": "uint256",
          "name": "amount6",
          "type": "uint256"
        }
      ],
      "name": "mintFaucetByGateway",
      "outputs": [],
      "stateMutability": "nonpayable",
      "type": "function"
    },
    {
      "inputs": [
        {
          "internalType": "address",
          "name": "userEOA",
          "type": "address"
        },
        {
          "internalType": "uint256",
          "name": "tokenId",
          "type": "uint256"
        },
        {
          "internalType": "uint256",
          "name": "amount",
          "type": "uint256"
        }
      ],
      "name": "mintIssuedNftByGateway",
      "outputs": [],
      "stateMutability": "nonpayable",
      "type": "function"
    },
    {
      "inputs": [
        {
          "internalType": "address",
          "name": "to",
          "type": "address"
        },
        {
          "internalType": "uint256",
          "name": "tokenId",
          "type": "uint256"
        },
        {
          "internalType": "uint256",
          "name": "amount",
          "type": "uint256"
        }
      ],
      "name": "mintIssuedNftByOwner",
      "outputs": [],
      "stateMutability": "nonpayable",
      "type": "function"
    },
    {
      "inputs": [
        {
          "internalType": "address",
          "name": "user",
          "type": "address"
        },
        {
          "internalType": "uint256",
          "name": "tierIndex",
          "type": "uint256"
        }
      ],
      "name": "mintMemberCardByAdmin",
      "outputs": [],
      "stateMutability": "nonpayable",
      "type": "function"
    },
    {
      "inputs": [
        {
          "internalType": "address",
          "name": "user",
          "type": "address"
        },
        {
          "internalType": "uint256",
          "name": "points6",
          "type": "uint256"
        }
      ],
      "name": "mintPointsByAdmin",
      "outputs": [],
      "stateMutability": "nonpayable",
      "type": "function"
    },
    {
      "inputs": [
        {
          "internalType": "address",
          "name": "user",
          "type": "address"
        },
        {
          "internalType": "uint256",
          "name": "points6",
          "type": "uint256"
        },
        {
          "internalType": "address",
          "name": "operator",
          "type": "address"
        }
      ],
      "name": "mintPointsByAdminWithOperator",
      "outputs": [],
      "stateMutability": "nonpayable",
      "type": "function"
    },
    {
      "inputs": [
        {
          "internalType": "address",
          "name": "userEOA",
          "type": "address"
        },
        {
          "internalType": "uint256",
          "name": "points6",
          "type": "uint256"
        }
      ],
      "name": "mintPointsByGateway",
      "outputs": [],
      "stateMutability": "nonpayable",
      "type": "function"
    },
    {
      "inputs": [
        {
          "internalType": "address",
          "name": "userEOA",
          "type": "address"
        },
        {
          "internalType": "uint256",
          "name": "points6",
          "type": "uint256"
        },
        {
          "internalType": "address",
          "name": "operator",
          "type": "address"
        }
      ],
      "name": "mintPointsByGatewayWithOperator",
      "outputs": [],
      "stateMutability": "nonpayable",
      "type": "function"
    },
    {
      "inputs": [],
      "name": "owner",
      "outputs": [
        {
          "internalType": "address",
          "name": "",
          "type": "address"
        }
      ],
      "stateMutability": "view",
      "type": "function"
    },
    {
      "inputs": [],
      "name": "pointsUnitPriceInCurrencyE6",
      "outputs": [
        {
          "internalType": "uint256",
          "name": "",
          "type": "uint256"
        }
      ],
      "stateMutability": "view",
      "type": "function"
    },
    {
      "inputs": [
        {
          "internalType": "address",
          "name": "operator",
          "type": "address"
        },
        {
          "internalType": "uint256",
          "name": "amount",
          "type": "uint256"
        }
      ],
      "name": "recordAdminBurnForStats",
      "outputs": [],
      "stateMutability": "nonpayable",
      "type": "function"
    },
    {
      "inputs": [
        {
          "internalType": "address",
          "name": "admin",
          "type": "address"
        },
        {
          "internalType": "uint256",
          "name": "amount",
          "type": "uint256"
        }
      ],
      "name": "recordAdminMintForStats",
      "outputs": [],
      "stateMutability": "nonpayable",
      "type": "function"
    },
    {
      "inputs": [
        {
          "internalType": "string",
          "name": "code",
          "type": "string"
        },
        {
          "internalType": "address",
          "name": "to",
          "type": "address"
        }
      ],
      "name": "redeemAdminByGateway",
      "outputs": [],
      "stateMutability": "nonpayable",
      "type": "function"
    },
    {
      "inputs": [
        {
          "internalType": "string[]",
          "name": "codes",
          "type": "string[]"
        },
        {
          "internalType": "address",
          "name": "userEOA",
          "type": "address"
        }
      ],
      "name": "redeemBatchByGateway",
      "outputs": [],
      "stateMutability": "nonpayable",
      "type": "function"
    },
    {
      "inputs": [
        {
          "internalType": "string",
          "name": "code",
          "type": "string"
        },
        {
          "internalType": "address",
          "name": "userEOA",
          "type": "address"
        }
      ],
      "name": "redeemByGateway",
      "outputs": [],
      "stateMutability": "nonpayable",
      "type": "function"
    },
    {
      "inputs": [
        {
          "internalType": "string",
          "name": "code",
          "type": "string"
        },
        {
          "internalType": "address",
          "name": "userEOA",
          "type": "address"
        }
      ],
      "name": "redeemPoolByGateway",
      "outputs": [],
      "stateMutability": "nonpayable",
      "type": "function"
    },
    {
      "inputs": [],
      "name": "renounceOwnership",
      "outputs": [],
      "stateMutability": "nonpayable",
      "type": "function"
    },
    {
      "inputs": [
        {
          "internalType": "address",
          "name": "adminAddr",
          "type": "address"
        }
      ],
      "name": "resetAdminLimit",
      "outputs": [],
      "stateMutability": "nonpayable",
      "type": "function"
    },
    {
      "inputs": [
        {
          "internalType": "address",
          "name": "adminAddr",
          "type": "address"
        },
        {
          "internalType": "address",
          "name": "authorizer",
          "type": "address"
        }
      ],
      "name": "resetAdminLimitByAdmin",
      "outputs": [],
      "stateMutability": "nonpayable",
      "type": "function"
    },
    {
      "inputs": [
        {
          "internalType": "address",
          "name": "from",
          "type": "address"
        },
        {
          "internalType": "address",
          "name": "to",
          "type": "address"
        },
        {
          "internalType": "uint256[]",
          "name": "ids",
          "type": "uint256[]"
        },
        {
          "internalType": "uint256[]",
          "name": "values",
          "type": "uint256[]"
        },
        {
          "internalType": "bytes",
          "name": "data",
          "type": "bytes"
        }
      ],
      "name": "safeBatchTransferFrom",
      "outputs": [],
      "stateMutability": "nonpayable",
      "type": "function"
    },
    {
      "inputs": [
        {
          "internalType": "address",
          "name": "from",
          "type": "address"
        },
        {
          "internalType": "address",
          "name": "to",
          "type": "address"
        },
        {
          "internalType": "uint256",
          "name": "id",
          "type": "uint256"
        },
        {
          "internalType": "uint256",
          "name": "value",
          "type": "uint256"
        },
        {
          "internalType": "bytes",
          "name": "data",
          "type": "bytes"
        }
      ],
      "name": "safeTransferFrom",
      "outputs": [],
      "stateMutability": "nonpayable",
      "type": "function"
    },
    {
      "inputs": [
        {
          "internalType": "address",
          "name": "operator",
          "type": "address"
        },
        {
          "internalType": "bool",
          "name": "approved",
          "type": "bool"
        }
      ],
      "name": "setApprovalForAll",
      "outputs": [],
      "stateMutability": "nonpayable",
      "type": "function"
    },
    {
      "inputs": [
        {
          "internalType": "uint256",
          "name": "attr",
          "type": "uint256"
        }
      ],
      "name": "setDefaultAttr",
      "outputs": [],
      "stateMutability": "nonpayable",
      "type": "function"
    },
    {
      "inputs": [
        {
          "internalType": "uint256",
          "name": "secs",
          "type": "uint256"
        }
      ],
      "name": "setExpirySeconds",
      "outputs": [],
      "stateMutability": "nonpayable",
      "type": "function"
    },
    {
      "inputs": [
        {
          "internalType": "uint256",
          "name": "priceInCurrencyE6",
          "type": "uint256"
        }
      ],
      "name": "setPointsUnitPrice",
      "outputs": [],
      "stateMutability": "nonpayable",
      "type": "function"
    },
    {
      "inputs": [
        {
          "components": [
            {
              "internalType": "uint256",
              "name": "minUsdc6",
              "type": "uint256"
            },
            {
              "internalType": "uint256",
              "name": "attr",
              "type": "uint256"
            },
            {
              "internalType": "uint256",
              "name": "tierExpirySeconds",
              "type": "uint256"
            },
            {
              "internalType": "bool",
              "name": "upgradeByBalance",
              "type": "bool"
            }
          ],
          "internalType": "struct BeamioUserCard.Tier[]",
          "name": "newTiers",
          "type": "tuple[]"
        }
      ],
      "name": "setTiers",
      "outputs": [],
      "stateMutability": "nonpayable",
      "type": "function"
    },
    {
      "inputs": [
        {
          "internalType": "address",
          "name": "target",
          "type": "address"
        },
        {
          "internalType": "bool",
          "name": "allowed",
          "type": "bool"
        }
      ],
      "name": "setTransferWhitelist",
      "outputs": [],
      "stateMutability": "nonpayable",
      "type": "function"
    },
    {
      "inputs": [
        {
          "internalType": "bool",
          "name": "enabled",
          "type": "bool"
        }
      ],
      "name": "setTransferWhitelistEnabled",
      "outputs": [],
      "stateMutability": "nonpayable",
      "type": "function"
    },
    {
      "inputs": [
        {
          "internalType": "bytes4",
          "name": "interfaceId",
          "type": "bytes4"
        }
      ],
      "name": "supportsInterface",
      "outputs": [
        {
          "internalType": "bool",
          "name": "",
          "type": "bool"
        }
      ],
      "stateMutability": "view",
      "type": "function"
    },
    {
      "inputs": [
        {
          "internalType": "uint256",
          "name": "",
          "type": "uint256"
        }
      ],
      "name": "tiers",
      "outputs": [
        {
          "internalType": "uint256",
          "name": "minUsdc6",
          "type": "uint256"
        },
        {
          "internalType": "uint256",
          "name": "attr",
          "type": "uint256"
        },
        {
          "internalType": "uint256",
          "name": "tierExpirySeconds",
          "type": "uint256"
        },
        {
          "internalType": "bool",
          "name": "upgradeByBalance",
          "type": "bool"
        }
      ],
      "stateMutability": "view",
      "type": "function"
    },
    {
      "inputs": [
        {
          "internalType": "uint256",
          "name": "",
          "type": "uint256"
        }
      ],
      "name": "tokenTierIndexOrMax",
      "outputs": [
        {
          "internalType": "uint256",
          "name": "",
          "type": "uint256"
        }
      ],
      "stateMutability": "view",
      "type": "function"
    },
    {
      "inputs": [],
      "name": "totalActiveMemberships",
      "outputs": [
        {
          "internalType": "uint256",
          "name": "",
          "type": "uint256"
        }
      ],
      "stateMutability": "view",
      "type": "function"
    },
    {
      "inputs": [],
      "name": "totalMembershipIssued",
      "outputs": [
        {
          "internalType": "uint256",
          "name": "",
          "type": "uint256"
        }
      ],
      "stateMutability": "view",
      "type": "function"
    },
    {
      "inputs": [
        {
          "internalType": "uint256",
          "name": "",
          "type": "uint256"
        }
      ],
      "name": "totalMembershipIssuedByTierIndex",
      "outputs": [
        {
          "internalType": "uint256",
          "name": "",
          "type": "uint256"
        }
      ],
      "stateMutability": "view",
      "type": "function"
    },
    {
      "inputs": [],
      "name": "totalMembershipUpgraded",
      "outputs": [
        {
          "internalType": "uint256",
          "name": "",
          "type": "uint256"
        }
      ],
      "stateMutability": "view",
      "type": "function"
    },
    {
      "inputs": [],
      "name": "totalSupply",
      "outputs": [
        {
          "internalType": "uint256",
          "name": "",
          "type": "uint256"
        }
      ],
      "stateMutability": "view",
      "type": "function"
    },
    {
      "inputs": [
        {
          "internalType": "uint256",
          "name": "id",
          "type": "uint256"
        }
      ],
      "name": "totalSupply",
      "outputs": [
        {
          "internalType": "uint256",
          "name": "",
          "type": "uint256"
        }
      ],
      "stateMutability": "view",
      "type": "function"
    },
    {
      "inputs": [
        {
          "internalType": "address",
          "name": "newOwner",
          "type": "address"
        }
      ],
      "name": "transferOwnership",
      "outputs": [],
      "stateMutability": "nonpayable",
      "type": "function"
    },
    {
      "inputs": [
        {
          "internalType": "address",
          "name": "",
          "type": "address"
        }
      ],
      "name": "transferWhitelist",
      "outputs": [
        {
          "internalType": "bool",
          "name": "",
          "type": "bool"
        }
      ],
      "stateMutability": "view",
      "type": "function"
    },
    {
      "inputs": [],
      "name": "transferWhitelistEnabled",
      "outputs": [
        {
          "internalType": "bool",
          "name": "",
          "type": "bool"
        }
      ],
      "stateMutability": "view",
      "type": "function"
    },
    {
      "inputs": [
        {
          "internalType": "uint256",
          "name": "",
          "type": "uint256"
        }
      ],
      "name": "uri",
      "outputs": [
        {
          "internalType": "string",
          "name": "",
          "type": "string"
        }
      ],
      "stateMutability": "view",
      "type": "function"
    }
  ],
  "bytecode": "0x60a06040523461033e576162168038038061001981610342565b928339810160a08282031261033e5781516001600160401b03811161033e57820181601f8201121561033e5780516001600160401b0381116102ae57610068601f8201601f1916602001610342565b928184526020828401011161033e575f928160208094018483015e0101526020810151600981101561033e576040820151916100b260806100ab60608401610367565b9201610367565b926020915f6100c084610342565b52600254600181811c91168015610334575b8482101461032057601f81116102ee575b505f6002556001600160a01b03169283156102db57600380546001600160a01b031981168617909155604051959085906001600160a01b03167f8be0079c531659141344cd1fd0a4f28419497f9722a3daafe3b4186f6b6457e05f80a3600160045560646019556001600160a01b0381169081159081156102d1575b506102c25733608052600580546001600160a01b03191682179055600680546001600160a81b03191690911760a09290921b60ff60a01b1691909117905560075560017fbc488d3e2575f0f2113dc4d9a0cd6bc52445c6bc28a8974ed97a6ba3ecfd657a8190555f8381527fbc488d3e2575f0f2113dc4d9a0cd6bc52445c6bc28a8974ed97a6ba3ecfd657b835260409020805460ff191690911790555f5160206161f65f395f51905f525490680100000000000000008210156102ae5760018201805f5160206161f65f395f51905f525582101561029a575f5160206161f65f395f51905f525f908152200180546001600160a01b031916909117905564174876e8007ffed699897f2561c8a98f833aa3de83c4904370d413fe5fb15abe26e9f8150b2955615e7a908161037c8239608051816128fc0152f35b634e487b7160e01b5f52603260045260245ffd5b634e487b7160e01b5f52604160045260245ffd5b63ab82bb9960e01b5f5260045ffd5b90503b155f61015f565b631e4fbdf760e01b5f525f60045260245ffd5b80156100e35760025f52601f845f20910160051c905f5b8281106103135750506100e3565b5f82820155600101610305565b634e487b7160e01b5f52602260045260245ffd5b90607f16906100d2565b5f80fd5b6040519190601f01601f191682016001600160401b038111838210176102ae57604052565b51906001600160a01b038216820361033e5756fe60806040526004361015610019575b3415613a5b575b5f80fd5b5f3560e01c8062fdd58e1461055d57806301ffc9a714610558578063039af9eb1461055357806303ca3e381461054e5780630a106e9c146105495780630b6c8d71146105445780630cb856411461053f5780630e4ab4871461053a5780630e89341c146105355780630ec3786b146105305780631018c34b1461052b57806310bba86414610526578063116191b6146104c75780631284b92f1461052157806317c957091461051c57806318160ddd146105175780631c790e24146105125780631fe56e6a1461050d57806324d7806c146105085780632aff2a59146105035780632b681a54146104fe5780632eb2c2d6146104f9578063312e76a9146104f45780633c703d45146104ef5780633c970fb9146104ea57806343159ce5146104e5578063475e53ec146104e057806348ed7ebe146104db57806349dd0900146104d65780634dda2215146104d15780634e1273f4146104cc57806353785619146104c75780635476d071146104c257806356217848146104bd5780635637d5bc146104b8578063564da757146104b357806356c689fa146104ae5780636465c3a7146104a9578063671395c8146104a45780636f0fa0cb1461049f5780636f5def391461049a578063706e013214610495578063715018a61461049057806371b8982f146103cd5780637766fa441461048b5780637ffbe2411461048657806382b720c91461048157806383dbbf531461047c578063897828a8146104775780638a1b32bb146104725780638da5cb5b1461046d5780638db553081461046857806394b2e946146104635780639565c5421461045e57806398951b56146104595780639b52f90d146104545780639f1bbda71461044f5780639f3d1a2a1461044a5780639f48facc14610445578063a22cb46514610440578063a47904461461043b578063a876c75914610436578063a98d916e14610431578063acf12d3d1461042c578063aeadb04b14610427578063af7ffa2b14610422578063b84f1fe81461041d578063bd85b03914610418578063c926bbfd14610413578063c9840daf1461040e578063d05dcc6a14610409578063d4506e7714610404578063d52dc515146103ff578063d5f39488146103fa578063dd1bc5e9146103f5578063e141dcb8146103f0578063e4a34dce146103eb578063e5a6b10f146103e6578063e985e9c5146103e1578063f242432a146103dc578063f2fde38b146103d7578063f540f227146103d2578063f986f676146103cd578063fcef6b01146103c85763ffa1ad740361000e57612cb7565b612c9a565b611d7b565b612c70565b612bf9565b612b0c565b612adb565b612a9b565b612a66565b612955565b61292b565b6128e7565b6128c5565b61286d565b612843565b612768565b612743565b61270d565b6126e6565b612673565b61264c565b61262f565b612610565b6125f3565b61258b565b61250c565b6123ae565b6122f7565b6122da565b6122b3565b61223f565b612217565b6121dc565b6121b4565b61218c565b612107565b6120a5565b612039565b611f42565b611f02565b611dc8565b611cda565b611cbb565b611c94565b611c6d565b611c32565b611b28565b611a99565b6119b8565b61199d565b611973565b611956565b610d26565b611895565b611834565b6117f9565b6116de565b61166c565b611521565b6114de565b611495565b61143a565b6113a6565b611222565b6111bb565b611186565b61115c565b61109f565b611076565b61104c565b610f96565b610ce7565b610c8a565b610c2e565b610ac8565b610a45565b6109e8565b6109a7565b6108cd565b6106ed565b610670565b6105cd565b61057f565b6001600160a01b031690565b6001600160a01b0381160361001557565b346100155760403660031901126100155760206105b26004356105a18161056e565b6024355f525f835260405f20610f6c565b54604051908152f35b6001600160e01b031981160361001557565b346100155760203660031901126100155760206004356105ec816105bb565b63ffffffff60e01b16636cdb3d1360e11b811490811561062a575b8115610619575b506040519015158152f35b6301ffc9a760e01b1490505f61060e565b6303a24d0760e21b81149150610607565b634e487b7160e01b5f52603260045260245ffd5b60175481101561066b5760175f5260205f209060021b01905f90565b61063b565b34610015576020366003190112610015576004356017548110156100155761069960809161064f565b5080549060018101549060ff6003600283015492015416916040519384526020840152604083015215156060820152f35b6060906003190112610015576004356106e28161056e565b906024359060443590565b34610015576106fb366106ca565b600654919290916001600160a01b0316806108a057506005546001600160a01b03165b6001600160a01b0316330361089157610735613b5e565b6001600160a01b038116918215610882578015610873576107986107a7916107935f516020615d6e5f395f51905f529661078560405193849263c791063b60e01b60208501528860248501612cd2565b03601f198101835282611292565b613b7e565b60208082518301019101612cf0565b9390916108256107b682613c08565b916107c083613d1a565b6108176107cc84610d4e565b54156107e16107d9612d06565b8a8988613d7c565b8661086c5788905b60135460145492909115610850576108019087613dc3565b6003546001600160a01b0316613df8565b613df8565b61082085610ff2565b610f6c565b546040516001600160a01b039092169582916108419183612d1a565b0390a461084e6001600455565b005b8061085c575b50610801565b6108669087613d9c565b5f610856565b5f906107e9565b63201165f360e21b5f5260045ffd5b63a9b8048960e01b5f5260045ffd5b6396f47d2360e01b5f5260045ffd5b61071e565b6040906003190112610015576004356108bd8161056e565b906024356108ca8161056e565b90565b34610015576108db366108a5565b6006546001600160a01b03168061093457506005546001600160a01b03165b6001600160a01b031633036108915761092f61084e926107856040519384926302841ba760e21b602085015260248401612d2b565b613bab565b6108fa565b6060602091604081019381526040838201528451809452019201905f5b8181106109635750505090565b909192602060a06001926080875180518352848101518584015260408101516040840152606081015160608401520151151560808201520194019101919091610956565b34610015576020366003190112610015576109d46109cf6004356109ca8161056e565b613eab565b612e29565b906109e460405192839283610939565b0390f35b3461001557604036600319011261001557600435610a058161056e565b600654602435906001600160a01b031680610a4057506005546001600160a01b03165b6001600160a01b031633036108915761084e91613fb2565b610a28565b3461001557602036600319011261001557600435610a616140c2565b7ff316e065e93b4fddef3d2d93a57817985081f76ea9e0ca7417ed5b4b086b1fcb6020601854604051908152a1601855005b805180835260209291819084018484015e5f828201840152601f01601f1916010190565b9060206108ca928181520190610a93565b3461001557602036600319011261001557610ae1614126565b6040516001600160601b03193060601b1660208201526014815290610b07603483611292565b610b0f6141b8565b91610b186141e6565b925f5b60148110610b69576040516109e490610b5d81610785610b488a610b42602085018c612d56565b90612d56565b683db4b23e973539b7b760b91b815260090190565b60405191829182610ab7565b80610bb1610b88610bab610ba5610b9c610b96610b886001988b614208565b516001600160f81b03191690565b60f81c90565b60041c600f1690565b60ff1690565b85614208565b610bc7610bbd83612fa7565b915f1a9188614208565b53610bea610b88610bab600f610be3610b96610b88878b614208565b1660ff1690565b610bfe610bbd610bf984612fa7565b613a20565b5301610b1b565b606090600319011261001557600435610c1d8161056e565b90602435906044356108ca8161056e565b3461001557610c3c36610c05565b6006549091906001600160a01b031680610c8557506005546001600160a01b03165b6001600160a01b0316330361089157610c7e92610c79613b5e565b614219565b6001600455005b610c5e565b3461001557604036600319011261001557600435610ca78161056e565b600654602435906001600160a01b031680610ce257506005546001600160a01b03165b6001600160a01b031633036108915761084e916142b6565b610cca565b34610015575f36600319011261001557602060405160068152f35b6001600160a01b0316600452602490565b6001600160a01b03909116815260200190565b34610015575f366003190112610015576005546040516001600160a01b039091168152602090f35b6001600160a01b03165f908152600f6020526040902090565b6001600160a01b03165f9081527fbc488d3e2575f0f2113dc4d9a0cd6bc52445c6bc28a8974ed97a6ba3ecfd657b6020526040902090565b6001600160a01b03165f9081527fbc488d3e2575f0f2113dc4d9a0cd6bc52445c6bc28a8974ed97a6ba3ecfd65816020526040902090565b6001600160a01b03165f9081527fbe5c2328713858b26c97b83c5ace333ac35b55572be4794180ba426b12cc48be6020526040902090565b6001600160a01b03165f9081527fbe5c2328713858b26c97b83c5ace333ac35b55572be4794180ba426b12cc48bf6020526040902090565b6001600160a01b03165f9081527fbe5c2328713858b26c97b83c5ace333ac35b55572be4794180ba426b12cc48c16020526040902090565b6001600160a01b03165f9081527fbe5c2328713858b26c97b83c5ace333ac35b55572be4794180ba426b12cc48c26020526040902090565b6001600160a01b03165f9081527fbe5c2328713858b26c97b83c5ace333ac35b55572be4794180ba426b12cc48c06020526040902090565b6001600160a01b03165f9081527fbe5c2328713858b26c97b83c5ace333ac35b55572be4794180ba426b12cc48c36020526040902090565b5f805260096020527fec8156718a8372b1db44bb411437d0870f3e3790d4a08526d024ce1b0b668f6b90565b6001600160a01b03165f90815260096020526040902090565b9060018060a01b03165f5260205260405f2090565b805482101561066b575f5260205f2001905f90565b3461001557604036600319011261001557600435610fb38161056e565b6001600160a01b03165f908152600e602052604090208054602435919082101561001557602091610fe391610f81565b90549060031b1c604051908152f35b5f527fe5fcefe92466b78c655fa732b80b16e07a00f2a897e833e17d9914703cad563360205260405f2090565b5f527fcb1a422c9916903f224af4db9a3bf1529921bf95ff7b75d7d9ed9073a48394ac60205260405f2090565b34610015576020366003190112610015576004355f52600b602052602060405f2054604051908152f35b34610015575f3660031901126100155760205f516020615e2e5f395f51905f5254604051908152f35b34610015576040366003190112610015576024356004356110bf8261056e565b6006546001600160a01b03168061115757506005546001600160a01b03165b6001600160a01b03163303610891575f806110f7614363565b93604051602081019163071e438960e21b835285602483015260018060a01b031660448201526044815261112c606482611292565b5190855af4611139612d68565b50156111485761084e91614713565b6363bc5ecb60e11b5f5260045ffd5b6110de565b34610015576020366003190112610015576004355f526011602052602060405f2054604051908152f35b3461001557602036600319011261001557602060ff6111af6004356111aa8161056e565b610d67565b54166040519015158152f35b34610015576111c9366108a5565b6006546001600160a01b03168061121d57506005546001600160a01b03165b6001600160a01b031633036108915761092f61084e92610785604051938492630ed647d960e11b602085015260248401612d2b565b6111e8565b34610015576020366003190112610015576109d46004356109cf8161056e565b634e487b7160e01b5f52604160045260245ffd5b61010081019081106001600160401b0382111761127257604052565b611242565b608081019081106001600160401b0382111761127257604052565b601f909101601f19168101906001600160401b0382119082101761127257604052565b604051906112c460a083611292565b565b6001600160401b0381116112725760051b60200190565b9080601f830112156100155781356112f4816112c6565b926113026040519485611292565b81845260208085019260051b82010192831161001557602001905b82821061132a5750505090565b813581526020918201910161131d565b6001600160401b03811161127257601f01601f191660200190565b9291926113618261133a565b9161136f6040519384611292565b829481845281830111610015578281602093845f960137010152565b9080601f83011215610015578160206108ca93359101611355565b346100155760a0366003190112610015576004356113c38161056e565b602435906113d08261056e565b6044356001600160401b038111610015576113ef9036906004016112dd565b6064356001600160401b0381116100155761140e9036906004016112dd565b608435939091906001600160401b0385116100155761143461084e95369060040161138b565b93612f2a565b34610015576020366003190112610015576004356001600160401b03811161001557366023820112156100155760048101356001600160401b038111610015573660248260071b8401011161001557602461084e92016130b5565b34610015576020366003190112610015576004355f527ffed699897f2561c8a98f833aa3de83c4904370d413fe5fb15abe26e9f8150b30602052602060405f2054604051908152f35b3461001557604036600319011261001557610c7e6004356114fe8161056e565b602435611509613b5e565b6115116140c2565b61080160135491601454936147f4565b346100155760403660031901126100155760043561153e8161056e565b6024356006546001600160a01b03168061166757506005546001600160a01b03165b6001600160a01b0316330361089157611577613b5e565b9081906001600160a01b038116156108825761159290613c08565b5f808052602052906115b1825f516020615e4e5f395f51905f52610f6c565b54908115610873575f191461165f575b8083116116255750811561087357611618816115fe847fcfaedf921126ed75cd0b52e9418d816572c256b67104e03066bd3f067f2d53c09461481b565b6040519384526001600160a01b0316929081906020820190565b0390a261084e6001600455565b60405163406e3ab960e01b81526001600160a01b0390921660048301525f60248301526044820152606481019190915280608481015b0390fd5b9150816115c1565b611560565b346100155761167a366106ca565b6006549091906001600160a01b0316806116d957506005546001600160a01b03165b6001600160a01b03163303610891576116b3613b5e565b6001600160a01b03831615610882578115610873576116d4610c7e93613c08565b614a54565b61169c565b34610015576116ec36610c05565b600654919290916001600160a01b0316806117f457506005546001600160a01b03165b6001600160a01b0316330361089157611726613b5e565b6001600160a01b0381161580156117e3575b6108825782156108735761175c61175861175184610d67565b5460ff1690565b1590565b611148575f516020615dae5f395f51905f52916115fe6117a46116189361179e604051631deff10f60e11b602082015261092f816107858b8960248401613152565b50613c08565b916117b26013549060145490565b916117c56117be612d06565b8987613d57565b6117cf8882613fb2565b6117d98886614ad1565b6108128886613d9c565b506001600160a01b03821615611738565b61170f565b346100155760203660031901126100155760206004356118188161056e565b6001600160a01b039061182a90610d9f565b5416604051908152f35b34610015575f366003190112610015576020600754604051908152f35b90602080835192838152019201905f5b81811061186e5750505090565b8251845260209384019390920191600101611861565b9060206108ca928181520190611851565b34610015576040366003190112610015576004356001600160401b0381116100155736602382011215610015578060040135906118d1826112c6565b916118df6040519384611292565b8083526024602084019160051b8301019136831161001557602401905b82821061193c57836024356001600160401b038111610015576109e49161192a6119309236906004016112dd565b9061319f565b60405191829182611884565b60208091833561194b8161056e565b8152019101906118fc565b34610015575f366003190112610015576020601554604051908152f35b34610015576020366003190112610015576004355f526012602052602060405f2054604051908152f35b34610015575f36600319011261001557602060405160648152f35b34610015576040366003190112610015576004356119d58161056e565b602435906119e1613b5e565b6119e96140c2565b6001600160a01b0381161561088257811561087357611618611a185f516020615dae5f395f51905f5292613c08565b6115fe60135460145490611a3d604051611a33602082611292565b5f81528886613d57565b611a478785614ad1565b6108018785613d9c565b604435906001600160401b038216820361001557565b959260c09592989794919860e08801998852602088015260408701526060860152608085015260a08401521515910152565b34610015576020366003190112610015576004356001600160401b0381168103610015576001600160401b03165f9081527f348bae4e1f5cd16c7acea618682eb9de87b5f8161d5b94b9b5591b7620ae71a26020526040902080546109e4600183015492600281015490600381015460048201549060ff60066005850154940154169360405197889788611a67565b3461001557611b36366106ca565b600654919290916001600160a01b031680611c2d57506005546001600160a01b03165b6001600160a01b0316330361089157611b70613b5e565b6001600160a01b03811691821561088257801561087357610798611bc0916107935f516020615d6e5f395f51905f5296610785604051938492634404589760e01b60208501528860248501612cd2565b939091610825611bcf82613c08565b91611be3611bdb612d06565b888786613d7c565b84611c2757865b80611bfa575b5061082085610ff2565b610801611c2191611c0e6013549060145490565b929091611c1b8189614ad1565b87613d9c565b5f611bf0565b5f611bea565b611b59565b3461001557602036600319011261001557600435611c4f8161056e565b60018060a01b03165f52600f602052602060405f2054604051908152f35b346100155760203660031901126100155760206105b2600435611c8f8161056e565b610dd7565b346100155760203660031901126100155760206105b2600435611cb68161056e565b610e0f565b3461001557611cc9366106ca565b90611cd2613b5e565b6116b36140c2565b34610015575f36600319011261001557611cf2614af8565b600380546001600160a01b031981169091555f906001600160a01b03165f516020615dee5f395f51905f528280a3005b906040600319830112610015576004356001600160401b0381116100155782602382011215610015576004810135926001600160401b03841161001557602484830101116100155760240191906024356108ca8161056e565b3461001557611d8936611d22565b6006549091906001600160a01b031680611dc357506005546001600160a01b03165b6001600160a01b031633036108915761084e9261322e565b611dab565b3461001557611dd636611d22565b6006549192916001600160a01b031680611efd57506005546001600160a01b03165b6001600160a01b0316330361089157611e0f613b5e565b6001600160a01b0381161561088257611e5e611e4f5f94611e4a8695610785604051938492633aa2954160e11b6020850152602484016134e1565b613bb8565b60208082518301019101613538565b611e69929192614363565b928115158514611ec457611e9890610785604051938492602084019663d8bdbdf560e01b885260248501613598565b51915af4611ea4612d68565b505b15611eb55761084e6001600455565b63fb713d2b60e01b5f5260045ffd5b6107859150611eeb906040519283916020830195630b18ae1d60e11b875260248401613568565b51915af4611ef7612d68565b50611ea6565b611df8565b3461001557602036600319011261001557600435611f1f8161056e565b60018060a01b03165f526009602052602060ff60405f2054166040519015158152f35b346100155760a036600319011261001557600435611f5f816105bb565b60243590611f6c8261056e565b604435906064356084356006549091906001600160a01b03168061203457506005546001600160a01b03165b6001600160a01b031633036108915761200493611fb3614363565b6040516382b720c960e01b60208201526001600160e01b031990951660248601526001600160a01b0390961660448501526064840152608483015260a480830191909152815261092f60c482611292565b906020828051810103126100155761202460206109e49301518092614713565b6040519081529081906020820190565b611f98565b34610015576020366003190112610015576004356120556140c2565b801561208c576020817fd45b01a2f21a7aa8a0f57023efdce73147de071e77875c3f4d486b1e13eaef7092600755604051908152a1005b6376024b7160e01b5f5260045ffd5b8015150361001557565b34610015576020366003190112610015577fc52867146282c253c04e94eb2a948478a1f7ef84cf2d6f5864facc99f2203f2c60206004356120e58161209b565b6120ed6140c2565b151560ff19600a541660ff821617600a55604051908152a1005b34610015576020366003190112610015576004356121248161056e565b6006546001600160a01b03168061218757506005546001600160a01b03165b6001600160a01b0316330361089157604051638a1b32bb60e01b60208201526001600160a01b03909116602480830191909152815261084e9061092f604482611292565b612143565b34610015575f366003190112610015576003546040516001600160a01b039091168152602090f35b346100155760203660031901126100155760206121d26004356135d0565b6040519015158152f35b34610015576020366003190112610015576004356121f98161056e565b60018060a01b03165f526010602052602060405f2054604051908152f35b34610015575f366003190112610015576006546040516001600160a01b039091168152602090f35b346100155760203660031901126100155760043560ff61225e33610d67565b5416156111485761226d614363565b905f806040516020810190634c4a8dab60e11b825284602482015260248152612297604482611292565b5190855af46122a4612d68565b5015611eb55761084e91614713565b346100155760203660031901126100155760206105b26004356122d58161056e565b610e47565b34610015575f366003190112610015576020600854604051908152f35b34610015575f366003190112610015576109e4612312614126565b604051918291602083526020830190610a93565b81516001600160401b039081168252602080840151909116908201526040808301516001600160801b039081169183019190915260608084015190911690820152610100810192916112c4919060e090819060808181015115159085015260a08181015160ff169085015260c08181015160ff169085015201516001600160801b0316910152565b34610015576020366003190112610015576004355f60e06040516123d181611256565b8281528260208201528260408201528260608201528260808201528260a08201528260c082015201525f527fe5fcefe92466b78c655fa732b80b16e07a00f2a897e833e17d9914703cad56326020526109e460405f206124db6124cb60026040519361243c85611256565b80546001600160401b038082168752604082901c16602087015261246d9060801c6001600160801b03166040870152565b60018101546001600160801b03811660608701526124bd906124b39061249d608082901c60ff16151560808a0152565b60ff608882901c1660a089015260901c60ff1690565b60ff1660c0870152565b01546001600160801b031690565b6001600160801b031660e0830152565b60405191829182612326565b6040906003190112610015576004356124ff8161056e565b906024356108ca8161209b565b346100155761251a366124e7565b6001600160a01b038216918215612579578161254461254992335f52600160205260405f20610f6c565b61303c565b60405190151581527f17307eab39ab6107e8899845ad3d59bd9653f200f220920489ca2b5937696c3160203392a3005b62ced3e160e81b5f525f60045260245ffd5b34610015576040366003190112610015576004356001600160401b0381116100155736602382011215610015576004810135906001600160401b038211610015573660248360051b830101116100155761084e9160248035926125ed8461056e565b0161368a565b34610015575f366003190112610015576020601854604051908152f35b34610015575f36600319011261001557602060405164174876e8008152f35b34610015575f366003190112610015576020601354604051908152f35b346100155760203660031901126100155760206105b260043561266e8161056e565b610e7f565b34610015576040366003190112610015576004356126908161056e565b60065460243591906001600160a01b0316806126e157506005546001600160a01b03165b6001600160a01b0316330361089157610c7e916126cf613b5e565b6003546001600160a01b031691614219565b6126b4565b346100155760203660031901126100155760206105b26004356127088161056e565b610eb7565b34610015576020366003190112610015576004355f525f516020615dce5f395f51905f52602052602060405f2054604051908152f35b34610015575f3660031901126100155760206040515f8152f35b60ff81160361001557565b34610015576060366003190112610015576004356127858161275d565b60243590600160ff612795611a51565b92160361280b576127cf915f527f348bae4e1f5cd16c7acea618682eb9de87b5f8161d5b94b9b5591b7620ae71a360205260405f20613219565b80546109e460018301549260028101549060038101546004820154906127fe6006600585015494015460ff1690565b9360405197889788611a67565b61283e915f527f348bae4e1f5cd16c7acea618682eb9de87b5f8161d5b94b9b5591b7620ae71a460205260405f20613219565b6127cf565b34610015576020366003190112610015576004355f52600c602052602060405f2054604051908152f35b34610015576020366003190112610015576004356128896140c2565b7f1c8121c98d871a1523a6112e29ac660378afbcb9b921cff8f187c3da35d17081816008546128bd60405192839283612d1a565b0390a1600855005b34610015575f36600319011261001557602060ff600a54166040519015158152f35b34610015575f366003190112610015576040517f00000000000000000000000000000000000000000000000000000000000000006001600160a01b03168152602090f35b34610015576020366003190112610015576004355f526016602052602060405f2054604051908152f35b346100155760803660031901126100155760443560043560643560243561297b8261209b565b6129836140c2565b8215612a5757601754916040519461299a86611277565b8486526020860192808452604087019382855260608801978415158952600160401b87101561127257600187016017556129d38761064f565b919091612a52577fb08290a3275552d4032ce96418c8bc739fd6be2860fe5897558f5c0af90e91fb99612a4d97612a2094600393518555516001850155516002840155511515910161303c565b6040519586958693909594919260809360a086019786526020860152604085015260608401521515910152565b0390a1005b612fc2565b639033099360e01b5f5260045ffd5b346100155761084e612a77366124e7565b90612a806140c2565b6001600160a01b03165f90815260096020526040902061303c565b34610015575f3660031901126100155760ff60065460a01c166040516009821015612ac7576020918152f35b634e487b7160e01b5f52602160045260245ffd5b3461001557602060ff6111af612af0366108a5565b6001600160a01b039091165f9081526001855260409020610f6c565b346100155760a036600319011261001557600435612b298161056e565b602435612b358161056e565b60443590606435926084356001600160401b03811161001557612b5c90369060040161138b565b926001600160a01b0382163381141580612bd9575b612bc3576001600160a01b03841615612bb05715612b9e5761084e94612b9691614deb565b9290916150b6565b626a0d4560e21b5f525f60045260245ffd5b632bfa23e760e11b5f525f60045260245ffd5b63711bec9160e11b5f523360045260245260445ffd5b50805f52600160205260ff612bf13360405f20610f6c565b541615612b71565b3461001557602036600319011261001557600435612c168161056e565b612c1e614af8565b6001600160a01b03168015612c5d57600380546001600160a01b0319811683179091556001600160a01b03165f516020615dee5f395f51905f525f80a3005b631e4fbdf760e01b5f525f60045260245ffd5b34610015576020366003190112610015576004355f52600d602052602060405f2054604051908152f35b34610015575f366003190112610015576020601454604051908152f35b34610015575f366003190112610015576020604051600c8152f35b604091949392606082019560018060a01b0316825260208201520152565b9190826040910312610015576020825192015190565b60405190612d15602083611292565b5f8252565b908152602081019190915260400190565b6001600160a01b0391821681529116602082015260400190565b5f516020615e2e5f395f51905f5255565b805191908290602001825e015f815290565b3d15612d92573d90612d798261133a565b91612d876040519384611292565b82523d5f602084013e565b606090565b90612da1826112c6565b612dae6040519182611292565b8281528092612dbf601f19916112c6565b015f5b818110612dce57505050565b60405160a0810191906001600160401b03831181841017611272576020926040525f81525f838201525f60408201525f60608201525f608082015282828601015201612dc2565b805182101561066b5760209160051b010190565b6001600160a01b0381165f908152600e60205260409020909190918254612e4f81612d97565b935f5b828110612e7f5750505f80805260205250612e7a905f516020615e4e5f395f51905f52610f6c565b549190565b80612e99612e8f60019385610f81565b90549060031b1c90565b612f03612eae825f52600b60205260405f2090565b548015159081612f1f575b612ecb845f52600c60205260405f2090565b54612ede855f52600d60205260405f2090565b5490612ee86112b5565b95865260208601526040850152606084015215156080830152565b612f0d8289612e15565b52612f188188612e15565b5001612e52565b809150421190612eb9565b939291906001600160a01b0385163381141580612f63575b612bc3576001600160a01b03821615612bb05715612b9e576112c4946150b6565b50805f52600160205260ff612f7b3360405f20610f6c565b541615612f42565b919081101561066b5760071b0190565b634e487b7160e01b5f52601160045260245ffd5b908160011b9180830460021490151715612fbd57565b612f93565b634e487b7160e01b5f525f60045260245ffd5b6017545f60175580612fe45750565b600281901b906001600160fe1b03811603612fbd5760175f5260205f205f5b82811061300f57505050565b805f60036004938501828155826001820155826002820155015501613003565b805460ff19166001179055565b9060ff801983541691151516179055565b601754600160401b811015611272576001810160175560175481101561066b5760175f5260021b5f516020615e0e5f395f51905f5201600360606112c4938035845560208101356001850155604081013560028501550135916130af8361209b565b0161303c565b6130bd6140c2565b8115613143575f5b82811061312a57506130d5612fd5565b5f5b82811061310e5750506040519081527f2f291eaf494dc7eca20457441a1df7d9119f0c0d764309daf9cb6b148810ee3690602090a1565b8061312461311f6001938686612f83565b61304d565b016130d7565b613135818484612f83565b3515612a57576001016130c5565b6308ba5b6160e01b5f5260045ffd5b6001600160a01b039091168152602081019190915260400190565b90613177826112c6565b6131846040519182611292565b8281528092613195601f19916112c6565b0190602036910137565b919091805183518082036132045750506131b9815161316d565b905f5b81518110156131fd57806131eb60019260051b602080828701015191890101515f525f60205260405f20610f6c565b546131f68286612e15565b52016131bc565b5090925050565b635b05999160e01b5f5260045260245260445ffd5b9060018060401b03165f5260205260405f2090565b9092613238613b5e565b6001600160a01b03831615610882576132836132548584614b48565b94611e4a6132628286614bc4565b946107858760405194859363fd44e85560e01b602086015260248501614b1f565b9361329760208651870101602087016139ce565b94929691509687518551036134a457506132b090613c08565b906132ba82613d1a565b6132c382610d4e565b54155f955f975f5b8a51811015613310576132de818c612e15565b51156132ed575b6001016132cb565b985096613305906132fe8a89612e15565b5190613a2e565b6001989097906132e5565b5090919294979693961561349c575b508180613491575b613469575b828061341a575b50505f5b87518110156133c05761334a8186612e15565b519081156108735760019161335f828b612e15565b51156133ba5764174876e800613375838c612e15565b51106133965761339090613389838c612e15565b5189614a54565b01613337565b6133b5906133a4838c612e15565b51906133ae612d06565b918a613d7c565b613390565b50613390565b509195506133f59490939192506001600160a01b0381161561340857905b601354601454949093156133ff5761081291613dc3565b6112c46001600455565b61081291613d9c565b50613414600354610562565b906133de565b61344e91613430613429612d06565b838a613d57565b6001600160a01b0389161561345557613449828a613fb2565b614ca5565b5f82613333565b61344982613464600354610562565b613fb2565b613479613474614c3a565b61064f565b505483101561332c5763559d06d760e01b5f5260045ffd5b506017541515613327565b92505f61331f565b60405163dccff66960e01b815290819061165b9060048301610ab7565b908060209392818452848401375f828201840152601f01601f1916010190565b9160206108ca9381815201916134c1565b81601f82011215610015578051906135098261133a565b926135176040519485611292565b8284526020838301011161001557815f9260208093018386015e8301015290565b91906040838203126100155782516001600160401b038111610015576020916135629185016134f2565b92015190565b6001600160a01b03909116815260016020820181905260408201526080606082018190526108ca92910190610a93565b9392916135cb9060809260018060a01b03168652600160208701526001604087015260a0606087015260a0860190610a93565b930152565b64174876e800811061367b575f9081527ffed699897f2561c8a98f833aa3de83c4904370d413fe5fb15abe26e9f8150b2a60209081526040808320547ffed699897f2561c8a98f833aa3de83c4904370d413fe5fb15abe26e9f8150b2b909252909120546001600160401b0390811691168015159081613680575b5061367b576001600160401b03168015159081613671575b5061366d57600190565b5f90565b905042115f613663565b505f90565b905042105f61364b565b600654919390916001600160a01b03168061389157506005546001600160a01b03165b6001600160a01b03163303610891576136c4613b5e565b6001600160a01b03831615610882578315611eb5576137276136ef6136e98685613896565b90614b48565b94611e4a6137066137008387613896565b90614bc4565b946107858760405194859363bca0e27d60e01b6020860152602485016138d0565b9361373b60208651870101602087016139ce565b94929691509687518551036134a4575061375490613c08565b9061375e82613d1a565b61376782610d4e565b54155f955f975f5b8a518110156137ad57613782818c612e15565b5115613791575b60010161376f565b9850966137a2906132fe8a89612e15565b600198909790613789565b50909192949796939615613889575b50818061387e575b61385b575b8280613845575b50505f5b87518110156133c0576137e78186612e15565b51908115610873576001916137fc828b612e15565b511561383f5764174876e800613812838c612e15565b511061382c5761382690613389838c612e15565b016137d4565b61383a906133a4838c612e15565b613826565b50613826565b61385491613430613429612d06565b5f826137d0565b613866613474614c3a565b50548310156137c95763559d06d760e01b5f5260045ffd5b5060175415156137c4565b92505f6137bc565b6136ad565b901561066b57803590601e19813603018212156100155701803591906001600160401b038311610015576020018236038113610015579190565b93929190816040860160408752526060850160608360051b87010192825f90601e19813603015b83831061391a575050505050509060206112c49294019060018060a01b03169052565b909192939495605f198a8203018652863582811215610015578301602081019190356001600160401b0381116100155780360383136100155761396360209283926001956134c1565b9801960194930191906138f7565b9080601f83011215610015578151613988816112c6565b926139966040519485611292565b81845260208085019260051b82010192831161001557602001905b8282106139be5750505090565b81518152602091820191016139b1565b9060808282031261001557815192602083015192604081015160018060401b0381116100155783613a00918301613971565b60608201519093906001600160401b038111610015576108ca9201613971565b9060018201809211612fbd57565b91908201809211612fbd57565b9081602091031261001557516108ca8161275d565b6040513d5f823e3d90fd5b613a63614d1d565b60405163426dc88f60e01b81526001600160e01b03195f351660048201526020816024816001600160a01b0386165afa908115613b59575f91613b2a575b5060ff1660fd198101613acd57505f80915b368280378136915af43d90815f803e15613aca575ff35b5ffd5b905080613ae457505f80613adf6144d9565b613ab3565b60038103613af757505f80613adf614363565b60018103613b0a57505f80613adf614467565b600203613b1b575f80613adf6143f5565b633655084960e01b5f5260045ffd5b613b4c915060203d602011613b52575b613b448183611292565b810190613a3b565b5f613aa1565b503d613b3a565b613a50565b600260045414613b6f576002600455565b633ee5aeb560e01b5f5260045ffd5b5f8091613b8b600161454a565b602082519201905af490613b9d612d68565b9115613ba557565b50614db9565b5f8091613b8b600361454a565b5f8091613b8b8261454a565b5f8091613b8b600461454a565b5f8091613b8b600261454a565b9081602091031261001557516108ca8161056e565b9081602091031261001557516108ca8161209b565b60046020613c22613c1d613c1d600554610562565b610562565b604051630e83251360e01b815292839182905afa908115613b59575f91613ceb575b506001600160a01b03168015613cdc57602060405180926303330c7960e41b82528180613c748760048301610d13565b03915afa908115613b59575f91613cad575b50613c94576108ca90613eab565b803b15613c9e5790565b632ad05f3360e11b5f5260045ffd5b613ccf915060203d602011613cd5575b613cc78183611292565b810190613bf3565b5f613c86565b503d613cbd565b63ab82bb9960e01b5f5260045ffd5b613d0d915060203d602011613d13575b613d058183611292565b810190613bde565b5f613c44565b503d613cfb565b60405163e6a84c7760e01b60208201526001600160a01b039091166024808301919091528152613d5490613d4f604482611292565b613bc4565b50565b9091906001600160a01b03811615612bb057613d766112c4935f614deb565b91614e10565b919291906001600160a01b03821615612bb0576112c493613d7691614deb565b90613d4f613d549261078560405193849263a55d613f60e01b602085015260248401613152565b90613d4f613d549261078560405193849263179953bf60e11b602085015260248401613152565b5f198114612fbd5760010190565b601354828103949392818611612fbd57601454938403938411612fbd576001600160a01b03831615918215613e93575b5050613e8d57925f935b6001600160a01b038116151580613e83575b15613e7c57613e70613e6382613e5e8686613e76966153d7565b610d9f565b546001600160a01b031690565b94613dea565b93613e32565b5050509050565b5060408510613e44565b50509050565b14905080613ea3575b5f80613e28565b508115613e9c565b60046020613ec0613c1d613c1d600554610562565b60405163fb3894d360e01b815292839182905afa908115613b59575f91613f93575b506001600160a01b038116918215613cdc57602060405180946308a8c59960e01b82528180613f148660048301610d13565b03915afa928315613b59575f93613f72575b506001600160a01b038316158015613f69575b613f4257505090565b63ad12d34160e01b5f526001600160a01b039081166004529081166024521660445260645ffd5b50823b15613f39565b613f8c91935060203d602011613d1357613d058183611292565b915f613f26565b613fac915060203d602011613d1357613d058183611292565b5f613ee2565b906001600160a01b0382161580156140ba575b6140b657613fd282610dd7565b805492828401809411612fbd57600893613fec9255610eef565b610e1042045f5260205260405f20906009820161400d611758825460ff1690565b6140a7575b5061401e5f8354613a2e565b825561402f60018301918254613a2e565b9055600281016140405f8254613a2e565b9055600381016140515f8254613a2e565b9055600481016140625f8254613a2e565b9055600581016140735f8254613a2e565b9055600681016140845f8254613a2e565b9055600781016140955f8254613a2e565b9055016140a35f8254613a2e565b9055565b6140b09061302f565b5f614012565b5050565b508015613fc5565b6006546001600160a01b03168061412157506005546001600160a01b03165b6003546001600160a01b0316331415908161410d575b506140fe57565b630fc5e1ab60e41b5f5260045ffd5b6001600160a01b031633141590505f6140f7565b6140e1565b6005546001600160a01b031680158181156141ae575b50613cdc575f60049160405192838092634f9e8d1560e11b82525afa908115613b59575f91614171575b50805115613cdc5790565b90503d805f833e6141828183611292565b81016020828203126100155781516001600160401b038111610015576141a892016134f2565b5f614166565b90503b155f61413c565b604051906141c7604083611292565b601082526f181899199a1a9b1b9c1cb0b131b232b360811b6020830152565b604051606091906141f78382611292565b6028815291601f1901366020840137565b90815181101561066b570160200190565b90916001600160a01b03821691908215610882576001600160a01b03811615610882578315610873576142a061426f7f6ac4f60455173f2148d89d52868ac4ffb14111720d245aa36ad26e0d7e64c59b93613c08565b91601354601454916142826117be612d06565b61428c8886614ad1565b6142968886613d9c565b61081288826154d5565b6040519384526001600160a01b031692602090a3565b906001600160a01b03821615801561435b575b6140b6576142d682610e0f565b805492828401809411612fbd5760089361430692556142f9610e10420491610eef565b905f5260205260405f2090565b9060098201614319611758825460ff1690565b61434c575b5061432a5f8354613a2e565b82556001820161433b5f8254613a2e565b905561404060028301918254613a2e565b6143559061302f565b5f61431e565b5080156142c9565b61436e600554610562565b6001600160a01b0381169081159081156143eb575b50613cdc57602060049160405192838092632502c7e760e11b82525afa908115613b59575f916143cc575b506001600160a01b0381166108ca5763a9d04f8760e01b5f5260045ffd5b6143e5915060203d602011613d1357613d058183611292565b5f6143ae565b90503b155f614383565b614400600554610562565b6001600160a01b03811690811590811561445d575b50613cdc57602060049160405192838092632b5e757b60e11b82525afa908115613b59575f916143cc57506001600160a01b0381166108ca5763a9d04f8760e01b5f5260045ffd5b90503b155f614415565b614472600554610562565b6001600160a01b0381169081159081156144cf575b50613cdc57602060049160405192838092635ee738d560e11b82525afa908115613b59575f916143cc57506001600160a01b0381166108ca5763a9d04f8760e01b5f5260045ffd5b90503b155f614487565b6144e4600554610562565b6001600160a01b038116908115908115614540575b50613cdc57602060049160405192838092620c3c5d60e81b82525afa908115613b59575f916143cc57506001600160a01b0381166108ca5763a9d04f8760e01b5f5260045ffd5b90503b155f6144f9565b614555600554610562565b6001600160a01b038116919082159081156146d0575b50613cdc57602060ff600492169283155f146145fc57604051620c3c5d60e81b815292839182905afa908115613b59575f916145dd575b505b6001600160a01b0381166145d857600482146145c95763a9d04f8760e01b5f5260045ffd5b632dc6cc2360e01b5f5260045ffd5b905090565b6145f6915060203d602011613d1357613d058183611292565b5f6145a2565b6001840361464b57604051635ee738d560e11b815292839182905afa908115613b59575f9161462c575b506145a4565b614645915060203d602011613d1357613d058183611292565b5f614626565b6002840361467a57604051632b5e757b60e11b815292839182905afa908115613b59575f9161462c57506145a4565b600384036146a957604051632502c7e760e11b815292839182905afa908115613b59575f9161462c57506145a4565b6040516324e1067960e11b815292839182905afa908115613b59575f9161462c57506145a4565b90503b155f61456b565b908160a09103126100155780516146f0816105bb565b9160208201516146ff8161056e565b916040810151916080606083015192015190565b90614745815f527fbc488d3e2575f0f2113dc4d9a0cd6bc52445c6bc28a8974ed97a6ba3ecfd657d60205260405f2090565b600681015460ff169081156147c5575b506140b6575f918291604051614785816107856020820194630d61b51960e01b8652602483019190602083019252565b51915af4614791612d68565b90156147c0576147ad816020806112c4945183010191016146da565b509290916001600160a01b03169061552e565b614db9565b6005915001547fbc488d3e2575f0f2113dc4d9a0cd6bc52445c6bc28a8974ed97a6ba3ecfd657a54115f614755565b90613d4f613d5492610785604051938492635bcc7ca960e11b602085015260248401613152565b906001600160a01b03821615612b9e57614835905f614deb565b915f604051614845602082611292565b525f905f92614854815161316d565b9161485f825161316d565b905f925f5b8151811015614963576148778183612e15565b51606481101580614955575b61491a571580614913575b61489d575b6001905b01614864565b6148a7818a612e15565b516148f4575b600a5460ff166148bd575b614893565b6148cb611758611751610f27565b15614893576148df6117586117515f610f53565b156148b8575b639798976560e01b5f5260045ffd5b969561490261490d91613a20565b966132fe898b612e15565b966148ad565b505f61488e565b6001919561494f9161493f86614930848c612e15565b6001600160a01b039091169052565b6149498288612e15565b52613dea565b94614897565b5064174876e8008110614883565b50959091979396945f6149788789838761599d565b614a3b575b5050505f955f965b85518810156149d45760019061499b8987612e15565b51906149c56149aa8b8a612e15565b515f525f516020615dce5f395f51905f5260205260405f2090565b82815403905501970196614985565b9195935093506149f59195505f516020615e2e5f395f51905f525403612d45565b5f5b838110614a045750505050565b80614a35614a24614a1760019486612e15565b516001600160a01b031690565b614a2e8387612e15565b5190615c7b565b016149f7565b614a47614a4c93615b56565b615bfd565b5f808061497d565b60207fae2f87dbf103db294ddd4ab45caa7a914d70bb3d06eeb8a8dc23e03e84548c8d91614aa2604051633c2f328b60e11b84820152614a9d8161078589898760248501612cd2565b613bd1565b50614abe604051614ab38482611292565b5f8152868684613d7c565b6040519485526001600160a01b031693a3565b90613d4f613d549261078560405193849263b932546160e01b602085015260248401613152565b6003546001600160a01b03163303614b0c57565b63118cdaa760e01b5f523360045260245ffd5b91602091614b38919594956040855260408501916134c1565b6001600160a01b03909416910152565b8115614bbe57614b59913691611355565b60208151910120805f525f516020615d8e5f395f51905f5260205260405f2060ff815460a01c16614bac5750614b8e9061101f565b60ff815416614b9c57505f90565b600201546001600160a01b031690565b600401546001600160a01b0316919050565b50505f90565b8115614bbe57614bd5913691611355565b60208151910120805f525f516020615d8e5f395f51905f5260205260405f2060ff815460a01c16614c285750614c0a9061101f565b60ff815416614c1857505f90565b600301546001600160a01b031690565b600501546001600160a01b0316919050565b6017548015614c9f575f906017541561066b5760175f525f516020615e0e5f395f51905f525460015b828110614c705750505090565b81614c7a8261064f565b505410614c8a575b600101614c63565b809350614c97915061064f565b505482614c82565b505f1990565b9091906001600160a01b038116158015614d15575b614d10575f905b6001600160a01b038116151580614d06575b15613e8d5780614ce685614d009361559d565b6001600160a01b0390614cf890610d9f565b541691613dea565b90614cc1565b5060408210614cd3565b509050565b508215614cba565b614d28600554610562565b6001600160a01b03811691908215908115614daf575b50613cdc57602060049260405193848092634e077ded60e11b82525afa918215613b59575f92614d8e575b506001600160a01b03821615828115614d84575b50613cdc57565b90503b155f614d7d565b614da891925060203d602011613d1357613d058183611292565b905f614d69565b90503b155f614d3e565b80519081614de65760405163dccff66960e01b81526020600482015290819061165b906024830190610a93565b602001fd5b9160405192600184526020840152604083019160018352606084015260808301604052565b9293905f905f92614e21825161316d565b90614e2c835161316d565b925f915f5b8251811015614f3657614e448184612e15565b51606481101580614f28575b614edb571580614ed4575b614e6a575b6001905b01614e31565b614e74818a612e15565b51614ec0575b600a5460ff16614e8a575b614e60565b614e98611758611751610f27565b15614e6057614eac6117586117518c610f53565b15614e8557639798976560e01b5f5260045ffd5b9695614902614ece91613a20565b96614e7a565b505f614e5b565b6001600160a01b038b161580614f21575b614efa575b50600190614e64565b84614f1a91614f105f614930600196998b612e15565b614949828a612e15565b9390614ef1565b505f614eec565b5064174876e8008110614e50565b5094909695989291989793975f614f4f888a888461599d565b6150a2575b50505f975f985b87518a1015614f9d57614f958a600192614f836149aa614f7b848d612e15565b51938d612e15565b614f8e838254613a2e565b9055613a2e565b990198614f5b565b614fc7919397959950614fc290989294985f516020615e2e5f395f51905f5254613a2e565b612d45565b6001600160a01b038716159283615043575b5f5b83811061502a575050505015614ff2575b50505050565b805160010361501a579060208061501195930151910151915f336157f6565b5f808080614fec565b615025935f336156d8565b615011565b8061503d614a24614a1760019486612e15565b01614fdb565b969290979395915f985f995b88518b101561507b578a60019161506c6149aa614f7b848d612e15565b828154039055019a019961504f565b61509d91939599929498969a505f516020615e2e5f395f51905f525403612d45565b614fd9565b6150af91614a475f615b56565b5f80614f54565b93949093916001600160a01b03831615801592839290836153c4575b5f945f966150e0845161316d565b916150eb855161316d565b945f945f5b825181101561522e578d846151058386612e15565b5191606483101580615220575b6151a5575050158061519e575b61512e575b6001905b016150f0565b8c6151398282612e15565b5161517e575b50600a5460ff1615615124578d61515a611758611751610f27565b615165575b50615124565b61175861175161517492610f53565b6148e5578d61515f565b9a9b6132fe82615191615197949f613a20565b9d612e15565b9a8c61513f565b508961511f565b8b9161520e575b50156151ff576001600160a01b038f1615806151f8575b6151d1575b50600190615128565b876151f1916151e7886149306001969c8c612e15565b614949828c612e15565b96906151c8565b50846151c3565b63b8333dc960e01b5f5260045ffd5b6001600160a01b03161590508f6151ac565b5064174876e8008310615112565b509c9a98929991509a9695929594939461524a898d8a8d61599d565b806153b2575b61539e575b505061533f575b6001600160a01b0384161592836152d8575b5f5b8381106152bf575050505015615288575b5050505050565b84516001036152ae576020806152a496015192015192336157f6565b5f80808080615281565b6152ba949192336156d8565b6152a4565b806152d2614a24614a1760019486612e15565b01615270565b979693915f9693915f975b895189101561531757896001916153086149aa8c615301818e612e15565b5194612e15565b828154039055019801976152e3565b61533a91939598509991939598995f516020615e2e5f395f51905f525403612d45565b61526e565b979394915f9693915f975b89518910156153735761536b8a600192614f836149aa8d615301818f612e15565b98019761534a565b6153999193959850614fc2909a929497969a5f516020615e2e5f395f51905f5254613a2e565b61525c565b6153ab91614a478a615b56565b5f80615255565b50811515806152505750801515615250565b6001600160a01b038816151593506150d2565b6001600160a01b0381161580156154c4575b6154bf576140a3916153fc600892610eef565b610e1042045f5260205260405f20906009820161541d611758825460ff1690565b6154b0575b5061542e5f8354613a2e565b82556001820161543f5f8254613a2e565b9055600282016154505f8254613a2e565b9055600382016154615f8254613a2e565b9055600482016154725f8254613a2e565b9055600582016154835f8254613a2e565b9055600682016154945f8254613a2e565b90556154a560078301918254613a2e565b905501918254613a2e565b6154b99061302f565b5f615422565b505050565b50811580156153e9575082156153e9565b9091906001600160a01b038116158015615526575b614d10575f905b6001600160a01b03811615158061551c575b15613e8d5780614ce68561551693615894565b906154f1565b5060408210615503565b5082156154ea565b9092906001600160e01b031916630b18ae1d60e11b810361555857632bb82cb360e01b5f5260045ffd5b631cb4772560e21b8103615584575050906112c4916040519161557c602084611292565b5f8352613d57565b90915063178fb21b60e11b03611eb5576112c4916147f4565b906001600160a01b038216158015615668575b6140b6576155bd82610e47565b805492828401809411612fbd576008936155e092556142f9610e10420491610eef565b90600982016155f3611758825460ff1690565b615659575b506156045f8354613a2e565b8255600182016156155f8254613a2e565b9055600282016156265f8254613a2e565b9055600382016156375f8254613a2e565b9055600482016156485f8254613a2e565b905561407360058301918254613a2e565b6156629061302f565b5f6155f8565b5080156155b0565b9081602091031261001557516108ca816105bb565b6001600160a01b0391821681529116602082015260a0604082018190526108ca94919391926156ca92916156bc9190860190611851565b908482036060860152611851565b916080818403910152610a93565b9091949293853b6156ec575b505050505050565b60209361570e91604051968795869563bc197c8160e01b875260048701615685565b03815f6001600160a01b0387165af15f918161578c575b506157565750615733612d68565b805191908261574f57632bfa23e760e11b5f52613aca82610d02565b6020915001fd5b6001600160e01b0319166343e6837f60e01b0161577957505f80808080806156e4565b632bfa23e760e11b5f52613aca90610d02565b6157af91925060203d6020116157b6575b6157a78183611292565b810190615670565b905f615725565b503d61579d565b6001600160a01b039182168152911660208201526040810191909152606081019190915260a0608082018190526108ca92910190610a93565b9091949293853b61580957505050505050565b60209361582b91604051968795869563f23a6e6160e01b8752600487016157bd565b03815f6001600160a01b0387165af15f9181615873575b506158505750615733612d68565b6001600160e01b031916630dc5919f60e01b0161577957505f80808080806156e4565b61588d91925060203d6020116157b6576157a78183611292565b905f615842565b906001600160a01b038216158015615970575b6140b6576158b482610e7f565b805492828401809411612fbd576008936158d792556142f9610e10420491610eef565b90600982016158ea611758825460ff1690565b615961575b506158fb5f8354613a2e565b82556001820161590c5f8254613a2e565b90556002820161591d5f8254613a2e565b90556003820161592e5f8254613a2e565b90556004820161593f5f8254613a2e565b9055600582016159505f8254613a2e565b905561408460068301918254613a2e565b61596a9061302f565b5f6158ef565b5080156158a7565b909161598f6108ca93604084526040840190611851565b916020818403910152611851565b9392918051835190818103615b415750505f5b8151811015615a9c578060051b90602080838501015192860101518460018060a01b038916615a1f575b6001936001600160a01b0382166159f5575b505050016159b0565b615a1591610820615a0d925f525f60205260405f2090565b918254613a2e565b90555f84816159ec565b509091615a3788610820835f525f60205260405f2090565b54828110615a6557829160019493879203615a5d8b610820845f525f60205260405f2090565b5593506159da565b6040516303dee4c560e01b81526001600160a01b038a16600482015260248101919091526044810183905260648101829052608490fd5b508051939493919291600103615afe576020908101519101516040516001600160a01b03938416949093169233927fc3d58168c5ae7397731d063d5bbf3d657854427343f4c083240f7aacaa2d0f62928291615af9919083612d1a565b0390a4565b6040516001600160a01b03938416949093169233927f4a39dc06d4c0dbc64b70af90fd698a233a518aa5d07e595d983b8c0526c8f7fb928291615af99183615978565b635b05999160e01b5f5260045260245260445ffd5b615b6261175133610d67565b615bf8576001600160a01b038116158015615bef575b61367b575f80916040516020810190638da5cb5b60e01b825260048152615ba0602482611292565b51915afa615bac612d68565b90158015615be4575b61367b57613c1d81602080615bcf94518301019101613bde565b615bdb61175182610d67565b6108ca57505f90565b506020815110615bb5565b50803b15615b78565b503390565b9192916001600160a01b038116158015615c6a575b613e8d57905f915b6001600160a01b038116151580615c60575b15613e7c5780615c408684615c5a94615ca2565b6001600160a01b0390615c5290610d9f565b541692613dea565b91615c1a565b5060408310615c2c565b5081158015615c1257508315615c12565b90613d4f613d5492610785604051938492637e4152e760e11b602085015260248401613152565b916001600160a01b038316158015615d5c575b6154bf57615cc283610eb7565b805493838501809511612fbd57600894615ce592556142f9610e10420491610eef565b9160098301615cf8611758825460ff1690565b615d4d575b50615d095f8454613a2e565b835560018301615d1a5f8254613a2e565b905560028301615d2b5f8254613a2e565b9055615d3c60038401918254613a2e565b905561406260048301918254613a2e565b615d569061302f565b5f615cfd565b5081158015615cb557508015615cb556fe3bf2de114e2e7636c289f21be023528e47d89b45e873b976c78989c3ddc683f5cb1a422c9916903f224af4db9a3bf1529921bf95ff7b75d7d9ed9073a48394ab3e38a9410c08ddb4af8b083bfd2b197b1c3e61a651bd1c54c51ebce0cdcdc48ed34312c2e21f45f2b6715cf87d9e919b2098c835582e2b5c6e716490b0dfd0d48be0079c531659141344cd1fd0a4f28419497f9722a3daafe3b4186f6b6457e0c624b66cc0138b8fabc209247f72d758e1cf3343756d543badbf24212bed8c15d34312c2e21f45f2b6715cf87d9e919b2098c835582e2b5c6e716490b0dfd0d5ad3228b676f7d3cd4284a5443f17f1962b36e491b30a40b2405849e597ba5fb5a164736f6c6343000821000abc488d3e2575f0f2113dc4d9a0cd6bc52445c6bc28a8974ed97a6ba3ecfd657c",
  "linkReferences": {},
  "deployedLinkReferences": {},
  "immutableReferences": {
    "7803": [
      {
        "length": 32,
        "start": 10492
      }
    ]
  },
  "inputSourceName": "project/src/BeamioUserCard/BeamioUserCard.sol",
  "buildInfoId": "solc-0_8_33-84cb44ebc592ee524f0d5965fe8538a30b95119a"
}