{
  "_format": "hh3-artifact-1",
  "contractName": "BeamioUserCard",
  "sourceName": "src/BeamioUserCard/BeamioUserCard.sol",
  "abi": [
    {
      "inputs": [
        {
          "internalType": "string",
          "name": "uri_",
          "type": "string"
        },
        {
          "internalType": "enum BeamioCurrency.CurrencyType",
          "name": "currency_",
          "type": "uint8"
        },
        {
          "internalType": "uint256",
          "name": "pointsUnitPriceInCurrencyE6_",
          "type": "uint256"
        },
        {
          "internalType": "address",
          "name": "initialOwner",
          "type": "address"
        },
        {
          "internalType": "address",
          "name": "gateway_",
          "type": "address"
        },
        {
          "internalType": "uint8",
          "name": "upgradeType_",
          "type": "uint8"
        },
        {
          "internalType": "bool",
          "name": "initialTransferWhitelistEnabled",
          "type": "bool"
        }
      ],
      "stateMutability": "nonpayable",
      "type": "constructor"
    },
    {
      "inputs": [],
      "name": "BM_CallFailed",
      "type": "error"
    },
    {
      "inputs": [],
      "name": "BM_NotAuthorized",
      "type": "error"
    },
    {
      "inputs": [],
      "name": "BM_ZeroAddress",
      "type": "error"
    },
    {
      "inputs": [
        {
          "internalType": "address",
          "name": "sender",
          "type": "address"
        },
        {
          "internalType": "uint256",
          "name": "balance",
          "type": "uint256"
        },
        {
          "internalType": "uint256",
          "name": "needed",
          "type": "uint256"
        },
        {
          "internalType": "uint256",
          "name": "tokenId",
          "type": "uint256"
        }
      ],
      "name": "ERC1155InsufficientBalance",
      "type": "error"
    },
    {
      "inputs": [
        {
          "internalType": "address",
          "name": "approver",
          "type": "address"
        }
      ],
      "name": "ERC1155InvalidApprover",
      "type": "error"
    },
    {
      "inputs": [
        {
          "internalType": "uint256",
          "name": "idsLength",
          "type": "uint256"
        },
        {
          "internalType": "uint256",
          "name": "valuesLength",
          "type": "uint256"
        }
      ],
      "name": "ERC1155InvalidArrayLength",
      "type": "error"
    },
    {
      "inputs": [
        {
          "internalType": "address",
          "name": "operator",
          "type": "address"
        }
      ],
      "name": "ERC1155InvalidOperator",
      "type": "error"
    },
    {
      "inputs": [
        {
          "internalType": "address",
          "name": "receiver",
          "type": "address"
        }
      ],
      "name": "ERC1155InvalidReceiver",
      "type": "error"
    },
    {
      "inputs": [
        {
          "internalType": "address",
          "name": "sender",
          "type": "address"
        }
      ],
      "name": "ERC1155InvalidSender",
      "type": "error"
    },
    {
      "inputs": [
        {
          "internalType": "address",
          "name": "operator",
          "type": "address"
        },
        {
          "internalType": "address",
          "name": "owner",
          "type": "address"
        }
      ],
      "name": "ERC1155MissingApprovalForAll",
      "type": "error"
    },
    {
      "inputs": [
        {
          "internalType": "address",
          "name": "owner",
          "type": "address"
        }
      ],
      "name": "OwnableInvalidOwner",
      "type": "error"
    },
    {
      "inputs": [
        {
          "internalType": "address",
          "name": "account",
          "type": "address"
        }
      ],
      "name": "OwnableUnauthorizedAccount",
      "type": "error"
    },
    {
      "inputs": [],
      "name": "ReentrancyGuardReentrantCall",
      "type": "error"
    },
    {
      "inputs": [],
      "name": "UC_AdminManagerRequiresOwnerSignature",
      "type": "error"
    },
    {
      "inputs": [],
      "name": "UC_AmountZero",
      "type": "error"
    },
    {
      "inputs": [],
      "name": "UC_BelowMinThreshold",
      "type": "error"
    },
    {
      "inputs": [],
      "name": "UC_GlobalMisconfigured",
      "type": "error"
    },
    {
      "inputs": [
        {
          "internalType": "address",
          "name": "fromAccount",
          "type": "address"
        },
        {
          "internalType": "uint256",
          "name": "id",
          "type": "uint256"
        },
        {
          "internalType": "uint256",
          "name": "have",
          "type": "uint256"
        },
        {
          "internalType": "uint256",
          "name": "need",
          "type": "uint256"
        }
      ],
      "name": "UC_InsufficientBalance",
      "type": "error"
    },
    {
      "inputs": [],
      "name": "UC_InvalidProposal",
      "type": "error"
    },
    {
      "inputs": [],
      "name": "UC_InvalidUpgradeType",
      "type": "error"
    },
    {
      "inputs": [
        {
          "internalType": "uint8",
          "name": "kind",
          "type": "uint8"
        }
      ],
      "name": "UC_ModuleZero",
      "type": "error"
    },
    {
      "inputs": [],
      "name": "UC_NoBeamioAccount",
      "type": "error"
    },
    {
      "inputs": [],
      "name": "UC_NotAdmin",
      "type": "error"
    },
    {
      "inputs": [],
      "name": "UC_OpenMintExecutorUnauthorized",
      "type": "error"
    },
    {
      "inputs": [],
      "name": "UC_PriceZero",
      "type": "error"
    },
    {
      "inputs": [
        {
          "internalType": "bytes",
          "name": "data",
          "type": "bytes"
        }
      ],
      "name": "UC_RedeemDelegateFailed",
      "type": "error"
    },
    {
      "inputs": [],
      "name": "UC_TierLenMismatch",
      "type": "error"
    },
    {
      "inputs": [],
      "name": "UC_TierMinZero",
      "type": "error"
    },
    {
      "inputs": [],
      "name": "UC_UnauthorizedGateway",
      "type": "error"
    },
    {
      "anonymous": false,
      "inputs": [
        {
          "indexed": true,
          "internalType": "address",
          "name": "beneficiaryAccount",
          "type": "address"
        },
        {
          "indexed": true,
          "internalType": "uint256",
          "name": "tokenId",
          "type": "uint256"
        },
        {
          "indexed": false,
          "internalType": "uint256",
          "name": "attr",
          "type": "uint256"
        },
        {
          "indexed": false,
          "internalType": "uint256",
          "name": "expiry",
          "type": "uint256"
        }
      ],
      "name": "AdminCardMinted",
      "type": "event"
    },
    {
      "anonymous": false,
      "inputs": [
        {
          "indexed": true,
          "internalType": "address",
          "name": "account",
          "type": "address"
        },
        {
          "indexed": false,
          "internalType": "uint256",
          "name": "amount",
          "type": "uint256"
        }
      ],
      "name": "AdminPointsBurned",
      "type": "event"
    },
    {
      "anonymous": false,
      "inputs": [
        {
          "indexed": true,
          "internalType": "address",
          "name": "beneficiaryAccount",
          "type": "address"
        },
        {
          "indexed": false,
          "internalType": "uint256",
          "name": "points6",
          "type": "uint256"
        }
      ],
      "name": "AdminPointsMinted",
      "type": "event"
    },
    {
      "anonymous": false,
      "inputs": [
        {
          "indexed": true,
          "internalType": "address",
          "name": "account",
          "type": "address"
        },
        {
          "indexed": true,
          "internalType": "address",
          "name": "operator",
          "type": "address"
        },
        {
          "indexed": false,
          "internalType": "bool",
          "name": "approved",
          "type": "bool"
        }
      ],
      "name": "ApprovalForAll",
      "type": "event"
    },
    {
      "anonymous": false,
      "inputs": [
        {
          "indexed": true,
          "internalType": "address",
          "name": "userEOA",
          "type": "address"
        },
        {
          "indexed": true,
          "internalType": "address",
          "name": "acct",
          "type": "address"
        },
        {
          "indexed": false,
          "internalType": "uint8",
          "name": "chargeCurrency",
          "type": "uint8"
        },
        {
          "indexed": false,
          "internalType": "uint256",
          "name": "amountFiat6",
          "type": "uint256"
        },
        {
          "indexed": false,
          "internalType": "uint256",
          "name": "rewardMinted",
          "type": "uint256"
        }
      ],
      "name": "ChargeRewardAirdropped",
      "type": "event"
    },
    {
      "anonymous": false,
      "inputs": [
        {
          "indexed": false,
          "internalType": "uint256",
          "name": "attr",
          "type": "uint256"
        }
      ],
      "name": "DefaultAttrUpdated",
      "type": "event"
    },
    {
      "anonymous": false,
      "inputs": [
        {
          "indexed": false,
          "internalType": "uint256",
          "name": "oldSecs",
          "type": "uint256"
        },
        {
          "indexed": false,
          "internalType": "uint256",
          "name": "newSecs",
          "type": "uint256"
        }
      ],
      "name": "ExpirySecondsUpdated",
      "type": "event"
    },
    {
      "anonymous": false,
      "inputs": [
        {
          "indexed": true,
          "internalType": "uint256",
          "name": "id",
          "type": "uint256"
        },
        {
          "indexed": true,
          "internalType": "address",
          "name": "userEOA",
          "type": "address"
        },
        {
          "indexed": true,
          "internalType": "address",
          "name": "acct",
          "type": "address"
        },
        {
          "indexed": false,
          "internalType": "uint256",
          "name": "amount",
          "type": "uint256"
        },
        {
          "indexed": false,
          "internalType": "uint256",
          "name": "claimedAfter",
          "type": "uint256"
        }
      ],
      "name": "FaucetClaimed",
      "type": "event"
    },
    {
      "anonymous": false,
      "inputs": [
        {
          "indexed": true,
          "internalType": "uint256",
          "name": "id",
          "type": "uint256"
        },
        {
          "components": [
            {
              "internalType": "uint64",
              "name": "validUntil",
              "type": "uint64"
            },
            {
              "internalType": "uint64",
              "name": "perClaimMax",
              "type": "uint64"
            },
            {
              "internalType": "uint128",
              "name": "maxPerUser",
              "type": "uint128"
            },
            {
              "internalType": "uint128",
              "name": "maxGlobal",
              "type": "uint128"
            },
            {
              "internalType": "bool",
              "name": "enabled",
              "type": "bool"
            },
            {
              "internalType": "uint8",
              "name": "currency",
              "type": "uint8"
            },
            {
              "internalType": "uint8",
              "name": "decimals",
              "type": "uint8"
            },
            {
              "internalType": "uint128",
              "name": "priceInCurrency6",
              "type": "uint128"
            }
          ],
          "indexed": false,
          "internalType": "struct FaucetStorage.FaucetConfig",
          "name": "cfg",
          "type": "tuple"
        }
      ],
      "name": "FaucetConfigUpdated",
      "type": "event"
    },
    {
      "anonymous": false,
      "inputs": [
        {
          "indexed": true,
          "internalType": "uint256",
          "name": "tokenId",
          "type": "uint256"
        },
        {
          "indexed": false,
          "internalType": "bytes32",
          "name": "title",
          "type": "bytes32"
        },
        {
          "indexed": false,
          "internalType": "uint64",
          "name": "validAfter",
          "type": "uint64"
        },
        {
          "indexed": false,
          "internalType": "uint64",
          "name": "validBefore",
          "type": "uint64"
        },
        {
          "indexed": false,
          "internalType": "uint256",
          "name": "maxSupply",
          "type": "uint256"
        },
        {
          "indexed": false,
          "internalType": "uint256",
          "name": "priceInCurrency6",
          "type": "uint256"
        },
        {
          "indexed": false,
          "internalType": "bytes32",
          "name": "sharedMetadataHash",
          "type": "bytes32"
        }
      ],
      "name": "IssuedNftCreated",
      "type": "event"
    },
    {
      "anonymous": false,
      "inputs": [
        {
          "indexed": true,
          "internalType": "uint256",
          "name": "tokenId",
          "type": "uint256"
        },
        {
          "indexed": true,
          "internalType": "address",
          "name": "recipient",
          "type": "address"
        },
        {
          "indexed": false,
          "internalType": "uint256",
          "name": "amount",
          "type": "uint256"
        }
      ],
      "name": "IssuedNftMinted",
      "type": "event"
    },
    {
      "anonymous": false,
      "inputs": [
        {
          "indexed": true,
          "internalType": "address",
          "name": "user",
          "type": "address"
        },
        {
          "indexed": true,
          "internalType": "uint256",
          "name": "tokenId",
          "type": "uint256"
        },
        {
          "indexed": false,
          "internalType": "uint256",
          "name": "tierIndexOrMax",
          "type": "uint256"
        },
        {
          "indexed": false,
          "internalType": "uint256",
          "name": "minUsdc6",
          "type": "uint256"
        },
        {
          "indexed": false,
          "internalType": "uint256",
          "name": "expiry",
          "type": "uint256"
        }
      ],
      "name": "MemberNFTIssued",
      "type": "event"
    },
    {
      "anonymous": false,
      "inputs": [
        {
          "indexed": true,
          "internalType": "address",
          "name": "user",
          "type": "address"
        },
        {
          "indexed": true,
          "internalType": "uint256",
          "name": "oldActiveTokenId",
          "type": "uint256"
        },
        {
          "indexed": true,
          "internalType": "uint256",
          "name": "newTokenId",
          "type": "uint256"
        },
        {
          "indexed": false,
          "internalType": "uint256",
          "name": "oldTierIndexOrMax",
          "type": "uint256"
        },
        {
          "indexed": false,
          "internalType": "uint256",
          "name": "newTierIndex",
          "type": "uint256"
        },
        {
          "indexed": false,
          "internalType": "uint256",
          "name": "newExpiry",
          "type": "uint256"
        }
      ],
      "name": "MemberNFTUpgraded",
      "type": "event"
    },
    {
      "anonymous": false,
      "inputs": [
        {
          "indexed": true,
          "internalType": "address",
          "name": "previousOwner",
          "type": "address"
        },
        {
          "indexed": true,
          "internalType": "address",
          "name": "newOwner",
          "type": "address"
        }
      ],
      "name": "OwnershipTransferred",
      "type": "event"
    },
    {
      "anonymous": false,
      "inputs": [
        {
          "indexed": true,
          "internalType": "address",
          "name": "userEOA",
          "type": "address"
        },
        {
          "indexed": true,
          "internalType": "address",
          "name": "acct",
          "type": "address"
        },
        {
          "indexed": false,
          "internalType": "uint256",
          "name": "points6",
          "type": "uint256"
        }
      ],
      "name": "PointsMintedByGateway",
      "type": "event"
    },
    {
      "anonymous": false,
      "inputs": [
        {
          "indexed": true,
          "internalType": "address",
          "name": "payerEOA",
          "type": "address"
        },
        {
          "indexed": true,
          "internalType": "address",
          "name": "beneficiaryAccount",
          "type": "address"
        },
        {
          "indexed": true,
          "internalType": "address",
          "name": "usdc",
          "type": "address"
        },
        {
          "indexed": false,
          "internalType": "uint256",
          "name": "usdcIn6",
          "type": "uint256"
        },
        {
          "indexed": false,
          "internalType": "uint256",
          "name": "pointsMinted6",
          "type": "uint256"
        },
        {
          "indexed": false,
          "internalType": "uint256",
          "name": "unitPointPriceUsdc6",
          "type": "uint256"
        },
        {
          "indexed": false,
          "internalType": "bytes32",
          "name": "nonce",
          "type": "bytes32"
        }
      ],
      "name": "PointsPurchasedWithUSDC",
      "type": "event"
    },
    {
      "anonymous": false,
      "inputs": [
        {
          "indexed": false,
          "internalType": "uint256",
          "name": "priceInCurrencyE6",
          "type": "uint256"
        }
      ],
      "name": "PointsUnitPriceUpdated",
      "type": "event"
    },
    {
      "anonymous": false,
      "inputs": [
        {
          "indexed": true,
          "internalType": "uint256",
          "name": "id",
          "type": "uint256"
        },
        {
          "indexed": true,
          "internalType": "address",
          "name": "admin",
          "type": "address"
        }
      ],
      "name": "ProposalApproved",
      "type": "event"
    },
    {
      "anonymous": false,
      "inputs": [
        {
          "indexed": true,
          "internalType": "uint256",
          "name": "id",
          "type": "uint256"
        },
        {
          "indexed": true,
          "internalType": "bytes4",
          "name": "selector",
          "type": "bytes4"
        },
        {
          "indexed": true,
          "internalType": "address",
          "name": "proposer",
          "type": "address"
        }
      ],
      "name": "ProposalCreated",
      "type": "event"
    },
    {
      "anonymous": false,
      "inputs": [
        {
          "indexed": true,
          "internalType": "uint256",
          "name": "id",
          "type": "uint256"
        }
      ],
      "name": "ProposalExecuted",
      "type": "event"
    },
    {
      "anonymous": false,
      "inputs": [
        {
          "indexed": true,
          "internalType": "bytes32",
          "name": "hash",
          "type": "bytes32"
        }
      ],
      "name": "RedeemCancelled",
      "type": "event"
    },
    {
      "anonymous": false,
      "inputs": [
        {
          "indexed": true,
          "internalType": "bytes32",
          "name": "hash",
          "type": "bytes32"
        },
        {
          "indexed": false,
          "internalType": "uint256",
          "name": "points6",
          "type": "uint256"
        },
        {
          "indexed": false,
          "internalType": "uint256",
          "name": "attr",
          "type": "uint256"
        }
      ],
      "name": "RedeemCreated",
      "type": "event"
    },
    {
      "anonymous": false,
      "inputs": [
        {
          "indexed": false,
          "internalType": "uint256",
          "name": "index",
          "type": "uint256"
        },
        {
          "indexed": false,
          "internalType": "uint256",
          "name": "minUsdc6",
          "type": "uint256"
        },
        {
          "indexed": false,
          "internalType": "uint256",
          "name": "attr",
          "type": "uint256"
        },
        {
          "indexed": false,
          "internalType": "uint256",
          "name": "tierExpirySeconds",
          "type": "uint256"
        }
      ],
      "name": "TierAppended",
      "type": "event"
    },
    {
      "anonymous": false,
      "inputs": [
        {
          "indexed": false,
          "internalType": "uint256",
          "name": "count",
          "type": "uint256"
        }
      ],
      "name": "TiersUpdated",
      "type": "event"
    },
    {
      "anonymous": false,
      "inputs": [
        {
          "indexed": true,
          "internalType": "address",
          "name": "operator",
          "type": "address"
        },
        {
          "indexed": true,
          "internalType": "address",
          "name": "from",
          "type": "address"
        },
        {
          "indexed": true,
          "internalType": "address",
          "name": "to",
          "type": "address"
        },
        {
          "indexed": false,
          "internalType": "uint256[]",
          "name": "ids",
          "type": "uint256[]"
        },
        {
          "indexed": false,
          "internalType": "uint256[]",
          "name": "values",
          "type": "uint256[]"
        }
      ],
      "name": "TransferBatch",
      "type": "event"
    },
    {
      "anonymous": false,
      "inputs": [
        {
          "indexed": true,
          "internalType": "address",
          "name": "operator",
          "type": "address"
        },
        {
          "indexed": true,
          "internalType": "address",
          "name": "from",
          "type": "address"
        },
        {
          "indexed": true,
          "internalType": "address",
          "name": "to",
          "type": "address"
        },
        {
          "indexed": false,
          "internalType": "uint256",
          "name": "id",
          "type": "uint256"
        },
        {
          "indexed": false,
          "internalType": "uint256",
          "name": "value",
          "type": "uint256"
        }
      ],
      "name": "TransferSingle",
      "type": "event"
    },
    {
      "anonymous": false,
      "inputs": [
        {
          "indexed": false,
          "internalType": "bool",
          "name": "enabled",
          "type": "bool"
        }
      ],
      "name": "TransferWhitelistEnabledUpdated",
      "type": "event"
    },
    {
      "anonymous": false,
      "inputs": [
        {
          "indexed": false,
          "internalType": "string",
          "name": "value",
          "type": "string"
        },
        {
          "indexed": true,
          "internalType": "uint256",
          "name": "id",
          "type": "uint256"
        }
      ],
      "name": "URI",
      "type": "event"
    },
    {
      "stateMutability": "nonpayable",
      "type": "fallback"
    },
    {
      "inputs": [],
      "name": "CHARGE_REWARD_TOKEN_ID",
      "outputs": [
        {
          "internalType": "uint256",
          "name": "",
          "type": "uint256"
        }
      ],
      "stateMutability": "view",
      "type": "function"
    },
    {
      "inputs": [],
      "name": "ISSUED_NFT_START_ID",
      "outputs": [
        {
          "internalType": "uint256",
          "name": "",
          "type": "uint256"
        }
      ],
      "stateMutability": "view",
      "type": "function"
    },
    {
      "inputs": [],
      "name": "NFT_START_ID",
      "outputs": [
        {
          "internalType": "uint256",
          "name": "",
          "type": "uint256"
        }
      ],
      "stateMutability": "view",
      "type": "function"
    },
    {
      "inputs": [],
      "name": "POINTS_DECIMALS",
      "outputs": [
        {
          "internalType": "uint8",
          "name": "",
          "type": "uint8"
        }
      ],
      "stateMutability": "view",
      "type": "function"
    },
    {
      "inputs": [],
      "name": "POINTS_ID",
      "outputs": [
        {
          "internalType": "uint256",
          "name": "",
          "type": "uint256"
        }
      ],
      "stateMutability": "view",
      "type": "function"
    },
    {
      "inputs": [],
      "name": "VERSION",
      "outputs": [
        {
          "internalType": "uint256",
          "name": "",
          "type": "uint256"
        }
      ],
      "stateMutability": "view",
      "type": "function"
    },
    {
      "inputs": [
        {
          "internalType": "address",
          "name": "",
          "type": "address"
        },
        {
          "internalType": "uint256",
          "name": "",
          "type": "uint256"
        }
      ],
      "name": "_userOwnedNfts",
      "outputs": [
        {
          "internalType": "uint256",
          "name": "",
          "type": "uint256"
        }
      ],
      "stateMutability": "view",
      "type": "function"
    },
    {
      "inputs": [
        {
          "internalType": "uint256",
          "name": "",
          "type": "uint256"
        }
      ],
      "name": "activeMembershipCountByTierIndex",
      "outputs": [
        {
          "internalType": "uint256",
          "name": "",
          "type": "uint256"
        }
      ],
      "stateMutability": "view",
      "type": "function"
    },
    {
      "inputs": [
        {
          "internalType": "uint256",
          "name": "",
          "type": "uint256"
        }
      ],
      "name": "activeMembershipCountByTokenId",
      "outputs": [
        {
          "internalType": "uint256",
          "name": "",
          "type": "uint256"
        }
      ],
      "stateMutability": "view",
      "type": "function"
    },
    {
      "inputs": [
        {
          "internalType": "address",
          "name": "",
          "type": "address"
        }
      ],
      "name": "activeMembershipId",
      "outputs": [
        {
          "internalType": "uint256",
          "name": "",
          "type": "uint256"
        }
      ],
      "stateMutability": "view",
      "type": "function"
    },
    {
      "inputs": [
        {
          "internalType": "address",
          "name": "",
          "type": "address"
        }
      ],
      "name": "activeTierIndexOrMax",
      "outputs": [
        {
          "internalType": "uint256",
          "name": "",
          "type": "uint256"
        }
      ],
      "stateMutability": "view",
      "type": "function"
    },
    {
      "inputs": [
        {
          "internalType": "address",
          "name": "a",
          "type": "address"
        }
      ],
      "name": "adminParent",
      "outputs": [
        {
          "internalType": "address",
          "name": "",
          "type": "address"
        }
      ],
      "stateMutability": "view",
      "type": "function"
    },
    {
      "inputs": [
        {
          "internalType": "uint256",
          "name": "minUsdc6",
          "type": "uint256"
        },
        {
          "internalType": "uint256",
          "name": "attr",
          "type": "uint256"
        },
        {
          "internalType": "uint256",
          "name": "tierExpirySeconds",
          "type": "uint256"
        }
      ],
      "name": "appendTier",
      "outputs": [],
      "stateMutability": "nonpayable",
      "type": "function"
    },
    {
      "inputs": [
        {
          "internalType": "uint256",
          "name": "id",
          "type": "uint256"
        }
      ],
      "name": "approveProposal",
      "outputs": [],
      "stateMutability": "nonpayable",
      "type": "function"
    },
    {
      "inputs": [
        {
          "internalType": "uint256",
          "name": "id",
          "type": "uint256"
        },
        {
          "internalType": "address",
          "name": "adminSigner",
          "type": "address"
        }
      ],
      "name": "approveProposalByGateway",
      "outputs": [],
      "stateMutability": "nonpayable",
      "type": "function"
    },
    {
      "inputs": [
        {
          "internalType": "uint256",
          "name": "",
          "type": "uint256"
        }
      ],
      "name": "attributes",
      "outputs": [
        {
          "internalType": "uint256",
          "name": "",
          "type": "uint256"
        }
      ],
      "stateMutability": "view",
      "type": "function"
    },
    {
      "inputs": [
        {
          "internalType": "address",
          "name": "account",
          "type": "address"
        },
        {
          "internalType": "uint256",
          "name": "id",
          "type": "uint256"
        }
      ],
      "name": "balanceOf",
      "outputs": [
        {
          "internalType": "uint256",
          "name": "",
          "type": "uint256"
        }
      ],
      "stateMutability": "view",
      "type": "function"
    },
    {
      "inputs": [
        {
          "internalType": "address[]",
          "name": "accounts",
          "type": "address[]"
        },
        {
          "internalType": "uint256[]",
          "name": "ids",
          "type": "uint256[]"
        }
      ],
      "name": "balanceOfBatch",
      "outputs": [
        {
          "internalType": "uint256[]",
          "name": "",
          "type": "uint256[]"
        }
      ],
      "stateMutability": "view",
      "type": "function"
    },
    {
      "inputs": [
        {
          "internalType": "address",
          "name": "target",
          "type": "address"
        },
        {
          "internalType": "uint256",
          "name": "amount",
          "type": "uint256"
        }
      ],
      "name": "burnPointsByAdmin",
      "outputs": [],
      "stateMutability": "nonpayable",
      "type": "function"
    },
    {
      "inputs": [
        {
          "internalType": "address",
          "name": "subordinate",
          "type": "address"
        },
        {
          "internalType": "address",
          "name": "authorizer",
          "type": "address"
        }
      ],
      "name": "clearAdminMintCounterForSubordinate",
      "outputs": [],
      "stateMutability": "nonpayable",
      "type": "function"
    },
    {
      "inputs": [
        {
          "internalType": "bytes4",
          "name": "selector",
          "type": "bytes4"
        },
        {
          "internalType": "address",
          "name": "target",
          "type": "address"
        },
        {
          "internalType": "uint256",
          "name": "v1",
          "type": "uint256"
        },
        {
          "internalType": "uint256",
          "name": "v2",
          "type": "uint256"
        },
        {
          "internalType": "uint256",
          "name": "v3",
          "type": "uint256"
        }
      ],
      "name": "createProposal",
      "outputs": [
        {
          "internalType": "uint256",
          "name": "",
          "type": "uint256"
        }
      ],
      "stateMutability": "nonpayable",
      "type": "function"
    },
    {
      "inputs": [],
      "name": "currency",
      "outputs": [
        {
          "internalType": "enum BeamioCurrency.CurrencyType",
          "name": "",
          "type": "uint8"
        }
      ],
      "stateMutability": "view",
      "type": "function"
    },
    {
      "inputs": [],
      "name": "debugGateway",
      "outputs": [
        {
          "internalType": "address",
          "name": "",
          "type": "address"
        }
      ],
      "stateMutability": "view",
      "type": "function"
    },
    {
      "inputs": [],
      "name": "defaultAttrWhenNoTiers",
      "outputs": [
        {
          "internalType": "uint256",
          "name": "",
          "type": "uint256"
        }
      ],
      "stateMutability": "view",
      "type": "function"
    },
    {
      "inputs": [],
      "name": "deployer",
      "outputs": [
        {
          "internalType": "address",
          "name": "",
          "type": "address"
        }
      ],
      "stateMutability": "view",
      "type": "function"
    },
    {
      "inputs": [
        {
          "internalType": "uint256",
          "name": "",
          "type": "uint256"
        }
      ],
      "name": "expiresAt",
      "outputs": [
        {
          "internalType": "uint256",
          "name": "",
          "type": "uint256"
        }
      ],
      "stateMutability": "view",
      "type": "function"
    },
    {
      "inputs": [],
      "name": "expirySeconds",
      "outputs": [
        {
          "internalType": "uint256",
          "name": "",
          "type": "uint256"
        }
      ],
      "stateMutability": "view",
      "type": "function"
    },
    {
      "inputs": [],
      "name": "factoryGateway",
      "outputs": [
        {
          "internalType": "address",
          "name": "",
          "type": "address"
        }
      ],
      "stateMutability": "view",
      "type": "function"
    },
    {
      "inputs": [
        {
          "internalType": "address",
          "name": "userEOA",
          "type": "address"
        },
        {
          "internalType": "uint256",
          "name": "id",
          "type": "uint256"
        },
        {
          "internalType": "uint256",
          "name": "amount",
          "type": "uint256"
        }
      ],
      "name": "faucetByGateway",
      "outputs": [],
      "stateMutability": "nonpayable",
      "type": "function"
    },
    {
      "inputs": [
        {
          "internalType": "uint256",
          "name": "id",
          "type": "uint256"
        }
      ],
      "name": "faucetConfig",
      "outputs": [
        {
          "components": [
            {
              "internalType": "uint64",
              "name": "validUntil",
              "type": "uint64"
            },
            {
              "internalType": "uint64",
              "name": "perClaimMax",
              "type": "uint64"
            },
            {
              "internalType": "uint128",
              "name": "maxPerUser",
              "type": "uint128"
            },
            {
              "internalType": "uint128",
              "name": "maxGlobal",
              "type": "uint128"
            },
            {
              "internalType": "bool",
              "name": "enabled",
              "type": "bool"
            },
            {
              "internalType": "uint8",
              "name": "currency",
              "type": "uint8"
            },
            {
              "internalType": "uint8",
              "name": "decimals",
              "type": "uint8"
            },
            {
              "internalType": "uint128",
              "name": "priceInCurrency6",
              "type": "uint128"
            }
          ],
          "internalType": "struct FaucetStorage.FaucetConfig",
          "name": "",
          "type": "tuple"
        }
      ],
      "stateMutability": "view",
      "type": "function"
    },
    {
      "inputs": [],
      "name": "gateway",
      "outputs": [
        {
          "internalType": "address",
          "name": "",
          "type": "address"
        }
      ],
      "stateMutability": "view",
      "type": "function"
    },
    {
      "inputs": [
        {
          "internalType": "address",
          "name": "user",
          "type": "address"
        }
      ],
      "name": "getOwnership",
      "outputs": [
        {
          "internalType": "uint256",
          "name": "pt",
          "type": "uint256"
        },
        {
          "components": [
            {
              "internalType": "uint256",
              "name": "tokenId",
              "type": "uint256"
            },
            {
              "internalType": "uint256",
              "name": "attribute",
              "type": "uint256"
            },
            {
              "internalType": "uint256",
              "name": "tierIndexOrMax",
              "type": "uint256"
            },
            {
              "internalType": "uint256",
              "name": "expiry",
              "type": "uint256"
            },
            {
              "internalType": "bool",
              "name": "isExpired",
              "type": "bool"
            }
          ],
          "internalType": "struct BeamioUserCard.NFTDetail[]",
          "name": "nfts",
          "type": "tuple[]"
        }
      ],
      "stateMutability": "view",
      "type": "function"
    },
    {
      "inputs": [
        {
          "internalType": "address",
          "name": "userEOA",
          "type": "address"
        }
      ],
      "name": "getOwnershipByEOA",
      "outputs": [
        {
          "internalType": "uint256",
          "name": "pt",
          "type": "uint256"
        },
        {
          "components": [
            {
              "internalType": "uint256",
              "name": "tokenId",
              "type": "uint256"
            },
            {
              "internalType": "uint256",
              "name": "attribute",
              "type": "uint256"
            },
            {
              "internalType": "uint256",
              "name": "tierIndexOrMax",
              "type": "uint256"
            },
            {
              "internalType": "uint256",
              "name": "expiry",
              "type": "uint256"
            },
            {
              "internalType": "bool",
              "name": "isExpired",
              "type": "bool"
            }
          ],
          "internalType": "struct BeamioUserCard.NFTDetail[]",
          "name": "nfts",
          "type": "tuple[]"
        }
      ],
      "stateMutability": "view",
      "type": "function"
    },
    {
      "inputs": [
        {
          "internalType": "address",
          "name": "a",
          "type": "address"
        }
      ],
      "name": "isAdmin",
      "outputs": [
        {
          "internalType": "bool",
          "name": "",
          "type": "bool"
        }
      ],
      "stateMutability": "view",
      "type": "function"
    },
    {
      "inputs": [
        {
          "internalType": "address",
          "name": "account",
          "type": "address"
        },
        {
          "internalType": "address",
          "name": "operator",
          "type": "address"
        }
      ],
      "name": "isApprovedForAll",
      "outputs": [
        {
          "internalType": "bool",
          "name": "",
          "type": "bool"
        }
      ],
      "stateMutability": "view",
      "type": "function"
    },
    {
      "inputs": [
        {
          "internalType": "address",
          "name": "effectiveTo",
          "type": "address"
        }
      ],
      "name": "isPointsTransferRecipientAllowed",
      "outputs": [
        {
          "internalType": "bool",
          "name": "",
          "type": "bool"
        }
      ],
      "stateMutability": "view",
      "type": "function"
    },
    {
      "inputs": [
        {
          "internalType": "uint256",
          "name": "tokenId",
          "type": "uint256"
        }
      ],
      "name": "issuedNftPriceInCurrency6",
      "outputs": [
        {
          "internalType": "uint256",
          "name": "",
          "type": "uint256"
        }
      ],
      "stateMutability": "view",
      "type": "function"
    },
    {
      "inputs": [
        {
          "internalType": "uint256",
          "name": "tokenId",
          "type": "uint256"
        }
      ],
      "name": "issuedNftSharedMetadataHash",
      "outputs": [
        {
          "internalType": "bytes32",
          "name": "",
          "type": "bytes32"
        }
      ],
      "stateMutability": "view",
      "type": "function"
    },
    {
      "inputs": [],
      "name": "metadataBaseURI",
      "outputs": [
        {
          "internalType": "string",
          "name": "",
          "type": "string"
        }
      ],
      "stateMutability": "view",
      "type": "function"
    },
    {
      "inputs": [
        {
          "internalType": "address",
          "name": "userEOA",
          "type": "address"
        },
        {
          "internalType": "uint256",
          "name": "id",
          "type": "uint256"
        },
        {
          "internalType": "uint256",
          "name": "amount6",
          "type": "uint256"
        }
      ],
      "name": "mintFaucetByGateway",
      "outputs": [],
      "stateMutability": "nonpayable",
      "type": "function"
    },
    {
      "inputs": [
        {
          "internalType": "address",
          "name": "userEOA",
          "type": "address"
        },
        {
          "internalType": "uint256",
          "name": "tokenId",
          "type": "uint256"
        },
        {
          "internalType": "uint256",
          "name": "amount",
          "type": "uint256"
        }
      ],
      "name": "mintIssuedNftByGateway",
      "outputs": [],
      "stateMutability": "nonpayable",
      "type": "function"
    },
    {
      "inputs": [
        {
          "internalType": "address",
          "name": "to",
          "type": "address"
        },
        {
          "internalType": "uint256",
          "name": "tokenId",
          "type": "uint256"
        },
        {
          "internalType": "uint256",
          "name": "amount",
          "type": "uint256"
        }
      ],
      "name": "mintIssuedNftByOwner",
      "outputs": [],
      "stateMutability": "nonpayable",
      "type": "function"
    },
    {
      "inputs": [
        {
          "internalType": "address",
          "name": "userEOA",
          "type": "address"
        },
        {
          "internalType": "uint256",
          "name": "tokenId",
          "type": "uint256"
        }
      ],
      "name": "mintIssuedNftByUserSigClaim",
      "outputs": [],
      "stateMutability": "nonpayable",
      "type": "function"
    },
    {
      "inputs": [
        {
          "internalType": "address",
          "name": "user",
          "type": "address"
        },
        {
          "internalType": "uint256",
          "name": "tierIndex",
          "type": "uint256"
        }
      ],
      "name": "mintMemberCardByAdmin",
      "outputs": [],
      "stateMutability": "nonpayable",
      "type": "function"
    },
    {
      "inputs": [
        {
          "internalType": "address",
          "name": "user",
          "type": "address"
        },
        {
          "internalType": "uint256",
          "name": "points6",
          "type": "uint256"
        }
      ],
      "name": "mintPointsByAdmin",
      "outputs": [],
      "stateMutability": "nonpayable",
      "type": "function"
    },
    {
      "inputs": [
        {
          "internalType": "address",
          "name": "user",
          "type": "address"
        },
        {
          "internalType": "uint256",
          "name": "points6",
          "type": "uint256"
        },
        {
          "internalType": "address",
          "name": "operator",
          "type": "address"
        }
      ],
      "name": "mintPointsByAdminWithOperator",
      "outputs": [],
      "stateMutability": "nonpayable",
      "type": "function"
    },
    {
      "inputs": [
        {
          "internalType": "address",
          "name": "userEOA",
          "type": "address"
        },
        {
          "internalType": "uint256",
          "name": "points6",
          "type": "uint256"
        }
      ],
      "name": "mintPointsByGateway",
      "outputs": [],
      "stateMutability": "nonpayable",
      "type": "function"
    },
    {
      "inputs": [
        {
          "internalType": "address",
          "name": "userEOA",
          "type": "address"
        },
        {
          "internalType": "uint256",
          "name": "points6",
          "type": "uint256"
        },
        {
          "internalType": "address",
          "name": "operator",
          "type": "address"
        }
      ],
      "name": "mintPointsByGatewayWithOperator",
      "outputs": [],
      "stateMutability": "nonpayable",
      "type": "function"
    },
    {
      "inputs": [
        {
          "internalType": "address",
          "name": "payerAA",
          "type": "address"
        },
        {
          "internalType": "uint256",
          "name": "points6",
          "type": "uint256"
        },
        {
          "internalType": "address",
          "name": "operatorForStats",
          "type": "address"
        }
      ],
      "name": "mintPointsOpenContainerRelay",
      "outputs": [],
      "stateMutability": "nonpayable",
      "type": "function"
    },
    {
      "inputs": [],
      "name": "owner",
      "outputs": [
        {
          "internalType": "address",
          "name": "",
          "type": "address"
        }
      ],
      "stateMutability": "view",
      "type": "function"
    },
    {
      "inputs": [],
      "name": "pointsUnitPriceInCurrencyE6",
      "outputs": [
        {
          "internalType": "uint256",
          "name": "",
          "type": "uint256"
        }
      ],
      "stateMutability": "view",
      "type": "function"
    },
    {
      "inputs": [
        {
          "internalType": "address",
          "name": "operator",
          "type": "address"
        },
        {
          "internalType": "uint256",
          "name": "amount",
          "type": "uint256"
        }
      ],
      "name": "recordAdminBurnForStats",
      "outputs": [],
      "stateMutability": "nonpayable",
      "type": "function"
    },
    {
      "inputs": [
        {
          "internalType": "address",
          "name": "admin",
          "type": "address"
        },
        {
          "internalType": "uint256",
          "name": "amount",
          "type": "uint256"
        }
      ],
      "name": "recordAdminMintForStats",
      "outputs": [],
      "stateMutability": "nonpayable",
      "type": "function"
    },
    {
      "inputs": [
        {
          "internalType": "string",
          "name": "code",
          "type": "string"
        },
        {
          "internalType": "address",
          "name": "to",
          "type": "address"
        }
      ],
      "name": "redeemAdminByGateway",
      "outputs": [],
      "stateMutability": "nonpayable",
      "type": "function"
    },
    {
      "inputs": [
        {
          "internalType": "string[]",
          "name": "codes",
          "type": "string[]"
        },
        {
          "internalType": "address",
          "name": "userEOA",
          "type": "address"
        }
      ],
      "name": "redeemBatchByGateway",
      "outputs": [],
      "stateMutability": "nonpayable",
      "type": "function"
    },
    {
      "inputs": [
        {
          "internalType": "string",
          "name": "code",
          "type": "string"
        },
        {
          "internalType": "address",
          "name": "userEOA",
          "type": "address"
        }
      ],
      "name": "redeemByGateway",
      "outputs": [],
      "stateMutability": "nonpayable",
      "type": "function"
    },
    {
      "inputs": [
        {
          "internalType": "string",
          "name": "code",
          "type": "string"
        },
        {
          "internalType": "address",
          "name": "userEOA",
          "type": "address"
        }
      ],
      "name": "redeemPoolByGateway",
      "outputs": [],
      "stateMutability": "nonpayable",
      "type": "function"
    },
    {
      "inputs": [],
      "name": "renounceOwnership",
      "outputs": [],
      "stateMutability": "nonpayable",
      "type": "function"
    },
    {
      "inputs": [
        {
          "internalType": "address",
          "name": "adminAddr",
          "type": "address"
        }
      ],
      "name": "resetAdminLimit",
      "outputs": [],
      "stateMutability": "nonpayable",
      "type": "function"
    },
    {
      "inputs": [
        {
          "internalType": "address",
          "name": "adminAddr",
          "type": "address"
        },
        {
          "internalType": "address",
          "name": "authorizer",
          "type": "address"
        }
      ],
      "name": "resetAdminLimitByAdmin",
      "outputs": [],
      "stateMutability": "nonpayable",
      "type": "function"
    },
    {
      "inputs": [
        {
          "internalType": "address",
          "name": "from",
          "type": "address"
        },
        {
          "internalType": "address",
          "name": "to",
          "type": "address"
        },
        {
          "internalType": "uint256[]",
          "name": "ids",
          "type": "uint256[]"
        },
        {
          "internalType": "uint256[]",
          "name": "values",
          "type": "uint256[]"
        },
        {
          "internalType": "bytes",
          "name": "data",
          "type": "bytes"
        }
      ],
      "name": "safeBatchTransferFrom",
      "outputs": [],
      "stateMutability": "nonpayable",
      "type": "function"
    },
    {
      "inputs": [
        {
          "internalType": "address",
          "name": "from",
          "type": "address"
        },
        {
          "internalType": "address",
          "name": "to",
          "type": "address"
        },
        {
          "internalType": "uint256",
          "name": "id",
          "type": "uint256"
        },
        {
          "internalType": "uint256",
          "name": "value",
          "type": "uint256"
        },
        {
          "internalType": "bytes",
          "name": "data",
          "type": "bytes"
        }
      ],
      "name": "safeTransferFrom",
      "outputs": [],
      "stateMutability": "nonpayable",
      "type": "function"
    },
    {
      "inputs": [
        {
          "internalType": "address",
          "name": "operator",
          "type": "address"
        },
        {
          "internalType": "bool",
          "name": "approved",
          "type": "bool"
        }
      ],
      "name": "setApprovalForAll",
      "outputs": [],
      "stateMutability": "nonpayable",
      "type": "function"
    },
    {
      "inputs": [
        {
          "internalType": "uint256",
          "name": "attr",
          "type": "uint256"
        }
      ],
      "name": "setDefaultAttr",
      "outputs": [],
      "stateMutability": "nonpayable",
      "type": "function"
    },
    {
      "inputs": [
        {
          "internalType": "uint256",
          "name": "secs",
          "type": "uint256"
        }
      ],
      "name": "setExpirySeconds",
      "outputs": [],
      "stateMutability": "nonpayable",
      "type": "function"
    },
    {
      "inputs": [
        {
          "internalType": "uint256",
          "name": "priceInCurrencyE6",
          "type": "uint256"
        }
      ],
      "name": "setPointsUnitPrice",
      "outputs": [],
      "stateMutability": "nonpayable",
      "type": "function"
    },
    {
      "inputs": [
        {
          "components": [
            {
              "internalType": "uint256",
              "name": "minUsdc6",
              "type": "uint256"
            },
            {
              "internalType": "uint256",
              "name": "attr",
              "type": "uint256"
            },
            {
              "internalType": "uint256",
              "name": "tierExpirySeconds",
              "type": "uint256"
            }
          ],
          "internalType": "struct Tier[]",
          "name": "newTiers",
          "type": "tuple[]"
        }
      ],
      "name": "setTiers",
      "outputs": [],
      "stateMutability": "nonpayable",
      "type": "function"
    },
    {
      "inputs": [
        {
          "internalType": "address",
          "name": "target",
          "type": "address"
        },
        {
          "internalType": "bool",
          "name": "allowed",
          "type": "bool"
        }
      ],
      "name": "setTransferWhitelist",
      "outputs": [],
      "stateMutability": "nonpayable",
      "type": "function"
    },
    {
      "inputs": [
        {
          "internalType": "bool",
          "name": "enabled",
          "type": "bool"
        }
      ],
      "name": "setTransferWhitelistEnabled",
      "outputs": [],
      "stateMutability": "nonpayable",
      "type": "function"
    },
    {
      "inputs": [
        {
          "internalType": "bytes4",
          "name": "interfaceId",
          "type": "bytes4"
        }
      ],
      "name": "supportsInterface",
      "outputs": [
        {
          "internalType": "bool",
          "name": "",
          "type": "bool"
        }
      ],
      "stateMutability": "view",
      "type": "function"
    },
    {
      "inputs": [
        {
          "internalType": "uint256",
          "name": "",
          "type": "uint256"
        }
      ],
      "name": "tiers",
      "outputs": [
        {
          "internalType": "uint256",
          "name": "minUsdc6",
          "type": "uint256"
        },
        {
          "internalType": "uint256",
          "name": "attr",
          "type": "uint256"
        },
        {
          "internalType": "uint256",
          "name": "tierExpirySeconds",
          "type": "uint256"
        }
      ],
      "stateMutability": "view",
      "type": "function"
    },
    {
      "inputs": [
        {
          "internalType": "uint256",
          "name": "",
          "type": "uint256"
        }
      ],
      "name": "tokenTierIndexOrMax",
      "outputs": [
        {
          "internalType": "uint256",
          "name": "",
          "type": "uint256"
        }
      ],
      "stateMutability": "view",
      "type": "function"
    },
    {
      "inputs": [],
      "name": "totalActiveMemberships",
      "outputs": [
        {
          "internalType": "uint256",
          "name": "",
          "type": "uint256"
        }
      ],
      "stateMutability": "view",
      "type": "function"
    },
    {
      "inputs": [],
      "name": "totalMembershipIssued",
      "outputs": [
        {
          "internalType": "uint256",
          "name": "",
          "type": "uint256"
        }
      ],
      "stateMutability": "view",
      "type": "function"
    },
    {
      "inputs": [
        {
          "internalType": "uint256",
          "name": "",
          "type": "uint256"
        }
      ],
      "name": "totalMembershipIssuedByTierIndex",
      "outputs": [
        {
          "internalType": "uint256",
          "name": "",
          "type": "uint256"
        }
      ],
      "stateMutability": "view",
      "type": "function"
    },
    {
      "inputs": [],
      "name": "totalMembershipUpgraded",
      "outputs": [
        {
          "internalType": "uint256",
          "name": "",
          "type": "uint256"
        }
      ],
      "stateMutability": "view",
      "type": "function"
    },
    {
      "inputs": [],
      "name": "totalSupply",
      "outputs": [
        {
          "internalType": "uint256",
          "name": "",
          "type": "uint256"
        }
      ],
      "stateMutability": "view",
      "type": "function"
    },
    {
      "inputs": [
        {
          "internalType": "uint256",
          "name": "id",
          "type": "uint256"
        }
      ],
      "name": "totalSupply",
      "outputs": [
        {
          "internalType": "uint256",
          "name": "",
          "type": "uint256"
        }
      ],
      "stateMutability": "view",
      "type": "function"
    },
    {
      "inputs": [
        {
          "internalType": "address",
          "name": "newOwner",
          "type": "address"
        }
      ],
      "name": "transferOwnership",
      "outputs": [],
      "stateMutability": "nonpayable",
      "type": "function"
    },
    {
      "inputs": [
        {
          "internalType": "address",
          "name": "",
          "type": "address"
        }
      ],
      "name": "transferWhitelist",
      "outputs": [
        {
          "internalType": "bool",
          "name": "",
          "type": "bool"
        }
      ],
      "stateMutability": "view",
      "type": "function"
    },
    {
      "inputs": [],
      "name": "transferWhitelistEnabled",
      "outputs": [
        {
          "internalType": "bool",
          "name": "",
          "type": "bool"
        }
      ],
      "stateMutability": "view",
      "type": "function"
    },
    {
      "inputs": [],
      "name": "upgradeType",
      "outputs": [
        {
          "internalType": "uint8",
          "name": "",
          "type": "uint8"
        }
      ],
      "stateMutability": "view",
      "type": "function"
    },
    {
      "inputs": [
        {
          "internalType": "uint256",
          "name": "",
          "type": "uint256"
        }
      ],
      "name": "uri",
      "outputs": [
        {
          "internalType": "string",
          "name": "",
          "type": "string"
        }
      ],
      "stateMutability": "view",
      "type": "function"
    }
  ],
  "bytecode": "0x60a0604052346103df57615f2680380380610019816103e3565b928339810160e0828203126103df5781516001600160401b0381116103df57820181601f820112156103df5780516001600160401b03811161034057610068601f8201601f19166020016103e3565b92818452602082840101116103df575f928160208094018483015e010152602081015160098110156103df5760408201516100a560608401610408565b916100b260808501610408565b9360a08101519060ff82168092036103df5760c001519283151584036103df576020945f6100df876103e3565b52600254600181811c911680156103d5575b878210146103c157601f811161038f575b505f6002556001600160a01b031692831561037c57600380546001600160a01b031981168617909155604051979085906001600160a01b03167f8be0079c531659141344cd1fd0a4f28419497f9722a3daafe3b4186f6b6457e05f80a3600160045560646019556001600160a01b038116908115908115610372575b50610363576002841161035457336080528060018060a01b031960055416176005556006549160ff60a01b9060a01b169160018060a81b0319161717600655600755620f42407f669d986a32f5e30674d7f66bb8d44cc28fe3e0e39e2f1cd4349a57cbd64d6cc85560ff19601a541617601a5560017fbc488d3e2575f0f2113dc4d9a0cd6bc52445c6bc28a8974ed97a6ba3ecfd657a55805f527fbc488d3e2575f0f2113dc4d9a0cd6bc52445c6bc28a8974ed97a6ba3ecfd657b835260405f20600160ff198254161790555f516020615f065f395f51905f5254680100000000000000008110156103405760018101805f516020615f065f395f51905f525581101561032c575f516020615f065f395f51905f525f9081528490200180546001600160a01b031916909117905564174876e8007ffed699897f2561c8a98f833aa3de83c4904370d413fe5fb15abe26e9f8150b29556102f1575b604051615ae9908161041d8239608051816124d30152f35b7fc52867146282c253c04e94eb2a948478a1f7ef84cf2d6f5864facc99f2203f2c91600160ff19600a541617600a5560018152a15f806102d9565b634e487b7160e01b5f52603260045260245ffd5b634e487b7160e01b5f52604160045260245ffd5b63c7e283e160e01b5f5260045ffd5b63ab82bb9960e01b5f5260045ffd5b90503b155f61017e565b631e4fbdf760e01b5f525f60045260245ffd5b80156101025760025f52601f875f20910160051c905f5b8281106103b4575050610102565b5f828201556001016103a6565b634e487b7160e01b5f52602260045260245ffd5b90607f16906100f1565b5f80fd5b6040519190601f01601f191682016001600160401b0381118382101761034057604052565b51906001600160a01b03821682036103df5756fe60806040526004361015610019575b3415613628575b5f80fd5b5f3560e01c8062fdd58e1461053d57806301ffc9a714610538578063039af9eb1461053357806303ca3e381461052e5780630a106e9c146105295780630b6c8d71146105245780630cb856411461051f5780630e4ab4871461051a5780630e89341c146105155780630ec3786b146105105780631018c34b1461050b57806310bba86414610506578063116191b6146104a25780631284b92f1461050157806317c95709146104fc57806318160ddd146104f75780631c790e24146104f25780631fe56e6a146104ed57806324d7806c146104e85780632aff2a59146104e35780632b681a54146104de5780632dd50a49146104d95780632eb2c2d6146104d457806333d4e562146104cf5780633c703d45146104ca5780633c970fb9146104c557806343159ce5146104c0578063475e53ec146104bb57806348ed7ebe146104b657806349dd0900146104b15780634dda2215146104ac5780634e1273f4146104a757806353785619146104a25780635476d0711461049d57806356217848146104985780635637d5bc14610493578063564da7571461048e5780636465c3a714610489578063671395c814610484578063684cc3a51461047f578063706e01321461047a578063715018a61461047557806371b8982f146103bc5780637766fa44146104705780637ffbe2411461046b57806382b720c91461046657806383dbbf5314610461578063897828a81461045c5780638a1b32bb146104575780638abc9b25146104525780638da5cb5b1461044d57806394b2e946146104485780639565c5421461044357806398951b561461043e5780639f1bbda7146104395780639f3d1a2a146104345780639f48facc1461042f578063a22cb4651461042a578063a479044614610425578063a657a65b14610420578063a876c7591461041b578063a98d916e14610416578063acf12d3d14610411578063af7ffa2b1461040c578063bd85b03914610407578063c926bbfd14610402578063d05dcc6a146103fd578063d4506e77146103f8578063d52dc515146103f3578063d5f39488146103ee578063dd1bc5e9146103e9578063e4a34dce146103e4578063e5a6b10f146103df578063e985e9c5146103da578063ea2b8672146103d5578063ee3bb7b8146103d0578063f242432a146103cb578063f2fde38b146103c6578063f540f227146103c1578063f986f676146103bc578063fcef6b01146103b7578063fee3d73e146103b25763ffa1ad740361000e576127f3565b6127d3565b6127b6565b611a12565b61278c565b612715565b61265b565b612640565b6125e5565b6125b4565b612588565b61252c565b612502565b6124be565b61249c565b612444565b61241a565b612400565b6123ca565b61236f565b612352565b612333565b612316565b6122bb565b612253565b6121c8565b61206a565b611fb3565b611f96565b611f22565b611efa565b611ebf565b611e97565b611db6565b611d31565b611ccf565b611c63565b611bd9565b611b99565b611a5f565b611971565b611952565b611909565b6118ce565b611795565b6116e8565b6116cd565b6116a3565b611686565b610d1a565b6115c5565b611564565b611501565b6113a3565b611331565b6112d6565b611293565b61124a565b611219565b611185565b610ffd565b610fd8565b610f71565b610f3c565b610f12565b610eb8565b610e8f565b610e65565b610ddc565b610cee565b610c7a565b610c1e565b610b57565b610ad4565b610a77565b6109b6565b6108dc565b6106bd565b610650565b6105ad565b61055f565b6001600160a01b031690565b6001600160a01b0381160361001557565b346100155760403660031901126100155760206105926004356105818161054e565b6024355f525f835260405f20610db2565b54604051908152f35b6001600160e01b031981160361001557565b346100155760203660031901126100155760206004356105cc8161059b565b63ffffffff60e01b16636cdb3d1360e11b811490811561060a575b81156105f9575b506040519015158152f35b6301ffc9a760e01b1490505f6105ee565b6303a24d0760e21b811491506105e7565b634e487b7160e01b5f52603260045260245ffd5b60175481101561064b5760175f52600360205f20910201905f90565b61061b565b34610015576020366003190112610015576004356017548110156100155761067960609161062f565b50805490600260018201549101549060405192835260208301526040820152f35b6060906003190112610015576004356106b28161054e565b906024359060443590565b34610015576106cb3661069a565b600654919290916001600160a01b0316806108af57506005546001600160a01b03165b6001600160a01b031633036108a057610705613749565b6001600160a01b03811691821561089157801561088257610768610777916107635f5160206159fd5f395f51905f529661075560405193849263c791063b60e01b60208501528860248501612825565b03601f19810183528261106c565b6137a2565b60208082518301019101612843565b939091610807610786826137c9565b916107908361383b565b6107f961079c84613878565b86158080610879575b61086a575b6107bd6107b5612859565b8b8a8961392f565b156108635788905b60135460145492909161084e57601754610832576107e3908761397d565b6003546001600160a01b03166139a4565b6139a4565b61080285610e38565b610db2565b546040516001600160a01b03909216958291610823918361286d565b0390a46108306001600455565b005b8061083e575b506107e3565b610848908761397d565b5f610838565b8061085957506107e3565b6108489087613956565b5f906107c5565b6108748a876138e8565b6107aa565b508915156107a5565b63201165f360e21b5f5260045ffd5b63a9b8048960e01b5f5260045ffd5b6396f47d2360e01b5f5260045ffd5b6106ee565b6040906003190112610015576004356108cc8161054e565b906024356108d98161054e565b90565b34610015576108ea366108b4565b6006546001600160a01b03168061094357506005546001600160a01b03165b6001600160a01b031633036108a05761093e610830926107556040519384926302841ba760e21b60208501526024840161287e565b613769565b610909565b6060602091604081019381526040838201528451809452019201905f5b8181106109725750505090565b909192602060a06001926080875180518352848101518584015260408101516040840152606081015160608401520151151560808201520194019101919091610965565b34610015576020366003190112610015576109ff60206004356109d88161054e565b60055460405163805a016360e01b815293849283926001600160a01b03166004840161287e565b038173__$a9219284c3f0d74f57f4dcfc58f5429559$__5af48015610a7257610a2f915f91610a43575b50612a3b565b90610a3f60405192839283610948565b0390f35b610a65915060203d602011610a6b575b610a5d818361106c565b810190612b47565b5f610a29565b503d610a53565b612914565b3461001557604036600319011261001557600435610a948161054e565b600654602435906001600160a01b031680610acf57506005546001600160a01b03165b6001600160a01b031633036108a05761083091613a30565b610ab7565b3461001557602036600319011261001557600435610af0613b5e565b7ff316e065e93b4fddef3d2d93a57817985081f76ea9e0ca7417ed5b4b086b1fcb6020601854604051908152a1601855005b805180835260209291819084018484015e5f828201840152601f01601f1916010190565b9060206108d9928181520190610b22565b3461001557602036600319011261001557610b965f610b74613bc2565b604051809381926319c56d4160e21b8352604060048401526044830190610b22565b306024830152038173__$9326044641c87b14e434c703319e7fbd9b$__5af48015610a7257610a3f915f91610bd3575b5060405191829182610b46565b610bef91503d805f833e610be7818361106c565b8101906128ef565b5f610bc6565b606090600319011261001557600435610c0d8161054e565b90602435906044356108d98161054e565b3461001557610c2c36610bf5565b6006549091906001600160a01b031680610c7557506005546001600160a01b03165b6001600160a01b031633036108a057610c6e92610c69613749565b613c31565b6001600455005b610c4e565b3461001557604036600319011261001557600435610c978161054e565b600654602435906001600160a01b031680610cd257506005546001600160a01b03165b6001600160a01b031633036108a05761083091613cf5565b610cba565b5f91031261001557565b60ff909116815260200190565b34610015575f36600319011261001557602060405160068152f35b6001600160a01b0316600452602490565b34610015575f366003190112610015576005546040516001600160a01b039091168152602090f35b6001600160a01b03165f9081527fbc488d3e2575f0f2113dc4d9a0cd6bc52445c6bc28a8974ed97a6ba3ecfd657b6020526040902090565b6001600160a01b03165f9081527fbe5c2328713858b26c97b83c5ace333ac35b55572be4794180ba426b12cc48c46020526040902090565b9060018060a01b03165f5260205260405f2090565b805482101561064b575f5260205f2001905f90565b3461001557604036600319011261001557600435610df98161054e565b6001600160a01b03165f908152600e602052604090208054602435919082101561001557602091610e2991610dc7565b90549060031b1c604051908152f35b5f527fe5fcefe92466b78c655fa732b80b16e07a00f2a897e833e17d9914703cad563360205260405f2090565b34610015576020366003190112610015576004355f52600b602052602060405f2054604051908152f35b34610015575f3660031901126100155760205f516020615a9d5f395f51905f5254604051908152f35b3461001557604036600319011261001557600435602435610ed88161054e565b6006546001600160a01b031680610f0d5750610ef5600554610542565b6001600160a01b031633036108a0576108309161294e565b610ef5565b34610015576020366003190112610015576004355f526011602052602060405f2054604051908152f35b3461001557602036600319011261001557602060ff610f65600435610f608161054e565b610d42565b54166040519015158152f35b3461001557610f7f366108b4565b6006546001600160a01b031680610fd357506005546001600160a01b03165b6001600160a01b031633036108a05761093e61083092610755604051938492630ed647d960e11b60208501526024840161287e565b610f9e565b3461001557602036600319011261001557610a2f600435610ff88161054e565b612a3b565b3461001557610c6e61100e36610bf5565b91611017613749565b612b71565b634e487b7160e01b5f52604160045260245ffd5b606081019081106001600160401b0382111761104b57604052565b61101c565b61010081019081106001600160401b0382111761104b57604052565b601f909101601f19168101906001600160401b0382119082101761104b57604052565b6040519061109e60a08361106c565b565b6040519061109e6101008361106c565b6001600160401b03811161104b5760051b60200190565b9080601f830112156100155781356110de816110b0565b926110ec604051948561106c565b81845260208085019260051b82010192831161001557602001905b8282106111145750505090565b8135815260209182019101611107565b6001600160401b03811161104b57601f01601f191660200190565b81601f820112156100155780359061115682611124565b92611164604051948561106c565b8284526020838301011161001557815f926020809301838601378301015290565b346100155760a0366003190112610015576004356111a28161054e565b602435906111af8261054e565b6044356001600160401b038111610015576111ce9036906004016110c7565b6064356001600160401b038111610015576111ed9036906004016110c7565b608435939091906001600160401b0385116100155761121361083095369060040161113f565b93612d31565b3461001557602036600319011261001557602061124060043561123b8161054e565b612dc6565b6040519015158152f35b34610015576020366003190112610015576004355f527ffed699897f2561c8a98f833aa3de83c4904370d413fe5fb15abe26e9f8150b30602052602060405f2054604051908152f35b3461001557604036600319011261001557610c6e6004356112b38161054e565b6024356112be613749565b6112c6613b5e565b6107e36013549160145493614356565b34610015576040366003190112610015576004356112f38161054e565b600654602435906001600160a01b03168061132c5750611314600554610542565b6001600160a01b031633036108a05761083091612e2e565b611314565b346100155761133f3661069a565b6006549091906001600160a01b03168061139e57506005546001600160a01b03165b6001600160a01b031633036108a057611378613749565b6001600160a01b0383161561089157811561088257611399610c6e936137c9565b6143c4565b611361565b34610015576113b136610bf5565b600654919290916001600160a01b0316806114fc57506005546001600160a01b03165b6001600160a01b031633036108a0576113eb613749565b6001600160a01b0381161580156114eb575b6108915782156108825761142161141d61141684610d42565b5460ff1690565b1590565b6114dc575f516020615a1d5f395f51905f52916114b56114696114cf93611463604051631deff10f60e11b602082015261093e816107558b8960248401612f0d565b506137c9565b916114738361383b565b61147d86846138e8565b6013546014549161149761148f612859565b895f8861392f565b6114a18882613a30565b6114ab8886614429565b6107f48886613956565b6040519384526001600160a01b0316929081906020820190565b0390a26108306001600455565b6363bc5ecb60e11b5f5260045ffd5b506001600160a01b038216156113fd565b6113d4565b346100155760203660031901126100155760043561151e8161054e565b6001600160a01b039081165f9081527fbc488d3e2575f0f2113dc4d9a0cd6bc52445c6bc28a8974ed97a6ba3ecfd65816020908152604091829020549151919092168152f35b34610015575f366003190112610015576020600754604051908152f35b90602080835192838152019201905f5b81811061159e5750505090565b8251845260209384019390920191600101611591565b9060206108d9928181520190611581565b34610015576040366003190112610015576004356001600160401b038111610015573660238201121561001557806004013590611601826110b0565b9161160f604051938461106c565b8083526024602084019160051b8301019136831161001557602401905b82821061166c57836024356001600160401b03811161001557610a3f9161165a6116609236906004016110c7565b90612f28565b604051918291826115b4565b60208091833561167b8161054e565b81520191019061162c565b34610015575f366003190112610015576020601554604051908152f35b34610015576020366003190112610015576004355f526012602052602060405f2054604051908152f35b34610015575f36600319011261001557602060405160648152f35b34610015576040366003190112610015576004356117058161054e565b60243590611711613749565b611719613b5e565b6001600160a01b03811615610891578115610882576114cf6117485f516020615a1d5f395f51905f52926137c9565b6117518161383b565b61175b84826138e8565b6114b56013546014549061178160405161177660208261106c565b5f8152885f8761392f565b61178b8785614429565b6107e38785613956565b34610015576117a33661069a565b600654919290916001600160a01b0316806118c957506005546001600160a01b03165b6001600160a01b031633036108a0576117dd613749565b6001600160a01b0381169182156108915780156108825761076861182d916107635f5160206159fd5f395f51905f5296610755604051938492634404589760e01b60208501528860248501612825565b93909161080761183c826137c9565b916118468361383b565b841580806118c0575b6118b1575b61186761185f612859565b89888761392f565b156118ab57865b8061187e575b5061080285610e38565b6107e36118a5916118926013549060145490565b92909161189f8189614429565b87613956565b5f611874565b5f61186e565b6118bb88856138e8565b611854565b5087151561184f565b6117c6565b34610015576020366003190112610015576004356118eb8161054e565b60018060a01b03165f52600f602052602060405f2054604051908152f35b34610015576020366003190112610015576004355f527ffed699897f2561c8a98f833aa3de83c4904370d413fe5fb15abe26e9f8150b2d602052602060405f2054604051908152f35b34610015576119603661069a565b90611969613749565b611378613b5e565b34610015575f36600319011261001557611989614450565b600380546001600160a01b031981169091555f906001600160a01b03165f516020615a5d5f395f51905f528280a3005b906040600319830112610015576004356001600160401b0381116100155782602382011215610015576004810135926001600160401b03841161001557602484830101116100155760240191906024356108d98161054e565b3461001557611a20366119b9565b6006549091906001600160a01b031680611a5a57506005546001600160a01b03165b6001600160a01b031633036108a05761083092612fbd565b611a42565b3461001557611a6d366119b9565b6006549192916001600160a01b031680611b9457506005546001600160a01b03165b6001600160a01b031633036108a057611aa6613749565b6001600160a01b0381161561089157611af5611ae65f94611ae18695610755604051938492633aa2954160e11b602085015260248401613077565b613796565b60208082518301019101613088565b611b00929192613dc4565b928115158514611b5b57611b2f90610755604051938492602084019663d8bdbdf560e01b8852602485016130e8565b51915af4611b3b61291f565b505b15611b4c576108306001600455565b63fb713d2b60e01b5f5260045ffd5b6107559150611b82906040519283916020830195630b18ae1d60e11b8752602484016130b8565b51915af4611b8e61291f565b50611b3d565b611a8f565b3461001557602036600319011261001557600435611bb68161054e565b60018060a01b03165f526009602052602060ff60405f2054166040519015158152f35b346100155760a036600319011261001557600435611bf68161059b565b60243590611c038261054e565b60443560643560843591611c18600654610542565b6001600160a01b038116611c5e5750611c32600554610542565b6001600160a01b031633036108a057610a3f94611c4e94613120565b6040519081529081906020820190565b611c32565b3461001557602036600319011261001557600435611c7f613b5e565b8015611cb6576020817fd45b01a2f21a7aa8a0f57023efdce73147de071e77875c3f4d486b1e13eaef7092600755604051908152a1005b6376024b7160e01b5f5260045ffd5b8015150361001557565b34610015576020366003190112610015577fc52867146282c253c04e94eb2a948478a1f7ef84cf2d6f5864facc99f2203f2c6020600435611d0f81611cc5565b611d17613b5e565b151560ff19600a541660ff821617600a55604051908152a1005b3461001557602036600319011261001557600435611d4e8161054e565b6006546001600160a01b031680611db157506005546001600160a01b03165b6001600160a01b031633036108a057604051638a1b32bb60e01b60208201526001600160a01b0390911660248083019190915281526108309061093e60448261106c565b611d6d565b3461001557606036600319011261001557604435600435602435611dd8613b5e565b8115611e88576017549060405193611def85611030565b83855260208501918083526040860195828752600160401b85101561104b5760018501601755611e1e8561062f565b919091611e83577fc9553df3224b08515381089b4a0e07d62144ba87c402485fabd66899cadc2ab197611e7e9560029251845551600184015551910155604051948594859094939260609260808301968352602083015260408201520152565b0390a1005b61319e565b639033099360e01b5f5260045ffd5b34610015575f366003190112610015576003546040516001600160a01b039091168152602090f35b3461001557602036600319011261001557600435611edc8161054e565b60018060a01b03165f526010602052602060405f2054604051908152f35b34610015575f366003190112610015576006546040516001600160a01b039091168152602090f35b346100155760203660031901126100155760043560ff611f4133610d42565b5416156114dc57611f50613dc4565b905f806040516020810190634c4a8dab60e11b825284602482015260248152611f7a60448261106c565b5190855af4611f8761291f565b5015611b4c5761083091614275565b34610015575f366003190112610015576020600854604051908152f35b34610015575f36600319011261001557610a3f611fce613bc2565b604051918291602083526020830190610b22565b81516001600160401b039081168252602080840151909116908201526040808301516001600160801b0390811691830191909152606080840151909116908201526101008101929161109e919060e090819060808181015115159085015260a08181015160ff169085015260c08181015160ff169085015201516001600160801b0316910152565b34610015576020366003190112610015576004355f60e060405161208d81611050565b8281528260208201528260408201528260608201528260808201528260a08201528260c082015201525f527fe5fcefe92466b78c655fa732b80b16e07a00f2a897e833e17d9914703cad5632602052610a3f60405f206121976121876002604051936120f885611050565b80546001600160401b038082168752604082901c1660208701526121299060801c6001600160801b03166040870152565b60018101546001600160801b03811660608701526121799061216f90612159608082901c60ff16151560808a0152565b60ff608882901c1660a089015260901c60ff1690565b60ff1660c0870152565b01546001600160801b031690565b6001600160801b031660e0830152565b60405191829182611fe2565b6040906003190112610015576004356121bb8161054e565b906024356108d981611cc5565b34610015576121d6366121a3565b6001600160a01b038216918215612241578161220061221192335f52600160205260405f20610db2565b9060ff801983541691151516179055565b60405190151581527f17307eab39ab6107e8899845ad3d59bd9653f200f220920489ca2b5937696c3160203392a3005b62ced3e160e81b5f525f60045260245ffd5b34610015576040366003190112610015576004356001600160401b0381116100155736602382011215610015576004810135906001600160401b038211610015573660248360051b83010111610015576108309160248035926122b58461054e565b016131b1565b34610015576020366003190112610015576004356001600160401b03811161001557366023820112156100155760048101356001600160401b03811161001557366024606083028401011161001557602461083092016134aa565b34610015575f366003190112610015576020601854604051908152f35b34610015575f36600319011261001557602060405164174876e8008152f35b34610015575f366003190112610015576020601354604051908152f35b346100155760403660031901126100155760043561238c8161054e565b600654602435906001600160a01b0316806123c557506123ad600554610542565b6001600160a01b031633036108a05761083091613547565b6123ad565b34610015576020366003190112610015576004355f525f516020615a3d5f395f51905f52602052602060405f2054604051908152f35b34610015575f3660031901126100155760206040515f8152f35b34610015576020366003190112610015576004355f52600c602052602060405f2054604051908152f35b3461001557602036600319011261001557600435612460613b5e565b7f1c8121c98d871a1523a6112e29ac660378afbcb9b921cff8f187c3da35d17081816008546124946040519283928361286d565b0390a1600855005b34610015575f36600319011261001557602060ff600a54166040519015158152f35b34610015575f366003190112610015576040517f00000000000000000000000000000000000000000000000000000000000000006001600160a01b03168152602090f35b34610015576020366003190112610015576004355f526016602052602060405f2054604051908152f35b346100155761083061253d366121a3565b90612546613b5e565b60018060a01b03165f52600960205260405f209060ff801983541691151516179055565b6009111561257457565b634e487b7160e01b5f52602160045260245ffd5b34610015575f3660031901126100155760ff60065460a01c166040516009821015612574576020918152f35b3461001557602060ff610f656125c9366108b4565b6001600160a01b039091165f9081526001855260409020610db2565b34610015576040366003190112610015576004356126028161054e565b600654602435906001600160a01b03168061263b5750612623600554610542565b6001600160a01b031633036108a05761083091613565565b612623565b34610015575f36600319011261001557602060405160028152f35b346100155760a0366003190112610015576004356126788161054e565b6024356126848161054e565b6064356044356084356001600160401b038111610015576126a990369060040161113f565b926001600160a01b038516331415806126eb575b6126ca5761083094614711565b63711bec9160e11b5f52336004526001600160a01b03851660245260445b5ffd5b5061271061141d611416336108028960018060a01b03165f52600160205260405f2090565b6126bd565b34610015576020366003190112610015576004356127328161054e565b61273a614450565b6001600160a01b0316801561277957600380546001600160a01b0319811683179091556001600160a01b03165f516020615a5d5f395f51905f525f80a3005b631e4fbdf760e01b5f525f60045260245ffd5b34610015576020366003190112610015576004355f52600d602052602060405f2054604051908152f35b34610015575f366003190112610015576020601454604051908152f35b34610015575f36600319011261001557602060ff601a5416604051908152f35b34610015575f36600319011261001557602060405160168152f35b612821915f525f60205260405f20610db2565b5490565b604091949392606082019560018060a01b0316825260208201520152565b9190826040910312610015576020825192015190565b6040519061286860208361106c565b5f8252565b908152602081019190915260400190565b6001600160a01b0391821681529116602082015260400190565b5f516020615a9d5f395f51905f5255565b81601f82011215610015578051906128c082611124565b926128ce604051948561106c565b8284526020838301011161001557815f9260208093018386015e8301015290565b906020828203126100155781516001600160401b038111610015576108d992016128a9565b6040513d5f823e3d90fd5b3d15612949573d9061293082611124565b9161293e604051938461106c565b82523d5f602084013e565b606090565b5f80612958613dc4565b93604051602081019163071e438960e21b835285602483015260018060a01b031660448201526044815261298d60648261106c565b5190855af461299a61291f565b50156114dc5761109e91614275565b906129b3826110b0565b6129c0604051918261106c565b82815280926129d1601f19916110b0565b015f5b8181106129e057505050565b60405160a0810191906001600160401b0383118184101761104b576020926040525f81525f838201525f60408201525f60608201525f6080820152828286010152016129d4565b805182101561064b5760209160051b010190565b6001600160a01b0381165f908152600e60205260409020909190918254612a61816129a9565b935f5b828110612a915750505f80805260205250612a8c905f516020615abd5f395f51905f52610db2565b549190565b80612aab612aa160019385610dc7565b90549060031b1c90565b612b15612ac0825f52600b60205260405f2090565b548015159081612b31575b612add845f52600c60205260405f2090565b54612af0855f52600d60205260405f2090565b5490612afa61108f565b95865260208601526040850152606084015215156080830152565b612b1f8289612a27565b52612b2a8188612a27565b5001612a64565b809150421190612acb565b519061109e8261054e565b9081602091031261001557516108d98161054e565b9081602091031261001557516108d981611cc5565b91908015612d2c576001600160a01b038316928315610891576001600160a01b038316156108915760405163c45a015560e01b8152602081600481885afa908115610a72575f91612d0d575b506001600160a01b031680156108915760405163054c14ed60e51b8152602081600481855afa908115610a72575f91612cee575b506001600160a01b03168015612cdf573303612cd1576040516303330c7960e41b81526001600160a01b03929092166004830152602090829060249082905afa908115610a72575f91612ca2575b5015612c9357602060049360405194858092638da5cb5b60e01b82525afa8015610a725761109e935f91612c74575b50613c31565b612c8d915060203d602011610a6b57610a5d818361106c565b5f612c6e565b632ad05f3360e11b5f5260045ffd5b612cc4915060203d602011612cca575b612cbc818361106c565b810190612b5c565b5f612c3f565b503d612cb2565b62645ab960e51b5f5260045ffd5b63ab82bb9960e01b5f5260045ffd5b612d07915060203d602011610a6b57610a5d818361106c565b5f612bf1565b612d26915060203d602011610a6b57610a5d818361106c565b5f612bbd565b505050565b939291906001600160a01b0385163381141580612da6575b612d90576001600160a01b03821615612d7d5715612d6a5761109e946148c7565b626a0d4560e21b5f90815260045260245ffd5b632bfa23e760e11b5f525f60045260245ffd5b63711bec9160e11b5f523360045260245260445ffd5b50805f52600160205260ff612dbe3360405f20610db2565b541615612d49565b60ff600a541615612e28575f805260096020527fec8156718a8372b1db44bb411437d0870f3e3790d4a08526d024ce1b0b668f6b5460ff16908115612e09575090565b6001600160a01b03165f9081526009602052604090205460ff16919050565b50600190565b90612e37613749565b9081906001600160a01b0381161561089157612e52906137c9565b5f80805260205290612e71825f516020615abd5f395f51905f52610db2565b54908115610882575f1914612f05575b808311612ecb5750811561088257612ebe816114b5847fcfaedf921126ed75cd0b52e9418d816572c256b67104e03066bd3f067f2d53c09461437d565b0390a261109e6001600455565b60405163406e3ab960e01b81526001600160a01b0390921660048301525f60248301526044820152606481019190915280608481015b0390fd5b915081612e81565b6001600160a01b039091168152602081019190915260400190565b91909180518351808203612fa8575050805190612f44826110b0565b91612f52604051938461106c565b808352612f61601f19916110b0565b013660208401375f5b8151811015612fa15780612f9060019260051b602080828701015191890101519061280e565b612f9a8286612a27565b5201612f6a565b5090925050565b635b05999160e01b5f5260045260245260445ffd5b612fc5613749565b6001600160a01b038316156108915761305092613031613014611ae1612feb8686614484565b95909660405193849263fd44e85560e01b60208501526024840192604084526040840191613057565b90602060018060a01b03881691015203601f19810183528261106c565b926130456020855186010160208601613387565b959293915093614526565b6001600455565b908060209392818452848401375f828201840152601f01601f1916010190565b9160206108d9938181520191613057565b91906040838203126100155782516001600160401b038111610015576020916130b29185016128a9565b92015190565b6001600160a01b03909116815260016020820181905260408201526080606082018190526108d992910190610b22565b93929161311b9060809260018060a01b03168652600160208701526001604087015260a0606087015260a0860190610b22565b930152565b919261318293949194613131613dc4565b6040516382b720c960e01b60208201526001600160e01b031990951660248601526001600160a01b0390961660448501526064840152608483015260a480830191909152815261093e60c48261106c565b6020818051810103126100155760206108d99101518092614275565b634e487b7160e01b5f525f60045260245ffd5b6006549091906001600160a01b03168061324a57506005546001600160a01b03165b6001600160a01b031633036108a0576131ea613749565b6001600160a01b03831615610891578015611b4c5761324092613031611ae19261321d613217828761324f565b90614484565b9490956107558560405194859363bca0e27d60e01b602086015260248501613289565b61109e6001600455565b6131d3565b901561064b57803590601e19813603018212156100155701803591906001600160401b038311610015576020018236038113610015579190565b93929190816040860160408752526060850160608360051b87010192825f90601e19813603015b8383106132d35750505050505090602061109e9294019060018060a01b03169052565b909192939495605f198a8203018652863582811215610015578301602081019190356001600160401b0381116100155780360383136100155761331c6020928392600195613057565b9801960194930191906132b0565b9080601f83011215610015578151613341816110b0565b9261334f604051948561106c565b81845260208085019260051b82010192831161001557602001905b8282106133775750505090565b815181526020918201910161336a565b9060808282031261001557815192602083015192604081015160018060401b03811161001557836133b991830161332a565b60608201519093906001600160401b038111610015576108d9920161332a565b919081101561064b576060020190565b634e487b7160e01b5f52601160045260245ffd5b8181029291811591840414171561341057565b6133e9565b6017545f601755806134245750565b806003029060038204036134105760175f5260205f205f5b82811061344857505050565b805f6002600393850182815582600182015501550161343c565b601754600160401b81101561104b576001810160175560175481101561064b57604060029160175f52600360205f209102019280358455602081013560018501550135910155565b6134b2613b5e565b8115613538575f5b82811061351f57506134ca613415565b5f5b8281106135035750506040519081527f2f291eaf494dc7eca20457441a1df7d9119f0c0d764309daf9cb6b148810ee3690602090a1565b8061351961351460019386866133d9565b613462565b016134cc565b61352a8184846133d9565b3515611e88576001016134ba565b6308ba5b6160e01b5f5260045ffd5b61305091613553613749565b6003546001600160a01b031691613c31565b9061356e613749565b6001600160a01b03821615610891576135cc613589836137c9565b6040516335be6eb960e21b60208201526001600160a01b039485166024820152938116604485015260648085018490528452926135c760848261106c565b6137af565b506135e16135d8612859565b6001838561392f565b604051600181526001600160a01b0392909216915f516020615a7d5f395f51905f5290602090a36001600455565b90816020910312610015575160ff811681036100155790565b613630614749565b60405163426dc88f60e01b81526001600160e01b03195f351660048201526020816024816001600160a01b0386165afa908115610a72575f9161371a575b5060ff1660fd19810161369757505f80915b368280378136915af43d90815f803e156126e8575ff35b9050806136ae57505f806136a96140f1565b613680565b600381036136c157505f806136a9613dc4565b600181036136d457505f806136a961404e565b600281036136e757505f806136a9613fab565b600481036136fa57505f806136a9613f0a565b60050361370b575f806136a9613e67565b633655084960e01b5f5260045ffd5b61373c915060203d602011613742575b613734818361106c565b81019061360f565b5f61366e565b503d61372a565b60026004541461375a576002600455565b633ee5aeb560e01b5f5260045ffd5b5f80916137766003614193565b602082519201905af49061378861291f565b911561379057565b506147f2565b5f809161377682614193565b5f80916137766001614193565b5f80916137766002614193565b5f80916137766004614193565b6005546040516306e0faf160e21b815291602091839182916137f891906001600160a01b03166004840161287e565b038173__$a9219284c3f0d74f57f4dcfc58f5429559$__5af4908115610a72575f91613822575090565b6108d9915060203d602011610a6b57610a5d818361106c565b60405163e6a84c7760e01b60208201526001600160a01b0390911660248083019190915281526138759061387060448261106c565b6137bc565b50565b6001600160a01b0381165f908152600f602052604090205480151591826138c8575b50816138a4575090565b90505f52600b60205260405f205480151590816138c057501590565b905042111590565b816138de9293505f525f60205260405f20610db2565b541515905f61389a565b811561392b576138f790613878565b61387557601754156138755761391361390e614824565b61062f565b50541161391c57565b63559d06d760e01b5f5260045ffd5b5050565b919291906001600160a01b03821615612d7d5761109e9361394f916148a2565b915f6148c7565b906138706138759261075560405193849263a55d613f60e01b602085015260248401612f0d565b906138706138759261075560405193849263179953bf60e11b602085015260248401612f0d565b9160135482810391818311613410576014549080820394828611613410576001600160a01b038716159384156139e6575b50505050612d2c5761109e92614cda565b14925090826139fb575b50505f8080806139d5565b1490505f806139f0565b9190820180921161341057565b8115613a1c570490565b634e487b7160e01b5f52601260045260245ffd5b906001600160a01b03821680158015613b56575b612d2c575f527fbe5c2328713858b26c97b83c5ace333ac35b55572be4794180ba426b12cc48be60205260405f2080549282840180941161341057600893613a8c9255610d7a565b610e1042045f5260205260405f209060098201613aad61141d825460ff1690565b613b47575b50613abe5f8354613a05565b8255613acf60018301918254613a05565b905560028101613ae05f8254613a05565b905560038101613af15f8254613a05565b905560048101613b025f8254613a05565b905560058101613b135f8254613a05565b905560068101613b245f8254613a05565b905560078101613b355f8254613a05565b905501613b435f8254613a05565b9055565b613b5090614477565b5f613ab2565b508115613a44565b6006546001600160a01b031680613bbd57506005546001600160a01b03165b6003546001600160a01b03163314159081613ba9575b50613b9a57565b630fc5e1ab60e41b5f5260045ffd5b6001600160a01b031633141590505f613b93565b613b7d565b6005546001600160a01b03168015818115613c27575b50612cdf575f60049160405192838092634f9e8d1560e11b82525afa908115610a72575f91613c0d575b50805115612cdf5790565b613c2191503d805f833e610be7818361106c565b5f613c02565b90503b155f613bd8565b90916001600160a01b038216918215610891576001600160a01b03821615610891578315610882577f6ac4f60455173f2148d89d52868ac4ffb14111720d245aa36ad26e0d7e64c59b91613cd6613c8a613cf0936137c9565b91613c948361383b565b613c9e87846138e8565b60135460145491613cb8613cb0612859565b8a5f8861392f565b613cc28986614429565b613ccc8986613956565b6107f48982614dd3565b6040519485526001600160a01b0316939081906020820190565b0390a3565b906001600160a01b03821680158015613dbc575b612d2c575f527fbe5c2328713858b26c97b83c5ace333ac35b55572be4794180ba426b12cc48bf60205260405f2080549282840180941161341057600893613d679255613d5a610e10420491610d7a565b905f5260205260405f2090565b9060098201613d7a61141d825460ff1690565b613dad575b50613d8b5f8354613a05565b825560018201613d9c5f8254613a05565b9055613ae060028301918254613a05565b613db690614477565b5f613d7f565b508115613d09565b613dcf600554610542565b6001600160a01b038116908115908115613e5d575b50612cdf5760206040518092631927a41b60e21b82528180613e0a600360048301610ce1565b03915afa908115610a72575f91613e3e575b506001600160a01b0381166108d9576252330960e91b5f52600360045260245ffd5b613e57915060203d602011610a6b57610a5d818361106c565b5f613e1c565b90503b155f613de4565b613e72600554610542565b6001600160a01b038116908115908115613f00575b50612cdf5760206040518092631927a41b60e21b82528180613ead600560048301610ce1565b03915afa908115610a72575f91613ee1575b506001600160a01b0381166108d9576252330960e91b5f52600560045260245ffd5b613efa915060203d602011610a6b57610a5d818361106c565b5f613ebf565b90503b155f613e87565b613f15600554610542565b6001600160a01b038116908115908115613fa1575b50612cdf5760206040518092631927a41b60e21b82528180613f4f6004808301610ce1565b03915afa908115610a72575f91613f82575b506001600160a01b0381166108d9576252330960e91b5f526004805260245ffd5b613f9b915060203d602011610a6b57610a5d818361106c565b5f613f61565b90503b155f613f2a565b613fb6600554610542565b6001600160a01b038116908115908115614044575b50612cdf5760206040518092631927a41b60e21b82528180613ff1600260048301610ce1565b03915afa908115610a72575f91614025575b506001600160a01b0381166108d9576252330960e91b5f52600260045260245ffd5b61403e915060203d602011610a6b57610a5d818361106c565b5f614003565b90503b155f613fcb565b614059600554610542565b6001600160a01b0381169081159081156140e7575b50612cdf5760206040518092631927a41b60e21b82528180614094600160048301610ce1565b03915afa908115610a72575f916140c8575b506001600160a01b0381166108d9576252330960e91b5f52600160045260245ffd5b6140e1915060203d602011610a6b57610a5d818361106c565b5f6140a6565b90503b155f61406e565b6140fc600554610542565b6001600160a01b038116908115908115614189575b50612cdf5760206040518092631927a41b60e21b825281806141365f60048301610ce1565b03915afa908115610a72575f9161416a575b506001600160a01b0381166108d9576252330960e91b5f90815260045260245ffd5b614183915060203d602011610a6b57610a5d818361106c565b5f614148565b90503b155f614111565b61419e600554610542565b6001600160a01b038116908115908115614232575b50612cdf5760206040518092631927a41b60e21b825281806141d88760048301610ce1565b03915afa908115610a72575f91614213575b506001600160a01b03811661420e576252330960e91b5f5260ff821660045260245ffd5b905090565b61422c915060203d602011610a6b57610a5d818361106c565b5f6141ea565b90503b155f6141b3565b908160a09103126100155780516142528161059b565b9160208201516142618161054e565b916040810151916080606083015192015190565b906142a7815f527fbc488d3e2575f0f2113dc4d9a0cd6bc52445c6bc28a8974ed97a6ba3ecfd657d60205260405f2090565b600681015460ff16908115614327575b5061392b575f9182916040516142e7816107556020820194630d61b51960e01b8652602483019190602083019252565b51915af46142f361291f565b90156143225761430f8160208061109e9451830101910161423c565b509290916001600160a01b031690614dfb565b6147f2565b6005915001547fbc488d3e2575f0f2113dc4d9a0cd6bc52445c6bc28a8974ed97a6ba3ecfd657a54115f6142b7565b9061387061387592610755604051938492635bcc7ca960e11b602085015260248401612f0d565b6001600160a01b038116156143b25761439961109e925f6148a2565b905f604051936143aa60208661106c565b8185526148c7565b626a0d4560e21b5f525f60045260245ffd5b60205f516020615a7d5f395f51905f52916143fa604051633c2f328b60e11b848201526135c78161075589898760248501612825565b5061441660405161440b848261106c565b5f815286868461392f565b6040519485526001600160a01b031693a3565b906138706138759261075560405193849263b932546160e01b602085015260248401612f0d565b6003546001600160a01b0316330361446457565b63118cdaa760e01b5f523360045260245ffd5b805460ff19166001179055565b60408051630d01186b60e41b81526020600482015293929091849182916144af916024840191613057565b038173__$a9219284c3f0d74f57f4dcfc58f5429559$__5af4918215610a72575f905f936144dc57509190565b9250506040823d60401161451e575b816144f86040938361106c565b8101031261001557602082519261450e8461054e565b01519161451a8361054e565b9190565b3d91506144eb565b909295969194939687518551036146f45750614541906137c9565b9061454b8261383b565b61455482613878565b5f955f975f5b8a5181101561459f5761456d818c612a27565b511561457c575b60010161455a565b9850966145949061458d8a89612a27565b5190613a05565b600198909790614574565b509091929497969396156146ec575b508280614692575b50505f5b8751811015614643576145cd8186612a27565b51908115610882576001916145e2828b612a27565b511561463d5764174876e8006145f8838c612a27565b5110614619576146139061460c838c612a27565b51896143c4565b016145ba565b61463890614627838c612a27565b5190614631612859565b918a61392f565b614613565b50614613565b5091955061109e9490939192506001600160a01b0381161561468057905b601354601454949093614677576107f49161397d565b6107f491613956565b5061468c600354610542565b90614661565b6146d1916146a082896138e8565b6146b36146ab612859565b835f8b61392f565b6001600160a01b038916156146d8576146cc828a613a30565b614e6b565b5f826145b6565b6146cc826146e7600354610542565b613a30565b92505f6145ae565b60405163dccff66960e01b8152908190612f019060048301610b46565b92939290916001600160a01b03831615612d7d576001600160a01b038216156143b25761109e94614741916148a2565b9290916148c7565b614754600554610542565b6001600160a01b038116919082159081156147e8575b50612cdf5760206040518093631927a41b60e21b8252818061479060fe60048301610ce1565b03915afa918215610a72575f926147c7575b506001600160a01b038216158281156147bd575b50612cdf57565b90503b155f6147b6565b6147e191925060203d602011610a6b57610a5d818361106c565b905f6147a2565b90503b155f61476a565b8051908161481f5760405163dccff66960e01b815260206004820152908190612f01906024830190610b22565b602001fd5b601754801561489c575f906017541561064b5760175f527fc624b66cc0138b8fabc209247f72d758e1cf3343756d543badbf24212bed8c155460015b82811061486d5750505090565b816148778261062f565b505410614887575b600101614860565b809350614894915061062f565b50548261487f565b505f1990565b9160405192600184526020840152604083019160018352606084015260808301604052565b92949190936148d886838787615462565b936148ee87846148e88851610542565b84615536565b6001600160a01b03811615801597908880614cc8575b80614c13575b8080614bf9575b614bb7575b600260ff614926601a5460ff1690565b16149081614baf575b50614b77575b614b08575b6001600160a01b038716159687614a82575b5f989760e088019860c060a08a0199019a5b8a518110156149a2578061499c8d6149958361498e8f6001976149819151612a27565b516001600160a01b031690565b9251612a27565b51906156ef565b0161495e565b5092959850929598509295506149f7575b156149c0575b5050505050565b84516001036149e6576020806149dc9601519201519233615056565b5f808080806149b9565b6149f294919233614f38565b6149dc565b94939291905f955f5b8651811015614a7657614a138188612a27565b511580614a63575b614a2757600101614a00565b509091929394955060015b80614a4b575b156149b357614a4684615941565b6149b3565b50600160ff614a5c601a5460ff1690565b1614614a38565b50614a6e8185612a27565b511515614a1b565b50909192939495614a32565b96925f98949692959198955f965b8851881015614adf57600190614aa6898d612a27565b5190614ad0614ab58b8d612a27565b515f525f516020615a3d5f395f51905f5260205260405f2090565b82815403905501970196614a90565b614b03919498969a939750989194985f516020615a9d5f395f51905f525403612898565b61494c565b94915f9794919693975b8851811015614b695780614b63614b5e8b614b3d614ab585614b366001988f612a27565b5193612a27565b614b48828254613a05565b90555f516020615a9d5f395f51905f5254613a05565b612898565b01614b12565b50919496929590939661493a565b614ba985613870614b888a51610542565b61075586604051948593635d935afb60e01b60208601528a60248601614e93565b50614935565b90505f61492f565b60808801614bc6815186615790565b614bf490614bd760208b0151610542565b90614be560408c0151610542565b60608c01519151928d89615896565b614916565b506060880151151580614911575060808801511515614911565b979295919893905f985f995b87518b1015614ca257614c328b89612a27565b51908c606483108015614c93575b614c88578c614c4e91612a27565b5115614c7e575080614c63614c72928b6156ef565b614c6d8b51610542565b615716565b6001809a5b0199614c1f565b9a60019150614c77565b509a60019150614c77565b5064174876e800831015614c40565b909192959a93979499501561490a57614cc3614cbe8951610542565b61383b565b61490a565b506001600160a01b0388161515614904565b6001600160a01b038116158015614dc2575b612d2c57613b4391614cff600892610d7a565b610e1042045f5260205260405f209060098201614d2061141d825460ff1690565b614db3575b50614d315f8354613a05565b825560018201614d425f8254613a05565b905560028201614d535f8254613a05565b905560038201614d645f8254613a05565b905560048201614d755f8254613a05565b905560058201614d865f8254613a05565b905560068201614d975f8254613a05565b9055614da860078301918254613a05565b905501918254613a05565b614dbc90614477565b5f614d25565b5081158015614cec57508215614cec565b906001600160a01b038216158015614df3575b61392b5761109e916150f4565b508015614de6565b9092906001600160e01b031916630b18ae1d60e11b8103614e2557632bb82cb360e01b5f5260045ffd5b631cb4772560e21b8103614e525750509061109e915f60405192614e4a60208561106c565b81845261392f565b90915063178fb21b60e11b03611b4c5761109e91614356565b906001600160a01b038216158015614e8b575b61392b5761109e916151fa565b508015614e7e565b6001600160a01b039182168152911660208201526080604082018190526108d9939192614ec291840190611581565b916060818403910152611581565b9081602091031261001557516108d98161059b565b6001600160a01b0391821681529116602082015260a0604082018190526108d99491939192614f2a9291614f1c9190860190611581565b908482036060860152611581565b916080818403910152610b22565b9091949293853b614f4c575b505050505050565b602093614f6e91604051968795869563bc197c8160e01b875260048701614ee5565b03815f6001600160a01b0387165af15f9181614fec575b50614fb65750614f9361291f565b8051919082614faf57632bfa23e760e11b5f526126e882610d09565b6020915001fd5b6001600160e01b0319166343e6837f60e01b01614fd957505f8080808080614f44565b632bfa23e760e11b5f526126e890610d09565b61500f91925060203d602011615016575b615007818361106c565b810190614ed0565b905f614f85565b503d614ffd565b6001600160a01b039182168152911660208201526040810191909152606081019190915260a0608082018190526108d992910190610b22565b9091949293853b61506957505050505050565b60209361508b91604051968795869563f23a6e6160e01b87526004870161501d565b03815f6001600160a01b0387165af15f91816150d3575b506150b05750614f9361291f565b6001600160e01b031916630dc5919f60e01b01614fd957505f8080808080614f44565b6150ed91925060203d60201161501657615007818361106c565b905f6150a2565b906001600160a01b038216801580156151f2575b612d2c575f527fbe5c2328713858b26c97b83c5ace333ac35b55572be4794180ba426b12cc48c360205260405f20805492828401809411613410576008936151599255613d5a610e10420491610d7a565b906009820161516c61141d825460ff1690565b6151e3575b5061517d5f8354613a05565b82556001820161518e5f8254613a05565b90556002820161519f5f8254613a05565b9055600382016151b05f8254613a05565b9055600482016151c15f8254613a05565b9055600582016151d25f8254613a05565b9055613b2460068301918254613a05565b6151ec90614477565b5f615171565b508115615108565b906001600160a01b038216801580156152e7575b612d2c575f527fbe5c2328713858b26c97b83c5ace333ac35b55572be4794180ba426b12cc48c260205260405f208054928284018094116134105760089361525f9255613d5a610e10420491610d7a565b906009820161527261141d825460ff1690565b6152d8575b506152835f8354613a05565b8255600182016152945f8254613a05565b9055600282016152a55f8254613a05565b9055600382016152b65f8254613a05565b9055600482016152c75f8254613a05565b9055613b1360058301918254613a05565b6152e190614477565b5f615277565b50811561520e565b9080601f83011215610015578151615306816110b0565b92615314604051948561106c565b81845260208085019260051b82010192831161001557602001905b82821061533c5750505090565b60208091835161534b8161054e565b81520191019061532f565b602081830312610015578051906001600160401b03821161001557019061010082820312610015576153866110a0565b9161539081612b3c565b835261539e60208201612b3c565b60208401526153af60408201612b3c565b6040840152606081810151908401526080808201519084015260a08101516001600160401b03811161001557826153e79183016152ef565b60a084015260c08101516001600160401b0381116100155760e09261540d91830161332a565b60c0840152015160e082015290565b6001600160a01b0391821681529181166020830152909116604082015260a0606082018190526108d993919261545491840190611581565b916080818403910152611581565b9092916154cb5f938460e060405161547981611050565b828152826020820152826040820152826060820152826080820152606060a0820152606060c082015201526154af600554610542565b604051637bd8ece960e11b81529687958695926004870161541c565b038173__$a9219284c3f0d74f57f4dcfc58f5429559$__5af4908115610a72575f916154f5575090565b6108d991503d805f833e615509818361106c565b810190615356565b90916155286108d993604084526040840190611581565b916020818403910152611581565b93929180518351908181036156da5750505f5b8151811015615635578060051b90602080838501015192860101518460018060a01b0389166155b8575b6001936001600160a01b03821661558e575b50505001615549565b6155ae916108026155a6925f525f60205260405f2090565b918254613a05565b90555f8481615585565b5090916155d088610802835f525f60205260405f2090565b548281106155fe578291600194938792036155f68b610802845f525f60205260405f2090565b559350615573565b6040516303dee4c560e01b81526001600160a01b038a16600482015260248101919091526044810183905260648101829052608490fd5b508051939493919291600103615697576020908101519101516040516001600160a01b03938416949093169233927fc3d58168c5ae7397731d063d5bbf3d657854427343f4c083240f7aacaa2d0f6292829161569291908361286d565b0390a4565b6040516001600160a01b03938416949093169233927f4a39dc06d4c0dbc64b70af90fd698a233a518aa5d07e595d983b8c0526c8f7fb9282916156929183615511565b635b05999160e01b5f5260045260245260445ffd5b9061387061387592610755604051938492637e4152e760e11b602085015260248401612f0d565b6001600160a01b03165f908152600e60205260408120805490915b81811061576b5750600160401b81101561104b5761575491600182018155610dc7565b819291549060031b91821b915f19901b1916179055565b836157768285610dc7565b90549060031b1c1461578a57600101615731565b50505050565b6001600160a01b03811691908215801561588e575b612d2c577f669d986a32f5e30674d7f66bb8d44cc28fe3e0e39e2f1cd4349a57cbd64d6cc85491821561578a576157e26157ec91600754906133fd565b620f424090613a12565b91821561578a5761580061580991846133fd565b620f4240900490565b91821561578a5761582461581b612859565b8460028561392f565b61584e7faec7eac010683474b50da2ca2793836009e34ef09022b5ec5d16de3342dbb7469261597c565b600654613cf09060a01c60ff16946158658661256a565b60405193849360018060a01b0316968460409194939260ff606083019616825260208201520152565b5081156157a5565b6003549295919392909173__$a9219284c3f0d74f57f4dcfc58f5429559$__916001600160a01b031690823b156100155760405163451cddf960e11b81526001600160a01b03948516600482015295841660248701529683166044860152929091166064840152608483019390935260a482019390935260c48101929092525f90829060e49082905af48015610a725761592d5750565b8061593b5f61109e9361106c565b80610cd7565b60405163adebc2d360e01b60208201526001600160a01b0390911660248201525f60448083019190915281526138759061387060648261106c565b803b156108d9575f806040516020810190638da5cb5b60e01b8252600481526159a660248261106c565b5190845afa6159b361291f565b901580156159f1575b6159ed576159d6816020806159db94518301019101612b47565b610542565b6001600160a01b03811661420e575090565b5090565b5060208151106159bc56fe3bf2de114e2e7636c289f21be023528e47d89b45e873b976c78989c3ddc683f53e38a9410c08ddb4af8b083bfd2b197b1c3e61a651bd1c54c51ebce0cdcdc48ed34312c2e21f45f2b6715cf87d9e919b2098c835582e2b5c6e716490b0dfd0d48be0079c531659141344cd1fd0a4f28419497f9722a3daafe3b4186f6b6457e0ae2f87dbf103db294ddd4ab45caa7a914d70bb3d06eeb8a8dc23e03e84548c8dd34312c2e21f45f2b6715cf87d9e919b2098c835582e2b5c6e716490b0dfd0d5ad3228b676f7d3cd4284a5443f17f1962b36e491b30a40b2405849e597ba5fb5a164736f6c6343000821000abc488d3e2575f0f2113dc4d9a0cd6bc52445c6bc28a8974ed97a6ba3ecfd657c",
  "linkReferences": {
    "project/src/BeamioUserCard/BeamioUserCardFormattingLib.sol": {
      "BeamioUserCardFormattingLib": [
        {
          "length": 20,
          "start": 4029
        }
      ]
    },
    "project/src/BeamioUserCard/BeamioUserCardTransferLib.sol": {
      "BeamioUserCardTransferLib": [
        {
          "length": 20,
          "start": 3616
        },
        {
          "length": 20,
          "start": 15385
        },
        {
          "length": 20,
          "start": 18640
        },
        {
          "length": 20,
          "start": 22764
        },
        {
          "length": 20,
          "start": 23743
        }
      ]
    }
  },
  "deployedLinkReferences": {
    "project/src/BeamioUserCard/BeamioUserCardFormattingLib.sol": {
      "BeamioUserCardFormattingLib": [
        {
          "length": 20,
          "start": 2976
        }
      ]
    },
    "project/src/BeamioUserCard/BeamioUserCardTransferLib.sol": {
      "BeamioUserCardTransferLib": [
        {
          "length": 20,
          "start": 2563
        },
        {
          "length": 20,
          "start": 14332
        },
        {
          "length": 20,
          "start": 17587
        },
        {
          "length": 20,
          "start": 21711
        },
        {
          "length": 20,
          "start": 22690
        }
      ]
    }
  },
  "immutableReferences": {
    "19847": [
      {
        "length": 32,
        "start": 9427
      }
    ]
  },
  "inputSourceName": "project/src/BeamioUserCard/BeamioUserCard.sol",
  "buildInfoId": "solc-0_8_33-7c658400371cdb9697056bc20328dfe52bd6cac1"
}