{
  "_format": "hh3-artifact-1",
  "contractName": "BeamioUserCardFactoryPaymasterV07",
  "sourceName": "src/BeamioUserCard/BeamioUserCardFactoryPaymasterV07.sol",
  "abi": [
    {
      "inputs": [
        {
          "internalType": "address",
          "name": "usdcToken_",
          "type": "address"
        },
        {
          "internalType": "address",
          "name": "redeemModule_",
          "type": "address"
        },
        {
          "internalType": "address",
          "name": "quoteHelper_",
          "type": "address"
        },
        {
          "internalType": "address",
          "name": "deployer_",
          "type": "address"
        },
        {
          "internalType": "address",
          "name": "aaFactory_",
          "type": "address"
        },
        {
          "internalType": "address",
          "name": "initialOwner",
          "type": "address"
        }
      ],
      "stateMutability": "nonpayable",
      "type": "constructor"
    },
    {
      "inputs": [],
      "name": "BM_CallFailed",
      "type": "error"
    },
    {
      "inputs": [],
      "name": "BM_DeployFailed",
      "type": "error"
    },
    {
      "inputs": [
        {
          "internalType": "uint8",
          "name": "step",
          "type": "uint8"
        }
      ],
      "name": "BM_DeployFailedAtStep",
      "type": "error"
    },
    {
      "inputs": [],
      "name": "BM_NotAuthorized",
      "type": "error"
    },
    {
      "inputs": [],
      "name": "BM_ZeroAddress",
      "type": "error"
    },
    {
      "inputs": [],
      "name": "ECDSAInvalidSignature",
      "type": "error"
    },
    {
      "inputs": [
        {
          "internalType": "uint256",
          "name": "length",
          "type": "uint256"
        }
      ],
      "name": "ECDSAInvalidSignatureLength",
      "type": "error"
    },
    {
      "inputs": [
        {
          "internalType": "bytes32",
          "name": "s",
          "type": "bytes32"
        }
      ],
      "name": "ECDSAInvalidSignatureS",
      "type": "error"
    },
    {
      "inputs": [],
      "name": "F_AlreadyRegistered",
      "type": "error"
    },
    {
      "inputs": [],
      "name": "F_BadDeployedCard",
      "type": "error"
    },
    {
      "inputs": [],
      "name": "F_InvalidRedeemHash",
      "type": "error"
    },
    {
      "inputs": [
        {
          "internalType": "address",
          "name": "admin",
          "type": "address"
        }
      ],
      "name": "UC_AdminDepthExceeded",
      "type": "error"
    },
    {
      "inputs": [],
      "name": "UC_AmountZero",
      "type": "error"
    },
    {
      "inputs": [],
      "name": "UC_FaucetNotEnabled",
      "type": "error"
    },
    {
      "inputs": [],
      "name": "UC_InvalidProposal",
      "type": "error"
    },
    {
      "inputs": [
        {
          "internalType": "address",
          "name": "recovered",
          "type": "address"
        },
        {
          "internalType": "address",
          "name": "expected",
          "type": "address"
        }
      ],
      "name": "UC_InvalidSignature",
      "type": "error"
    },
    {
      "inputs": [
        {
          "internalType": "uint256",
          "name": "nowTs",
          "type": "uint256"
        },
        {
          "internalType": "uint256",
          "name": "validAfter",
          "type": "uint256"
        },
        {
          "internalType": "uint256",
          "name": "validBefore",
          "type": "uint256"
        }
      ],
      "name": "UC_InvalidTimeWindow",
      "type": "error"
    },
    {
      "inputs": [
        {
          "internalType": "uint256",
          "name": "tokenId",
          "type": "uint256"
        }
      ],
      "name": "UC_IssuedNftInactive",
      "type": "error"
    },
    {
      "inputs": [],
      "name": "UC_NonceUsed",
      "type": "error"
    },
    {
      "inputs": [],
      "name": "UC_NotAdmin",
      "type": "error"
    },
    {
      "inputs": [],
      "name": "UC_PointsZero",
      "type": "error"
    },
    {
      "inputs": [],
      "name": "UC_PriceZero",
      "type": "error"
    },
    {
      "inputs": [],
      "name": "UC_PurchaseDisabledBecauseFree",
      "type": "error"
    },
    {
      "inputs": [],
      "name": "UC_Slippage",
      "type": "error"
    },
    {
      "inputs": [],
      "name": "UC_TierMinZero",
      "type": "error"
    },
    {
      "anonymous": false,
      "inputs": [
        {
          "indexed": true,
          "internalType": "address",
          "name": "oldFactory",
          "type": "address"
        },
        {
          "indexed": true,
          "internalType": "address",
          "name": "newFactory",
          "type": "address"
        }
      ],
      "name": "AAFactoryChanged",
      "type": "event"
    },
    {
      "anonymous": false,
      "inputs": [
        {
          "indexed": true,
          "internalType": "address",
          "name": "card",
          "type": "address"
        },
        {
          "indexed": true,
          "internalType": "address",
          "name": "adminSigner",
          "type": "address"
        },
        {
          "indexed": false,
          "internalType": "bytes32",
          "name": "nonce",
          "type": "bytes32"
        }
      ],
      "name": "AdminExecuteExecuted",
      "type": "event"
    },
    {
      "anonymous": false,
      "inputs": [
        {
          "indexed": true,
          "internalType": "address",
          "name": "cardOwner",
          "type": "address"
        },
        {
          "indexed": true,
          "internalType": "address",
          "name": "card",
          "type": "address"
        },
        {
          "indexed": false,
          "internalType": "uint8",
          "name": "currency",
          "type": "uint8"
        },
        {
          "indexed": false,
          "internalType": "uint256",
          "name": "priceE18",
          "type": "uint256"
        }
      ],
      "name": "CardDeployed",
      "type": "event"
    },
    {
      "anonymous": false,
      "inputs": [
        {
          "indexed": true,
          "internalType": "address",
          "name": "cardOwner",
          "type": "address"
        },
        {
          "indexed": true,
          "internalType": "address",
          "name": "card",
          "type": "address"
        }
      ],
      "name": "CardRegistered",
      "type": "event"
    },
    {
      "anonymous": false,
      "inputs": [
        {
          "indexed": true,
          "internalType": "address",
          "name": "oldM",
          "type": "address"
        },
        {
          "indexed": true,
          "internalType": "address",
          "name": "newM",
          "type": "address"
        }
      ],
      "name": "DefaultAdminStatsQueryModuleUpdated",
      "type": "event"
    },
    {
      "anonymous": false,
      "inputs": [
        {
          "indexed": true,
          "internalType": "address",
          "name": "oldM",
          "type": "address"
        },
        {
          "indexed": true,
          "internalType": "address",
          "name": "newM",
          "type": "address"
        }
      ],
      "name": "DefaultFaucetModuleUpdated",
      "type": "event"
    },
    {
      "anonymous": false,
      "inputs": [
        {
          "indexed": true,
          "internalType": "address",
          "name": "oldM",
          "type": "address"
        },
        {
          "indexed": true,
          "internalType": "address",
          "name": "newM",
          "type": "address"
        }
      ],
      "name": "DefaultGovernanceModuleUpdated",
      "type": "event"
    },
    {
      "anonymous": false,
      "inputs": [
        {
          "indexed": true,
          "internalType": "address",
          "name": "oldM",
          "type": "address"
        },
        {
          "indexed": true,
          "internalType": "address",
          "name": "newM",
          "type": "address"
        }
      ],
      "name": "DefaultIssuedNftModuleUpdated",
      "type": "event"
    },
    {
      "anonymous": false,
      "inputs": [
        {
          "indexed": true,
          "internalType": "address",
          "name": "oldM",
          "type": "address"
        },
        {
          "indexed": true,
          "internalType": "address",
          "name": "newM",
          "type": "address"
        }
      ],
      "name": "DefaultMembershipStatsModuleUpdated",
      "type": "event"
    },
    {
      "anonymous": false,
      "inputs": [
        {
          "indexed": true,
          "internalType": "address",
          "name": "oldM",
          "type": "address"
        },
        {
          "indexed": true,
          "internalType": "address",
          "name": "newM",
          "type": "address"
        }
      ],
      "name": "DefaultRedeemModuleUpdated",
      "type": "event"
    },
    {
      "anonymous": false,
      "inputs": [
        {
          "indexed": false,
          "internalType": "uint256",
          "name": "initCodeLength",
          "type": "uint256"
        },
        {
          "indexed": false,
          "internalType": "bytes32",
          "name": "initCodeHash",
          "type": "bytes32"
        }
      ],
      "name": "DeployFailedCreateDebug",
      "type": "event"
    },
    {
      "anonymous": false,
      "inputs": [
        {
          "indexed": false,
          "internalType": "uint8",
          "name": "step",
          "type": "uint8"
        }
      ],
      "name": "DeployFailedStep",
      "type": "event"
    },
    {
      "anonymous": false,
      "inputs": [
        {
          "indexed": true,
          "internalType": "address",
          "name": "oldD",
          "type": "address"
        },
        {
          "indexed": true,
          "internalType": "address",
          "name": "newD",
          "type": "address"
        }
      ],
      "name": "DeployerChanged",
      "type": "event"
    },
    {
      "anonymous": false,
      "inputs": [
        {
          "indexed": true,
          "internalType": "address",
          "name": "card",
          "type": "address"
        },
        {
          "indexed": true,
          "internalType": "address",
          "name": "userEOA",
          "type": "address"
        },
        {
          "indexed": true,
          "internalType": "uint256",
          "name": "tokenId",
          "type": "uint256"
        },
        {
          "indexed": false,
          "internalType": "bytes32",
          "name": "nonce",
          "type": "bytes32"
        }
      ],
      "name": "IssuedNftClaimedWithUserSig",
      "type": "event"
    },
    {
      "anonymous": false,
      "inputs": [
        {
          "indexed": true,
          "internalType": "address",
          "name": "card",
          "type": "address"
        },
        {
          "indexed": true,
          "internalType": "address",
          "name": "userEOA",
          "type": "address"
        },
        {
          "indexed": true,
          "internalType": "address",
          "name": "cardOwner",
          "type": "address"
        },
        {
          "indexed": false,
          "internalType": "uint256",
          "name": "tokenId",
          "type": "uint256"
        },
        {
          "indexed": false,
          "internalType": "uint256",
          "name": "amount",
          "type": "uint256"
        },
        {
          "indexed": false,
          "internalType": "uint256",
          "name": "usdcAmount6",
          "type": "uint256"
        },
        {
          "indexed": false,
          "internalType": "bytes32",
          "name": "nonce",
          "type": "bytes32"
        }
      ],
      "name": "IssuedNftPurchasedForUser",
      "type": "event"
    },
    {
      "anonymous": false,
      "inputs": [
        {
          "indexed": false,
          "internalType": "string",
          "name": "oldURI",
          "type": "string"
        },
        {
          "indexed": false,
          "internalType": "string",
          "name": "newURI",
          "type": "string"
        }
      ],
      "name": "MetadataBaseURIUpdated",
      "type": "event"
    },
    {
      "anonymous": false,
      "inputs": [
        {
          "indexed": true,
          "internalType": "address",
          "name": "oldOwner",
          "type": "address"
        },
        {
          "indexed": true,
          "internalType": "address",
          "name": "newOwner",
          "type": "address"
        }
      ],
      "name": "OwnerChanged",
      "type": "event"
    },
    {
      "anonymous": false,
      "inputs": [
        {
          "indexed": true,
          "internalType": "address",
          "name": "account",
          "type": "address"
        },
        {
          "indexed": false,
          "internalType": "bool",
          "name": "allowed",
          "type": "bool"
        }
      ],
      "name": "PaymasterStatusChanged",
      "type": "event"
    },
    {
      "anonymous": false,
      "inputs": [
        {
          "indexed": true,
          "internalType": "address",
          "name": "card",
          "type": "address"
        },
        {
          "indexed": true,
          "internalType": "address",
          "name": "fromEOA",
          "type": "address"
        },
        {
          "indexed": true,
          "internalType": "address",
          "name": "cardOwner",
          "type": "address"
        },
        {
          "indexed": false,
          "internalType": "uint256",
          "name": "usdcAmount6",
          "type": "uint256"
        },
        {
          "indexed": false,
          "internalType": "uint256",
          "name": "pointsOut6",
          "type": "uint256"
        },
        {
          "indexed": false,
          "internalType": "bytes32",
          "name": "nonce",
          "type": "bytes32"
        }
      ],
      "name": "PointsPurchasedForUser",
      "type": "event"
    },
    {
      "anonymous": false,
      "inputs": [
        {
          "indexed": true,
          "internalType": "address",
          "name": "oldH",
          "type": "address"
        },
        {
          "indexed": true,
          "internalType": "address",
          "name": "newH",
          "type": "address"
        }
      ],
      "name": "QuoteHelperChanged",
      "type": "event"
    },
    {
      "anonymous": false,
      "inputs": [
        {
          "indexed": true,
          "internalType": "address",
          "name": "card",
          "type": "address"
        },
        {
          "indexed": true,
          "internalType": "address",
          "name": "user",
          "type": "address"
        },
        {
          "indexed": false,
          "internalType": "bytes32",
          "name": "redeemHash",
          "type": "bytes32"
        }
      ],
      "name": "RedeemExecuted",
      "type": "event"
    },
    {
      "anonymous": false,
      "inputs": [
        {
          "indexed": true,
          "internalType": "address",
          "name": "card",
          "type": "address"
        },
        {
          "indexed": true,
          "internalType": "uint256",
          "name": "id",
          "type": "uint256"
        },
        {
          "indexed": false,
          "internalType": "bool",
          "name": "isNft",
          "type": "bool"
        }
      ],
      "name": "TokenIdIssued",
      "type": "event"
    },
    {
      "inputs": [],
      "name": "CLAIM_ISSUED_NFT_TYPEHASH",
      "outputs": [
        {
          "internalType": "bytes32",
          "name": "",
          "type": "bytes32"
        }
      ],
      "stateMutability": "view",
      "type": "function"
    },
    {
      "inputs": [],
      "name": "CLEAR_ADMIN_MINT_COUNTER_TYPEHASH",
      "outputs": [
        {
          "internalType": "bytes32",
          "name": "",
          "type": "bytes32"
        }
      ],
      "stateMutability": "view",
      "type": "function"
    },
    {
      "inputs": [],
      "name": "DOMAIN_SEPARATOR",
      "outputs": [
        {
          "internalType": "bytes32",
          "name": "",
          "type": "bytes32"
        }
      ],
      "stateMutability": "view",
      "type": "function"
    },
    {
      "inputs": [],
      "name": "EXECUTE_FOR_ADMIN_TYPEHASH",
      "outputs": [
        {
          "internalType": "bytes32",
          "name": "",
          "type": "bytes32"
        }
      ],
      "stateMutability": "view",
      "type": "function"
    },
    {
      "inputs": [],
      "name": "EXECUTE_FOR_OWNER_TYPEHASH",
      "outputs": [
        {
          "internalType": "bytes32",
          "name": "",
          "type": "bytes32"
        }
      ],
      "stateMutability": "view",
      "type": "function"
    },
    {
      "inputs": [],
      "name": "USDC",
      "outputs": [
        {
          "internalType": "address",
          "name": "",
          "type": "address"
        }
      ],
      "stateMutability": "view",
      "type": "function"
    },
    {
      "inputs": [],
      "name": "USDC_TOKEN",
      "outputs": [
        {
          "internalType": "address",
          "name": "",
          "type": "address"
        }
      ],
      "stateMutability": "view",
      "type": "function"
    },
    {
      "inputs": [],
      "name": "_aaFactory",
      "outputs": [
        {
          "internalType": "address",
          "name": "",
          "type": "address"
        }
      ],
      "stateMutability": "view",
      "type": "function"
    },
    {
      "inputs": [],
      "name": "aaFactory",
      "outputs": [
        {
          "internalType": "address",
          "name": "",
          "type": "address"
        }
      ],
      "stateMutability": "view",
      "type": "function"
    },
    {
      "inputs": [
        {
          "internalType": "address",
          "name": "cardAddr",
          "type": "address"
        },
        {
          "internalType": "uint256",
          "name": "minUsdc6",
          "type": "uint256"
        },
        {
          "internalType": "uint256",
          "name": "attr",
          "type": "uint256"
        },
        {
          "internalType": "uint256",
          "name": "tierExpirySeconds",
          "type": "uint256"
        }
      ],
      "name": "appendTierForCard",
      "outputs": [],
      "stateMutability": "nonpayable",
      "type": "function"
    },
    {
      "inputs": [
        {
          "internalType": "address",
          "name": "cardAddr",
          "type": "address"
        },
        {
          "internalType": "uint256",
          "name": "minUsdc6",
          "type": "uint256"
        },
        {
          "internalType": "uint256",
          "name": "attr",
          "type": "uint256"
        },
        {
          "internalType": "uint256",
          "name": "tierExpirySeconds",
          "type": "uint256"
        },
        {
          "internalType": "uint256",
          "name": "deadline",
          "type": "uint256"
        },
        {
          "internalType": "bytes32",
          "name": "nonce",
          "type": "bytes32"
        },
        {
          "internalType": "bytes",
          "name": "ownerSignature",
          "type": "bytes"
        }
      ],
      "name": "appendTierForCardWithOwnerSignature",
      "outputs": [],
      "stateMutability": "nonpayable",
      "type": "function"
    },
    {
      "inputs": [
        {
          "internalType": "address",
          "name": "",
          "type": "address"
        }
      ],
      "name": "beamioUserCardOwner",
      "outputs": [
        {
          "internalType": "address",
          "name": "",
          "type": "address"
        }
      ],
      "stateMutability": "view",
      "type": "function"
    },
    {
      "inputs": [
        {
          "internalType": "address",
          "name": "cardAddr",
          "type": "address"
        },
        {
          "internalType": "address",
          "name": "fromEOA",
          "type": "address"
        },
        {
          "internalType": "uint256",
          "name": "usdcAmount6",
          "type": "uint256"
        },
        {
          "internalType": "uint256",
          "name": "validAfter",
          "type": "uint256"
        },
        {
          "internalType": "uint256",
          "name": "validBefore",
          "type": "uint256"
        },
        {
          "internalType": "bytes32",
          "name": "nonce",
          "type": "bytes32"
        },
        {
          "internalType": "bytes",
          "name": "signature",
          "type": "bytes"
        },
        {
          "internalType": "uint256",
          "name": "minPointsOut6",
          "type": "uint256"
        }
      ],
      "name": "buyPointsForUser",
      "outputs": [
        {
          "internalType": "uint256",
          "name": "pointsOut6",
          "type": "uint256"
        }
      ],
      "stateMutability": "nonpayable",
      "type": "function"
    },
    {
      "inputs": [
        {
          "internalType": "address",
          "name": "cardAddr",
          "type": "address"
        },
        {
          "internalType": "address",
          "name": "fromEOA",
          "type": "address"
        },
        {
          "internalType": "uint256",
          "name": "usdcAmount6",
          "type": "uint256"
        },
        {
          "internalType": "uint256",
          "name": "validAfter",
          "type": "uint256"
        },
        {
          "internalType": "uint256",
          "name": "validBefore",
          "type": "uint256"
        },
        {
          "internalType": "bytes32",
          "name": "nonce",
          "type": "bytes32"
        },
        {
          "internalType": "bytes",
          "name": "signature",
          "type": "bytes"
        },
        {
          "internalType": "uint256",
          "name": "minPointsOut6",
          "type": "uint256"
        },
        {
          "internalType": "address",
          "name": "recommender",
          "type": "address"
        }
      ],
      "name": "buyPointsForUser",
      "outputs": [
        {
          "internalType": "uint256",
          "name": "pointsOut6",
          "type": "uint256"
        }
      ],
      "stateMutability": "nonpayable",
      "type": "function"
    },
    {
      "inputs": [
        {
          "internalType": "address",
          "name": "cardOwner",
          "type": "address"
        }
      ],
      "name": "cardsOfOwner",
      "outputs": [
        {
          "internalType": "address[]",
          "name": "",
          "type": "address[]"
        }
      ],
      "stateMutability": "view",
      "type": "function"
    },
    {
      "inputs": [
        {
          "internalType": "address",
          "name": "a",
          "type": "address"
        },
        {
          "internalType": "bool",
          "name": "ok",
          "type": "bool"
        }
      ],
      "name": "changePaymasterStatus",
      "outputs": [],
      "stateMutability": "nonpayable",
      "type": "function"
    },
    {
      "inputs": [
        {
          "internalType": "address",
          "name": "cardAddr",
          "type": "address"
        },
        {
          "internalType": "address",
          "name": "userEOA",
          "type": "address"
        },
        {
          "internalType": "uint256",
          "name": "tokenId",
          "type": "uint256"
        },
        {
          "internalType": "uint256",
          "name": "deadline",
          "type": "uint256"
        },
        {
          "internalType": "bytes32",
          "name": "nonce",
          "type": "bytes32"
        },
        {
          "internalType": "bytes",
          "name": "userSignature",
          "type": "bytes"
        }
      ],
      "name": "claimIssuedNftWithUserSig",
      "outputs": [],
      "stateMutability": "nonpayable",
      "type": "function"
    },
    {
      "inputs": [
        {
          "internalType": "address",
          "name": "cardOwner",
          "type": "address"
        },
        {
          "internalType": "uint8",
          "name": "currency",
          "type": "uint8"
        },
        {
          "internalType": "uint256",
          "name": "priceInCurrencyE6",
          "type": "uint256"
        },
        {
          "internalType": "bytes",
          "name": "initCode",
          "type": "bytes"
        }
      ],
      "name": "createCardCollectionWithInitCode",
      "outputs": [
        {
          "internalType": "address",
          "name": "card",
          "type": "address"
        }
      ],
      "stateMutability": "nonpayable",
      "type": "function"
    },
    {
      "inputs": [
        {
          "internalType": "address",
          "name": "cardOwner",
          "type": "address"
        },
        {
          "internalType": "uint8",
          "name": "currency",
          "type": "uint8"
        },
        {
          "internalType": "uint256",
          "name": "priceInCurrencyE6",
          "type": "uint256"
        },
        {
          "internalType": "bytes",
          "name": "initCode",
          "type": "bytes"
        },
        {
          "components": [
            {
              "internalType": "uint256",
              "name": "minUsdc6",
              "type": "uint256"
            },
            {
              "internalType": "uint256",
              "name": "attr",
              "type": "uint256"
            },
            {
              "internalType": "uint256",
              "name": "tierExpirySeconds",
              "type": "uint256"
            }
          ],
          "internalType": "struct Tier[]",
          "name": "tiers",
          "type": "tuple[]"
        }
      ],
      "name": "createCardCollectionWithInitCodeAndTiers",
      "outputs": [
        {
          "internalType": "address",
          "name": "card",
          "type": "address"
        }
      ],
      "stateMutability": "nonpayable",
      "type": "function"
    },
    {
      "inputs": [],
      "name": "defaultAdminStatsQueryModule",
      "outputs": [
        {
          "internalType": "address",
          "name": "",
          "type": "address"
        }
      ],
      "stateMutability": "view",
      "type": "function"
    },
    {
      "inputs": [],
      "name": "defaultFaucetModule",
      "outputs": [
        {
          "internalType": "address",
          "name": "",
          "type": "address"
        }
      ],
      "stateMutability": "view",
      "type": "function"
    },
    {
      "inputs": [],
      "name": "defaultGovernanceModule",
      "outputs": [
        {
          "internalType": "address",
          "name": "",
          "type": "address"
        }
      ],
      "stateMutability": "view",
      "type": "function"
    },
    {
      "inputs": [],
      "name": "defaultIssuedNftModule",
      "outputs": [
        {
          "internalType": "address",
          "name": "",
          "type": "address"
        }
      ],
      "stateMutability": "view",
      "type": "function"
    },
    {
      "inputs": [],
      "name": "defaultMembershipStatsModule",
      "outputs": [
        {
          "internalType": "address",
          "name": "",
          "type": "address"
        }
      ],
      "stateMutability": "view",
      "type": "function"
    },
    {
      "inputs": [],
      "name": "defaultRedeemModule",
      "outputs": [
        {
          "internalType": "address",
          "name": "",
          "type": "address"
        }
      ],
      "stateMutability": "view",
      "type": "function"
    },
    {
      "inputs": [],
      "name": "deployer",
      "outputs": [
        {
          "internalType": "address",
          "name": "",
          "type": "address"
        }
      ],
      "stateMutability": "view",
      "type": "function"
    },
    {
      "inputs": [
        {
          "internalType": "address",
          "name": "cardAddr",
          "type": "address"
        },
        {
          "internalType": "address",
          "name": "subordinate",
          "type": "address"
        },
        {
          "internalType": "uint256",
          "name": "deadline",
          "type": "uint256"
        },
        {
          "internalType": "bytes32",
          "name": "nonce",
          "type": "bytes32"
        },
        {
          "internalType": "bytes",
          "name": "adminSignature",
          "type": "bytes"
        }
      ],
      "name": "executeClearAdminMintCounter",
      "outputs": [],
      "stateMutability": "nonpayable",
      "type": "function"
    },
    {
      "inputs": [
        {
          "internalType": "address",
          "name": "cardAddr",
          "type": "address"
        },
        {
          "internalType": "bytes",
          "name": "data",
          "type": "bytes"
        },
        {
          "internalType": "uint256",
          "name": "deadline",
          "type": "uint256"
        },
        {
          "internalType": "bytes32",
          "name": "nonce",
          "type": "bytes32"
        },
        {
          "internalType": "bytes",
          "name": "adminSignature",
          "type": "bytes"
        }
      ],
      "name": "executeForAdmin",
      "outputs": [],
      "stateMutability": "nonpayable",
      "type": "function"
    },
    {
      "inputs": [
        {
          "internalType": "address",
          "name": "cardAddr",
          "type": "address"
        },
        {
          "internalType": "bytes",
          "name": "data",
          "type": "bytes"
        },
        {
          "internalType": "uint256",
          "name": "deadline",
          "type": "uint256"
        },
        {
          "internalType": "bytes32",
          "name": "nonce",
          "type": "bytes32"
        },
        {
          "internalType": "bytes",
          "name": "ownerSignature",
          "type": "bytes"
        }
      ],
      "name": "executeForOwner",
      "outputs": [],
      "stateMutability": "nonpayable",
      "type": "function"
    },
    {
      "inputs": [
        {
          "internalType": "address",
          "name": "card",
          "type": "address"
        }
      ],
      "name": "isBeamioUserCard",
      "outputs": [
        {
          "internalType": "bool",
          "name": "",
          "type": "bool"
        }
      ],
      "stateMutability": "view",
      "type": "function"
    },
    {
      "inputs": [
        {
          "internalType": "address",
          "name": "",
          "type": "address"
        },
        {
          "internalType": "address",
          "name": "",
          "type": "address"
        }
      ],
      "name": "isCardOfOwner",
      "outputs": [
        {
          "internalType": "bool",
          "name": "",
          "type": "bool"
        }
      ],
      "stateMutability": "view",
      "type": "function"
    },
    {
      "inputs": [
        {
          "internalType": "address",
          "name": "",
          "type": "address"
        }
      ],
      "name": "isPaymaster",
      "outputs": [
        {
          "internalType": "bool",
          "name": "",
          "type": "bool"
        }
      ],
      "stateMutability": "view",
      "type": "function"
    },
    {
      "inputs": [
        {
          "internalType": "address",
          "name": "card",
          "type": "address"
        },
        {
          "internalType": "uint256",
          "name": "id",
          "type": "uint256"
        }
      ],
      "name": "isTokenIdIssued",
      "outputs": [
        {
          "internalType": "bool",
          "name": "",
          "type": "bool"
        }
      ],
      "stateMutability": "view",
      "type": "function"
    },
    {
      "inputs": [
        {
          "internalType": "address",
          "name": "card",
          "type": "address"
        },
        {
          "internalType": "bool",
          "name": "isNft",
          "type": "bool"
        }
      ],
      "name": "issueTokenId",
      "outputs": [
        {
          "internalType": "uint256",
          "name": "id",
          "type": "uint256"
        }
      ],
      "stateMutability": "nonpayable",
      "type": "function"
    },
    {
      "inputs": [
        {
          "internalType": "address",
          "name": "cardOwner",
          "type": "address"
        }
      ],
      "name": "latestCardOfOwner",
      "outputs": [
        {
          "internalType": "address",
          "name": "",
          "type": "address"
        }
      ],
      "stateMutability": "view",
      "type": "function"
    },
    {
      "inputs": [],
      "name": "metadataBaseURI",
      "outputs": [
        {
          "internalType": "string",
          "name": "",
          "type": "string"
        }
      ],
      "stateMutability": "view",
      "type": "function"
    },
    {
      "inputs": [],
      "name": "nextFungibleId",
      "outputs": [
        {
          "internalType": "uint256",
          "name": "",
          "type": "uint256"
        }
      ],
      "stateMutability": "view",
      "type": "function"
    },
    {
      "inputs": [],
      "name": "nextNftId",
      "outputs": [
        {
          "internalType": "uint256",
          "name": "",
          "type": "uint256"
        }
      ],
      "stateMutability": "view",
      "type": "function"
    },
    {
      "inputs": [],
      "name": "owner",
      "outputs": [
        {
          "internalType": "address",
          "name": "",
          "type": "address"
        }
      ],
      "stateMutability": "view",
      "type": "function"
    },
    {
      "inputs": [
        {
          "internalType": "address",
          "name": "cardAddr",
          "type": "address"
        },
        {
          "internalType": "address",
          "name": "userEOA",
          "type": "address"
        },
        {
          "internalType": "uint256",
          "name": "id",
          "type": "uint256"
        },
        {
          "internalType": "uint256",
          "name": "amount6",
          "type": "uint256"
        },
        {
          "internalType": "uint256",
          "name": "validAfter",
          "type": "uint256"
        },
        {
          "internalType": "uint256",
          "name": "validBefore",
          "type": "uint256"
        },
        {
          "internalType": "bytes32",
          "name": "nonce",
          "type": "bytes32"
        },
        {
          "internalType": "bytes",
          "name": "signature",
          "type": "bytes"
        }
      ],
      "name": "purchaseFaucetForUser",
      "outputs": [],
      "stateMutability": "nonpayable",
      "type": "function"
    },
    {
      "inputs": [
        {
          "internalType": "address",
          "name": "cardAddr",
          "type": "address"
        },
        {
          "internalType": "address",
          "name": "userEOA",
          "type": "address"
        },
        {
          "internalType": "uint256",
          "name": "tokenId",
          "type": "uint256"
        },
        {
          "internalType": "uint256",
          "name": "amount",
          "type": "uint256"
        },
        {
          "internalType": "uint256",
          "name": "validAfter",
          "type": "uint256"
        },
        {
          "internalType": "uint256",
          "name": "validBefore",
          "type": "uint256"
        },
        {
          "internalType": "bytes32",
          "name": "nonce",
          "type": "bytes32"
        },
        {
          "internalType": "bytes",
          "name": "signature",
          "type": "bytes"
        }
      ],
      "name": "purchaseIssuedNftForUser",
      "outputs": [],
      "stateMutability": "nonpayable",
      "type": "function"
    },
    {
      "inputs": [
        {
          "internalType": "uint8",
          "name": "cur",
          "type": "uint8"
        },
        {
          "internalType": "uint256",
          "name": "amount6",
          "type": "uint256"
        }
      ],
      "name": "quoteCurrencyAmountInUSDC6",
      "outputs": [
        {
          "internalType": "uint256",
          "name": "",
          "type": "uint256"
        }
      ],
      "stateMutability": "view",
      "type": "function"
    },
    {
      "inputs": [],
      "name": "quoteHelper",
      "outputs": [
        {
          "internalType": "address",
          "name": "",
          "type": "address"
        }
      ],
      "stateMutability": "view",
      "type": "function"
    },
    {
      "inputs": [
        {
          "internalType": "address",
          "name": "card",
          "type": "address"
        }
      ],
      "name": "quoteUnitPointInUSDC6",
      "outputs": [
        {
          "internalType": "uint256",
          "name": "",
          "type": "uint256"
        }
      ],
      "stateMutability": "view",
      "type": "function"
    },
    {
      "inputs": [
        {
          "internalType": "address",
          "name": "cardAddr",
          "type": "address"
        },
        {
          "internalType": "string",
          "name": "code",
          "type": "string"
        },
        {
          "internalType": "address",
          "name": "to",
          "type": "address"
        }
      ],
      "name": "redeemAdminForUser",
      "outputs": [],
      "stateMutability": "nonpayable",
      "type": "function"
    },
    {
      "inputs": [
        {
          "internalType": "address",
          "name": "cardAddr",
          "type": "address"
        },
        {
          "internalType": "string[]",
          "name": "codes",
          "type": "string[]"
        },
        {
          "internalType": "address",
          "name": "userEOA",
          "type": "address"
        }
      ],
      "name": "redeemBatchForUser",
      "outputs": [],
      "stateMutability": "nonpayable",
      "type": "function"
    },
    {
      "inputs": [
        {
          "internalType": "address",
          "name": "cardAddr",
          "type": "address"
        },
        {
          "internalType": "string",
          "name": "code",
          "type": "string"
        },
        {
          "internalType": "address",
          "name": "userEOA",
          "type": "address"
        }
      ],
      "name": "redeemForUser",
      "outputs": [],
      "stateMutability": "nonpayable",
      "type": "function"
    },
    {
      "inputs": [
        {
          "internalType": "address",
          "name": "cardAddr",
          "type": "address"
        },
        {
          "internalType": "string",
          "name": "code",
          "type": "string"
        },
        {
          "internalType": "address",
          "name": "userEOA",
          "type": "address"
        }
      ],
      "name": "redeemPoolForUser",
      "outputs": [],
      "stateMutability": "nonpayable",
      "type": "function"
    },
    {
      "inputs": [
        {
          "internalType": "address",
          "name": "cardOwner",
          "type": "address"
        },
        {
          "internalType": "address",
          "name": "card",
          "type": "address"
        }
      ],
      "name": "registerExistingCard",
      "outputs": [],
      "stateMutability": "nonpayable",
      "type": "function"
    },
    {
      "inputs": [
        {
          "internalType": "address",
          "name": "f",
          "type": "address"
        }
      ],
      "name": "setAAFactory",
      "outputs": [],
      "stateMutability": "nonpayable",
      "type": "function"
    },
    {
      "inputs": [
        {
          "internalType": "address",
          "name": "m",
          "type": "address"
        }
      ],
      "name": "setAdminStatsQueryModule",
      "outputs": [],
      "stateMutability": "nonpayable",
      "type": "function"
    },
    {
      "inputs": [
        {
          "internalType": "address",
          "name": "d",
          "type": "address"
        }
      ],
      "name": "setDeployer",
      "outputs": [],
      "stateMutability": "nonpayable",
      "type": "function"
    },
    {
      "inputs": [
        {
          "internalType": "address",
          "name": "m",
          "type": "address"
        }
      ],
      "name": "setFaucetModule",
      "outputs": [],
      "stateMutability": "nonpayable",
      "type": "function"
    },
    {
      "inputs": [
        {
          "internalType": "address",
          "name": "m",
          "type": "address"
        }
      ],
      "name": "setGovernanceModule",
      "outputs": [],
      "stateMutability": "nonpayable",
      "type": "function"
    },
    {
      "inputs": [
        {
          "internalType": "address",
          "name": "m",
          "type": "address"
        }
      ],
      "name": "setIssuedNftModule",
      "outputs": [],
      "stateMutability": "nonpayable",
      "type": "function"
    },
    {
      "inputs": [
        {
          "internalType": "address",
          "name": "m",
          "type": "address"
        }
      ],
      "name": "setMembershipStatsModule",
      "outputs": [],
      "stateMutability": "nonpayable",
      "type": "function"
    },
    {
      "inputs": [
        {
          "internalType": "string",
          "name": "newBaseURI",
          "type": "string"
        }
      ],
      "name": "setMetadataBaseURI",
      "outputs": [],
      "stateMutability": "nonpayable",
      "type": "function"
    },
    {
      "inputs": [
        {
          "internalType": "address",
          "name": "h",
          "type": "address"
        }
      ],
      "name": "setQuoteHelper",
      "outputs": [],
      "stateMutability": "nonpayable",
      "type": "function"
    },
    {
      "inputs": [
        {
          "internalType": "address",
          "name": "m",
          "type": "address"
        }
      ],
      "name": "setRedeemModule",
      "outputs": [],
      "stateMutability": "nonpayable",
      "type": "function"
    },
    {
      "inputs": [
        {
          "internalType": "address",
          "name": "",
          "type": "address"
        },
        {
          "internalType": "uint256",
          "name": "",
          "type": "uint256"
        }
      ],
      "name": "tokenIdIssued",
      "outputs": [
        {
          "internalType": "bool",
          "name": "",
          "type": "bool"
        }
      ],
      "stateMutability": "view",
      "type": "function"
    },
    {
      "inputs": [
        {
          "internalType": "address",
          "name": "newOwner",
          "type": "address"
        }
      ],
      "name": "transferOwner",
      "outputs": [],
      "stateMutability": "nonpayable",
      "type": "function"
    },
    {
      "inputs": [
        {
          "internalType": "bytes32",
          "name": "",
          "type": "bytes32"
        }
      ],
      "name": "usedAdminExecuteNonces",
      "outputs": [
        {
          "internalType": "bool",
          "name": "",
          "type": "bool"
        }
      ],
      "stateMutability": "view",
      "type": "function"
    },
    {
      "inputs": [
        {
          "internalType": "bytes32",
          "name": "",
          "type": "bytes32"
        }
      ],
      "name": "usedClearAdminMintCounterNonces",
      "outputs": [
        {
          "internalType": "bool",
          "name": "",
          "type": "bool"
        }
      ],
      "stateMutability": "view",
      "type": "function"
    },
    {
      "inputs": [
        {
          "internalType": "bytes32",
          "name": "",
          "type": "bytes32"
        }
      ],
      "name": "usedIssuedNftClaimSigNonces",
      "outputs": [
        {
          "internalType": "bool",
          "name": "",
          "type": "bool"
        }
      ],
      "stateMutability": "view",
      "type": "function"
    },
    {
      "inputs": [
        {
          "internalType": "bytes32",
          "name": "",
          "type": "bytes32"
        }
      ],
      "name": "usedOwnerExecuteNonces",
      "outputs": [
        {
          "internalType": "bool",
          "name": "",
          "type": "bool"
        }
      ],
      "stateMutability": "view",
      "type": "function"
    }
  ],
  "bytecode": "0x60c080604052346102d25760c081615d1a803803809161001f82856102d6565b8339810103126102d2576100328161030d565b61003e6020830161030d565b61004a6040840161030d565b906100576060850161030d565b9261007060a06100696080880161030d565b960161030d565b906001600160a01b0381161580156102c1575b80156102b0575b801561029f575b801561028e575b801561027d575b61026e576080525f80546001600160a01b03199081166001600160a01b039384169081178355825260016020819052604092839020805460ff191682179055600280548316958516958617905560038054831686179055600480548316861790556005805483168617905560068054831690951790945560078054821690556008805482169584169590951790945560098054851695831695909517909455600b80549093169416939093179055600c919091556064600d5580519061016590826102d6565b601581527f4265616d696f5573657243617264466163746f72790000000000000000000000602090910152604080517fb77f4f874d464e6b89d928e63195f8e6a3efa6ad7d73e629a7033d854b4099b9916101c090826102d6565b600181526020810190603160f81b82525190206040519060208201927f8b73c3c69bb8fe3d512ecc4cf759cc79239f7b179b0ffacaa9a75d522b39400f8452604083015260608201524660808201523060a082015260a0815261022460c0826102d6565b51902060a0526040516159f89081610322823960805181818161065f01528181611745015281816119ea01528181613e25015261411f015260a051818181610cb60152610f200152f35b63a9b8048960e01b5f5260045ffd5b506001600160a01b0382161561009f565b506001600160a01b03861615610098565b506001600160a01b03851615610091565b506001600160a01b0384161561008a565b506001600160a01b03831615610083565b5f80fd5b601f909101601f19168101906001600160401b038211908210176102f957604052565b634e487b7160e01b5f52604160045260245ffd5b51906001600160a01b03821682036102d25756fe60806040526004361015610011575f80fd5b5f3560e01c80630562f3e714610415578063058c71e6146104105780630895a8601461037a5780630c3c5d001461040b5780630e1398b9146104065780630e832513146102f85780631d4d9cf7146104015780632590b4f6146103fc57806331a04f1d146103f75780633644e515146103f25780633650ec85146103ed57806337f71dfd146103e857806339a8886d146103e35780633cc29bb3146103de5780633d8807f8146103d9578063409826d3146103d457806349c20cf2146103cf5780634a058fce146103ca5780634f11ef12146103c55780634fb2e45d146103c057806356bceaf6146103bb5780636eb30f65146103b657806371326e55146103b15780637264becd146103ac5780637b422f39146103a7578063803efb8a146103a257806389a30271146103025780638d0c57861461039d5780638da5cb5b1461039857806393f1da4f14610393578063962147351461038e5780639688856f1461038957806396964e0b146103845780639858d8241461037f57806398e1e9441461037a5780639a7eb0f0146103755780639c0efbda146103705780639f3d1a2a1461036b578063a2d5b9c814610366578063a3d64fc314610361578063ac68fc001461035c578063b2592cf714610357578063b8f2165914610352578063bdce71aa1461034d578063c1cfc34a14610348578063c374a7a914610343578063c60cfbd21461033e578063cc7dcbe814610339578063ce85715d14610334578063ce9fb0241461032f578063d5f394881461032a578063d68a7bf714610325578063dcc96a3414610320578063dd16dfdc1461031b578063deaefff214610316578063e83492d114610311578063e8e351131461030c578063ef75909514610307578063fa56927414610302578063fa957c2e146102fd578063fb3894d3146102f8578063fb94bd8a146102f3578063fc8cbfec146102ee578063fd722edb146102e95763ff391567146102e4575f80fd5b61345c565b61342d565b6133fe565b61329c565b610a04565b61321d565b6119d5565b613195565b613121565b61298c565b61290d565b61288e565b61280f565b61268c565b612635565b612354565b61232c565b61215b565b6120da565b612051565b611ff9565b611f6f565b611f48565b611ecd565b611e90565b611d73565b611d21565b611cf2565b611ca6565b611bfc565b6108e1565b611bb1565b611b32565b611b0b565b611a8c565b611a6f565b611a48565b611a19565b611992565b61191d565b6115cf565b611550565b611529565b611501565b61148a565b611392565b61136a565b611342565b6112fd565b611273565b611214565b6110ad565b610f6a565b610f43565b610f09565b610eda565b610b7d565b610a2c565b610985565b61095d565b61084d565b6104c6565b6001600160a01b031690565b6001600160a01b0381160361043757565b5f80fd5b9181601f84011215610437578235916001600160401b038311610437576020838186019501011161043757565b906101006003198301126104375760043561048281610426565b9160243561048f81610426565b9160443591606435916084359160a4359160c4359160e435906001600160401b038211610437576104c29160040161043b565b9091565b34610437576104d436610468565b929060018060a09a97989a1b035f541633148015610837575b156107ff576001600160a01b038816156107b0576001600160a01b03861695861590811561082d575b506107b057604051635378561960e01b81526020816004818a5afa908115610717575f9161080e575b50306001600160a01b03909116036107ff5786156107f057604051638da5cb5b60e01b8152906020826004818a5afa918215610717575f926107bf575b506001600160a01b038216156107b0576040516327d23eb360e21b8152600481018b905293610100856024818b5afa948515610717575f9561077f575b506105ce6105ca6080870151151590565b1590565b6107705760e0850180516001600160801b031615610761576106499561062e60a061062561061c8e61061761060b6020985160018060801b031690565b6001600160801b031690565b613691565b620f4240900490565b92015160ff1690565b60405163145ab73960e31b81529788928392600484016136d1565b0381305afa948515610717575f95610730575b507f00000000000000000000000000000000000000000000000000000000000000006001600160a01b031693843b15610437575f9687938c936106b6936040519b8c9a8b998a9863cf09299560e01b8a5260048a01613706565b03925af180156107175761071c575b50803b15610437576106f1935f809460405196879586948593636465c3a760e01b85526004850161374b565b03925af180156107175761070157005b8061070f5f61071593613543565b8061092f565b005b61357b565b8061070f5f61072a93613543565b5f6106c5565b61075391955060203d60201161075a575b61074b8183613543565b8101906136c2565b935f61065c565b503d610741565b63225426e360e01b5f5260045ffd5b63ab6138a560e01b5f5260045ffd5b6107a29195506101003d81116107a9575b61079a8183613543565b8101906135c6565b935f6105b9565b503d610790565b63a9b8048960e01b5f5260045ffd5b6107e291925060203d6020116107e9575b6107da8183613543565b810190613566565b905f61057c565b503d6107d0565b63201165f360e21b5f5260045ffd5b630fc5e1ab60e41b5f5260045ffd5b610827915060203d6020116107e9576107da8183613543565b5f61053f565b90503b155f610516565b50335f52600160205260ff60405f2054166104ed565b346104375760203660031901126104375760043561086a81610426565b5f546001600160a01b031633036107ff576001600160a01b031680156107b057600654816001600160a01b0382167f68c2faaf0ebfd42d2518b6fbf5130982e7ad496f58df6975a54886e81d5a084b5f80a36001600160a01b03191617600655005b9060018060a01b03165f5260205260405f2090565b34610437576040366003190112610437576004356108fe81610426565b6024359060018060a01b03165f52600e60205260405f20905f52602052602060ff60405f2054166040519015158152f35b5f91031261043757565b6001600160a01b0316600452602490565b6001600160a01b03909116815260200190565b34610437575f366003190112610437576002546040516001600160a01b039091168152602090f35b34610437576020366003190112610437576004356109a281610426565b5f546001600160a01b031633036107ff576001600160a01b031680156107b057600854816001600160a01b0382167feb7103e1b7fa12591abe0ba2fb5df1720e3786a45a1684846043c1b7dcfcb9c75f80a36001600160a01b03191617600855005b34610437575f36600319011261043757600b546040516001600160a01b039091168152602090f35b3461043757602036600319011261043757600435610a4981610426565b60018060a01b0316610a67610a62610a6260085461041a565b61041a565b60405163e5a6b10f60e01b815290602082600481865afa918215610717575f92610b4a575b5060208293610a9c600494613795565b604051634dda221560e01b815293849182905afa90811561071757610ae2936020935f93610b2b575b5060405180958194829363577e933760e11b8452600484016136d1565b03915afa801561071757610b08915f91610b0c575b506040519081529081906020820190565b0390f35b610b25915060203d60201161075a5761074b8183613543565b5f610af7565b610b43919350843d861161075a5761074b8183613543565b915f610ac5565b60049250610b6f602091823d8411610b76575b610b678183613543565b810190613769565b9250610a8c565b503d610b5d565b346104375760a036600319011261043757600435610b9a81610426565b602435610ba681610426565b60443591606435906084356001600160401b03811161043757610bcd90369060040161043b565b5f546001600160a01b031633148015610ec4575b156107ff576001600160a01b0383169586158015610ebb575b6107b0576001600160a01b038616156107b057804211610ea757604051635378561960e01b81526020816004818b5afa908115610717575f91610e88575b50306001600160a01b03909116036107ff57604080515f5160206158cc5f395f51905f52602082019081526001600160a01b03808816938301939093529188166060820152608081019290925260a08201869052610d0093610cfa929091610cf291610cb18160c081015b03601f198101835282613543565b5190207f00000000000000000000000000000000000000000000000000000000000000006042916040519161190160f01b8352600283015260228201522090565b9236916137ce565b90614527565b916040516249dd0960e81b815260208180610d1e886004830161094a565b0381895afa908115610717575f91610e69575b506001600160a01b03168015610e5a576001600160a01b03841603610e5a576040516249dd0960e81b815260208180610d6d876004830161094a565b0381895afa908115610717575f91610e3b575b506001600160a01b0316610e2557610da7610ca39160405192839187602084019687613804565b519020610dc6610dbf825f52601560205260405f2090565b5460ff1690565b610e1657610ddf610dec915f52601560205260405f2090565b805460ff19166001179055565b823b15610437576106f1925f9283604051809681958294632aff2a5960e01b84526004840161383d565b637b7fc77160e01b5f5260045ffd5b636a57bcd560e11b5f52610e3883610939565b5ffd5b610e54915060203d6020116107e9576107da8183613543565b5f610d80565b6363bc5ecb60e11b5f5260045ffd5b610e82915060203d6020116107e9576107da8183613543565b5f610d31565b610ea1915060203d6020116107e9576107da8183613543565b5f610c38565b631f1183ed60e31b5f52610e3890426137a4565b50833b15610bfa565b50335f52600160205260ff60405f205416610be1565b34610437576020366003190112610437576004355f526012602052602060ff60405f2054166040519015158152f35b34610437575f3660031901126104375760206040517f00000000000000000000000000000000000000000000000000000000000000008152f35b34610437575f3660031901126104375760206040515f5160206158cc5f395f51905f528152f35b3461043757608036600319011261043757600435610f8781610426565b602435604435916064359060018060a01b035f54163314801561104e575b156107ff576001600160a01b038116908115908115611044575b506107b057604051635378561960e01b8152602081600481855afa908115610717575f91611025575b50306001600160a01b03909116036107ff57803b15610437576106f1935f809460405196879586948593638abc9b2560e01b855260048501613857565b61103e915060203d6020116107e9576107da8183613543565b5f610fe8565b90503b155f610fbf565b50335f52600160205260ff60405f205416610fa5565b9060606003198301126104375760043561107d81610426565b91602435906001600160401b0382116104375761109c9160040161043b565b90916044356110aa81610426565b90565b34610437576110bb36611064565b5f549293926001600160a01b0316331480156111fe575b156107ff576001600160a01b0381169384156107b0576001600160a01b0384169384159081156111f4575b506107b057604051635378561960e01b8152602081600481885afa908115610717575f916111d5575b50306001600160a01b03909116036107ff5782156111c657833b15610437575f6111669260405180948192637cc37b3b60e11b835287866004850161386d565b038183885af1908115610717575f5160206159cc5f395f51905f52936111ad93611197936111b2575b5036916137ce565b8051602091820120604051908152918291820190565b0390a3005b8061070f5f6111c093613543565b5f61118f565b63411581df60e11b5f5260045ffd5b6111ee915060203d6020116107e9576107da8183613543565b5f611126565b90503b155f6110fd565b50335f52600160205260ff60405f2054166110d2565b34610437575f366003190112610437576020600c54604051908152f35b60206040818301928281528451809452019201905f5b8181106112545750505090565b82516001600160a01b0316845260209384019390920191600101611247565b346104375760203660031901126104375760043561129081610426565b60018060a01b03165f52600f60205260405f206040519081602082549182815201915f5260205f20905f5b8181106112de57610b08856112d281870382613543565b60405191829182611231565b82546001600160a01b03168452602090930192600192830192016112bb565b346104375760203660031901126104375760043561131a81610426565b60018060a01b03165f526011602052602060018060a01b0360405f2054161515604051908152f35b34610437575f366003190112610437576006546040516001600160a01b039091168152602090f35b34610437575f366003190112610437576005546040516001600160a01b039091168152602090f35b34610437576113a036611064565b5f549293926001600160a01b031633148015611474575b156107ff576001600160a01b0381169384156107b0576001600160a01b03841693841590811561146a575b506107b057604051635378561960e01b8152602081600481885afa908115610717575f9161144b575b50306001600160a01b03909116036107ff5782156111c657833b15610437575f61116692604051809481926371b8982f60e01b835287866004850161386d565b611464915060203d6020116107e9576107da8183613543565b5f61140b565b90503b155f6113e2565b50335f52600160205260ff60405f2054166113b7565b34610437576020366003190112610437576004356114a781610426565b5f546001600160a01b03811691338390036107ff576001600160a01b03169182156107b05782907fb532073b38c83145e3e5135377a08bf9aab55bc0fd7c1179cd4fb995d2a5159c5f80a36001600160a01b031916175f55005b34610437575f366003190112610437576004546040516001600160a01b039091168152602090f35b34610437575f3660031901126104375760206040515f51602061594c5f395f51905f528152f35b346104375760203660031901126104375760043561156d81610426565b5f546001600160a01b031633036107ff576001600160a01b031680156107b057600454816001600160a01b0382167f604f85697fb330a944d96c7ccaa0cc8e84f90ae4e43e07c4fb7a17614c1aa2755f80a36001600160a01b03191617600455005b34610437576115dd36610468565b9795929190969360018060a01b035f541633148015611907575b156107ff576001600160a01b0385169788156107b0576001600160a01b0388169788159081156118fd575b506107b057604051635378561960e01b81526020816004818c5afa908115610717575f916118de575b50306001600160a01b03909116036107ff5786156107f057604051638da5cb5b60e01b8152936020856004818c5afa948515610717575f956118bd575b506001600160a01b0385169a8b156107b057604051633c703d4560e01b8152600481018890526020816024818e5afa908115610717575f9161189e575b508015610761576116d6908a613691565b60405163e5a6b10f60e01b81529096906020816004818f5afa97881561071757611729986020925f91611881575b5061170e81613795565b60405163145ab73960e31b8152998a928392600484016136d1565b0381305afa968715610717575f97611860575b5086156107f0577f00000000000000000000000000000000000000000000000000000000000000006001600160a01b031691823b15610437578961179e5f969287938a8c986040519b8c9a8b998a9863cf09299560e01b8a5260048a01613706565b03925af180156107175761184c575b50853b15610437575f8386956117d760405198899384936311d794fb60e21b85526004850161374b565b0381838a5af1918215610717577f46153b28e9a3688aede6f2c4c60c8d2cd1e2181b36e413211bf9134a7b1959969561183393611838575b50604051948594859094939260609260808301968352602083015260408201520152565b0390a4005b8061070f5f61184693613543565b5f61180f565b8061070f5f61185a93613543565b5f6117ad565b61187a91975060203d60201161075a5761074b8183613543565b955f61173c565b6118989150833d8511610b7657610b678183613543565b5f611704565b6118b7915060203d60201161075a5761074b8183613543565b5f6116c5565b6118d791955060203d6020116107e9576107da8183613543565b935f611688565b6118f7915060203d6020116107e9576107da8183613543565b5f61164b565b90503b155f611622565b50335f52600160205260ff60405f2054166115f7565b346104375760603660031901126104375760043561193a81610426565b6024356001600160401b03811161043757366023820112156104375760048101356001600160401b038111610437573660248260051b84010111610437576107159260246044359361198b85610426565b0190613896565b34610437576020366003190112610437576004356119af81610426565b60018060a01b03165f526011602052602060018060a01b0360405f205416604051908152f35b34610437575f366003190112610437576040517f00000000000000000000000000000000000000000000000000000000000000006001600160a01b03168152602090f35b34610437576020366003190112610437576004355f526015602052602060ff60405f2054166040519015158152f35b34610437575f366003190112610437575f546040516001600160a01b039091168152602090f35b34610437575f366003190112610437576020600d54604051908152f35b3461043757602036600319011261043757600435611aa981610426565b5f546001600160a01b031633036107ff576001600160a01b031680156107b057600954816001600160a01b0382167fb425bf30023a30c35ee17f3f416360da7ea96a46b589cfa6a14f39dc98a52bca5f80a36001600160a01b03191617600955005b34610437575f3660031901126104375760206040515f51602061592c5f395f51905f528152f35b3461043757602036600319011261043757600435611b4f81610426565b5f546001600160a01b031633036107ff576001600160a01b031680156107b057600754816001600160a01b0382167faef56aa2dfc2ea6be1a594657b24cdaed49e90855b6510f3880a4fafffd825f15f80a36001600160a01b03191617600755005b3461043757602036600319011261043757600435611bce81610426565b60018060a01b03165f526001602052602060ff60405f2054166040519015158152f35b60ff81160361043757565b346104375760a036600319011261043757600435611c1981610426565b60243590611c2682611bf1565b6044356064356001600160401b03811161043757611c4890369060040161043b565b60843593916001600160401b0385116104375736602386011215610437576004850135936001600160401b03851161043757366024606087028801011161043757610b08966024611c9a970194613ae4565b6040519182918261094a565b34610437575f366003190112610437576007546040516001600160a01b039091168152602090f35b805180835260209291819084018484015e5f828201840152601f01601f1916010190565b34610437575f36600319011261043757610b08611d0d613c56565b604051918291602083526020830190611cce565b3461043757604036600319011261043757610ae26020600435611d4381611bf1565b60085460405163145ab73960e31b81529384926001600160a01b03909216918391829160243590600484016136d1565b3461043757611d8136611064565b5f549293926001600160a01b031633148015611e55575b156107ff576001600160a01b0381169384156107b0576001600160a01b038416938415908115611e4b575b506107b057604051635378561960e01b8152602081600481885afa908115610717575f91611e2c575b50306001600160a01b03909116036107ff5782156111c657833b15610437575f6111669260405180948192631dd9be9160e21b835287866004850161386d565b611e45915060203d6020116107e9576107da8183613543565b5f611dec565b90503b155f611dc3565b50335f52600160205260ff60405f205416611d98565b604090600319011261043757600435611e8381610426565b906024356110aa81610426565b3461043757602060ff611ec1611ea536611e6b565b6001600160a01b039091165f90815260108552604090206108cc565b54166040519015158152f35b346104375761010036600319011261043757600435611eeb81610426565b602435611ef781610426565b6064359160c435916044359060a4356084356001600160401b03861161043757610b0896611f2c611f3897369060040161043b565b95909460e43597613cf8565b6040519081529081906020820190565b34610437575f3660031901126104375760206040515f51602061596c5f395f51905f528152f35b34610437575f366003190112610437576003546040516001600160a01b039091168152602090f35b9060a060031983011261043757600435611fb081610426565b916024356001600160401b0381116104375781611fcf9160040161043b565b909290916044359160643591608435906001600160401b038211610437576104c29160040161043b565b346104375761200736611f97565b9495909360018060a09594951b035f54163314801561203b575b156107ff57610715966120359136916137ce565b906150aa565b50335f52600160205260ff60405f205416612021565b346104375760203660031901126104375760043561206e81610426565b6001600160a01b03165f818152600f6020526040902054908161209b57505060405180610b085f8261094a565b5f52600f60205260405f205f1982019182116120d557610b08916120be91613ffa565b905460039190911b1c6001600160a01b0316611c9a565b613663565b3461043757610120366003190112610437576004356120f881610426565b6024359061210582610426565b604435906064359261211660843590565b9360c4359360a4356001600160401b03861161043757610b0896612141611f3897369060040161043b565b94909360e4359661010435986121568a610426565b61400f565b346104375761216936611e6b565b5f546001600160a01b031633148015612316575b156107ff576001600160a01b0382169081158015612305575b6107b0576121c0610dbf826121bb8660018060a01b03165f52601060205260405f2090565b6108cc565b6122f657604051635378561960e01b81526001600160a01b0382169390602081600481885afa908115610717575f916122d7575b50306001600160a01b03909116036122a957604051638da5cb5b60e01b8152602081600481885afa80156107175784915f916122b8575b506001600160a01b0316036122a9576122648261224b6122839484615695565b6001600160a01b03165f90815260116020526040902090565b80546001600160a01b0319166001600160a01b03909216919091179055565b7fc063fc300750e8c5649c6b3779f6c4b05e7b38b170ee5c4a4b222ede9a2880835f80a3005b633a307eb360e01b5f5260045ffd5b6122d1915060203d6020116107e9576107da8183613543565b5f61222b565b6122f0915060203d6020116107e9576107da8183613543565b5f6121f4565b63d62a8c9560e01b5f5260045ffd5b506001600160a01b03811615612196565b50335f52600160205260ff60405f20541661217d565b34610437575f366003190112610437576008546040516001600160a01b039091168152602090f35b346104375760c03660031901126104375760043561237181610426565b60243561237d81610426565b604435916064359160843560a4356001600160401b038111610437576123a790369060040161043b565b5f549194916001600160a01b03163314801561261f575b156107ff576001600160a01b0384169586156107b0576001600160a01b0383169586158015612616575b6107b05781421161260257604051635378561960e01b81526020816004818b5afa908115610717575f916125e3575b50306001600160a01b03909116036107ff57604051602081019061244081610ca3898b866142eb565b519020612458610dbf825f52601460205260405f2090565b610e16576124ca94610cfa9361247c610ddf610cf2945f52601460205260405f2090565b604080515f51602061596c5f395f51905f52602082019081526001600160a01b0390941691810191909152606081018d9052608081019190915260a08101889052610cb18160c08101610ca3565b6001600160a01b0381168590036125ce57506040516311b6aa6160e31b815260048101869052602081602481875afa908115610717575f9161259f575b501561258b57823b15610437575f85612535936040519485928392637515c33960e11b8452600484016142eb565b038183875af1908115610717577f02a5cfa0774140c79ecbc7453e40d4a62b6dd1c823c43d931cf55824748fee00926118339261257d57506040519081529081906020820190565b8061070f5f610b2593613543565b63053c2ff560e01b5f52600485905260245ffd5b6125c1915060203d6020116125c7575b6125b98183613543565b8101906142b3565b5f612507565b503d6125af565b636cf57d9160e11b5f52610e38908390613826565b6125fc915060203d6020116107e9576107da8183613543565b5f612417565b631f1183ed60e31b5f52610e3882426137a4565b50833b156123e8565b50335f52600160205260ff60405f2054166123be565b34610437575f366003190112610437576009546040516001600160a01b039091168152602090f35b8015150361043757565b60409060031901126104375760043561267f81610426565b906024356110aa8161265d565b346104375761269a36612667565b5f546001600160a01b0316331480156127f9575b156107ff576001600160a01b03821691821580156127f0575b6107b057604051635378561960e01b8152602081600481875afa908115610717575f916127d1575b50306001600160a01b03909116036107ff57610b08927f4c1cbefbba6c448ac41213acf5c22774d44a2ba3b12119ff1f747a82cf887d8e61278761276894805f1461279a57612775610ddf600d5461274e61274982614306565b600d55565b8098819860018060a01b03165f52600e60205260405f2090565b905f5260205260405f2090565b60405190151581529081906020820190565b0390a36040519081529081906020820190565b612775610ddf600c546127b46127af82614306565b600c55565b809881986001600160a01b03165f908152600e6020526040902090565b6127ea915060203d6020116107e9576107da8183613543565b5f6126ef565b50803b156126c7565b50335f52600160205260ff60405f2054166126ae565b346104375760203660031901126104375760043561282c81610426565b5f546001600160a01b031633036107ff576001600160a01b031680156107b057600354816001600160a01b0382167f5e8861c011b27f9301ab1873c22d74fa961d4262fad8e19488f049cd48d3aaba5f80a36001600160a01b03191617600355005b34610437576020366003190112610437576004356128ab81610426565b5f546001600160a01b031633036107ff576001600160a01b031680156107b057600554816001600160a01b0382167fd6dc2c603206d37bd08c10999d5659ccd709ea565580b7d63cda117c96a90c2b5f80a36001600160a01b03191617600555005b346104375760203660031901126104375760043561292a81610426565b5f546001600160a01b031633036107ff576001600160a01b031680156107b057600b54816001600160a01b0382167fb30a75ccd0bb0742ffc18720f7e4013b83d98b9d9236dc4532955541a1df3a655f80a36001600160a01b03191617600b55005b346104375761299a36611f97565b9094919560018060a09695961b035f54163314801561310b575b156107ff576001600160a01b0381169586158015613102575b6107b057600485106111c6578542116130ee57604051635378561960e01b81526020816004818b5afa908115610717575f916130cf575b50306001600160a01b03909116036107ff57612a33612a238686614314565b6001600160e01b0319929161433f565b169263564da75760e01b8414968715806130be575b806130ad575b8061309c575b8061308b575b8061307a575b80613069575b61305a57612ad392610cf2610cfa928c610cb1612a84368d8d6137ce565b6020815191012092610ca360405193849260208401968d889094939260809260a08301965f51602061592c5f395f51905f52845260018060a01b03166020840152604083015260608201520152565b94604051630935e01b60e21b815260208180612af28a6004830161094a565b03818b5afa908115610717575f9161303b575b5015610e5a576040516020810190612b2381610ca38c8b8887613804565b519020612b3b610dbf825f52601360205260405f2090565b610e1657610ddf612b54915f52601360205260405f2090565b612b5f3686866137ce565b90630b18ae1d60e11b8403612cad5750505f8091610ca3612bbd88612b90612b888a808b614322565b81019061447b565b6040516303bbece160e21b602082015296879590949093919291906001600160a01b0316602487016144c4565b905b82602083519301915af1612bd16144f8565b9015612c9157506343159ce560e01b14612c11575b50506040519283526001600160a01b0316915f5160206158ec5f395f51905f529080602081016111ad565b81612c2792612c1f92614322565b810190614375565b919050823b15610437575f612c519260405180948192631018c34b60e01b835285600484016142eb565b038183875af1908115610717575f5160206158ec5f395f51905f52926111ad92612c7d575b5091612be6565b8061070f5f612c8b93613543565b5f612c76565b80519081612ca857633655084960e01b5f5260045ffd5b602001fd5b63d8bdbdf560e01b8403612d105750505f8091610ca3612d0988612cdd612cd58a808b614322565b8101906143e9565b60405163037fe8db60e51b6020820152978896909591949093916001600160a01b031660248801614437565b905b612bbf565b63738abdef60e01b8403612e35575050612d2e612c1f858086614322565b6040516249dd0960e81b815290916001600160a01b03169060208180612d57856004830161094a565b03818c5afa908115610717575f91612e16575b506001600160a01b03888116911603610e5a576040516249dd0960e81b815260208180612d9a8b6004830161094a565b03818c5afa908115610717575f91612df7575b506001600160a01b0316612de457915f9291612d098493610ca38a604051948593636f5d64cf60e11b6020860152602485016142c8565b636a57bcd560e11b5f52610e3887610939565b612e10915060203d6020116107e9576107da8183613543565b5f612dad565b612e2f915060203d6020116107e9576107da8183613543565b5f612d6a565b632aff2a5960e01b8403612f56575050612e5b612e53858086614322565b8101906143a9565b6001600160a01b039081169181169087168203610e5a576040516249dd0960e81b815260208180612e8f856004830161094a565b03818c5afa80156107175783915f91612f37575b506001600160a01b031603610e5a576040516249dd0960e81b815260208180612ecf8b6004830161094a565b03818c5afa908115610717575f91612f18575b506001600160a01b0316612de457915f9291612d098493610ca3604051938492632aff2a5960e01b60208501526024840161383d565b612f31915060203d6020116107e9576107da8183613543565b5f612ee2565b612f50915060203d6020116107e9576107da8183613543565b5f612ea3565b5f92839291638a1b32bb60e01b8603612fa85750905086612d09612f89610a62612f818a808b614322565b810190614394565b610ca36040519384926302841ba760e21b60208501526024840161383d565b6343159ce560e01b86148414612ff657509050612d09612fcc612c1f888089614322565b6040516343159ce560e01b602082015292918391610ca3916001600160a01b0316602484016142eb565b15612d0b579050612d0961300e612c1f888089614322565b604051632476bf5f60e11b602082015292918391610ca3918c91906001600160a01b0316602485016142c8565b613054915060203d6020116125c7576125b98183613543565b5f612b05565b63fb713d2b60e01b5f5260045ffd5b50638a1b32bb60e01b851415612a66565b50632aff2a5960e01b851415612a60565b5063738abdef60e01b851415612a5a565b5063d8bdbdf560e01b851415612a54565b50630b18ae1d60e11b851415612a4e565b506343159ce560e01b851415612a48565b6130e8915060203d6020116107e9576107da8183613543565b5f612a04565b631f1183ed60e31b5f52610e3886426137a4565b50813b156129cd565b50335f52600160205260ff60405f2054166129b4565b346104375761312f36612667565b5f549091906001600160a01b031633036107ff5760207f70f3008dcbe7ca1157c0809d9b79a5751736957d08f23274121a0903a38cfa999160018060a01b031692835f526001825260405f209015159060ff1981541660ff8316179055604051908152a2005b34610437576080366003190112610437576004356131b281610426565b602435906131bf82611bf1565b6044356064356001600160401b038111610437576131e190369060040161043b565b9160018060a01b035f541633148015613207575b156107ff57610b0894611c9a94614578565b50335f52600160205260ff60405f2054166131f5565b346104375760203660031901126104375760043561323a81610426565b5f546001600160a01b031633036107ff576001600160a01b031680156107b057600254816001600160a01b0382167f2744eeda02c397774dc1a9c7576a416e8d6ee463c636b09a5c558cd3263843ea5f80a36001600160a01b03191617600255005b34610437576020366003190112610437576004356001600160401b038111610437576132cc90369060040161043b565b5f549091906001600160a01b031633036107ff576132eb9136916137ce565b8051156107b0576132fa613c56565b815191906001600160401b0383116133f9576133208361331b600a54613c1e565b61570f565b6020601f841160011461337e57835f51602061598c5f395f51905f529461335b925f91613373575b508160011b915f199060031b1c19161790565b600a555b61336e6040519283928361576e565b0390a1005b90508401515f613348565b600a5f52601f198416905f51602061590c5f395f51905f52915f5b8181106133e157509185915f51602061598c5f395f51905f5296600194106133c9575b5050811b01600a5561335f565b8501515f1960f88460031b161c191690555f806133bc565b91926020600181928689015181550194019201613399565b613513565b34610437576020366003190112610437576004355f526014602052602060ff60405f2054166040519015158152f35b34610437576020366003190112610437576004355f526013602052602060ff60405f2054166040519015158152f35b346104375760e03660031901126104375760043561347981610426565b6024359060643560a43560843560443560c4356001600160401b038111610437576134a890369060040161043b565b95909460018060a01b035f5416331480156134fd575b156107ff57610715976134ea6134f892604051958693638abc9b2560e01b602086015260248501613857565b03601f198101845283613543565b6150aa565b50335f52600160205260ff60405f2054166134be565b634e487b7160e01b5f52604160045260245ffd5b61010081019081106001600160401b038211176133f957604052565b601f909101601f19168101906001600160401b038211908210176133f957604052565b9081602091031261043757516110aa81610426565b6040513d5f823e3d90fd5b51906001600160401b038216820361043757565b51906001600160801b038216820361043757565b51906135b98261265d565b565b51906135b982611bf1565b90816101009103126104375761365b60e0604051926135e484613527565b6135ed81613586565b84526135fb60208201613586565b602085015261360c6040820161359a565b604085015261361d6060820161359a565b606085015261362e608082016135ae565b608085015261363f60a082016135bb565b60a085015261365060c082016135bb565b60c08501520161359a565b60e082015290565b634e487b7160e01b5f52601160045260245ffd5b90620f4240820291808304620f424014901517156120d557565b818102929181159184041417156120d557565b81156136ae570490565b634e487b7160e01b5f52601260045260245ffd5b90816020910312610437575190565b6020909392919360ff60408201951681520152565b908060209392818452848401375f828201840152601f01601f1916010190565b93909260e095926110aa99979460018060a01b0316865260018060a01b0316602086015260408501526060840152608083015260a08201528160c082015201916136e6565b604091949392606082019560018060a01b0316825260208201520152565b90816020910312610437575160098110156104375790565b634e487b7160e01b5f52602160045260245ffd5b6009111561379f57565b613781565b6004525f602452604452606490565b6001600160401b0381116133f957601f01601f191660200190565b9291926137da826137b3565b916137e86040519384613543565b829481845281830111610437578281602093845f960137010152565b6001600160a01b03918216815291166020820152604081019190915260600190565b6001600160a01b0390811660045216602452604490565b6001600160a01b0391821681529116602082015260400190565b6040919493926060820195825260208201520152565b91602091613886919594956040855260408501916136e6565b6001600160a01b03909416910152565b90929160018060a01b035f5416331480156139d3575b156107ff576001600160a01b0383169283156107b0576001600160a01b0383169283159081156139c9575b506107b057604051635378561960e01b8152602081600481875afa908115610717575f916139aa575b50306001600160a01b03909116036107ff5781156111c657823b15610437575f613940916040518093819263523c822360e11b8352868a600485016139e9565b038183875af1801561071757613996575b505f5b818110613962575050505050565b8084845f5160206159cc5f395f51905f5261398d611197613986600197898d613a9e565b36916137ce565b0390a301613954565b8061070f5f6139a493613543565b5f613951565b6139c3915060203d6020116107e9576107da8183613543565b5f613900565b90503b155f6138d7565b50335f52600160205260ff60405f2054166138ac565b93929190816040860160408752526060850160608360051b87010192825f90601e19813603015b838310613a33575050505050509060206135b99294019060018060a01b03169052565b909192939495605f198a8203018652863582811215610437578301602081019190356001600160401b03811161043757803603831361043757613a7c60209283926001956136e6565b980196019493019190613a10565b634e487b7160e01b5f52603260045260245ffd5b9190811015613adf5760051b81013590601e19813603018212156104375701803591906001600160401b038311610437576020018236038113610437579190565b613a8a565b9392919095949560018060a01b035f541633148015613bb6575b156107ff57613b0c94614578565b916001600160a01b038316915f5b818110613b28575050505090565b613b3b613b36828486613bcc565b613bdc565b90815115613ba75781516040602084015193015192863b15610437575f91613b776040519586938493638abc9b2560e01b855260048501613857565b038183895af191821561071757600192613b93575b5001613b1a565b8061070f5f613ba193613543565b5f613b8c565b639033099360e01b5f5260045ffd5b50335f52600160205260ff60405f205416613afe565b9190811015613adf576060020190565b606081360312610437576040519060608201906001600160401b038211838310176133f957604091825280358352602081013560208401520135604082015290565b90600182811c92168015613c4c575b6020831014613c3857565b634e487b7160e01b5f52602260045260245ffd5b91607f1691613c2d565b604051905f82600a5491613c6983613c1e565b8083529260018116908115613cd95750600114613c8d575b6135b992500383613543565b50600a5f90815290915f51602061590c5f395f51905f525b818310613cbd5750509060206135b992820101613c81565b6020919350806001915483858901015201910190918492613ca5565b602092506135b994915060ff191682840152151560051b820101613c81565b969594939260018060a01b035f541633148015613fd5575b156107ff575f546001600160a01b031633148015613fbf575b156107ff576001600160a01b0382169687156107b0576001600160a01b0389169687158015613fb6575b6107b057604051635378561960e01b81526020816004818c5afa908115610717575f91613f97575b50306001600160a01b03909116036107ff5784156107f057604051638da5cb5b60e01b8152956020876004818c5afa968715610717575f97613f76575b506001600160a01b0387169a8b156107b0576020613dea9160405180938192631d4d9cf760e01b83526004830161094a565b0381305afa908115610717575f91613f57575b508015613f4857613e1690613e1188613677565b6136a4565b9b8c15613f39578c10613f2a577f00000000000000000000000000000000000000000000000000000000000000006001600160a01b031690813b15610437575f86613e7e82968a968d8d966040519b8c9a8b998a9863cf09299560e01b8a5260048a01613706565b03925af1801561071757613f16575b50843b1561043757875f91613eb66040519586938493630ec3786b60e01b8552600485016142c8565b038183885af18015610717577f246821f0caf9ce5a9ae8fb3bd7097a6d47299d00676d0ec0b40b429694a8684d938893613efc92613f02575b5060405193849384613857565b0390a490565b8061070f5f613f1093613543565b5f613eef565b8061070f5f613f2493613543565b5f613e8d565b63c02e577360e01b5f5260045ffd5b6313f3da3f60e21b5f5260045ffd5b6376024b7160e01b5f5260045ffd5b613f70915060203d60201161075a5761074b8183613543565b5f613dfd565b613f9091975060203d6020116107e9576107da8183613543565b955f613db8565b613fb0915060203d6020116107e9576107da8183613543565b5f613d7b565b50893b15613d53565b50335f52600160205260ff60405f205416613d29565b50335f52600160205260ff60405f205416613d10565b6003198101919082116120d557565b8054821015613adf575f5260205f2001905f90565b97989390919260018060a01b035f54163314801561429d575b156107ff576001600160a01b0383169788156107b0576001600160a01b038a169788158015614294575b6107b057604051635378561960e01b81526020816004818d5afa908115610717575f91614275575b50306001600160a01b03909116036107ff5785156107f057604051638da5cb5b60e01b8152936020856004818d5afa948515610717575f95614254575b506001600160a01b0385169b8c156107b05760206140e99160405180938192631d4d9cf760e01b83526004830161094a565b0381305afa908115610717575f91614235575b508015613f485761411090613e1189613677565b9c8d15613f39578d10613f2a577f00000000000000000000000000000000000000000000000000000000000000006001600160a01b031690813b15610437575f8761417882968b968e8b966040519b8c9a8b998a9863cf09299560e01b8a5260048a01613706565b03925af1801561071757614221575b50926001600160a01b0381166141c05750843b1561043757875f91613eb66040519586938493630ec3786b60e01b8552600485016142c8565b604051630935e01b60e21b815291935090602081806141e2856004830161094a565b0381895afa908115610717575f91614202575b5015610e5a57915f613e8d565b61421b915060203d6020116125c7576125b98183613543565b5f6141f5565b8061070f5f61422f93613543565b5f614187565b61424e915060203d60201161075a5761074b8183613543565b5f6140fc565b61426e91955060203d6020116107e9576107da8183613543565b935f6140b7565b61428e915060203d6020116107e9576107da8183613543565b5f61407a565b508a3b15614052565b50335f52600160205260ff60405f205416614028565b9081602091031261043757516110aa8161265d565b6001600160a01b0391821681526020810192909252909116604082015260600190565b6001600160a01b039091168152602081019190915260400190565b5f1981146120d55760010190565b906004116104375790600490565b909291928360041161043757831161043757600401916003190190565b356001600160e01b031981169291906004821061435a575050565b6001600160e01b031960049290920360031b82901b16169150565b9190826040910312610437576020823561438e81610426565b92013590565b9081602091031261043757356110aa81610426565b919082604091031261043757602082356143c281610426565b9201356110aa81610426565b9080601f83011215610437578160206110aa933591016137ce565b919060a08382031261043757823561440081610426565b92602081013561440f8161265d565b9260408201359260608301356001600160401b0381116104375760809161438e9185016143ce565b9261446a9260a0959298979698600180881b0316855215156020850152604084015260c0606084015260c0830190611cce565b94600180841b031660808201520152565b9060808282031261043757813561449181610426565b9260208301356144a08161265d565b9260408101359260608201356001600160401b038111610437576110aa92016143ce565b9390926138869260809497969760018060a01b0316865215156020860152604085015260a0606085015260a0840190611cce565b3d15614522573d90614509826137b3565b916145176040519384613543565b82523d5f602084013e565b606090565b6110aa9161453491615793565b909291926157d7565b9160206110aa9381815201916136e6565b60206135b991939293846040519586928484013781015f838201520301601f198101845283613543565b9394936001600160a01b03811692909183156107b05786156148e2575f60206145c86145ab610a62610a6260095461041a565b8a6040519485809481936203ba1b60e51b83528d6004840161453d565b03925af1908115610717575f916148c3575b50966001600160a01b03881695889190871580156148ba575b614842575050604051635378561960e01b81526020816004818a5afa908115610717575f91614823575b50306001600160a01b03909116036147f557604051638da5cb5b60e01b81526020816004818a5afa80156107175786915f916147d6575b506001600160a01b0316036147a85760405163e5a6b10f60e01b81526020816004818a5afa908115610717575f91614789575b5061469181613795565b60ff80841691160361475b57604051634dda221560e01b81526020816004818a5afa80156107175784915f9161473c575b500361470f57836122648261224b6146fb947fb6ce9f4a6c24844ee121b78004db1a1773ef64e1d804b875dd31413a87560cc098615695565b61470a604051928392836136d1565b0390a3565b604051600481525f5160206159ac5f395f51905f5290602090a16355c7c7ff60e01b5f526004805260245ffd5b614755915060203d60201161075a5761074b8183613543565b5f6146c2565b604051600381525f5160206159ac5f395f51905f5290602090a16355c7c7ff60e01b5f52600360045260245ffd5b6147a2915060203d602011610b7657610b678183613543565b5f614687565b604051600281525f5160206159ac5f395f51905f5290602090a16355c7c7ff60e01b5f52600260045260245ffd5b6147ef915060203d6020116107e9576107da8183613543565b5f614654565b604051600181525f5160206159ac5f395f51905f5290602090a16355c7c7ff60e01b5f52600160045260245ffd5b61483c915060203d6020116107e9576107da8183613543565b5f61461d565b90614891817ffa7e837357b85adf6c0b6025a56fd0847a7bf3cfa72b66ccc8afe138d0451f26935f5160206159ac5f395f51905f526040518061488981905f602083019252565b0390a161454e565b8051602091820120604080519384529183015290a16355c7c7ff60e01b5f90815260045260245ffd5b50823b156145f3565b6148dc915060203d6020116107e9576107da8183613543565b5f6145da565b633448691b60e11b5f5260045ffd5b906148fb826137b3565b6149086040519182613543565b8281528092614919601f19916137b3565b0190602036910137565b90600482018092116120d557565b908151811015613adf570160200190565b6001600160401b0381116133f95760051b60200190565b9080601f8301121561043757815161497081614942565b9261497e6040519485613543565b81845260208085019260051b82010192831161043757602001905b8282106149a65750505090565b8151815260209182019101614999565b9080601f830112156104375781516149cd81614942565b926149db6040519485613543565b81845260208085019260051b820101918383116104375760208201905b838210614a0757505050505090565b81516001600160401b03811161043757602091614a2987848094880101614959565b8152019101906149f8565b9080601f8301121561043757815190614a4c82614942565b92614a5a6040519485613543565b82845260208085019360051b82010191821161043757602001915b818310614a825750505090565b825163ffffffff8116810361043757815260209283019201614a75565b51906135b982610426565b60e08183031261043757805192614ac360208301613586565b92614ad060408401613586565b60608401519093906001600160401b0381116104375782614af29183016149b6565b60808201519093906001600160401b0381116104375783614b149184016149b6565b60a08301519093906001600160401b0381116104375760c091614b38918501614a34565b9201516110aa81610426565b90602080835192838152019201905f5b818110614b615750505090565b8251845260209384019390920191600101614b54565b9080602083519182815201916020808360051b8301019401925f915b838310614ba257505050505090565b9091929394602080614bc0600193601f198682030187528951614b44565b97019301930191939290614b93565b90602080835192838152019201905f5b818110614bec5750505090565b825163ffffffff16845260209384019390920191600101614bdf565b9081526001600160401b0391821660208201529116604082015261010060608201819052949695909460e0949193614c6793614c5992614c4b9190890190614b77565b908782036080890152614b77565b9085820360a0870152614bcf565b6001600160a01b0395861660c08501529416910152565b9160c08383031261043757825192614c9860208201613586565b92614ca560408301613586565b60608301519093906001600160401b0381116104375782614cc79185016149b6565b60808401519093906001600160401b0381116104375783614ce99183016149b6565b60a08201519093906001600160401b038111610437576110aa9201614a34565b9081526001600160401b0391821660208201529116604082015260e060608201819052949594909360c093613886939192614d5892614d4a91880190614b77565b908682036080880152614b77565b9084820360a0860152614bcf565b9190610100838203126104375782516001600160401b0381116104375781614d8f918501614959565b92602081015192604082015192614da860608401613586565b92614db560808201613586565b60a08201519093906001600160401b0381116104375783614dd7918401614959565b60c083015190936001600160401b03821161043757614dfd60e0916110aa938601614959565b9301614a9f565b9799989590946101009794614e5a94614e2a614e68986101208d526101208d0190614b44565b60208c019590955260408b01526001600160401b0390811660608b015216608089015287820360a0890152614b44565b9085820360c0870152614b44565b6001600160a01b0395861660e08501529416910152565b9060e0828203126104375781516001600160401b0381116104375781614ea6918401614959565b92602083015192604081015192614ebf60608301613586565b92614ecc60808401613586565b60a08401519093906001600160401b0381116104375783614eee918301614959565b60c08201519093906001600160401b038111610437576110aa9201614959565b96939461388695614f6394614f3360e099949c9b9c6101008c526101008c0190614b44565b60208b019590955260408a01526001600160401b0390811660608a015216608088015286820360a0880152614b44565b9084820360c0860152614b44565b91906101008382031261043757825192602081015192604082015192614f9960608401613586565b92614fa660808201613586565b60a08201519093906001600160401b0381116104375783614fc8918401614959565b60c08301519093906001600160401b0381116104375760e091614b38918501614959565b979998959193614e5a936101009895614e6897938b5260208b015260408a015260018060401b0316606089015260018060401b0316608088015261012060a0880152610120870190614b44565b9060e08282031261043757815192602083015192604081015192614ebf60608301613586565b9693614f639360e0979361388697939b9a9b8a5260208a0152604089015260018060401b0316606088015260018060401b0316608087015261010060a0870152610100860190614b44565b9194919390926001600160a01b0385169290918315801561568c575b6107b0578451156111c65786421161567857604051635378561960e01b8152602081600481885afa908115610717575f91615659575b50306001600160a01b03909116036107ff57602060049460405195868092638da5cb5b60e01b82525afa938415610717575f9461562e575b5090610cfa61519592610cf28888519a610cb160208b019c8d20610ca38a6040519485936020850197889094939260809260a08301965f51602061594c5f395f51905f52845260018060a01b03166020840152604083015260608201520152565b916001600160a01b038082169084160361561a57506040516151c081610ca3602082019488866142eb565b5190206151d8610dbf825f52601260205260405f2090565b610e1657610ddf6151f1915f52601260205260405f2090565b81938251906004821015615224575b50505050815f92918360208194519301915af161521b6144f8565b9015612c915750565b5192959194919260e01c6001600160e01b031916630569881360e41b81036152f05750505061525b6152568551613feb565b6148f1565b915f5b83518110156152a0578061528d61527f615279600194614923565b89614931565b516001600160f81b03191690565b5f1a6152998287614931565b530161525e565b50909350610ca36152e55f946152c0869560208082518301019101615039565b936040999697959993919351998a986347b5881360e01b60208b015260248a0161505f565b905b9181935f615200565b63c0ab3ba360e01b81036153975750505061530e6152568551613feb565b915f5b835181101561533f578061532c61527f615279600194614923565b5f1a6153388287614931565b5301615311565b509093505f92615391610ca361535f869560208082518301019101614f71565b6040516361e3f2a560e11b60208201529a8b99986001600160a01b039092169790969295939493929160248b01614fec565b906152e7565b631163081760e11b810361542b575050506153b56152568551613feb565b915f5b83518110156153e657806153d361527f615279600194614923565b5f1a6153df8287614931565b53016153b8565b50909350610ca36153915f94615406869560208082518301019101614e7f565b936040999697959993919351998a9863b04e83b760e01b60208b015260248a01614f0e565b63294ae08160e11b81036154cc575050506154496152568551613feb565b915f5b835181101561547a578061546761527f615279600194614923565b5f1a6154738287614931565b530161544c565b509093505f92615391610ca361549a869560208082518301019101614d66565b6040516301247ab760e61b60208201529a8b99986001600160a01b039092169790969295939493929160248b01614e04565b6352b9ec2360e01b8103615560575050506154ea6152568551613feb565b915f5b835181101561551b578061550861527f615279600194614923565b5f1a6155148287614931565b53016154ed565b50909350610ca36153915f9461553b869560208082518301019101614c7e565b926040989596949892919251988997638568e38360e01b60208a015260248901614d09565b92959194919263f249d30360e01b14615580575b5050505f9182916152e7565b61559291945061525690959295613feb565b915f5b83518110156155c357806155b061527f615279600194614923565b5f1a6155bc8287614931565b5301615595565b509093505f92615612610ca36155e3869560208082518301019101614aaa565b6040516393e8419160e01b6020820152998a98976001600160a01b039092169690959294929160248a01614c08565b928192615574565b636cf57d9160e11b5f52610e389083613826565b61519592919450615650610cfa9160203d6020116107e9576107da8183613543565b94919250615134565b615672915060203d6020116107e9576107da8183613543565b5f6150fc565b631f1183ed60e31b5f52610e3887426137a4565b50853b156150c6565b6001600160a01b03165f8181526010602052604090206156b69083906108cc565b805460ff191660011790555f908152600f602052604090208054600160401b8110156133f9576156eb91600182018155613ffa565b81546001600160a01b0393841660039290921b91821b9390911b1916919091179055565b90601f821161571c575050565b808211615727575050565b600a5f5260205f206020601f830160051c9210615766575b81601f9101920160051c03905f5b82811061575957505050565b5f8282015560010161574d565b5f915061573f565b90916157856110aa93604084526040840190611cce565b916020818403910152611cce565b81519190604183036157c3576157bc9250602082015190606060408401519301515f1a90615853565b9192909190565b50505f9160029190565b6004111561379f57565b6157e0816157cd565b806157e9575050565b6157f2816157cd565b600181036158095763f645eedf60e01b5f5260045ffd5b615812816157cd565b6002810361582d575063fce698f760e01b5f5260045260245ffd5b806158396003926157cd565b146158415750565b6335e2f38360e21b5f5260045260245ffd5b91906fa2a8918ca85bafe22016d0b997e4df60600160ff1b0384116158c0579160209360809260ff5f9560405194855216868401526040830152606082015282805260015afa15610717575f516001600160a01b038116156158b657905f905f90565b505f906001905f90565b5050505f916003919056fe37d334dabaf41e43aacc723ac58fb37530ae1cc7b9c266f832352d3b33d1d2e1c2d58ddd39bae8d891e64c790e06675be0c60c0c8abaaceac647c83798f19d71c65a7bb8d6351c1cf70c95a316cc6a92839c986682d98bc35f958f4883f9d2a88b5e44529430631511cdb2103b51a2b17522f3ccef30b4cecb8b600e589b21845d2010d98a8af54e10756d0f1f88c21936f3cee3282ba1a12e8b6ea9dc3cd00b463abe3f6cb651e419dc0721d255e765e90e8b7d6b0696d62ff4651fd8d4bc33944f9ca1b679ec8381ef5d5419085e9ea4df3b274eb009910b19bd295bd18fc303b08423472f7ab3868687f6f058518938a70d81f39d56bbef07d72ad5207adc6fda4e9204adb930edd263bf167f0f95464e9f84006d5c89c84ed55f50528b33a164736f6c6343000821000a",
  "linkReferences": {},
  "deployedLinkReferences": {},
  "immutableReferences": {
    "25899": [
      {
        "length": 32,
        "start": 1631
      },
      {
        "length": 32,
        "start": 5957
      },
      {
        "length": 32,
        "start": 6634
      },
      {
        "length": 32,
        "start": 15909
      },
      {
        "length": 32,
        "start": 16671
      }
    ],
    "28395": [
      {
        "length": 32,
        "start": 3254
      },
      {
        "length": 32,
        "start": 3872
      }
    ]
  },
  "inputSourceName": "project/src/BeamioUserCard/BeamioUserCardFactoryPaymasterV07.sol",
  "buildInfoId": "solc-0_8_33-f928d38d5c3be78c6f7d840dd3b65dbcfc2e1f11"
}