{
  "_format": "hh3-artifact-1",
  "contractName": "BeamioFactoryPaymasterV07",
  "sourceName": "src/BeamioAccount/BeamioFactoryPaymasterV07.sol",
  "abi": [
    {
      "inputs": [
        {
          "internalType": "uint256",
          "name": "initialAccountLimit",
          "type": "uint256"
        },
        {
          "internalType": "address",
          "name": "deployer_",
          "type": "address"
        },
        {
          "internalType": "address",
          "name": "module_",
          "type": "address"
        },
        {
          "internalType": "address",
          "name": "quoteHelper_",
          "type": "address"
        },
        {
          "internalType": "address",
          "name": "userCard_",
          "type": "address"
        },
        {
          "internalType": "address",
          "name": "usdc_",
          "type": "address"
        }
      ],
      "stateMutability": "nonpayable",
      "type": "constructor"
    },
    {
      "inputs": [],
      "name": "ECDSAInvalidSignature",
      "type": "error"
    },
    {
      "inputs": [
        {
          "internalType": "uint256",
          "name": "length",
          "type": "uint256"
        }
      ],
      "name": "ECDSAInvalidSignatureLength",
      "type": "error"
    },
    {
      "inputs": [
        {
          "internalType": "bytes32",
          "name": "s",
          "type": "bytes32"
        }
      ],
      "name": "ECDSAInvalidSignatureS",
      "type": "error"
    },
    {
      "inputs": [
        {
          "internalType": "address",
          "name": "signer",
          "type": "address"
        },
        {
          "internalType": "address",
          "name": "expected",
          "type": "address"
        }
      ],
      "name": "RedeemerSignerMismatch",
      "type": "error"
    },
    {
      "inputs": [],
      "name": "RedeemerToMustEqualClaimer",
      "type": "error"
    },
    {
      "anonymous": false,
      "inputs": [
        {
          "indexed": true,
          "internalType": "address",
          "name": "creator",
          "type": "address"
        },
        {
          "indexed": true,
          "internalType": "address",
          "name": "account",
          "type": "address"
        },
        {
          "indexed": false,
          "internalType": "uint256",
          "name": "index",
          "type": "uint256"
        },
        {
          "indexed": false,
          "internalType": "bytes32",
          "name": "salt",
          "type": "bytes32"
        }
      ],
      "name": "AccountCreated",
      "type": "event"
    },
    {
      "anonymous": false,
      "inputs": [
        {
          "indexed": true,
          "internalType": "address",
          "name": "oldDeployer",
          "type": "address"
        },
        {
          "indexed": true,
          "internalType": "address",
          "name": "newDeployer",
          "type": "address"
        }
      ],
      "name": "DeployerUpdated",
      "type": "event"
    },
    {
      "anonymous": false,
      "inputs": [
        {
          "indexed": true,
          "internalType": "address",
          "name": "oldModule",
          "type": "address"
        },
        {
          "indexed": true,
          "internalType": "address",
          "name": "newModule",
          "type": "address"
        }
      ],
      "name": "ModuleUpdated",
      "type": "event"
    },
    {
      "anonymous": false,
      "inputs": [
        {
          "indexed": true,
          "internalType": "address",
          "name": "oldExecutor",
          "type": "address"
        },
        {
          "indexed": true,
          "internalType": "address",
          "name": "newExecutor",
          "type": "address"
        }
      ],
      "name": "OpenContainerMintExecutorUpdated",
      "type": "event"
    },
    {
      "anonymous": false,
      "inputs": [
        {
          "indexed": true,
          "internalType": "address",
          "name": "oldHelper",
          "type": "address"
        },
        {
          "indexed": true,
          "internalType": "address",
          "name": "newHelper",
          "type": "address"
        }
      ],
      "name": "QuoteHelperUpdated",
      "type": "event"
    },
    {
      "anonymous": false,
      "inputs": [
        {
          "indexed": true,
          "internalType": "address",
          "name": "oldUSDC",
          "type": "address"
        },
        {
          "indexed": true,
          "internalType": "address",
          "name": "newUSDC",
          "type": "address"
        }
      ],
      "name": "USDCUpdated",
      "type": "event"
    },
    {
      "anonymous": false,
      "inputs": [
        {
          "indexed": true,
          "internalType": "address",
          "name": "oldCard",
          "type": "address"
        },
        {
          "indexed": true,
          "internalType": "address",
          "name": "newCard",
          "type": "address"
        }
      ],
      "name": "UserCardUpdated",
      "type": "event"
    },
    {
      "inputs": [],
      "name": "DOMAIN_SEPARATOR",
      "outputs": [
        {
          "internalType": "bytes32",
          "name": "",
          "type": "bytes32"
        }
      ],
      "stateMutability": "view",
      "type": "function"
    },
    {
      "inputs": [],
      "name": "ENTRY_POINT",
      "outputs": [
        {
          "internalType": "contract IEntryPointV07",
          "name": "",
          "type": "address"
        }
      ],
      "stateMutability": "view",
      "type": "function"
    },
    {
      "inputs": [],
      "name": "EXECUTE_FOR_OWNER_TYPEHASH",
      "outputs": [
        {
          "internalType": "bytes32",
          "name": "",
          "type": "bytes32"
        }
      ],
      "stateMutability": "view",
      "type": "function"
    },
    {
      "inputs": [],
      "name": "EXECUTE_FOR_REDEEMER_TYPEHASH",
      "outputs": [
        {
          "internalType": "bytes32",
          "name": "",
          "type": "bytes32"
        }
      ],
      "stateMutability": "view",
      "type": "function"
    },
    {
      "inputs": [],
      "name": "USDC",
      "outputs": [
        {
          "internalType": "address",
          "name": "",
          "type": "address"
        }
      ],
      "stateMutability": "view",
      "type": "function"
    },
    {
      "inputs": [],
      "name": "accountLimit",
      "outputs": [
        {
          "internalType": "uint256",
          "name": "",
          "type": "uint256"
        }
      ],
      "stateMutability": "view",
      "type": "function"
    },
    {
      "inputs": [
        {
          "internalType": "address",
          "name": "pm",
          "type": "address"
        }
      ],
      "name": "addPayMaster",
      "outputs": [],
      "stateMutability": "nonpayable",
      "type": "function"
    },
    {
      "inputs": [],
      "name": "admin",
      "outputs": [
        {
          "internalType": "address",
          "name": "",
          "type": "address"
        }
      ],
      "stateMutability": "view",
      "type": "function"
    },
    {
      "inputs": [
        {
          "internalType": "address",
          "name": "creator",
          "type": "address"
        }
      ],
      "name": "beamioAccountOf",
      "outputs": [
        {
          "internalType": "address",
          "name": "",
          "type": "address"
        }
      ],
      "stateMutability": "view",
      "type": "function"
    },
    {
      "inputs": [],
      "name": "beamioUserCard",
      "outputs": [
        {
          "internalType": "address",
          "name": "",
          "type": "address"
        }
      ],
      "stateMutability": "view",
      "type": "function"
    },
    {
      "inputs": [
        {
          "internalType": "address",
          "name": "creator",
          "type": "address"
        },
        {
          "internalType": "uint256",
          "name": "index",
          "type": "uint256"
        }
      ],
      "name": "computeSalt",
      "outputs": [
        {
          "internalType": "bytes32",
          "name": "",
          "type": "bytes32"
        }
      ],
      "stateMutability": "pure",
      "type": "function"
    },
    {
      "inputs": [],
      "name": "containerModule",
      "outputs": [
        {
          "internalType": "address",
          "name": "",
          "type": "address"
        }
      ],
      "stateMutability": "view",
      "type": "function"
    },
    {
      "inputs": [],
      "name": "createAccount",
      "outputs": [
        {
          "internalType": "address",
          "name": "account",
          "type": "address"
        }
      ],
      "stateMutability": "nonpayable",
      "type": "function"
    },
    {
      "inputs": [
        {
          "internalType": "address",
          "name": "creator",
          "type": "address"
        }
      ],
      "name": "createAccountFor",
      "outputs": [
        {
          "internalType": "address",
          "name": "account",
          "type": "address"
        }
      ],
      "stateMutability": "nonpayable",
      "type": "function"
    },
    {
      "inputs": [],
      "name": "deployer",
      "outputs": [
        {
          "internalType": "contract BeamioAccountDeployer",
          "name": "",
          "type": "address"
        }
      ],
      "stateMutability": "view",
      "type": "function"
    },
    {
      "inputs": [],
      "name": "deposit",
      "outputs": [],
      "stateMutability": "payable",
      "type": "function"
    },
    {
      "inputs": [
        {
          "internalType": "address",
          "name": "account",
          "type": "address"
        },
        {
          "internalType": "bytes",
          "name": "data",
          "type": "bytes"
        },
        {
          "internalType": "uint256",
          "name": "deadline",
          "type": "uint256"
        },
        {
          "internalType": "bytes32",
          "name": "nonce",
          "type": "bytes32"
        },
        {
          "internalType": "bytes",
          "name": "ownerSignature",
          "type": "bytes"
        }
      ],
      "name": "executeForOwner",
      "outputs": [],
      "stateMutability": "nonpayable",
      "type": "function"
    },
    {
      "inputs": [
        {
          "internalType": "address",
          "name": "account",
          "type": "address"
        },
        {
          "internalType": "bytes",
          "name": "data",
          "type": "bytes"
        },
        {
          "internalType": "uint256",
          "name": "deadline",
          "type": "uint256"
        },
        {
          "internalType": "bytes32",
          "name": "nonce",
          "type": "bytes32"
        },
        {
          "internalType": "bytes",
          "name": "redeemerSignature",
          "type": "bytes"
        }
      ],
      "name": "executeForRedeemer",
      "outputs": [],
      "stateMutability": "nonpayable",
      "type": "function"
    },
    {
      "inputs": [
        {
          "internalType": "address",
          "name": "creator",
          "type": "address"
        },
        {
          "internalType": "uint256",
          "name": "index",
          "type": "uint256"
        }
      ],
      "name": "getAddress",
      "outputs": [
        {
          "internalType": "address",
          "name": "",
          "type": "address"
        }
      ],
      "stateMutability": "view",
      "type": "function"
    },
    {
      "inputs": [],
      "name": "getPayMasters",
      "outputs": [
        {
          "internalType": "address[]",
          "name": "",
          "type": "address[]"
        }
      ],
      "stateMutability": "view",
      "type": "function"
    },
    {
      "inputs": [
        {
          "internalType": "address",
          "name": "",
          "type": "address"
        }
      ],
      "name": "isBeamioAccount",
      "outputs": [
        {
          "internalType": "bool",
          "name": "",
          "type": "bool"
        }
      ],
      "stateMutability": "view",
      "type": "function"
    },
    {
      "inputs": [
        {
          "internalType": "address",
          "name": "",
          "type": "address"
        }
      ],
      "name": "isPayMaster",
      "outputs": [
        {
          "internalType": "bool",
          "name": "",
          "type": "bool"
        }
      ],
      "stateMutability": "view",
      "type": "function"
    },
    {
      "inputs": [],
      "name": "myBeamioAccounts",
      "outputs": [
        {
          "internalType": "address[]",
          "name": "",
          "type": "address[]"
        }
      ],
      "stateMutability": "view",
      "type": "function"
    },
    {
      "inputs": [
        {
          "internalType": "address",
          "name": "",
          "type": "address"
        }
      ],
      "name": "nextIndexOfCreator",
      "outputs": [
        {
          "internalType": "uint256",
          "name": "",
          "type": "uint256"
        }
      ],
      "stateMutability": "view",
      "type": "function"
    },
    {
      "inputs": [],
      "name": "openContainerMintExecutor",
      "outputs": [
        {
          "internalType": "address",
          "name": "",
          "type": "address"
        }
      ],
      "stateMutability": "view",
      "type": "function"
    },
    {
      "inputs": [
        {
          "internalType": "uint256",
          "name": "",
          "type": "uint256"
        }
      ],
      "name": "payMasters",
      "outputs": [
        {
          "internalType": "address",
          "name": "",
          "type": "address"
        }
      ],
      "stateMutability": "view",
      "type": "function"
    },
    {
      "inputs": [
        {
          "internalType": "enum IPaymasterV07.PostOpMode",
          "name": "",
          "type": "uint8"
        },
        {
          "internalType": "bytes",
          "name": "",
          "type": "bytes"
        },
        {
          "internalType": "uint256",
          "name": "",
          "type": "uint256"
        },
        {
          "internalType": "uint256",
          "name": "",
          "type": "uint256"
        }
      ],
      "name": "postOp",
      "outputs": [],
      "stateMutability": "nonpayable",
      "type": "function"
    },
    {
      "inputs": [
        {
          "internalType": "address",
          "name": "",
          "type": "address"
        }
      ],
      "name": "primaryAccountOf",
      "outputs": [
        {
          "internalType": "address",
          "name": "",
          "type": "address"
        }
      ],
      "stateMutability": "view",
      "type": "function"
    },
    {
      "inputs": [],
      "name": "quoteHelper",
      "outputs": [
        {
          "internalType": "address",
          "name": "",
          "type": "address"
        }
      ],
      "stateMutability": "view",
      "type": "function"
    },
    {
      "inputs": [
        {
          "internalType": "address",
          "name": "account",
          "type": "address"
        },
        {
          "internalType": "string",
          "name": "code",
          "type": "string"
        }
      ],
      "name": "relayCancelFaucetPool",
      "outputs": [],
      "stateMutability": "nonpayable",
      "type": "function"
    },
    {
      "inputs": [
        {
          "internalType": "address",
          "name": "account",
          "type": "address"
        },
        {
          "internalType": "string",
          "name": "code",
          "type": "string"
        }
      ],
      "name": "relayCancelRedeem",
      "outputs": [],
      "stateMutability": "nonpayable",
      "type": "function"
    },
    {
      "inputs": [
        {
          "internalType": "address",
          "name": "account",
          "type": "address"
        },
        {
          "internalType": "address",
          "name": "to",
          "type": "address"
        },
        {
          "components": [
            {
              "internalType": "enum AssetKind",
              "name": "kind",
              "type": "uint8"
            },
            {
              "internalType": "address",
              "name": "asset",
              "type": "address"
            },
            {
              "internalType": "uint256",
              "name": "amount",
              "type": "uint256"
            },
            {
              "internalType": "uint256",
              "name": "tokenId",
              "type": "uint256"
            },
            {
              "internalType": "bytes",
              "name": "data",
              "type": "bytes"
            }
          ],
          "internalType": "struct ContainerItem[]",
          "name": "items",
          "type": "tuple[]"
        },
        {
          "internalType": "uint256",
          "name": "nonce_",
          "type": "uint256"
        },
        {
          "internalType": "uint256",
          "name": "deadline_",
          "type": "uint256"
        },
        {
          "internalType": "bytes",
          "name": "sig",
          "type": "bytes"
        }
      ],
      "name": "relayContainerMainRelayed",
      "outputs": [],
      "stateMutability": "nonpayable",
      "type": "function"
    },
    {
      "inputs": [
        {
          "internalType": "address",
          "name": "account",
          "type": "address"
        },
        {
          "internalType": "address",
          "name": "to",
          "type": "address"
        },
        {
          "components": [
            {
              "internalType": "enum AssetKind",
              "name": "kind",
              "type": "uint8"
            },
            {
              "internalType": "address",
              "name": "asset",
              "type": "address"
            },
            {
              "internalType": "uint256",
              "name": "amount",
              "type": "uint256"
            },
            {
              "internalType": "uint256",
              "name": "tokenId",
              "type": "uint256"
            },
            {
              "internalType": "bytes",
              "name": "data",
              "type": "bytes"
            }
          ],
          "internalType": "struct ContainerItem[]",
          "name": "items",
          "type": "tuple[]"
        },
        {
          "internalType": "uint8",
          "name": "currencyType",
          "type": "uint8"
        },
        {
          "internalType": "uint256",
          "name": "maxAmount",
          "type": "uint256"
        },
        {
          "internalType": "uint256",
          "name": "nonce_",
          "type": "uint256"
        },
        {
          "internalType": "uint256",
          "name": "deadline_",
          "type": "uint256"
        },
        {
          "internalType": "bytes",
          "name": "sig",
          "type": "bytes"
        }
      ],
      "name": "relayContainerMainRelayedOpen",
      "outputs": [],
      "stateMutability": "nonpayable",
      "type": "function"
    },
    {
      "inputs": [
        {
          "internalType": "address",
          "name": "account",
          "type": "address"
        },
        {
          "internalType": "address",
          "name": "pointsTo",
          "type": "address"
        },
        {
          "components": [
            {
              "internalType": "enum AssetKind",
              "name": "kind",
              "type": "uint8"
            },
            {
              "internalType": "address",
              "name": "asset",
              "type": "address"
            },
            {
              "internalType": "uint256",
              "name": "amount",
              "type": "uint256"
            },
            {
              "internalType": "uint256",
              "name": "tokenId",
              "type": "uint256"
            },
            {
              "internalType": "bytes",
              "name": "data",
              "type": "bytes"
            }
          ],
          "internalType": "struct ContainerItem[]",
          "name": "items",
          "type": "tuple[]"
        },
        {
          "internalType": "uint8",
          "name": "currencyType",
          "type": "uint8"
        },
        {
          "internalType": "uint256",
          "name": "maxAmount",
          "type": "uint256"
        },
        {
          "internalType": "uint256",
          "name": "nonce_",
          "type": "uint256"
        },
        {
          "internalType": "uint256",
          "name": "deadline_",
          "type": "uint256"
        },
        {
          "internalType": "bytes",
          "name": "sig",
          "type": "bytes"
        }
      ],
      "name": "relayContainerMainRelayedOpenUsdcTopupThenPoints",
      "outputs": [],
      "stateMutability": "nonpayable",
      "type": "function"
    },
    {
      "inputs": [
        {
          "internalType": "address",
          "name": "account",
          "type": "address"
        },
        {
          "internalType": "bytes32",
          "name": "passwordHash",
          "type": "bytes32"
        },
        {
          "internalType": "uint32",
          "name": "totalCount",
          "type": "uint32"
        },
        {
          "internalType": "uint64",
          "name": "expiry",
          "type": "uint64"
        },
        {
          "components": [
            {
              "internalType": "enum AssetKind",
              "name": "kind",
              "type": "uint8"
            },
            {
              "internalType": "address",
              "name": "asset",
              "type": "address"
            },
            {
              "internalType": "uint256",
              "name": "amount",
              "type": "uint256"
            },
            {
              "internalType": "uint256",
              "name": "tokenId",
              "type": "uint256"
            },
            {
              "internalType": "bytes",
              "name": "data",
              "type": "bytes"
            }
          ],
          "internalType": "struct ContainerItem[]",
          "name": "items",
          "type": "tuple[]"
        }
      ],
      "name": "relayCreateFaucetPool",
      "outputs": [],
      "stateMutability": "nonpayable",
      "type": "function"
    },
    {
      "inputs": [
        {
          "internalType": "address",
          "name": "account",
          "type": "address"
        },
        {
          "internalType": "bytes32",
          "name": "passwordHash",
          "type": "bytes32"
        },
        {
          "internalType": "address",
          "name": "to",
          "type": "address"
        },
        {
          "components": [
            {
              "internalType": "enum AssetKind",
              "name": "kind",
              "type": "uint8"
            },
            {
              "internalType": "address",
              "name": "asset",
              "type": "address"
            },
            {
              "internalType": "uint256",
              "name": "amount",
              "type": "uint256"
            },
            {
              "internalType": "uint256",
              "name": "tokenId",
              "type": "uint256"
            },
            {
              "internalType": "bytes",
              "name": "data",
              "type": "bytes"
            }
          ],
          "internalType": "struct ContainerItem[]",
          "name": "items",
          "type": "tuple[]"
        },
        {
          "internalType": "uint64",
          "name": "expiry",
          "type": "uint64"
        }
      ],
      "name": "relayCreateRedeem",
      "outputs": [],
      "stateMutability": "nonpayable",
      "type": "function"
    },
    {
      "inputs": [
        {
          "internalType": "address",
          "name": "account",
          "type": "address"
        },
        {
          "internalType": "string",
          "name": "password",
          "type": "string"
        },
        {
          "internalType": "address",
          "name": "claimer",
          "type": "address"
        },
        {
          "internalType": "address",
          "name": "to",
          "type": "address"
        },
        {
          "components": [
            {
              "internalType": "enum AssetKind",
              "name": "kind",
              "type": "uint8"
            },
            {
              "internalType": "address",
              "name": "asset",
              "type": "address"
            },
            {
              "internalType": "uint256",
              "name": "amount",
              "type": "uint256"
            },
            {
              "internalType": "uint256",
              "name": "tokenId",
              "type": "uint256"
            },
            {
              "internalType": "bytes",
              "name": "data",
              "type": "bytes"
            }
          ],
          "internalType": "struct ContainerItem[]",
          "name": "items",
          "type": "tuple[]"
        }
      ],
      "name": "relayFaucetRedeemPool",
      "outputs": [],
      "stateMutability": "nonpayable",
      "type": "function"
    },
    {
      "inputs": [
        {
          "internalType": "address",
          "name": "account",
          "type": "address"
        },
        {
          "internalType": "string",
          "name": "password",
          "type": "string"
        },
        {
          "internalType": "address",
          "name": "to",
          "type": "address"
        }
      ],
      "name": "relayRedeem",
      "outputs": [],
      "stateMutability": "nonpayable",
      "type": "function"
    },
    {
      "inputs": [
        {
          "internalType": "address",
          "name": "pm",
          "type": "address"
        }
      ],
      "name": "removePayMaster",
      "outputs": [],
      "stateMutability": "nonpayable",
      "type": "function"
    },
    {
      "inputs": [
        {
          "internalType": "uint256",
          "name": "newLimit",
          "type": "uint256"
        }
      ],
      "name": "setAccountLimit",
      "outputs": [],
      "stateMutability": "nonpayable",
      "type": "function"
    },
    {
      "inputs": [
        {
          "internalType": "address",
          "name": "newModule",
          "type": "address"
        }
      ],
      "name": "setModule",
      "outputs": [],
      "stateMutability": "nonpayable",
      "type": "function"
    },
    {
      "inputs": [
        {
          "internalType": "address",
          "name": "exec",
          "type": "address"
        }
      ],
      "name": "setOpenContainerMintExecutor",
      "outputs": [],
      "stateMutability": "nonpayable",
      "type": "function"
    },
    {
      "inputs": [
        {
          "internalType": "address",
          "name": "newHelper",
          "type": "address"
        }
      ],
      "name": "setQuoteHelper",
      "outputs": [],
      "stateMutability": "nonpayable",
      "type": "function"
    },
    {
      "inputs": [
        {
          "internalType": "address",
          "name": "newUSDC",
          "type": "address"
        }
      ],
      "name": "setUSDC",
      "outputs": [],
      "stateMutability": "nonpayable",
      "type": "function"
    },
    {
      "inputs": [
        {
          "internalType": "address",
          "name": "newCard",
          "type": "address"
        }
      ],
      "name": "setUserCard",
      "outputs": [],
      "stateMutability": "nonpayable",
      "type": "function"
    },
    {
      "inputs": [
        {
          "internalType": "address",
          "name": "account",
          "type": "address"
        },
        {
          "internalType": "address",
          "name": "to",
          "type": "address"
        },
        {
          "components": [
            {
              "internalType": "enum AssetKind",
              "name": "kind",
              "type": "uint8"
            },
            {
              "internalType": "address",
              "name": "asset",
              "type": "address"
            },
            {
              "internalType": "uint256",
              "name": "amount",
              "type": "uint256"
            },
            {
              "internalType": "uint256",
              "name": "tokenId",
              "type": "uint256"
            },
            {
              "internalType": "bytes",
              "name": "data",
              "type": "bytes"
            }
          ],
          "internalType": "struct ContainerItem[]",
          "name": "items",
          "type": "tuple[]"
        },
        {
          "internalType": "uint8",
          "name": "currencyType",
          "type": "uint8"
        },
        {
          "internalType": "uint256",
          "name": "maxAmount",
          "type": "uint256"
        },
        {
          "internalType": "uint256",
          "name": "nonce_",
          "type": "uint256"
        },
        {
          "internalType": "uint256",
          "name": "deadline_",
          "type": "uint256"
        },
        {
          "internalType": "bytes",
          "name": "sig",
          "type": "bytes"
        }
      ],
      "name": "simulateRelayOpen",
      "outputs": [
        {
          "internalType": "bool",
          "name": "ok",
          "type": "bool"
        },
        {
          "internalType": "string",
          "name": "reason",
          "type": "string"
        }
      ],
      "stateMutability": "view",
      "type": "function"
    },
    {
      "inputs": [
        {
          "internalType": "address",
          "name": "account",
          "type": "address"
        },
        {
          "internalType": "address",
          "name": "pointsTo",
          "type": "address"
        },
        {
          "components": [
            {
              "internalType": "enum AssetKind",
              "name": "kind",
              "type": "uint8"
            },
            {
              "internalType": "address",
              "name": "asset",
              "type": "address"
            },
            {
              "internalType": "uint256",
              "name": "amount",
              "type": "uint256"
            },
            {
              "internalType": "uint256",
              "name": "tokenId",
              "type": "uint256"
            },
            {
              "internalType": "bytes",
              "name": "data",
              "type": "bytes"
            }
          ],
          "internalType": "struct ContainerItem[]",
          "name": "items",
          "type": "tuple[]"
        },
        {
          "internalType": "uint8",
          "name": "currencyType",
          "type": "uint8"
        },
        {
          "internalType": "uint256",
          "name": "maxAmount",
          "type": "uint256"
        },
        {
          "internalType": "uint256",
          "name": "nonce_",
          "type": "uint256"
        },
        {
          "internalType": "uint256",
          "name": "deadline_",
          "type": "uint256"
        },
        {
          "internalType": "bytes",
          "name": "sig",
          "type": "bytes"
        }
      ],
      "name": "simulateRelayOpenUsdcTopupThenPoints",
      "outputs": [
        {
          "internalType": "bool",
          "name": "ok",
          "type": "bool"
        },
        {
          "internalType": "string",
          "name": "reason",
          "type": "string"
        }
      ],
      "stateMutability": "view",
      "type": "function"
    },
    {
      "inputs": [
        {
          "internalType": "address",
          "name": "newAdmin",
          "type": "address"
        }
      ],
      "name": "transferAdmin",
      "outputs": [],
      "stateMutability": "nonpayable",
      "type": "function"
    },
    {
      "inputs": [
        {
          "internalType": "address",
          "name": "newDeployer",
          "type": "address"
        }
      ],
      "name": "updateDeployer",
      "outputs": [],
      "stateMutability": "nonpayable",
      "type": "function"
    },
    {
      "inputs": [
        {
          "internalType": "bytes32",
          "name": "",
          "type": "bytes32"
        }
      ],
      "name": "usedOwnerExecuteNonces",
      "outputs": [
        {
          "internalType": "bool",
          "name": "",
          "type": "bool"
        }
      ],
      "stateMutability": "view",
      "type": "function"
    },
    {
      "inputs": [
        {
          "internalType": "bytes32",
          "name": "",
          "type": "bytes32"
        }
      ],
      "name": "usedRedeemerExecuteNonces",
      "outputs": [
        {
          "internalType": "bool",
          "name": "",
          "type": "bool"
        }
      ],
      "stateMutability": "view",
      "type": "function"
    },
    {
      "inputs": [
        {
          "components": [
            {
              "internalType": "address",
              "name": "sender",
              "type": "address"
            },
            {
              "internalType": "uint256",
              "name": "nonce",
              "type": "uint256"
            },
            {
              "internalType": "bytes",
              "name": "initCode",
              "type": "bytes"
            },
            {
              "internalType": "bytes",
              "name": "callData",
              "type": "bytes"
            },
            {
              "internalType": "bytes32",
              "name": "accountGasLimits",
              "type": "bytes32"
            },
            {
              "internalType": "uint256",
              "name": "preVerificationGas",
              "type": "uint256"
            },
            {
              "internalType": "bytes32",
              "name": "gasFees",
              "type": "bytes32"
            },
            {
              "internalType": "bytes",
              "name": "paymasterAndData",
              "type": "bytes"
            },
            {
              "internalType": "bytes",
              "name": "signature",
              "type": "bytes"
            }
          ],
          "internalType": "struct PackedUserOperation",
          "name": "userOp",
          "type": "tuple"
        },
        {
          "internalType": "bytes32",
          "name": "",
          "type": "bytes32"
        },
        {
          "internalType": "uint256",
          "name": "",
          "type": "uint256"
        }
      ],
      "name": "validatePaymasterUserOp",
      "outputs": [
        {
          "internalType": "bytes",
          "name": "context",
          "type": "bytes"
        },
        {
          "internalType": "uint256",
          "name": "validationData",
          "type": "uint256"
        }
      ],
      "stateMutability": "view",
      "type": "function"
    },
    {
      "inputs": [
        {
          "internalType": "address payable",
          "name": "to",
          "type": "address"
        },
        {
          "internalType": "uint256",
          "name": "amount",
          "type": "uint256"
        }
      ],
      "name": "withdrawTo",
      "outputs": [],
      "stateMutability": "nonpayable",
      "type": "function"
    },
    {
      "stateMutability": "payable",
      "type": "receive"
    }
  ],
  "bytecode": "0x60a080604052346103a1575f9060c0816157b2803803809161002182856103f9565b8339810103126103a15780519061003a6020820161041c565b6100466040830161041c565b6100526060840161041c565b9161006b60a06100646080870161041c565b950161041c565b85156103a1576001600160a01b0382169182151590816103ee575b50156103a1576001600160a01b0383169283151590816103e3575b50156103a1576001600160a01b0384169384151590816103d8575b50156103a1576001600160a01b0385169485151590816103cd575b50156103a1576001600160a01b03169485156103a1573360018060a01b03196002541617600255600855335f52600760205260405f20600160ff19825416179055600654680100000000000000008110156103b95760018101806006558110156103a55760065f9081527ff652222313e28459528d920b65115c16c04f3efc82aaedc97be59f3f377c0d3f9190910180546001600160a01b0319908116331790915581541682178155604051919081907f4590909f6ea280ffff8f32337577f35ec6cbec73ab17ad9723c587bf0af57d668180a3803b156103a157816024815f8094630b768f0160e31b83523060048401525af161038c575b50600b80546001600160a01b03199081168317909155600c8054821684179055600d8054821685179055600e805490911685179055847f94090355cefa089509f2588ee4b2bb59a298fb3659084d51fb9031be473778fa8180a3837f6aef46ee3c64427223c083525f2408ad9ab39ea6d416ad7bfeea85b03e50f0fb8180a3827f37ba2134170b95d2cb7f7e41093c80ce20a19e466c3dd2939bd456ce2cec7fba8180a3817f34bce51e81ccc5ca6cb9c21024c6824f3a4711ae2d1e6e8e4881317ff6d1c4138180a36040516102a76040826103f9565b601481527f4265616d696f4163636f756e74466163746f727900000000000000000000000060209091015250604080517f6f500dcbca73301adb468cc17d75120182a92fbfe5577b5a867bb5dc7eed5fff9161030390826103f9565b600181526020810190603160f81b82525190206040519060208201927f8b73c3c69bb8fe3d512ecc4cf759cc79239f7b179b0ffacaa9a75d522b39400f8452604083015260608201524660808201523060a082015260a0815261036760c0826103f9565b5190206080526040516153819081610431823960805181818161091501526115b30152f35b6103999195505f906103f9565b5f935f6101d0565b5f80fd5b634e487b7160e01b5f52603260045260245ffd5b634e487b7160e01b5f52604160045260245ffd5b90503b15155f6100d7565b90503b15155f6100bc565b90503b15155f6100a1565b90503b15155f610086565b601f909101601f19168101906001600160401b038211908210176103b957604052565b51906001600160a01b03821682036103a15756fe608080604052600436101561001c575b50361561001a575f80fd5b005b5f905f3560e01c908163012622db14611c2f5750806306b206eb14611bf457806308a8c59914610e185780630e1398b914611b5f5780630ef446c81461174f578063205c2878146116c057806331a04f1d146116915780633256be02146116155780633330c790146115d65780633644e5151461159b5780633c561eae14611557578063431d55c8146114b55780634594eebd146113a657806347f543bc146113115780634c80da5e146112975780634d413e7d146111d557806352b7512c1461115e57806362c5cc9f146110ea578063646e338c146110c257806368c842d6146110835780636eb30f651461105b57806375829def146110085780637844c2ea14610fc05780637b0ff3b614610f975780637c627b2114610f3f578063865d8eb914610eaa57806389a3027114610e815780638cb84e1814610e595780638cc1bb2514610e1857806391ce212614610d9a57806394430fa514610d6f57806397f53dc814610c1a5780639dca362f14610bed578063a8062de514610bbd578063a9829da014610b94578063ae8a41cf14610b5b578063b3e089a214610ad9578063b41c826714610a5f578063c1cfc34a14610817578063c690f030146107f3578063ce85715d146107ca578063d0e30db014610757578063d1e8435f146106d9578063d5f39488146106b2578063d752bdaa146105e8578063dceba94914610568578063e914d7411461045c578063eba5ef9014610424578063f3f16c54146103f5578063f5b21d8e146102dd578063f6c4389c146102bf578063f851a440146102965763fc3c56fd0361000f5734610293578060031936011261029357600d546040516001600160a01b039091168152602090f35b80fd5b50346102935780600319360112610293576002546040516001600160a01b039091168152602090f35b50346102935780600319360112610293576020600854604051908152f35b50346102935760a036600319011261029357806102f8611d37565b60443563ffffffff81168091036103f1576064356001600160401b038116908190036103ef576084356001600160401b0381116103eb5761033d903690600401611d77565b919093338652600760205260ff604087205416156103e7576001600160a01b03168086526001602052604086205490919060ff16156103e757813b156103e7578580946103ba60405197889687958694638904efbf60e01b8652602435600487015260248601526044850152608060648501526084840191612023565b03925af180156103dc576103cb5750f35b816103d591611fcc565b6102935780f35b6040513d84823e3d90fd5b8580fd5b8480fd5b505b5050fd5b50346102935760203660031901126102935760ff60406020926004358152600a84522054166040519015158152f35b50346102935761044861043636611e41565b98979097969196959295949394612984565b9061045860405192839283611fb0565b0390f35b50346102935760c03660031901126102935780610477611d37565b6024356001600160a01b03811691908290036103f1576044356001600160401b0381116103ef576104ac903690600401611d77565b9160a4356001600160401b0381116103e7576104cc903690600401611da7565b939091338752600760205260ff60408820541615610564576001600160a01b03168087526001602052604087205490929060ff161561056457823b1561056457610542956103ba8896928793604051998a98899788966308b1e12f60e31b8852600488015260a0602488015260a4870191612023565b9160643560448601526084356064860152600319858403016084860152612003565b8680fd5b5034610293578061057836611e41565b90959694989792939197338b52600760205260ff60408c205416156105e4576001600160a01b0316808b52600160205260408b205490969060ff16156105e457863b156105e4578a9889956103ba946040519c8d9b8c9a8b996302da802f60e41b8b5260048b016124a0565b8a80fd5b50346102935760603660031901126102935780610603611d37565b6024356001600160401b0381116103f157610622903690600401611da7565b61062a611d4d565b92338552600760205260ff604086205416156103eb576001600160a01b03168085526001602052604085205460ff16156103eb57803b156103eb5784928361069193604051968795869485936335f100a760e21b8552604060048601526044850191612003565b6001600160a01b03909116602483015203925af180156103dc576103cb5750f35b5034610293578060031936011261029357546040516001600160a01b039091168152602090f35b5034610293578060031936011261029357338152600560205260408120604051918260208354918281520192825260208220915b818110610738576104588561072481870382611fcc565b604051918291602083526020830190611f74565b82546001600160a01b031684526020909301926001928301920161070d565b508060031936011261029357338152600760205260ff60408220541615610293576f71727de22e5e9d8baf0edac6f37da0323b156102935760405163b760faf960e01b815230600482015281908181602481346f71727de22e5e9d8baf0edac6f37da0325af180156103dc576103cb5750f35b5034610293578060031936011261029357600c546040516001600160a01b039091168152602090f35b50346102935761044861080536611e41565b989790979691969592959493946128e7565b5034610293578061082736611dd4565b90949394929192338852600760205260ff60408920541615610a4c576001600160a01b0387168089526001602052604089205490979060ff1615610a5b578715159081610a50575b5015610a4c578515610a4c57824211610a4c57604051638da5cb5b60e01b8152916020836004818b5afa918215610a4157898961096896898b9784976109f8575b50916109599493916108cb6109519461095f999a369161244f565b60208151910120604051926020840194505f5160206153355f395f51905f5285526040840152606083015260808201528960a082015260a0815261091060c082611fcc565b5190207f00000000000000000000000000000000000000000000000000000000000000006042916040519161190160f01b8352600283015260228201522090565b92369161244f565b90612a51565b90939193612a8b565b6001600160a01b039081169116036103eb576040516020810191858352604082015260408152610999606082611fcc565b519020808552600960205260ff6040862054166103eb578452600960205260408420805460ff19166001179055823b156103ef576103ba9284928360405180968195829463714f37d960e01b8452602060048501526024840191612003565b61095f9750916108cb6109519492610a2c61095998979560203d602011610a3a575b610a248183611fcc565b810190612123565b9950929450509193946108b0565b503d610a1a565b6040513d8b823e3d90fd5b8780fd5b90503b15155f61086f565b8880fd5b50346102935780610a6f36611f11565b9091338452600760205260ff604085205416156103ef576001600160a01b03168084526001602052604084205490929060ff16156103ef57823b156103ef576103ba92849283604051809681958294633daddb5b60e21b8452602060048501526024840191612003565b503461029357602036600319011261029357610af3611d37565b6002546001600160a01b03163303610b57576001600160a01b03168015610b5757600e54816001600160a01b0382167f34bce51e81ccc5ca6cb9c21024c6824f3a4711ae2d1e6e8e4881317ff6d1c4138580a36001600160a01b03191617600e5580f35b5080fd5b5034610293576020366003190112610293576020906040906001600160a01b03610b83611d37565b168152600383522054604051908152f35b5034610293578060031936011261029357600f546040516001600160a01b039091168152602090f35b5034610293576040366003190112610293576020610be5610bdc611d37565b60243590612814565b604051908152f35b50346102935780600319360112610293576020610c086125ab565b6040516001600160a01b039091168152f35b503461029357602036600319011261029357610c34611d37565b6002546001600160a01b03163303610b57576001600160a01b03168082526007602052604082205460ff1615610b575760016006541115610b5757808252600760205260408220805460ff19169055600654825b818110610c93578380f35b82610c9d82611ed0565b905460039190911b1c6001600160a01b031614610cbc57600101610c88565b91505f198101908111610d5b5790610cf1610cd9610d1593611ed0565b905460039190911b1c6001600160a01b031691611ed0565b9080546001600160a01b0360039390931b83811b199091169290931690921b179055565b6006548015610d47575f1901610d2a81611ed0565b81549060018060a01b039060031b1b191690556006555f80808380f35b634e487b7160e01b82526031600452602482fd5b634e487b7160e01b83526011600452602483fd5b503461029357806003193601126102935760206040516f71727de22e5e9d8baf0edac6f37da0328152f35b503461029357806003193601126102935760405160068054808352908352909160208301917ff652222313e28459528d920b65115c16c04f3efc82aaedc97be59f3f377c0d3f915b818110610df9576104588561072481870382611fcc565b82546001600160a01b0316845260209093019260019283019201610de2565b5034610293576020366003190112610293576020906001600160a01b03610e3d611d37565b16815260048252604060018060a01b0391205416604051908152f35b5034610293576040366003190112610293576020610c08610e78611d37565b60243590612544565b5034610293578060031936011261029357600e546040516001600160a01b039091168152602090f35b503461029357602036600319011261029357610ec4611d37565b6002546001600160a01b03163303610b57576001600160a01b038116908115159081610f34575b5015610b5757600d54816001600160a01b0382167f37ba2134170b95d2cb7f7e41093c80ce20a19e466c3dd2939bd456ce2cec7fba8580a36001600160a01b03191617600d5580f35b90503b15155f610eeb565b50346102935760803660031901126102935760036004351015610293576024356001600160401b038111610b5757610f7b903690600401611da7565b50506f71727de22e5e9d8baf0edac6f37da03233036102935780f35b5034610293578060031936011261029357600b546040516001600160a01b039091168152602090f35b503461029357602036600319011261029357600254600435906001600160a01b03163303610b575780151580610ffc575b15610b575760085580f35b50612710811115610ff1565b503461029357602036600319011261029357611022611d37565b600254906001600160a01b0382163303611057576001600160a01b0316908115611057576001600160a01b0319161760025580f35b8280fd5b503461029357806003193601126102935760206040515f5160206153355f395f51905f528152f35b50346102935760203660031901126102935760209060ff906040906001600160a01b036110ae611d37565b168152600784522054166040519015158152f35b503461029357806003193601126102935760206040515f5160206153155f395f51905f528152f35b503461029357602036600319011261029357611104611d37565b6002546001600160a01b03163303610b5757600f546001600160a01b0391821691829082167f32c07317757064462b987ba3d67c832e54a0c072c26e0feac2edc2832157086f8580a36001600160a01b03191617600f5580f35b503461029357606036600319011261029357600435906001600160401b038211610293576101206003198336030112610293576f71727de22e5e9d8baf0edac6f37da0323303610293576111cb6111b7836004016124f0565b604051928392604084526040840190611f50565b9060208301520390f35b503461029357602036600319011261029357806111f0611d37565b6002546001600160a01b03163303611289576001600160a01b03811690811515908161128c575b501561128957815460405191908190816001600160a01b0382167f4590909f6ea280ffff8f32337577f35ec6cbec73ab17ad9723c587bf0af57d668780a36001600160a01b031916178355803b156103f15781602481858094630b768f0160e31b83523060048401525af16103cb5750f35b50fd5b90503b15155f611217565b503461029357806112a736611f11565b9091338452600760205260ff604085205416156103ef576001600160a01b03168084526001602052604084205490929060ff16156103ef57823b156103ef576103ba928492836040518096819582946365e270d560e11b8452602060048501526024840191612003565b50346102935760203660031901126102935761132b611d37565b6002546001600160a01b03163303610b57576001600160a01b03811690811515908161139b575b5015610b5757600b54816001600160a01b0382167f94090355cefa089509f2588ee4b2bb59a298fb3659084d51fb9031be473778fa8580a36001600160a01b03191617600b5580f35b90503b15155f611352565b50346102935760a036600319011261029357806113c1611d37565b6024356001600160401b0381116103f1576113e0903690600401611da7565b6113eb929192611d4d565b906064359360018060a01b0385168095036103e7576084356001600160401b0381116105645761141f903690600401611d77565b9094338852600760205260ff60408920541615610a4c576001600160a01b03168088526001602052604088205490939060ff1615610a4c57833b15610a4c576103ba61148f9589979388946040519a8b998a988997633fbf640f60e11b8952608060048a01526084890191612003565b6001600160a01b0390941660248701526044860152848303600319016064860152612023565b5034610293576020366003190112610293576114cf611d37565b6002546001600160a01b03163303610b57576001600160a01b038116801561105757808352600760205260ff604084205416611057578252600760205260408220805460ff19166001179055600654600160401b8110156115435790610cf182600161154094016006556006611efc565b80f35b634e487b7160e01b83526041600452602483fd5b5034610293576020366003190112610293576004359060065482101561029357602061158283611ed0565b905460405160039290921b1c6001600160a01b03168152f35b503461029357806003193601126102935760206040517f00000000000000000000000000000000000000000000000000000000000000008152f35b50346102935760203660031901126102935760209060ff906040906001600160a01b03611601611d37565b168152600184522054166040519015158152f35b5034610293578061162536611e41565b90959694989792939197338b52600760205260ff60408c205416156105e4576001600160a01b0316808b52600160205260408b205490969060ff16156105e457863b156105e4578a9889956103ba946040519c8d9b8c9a8b996305dd14ff60e31b8b5260048b016124a0565b50346102935760203660031901126102935760ff60406020926004358152600984522054166040519015158152f35b503461029357604036600319011261029357806116db611d37565b6002546001600160a01b03163303611289576f71727de22e5e9d8baf0edac6f37da0323b156112895760405163040b850f60e31b81526001600160a01b03909116600482015260248035908201528181604481836f71727de22e5e9d8baf0edac6f37da0325af180156103dc576103cb5750f35b50346102935761175e36611dd4565b909695949296338752600760205260ff60408820541615610564576001600160a01b0386168088526001602052604088205490969060ff1615610a4c578615159081611b54575b5015610564576004851061056457874211610564576001600160e01b03198435166335f100a760e21b8114989089908115611b43575b5015610a4c5791610959611843926109518a61184c966117fc368c8c61244f565b6020815191012090604051916020830193505f5160206153155f395f51905f5284528d6040840152606083015260808201528860a082015260a0815261091060c082611fcc565b90929192612a8b565b6001600160a01b03169586156103e7571561196357826004116103eb57818301604083820360031901126103e75760048301356001600160401b0381116105645790600461189c92850101612485565b506001600160a01b036118b160248401611d63565b165b6001600160a01b031680870361194c57508495506040516020810191600183528560408301526060820152606081526118ed608082611fcc565b519020808552600a60205260ff6040862054166103eb578452600a60205260408420805460ff19166001179055823b156103ef576103ba9284928360405180968195829463714f37d960e01b8452602060048501526024840191612003565b633908d72560e21b86526004879052602452604485fd5b826004116103eb57818301608083820360031901126103e75760048301356001600160401b0381116105645781600461199e92860101612485565b506119ab60248401611d63565b6119b760448501611d63565b9160648501356001600160401b038111610a5b57850181602382011215610a5b576004810135916001600160401b038311611b2f5760206004818560051b9581870190611a076040519283611fcc565b8152019484010101918183116105e45760248101935b838510611a4f575050506001600160a01b0392831693909216831491506118b3905057631083973d60e31b8652600486fd5b84356001600160401b038111611b2b5760049083010160a0601f198286030112611b2b576040519060a082016001600160401b03811183821017611b175760405260208101356002811015611b13578252611aac60408201611d63565b6020830152606081810135604084015260808201359083015260a0810135906001600160401b038211611b135790602091010184601f82011215611b0f579160209291611aff868486809635910161244f565b6080820152815201940193611a1d565b8d80fd5b8e80fd5b634e487b7160e01b8f52604160045260248ffd5b8c80fd5b634e487b7160e01b8a52604160045260248afd5b633fbf640f60e11b1490505f6117db565b90503b15155f6117a5565b503461029357602036600319011261029357611b79611d37565b6002546001600160a01b03163303610b57576001600160a01b038116908115159081611be9575b5015610b5757600c54816001600160a01b0382167f6aef46ee3c64427223c083525f2408ad9ab39ea6d416ad7bfeea85b03e50f0fb8580a36001600160a01b03191617600c5580f35b90503b15155f611ba0565b503461029357602036600319011261029357611c0e611d37565b90338152600760205260ff60408220541615610293576020610c08836121a3565b905034611d335760a0366003190112611d3357611c4a611d37565b611c52611d4d565b906064356001600160401b038111611d3357611c72903690600401611d77565b926084356001600160401b0381169390849003611d3357335f52600760205260ff60405f20541615611d33576001600160a01b03165f8181526001602052604090205490929060ff1615611d3357823b15611d3357858094611d045f97938894849663ddafb9a960e01b8652602435600487015260018060a01b03166024860152608060448601526084850191612023565b90606483015203925af18015611d2857611d1c575080f35b61001a91505f90611fcc565b6040513d5f823e3d90fd5b5f80fd5b600435906001600160a01b0382168203611d3357565b604435906001600160a01b0382168203611d3357565b35906001600160a01b0382168203611d3357565b9181601f84011215611d33578235916001600160401b038311611d33576020808501948460051b010111611d3357565b9181601f84011215611d33578235916001600160401b038311611d335760208381860195010111611d3357565b9060a0600319830112611d33576004356001600160a01b0381168103611d3357916024356001600160401b038111611d335781611e1391600401611da7565b909290916044359160643591608435906001600160401b038211611d3357611e3d91600401611da7565b9091565b610100600319820112611d33576004356001600160a01b0381168103611d3357916024356001600160a01b0381168103611d3357916044356001600160401b038111611d335781611e9491600401611d77565b9290929160643560ff81168103611d3357916084359160a4359160c4359160e435906001600160401b038211611d3357611e3d91600401611da7565b600654811015611ee85760065f5260205f2001905f90565b634e487b7160e01b5f52603260045260245ffd5b8054821015611ee8575f5260205f2001905f90565b906040600319830112611d33576004356001600160a01b0381168103611d335791602435906001600160401b038211611d3357611e3d91600401611da7565b805180835260209291819084018484015e5f828201840152601f01601f1916010190565b90602080835192838152019201905f5b818110611f915750505090565b82516001600160a01b0316845260209384019390920191600101611f84565b604090611fc99392151581528160208201520190611f50565b90565b601f909101601f19168101906001600160401b03821190821017611fef57604052565b634e487b7160e01b5f52604160045260245ffd5b908060209392818452848401375f828201840152601f01601f1916010190565b906020838281520160208260051b85010193835f915b8483106120495750505050505090565b909192939495601f198282030185528635609e1984360301811215611d3357830180356002811015611d335782526001600160a01b0361208b60208301611d63565b16602083015260408101356040830152606081013560608301526080810135601e1982360301811215611d3357016020810190356001600160401b038111611d33578036038213611d33576120f0602092839260a08681608060019901520191612003565b980196950193019190612039565b80549190600160401b831015611fef5782610cf191600161212195018155611efc565b565b90816020910312611d3357516001600160a01b0381168103611d335790565b604090611fc9939281528160208201520190611f50565b805115611ee85760200190565b9161218c9060609295949560018060a01b03168452608060208501526080840190611f74565b600160408401526001600160a01b03909416910152565b5f906001600160a01b0381168015611d3357805f52600360205260405f205492600854841015611d33576121d78484612544565b936001810180821161242057835f52600360205260405f2055843b612387575f94506122038185612814565b855460209061223a906001600160a01b031661221d6129d5565b604051998a809481936366e5bb0560e11b83528860048401612142565b03925af1958615611d28575f96612366575b5060409283519561225d8588611fcc565b60018752601f1985013660208901378561227688612159565b526001600160a01b03881696873b15611d3357855163c587148560e01b8152915f91839182916122ac9130919060048501612166565b0381838b5af1801561235c579185949392915f5160206153555f395f51905f529692612347575b508781526001602052818120600160ff1982541617905586815260056020526122fe898383206120fe565b8681526004602052818120546001600160a01b031615612327575b50519182526020820152a390565b86815260046020522080546001600160a01b03191687179055825f612319565b61235492505f9150611fcc565b825f5f6122d3565b85513d5f823e3d90fd5b61238091965060203d602011610a3a57610a248183611fcc565b945f61224c565b50506001600160a01b0383165f8181526001602052604090205490925060ff16156123ef575b5f818152600460205260409020546001600160a01b0316156123ce57505090565b5f90815260046020526040902080546001600160a01b031916909117905590565b815f52600160205260405f20600160ff19825416179055805f52600560205261241b8360405f206120fe565b6123ad565b634e487b7160e01b5f52601160045260245ffd5b6001600160401b038111611fef57601f01601f191660200190565b92919261245b82612434565b916124696040519384611fcc565b829481845281830111611d33578281602093845f960137010152565b9080601f83011215611d3357816020611fc99335910161244f565b94916124cd90611fc99a989599979460ff9360018060a01b0316885260e0602089015260e0880191612023565b971660408501526060840152608083015260a082015260c0818503910152612003565b356001600160a01b03811690819003611d33575f52600160205260ff60405f2054161561252d57604051612525602082611fcc565b5f8152905f90565b60405161253b602082611fcc565b5f815290600190565b9061254e91612814565b6125566129d5565b602081519101205f549060405192602084019260ff60f81b845260018060601b03199060601b166021850152603584015260558301526055825261259b607583611fcc565b905190206001600160a01b031690565b5f335f52600360205260405f205490600854821015611d33576125ce8233612544565b916001810180821161242057335f52600360205260405f2055823b61277d575f92506125fa8133612814565b8354602090612631906001600160a01b03166126146129d5565b6040519788809481936366e5bb0560e11b83528860048401612142565b03925af1938415611d28575f9461275c575b506040908151936126548386611fcc565b60018552601f1983013660208701373361266d86612159565b526001600160a01b03861694853b15611d33575f6126a19185518093819263c587148560e01b835230903360048501612166565b0381838a5af180156127525791849392915f5160206153555f395f51905f52959261273d575b508681526001602052818120600160ff1982541617905533815260056020526126f2888383206120fe565b3381526004602052818120546001600160a01b03161561271d575b505193845260208401523392a390565b33815260046020522080546001600160a01b03191686179055815f61270d565b61274a92505f9150611fcc565b815f5f6126c7565b84513d5f823e3d90fd5b61277691945060203d602011610a3a57610a248183611fcc565b925f612643565b50506001600160a01b0381165f8181526001602052604090205460ff16156127e3575b335f908152600460205260409020546001600160a01b0316156127c1575090565b335f90815260046020526040902080546001600160a01b031916909117905590565b805f52600160205260405f20600160ff19825416179055335f52600560205261280f8260405f206120fe565b6127a0565b604080516001600160a01b039092166020830190815282820193909352815261283e606082611fcc565b51902090565b60405190612853604083611fcc565b60128252711b9bdd081899585b5a5bc81858d8dbdd5b9d60721b6020830152565b9190604083820312611d335782518015158103611d3357602084015190936001600160401b038211611d33570181601f82011215611d33578051906128b882612434565b926128c66040519485611fcc565b82845260208383010111611d3357815f9260208093018386015e8301015290565b999792969194959093989960018060a01b031695865f52600160205260ff60405f2054161561296f579161293893915f999a9b936040519c8d9a8b998a996302b353db60e21b8b5260048b016124a0565b03915afa918215611d28575f905f9361295057509190565b9050611e3d9192503d805f833e6129678183611fcc565b810190612874565b50505050505050509150505f90611fc9612844565b999792969194959093989960018060a01b031695865f52600160205260ff60405f2054161561296f579161293893915f999a9b936040519c8d9a8b998a996317c8853760e31b8b5260048b016124a0565b61279d611fc96040516129eb6020840182611fcc565b8281526020810192612b7884396020604051818101906f71727de22e5e9d8baf0edac6f37da0328252828152612a22604082611fcc565b6040519586945180918587015e840190838201905f8252519283915e01015f815203601f198101835282611fcc565b8151919060418303612a8157612a7a9250602082015190606060408401519301515f1a90612aff565b9192909190565b50505f9160029190565b6004811015612aeb5780612a9d575050565b60018103612ab45763f645eedf60e01b5f5260045ffd5b60028103612acf575063fce698f760e01b5f5260045260245ffd5b600314612ad95750565b6335e2f38360e21b5f5260045260245ffd5b634e487b7160e01b5f52602160045260245ffd5b91906fa2a8918ca85bafe22016d0b997e4df60600160ff1b038411612b6c579160209360809260ff5f9560405194855216868401526040830152606082015282805260015afa15611d28575f516001600160a01b03811615612b6257905f905f90565b505f906001905f90565b5050505f916003919056fe60a03461009457601f61279d38819003918201601f19168301916001600160401b038311848410176100985780849260209460405283398101031261009457516001600160a01b0381168103610094576080526040516126f090816100ad82396080518181816105b2015281816106320152818161097101528181610df101528181610e65015281816114860152611d0e0152f35b5f80fd5b634e487b7160e01b5f52604160045260245ffdfe6080604052600436101561001a575b3615610018575f80fd5b005b5f3560e01c806301ffc9a7146102595780630acd4f6c146102545780630c23008c1461024f5780630eba3b4b1461024a5780631626ba7e1461024557806317af07f31461024057806319822f7c1461023b5780632ca632c0146102365780632da802f0146102315780632ee8a7f81461022c5780633afce5081461022757806342cde4e814610222578063458f09781461021d57806347e1da2a146102185780634b11a9c0146102135780635bb478081461020e578063714f37d9146102095780637f7ec81e146102045780638904efbf146101ff5780638da5cb5b146101fa578063964cda87146101f5578063b0d691fe146101f0578063b61d27f6146101eb578063b81ab7bc146101e6578063bc197c81146101e1578063be4429b8146101dc578063bffb8695146101d7578063c45a0155146101d2578063c5871485146101cd578063cafd6a3d146101c8578063cbc4e1aa146101c3578063d7c4029c146101be578063ddafb9a9146101b9578063e3b35c30146101b4578063f23a6e61146101af5763f6b76d6c0361000e576119bf565b611966565b611812565b61160e565b611583565b611534565b6114ee565b611352565b61132a565b611278565b611238565b61119f565b610efa565b610e20565b610ddc565b610da6565b610d7f565b610cd8565b610bc1565b610b92565b610aef565b610aa9565b6108fe565b610829565b61080c565b6107c0565b61076d565b61070b565b6106c4565b6105f8565b61057c565b61052a565b6104be565b61047e565b6103ef565b346102af5760203660031901126102af5760043563ffffffff60e01b81168091036102af57602090630271189760e51b811490811561029e575b506040519015158152f35b6301ffc9a760e01b1490505f610293565b5f80fd5b6001600160a01b031690565b6001600160a01b038116036102af57565b9181601f840112156102af578235916001600160401b0383116102af576020808501948460051b0101116102af57565b60ff8116036102af57565b9181601f840112156102af578235916001600160401b0383116102af57602083818601950101116102af57565b9060e06003198301126102af57600435610351816102bf565b916024356001600160401b0381116102af5781610370916004016102d0565b9290929160443561038081610300565b91606435916084359160a4359160c435906001600160401b0382116102af576103ab9160040161030b565b9091565b805180835260209291819084018484015e5f828201840152601f01601f1916010190565b6040906103ec93921515815281602082015201906103af565b90565b346102af5761045161044261042f61043d61040936610338565b9560409a979a959195949294519a8b996302b353db60e21b60208c015260248b01611b38565b03601f198101835282611097565b612012565b60208082518301019101611bd8565b90610461604051928392836103d3565b0390f35b6001600160a01b03165f90815260026020526040902090565b346102af5760203660031901126102af5760043561049b816102bf565b60018060a01b03165f526002602052602060ff60405f2054166040519015158152f35b346102af5760403660031901126102af576004356104db816102bf565b5f54602435906001600160a01b0316330361051b576105166100189261042f604051938492630eba3b4b60e01b602085015260248401611c10565b612065565b63ea8e4eb560e01b5f5260045ffd5b346102af5760403660031901126102af576004356024356001600160401b0381116102af5760209161056361056992369060040161030b565b91611c2b565b6040516001600160e01b03199091168152f35b346102af5760403660031901126102af576004356001600160401b0381116102af576105ac9036906004016102d0565b602435907f00000000000000000000000000000000000000000000000000000000000000006001600160a01b031633036105e957610018926122b2565b636b31ba1560e11b5f5260045ffd5b346102af5760603660031901126102af576004356001600160401b0381116102af5761012060031982360301126102af57602435906044357f00000000000000000000000000000000000000000000000000000000000000006001600160a01b031633036105e9576104619261067092600401611cb3565b6040519081529081906020820190565b634e487b7160e01b5f52603260045260245ffd5b6003548110156106ac5760035f5260205f2001905f90565b610680565b6001600160a01b03909116815260200190565b346102af5760203660031901126102af576004356003548110156102af5760035f525f5160206126a45f395f51905f5201546040516001600160a01b039091168152602090f35b346102af5761071936610338565b60015494989596949093919291906001600160a01b0316330361075e57610018986105169761042f966040519a8b996302da802f60e41b60208c015260248b01611b38565b631966391b60e11b5f5260045ffd5b346102af5761077b36610338565b60015494989596949093919291906001600160a01b0316330361075e57610018986105169761042f966040519a8b996305dd14ff60e31b60208c015260248b01611b38565b346102af575f3660031901126102af5760206108046107f660405163075f9ca160e31b848201526004815261043d602482611097565b828082518301019101611dc5565b604051908152f35b346102af575f3660031901126102af576020600454604051908152f35b346102af5760a03660031901126102af57600435610846816102bf565b6024356001600160401b0381116102af576108659036906004016102d0565b9060443592606435916084356001600160401b0381116102af5761088d90369060040161030b565b6001549196916001600160a01b0316330361075e5761001896610516956108e261042f95604051998a986308b1e12f60e31b60208b015260018060a01b031660248a015260a060448a015260c4890191611a51565b93606487015260848601526023198584030160a4860152611a31565b346102af5760603660031901126102af576004356001600160401b0381116102af5761092e9036906004016102d0565b6024356001600160401b0381116102af5761094d9036906004016102d0565b92906044356001600160401b0381116102af5761096e9036906004016102d0565b937f00000000000000000000000000000000000000000000000000000000000000006001600160a01b031633036105e957858114801590610a9f575b610a90575f5b8181106109b957005b6109d46109cf6109ca838589611ddd565b611ded565b6102b3565b15610a8157610a256109ea6109ca838589611ddd565b6105166109f8848b89611ddd565b359161042f610a08868c8a611df7565b90604051958694631182259360e11b602087015260248601611e0e565b505f80610a366109ca84868a611ddd565b610a41848b89611ddd565b35610a4d858b89611df7565b9190610a5e60405180948193611e32565b03925af1610a6a611c84565b9015610a7957506001016109b0565b602081519101fd5b63d92e233d60e01b5f5260045ffd5b638b140a8160e01b5f5260045ffd5b50848114156109aa565b346102af5760403660031901126102af57610018600435610ac9816102bf565b6105166024359161042f60405193849263012c46a760e61b602085015260248401611c10565b346102af5760203660031901126102af57600435610b0c816102bf565b6001546001600160a01b0381163381900361075e576001600160a01b038316928315908115610b5e575b50610a815782905f5160206126c45f395f51905f525f80a36001600160a01b03191617600155005b90503b155f610b36565b60206003198201126102af57600435906001600160401b0382116102af576103ab9160040161030b565b346102af57610ba036610b68565b6001546001600160a01b0316330361075e576100189161051691369161114e565b346102af5760803660031901126102af576004356001600160401b0381116102af57610bf190369060040161030b565b9060243591610bff836102bf565b60443590610c0c826102bf565b6064356001600160401b0381116102af576100189461051693610c3661042f9336906004016102d0565b91610c5e604051988997633fbf640f60e11b60208a0152608060248a015260a4890191611a31565b6001600160a01b03948516604488015293166064860152848303602319016084860152611a51565b6024359063ffffffff821682036102af57565b6044359063ffffffff821682036102af57565b604435906001600160401b03821682036102af57565b606435906001600160401b03821682036102af57565b346102af5760803660031901126102af57600435610cf4610c86565b610cfc610cac565b916064356001600160401b0381116102af57610d1c9036906004016102d0565b5f5491949092916001600160a01b0316330361051b57610018946105169361042f9263ffffffff604051978896638904efbf60e01b6020890152602488015216604486015260018060401b031660648501526080608485015260a4840191611a51565b346102af575f3660031901126102af575f546040516001600160a01b039091168152602090f35b346102af575f3660031901126102af5760206108046107f660405163964cda8760e01b848201526004815261043d602482611097565b346102af575f3660031901126102af576040517f00000000000000000000000000000000000000000000000000000000000000006001600160a01b03168152602090f35b346102af5760603660031901126102af57600435610e3d816102bf565b602435906044356001600160401b0381116102af57610e6090369060040161030b565b9091907f00000000000000000000000000000000000000000000000000000000000000006001600160a01b031633036105e9576001600160a01b03821615610a81575f938493610ecd604051631182259360e11b60208201526105168161042f8786888b60248601611e0e565b50826040519384928337810185815203925af1610ee8611c84565b9015610a7957005b600211156102af57565b346102af5760603660031901126102af57600435610f1781610ef0565b602435610f23816102bf565b60443590610f2f611e3f565b6001600160a01b038216939092908415610a8157610f4c81611a22565b6110185750610f5a90612485565b6020820152602060405180936370a0823160e01b82528180610f7f30600483016106b1565b03915afa801561101357610461925f91610fe4575b5081525b8051602082015180821115610fdc57610fb091611e8c565b604082015260405191829182919091604080606083019480518452602081015160208501520151910152565b50505f610fb0565b611006915060203d60201161100c575b610ffe8183611097565b810190611dc5565b5f610f94565b503d610ff4565b611e6d565b6110479361102882602094612415565b838501526040518080968194627eeac760e11b83523060048401611c10565b03915afa801561101357610461925f91611064575b508152610f98565b61107d915060203d60201161100c57610ffe8183611097565b5f61105c565b634e487b7160e01b5f52604160045260245ffd5b601f909101601f19168101906001600160401b038211908210176110ba57604052565b611083565b6001600160401b0381116110ba5760051b60200190565b9080601f830112156102af5781356110ed816110bf565b926110fb6040519485611097565b81845260208085019260051b8201019283116102af57602001905b8282106111235750505090565b8135815260209182019101611116565b6001600160401b0381116110ba57601f01601f191660200190565b92919261115a82611133565b916111686040519384611097565b8294818452818301116102af578281602093845f960137010152565b9080601f830112156102af578160206103ec9335910161114e565b346102af5760a03660031901126102af576111bb6004356102bf565b6111c66024356102bf565b6044356001600160401b0381116102af576111e59036906004016110d6565b506064356001600160401b0381116102af576112059036906004016110d6565b506084356001600160401b0381116102af57611225903690600401611184565b5060405163bc197c8160e01b8152602090f35b346102af5761045161044261042f61043d61125236610338565b9560409a979a959195949294519a8b996317c8853760e31b60208c015260248b01611b38565b346102af5760603660031901126102af576004356001600160401b0381116102af576112a89036906004016102d0565b90602435916112b6836102bf565b6112be610c99565b5f549091906001600160a01b0316330361051b576100189363ffffffff6105169361130660405196879563bffb869560e01b6020880152606060248801526084870191611a51565b6001600160a01b03909316604485015216606483015203601f198101835282611097565b346102af575f3660031901126102af576001546040516001600160a01b039091168152602090f35b346102af5760803660031901126102af5760043561136f816102bf565b6024356001600160401b0381116102af5761138e9036906004016102d0565b6044359160643561139e816102bf565b60055460ff166114e0576001600160a01b038516908115610a81576001600160a01b03811691821580156114d7575b610a8157841561051b57806113e86109cf6109ca8888611dd4565b0361051b57851580156114ce575b61051b5761145b839261143961001899611418600160ff196005541617600555565b5f80546001600160a01b0319166001600160a01b0392909216919091179055565b600180546001600160a01b0319166001600160a01b0392909216919091179055565b6040517fad307780531f6353137c35adc50ad58d71b76e76aa891e729387f2e720f2de2090806114b47f00000000000000000000000000000000000000000000000000000000000000006001600160a01b0316826106b1565b0390a35f5f5160206126c45f395f51905f528180a36122b2565b508486116113f6565b50813b156113cd565b62dc149f60e41b5f5260045ffd5b346102af5760403660031901126102af5761001860043561150e816102bf565b6105166024359161042f60405193849263cafd6a3d60e01b602085015260248401611c10565b346102af5761154236610b68565b5f549091906001600160a01b0316330361051b576105166100189261042f6040519384926365e270d560e11b60208501526020602485018181520191611a31565b346102af5760403660031901126102af576004356001600160401b0381116102af576105166115b961001892369060040161030b565b6024929192356115c8816102bf565b6115ef6040519485936335f100a760e21b6020860152604060248601526064850191611a31565b6001600160a01b0391909116604483015203601f198101835282611097565b346102af5760803660031901126102af5760043560243561162e816102bf565b6044356001600160401b0381116102af5761164d9036906004016102d0565b92611656610cc2565b5f546001600160a01b0316330361051b576116a8610516936100189660405196879563ddafb9a960e01b6020880152602487015260018060a01b031660448601526080606486015260a4850191611a51565b6001600160401b0391909116608483015203601f198101835282611097565b90602080835192838152019201905f5b8181106116e45750505090565b825160ff168452602093840193909201916001016116d7565b9080602083519182815201916020808360051b8301019401925f915b83831061172857505050505090565b9091929394602080611746600193601f1986820301875289516103af565b97019301930191939290611719565b92949391909460808401608085528651809152602060a086019701905f5b8181106117fc575050508386036020850152815180875260208701906020808260051b8a01019401915f905b8282106117d057505050506103ec949550906117c29184820360408601526116c7565b9160608184039101526116fd565b909192946020806117ee6001938d601f1990820301865289516103af565b97019201920190929161179f565b8251895260209889019890920191600101611773565b346102af5760203660031901126102af57611863600435611832816102bf565b604051630e3b35c360e41b60208201526001600160a01b039091166024808301919091528152610516604482611097565b8051810190608081602084019303126102af5760208101516001600160401b0381116102af5781019082603f830112156102af576020820151916118a6836110bf565b926118b46040519485611097565b8084526020808086019260051b84010101918583116102af57604001905b8282106119565750505060408101516001600160401b0381116102af578360206118fe92840101611e9e565b60608201519093906001600160401b0381116102af5781602061192392850101611f2d565b608083015190916001600160401b0382116102af57602061194992610461950101611f94565b9060405194859485611755565b81518152602091820191016118d2565b346102af5760a03660031901126102af576119826004356102bf565b61198d6024356102bf565b6084356001600160401b0381116102af576119ac903690600401611184565b5060405163f23a6e6160e01b8152602090f35b346102af576119cd36610b68565b5f549091906001600160a01b0316330361051b576105166100189261042f604051938492633daddb5b60e21b60208501526020602485018181520191611a31565b634e487b7160e01b5f52602160045260245ffd5b60021115611a2c57565b611a0e565b908060209392818452848401375f828201840152601f01601f1916010190565b906020838281520160208260051b85010193835f915b848310611a775750505050505090565b909192939495601f198282030185528635609e19843603018112156102af5783018035611aa381610ef0565b611aac81611a22565b82526020810135611abc816102bf565b6001600160a01b031660208301526040818101359083015260608082013590830152608081013536829003601e19018112156102af57016020810190356001600160401b0381116102af5780360382136102af57611b2a602092839260a08681608060019901520191611a31565b980196950193019190611a67565b9491611b65906103ec9a989599979460ff9360018060a01b0316885260e0602089015260e0880191611a51565b971660408501526060840152608083015260a082015260c0818503910152611a31565b929192611b9482611133565b91611ba26040519384611097565b8294818452818301116102af578281602093845f96015e010152565b9080601f830112156102af5781516103ec92602001611b88565b9190916040818403126102af57805180151581036102af5760208201519093906001600160401b0381116102af576103ec9201611bbe565b6001600160a01b039091168152602081019190915260400190565b90611c3692916120b7565b15611c4657630b135d3f60e11b90565b6001600160e01b031990565b903590601e19813603018212156102af57018035906001600160401b0382116102af576020019181360383136102af57565b3d15611cae573d90611c9582611133565b91611ca36040519384611097565b82523d5f602084013e565b606090565b611cbe6001546102b3565b6001600160a01b038116151580611dae575b611d4c575b50611cf691611cec82610100611cf2940190611c52565b916120b7565b1590565b611d465780611d0457505f90565b5f908190819081907f00000000000000000000000000000000000000000000000000000000000000006001600160a01b03165af150611d41611c84565b505f90565b50600190565b611d5960e0830183611c52565b60148110611d9c57503560601c611d6f826102b3565b8103611d7b5750611cd5565b63187efe2360e01b5f526001600160a01b039081166004521660245260445ffd5b631811743760e21b5f5260045260245ffd5b50611dbc60e0830183611c52565b90501515611cd0565b908160209103126102af575190565b90156106ac5790565b91908110156106ac5760051b0190565b356103ec816102bf565b908210156106ac576103ab9160051b810190611c52565b6103ec949260609260018060a01b0316825260208201528160408201520191611a31565b908092918237015f815290565b60405190606082016001600160401b038111838210176110ba576040525f6040838281528260208201520152565b6040513d5f823e3d90fd5b634e487b7160e01b5f52601160045260245ffd5b91908203918211611e9957565b611e78565b81601f820112156102af57805190611eb5826110bf565b92611ec36040519485611097565b82845260208085019360051b830101918183116102af5760208101935b838510611eef57505050505090565b84516001600160401b0381116102af57820183603f820112156102af57602091611f228583604086809601519101611b88565b815201940193611ee0565b9080601f830112156102af578151611f44816110bf565b92611f526040519485611097565b81845260208085019260051b8201019283116102af57602001905b828210611f7a5750505090565b602080918351611f8981610300565b815201910190611f6d565b9080601f830112156102af578151611fab816110bf565b92611fb96040519485611097565b81845260208085019260051b820101918383116102af5760208201905b838210611fe557505050505090565b81516001600160401b0381116102af5760209161200787848094880101611bbe565b815201910190611fd6565b5f809161201d6124e1565b9060405161205060146020838180820196805191829101885e81013060601b838201520301600b19810184520182611097565b51915afa61205c611c84565b9015610a795790565b5f80916120706124e1565b602082519201905af461205c611c84565b90604182029180830460411490151715611e9957565b60ff601b9116019060ff8211611e9957565b5f198114611e995760010190565b90916120c8611cf260055460ff1690565b80156121da575b6121d357604181066121d3576041900491600454918284106121cb5761211b907b0ca2ba3432b932bab69029b4b3b732b21026b2b9b9b0b3b29d05199960211b5f52601c52603c5f2090565b5f918291825b86811061213357505050505050505f90565b61215f61213f82612081565b840160408101355f1a601b81106121bd575b60208201359135908561258d565b936001600160a01b0390811690851611156121b25761218761218085610465565b5460ff1690565b612194575b600101612121565b9361219e906120a9565b9385851061218c5750505050505050600190565b505050505050505f90565b6121c690612097565b612151565b505050505f90565b5050505f90565b50600454156120cf565b6003545f600355806121f35750565b60035f5260205f205f5b82811061220957505050565b5f828201556001016121fd565b600354600160401b8110156110ba57600181016003556003548110156106ac5760035f525f5160206126a45f395f51905f520180546001600160a01b0319166001600160a01b03909216919091179055565b6040602082019160208152600354809352019060035f5260205f20905f5b8181106122935750505090565b82546001600160a01b0316845260209093019260019283019201612286565b9190801561051b576122c76109ca8285611dd4565b6122d46109cf5f546102b3565b6001600160a01b039091160361051b575f5b60035481101561232f578061232961231f61231a612305600195610694565b905460039190911b1c6001600160a01b031690565b610465565b805460ff19169055565b016122e6565b50909161233a6121e4565b5f915f5b8181106123ad5750505050801580156123a2575b61051b57600455604051602081019061236e8161042f84612268565b5190206004546040519081527fb96db730cba2eb08f2ce34a133b4cdaa9c3876aa06dfc81d4401d232f49bb88290602090a2565b506003548111612352565b6123bb6109ca828486611ddd565b936001600160a01b0385168015918215612401575b505061051b576001906123fb856123f66123e982610465565b805460ff19166001179055565b612216565b0161233e565b6001600160a01b0316101590505f806123d0565b604051602081019160018060a01b031682527f5a26911361a4f7d1113b7c86427c27a3b1f9b14ce40a4a7f6ac88540b70192c460408201526040815261245c606082611097565b519020604051906020820192835260408201526040815261247e606082611097565b5190205490565b604051602081019160018060a01b031682527f5a26911361a4f7d1113b7c86427c27a3b1f9b14ce40a4a7f6ac88540b70192c360408201526040815261247e606082611097565b908160209103126102af57516103ec816102bf565b6124ec6001546102b3565b6001600160a01b03811691908215908115612583575b50610a8157602060049260405193848092633d87f9db60e11b82525afa918215611013575f92612552575b506001600160a01b03821615828115612548575b50610a8157565b90503b155f612541565b61257591925060203d60201161257c575b61256d8183611097565b8101906124cc565b905f61252d565b503d612563565b90503b155f612502565b916103ec939161259c936125a5565b90929192612627565b91906fa2a8918ca85bafe22016d0b997e4df60600160ff1b038411612612579160209360809260ff5f9560405194855216868401526040830152606082015282805260015afa15611013575f516001600160a01b0381161561260857905f905f90565b505f906001905f90565b5050505f9160039190565b60041115611a2c57565b6126308161261d565b80612639575050565b6126428161261d565b600181036126595763f645eedf60e01b5f5260045ffd5b6126628161261d565b6002810361267d575063fce698f760e01b5f5260045260245ffd5b8061268960039261261d565b146126915750565b6335e2f38360e21b5f5260045260245ffdfec2575a0e9e593c00f959f8c92f12db2869c3395a3b0502d05e2516446f71f85b333c7678baf16017cf31e1d2f90143a62aab01a67a0807f6836a4304ceabb555a164736f6c6343000821000a1035a5c44e0932a54b0af2c52298155a2bc48c13d047de762440626fb8e1d0415027c4b670b4a61cdc311f2d8a549433d50dc417da4b2b1d56d825ff023f6168356f227de1528bfef4447beacbf534a8807ffe37c12950e3f3253e927dd6fbe1a164736f6c6343000821000a",
  "linkReferences": {},
  "deployedLinkReferences": {},
  "immutableReferences": {
    "9326": [
      {
        "length": 32,
        "start": 2325
      },
      {
        "length": 32,
        "start": 5555
      }
    ]
  },
  "inputSourceName": "project/src/BeamioAccount/BeamioFactoryPaymasterV07.sol",
  "buildInfoId": "solc-0_8_33-69666ab89cad117bb88a35c875456fc57a573e56"
}