{
  "_format": "hh3-artifact-1",
  "contractName": "BeamioUserCardFactoryPaymasterV07",
  "sourceName": "src/BeamioUserCard/BeamioUserCardFactoryPaymasterV07.sol",
  "abi": [
    {
      "inputs": [
        {
          "internalType": "address",
          "name": "usdcToken_",
          "type": "address"
        },
        {
          "internalType": "address",
          "name": "redeemModule_",
          "type": "address"
        },
        {
          "internalType": "address",
          "name": "quoteHelper_",
          "type": "address"
        },
        {
          "internalType": "address",
          "name": "deployer_",
          "type": "address"
        },
        {
          "internalType": "address",
          "name": "aaFactory_",
          "type": "address"
        },
        {
          "internalType": "address",
          "name": "initialOwner",
          "type": "address"
        }
      ],
      "stateMutability": "nonpayable",
      "type": "constructor"
    },
    {
      "inputs": [],
      "name": "BM_CallFailed",
      "type": "error"
    },
    {
      "inputs": [],
      "name": "BM_DeployFailed",
      "type": "error"
    },
    {
      "inputs": [
        {
          "internalType": "uint8",
          "name": "step",
          "type": "uint8"
        }
      ],
      "name": "BM_DeployFailedAtStep",
      "type": "error"
    },
    {
      "inputs": [],
      "name": "BM_NotAuthorized",
      "type": "error"
    },
    {
      "inputs": [],
      "name": "BM_ZeroAddress",
      "type": "error"
    },
    {
      "inputs": [],
      "name": "ECDSAInvalidSignature",
      "type": "error"
    },
    {
      "inputs": [
        {
          "internalType": "uint256",
          "name": "length",
          "type": "uint256"
        }
      ],
      "name": "ECDSAInvalidSignatureLength",
      "type": "error"
    },
    {
      "inputs": [
        {
          "internalType": "bytes32",
          "name": "s",
          "type": "bytes32"
        }
      ],
      "name": "ECDSAInvalidSignatureS",
      "type": "error"
    },
    {
      "inputs": [],
      "name": "F_AlreadyRegistered",
      "type": "error"
    },
    {
      "inputs": [],
      "name": "F_BadDeployedCard",
      "type": "error"
    },
    {
      "inputs": [],
      "name": "F_InvalidRedeemHash",
      "type": "error"
    },
    {
      "inputs": [
        {
          "internalType": "address",
          "name": "admin",
          "type": "address"
        }
      ],
      "name": "UC_AdminDepthExceeded",
      "type": "error"
    },
    {
      "inputs": [],
      "name": "UC_AmountZero",
      "type": "error"
    },
    {
      "inputs": [],
      "name": "UC_FaucetNotEnabled",
      "type": "error"
    },
    {
      "inputs": [],
      "name": "UC_InvalidProposal",
      "type": "error"
    },
    {
      "inputs": [
        {
          "internalType": "address",
          "name": "recovered",
          "type": "address"
        },
        {
          "internalType": "address",
          "name": "expected",
          "type": "address"
        }
      ],
      "name": "UC_InvalidSignature",
      "type": "error"
    },
    {
      "inputs": [
        {
          "internalType": "uint256",
          "name": "nowTs",
          "type": "uint256"
        },
        {
          "internalType": "uint256",
          "name": "validAfter",
          "type": "uint256"
        },
        {
          "internalType": "uint256",
          "name": "validBefore",
          "type": "uint256"
        }
      ],
      "name": "UC_InvalidTimeWindow",
      "type": "error"
    },
    {
      "inputs": [],
      "name": "UC_NonceUsed",
      "type": "error"
    },
    {
      "inputs": [],
      "name": "UC_NotAdmin",
      "type": "error"
    },
    {
      "inputs": [],
      "name": "UC_PointsZero",
      "type": "error"
    },
    {
      "inputs": [],
      "name": "UC_PriceZero",
      "type": "error"
    },
    {
      "inputs": [],
      "name": "UC_PurchaseDisabledBecauseFree",
      "type": "error"
    },
    {
      "inputs": [],
      "name": "UC_Slippage",
      "type": "error"
    },
    {
      "inputs": [],
      "name": "UC_TierMinZero",
      "type": "error"
    },
    {
      "anonymous": false,
      "inputs": [
        {
          "indexed": true,
          "internalType": "address",
          "name": "oldFactory",
          "type": "address"
        },
        {
          "indexed": true,
          "internalType": "address",
          "name": "newFactory",
          "type": "address"
        }
      ],
      "name": "AAFactoryChanged",
      "type": "event"
    },
    {
      "anonymous": false,
      "inputs": [
        {
          "indexed": true,
          "internalType": "address",
          "name": "card",
          "type": "address"
        },
        {
          "indexed": true,
          "internalType": "address",
          "name": "adminSigner",
          "type": "address"
        },
        {
          "indexed": false,
          "internalType": "bytes32",
          "name": "nonce",
          "type": "bytes32"
        }
      ],
      "name": "AdminExecuteExecuted",
      "type": "event"
    },
    {
      "anonymous": false,
      "inputs": [
        {
          "indexed": true,
          "internalType": "address",
          "name": "cardOwner",
          "type": "address"
        },
        {
          "indexed": true,
          "internalType": "address",
          "name": "card",
          "type": "address"
        },
        {
          "indexed": false,
          "internalType": "uint8",
          "name": "currency",
          "type": "uint8"
        },
        {
          "indexed": false,
          "internalType": "uint256",
          "name": "priceE18",
          "type": "uint256"
        }
      ],
      "name": "CardDeployed",
      "type": "event"
    },
    {
      "anonymous": false,
      "inputs": [
        {
          "indexed": true,
          "internalType": "address",
          "name": "cardOwner",
          "type": "address"
        },
        {
          "indexed": true,
          "internalType": "address",
          "name": "card",
          "type": "address"
        }
      ],
      "name": "CardRegistered",
      "type": "event"
    },
    {
      "anonymous": false,
      "inputs": [
        {
          "indexed": true,
          "internalType": "address",
          "name": "oldM",
          "type": "address"
        },
        {
          "indexed": true,
          "internalType": "address",
          "name": "newM",
          "type": "address"
        }
      ],
      "name": "DefaultAdminStatsQueryModuleUpdated",
      "type": "event"
    },
    {
      "anonymous": false,
      "inputs": [
        {
          "indexed": true,
          "internalType": "address",
          "name": "oldM",
          "type": "address"
        },
        {
          "indexed": true,
          "internalType": "address",
          "name": "newM",
          "type": "address"
        }
      ],
      "name": "DefaultFaucetModuleUpdated",
      "type": "event"
    },
    {
      "anonymous": false,
      "inputs": [
        {
          "indexed": true,
          "internalType": "address",
          "name": "oldM",
          "type": "address"
        },
        {
          "indexed": true,
          "internalType": "address",
          "name": "newM",
          "type": "address"
        }
      ],
      "name": "DefaultGovernanceModuleUpdated",
      "type": "event"
    },
    {
      "anonymous": false,
      "inputs": [
        {
          "indexed": true,
          "internalType": "address",
          "name": "oldM",
          "type": "address"
        },
        {
          "indexed": true,
          "internalType": "address",
          "name": "newM",
          "type": "address"
        }
      ],
      "name": "DefaultIssuedNftModuleUpdated",
      "type": "event"
    },
    {
      "anonymous": false,
      "inputs": [
        {
          "indexed": true,
          "internalType": "address",
          "name": "oldM",
          "type": "address"
        },
        {
          "indexed": true,
          "internalType": "address",
          "name": "newM",
          "type": "address"
        }
      ],
      "name": "DefaultMembershipStatsModuleUpdated",
      "type": "event"
    },
    {
      "anonymous": false,
      "inputs": [
        {
          "indexed": true,
          "internalType": "address",
          "name": "oldM",
          "type": "address"
        },
        {
          "indexed": true,
          "internalType": "address",
          "name": "newM",
          "type": "address"
        }
      ],
      "name": "DefaultRedeemModuleUpdated",
      "type": "event"
    },
    {
      "anonymous": false,
      "inputs": [
        {
          "indexed": false,
          "internalType": "uint8",
          "name": "step",
          "type": "uint8"
        }
      ],
      "name": "DeployFailedStep",
      "type": "event"
    },
    {
      "anonymous": false,
      "inputs": [
        {
          "indexed": true,
          "internalType": "address",
          "name": "oldD",
          "type": "address"
        },
        {
          "indexed": true,
          "internalType": "address",
          "name": "newD",
          "type": "address"
        }
      ],
      "name": "DeployerChanged",
      "type": "event"
    },
    {
      "anonymous": false,
      "inputs": [
        {
          "indexed": true,
          "internalType": "address",
          "name": "card",
          "type": "address"
        },
        {
          "indexed": true,
          "internalType": "address",
          "name": "userEOA",
          "type": "address"
        },
        {
          "indexed": true,
          "internalType": "address",
          "name": "cardOwner",
          "type": "address"
        },
        {
          "indexed": false,
          "internalType": "uint256",
          "name": "tokenId",
          "type": "uint256"
        },
        {
          "indexed": false,
          "internalType": "uint256",
          "name": "amount",
          "type": "uint256"
        },
        {
          "indexed": false,
          "internalType": "uint256",
          "name": "usdcAmount6",
          "type": "uint256"
        },
        {
          "indexed": false,
          "internalType": "bytes32",
          "name": "nonce",
          "type": "bytes32"
        }
      ],
      "name": "IssuedNftPurchasedForUser",
      "type": "event"
    },
    {
      "anonymous": false,
      "inputs": [
        {
          "indexed": false,
          "internalType": "string",
          "name": "oldURI",
          "type": "string"
        },
        {
          "indexed": false,
          "internalType": "string",
          "name": "newURI",
          "type": "string"
        }
      ],
      "name": "MetadataBaseURIUpdated",
      "type": "event"
    },
    {
      "anonymous": false,
      "inputs": [
        {
          "indexed": true,
          "internalType": "address",
          "name": "oldOwner",
          "type": "address"
        },
        {
          "indexed": true,
          "internalType": "address",
          "name": "newOwner",
          "type": "address"
        }
      ],
      "name": "OwnerChanged",
      "type": "event"
    },
    {
      "anonymous": false,
      "inputs": [
        {
          "indexed": true,
          "internalType": "address",
          "name": "account",
          "type": "address"
        },
        {
          "indexed": false,
          "internalType": "bool",
          "name": "allowed",
          "type": "bool"
        }
      ],
      "name": "PaymasterStatusChanged",
      "type": "event"
    },
    {
      "anonymous": false,
      "inputs": [
        {
          "indexed": true,
          "internalType": "address",
          "name": "card",
          "type": "address"
        },
        {
          "indexed": true,
          "internalType": "address",
          "name": "fromEOA",
          "type": "address"
        },
        {
          "indexed": true,
          "internalType": "address",
          "name": "cardOwner",
          "type": "address"
        },
        {
          "indexed": false,
          "internalType": "uint256",
          "name": "usdcAmount6",
          "type": "uint256"
        },
        {
          "indexed": false,
          "internalType": "uint256",
          "name": "pointsOut6",
          "type": "uint256"
        },
        {
          "indexed": false,
          "internalType": "bytes32",
          "name": "nonce",
          "type": "bytes32"
        }
      ],
      "name": "PointsPurchasedForUser",
      "type": "event"
    },
    {
      "anonymous": false,
      "inputs": [
        {
          "indexed": true,
          "internalType": "address",
          "name": "oldH",
          "type": "address"
        },
        {
          "indexed": true,
          "internalType": "address",
          "name": "newH",
          "type": "address"
        }
      ],
      "name": "QuoteHelperChanged",
      "type": "event"
    },
    {
      "anonymous": false,
      "inputs": [
        {
          "indexed": true,
          "internalType": "address",
          "name": "card",
          "type": "address"
        },
        {
          "indexed": true,
          "internalType": "address",
          "name": "user",
          "type": "address"
        },
        {
          "indexed": false,
          "internalType": "bytes32",
          "name": "redeemHash",
          "type": "bytes32"
        }
      ],
      "name": "RedeemExecuted",
      "type": "event"
    },
    {
      "anonymous": false,
      "inputs": [
        {
          "indexed": true,
          "internalType": "address",
          "name": "card",
          "type": "address"
        },
        {
          "indexed": true,
          "internalType": "uint256",
          "name": "id",
          "type": "uint256"
        },
        {
          "indexed": false,
          "internalType": "bool",
          "name": "isNft",
          "type": "bool"
        }
      ],
      "name": "TokenIdIssued",
      "type": "event"
    },
    {
      "inputs": [],
      "name": "CLEAR_ADMIN_MINT_COUNTER_TYPEHASH",
      "outputs": [
        {
          "internalType": "bytes32",
          "name": "",
          "type": "bytes32"
        }
      ],
      "stateMutability": "view",
      "type": "function"
    },
    {
      "inputs": [],
      "name": "DOMAIN_SEPARATOR",
      "outputs": [
        {
          "internalType": "bytes32",
          "name": "",
          "type": "bytes32"
        }
      ],
      "stateMutability": "view",
      "type": "function"
    },
    {
      "inputs": [],
      "name": "EXECUTE_FOR_ADMIN_TYPEHASH",
      "outputs": [
        {
          "internalType": "bytes32",
          "name": "",
          "type": "bytes32"
        }
      ],
      "stateMutability": "view",
      "type": "function"
    },
    {
      "inputs": [],
      "name": "EXECUTE_FOR_OWNER_TYPEHASH",
      "outputs": [
        {
          "internalType": "bytes32",
          "name": "",
          "type": "bytes32"
        }
      ],
      "stateMutability": "view",
      "type": "function"
    },
    {
      "inputs": [],
      "name": "USDC",
      "outputs": [
        {
          "internalType": "address",
          "name": "",
          "type": "address"
        }
      ],
      "stateMutability": "view",
      "type": "function"
    },
    {
      "inputs": [],
      "name": "USDC_TOKEN",
      "outputs": [
        {
          "internalType": "address",
          "name": "",
          "type": "address"
        }
      ],
      "stateMutability": "view",
      "type": "function"
    },
    {
      "inputs": [],
      "name": "_aaFactory",
      "outputs": [
        {
          "internalType": "address",
          "name": "",
          "type": "address"
        }
      ],
      "stateMutability": "view",
      "type": "function"
    },
    {
      "inputs": [],
      "name": "aaFactory",
      "outputs": [
        {
          "internalType": "address",
          "name": "",
          "type": "address"
        }
      ],
      "stateMutability": "view",
      "type": "function"
    },
    {
      "inputs": [
        {
          "internalType": "address",
          "name": "cardAddr",
          "type": "address"
        },
        {
          "internalType": "uint256",
          "name": "minUsdc6",
          "type": "uint256"
        },
        {
          "internalType": "uint256",
          "name": "attr",
          "type": "uint256"
        },
        {
          "internalType": "uint256",
          "name": "tierExpirySeconds",
          "type": "uint256"
        },
        {
          "internalType": "bool",
          "name": "upgradeByBalance",
          "type": "bool"
        }
      ],
      "name": "appendTierForCard",
      "outputs": [],
      "stateMutability": "nonpayable",
      "type": "function"
    },
    {
      "inputs": [
        {
          "internalType": "address",
          "name": "cardAddr",
          "type": "address"
        },
        {
          "internalType": "uint256",
          "name": "minUsdc6",
          "type": "uint256"
        },
        {
          "internalType": "uint256",
          "name": "attr",
          "type": "uint256"
        },
        {
          "internalType": "uint256",
          "name": "tierExpirySeconds",
          "type": "uint256"
        },
        {
          "internalType": "bool",
          "name": "upgradeByBalance",
          "type": "bool"
        },
        {
          "internalType": "uint256",
          "name": "deadline",
          "type": "uint256"
        },
        {
          "internalType": "bytes32",
          "name": "nonce",
          "type": "bytes32"
        },
        {
          "internalType": "bytes",
          "name": "ownerSignature",
          "type": "bytes"
        }
      ],
      "name": "appendTierForCardWithOwnerSignature",
      "outputs": [],
      "stateMutability": "nonpayable",
      "type": "function"
    },
    {
      "inputs": [
        {
          "internalType": "address",
          "name": "",
          "type": "address"
        }
      ],
      "name": "beamioUserCardOwner",
      "outputs": [
        {
          "internalType": "address",
          "name": "",
          "type": "address"
        }
      ],
      "stateMutability": "view",
      "type": "function"
    },
    {
      "inputs": [
        {
          "internalType": "address",
          "name": "cardAddr",
          "type": "address"
        },
        {
          "internalType": "address",
          "name": "fromEOA",
          "type": "address"
        },
        {
          "internalType": "uint256",
          "name": "usdcAmount6",
          "type": "uint256"
        },
        {
          "internalType": "uint256",
          "name": "validAfter",
          "type": "uint256"
        },
        {
          "internalType": "uint256",
          "name": "validBefore",
          "type": "uint256"
        },
        {
          "internalType": "bytes32",
          "name": "nonce",
          "type": "bytes32"
        },
        {
          "internalType": "bytes",
          "name": "signature",
          "type": "bytes"
        },
        {
          "internalType": "uint256",
          "name": "minPointsOut6",
          "type": "uint256"
        }
      ],
      "name": "buyPointsForUser",
      "outputs": [
        {
          "internalType": "uint256",
          "name": "pointsOut6",
          "type": "uint256"
        }
      ],
      "stateMutability": "nonpayable",
      "type": "function"
    },
    {
      "inputs": [
        {
          "internalType": "address",
          "name": "cardAddr",
          "type": "address"
        },
        {
          "internalType": "address",
          "name": "fromEOA",
          "type": "address"
        },
        {
          "internalType": "uint256",
          "name": "usdcAmount6",
          "type": "uint256"
        },
        {
          "internalType": "uint256",
          "name": "validAfter",
          "type": "uint256"
        },
        {
          "internalType": "uint256",
          "name": "validBefore",
          "type": "uint256"
        },
        {
          "internalType": "bytes32",
          "name": "nonce",
          "type": "bytes32"
        },
        {
          "internalType": "bytes",
          "name": "signature",
          "type": "bytes"
        },
        {
          "internalType": "uint256",
          "name": "minPointsOut6",
          "type": "uint256"
        },
        {
          "internalType": "address",
          "name": "recommender",
          "type": "address"
        }
      ],
      "name": "buyPointsForUser",
      "outputs": [
        {
          "internalType": "uint256",
          "name": "pointsOut6",
          "type": "uint256"
        }
      ],
      "stateMutability": "nonpayable",
      "type": "function"
    },
    {
      "inputs": [
        {
          "internalType": "address",
          "name": "cardOwner",
          "type": "address"
        }
      ],
      "name": "cardsOfOwner",
      "outputs": [
        {
          "internalType": "address[]",
          "name": "",
          "type": "address[]"
        }
      ],
      "stateMutability": "view",
      "type": "function"
    },
    {
      "inputs": [
        {
          "internalType": "address",
          "name": "a",
          "type": "address"
        },
        {
          "internalType": "bool",
          "name": "ok",
          "type": "bool"
        }
      ],
      "name": "changePaymasterStatus",
      "outputs": [],
      "stateMutability": "nonpayable",
      "type": "function"
    },
    {
      "inputs": [
        {
          "internalType": "address",
          "name": "cardOwner",
          "type": "address"
        },
        {
          "internalType": "uint8",
          "name": "currency",
          "type": "uint8"
        },
        {
          "internalType": "uint256",
          "name": "priceInCurrencyE6",
          "type": "uint256"
        },
        {
          "internalType": "bytes",
          "name": "initCode",
          "type": "bytes"
        }
      ],
      "name": "createCardCollectionWithInitCode",
      "outputs": [
        {
          "internalType": "address",
          "name": "card",
          "type": "address"
        }
      ],
      "stateMutability": "nonpayable",
      "type": "function"
    },
    {
      "inputs": [
        {
          "internalType": "address",
          "name": "cardOwner",
          "type": "address"
        },
        {
          "internalType": "uint8",
          "name": "currency",
          "type": "uint8"
        },
        {
          "internalType": "uint256",
          "name": "priceInCurrencyE6",
          "type": "uint256"
        },
        {
          "internalType": "bytes",
          "name": "initCode",
          "type": "bytes"
        },
        {
          "components": [
            {
              "internalType": "uint256",
              "name": "minUsdc6",
              "type": "uint256"
            },
            {
              "internalType": "uint256",
              "name": "attr",
              "type": "uint256"
            },
            {
              "internalType": "uint256",
              "name": "tierExpirySeconds",
              "type": "uint256"
            },
            {
              "internalType": "bool",
              "name": "upgradeByBalance",
              "type": "bool"
            }
          ],
          "internalType": "struct BeamioUserCard.Tier[]",
          "name": "tiers",
          "type": "tuple[]"
        }
      ],
      "name": "createCardCollectionWithInitCodeAndTiers",
      "outputs": [
        {
          "internalType": "address",
          "name": "card",
          "type": "address"
        }
      ],
      "stateMutability": "nonpayable",
      "type": "function"
    },
    {
      "inputs": [],
      "name": "defaultAdminStatsQueryModule",
      "outputs": [
        {
          "internalType": "address",
          "name": "",
          "type": "address"
        }
      ],
      "stateMutability": "view",
      "type": "function"
    },
    {
      "inputs": [],
      "name": "defaultFaucetModule",
      "outputs": [
        {
          "internalType": "address",
          "name": "",
          "type": "address"
        }
      ],
      "stateMutability": "view",
      "type": "function"
    },
    {
      "inputs": [],
      "name": "defaultGovernanceModule",
      "outputs": [
        {
          "internalType": "address",
          "name": "",
          "type": "address"
        }
      ],
      "stateMutability": "view",
      "type": "function"
    },
    {
      "inputs": [],
      "name": "defaultIssuedNftModule",
      "outputs": [
        {
          "internalType": "address",
          "name": "",
          "type": "address"
        }
      ],
      "stateMutability": "view",
      "type": "function"
    },
    {
      "inputs": [],
      "name": "defaultMembershipStatsModule",
      "outputs": [
        {
          "internalType": "address",
          "name": "",
          "type": "address"
        }
      ],
      "stateMutability": "view",
      "type": "function"
    },
    {
      "inputs": [],
      "name": "defaultRedeemModule",
      "outputs": [
        {
          "internalType": "address",
          "name": "",
          "type": "address"
        }
      ],
      "stateMutability": "view",
      "type": "function"
    },
    {
      "inputs": [],
      "name": "deployer",
      "outputs": [
        {
          "internalType": "address",
          "name": "",
          "type": "address"
        }
      ],
      "stateMutability": "view",
      "type": "function"
    },
    {
      "inputs": [
        {
          "internalType": "address",
          "name": "cardAddr",
          "type": "address"
        },
        {
          "internalType": "address",
          "name": "subordinate",
          "type": "address"
        },
        {
          "internalType": "uint256",
          "name": "deadline",
          "type": "uint256"
        },
        {
          "internalType": "bytes32",
          "name": "nonce",
          "type": "bytes32"
        },
        {
          "internalType": "bytes",
          "name": "adminSignature",
          "type": "bytes"
        }
      ],
      "name": "executeClearAdminMintCounter",
      "outputs": [],
      "stateMutability": "nonpayable",
      "type": "function"
    },
    {
      "inputs": [
        {
          "internalType": "address",
          "name": "cardAddr",
          "type": "address"
        },
        {
          "internalType": "bytes",
          "name": "data",
          "type": "bytes"
        },
        {
          "internalType": "uint256",
          "name": "deadline",
          "type": "uint256"
        },
        {
          "internalType": "bytes32",
          "name": "nonce",
          "type": "bytes32"
        },
        {
          "internalType": "bytes",
          "name": "adminSignature",
          "type": "bytes"
        }
      ],
      "name": "executeForAdmin",
      "outputs": [],
      "stateMutability": "nonpayable",
      "type": "function"
    },
    {
      "inputs": [
        {
          "internalType": "address",
          "name": "cardAddr",
          "type": "address"
        },
        {
          "internalType": "bytes",
          "name": "data",
          "type": "bytes"
        },
        {
          "internalType": "uint256",
          "name": "deadline",
          "type": "uint256"
        },
        {
          "internalType": "bytes32",
          "name": "nonce",
          "type": "bytes32"
        },
        {
          "internalType": "bytes",
          "name": "ownerSignature",
          "type": "bytes"
        }
      ],
      "name": "executeForOwner",
      "outputs": [],
      "stateMutability": "nonpayable",
      "type": "function"
    },
    {
      "inputs": [
        {
          "internalType": "address",
          "name": "card",
          "type": "address"
        }
      ],
      "name": "isBeamioUserCard",
      "outputs": [
        {
          "internalType": "bool",
          "name": "",
          "type": "bool"
        }
      ],
      "stateMutability": "view",
      "type": "function"
    },
    {
      "inputs": [
        {
          "internalType": "address",
          "name": "",
          "type": "address"
        },
        {
          "internalType": "address",
          "name": "",
          "type": "address"
        }
      ],
      "name": "isCardOfOwner",
      "outputs": [
        {
          "internalType": "bool",
          "name": "",
          "type": "bool"
        }
      ],
      "stateMutability": "view",
      "type": "function"
    },
    {
      "inputs": [
        {
          "internalType": "address",
          "name": "",
          "type": "address"
        }
      ],
      "name": "isPaymaster",
      "outputs": [
        {
          "internalType": "bool",
          "name": "",
          "type": "bool"
        }
      ],
      "stateMutability": "view",
      "type": "function"
    },
    {
      "inputs": [
        {
          "internalType": "address",
          "name": "card",
          "type": "address"
        },
        {
          "internalType": "uint256",
          "name": "id",
          "type": "uint256"
        }
      ],
      "name": "isTokenIdIssued",
      "outputs": [
        {
          "internalType": "bool",
          "name": "",
          "type": "bool"
        }
      ],
      "stateMutability": "view",
      "type": "function"
    },
    {
      "inputs": [
        {
          "internalType": "address",
          "name": "card",
          "type": "address"
        },
        {
          "internalType": "bool",
          "name": "isNft",
          "type": "bool"
        }
      ],
      "name": "issueTokenId",
      "outputs": [
        {
          "internalType": "uint256",
          "name": "id",
          "type": "uint256"
        }
      ],
      "stateMutability": "nonpayable",
      "type": "function"
    },
    {
      "inputs": [
        {
          "internalType": "address",
          "name": "cardOwner",
          "type": "address"
        }
      ],
      "name": "latestCardOfOwner",
      "outputs": [
        {
          "internalType": "address",
          "name": "",
          "type": "address"
        }
      ],
      "stateMutability": "view",
      "type": "function"
    },
    {
      "inputs": [],
      "name": "metadataBaseURI",
      "outputs": [
        {
          "internalType": "string",
          "name": "",
          "type": "string"
        }
      ],
      "stateMutability": "view",
      "type": "function"
    },
    {
      "inputs": [],
      "name": "nextFungibleId",
      "outputs": [
        {
          "internalType": "uint256",
          "name": "",
          "type": "uint256"
        }
      ],
      "stateMutability": "view",
      "type": "function"
    },
    {
      "inputs": [],
      "name": "nextNftId",
      "outputs": [
        {
          "internalType": "uint256",
          "name": "",
          "type": "uint256"
        }
      ],
      "stateMutability": "view",
      "type": "function"
    },
    {
      "inputs": [],
      "name": "owner",
      "outputs": [
        {
          "internalType": "address",
          "name": "",
          "type": "address"
        }
      ],
      "stateMutability": "view",
      "type": "function"
    },
    {
      "inputs": [
        {
          "internalType": "address",
          "name": "cardAddr",
          "type": "address"
        },
        {
          "internalType": "address",
          "name": "userEOA",
          "type": "address"
        },
        {
          "internalType": "uint256",
          "name": "id",
          "type": "uint256"
        },
        {
          "internalType": "uint256",
          "name": "amount6",
          "type": "uint256"
        },
        {
          "internalType": "uint256",
          "name": "validAfter",
          "type": "uint256"
        },
        {
          "internalType": "uint256",
          "name": "validBefore",
          "type": "uint256"
        },
        {
          "internalType": "bytes32",
          "name": "nonce",
          "type": "bytes32"
        },
        {
          "internalType": "bytes",
          "name": "signature",
          "type": "bytes"
        }
      ],
      "name": "purchaseFaucetForUser",
      "outputs": [],
      "stateMutability": "nonpayable",
      "type": "function"
    },
    {
      "inputs": [
        {
          "internalType": "address",
          "name": "cardAddr",
          "type": "address"
        },
        {
          "internalType": "address",
          "name": "userEOA",
          "type": "address"
        },
        {
          "internalType": "uint256",
          "name": "tokenId",
          "type": "uint256"
        },
        {
          "internalType": "uint256",
          "name": "amount",
          "type": "uint256"
        },
        {
          "internalType": "uint256",
          "name": "validAfter",
          "type": "uint256"
        },
        {
          "internalType": "uint256",
          "name": "validBefore",
          "type": "uint256"
        },
        {
          "internalType": "bytes32",
          "name": "nonce",
          "type": "bytes32"
        },
        {
          "internalType": "bytes",
          "name": "signature",
          "type": "bytes"
        }
      ],
      "name": "purchaseIssuedNftForUser",
      "outputs": [],
      "stateMutability": "nonpayable",
      "type": "function"
    },
    {
      "inputs": [
        {
          "internalType": "uint8",
          "name": "cur",
          "type": "uint8"
        },
        {
          "internalType": "uint256",
          "name": "amount6",
          "type": "uint256"
        }
      ],
      "name": "quoteCurrencyAmountInUSDC6",
      "outputs": [
        {
          "internalType": "uint256",
          "name": "",
          "type": "uint256"
        }
      ],
      "stateMutability": "view",
      "type": "function"
    },
    {
      "inputs": [],
      "name": "quoteHelper",
      "outputs": [
        {
          "internalType": "address",
          "name": "",
          "type": "address"
        }
      ],
      "stateMutability": "view",
      "type": "function"
    },
    {
      "inputs": [
        {
          "internalType": "address",
          "name": "card",
          "type": "address"
        }
      ],
      "name": "quoteUnitPointInUSDC6",
      "outputs": [
        {
          "internalType": "uint256",
          "name": "",
          "type": "uint256"
        }
      ],
      "stateMutability": "view",
      "type": "function"
    },
    {
      "inputs": [
        {
          "internalType": "address",
          "name": "cardAddr",
          "type": "address"
        },
        {
          "internalType": "string",
          "name": "code",
          "type": "string"
        },
        {
          "internalType": "address",
          "name": "to",
          "type": "address"
        }
      ],
      "name": "redeemAdminForUser",
      "outputs": [],
      "stateMutability": "nonpayable",
      "type": "function"
    },
    {
      "inputs": [
        {
          "internalType": "address",
          "name": "cardAddr",
          "type": "address"
        },
        {
          "internalType": "string[]",
          "name": "codes",
          "type": "string[]"
        },
        {
          "internalType": "address",
          "name": "userEOA",
          "type": "address"
        }
      ],
      "name": "redeemBatchForUser",
      "outputs": [],
      "stateMutability": "nonpayable",
      "type": "function"
    },
    {
      "inputs": [
        {
          "internalType": "address",
          "name": "cardAddr",
          "type": "address"
        },
        {
          "internalType": "string",
          "name": "code",
          "type": "string"
        },
        {
          "internalType": "address",
          "name": "userEOA",
          "type": "address"
        }
      ],
      "name": "redeemForUser",
      "outputs": [],
      "stateMutability": "nonpayable",
      "type": "function"
    },
    {
      "inputs": [
        {
          "internalType": "address",
          "name": "cardAddr",
          "type": "address"
        },
        {
          "internalType": "string",
          "name": "code",
          "type": "string"
        },
        {
          "internalType": "address",
          "name": "userEOA",
          "type": "address"
        }
      ],
      "name": "redeemPoolForUser",
      "outputs": [],
      "stateMutability": "nonpayable",
      "type": "function"
    },
    {
      "inputs": [
        {
          "internalType": "address",
          "name": "cardOwner",
          "type": "address"
        },
        {
          "internalType": "address",
          "name": "card",
          "type": "address"
        }
      ],
      "name": "registerExistingCard",
      "outputs": [],
      "stateMutability": "nonpayable",
      "type": "function"
    },
    {
      "inputs": [
        {
          "internalType": "address",
          "name": "f",
          "type": "address"
        }
      ],
      "name": "setAAFactory",
      "outputs": [],
      "stateMutability": "nonpayable",
      "type": "function"
    },
    {
      "inputs": [
        {
          "internalType": "address",
          "name": "m",
          "type": "address"
        }
      ],
      "name": "setAdminStatsQueryModule",
      "outputs": [],
      "stateMutability": "nonpayable",
      "type": "function"
    },
    {
      "inputs": [
        {
          "internalType": "address",
          "name": "d",
          "type": "address"
        }
      ],
      "name": "setDeployer",
      "outputs": [],
      "stateMutability": "nonpayable",
      "type": "function"
    },
    {
      "inputs": [
        {
          "internalType": "address",
          "name": "m",
          "type": "address"
        }
      ],
      "name": "setFaucetModule",
      "outputs": [],
      "stateMutability": "nonpayable",
      "type": "function"
    },
    {
      "inputs": [
        {
          "internalType": "address",
          "name": "m",
          "type": "address"
        }
      ],
      "name": "setGovernanceModule",
      "outputs": [],
      "stateMutability": "nonpayable",
      "type": "function"
    },
    {
      "inputs": [
        {
          "internalType": "address",
          "name": "m",
          "type": "address"
        }
      ],
      "name": "setIssuedNftModule",
      "outputs": [],
      "stateMutability": "nonpayable",
      "type": "function"
    },
    {
      "inputs": [
        {
          "internalType": "address",
          "name": "m",
          "type": "address"
        }
      ],
      "name": "setMembershipStatsModule",
      "outputs": [],
      "stateMutability": "nonpayable",
      "type": "function"
    },
    {
      "inputs": [
        {
          "internalType": "string",
          "name": "newBaseURI",
          "type": "string"
        }
      ],
      "name": "setMetadataBaseURI",
      "outputs": [],
      "stateMutability": "nonpayable",
      "type": "function"
    },
    {
      "inputs": [
        {
          "internalType": "address",
          "name": "h",
          "type": "address"
        }
      ],
      "name": "setQuoteHelper",
      "outputs": [],
      "stateMutability": "nonpayable",
      "type": "function"
    },
    {
      "inputs": [
        {
          "internalType": "address",
          "name": "m",
          "type": "address"
        }
      ],
      "name": "setRedeemModule",
      "outputs": [],
      "stateMutability": "nonpayable",
      "type": "function"
    },
    {
      "inputs": [
        {
          "internalType": "address",
          "name": "",
          "type": "address"
        },
        {
          "internalType": "uint256",
          "name": "",
          "type": "uint256"
        }
      ],
      "name": "tokenIdIssued",
      "outputs": [
        {
          "internalType": "bool",
          "name": "",
          "type": "bool"
        }
      ],
      "stateMutability": "view",
      "type": "function"
    },
    {
      "inputs": [
        {
          "internalType": "address",
          "name": "newOwner",
          "type": "address"
        }
      ],
      "name": "transferOwner",
      "outputs": [],
      "stateMutability": "nonpayable",
      "type": "function"
    },
    {
      "inputs": [
        {
          "internalType": "bytes32",
          "name": "",
          "type": "bytes32"
        }
      ],
      "name": "usedAdminExecuteNonces",
      "outputs": [
        {
          "internalType": "bool",
          "name": "",
          "type": "bool"
        }
      ],
      "stateMutability": "view",
      "type": "function"
    },
    {
      "inputs": [
        {
          "internalType": "bytes32",
          "name": "",
          "type": "bytes32"
        }
      ],
      "name": "usedClearAdminMintCounterNonces",
      "outputs": [
        {
          "internalType": "bool",
          "name": "",
          "type": "bool"
        }
      ],
      "stateMutability": "view",
      "type": "function"
    },
    {
      "inputs": [
        {
          "internalType": "bytes32",
          "name": "",
          "type": "bytes32"
        }
      ],
      "name": "usedOwnerExecuteNonces",
      "outputs": [
        {
          "internalType": "bool",
          "name": "",
          "type": "bool"
        }
      ],
      "stateMutability": "view",
      "type": "function"
    }
  ],
  "bytecode": "0x60c080604052346102d25760c081615980803803809161001f82856102d6565b8339810103126102d2576100328161030d565b61003e6020830161030d565b61004a6040840161030d565b906100576060850161030d565b9261007060a06100696080880161030d565b960161030d565b906001600160a01b0381161580156102c1575b80156102b0575b801561029f575b801561028e575b801561027d575b61026e576080525f80546001600160a01b03199081166001600160a01b039384169081178355825260016020819052604092839020805460ff191682179055600280548316958516958617905560038054831686179055600480548316861790556005805483168617905560068054831690951790945560078054821690556008805482169584169590951790945560098054851695831695909517909455600b80549093169416939093179055600c919091556064600d5580519061016590826102d6565b601581527f4265616d696f5573657243617264466163746f72790000000000000000000000602090910152604080517fb77f4f874d464e6b89d928e63195f8e6a3efa6ad7d73e629a7033d854b4099b9916101c090826102d6565b600181526020810190603160f81b82525190206040519060208201927f8b73c3c69bb8fe3d512ecc4cf759cc79239f7b179b0ffacaa9a75d522b39400f8452604083015260608201524660808201523060a082015260a0815261022460c0826102d6565b51902060a05260405161565e9081610322823960805181818161062f015281816116d00152818161197501528181613b010152613e0c015260a051818181610c860152610ef00152f35b63a9b8048960e01b5f5260045ffd5b506001600160a01b0382161561009f565b506001600160a01b03861615610098565b506001600160a01b03851615610091565b506001600160a01b0384161561008a565b506001600160a01b03831615610083565b5f80fd5b601f909101601f19168101906001600160401b038211908210176102f957604052565b634e487b7160e01b5f52604160045260245ffd5b51906001600160a01b03821682036102d25756fe60806040526004361015610011575f80fd5b5f3560e01c80630562f3e7146103e5578063058c71e6146103e05780630895a8601461034a5780630c3c5d00146103db5780630e1398b9146103d65780630e832513146102cd5780631d4d9cf7146103d15780632590b4f6146103cc57806331a04f1d146103c75780633644e515146103c25780633650ec85146103bd57806339a8886d146103b85780633cc29bb3146103b35780633d8807f8146103ae578063409826d3146103a957806349c20cf2146103a45780634a058fce1461039f5780634f11ef121461039a5780634fb2e45d1461039557806356bceaf61461039057806362cb913c1461038b5780636eb30f651461038657806371326e55146103815780637264becd1461037c5780637b422f3914610377578063803efb8a1461037257806389a30271146102d75780638d0c57861461036d5780638da5cb5b1461036857806393f1da4f14610363578063962147351461035e5780639688856f1461035957806396964e0b146103545780639858d8241461034f57806398e1e9441461034a5780639c0efbda146103455780639f3d1a2a14610340578063a2d5b9c81461033b578063a3d64fc314610336578063ac68fc0014610331578063b2592cf71461032c578063bdce71aa14610327578063c1cfc34a14610322578063c374a7a91461031d578063c60cfbd214610318578063cc7dcbe814610313578063ce85715d1461030e578063d5f3948814610309578063d68a7bf714610304578063d9dd2f20146102ff578063dcc96a34146102fa578063dd16dfdc146102f5578063deaefff2146102f0578063dfcf851f146102eb578063e83492d1146102e6578063e8e35113146102e1578063ef759095146102dc578063fa569274146102d7578063fa957c2e146102d2578063fb3894d3146102cd578063fb94bd8a146102c85763fd722edb146102c3575f80fd5b6131ac565b61304a565b6109d4565b612fcb565b611960565b612f43565b612ecf565b61272a565b612623565b6125a4565b612525565b6124a6565b6123dd565b61225a565b612203565b6121db565b61200a565b611f89565b611f00565b611ea8565b611e1e565b611da3565b611d66565b611c49565b611bf7565b611bc8565b611b7c565b6108b1565b611b3c565b611abd565b611a96565b611a17565b6119fa565b6119d3565b6119a4565b61191d565b6118a8565b61155a565b6114db565b6114b4565b61140a565b6113d7565b611360565b611268565b611240565b611218565b6111d3565b611149565b6110ea565b610f83565b610f13565b610ed9565b610eaa565b610b4d565b6109fc565b610955565b61092d565b61081d565b610496565b6001600160a01b031690565b6001600160a01b0381160361040757565b5f80fd5b9181601f84011215610407578235916001600160401b038311610407576020838186019501011161040757565b9061010060031983011261040757600435610452816103f6565b9160243561045f816103f6565b9160443591606435916084359160a4359160c4359160e435906001600160401b038211610407576104929160040161040b565b9091565b34610407576104a436610438565b929060018060a09a97989a1b035f541633148015610807575b156107cf576001600160a01b03881615610780576001600160a01b0386169586159081156107fd575b5061078057604051635378561960e01b81526020816004818a5afa9081156106e7575f916107de575b50306001600160a01b03909116036107cf5786156107c057604051638da5cb5b60e01b8152906020826004818a5afa9182156106e7575f9261078f575b506001600160a01b03821615610780576040516327d23eb360e21b8152600481018b905293610100856024818b5afa9485156106e7575f9561074f575b5061059e61059a6080870151151590565b1590565b6107405760e0850180516001600160801b03161561073157610619956105fe60a06105f56105ec8e6105e76105db6020985160018060801b031690565b6001600160801b031690565b613359565b620f4240900490565b92015160ff1690565b60405163145ab73960e31b8152978892839260048401613399565b0381305afa9485156106e7575f95610700575b507f00000000000000000000000000000000000000000000000000000000000000006001600160a01b031693843b15610407575f9687938c93610686936040519b8c9a8b998a9863cf09299560e01b8a5260048a016133ce565b03925af180156106e7576106ec575b50803b15610407576106c1935f809460405196879586948593636465c3a760e01b855260048501613413565b03925af180156106e7576106d157005b806106df5f6106e59361320b565b806108ff565b005b613243565b806106df5f6106fa9361320b565b5f610695565b61072391955060203d60201161072a575b61071b818361320b565b81019061338a565b935f61062c565b503d610711565b63225426e360e01b5f5260045ffd5b63ab6138a560e01b5f5260045ffd5b6107729195506101003d8111610779575b61076a818361320b565b81019061328e565b935f610589565b503d610760565b63a9b8048960e01b5f5260045ffd5b6107b291925060203d6020116107b9575b6107aa818361320b565b81019061322e565b905f61054c565b503d6107a0565b63201165f360e21b5f5260045ffd5b630fc5e1ab60e41b5f5260045ffd5b6107f7915060203d6020116107b9576107aa818361320b565b5f61050f565b90503b155f6104e6565b50335f52600160205260ff60405f2054166104bd565b346104075760203660031901126104075760043561083a816103f6565b5f546001600160a01b031633036107cf576001600160a01b0316801561078057600654816001600160a01b0382167f68c2faaf0ebfd42d2518b6fbf5130982e7ad496f58df6975a54886e81d5a084b5f80a36001600160a01b03191617600655005b9060018060a01b03165f5260205260405f2090565b34610407576040366003190112610407576004356108ce816103f6565b6024359060018060a01b03165f52600e60205260405f20905f52602052602060ff60405f2054166040519015158152f35b5f91031261040757565b6001600160a01b0316600452602490565b6001600160a01b03909116815260200190565b34610407575f366003190112610407576002546040516001600160a01b039091168152602090f35b3461040757602036600319011261040757600435610972816103f6565b5f546001600160a01b031633036107cf576001600160a01b0316801561078057600854816001600160a01b0382167feb7103e1b7fa12591abe0ba2fb5df1720e3786a45a1684846043c1b7dcfcb9c75f80a36001600160a01b03191617600855005b34610407575f36600319011261040757600b546040516001600160a01b039091168152602090f35b3461040757602036600319011261040757600435610a19816103f6565b60018060a01b0316610a37610a32610a326008546103ea565b6103ea565b60405163e5a6b10f60e01b815290602082600481865afa9182156106e7575f92610b1a575b5060208293610a6c60049461345d565b604051634dda221560e01b815293849182905afa9081156106e757610ab2936020935f93610afb575b5060405180958194829363577e933760e11b845260048401613399565b03915afa80156106e757610ad8915f91610adc575b506040519081529081906020820190565b0390f35b610af5915060203d60201161072a5761071b818361320b565b5f610ac7565b610b13919350843d861161072a5761071b818361320b565b915f610a95565b60049250610b3f602091823d8411610b46575b610b37818361320b565b810190613431565b9250610a5c565b503d610b2d565b346104075760a036600319011261040757600435610b6a816103f6565b602435610b76816103f6565b60443591606435906084356001600160401b03811161040757610b9d90369060040161040b565b5f546001600160a01b031633148015610e94575b156107cf576001600160a01b0383169586158015610e8b575b610780576001600160a01b0386161561078057804211610e7757604051635378561960e01b81526020816004818b5afa9081156106e7575f91610e58575b50306001600160a01b03909116036107cf57604080515f5160206155525f395f51905f52602082019081526001600160a01b03808816938301939093529188166060820152608081019290925260a08201869052610cd093610cca929091610cc291610c818160c081015b03601f19810183528261320b565b5190207f00000000000000000000000000000000000000000000000000000000000000006042916040519161190160f01b8352600283015260228201522090565b923691613496565b90614214565b916040516249dd0960e81b815260208180610cee886004830161091a565b0381895afa9081156106e7575f91610e39575b506001600160a01b03168015610e2a576001600160a01b03841603610e2a576040516249dd0960e81b815260208180610d3d876004830161091a565b0381895afa9081156106e7575f91610e0b575b506001600160a01b0316610df557610d77610c7391604051928391876020840196876134cc565b519020610d96610d8f825f52601460205260405f2090565b5460ff1690565b610de657610daf610dbc915f52601460205260405f2090565b805460ff19166001179055565b823b15610407576106c1925f9283604051809681958294632aff2a5960e01b8452600484016134ee565b637b7fc77160e01b5f5260045ffd5b636a57bcd560e11b5f52610e0883610909565b5ffd5b610e24915060203d6020116107b9576107aa818361320b565b5f610d50565b6363bc5ecb60e11b5f5260045ffd5b610e52915060203d6020116107b9576107aa818361320b565b5f610d01565b610e71915060203d6020116107b9576107aa818361320b565b5f610c08565b631f1183ed60e31b5f52610e08904261346c565b50833b15610bca565b50335f52600160205260ff60405f205416610bb1565b34610407576020366003190112610407576004355f526012602052602060ff60405f2054166040519015158152f35b34610407575f3660031901126104075760206040517f00000000000000000000000000000000000000000000000000000000000000008152f35b34610407575f3660031901126104075760206040515f5160206155525f395f51905f528152f35b90606060031983011261040757600435610f53816103f6565b91602435906001600160401b03821161040757610f729160040161040b565b9091604435610f80816103f6565b90565b3461040757610f9136610f3a565b5f549293926001600160a01b0316331480156110d4575b156107cf576001600160a01b038116938415610780576001600160a01b0384169384159081156110ca575b5061078057604051635378561960e01b8152602081600481885afa9081156106e7575f916110ab575b50306001600160a01b03909116036107cf57821561109c57833b15610407575f61103c9260405180948192637cc37b3b60e11b8352878660048501613508565b038183885af19081156106e7575f5160206156325f395f51905f52936110839361106d93611088575b503691613496565b8051602091820120604051908152918291820190565b0390a3005b806106df5f6110969361320b565b5f611065565b63411581df60e11b5f5260045ffd5b6110c4915060203d6020116107b9576107aa818361320b565b5f610ffc565b90503b155f610fd3565b50335f52600160205260ff60405f205416610fa8565b34610407575f366003190112610407576020600c54604051908152f35b60206040818301928281528451809452019201905f5b81811061112a5750505090565b82516001600160a01b031684526020938401939092019160010161111d565b3461040757602036600319011261040757600435611166816103f6565b60018060a01b03165f52600f60205260405f206040519081602082549182815201915f5260205f20905f5b8181106111b457610ad8856111a88187038261320b565b60405191829182611107565b82546001600160a01b0316845260209093019260019283019201611191565b34610407576020366003190112610407576004356111f0816103f6565b60018060a01b03165f526011602052602060018060a01b0360405f2054161515604051908152f35b34610407575f366003190112610407576006546040516001600160a01b039091168152602090f35b34610407575f366003190112610407576005546040516001600160a01b039091168152602090f35b346104075761127636610f3a565b5f549293926001600160a01b03163314801561134a575b156107cf576001600160a01b038116938415610780576001600160a01b038416938415908115611340575b5061078057604051635378561960e01b8152602081600481885afa9081156106e7575f91611321575b50306001600160a01b03909116036107cf57821561109c57833b15610407575f61103c92604051809481926371b8982f60e01b8352878660048501613508565b61133a915060203d6020116107b9576107aa818361320b565b5f6112e1565b90503b155f6112b8565b50335f52600160205260ff60405f20541661128d565b346104075760203660031901126104075760043561137d816103f6565b5f546001600160a01b03811691338390036107cf576001600160a01b03169182156107805782907fb532073b38c83145e3e5135377a08bf9aab55bc0fd7c1179cd4fb995d2a5159c5f80a36001600160a01b031916175f55005b34610407575f366003190112610407576004546040516001600160a01b039091168152602090f35b60ff81160361040757565b346104075760a036600319011261040757600435611427816103f6565b60243590611434826113ff565b6044356064356001600160401b0381116104075761145690369060040161040b565b60843593916001600160401b0385116104075736602386011215610407576004850135936001600160401b038511610407573660248660071b8801011161040757610ad89660246114a8970194613531565b6040519182918261091a565b34610407575f3660031901126104075760206040515f5160206155d25f395f51905f528152f35b34610407576020366003190112610407576004356114f8816103f6565b5f546001600160a01b031633036107cf576001600160a01b0316801561078057600454816001600160a01b0382167f604f85697fb330a944d96c7ccaa0cc8e84f90ae4e43e07c4fb7a17614c1aa2755f80a36001600160a01b03191617600455005b346104075761156836610438565b9795929190969360018060a01b035f541633148015611892575b156107cf576001600160a01b038516978815610780576001600160a01b038816978815908115611888575b5061078057604051635378561960e01b81526020816004818c5afa9081156106e7575f91611869575b50306001600160a01b03909116036107cf5786156107c057604051638da5cb5b60e01b8152936020856004818c5afa9485156106e7575f95611848575b506001600160a01b0385169a8b1561078057604051633c703d4560e01b8152600481018890526020816024818e5afa9081156106e7575f91611829575b50801561073157611661908a613359565b60405163e5a6b10f60e01b81529096906020816004818f5afa9788156106e7576116b4986020925f9161180c575b506116998161345d565b60405163145ab73960e31b8152998a92839260048401613399565b0381305afa9687156106e7575f976117eb575b5086156107c0577f00000000000000000000000000000000000000000000000000000000000000006001600160a01b031691823b1561040757896117295f969287938a8c986040519b8c9a8b998a9863cf09299560e01b8a5260048a016133ce565b03925af180156106e7576117d7575b50853b15610407575f83869561176260405198899384936311d794fb60e21b855260048501613413565b0381838a5af19182156106e7577f46153b28e9a3688aede6f2c4c60c8d2cd1e2181b36e413211bf9134a7b195996956117be936117c3575b50604051948594859094939260609260808301968352602083015260408201520152565b0390a4005b806106df5f6117d19361320b565b5f61179a565b806106df5f6117e59361320b565b5f611738565b61180591975060203d60201161072a5761071b818361320b565b955f6116c7565b6118239150833d8511610b4657610b37818361320b565b5f61168f565b611842915060203d60201161072a5761071b818361320b565b5f611650565b61186291955060203d6020116107b9576107aa818361320b565b935f611613565b611882915060203d6020116107b9576107aa818361320b565b5f6115d6565b90503b155f6115ad565b50335f52600160205260ff60405f205416611582565b34610407576060366003190112610407576004356118c5816103f6565b6024356001600160401b03811161040757366023820112156104075760048101356001600160401b038111610407573660248260051b84010111610407576106e592602460443593611916856103f6565b01906136c5565b346104075760203660031901126104075760043561193a816103f6565b60018060a01b03165f526011602052602060018060a01b0360405f205416604051908152f35b34610407575f366003190112610407576040517f00000000000000000000000000000000000000000000000000000000000000006001600160a01b03168152602090f35b34610407576020366003190112610407576004355f526014602052602060ff60405f2054166040519015158152f35b34610407575f366003190112610407575f546040516001600160a01b039091168152602090f35b34610407575f366003190112610407576020600d54604051908152f35b3461040757602036600319011261040757600435611a34816103f6565b5f546001600160a01b031633036107cf576001600160a01b0316801561078057600954816001600160a01b0382167fb425bf30023a30c35ee17f3f416360da7ea96a46b589cfa6a14f39dc98a52bca5f80a36001600160a01b03191617600955005b34610407575f3660031901126104075760206040515f5160206155b25f395f51905f528152f35b3461040757602036600319011261040757600435611ada816103f6565b5f546001600160a01b031633036107cf576001600160a01b0316801561078057600754816001600160a01b0382167faef56aa2dfc2ea6be1a594657b24cdaed49e90855b6510f3880a4fafffd825f15f80a36001600160a01b03191617600755005b3461040757602036600319011261040757600435611b59816103f6565b60018060a01b03165f526001602052602060ff60405f2054166040519015158152f35b34610407575f366003190112610407576007546040516001600160a01b039091168152602090f35b805180835260209291819084018484015e5f828201840152601f01601f1916010190565b34610407575f36600319011261040757610ad8611be3613932565b604051918291602083526020830190611ba4565b3461040757604036600319011261040757610ab26020600435611c19816113ff565b60085460405163145ab73960e31b81529384926001600160a01b0390921691839182916024359060048401613399565b3461040757611c5736610f3a565b5f549293926001600160a01b031633148015611d2b575b156107cf576001600160a01b038116938415610780576001600160a01b038416938415908115611d21575b5061078057604051635378561960e01b8152602081600481885afa9081156106e7575f91611d02575b50306001600160a01b03909116036107cf57821561109c57833b15610407575f61103c9260405180948192631dd9be9160e21b8352878660048501613508565b611d1b915060203d6020116107b9576107aa818361320b565b5f611cc2565b90503b155f611c99565b50335f52600160205260ff60405f205416611c6e565b604090600319011261040757600435611d59816103f6565b90602435610f80816103f6565b3461040757602060ff611d97611d7b36611d41565b6001600160a01b039091165f908152601085526040902061089c565b54166040519015158152f35b346104075761010036600319011261040757600435611dc1816103f6565b602435611dcd816103f6565b6064359160c435916044359060a4356084356001600160401b03861161040757610ad896611e02611e0e97369060040161040b565b95909460e435976139d4565b6040519081529081906020820190565b34610407575f366003190112610407576003546040516001600160a01b039091168152602090f35b9060a060031983011261040757600435611e5f816103f6565b916024356001600160401b0381116104075781611e7e9160040161040b565b909290916044359160643591608435906001600160401b038211610407576104929160040161040b565b3461040757611eb636611e46565b9495909360018060a09594951b035f541633148015611eea575b156107cf576106e596611ee4913691613496565b90614d23565b50335f52600160205260ff60405f205416611ed0565b3461040757602036600319011261040757600435611f1d816103f6565b6001600160a01b03165f818152600f60205260409020549081611f4a57505060405180610ad85f8261091a565b5f52600f60205260405f205f198201918211611f8457610ad891611f6d91613ce7565b905460039190911b1c6001600160a01b03166114a8565b61332b565b346104075761012036600319011261040757600435611fa7816103f6565b60243590611fb4826103f6565b6044359060643592611fc560843590565b9360c4359360a4356001600160401b03861161040757610ad896611ff0611e0e97369060040161040b565b94909360e4359661010435986120058a6103f6565b613cfc565b346104075761201836611d41565b5f546001600160a01b0316331480156121c5575b156107cf576001600160a01b03821690811580156121b4575b6107805761206f610d8f8261206a8660018060a01b03165f52601060205260405f2090565b61089c565b6121a557604051635378561960e01b81526001600160a01b0382169390602081600481885afa9081156106e7575f91612186575b50306001600160a01b039091160361215857604051638da5cb5b60e01b8152602081600481885afa80156106e75784915f91612167575b506001600160a01b03160361215857612113826120fa612132948461531b565b6001600160a01b03165f90815260116020526040902090565b80546001600160a01b0319166001600160a01b03909216919091179055565b7fc063fc300750e8c5649c6b3779f6c4b05e7b38b170ee5c4a4b222ede9a2880835f80a3005b633a307eb360e01b5f5260045ffd5b612180915060203d6020116107b9576107aa818361320b565b5f6120da565b61219f915060203d6020116107b9576107aa818361320b565b5f6120a3565b63d62a8c9560e01b5f5260045ffd5b506001600160a01b03811615612045565b50335f52600160205260ff60405f20541661202c565b34610407575f366003190112610407576008546040516001600160a01b039091168152602090f35b34610407575f366003190112610407576009546040516001600160a01b039091168152602090f35b8015150361040757565b60409060031901126104075760043561224d816103f6565b90602435610f808161222b565b346104075761226836612235565b5f546001600160a01b0316331480156123c7575b156107cf576001600160a01b03821691821580156123be575b61078057604051635378561960e01b8152602081600481875afa9081156106e7575f9161239f575b50306001600160a01b03909116036107cf57610ad8927f4c1cbefbba6c448ac41213acf5c22774d44a2ba3b12119ff1f747a82cf887d8e61235561233694805f1461236857612343610daf600d5461231c61231782613fd8565b600d55565b8098819860018060a01b03165f52600e60205260405f2090565b905f5260205260405f2090565b60405190151581529081906020820190565b0390a36040519081529081906020820190565b612343610daf600c5461238261237d82613fd8565b600c55565b809881986001600160a01b03165f908152600e6020526040902090565b6123b8915060203d6020116107b9576107aa818361320b565b5f6122bd565b50803b15612295565b50335f52600160205260ff60405f20541661227c565b3461040757610100366003190112610407576004356123fb816103f6565b6024356044359060643592608435926124138461222b565b60c4359160a435919060e4356001600160401b0381116104075761243b90369060040161040b565b96909560018060a01b035f541633148015612490575b156107cf5761247d61248b926106e59a604051968794631c283b9760e31b6020870152602486016136a5565b03601f19810184528361320b565b614d23565b50335f52600160205260ff60405f205416612451565b34610407576020366003190112610407576004356124c3816103f6565b5f546001600160a01b031633036107cf576001600160a01b0316801561078057600354816001600160a01b0382167f5e8861c011b27f9301ab1873c22d74fa961d4262fad8e19488f049cd48d3aaba5f80a36001600160a01b03191617600355005b3461040757602036600319011261040757600435612542816103f6565b5f546001600160a01b031633036107cf576001600160a01b0316801561078057600554816001600160a01b0382167fd6dc2c603206d37bd08c10999d5659ccd709ea565580b7d63cda117c96a90c2b5f80a36001600160a01b03191617600555005b34610407576020366003190112610407576004356125c1816103f6565b5f546001600160a01b031633036107cf576001600160a01b0316801561078057600b54816001600160a01b0382167fb30a75ccd0bb0742ffc18720f7e4013b83d98b9d9236dc4532955541a1df3a655f80a36001600160a01b03191617600b55005b346104075760a036600319011261040757600435612640816103f6565b6024356044359160643590608435936126588561222b565b5f546001600160a01b031633148015612714575b156107cf576001600160a01b03821691821590811561270a575b5061078057604051635378561960e01b8152602081600481865afa9081156106e7575f916126eb575b50306001600160a01b03909116036107cf57813b15610407575f80946106c160405197889687958694631c283b9760e31b8652600486016136a5565b612704915060203d6020116107b9576107aa818361320b565b5f6126af565b90503b155f612686565b50335f52600160205260ff60405f20541661266c565b346104075761273836611e46565b9094919560018060a09695961b035f541633148015612eb9575b156107cf576001600160a01b0381169586158015612eb0575b610780576004851061109c57854211612e9c57604051635378561960e01b81526020816004818b5afa9081156106e7575f91612e7d575b50306001600160a01b03909116036107cf576127d16127c18686613fe6565b6001600160e01b03199291614011565b169263564da75760e01b841496871580612e6c575b80612e5b575b80612e4a575b80612e39575b80612e28575b80612e17575b612e085761287192610cc2610cca928c610c81612822368d8d613496565b6020815191012092610c7360405193849260208401968d889094939260809260a08301965f5160206155b25f395f51905f52845260018060a01b03166020840152604083015260608201520152565b94604051630935e01b60e21b8152602081806128908a6004830161091a565b03818b5afa9081156106e7575f91612dd9575b5015610e2a5760405160208101906128c181610c738c8b88876134cc565b5190206128d9610d8f825f52601360205260405f2090565b610de657610daf6128f2915f52601360205260405f2090565b6128fd368686613496565b90630b18ae1d60e11b8403612a4b5750505f8091610c7361295b8861292e6129268a808b613ff4565b810190614168565b6040516303bbece160e21b602082015296879590949093919291906001600160a01b0316602487016141b1565b905b82602083519301915af161296f6141e5565b9015612a2f57506343159ce560e01b146129af575b50506040519283526001600160a01b0316915f5160206155725f395f51905f52908060208101611083565b816129c5926129bd92613ff4565b810190614047565b919050823b15610407575f6129ef9260405180948192631018c34b60e01b83528560048401614066565b038183875af19081156106e7575f5160206155725f395f51905f529261108392612a1b575b5091612984565b806106df5f612a299361320b565b5f612a14565b80519081612a4657633655084960e01b5f5260045ffd5b602001fd5b63d8bdbdf560e01b8403612aae5750505f8091610c73612aa788612a7b612a738a808b613ff4565b8101906140d6565b60405163037fe8db60e51b6020820152978896909591949093916001600160a01b031660248801614124565b905b61295d565b63738abdef60e01b8403612bd3575050612acc6129bd858086613ff4565b6040516249dd0960e81b815290916001600160a01b03169060208180612af5856004830161091a565b03818c5afa9081156106e7575f91612bb4575b506001600160a01b03888116911603610e2a576040516249dd0960e81b815260208180612b388b6004830161091a565b03818c5afa9081156106e7575f91612b95575b506001600160a01b0316612b8257915f9291612aa78493610c738a604051948593636f5d64cf60e11b602086015260248501613fb5565b636a57bcd560e11b5f52610e0887610909565b612bae915060203d6020116107b9576107aa818361320b565b5f612b4b565b612bcd915060203d6020116107b9576107aa818361320b565b5f612b08565b632aff2a5960e01b8403612cf4575050612bf9612bf1858086613ff4565b810190614096565b6001600160a01b039081169181169087168203610e2a576040516249dd0960e81b815260208180612c2d856004830161091a565b03818c5afa80156106e75783915f91612cd5575b506001600160a01b031603610e2a576040516249dd0960e81b815260208180612c6d8b6004830161091a565b03818c5afa9081156106e7575f91612cb6575b506001600160a01b0316612b8257915f9291612aa78493610c73604051938492632aff2a5960e01b6020850152602484016134ee565b612ccf915060203d6020116107b9576107aa818361320b565b5f612c80565b612cee915060203d6020116107b9576107aa818361320b565b5f612c41565b5f92839291638a1b32bb60e01b8603612d465750905086612aa7612d27610a32612d1f8a808b613ff4565b810190614081565b610c736040519384926302841ba760e21b6020850152602484016134ee565b6343159ce560e01b86148414612d9457509050612aa7612d6a6129bd888089613ff4565b6040516343159ce560e01b602082015292918391610c73916001600160a01b031660248401614066565b15612aa9579050612aa7612dac6129bd888089613ff4565b604051632476bf5f60e11b602082015292918391610c73918c91906001600160a01b031660248501613fb5565b612dfb915060203d602011612e01575b612df3818361320b565b810190613fa0565b5f6128a3565b503d612de9565b63fb713d2b60e01b5f5260045ffd5b50638a1b32bb60e01b851415612804565b50632aff2a5960e01b8514156127fe565b5063738abdef60e01b8514156127f8565b5063d8bdbdf560e01b8514156127f2565b50630b18ae1d60e11b8514156127ec565b506343159ce560e01b8514156127e6565b612e96915060203d6020116107b9576107aa818361320b565b5f6127a2565b631f1183ed60e31b5f52610e08864261346c565b50813b1561276b565b50335f52600160205260ff60405f205416612752565b3461040757612edd36612235565b5f549091906001600160a01b031633036107cf5760207f70f3008dcbe7ca1157c0809d9b79a5751736957d08f23274121a0903a38cfa999160018060a01b031692835f526001825260405f209015159060ff1981541660ff8316179055604051908152a2005b3461040757608036600319011261040757600435612f60816103f6565b60243590612f6d826113ff565b6044356064356001600160401b03811161040757612f8f90369060040161040b565b9160018060a01b035f541633148015612fb5575b156107cf57610ad8946114a89461423b565b50335f52600160205260ff60405f205416612fa3565b3461040757602036600319011261040757600435612fe8816103f6565b5f546001600160a01b031633036107cf576001600160a01b0316801561078057600254816001600160a01b0382167f2744eeda02c397774dc1a9c7576a416e8d6ee463c636b09a5c558cd3263843ea5f80a36001600160a01b03191617600255005b34610407576020366003190112610407576004356001600160401b0381116104075761307a90369060040161040b565b5f549091906001600160a01b031633036107cf57613099913691613496565b805115610780576130a8613932565b815191906001600160401b0383116131a7576130ce836130c9600a546138fa565b615395565b6020601f841160011461312c57835f5160206155f25f395f51905f5294613109925f91613121575b508160011b915f199060031b1c19161790565b600a555b61311c604051928392836153f4565b0390a1005b90508401515f6130f6565b600a5f52601f198416905f5160206155925f395f51905f52915f5b81811061318f57509185915f5160206155f25f395f51905f529660019410613177575b5050811b01600a5561310d565b8501515f1960f88460031b161c191690555f8061316a565b91926020600181928689015181550194019201613147565b6131db565b34610407576020366003190112610407576004355f526013602052602060ff60405f2054166040519015158152f35b634e487b7160e01b5f52604160045260245ffd5b61010081019081106001600160401b038211176131a757604052565b601f909101601f19168101906001600160401b038211908210176131a757604052565b908160209103126104075751610f80816103f6565b6040513d5f823e3d90fd5b51906001600160401b038216820361040757565b51906001600160801b038216820361040757565b51906132818261222b565b565b5190613281826113ff565b90816101009103126104075761332360e0604051926132ac846131ef565b6132b58161324e565b84526132c36020820161324e565b60208501526132d460408201613262565b60408501526132e560608201613262565b60608501526132f660808201613276565b608085015261330760a08201613283565b60a085015261331860c08201613283565b60c085015201613262565b60e082015290565b634e487b7160e01b5f52601160045260245ffd5b90620f4240820291808304620f42401490151715611f8457565b81810292918115918404141715611f8457565b8115613376570490565b634e487b7160e01b5f52601260045260245ffd5b90816020910312610407575190565b6020909392919360ff60408201951681520152565b908060209392818452848401375f828201840152601f01601f1916010190565b93909260e09592610f8099979460018060a01b0316865260018060a01b0316602086015260408501526060840152608083015260a08201528160c082015201916133ae565b604091949392606082019560018060a01b0316825260208201520152565b90816020910312610407575160098110156104075790565b634e487b7160e01b5f52602160045260245ffd5b6009111561346757565b613449565b6004525f602452604452606490565b6001600160401b0381116131a757601f01601f191660200190565b9291926134a28261347b565b916134b0604051938461320b565b829481845281830111610407578281602093845f960137010152565b6001600160a01b03918216815291166020820152604081019190915260600190565b6001600160a01b0391821681529116602082015260400190565b91602091613521919594956040855260408501916133ae565b6001600160a01b03909416910152565b9392919095949560018060a01b035f541633148015613610575b156107cf576135599461423b565b916001600160a01b038316915f5b818110613575575050505090565b61358861358382848661363a565b61364f565b9081511561360157815160208301516135a960606040860151950151151590565b91873b15610407576135d15f936040519687948594631c283b9760e31b8652600486016136a5565b038183895af19182156106e7576001926135ed575b5001613567565b806106df5f6135fb9361320b565b5f6135e6565b639033099360e01b5f5260045ffd5b50335f52600160205260ff60405f20541661354b565b634e487b7160e01b5f52603260045260245ffd5b919081101561364a5760071b0190565b613626565b608081360312610407576040519060808201906001600160401b038211838310176131a757606091604052803583526020810135602084015260408101356040840152013561369d8161222b565b606082015290565b926060929594919560808501968552602085015260408401521515910152565b90929160018060a01b035f541633148015613802575b156107cf576001600160a01b038316928315610780576001600160a01b0383169283159081156137f8575b5061078057604051635378561960e01b8152602081600481875afa9081156106e7575f916137d9575b50306001600160a01b03909116036107cf57811561109c57823b15610407575f61376f916040518093819263523c822360e11b8352868a60048501613818565b038183875af180156106e7576137c5575b505f5b818110613791575050505050565b8084845f5160206156325f395f51905f526137bc61106d6137b5600197898d6138b9565b3691613496565b0390a301613783565b806106df5f6137d39361320b565b5f613780565b6137f2915060203d6020116107b9576107aa818361320b565b5f61372f565b90503b155f613706565b50335f52600160205260ff60405f2054166136db565b93929190816040860160408752526060850160608360051b87010192825f90601e19813603015b838310613862575050505050509060206132819294019060018060a01b03169052565b909192939495605f198a8203018652863582811215610407578301602081019190356001600160401b038111610407578036038313610407576138ab60209283926001956133ae565b98019601949301919061383f565b919081101561364a5760051b81013590601e19813603018212156104075701803591906001600160401b038311610407576020018236038113610407579190565b90600182811c92168015613928575b602083101461391457565b634e487b7160e01b5f52602260045260245ffd5b91607f1691613909565b604051905f82600a5491613945836138fa565b80835292600181169081156139b55750600114613969575b6132819250038361320b565b50600a5f90815290915f5160206155925f395f51905f525b8183106139995750509060206132819282010161395d565b6020919350806001915483858901015201910190918492613981565b6020925061328194915060ff191682840152151560051b82010161395d565b969594939260018060a01b035f541633148015613cc2575b156107cf575f546001600160a01b031633148015613cac575b156107cf576001600160a01b038216968715610780576001600160a01b0389169687158015613ca3575b61078057604051635378561960e01b81526020816004818c5afa9081156106e7575f91613c84575b50306001600160a01b03909116036107cf5784156107c057604051638da5cb5b60e01b8152956020876004818c5afa9687156106e7575f97613c63575b506001600160a01b0387169a8b15610780576020613ac69160405180938192631d4d9cf760e01b83526004830161091a565b0381305afa9081156106e7575f91613c44575b508015613c3557613af290613aed8861333f565b61336c565b9b8c15613c26578c10613c17577f00000000000000000000000000000000000000000000000000000000000000006001600160a01b031690813b15610407575f86613b5a82968a968d8d966040519b8c9a8b998a9863cf09299560e01b8a5260048a016133ce565b03925af180156106e757613c03575b50843b1561040757875f91613b926040519586938493630ec3786b60e01b855260048501613fb5565b038183885af180156106e7577f246821f0caf9ce5a9ae8fb3bd7097a6d47299d00676d0ec0b40b429694a8684d938893613be992613bef575b50604051938493846040919493926060820195825260208201520152565b0390a490565b806106df5f613bfd9361320b565b5f613bcb565b806106df5f613c119361320b565b5f613b69565b63c02e577360e01b5f5260045ffd5b6313f3da3f60e21b5f5260045ffd5b6376024b7160e01b5f5260045ffd5b613c5d915060203d60201161072a5761071b818361320b565b5f613ad9565b613c7d91975060203d6020116107b9576107aa818361320b565b955f613a94565b613c9d915060203d6020116107b9576107aa818361320b565b5f613a57565b50893b15613a2f565b50335f52600160205260ff60405f205416613a05565b50335f52600160205260ff60405f2054166139ec565b600319810191908211611f8457565b805482101561364a575f5260205f2001905f90565b97989390919260018060a01b035f541633148015613f8a575b156107cf576001600160a01b038316978815610780576001600160a01b038a169788158015613f81575b61078057604051635378561960e01b81526020816004818d5afa9081156106e7575f91613f62575b50306001600160a01b03909116036107cf5785156107c057604051638da5cb5b60e01b8152936020856004818d5afa9485156106e7575f95613f41575b506001600160a01b0385169b8c15610780576020613dd69160405180938192631d4d9cf760e01b83526004830161091a565b0381305afa9081156106e7575f91613f22575b508015613c3557613dfd90613aed8961333f565b9c8d15613c26578d10613c17577f00000000000000000000000000000000000000000000000000000000000000006001600160a01b031690813b15610407575f87613e6582968b968e8b966040519b8c9a8b998a9863cf09299560e01b8a5260048a016133ce565b03925af180156106e757613f0e575b50926001600160a01b038116613ead5750843b1561040757875f91613b926040519586938493630ec3786b60e01b855260048501613fb5565b604051630935e01b60e21b81529193509060208180613ecf856004830161091a565b0381895afa9081156106e7575f91613eef575b5015610e2a57915f613b69565b613f08915060203d602011612e0157612df3818361320b565b5f613ee2565b806106df5f613f1c9361320b565b5f613e74565b613f3b915060203d60201161072a5761071b818361320b565b5f613de9565b613f5b91955060203d6020116107b9576107aa818361320b565b935f613da4565b613f7b915060203d6020116107b9576107aa818361320b565b5f613d67565b508a3b15613d3f565b50335f52600160205260ff60405f205416613d15565b908160209103126104075751610f808161222b565b6001600160a01b0391821681526020810192909252909116604082015260600190565b5f198114611f845760010190565b906004116104075790600490565b909291928360041161040757831161040757600401916003190190565b356001600160e01b031981169291906004821061402c575050565b6001600160e01b031960049290920360031b82901b16169150565b91908260409103126104075760208235614060816103f6565b92013590565b6001600160a01b039091168152602081019190915260400190565b908160209103126104075735610f80816103f6565b919082604091031261040757602082356140af816103f6565b920135610f80816103f6565b9080601f8301121561040757816020610f8093359101613496565b919060a0838203126104075782356140ed816103f6565b9260208101356140fc8161222b565b9260408201359260608301356001600160401b038111610407576080916140609185016140bb565b926141579260a0959298979698600180881b0316855215156020850152604084015260c0606084015260c0830190611ba4565b94600180841b031660808201520152565b9060808282031261040757813561417e816103f6565b92602083013561418d8161222b565b9260408101359260608201356001600160401b03811161040757610f8092016140bb565b9390926135219260809497969760018060a01b0316865215156020860152604085015260a0606085015260a0840190611ba4565b3d1561420f573d906141f68261347b565b91614204604051938461320b565b82523d5f602084013e565b606090565b610f809161422191615419565b9092919261545d565b916020610f809381815201916133ae565b909493926001600160a01b0382169290831561078057841561455b5761428c9460209161426f610a32610a326009546103ea565b905f6040518099819582946203ba1b60e51b84526004840161422a565b03925af19384156106e7575f9461453a575b5092946001600160a01b03861693908685158015614531575b61450457604051635378561960e01b81526020816004818a5afa9081156106e7575f916144e5575b50306001600160a01b03909116036144b757604051638da5cb5b60e01b81526020816004818a5afa80156106e75786915f91614498575b506001600160a01b03160361446a5760405163e5a6b10f60e01b81526020816004818a5afa9081156106e7575f9161444b575b506143538161345d565b60ff80841691160361441d57604051634dda221560e01b81526020816004818a5afa80156106e75784915f916143fe575b50036143d15783612113826120fa6143bd947fb6ce9f4a6c24844ee121b78004db1a1773ef64e1d804b875dd31413a87560cc09861531b565b6143cc60405192839283613399565b0390a3565b604051600481525f5160206156125f395f51905f5290602090a16355c7c7ff60e01b5f526004805260245ffd5b614417915060203d60201161072a5761071b818361320b565b5f614384565b604051600381525f5160206156125f395f51905f5290602090a16355c7c7ff60e01b5f52600360045260245ffd5b614464915060203d602011610b4657610b37818361320b565b5f614349565b604051600281525f5160206156125f395f51905f5290602090a16355c7c7ff60e01b5f52600260045260245ffd5b6144b1915060203d6020116107b9576107aa818361320b565b5f614316565b604051600181525f5160206156125f395f51905f5290602090a16355c7c7ff60e01b5f52600160045260245ffd5b6144fe915060203d6020116107b9576107aa818361320b565b5f6142df565b6040515f81525f5160206156125f395f51905f5290602090a16355c7c7ff60e01b5f90815260045260245ffd5b50803b156142b7565b61455491945060203d6020116107b9576107aa818361320b565b925f61429e565b633448691b60e11b5f5260045ffd5b906145748261347b565b614581604051918261320b565b8281528092614592601f199161347b565b0190602036910137565b9060048201809211611f8457565b90815181101561364a570160200190565b6001600160401b0381116131a75760051b60200190565b9080601f830112156104075781516145e9816145bb565b926145f7604051948561320b565b81845260208085019260051b82010192831161040757602001905b82821061461f5750505090565b8151815260209182019101614612565b9080601f83011215610407578151614646816145bb565b92614654604051948561320b565b81845260208085019260051b820101918383116104075760208201905b83821061468057505050505090565b81516001600160401b038111610407576020916146a2878480948801016145d2565b815201910190614671565b9080601f83011215610407578151906146c5826145bb565b926146d3604051948561320b565b82845260208085019360051b82010191821161040757602001915b8183106146fb5750505090565b825163ffffffff81168103610407578152602092830192016146ee565b5190613281826103f6565b60e0818303126104075780519261473c6020830161324e565b926147496040840161324e565b60608401519093906001600160401b038111610407578261476b91830161462f565b60808201519093906001600160401b038111610407578361478d91840161462f565b60a08301519093906001600160401b0381116104075760c0916147b19185016146ad565b920151610f80816103f6565b90602080835192838152019201905f5b8181106147da5750505090565b82518452602093840193909201916001016147cd565b9080602083519182815201916020808360051b8301019401925f915b83831061481b57505050505090565b9091929394602080614839600193601f1986820301875289516147bd565b9701930193019193929061480c565b90602080835192838152019201905f5b8181106148655750505090565b825163ffffffff16845260209384019390920191600101614858565b9081526001600160401b0391821660208201529116604082015261010060608201819052949695909460e09491936148e0936148d2926148c491908901906147f0565b9087820360808901526147f0565b9085820360a0870152614848565b6001600160a01b0395861660c08501529416910152565b9160c083830312610407578251926149116020820161324e565b9261491e6040830161324e565b60608301519093906001600160401b038111610407578261494091850161462f565b60808401519093906001600160401b038111610407578361496291830161462f565b60a08201519093906001600160401b03811161040757610f8092016146ad565b9081526001600160401b0391821660208201529116604082015260e060608201819052949594909360c0936135219391926149d1926149c3918801906147f0565b9086820360808801526147f0565b9084820360a0860152614848565b9190610100838203126104075782516001600160401b0381116104075781614a089185016145d2565b92602081015192604082015192614a216060840161324e565b92614a2e6080820161324e565b60a08201519093906001600160401b0381116104075783614a509184016145d2565b60c083015190936001600160401b03821161040757614a7660e091610f809386016145d2565b9301614718565b9799989590946101009794614ad394614aa3614ae1986101208d526101208d01906147bd565b60208c019590955260408b01526001600160401b0390811660608b015216608089015287820360a08901526147bd565b9085820360c08701526147bd565b6001600160a01b0395861660e08501529416910152565b9060e0828203126104075781516001600160401b0381116104075781614b1f9184016145d2565b92602083015192604081015192614b386060830161324e565b92614b456080840161324e565b60a08401519093906001600160401b0381116104075783614b679183016145d2565b60c08201519093906001600160401b03811161040757610f8092016145d2565b96939461352195614bdc94614bac60e099949c9b9c6101008c526101008c01906147bd565b60208b019590955260408a01526001600160401b0390811660608a015216608088015286820360a08801526147bd565b9084820360c08601526147bd565b91906101008382031261040757825192602081015192604082015192614c126060840161324e565b92614c1f6080820161324e565b60a08201519093906001600160401b0381116104075783614c419184016145d2565b60c08301519093906001600160401b0381116104075760e0916147b19185016145d2565b979998959193614ad3936101009895614ae197938b5260208b015260408a015260018060401b0316606089015260018060401b0316608088015261012060a08801526101208701906147bd565b9060e08282031261040757815192602083015192604081015192614b386060830161324e565b9693614bdc9360e0979361352197939b9a9b8a5260208a0152604089015260018060401b0316606088015260018060401b0316608087015261010060a08701526101008601906147bd565b9194919390926001600160a01b03851692909183158015615312575b6107805784511561109c578642116152fe57604051635378561960e01b8152602081600481885afa9081156106e7575f916152df575b50306001600160a01b03909116036107cf57602060049460405195868092638da5cb5b60e01b82525afa9384156106e7575f946152b4575b5090610cca614e0e92610cc28888519a610c8160208b019c8d20610c738a6040519485936020850197889094939260809260a08301965f5160206155d25f395f51905f52845260018060a01b03166020840152604083015260608201520152565b916001600160a01b03808216908416036152935750604051614e3981610c7360208201948886614066565b519020614e51610d8f825f52601260205260405f2090565b610de657610daf614e6a915f52601260205260405f2090565b81938251906004821015614e9d575b50505050815f92918360208194519301915af1614e946141e5565b9015612a2f5750565b5192959194919260e01c6001600160e01b031916630569881360e41b8103614f6957505050614ed4614ecf8551613cd8565b61456a565b915f5b8351811015614f195780614f06614ef8614ef260019461459c565b896145aa565b516001600160f81b03191690565b5f1a614f1282876145aa565b5301614ed7565b50909350610c73614f5e5f94614f39869560208082518301019101614cb2565b936040999697959993919351998a986347b5881360e01b60208b015260248a01614cd8565b905b9181935f614e79565b63c0ab3ba360e01b810361501057505050614f87614ecf8551613cd8565b915f5b8351811015614fb85780614fa5614ef8614ef260019461459c565b5f1a614fb182876145aa565b5301614f8a565b509093505f9261500a610c73614fd8869560208082518301019101614bea565b6040516361e3f2a560e11b60208201529a8b99986001600160a01b039092169790969295939493929160248b01614c65565b90614f60565b631163081760e11b81036150a45750505061502e614ecf8551613cd8565b915f5b835181101561505f578061504c614ef8614ef260019461459c565b5f1a61505882876145aa565b5301615031565b50909350610c7361500a5f9461507f869560208082518301019101614af8565b936040999697959993919351998a9863b04e83b760e01b60208b015260248a01614b87565b63294ae08160e11b8103615145575050506150c2614ecf8551613cd8565b915f5b83518110156150f357806150e0614ef8614ef260019461459c565b5f1a6150ec82876145aa565b53016150c5565b509093505f9261500a610c736151138695602080825183010191016149df565b6040516301247ab760e61b60208201529a8b99986001600160a01b039092169790969295939493929160248b01614a7d565b6352b9ec2360e01b81036151d957505050615163614ecf8551613cd8565b915f5b83518110156151945780615181614ef8614ef260019461459c565b5f1a61518d82876145aa565b5301615166565b50909350610c7361500a5f946151b48695602080825183010191016148f7565b926040989596949892919251988997638568e38360e01b60208a015260248901614982565b92959194919263f249d30360e01b146151f9575b5050505f918291614f60565b61520b919450614ecf90959295613cd8565b915f5b835181101561523c5780615229614ef8614ef260019461459c565b5f1a61523582876145aa565b530161520e565b509093505f9261528b610c7361525c869560208082518301019101614723565b6040516393e8419160e01b6020820152998a98976001600160a01b039092169690959294929160248a01614881565b9281926151ed565b636cf57d9160e11b5f526001600160a01b038084166004521660245260445ffd5b614e0e929194506152d6610cca9160203d6020116107b9576107aa818361320b565b94919250614dad565b6152f8915060203d6020116107b9576107aa818361320b565b5f614d75565b631f1183ed60e31b5f52610e08874261346c565b50853b15614d3f565b6001600160a01b03165f81815260106020526040902061533c90839061089c565b805460ff191660011790555f908152600f602052604090208054600160401b8110156131a75761537191600182018155613ce7565b81546001600160a01b0393841660039290921b91821b9390911b1916919091179055565b90601f82116153a2575050565b8082116153ad575050565b600a5f5260205f206020601f830160051c92106153ec575b81601f9101920160051c03905f5b8281106153df57505050565b5f828201556001016153d3565b5f91506153c5565b909161540b610f8093604084526040840190611ba4565b916020818403910152611ba4565b8151919060418303615449576154429250602082015190606060408401519301515f1a906154d9565b9192909190565b50505f9160029190565b6004111561346757565b61546681615453565b8061546f575050565b61547881615453565b6001810361548f5763f645eedf60e01b5f5260045ffd5b61549881615453565b600281036154b3575063fce698f760e01b5f5260045260245ffd5b806154bf600392615453565b146154c75750565b6335e2f38360e21b5f5260045260245ffd5b91906fa2a8918ca85bafe22016d0b997e4df60600160ff1b038411615546579160209360809260ff5f9560405194855216868401526040830152606082015282805260015afa156106e7575f516001600160a01b0381161561553c57905f905f90565b505f906001905f90565b5050505f916003919056fe37d334dabaf41e43aacc723ac58fb37530ae1cc7b9c266f832352d3b33d1d2e1c2d58ddd39bae8d891e64c790e06675be0c60c0c8abaaceac647c83798f19d71c65a7bb8d6351c1cf70c95a316cc6a92839c986682d98bc35f958f4883f9d2a88b5e44529430631511cdb2103b51a2b17522f3ccef30b4cecb8b600e589b21845d2010d98a8af54e10756d0f1f88c21936f3cee3282ba1a12e8b6ea9dc3cd00b944f9ca1b679ec8381ef5d5419085e9ea4df3b274eb009910b19bd295bd18fc303b08423472f7ab3868687f6f058518938a70d81f39d56bbef07d72ad5207adc6fda4e9204adb930edd263bf167f0f95464e9f84006d5c89c84ed55f50528b33a164736f6c6343000821000a",
  "linkReferences": {},
  "deployedLinkReferences": {},
  "immutableReferences": {
    "8693": [
      {
        "length": 32,
        "start": 1583
      },
      {
        "length": 32,
        "start": 5840
      },
      {
        "length": 32,
        "start": 6517
      },
      {
        "length": 32,
        "start": 15105
      },
      {
        "length": 32,
        "start": 15884
      }
    ],
    "11004": [
      {
        "length": 32,
        "start": 3206
      },
      {
        "length": 32,
        "start": 3824
      }
    ]
  },
  "inputSourceName": "project/src/BeamioUserCard/BeamioUserCardFactoryPaymasterV07.sol",
  "buildInfoId": "solc-0_8_33-50b5d29df39dc20179d4bcb430617429f52e7a5c"
}