{
  "_format": "hh3-artifact-1",
  "contractName": "BeamioUserCard",
  "sourceName": "src/BeamioUserCard/BeamioUserCard.sol",
  "abi": [
    {
      "inputs": [
        {
          "internalType": "string",
          "name": "uri_",
          "type": "string"
        },
        {
          "internalType": "enum BeamioCurrency.CurrencyType",
          "name": "currency_",
          "type": "uint8"
        },
        {
          "internalType": "uint256",
          "name": "pointsUnitPriceInCurrencyE6_",
          "type": "uint256"
        },
        {
          "internalType": "address",
          "name": "initialOwner",
          "type": "address"
        },
        {
          "internalType": "address",
          "name": "gateway_",
          "type": "address"
        },
        {
          "internalType": "uint8",
          "name": "upgradeType_",
          "type": "uint8"
        },
        {
          "internalType": "bool",
          "name": "initialTransferWhitelistEnabled",
          "type": "bool"
        }
      ],
      "stateMutability": "nonpayable",
      "type": "constructor"
    },
    {
      "inputs": [],
      "name": "BM_CallFailed",
      "type": "error"
    },
    {
      "inputs": [],
      "name": "BM_NotAuthorized",
      "type": "error"
    },
    {
      "inputs": [],
      "name": "BM_ZeroAddress",
      "type": "error"
    },
    {
      "inputs": [
        {
          "internalType": "address",
          "name": "sender",
          "type": "address"
        },
        {
          "internalType": "uint256",
          "name": "balance",
          "type": "uint256"
        },
        {
          "internalType": "uint256",
          "name": "needed",
          "type": "uint256"
        },
        {
          "internalType": "uint256",
          "name": "tokenId",
          "type": "uint256"
        }
      ],
      "name": "ERC1155InsufficientBalance",
      "type": "error"
    },
    {
      "inputs": [
        {
          "internalType": "address",
          "name": "approver",
          "type": "address"
        }
      ],
      "name": "ERC1155InvalidApprover",
      "type": "error"
    },
    {
      "inputs": [
        {
          "internalType": "uint256",
          "name": "idsLength",
          "type": "uint256"
        },
        {
          "internalType": "uint256",
          "name": "valuesLength",
          "type": "uint256"
        }
      ],
      "name": "ERC1155InvalidArrayLength",
      "type": "error"
    },
    {
      "inputs": [
        {
          "internalType": "address",
          "name": "operator",
          "type": "address"
        }
      ],
      "name": "ERC1155InvalidOperator",
      "type": "error"
    },
    {
      "inputs": [
        {
          "internalType": "address",
          "name": "receiver",
          "type": "address"
        }
      ],
      "name": "ERC1155InvalidReceiver",
      "type": "error"
    },
    {
      "inputs": [
        {
          "internalType": "address",
          "name": "sender",
          "type": "address"
        }
      ],
      "name": "ERC1155InvalidSender",
      "type": "error"
    },
    {
      "inputs": [
        {
          "internalType": "address",
          "name": "operator",
          "type": "address"
        },
        {
          "internalType": "address",
          "name": "owner",
          "type": "address"
        }
      ],
      "name": "ERC1155MissingApprovalForAll",
      "type": "error"
    },
    {
      "inputs": [
        {
          "internalType": "address",
          "name": "owner",
          "type": "address"
        }
      ],
      "name": "OwnableInvalidOwner",
      "type": "error"
    },
    {
      "inputs": [
        {
          "internalType": "address",
          "name": "account",
          "type": "address"
        }
      ],
      "name": "OwnableUnauthorizedAccount",
      "type": "error"
    },
    {
      "inputs": [],
      "name": "ReentrancyGuardReentrantCall",
      "type": "error"
    },
    {
      "inputs": [],
      "name": "UC_AdminManagerRequiresOwnerSignature",
      "type": "error"
    },
    {
      "inputs": [],
      "name": "UC_AmountZero",
      "type": "error"
    },
    {
      "inputs": [],
      "name": "UC_BelowMinThreshold",
      "type": "error"
    },
    {
      "inputs": [],
      "name": "UC_GlobalMisconfigured",
      "type": "error"
    },
    {
      "inputs": [
        {
          "internalType": "address",
          "name": "fromAccount",
          "type": "address"
        },
        {
          "internalType": "uint256",
          "name": "id",
          "type": "uint256"
        },
        {
          "internalType": "uint256",
          "name": "have",
          "type": "uint256"
        },
        {
          "internalType": "uint256",
          "name": "need",
          "type": "uint256"
        }
      ],
      "name": "UC_InsufficientBalance",
      "type": "error"
    },
    {
      "inputs": [],
      "name": "UC_InvalidProposal",
      "type": "error"
    },
    {
      "inputs": [],
      "name": "UC_InvalidUpgradeType",
      "type": "error"
    },
    {
      "inputs": [],
      "name": "UC_NoBeamioAccount",
      "type": "error"
    },
    {
      "inputs": [],
      "name": "UC_NotAdmin",
      "type": "error"
    },
    {
      "inputs": [],
      "name": "UC_OpenMintExecutorUnauthorized",
      "type": "error"
    },
    {
      "inputs": [],
      "name": "UC_PriceZero",
      "type": "error"
    },
    {
      "inputs": [
        {
          "internalType": "bytes",
          "name": "data",
          "type": "bytes"
        }
      ],
      "name": "UC_RedeemDelegateFailed",
      "type": "error"
    },
    {
      "inputs": [],
      "name": "UC_RedeemModuleZero",
      "type": "error"
    },
    {
      "inputs": [],
      "name": "UC_StatsModuleZero",
      "type": "error"
    },
    {
      "inputs": [],
      "name": "UC_TierLenMismatch",
      "type": "error"
    },
    {
      "inputs": [],
      "name": "UC_TierMinZero",
      "type": "error"
    },
    {
      "inputs": [],
      "name": "UC_UnauthorizedGateway",
      "type": "error"
    },
    {
      "anonymous": false,
      "inputs": [
        {
          "indexed": true,
          "internalType": "address",
          "name": "beneficiaryAccount",
          "type": "address"
        },
        {
          "indexed": true,
          "internalType": "uint256",
          "name": "tokenId",
          "type": "uint256"
        },
        {
          "indexed": false,
          "internalType": "uint256",
          "name": "attr",
          "type": "uint256"
        },
        {
          "indexed": false,
          "internalType": "uint256",
          "name": "expiry",
          "type": "uint256"
        }
      ],
      "name": "AdminCardMinted",
      "type": "event"
    },
    {
      "anonymous": false,
      "inputs": [
        {
          "indexed": true,
          "internalType": "address",
          "name": "account",
          "type": "address"
        },
        {
          "indexed": false,
          "internalType": "uint256",
          "name": "amount",
          "type": "uint256"
        }
      ],
      "name": "AdminPointsBurned",
      "type": "event"
    },
    {
      "anonymous": false,
      "inputs": [
        {
          "indexed": true,
          "internalType": "address",
          "name": "beneficiaryAccount",
          "type": "address"
        },
        {
          "indexed": false,
          "internalType": "uint256",
          "name": "points6",
          "type": "uint256"
        }
      ],
      "name": "AdminPointsMinted",
      "type": "event"
    },
    {
      "anonymous": false,
      "inputs": [
        {
          "indexed": true,
          "internalType": "address",
          "name": "account",
          "type": "address"
        },
        {
          "indexed": true,
          "internalType": "address",
          "name": "operator",
          "type": "address"
        },
        {
          "indexed": false,
          "internalType": "bool",
          "name": "approved",
          "type": "bool"
        }
      ],
      "name": "ApprovalForAll",
      "type": "event"
    },
    {
      "anonymous": false,
      "inputs": [
        {
          "indexed": false,
          "internalType": "uint256",
          "name": "attr",
          "type": "uint256"
        }
      ],
      "name": "DefaultAttrUpdated",
      "type": "event"
    },
    {
      "anonymous": false,
      "inputs": [
        {
          "indexed": false,
          "internalType": "uint256",
          "name": "oldSecs",
          "type": "uint256"
        },
        {
          "indexed": false,
          "internalType": "uint256",
          "name": "newSecs",
          "type": "uint256"
        }
      ],
      "name": "ExpirySecondsUpdated",
      "type": "event"
    },
    {
      "anonymous": false,
      "inputs": [
        {
          "indexed": true,
          "internalType": "uint256",
          "name": "id",
          "type": "uint256"
        },
        {
          "indexed": true,
          "internalType": "address",
          "name": "userEOA",
          "type": "address"
        },
        {
          "indexed": true,
          "internalType": "address",
          "name": "acct",
          "type": "address"
        },
        {
          "indexed": false,
          "internalType": "uint256",
          "name": "amount",
          "type": "uint256"
        },
        {
          "indexed": false,
          "internalType": "uint256",
          "name": "claimedAfter",
          "type": "uint256"
        }
      ],
      "name": "FaucetClaimed",
      "type": "event"
    },
    {
      "anonymous": false,
      "inputs": [
        {
          "indexed": true,
          "internalType": "uint256",
          "name": "id",
          "type": "uint256"
        },
        {
          "components": [
            {
              "internalType": "uint64",
              "name": "validUntil",
              "type": "uint64"
            },
            {
              "internalType": "uint64",
              "name": "perClaimMax",
              "type": "uint64"
            },
            {
              "internalType": "uint128",
              "name": "maxPerUser",
              "type": "uint128"
            },
            {
              "internalType": "uint128",
              "name": "maxGlobal",
              "type": "uint128"
            },
            {
              "internalType": "bool",
              "name": "enabled",
              "type": "bool"
            },
            {
              "internalType": "uint8",
              "name": "currency",
              "type": "uint8"
            },
            {
              "internalType": "uint8",
              "name": "decimals",
              "type": "uint8"
            },
            {
              "internalType": "uint128",
              "name": "priceInCurrency6",
              "type": "uint128"
            }
          ],
          "indexed": false,
          "internalType": "struct FaucetStorage.FaucetConfig",
          "name": "cfg",
          "type": "tuple"
        }
      ],
      "name": "FaucetConfigUpdated",
      "type": "event"
    },
    {
      "anonymous": false,
      "inputs": [
        {
          "indexed": true,
          "internalType": "uint256",
          "name": "tokenId",
          "type": "uint256"
        },
        {
          "indexed": false,
          "internalType": "bytes32",
          "name": "title",
          "type": "bytes32"
        },
        {
          "indexed": false,
          "internalType": "uint64",
          "name": "validAfter",
          "type": "uint64"
        },
        {
          "indexed": false,
          "internalType": "uint64",
          "name": "validBefore",
          "type": "uint64"
        },
        {
          "indexed": false,
          "internalType": "uint256",
          "name": "maxSupply",
          "type": "uint256"
        },
        {
          "indexed": false,
          "internalType": "uint256",
          "name": "priceInCurrency6",
          "type": "uint256"
        },
        {
          "indexed": false,
          "internalType": "bytes32",
          "name": "sharedMetadataHash",
          "type": "bytes32"
        }
      ],
      "name": "IssuedNftCreated",
      "type": "event"
    },
    {
      "anonymous": false,
      "inputs": [
        {
          "indexed": true,
          "internalType": "uint256",
          "name": "tokenId",
          "type": "uint256"
        },
        {
          "indexed": true,
          "internalType": "address",
          "name": "recipient",
          "type": "address"
        },
        {
          "indexed": false,
          "internalType": "uint256",
          "name": "amount",
          "type": "uint256"
        }
      ],
      "name": "IssuedNftMinted",
      "type": "event"
    },
    {
      "anonymous": false,
      "inputs": [
        {
          "indexed": true,
          "internalType": "address",
          "name": "user",
          "type": "address"
        },
        {
          "indexed": true,
          "internalType": "uint256",
          "name": "tokenId",
          "type": "uint256"
        },
        {
          "indexed": false,
          "internalType": "uint256",
          "name": "tierIndexOrMax",
          "type": "uint256"
        },
        {
          "indexed": false,
          "internalType": "uint256",
          "name": "minUsdc6",
          "type": "uint256"
        },
        {
          "indexed": false,
          "internalType": "uint256",
          "name": "expiry",
          "type": "uint256"
        }
      ],
      "name": "MemberNFTIssued",
      "type": "event"
    },
    {
      "anonymous": false,
      "inputs": [
        {
          "indexed": true,
          "internalType": "address",
          "name": "user",
          "type": "address"
        },
        {
          "indexed": true,
          "internalType": "uint256",
          "name": "oldActiveTokenId",
          "type": "uint256"
        },
        {
          "indexed": true,
          "internalType": "uint256",
          "name": "newTokenId",
          "type": "uint256"
        },
        {
          "indexed": false,
          "internalType": "uint256",
          "name": "oldTierIndexOrMax",
          "type": "uint256"
        },
        {
          "indexed": false,
          "internalType": "uint256",
          "name": "newTierIndex",
          "type": "uint256"
        },
        {
          "indexed": false,
          "internalType": "uint256",
          "name": "newExpiry",
          "type": "uint256"
        }
      ],
      "name": "MemberNFTUpgraded",
      "type": "event"
    },
    {
      "anonymous": false,
      "inputs": [
        {
          "indexed": true,
          "internalType": "address",
          "name": "previousOwner",
          "type": "address"
        },
        {
          "indexed": true,
          "internalType": "address",
          "name": "newOwner",
          "type": "address"
        }
      ],
      "name": "OwnershipTransferred",
      "type": "event"
    },
    {
      "anonymous": false,
      "inputs": [
        {
          "indexed": true,
          "internalType": "address",
          "name": "userEOA",
          "type": "address"
        },
        {
          "indexed": true,
          "internalType": "address",
          "name": "acct",
          "type": "address"
        },
        {
          "indexed": false,
          "internalType": "uint256",
          "name": "points6",
          "type": "uint256"
        }
      ],
      "name": "PointsMintedByGateway",
      "type": "event"
    },
    {
      "anonymous": false,
      "inputs": [
        {
          "indexed": true,
          "internalType": "address",
          "name": "payerEOA",
          "type": "address"
        },
        {
          "indexed": true,
          "internalType": "address",
          "name": "beneficiaryAccount",
          "type": "address"
        },
        {
          "indexed": true,
          "internalType": "address",
          "name": "usdc",
          "type": "address"
        },
        {
          "indexed": false,
          "internalType": "uint256",
          "name": "usdcIn6",
          "type": "uint256"
        },
        {
          "indexed": false,
          "internalType": "uint256",
          "name": "pointsMinted6",
          "type": "uint256"
        },
        {
          "indexed": false,
          "internalType": "uint256",
          "name": "unitPointPriceUsdc6",
          "type": "uint256"
        },
        {
          "indexed": false,
          "internalType": "bytes32",
          "name": "nonce",
          "type": "bytes32"
        }
      ],
      "name": "PointsPurchasedWithUSDC",
      "type": "event"
    },
    {
      "anonymous": false,
      "inputs": [
        {
          "indexed": false,
          "internalType": "uint256",
          "name": "priceInCurrencyE6",
          "type": "uint256"
        }
      ],
      "name": "PointsUnitPriceUpdated",
      "type": "event"
    },
    {
      "anonymous": false,
      "inputs": [
        {
          "indexed": true,
          "internalType": "uint256",
          "name": "id",
          "type": "uint256"
        },
        {
          "indexed": true,
          "internalType": "address",
          "name": "admin",
          "type": "address"
        }
      ],
      "name": "ProposalApproved",
      "type": "event"
    },
    {
      "anonymous": false,
      "inputs": [
        {
          "indexed": true,
          "internalType": "uint256",
          "name": "id",
          "type": "uint256"
        },
        {
          "indexed": true,
          "internalType": "bytes4",
          "name": "selector",
          "type": "bytes4"
        },
        {
          "indexed": true,
          "internalType": "address",
          "name": "proposer",
          "type": "address"
        }
      ],
      "name": "ProposalCreated",
      "type": "event"
    },
    {
      "anonymous": false,
      "inputs": [
        {
          "indexed": true,
          "internalType": "uint256",
          "name": "id",
          "type": "uint256"
        }
      ],
      "name": "ProposalExecuted",
      "type": "event"
    },
    {
      "anonymous": false,
      "inputs": [
        {
          "indexed": true,
          "internalType": "bytes32",
          "name": "hash",
          "type": "bytes32"
        }
      ],
      "name": "RedeemCancelled",
      "type": "event"
    },
    {
      "anonymous": false,
      "inputs": [
        {
          "indexed": true,
          "internalType": "bytes32",
          "name": "hash",
          "type": "bytes32"
        },
        {
          "indexed": false,
          "internalType": "uint256",
          "name": "points6",
          "type": "uint256"
        },
        {
          "indexed": false,
          "internalType": "uint256",
          "name": "attr",
          "type": "uint256"
        }
      ],
      "name": "RedeemCreated",
      "type": "event"
    },
    {
      "anonymous": false,
      "inputs": [
        {
          "indexed": false,
          "internalType": "uint256",
          "name": "index",
          "type": "uint256"
        },
        {
          "indexed": false,
          "internalType": "uint256",
          "name": "minUsdc6",
          "type": "uint256"
        },
        {
          "indexed": false,
          "internalType": "uint256",
          "name": "attr",
          "type": "uint256"
        },
        {
          "indexed": false,
          "internalType": "uint256",
          "name": "tierExpirySeconds",
          "type": "uint256"
        }
      ],
      "name": "TierAppended",
      "type": "event"
    },
    {
      "anonymous": false,
      "inputs": [
        {
          "indexed": false,
          "internalType": "uint256",
          "name": "count",
          "type": "uint256"
        }
      ],
      "name": "TiersUpdated",
      "type": "event"
    },
    {
      "anonymous": false,
      "inputs": [
        {
          "indexed": true,
          "internalType": "address",
          "name": "operator",
          "type": "address"
        },
        {
          "indexed": true,
          "internalType": "address",
          "name": "from",
          "type": "address"
        },
        {
          "indexed": true,
          "internalType": "address",
          "name": "to",
          "type": "address"
        },
        {
          "indexed": false,
          "internalType": "uint256[]",
          "name": "ids",
          "type": "uint256[]"
        },
        {
          "indexed": false,
          "internalType": "uint256[]",
          "name": "values",
          "type": "uint256[]"
        }
      ],
      "name": "TransferBatch",
      "type": "event"
    },
    {
      "anonymous": false,
      "inputs": [
        {
          "indexed": true,
          "internalType": "address",
          "name": "operator",
          "type": "address"
        },
        {
          "indexed": true,
          "internalType": "address",
          "name": "from",
          "type": "address"
        },
        {
          "indexed": true,
          "internalType": "address",
          "name": "to",
          "type": "address"
        },
        {
          "indexed": false,
          "internalType": "uint256",
          "name": "id",
          "type": "uint256"
        },
        {
          "indexed": false,
          "internalType": "uint256",
          "name": "value",
          "type": "uint256"
        }
      ],
      "name": "TransferSingle",
      "type": "event"
    },
    {
      "anonymous": false,
      "inputs": [
        {
          "indexed": false,
          "internalType": "bool",
          "name": "enabled",
          "type": "bool"
        }
      ],
      "name": "TransferWhitelistEnabledUpdated",
      "type": "event"
    },
    {
      "anonymous": false,
      "inputs": [
        {
          "indexed": false,
          "internalType": "string",
          "name": "value",
          "type": "string"
        },
        {
          "indexed": true,
          "internalType": "uint256",
          "name": "id",
          "type": "uint256"
        }
      ],
      "name": "URI",
      "type": "event"
    },
    {
      "stateMutability": "nonpayable",
      "type": "fallback"
    },
    {
      "inputs": [],
      "name": "ISSUED_NFT_START_ID",
      "outputs": [
        {
          "internalType": "uint256",
          "name": "",
          "type": "uint256"
        }
      ],
      "stateMutability": "view",
      "type": "function"
    },
    {
      "inputs": [],
      "name": "NFT_START_ID",
      "outputs": [
        {
          "internalType": "uint256",
          "name": "",
          "type": "uint256"
        }
      ],
      "stateMutability": "view",
      "type": "function"
    },
    {
      "inputs": [],
      "name": "POINTS_DECIMALS",
      "outputs": [
        {
          "internalType": "uint8",
          "name": "",
          "type": "uint8"
        }
      ],
      "stateMutability": "view",
      "type": "function"
    },
    {
      "inputs": [],
      "name": "POINTS_ID",
      "outputs": [
        {
          "internalType": "uint256",
          "name": "",
          "type": "uint256"
        }
      ],
      "stateMutability": "view",
      "type": "function"
    },
    {
      "inputs": [],
      "name": "VERSION",
      "outputs": [
        {
          "internalType": "uint256",
          "name": "",
          "type": "uint256"
        }
      ],
      "stateMutability": "view",
      "type": "function"
    },
    {
      "inputs": [
        {
          "internalType": "address",
          "name": "",
          "type": "address"
        },
        {
          "internalType": "uint256",
          "name": "",
          "type": "uint256"
        }
      ],
      "name": "_userOwnedNfts",
      "outputs": [
        {
          "internalType": "uint256",
          "name": "",
          "type": "uint256"
        }
      ],
      "stateMutability": "view",
      "type": "function"
    },
    {
      "inputs": [
        {
          "internalType": "uint256",
          "name": "",
          "type": "uint256"
        }
      ],
      "name": "activeMembershipCountByTierIndex",
      "outputs": [
        {
          "internalType": "uint256",
          "name": "",
          "type": "uint256"
        }
      ],
      "stateMutability": "view",
      "type": "function"
    },
    {
      "inputs": [
        {
          "internalType": "uint256",
          "name": "",
          "type": "uint256"
        }
      ],
      "name": "activeMembershipCountByTokenId",
      "outputs": [
        {
          "internalType": "uint256",
          "name": "",
          "type": "uint256"
        }
      ],
      "stateMutability": "view",
      "type": "function"
    },
    {
      "inputs": [
        {
          "internalType": "address",
          "name": "",
          "type": "address"
        }
      ],
      "name": "activeMembershipId",
      "outputs": [
        {
          "internalType": "uint256",
          "name": "",
          "type": "uint256"
        }
      ],
      "stateMutability": "view",
      "type": "function"
    },
    {
      "inputs": [
        {
          "internalType": "address",
          "name": "",
          "type": "address"
        }
      ],
      "name": "activeTierIndexOrMax",
      "outputs": [
        {
          "internalType": "uint256",
          "name": "",
          "type": "uint256"
        }
      ],
      "stateMutability": "view",
      "type": "function"
    },
    {
      "inputs": [
        {
          "internalType": "address",
          "name": "a",
          "type": "address"
        }
      ],
      "name": "adminParent",
      "outputs": [
        {
          "internalType": "address",
          "name": "",
          "type": "address"
        }
      ],
      "stateMutability": "view",
      "type": "function"
    },
    {
      "inputs": [
        {
          "internalType": "uint256",
          "name": "minUsdc6",
          "type": "uint256"
        },
        {
          "internalType": "uint256",
          "name": "attr",
          "type": "uint256"
        },
        {
          "internalType": "uint256",
          "name": "tierExpirySeconds",
          "type": "uint256"
        }
      ],
      "name": "appendTier",
      "outputs": [],
      "stateMutability": "nonpayable",
      "type": "function"
    },
    {
      "inputs": [
        {
          "internalType": "uint256",
          "name": "id",
          "type": "uint256"
        }
      ],
      "name": "approveProposal",
      "outputs": [],
      "stateMutability": "nonpayable",
      "type": "function"
    },
    {
      "inputs": [
        {
          "internalType": "uint256",
          "name": "id",
          "type": "uint256"
        },
        {
          "internalType": "address",
          "name": "adminSigner",
          "type": "address"
        }
      ],
      "name": "approveProposalByGateway",
      "outputs": [],
      "stateMutability": "nonpayable",
      "type": "function"
    },
    {
      "inputs": [
        {
          "internalType": "uint256",
          "name": "",
          "type": "uint256"
        }
      ],
      "name": "attributes",
      "outputs": [
        {
          "internalType": "uint256",
          "name": "",
          "type": "uint256"
        }
      ],
      "stateMutability": "view",
      "type": "function"
    },
    {
      "inputs": [
        {
          "internalType": "address",
          "name": "account",
          "type": "address"
        },
        {
          "internalType": "uint256",
          "name": "id",
          "type": "uint256"
        }
      ],
      "name": "balanceOf",
      "outputs": [
        {
          "internalType": "uint256",
          "name": "",
          "type": "uint256"
        }
      ],
      "stateMutability": "view",
      "type": "function"
    },
    {
      "inputs": [
        {
          "internalType": "address[]",
          "name": "accounts",
          "type": "address[]"
        },
        {
          "internalType": "uint256[]",
          "name": "ids",
          "type": "uint256[]"
        }
      ],
      "name": "balanceOfBatch",
      "outputs": [
        {
          "internalType": "uint256[]",
          "name": "",
          "type": "uint256[]"
        }
      ],
      "stateMutability": "view",
      "type": "function"
    },
    {
      "inputs": [
        {
          "internalType": "address",
          "name": "target",
          "type": "address"
        },
        {
          "internalType": "uint256",
          "name": "amount",
          "type": "uint256"
        }
      ],
      "name": "burnPointsByAdmin",
      "outputs": [],
      "stateMutability": "nonpayable",
      "type": "function"
    },
    {
      "inputs": [
        {
          "internalType": "address",
          "name": "subordinate",
          "type": "address"
        },
        {
          "internalType": "address",
          "name": "authorizer",
          "type": "address"
        }
      ],
      "name": "clearAdminMintCounterForSubordinate",
      "outputs": [],
      "stateMutability": "nonpayable",
      "type": "function"
    },
    {
      "inputs": [
        {
          "internalType": "bytes4",
          "name": "selector",
          "type": "bytes4"
        },
        {
          "internalType": "address",
          "name": "target",
          "type": "address"
        },
        {
          "internalType": "uint256",
          "name": "v1",
          "type": "uint256"
        },
        {
          "internalType": "uint256",
          "name": "v2",
          "type": "uint256"
        },
        {
          "internalType": "uint256",
          "name": "v3",
          "type": "uint256"
        }
      ],
      "name": "createProposal",
      "outputs": [
        {
          "internalType": "uint256",
          "name": "",
          "type": "uint256"
        }
      ],
      "stateMutability": "nonpayable",
      "type": "function"
    },
    {
      "inputs": [],
      "name": "currency",
      "outputs": [
        {
          "internalType": "enum BeamioCurrency.CurrencyType",
          "name": "",
          "type": "uint8"
        }
      ],
      "stateMutability": "view",
      "type": "function"
    },
    {
      "inputs": [],
      "name": "debugGateway",
      "outputs": [
        {
          "internalType": "address",
          "name": "",
          "type": "address"
        }
      ],
      "stateMutability": "view",
      "type": "function"
    },
    {
      "inputs": [],
      "name": "defaultAttrWhenNoTiers",
      "outputs": [
        {
          "internalType": "uint256",
          "name": "",
          "type": "uint256"
        }
      ],
      "stateMutability": "view",
      "type": "function"
    },
    {
      "inputs": [],
      "name": "deployer",
      "outputs": [
        {
          "internalType": "address",
          "name": "",
          "type": "address"
        }
      ],
      "stateMutability": "view",
      "type": "function"
    },
    {
      "inputs": [
        {
          "internalType": "uint256",
          "name": "",
          "type": "uint256"
        }
      ],
      "name": "expiresAt",
      "outputs": [
        {
          "internalType": "uint256",
          "name": "",
          "type": "uint256"
        }
      ],
      "stateMutability": "view",
      "type": "function"
    },
    {
      "inputs": [],
      "name": "expirySeconds",
      "outputs": [
        {
          "internalType": "uint256",
          "name": "",
          "type": "uint256"
        }
      ],
      "stateMutability": "view",
      "type": "function"
    },
    {
      "inputs": [],
      "name": "factoryGateway",
      "outputs": [
        {
          "internalType": "address",
          "name": "",
          "type": "address"
        }
      ],
      "stateMutability": "view",
      "type": "function"
    },
    {
      "inputs": [
        {
          "internalType": "address",
          "name": "userEOA",
          "type": "address"
        },
        {
          "internalType": "uint256",
          "name": "id",
          "type": "uint256"
        },
        {
          "internalType": "uint256",
          "name": "amount",
          "type": "uint256"
        }
      ],
      "name": "faucetByGateway",
      "outputs": [],
      "stateMutability": "nonpayable",
      "type": "function"
    },
    {
      "inputs": [
        {
          "internalType": "uint256",
          "name": "id",
          "type": "uint256"
        }
      ],
      "name": "faucetConfig",
      "outputs": [
        {
          "components": [
            {
              "internalType": "uint64",
              "name": "validUntil",
              "type": "uint64"
            },
            {
              "internalType": "uint64",
              "name": "perClaimMax",
              "type": "uint64"
            },
            {
              "internalType": "uint128",
              "name": "maxPerUser",
              "type": "uint128"
            },
            {
              "internalType": "uint128",
              "name": "maxGlobal",
              "type": "uint128"
            },
            {
              "internalType": "bool",
              "name": "enabled",
              "type": "bool"
            },
            {
              "internalType": "uint8",
              "name": "currency",
              "type": "uint8"
            },
            {
              "internalType": "uint8",
              "name": "decimals",
              "type": "uint8"
            },
            {
              "internalType": "uint128",
              "name": "priceInCurrency6",
              "type": "uint128"
            }
          ],
          "internalType": "struct FaucetStorage.FaucetConfig",
          "name": "",
          "type": "tuple"
        }
      ],
      "stateMutability": "view",
      "type": "function"
    },
    {
      "inputs": [],
      "name": "gateway",
      "outputs": [
        {
          "internalType": "address",
          "name": "",
          "type": "address"
        }
      ],
      "stateMutability": "view",
      "type": "function"
    },
    {
      "inputs": [
        {
          "internalType": "address",
          "name": "admin",
          "type": "address"
        }
      ],
      "name": "getAdminBurnCounter",
      "outputs": [
        {
          "internalType": "uint256",
          "name": "",
          "type": "uint256"
        }
      ],
      "stateMutability": "view",
      "type": "function"
    },
    {
      "inputs": [
        {
          "internalType": "address",
          "name": "admin",
          "type": "address"
        }
      ],
      "name": "getAdminMintCounter",
      "outputs": [
        {
          "internalType": "uint256",
          "name": "",
          "type": "uint256"
        }
      ],
      "stateMutability": "view",
      "type": "function"
    },
    {
      "inputs": [
        {
          "internalType": "address",
          "name": "admin",
          "type": "address"
        }
      ],
      "name": "getAdminRedeemMintCounter",
      "outputs": [
        {
          "internalType": "uint256",
          "name": "",
          "type": "uint256"
        }
      ],
      "stateMutability": "view",
      "type": "function"
    },
    {
      "inputs": [
        {
          "internalType": "address",
          "name": "admin",
          "type": "address"
        }
      ],
      "name": "getAdminTransferAmountCounter",
      "outputs": [
        {
          "internalType": "uint256",
          "name": "",
          "type": "uint256"
        }
      ],
      "stateMutability": "view",
      "type": "function"
    },
    {
      "inputs": [
        {
          "internalType": "address",
          "name": "admin",
          "type": "address"
        }
      ],
      "name": "getAdminTransferCounter",
      "outputs": [
        {
          "internalType": "uint256",
          "name": "",
          "type": "uint256"
        }
      ],
      "stateMutability": "view",
      "type": "function"
    },
    {
      "inputs": [
        {
          "internalType": "address",
          "name": "admin",
          "type": "address"
        }
      ],
      "name": "getAdminUSDCMintCounter",
      "outputs": [
        {
          "internalType": "uint256",
          "name": "",
          "type": "uint256"
        }
      ],
      "stateMutability": "view",
      "type": "function"
    },
    {
      "inputs": [
        {
          "internalType": "address",
          "name": "user",
          "type": "address"
        }
      ],
      "name": "getOwnership",
      "outputs": [
        {
          "internalType": "uint256",
          "name": "pt",
          "type": "uint256"
        },
        {
          "components": [
            {
              "internalType": "uint256",
              "name": "tokenId",
              "type": "uint256"
            },
            {
              "internalType": "uint256",
              "name": "attribute",
              "type": "uint256"
            },
            {
              "internalType": "uint256",
              "name": "tierIndexOrMax",
              "type": "uint256"
            },
            {
              "internalType": "uint256",
              "name": "expiry",
              "type": "uint256"
            },
            {
              "internalType": "bool",
              "name": "isExpired",
              "type": "bool"
            }
          ],
          "internalType": "struct BeamioUserCard.NFTDetail[]",
          "name": "nfts",
          "type": "tuple[]"
        }
      ],
      "stateMutability": "view",
      "type": "function"
    },
    {
      "inputs": [
        {
          "internalType": "address",
          "name": "userEOA",
          "type": "address"
        }
      ],
      "name": "getOwnershipByEOA",
      "outputs": [
        {
          "internalType": "uint256",
          "name": "pt",
          "type": "uint256"
        },
        {
          "components": [
            {
              "internalType": "uint256",
              "name": "tokenId",
              "type": "uint256"
            },
            {
              "internalType": "uint256",
              "name": "attribute",
              "type": "uint256"
            },
            {
              "internalType": "uint256",
              "name": "tierIndexOrMax",
              "type": "uint256"
            },
            {
              "internalType": "uint256",
              "name": "expiry",
              "type": "uint256"
            },
            {
              "internalType": "bool",
              "name": "isExpired",
              "type": "bool"
            }
          ],
          "internalType": "struct BeamioUserCard.NFTDetail[]",
          "name": "nfts",
          "type": "tuple[]"
        }
      ],
      "stateMutability": "view",
      "type": "function"
    },
    {
      "inputs": [
        {
          "internalType": "address",
          "name": "a",
          "type": "address"
        }
      ],
      "name": "isAdmin",
      "outputs": [
        {
          "internalType": "bool",
          "name": "",
          "type": "bool"
        }
      ],
      "stateMutability": "view",
      "type": "function"
    },
    {
      "inputs": [
        {
          "internalType": "address",
          "name": "account",
          "type": "address"
        },
        {
          "internalType": "address",
          "name": "operator",
          "type": "address"
        }
      ],
      "name": "isApprovedForAll",
      "outputs": [
        {
          "internalType": "bool",
          "name": "",
          "type": "bool"
        }
      ],
      "stateMutability": "view",
      "type": "function"
    },
    {
      "inputs": [
        {
          "internalType": "uint256",
          "name": "tokenId",
          "type": "uint256"
        }
      ],
      "name": "isIssuedNftValid",
      "outputs": [
        {
          "internalType": "bool",
          "name": "",
          "type": "bool"
        }
      ],
      "stateMutability": "view",
      "type": "function"
    },
    {
      "inputs": [
        {
          "internalType": "address",
          "name": "effectiveTo",
          "type": "address"
        }
      ],
      "name": "isPointsTransferRecipientAllowed",
      "outputs": [
        {
          "internalType": "bool",
          "name": "",
          "type": "bool"
        }
      ],
      "stateMutability": "view",
      "type": "function"
    },
    {
      "inputs": [
        {
          "internalType": "uint256",
          "name": "tokenId",
          "type": "uint256"
        }
      ],
      "name": "issuedNftPriceInCurrency6",
      "outputs": [
        {
          "internalType": "uint256",
          "name": "",
          "type": "uint256"
        }
      ],
      "stateMutability": "view",
      "type": "function"
    },
    {
      "inputs": [
        {
          "internalType": "address",
          "name": "userEOA",
          "type": "address"
        },
        {
          "internalType": "uint256",
          "name": "tokenId",
          "type": "uint256"
        }
      ],
      "name": "issuedNftUserSigClaimUsed",
      "outputs": [
        {
          "internalType": "bool",
          "name": "",
          "type": "bool"
        }
      ],
      "stateMutability": "view",
      "type": "function"
    },
    {
      "inputs": [
        {
          "internalType": "uint64",
          "name": "hourIndex",
          "type": "uint64"
        }
      ],
      "name": "membershipFlowBucketAtHour",
      "outputs": [
        {
          "internalType": "uint256",
          "name": "issuedCount",
          "type": "uint256"
        },
        {
          "internalType": "uint256",
          "name": "upgradedCount",
          "type": "uint256"
        },
        {
          "internalType": "uint256",
          "name": "expiredDiscoveredCount",
          "type": "uint256"
        },
        {
          "internalType": "uint256",
          "name": "activeSwitchCount",
          "type": "uint256"
        },
        {
          "internalType": "uint256",
          "name": "activatedCount",
          "type": "uint256"
        },
        {
          "internalType": "uint256",
          "name": "deactivatedCount",
          "type": "uint256"
        },
        {
          "internalType": "bool",
          "name": "hasData",
          "type": "bool"
        }
      ],
      "stateMutability": "view",
      "type": "function"
    },
    {
      "inputs": [
        {
          "internalType": "uint8",
          "name": "scopeType",
          "type": "uint8"
        },
        {
          "internalType": "uint256",
          "name": "scopeKey",
          "type": "uint256"
        },
        {
          "internalType": "uint64",
          "name": "hourIndex",
          "type": "uint64"
        }
      ],
      "name": "membershipScopedFlowBucketAtHour",
      "outputs": [
        {
          "internalType": "uint256",
          "name": "issuedCount",
          "type": "uint256"
        },
        {
          "internalType": "uint256",
          "name": "upgradedCount",
          "type": "uint256"
        },
        {
          "internalType": "uint256",
          "name": "expiredDiscoveredCount",
          "type": "uint256"
        },
        {
          "internalType": "uint256",
          "name": "activeSwitchCount",
          "type": "uint256"
        },
        {
          "internalType": "uint256",
          "name": "activatedCount",
          "type": "uint256"
        },
        {
          "internalType": "uint256",
          "name": "deactivatedCount",
          "type": "uint256"
        },
        {
          "internalType": "bool",
          "name": "hasData",
          "type": "bool"
        }
      ],
      "stateMutability": "view",
      "type": "function"
    },
    {
      "inputs": [],
      "name": "metadataBaseURI",
      "outputs": [
        {
          "internalType": "string",
          "name": "",
          "type": "string"
        }
      ],
      "stateMutability": "view",
      "type": "function"
    },
    {
      "inputs": [
        {
          "internalType": "address",
          "name": "userEOA",
          "type": "address"
        },
        {
          "internalType": "uint256",
          "name": "id",
          "type": "uint256"
        },
        {
          "internalType": "uint256",
          "name": "amount6",
          "type": "uint256"
        }
      ],
      "name": "mintFaucetByGateway",
      "outputs": [],
      "stateMutability": "nonpayable",
      "type": "function"
    },
    {
      "inputs": [
        {
          "internalType": "address",
          "name": "userEOA",
          "type": "address"
        },
        {
          "internalType": "uint256",
          "name": "tokenId",
          "type": "uint256"
        },
        {
          "internalType": "uint256",
          "name": "amount",
          "type": "uint256"
        }
      ],
      "name": "mintIssuedNftByGateway",
      "outputs": [],
      "stateMutability": "nonpayable",
      "type": "function"
    },
    {
      "inputs": [
        {
          "internalType": "address",
          "name": "to",
          "type": "address"
        },
        {
          "internalType": "uint256",
          "name": "tokenId",
          "type": "uint256"
        },
        {
          "internalType": "uint256",
          "name": "amount",
          "type": "uint256"
        }
      ],
      "name": "mintIssuedNftByOwner",
      "outputs": [],
      "stateMutability": "nonpayable",
      "type": "function"
    },
    {
      "inputs": [
        {
          "internalType": "address",
          "name": "userEOA",
          "type": "address"
        },
        {
          "internalType": "uint256",
          "name": "tokenId",
          "type": "uint256"
        }
      ],
      "name": "mintIssuedNftByUserSigClaim",
      "outputs": [],
      "stateMutability": "nonpayable",
      "type": "function"
    },
    {
      "inputs": [
        {
          "internalType": "address",
          "name": "user",
          "type": "address"
        },
        {
          "internalType": "uint256",
          "name": "tierIndex",
          "type": "uint256"
        }
      ],
      "name": "mintMemberCardByAdmin",
      "outputs": [],
      "stateMutability": "nonpayable",
      "type": "function"
    },
    {
      "inputs": [
        {
          "internalType": "address",
          "name": "user",
          "type": "address"
        },
        {
          "internalType": "uint256",
          "name": "points6",
          "type": "uint256"
        }
      ],
      "name": "mintPointsByAdmin",
      "outputs": [],
      "stateMutability": "nonpayable",
      "type": "function"
    },
    {
      "inputs": [
        {
          "internalType": "address",
          "name": "user",
          "type": "address"
        },
        {
          "internalType": "uint256",
          "name": "points6",
          "type": "uint256"
        },
        {
          "internalType": "address",
          "name": "operator",
          "type": "address"
        }
      ],
      "name": "mintPointsByAdminWithOperator",
      "outputs": [],
      "stateMutability": "nonpayable",
      "type": "function"
    },
    {
      "inputs": [
        {
          "internalType": "address",
          "name": "userEOA",
          "type": "address"
        },
        {
          "internalType": "uint256",
          "name": "points6",
          "type": "uint256"
        }
      ],
      "name": "mintPointsByGateway",
      "outputs": [],
      "stateMutability": "nonpayable",
      "type": "function"
    },
    {
      "inputs": [
        {
          "internalType": "address",
          "name": "userEOA",
          "type": "address"
        },
        {
          "internalType": "uint256",
          "name": "points6",
          "type": "uint256"
        },
        {
          "internalType": "address",
          "name": "operator",
          "type": "address"
        }
      ],
      "name": "mintPointsByGatewayWithOperator",
      "outputs": [],
      "stateMutability": "nonpayable",
      "type": "function"
    },
    {
      "inputs": [
        {
          "internalType": "address",
          "name": "payerAA",
          "type": "address"
        },
        {
          "internalType": "uint256",
          "name": "points6",
          "type": "uint256"
        },
        {
          "internalType": "address",
          "name": "operatorForStats",
          "type": "address"
        }
      ],
      "name": "mintPointsOpenContainerRelay",
      "outputs": [],
      "stateMutability": "nonpayable",
      "type": "function"
    },
    {
      "inputs": [],
      "name": "owner",
      "outputs": [
        {
          "internalType": "address",
          "name": "",
          "type": "address"
        }
      ],
      "stateMutability": "view",
      "type": "function"
    },
    {
      "inputs": [],
      "name": "pointsUnitPriceInCurrencyE6",
      "outputs": [
        {
          "internalType": "uint256",
          "name": "",
          "type": "uint256"
        }
      ],
      "stateMutability": "view",
      "type": "function"
    },
    {
      "inputs": [
        {
          "internalType": "address",
          "name": "operator",
          "type": "address"
        },
        {
          "internalType": "uint256",
          "name": "amount",
          "type": "uint256"
        }
      ],
      "name": "recordAdminBurnForStats",
      "outputs": [],
      "stateMutability": "nonpayable",
      "type": "function"
    },
    {
      "inputs": [
        {
          "internalType": "address",
          "name": "admin",
          "type": "address"
        },
        {
          "internalType": "uint256",
          "name": "amount",
          "type": "uint256"
        }
      ],
      "name": "recordAdminMintForStats",
      "outputs": [],
      "stateMutability": "nonpayable",
      "type": "function"
    },
    {
      "inputs": [
        {
          "internalType": "string",
          "name": "code",
          "type": "string"
        },
        {
          "internalType": "address",
          "name": "to",
          "type": "address"
        }
      ],
      "name": "redeemAdminByGateway",
      "outputs": [],
      "stateMutability": "nonpayable",
      "type": "function"
    },
    {
      "inputs": [
        {
          "internalType": "string[]",
          "name": "codes",
          "type": "string[]"
        },
        {
          "internalType": "address",
          "name": "userEOA",
          "type": "address"
        }
      ],
      "name": "redeemBatchByGateway",
      "outputs": [],
      "stateMutability": "nonpayable",
      "type": "function"
    },
    {
      "inputs": [
        {
          "internalType": "string",
          "name": "code",
          "type": "string"
        },
        {
          "internalType": "address",
          "name": "userEOA",
          "type": "address"
        }
      ],
      "name": "redeemByGateway",
      "outputs": [],
      "stateMutability": "nonpayable",
      "type": "function"
    },
    {
      "inputs": [
        {
          "internalType": "string",
          "name": "code",
          "type": "string"
        },
        {
          "internalType": "address",
          "name": "userEOA",
          "type": "address"
        }
      ],
      "name": "redeemPoolByGateway",
      "outputs": [],
      "stateMutability": "nonpayable",
      "type": "function"
    },
    {
      "inputs": [],
      "name": "renounceOwnership",
      "outputs": [],
      "stateMutability": "nonpayable",
      "type": "function"
    },
    {
      "inputs": [
        {
          "internalType": "address",
          "name": "adminAddr",
          "type": "address"
        }
      ],
      "name": "resetAdminLimit",
      "outputs": [],
      "stateMutability": "nonpayable",
      "type": "function"
    },
    {
      "inputs": [
        {
          "internalType": "address",
          "name": "adminAddr",
          "type": "address"
        },
        {
          "internalType": "address",
          "name": "authorizer",
          "type": "address"
        }
      ],
      "name": "resetAdminLimitByAdmin",
      "outputs": [],
      "stateMutability": "nonpayable",
      "type": "function"
    },
    {
      "inputs": [
        {
          "internalType": "address",
          "name": "from",
          "type": "address"
        },
        {
          "internalType": "address",
          "name": "to",
          "type": "address"
        },
        {
          "internalType": "uint256[]",
          "name": "ids",
          "type": "uint256[]"
        },
        {
          "internalType": "uint256[]",
          "name": "values",
          "type": "uint256[]"
        },
        {
          "internalType": "bytes",
          "name": "data",
          "type": "bytes"
        }
      ],
      "name": "safeBatchTransferFrom",
      "outputs": [],
      "stateMutability": "nonpayable",
      "type": "function"
    },
    {
      "inputs": [
        {
          "internalType": "address",
          "name": "from",
          "type": "address"
        },
        {
          "internalType": "address",
          "name": "to",
          "type": "address"
        },
        {
          "internalType": "uint256",
          "name": "id",
          "type": "uint256"
        },
        {
          "internalType": "uint256",
          "name": "value",
          "type": "uint256"
        },
        {
          "internalType": "bytes",
          "name": "data",
          "type": "bytes"
        }
      ],
      "name": "safeTransferFrom",
      "outputs": [],
      "stateMutability": "nonpayable",
      "type": "function"
    },
    {
      "inputs": [
        {
          "internalType": "address",
          "name": "operator",
          "type": "address"
        },
        {
          "internalType": "bool",
          "name": "approved",
          "type": "bool"
        }
      ],
      "name": "setApprovalForAll",
      "outputs": [],
      "stateMutability": "nonpayable",
      "type": "function"
    },
    {
      "inputs": [
        {
          "internalType": "uint256",
          "name": "attr",
          "type": "uint256"
        }
      ],
      "name": "setDefaultAttr",
      "outputs": [],
      "stateMutability": "nonpayable",
      "type": "function"
    },
    {
      "inputs": [
        {
          "internalType": "uint256",
          "name": "secs",
          "type": "uint256"
        }
      ],
      "name": "setExpirySeconds",
      "outputs": [],
      "stateMutability": "nonpayable",
      "type": "function"
    },
    {
      "inputs": [
        {
          "internalType": "uint256",
          "name": "priceInCurrencyE6",
          "type": "uint256"
        }
      ],
      "name": "setPointsUnitPrice",
      "outputs": [],
      "stateMutability": "nonpayable",
      "type": "function"
    },
    {
      "inputs": [
        {
          "components": [
            {
              "internalType": "uint256",
              "name": "minUsdc6",
              "type": "uint256"
            },
            {
              "internalType": "uint256",
              "name": "attr",
              "type": "uint256"
            },
            {
              "internalType": "uint256",
              "name": "tierExpirySeconds",
              "type": "uint256"
            }
          ],
          "internalType": "struct Tier[]",
          "name": "newTiers",
          "type": "tuple[]"
        }
      ],
      "name": "setTiers",
      "outputs": [],
      "stateMutability": "nonpayable",
      "type": "function"
    },
    {
      "inputs": [
        {
          "internalType": "address",
          "name": "target",
          "type": "address"
        },
        {
          "internalType": "bool",
          "name": "allowed",
          "type": "bool"
        }
      ],
      "name": "setTransferWhitelist",
      "outputs": [],
      "stateMutability": "nonpayable",
      "type": "function"
    },
    {
      "inputs": [
        {
          "internalType": "bool",
          "name": "enabled",
          "type": "bool"
        }
      ],
      "name": "setTransferWhitelistEnabled",
      "outputs": [],
      "stateMutability": "nonpayable",
      "type": "function"
    },
    {
      "inputs": [
        {
          "internalType": "bytes4",
          "name": "interfaceId",
          "type": "bytes4"
        }
      ],
      "name": "supportsInterface",
      "outputs": [
        {
          "internalType": "bool",
          "name": "",
          "type": "bool"
        }
      ],
      "stateMutability": "view",
      "type": "function"
    },
    {
      "inputs": [
        {
          "internalType": "uint256",
          "name": "",
          "type": "uint256"
        }
      ],
      "name": "tiers",
      "outputs": [
        {
          "internalType": "uint256",
          "name": "minUsdc6",
          "type": "uint256"
        },
        {
          "internalType": "uint256",
          "name": "attr",
          "type": "uint256"
        },
        {
          "internalType": "uint256",
          "name": "tierExpirySeconds",
          "type": "uint256"
        }
      ],
      "stateMutability": "view",
      "type": "function"
    },
    {
      "inputs": [
        {
          "internalType": "uint256",
          "name": "",
          "type": "uint256"
        }
      ],
      "name": "tokenTierIndexOrMax",
      "outputs": [
        {
          "internalType": "uint256",
          "name": "",
          "type": "uint256"
        }
      ],
      "stateMutability": "view",
      "type": "function"
    },
    {
      "inputs": [],
      "name": "totalActiveMemberships",
      "outputs": [
        {
          "internalType": "uint256",
          "name": "",
          "type": "uint256"
        }
      ],
      "stateMutability": "view",
      "type": "function"
    },
    {
      "inputs": [],
      "name": "totalMembershipIssued",
      "outputs": [
        {
          "internalType": "uint256",
          "name": "",
          "type": "uint256"
        }
      ],
      "stateMutability": "view",
      "type": "function"
    },
    {
      "inputs": [
        {
          "internalType": "uint256",
          "name": "",
          "type": "uint256"
        }
      ],
      "name": "totalMembershipIssuedByTierIndex",
      "outputs": [
        {
          "internalType": "uint256",
          "name": "",
          "type": "uint256"
        }
      ],
      "stateMutability": "view",
      "type": "function"
    },
    {
      "inputs": [],
      "name": "totalMembershipUpgraded",
      "outputs": [
        {
          "internalType": "uint256",
          "name": "",
          "type": "uint256"
        }
      ],
      "stateMutability": "view",
      "type": "function"
    },
    {
      "inputs": [],
      "name": "totalSupply",
      "outputs": [
        {
          "internalType": "uint256",
          "name": "",
          "type": "uint256"
        }
      ],
      "stateMutability": "view",
      "type": "function"
    },
    {
      "inputs": [
        {
          "internalType": "uint256",
          "name": "id",
          "type": "uint256"
        }
      ],
      "name": "totalSupply",
      "outputs": [
        {
          "internalType": "uint256",
          "name": "",
          "type": "uint256"
        }
      ],
      "stateMutability": "view",
      "type": "function"
    },
    {
      "inputs": [
        {
          "internalType": "address",
          "name": "newOwner",
          "type": "address"
        }
      ],
      "name": "transferOwnership",
      "outputs": [],
      "stateMutability": "nonpayable",
      "type": "function"
    },
    {
      "inputs": [
        {
          "internalType": "address",
          "name": "",
          "type": "address"
        }
      ],
      "name": "transferWhitelist",
      "outputs": [
        {
          "internalType": "bool",
          "name": "",
          "type": "bool"
        }
      ],
      "stateMutability": "view",
      "type": "function"
    },
    {
      "inputs": [],
      "name": "transferWhitelistEnabled",
      "outputs": [
        {
          "internalType": "bool",
          "name": "",
          "type": "bool"
        }
      ],
      "stateMutability": "view",
      "type": "function"
    },
    {
      "inputs": [],
      "name": "upgradeType",
      "outputs": [
        {
          "internalType": "uint8",
          "name": "",
          "type": "uint8"
        }
      ],
      "stateMutability": "view",
      "type": "function"
    },
    {
      "inputs": [
        {
          "internalType": "uint256",
          "name": "",
          "type": "uint256"
        }
      ],
      "name": "uri",
      "outputs": [
        {
          "internalType": "string",
          "name": "",
          "type": "string"
        }
      ],
      "stateMutability": "view",
      "type": "function"
    }
  ],
  "bytecode": "0x60a0604052346103b9576163ad80380380610019816103bd565b928339810160e0828203126103b95781516001600160401b0381116103b957820181601f820112156103b95780516001600160401b03811161031a57610068601f8201601f19166020016103bd565b92818452602082840101116103b9575f928160208094018483015e010152602081015160098110156103b95760408201516100a5606084016103e2565b916100b2608085016103e2565b9360a08101519060ff82168092036103b95760c001519283151584036103b9576020945f6100df876103bd565b52600254600181811c911680156103af575b8782101461039b57601f8111610369575b505f6002556001600160a01b031692831561035657600380546001600160a01b031981168617909155604051979085906001600160a01b03167f8be0079c531659141344cd1fd0a4f28419497f9722a3daafe3b4186f6b6457e05f80a3600160045560646019556001600160a01b03811690811590811561034c575b5061033d576002841161032e57336080528060018060a01b031960055416176005556006549160ff60a01b9060a01b169160018060a81b031916171760065560075560ff19601a541617601a5560017fbc488d3e2575f0f2113dc4d9a0cd6bc52445c6bc28a8974ed97a6ba3ecfd657a55805f527fbc488d3e2575f0f2113dc4d9a0cd6bc52445c6bc28a8974ed97a6ba3ecfd657b835260405f20600160ff198254161790555f51602061638d5f395f51905f52546801000000000000000081101561031a5760018101805f51602061638d5f395f51905f5255811015610306575f51602061638d5f395f51905f525f9081528490200180546001600160a01b031916909117905564174876e8007ffed699897f2561c8a98f833aa3de83c4904370d413fe5fb15abe26e9f8150b29556102cb575b604051615f9690816103f7823960805181612aa80152f35b7fc52867146282c253c04e94eb2a948478a1f7ef84cf2d6f5864facc99f2203f2c91600160ff19600a541617600a5560018152a15f806102b3565b634e487b7160e01b5f52603260045260245ffd5b634e487b7160e01b5f52604160045260245ffd5b63c7e283e160e01b5f5260045ffd5b63ab82bb9960e01b5f5260045ffd5b90503b155f61017e565b631e4fbdf760e01b5f525f60045260245ffd5b80156101025760025f52601f875f20910160051c905f5b82811061038e575050610102565b5f82820155600101610380565b634e487b7160e01b5f52602260045260245ffd5b90607f16906100f1565b5f80fd5b6040519190601f01601f191682016001600160401b0381118382101761031a57604052565b51906001600160a01b03821682036103b95756fe60806040526004361015610019575b3415613b13575b5f80fd5b5f3560e01c8062fdd58e146105bd57806301ffc9a7146105b8578063039af9eb146105b357806303ca3e38146105ae5780630a106e9c146105a95780630b6c8d71146105a45780630cb856411461059f5780630e4ab4871461059a5780630e89341c146105955780630ec3786b146105905780631018c34b1461058b57806310bba86414610586578063116191b6146105225780631284b92f1461058157806317c957091461057c57806318160ddd146105775780631c790e24146105725780631fe56e6a1461056d57806324d7806c146105685780632aff2a59146105635780632b681a541461055e5780632dd50a49146105595780632eb2c2d61461055457806333d4e5621461054f5780633c703d451461054a5780633c970fb91461054557806343159ce514610540578063475e53ec1461053b57806348ed7ebe1461053657806349dd0900146105315780634dda22151461052c5780634e1273f41461052757806353785619146105225780635476d0711461051d57806356217848146105185780635637d5bc14610513578063564da7571461050e57806356c689fa146105095780636465c3a714610504578063671395c8146104ff5780636f0fa0cb146104fa5780636f5def39146104f5578063706e0132146104f0578063715018a6146104eb57806371b8982f146104145780637766fa44146104e65780637ffbe241146104e157806382b720c9146104dc57806383dbbf53146104d7578063897828a8146104d25780638a1b32bb146104cd5780638abc9b25146104c85780638da5cb5b146104c35780638db55308146104be57806394b2e946146104b95780639565c542146104b457806398951b56146104af5780639b52f90d146104aa5780639f1bbda7146104a55780639f3d1a2a146104a05780639f48facc1461049b578063a22cb46514610496578063a479044614610491578063a657a65b1461048c578063a876c75914610487578063a98d916e14610482578063acf12d3d1461047d578063aeadb04b14610478578063af7ffa2b14610473578063b84f1fe81461046e578063bd85b03914610469578063c926bbfd14610464578063c9840daf1461045f578063d05dcc6a1461045a578063d182793714610455578063d4506e7714610450578063d52dc5151461044b578063d5f3948814610446578063dd1bc5e914610441578063e4a34dce1461043c578063e5a6b10f14610437578063e803043214610432578063e985e9c51461042d578063ea2b867214610428578063f242432a14610423578063f2fde38b1461041e578063f540f22714610419578063f986f67614610414578063fcef6b011461040f578063fee3d73e1461040a5763ffa1ad740361000e57612ee9565b612ec9565b612eac565b611d5c565b612e82565b612e0b565b612d1e565b612c2a565b612bf9565b612b7f565b612b3f565b612b01565b612ad7565b612a93565b612a71565b612a19565b6129bf565b612995565b6128ba565b612895565b61285f565b612805565b612792565b61276b565b61274e565b61272f565b612712565b6126b7565b61264f565b6125c4565b612466565b6123af565b612392565b61236b565b6122f7565b6122cf565b612294565b612276565b61224e565b61216d565b6120e8565b612086565b61201a565b611f23565b611ee3565b611da9565b611cbb565b611c9c565b611c75565b611c4e565b611c13565b611ada565b611a4b565b611957565b61193c565b611912565b6118f5565b610d8d565b611834565b6117d3565b611770565b611649565b6115d7565b61148c565b611449565b611400565b6113cf565b61133b565b6111b3565b61118e565b611127565b6110f2565b6110c8565b61100b565b610fe2565b610fb8565b610f2f565b610d61565b610cfa565b610c9e565b610bd7565b610b54565b610af7565b610a36565b61095c565b61073d565b6106d0565b61062d565b6105df565b6001600160a01b031690565b6001600160a01b0381160361001557565b34610015576040366003190112610015576020610612600435610601816105ce565b6024355f525f835260405f20610f05565b54604051908152f35b6001600160e01b031981160361001557565b3461001557602036600319011261001557602060043561064c8161061b565b63ffffffff60e01b16636cdb3d1360e11b811490811561068a575b8115610679575b506040519015158152f35b6301ffc9a760e01b1490505f61066e565b6303a24d0760e21b81149150610667565b634e487b7160e01b5f52603260045260245ffd5b6017548110156106cb5760175f52600360205f20910201905f90565b61069b565b3461001557602036600319011261001557600435601754811015610015576106f96060916106af565b50805490600260018201549101549060405192835260208301526040820152f35b606090600319011261001557600435610732816105ce565b906024359060443590565b346100155761074b3661071a565b600654919290916001600160a01b03168061092f57506005546001600160a01b03165b6001600160a01b0316330361092057610785613c11565b6001600160a01b038116918215610911578015610902576107e86107f7916107e35f516020615eaa5f395f51905f52966107d560405193849263c791063b60e01b60208501528860248501612f1b565b03601f198101835282611222565b613c31565b60208082518301019101612f39565b93909161088761080682613c91565b9161081083613d03565b61087961081c84613d40565b861580806108f9575b6108ea575b61083d610835612f4f565b8b8a89613e3c565b156108e35788905b6013546014549290916108ce576017546108b2576108639087613e83565b6003546001600160a01b0316613eaa565b613eaa565b61088285610f8b565b610f05565b546040516001600160a01b039092169582916108a39183612f63565b0390a46108b06001600455565b005b806108be575b50610863565b6108c89087613e83565b5f6108b8565b806108d95750610863565b6108c89087613e5c565b5f90610845565b6108f48a87613db0565b61082a565b50891515610825565b63201165f360e21b5f5260045ffd5b63a9b8048960e01b5f5260045ffd5b6396f47d2360e01b5f5260045ffd5b61076e565b60409060031901126100155760043561094c816105ce565b90602435610959816105ce565b90565b346100155761096a36610934565b6006546001600160a01b0316806109c357506005546001600160a01b03165b6001600160a01b03163303610920576109be6108b0926107d56040519384926302841ba760e21b602085015260248401612f74565b613c5e565b610989565b6060602091604081019381526040838201528451809452019201905f5b8181106109f25750505090565b909192602060a060019260808751805183528481015185840152604081015160408401526060810151606084015201511515608082015201940191019190916109e5565b3461001557602036600319011261001557610a7f6020600435610a58816105ce565b60055460405163805a016360e01b815293849283926001600160a01b031660048401612f74565b038173__$a9219284c3f0d74f57f4dcfc58f5429559$__5af48015610af257610aaf915f91610ac3575b506130d6565b90610abf604051928392836109c8565b0390f35b610ae5915060203d602011610aeb575b610add8183611222565b8101906131e2565b5f610aa9565b503d610ad3565b61300a565b3461001557604036600319011261001557600435610b14816105ce565b600654602435906001600160a01b031680610b4f57506005546001600160a01b03165b6001600160a01b03163303610920576108b091613f18565b610b37565b3461001557602036600319011261001557600435610b70614024565b7ff316e065e93b4fddef3d2d93a57817985081f76ea9e0ca7417ed5b4b086b1fcb6020601854604051908152a1601855005b805180835260209291819084018484015e5f828201840152601f01601f1916010190565b906020610959928181520190610ba2565b3461001557602036600319011261001557610c165f610bf4614088565b604051809381926319c56d4160e21b8352604060048401526044830190610ba2565b306024830152038173__$9326044641c87b14e434c703319e7fbd9b$__5af48015610af257610abf915f91610c53575b5060405191829182610bc6565b610c6f91503d805f833e610c678183611222565b810190612fe5565b5f610c46565b606090600319011261001557600435610c8d816105ce565b9060243590604435610959816105ce565b3461001557610cac36610c75565b6006549091906001600160a01b031680610cf557506005546001600160a01b03165b6001600160a01b0316330361092057610cee92610ce9613c11565b6140f7565b6001600455005b610cce565b3461001557604036600319011261001557600435610d17816105ce565b600654602435906001600160a01b031680610d5257506005546001600160a01b03165b6001600160a01b03163303610920576108b0916141ba565b610d3a565b5f91031261001557565b34610015575f36600319011261001557602060405160068152f35b6001600160a01b0316600452602490565b34610015575f366003190112610015576005546040516001600160a01b039091168152602090f35b6001600160a01b03165f9081527fbc488d3e2575f0f2113dc4d9a0cd6bc52445c6bc28a8974ed97a6ba3ecfd657b6020526040902090565b6001600160a01b03165f9081527fbe5c2328713858b26c97b83c5ace333ac35b55572be4794180ba426b12cc48be6020526040902090565b6001600160a01b03165f9081527fbe5c2328713858b26c97b83c5ace333ac35b55572be4794180ba426b12cc48bf6020526040902090565b6001600160a01b03165f9081527fbe5c2328713858b26c97b83c5ace333ac35b55572be4794180ba426b12cc48c26020526040902090565b6001600160a01b03165f9081527fbe5c2328713858b26c97b83c5ace333ac35b55572be4794180ba426b12cc48c36020526040902090565b6001600160a01b03165f9081527fbe5c2328713858b26c97b83c5ace333ac35b55572be4794180ba426b12cc48c46020526040902090565b9060018060a01b03165f5260205260405f2090565b80548210156106cb575f5260205f2001905f90565b3461001557604036600319011261001557600435610f4c816105ce565b6001600160a01b03165f908152600e602052604090208054602435919082101561001557602091610f7c91610f1a565b90549060031b1c604051908152f35b5f527fe5fcefe92466b78c655fa732b80b16e07a00f2a897e833e17d9914703cad563360205260405f2090565b34610015576020366003190112610015576004355f52600b602052602060405f2054604051908152f35b34610015575f3660031901126100155760205f516020615f4a5f395f51905f5254604051908152f35b346100155760403660031901126100155760243560043561102b826105ce565b6006546001600160a01b0316806110c357506005546001600160a01b03165b6001600160a01b03163303610920575f80611063614267565b93604051602081019163071e438960e21b835285602483015260018060a01b0316604482015260448152611098606482611222565b5190855af46110a5613015565b50156110b4576108b091614617565b6363bc5ecb60e11b5f5260045ffd5b61104a565b34610015576020366003190112610015576004355f526011602052602060405f2054604051908152f35b3461001557602036600319011261001557602060ff61111b600435611116816105ce565b610db5565b54166040519015158152f35b346100155761113536610934565b6006546001600160a01b03168061118957506005546001600160a01b03165b6001600160a01b03163303610920576109be6108b0926107d5604051938492630ed647d960e11b602085015260248401612f74565b611154565b3461001557602036600319011261001557610aaf6004356111ae816105ce565b6130d6565b3461001557610cee6111c436610c75565b916111cd613c11565b61320c565b634e487b7160e01b5f52604160045260245ffd5b606081019081106001600160401b0382111761120157604052565b6111d2565b61010081019081106001600160401b0382111761120157604052565b601f909101601f19168101906001600160401b0382119082101761120157604052565b6040519061125460a083611222565b565b6040519061125461010083611222565b6001600160401b0381116112015760051b60200190565b9080601f8301121561001557813561129481611266565b926112a26040519485611222565b81845260208085019260051b82010192831161001557602001905b8282106112ca5750505090565b81358152602091820191016112bd565b6001600160401b03811161120157601f01601f191660200190565b81601f820112156100155780359061130c826112da565b9261131a6040519485611222565b8284526020838301011161001557815f926020809301838601378301015290565b346100155760a036600319011261001557600435611358816105ce565b60243590611365826105ce565b6044356001600160401b0381116100155761138490369060040161127d565b6064356001600160401b038111610015576113a390369060040161127d565b608435939091906001600160401b038511610015576113c96108b09536906004016112f5565b936133cc565b346100155760203660031901126100155760206113f66004356113f1816105ce565b613425565b6040519015158152f35b34610015576020366003190112610015576004355f527ffed699897f2561c8a98f833aa3de83c4904370d413fe5fb15abe26e9f8150b30602052602060405f2054604051908152f35b3461001557604036600319011261001557610cee600435611469816105ce565b602435611474613c11565b61147c614024565b61086360135491601454936146f8565b34610015576040366003190112610015576004356114a9816105ce565b6024356006546001600160a01b0316806115d257506005546001600160a01b03165b6001600160a01b03163303610920576114e2613c11565b9081906001600160a01b03811615610911576114fd90613c91565b5f8080526020529061151c825f516020615f6a5f395f51905f52610f05565b54908115610902575f19146115ca575b808311611590575081156109025761158381611569847fcfaedf921126ed75cd0b52e9418d816572c256b67104e03066bd3f067f2d53c09461471f565b6040519384526001600160a01b0316929081906020820190565b0390a26108b06001600455565b60405163406e3ab960e01b81526001600160a01b0390921660048301525f60248301526044820152606481019190915280608481015b0390fd5b91508161152c565b6114cb565b34610015576115e53661071a565b6006549091906001600160a01b03168061164457506005546001600160a01b03165b6001600160a01b031633036109205761161e613c11565b6001600160a01b038316156109115781156109025761163f610cee93613c91565b614912565b611607565b346100155761165736610c75565b600654919290916001600160a01b03168061176b57506005546001600160a01b03165b6001600160a01b0316330361092057611691613c11565b6001600160a01b03811615801561175a575b610911578215610902576116c76116c36116bc84610db5565b5460ff1690565b1590565b6110b4575f516020615eca5f395f51905f529161156961170f61158393611709604051631deff10f60e11b60208201526109be816107d58b896024840161348d565b50613c91565b9161171983613d03565b6117238684613db0565b6013546014549161173c611735612f4f565b8987613df7565b6117468882613f18565b6117508886614977565b6108748886613e5c565b506001600160a01b038216156116a3565b61167a565b346100155760203660031901126100155760043561178d816105ce565b6001600160a01b039081165f9081527fbc488d3e2575f0f2113dc4d9a0cd6bc52445c6bc28a8974ed97a6ba3ecfd65816020908152604091829020549151919092168152f35b34610015575f366003190112610015576020600754604051908152f35b90602080835192838152019201905f5b81811061180d5750505090565b8251845260209384019390920191600101611800565b9060206109599281815201906117f0565b34610015576040366003190112610015576004356001600160401b03811161001557366023820112156100155780600401359061187082611266565b9161187e6040519384611222565b8083526024602084019160051b8301019136831161001557602401905b8282106118db57836024356001600160401b03811161001557610abf916118c96118cf92369060040161127d565b906134a8565b60405191829182611823565b6020809183356118ea816105ce565b81520191019061189b565b34610015575f366003190112610015576020601554604051908152f35b34610015576020366003190112610015576004355f526012602052602060405f2054604051908152f35b34610015575f36600319011261001557602060405160648152f35b3461001557604036600319011261001557600435611974816105ce565b60243590611980613c11565b611988614024565b6001600160a01b03811615610911578115610902576115836119b75f516020615eca5f395f51905f5292613c91565b6119c081613d03565b6119ca8482613db0565b611569601354601454906119ef6040516119e5602082611222565b5f81528886613df7565b6119f98785614977565b6108638785613e5c565b604435906001600160401b038216820361001557565b959260c09592989794919860e08801998852602088015260408701526060860152608085015260a08401521515910152565b34610015576020366003190112610015576004356001600160401b0381168103610015576001600160401b03165f9081527f348bae4e1f5cd16c7acea618682eb9de87b5f8161d5b94b9b5591b7620ae71a2602052604090208054610abf600183015492600281015490600381015460048201549060ff60066005850154940154169360405197889788611a19565b3461001557611ae83661071a565b600654919290916001600160a01b031680611c0e57506005546001600160a01b03165b6001600160a01b0316330361092057611b22613c11565b6001600160a01b038116918215610911578015610902576107e8611b72916107e35f516020615eaa5f395f51905f52966107d5604051938492634404589760e01b60208501528860248501612f1b565b939091610887611b8182613c91565b91611b8b83613d03565b84158080611c05575b611bf6575b611bac611ba4612f4f565b898887613e3c565b15611bf057865b80611bc3575b5061088285610f8b565b610863611bea91611bd76013549060145490565b929091611be48189614977565b87613e5c565b5f611bb9565b5f611bb3565b611c008885613db0565b611b99565b50871515611b94565b611b0b565b3461001557602036600319011261001557600435611c30816105ce565b60018060a01b03165f52600f602052602060405f2054604051908152f35b34610015576020366003190112610015576020610612600435611c70816105ce565b610ded565b34610015576020366003190112610015576020610612600435611c97816105ce565b610e25565b3461001557611caa3661071a565b90611cb3613c11565b61161e614024565b34610015575f36600319011261001557611cd361499e565b600380546001600160a01b031981169091555f906001600160a01b03165f516020615f0a5f395f51905f528280a3005b906040600319830112610015576004356001600160401b0381116100155782602382011215610015576004810135926001600160401b0384116100155760248483010111610015576024019190602435610959816105ce565b3461001557611d6a36611d03565b6006549091906001600160a01b031680611da457506005546001600160a01b03165b6001600160a01b03163303610920576108b092613552565b611d8c565b3461001557611db736611d03565b6006549192916001600160a01b031680611ede57506005546001600160a01b03165b6001600160a01b0316330361092057611df0613c11565b6001600160a01b0381161561091157611e3f611e305f94611e2b86956107d5604051938492633aa2954160e11b602085015260248401613605565b613c6b565b60208082518301019101613616565b611e4a929192614267565b928115158514611ea557611e79906107d5604051938492602084019663d8bdbdf560e01b885260248501613676565b51915af4611e85613015565b505b15611e96576108b06001600455565b63fb713d2b60e01b5f5260045ffd5b6107d59150611ecc906040519283916020830195630b18ae1d60e11b875260248401613646565b51915af4611ed8613015565b50611e87565b611dd9565b3461001557602036600319011261001557600435611f00816105ce565b60018060a01b03165f526009602052602060ff60405f2054166040519015158152f35b346100155760a036600319011261001557600435611f408161061b565b60243590611f4d826105ce565b604435906064356084356006549091906001600160a01b03168061201557506005546001600160a01b03165b6001600160a01b0316330361092057611fe593611f94614267565b6040516382b720c960e01b60208201526001600160e01b031990951660248601526001600160a01b0390961660448501526064840152608483015260a48083019190915281526109be60c482611222565b90602082805181010312610015576120056020610abf9301518092614617565b6040519081529081906020820190565b611f79565b3461001557602036600319011261001557600435612036614024565b801561206d576020817fd45b01a2f21a7aa8a0f57023efdce73147de071e77875c3f4d486b1e13eaef7092600755604051908152a1005b6376024b7160e01b5f5260045ffd5b8015150361001557565b34610015576020366003190112610015577fc52867146282c253c04e94eb2a948478a1f7ef84cf2d6f5864facc99f2203f2c60206004356120c68161207c565b6120ce614024565b151560ff19600a541660ff821617600a55604051908152a1005b3461001557602036600319011261001557600435612105816105ce565b6006546001600160a01b03168061216857506005546001600160a01b03165b6001600160a01b0316330361092057604051638a1b32bb60e01b60208201526001600160a01b0390911660248083019190915281526108b0906109be604482611222565b612124565b346100155760603660031901126100155760443560043560243561218f614024565b811561223f5760175490604051936121a6856111e6565b83855260208501918083526040860195828752600160401b85101561120157600185016017556121d5856106af565b91909161223a577fc9553df3224b08515381089b4a0e07d62144ba87c402485fabd66899cadc2ab1976122359560029251845551600184015551910155604051948594859094939260609260808301968352602083015260408201520152565b0390a1005b6136ae565b639033099360e01b5f5260045ffd5b34610015575f366003190112610015576003546040516001600160a01b039091168152602090f35b346100155760203660031901126100155760206113f66004356136c1565b34610015576020366003190112610015576004356122b1816105ce565b60018060a01b03165f526010602052602060405f2054604051908152f35b34610015575f366003190112610015576006546040516001600160a01b039091168152602090f35b346100155760203660031901126100155760043560ff61231633610db5565b5416156110b457612325614267565b905f806040516020810190634c4a8dab60e11b82528460248201526024815261234f604482611222565b5190855af461235c613015565b5015611e96576108b091614617565b3461001557602036600319011261001557602061061260043561238d816105ce565b610e5d565b34610015575f366003190112610015576020600854604051908152f35b34610015575f36600319011261001557610abf6123ca614088565b604051918291602083526020830190610ba2565b81516001600160401b039081168252602080840151909116908201526040808301516001600160801b03908116918301919091526060808401519091169082015261010081019291611254919060e090819060808181015115159085015260a08181015160ff169085015260c08181015160ff169085015201516001600160801b0316910152565b34610015576020366003190112610015576004355f60e060405161248981611206565b8281528260208201528260408201528260608201528260808201528260a08201528260c082015201525f527fe5fcefe92466b78c655fa732b80b16e07a00f2a897e833e17d9914703cad5632602052610abf60405f206125936125836002604051936124f485611206565b80546001600160401b038082168752604082901c1660208701526125259060801c6001600160801b03166040870152565b60018101546001600160801b03811660608701526125759061256b90612555608082901c60ff16151560808a0152565b60ff608882901c1660a089015260901c60ff1690565b60ff1660c0870152565b01546001600160801b031690565b6001600160801b031660e0830152565b604051918291826123de565b6040906003190112610015576004356125b7816105ce565b906024356109598161207c565b34610015576125d23661259f565b6001600160a01b03821691821561263d57816125fc61260d92335f52600160205260405f20610f05565b9060ff801983541691151516179055565b60405190151581527f17307eab39ab6107e8899845ad3d59bd9653f200f220920489ca2b5937696c3160203392a3005b62ced3e160e81b5f525f60045260245ffd5b34610015576040366003190112610015576004356001600160401b0381116100155736602382011215610015576004810135906001600160401b038211610015573660248360051b83010111610015576108b09160248035926126b1846105ce565b0161377b565b34610015576020366003190112610015576004356001600160401b03811161001557366023820112156100155760048101356001600160401b0381116100155736602460608302840101116100155760246108b09201613a61565b34610015575f366003190112610015576020601854604051908152f35b34610015575f36600319011261001557602060405164174876e8008152f35b34610015575f366003190112610015576020601354604051908152f35b3461001557602036600319011261001557602061061260043561278d816105ce565b610e95565b34610015576040366003190112610015576004356127af816105ce565b60065460243591906001600160a01b03168061280057506005546001600160a01b03165b6001600160a01b0316330361092057610cee916127ee613c11565b6003546001600160a01b0316916140f7565b6127d3565b3461001557602036600319011261001557600435612822816105ce565b60018060a01b03165f527fbe5c2328713858b26c97b83c5ace333ac35b55572be4794180ba426b12cc48c0602052602060405f2054604051908152f35b34610015576020366003190112610015576004355f525f516020615eea5f395f51905f52602052602060405f2054604051908152f35b34610015575f3660031901126100155760206040515f8152f35b60ff81160361001557565b34610015576060366003190112610015576004356128d7816128af565b60243590600160ff6128e7611a03565b92160361295d57612921915f527f348bae4e1f5cd16c7acea618682eb9de87b5f8161d5b94b9b5591b7620ae71a360205260405f2061353d565b8054610abf60018301549260028101549060038101546004820154906129506006600585015494015460ff1690565b9360405197889788611a19565b612990915f527f348bae4e1f5cd16c7acea618682eb9de87b5f8161d5b94b9b5591b7620ae71a460205260405f2061353d565b612921565b34610015576020366003190112610015576004355f52600c602052602060405f2054604051908152f35b34610015576020366003190112610015576004356129dc816105ce565b60018060a01b03165f527fbe5c2328713858b26c97b83c5ace333ac35b55572be4794180ba426b12cc48c1602052602060405f2054604051908152f35b3461001557602036600319011261001557600435612a35614024565b7f1c8121c98d871a1523a6112e29ac660378afbcb9b921cff8f187c3da35d1708181600854612a6960405192839283612f63565b0390a1600855005b34610015575f36600319011261001557602060ff600a54166040519015158152f35b34610015575f366003190112610015576040517f00000000000000000000000000000000000000000000000000000000000000006001600160a01b03168152602090f35b34610015576020366003190112610015576004355f526016602052602060405f2054604051908152f35b34610015576108b0612b123661259f565b90612b1b614024565b60018060a01b03165f52600960205260405f209060ff801983541691151516179055565b34610015575f3660031901126100155760ff60065460a01c166040516009821015612b6b576020918152f35b634e487b7160e01b5f52602160045260245ffd5b3461001557604036600319011261001557600435612b9c816105ce565b6107d5612bb660243560405192839160208301958661348d565b5190205f527ffed699897f2561c8a98f833aa3de83c4904370d413fe5fb15abe26e9f8150b3160205260ff60405f20541660405180916020820190151582520390f35b3461001557602060ff61111b612c0e36610934565b6001600160a01b039091165f9081526001855260409020610f05565b3461001557604036600319011261001557600435612c47816105ce565b6024356006546001600160a01b031680612d1957506005546001600160a01b03165b6001600160a01b0316330361092057612c80613c11565b6001600160a01b03821691821561091157612c9d612cf591613c91565b6040516335be6eb960e21b602082015260248101949094526001600160a01b038116604485018190526064808601859052855293612ce590612ce0608482611222565b613c77565b5082612cef612f4f565b91613e1c565b604051600181525f516020615f2a5f395f51905f5290602090a36108b06001600455565b612c69565b346100155760a036600319011261001557600435612d3b816105ce565b602435612d47816105ce565b60443590606435926084356001600160401b03811161001557612d6e9036906004016112f5565b926001600160a01b0382163381141580612deb575b612dd5576001600160a01b03841615612dc25715612db0576108b094612da891614daa565b929091614fb4565b626a0d4560e21b5f525f60045260245ffd5b632bfa23e760e11b5f525f60045260245ffd5b63711bec9160e11b5f523360045260245260445ffd5b50805f52600160205260ff612e033360405f20610f05565b541615612d83565b3461001557602036600319011261001557600435612e28816105ce565b612e3061499e565b6001600160a01b03168015612e6f57600380546001600160a01b0319811683179091556001600160a01b03165f516020615f0a5f395f51905f525f80a3005b631e4fbdf760e01b5f525f60045260245ffd5b34610015576020366003190112610015576004355f52600d602052602060405f2054604051908152f35b34610015575f366003190112610015576020601454604051908152f35b34610015575f36600319011261001557602060ff601a5416604051908152f35b34610015575f36600319011261001557602060405160148152f35b612f17915f525f60205260405f20610f05565b5490565b604091949392606082019560018060a01b0316825260208201520152565b9190826040910312610015576020825192015190565b60405190612f5e602083611222565b5f8252565b908152602081019190915260400190565b6001600160a01b0391821681529116602082015260400190565b5f516020615f4a5f395f51905f5255565b81601f8201121561001557805190612fb6826112da565b92612fc46040519485611222565b8284526020838301011161001557815f9260208093018386015e8301015290565b906020828203126100155781516001600160401b038111610015576109599201612f9f565b6040513d5f823e3d90fd5b3d1561303f573d90613026826112da565b916130346040519384611222565b82523d5f602084013e565b606090565b9061304e82611266565b61305b6040519182611222565b828152809261306c601f1991611266565b015f5b81811061307b57505050565b60405160a0810191906001600160401b03831181841017611201576020926040525f81525f838201525f60408201525f60608201525f60808201528282860101520161306f565b80518210156106cb5760209160051b010190565b6001600160a01b0381165f908152600e602052604090209091909182546130fc81613044565b935f5b82811061312c5750505f80805260205250613127905f516020615f6a5f395f51905f52610f05565b549190565b8061314661313c60019385610f1a565b90549060031b1c90565b6131b061315b825f52600b60205260405f2090565b5480151590816131cc575b613178845f52600c60205260405f2090565b5461318b855f52600d60205260405f2090565b5490613195611245565b95865260208601526040850152606084015215156080830152565b6131ba82896130c2565b526131c581886130c2565b50016130ff565b809150421190613166565b5190611254826105ce565b908160209103126100155751610959816105ce565b9081602091031261001557516109598161207c565b919080156133c7576001600160a01b038316928315610911576001600160a01b038316156109115760405163c45a015560e01b8152602081600481885afa908115610af2575f916133a8575b506001600160a01b031680156109115760405163054c14ed60e51b8152602081600481855afa908115610af2575f91613389575b506001600160a01b0316801561337a57330361336c576040516303330c7960e41b81526001600160a01b03929092166004830152602090829060249082905afa908115610af2575f9161333d575b501561332e57602060049360405194858092638da5cb5b60e01b82525afa8015610af257611254935f9161330f575b506140f7565b613328915060203d602011610aeb57610add8183611222565b5f613309565b632ad05f3360e11b5f5260045ffd5b61335f915060203d602011613365575b6133578183611222565b8101906131f7565b5f6132da565b503d61334d565b62645ab960e51b5f5260045ffd5b63ab82bb9960e01b5f5260045ffd5b6133a2915060203d602011610aeb57610add8183611222565b5f61328c565b6133c1915060203d602011610aeb57610add8183611222565b5f613258565b505050565b939291906001600160a01b0385163381141580613405575b612dd5576001600160a01b03821615612dc25715612db05761125494614fb4565b50805f52600160205260ff61341d3360405f20610f05565b5416156133e4565b60ff600a541615613487575f805260096020527fec8156718a8372b1db44bb411437d0870f3e3790d4a08526d024ce1b0b668f6b5460ff16908115613468575090565b6001600160a01b03165f9081526009602052604090205460ff16919050565b50600190565b6001600160a01b039091168152602081019190915260400190565b919091805183518082036135285750508051906134c482611266565b916134d26040519384611222565b8083526134e1601f1991611266565b013660208401375f5b8151811015613521578061351060019260051b6020808287010151918901015190612f04565b61351a82866130c2565b52016134ea565b5090925050565b635b05999160e01b5f5260045260245260445ffd5b9060018060401b03165f5260205260405f2090565b919061355c613c11565b6001600160a01b038216918215610911576135bf84611e2b613581856135de986149d2565b9590966135ab60405194859363fd44e85560e01b60208601526040602486015260648501916135e5565b90604483015203601f198101835282611222565b926135d36020855186010160208601613951565b959293915093614a74565b6001600455565b908060209392818452848401375f828201840152601f01601f1916010190565b9160206109599381815201916135e5565b91906040838203126100155782516001600160401b03811161001557602091613640918501612f9f565b92015190565b6001600160a01b039091168152600160208201819052604082015260806060820181905261095992910190610ba2565b9392916136a99060809260018060a01b03168652600160208701526001604087015260a0606087015260a0860190610ba2565b930152565b634e487b7160e01b5f525f60045260245ffd5b64174876e800811061376c575f9081527ffed699897f2561c8a98f833aa3de83c4904370d413fe5fb15abe26e9f8150b2a60209081526040808320547ffed699897f2561c8a98f833aa3de83c4904370d413fe5fb15abe26e9f8150b2b909252909120546001600160401b0390811691168015159081613771575b5061376c576001600160401b03168015159081613762575b5061375e57600190565b5f90565b905042115f613754565b505f90565b905042105f61373c565b6006549091906001600160a01b03168061381457506005546001600160a01b03165b6001600160a01b03163303610920576137b4613c11565b6001600160a01b03831615610911578015611e965761380a926135bf611e2b926137e76137e18287613819565b906149d2565b9490956107d58560405194859363bca0e27d60e01b602086015260248501613853565b6112546001600455565b61379d565b90156106cb57803590601e19813603018212156100155701803591906001600160401b038311610015576020018236038113610015579190565b93929190816040860160408752526060850160608360051b87010192825f90601e19813603015b83831061389d575050505050509060206112549294019060018060a01b03169052565b909192939495605f198a8203018652863582811215610015578301602081019190356001600160401b038111610015578036038313610015576138e660209283926001956135e5565b98019601949301919061387a565b9080601f8301121561001557815161390b81611266565b926139196040519485611222565b81845260208085019260051b82010192831161001557602001905b8282106139415750505090565b8151815260209182019101613934565b9060808282031261001557815192602083015192604081015160018060401b03811161001557836139839183016138f4565b60608201519093906001600160401b0381116100155761095992016138f4565b91908110156106cb576060020190565b634e487b7160e01b5f52601160045260245ffd5b6017545f601755806139d65750565b80600302906003820403613a145760175f5260205f205f5b8281106139fa57505050565b805f600260039385018281558260018201550155016139ee565b6139b3565b601754600160401b81101561120157600181016017556017548110156106cb57604060029160175f52600360205f209102019280358455602081013560018501550135910155565b613a69614024565b8115613aef575f5b828110613ad65750613a816139c7565b5f5b828110613aba5750506040519081527f2f291eaf494dc7eca20457441a1df7d9119f0c0d764309daf9cb6b148810ee3690602090a1565b80613ad0613acb60019386866139a3565b613a19565b01613a83565b613ae18184846139a3565b351561223f57600101613a71565b6308ba5b6160e01b5f5260045ffd5b908160209103126100155751610959816128af565b613b1b614c5e565b60405163426dc88f60e01b81526001600160e01b03195f351660048201526020816024816001600160a01b0386165afa908115610af2575f91613be2575b5060ff1660fd198101613b8557505f80915b368280378136915af43d90815f803e15613b82575ff35b5ffd5b905080613b9c57505f80613b976143dd565b613b6b565b60038103613baf57505f80613b97614267565b60018103613bc257505f80613b9761436b565b600203613bd3575f80613b976142f9565b633655084960e01b5f5260045ffd5b613c04915060203d602011613c0a575b613bfc8183611222565b810190613afe565b5f613b59565b503d613bf2565b600260045414613c22576002600455565b633ee5aeb560e01b5f5260045ffd5b5f8091613c3e600161444e565b602082519201905af490613c50613015565b9115613c5857565b50614cfa565b5f8091613c3e600361444e565b5f8091613c3e8261444e565b5f8091613c3e600261444e565b5f8091613c3e600461444e565b6005546040516306e0faf160e21b81529160209183918291613cc091906001600160a01b031660048401612f74565b038173__$a9219284c3f0d74f57f4dcfc58f5429559$__5af4908115610af2575f91613cea575090565b610959915060203d602011610aeb57610add8183611222565b60405163e6a84c7760e01b60208201526001600160a01b039091166024808301919091528152613d3d90613d38604482611222565b613c84565b50565b6001600160a01b0381165f908152600f60205260409020548015159182613d90575b5081613d6c575090565b90505f52600b60205260405f20548015159081613d8857501590565b905042111590565b81613da69293505f525f60205260405f20610f05565b541515905f613d62565b8115613df357613dbf90613d40565b613d3d5760175415613d3d57613ddb613dd6614d2c565b6106af565b505411613de457565b63559d06d760e01b5f5260045ffd5b5050565b9091906001600160a01b03811615612dc257613e16611254935f614daa565b91614dcf565b9091906001600160a01b03811615612dc257613e16600161125494614daa565b919291906001600160a01b03821615612dc25761125493613e1691614daa565b90613d38613d3d926107d560405193849263a55d613f60e01b60208501526024840161348d565b90613d38613d3d926107d560405193849263179953bf60e11b60208501526024840161348d565b9160135482810391818311613a14576014549080820394828611613a14576001600160a01b03871615938415613eec575b505050506133c75761125492615358565b1492509082613f01575b50505f808080613edb565b1490505f80613ef6565b91908201809211613a1457565b906001600160a01b03821615801561401c575b613df357613f3882610ded565b805492828401809411613a1457600893613f529255610ecd565b610e1042045f5260205260405f209060098201613f736116c3825460ff1690565b61400d575b50613f845f8354613f0b565b8255613f9560018301918254613f0b565b905560028101613fa65f8254613f0b565b905560038101613fb75f8254613f0b565b905560048101613fc85f8254613f0b565b905560058101613fd95f8254613f0b565b905560068101613fea5f8254613f0b565b905560078101613ffb5f8254613f0b565b9055016140095f8254613f0b565b9055565b614016906149c5565b5f613f78565b508015613f2b565b6006546001600160a01b03168061408357506005546001600160a01b03165b6003546001600160a01b0316331415908161406f575b5061406057565b630fc5e1ab60e41b5f5260045ffd5b6001600160a01b031633141590505f614059565b614043565b6005546001600160a01b031680158181156140ed575b5061337a575f60049160405192838092634f9e8d1560e11b82525afa908115610af2575f916140d3575b5080511561337a5790565b6140e791503d805f833e610c678183611222565b5f6140c8565b90503b155f61409e565b90916001600160a01b038216918215610911576001600160a01b03821615610911578315610902577f6ac4f60455173f2148d89d52868ac4ffb14111720d245aa36ad26e0d7e64c59b9161419b6141506141b593613c91565b9161415a83613d03565b6141648784613db0565b6013546014549161417d614176612f4f565b8a87613df7565b6141878986614977565b6141918986613e5c565b6108748982615451565b6040519485526001600160a01b0316939081906020820190565b0390a3565b906001600160a01b03821615801561425f575b613df3576141da82610e25565b805492828401809411613a145760089361420a92556141fd610e10420491610ecd565b905f5260205260405f2090565b906009820161421d6116c3825460ff1690565b614250575b5061422e5f8354613f0b565b82556001820161423f5f8254613f0b565b9055613fa660028301918254613f0b565b614259906149c5565b5f614222565b5080156141cd565b6142726005546105c2565b6001600160a01b0381169081159081156142ef575b5061337a57602060049160405192838092632502c7e760e11b82525afa908115610af2575f916142d0575b506001600160a01b0381166109595763a9d04f8760e01b5f5260045ffd5b6142e9915060203d602011610aeb57610add8183611222565b5f6142b2565b90503b155f614287565b6143046005546105c2565b6001600160a01b038116908115908115614361575b5061337a57602060049160405192838092632b5e757b60e11b82525afa908115610af2575f916142d057506001600160a01b0381166109595763a9d04f8760e01b5f5260045ffd5b90503b155f614319565b6143766005546105c2565b6001600160a01b0381169081159081156143d3575b5061337a57602060049160405192838092635ee738d560e11b82525afa908115610af2575f916142d057506001600160a01b0381166109595763a9d04f8760e01b5f5260045ffd5b90503b155f61438b565b6143e86005546105c2565b6001600160a01b038116908115908115614444575b5061337a57602060049160405192838092620c3c5d60e81b82525afa908115610af2575f916142d057506001600160a01b0381166109595763a9d04f8760e01b5f5260045ffd5b90503b155f6143fd565b6144596005546105c2565b6001600160a01b038116919082159081156145d4575b5061337a57602060ff600492169283155f1461450057604051620c3c5d60e81b815292839182905afa908115610af2575f916144e1575b505b6001600160a01b0381166144dc57600482146144cd5763a9d04f8760e01b5f5260045ffd5b632dc6cc2360e01b5f5260045ffd5b905090565b6144fa915060203d602011610aeb57610add8183611222565b5f6144a6565b6001840361454f57604051635ee738d560e11b815292839182905afa908115610af2575f91614530575b506144a8565b614549915060203d602011610aeb57610add8183611222565b5f61452a565b6002840361457e57604051632b5e757b60e11b815292839182905afa908115610af2575f9161453057506144a8565b600384036145ad57604051632502c7e760e11b815292839182905afa908115610af2575f9161453057506144a8565b6040516324e1067960e11b815292839182905afa908115610af2575f9161453057506144a8565b90503b155f61446f565b908160a09103126100155780516145f48161061b565b916020820151614603816105ce565b916040810151916080606083015192015190565b90614649815f527fbc488d3e2575f0f2113dc4d9a0cd6bc52445c6bc28a8974ed97a6ba3ecfd657d60205260405f2090565b600681015460ff169081156146c9575b50613df3575f918291604051614689816107d56020820194630d61b51960e01b8652602483019190602083019252565b51915af4614695613015565b90156146c4576146b181602080611254945183010191016145de565b509290916001600160a01b031690615479565b614cfa565b6005915001547fbc488d3e2575f0f2113dc4d9a0cd6bc52445c6bc28a8974ed97a6ba3ecfd657a54115f614659565b90613d38613d3d926107d5604051938492635bcc7ca960e11b60208501526024840161348d565b91906001600160a01b03831615612db05761473a905f614daa565b925f60405161474a602082611222565b5261475784835f84615a9b565b9061476d858461476785516105c2565b84615b6f565b600260ff61477d601a5460ff1690565b16148061490b575b6148d3575b5f91825b84518410156147dd576001906147a485896130c2565b51906147ce6147b387896130c2565b515f525f516020615eea5f395f51905f5260205260405f2090565b8281540390550193019261478e565b6147fc919492969593505f516020615f4a5f395f51905f525403612f8e565b5f9460e084019460c060a086019501965b865181101561484f578061484961483761482a6001948a516130c2565b516001600160a01b031690565b614842838c516130c2565b5190615d28565b0161480d565b509295505f94509250835b81518110156148ca5761486d81836130c2565b5115806148b7575b6148815760010161485a565b505050905060015b8061489f575b6148965750565b61125490615e6e565b50600160ff6148b0601a5460ff1690565b161461488f565b506148c281846130c2565b511515614875565b50505090614889565b61490583613d386148e485516105c2565b6107d589604051948593635d935afb60e01b60208601528860248601615510565b5061478a565b505f614785565b60205f516020615f2a5f395f51905f5291614948604051633c2f328b60e11b84820152612ce0816107d589898760248501612f1b565b506149646040516149598482611222565b5f8152868684613e3c565b6040519485526001600160a01b031693a3565b90613d38613d3d926107d560405193849263b932546160e01b60208501526024840161348d565b6003546001600160a01b031633036149b257565b63118cdaa760e01b5f523360045260245ffd5b805460ff19166001179055565b60408051630d01186b60e41b81526020600482015293929091849182916149fd9160248401916135e5565b038173__$a9219284c3f0d74f57f4dcfc58f5429559$__5af4918215610af2575f905f93614a2a57509190565b9250506040823d604011614a6c575b81614a4660409383611222565b81010312610015576020825192614a5c846105ce565b015191614a68836105ce565b9190565b3d9150614a39565b90929596919493968751855103614c415750614a8f90613c91565b90614a9982613d03565b614aa282613d40565b5f955f975f5b8a51811015614aed57614abb818c6130c2565b5115614aca575b600101614aa8565b985096614ae290614adb8a896130c2565b5190613f0b565b600198909790614ac2565b50909192949796939615614c39575b508280614be0575b50505f5b8751811015614b9157614b1b81866130c2565b5190811561090257600191614b30828b6130c2565b5115614b8b5764174876e800614b46838c6130c2565b5110614b6757614b6190614b5a838c6130c2565b5189614912565b01614b08565b614b8690614b75838c6130c2565b5190614b7f612f4f565b918a613e3c565b614b61565b50614b61565b509195506112549490939192506001600160a01b03811615614bce57905b601354601454949093614bc55761087491613e83565b61087491613e5c565b50614bda6003546105c2565b90614baf565b614c1e91614bee8289613db0565b614c00614bf9612f4f565b838a613df7565b6001600160a01b03891615614c2557614c19828a613f18565b6154e8565b5f82614b04565b614c1982614c346003546105c2565b613f18565b92505f614afc565b60405163dccff66960e01b81529081906115c69060048301610bc6565b614c696005546105c2565b6001600160a01b03811691908215908115614cf0575b5061337a57602060049260405193848092634e077ded60e11b82525afa918215610af2575f92614ccf575b506001600160a01b03821615828115614cc5575b5061337a57565b90503b155f614cbe565b614ce991925060203d602011610aeb57610add8183611222565b905f614caa565b90503b155f614c7f565b80519081614d275760405163dccff66960e01b8152602060048201529081906115c6906024830190610ba2565b602001fd5b6017548015614da4575f90601754156106cb5760175f527fc624b66cc0138b8fabc209247f72d758e1cf3343756d543badbf24212bed8c155460015b828110614d755750505090565b81614d7f826106af565b505410614d8f575b600101614d68565b809350614d9c91506106af565b505482614d87565b505f1990565b9160405192600184526020840152604083019160018352606084015260808301604052565b909193614dde8584845f615a9b565b91614df48685614dee86516105c2565b5f615b6f565b600260ff614e04601a5460ff1690565b161480614fad575b614f75575b5f5b8451811015614e695780614e63614e5e614e2f6001948b6130c2565b51614e3d6147b3858b6130c2565b614e48828254613f0b565b90555f516020615f4a5f395f51905f5254613f0b565b612f8e565b01614e13565b509091929360018060a01b038216159586614f0e575b5f969560e086019660c060a088019701985b8851811015614ec05780614eba8b61484283614eb361482a6001978f516130c2565b92516130c2565b01614e91565b5092955092955092955015614ed6575b50505050565b8051600103614efe5790602080614ef595930151910151915f336156d3565b5f808080614ed0565b614f09935f336155b5565b614ef5565b9591925f95949195935f945b8651861015614f4e57600190614f30878b6130c2565b5190614f3f6147b3898b6130c2565b82815403905501950194614f1a565b614f70919498929550969295965f516020615f4a5f395f51905f525403612f8e565b614e7f565b614fa784613d38614f8686516105c2565b6107d58a604051948593635d935afb60e01b60208601525f60248601615510565b50614e11565b505f614e0c565b9294919093614fc586838787615a9b565b93614fd5878461476788516105c2565b6001600160a01b03811615801597908880615346575b80615291575b8080615277575b615242575b600260ff61500d601a5460ff1690565b1614908161523a575b50615202575b6151b9575b6001600160a01b03871615968761514e575b5f989760e088019860c060a08a0199019a5b8a5181101561506e57806150688d61484283614eb38f60019761482a91516130c2565b01615045565b5092959850929598509295506150c3575b1561508c575b5050505050565b84516001036150b2576020806150a896015192015192336156d3565b5f80808080615085565b6150be949192336155b5565b6150a8565b94939291905f955f5b8651811015615142576150df81886130c2565b51158061512f575b6150f3576001016150cc565b509091929394955060015b80615117575b1561507f5761511284615e6e565b61507f565b50600160ff615128601a5460ff1690565b1614615104565b5061513a81856130c2565b5115156150e7565b509091929394956150fe565b96925f98949692959198955f965b885188101561519057600190615172898d6130c2565b51906151816147b38b8d6130c2565b8281540390550197019661515c565b6151b4919498969a939750989194985f516020615f4a5f395f51905f525403612f8e565b615033565b94915f9794919693975b88518110156151f457806151ee614e5e8b614e3d6147b3856151e76001988f6130c2565b51936130c2565b016151c3565b509194969295909396615021565b61523485613d386152138a516105c2565b6107d586604051948593635d935afb60e01b60208601528a60248601615510565b5061501c565b90505f615016565b61527261525260208a01516105c2565b61525f60408b01516105c2565b60608b01519060808c0151928d89615dc3565b614ffd565b506060880151151580614ff8575060808801511515614ff8565b979295919893905f985f995b87518b1015615320576152b08b896130c2565b51908c606483108015615311575b615306578c6152cc916130c2565b51156152fc5750806152e16152f0928b615d28565b6152eb8b516105c2565b615d4f565b6001809a5b019961529d565b9a600191506152f5565b509a600191506152f5565b5064174876e8008310156152be565b909192959a939794995015614ff15761534161533c89516105c2565b613d03565b614ff1565b506001600160a01b0388161515614feb565b6001600160a01b038116158015615440575b6133c7576140099161537d600892610ecd565b610e1042045f5260205260405f20906009820161539e6116c3825460ff1690565b615431575b506153af5f8354613f0b565b8255600182016153c05f8254613f0b565b9055600282016153d15f8254613f0b565b9055600382016153e25f8254613f0b565b9055600482016153f35f8254613f0b565b9055600582016154045f8254613f0b565b9055600682016154155f8254613f0b565b905561542660078301918254613f0b565b905501918254613f0b565b61543a906149c5565b5f6153a3565b508115801561536a5750821561536a565b906001600160a01b038216158015615471575b613df35761125491615771565b508015615464565b9092906001600160e01b031916630b18ae1d60e11b81036154a357632bb82cb360e01b5f5260045ffd5b631cb4772560e21b81036154cf5750509061125491604051916154c7602084611222565b5f8352613df7565b90915063178fb21b60e11b03611e9657611254916146f8565b906001600160a01b038216158015615508575b613df35761125491615855565b5080156154fb565b6001600160a01b0391821681529116602082015260806040820181905261095993919261553f918401906117f0565b9160608184039101526117f0565b9081602091031261001557516109598161061b565b6001600160a01b0391821681529116602082015260a06040820181905261095994919391926155a7929161559991908601906117f0565b9084820360608601526117f0565b916080818403910152610ba2565b9091949293853b6155c9575b505050505050565b6020936155eb91604051968795869563bc197c8160e01b875260048701615562565b03815f6001600160a01b0387165af15f9181615669575b506156335750615610613015565b805191908261562c57632bfa23e760e11b5f52613b8282610d7c565b6020915001fd5b6001600160e01b0319166343e6837f60e01b0161565657505f80808080806155c1565b632bfa23e760e11b5f52613b8290610d7c565b61568c91925060203d602011615693575b6156848183611222565b81019061554d565b905f615602565b503d61567a565b6001600160a01b039182168152911660208201526040810191909152606081019190915260a06080820181905261095992910190610ba2565b9091949293853b6156e657505050505050565b60209361570891604051968795869563f23a6e6160e01b87526004870161569a565b03815f6001600160a01b0387165af15f9181615750575b5061572d5750615610613015565b6001600160e01b031916630dc5919f60e01b0161565657505f80808080806155c1565b61576a91925060203d602011615693576156848183611222565b905f61571f565b906001600160a01b03821615801561584d575b613df35761579182610e95565b805492828401809411613a14576008936157b492556141fd610e10420491610ecd565b90600982016157c76116c3825460ff1690565b61583e575b506157d85f8354613f0b565b8255600182016157e95f8254613f0b565b9055600282016157fa5f8254613f0b565b90556003820161580b5f8254613f0b565b90556004820161581c5f8254613f0b565b90556005820161582d5f8254613f0b565b9055613fea60068301918254613f0b565b615847906149c5565b5f6157cc565b508015615784565b906001600160a01b038216158015615920575b613df35761587582610e5d565b805492828401809411613a145760089361589892556141fd610e10420491610ecd565b90600982016158ab6116c3825460ff1690565b615911575b506158bc5f8354613f0b565b8255600182016158cd5f8254613f0b565b9055600282016158de5f8254613f0b565b9055600382016158ef5f8254613f0b565b9055600482016159005f8254613f0b565b9055613fd960058301918254613f0b565b61591a906149c5565b5f6158b0565b508015615868565b9080601f8301121561001557815161593f81611266565b9261594d6040519485611222565b81845260208085019260051b82010192831161001557602001905b8282106159755750505090565b602080918351615984816105ce565b815201910190615968565b602081830312610015578051906001600160401b03821161001557019061010082820312610015576159bf611256565b916159c9816131d7565b83526159d7602082016131d7565b60208401526159e8604082016131d7565b6040840152606081810151908401526080808201519084015260a08101516001600160401b0381116100155782615a20918301615928565b60a084015260c08101516001600160401b0381116100155760e092615a469183016138f4565b60c0840152015160e082015290565b6001600160a01b0391821681529181166020830152909116604082015260a060608201819052610959939192615a8d918401906117f0565b9160808184039101526117f0565b909291615b045f938460e0604051615ab281611206565b828152826020820152826040820152826060820152826080820152606060a0820152606060c08201520152615ae86005546105c2565b604051637bd8ece960e11b815296879586959260048701615a55565b038173__$a9219284c3f0d74f57f4dcfc58f5429559$__5af4908115610af2575f91615b2e575090565b61095991503d805f833e615b428183611222565b81019061598f565b9091615b61610959936040845260408401906117f0565b9160208184039101526117f0565b9392918051835190818103615d135750505f5b8151811015615c6e578060051b90602080838501015192860101518460018060a01b038916615bf1575b6001936001600160a01b038216615bc7575b50505001615b82565b615be791610882615bdf925f525f60205260405f2090565b918254613f0b565b90555f8481615bbe565b509091615c0988610882835f525f60205260405f2090565b54828110615c3757829160019493879203615c2f8b610882845f525f60205260405f2090565b559350615bac565b6040516303dee4c560e01b81526001600160a01b038a16600482015260248101919091526044810183905260648101829052608490fd5b508051939493919291600103615cd0576020908101519101516040516001600160a01b03938416949093169233927fc3d58168c5ae7397731d063d5bbf3d657854427343f4c083240f7aacaa2d0f62928291615ccb919083612f63565b0390a4565b6040516001600160a01b03938416949093169233927f4a39dc06d4c0dbc64b70af90fd698a233a518aa5d07e595d983b8c0526c8f7fb928291615ccb9183615b4a565b635b05999160e01b5f5260045260245260445ffd5b90613d38613d3d926107d5604051938492637e4152e760e11b60208501526024840161348d565b6001600160a01b03165f908152600e60205260408120805490915b818110615da45750600160401b81101561120157615d8d91600182018155610f1a565b819291549060031b91821b915f19901b1916179055565b83615daf8285610f1a565b90549060031b1c14614ed057600101615d6a565b6003549295919392909173__$a9219284c3f0d74f57f4dcfc58f5429559$__916001600160a01b031690823b156100155760405163451cddf960e11b81526001600160a01b03948516600482015295841660248701529683166044860152929091166064840152608483019390935260a482019390935260c48101929092525f90829060e49082905af48015610af257615e5a5750565b80615e685f61125493611222565b80610d57565b60405163adebc2d360e01b60208201526001600160a01b0390911660248201525f6044808301919091528152613d3d90613d3860648261122256fe3bf2de114e2e7636c289f21be023528e47d89b45e873b976c78989c3ddc683f53e38a9410c08ddb4af8b083bfd2b197b1c3e61a651bd1c54c51ebce0cdcdc48ed34312c2e21f45f2b6715cf87d9e919b2098c835582e2b5c6e716490b0dfd0d48be0079c531659141344cd1fd0a4f28419497f9722a3daafe3b4186f6b6457e0ae2f87dbf103db294ddd4ab45caa7a914d70bb3d06eeb8a8dc23e03e84548c8dd34312c2e21f45f2b6715cf87d9e919b2098c835582e2b5c6e716490b0dfd0d5ad3228b676f7d3cd4284a5443f17f1962b36e491b30a40b2405849e597ba5fb5a164736f6c6343000821000abc488d3e2575f0f2113dc4d9a0cd6bc52445c6bc28a8974ed97a6ba3ecfd657c",
  "linkReferences": {
    "project/src/BeamioUserCard/BeamioUserCardFormattingLib.sol": {
      "BeamioUserCardFormattingLib": [
        {
          "length": 20,
          "start": 4119
        }
      ]
    },
    "project/src/BeamioUserCard/BeamioUserCardTransferLib.sol": {
      "BeamioUserCardTransferLib": [
        {
          "length": 20,
          "start": 3706
        },
        {
          "length": 20,
          "start": 16571
        },
        {
          "length": 20,
          "start": 19960
        },
        {
          "length": 20,
          "start": 24319
        },
        {
          "length": 20,
          "start": 25030
        }
      ]
    }
  },
  "deployedLinkReferences": {
    "project/src/BeamioUserCard/BeamioUserCardFormattingLib.sol": {
      "BeamioUserCardFormattingLib": [
        {
          "length": 20,
          "start": 3104
        }
      ]
    },
    "project/src/BeamioUserCard/BeamioUserCardTransferLib.sol": {
      "BeamioUserCardTransferLib": [
        {
          "length": 20,
          "start": 2691
        },
        {
          "length": 20,
          "start": 15556
        },
        {
          "length": 20,
          "start": 18945
        },
        {
          "length": 20,
          "start": 23304
        },
        {
          "length": 20,
          "start": 24015
        }
      ]
    }
  },
  "immutableReferences": {
    "19542": [
      {
        "length": 32,
        "start": 10920
      }
    ]
  },
  "inputSourceName": "project/src/BeamioUserCard/BeamioUserCard.sol",
  "buildInfoId": "solc-0_8_33-f928d38d5c3be78c6f7d840dd3b65dbcfc2e1f11"
}