{
  "_format": "hh3-artifact-1",
  "contractName": "BeamioFactoryPaymasterV07",
  "sourceName": "src/BeamioAccount/BeamioFactoryPaymasterV07.sol",
  "abi": [
    {
      "inputs": [
        {
          "internalType": "uint256",
          "name": "initialAccountLimit",
          "type": "uint256"
        },
        {
          "internalType": "address",
          "name": "admin_",
          "type": "address"
        }
      ],
      "stateMutability": "nonpayable",
      "type": "constructor"
    },
    {
      "inputs": [],
      "name": "ChainConfigAlreadyInitialized",
      "type": "error"
    },
    {
      "inputs": [],
      "name": "ECDSAInvalidSignature",
      "type": "error"
    },
    {
      "inputs": [
        {
          "internalType": "uint256",
          "name": "length",
          "type": "uint256"
        }
      ],
      "name": "ECDSAInvalidSignatureLength",
      "type": "error"
    },
    {
      "inputs": [
        {
          "internalType": "bytes32",
          "name": "s",
          "type": "bytes32"
        }
      ],
      "name": "ECDSAInvalidSignatureS",
      "type": "error"
    },
    {
      "inputs": [],
      "name": "LibDeployFailed",
      "type": "error"
    },
    {
      "inputs": [
        {
          "internalType": "address",
          "name": "signer",
          "type": "address"
        },
        {
          "internalType": "address",
          "name": "expected",
          "type": "address"
        }
      ],
      "name": "RedeemerSignerMismatch",
      "type": "error"
    },
    {
      "inputs": [],
      "name": "RedeemerToMustEqualClaimer",
      "type": "error"
    },
    {
      "anonymous": false,
      "inputs": [
        {
          "indexed": true,
          "internalType": "address",
          "name": "creator",
          "type": "address"
        },
        {
          "indexed": true,
          "internalType": "address",
          "name": "account",
          "type": "address"
        },
        {
          "indexed": false,
          "internalType": "uint256",
          "name": "index",
          "type": "uint256"
        },
        {
          "indexed": false,
          "internalType": "bytes32",
          "name": "salt",
          "type": "bytes32"
        }
      ],
      "name": "AccountCreated",
      "type": "event"
    },
    {
      "anonymous": false,
      "inputs": [
        {
          "indexed": true,
          "internalType": "address",
          "name": "module",
          "type": "address"
        },
        {
          "indexed": true,
          "internalType": "address",
          "name": "quoteHelper",
          "type": "address"
        },
        {
          "indexed": true,
          "internalType": "address",
          "name": "userCard",
          "type": "address"
        },
        {
          "indexed": false,
          "internalType": "address",
          "name": "usdc",
          "type": "address"
        }
      ],
      "name": "ChainConfigInitialized",
      "type": "event"
    },
    {
      "anonymous": false,
      "inputs": [
        {
          "indexed": true,
          "internalType": "address",
          "name": "oldModule",
          "type": "address"
        },
        {
          "indexed": true,
          "internalType": "address",
          "name": "newModule",
          "type": "address"
        }
      ],
      "name": "ModuleUpdated",
      "type": "event"
    },
    {
      "anonymous": false,
      "inputs": [
        {
          "indexed": true,
          "internalType": "address",
          "name": "oldExecutor",
          "type": "address"
        },
        {
          "indexed": true,
          "internalType": "address",
          "name": "newExecutor",
          "type": "address"
        }
      ],
      "name": "OpenContainerMintExecutorUpdated",
      "type": "event"
    },
    {
      "anonymous": false,
      "inputs": [
        {
          "indexed": true,
          "internalType": "address",
          "name": "oldHelper",
          "type": "address"
        },
        {
          "indexed": true,
          "internalType": "address",
          "name": "newHelper",
          "type": "address"
        }
      ],
      "name": "QuoteHelperUpdated",
      "type": "event"
    },
    {
      "anonymous": false,
      "inputs": [
        {
          "indexed": true,
          "internalType": "address",
          "name": "oldUSDC",
          "type": "address"
        },
        {
          "indexed": true,
          "internalType": "address",
          "name": "newUSDC",
          "type": "address"
        }
      ],
      "name": "USDCUpdated",
      "type": "event"
    },
    {
      "anonymous": false,
      "inputs": [
        {
          "indexed": true,
          "internalType": "address",
          "name": "oldCard",
          "type": "address"
        },
        {
          "indexed": true,
          "internalType": "address",
          "name": "newCard",
          "type": "address"
        }
      ],
      "name": "UserCardUpdated",
      "type": "event"
    },
    {
      "inputs": [],
      "name": "DOMAIN_SEPARATOR",
      "outputs": [
        {
          "internalType": "bytes32",
          "name": "",
          "type": "bytes32"
        }
      ],
      "stateMutability": "view",
      "type": "function"
    },
    {
      "inputs": [],
      "name": "ENTRY_POINT",
      "outputs": [
        {
          "internalType": "contract IEntryPointV07",
          "name": "",
          "type": "address"
        }
      ],
      "stateMutability": "view",
      "type": "function"
    },
    {
      "inputs": [],
      "name": "EXECUTE_FOR_OWNER_TYPEHASH",
      "outputs": [
        {
          "internalType": "bytes32",
          "name": "",
          "type": "bytes32"
        }
      ],
      "stateMutability": "view",
      "type": "function"
    },
    {
      "inputs": [],
      "name": "EXECUTE_FOR_REDEEMER_TYPEHASH",
      "outputs": [
        {
          "internalType": "bytes32",
          "name": "",
          "type": "bytes32"
        }
      ],
      "stateMutability": "view",
      "type": "function"
    },
    {
      "inputs": [],
      "name": "USDC",
      "outputs": [
        {
          "internalType": "address",
          "name": "",
          "type": "address"
        }
      ],
      "stateMutability": "view",
      "type": "function"
    },
    {
      "inputs": [],
      "name": "accountLimit",
      "outputs": [
        {
          "internalType": "uint256",
          "name": "",
          "type": "uint256"
        }
      ],
      "stateMutability": "view",
      "type": "function"
    },
    {
      "inputs": [
        {
          "internalType": "address",
          "name": "pm",
          "type": "address"
        }
      ],
      "name": "addPayMaster",
      "outputs": [],
      "stateMutability": "nonpayable",
      "type": "function"
    },
    {
      "inputs": [],
      "name": "admin",
      "outputs": [
        {
          "internalType": "address",
          "name": "",
          "type": "address"
        }
      ],
      "stateMutability": "view",
      "type": "function"
    },
    {
      "inputs": [
        {
          "internalType": "address",
          "name": "creator",
          "type": "address"
        }
      ],
      "name": "beamioAccountOf",
      "outputs": [
        {
          "internalType": "address",
          "name": "",
          "type": "address"
        }
      ],
      "stateMutability": "view",
      "type": "function"
    },
    {
      "inputs": [],
      "name": "beamioUserCard",
      "outputs": [
        {
          "internalType": "address",
          "name": "",
          "type": "address"
        }
      ],
      "stateMutability": "view",
      "type": "function"
    },
    {
      "inputs": [],
      "name": "chainConfigInitialized",
      "outputs": [
        {
          "internalType": "bool",
          "name": "",
          "type": "bool"
        }
      ],
      "stateMutability": "view",
      "type": "function"
    },
    {
      "inputs": [
        {
          "internalType": "address",
          "name": "creator",
          "type": "address"
        },
        {
          "internalType": "uint256",
          "name": "index",
          "type": "uint256"
        }
      ],
      "name": "computeSalt",
      "outputs": [
        {
          "internalType": "bytes32",
          "name": "",
          "type": "bytes32"
        }
      ],
      "stateMutability": "pure",
      "type": "function"
    },
    {
      "inputs": [],
      "name": "containerModule",
      "outputs": [
        {
          "internalType": "address",
          "name": "",
          "type": "address"
        }
      ],
      "stateMutability": "view",
      "type": "function"
    },
    {
      "inputs": [],
      "name": "createAccount",
      "outputs": [
        {
          "internalType": "address",
          "name": "account",
          "type": "address"
        }
      ],
      "stateMutability": "nonpayable",
      "type": "function"
    },
    {
      "inputs": [
        {
          "internalType": "address",
          "name": "creator",
          "type": "address"
        }
      ],
      "name": "createAccountFor",
      "outputs": [
        {
          "internalType": "address",
          "name": "account",
          "type": "address"
        }
      ],
      "stateMutability": "nonpayable",
      "type": "function"
    },
    {
      "inputs": [
        {
          "internalType": "address",
          "name": "creator",
          "type": "address"
        }
      ],
      "name": "createAccountForEntryPoint",
      "outputs": [
        {
          "internalType": "address",
          "name": "account",
          "type": "address"
        }
      ],
      "stateMutability": "nonpayable",
      "type": "function"
    },
    {
      "inputs": [],
      "name": "deposit",
      "outputs": [],
      "stateMutability": "payable",
      "type": "function"
    },
    {
      "inputs": [
        {
          "internalType": "address",
          "name": "account",
          "type": "address"
        },
        {
          "internalType": "bytes",
          "name": "data",
          "type": "bytes"
        },
        {
          "internalType": "uint256",
          "name": "deadline",
          "type": "uint256"
        },
        {
          "internalType": "bytes32",
          "name": "nonce",
          "type": "bytes32"
        },
        {
          "internalType": "bytes",
          "name": "ownerSignature",
          "type": "bytes"
        }
      ],
      "name": "executeForOwner",
      "outputs": [],
      "stateMutability": "nonpayable",
      "type": "function"
    },
    {
      "inputs": [
        {
          "internalType": "address",
          "name": "account",
          "type": "address"
        },
        {
          "internalType": "bytes",
          "name": "data",
          "type": "bytes"
        },
        {
          "internalType": "uint256",
          "name": "deadline",
          "type": "uint256"
        },
        {
          "internalType": "bytes32",
          "name": "nonce",
          "type": "bytes32"
        },
        {
          "internalType": "bytes",
          "name": "redeemerSignature",
          "type": "bytes"
        }
      ],
      "name": "executeForRedeemer",
      "outputs": [],
      "stateMutability": "nonpayable",
      "type": "function"
    },
    {
      "inputs": [
        {
          "internalType": "address",
          "name": "creator",
          "type": "address"
        },
        {
          "internalType": "uint256",
          "name": "index",
          "type": "uint256"
        }
      ],
      "name": "getAddress",
      "outputs": [
        {
          "internalType": "address",
          "name": "",
          "type": "address"
        }
      ],
      "stateMutability": "pure",
      "type": "function"
    },
    {
      "inputs": [],
      "name": "getPayMasters",
      "outputs": [
        {
          "internalType": "address[]",
          "name": "",
          "type": "address[]"
        }
      ],
      "stateMutability": "view",
      "type": "function"
    },
    {
      "inputs": [
        {
          "internalType": "address",
          "name": "module_",
          "type": "address"
        },
        {
          "internalType": "address",
          "name": "quoteHelper_",
          "type": "address"
        },
        {
          "internalType": "address",
          "name": "userCard_",
          "type": "address"
        },
        {
          "internalType": "address",
          "name": "usdc_",
          "type": "address"
        }
      ],
      "name": "initializeChainConfig",
      "outputs": [],
      "stateMutability": "nonpayable",
      "type": "function"
    },
    {
      "inputs": [
        {
          "internalType": "address",
          "name": "",
          "type": "address"
        }
      ],
      "name": "isBeamioAccount",
      "outputs": [
        {
          "internalType": "bool",
          "name": "",
          "type": "bool"
        }
      ],
      "stateMutability": "view",
      "type": "function"
    },
    {
      "inputs": [
        {
          "internalType": "address",
          "name": "",
          "type": "address"
        }
      ],
      "name": "isPayMaster",
      "outputs": [
        {
          "internalType": "bool",
          "name": "",
          "type": "bool"
        }
      ],
      "stateMutability": "view",
      "type": "function"
    },
    {
      "inputs": [],
      "name": "myBeamioAccounts",
      "outputs": [
        {
          "internalType": "address[]",
          "name": "",
          "type": "address[]"
        }
      ],
      "stateMutability": "view",
      "type": "function"
    },
    {
      "inputs": [
        {
          "internalType": "address",
          "name": "",
          "type": "address"
        }
      ],
      "name": "nextIndexOfCreator",
      "outputs": [
        {
          "internalType": "uint256",
          "name": "",
          "type": "uint256"
        }
      ],
      "stateMutability": "view",
      "type": "function"
    },
    {
      "inputs": [],
      "name": "openContainerMintExecutor",
      "outputs": [
        {
          "internalType": "address",
          "name": "",
          "type": "address"
        }
      ],
      "stateMutability": "view",
      "type": "function"
    },
    {
      "inputs": [
        {
          "internalType": "uint256",
          "name": "",
          "type": "uint256"
        }
      ],
      "name": "payMasters",
      "outputs": [
        {
          "internalType": "address",
          "name": "",
          "type": "address"
        }
      ],
      "stateMutability": "view",
      "type": "function"
    },
    {
      "inputs": [
        {
          "internalType": "enum IPaymasterV07.PostOpMode",
          "name": "",
          "type": "uint8"
        },
        {
          "internalType": "bytes",
          "name": "",
          "type": "bytes"
        },
        {
          "internalType": "uint256",
          "name": "",
          "type": "uint256"
        },
        {
          "internalType": "uint256",
          "name": "",
          "type": "uint256"
        }
      ],
      "name": "postOp",
      "outputs": [],
      "stateMutability": "nonpayable",
      "type": "function"
    },
    {
      "inputs": [
        {
          "internalType": "address",
          "name": "",
          "type": "address"
        }
      ],
      "name": "primaryAccountOf",
      "outputs": [
        {
          "internalType": "address",
          "name": "",
          "type": "address"
        }
      ],
      "stateMutability": "view",
      "type": "function"
    },
    {
      "inputs": [],
      "name": "quoteHelper",
      "outputs": [
        {
          "internalType": "address",
          "name": "",
          "type": "address"
        }
      ],
      "stateMutability": "view",
      "type": "function"
    },
    {
      "inputs": [
        {
          "internalType": "address",
          "name": "account",
          "type": "address"
        },
        {
          "internalType": "string",
          "name": "code",
          "type": "string"
        }
      ],
      "name": "relayCancelFaucetPool",
      "outputs": [],
      "stateMutability": "nonpayable",
      "type": "function"
    },
    {
      "inputs": [
        {
          "internalType": "address",
          "name": "account",
          "type": "address"
        },
        {
          "internalType": "string",
          "name": "code",
          "type": "string"
        }
      ],
      "name": "relayCancelRedeem",
      "outputs": [],
      "stateMutability": "nonpayable",
      "type": "function"
    },
    {
      "inputs": [
        {
          "internalType": "address",
          "name": "account",
          "type": "address"
        },
        {
          "internalType": "address",
          "name": "to",
          "type": "address"
        },
        {
          "components": [
            {
              "internalType": "enum AssetKind",
              "name": "kind",
              "type": "uint8"
            },
            {
              "internalType": "address",
              "name": "asset",
              "type": "address"
            },
            {
              "internalType": "uint256",
              "name": "amount",
              "type": "uint256"
            },
            {
              "internalType": "uint256",
              "name": "tokenId",
              "type": "uint256"
            },
            {
              "internalType": "bytes",
              "name": "data",
              "type": "bytes"
            }
          ],
          "internalType": "struct ContainerItem[]",
          "name": "items",
          "type": "tuple[]"
        },
        {
          "internalType": "uint256",
          "name": "nonce_",
          "type": "uint256"
        },
        {
          "internalType": "uint256",
          "name": "deadline_",
          "type": "uint256"
        },
        {
          "internalType": "bytes",
          "name": "sig",
          "type": "bytes"
        }
      ],
      "name": "relayContainerMainRelayed",
      "outputs": [],
      "stateMutability": "nonpayable",
      "type": "function"
    },
    {
      "inputs": [
        {
          "internalType": "address",
          "name": "account",
          "type": "address"
        },
        {
          "internalType": "address",
          "name": "to",
          "type": "address"
        },
        {
          "components": [
            {
              "internalType": "enum AssetKind",
              "name": "kind",
              "type": "uint8"
            },
            {
              "internalType": "address",
              "name": "asset",
              "type": "address"
            },
            {
              "internalType": "uint256",
              "name": "amount",
              "type": "uint256"
            },
            {
              "internalType": "uint256",
              "name": "tokenId",
              "type": "uint256"
            },
            {
              "internalType": "bytes",
              "name": "data",
              "type": "bytes"
            }
          ],
          "internalType": "struct ContainerItem[]",
          "name": "items",
          "type": "tuple[]"
        },
        {
          "internalType": "uint8",
          "name": "currencyType",
          "type": "uint8"
        },
        {
          "internalType": "uint256",
          "name": "maxAmount",
          "type": "uint256"
        },
        {
          "internalType": "uint256",
          "name": "nonce_",
          "type": "uint256"
        },
        {
          "internalType": "uint256",
          "name": "deadline_",
          "type": "uint256"
        },
        {
          "internalType": "bytes",
          "name": "sig",
          "type": "bytes"
        }
      ],
      "name": "relayContainerMainRelayedOpen",
      "outputs": [],
      "stateMutability": "nonpayable",
      "type": "function"
    },
    {
      "inputs": [
        {
          "internalType": "address",
          "name": "account",
          "type": "address"
        },
        {
          "internalType": "address",
          "name": "pointsTo",
          "type": "address"
        },
        {
          "components": [
            {
              "internalType": "enum AssetKind",
              "name": "kind",
              "type": "uint8"
            },
            {
              "internalType": "address",
              "name": "asset",
              "type": "address"
            },
            {
              "internalType": "uint256",
              "name": "amount",
              "type": "uint256"
            },
            {
              "internalType": "uint256",
              "name": "tokenId",
              "type": "uint256"
            },
            {
              "internalType": "bytes",
              "name": "data",
              "type": "bytes"
            }
          ],
          "internalType": "struct ContainerItem[]",
          "name": "items",
          "type": "tuple[]"
        },
        {
          "internalType": "uint8",
          "name": "currencyType",
          "type": "uint8"
        },
        {
          "internalType": "uint256",
          "name": "maxAmount",
          "type": "uint256"
        },
        {
          "internalType": "uint256",
          "name": "nonce_",
          "type": "uint256"
        },
        {
          "internalType": "uint256",
          "name": "deadline_",
          "type": "uint256"
        },
        {
          "internalType": "bytes",
          "name": "sig",
          "type": "bytes"
        }
      ],
      "name": "relayContainerMainRelayedOpenUsdcTopupThenPoints",
      "outputs": [],
      "stateMutability": "nonpayable",
      "type": "function"
    },
    {
      "inputs": [
        {
          "internalType": "address",
          "name": "account",
          "type": "address"
        },
        {
          "internalType": "bytes32",
          "name": "passwordHash",
          "type": "bytes32"
        },
        {
          "internalType": "uint32",
          "name": "totalCount",
          "type": "uint32"
        },
        {
          "internalType": "uint64",
          "name": "expiry",
          "type": "uint64"
        },
        {
          "components": [
            {
              "internalType": "enum AssetKind",
              "name": "kind",
              "type": "uint8"
            },
            {
              "internalType": "address",
              "name": "asset",
              "type": "address"
            },
            {
              "internalType": "uint256",
              "name": "amount",
              "type": "uint256"
            },
            {
              "internalType": "uint256",
              "name": "tokenId",
              "type": "uint256"
            },
            {
              "internalType": "bytes",
              "name": "data",
              "type": "bytes"
            }
          ],
          "internalType": "struct ContainerItem[]",
          "name": "items",
          "type": "tuple[]"
        }
      ],
      "name": "relayCreateFaucetPool",
      "outputs": [],
      "stateMutability": "nonpayable",
      "type": "function"
    },
    {
      "inputs": [
        {
          "internalType": "address",
          "name": "account",
          "type": "address"
        },
        {
          "internalType": "bytes32",
          "name": "passwordHash",
          "type": "bytes32"
        },
        {
          "internalType": "address",
          "name": "to",
          "type": "address"
        },
        {
          "components": [
            {
              "internalType": "enum AssetKind",
              "name": "kind",
              "type": "uint8"
            },
            {
              "internalType": "address",
              "name": "asset",
              "type": "address"
            },
            {
              "internalType": "uint256",
              "name": "amount",
              "type": "uint256"
            },
            {
              "internalType": "uint256",
              "name": "tokenId",
              "type": "uint256"
            },
            {
              "internalType": "bytes",
              "name": "data",
              "type": "bytes"
            }
          ],
          "internalType": "struct ContainerItem[]",
          "name": "items",
          "type": "tuple[]"
        },
        {
          "internalType": "uint64",
          "name": "expiry",
          "type": "uint64"
        }
      ],
      "name": "relayCreateRedeem",
      "outputs": [],
      "stateMutability": "nonpayable",
      "type": "function"
    },
    {
      "inputs": [
        {
          "internalType": "address",
          "name": "account",
          "type": "address"
        },
        {
          "internalType": "string",
          "name": "password",
          "type": "string"
        },
        {
          "internalType": "address",
          "name": "claimer",
          "type": "address"
        },
        {
          "internalType": "address",
          "name": "to",
          "type": "address"
        },
        {
          "components": [
            {
              "internalType": "enum AssetKind",
              "name": "kind",
              "type": "uint8"
            },
            {
              "internalType": "address",
              "name": "asset",
              "type": "address"
            },
            {
              "internalType": "uint256",
              "name": "amount",
              "type": "uint256"
            },
            {
              "internalType": "uint256",
              "name": "tokenId",
              "type": "uint256"
            },
            {
              "internalType": "bytes",
              "name": "data",
              "type": "bytes"
            }
          ],
          "internalType": "struct ContainerItem[]",
          "name": "items",
          "type": "tuple[]"
        }
      ],
      "name": "relayFaucetRedeemPool",
      "outputs": [],
      "stateMutability": "nonpayable",
      "type": "function"
    },
    {
      "inputs": [
        {
          "components": [
            {
              "internalType": "address",
              "name": "sender",
              "type": "address"
            },
            {
              "internalType": "uint256",
              "name": "nonce",
              "type": "uint256"
            },
            {
              "internalType": "bytes",
              "name": "initCode",
              "type": "bytes"
            },
            {
              "internalType": "bytes",
              "name": "callData",
              "type": "bytes"
            },
            {
              "internalType": "bytes32",
              "name": "accountGasLimits",
              "type": "bytes32"
            },
            {
              "internalType": "uint256",
              "name": "preVerificationGas",
              "type": "uint256"
            },
            {
              "internalType": "bytes32",
              "name": "gasFees",
              "type": "bytes32"
            },
            {
              "internalType": "bytes",
              "name": "paymasterAndData",
              "type": "bytes"
            },
            {
              "internalType": "bytes",
              "name": "signature",
              "type": "bytes"
            }
          ],
          "internalType": "struct PackedUserOperation[]",
          "name": "ops",
          "type": "tuple[]"
        },
        {
          "internalType": "address payable",
          "name": "beneficiary",
          "type": "address"
        }
      ],
      "name": "relayHandleOps",
      "outputs": [],
      "stateMutability": "nonpayable",
      "type": "function"
    },
    {
      "inputs": [
        {
          "internalType": "address",
          "name": "account",
          "type": "address"
        },
        {
          "internalType": "string",
          "name": "password",
          "type": "string"
        },
        {
          "internalType": "address",
          "name": "to",
          "type": "address"
        }
      ],
      "name": "relayRedeem",
      "outputs": [],
      "stateMutability": "nonpayable",
      "type": "function"
    },
    {
      "inputs": [
        {
          "internalType": "address",
          "name": "pm",
          "type": "address"
        }
      ],
      "name": "removePayMaster",
      "outputs": [],
      "stateMutability": "nonpayable",
      "type": "function"
    },
    {
      "inputs": [
        {
          "internalType": "uint256",
          "name": "newLimit",
          "type": "uint256"
        }
      ],
      "name": "setAccountLimit",
      "outputs": [],
      "stateMutability": "nonpayable",
      "type": "function"
    },
    {
      "inputs": [
        {
          "internalType": "address",
          "name": "newModule",
          "type": "address"
        }
      ],
      "name": "setModule",
      "outputs": [],
      "stateMutability": "nonpayable",
      "type": "function"
    },
    {
      "inputs": [
        {
          "internalType": "address",
          "name": "exec",
          "type": "address"
        }
      ],
      "name": "setOpenContainerMintExecutor",
      "outputs": [],
      "stateMutability": "nonpayable",
      "type": "function"
    },
    {
      "inputs": [
        {
          "internalType": "address",
          "name": "newHelper",
          "type": "address"
        }
      ],
      "name": "setQuoteHelper",
      "outputs": [],
      "stateMutability": "nonpayable",
      "type": "function"
    },
    {
      "inputs": [
        {
          "internalType": "address",
          "name": "newUSDC",
          "type": "address"
        }
      ],
      "name": "setUSDC",
      "outputs": [],
      "stateMutability": "nonpayable",
      "type": "function"
    },
    {
      "inputs": [
        {
          "internalType": "address",
          "name": "newCard",
          "type": "address"
        }
      ],
      "name": "setUserCard",
      "outputs": [],
      "stateMutability": "nonpayable",
      "type": "function"
    },
    {
      "inputs": [
        {
          "internalType": "address",
          "name": "account",
          "type": "address"
        },
        {
          "internalType": "address",
          "name": "to",
          "type": "address"
        },
        {
          "components": [
            {
              "internalType": "enum AssetKind",
              "name": "kind",
              "type": "uint8"
            },
            {
              "internalType": "address",
              "name": "asset",
              "type": "address"
            },
            {
              "internalType": "uint256",
              "name": "amount",
              "type": "uint256"
            },
            {
              "internalType": "uint256",
              "name": "tokenId",
              "type": "uint256"
            },
            {
              "internalType": "bytes",
              "name": "data",
              "type": "bytes"
            }
          ],
          "internalType": "struct ContainerItem[]",
          "name": "items",
          "type": "tuple[]"
        },
        {
          "internalType": "uint8",
          "name": "currencyType",
          "type": "uint8"
        },
        {
          "internalType": "uint256",
          "name": "maxAmount",
          "type": "uint256"
        },
        {
          "internalType": "uint256",
          "name": "nonce_",
          "type": "uint256"
        },
        {
          "internalType": "uint256",
          "name": "deadline_",
          "type": "uint256"
        },
        {
          "internalType": "bytes",
          "name": "sig",
          "type": "bytes"
        }
      ],
      "name": "simulateRelayOpen",
      "outputs": [
        {
          "internalType": "bool",
          "name": "ok",
          "type": "bool"
        },
        {
          "internalType": "string",
          "name": "reason",
          "type": "string"
        }
      ],
      "stateMutability": "view",
      "type": "function"
    },
    {
      "inputs": [
        {
          "internalType": "address",
          "name": "account",
          "type": "address"
        },
        {
          "internalType": "address",
          "name": "pointsTo",
          "type": "address"
        },
        {
          "components": [
            {
              "internalType": "enum AssetKind",
              "name": "kind",
              "type": "uint8"
            },
            {
              "internalType": "address",
              "name": "asset",
              "type": "address"
            },
            {
              "internalType": "uint256",
              "name": "amount",
              "type": "uint256"
            },
            {
              "internalType": "uint256",
              "name": "tokenId",
              "type": "uint256"
            },
            {
              "internalType": "bytes",
              "name": "data",
              "type": "bytes"
            }
          ],
          "internalType": "struct ContainerItem[]",
          "name": "items",
          "type": "tuple[]"
        },
        {
          "internalType": "uint8",
          "name": "currencyType",
          "type": "uint8"
        },
        {
          "internalType": "uint256",
          "name": "maxAmount",
          "type": "uint256"
        },
        {
          "internalType": "uint256",
          "name": "nonce_",
          "type": "uint256"
        },
        {
          "internalType": "uint256",
          "name": "deadline_",
          "type": "uint256"
        },
        {
          "internalType": "bytes",
          "name": "sig",
          "type": "bytes"
        }
      ],
      "name": "simulateRelayOpenUsdcTopupThenPoints",
      "outputs": [
        {
          "internalType": "bool",
          "name": "ok",
          "type": "bool"
        },
        {
          "internalType": "string",
          "name": "reason",
          "type": "string"
        }
      ],
      "stateMutability": "view",
      "type": "function"
    },
    {
      "inputs": [
        {
          "internalType": "address",
          "name": "newAdmin",
          "type": "address"
        }
      ],
      "name": "transferAdmin",
      "outputs": [],
      "stateMutability": "nonpayable",
      "type": "function"
    },
    {
      "inputs": [
        {
          "internalType": "bytes32",
          "name": "",
          "type": "bytes32"
        }
      ],
      "name": "usedOwnerExecuteNonces",
      "outputs": [
        {
          "internalType": "bool",
          "name": "",
          "type": "bool"
        }
      ],
      "stateMutability": "view",
      "type": "function"
    },
    {
      "inputs": [
        {
          "internalType": "bytes32",
          "name": "",
          "type": "bytes32"
        }
      ],
      "name": "usedRedeemerExecuteNonces",
      "outputs": [
        {
          "internalType": "bool",
          "name": "",
          "type": "bool"
        }
      ],
      "stateMutability": "view",
      "type": "function"
    },
    {
      "inputs": [
        {
          "components": [
            {
              "internalType": "address",
              "name": "sender",
              "type": "address"
            },
            {
              "internalType": "uint256",
              "name": "nonce",
              "type": "uint256"
            },
            {
              "internalType": "bytes",
              "name": "initCode",
              "type": "bytes"
            },
            {
              "internalType": "bytes",
              "name": "callData",
              "type": "bytes"
            },
            {
              "internalType": "bytes32",
              "name": "accountGasLimits",
              "type": "bytes32"
            },
            {
              "internalType": "uint256",
              "name": "preVerificationGas",
              "type": "uint256"
            },
            {
              "internalType": "bytes32",
              "name": "gasFees",
              "type": "bytes32"
            },
            {
              "internalType": "bytes",
              "name": "paymasterAndData",
              "type": "bytes"
            },
            {
              "internalType": "bytes",
              "name": "signature",
              "type": "bytes"
            }
          ],
          "internalType": "struct PackedUserOperation",
          "name": "userOp",
          "type": "tuple"
        },
        {
          "internalType": "bytes32",
          "name": "",
          "type": "bytes32"
        },
        {
          "internalType": "uint256",
          "name": "",
          "type": "uint256"
        }
      ],
      "name": "validatePaymasterUserOp",
      "outputs": [
        {
          "internalType": "bytes",
          "name": "context",
          "type": "bytes"
        },
        {
          "internalType": "uint256",
          "name": "validationData",
          "type": "uint256"
        }
      ],
      "stateMutability": "view",
      "type": "function"
    },
    {
      "inputs": [
        {
          "internalType": "address payable",
          "name": "to",
          "type": "address"
        },
        {
          "internalType": "uint256",
          "name": "amount",
          "type": "uint256"
        }
      ],
      "name": "withdrawTo",
      "outputs": [],
      "stateMutability": "nonpayable",
      "type": "function"
    },
    {
      "stateMutability": "payable",
      "type": "receive"
    }
  ],
  "bytecode": "0x60a080604052346101f057604081615ecd803803809161001f82856101f4565b8339810103126101f05780516020909101516001600160a01b03811691908290036101f05780156101f05781156101f0578160018060a01b03196001541617600155600755805f52600660205260405f20600160ff19825416179055600554680100000000000000008110156101dc5760018101806005558110156101c85760055f527f036b6384b5eca791c62761152d0c79bb0604c104a5fb6f4eb0703f3154bb3db00180546001600160a01b031916909117905560408051906100e490826101f4565b601481527f4265616d696f4163636f756e74466163746f7279000000000000000000000000602090910152604080517f6f500dcbca73301adb468cc17d75120182a92fbfe5577b5a867bb5dc7eed5fff9161013f90826101f4565b600181526020810190603160f81b82525190206040519060208201927f8b73c3c69bb8fe3d512ecc4cf759cc79239f7b179b0ffacaa9a75d522b39400f8452604083015260608201524660808201523060a082015260a081526101a360c0826101f4565b519020608052604051615cb590816102188239608051818181610ac6015261168c0152f35b634e487b7160e01b5f52603260045260245ffd5b634e487b7160e01b5f52604160045260245ffd5b5f80fd5b601f909101601f19168101906001600160401b038211908210176101dc5760405256fe608080604052600436101561001c575b50361561001a575f80fd5b005b5f905f3560e01c908163012622db14611ed85750806306b206eb14611e8e57806308a8c59914610fbe5780630e1398b914611e0c5780630ef446c8146119fc578063141fe7081461182a578063205c28781461179857806331a04f1d146117695780633256be02146116ed5780633330c790146116af5780633644e515146116745780633c561eae14611630578063431d55c81461158e5780634594eebd1461148857806347f543bc146114065780634c80da5e1461138c5780634e1bc3461461136857806352b7512c146112f157806362c5cc9f1461127d578063646e338c1461125557806368c842d6146112165780636eb30f65146111ee57806375829def1461119b5780637844c2ea146111535780637b0ff3b61461112a5780637c627b21146110d2578063865d8eb91461105057806389a30271146110275780638cb84e1814610fff5780638cc1bb2514610fbe57806391ce212614610f4057806394430fa514610f1557806397f53dc814610dc05780639dca362f14610d92578063a8062de514610d62578063a9829da014610d39578063ae8a41cf14610d00578063b3e089a214610c91578063b41c826714610c17578063c1cfc34a146109ca578063c690f030146109a6578063ce85715d1461097d578063d0e30db01461090a578063d1e8435f1461088c578063d752bdaa146107c2578063dceba94914610742578063dda9c75d146105a2578063e914d74114610495578063e9ca99ab14610472578063eba5ef901461043a578063f3f16c541461040b578063f5b21d8e146102f3578063f6c4389c146102d5578063f851a440146102ac5763fc3c56fd0361000f57346102a957806003193601126102a957600d546040516001600160a01b039091168152602090f35b80fd5b50346102a957806003193601126102a9576001546040516001600160a01b039091168152602090f35b50346102a957806003193601126102a9576020600754604051908152f35b50346102a95760a03660031901126102a9578061030e611fdb565b60443563ffffffff8116809103610407576064356001600160401b03811690819003610405576084356001600160401b03811161040157610353903690600401612047565b919093338652600660205260ff604087205416156103fd576001600160a01b03168086526020869052604086205490919060ff16156103fd57813b156103fd578580946103d060405197889687958694638904efbf60e01b8652602435600487015260248601526044850152608060648501526084840191612325565b03925af180156103f2576103e15750f35b816103eb9161229c565b6102a95780f35b6040513d84823e3d90fd5b8580fd5b8480fd5b505b5050fd5b50346102a95760203660031901126102a95760ff60406020926004358152600a84522054166040519015158152f35b50346102a95761045e61044c36612111565b9897909796919695929594939461271a565b9061046e60405192839283612280565b0390f35b50346102a957806003193601126102a957602060ff600854166040519015158152f35b50346102a95760c03660031901126102a957806104b0611fdb565b6104b861201d565b906044356001600160401b038111610405576104d8903690600401612047565b9160a4356001600160401b0381116103fd576104f8903690600401612077565b939091338752600660205260ff6040882054161561059e576001600160a01b03168087526020879052604087205490929060ff161561059e57823b1561059e576040516308b1e12f60e31b81526001600160a01b03909616600487015260a06024870152869486948593879385936103d0939192909161057c9160a4870191612325565b9160643560448601526084356064860152600319858403016084860152612305565b8680fd5b50346102a95760803660031901126102a9576105bc611fdb565b6105c461201d565b6105cc611ff1565b906105d5612007565b6001549093906001600160a01b03163303610401576008549360ff8516610733576001600160a01b038216918215159081610728575b50156103fd576001600160a01b03831692831515908161071d575b50156103fd576001600160a01b038416938415159081610712575b50156103fd576001600160a01b03169384156103fd57600b80546001600160a01b03199081168417909155600c8054821685179055600d8054821686179055600e80549091168617905560ff19166001176008556040518481528390839083907fb124d435b32fd00959c0d02299cab8d1dbd425e75b43fe9e07ec79516f59ab8990602090a4845f516020615c095f395f51905f528180a3835f516020615c695f395f51905f528180a3825f516020615c295f395f51905f528180a3815f516020615be95f395f51905f528180a380f35b90503b15155f610641565b90503b15155f610626565b90503b15155f61060b565b637e2a03a360e11b8652600486fd5b50346102a9578061075236612111565b90959694989792939197338b52600660205260ff60408c205416156107be576001600160a01b0316808b5260208b905260408b205490969060ff16156107be57863b156107be578a9889956103d0946040519c8d9b8c9a8b996302da802f60e41b8b5260048b01612449565b8a80fd5b50346102a95760603660031901126102a957806107dd611fdb565b6024356001600160401b038111610407576107fc903690600401612077565b610804611ff1565b92338552600660205260ff60408620541615610401576001600160a01b03168085526020859052604085205460ff161561040157803b156104015784928361086b93604051968795869485936335f100a760e21b8552604060048601526044850191612305565b6001600160a01b03909116602483015203925af180156103f2576103e15750f35b50346102a957806003193601126102a957338152600460205260408120604051918260208354918281520192825260208220915b8181106108eb5761046e856108d78187038261229c565b604051918291602083526020830190612244565b82546001600160a01b03168452602090930192600192830192016108c0565b50806003193601126102a957338152600660205260ff604082205416156102a9576f71727de22e5e9d8baf0edac6f37da0323b156102a95760405163b760faf960e01b815230600482015281908181602481346f71727de22e5e9d8baf0edac6f37da0325af180156103f2576103e15750f35b50346102a957806003193601126102a957600c546040516001600160a01b039091168152602090f35b50346102a95761045e6109b836612111565b9897909796919695929594939461267e565b50346102a957806109da366120a4565b949394929192338852600660205260ff60408920541615610c08576001600160a01b0387168089526020899052604089205490979060ff1615610bf1578715159081610c0c575b5015610c08578515610c0857824211610c0857604051638da5cb5b60e01b8152916020836004818b5afa928315610bfd578887898c938497610ba9575b5092610b10959492610b1998610a7c610b0294610b0a9736916123f8565b60208151910120604051926020840194505f516020615c895f395f51905f5285526040840152606083015260808201528960a082015260a08152610ac160c08261229c565b5190207f00000000000000000000000000000000000000000000000000000000000000006042916040519161190160f01b8352600283015260228201522090565b9236916123f8565b90612b33565b90939193612b6d565b6001600160a01b03908116911603610401576040516020810191858352604082015260408152610b4a60608261229c565b519020808552600960205260ff604086205416610401578452600960205260408420805460ff19166001179055823b15610405576103d09284928360405180968195829463714f37d960e01b8452602060048501526024840191612305565b949650505050506020813d602011610bf5575b81610bc96020938361229c565b81010312610bf15751906001600160a01b0382168203610bf157909188888789610b10610a5e565b8880fd5b3d9150610bbc565b6040513d8b823e3d90fd5b8780fd5b90503b15155f610a21565b50346102a95780610c27366121e1565b9091338452600660205260ff60408520541615610405576001600160a01b03168084526020849052604084205490929060ff161561040557823b15610405576103d092849283604051809681958294633daddb5b60e21b8452602060048501526024840191612305565b50346102a95760203660031901126102a957610cab611fdb565b6001546001600160a01b03163303610cfc576001600160a01b03168015610cfc57600e54816001600160a01b0382165f516020615be95f395f51905f528580a36001600160a01b03191617600e5580f35b5080fd5b50346102a95760203660031901126102a9576020906040906001600160a01b03610d28611fdb565b168152600283522054604051908152f35b50346102a957806003193601126102a957600f546040516001600160a01b039091168152602090f35b50346102a95760403660031901126102a9576020610d8a610d81611fdb565b602435906125ab565b604051908152f35b50346102a957806003193601126102a9576020610dae3361276a565b6040516001600160a01b039091168152f35b50346102a95760203660031901126102a957610dda611fdb565b6001546001600160a01b03163303610cfc576001600160a01b03168082526006602052604082205460ff1615610cfc5760016005541115610cfc57808252600660205260408220805460ff19169055600554825b818110610e39578380f35b82610e43826121a0565b905460039190911b1c6001600160a01b031614610e6257600101610e2e565b91505f198101908111610f015790610e97610e7f610ebb936121a0565b905460039190911b1c6001600160a01b0316916121a0565b9080546001600160a01b0360039390931b83811b199091169290931690921b179055565b6005548015610eed575f1901610ed0816121a0565b81549060018060a01b039060031b1b191690556005555f80808380f35b634e487b7160e01b82526031600452602482fd5b634e487b7160e01b83526011600452602483fd5b50346102a957806003193601126102a95760206040516f71727de22e5e9d8baf0edac6f37da0328152f35b50346102a957806003193601126102a95760405160058054808352908352909160208301917f036b6384b5eca791c62761152d0c79bb0604c104a5fb6f4eb0703f3154bb3db0915b818110610f9f5761046e856108d78187038261229c565b82546001600160a01b0316845260209093019260019283019201610f88565b50346102a95760203660031901126102a9576020906001600160a01b03610fe3611fdb565b16815260038252604060018060a01b0391205416604051908152f35b50346102a95760403660031901126102a9576020610dae61101e611fdb565b6024359061255d565b50346102a957806003193601126102a957600e546040516001600160a01b039091168152602090f35b50346102a95760203660031901126102a95761106a611fdb565b6001546001600160a01b03163303610cfc576001600160a01b0381169081151590816110c7575b5015610cfc57600d54816001600160a01b0382165f516020615c295f395f51905f528580a36001600160a01b03191617600d5580f35b90503b15155f611091565b50346102a95760803660031901126102a957600360043510156102a9576024356001600160401b038111610cfc5761110e903690600401612077565b50506f71727de22e5e9d8baf0edac6f37da03233036102a95780f35b50346102a957806003193601126102a957600b546040516001600160a01b039091168152602090f35b50346102a95760203660031901126102a957600154600435906001600160a01b03163303610cfc578015158061118f575b15610cfc5760075580f35b50612710811115611184565b50346102a95760203660031901126102a9576111b5611fdb565b600154906001600160a01b03821633036111ea576001600160a01b03169081156111ea576001600160a01b0319161760015580f35b8280fd5b50346102a957806003193601126102a95760206040515f516020615c895f395f51905f528152f35b50346102a95760203660031901126102a95760209060ff906040906001600160a01b03611241611fdb565b168152600684522054166040519015158152f35b50346102a957806003193601126102a95760206040515f516020615c495f395f51905f528152f35b50346102a95760203660031901126102a957611297611fdb565b6001546001600160a01b03163303610cfc57600f546001600160a01b0391821691829082167f32c07317757064462b987ba3d67c832e54a0c072c26e0feac2edc2832157086f8580a36001600160a01b03191617600f5580f35b50346102a95760603660031901126102a957600435906001600160401b0382116102a95761012060031983360301126102a9576f71727de22e5e9d8baf0edac6f37da03233036102a95761135e61134a8360040161250a565b604051928392604084526040840190612220565b9060208301520390f35b50346102a95760203660031901126102a9576020610dae611387611fdb565b6124be565b50346102a9578061139c366121e1565b9091338452600660205260ff60408520541615610405576001600160a01b03168084526020849052604084205490929060ff161561040557823b15610405576103d0928492836040518096819582946365e270d560e11b8452602060048501526024840191612305565b50346102a95760203660031901126102a957611420611fdb565b6001546001600160a01b03163303610cfc576001600160a01b03811690811515908161147d575b5015610cfc57600b54816001600160a01b0382165f516020615c095f395f51905f528580a36001600160a01b03191617600b5580f35b90503b15155f611447565b50346102a95760a03660031901126102a957806114a3611fdb565b6024356001600160401b038111610407576114c2903690600401612077565b6114cd929192611ff1565b906114d6612007565b936084356001600160401b03811161059e576114f6903690600401612047565b9094338852600660205260ff60408920541615610c08576001600160a01b03168088526020889052604088205490939060ff1615610c0857833b15610c08576103d06115669589979388946040519a8b998a988997633fbf640f60e11b8952608060048a01526084890191612305565b6001600160a01b03948516602488015293166044860152848303600319016064860152612325565b50346102a95760203660031901126102a9576115a8611fdb565b6001546001600160a01b03163303610cfc576001600160a01b03811680156111ea57808352600660205260ff6040842054166111ea578252600660205260408220805460ff19166001179055600554600160401b81101561161c5790610e97826001611619940160055560056121cc565b80f35b634e487b7160e01b83526041600452602483fd5b50346102a95760203660031901126102a957600435906005548210156102a957602061165b836121a0565b905460405160039290921b1c6001600160a01b03168152f35b50346102a957806003193601126102a95760206040517f00000000000000000000000000000000000000000000000000000000000000008152f35b50346102a95760203660031901126102a95760209060ff906040906001600160a01b036116da611fdb565b1681528084522054166040519015158152f35b50346102a957806116fd36612111565b90959694989792939197338b52600660205260ff60408c205416156107be576001600160a01b0316808b5260208b905260408b205490969060ff16156107be57863b156107be578a9889956103d0946040519c8d9b8c9a8b996305dd14ff60e31b8b5260048b01612449565b50346102a95760203660031901126102a95760ff60406020926004358152600984522054166040519015158152f35b50346102a95760403660031901126102a957806117b3611fdb565b6001546001600160a01b03163303611827576f71727de22e5e9d8baf0edac6f37da0323b156118275760405163040b850f60e31b81526001600160a01b03909116600482015260248035908201528181604481836f71727de22e5e9d8baf0edac6f37da0325af180156103f2576103e15750f35b50fd5b50346102a95760403660031901126102a9576004356001600160401b038111610cfc5761185b903690600401612047565b61186692919261201d565b90338352600660205260ff604084205416156111ea576f71727de22e5e9d8baf0edac6f37da0323b156111ea576040519163765e827f60e01b835281604484016040600486015252606483019460648360051b8501019281869061011e19813603015b838310611909576001600160a01b03861660248901528880898181808c0381836f71727de22e5e9d8baf0edac6f37da0325af180156103f2576103e15750f35b9091929395606319888203018a528635828112156119f85760019160209182916119e7918701906001600160a01b0361194183612033565b16815283820135848201526119d86119cc61199361197861196560408701876122d3565b6101206040880152610120870191612305565b61198560608701876122d3565b908683036060880152612305565b6080850135608085015260a085013560a085015260c085013560c08501526119be60e08601866122d3565b9085830360e0870152612305565b926101008101906122d3565b91610100818503910152612305565b98019a0193019190989392986118c9565b8980fd5b50346102a957611a0b366120a4565b909695949296338752600660205260ff6040882054161561059e576001600160a01b0386168088526020889052604088205490969060ff1615610c08578615159081611e01575b501561059e576004851061059e5787421161059e576001600160e01b03198435166335f100a760e21b8114989089908115611df0575b5015610c085791610b0a611af092610b028a611af996611aa9368c8c6123f8565b6020815191012090604051916020830193505f516020615c495f395f51905f5284528d6040840152606083015260808201528860a082015260a08152610ac160c08261229c565b90929192612b6d565b6001600160a01b03169586156103fd5715611c10578260041161040157818301604083820360031901126103fd5760048301356001600160401b03811161059e57906004611b499285010161242e565b506001600160a01b03611b5e60248401612033565b165b6001600160a01b0316808703611bf95750849550604051602081019160018352856040830152606082015260608152611b9a60808261229c565b519020808552600a60205260ff604086205416610401578452600a60205260408420805460ff19166001179055823b15610405576103d09284928360405180968195829463714f37d960e01b8452602060048501526024840191612305565b633908d72560e21b86526004879052602452604485fd5b8260041161040157818301608083820360031901126103fd5760048301356001600160401b03811161059e57816004611c4b9286010161242e565b50611c5860248401612033565b611c6460448501612033565b9160648501356001600160401b038111610bf157850181602382011215610bf1576004810135916001600160401b038311611ddc5760206004818560051b9581870190611cb4604051928361229c565b8152019484010101918183116107be5760248101935b838510611cfc575050506001600160a01b039283169390921683149150611b60905057631083973d60e31b8652600486fd5b84356001600160401b038111611dd85760049083010160a0601f198286030112611dd8576040519060a082016001600160401b03811183821017611dc45760405260208101356002811015611dc0578252611d5960408201612033565b6020830152606081810135604084015260808201359083015260a0810135906001600160401b038211611dc05790602091010184601f82011215611dbc579160209291611dac86848680963591016123f8565b6080820152815201940193611cca565b8d80fd5b8e80fd5b634e487b7160e01b8f52604160045260248ffd5b8c80fd5b634e487b7160e01b8a52604160045260248afd5b633fbf640f60e11b1490505f611a88565b90503b15155f611a52565b50346102a95760203660031901126102a957611e26611fdb565b6001546001600160a01b03163303610cfc576001600160a01b038116908115159081611e83575b5015610cfc57600c54816001600160a01b0382165f516020615c695f395f51905f528580a36001600160a01b03191617600c5580f35b90503b15155f611e4d565b50346102a95760203660031901126102a957611ea8611fdb565b90338152600660205260ff604082205416156102a9576001600160a01b038216156102a9576020610dae8361276a565b905034611fd75760a0366003190112611fd757611ef3611fdb565b611efb611ff1565b906064356001600160401b038111611fd757611f1b903690600401612047565b926084356001600160401b0381169390849003611fd757335f52600660205260ff60405f20541615611fd75760018060a01b031691825f525f60205260ff60405f20541615611fd757823b15611fd757858094611fa85f97938894849663ddafb9a960e01b8652602435600487015260018060a01b03166024860152608060448601526084850191612325565b90606483015203925af18015611fcc57611fc0575080f35b61001a91505f9061229c565b6040513d5f823e3d90fd5b5f80fd5b600435906001600160a01b0382168203611fd757565b604435906001600160a01b0382168203611fd757565b606435906001600160a01b0382168203611fd757565b602435906001600160a01b0382168203611fd757565b35906001600160a01b0382168203611fd757565b9181601f84011215611fd7578235916001600160401b038311611fd7576020808501948460051b010111611fd757565b9181601f84011215611fd7578235916001600160401b038311611fd75760208381860195010111611fd757565b9060a0600319830112611fd7576004356001600160a01b0381168103611fd757916024356001600160401b038111611fd757816120e391600401612077565b909290916044359160643591608435906001600160401b038211611fd75761210d91600401612077565b9091565b610100600319820112611fd7576004356001600160a01b0381168103611fd757916024356001600160a01b0381168103611fd757916044356001600160401b038111611fd7578161216491600401612047565b9290929160643560ff81168103611fd757916084359160a4359160c4359160e435906001600160401b038211611fd75761210d91600401612077565b6005548110156121b85760055f5260205f2001905f90565b634e487b7160e01b5f52603260045260245ffd5b80548210156121b8575f5260205f2001905f90565b906040600319830112611fd7576004356001600160a01b0381168103611fd75791602435906001600160401b038211611fd75761210d91600401612077565b805180835260209291819084018484015e5f828201840152601f01601f1916010190565b90602080835192838152019201905f5b8181106122615750505090565b82516001600160a01b0316845260209384019390920191600101612254565b6040906122999392151581528160208201520190612220565b90565b601f909101601f19168101906001600160401b038211908210176122bf57604052565b634e487b7160e01b5f52604160045260245ffd5b9035601e1982360301811215611fd7570160208101919035906001600160401b038211611fd7578136038313611fd757565b908060209392818452848401375f828201840152601f01601f1916010190565b90602083828152019060208160051b85010193835f915b83831061234c5750505050505090565b909192939495601f198282030186528635609e1984360301811215611fd7578301908135916002831015611fd7576123cf60209260a06123bf859460019784528780841b0361239c878301612033565b1686850152604081013560408501526060810135606085015260808101906122d3565b9190928160808201520191612305565b98019601949301919061233c565b6001600160401b0381116122bf57601f01601f191660200190565b929192612404826123dd565b91612412604051938461229c565b829481845281830111611fd7578281602093845f960137010152565b9080601f83011215611fd757816020612299933591016123f8565b9491612476906122999a989599979460ff9360018060a01b0316885260e0602089015260e0880191612325565b971660408501526060840152608083015260a082015260c0818503910152612305565b80549190600160401b8310156122bf5782610e979160016124bc950181556121cc565b565b6001600160a01b0381168015611fd7575f818152600360205260409020546001600160a01b03168061250457505f52600260205260405f2054611fd7576122999061276a565b91505090565b356001600160a01b03811690819003611fd7575f525f60205260ff60405f205416156125465760405161253e60208261229c565b5f8152905f90565b60405161255460208261229c565b5f815290600190565b61258d9161256a916125ab565b61259b612575612a79565b60208151910120604051938491602083019485612af5565b03601f19810184528361229c565b905190206001600160a01b031690565b604080516001600160a01b03909216602083019081528282019390935281526125d560608261229c565b51902090565b604051906125ea60408361229c565b60128252711b9bdd081899585b5a5bc81858d8dbdd5b9d60721b6020830152565b9190604083820312611fd75782518015158103611fd757602084015190936001600160401b038211611fd7570181601f82011215611fd75780519061264f826123dd565b9261265d604051948561229c565b82845260208383010111611fd757815f9260208093018386015e8301015290565b999792969194959093989960018060a01b031695865f525f60205260ff60405f2054161561270557916126ce93915f999a9b936040519c8d9a8b998a996302b353db60e21b8b5260048b01612449565b03915afa918215611fcc575f905f936126e657509190565b905061210d9192503d805f833e6126fd818361229c565b81019061260b565b50505050505050509150505f906122996125db565b999792969194959093989960018060a01b031695865f525f60205260ff60405f2054161561270557916126ce93915f999a9b936040519c8d9a8b998a996317c8853760e31b8b5260048b01612449565b6001600160a01b0381165f81815260026020526040812054600754919493909291831015611fd75761279c838261255d565b60018401808511612a6557835f52600260205260405f2055803b6129ce5750826127c5916125ab565b916127ce612a79565b925f8085519560208101968720604051906127f28261258d60208201938985612af5565b60018060a01b0391519020169661282d60408051809360208201958987525180918484015e810186838201520301601f19810183528261229c565b519082734e59b44847b379578588920ca78fbf26c0b4956c5af13d156129c9573d612857816123dd565b90612865604051928361229c565b81525f60203d92013e5b156129ba57833b156129ba57604095865161288a888261229c565b6001815260208101601f1989013682378151156121b857859052853b15611fd7575f6128d79189518093819263c587148560e01b8352896004840152608060248401526084830190612244565b600160448301523060648301520381838a5af180156129b057977f356f227de1528bfef4447beacbf534a8807ffe37c12950e3f3253e927dd6fbe1949281949288999a61299b575b5087815280602052818120600160ff19825416179055868152600460205261294988838320612499565b8681526003602052818120546001600160a01b031615612972575b50519182526020820152a390565b86815260036020522080546001600160a01b0319166001600160a01b038816179055825f612964565b6129a892505f915061229c565b825f5f61291f565b88513d5f823e3d90fd5b630813318560e01b5f5260045ffd5b61286f565b93945050905060018060a01b03821690815f525f60205260ff60405f20541615612a35575b5f818152600360205260409020546001600160a01b031615612a1457505090565b5f90815260036020526040902080546001600160a01b031916909117905590565b815f525f60205260405f20600160ff19825416179055805f526004602052612a608360405f20612499565b6129f3565b634e487b7160e01b5f52601160045260245ffd5b612f8f612299604051612a8f602084018261229c565b8281526020810192612c5a84396020604051818101906f71727de22e5e9d8baf0edac6f37da0328252828152612ac660408261229c565b6040519586945180918587015e840190838201905f8252519283915e01015f815203601f19810183528261229c565b6001600160f81b031981527313966d1211ecde55e162248329e3efc9b02d255b60621b60018201526015810191909152603581019190915260550190565b8151919060418303612b6357612b5c9250602082015190606060408401519301515f1a90612be1565b9192909190565b50505f9160029190565b6004811015612bcd5780612b7f575050565b60018103612b965763f645eedf60e01b5f5260045ffd5b60028103612bb1575063fce698f760e01b5f5260045260245ffd5b600314612bbb5750565b6335e2f38360e21b5f5260045260245ffd5b634e487b7160e01b5f52602160045260245ffd5b91906fa2a8918ca85bafe22016d0b997e4df60600160ff1b038411612c4e579160209360809260ff5f9560405194855216868401526040830152606082015282805260015afa15611fcc575f516001600160a01b03811615612c4457905f905f90565b505f906001905f90565b5050505f916003919056fe60a0346100d357601f612f8f38819003918201601f19168301916001600160401b038311848410176100d7578084926020946040528339810103126100d357516001600160a01b03811681036100d357608052604051612ea390816100ec8239608051818181610575015281816106af01528181610720015281816108770152818161096601528181610aa401528181610d0301528181610dc701528181610f5801528181610ff901528181611045015281816110b90152818161168d01528181611b7701528181611bea0152611f420152f35b5f80fd5b634e487b7160e01b5f52604160045260245ffdfe6080604052600436101561001a575b3615610018575f80fd5b005b5f3560e01c806301ffc9a7146102e95780630acd4f6c146102e45780630c23008c146102df5780630e68f763146102da5780630eba3b4b146102d55780631626ba7e146102d057806317af07f3146102cb57806319822f7c146102c65780632ca632c0146102c15780632da802f0146102bc5780632e4515be146102b75780632ee8a7f8146102b25780633afce508146102ad57806342cde4e8146102a857806343378eb5146102a3578063458f09781461029e57806347e1da2a146102995780634b11a9c0146102945780635bb478081461028f5780635f7110ec1461028a578063714f37d9146102855780637980523f146102805780637f7ec81e1461027b5780638904efbf146102765780638da5cb5b14610271578063915d953f1461026c578063964cda87146102675780639b55e75014610262578063b0d691fe1461025d578063b61d27f614610258578063b81ab7bc14610253578063bc197c811461024e578063be4429b814610249578063bffb869514610244578063c45a01551461023f578063c58714851461023a578063cafd6a3d14610235578063cbc4e1aa14610230578063d7c4029c1461022b578063ddafb9a914610226578063e3b35c3014610221578063f23a6e611461021c578063f25950e014610217578063f6b76d6c146102125763f7a579a20361000e57611bd6565b611bae565b611b67565b611b0e565b6119ba565b611841565b611763565b61173b565b6116f5565b611559565b611531565b6114e7565b6114a7565b61140e565b61114e565b611074565b611030565b610fe2565b610fac565b610f36565b610f0f565b610ee1565b610e1c565b610db5565b610d3a565b610cef565b610c22565b610bdc565b610a31565b6109ff565b61094c565b61092f565b6108e3565b6108ae565b610867565b6107f9565b6107b2565b6106e6565b610679565b610627565b6105bb565b61055b565b61051b565b61048c565b3461033f57602036600319011261033f5760043563ffffffff60e01b811680910361033f57602090630271189760e51b811490811561032e575b506040519015158152f35b6301ffc9a760e01b1490505f610323565b5f80fd5b6001600160a01b031690565b6001600160a01b0381160361033f57565b9181601f8401121561033f578235916001600160401b03831161033f576020808501948460051b01011161033f57565b60ff81160361033f57565b35906103a682610390565b565b9181601f8401121561033f578235916001600160401b03831161033f576020838186019501011161033f57565b9060e060031983011261033f576004356103ee8161034f565b916024356001600160401b03811161033f578161040d91600401610360565b9290929160443561041d81610390565b91606435916084359160a4359160c435906001600160401b03821161033f57610448916004016103a8565b9091565b805180835260209291819084018484015e5f828201840152601f01601f1916010190565b604090610489939215158152816020820152019061044c565b90565b3461033f576104ee6104df6104cc6104da6104a6366103d5565b9560409a979a959195949294519a8b996302b353db60e21b60208c015260248b01611d4b565b03601f19810183528261130b565b612415565b60208082518301019101611deb565b906104fe60405192839283610470565b0390f35b6001600160a01b03165f90815260026020526040902090565b3461033f57602036600319011261033f576004356105388161034f565b60018060a01b03165f526002602052602060ff60405f2054166040519015158152f35b3461033f57610569366103d5565b969095919492939291907f00000000000000000000000000000000000000000000000000000000000000006001600160a01b031633036105ac5761001898611e23565b636b31ba1560e11b5f5260045ffd5b3461033f57604036600319011261033f576004356105d88161034f565b5f54602435906001600160a01b0316330361061857610613610018926104cc604051938492630eba3b4b60e01b602085015260248401611e53565b612468565b63ea8e4eb560e01b5f5260045ffd5b3461033f57604036600319011261033f576004356024356001600160401b03811161033f576020916106606106669236906004016103a8565b91611e6e565b6040516001600160e01b03199091168152f35b3461033f57604036600319011261033f576004356001600160401b03811161033f576106a9903690600401610360565b602435907f00000000000000000000000000000000000000000000000000000000000000006001600160a01b031633036105ac57610018926126b5565b3461033f57606036600319011261033f576004356001600160401b03811161033f57610120600319823603011261033f57602435906044357f00000000000000000000000000000000000000000000000000000000000000006001600160a01b031633036105ac576104fe9261075e92600401611ef6565b6040519081529081906020820190565b634e487b7160e01b5f52603260045260245ffd5b60035481101561079a5760035f5260205f2001905f90565b61076e565b6001600160a01b03909116815260200190565b3461033f57602036600319011261033f5760043560035481101561033f5760035f525f516020612e575f395f51905f5201546040516001600160a01b039091168152602090f35b3461033f57610807366103d5565b6001549097919692959394939291906001600160a01b0316330361082e5761001898611e23565b631966391b60e11b5f5260045ffd5b602060031982011261033f57600435906001600160401b03821161033f57610448916004016103a8565b3461033f576108753661083d565b7f00000000000000000000000000000000000000000000000000000000000000006001600160a01b031633036105ac5761001891611ff9565b3461033f576108bc366103d5565b6001549097919692959394939291906001600160a01b0316330361082e5761001898612026565b3461033f575f36600319011261033f57602061092761091960405163075f9ca160e31b84820152600481526104da60248261130b565b828082518301019101612053565b604051908152f35b3461033f575f36600319011261033f576020600454604051908152f35b3461033f5761095a366103d5565b969095919492939291907f00000000000000000000000000000000000000000000000000000000000000006001600160a01b031633036105ac5761001898612026565b9060a060031983011261033f576004356109b68161034f565b916024356001600160401b03811161033f57816109d591600401610360565b909290916044359160643591608435906001600160401b03821161033f57610448916004016103a8565b3461033f57610a0d3661099d565b6001549095919492939291906001600160a01b0316330361082e5761001896612062565b3461033f57606036600319011261033f576004356001600160401b03811161033f57610a61903690600401610360565b6024356001600160401b03811161033f57610a80903690600401610360565b92906044356001600160401b03811161033f57610aa1903690600401610360565b937f00000000000000000000000000000000000000000000000000000000000000006001600160a01b031633036105ac57858114801590610bd2575b610bc3575f5b818110610aec57005b610b07610b02610afd8385896120ce565b6120de565b610343565b15610bb457610b58610b1d610afd8385896120ce565b610613610b2b848b896120ce565b35916104cc610b3b868c8a6120e8565b90604051958694631182259360e11b6020870152602486016120ff565b505f80610b69610afd84868a6120ce565b610b74848b896120ce565b35610b80858b896120e8565b9190610b9160405180948193612123565b03925af1610b9d611ec7565b9015610bac5750600101610ae3565b602081519101fd5b63d92e233d60e01b5f5260045ffd5b638b140a8160e01b5f5260045ffd5b5084811415610add565b3461033f57604036600319011261033f57610018600435610bfc8161034f565b610613602435916104cc60405193849263012c46a760e61b602085015260248401611e53565b3461033f57602036600319011261033f57600435610c3f8161034f565b6001546001600160a01b0381163381900361082e576001600160a01b038316928315908115610c91575b50610bb45782905f516020612e775f395f51905f525f80a36001600160a01b03191617600155005b90503b155f610c69565b90608060031983011261033f576004359160243563ffffffff8116810361033f57916044356001600160401b038116810361033f5791606435906001600160401b03821161033f5761044891600401610360565b3461033f57610cfd36610c9b565b929091907f00000000000000000000000000000000000000000000000000000000000000006001600160a01b031633036105ac5761001894612130565b3461033f57610d483661083d565b6001546001600160a01b0316330361082e57610018916106139136916113bd565b606060031982011261033f57600435906001600160401b03821161033f57610d9391600401610360565b9091602435610da18161034f565b9060443563ffffffff8116810361033f5790565b3461033f57610dc336610d69565b90927f00000000000000000000000000000000000000000000000000000000000000006001600160a01b031633036105ac576104cc6106139261001895604051958694637980523f60e01b60208701526024860161217f565b3461033f57608036600319011261033f576004356001600160401b03811161033f57610e4c9036906004016103a8565b9060243591610e5a8361034f565b60443590610e678261034f565b6064356001600160401b03811161033f576100189461061393610e916104cc933690600401610360565b91610eb9604051988997633fbf640f60e11b60208a0152608060248a015260a4890191611c44565b6001600160a01b03948516604488015293166064860152848303602319016084860152611c64565b3461033f57610eef36610c9b565b5f549093919291906001600160a01b031633036106185761001894612130565b3461033f575f36600319011261033f575f546040516001600160a01b039091168152602090f35b3461033f57604036600319011261033f57600435610f538161034f565b6024357f00000000000000000000000000000000000000000000000000000000000000006001600160a01b031633036105ac57610613610018926104cc60405193849263915d953f60e01b602085015260248401611e53565b3461033f575f36600319011261033f57602061092761091960405163964cda8760e01b84820152600481526104da60248261130b565b3461033f57610ff03661099d565b949093919291907f00000000000000000000000000000000000000000000000000000000000000006001600160a01b031633036105ac5761001896612062565b3461033f575f36600319011261033f576040517f00000000000000000000000000000000000000000000000000000000000000006001600160a01b03168152602090f35b3461033f57606036600319011261033f576004356110918161034f565b602435906044356001600160401b03811161033f576110b49036906004016103a8565b9091907f00000000000000000000000000000000000000000000000000000000000000006001600160a01b031633036105ac576001600160a01b03821615610bb4575f938493611121604051631182259360e11b6020820152610613816104cc8786888b602486016120ff565b50826040519384928337810185815203925af161113c611ec7565b9015610bac57005b6002111561033f57565b3461033f57606036600319011261033f5760043561116b81611144565b6024356111778161034f565b604435906111836121b2565b6001600160a01b038216939092908415610bb4576111a081611c35565b61126c57506111ae90612a7d565b6020820152602060405180936370a0823160e01b825281806111d3306004830161079f565b03915afa8015611267576104fe925f91611238575b5081525b805160208201518082111561123057611204916121ff565b604082015260405191829182919091604080606083019480518452602081015160208501520151910152565b50505f611204565b61125a915060203d602011611260575b611252818361130b565b810190612053565b5f6111e8565b503d611248565b6121e0565b61129b9361127c82602094612a0d565b838501526040518080968194627eeac760e11b83523060048401611e53565b03915afa8015611267576104fe925f916112b8575b5081526111ec565b6112d1915060203d60201161126057611252818361130b565b5f6112b0565b634e487b7160e01b5f52604160045260245ffd5b60a081019081106001600160401b0382111761130657604052565b6112d7565b601f909101601f19168101906001600160401b0382119082101761130657604052565b6001600160401b0381116113065760051b60200190565b9080601f8301121561033f57813561135c8161132e565b9261136a604051948561130b565b81845260208085019260051b82010192831161033f57602001905b8282106113925750505090565b8135815260209182019101611385565b6001600160401b03811161130657601f01601f191660200190565b9291926113c9826113a2565b916113d7604051938461130b565b82948184528183011161033f578281602093845f960137010152565b9080601f8301121561033f57816020610489933591016113bd565b3461033f5760a036600319011261033f5761142a60043561034f565b61143560243561034f565b6044356001600160401b03811161033f57611454903690600401611345565b506064356001600160401b03811161033f57611474903690600401611345565b506084356001600160401b03811161033f576114949036906004016113f3565b5060405163bc197c8160e01b8152602090f35b3461033f576104ee6104df6104cc6104da6114c1366103d5565b9560409a979a959195949294519a8b996317c8853760e31b60208c015260248b01611d4b565b3461033f576114f536610d69565b5f54919390916001600160a01b03163303610618576104cc610613926100189560405195869463bffb869560e01b60208701526024860161217f565b3461033f575f36600319011261033f576001546040516001600160a01b039091168152602090f35b3461033f57608036600319011261033f576004356115768161034f565b6024356001600160401b03811161033f57611595903690600401610360565b604435916064356115a58161034f565b60055460ff166116e7576001600160a01b038516908115610bb4576001600160a01b03811691821580156116de575b610bb457841561061857806115ef610b02610afd88886120c5565b0361061857851580156116d5575b6106185761166283926116406100189961161f600160ff196005541617600555565b5f80546001600160a01b0319166001600160a01b0392909216919091179055565b600180546001600160a01b0319166001600160a01b0392909216919091179055565b6040517fad307780531f6353137c35adc50ad58d71b76e76aa891e729387f2e720f2de2090806116bb7f00000000000000000000000000000000000000000000000000000000000000006001600160a01b03168261079f565b0390a35f5f516020612e775f395f51905f528180a36126b5565b508486116115fd565b50813b156115d4565b62dc149f60e41b5f5260045ffd5b3461033f57604036600319011261033f576100186004356117158161034f565b610613602435916104cc60405193849263cafd6a3d60e01b602085015260248401611e53565b3461033f576117493661083d565b5f546001600160a01b031633036106185761001891612211565b3461033f57604036600319011261033f576004356001600160401b03811161033f576106136117996100189236906004016103a8565b6024929192356117a88161034f565b6117cf6040519485936335f100a760e21b6020860152604060248601526064850191611c44565b6001600160a01b0391909116604483015203601f19810183528261130b565b608060031982011261033f576004359160243561180a8161034f565b91604435906001600160401b03821161033f5761182991600401610360565b90916064356001600160401b038116810361033f5790565b3461033f5761184f366117ee565b5f549093919291906001600160a01b03163303610618576100189461223e565b90602080835192838152019201905f5b81811061188c5750505090565b825160ff1684526020938401939092019160010161187f565b9080602083519182815201916020808360051b8301019401925f915b8383106118d057505050505090565b90919293946020806118ee600193601f19868203018752895161044c565b970193019301919392906118c1565b92949391909460808401608085528651809152602060a086019701905f5b8181106119a4575050508386036020850152815180875260208701906020808260051b8a01019401915f905b82821061197857505050506104899495509061196a91848203604086015261186f565b9160608184039101526118a5565b909192946020806119966001938d601f19908203018652895161044c565b970192019201909291611947565b825189526020988901989092019160010161191b565b3461033f57602036600319011261033f57611a0b6004356119da8161034f565b604051630e3b35c360e41b60208201526001600160a01b03909116602480830191909152815261061360448261130b565b80518101906080816020840193031261033f5760208101516001600160401b03811161033f5781019082603f8301121561033f57602082015191611a4e8361132e565b92611a5c604051948561130b565b8084526020808086019260051b840101019185831161033f57604001905b828210611afe5750505060408101516001600160401b03811161033f57836020611aa6928401016122a1565b60608201519093906001600160401b03811161033f57816020611acb92850101612330565b608083015190916001600160401b03821161033f576020611af1926104fe950101612397565b90604051948594856118fd565b8151815260209182019101611a7a565b3461033f5760a036600319011261033f57611b2a60043561034f565b611b3560243561034f565b6084356001600160401b03811161033f57611b549036906004016113f3565b5060405163f23a6e6160e01b8152602090f35b3461033f57611b753661083d565b7f00000000000000000000000000000000000000000000000000000000000000006001600160a01b031633036105ac5761001891612211565b3461033f57611bbc3661083d565b5f546001600160a01b031633036106185761001891611ff9565b3461033f57611be4366117ee565b929091907f00000000000000000000000000000000000000000000000000000000000000006001600160a01b031633036105ac576100189461223e565b634e487b7160e01b5f52602160045260245ffd5b60021115611c3f57565b611c21565b908060209392818452848401375f828201840152601f01601f1916010190565b906020838281520160208260051b85010193835f915b848310611c8a5750505050505090565b909192939495601f198282030185528635609e198436030181121561033f5783018035611cb681611144565b611cbf81611c35565b82526020810135611ccf8161034f565b6001600160a01b031660208301526040818101359083015260608082013590830152608081013536829003601e190181121561033f57016020810190356001600160401b03811161033f57803603821361033f57611d3d602092839260a08681608060019901520191611c44565b980196950193019190611c7a565b9491611d78906104899a989599979460ff9360018060a01b0316885260e0602089015260e0880191611c64565b971660408501526060840152608083015260a082015260c0818503910152611c44565b929192611da7826113a2565b91611db5604051938461130b565b82948184528183011161033f578281602093845f96015e010152565b9080601f8301121561033f57815161048992602001611d9b565b91909160408184031261033f578051801515810361033f5760208201519093906001600160401b03811161033f576104899201611dd1565b946104cc94611e509994610613989399946040519a8b996302da802f60e41b60208c015260248b01611d4b565b50565b6001600160a01b039091168152602081019190915260400190565b90611e7992916124ba565b15611e8957630b135d3f60e11b90565b6001600160e01b031990565b903590601e198136030182121561033f57018035906001600160401b03821161033f5760200191813603831361033f57565b3d15611ef1573d90611ed8826113a2565b91611ee6604051938461130b565b82523d5f602084013e565b606090565b611f01600154610343565b6001600160a01b038116151580611fe2575b611f80575b50611f2a91611f2691612969565b1590565b611f7a5780611f3857505f90565b5f908190819081907f00000000000000000000000000000000000000000000000000000000000000006001600160a01b03165af150611f75611ec7565b505f90565b50600190565b611f8d60e0830183611e95565b60148110611fd057503560601c611fa382610343565b8103611faf5750611f18565b63187efe2360e01b5f526001600160a01b039081166004521660245260445ffd5b631811743760e21b5f5260045260245ffd5b50611ff060e0830183611e95565b90501515611f13565b610613611e50926104cc604051938492633daddb5b60e21b60208501526020602485018181520191611c44565b946104cc94611e509994610613989399946040519a8b996305dd14ff60e31b60208c015260248b01611d4b565b9081602091031261033f575190565b6040516308b1e12f60e31b60208201526001600160a01b03909116602482015260a06044820152611e509690956106139587956104cc9590946120a99160c4890191611c64565b93606487015260848601526023198584030160a4860152611c44565b901561079a5790565b919081101561079a5760051b0190565b356104898161034f565b9082101561079a576104489160051b810190611e95565b610489949260609260018060a01b0316825260208201528160408201520191611c44565b908092918237015f815290565b90926104cc90611e50956106139463ffffffff604051978896638904efbf60e01b6020890152602488015216604486015260018060401b031660648501526080608485015260a4840191611c64565b92949361219c63ffffffff92604094606087526060870191611c64565b6001600160a01b03909616602085015216910152565b60405190606082016001600160401b03811183821017611306576040525f6040838281528260208201520152565b6040513d5f823e3d90fd5b634e487b7160e01b5f52601160045260245ffd5b9190820391821161220c57565b6121eb565b610613611e50926104cc6040519384926365e270d560e11b60208501526020602485018181520191611c44565b90929361228261061393611e509660405196879563ddafb9a960e01b6020880152602487015260018060a01b031660448601526080606486015260a4850191611c64565b6001600160401b0391909116608483015203601f19810183528261130b565b81601f8201121561033f578051906122b88261132e565b926122c6604051948561130b565b82845260208085019360051b8301019181831161033f5760208101935b8385106122f257505050505090565b84516001600160401b03811161033f57820183603f8201121561033f576020916123258583604086809601519101611d9b565b8152019401936122e3565b9080601f8301121561033f5781516123478161132e565b92612355604051948561130b565b81845260208085019260051b82010192831161033f57602001905b82821061237d5750505090565b60208091835161238c81610390565b815201910190612370565b9080601f8301121561033f5781516123ae8161132e565b926123bc604051948561130b565b81845260208085019260051b8201019183831161033f5760208201905b8382106123e857505050505090565b81516001600160401b03811161033f5760209161240a87848094880101611dd1565b8152019101906123d9565b5f8091612420612ad9565b9060405161245360146020838180820196805191829101885e81013060601b838201520301600b1981018452018261130b565b51915afa61245f611ec7565b9015610bac5790565b5f8091612473612ad9565b602082519201905af461245f611ec7565b9060418202918083046041149015171561220c57565b60ff601b9116019060ff821161220c57565b5f19811461220c5760010190565b90916124cb611f2660055460ff1690565b80156125dd575b6125d657604181066125d6576041900491600454918284106125ce5761251e907b0ca2ba3432b932bab69029b4b3b732b21026b2b9b9b0b3b29d05199960211b5f52601c52603c5f2090565b5f918291825b86811061253657505050505050505f90565b61256261254282612484565b840160408101355f1a601b81106125c0575b602082013591359085612b85565b936001600160a01b0390811690851611156125b55761258a61258385610502565b5460ff1690565b612597575b600101612524565b936125a1906124ac565b9385851061258f5750505050505050600190565b505050505050505f90565b6125c99061249a565b612554565b505050505f90565b5050505f90565b50600454156124d2565b6003545f600355806125f65750565b60035f5260205f205f5b82811061260c57505050565b5f82820155600101612600565b600354600160401b811015611306576001810160035560035481101561079a5760035f525f516020612e575f395f51905f520180546001600160a01b0319166001600160a01b03909216919091179055565b6040602082019160208152600354809352019060035f5260205f20905f5b8181106126965750505090565b82546001600160a01b0316845260209093019260019283019201612689565b91908015610618576126ca610afd82856120c5565b6126d7610b025f54610343565b6001600160a01b0390911603610618575f5b600354811015612732578061272c61272261271d612708600195610782565b905460039190911b1c6001600160a01b031690565b610502565b805460ff19169055565b016126e9565b50909161273d6125e7565b5f915f5b8181106127b05750505050801580156127a5575b610618576004556040516020810190612771816104cc8461266b565b5190206004546040519081527fb96db730cba2eb08f2ce34a133b4cdaa9c3876aa06dfc81d4401d232f49bb88290602090a2565b506003548111612755565b6127be610afd8284866120ce565b936001600160a01b0385168015918215612804575b5050610618576001906127fe856127f96127ec82610502565b805460ff19166001179055565b612619565b01612741565b6001600160a01b0316101590505f806127d3565b9060e08282031261033f57813561282e8161034f565b9260208301356001600160401b03811161033f57830182601f8201121561033f5780359061285b8261132e565b91612869604051938461130b565b80835260208084019160051b8301019185831161033f5760208101915b8383106128ce57505050509261289e6040820161039b565b9260608201359260808301359260a08101359260c08201356001600160401b03811161033f5761048992016113f3565b82356001600160401b03811161033f5782019060a0828903601f19011261033f57604051906128fc826112eb565b602083013561290a81611144565b8252604083013561291a8161034f565b6020830152606083810135604084015260808401359083015260a0830135916001600160401b03831161033f576129598a6020809695819601016113f3565b6080820152815201920191612886565b906129776060830183611e95565b90600482101561299c575b505061299682610100610489940190611e95565b916124ba565b80356001600160e01b0319166343378eb560e01b81146129ed57630e68f76360e01b0361298257915091508160041161033f57610489916129e39190810190600401612818565b9550935091612be7565b50925080915060041161033f578160046129e39261048994019101612818565b604051602081019160018060a01b031682527f5a26911361a4f7d1113b7c86427c27a3b1f9b14ce40a4a7f6ac88540b70192c4604082015260408152612a5460608261130b565b5190206040519060208201928352604082015260408152612a7660608261130b565b5190205490565b604051602081019160018060a01b031682527f5a26911361a4f7d1113b7c86427c27a3b1f9b14ce40a4a7f6ac88540b70192c3604082015260408152612a7660608261130b565b9081602091031261033f57516104898161034f565b612ae4600154610343565b6001600160a01b03811691908215908115612b7b575b50610bb457602060049260405193848092633d87f9db60e11b82525afa918215611267575f92612b4a575b506001600160a01b03821615828115612b40575b50610bb457565b90503b155f612b39565b612b6d91925060203d602011612b74575b612b65818361130b565b810190612ac4565b905f612b25565b503d612b5b565b90503b155f612afa565b916104899391612b9493612d17565b90929192612d99565b60405190612bac60408361130b565b600d82526c1099585b5a5bd058d8dbdd5b9d609a1b6020830152565b60405190612bd760408361130b565b60018252603160f81b6020830152565b9390929192824211612d0e576041825103612d0e576104899461258394612c73612d09936104cc61271d9760405194859360208501973089919260ff60a094979695929760c08501987f837ef0773534ba8150c37cf0d2dd5fa292583e8be6494c5226a2ab5cb65d32938652600180881b03166020860152166040840152606083015260808201520152565b519020612c7e612b9d565b602081519101206104cc612ce9612c93612bc8565b8051602091820120604080517f8b73c3c69bb8fe3d512ecc4cf759cc79239f7b179b0ffacaa9a75d522b39400f9381019384529081019590955260608501524660808501523060a08501529291829060c0820190565b5190206042916040519161190160f01b8352600283015260228201522090565b612e15565b50505050505f90565b91906fa2a8918ca85bafe22016d0b997e4df60600160ff1b038411612d84579160209360809260ff5f9560405194855216868401526040830152606082015282805260015afa15611267575f516001600160a01b03811615612d7a57905f905f90565b505f906001905f90565b5050505f9160039190565b60041115611c3f57565b612da281612d8f565b80612dab575050565b612db481612d8f565b60018103612dcb5763f645eedf60e01b5f5260045ffd5b612dd481612d8f565b60028103612def575063fce698f760e01b5f5260045260245ffd5b80612dfb600392612d8f565b14612e035750565b6335e2f38360e21b5f5260045260245ffd5b815161048992612b94926040198301612e4c57612e459250602082015190606060408401519301515f1a90612d17565b9192909190565b50505f916002919056fec2575a0e9e593c00f959f8c92f12db2869c3395a3b0502d05e2516446f71f85b333c7678baf16017cf31e1d2f90143a62aab01a67a0807f6836a4304ceabb555a164736f6c6343000821000a34bce51e81ccc5ca6cb9c21024c6824f3a4711ae2d1e6e8e4881317ff6d1c41394090355cefa089509f2588ee4b2bb59a298fb3659084d51fb9031be473778fa37ba2134170b95d2cb7f7e41093c80ce20a19e466c3dd2939bd456ce2cec7fba1035a5c44e0932a54b0af2c52298155a2bc48c13d047de762440626fb8e1d0416aef46ee3c64427223c083525f2408ad9ab39ea6d416ad7bfeea85b03e50f0fb5027c4b670b4a61cdc311f2d8a549433d50dc417da4b2b1d56d825ff023f6168a164736f6c6343000821000a",
  "linkReferences": {},
  "deployedLinkReferences": {},
  "immutableReferences": {
    "2806": [
      {
        "length": 32,
        "start": 2758
      },
      {
        "length": 32,
        "start": 5772
      }
    ]
  },
  "inputSourceName": "project/src/BeamioAccount/BeamioFactoryPaymasterV07.sol",
  "buildInfoId": "solc-0_8_33-56170ff1ebd11644a7a1576f43389561575f5807"
}