{
  "_format": "hh3-artifact-1",
  "contractName": "BeamioAccount",
  "sourceName": "src/BeamioAccount/BeamioAccount.sol",
  "abi": [
    {
      "inputs": [
        {
          "internalType": "contract IEntryPointV07",
          "name": "ep",
          "type": "address"
        }
      ],
      "stateMutability": "nonpayable",
      "type": "constructor"
    },
    {
      "inputs": [],
      "name": "AlreadyInitialized",
      "type": "error"
    },
    {
      "inputs": [],
      "name": "ECDSAInvalidSignature",
      "type": "error"
    },
    {
      "inputs": [
        {
          "internalType": "uint256",
          "name": "length",
          "type": "uint256"
        }
      ],
      "name": "ECDSAInvalidSignatureLength",
      "type": "error"
    },
    {
      "inputs": [
        {
          "internalType": "bytes32",
          "name": "s",
          "type": "bytes32"
        }
      ],
      "name": "ECDSAInvalidSignatureS",
      "type": "error"
    },
    {
      "inputs": [],
      "name": "LenMismatch",
      "type": "error"
    },
    {
      "inputs": [],
      "name": "NotAuthorized",
      "type": "error"
    },
    {
      "inputs": [],
      "name": "NotEntryPoint",
      "type": "error"
    },
    {
      "inputs": [],
      "name": "NotFactory",
      "type": "error"
    },
    {
      "inputs": [
        {
          "internalType": "address",
          "name": "got",
          "type": "address"
        },
        {
          "internalType": "address",
          "name": "expected",
          "type": "address"
        }
      ],
      "name": "PMD_BadPaymaster",
      "type": "error"
    },
    {
      "inputs": [
        {
          "internalType": "uint256",
          "name": "len",
          "type": "uint256"
        }
      ],
      "name": "PMD_TooShort",
      "type": "error"
    },
    {
      "inputs": [],
      "name": "ZeroAddress",
      "type": "error"
    },
    {
      "anonymous": false,
      "inputs": [
        {
          "indexed": true,
          "internalType": "address",
          "name": "oldFactory",
          "type": "address"
        },
        {
          "indexed": true,
          "internalType": "address",
          "name": "newFactory",
          "type": "address"
        }
      ],
      "name": "FactoryUpdated",
      "type": "event"
    },
    {
      "anonymous": false,
      "inputs": [
        {
          "indexed": true,
          "internalType": "address",
          "name": "owner",
          "type": "address"
        },
        {
          "indexed": true,
          "internalType": "address",
          "name": "factory",
          "type": "address"
        },
        {
          "indexed": false,
          "internalType": "address",
          "name": "entryPoint",
          "type": "address"
        }
      ],
      "name": "Initialized",
      "type": "event"
    },
    {
      "anonymous": false,
      "inputs": [
        {
          "indexed": true,
          "internalType": "bytes32",
          "name": "managersHash",
          "type": "bytes32"
        },
        {
          "indexed": false,
          "internalType": "uint256",
          "name": "threshold",
          "type": "uint256"
        }
      ],
      "name": "ThresholdPolicyUpdated",
      "type": "event"
    },
    {
      "inputs": [
        {
          "internalType": "string",
          "name": "code",
          "type": "string"
        }
      ],
      "name": "cancelFaucetPool",
      "outputs": [],
      "stateMutability": "nonpayable",
      "type": "function"
    },
    {
      "inputs": [
        {
          "internalType": "string",
          "name": "code",
          "type": "string"
        }
      ],
      "name": "cancelFaucetPoolFromEntryPoint",
      "outputs": [],
      "stateMutability": "nonpayable",
      "type": "function"
    },
    {
      "inputs": [
        {
          "internalType": "string",
          "name": "code",
          "type": "string"
        }
      ],
      "name": "cancelRedeem",
      "outputs": [],
      "stateMutability": "nonpayable",
      "type": "function"
    },
    {
      "inputs": [
        {
          "internalType": "string",
          "name": "code",
          "type": "string"
        }
      ],
      "name": "cancelRedeemFromEntryPoint",
      "outputs": [],
      "stateMutability": "nonpayable",
      "type": "function"
    },
    {
      "inputs": [
        {
          "internalType": "address",
          "name": "beneficiary",
          "type": "address"
        },
        {
          "internalType": "uint256",
          "name": "index",
          "type": "uint256"
        }
      ],
      "name": "cancelReserve",
      "outputs": [],
      "stateMutability": "nonpayable",
      "type": "function"
    },
    {
      "inputs": [
        {
          "internalType": "address",
          "name": "beneficiary",
          "type": "address"
        },
        {
          "internalType": "uint256",
          "name": "index",
          "type": "uint256"
        }
      ],
      "name": "cancelReserveFromEntryPoint",
      "outputs": [],
      "stateMutability": "nonpayable",
      "type": "function"
    },
    {
      "inputs": [
        {
          "internalType": "address",
          "name": "to",
          "type": "address"
        },
        {
          "components": [
            {
              "internalType": "enum AssetKind",
              "name": "kind",
              "type": "uint8"
            },
            {
              "internalType": "address",
              "name": "asset",
              "type": "address"
            },
            {
              "internalType": "uint256",
              "name": "amount",
              "type": "uint256"
            },
            {
              "internalType": "uint256",
              "name": "tokenId",
              "type": "uint256"
            },
            {
              "internalType": "bytes",
              "name": "data",
              "type": "bytes"
            }
          ],
          "internalType": "struct ContainerItem[]",
          "name": "items",
          "type": "tuple[]"
        },
        {
          "internalType": "uint256",
          "name": "nonce_",
          "type": "uint256"
        },
        {
          "internalType": "uint256",
          "name": "deadline_",
          "type": "uint256"
        },
        {
          "internalType": "bytes",
          "name": "sig",
          "type": "bytes"
        }
      ],
      "name": "containerMainRelayed",
      "outputs": [],
      "stateMutability": "nonpayable",
      "type": "function"
    },
    {
      "inputs": [
        {
          "internalType": "address",
          "name": "to",
          "type": "address"
        },
        {
          "components": [
            {
              "internalType": "enum AssetKind",
              "name": "kind",
              "type": "uint8"
            },
            {
              "internalType": "address",
              "name": "asset",
              "type": "address"
            },
            {
              "internalType": "uint256",
              "name": "amount",
              "type": "uint256"
            },
            {
              "internalType": "uint256",
              "name": "tokenId",
              "type": "uint256"
            },
            {
              "internalType": "bytes",
              "name": "data",
              "type": "bytes"
            }
          ],
          "internalType": "struct ContainerItem[]",
          "name": "items",
          "type": "tuple[]"
        },
        {
          "internalType": "uint256",
          "name": "nonce_",
          "type": "uint256"
        },
        {
          "internalType": "uint256",
          "name": "deadline_",
          "type": "uint256"
        },
        {
          "internalType": "bytes",
          "name": "sig",
          "type": "bytes"
        }
      ],
      "name": "containerMainRelayedFromEntryPoint",
      "outputs": [],
      "stateMutability": "nonpayable",
      "type": "function"
    },
    {
      "inputs": [
        {
          "internalType": "address",
          "name": "to",
          "type": "address"
        },
        {
          "components": [
            {
              "internalType": "enum AssetKind",
              "name": "kind",
              "type": "uint8"
            },
            {
              "internalType": "address",
              "name": "asset",
              "type": "address"
            },
            {
              "internalType": "uint256",
              "name": "amount",
              "type": "uint256"
            },
            {
              "internalType": "uint256",
              "name": "tokenId",
              "type": "uint256"
            },
            {
              "internalType": "bytes",
              "name": "data",
              "type": "bytes"
            }
          ],
          "internalType": "struct ContainerItem[]",
          "name": "items",
          "type": "tuple[]"
        },
        {
          "internalType": "uint8",
          "name": "currencyType",
          "type": "uint8"
        },
        {
          "internalType": "uint256",
          "name": "maxAmount",
          "type": "uint256"
        },
        {
          "internalType": "uint256",
          "name": "nonce_",
          "type": "uint256"
        },
        {
          "internalType": "uint256",
          "name": "deadline_",
          "type": "uint256"
        },
        {
          "internalType": "bytes",
          "name": "sig",
          "type": "bytes"
        }
      ],
      "name": "containerMainRelayedOpen",
      "outputs": [],
      "stateMutability": "nonpayable",
      "type": "function"
    },
    {
      "inputs": [
        {
          "internalType": "address",
          "name": "to",
          "type": "address"
        },
        {
          "components": [
            {
              "internalType": "enum AssetKind",
              "name": "kind",
              "type": "uint8"
            },
            {
              "internalType": "address",
              "name": "asset",
              "type": "address"
            },
            {
              "internalType": "uint256",
              "name": "amount",
              "type": "uint256"
            },
            {
              "internalType": "uint256",
              "name": "tokenId",
              "type": "uint256"
            },
            {
              "internalType": "bytes",
              "name": "data",
              "type": "bytes"
            }
          ],
          "internalType": "struct ContainerItem[]",
          "name": "items",
          "type": "tuple[]"
        },
        {
          "internalType": "uint8",
          "name": "currencyType",
          "type": "uint8"
        },
        {
          "internalType": "uint256",
          "name": "maxAmount",
          "type": "uint256"
        },
        {
          "internalType": "uint256",
          "name": "nonce_",
          "type": "uint256"
        },
        {
          "internalType": "uint256",
          "name": "deadline_",
          "type": "uint256"
        },
        {
          "internalType": "bytes",
          "name": "sig",
          "type": "bytes"
        }
      ],
      "name": "containerMainRelayedOpenFromEntryPoint",
      "outputs": [],
      "stateMutability": "nonpayable",
      "type": "function"
    },
    {
      "inputs": [
        {
          "internalType": "address",
          "name": "pointsTo",
          "type": "address"
        },
        {
          "components": [
            {
              "internalType": "enum AssetKind",
              "name": "kind",
              "type": "uint8"
            },
            {
              "internalType": "address",
              "name": "asset",
              "type": "address"
            },
            {
              "internalType": "uint256",
              "name": "amount",
              "type": "uint256"
            },
            {
              "internalType": "uint256",
              "name": "tokenId",
              "type": "uint256"
            },
            {
              "internalType": "bytes",
              "name": "data",
              "type": "bytes"
            }
          ],
          "internalType": "struct ContainerItem[]",
          "name": "items",
          "type": "tuple[]"
        },
        {
          "internalType": "uint8",
          "name": "currencyType",
          "type": "uint8"
        },
        {
          "internalType": "uint256",
          "name": "maxAmount",
          "type": "uint256"
        },
        {
          "internalType": "uint256",
          "name": "nonce_",
          "type": "uint256"
        },
        {
          "internalType": "uint256",
          "name": "deadline_",
          "type": "uint256"
        },
        {
          "internalType": "bytes",
          "name": "sig",
          "type": "bytes"
        }
      ],
      "name": "containerMainRelayedOpenUsdcTopupThenPoints",
      "outputs": [],
      "stateMutability": "nonpayable",
      "type": "function"
    },
    {
      "inputs": [
        {
          "internalType": "address",
          "name": "pointsTo",
          "type": "address"
        },
        {
          "components": [
            {
              "internalType": "enum AssetKind",
              "name": "kind",
              "type": "uint8"
            },
            {
              "internalType": "address",
              "name": "asset",
              "type": "address"
            },
            {
              "internalType": "uint256",
              "name": "amount",
              "type": "uint256"
            },
            {
              "internalType": "uint256",
              "name": "tokenId",
              "type": "uint256"
            },
            {
              "internalType": "bytes",
              "name": "data",
              "type": "bytes"
            }
          ],
          "internalType": "struct ContainerItem[]",
          "name": "items",
          "type": "tuple[]"
        },
        {
          "internalType": "uint8",
          "name": "currencyType",
          "type": "uint8"
        },
        {
          "internalType": "uint256",
          "name": "maxAmount",
          "type": "uint256"
        },
        {
          "internalType": "uint256",
          "name": "nonce_",
          "type": "uint256"
        },
        {
          "internalType": "uint256",
          "name": "deadline_",
          "type": "uint256"
        },
        {
          "internalType": "bytes",
          "name": "sig",
          "type": "bytes"
        }
      ],
      "name": "containerMainRelayedOpenUsdcTopupThenPointsFromEntryPoint",
      "outputs": [],
      "stateMutability": "nonpayable",
      "type": "function"
    },
    {
      "inputs": [
        {
          "internalType": "bytes32",
          "name": "passwordHash",
          "type": "bytes32"
        },
        {
          "internalType": "uint32",
          "name": "totalCount",
          "type": "uint32"
        },
        {
          "internalType": "uint64",
          "name": "expiry",
          "type": "uint64"
        },
        {
          "components": [
            {
              "internalType": "enum AssetKind",
              "name": "kind",
              "type": "uint8"
            },
            {
              "internalType": "address",
              "name": "asset",
              "type": "address"
            },
            {
              "internalType": "uint256",
              "name": "amount",
              "type": "uint256"
            },
            {
              "internalType": "uint256",
              "name": "tokenId",
              "type": "uint256"
            },
            {
              "internalType": "bytes",
              "name": "data",
              "type": "bytes"
            }
          ],
          "internalType": "struct ContainerItem[]",
          "name": "items",
          "type": "tuple[]"
        }
      ],
      "name": "createFaucetPool",
      "outputs": [],
      "stateMutability": "nonpayable",
      "type": "function"
    },
    {
      "inputs": [
        {
          "internalType": "bytes32",
          "name": "passwordHash",
          "type": "bytes32"
        },
        {
          "internalType": "uint32",
          "name": "totalCount",
          "type": "uint32"
        },
        {
          "internalType": "uint64",
          "name": "expiry",
          "type": "uint64"
        },
        {
          "components": [
            {
              "internalType": "enum AssetKind",
              "name": "kind",
              "type": "uint8"
            },
            {
              "internalType": "address",
              "name": "asset",
              "type": "address"
            },
            {
              "internalType": "uint256",
              "name": "amount",
              "type": "uint256"
            },
            {
              "internalType": "uint256",
              "name": "tokenId",
              "type": "uint256"
            },
            {
              "internalType": "bytes",
              "name": "data",
              "type": "bytes"
            }
          ],
          "internalType": "struct ContainerItem[]",
          "name": "items",
          "type": "tuple[]"
        }
      ],
      "name": "createFaucetPoolFromEntryPoint",
      "outputs": [],
      "stateMutability": "nonpayable",
      "type": "function"
    },
    {
      "inputs": [
        {
          "internalType": "bytes32",
          "name": "passwordHash",
          "type": "bytes32"
        },
        {
          "internalType": "address",
          "name": "to",
          "type": "address"
        },
        {
          "components": [
            {
              "internalType": "enum AssetKind",
              "name": "kind",
              "type": "uint8"
            },
            {
              "internalType": "address",
              "name": "asset",
              "type": "address"
            },
            {
              "internalType": "uint256",
              "name": "amount",
              "type": "uint256"
            },
            {
              "internalType": "uint256",
              "name": "tokenId",
              "type": "uint256"
            },
            {
              "internalType": "bytes",
              "name": "data",
              "type": "bytes"
            }
          ],
          "internalType": "struct ContainerItem[]",
          "name": "items",
          "type": "tuple[]"
        },
        {
          "internalType": "uint64",
          "name": "expiry",
          "type": "uint64"
        }
      ],
      "name": "createRedeem",
      "outputs": [],
      "stateMutability": "nonpayable",
      "type": "function"
    },
    {
      "inputs": [
        {
          "internalType": "bytes32",
          "name": "passwordHash",
          "type": "bytes32"
        },
        {
          "internalType": "address",
          "name": "to",
          "type": "address"
        },
        {
          "components": [
            {
              "internalType": "enum AssetKind",
              "name": "kind",
              "type": "uint8"
            },
            {
              "internalType": "address",
              "name": "asset",
              "type": "address"
            },
            {
              "internalType": "uint256",
              "name": "amount",
              "type": "uint256"
            },
            {
              "internalType": "uint256",
              "name": "tokenId",
              "type": "uint256"
            },
            {
              "internalType": "bytes",
              "name": "data",
              "type": "bytes"
            }
          ],
          "internalType": "struct ContainerItem[]",
          "name": "items",
          "type": "tuple[]"
        },
        {
          "internalType": "uint64",
          "name": "expiry",
          "type": "uint64"
        }
      ],
      "name": "createRedeemFromEntryPoint",
      "outputs": [],
      "stateMutability": "nonpayable",
      "type": "function"
    },
    {
      "inputs": [
        {
          "components": [
            {
              "internalType": "enum AssetKind",
              "name": "kind",
              "type": "uint8"
            },
            {
              "internalType": "address",
              "name": "asset",
              "type": "address"
            },
            {
              "internalType": "uint256",
              "name": "amount",
              "type": "uint256"
            },
            {
              "internalType": "uint256",
              "name": "tokenId",
              "type": "uint256"
            },
            {
              "internalType": "bytes",
              "name": "data",
              "type": "bytes"
            }
          ],
          "internalType": "struct ContainerItem[]",
          "name": "items",
          "type": "tuple[]"
        },
        {
          "internalType": "address",
          "name": "beneficiary",
          "type": "address"
        },
        {
          "internalType": "uint32",
          "name": "cancelWindowSeconds",
          "type": "uint32"
        }
      ],
      "name": "createReserve",
      "outputs": [],
      "stateMutability": "nonpayable",
      "type": "function"
    },
    {
      "inputs": [
        {
          "components": [
            {
              "internalType": "enum AssetKind",
              "name": "kind",
              "type": "uint8"
            },
            {
              "internalType": "address",
              "name": "asset",
              "type": "address"
            },
            {
              "internalType": "uint256",
              "name": "amount",
              "type": "uint256"
            },
            {
              "internalType": "uint256",
              "name": "tokenId",
              "type": "uint256"
            },
            {
              "internalType": "bytes",
              "name": "data",
              "type": "bytes"
            }
          ],
          "internalType": "struct ContainerItem[]",
          "name": "items",
          "type": "tuple[]"
        },
        {
          "internalType": "address",
          "name": "beneficiary",
          "type": "address"
        },
        {
          "internalType": "uint32",
          "name": "cancelWindowSeconds",
          "type": "uint32"
        }
      ],
      "name": "createReserveFromEntryPoint",
      "outputs": [],
      "stateMutability": "nonpayable",
      "type": "function"
    },
    {
      "inputs": [],
      "name": "entryPoint",
      "outputs": [
        {
          "internalType": "contract IEntryPointV07",
          "name": "",
          "type": "address"
        }
      ],
      "stateMutability": "view",
      "type": "function"
    },
    {
      "inputs": [
        {
          "internalType": "address",
          "name": "beneficiary",
          "type": "address"
        },
        {
          "internalType": "uint256",
          "name": "index",
          "type": "uint256"
        }
      ],
      "name": "execReserve",
      "outputs": [],
      "stateMutability": "nonpayable",
      "type": "function"
    },
    {
      "inputs": [
        {
          "internalType": "address",
          "name": "dest",
          "type": "address"
        },
        {
          "internalType": "uint256",
          "name": "value",
          "type": "uint256"
        },
        {
          "internalType": "bytes",
          "name": "func",
          "type": "bytes"
        }
      ],
      "name": "execute",
      "outputs": [],
      "stateMutability": "nonpayable",
      "type": "function"
    },
    {
      "inputs": [
        {
          "internalType": "address[]",
          "name": "dest",
          "type": "address[]"
        },
        {
          "internalType": "uint256[]",
          "name": "value",
          "type": "uint256[]"
        },
        {
          "internalType": "bytes[]",
          "name": "func",
          "type": "bytes[]"
        }
      ],
      "name": "executeBatch",
      "outputs": [],
      "stateMutability": "nonpayable",
      "type": "function"
    },
    {
      "inputs": [
        {
          "internalType": "bytes",
          "name": "data",
          "type": "bytes"
        }
      ],
      "name": "executeFromFactory",
      "outputs": [],
      "stateMutability": "nonpayable",
      "type": "function"
    },
    {
      "inputs": [],
      "name": "factory",
      "outputs": [
        {
          "internalType": "address",
          "name": "",
          "type": "address"
        }
      ],
      "stateMutability": "view",
      "type": "function"
    },
    {
      "inputs": [
        {
          "internalType": "string",
          "name": "password",
          "type": "string"
        },
        {
          "internalType": "address",
          "name": "claimer",
          "type": "address"
        },
        {
          "internalType": "address",
          "name": "to",
          "type": "address"
        },
        {
          "components": [
            {
              "internalType": "enum AssetKind",
              "name": "kind",
              "type": "uint8"
            },
            {
              "internalType": "address",
              "name": "asset",
              "type": "address"
            },
            {
              "internalType": "uint256",
              "name": "amount",
              "type": "uint256"
            },
            {
              "internalType": "uint256",
              "name": "tokenId",
              "type": "uint256"
            },
            {
              "internalType": "bytes",
              "name": "data",
              "type": "bytes"
            }
          ],
          "internalType": "struct ContainerItem[]",
          "name": "items",
          "type": "tuple[]"
        }
      ],
      "name": "faucetRedeemPool",
      "outputs": [],
      "stateMutability": "nonpayable",
      "type": "function"
    },
    {
      "inputs": [
        {
          "internalType": "enum IBeamioAccountAssetBalanceV07.AssetKind",
          "name": "kind",
          "type": "uint8"
        },
        {
          "internalType": "address",
          "name": "asset",
          "type": "address"
        },
        {
          "internalType": "uint256",
          "name": "tokenId",
          "type": "uint256"
        }
      ],
      "name": "getAssetBalanceView",
      "outputs": [
        {
          "components": [
            {
              "internalType": "uint256",
              "name": "total",
              "type": "uint256"
            },
            {
              "internalType": "uint256",
              "name": "reserved",
              "type": "uint256"
            },
            {
              "internalType": "uint256",
              "name": "spendable",
              "type": "uint256"
            }
          ],
          "internalType": "struct IBeamioAccountAssetBalanceV07.AssetBalanceView",
          "name": "out",
          "type": "tuple"
        }
      ],
      "stateMutability": "view",
      "type": "function"
    },
    {
      "inputs": [
        {
          "internalType": "address",
          "name": "_owner",
          "type": "address"
        },
        {
          "internalType": "address[]",
          "name": "managersSorted",
          "type": "address[]"
        },
        {
          "internalType": "uint256",
          "name": "_threshold",
          "type": "uint256"
        },
        {
          "internalType": "address",
          "name": "_factory",
          "type": "address"
        }
      ],
      "name": "initialize",
      "outputs": [],
      "stateMutability": "nonpayable",
      "type": "function"
    },
    {
      "inputs": [
        {
          "internalType": "address",
          "name": "",
          "type": "address"
        }
      ],
      "name": "isThresholdManager",
      "outputs": [
        {
          "internalType": "bool",
          "name": "",
          "type": "bool"
        }
      ],
      "stateMutability": "view",
      "type": "function"
    },
    {
      "inputs": [
        {
          "internalType": "bytes32",
          "name": "hash",
          "type": "bytes32"
        },
        {
          "internalType": "bytes",
          "name": "signature",
          "type": "bytes"
        }
      ],
      "name": "isValidSignature",
      "outputs": [
        {
          "internalType": "bytes4",
          "name": "",
          "type": "bytes4"
        }
      ],
      "stateMutability": "view",
      "type": "function"
    },
    {
      "inputs": [
        {
          "internalType": "address",
          "name": "",
          "type": "address"
        },
        {
          "internalType": "address",
          "name": "",
          "type": "address"
        },
        {
          "internalType": "uint256[]",
          "name": "",
          "type": "uint256[]"
        },
        {
          "internalType": "uint256[]",
          "name": "",
          "type": "uint256[]"
        },
        {
          "internalType": "bytes",
          "name": "",
          "type": "bytes"
        }
      ],
      "name": "onERC1155BatchReceived",
      "outputs": [
        {
          "internalType": "bytes4",
          "name": "",
          "type": "bytes4"
        }
      ],
      "stateMutability": "nonpayable",
      "type": "function"
    },
    {
      "inputs": [
        {
          "internalType": "address",
          "name": "",
          "type": "address"
        },
        {
          "internalType": "address",
          "name": "",
          "type": "address"
        },
        {
          "internalType": "uint256",
          "name": "",
          "type": "uint256"
        },
        {
          "internalType": "uint256",
          "name": "",
          "type": "uint256"
        },
        {
          "internalType": "bytes",
          "name": "",
          "type": "bytes"
        }
      ],
      "name": "onERC1155Received",
      "outputs": [
        {
          "internalType": "bytes4",
          "name": "",
          "type": "bytes4"
        }
      ],
      "stateMutability": "nonpayable",
      "type": "function"
    },
    {
      "inputs": [],
      "name": "openRelayedNonce",
      "outputs": [
        {
          "internalType": "uint256",
          "name": "",
          "type": "uint256"
        }
      ],
      "stateMutability": "view",
      "type": "function"
    },
    {
      "inputs": [],
      "name": "owner",
      "outputs": [
        {
          "internalType": "address",
          "name": "",
          "type": "address"
        }
      ],
      "stateMutability": "view",
      "type": "function"
    },
    {
      "inputs": [
        {
          "internalType": "string",
          "name": "password",
          "type": "string"
        },
        {
          "internalType": "address",
          "name": "to",
          "type": "address"
        }
      ],
      "name": "redeem",
      "outputs": [],
      "stateMutability": "nonpayable",
      "type": "function"
    },
    {
      "inputs": [],
      "name": "relayedNonce",
      "outputs": [
        {
          "internalType": "uint256",
          "name": "",
          "type": "uint256"
        }
      ],
      "stateMutability": "view",
      "type": "function"
    },
    {
      "inputs": [
        {
          "internalType": "address",
          "name": "beneficiary",
          "type": "address"
        }
      ],
      "name": "searchReserve",
      "outputs": [
        {
          "internalType": "uint256[]",
          "name": "index",
          "type": "uint256[]"
        },
        {
          "internalType": "bytes[]",
          "name": "itemBundles",
          "type": "bytes[]"
        },
        {
          "internalType": "uint8[]",
          "name": "execStatus",
          "type": "uint8[]"
        },
        {
          "internalType": "string[]",
          "name": "statusLabel",
          "type": "string[]"
        }
      ],
      "stateMutability": "nonpayable",
      "type": "function"
    },
    {
      "inputs": [
        {
          "internalType": "address",
          "name": "newFactory",
          "type": "address"
        }
      ],
      "name": "setFactory",
      "outputs": [],
      "stateMutability": "nonpayable",
      "type": "function"
    },
    {
      "inputs": [
        {
          "internalType": "address[]",
          "name": "managersSorted",
          "type": "address[]"
        },
        {
          "internalType": "uint256",
          "name": "newThreshold",
          "type": "uint256"
        }
      ],
      "name": "setThresholdPolicy",
      "outputs": [],
      "stateMutability": "nonpayable",
      "type": "function"
    },
    {
      "inputs": [
        {
          "internalType": "address",
          "name": "to",
          "type": "address"
        },
        {
          "components": [
            {
              "internalType": "enum AssetKind",
              "name": "kind",
              "type": "uint8"
            },
            {
              "internalType": "address",
              "name": "asset",
              "type": "address"
            },
            {
              "internalType": "uint256",
              "name": "amount",
              "type": "uint256"
            },
            {
              "internalType": "uint256",
              "name": "tokenId",
              "type": "uint256"
            },
            {
              "internalType": "bytes",
              "name": "data",
              "type": "bytes"
            }
          ],
          "internalType": "struct ContainerItem[]",
          "name": "items",
          "type": "tuple[]"
        },
        {
          "internalType": "uint8",
          "name": "currencyType",
          "type": "uint8"
        },
        {
          "internalType": "uint256",
          "name": "maxAmount",
          "type": "uint256"
        },
        {
          "internalType": "uint256",
          "name": "nonce_",
          "type": "uint256"
        },
        {
          "internalType": "uint256",
          "name": "deadline_",
          "type": "uint256"
        },
        {
          "internalType": "bytes",
          "name": "sig",
          "type": "bytes"
        }
      ],
      "name": "simulateOpenContainer",
      "outputs": [
        {
          "internalType": "bool",
          "name": "ok",
          "type": "bool"
        },
        {
          "internalType": "string",
          "name": "reason",
          "type": "string"
        }
      ],
      "stateMutability": "view",
      "type": "function"
    },
    {
      "inputs": [
        {
          "internalType": "address",
          "name": "pointsTo",
          "type": "address"
        },
        {
          "components": [
            {
              "internalType": "enum AssetKind",
              "name": "kind",
              "type": "uint8"
            },
            {
              "internalType": "address",
              "name": "asset",
              "type": "address"
            },
            {
              "internalType": "uint256",
              "name": "amount",
              "type": "uint256"
            },
            {
              "internalType": "uint256",
              "name": "tokenId",
              "type": "uint256"
            },
            {
              "internalType": "bytes",
              "name": "data",
              "type": "bytes"
            }
          ],
          "internalType": "struct ContainerItem[]",
          "name": "items",
          "type": "tuple[]"
        },
        {
          "internalType": "uint8",
          "name": "currencyType",
          "type": "uint8"
        },
        {
          "internalType": "uint256",
          "name": "maxAmount",
          "type": "uint256"
        },
        {
          "internalType": "uint256",
          "name": "nonce_",
          "type": "uint256"
        },
        {
          "internalType": "uint256",
          "name": "deadline_",
          "type": "uint256"
        },
        {
          "internalType": "bytes",
          "name": "sig",
          "type": "bytes"
        }
      ],
      "name": "simulateOpenContainerUsdcTopupThenPoints",
      "outputs": [
        {
          "internalType": "bool",
          "name": "ok",
          "type": "bool"
        },
        {
          "internalType": "string",
          "name": "reason",
          "type": "string"
        }
      ],
      "stateMutability": "view",
      "type": "function"
    },
    {
      "inputs": [
        {
          "internalType": "bytes4",
          "name": "interfaceId",
          "type": "bytes4"
        }
      ],
      "name": "supportsInterface",
      "outputs": [
        {
          "internalType": "bool",
          "name": "",
          "type": "bool"
        }
      ],
      "stateMutability": "view",
      "type": "function"
    },
    {
      "inputs": [],
      "name": "threshold",
      "outputs": [
        {
          "internalType": "uint256",
          "name": "",
          "type": "uint256"
        }
      ],
      "stateMutability": "view",
      "type": "function"
    },
    {
      "inputs": [
        {
          "internalType": "uint256",
          "name": "",
          "type": "uint256"
        }
      ],
      "name": "thresholdManagers",
      "outputs": [
        {
          "internalType": "address",
          "name": "",
          "type": "address"
        }
      ],
      "stateMutability": "view",
      "type": "function"
    },
    {
      "inputs": [
        {
          "internalType": "address",
          "name": "beneficiary",
          "type": "address"
        },
        {
          "internalType": "uint256",
          "name": "index",
          "type": "uint256"
        }
      ],
      "name": "transferReserve",
      "outputs": [],
      "stateMutability": "nonpayable",
      "type": "function"
    },
    {
      "inputs": [
        {
          "components": [
            {
              "internalType": "address",
              "name": "sender",
              "type": "address"
            },
            {
              "internalType": "uint256",
              "name": "nonce",
              "type": "uint256"
            },
            {
              "internalType": "bytes",
              "name": "initCode",
              "type": "bytes"
            },
            {
              "internalType": "bytes",
              "name": "callData",
              "type": "bytes"
            },
            {
              "internalType": "bytes32",
              "name": "accountGasLimits",
              "type": "bytes32"
            },
            {
              "internalType": "uint256",
              "name": "preVerificationGas",
              "type": "uint256"
            },
            {
              "internalType": "bytes32",
              "name": "gasFees",
              "type": "bytes32"
            },
            {
              "internalType": "bytes",
              "name": "paymasterAndData",
              "type": "bytes"
            },
            {
              "internalType": "bytes",
              "name": "signature",
              "type": "bytes"
            }
          ],
          "internalType": "struct PackedUserOperation",
          "name": "userOp",
          "type": "tuple"
        },
        {
          "internalType": "bytes32",
          "name": "userOpHash",
          "type": "bytes32"
        },
        {
          "internalType": "uint256",
          "name": "missingAccountFunds",
          "type": "uint256"
        }
      ],
      "name": "validateUserOp",
      "outputs": [
        {
          "internalType": "uint256",
          "name": "validationData",
          "type": "uint256"
        }
      ],
      "stateMutability": "nonpayable",
      "type": "function"
    },
    {
      "stateMutability": "payable",
      "type": "receive"
    }
  ],
  "bytecode": "0x60a0346100d357601f612bc638819003918201601f19168301916001600160401b038311848410176100d7578084926020946040528339810103126100d357516001600160a01b03811681036100d357608052604051612ada90816100ec8239608051818181610568015281816106a2015281816107130152818161086a0152818161095901528181610a9701528181610cf601528181610dba01528181610f4b01528181610fec01528181611038015281816110ac0152818161166501528181611b4f01528181611bc20152611f290152f35b5f80fd5b634e487b7160e01b5f52604160045260245ffdfe6080604052600436101561001a575b3615610018575f80fd5b005b5f3560e01c806301ffc9a7146102e95780630acd4f6c146102e45780630c23008c146102df5780630e68f763146102da5780630eba3b4b146102d55780631626ba7e146102d057806317af07f3146102cb57806319822f7c146102c65780632ca632c0146102c15780632da802f0146102bc5780632e4515be146102b75780632ee8a7f8146102b25780633afce508146102ad57806342cde4e8146102a857806343378eb5146102a3578063458f09781461029e57806347e1da2a146102995780634b11a9c0146102945780635bb478081461028f5780635f7110ec1461028a578063714f37d9146102855780637980523f146102805780637f7ec81e1461027b5780638904efbf146102765780638da5cb5b14610271578063915d953f1461026c578063964cda87146102675780639b55e75014610262578063b0d691fe1461025d578063b61d27f614610258578063b81ab7bc14610253578063bc197c811461024e578063be4429b814610249578063bffb869514610244578063c45a01551461023f578063c58714851461023a578063cafd6a3d14610235578063cbc4e1aa14610230578063d7c4029c1461022b578063ddafb9a914610226578063e3b35c3014610221578063f23a6e611461021c578063f25950e014610217578063f6b76d6c146102125763f7a579a20361000e57611bae565b611b86565b611b3f565b611ae6565b611992565b611819565b61173b565b611713565b6116cd565b611531565b611509565b6114bf565b61147f565b6113e6565b611141565b611067565b611023565b610fd5565b610f9f565b610f29565b610f02565b610ed4565b610e0f565b610da8565b610d2d565b610ce2565b610c15565b610bcf565b610a24565b6109f2565b61093f565b610922565b6108d6565b6108a1565b61085a565b6107ec565b6107a5565b6106d9565b61066c565b61061a565b6105ae565b61054e565b61050e565b61047f565b3461033f57602036600319011261033f5760043563ffffffff60e01b811680910361033f57602090630271189760e51b811490811561032e575b506040519015158152f35b6301ffc9a760e01b1490505f610323565b5f80fd5b6001600160a01b031690565b6001600160a01b0381160361033f57565b9181601f8401121561033f578235916001600160401b03831161033f576020808501948460051b01011161033f57565b60ff81160361033f57565b9181601f8401121561033f578235916001600160401b03831161033f576020838186019501011161033f57565b9060e060031983011261033f576004356103e18161034f565b916024356001600160401b03811161033f578161040091600401610360565b9290929160443561041081610390565b91606435916084359160a4359160c435906001600160401b03821161033f5761043b9160040161039b565b9091565b805180835260209291819084018484015e5f828201840152601f01601f1916010190565b60409061047c939215158152816020820152019061043f565b90565b3461033f576104e16104d26104bf6104cd610499366103c8565b9560409a979a959195949294519a8b996302b353db60e21b60208c015260248b01611d23565b03601f1981018352826112de565b6123fc565b60208082518301019101611dc3565b906104f160405192839283610463565b0390f35b6001600160a01b03165f90815260026020526040902090565b3461033f57602036600319011261033f5760043561052b8161034f565b60018060a01b03165f526002602052602060ff60405f2054166040519015158152f35b3461033f5761055c366103c8565b969095919492939291907f00000000000000000000000000000000000000000000000000000000000000006001600160a01b0316330361059f5761001898611dfb565b636b31ba1560e11b5f5260045ffd5b3461033f57604036600319011261033f576004356105cb8161034f565b5f54602435906001600160a01b0316330361060b57610606610018926104bf604051938492630eba3b4b60e01b602085015260248401611e2b565b61244f565b63ea8e4eb560e01b5f5260045ffd5b3461033f57604036600319011261033f576004356024356001600160401b03811161033f5760209161065361065992369060040161039b565b91611e46565b6040516001600160e01b03199091168152f35b3461033f57604036600319011261033f576004356001600160401b03811161033f5761069c903690600401610360565b602435907f00000000000000000000000000000000000000000000000000000000000000006001600160a01b0316330361059f576100189261269c565b3461033f57606036600319011261033f576004356001600160401b03811161033f57610120600319823603011261033f57602435906044357f00000000000000000000000000000000000000000000000000000000000000006001600160a01b0316330361059f576104f19261075192600401611ece565b6040519081529081906020820190565b634e487b7160e01b5f52603260045260245ffd5b60035481101561078d5760035f5260205f2001905f90565b610761565b6001600160a01b03909116815260200190565b3461033f57602036600319011261033f5760043560035481101561033f5760035f525f516020612a8e5f395f51905f5201546040516001600160a01b039091168152602090f35b3461033f576107fa366103c8565b6001549097919692959394939291906001600160a01b031633036108215761001898611dfb565b631966391b60e11b5f5260045ffd5b602060031982011261033f57600435906001600160401b03821161033f5761043b9160040161039b565b3461033f5761086836610830565b7f00000000000000000000000000000000000000000000000000000000000000006001600160a01b0316330361059f5761001891611fe0565b3461033f576108af366103c8565b6001549097919692959394939291906001600160a01b03163303610821576100189861200d565b3461033f575f36600319011261033f57602061091a61090c60405163075f9ca160e31b84820152600481526104cd6024826112de565b82808251830101910161203a565b604051908152f35b3461033f575f36600319011261033f576020600454604051908152f35b3461033f5761094d366103c8565b969095919492939291907f00000000000000000000000000000000000000000000000000000000000000006001600160a01b0316330361059f576100189861200d565b9060a060031983011261033f576004356109a98161034f565b916024356001600160401b03811161033f57816109c891600401610360565b909290916044359160643591608435906001600160401b03821161033f5761043b9160040161039b565b3461033f57610a0036610990565b6001549095919492939291906001600160a01b031633036108215761001896612049565b3461033f57606036600319011261033f576004356001600160401b03811161033f57610a54903690600401610360565b6024356001600160401b03811161033f57610a73903690600401610360565b92906044356001600160401b03811161033f57610a94903690600401610360565b937f00000000000000000000000000000000000000000000000000000000000000006001600160a01b0316330361059f57858114801590610bc5575b610bb6575f5b818110610adf57005b610afa610af5610af08385896120b5565b6120c5565b610343565b15610ba757610b4b610b10610af08385896120b5565b610606610b1e848b896120b5565b35916104bf610b2e868c8a6120cf565b90604051958694631182259360e11b6020870152602486016120e6565b505f80610b5c610af084868a6120b5565b610b67848b896120b5565b35610b73858b896120cf565b9190610b846040518094819361210a565b03925af1610b90611e9f565b9015610b9f5750600101610ad6565b602081519101fd5b63d92e233d60e01b5f5260045ffd5b638b140a8160e01b5f5260045ffd5b5084811415610ad0565b3461033f57604036600319011261033f57610018600435610bef8161034f565b610606602435916104bf60405193849263012c46a760e61b602085015260248401611e2b565b3461033f57602036600319011261033f57600435610c328161034f565b6001546001600160a01b03811633819003610821576001600160a01b038316928315908115610c84575b50610ba75782905f516020612aae5f395f51905f525f80a36001600160a01b03191617600155005b90503b155f610c5c565b90608060031983011261033f576004359160243563ffffffff8116810361033f57916044356001600160401b038116810361033f5791606435906001600160401b03821161033f5761043b91600401610360565b3461033f57610cf036610c8e565b929091907f00000000000000000000000000000000000000000000000000000000000000006001600160a01b0316330361059f5761001894612117565b3461033f57610d3b36610830565b6001546001600160a01b031633036108215761001891610606913691611395565b606060031982011261033f57600435906001600160401b03821161033f57610d8691600401610360565b9091602435610d948161034f565b9060443563ffffffff8116810361033f5790565b3461033f57610db636610d5c565b90927f00000000000000000000000000000000000000000000000000000000000000006001600160a01b0316330361059f576104bf6106069261001895604051958694637980523f60e01b602087015260248601612166565b3461033f57608036600319011261033f576004356001600160401b03811161033f57610e3f90369060040161039b565b9060243591610e4d8361034f565b60443590610e5a8261034f565b6064356001600160401b03811161033f576100189461060693610e846104bf933690600401610360565b91610eac604051988997633fbf640f60e11b60208a0152608060248a015260a4890191611c1c565b6001600160a01b03948516604488015293166064860152848303602319016084860152611c3c565b3461033f57610ee236610c8e565b5f549093919291906001600160a01b0316330361060b5761001894612117565b3461033f575f36600319011261033f575f546040516001600160a01b039091168152602090f35b3461033f57604036600319011261033f57600435610f468161034f565b6024357f00000000000000000000000000000000000000000000000000000000000000006001600160a01b0316330361059f57610606610018926104bf60405193849263915d953f60e01b602085015260248401611e2b565b3461033f575f36600319011261033f57602061091a61090c60405163964cda8760e01b84820152600481526104cd6024826112de565b3461033f57610fe336610990565b949093919291907f00000000000000000000000000000000000000000000000000000000000000006001600160a01b0316330361059f5761001896612049565b3461033f575f36600319011261033f576040517f00000000000000000000000000000000000000000000000000000000000000006001600160a01b03168152602090f35b3461033f57606036600319011261033f576004356110848161034f565b602435906044356001600160401b03811161033f576110a790369060040161039b565b9091907f00000000000000000000000000000000000000000000000000000000000000006001600160a01b0316330361059f576001600160a01b03821615610ba7575f938493611114604051631182259360e11b6020820152610606816104bf8786888b602486016120e6565b50826040519384928337810185815203925af161112f611e9f565b9015610b9f57005b6002111561033f57565b3461033f57606036600319011261033f5760043561115e81611137565b60243561116a8161034f565b60443590611176612199565b6001600160a01b038216939092908415610ba75761119381611c0d565b61125f57506111a19061286f565b6020820152602060405180936370a0823160e01b825281806111c63060048301610792565b03915afa801561125a576104f1925f9161122b575b5081525b8051602082015180821115611223576111f7916121e6565b604082015260405191829182919091604080606083019480518452602081015160208501520151910152565b50505f6111f7565b61124d915060203d602011611253575b61124581836112de565b81019061203a565b5f6111db565b503d61123b565b6121c7565b61128e9361126f826020946127ff565b838501526040518080968194627eeac760e11b83523060048401611e2b565b03915afa801561125a576104f1925f916112ab575b5081526111df565b6112c4915060203d6020116112535761124581836112de565b5f6112a3565b634e487b7160e01b5f52604160045260245ffd5b601f909101601f19168101906001600160401b0382119082101761130157604052565b6112ca565b6001600160401b0381116113015760051b60200190565b9080601f8301121561033f57813561133481611306565b9261134260405194856112de565b81845260208085019260051b82010192831161033f57602001905b82821061136a5750505090565b813581526020918201910161135d565b6001600160401b03811161130157601f01601f191660200190565b9291926113a18261137a565b916113af60405193846112de565b82948184528183011161033f578281602093845f960137010152565b9080601f8301121561033f5781602061047c93359101611395565b3461033f5760a036600319011261033f5761140260043561034f565b61140d60243561034f565b6044356001600160401b03811161033f5761142c90369060040161131d565b506064356001600160401b03811161033f5761144c90369060040161131d565b506084356001600160401b03811161033f5761146c9036906004016113cb565b5060405163bc197c8160e01b8152602090f35b3461033f576104e16104d26104bf6104cd611499366103c8565b9560409a979a959195949294519a8b996317c8853760e31b60208c015260248b01611d23565b3461033f576114cd36610d5c565b5f54919390916001600160a01b0316330361060b576104bf610606926100189560405195869463bffb869560e01b602087015260248601612166565b3461033f575f36600319011261033f576001546040516001600160a01b039091168152602090f35b3461033f57608036600319011261033f5760043561154e8161034f565b6024356001600160401b03811161033f5761156d903690600401610360565b6044359160643561157d8161034f565b60055460ff166116bf576001600160a01b038516908115610ba7576001600160a01b03811691821580156116b6575b610ba757841561060b57806115c7610af5610af088886120ac565b0361060b57851580156116ad575b61060b5761163a8392611618610018996115f7600160ff196005541617600555565b5f80546001600160a01b0319166001600160a01b0392909216919091179055565b600180546001600160a01b0319166001600160a01b0392909216919091179055565b6040517fad307780531f6353137c35adc50ad58d71b76e76aa891e729387f2e720f2de2090806116937f00000000000000000000000000000000000000000000000000000000000000006001600160a01b031682610792565b0390a35f5f516020612aae5f395f51905f528180a361269c565b508486116115d5565b50813b156115ac565b62dc149f60e41b5f5260045ffd5b3461033f57604036600319011261033f576100186004356116ed8161034f565b610606602435916104bf60405193849263cafd6a3d60e01b602085015260248401611e2b565b3461033f5761172136610830565b5f546001600160a01b0316330361060b57610018916121f8565b3461033f57604036600319011261033f576004356001600160401b03811161033f5761060661177161001892369060040161039b565b6024929192356117808161034f565b6117a76040519485936335f100a760e21b6020860152604060248601526064850191611c1c565b6001600160a01b0391909116604483015203601f1981018352826112de565b608060031982011261033f57600435916024356117e28161034f565b91604435906001600160401b03821161033f5761180191600401610360565b90916064356001600160401b038116810361033f5790565b3461033f57611827366117c6565b5f549093919291906001600160a01b0316330361060b5761001894612225565b90602080835192838152019201905f5b8181106118645750505090565b825160ff16845260209384019390920191600101611857565b9080602083519182815201916020808360051b8301019401925f915b8383106118a857505050505090565b90919293946020806118c6600193601f19868203018752895161043f565b97019301930191939290611899565b92949391909460808401608085528651809152602060a086019701905f5b81811061197c575050508386036020850152815180875260208701906020808260051b8a01019401915f905b828210611950575050505061047c94955090611942918482036040860152611847565b91606081840391015261187d565b9091929460208061196e6001938d601f19908203018652895161043f565b97019201920190929161191f565b82518952602098890198909201916001016118f3565b3461033f57602036600319011261033f576119e36004356119b28161034f565b604051630e3b35c360e41b60208201526001600160a01b0390911660248083019190915281526106066044826112de565b80518101906080816020840193031261033f5760208101516001600160401b03811161033f5781019082603f8301121561033f57602082015191611a2683611306565b92611a3460405194856112de565b8084526020808086019260051b840101019185831161033f57604001905b828210611ad65750505060408101516001600160401b03811161033f57836020611a7e92840101612288565b60608201519093906001600160401b03811161033f57816020611aa392850101612317565b608083015190916001600160401b03821161033f576020611ac9926104f195010161237e565b90604051948594856118d5565b8151815260209182019101611a52565b3461033f5760a036600319011261033f57611b0260043561034f565b611b0d60243561034f565b6084356001600160401b03811161033f57611b2c9036906004016113cb565b5060405163f23a6e6160e01b8152602090f35b3461033f57611b4d36610830565b7f00000000000000000000000000000000000000000000000000000000000000006001600160a01b0316330361059f57610018916121f8565b3461033f57611b9436610830565b5f546001600160a01b0316330361060b5761001891611fe0565b3461033f57611bbc366117c6565b929091907f00000000000000000000000000000000000000000000000000000000000000006001600160a01b0316330361059f5761001894612225565b634e487b7160e01b5f52602160045260245ffd5b60021115611c1757565b611bf9565b908060209392818452848401375f828201840152601f01601f1916010190565b906020838281520160208260051b85010193835f915b848310611c625750505050505090565b909192939495601f198282030185528635609e198436030181121561033f5783018035611c8e81611137565b611c9781611c0d565b82526020810135611ca78161034f565b6001600160a01b031660208301526040818101359083015260608082013590830152608081013536829003601e190181121561033f57016020810190356001600160401b03811161033f57803603821361033f57611d15602092839260a08681608060019901520191611c1c565b980196950193019190611c52565b9491611d509061047c9a989599979460ff9360018060a01b0316885260e0602089015260e0880191611c3c565b971660408501526060840152608083015260a082015260c0818503910152611c1c565b929192611d7f8261137a565b91611d8d60405193846112de565b82948184528183011161033f578281602093845f96015e010152565b9080601f8301121561033f57815161047c92602001611d73565b91909160408184031261033f578051801515810361033f5760208201519093906001600160401b03811161033f5761047c9201611da9565b946104bf94611e289994610606989399946040519a8b996302da802f60e41b60208c015260248b01611d23565b50565b6001600160a01b039091168152602081019190915260400190565b90611e5192916124a1565b15611e6157630b135d3f60e11b90565b6001600160e01b031990565b903590601e198136030182121561033f57018035906001600160401b03821161033f5760200191813603831361033f57565b3d15611ec9573d90611eb08261137a565b91611ebe60405193846112de565b82523d5f602084013e565b606090565b611ed9600154610343565b6001600160a01b038116151580611fc9575b611f67575b50611f1191611f0782610100611f0d940190611e6d565b916124a1565b1590565b611f615780611f1f57505f90565b5f908190819081907f00000000000000000000000000000000000000000000000000000000000000006001600160a01b03165af150611f5c611e9f565b505f90565b50600190565b611f7460e0830183611e6d565b60148110611fb757503560601c611f8a82610343565b8103611f965750611ef0565b63187efe2360e01b5f526001600160a01b039081166004521660245260445ffd5b631811743760e21b5f5260045260245ffd5b50611fd760e0830183611e6d565b90501515611eeb565b610606611e28926104bf604051938492633daddb5b60e21b60208501526020602485018181520191611c1c565b946104bf94611e289994610606989399946040519a8b996305dd14ff60e31b60208c015260248b01611d23565b9081602091031261033f575190565b6040516308b1e12f60e31b60208201526001600160a01b03909116602482015260a06044820152611e289690956106069587956104bf9590946120909160c4890191611c3c565b93606487015260848601526023198584030160a4860152611c1c565b901561078d5790565b919081101561078d5760051b0190565b3561047c8161034f565b9082101561078d5761043b9160051b810190611e6d565b61047c949260609260018060a01b0316825260208201528160408201520191611c1c565b908092918237015f815290565b90926104bf90611e28956106069463ffffffff604051978896638904efbf60e01b6020890152602488015216604486015260018060401b031660648501526080608485015260a4840191611c3c565b92949361218363ffffffff92604094606087526060870191611c3c565b6001600160a01b03909616602085015216910152565b60405190606082016001600160401b03811183821017611301576040525f6040838281528260208201520152565b6040513d5f823e3d90fd5b634e487b7160e01b5f52601160045260245ffd5b919082039182116121f357565b6121d2565b610606611e28926104bf6040519384926365e270d560e11b60208501526020602485018181520191611c1c565b90929361226961060693611e289660405196879563ddafb9a960e01b6020880152602487015260018060a01b031660448601526080606486015260a4850191611c3c565b6001600160401b0391909116608483015203601f1981018352826112de565b81601f8201121561033f5780519061229f82611306565b926122ad60405194856112de565b82845260208085019360051b8301019181831161033f5760208101935b8385106122d957505050505090565b84516001600160401b03811161033f57820183603f8201121561033f5760209161230c8583604086809601519101611d73565b8152019401936122ca565b9080601f8301121561033f57815161232e81611306565b9261233c60405194856112de565b81845260208085019260051b82010192831161033f57602001905b8282106123645750505090565b60208091835161237381610390565b815201910190612357565b9080601f8301121561033f57815161239581611306565b926123a360405194856112de565b81845260208085019260051b8201019183831161033f5760208201905b8382106123cf57505050505090565b81516001600160401b03811161033f576020916123f187848094880101611da9565b8152019101906123c0565b5f80916124076128cb565b9060405161243a60146020838180820196805191829101885e81013060601b838201520301600b198101845201826112de565b51915afa612446611e9f565b9015610b9f5790565b5f809161245a6128cb565b602082519201905af4612446611e9f565b906041820291808304604114901517156121f357565b60ff601b9116019060ff82116121f357565b5f1981146121f35760010190565b90916124b2611f0d60055460ff1690565b80156125c4575b6125bd57604181066125bd576041900491600454918284106125b557612505907b0ca2ba3432b932bab69029b4b3b732b21026b2b9b9b0b3b29d05199960211b5f52601c52603c5f2090565b5f918291825b86811061251d57505050505050505f90565b6125496125298261246b565b840160408101355f1a601b81106125a7575b602082013591359085612977565b936001600160a01b03908116908516111561259c5761257161256a856104f5565b5460ff1690565b61257e575b60010161250b565b9361258890612493565b938585106125765750505050505050600190565b505050505050505f90565b6125b090612481565b61253b565b505050505f90565b5050505f90565b50600454156124b9565b6003545f600355806125dd5750565b60035f5260205f205f5b8281106125f357505050565b5f828201556001016125e7565b600354600160401b811015611301576001810160035560035481101561078d5760035f525f516020612a8e5f395f51905f520180546001600160a01b0319166001600160a01b03909216919091179055565b6040602082019160208152600354809352019060035f5260205f20905f5b81811061267d5750505090565b82546001600160a01b0316845260209093019260019283019201612670565b9190801561060b576126b1610af082856120ac565b6126be610af55f54610343565b6001600160a01b039091160361060b575f5b60035481101561271957806127136127096127046126ef600195610775565b905460039190911b1c6001600160a01b031690565b6104f5565b805460ff19169055565b016126d0565b5090916127246125ce565b5f915f5b81811061279757505050508015801561278c575b61060b576004556040516020810190612758816104bf84612652565b5190206004546040519081527fb96db730cba2eb08f2ce34a133b4cdaa9c3876aa06dfc81d4401d232f49bb88290602090a2565b50600354811161273c565b6127a5610af08284866120b5565b936001600160a01b03851680159182156127eb575b505061060b576001906127e5856127e06127d3826104f5565b805460ff19166001179055565b612600565b01612728565b6001600160a01b0316101590505f806127ba565b604051602081019160018060a01b031682527f5a26911361a4f7d1113b7c86427c27a3b1f9b14ce40a4a7f6ac88540b70192c46040820152604081526128466060826112de565b51902060405190602082019283526040820152604081526128686060826112de565b5190205490565b604051602081019160018060a01b031682527f5a26911361a4f7d1113b7c86427c27a3b1f9b14ce40a4a7f6ac88540b70192c36040820152604081526128686060826112de565b9081602091031261033f575161047c8161034f565b6128d6600154610343565b6001600160a01b0381169190821590811561296d575b50610ba757602060049260405193848092633d87f9db60e11b82525afa91821561125a575f9261293c575b506001600160a01b03821615828115612932575b50610ba757565b90503b155f61292b565b61295f91925060203d602011612966575b61295781836112de565b8101906128b6565b905f612917565b503d61294d565b90503b155f6128ec565b9161047c93916129869361298f565b90929192612a11565b91906fa2a8918ca85bafe22016d0b997e4df60600160ff1b0384116129fc579160209360809260ff5f9560405194855216868401526040830152606082015282805260015afa1561125a575f516001600160a01b038116156129f257905f905f90565b505f906001905f90565b5050505f9160039190565b60041115611c1757565b612a1a81612a07565b80612a23575050565b612a2c81612a07565b60018103612a435763f645eedf60e01b5f5260045ffd5b612a4c81612a07565b60028103612a67575063fce698f760e01b5f5260045260245ffd5b80612a73600392612a07565b14612a7b5750565b6335e2f38360e21b5f5260045260245ffdfec2575a0e9e593c00f959f8c92f12db2869c3395a3b0502d05e2516446f71f85b333c7678baf16017cf31e1d2f90143a62aab01a67a0807f6836a4304ceabb555a164736f6c6343000821000a",
  "linkReferences": {},
  "deployedLinkReferences": {},
  "immutableReferences": {
    "8659": [
      {
        "length": 32,
        "start": 1384
      },
      {
        "length": 32,
        "start": 1698
      },
      {
        "length": 32,
        "start": 1811
      },
      {
        "length": 32,
        "start": 2154
      },
      {
        "length": 32,
        "start": 2393
      },
      {
        "length": 32,
        "start": 2711
      },
      {
        "length": 32,
        "start": 3318
      },
      {
        "length": 32,
        "start": 3514
      },
      {
        "length": 32,
        "start": 3915
      },
      {
        "length": 32,
        "start": 4076
      },
      {
        "length": 32,
        "start": 4152
      },
      {
        "length": 32,
        "start": 4268
      },
      {
        "length": 32,
        "start": 5733
      },
      {
        "length": 32,
        "start": 6991
      },
      {
        "length": 32,
        "start": 7106
      },
      {
        "length": 32,
        "start": 7977
      }
    ]
  },
  "inputSourceName": "project/src/BeamioAccount/BeamioAccount.sol",
  "buildInfoId": "solc-0_8_33-2ee85a448d76d0e9db4864daa08ff93c5b8b0afd"
}