{
  "_format": "hh3-artifact-1",
  "contractName": "BeamioUserCard",
  "sourceName": "src/BeamioUserCard/BeamioUserCard.sol",
  "abi": [
    {
      "inputs": [
        {
          "internalType": "string",
          "name": "uri_",
          "type": "string"
        },
        {
          "internalType": "enum BeamioCurrency.CurrencyType",
          "name": "currency_",
          "type": "uint8"
        },
        {
          "internalType": "uint256",
          "name": "pointsUnitPriceInCurrencyE6_",
          "type": "uint256"
        },
        {
          "internalType": "address",
          "name": "initialOwner",
          "type": "address"
        },
        {
          "internalType": "address",
          "name": "gateway_",
          "type": "address"
        }
      ],
      "stateMutability": "nonpayable",
      "type": "constructor"
    },
    {
      "inputs": [],
      "name": "BM_NotAuthorized",
      "type": "error"
    },
    {
      "inputs": [],
      "name": "BM_ZeroAddress",
      "type": "error"
    },
    {
      "inputs": [
        {
          "internalType": "address",
          "name": "sender",
          "type": "address"
        },
        {
          "internalType": "uint256",
          "name": "balance",
          "type": "uint256"
        },
        {
          "internalType": "uint256",
          "name": "needed",
          "type": "uint256"
        },
        {
          "internalType": "uint256",
          "name": "tokenId",
          "type": "uint256"
        }
      ],
      "name": "ERC1155InsufficientBalance",
      "type": "error"
    },
    {
      "inputs": [
        {
          "internalType": "address",
          "name": "approver",
          "type": "address"
        }
      ],
      "name": "ERC1155InvalidApprover",
      "type": "error"
    },
    {
      "inputs": [
        {
          "internalType": "uint256",
          "name": "idsLength",
          "type": "uint256"
        },
        {
          "internalType": "uint256",
          "name": "valuesLength",
          "type": "uint256"
        }
      ],
      "name": "ERC1155InvalidArrayLength",
      "type": "error"
    },
    {
      "inputs": [
        {
          "internalType": "address",
          "name": "operator",
          "type": "address"
        }
      ],
      "name": "ERC1155InvalidOperator",
      "type": "error"
    },
    {
      "inputs": [
        {
          "internalType": "address",
          "name": "receiver",
          "type": "address"
        }
      ],
      "name": "ERC1155InvalidReceiver",
      "type": "error"
    },
    {
      "inputs": [
        {
          "internalType": "address",
          "name": "sender",
          "type": "address"
        }
      ],
      "name": "ERC1155InvalidSender",
      "type": "error"
    },
    {
      "inputs": [
        {
          "internalType": "address",
          "name": "operator",
          "type": "address"
        },
        {
          "internalType": "address",
          "name": "owner",
          "type": "address"
        }
      ],
      "name": "ERC1155MissingApprovalForAll",
      "type": "error"
    },
    {
      "inputs": [
        {
          "internalType": "address",
          "name": "owner",
          "type": "address"
        }
      ],
      "name": "OwnableInvalidOwner",
      "type": "error"
    },
    {
      "inputs": [
        {
          "internalType": "address",
          "name": "account",
          "type": "address"
        }
      ],
      "name": "OwnableUnauthorizedAccount",
      "type": "error"
    },
    {
      "inputs": [],
      "name": "ReentrancyGuardReentrantCall",
      "type": "error"
    },
    {
      "inputs": [],
      "name": "UC_AmountZero",
      "type": "error"
    },
    {
      "inputs": [],
      "name": "UC_BelowMinThreshold",
      "type": "error"
    },
    {
      "inputs": [],
      "name": "UC_GlobalMisconfigured",
      "type": "error"
    },
    {
      "inputs": [],
      "name": "UC_InvalidProposal",
      "type": "error"
    },
    {
      "inputs": [],
      "name": "UC_NoBeamioAccount",
      "type": "error"
    },
    {
      "inputs": [],
      "name": "UC_NotAdmin",
      "type": "error"
    },
    {
      "inputs": [],
      "name": "UC_PointsToNotWhitelisted",
      "type": "error"
    },
    {
      "inputs": [],
      "name": "UC_PriceZero",
      "type": "error"
    },
    {
      "inputs": [
        {
          "internalType": "bytes",
          "name": "data",
          "type": "bytes"
        }
      ],
      "name": "UC_RedeemDelegateFailed",
      "type": "error"
    },
    {
      "inputs": [],
      "name": "UC_RedeemModuleZero",
      "type": "error"
    },
    {
      "inputs": [
        {
          "internalType": "address",
          "name": "eoa",
          "type": "address"
        },
        {
          "internalType": "address",
          "name": "aaFactory",
          "type": "address"
        },
        {
          "internalType": "address",
          "name": "acct",
          "type": "address"
        }
      ],
      "name": "UC_ResolveAccountFailed",
      "type": "error"
    },
    {
      "inputs": [],
      "name": "UC_SBTNonTransferable",
      "type": "error"
    },
    {
      "inputs": [],
      "name": "UC_StatsModuleZero",
      "type": "error"
    },
    {
      "inputs": [],
      "name": "UC_TierLenMismatch",
      "type": "error"
    },
    {
      "inputs": [],
      "name": "UC_TierMinZero",
      "type": "error"
    },
    {
      "inputs": [],
      "name": "UC_UnauthorizedGateway",
      "type": "error"
    },
    {
      "anonymous": false,
      "inputs": [
        {
          "indexed": true,
          "internalType": "address",
          "name": "beneficiaryAccount",
          "type": "address"
        },
        {
          "indexed": true,
          "internalType": "uint256",
          "name": "tokenId",
          "type": "uint256"
        },
        {
          "indexed": false,
          "internalType": "uint256",
          "name": "attr",
          "type": "uint256"
        },
        {
          "indexed": false,
          "internalType": "uint256",
          "name": "expiry",
          "type": "uint256"
        }
      ],
      "name": "AdminCardMinted",
      "type": "event"
    },
    {
      "anonymous": false,
      "inputs": [
        {
          "indexed": true,
          "internalType": "address",
          "name": "beneficiaryAccount",
          "type": "address"
        },
        {
          "indexed": false,
          "internalType": "uint256",
          "name": "points6",
          "type": "uint256"
        }
      ],
      "name": "AdminPointsMinted",
      "type": "event"
    },
    {
      "anonymous": false,
      "inputs": [
        {
          "indexed": true,
          "internalType": "address",
          "name": "account",
          "type": "address"
        },
        {
          "indexed": true,
          "internalType": "address",
          "name": "operator",
          "type": "address"
        },
        {
          "indexed": false,
          "internalType": "bool",
          "name": "approved",
          "type": "bool"
        }
      ],
      "name": "ApprovalForAll",
      "type": "event"
    },
    {
      "anonymous": false,
      "inputs": [
        {
          "indexed": false,
          "internalType": "uint256",
          "name": "attr",
          "type": "uint256"
        }
      ],
      "name": "DefaultAttrUpdated",
      "type": "event"
    },
    {
      "anonymous": false,
      "inputs": [
        {
          "indexed": false,
          "internalType": "uint256",
          "name": "oldSecs",
          "type": "uint256"
        },
        {
          "indexed": false,
          "internalType": "uint256",
          "name": "newSecs",
          "type": "uint256"
        }
      ],
      "name": "ExpirySecondsUpdated",
      "type": "event"
    },
    {
      "anonymous": false,
      "inputs": [
        {
          "indexed": true,
          "internalType": "uint256",
          "name": "id",
          "type": "uint256"
        },
        {
          "indexed": true,
          "internalType": "address",
          "name": "userEOA",
          "type": "address"
        },
        {
          "indexed": true,
          "internalType": "address",
          "name": "acct",
          "type": "address"
        },
        {
          "indexed": false,
          "internalType": "uint256",
          "name": "amount",
          "type": "uint256"
        },
        {
          "indexed": false,
          "internalType": "uint256",
          "name": "claimedAfter",
          "type": "uint256"
        }
      ],
      "name": "FaucetClaimed",
      "type": "event"
    },
    {
      "anonymous": false,
      "inputs": [
        {
          "indexed": true,
          "internalType": "uint256",
          "name": "id",
          "type": "uint256"
        },
        {
          "components": [
            {
              "internalType": "uint64",
              "name": "validUntil",
              "type": "uint64"
            },
            {
              "internalType": "uint64",
              "name": "perClaimMax",
              "type": "uint64"
            },
            {
              "internalType": "uint128",
              "name": "maxPerUser",
              "type": "uint128"
            },
            {
              "internalType": "uint128",
              "name": "maxGlobal",
              "type": "uint128"
            },
            {
              "internalType": "bool",
              "name": "enabled",
              "type": "bool"
            },
            {
              "internalType": "uint8",
              "name": "currency",
              "type": "uint8"
            },
            {
              "internalType": "uint8",
              "name": "decimals",
              "type": "uint8"
            },
            {
              "internalType": "uint128",
              "name": "priceInCurrency6",
              "type": "uint128"
            }
          ],
          "indexed": false,
          "internalType": "struct FaucetStorage.FaucetConfig",
          "name": "cfg",
          "type": "tuple"
        }
      ],
      "name": "FaucetConfigUpdated",
      "type": "event"
    },
    {
      "anonymous": false,
      "inputs": [
        {
          "indexed": true,
          "internalType": "uint256",
          "name": "tokenId",
          "type": "uint256"
        },
        {
          "indexed": false,
          "internalType": "bytes32",
          "name": "title",
          "type": "bytes32"
        },
        {
          "indexed": false,
          "internalType": "uint64",
          "name": "validAfter",
          "type": "uint64"
        },
        {
          "indexed": false,
          "internalType": "uint64",
          "name": "validBefore",
          "type": "uint64"
        },
        {
          "indexed": false,
          "internalType": "uint256",
          "name": "maxSupply",
          "type": "uint256"
        },
        {
          "indexed": false,
          "internalType": "uint256",
          "name": "priceInCurrency6",
          "type": "uint256"
        },
        {
          "indexed": false,
          "internalType": "bytes32",
          "name": "sharedMetadataHash",
          "type": "bytes32"
        }
      ],
      "name": "IssuedNftCreated",
      "type": "event"
    },
    {
      "anonymous": false,
      "inputs": [
        {
          "indexed": true,
          "internalType": "uint256",
          "name": "tokenId",
          "type": "uint256"
        },
        {
          "indexed": true,
          "internalType": "address",
          "name": "recipient",
          "type": "address"
        },
        {
          "indexed": false,
          "internalType": "uint256",
          "name": "amount",
          "type": "uint256"
        }
      ],
      "name": "IssuedNftMinted",
      "type": "event"
    },
    {
      "anonymous": false,
      "inputs": [
        {
          "indexed": true,
          "internalType": "address",
          "name": "user",
          "type": "address"
        },
        {
          "indexed": true,
          "internalType": "uint256",
          "name": "tokenId",
          "type": "uint256"
        },
        {
          "indexed": false,
          "internalType": "uint256",
          "name": "tierIndexOrMax",
          "type": "uint256"
        },
        {
          "indexed": false,
          "internalType": "uint256",
          "name": "minUsdc6",
          "type": "uint256"
        },
        {
          "indexed": false,
          "internalType": "uint256",
          "name": "expiry",
          "type": "uint256"
        }
      ],
      "name": "MemberNFTIssued",
      "type": "event"
    },
    {
      "anonymous": false,
      "inputs": [
        {
          "indexed": true,
          "internalType": "address",
          "name": "user",
          "type": "address"
        },
        {
          "indexed": true,
          "internalType": "uint256",
          "name": "oldActiveTokenId",
          "type": "uint256"
        },
        {
          "indexed": true,
          "internalType": "uint256",
          "name": "newTokenId",
          "type": "uint256"
        },
        {
          "indexed": false,
          "internalType": "uint256",
          "name": "oldTierIndexOrMax",
          "type": "uint256"
        },
        {
          "indexed": false,
          "internalType": "uint256",
          "name": "newTierIndex",
          "type": "uint256"
        },
        {
          "indexed": false,
          "internalType": "uint256",
          "name": "newExpiry",
          "type": "uint256"
        }
      ],
      "name": "MemberNFTUpgraded",
      "type": "event"
    },
    {
      "anonymous": false,
      "inputs": [
        {
          "indexed": true,
          "internalType": "address",
          "name": "previousOwner",
          "type": "address"
        },
        {
          "indexed": true,
          "internalType": "address",
          "name": "newOwner",
          "type": "address"
        }
      ],
      "name": "OwnershipTransferred",
      "type": "event"
    },
    {
      "anonymous": false,
      "inputs": [
        {
          "indexed": true,
          "internalType": "address",
          "name": "userEOA",
          "type": "address"
        },
        {
          "indexed": true,
          "internalType": "address",
          "name": "acct",
          "type": "address"
        },
        {
          "indexed": false,
          "internalType": "uint256",
          "name": "points6",
          "type": "uint256"
        }
      ],
      "name": "PointsMintedByGateway",
      "type": "event"
    },
    {
      "anonymous": false,
      "inputs": [
        {
          "indexed": true,
          "internalType": "address",
          "name": "payerEOA",
          "type": "address"
        },
        {
          "indexed": true,
          "internalType": "address",
          "name": "beneficiaryAccount",
          "type": "address"
        },
        {
          "indexed": true,
          "internalType": "address",
          "name": "usdc",
          "type": "address"
        },
        {
          "indexed": false,
          "internalType": "uint256",
          "name": "usdcIn6",
          "type": "uint256"
        },
        {
          "indexed": false,
          "internalType": "uint256",
          "name": "pointsMinted6",
          "type": "uint256"
        },
        {
          "indexed": false,
          "internalType": "uint256",
          "name": "unitPointPriceUsdc6",
          "type": "uint256"
        },
        {
          "indexed": false,
          "internalType": "bytes32",
          "name": "nonce",
          "type": "bytes32"
        }
      ],
      "name": "PointsPurchasedWithUSDC",
      "type": "event"
    },
    {
      "anonymous": false,
      "inputs": [
        {
          "indexed": false,
          "internalType": "uint256",
          "name": "priceInCurrencyE6",
          "type": "uint256"
        }
      ],
      "name": "PointsUnitPriceUpdated",
      "type": "event"
    },
    {
      "anonymous": false,
      "inputs": [
        {
          "indexed": true,
          "internalType": "uint256",
          "name": "id",
          "type": "uint256"
        },
        {
          "indexed": true,
          "internalType": "address",
          "name": "admin",
          "type": "address"
        }
      ],
      "name": "ProposalApproved",
      "type": "event"
    },
    {
      "anonymous": false,
      "inputs": [
        {
          "indexed": true,
          "internalType": "uint256",
          "name": "id",
          "type": "uint256"
        },
        {
          "indexed": true,
          "internalType": "bytes4",
          "name": "selector",
          "type": "bytes4"
        },
        {
          "indexed": true,
          "internalType": "address",
          "name": "proposer",
          "type": "address"
        }
      ],
      "name": "ProposalCreated",
      "type": "event"
    },
    {
      "anonymous": false,
      "inputs": [
        {
          "indexed": true,
          "internalType": "uint256",
          "name": "id",
          "type": "uint256"
        }
      ],
      "name": "ProposalExecuted",
      "type": "event"
    },
    {
      "anonymous": false,
      "inputs": [
        {
          "indexed": true,
          "internalType": "bytes32",
          "name": "hash",
          "type": "bytes32"
        }
      ],
      "name": "RedeemCancelled",
      "type": "event"
    },
    {
      "anonymous": false,
      "inputs": [
        {
          "indexed": true,
          "internalType": "bytes32",
          "name": "hash",
          "type": "bytes32"
        },
        {
          "indexed": false,
          "internalType": "uint256",
          "name": "points6",
          "type": "uint256"
        },
        {
          "indexed": false,
          "internalType": "uint256",
          "name": "attr",
          "type": "uint256"
        }
      ],
      "name": "RedeemCreated",
      "type": "event"
    },
    {
      "anonymous": false,
      "inputs": [
        {
          "indexed": false,
          "internalType": "uint256",
          "name": "index",
          "type": "uint256"
        },
        {
          "indexed": false,
          "internalType": "uint256",
          "name": "minUsdc6",
          "type": "uint256"
        },
        {
          "indexed": false,
          "internalType": "uint256",
          "name": "attr",
          "type": "uint256"
        },
        {
          "indexed": false,
          "internalType": "uint256",
          "name": "tierExpirySeconds",
          "type": "uint256"
        },
        {
          "indexed": false,
          "internalType": "bool",
          "name": "upgradeByBalance",
          "type": "bool"
        }
      ],
      "name": "TierAppended",
      "type": "event"
    },
    {
      "anonymous": false,
      "inputs": [
        {
          "indexed": false,
          "internalType": "uint256",
          "name": "count",
          "type": "uint256"
        }
      ],
      "name": "TiersUpdated",
      "type": "event"
    },
    {
      "anonymous": false,
      "inputs": [
        {
          "indexed": true,
          "internalType": "address",
          "name": "operator",
          "type": "address"
        },
        {
          "indexed": true,
          "internalType": "address",
          "name": "from",
          "type": "address"
        },
        {
          "indexed": true,
          "internalType": "address",
          "name": "to",
          "type": "address"
        },
        {
          "indexed": false,
          "internalType": "uint256[]",
          "name": "ids",
          "type": "uint256[]"
        },
        {
          "indexed": false,
          "internalType": "uint256[]",
          "name": "values",
          "type": "uint256[]"
        }
      ],
      "name": "TransferBatch",
      "type": "event"
    },
    {
      "anonymous": false,
      "inputs": [
        {
          "indexed": true,
          "internalType": "address",
          "name": "operator",
          "type": "address"
        },
        {
          "indexed": true,
          "internalType": "address",
          "name": "from",
          "type": "address"
        },
        {
          "indexed": true,
          "internalType": "address",
          "name": "to",
          "type": "address"
        },
        {
          "indexed": false,
          "internalType": "uint256",
          "name": "id",
          "type": "uint256"
        },
        {
          "indexed": false,
          "internalType": "uint256",
          "name": "value",
          "type": "uint256"
        }
      ],
      "name": "TransferSingle",
      "type": "event"
    },
    {
      "anonymous": false,
      "inputs": [
        {
          "indexed": false,
          "internalType": "bool",
          "name": "enabled",
          "type": "bool"
        }
      ],
      "name": "TransferWhitelistEnabledUpdated",
      "type": "event"
    },
    {
      "anonymous": false,
      "inputs": [
        {
          "indexed": false,
          "internalType": "string",
          "name": "value",
          "type": "string"
        },
        {
          "indexed": true,
          "internalType": "uint256",
          "name": "id",
          "type": "uint256"
        }
      ],
      "name": "URI",
      "type": "event"
    },
    {
      "inputs": [],
      "name": "ISSUED_NFT_START_ID",
      "outputs": [
        {
          "internalType": "uint256",
          "name": "",
          "type": "uint256"
        }
      ],
      "stateMutability": "view",
      "type": "function"
    },
    {
      "inputs": [],
      "name": "NFT_START_ID",
      "outputs": [
        {
          "internalType": "uint256",
          "name": "",
          "type": "uint256"
        }
      ],
      "stateMutability": "view",
      "type": "function"
    },
    {
      "inputs": [],
      "name": "POINTS_DECIMALS",
      "outputs": [
        {
          "internalType": "uint8",
          "name": "",
          "type": "uint8"
        }
      ],
      "stateMutability": "view",
      "type": "function"
    },
    {
      "inputs": [],
      "name": "POINTS_ID",
      "outputs": [
        {
          "internalType": "uint256",
          "name": "",
          "type": "uint256"
        }
      ],
      "stateMutability": "view",
      "type": "function"
    },
    {
      "inputs": [],
      "name": "VERSION",
      "outputs": [
        {
          "internalType": "uint256",
          "name": "",
          "type": "uint256"
        }
      ],
      "stateMutability": "view",
      "type": "function"
    },
    {
      "inputs": [
        {
          "internalType": "address",
          "name": "",
          "type": "address"
        },
        {
          "internalType": "uint256",
          "name": "",
          "type": "uint256"
        }
      ],
      "name": "_userOwnedNfts",
      "outputs": [
        {
          "internalType": "uint256",
          "name": "",
          "type": "uint256"
        }
      ],
      "stateMutability": "view",
      "type": "function"
    },
    {
      "inputs": [
        {
          "internalType": "uint256",
          "name": "",
          "type": "uint256"
        }
      ],
      "name": "activeMembershipCountByTierIndex",
      "outputs": [
        {
          "internalType": "uint256",
          "name": "",
          "type": "uint256"
        }
      ],
      "stateMutability": "view",
      "type": "function"
    },
    {
      "inputs": [
        {
          "internalType": "uint256",
          "name": "",
          "type": "uint256"
        }
      ],
      "name": "activeMembershipCountByTokenId",
      "outputs": [
        {
          "internalType": "uint256",
          "name": "",
          "type": "uint256"
        }
      ],
      "stateMutability": "view",
      "type": "function"
    },
    {
      "inputs": [
        {
          "internalType": "address",
          "name": "",
          "type": "address"
        }
      ],
      "name": "activeMembershipId",
      "outputs": [
        {
          "internalType": "uint256",
          "name": "",
          "type": "uint256"
        }
      ],
      "stateMutability": "view",
      "type": "function"
    },
    {
      "inputs": [
        {
          "internalType": "address",
          "name": "",
          "type": "address"
        }
      ],
      "name": "activeTierIndexOrMax",
      "outputs": [
        {
          "internalType": "uint256",
          "name": "",
          "type": "uint256"
        }
      ],
      "stateMutability": "view",
      "type": "function"
    },
    {
      "inputs": [
        {
          "internalType": "address",
          "name": "newAdmin",
          "type": "address"
        },
        {
          "internalType": "uint256",
          "name": "newThreshold",
          "type": "uint256"
        }
      ],
      "name": "addAdmin",
      "outputs": [],
      "stateMutability": "nonpayable",
      "type": "function"
    },
    {
      "inputs": [
        {
          "internalType": "uint256",
          "name": "i",
          "type": "uint256"
        }
      ],
      "name": "adminList",
      "outputs": [
        {
          "internalType": "address",
          "name": "",
          "type": "address"
        }
      ],
      "stateMutability": "view",
      "type": "function"
    },
    {
      "inputs": [
        {
          "internalType": "uint256",
          "name": "minUsdc6",
          "type": "uint256"
        },
        {
          "internalType": "uint256",
          "name": "attr",
          "type": "uint256"
        },
        {
          "internalType": "uint256",
          "name": "tierExpirySeconds",
          "type": "uint256"
        },
        {
          "internalType": "bool",
          "name": "upgradeByBalance",
          "type": "bool"
        }
      ],
      "name": "appendTier",
      "outputs": [],
      "stateMutability": "nonpayable",
      "type": "function"
    },
    {
      "inputs": [
        {
          "internalType": "uint256",
          "name": "id",
          "type": "uint256"
        }
      ],
      "name": "approveProposal",
      "outputs": [],
      "stateMutability": "nonpayable",
      "type": "function"
    },
    {
      "inputs": [
        {
          "internalType": "uint256",
          "name": "id",
          "type": "uint256"
        },
        {
          "internalType": "address",
          "name": "adminSigner",
          "type": "address"
        }
      ],
      "name": "approveProposalByGateway",
      "outputs": [],
      "stateMutability": "nonpayable",
      "type": "function"
    },
    {
      "inputs": [
        {
          "internalType": "uint256",
          "name": "",
          "type": "uint256"
        }
      ],
      "name": "attributes",
      "outputs": [
        {
          "internalType": "uint256",
          "name": "",
          "type": "uint256"
        }
      ],
      "stateMutability": "view",
      "type": "function"
    },
    {
      "inputs": [
        {
          "internalType": "address",
          "name": "account",
          "type": "address"
        },
        {
          "internalType": "uint256",
          "name": "id",
          "type": "uint256"
        }
      ],
      "name": "balanceOf",
      "outputs": [
        {
          "internalType": "uint256",
          "name": "",
          "type": "uint256"
        }
      ],
      "stateMutability": "view",
      "type": "function"
    },
    {
      "inputs": [
        {
          "internalType": "address[]",
          "name": "accounts",
          "type": "address[]"
        },
        {
          "internalType": "uint256[]",
          "name": "ids",
          "type": "uint256[]"
        }
      ],
      "name": "balanceOfBatch",
      "outputs": [
        {
          "internalType": "uint256[]",
          "name": "",
          "type": "uint256[]"
        }
      ],
      "stateMutability": "view",
      "type": "function"
    },
    {
      "inputs": [
        {
          "internalType": "string",
          "name": "code",
          "type": "string"
        }
      ],
      "name": "cancelRedeem",
      "outputs": [],
      "stateMutability": "nonpayable",
      "type": "function"
    },
    {
      "inputs": [
        {
          "internalType": "bytes32",
          "name": "title",
          "type": "bytes32"
        },
        {
          "internalType": "uint64",
          "name": "validAfter",
          "type": "uint64"
        },
        {
          "internalType": "uint64",
          "name": "validBefore",
          "type": "uint64"
        },
        {
          "internalType": "uint256",
          "name": "maxSupply",
          "type": "uint256"
        },
        {
          "internalType": "uint256",
          "name": "priceInCurrency6",
          "type": "uint256"
        },
        {
          "internalType": "bytes32",
          "name": "sharedMetadataHash",
          "type": "bytes32"
        }
      ],
      "name": "createIssuedNft",
      "outputs": [
        {
          "internalType": "uint256",
          "name": "tokenId",
          "type": "uint256"
        }
      ],
      "stateMutability": "nonpayable",
      "type": "function"
    },
    {
      "inputs": [
        {
          "internalType": "bytes4",
          "name": "selector",
          "type": "bytes4"
        },
        {
          "internalType": "address",
          "name": "target",
          "type": "address"
        },
        {
          "internalType": "uint256",
          "name": "v1",
          "type": "uint256"
        },
        {
          "internalType": "uint256",
          "name": "v2",
          "type": "uint256"
        },
        {
          "internalType": "uint256",
          "name": "v3",
          "type": "uint256"
        }
      ],
      "name": "createProposal",
      "outputs": [
        {
          "internalType": "uint256",
          "name": "",
          "type": "uint256"
        }
      ],
      "stateMutability": "nonpayable",
      "type": "function"
    },
    {
      "inputs": [
        {
          "internalType": "bytes32",
          "name": "hash",
          "type": "bytes32"
        },
        {
          "internalType": "uint256",
          "name": "points6",
          "type": "uint256"
        },
        {
          "internalType": "uint256",
          "name": "attr",
          "type": "uint256"
        },
        {
          "internalType": "uint64",
          "name": "validAfter",
          "type": "uint64"
        },
        {
          "internalType": "uint64",
          "name": "validBefore",
          "type": "uint64"
        },
        {
          "internalType": "uint256[]",
          "name": "tokenIds",
          "type": "uint256[]"
        },
        {
          "internalType": "uint256[]",
          "name": "amounts",
          "type": "uint256[]"
        }
      ],
      "name": "createRedeem",
      "outputs": [],
      "stateMutability": "nonpayable",
      "type": "function"
    },
    {
      "inputs": [
        {
          "internalType": "bytes32[]",
          "name": "hashes",
          "type": "bytes32[]"
        },
        {
          "internalType": "uint256",
          "name": "points6",
          "type": "uint256"
        },
        {
          "internalType": "uint256",
          "name": "attr",
          "type": "uint256"
        },
        {
          "internalType": "uint64",
          "name": "validAfter",
          "type": "uint64"
        },
        {
          "internalType": "uint64",
          "name": "validBefore",
          "type": "uint64"
        },
        {
          "internalType": "uint256[]",
          "name": "tokenIds",
          "type": "uint256[]"
        },
        {
          "internalType": "uint256[]",
          "name": "amounts",
          "type": "uint256[]"
        }
      ],
      "name": "createRedeemBatch",
      "outputs": [],
      "stateMutability": "nonpayable",
      "type": "function"
    },
    {
      "inputs": [
        {
          "internalType": "bytes32",
          "name": "poolHash",
          "type": "bytes32"
        },
        {
          "internalType": "uint64",
          "name": "validAfter",
          "type": "uint64"
        },
        {
          "internalType": "uint64",
          "name": "validBefore",
          "type": "uint64"
        },
        {
          "internalType": "uint256[][]",
          "name": "tokenIdsList",
          "type": "uint256[][]"
        },
        {
          "internalType": "uint256[][]",
          "name": "amountsList",
          "type": "uint256[][]"
        },
        {
          "internalType": "uint32[]",
          "name": "counts",
          "type": "uint32[]"
        }
      ],
      "name": "createRedeemPool",
      "outputs": [],
      "stateMutability": "nonpayable",
      "type": "function"
    },
    {
      "inputs": [],
      "name": "currency",
      "outputs": [
        {
          "internalType": "enum BeamioCurrency.CurrencyType",
          "name": "",
          "type": "uint8"
        }
      ],
      "stateMutability": "view",
      "type": "function"
    },
    {
      "inputs": [],
      "name": "debugGateway",
      "outputs": [
        {
          "internalType": "address",
          "name": "",
          "type": "address"
        }
      ],
      "stateMutability": "view",
      "type": "function"
    },
    {
      "inputs": [],
      "name": "defaultAttrWhenNoTiers",
      "outputs": [
        {
          "internalType": "uint256",
          "name": "",
          "type": "uint256"
        }
      ],
      "stateMutability": "view",
      "type": "function"
    },
    {
      "inputs": [],
      "name": "deployer",
      "outputs": [
        {
          "internalType": "address",
          "name": "",
          "type": "address"
        }
      ],
      "stateMutability": "view",
      "type": "function"
    },
    {
      "inputs": [
        {
          "internalType": "uint256",
          "name": "id",
          "type": "uint256"
        }
      ],
      "name": "exists",
      "outputs": [
        {
          "internalType": "bool",
          "name": "",
          "type": "bool"
        }
      ],
      "stateMutability": "view",
      "type": "function"
    },
    {
      "inputs": [
        {
          "internalType": "uint256",
          "name": "",
          "type": "uint256"
        }
      ],
      "name": "expiresAt",
      "outputs": [
        {
          "internalType": "uint256",
          "name": "",
          "type": "uint256"
        }
      ],
      "stateMutability": "view",
      "type": "function"
    },
    {
      "inputs": [],
      "name": "expirySeconds",
      "outputs": [
        {
          "internalType": "uint256",
          "name": "",
          "type": "uint256"
        }
      ],
      "stateMutability": "view",
      "type": "function"
    },
    {
      "inputs": [],
      "name": "factoryGateway",
      "outputs": [
        {
          "internalType": "address",
          "name": "",
          "type": "address"
        }
      ],
      "stateMutability": "view",
      "type": "function"
    },
    {
      "inputs": [
        {
          "internalType": "address",
          "name": "userEOA",
          "type": "address"
        },
        {
          "internalType": "uint256",
          "name": "id",
          "type": "uint256"
        },
        {
          "internalType": "uint256",
          "name": "amount",
          "type": "uint256"
        }
      ],
      "name": "faucetByGateway",
      "outputs": [],
      "stateMutability": "nonpayable",
      "type": "function"
    },
    {
      "inputs": [
        {
          "internalType": "uint256",
          "name": "id",
          "type": "uint256"
        }
      ],
      "name": "faucetConfig",
      "outputs": [
        {
          "components": [
            {
              "internalType": "uint64",
              "name": "validUntil",
              "type": "uint64"
            },
            {
              "internalType": "uint64",
              "name": "perClaimMax",
              "type": "uint64"
            },
            {
              "internalType": "uint128",
              "name": "maxPerUser",
              "type": "uint128"
            },
            {
              "internalType": "uint128",
              "name": "maxGlobal",
              "type": "uint128"
            },
            {
              "internalType": "bool",
              "name": "enabled",
              "type": "bool"
            },
            {
              "internalType": "uint8",
              "name": "currency",
              "type": "uint8"
            },
            {
              "internalType": "uint8",
              "name": "decimals",
              "type": "uint8"
            },
            {
              "internalType": "uint128",
              "name": "priceInCurrency6",
              "type": "uint128"
            }
          ],
          "internalType": "struct FaucetStorage.FaucetConfig",
          "name": "",
          "type": "tuple"
        }
      ],
      "stateMutability": "view",
      "type": "function"
    },
    {
      "inputs": [],
      "name": "gateway",
      "outputs": [
        {
          "internalType": "address",
          "name": "",
          "type": "address"
        }
      ],
      "stateMutability": "view",
      "type": "function"
    },
    {
      "inputs": [
        {
          "internalType": "address",
          "name": "user",
          "type": "address"
        }
      ],
      "name": "getOwnership",
      "outputs": [
        {
          "internalType": "uint256",
          "name": "pt",
          "type": "uint256"
        },
        {
          "components": [
            {
              "internalType": "uint256",
              "name": "tokenId",
              "type": "uint256"
            },
            {
              "internalType": "uint256",
              "name": "attribute",
              "type": "uint256"
            },
            {
              "internalType": "uint256",
              "name": "tierIndexOrMax",
              "type": "uint256"
            },
            {
              "internalType": "uint256",
              "name": "expiry",
              "type": "uint256"
            },
            {
              "internalType": "bool",
              "name": "isExpired",
              "type": "bool"
            }
          ],
          "internalType": "struct BeamioUserCard.NFTDetail[]",
          "name": "nfts",
          "type": "tuple[]"
        }
      ],
      "stateMutability": "view",
      "type": "function"
    },
    {
      "inputs": [
        {
          "internalType": "address",
          "name": "userEOA",
          "type": "address"
        }
      ],
      "name": "getOwnershipByEOA",
      "outputs": [
        {
          "internalType": "uint256",
          "name": "pt",
          "type": "uint256"
        },
        {
          "components": [
            {
              "internalType": "uint256",
              "name": "tokenId",
              "type": "uint256"
            },
            {
              "internalType": "uint256",
              "name": "attribute",
              "type": "uint256"
            },
            {
              "internalType": "uint256",
              "name": "tierIndexOrMax",
              "type": "uint256"
            },
            {
              "internalType": "uint256",
              "name": "expiry",
              "type": "uint256"
            },
            {
              "internalType": "bool",
              "name": "isExpired",
              "type": "bool"
            }
          ],
          "internalType": "struct BeamioUserCard.NFTDetail[]",
          "name": "nfts",
          "type": "tuple[]"
        }
      ],
      "stateMutability": "view",
      "type": "function"
    },
    {
      "inputs": [
        {
          "internalType": "bytes32",
          "name": "hash",
          "type": "bytes32"
        }
      ],
      "name": "getRedeemStatus",
      "outputs": [
        {
          "internalType": "bool",
          "name": "active",
          "type": "bool"
        },
        {
          "internalType": "uint256",
          "name": "totalPoints6",
          "type": "uint256"
        }
      ],
      "stateMutability": "view",
      "type": "function"
    },
    {
      "inputs": [
        {
          "internalType": "string[]",
          "name": "codes",
          "type": "string[]"
        }
      ],
      "name": "getRedeemStatusBatch",
      "outputs": [
        {
          "internalType": "bool[]",
          "name": "active",
          "type": "bool[]"
        },
        {
          "internalType": "uint256[]",
          "name": "totalPoints6",
          "type": "uint256[]"
        }
      ],
      "stateMutability": "view",
      "type": "function"
    },
    {
      "inputs": [
        {
          "internalType": "bytes32[]",
          "name": "hashes",
          "type": "bytes32[]"
        }
      ],
      "name": "getRedeemStatusBatch",
      "outputs": [
        {
          "internalType": "bool[]",
          "name": "active",
          "type": "bool[]"
        },
        {
          "internalType": "uint256[]",
          "name": "totalPoints6",
          "type": "uint256[]"
        }
      ],
      "stateMutability": "view",
      "type": "function"
    },
    {
      "inputs": [
        {
          "internalType": "bytes32",
          "name": "hash",
          "type": "bytes32"
        },
        {
          "internalType": "address",
          "name": "claimer",
          "type": "address"
        }
      ],
      "name": "getRedeemStatusEx",
      "outputs": [
        {
          "internalType": "bool",
          "name": "active",
          "type": "bool"
        },
        {
          "internalType": "uint128",
          "name": "points6",
          "type": "uint128"
        },
        {
          "internalType": "bool",
          "name": "isPool",
          "type": "bool"
        }
      ],
      "stateMutability": "view",
      "type": "function"
    },
    {
      "inputs": [
        {
          "internalType": "uint256",
          "name": "idx",
          "type": "uint256"
        }
      ],
      "name": "getTierAt",
      "outputs": [
        {
          "components": [
            {
              "internalType": "uint256",
              "name": "minUsdc6",
              "type": "uint256"
            },
            {
              "internalType": "uint256",
              "name": "attr",
              "type": "uint256"
            },
            {
              "internalType": "uint256",
              "name": "tierExpirySeconds",
              "type": "uint256"
            },
            {
              "internalType": "bool",
              "name": "upgradeByBalance",
              "type": "bool"
            }
          ],
          "internalType": "struct BeamioUserCard.Tier",
          "name": "",
          "type": "tuple"
        }
      ],
      "stateMutability": "view",
      "type": "function"
    },
    {
      "inputs": [],
      "name": "getTiersCount",
      "outputs": [
        {
          "internalType": "uint256",
          "name": "",
          "type": "uint256"
        }
      ],
      "stateMutability": "view",
      "type": "function"
    },
    {
      "inputs": [
        {
          "internalType": "address",
          "name": "a",
          "type": "address"
        }
      ],
      "name": "isAdmin",
      "outputs": [
        {
          "internalType": "bool",
          "name": "",
          "type": "bool"
        }
      ],
      "stateMutability": "view",
      "type": "function"
    },
    {
      "inputs": [
        {
          "internalType": "address",
          "name": "account",
          "type": "address"
        },
        {
          "internalType": "address",
          "name": "operator",
          "type": "address"
        }
      ],
      "name": "isApprovedForAll",
      "outputs": [
        {
          "internalType": "bool",
          "name": "",
          "type": "bool"
        }
      ],
      "stateMutability": "view",
      "type": "function"
    },
    {
      "inputs": [
        {
          "internalType": "uint256",
          "name": "tokenId",
          "type": "uint256"
        }
      ],
      "name": "isIssuedNftValid",
      "outputs": [
        {
          "internalType": "bool",
          "name": "",
          "type": "bool"
        }
      ],
      "stateMutability": "view",
      "type": "function"
    },
    {
      "inputs": [],
      "name": "issuedNftIndex",
      "outputs": [
        {
          "internalType": "uint256",
          "name": "",
          "type": "uint256"
        }
      ],
      "stateMutability": "view",
      "type": "function"
    },
    {
      "inputs": [
        {
          "internalType": "uint256",
          "name": "tokenId",
          "type": "uint256"
        }
      ],
      "name": "issuedNftMaxSupply",
      "outputs": [
        {
          "internalType": "uint256",
          "name": "",
          "type": "uint256"
        }
      ],
      "stateMutability": "view",
      "type": "function"
    },
    {
      "inputs": [
        {
          "internalType": "uint256",
          "name": "tokenId",
          "type": "uint256"
        }
      ],
      "name": "issuedNftMintedCount",
      "outputs": [
        {
          "internalType": "uint256",
          "name": "",
          "type": "uint256"
        }
      ],
      "stateMutability": "view",
      "type": "function"
    },
    {
      "inputs": [
        {
          "internalType": "uint256",
          "name": "tokenId",
          "type": "uint256"
        }
      ],
      "name": "issuedNftPriceInCurrency6",
      "outputs": [
        {
          "internalType": "uint256",
          "name": "",
          "type": "uint256"
        }
      ],
      "stateMutability": "view",
      "type": "function"
    },
    {
      "inputs": [
        {
          "internalType": "uint256",
          "name": "tokenId",
          "type": "uint256"
        }
      ],
      "name": "issuedNftSharedMetadataHash",
      "outputs": [
        {
          "internalType": "bytes32",
          "name": "",
          "type": "bytes32"
        }
      ],
      "stateMutability": "view",
      "type": "function"
    },
    {
      "inputs": [
        {
          "internalType": "uint256",
          "name": "tokenId",
          "type": "uint256"
        }
      ],
      "name": "issuedNftTitle",
      "outputs": [
        {
          "internalType": "bytes32",
          "name": "",
          "type": "bytes32"
        }
      ],
      "stateMutability": "view",
      "type": "function"
    },
    {
      "inputs": [
        {
          "internalType": "uint256",
          "name": "tokenId",
          "type": "uint256"
        }
      ],
      "name": "issuedNftValidAfter",
      "outputs": [
        {
          "internalType": "uint64",
          "name": "",
          "type": "uint64"
        }
      ],
      "stateMutability": "view",
      "type": "function"
    },
    {
      "inputs": [
        {
          "internalType": "uint256",
          "name": "tokenId",
          "type": "uint256"
        }
      ],
      "name": "issuedNftValidBefore",
      "outputs": [
        {
          "internalType": "uint64",
          "name": "",
          "type": "uint64"
        }
      ],
      "stateMutability": "view",
      "type": "function"
    },
    {
      "inputs": [
        {
          "internalType": "uint64",
          "name": "hourIndex",
          "type": "uint64"
        }
      ],
      "name": "membershipFlowBucketAtHour",
      "outputs": [
        {
          "internalType": "uint256",
          "name": "issuedCount",
          "type": "uint256"
        },
        {
          "internalType": "uint256",
          "name": "upgradedCount",
          "type": "uint256"
        },
        {
          "internalType": "uint256",
          "name": "expiredDiscoveredCount",
          "type": "uint256"
        },
        {
          "internalType": "uint256",
          "name": "activeSwitchCount",
          "type": "uint256"
        },
        {
          "internalType": "uint256",
          "name": "activatedCount",
          "type": "uint256"
        },
        {
          "internalType": "uint256",
          "name": "deactivatedCount",
          "type": "uint256"
        },
        {
          "internalType": "bool",
          "name": "hasData",
          "type": "bool"
        }
      ],
      "stateMutability": "view",
      "type": "function"
    },
    {
      "inputs": [
        {
          "internalType": "uint8",
          "name": "scopeType",
          "type": "uint8"
        },
        {
          "internalType": "uint256",
          "name": "scopeKey",
          "type": "uint256"
        },
        {
          "internalType": "uint64",
          "name": "hourIndex",
          "type": "uint64"
        }
      ],
      "name": "membershipScopedFlowBucketAtHour",
      "outputs": [
        {
          "internalType": "uint256",
          "name": "issuedCount",
          "type": "uint256"
        },
        {
          "internalType": "uint256",
          "name": "upgradedCount",
          "type": "uint256"
        },
        {
          "internalType": "uint256",
          "name": "expiredDiscoveredCount",
          "type": "uint256"
        },
        {
          "internalType": "uint256",
          "name": "activeSwitchCount",
          "type": "uint256"
        },
        {
          "internalType": "uint256",
          "name": "activatedCount",
          "type": "uint256"
        },
        {
          "internalType": "uint256",
          "name": "deactivatedCount",
          "type": "uint256"
        },
        {
          "internalType": "bool",
          "name": "hasData",
          "type": "bool"
        }
      ],
      "stateMutability": "view",
      "type": "function"
    },
    {
      "inputs": [],
      "name": "metadataBaseURI",
      "outputs": [
        {
          "internalType": "string",
          "name": "",
          "type": "string"
        }
      ],
      "stateMutability": "view",
      "type": "function"
    },
    {
      "inputs": [
        {
          "internalType": "address",
          "name": "userEOA",
          "type": "address"
        },
        {
          "internalType": "uint256",
          "name": "id",
          "type": "uint256"
        },
        {
          "internalType": "uint256",
          "name": "amount6",
          "type": "uint256"
        }
      ],
      "name": "mintFaucetByGateway",
      "outputs": [],
      "stateMutability": "nonpayable",
      "type": "function"
    },
    {
      "inputs": [
        {
          "internalType": "address",
          "name": "userEOA",
          "type": "address"
        },
        {
          "internalType": "uint256",
          "name": "tokenId",
          "type": "uint256"
        },
        {
          "internalType": "uint256",
          "name": "amount",
          "type": "uint256"
        }
      ],
      "name": "mintIssuedNftByGateway",
      "outputs": [],
      "stateMutability": "nonpayable",
      "type": "function"
    },
    {
      "inputs": [
        {
          "internalType": "address",
          "name": "to",
          "type": "address"
        },
        {
          "internalType": "uint256",
          "name": "tokenId",
          "type": "uint256"
        },
        {
          "internalType": "uint256",
          "name": "amount",
          "type": "uint256"
        }
      ],
      "name": "mintIssuedNftByOwner",
      "outputs": [],
      "stateMutability": "nonpayable",
      "type": "function"
    },
    {
      "inputs": [
        {
          "internalType": "address",
          "name": "user",
          "type": "address"
        },
        {
          "internalType": "uint256",
          "name": "tierIndex",
          "type": "uint256"
        }
      ],
      "name": "mintMemberCardByAdmin",
      "outputs": [],
      "stateMutability": "nonpayable",
      "type": "function"
    },
    {
      "inputs": [
        {
          "internalType": "address",
          "name": "user",
          "type": "address"
        },
        {
          "internalType": "uint256",
          "name": "points6",
          "type": "uint256"
        }
      ],
      "name": "mintPointsByAdmin",
      "outputs": [],
      "stateMutability": "nonpayable",
      "type": "function"
    },
    {
      "inputs": [
        {
          "internalType": "address",
          "name": "userEOA",
          "type": "address"
        },
        {
          "internalType": "uint256",
          "name": "points6",
          "type": "uint256"
        }
      ],
      "name": "mintPointsByGateway",
      "outputs": [],
      "stateMutability": "nonpayable",
      "type": "function"
    },
    {
      "inputs": [],
      "name": "owner",
      "outputs": [
        {
          "internalType": "address",
          "name": "",
          "type": "address"
        }
      ],
      "stateMutability": "view",
      "type": "function"
    },
    {
      "inputs": [],
      "name": "pointsUnitPriceInCurrencyE6",
      "outputs": [
        {
          "internalType": "uint256",
          "name": "",
          "type": "uint256"
        }
      ],
      "stateMutability": "view",
      "type": "function"
    },
    {
      "inputs": [],
      "name": "proposalCount",
      "outputs": [
        {
          "internalType": "uint256",
          "name": "",
          "type": "uint256"
        }
      ],
      "stateMutability": "view",
      "type": "function"
    },
    {
      "inputs": [
        {
          "internalType": "uint256",
          "name": "id",
          "type": "uint256"
        }
      ],
      "name": "proposals",
      "outputs": [
        {
          "components": [
            {
              "internalType": "address",
              "name": "target",
              "type": "address"
            },
            {
              "internalType": "uint256",
              "name": "v1",
              "type": "uint256"
            },
            {
              "internalType": "uint256",
              "name": "v2",
              "type": "uint256"
            },
            {
              "internalType": "uint256",
              "name": "v3",
              "type": "uint256"
            },
            {
              "internalType": "bytes4",
              "name": "selector",
              "type": "bytes4"
            },
            {
              "internalType": "uint256",
              "name": "approvals",
              "type": "uint256"
            },
            {
              "internalType": "bool",
              "name": "executed",
              "type": "bool"
            }
          ],
          "internalType": "struct GovernanceStorage.Proposal",
          "name": "",
          "type": "tuple"
        }
      ],
      "stateMutability": "view",
      "type": "function"
    },
    {
      "inputs": [
        {
          "internalType": "string[]",
          "name": "codes",
          "type": "string[]"
        },
        {
          "internalType": "address",
          "name": "userEOA",
          "type": "address"
        }
      ],
      "name": "redeemBatchByGateway",
      "outputs": [],
      "stateMutability": "nonpayable",
      "type": "function"
    },
    {
      "inputs": [
        {
          "internalType": "string",
          "name": "code",
          "type": "string"
        },
        {
          "internalType": "address",
          "name": "userEOA",
          "type": "address"
        }
      ],
      "name": "redeemByGateway",
      "outputs": [],
      "stateMutability": "nonpayable",
      "type": "function"
    },
    {
      "inputs": [
        {
          "internalType": "string",
          "name": "code",
          "type": "string"
        },
        {
          "internalType": "address",
          "name": "userEOA",
          "type": "address"
        }
      ],
      "name": "redeemPoolByGateway",
      "outputs": [],
      "stateMutability": "nonpayable",
      "type": "function"
    },
    {
      "inputs": [
        {
          "internalType": "address",
          "name": "adminToRemove",
          "type": "address"
        },
        {
          "internalType": "uint256",
          "name": "newThreshold",
          "type": "uint256"
        }
      ],
      "name": "removeAdmin",
      "outputs": [],
      "stateMutability": "nonpayable",
      "type": "function"
    },
    {
      "inputs": [],
      "name": "renounceOwnership",
      "outputs": [],
      "stateMutability": "nonpayable",
      "type": "function"
    },
    {
      "inputs": [
        {
          "internalType": "address",
          "name": "from",
          "type": "address"
        },
        {
          "internalType": "address",
          "name": "to",
          "type": "address"
        },
        {
          "internalType": "uint256[]",
          "name": "ids",
          "type": "uint256[]"
        },
        {
          "internalType": "uint256[]",
          "name": "values",
          "type": "uint256[]"
        },
        {
          "internalType": "bytes",
          "name": "data",
          "type": "bytes"
        }
      ],
      "name": "safeBatchTransferFrom",
      "outputs": [],
      "stateMutability": "nonpayable",
      "type": "function"
    },
    {
      "inputs": [
        {
          "internalType": "address",
          "name": "from",
          "type": "address"
        },
        {
          "internalType": "address",
          "name": "to",
          "type": "address"
        },
        {
          "internalType": "uint256",
          "name": "id",
          "type": "uint256"
        },
        {
          "internalType": "uint256",
          "name": "value",
          "type": "uint256"
        },
        {
          "internalType": "bytes",
          "name": "data",
          "type": "bytes"
        }
      ],
      "name": "safeTransferFrom",
      "outputs": [],
      "stateMutability": "nonpayable",
      "type": "function"
    },
    {
      "inputs": [
        {
          "internalType": "address",
          "name": "operator",
          "type": "address"
        },
        {
          "internalType": "bool",
          "name": "approved",
          "type": "bool"
        }
      ],
      "name": "setApprovalForAll",
      "outputs": [],
      "stateMutability": "nonpayable",
      "type": "function"
    },
    {
      "inputs": [
        {
          "internalType": "uint256",
          "name": "attr",
          "type": "uint256"
        }
      ],
      "name": "setDefaultAttr",
      "outputs": [],
      "stateMutability": "nonpayable",
      "type": "function"
    },
    {
      "inputs": [
        {
          "internalType": "uint256",
          "name": "secs",
          "type": "uint256"
        }
      ],
      "name": "setExpirySeconds",
      "outputs": [],
      "stateMutability": "nonpayable",
      "type": "function"
    },
    {
      "inputs": [
        {
          "internalType": "uint256",
          "name": "id",
          "type": "uint256"
        },
        {
          "internalType": "uint64",
          "name": "validUntil",
          "type": "uint64"
        },
        {
          "internalType": "uint64",
          "name": "perClaimMax",
          "type": "uint64"
        },
        {
          "internalType": "uint128",
          "name": "maxPerUser",
          "type": "uint128"
        },
        {
          "internalType": "uint128",
          "name": "maxGlobal",
          "type": "uint128"
        },
        {
          "internalType": "bool",
          "name": "enabled",
          "type": "bool"
        },
        {
          "internalType": "enum BeamioCurrency.CurrencyType",
          "name": "cur",
          "type": "uint8"
        },
        {
          "internalType": "uint128",
          "name": "priceInCurrency6",
          "type": "uint128"
        }
      ],
      "name": "setFaucetConfig",
      "outputs": [],
      "stateMutability": "nonpayable",
      "type": "function"
    },
    {
      "inputs": [
        {
          "internalType": "uint256",
          "name": "priceInCurrencyE6",
          "type": "uint256"
        }
      ],
      "name": "setPointsUnitPrice",
      "outputs": [],
      "stateMutability": "nonpayable",
      "type": "function"
    },
    {
      "inputs": [
        {
          "components": [
            {
              "internalType": "uint256",
              "name": "minUsdc6",
              "type": "uint256"
            },
            {
              "internalType": "uint256",
              "name": "attr",
              "type": "uint256"
            },
            {
              "internalType": "uint256",
              "name": "tierExpirySeconds",
              "type": "uint256"
            },
            {
              "internalType": "bool",
              "name": "upgradeByBalance",
              "type": "bool"
            }
          ],
          "internalType": "struct BeamioUserCard.Tier[]",
          "name": "newTiers",
          "type": "tuple[]"
        }
      ],
      "name": "setTiers",
      "outputs": [],
      "stateMutability": "nonpayable",
      "type": "function"
    },
    {
      "inputs": [
        {
          "internalType": "address",
          "name": "target",
          "type": "address"
        },
        {
          "internalType": "bool",
          "name": "allowed",
          "type": "bool"
        }
      ],
      "name": "setTransferWhitelist",
      "outputs": [],
      "stateMutability": "nonpayable",
      "type": "function"
    },
    {
      "inputs": [
        {
          "internalType": "bool",
          "name": "enabled",
          "type": "bool"
        }
      ],
      "name": "setTransferWhitelistEnabled",
      "outputs": [],
      "stateMutability": "nonpayable",
      "type": "function"
    },
    {
      "inputs": [
        {
          "internalType": "bytes4",
          "name": "interfaceId",
          "type": "bytes4"
        }
      ],
      "name": "supportsInterface",
      "outputs": [
        {
          "internalType": "bool",
          "name": "",
          "type": "bool"
        }
      ],
      "stateMutability": "view",
      "type": "function"
    },
    {
      "inputs": [
        {
          "internalType": "bytes32",
          "name": "poolHash",
          "type": "bytes32"
        }
      ],
      "name": "terminateRedeemPool",
      "outputs": [],
      "stateMutability": "nonpayable",
      "type": "function"
    },
    {
      "inputs": [],
      "name": "threshold",
      "outputs": [
        {
          "internalType": "uint256",
          "name": "",
          "type": "uint256"
        }
      ],
      "stateMutability": "view",
      "type": "function"
    },
    {
      "inputs": [
        {
          "internalType": "uint256",
          "name": "",
          "type": "uint256"
        }
      ],
      "name": "tiers",
      "outputs": [
        {
          "internalType": "uint256",
          "name": "minUsdc6",
          "type": "uint256"
        },
        {
          "internalType": "uint256",
          "name": "attr",
          "type": "uint256"
        },
        {
          "internalType": "uint256",
          "name": "tierExpirySeconds",
          "type": "uint256"
        },
        {
          "internalType": "bool",
          "name": "upgradeByBalance",
          "type": "bool"
        }
      ],
      "stateMutability": "view",
      "type": "function"
    },
    {
      "inputs": [
        {
          "internalType": "uint256",
          "name": "",
          "type": "uint256"
        }
      ],
      "name": "tokenTierIndexOrMax",
      "outputs": [
        {
          "internalType": "uint256",
          "name": "",
          "type": "uint256"
        }
      ],
      "stateMutability": "view",
      "type": "function"
    },
    {
      "inputs": [],
      "name": "totalActiveMemberships",
      "outputs": [
        {
          "internalType": "uint256",
          "name": "",
          "type": "uint256"
        }
      ],
      "stateMutability": "view",
      "type": "function"
    },
    {
      "inputs": [],
      "name": "totalMembershipIssued",
      "outputs": [
        {
          "internalType": "uint256",
          "name": "",
          "type": "uint256"
        }
      ],
      "stateMutability": "view",
      "type": "function"
    },
    {
      "inputs": [
        {
          "internalType": "uint256",
          "name": "",
          "type": "uint256"
        }
      ],
      "name": "totalMembershipIssuedByTierIndex",
      "outputs": [
        {
          "internalType": "uint256",
          "name": "",
          "type": "uint256"
        }
      ],
      "stateMutability": "view",
      "type": "function"
    },
    {
      "inputs": [],
      "name": "totalMembershipUpgraded",
      "outputs": [
        {
          "internalType": "uint256",
          "name": "",
          "type": "uint256"
        }
      ],
      "stateMutability": "view",
      "type": "function"
    },
    {
      "inputs": [],
      "name": "totalSupply",
      "outputs": [
        {
          "internalType": "uint256",
          "name": "",
          "type": "uint256"
        }
      ],
      "stateMutability": "view",
      "type": "function"
    },
    {
      "inputs": [
        {
          "internalType": "uint256",
          "name": "id",
          "type": "uint256"
        }
      ],
      "name": "totalSupply",
      "outputs": [
        {
          "internalType": "uint256",
          "name": "",
          "type": "uint256"
        }
      ],
      "stateMutability": "view",
      "type": "function"
    },
    {
      "inputs": [
        {
          "internalType": "address",
          "name": "newOwner",
          "type": "address"
        }
      ],
      "name": "transferOwnership",
      "outputs": [],
      "stateMutability": "nonpayable",
      "type": "function"
    },
    {
      "inputs": [
        {
          "internalType": "address",
          "name": "",
          "type": "address"
        }
      ],
      "name": "transferWhitelist",
      "outputs": [
        {
          "internalType": "bool",
          "name": "",
          "type": "bool"
        }
      ],
      "stateMutability": "view",
      "type": "function"
    },
    {
      "inputs": [],
      "name": "transferWhitelistEnabled",
      "outputs": [
        {
          "internalType": "bool",
          "name": "",
          "type": "bool"
        }
      ],
      "stateMutability": "view",
      "type": "function"
    },
    {
      "inputs": [
        {
          "internalType": "uint256",
          "name": "",
          "type": "uint256"
        }
      ],
      "name": "uri",
      "outputs": [
        {
          "internalType": "string",
          "name": "",
          "type": "string"
        }
      ],
      "stateMutability": "view",
      "type": "function"
    }
  ],
  "bytecode": "0x60a06040523461033e5761622d8038038061001981610342565b928339810160a08282031261033e5781516001600160401b03811161033e57820181601f8201121561033e5780516001600160401b0381116102ae57610068601f8201601f1916602001610342565b928184526020828401011161033e575f928160208094018483015e0101526020810151600981101561033e576040820151916100b260806100ab60608401610367565b9201610367565b926020915f6100c084610342565b52600254600181811c91168015610334575b8482101461032057601f81116102ee575b505f6002556001600160a01b03169283156102db57600380546001600160a01b031981168617909155604051959085906001600160a01b03167f8be0079c531659141344cd1fd0a4f28419497f9722a3daafe3b4186f6b6457e05f80a3600160045560646019556001600160a01b0381169081159081156102d1575b506102c25733608052600580546001600160a01b03191682179055600680546001600160a81b03191690911760a09290921b60ff60a01b1691909117905560075560017fbc488d3e2575f0f2113dc4d9a0cd6bc52445c6bc28a8974ed97a6ba3ecfd657a8190555f8381527fbc488d3e2575f0f2113dc4d9a0cd6bc52445c6bc28a8974ed97a6ba3ecfd657b835260409020805460ff191690911790555f51602061620d5f395f51905f525490680100000000000000008210156102ae5760018201805f51602061620d5f395f51905f525582101561029a575f51602061620d5f395f51905f525f908152200180546001600160a01b031916909117905564174876e8007ffed699897f2561c8a98f833aa3de83c4904370d413fe5fb15abe26e9f8150b2955615e91908161037c823960805181612fb50152f35b634e487b7160e01b5f52603260045260245ffd5b634e487b7160e01b5f52604160045260245ffd5b63ab82bb9960e01b5f5260045ffd5b90503b155f61015f565b631e4fbdf760e01b5f525f60045260245ffd5b80156100e35760025f52601f845f20910160051c905f5b8281106103135750506100e3565b5f82820155600101610305565b634e487b7160e01b5f52602260045260245ffd5b90607f16906100d2565b5f80fd5b6040519190601f01601f191682016001600160401b038111838210176102ae57604052565b51906001600160a01b038216820361033e5756fe60806040526004361015610011575f80fd5b5f3560e01c8062fdd58e14610619578063013cf08b1461061457806301f28d911461060f57806301ffc9a71461060a578063039af9eb1461060557806303ca3e38146106005780630b6c8d71146105fb5780630bd67833146105f65780630e4ab487146105f15780630e89341c146105ec57806310bba864146105e757806311117fc8146105e2578063116191b61461056f5780631284b92f146105dd57806315a76229146105d857806317c95709146105d357806318160ddd146105ce5780631c790e24146105c95780631fe56e6a146105c457806322c6102e146105bf57806324d7806c146105ba57806325458265146105b55780632b681a54146105b05780632eb2c2d6146105ab578063312e76a9146105a657806331b86d35146105a157806334bca52c1461059c5780633c703d45146105975780633c970fb91461059257806342cde4e81461058d578063475e53ec146105885780634dda2215146105835780634e1273f41461057e5780634f558e791461057957806352b9ec2314610574578063537856191461056f5780635476d0711461056a57806356217848146105655780635637d5bc14610560578063564da7571461055b578063569881301461055657806356c689fa146105515780636465c3a71461054c578063671395c814610547578063677f58b914610542578063684cc3a51461053d578063706e013214610538578063715018a61461053357806371b8982f1461044d57806371d7193b1461052e5780637940482b146105295780637fcb29c9146105245780637ffbe2411461051f57806382b720c91461051a57806383dbbf5314610515578063897828a8146105105780638b3c6f8f1461050b5780638da5cb5b146105065780638db553081461050157806391afe172146104fc57806394b2e946146104f75780639565c542146104f257806395f7b2ff146104ed57806398951b56146104e85780639f1bbda7146104e35780639f3d1a2a146104de5780639f48facc146104d9578063a22cb465146104d4578063a4790446146104cf578063a876c759146104ca578063a98d916e146104c5578063acf12d3d146104c0578063af7ffa2b146104bb578063b3b86ddc146104b6578063bd85b039146104b1578063c6073f16146104ac578063c6e0ddfa146104a7578063c926bbfd146104a2578063c9840daf1461049d578063cbc4e1aa14610498578063d05dcc6a14610493578063d4506e771461048e578063d52dc51514610489578063d5f3948814610484578063da35c6641461047f578063dd1bc5e91461047a578063e141dcb814610475578063e4a34dce14610470578063e5a6b10f1461046b578063e985e9c514610466578063f242432a14610461578063f2fde38b1461045c578063f51089f614610457578063f540f22714610452578063f986f6761461044d578063fcef6b01146104485763ffa1ad7414610443575f80fd5b6134ad565b613490565b611ed9565b613466565b61337f565b613308565b61321b565b6131d0565b613190565b61315b565b61304a565b613020565b612fe4565b612fa0565b612f7e565b612f26565b612efc565b612e53565b612d79565b612d5f565b612d07565b612c45565b612c0f565b612bd1565b612aeb565b612ace565b612aaf565b612a92565b61280c565b61278d565b612642565b61258f565b612572565b6124fe565b6124b5565b61248d565b612452565b6123fe565b6123d6565b6123ae565b612365565b612303565b6122a1565b6121a5565b612165565b6120ea565b6120ac565b611fa5565b611e2c565b611e0d565b611dc4565b611d79565b611d31565b611c41565b611bb2565b611a5f565b6119a7565b61198c565b611962565b611945565b610e6f565b6118b1565b611879565b6117b8565b611757565b6116e5565b6116bc565b61167c565b611633565b6115ea565b6115be565b611563565b6114cf565b611330565b6112f4565b6112bf565b611228565b6111ce565b611111565b6110e8565b6110be565b610fb7565b610f5b565b610e38565b610df9565b610cbc565b610c36565b610bbe565b610b09565b61091a565b61089d565b6107fa565b6107cb565b61067b565b61063f565b6001600160a01b031690565b6001600160a01b0381160361063b57565b5f80fd5b3461063b57604036600319011261063b5760206106726004356106618161062a565b6024355f525f835260405f20610f01565b54604051908152f35b3461063b57602036600319011261063b576004355f60c060405161069e81611364565b8281528260208201528260408201528260608201528260808201528260a082015201525f525f516020615e1c5f395f51905f526020526107c760405f2061076561075c6006604051936106f085611364565b61070a6106fd825461061e565b6001600160a01b03168652565b60018101546020860152600281015460408601526003810154606086015261074a610739600483015460e01b90565b6001600160e01b0319166080870152565b600581015460a0860152015460ff1690565b151560c0830152565b6040519182918291909160c08060e083019460018060a01b03815116845260208101516020850152604081015160408501526060810151606085015263ffffffff60e01b608082015116608085015260a081015160a085015201511515910152565b0390f35b3461063b575f36600319011261063b576020601754604051908152f35b6001600160e01b031981160361063b57565b3461063b57602036600319011261063b576020600435610819816107e8565b63ffffffff60e01b16636cdb3d1360e11b8114908115610857575b8115610846575b506040519015158152f35b6301ffc9a760e01b1490505f61083b565b6303a24d0760e21b81149150610834565b634e487b7160e01b5f52603260045260245ffd5b6017548110156108985760175f5260205f209060021b01905f90565b610868565b3461063b57602036600319011261063b5760043560175481101561063b576108c660809161087c565b5080549060018101549060ff6003600283015492015416916040519384526020840152604083015215156060820152f35b606090600319011261063b5760043561090f8161062a565b906024359060443590565b3461063b57610928366108f7565b600654919290916001600160a01b031680610a9657506005546001600160a01b03165b6001600160a01b03163303610a8757610962614424565b6001600160a01b038116918215610a78578015610a69576109c56109d4916109c05f516020615c9c5f395f51905f52966109b260405193849263c791063b60e01b602085015288602485016134c8565b03601f1981018352826113bb565b614444565b602080825183010191016134e6565b939091610a276109e3826144d9565b916109ed836145f0565b6109f683610e97565b5415610a0b610a036134fc565b898887614652565b85610a625787905b610a52575b50610a228561105d565b610f01565b546040516001600160a01b03909216958291610a439183613510565b0390a4610a506001600455565b005b610a5c9084614672565b5f610a18565b5f90610a13565b63201165f360e21b5f5260045ffd5b63a9b8048960e01b5f5260045ffd5b6396f47d2360e01b5f5260045ffd5b61094b565b6060602091604081019381526040838201528451809452019201905f5b818110610ac55750505090565b909192602060a06001926080875180518352848101518584015260408101516040840152606081015160608401520151151560808201520194019101919091610ab8565b3461063b57602036600319011261063b57610b36610b31600435610b2c8161062a565b614699565b6138d1565b906107c760405192839283610a9b565b602435906001600160401b038216820361063b57565b604435906001600160401b038216820361063b57565b606435906001600160401b038216820361063b57565b608435906001600160401b038216820361063b57565b60e435906001600160801b038216820361063b57565b8015150361063b57565b3461063b5761010036600319011261063b57600435610bdb610b46565b90610be4610b5c565b6064356001600160801b038116810361063b576084356001600160801b038116810361063b5760a43591610c1783610bb4565b60c43593600985101561063b57610a5096610c30610b9e565b96613521565b3461063b57602036600319011261063b57600435610c526147a1565b7ff316e065e93b4fddef3d2d93a57817985081f76ea9e0ca7417ed5b4b086b1fcb6020601854604051908152a1601855005b805180835260209291819084018484015e5f828201840152601f01601f1916010190565b906020610cb9928181520190610c84565b90565b3461063b57602036600319011261063b57610cd5614805565b6040516001600160601b03193060601b1660208201526014815290610cfb6034836113bb565b610d036148d3565b91610d0c614901565b925f5b60148110610d5d576040516107c790610d51816109b2610d3c8a610d36602085018c6136f5565b906136f5565b683db4b23e973539b7b760b91b815260090190565b60405191829182610ca8565b80610da5610d7c610d9f610d99610d90610d8a610d7c6001988b614923565b516001600160f81b03191690565b60f81c90565b60041c600f1690565b60ff1690565b85614923565b610dbb610db183613a62565b915f1a9188614923565b53610dde610d7c610d9f600f610dd7610d8a610d7c878b614923565b1660ff1690565b610df2610db1610ded84613a62565b6143d1565b5301610d0f565b3461063b575f36600319011261063b57602060405160068152f35b6001600160a01b0316600452602490565b6001600160a01b03909116815260200190565b3461063b57602036600319011261063b576020610e56600435610f16565b905460405160039290921b1c6001600160a01b03168152f35b3461063b575f36600319011261063b576005546040516001600160a01b039091168152602090f35b6001600160a01b03165f908152600f6020526040902090565b6001600160a01b03165f9081527fbc488d3e2575f0f2113dc4d9a0cd6bc52445c6bc28a8974ed97a6ba3ecfd657b6020526040902090565b6001600160a01b03165f90815260096020526040902090565b9060018060a01b03165f5260205260405f2090565b5f516020615cbc5f395f51905f5254811015610898575f516020615cbc5f395f51905f525f5260205f2001905f90565b8054821015610898575f5260205f2001905f90565b3461063b57604036600319011261063b57600435610f788161062a565b6001600160a01b03165f908152600e602052604090208054602435919082101561063b57602091610fa891610f46565b90549060031b1c604051908152f35b3461063b57602036600319011261063b576107c7610ff66004355f6060604051610fe081611384565b828152826020820152826040820152015261087c565b5060ff60036040519261100884611384565b8054845260018101546020850152600281015460408501520154161515606082015260405191829182919091606080608083019480518452602081015160208501526040810151604085015201511515910152565b5f527fe5fcefe92466b78c655fa732b80b16e07a00f2a897e833e17d9914703cad563360205260405f2090565b5f525f516020615d3c5f395f51905f5260205260405f2090565b5f525f516020615cfc5f395f51905f5260205260405f2090565b3461063b57602036600319011261063b576004355f52600b602052602060405f2054604051908152f35b3461063b575f36600319011261063b5760205f516020615dfc5f395f51905f5254604051908152f35b3461063b57604036600319011261063b576024356004356111318261062a565b6006546001600160a01b0316806111c957506005546001600160a01b03165b6001600160a01b03163303610a87575f80611169614934565b93604051602081019163071e438960e21b835285602483015260018060a01b031660448201526044815261119e6064826113bb565b5190855af46111ab613707565b50156111ba57610a5091614b8f565b6363bc5ecb60e11b5f5260045ffd5b611150565b3461063b57602036600319011261063b576004355f526011602052602060405f2054604051908152f35b9181601f8401121561063b578235916001600160401b03831161063b576020808501948460051b01011161063b57565b3461063b5760e036600319011261063b576004356001600160401b03811161063b576112589036906004016111f8565b60243591604435611267610b72565b90611270610b88565b60a4356001600160401b03811161063b5761128f9036906004016111f8565b60c4359790949193906001600160401b03891161063b576112b7610a509936906004016111f8565b989097613736565b3461063b57602036600319011261063b57602060ff6112e86004356112e38161062a565b610eb0565b54166040519015158152f35b3461063b575f36600319011261063b5760207ffed699897f2561c8a98f833aa3de83c4904370d413fe5fb15abe26e9f8150b2954604051908152f35b3461063b57602036600319011261063b57610b36600435610b318161062a565b634e487b7160e01b5f52604160045260245ffd5b60e081019081106001600160401b0382111761137f57604052565b611350565b608081019081106001600160401b0382111761137f57604052565b61010081019081106001600160401b0382111761137f57604052565b601f909101601f19168101906001600160401b0382119082101761137f57604052565b604051906113ed60a0836113bb565b565b6001600160401b03811161137f5760051b60200190565b9080601f8301121561063b57813561141d816113ef565b9261142b60405194856113bb565b81845260208085019260051b82010192831161063b57602001905b8282106114535750505090565b8135815260209182019101611446565b6001600160401b03811161137f57601f01601f191660200190565b92919261148a82611463565b9161149860405193846113bb565b82948184528183011161063b578281602093845f960137010152565b9080601f8301121561063b57816020610cb99335910161147e565b3461063b5760a036600319011261063b576004356114ec8161062a565b602435906114f98261062a565b6044356001600160401b03811161063b57611518903690600401611406565b6064356001600160401b03811161063b57611537903690600401611406565b608435939091906001600160401b03851161063b5761155d610a509536906004016114b4565b936139e5565b3461063b57602036600319011261063b576004356001600160401b03811161063b573660238201121561063b5760048101356001600160401b03811161063b573660248260071b8401011161063b576024610a509201613b63565b3461063b57602036600319011261063b5760406115dc600435613c00565b825191151582526020820152f35b3461063b57602036600319011261063b576004355f527ffed699897f2561c8a98f833aa3de83c4904370d413fe5fb15abe26e9f8150b2f602052602060405f2054604051908152f35b3461063b57602036600319011261063b576004355f527ffed699897f2561c8a98f833aa3de83c4904370d413fe5fb15abe26e9f8150b30602052602060405f2054604051908152f35b3461063b57604036600319011261063b576116b560043561169c8161062a565b602435906116a8614424565b6116b06147a1565b614da7565b6001600455005b3461063b575f36600319011261063b5760205f516020615cdc5f395f51905f5254604051908152f35b3461063b576116f3366108f7565b6006549091906001600160a01b03168061175257506005546001600160a01b03165b6001600160a01b03163303610a875761172c614424565b6001600160a01b03831615610a78578115610a695761174d6116b5936144d9565b614dce565b611715565b3461063b575f36600319011261063b576020600754604051908152f35b90602080835192838152019201905f5b8181106117915750505090565b8251845260209384019390920191600101611784565b906020610cb9928181520190611774565b3461063b57604036600319011261063b576004356001600160401b03811161063b573660238201121561063b578060040135906117f4826113ef565b9161180260405193846113bb565b8083526024602084019160051b8301019136831161063b57602401905b82821061185f57836024356001600160401b03811161063b576107c79161184d611853923690600401611406565b90613cb2565b604051918291826117a7565b60208091833561186e8161062a565b81520191019061181f565b3461063b57602036600319011261063b576004355f525f516020615d5c5f395f51905f52602052602060405f20541515604051908152f35b3461063b5760c036600319011261063b576004356118cd610b46565b6118d5610b5c565b916064356001600160401b03811161063b576118f59036906004016111f8565b906084356001600160401b03811161063b576119159036906004016111f8565b60a4359690939192906001600160401b03881161063b5761193d610a509836906004016111f8565b979096613d2c565b3461063b575f36600319011261063b576020601554604051908152f35b3461063b57602036600319011261063b576004355f526012602052602060405f2054604051908152f35b3461063b575f36600319011261063b57602060405160648152f35b3461063b57604036600319011261063b576004356119c48161062a565b602435906119d0614424565b6119d86147a1565b6001600160a01b03811615610a78578115610a69576020611a197f3e38a9410c08ddb4af8b083bfd2b197b1c3e61a651bd1c54c51ebce0cdcdc48e926144d9565b611a33604051611a2984826113bb565b5f8152858361462d565b611a3d8482614e46565b611a478482614e6d565b6040519384526001600160a01b031692a26001600455005b3461063b5760e036600319011261063b57600435602435604435611a81610b72565b91611a8a610b88565b60a4356001600160401b03811161063b57611aa99036906004016111f8565b90949060c4356001600160401b03811161063b576109b2611b6394611b5e93611b4c5f516020615e3c5f395f51905f529a611ae98d9636906004016111f8565b939094611af4614424565b611afc6147a1565b604051998a98630569881360e41b60208b015260248a01528c60448a01528d60648a015260018060401b0316608489015260018060401b031660a488015260e060c488015261010487019161380b565b8481036023190160e48601529161380b565b61447e565b50611b7360405192839283613510565b0390a2610a506001600455565b959260c09592989794919860e08801998852602088015260408701526060860152608085015260a08401521515910152565b3461063b57602036600319011261063b576004356001600160401b038116810361063b576001600160401b03165f9081527f348bae4e1f5cd16c7acea618682eb9de87b5f8161d5b94b9b5591b7620ae71a26020526040902080546107c7600183015492600281015490600381015460048201549060ff60066005850154940154169360405197889788611b80565b3461063b57611c4f366108f7565b600654919290916001600160a01b031680611d2c57506005546001600160a01b03165b6001600160a01b03163303610a8757611c89614424565b6001600160a01b038116918215610a78578015610a69576109c5611cd9916109c05f516020615c9c5f395f51905f52966109b2604051938492634404589760e01b602085015288602485016134c8565b939091610a27611ce8826144d9565b91611cfc611cf46134fc565b888786614652565b84611d2657865b80611d125750610a228561105d565b80611d20610a5c9286614e46565b84614e6d565b5f611d03565b611c72565b3461063b57602036600319011261063b57600435611d4e8161062a565b60018060a01b03165f52600f602052602060405f2054604051908152f35b6001600160801b03169052565b3461063b57604036600319011261063b576060611da3602435600435611d9e8261062a565b613ea1565b6040805193151584526001600160801b039092166020840152151590820152f35b3461063b57602036600319011261063b576004355f527ffed699897f2561c8a98f833aa3de83c4904370d413fe5fb15abe26e9f8150b2d602052602060405f2054604051908152f35b3461063b57611e1b366108f7565b90611e24614424565b61172c6147a1565b3461063b575f36600319011261063b57611e44614e94565b600380546001600160a01b031981169091555f906001600160a01b03165f516020615dbc5f395f51905f528280a3005b9181601f8401121561063b578235916001600160401b03831161063b576020838186019501011161063b57565b604060031982011261063b57600435906001600160401b03821161063b57611ecb91600401611e74565b9091602435610cb98161062a565b3461063b57611ee736611ea1565b6006549091906001600160a01b031680611f2157506005546001600160a01b03165b6001600160a01b03163303610a8757610a5092613f78565b611f09565b602060031982011261063b57600435906001600160401b03821161063b57611f50916004016111f8565b9091565b9291604084019360408152825180955260206060820193015f955b808710611f8b575050610cb99394506020818403910152611774565b909360208060019287511515815201950196019590611f6f565b3461063b57611fb336611f26565b90611fbd82613c80565b90611fc783613c80565b925f5b818110611fe3575050506107c760405192839283611f54565b80611ffb611ff46001938587614162565b369161147e565b6020815191012061200b8161108a565b9061201b825460ff9060a01c1690565b1561204f575061203d9061203861203284896138bd565b60019052565b614c4e565b61204782886138bd565b525b01611fca565b61205991506110a4565b805460ff81169081612099575b50612072575b50612049565b6120889061208361203284896138bd565b614cf2565b61209282886138bd565b525f61206c565b60881c63ffffffff16151590505f612066565b3461063b57602036600319011261063b576004355f525f516020615d9c5f395f51905f52602052602060018060401b0360405f205416604051908152f35b3461063b57604036600319011261063b575f806004356121098161062a565b602435906121156147a1565b6109b2612142612123614934565b936040519283916020830195637fcb29c960e01b8752602484016141a3565b51915af461214e613707565b501561215657005b63fb713d2b60e01b5f5260045ffd5b3461063b57602036600319011261063b576004356121828161062a565b60018060a01b03165f526009602052602060ff60405f2054166040519015158152f35b3461063b5760a036600319011261063b576004356121c2816107e8565b6024356121ce8161062a565b6044356064356084356006549092906001600160a01b03168061229c57506005546001600160a01b03165b6001600160a01b03163303610a87576107c79461228c936122859361227693612220614934565b6040516382b720c960e01b60208201526001600160e01b031990951660248601526001600160a01b0390981660448501526064840152608483015260a480830191909152815261227160c4826113bb565b614471565b602080825183010191016141be565b8092614b8f565b6040519081529081906020820190565b6121f9565b3461063b57602036600319011261063b576004356122bd6147a1565b80156122f4576020817fd45b01a2f21a7aa8a0f57023efdce73147de071e77875c3f4d486b1e13eaef7092600755604051908152a1005b6376024b7160e01b5f5260045ffd5b3461063b57602036600319011261063b577fc52867146282c253c04e94eb2a948478a1f7ef84cf2d6f5864facc99f2203f2c602060043561234381610bb4565b61234b6147a1565b151560ff19600a541660ff821617600a55604051908152a1005b3461063b57602036600319011261063b576004355f527ffed699897f2561c8a98f833aa3de83c4904370d413fe5fb15abe26e9f8150b2c602052602060405f2054604051908152f35b3461063b575f36600319011261063b576003546040516001600160a01b039091168152602090f35b3461063b57602036600319011261063b5760206123f46004356141cd565b6040519015158152f35b3461063b57602036600319011261063b5761244a60043561241d614424565b6124256147a1565b604051906348d7f0b960e11b6020830152602482015260248152611b5e6044826113bb565b506001600455005b3461063b57602036600319011261063b5760043561246f8161062a565b60018060a01b03165f526010602052602060405f2054604051908152f35b3461063b575f36600319011261063b576006546040516001600160a01b039091168152602090f35b3461063b57602036600319011261063b576004355f527ffed699897f2561c8a98f833aa3de83c4904370d413fe5fb15abe26e9f8150b2e602052602060405f2054604051908152f35b3461063b57602036600319011261063b5760043560ff61251d33610eb0565b5416156111ba5761252c614934565b905f806040516020810190634c4a8dab60e11b8252846024820152602481526125566044826113bb565b5190855af4612563613707565b501561215657610a5091614b8f565b3461063b575f36600319011261063b576020600854604051908152f35b3461063b575f36600319011261063b576107c76125aa614805565b604051918291602083526020830190610c84565b81516001600160401b039081168252602080840151909116908201526040808301516001600160801b031690820152606080830151610100830194936113ed939260e0928392916126129190860190611d6c565b60808181015115159085015260a08181015160ff169085015260c08181015160ff16908501520151910190611d6c565b3461063b57602036600319011261063b576004355f60e06040516126658161139f565b8281528260208201528260408201528260608201528260808201528260a08201528260c082015201525f525f516020615d1c5f395f51905f526020526107c760405f2061275c61274c6002604051936126bd8561139f565b80546001600160401b038082168752604082901c1660208701526126ee9060801c6001600160801b03166040870152565b60018101546001600160801b038116606087015261273e906127349061271e608082901c60ff16151560808a0152565b60ff608882901c1660a089015260901c60ff1690565b60ff1660c0870152565b01546001600160801b031690565b6001600160801b031660e0830152565b604051918291826125be565b604090600319011261063b576004356127808161062a565b90602435610cb981610bb4565b3461063b5761279b36612768565b6001600160a01b0382169182156127fa57816127c56127ca92335f52600160205260405f20610f01565b613aea565b60405190151581527f17307eab39ab6107e8899845ad3d59bd9653f200f220920489ca2b5937696c3160203392a3005b62ced3e160e81b5f525f60045260245ffd5b3461063b57604036600319011261063b576004356001600160401b03811161063b5761283c9036906004016111f8565b906024359161284a8361062a565b6006546001600160a01b031680612a8d57506005546001600160a01b03165b6001600160a01b03163303610a8757612880614424565b6001600160a01b03831615610a7857801561215657611b5e6128bc926109b28560405194859363bca0e27d60e01b602086015260248501614281565b906128d0602083518401016020840161437f565b92939150938451835103612a6c57506128e8906144d9565b906128f2826145f0565b6128fb82610e97565b54155f925f945f5b87518110156129485761291681896138bd565b5115612925575b600101612903565b95509361293d9061293687866138bd565b51906143df565b60019590949061291d565b509093919415612a64575b508380612a59575b612a31575b80612a1a575b5f5b85518110156129f15761297b81846138bd565b51908115610a695760019161299082896138bd565b51156129eb5764174876e8006129a6838a6138bd565b51106129c7576129c1906129ba838a6138bd565b5187614dce565b01612968565b6129e6906129d5838a6138bd565b51906129df6134fc565b9188614652565b6129c1565b506129c1565b83828615612a0c57612a0291614672565b610a506001600455565b612a1591614e6d565b612a02565b612a2c612a256134fc565b828561462d565b612966565b612a41612a3c614ee4565b61087c565b50548110156129605763559d06d760e01b5f5260045ffd5b50601754151561295b565b90505f612953565b60405163dccff66960e01b8152908190612a899060048301610ca8565b0390fd5b612869565b3461063b575f36600319011261063b576020601854604051908152f35b3461063b575f36600319011261063b57602060405164174876e8008152f35b3461063b575f36600319011261063b576020601354604051908152f35b3461063b57604036600319011261063b57600435612b088161062a565b60065460243591906001600160a01b031680612bcc57506005546001600160a01b03165b6001600160a01b03163303610a8757612b43614424565b6001600160a01b038116908115610a78578215610a69576020612b867f6ac4f60455173f2148d89d52868ac4ffb14111720d245aa36ad26e0d7e64c59b926144d9565b612ba0604051612b9684826113bb565b5f8152868361462d565b612baa8582614e46565b612bb48582614e6d565b6040519485526001600160a01b031693a36001600455005b612b2c565b3461063b57602036600319011261063b576004355f525f516020615d7c5f395f51905f52602052602060018060401b0360405f205416604051908152f35b3461063b57602036600319011261063b576004355f525f516020615d5c5f395f51905f52602052602060405f2054604051908152f35b3461063b5760c036600319011261063b576107c7600435612c64610b46565b7f0d52bfb4760322d7d520c725a53d2a1b3a1d17bdc1615c95867a525cbf7916f3612c8d610b5c565b9160643593612cef85608435612ce061227686612cdb876109b28c8760a435998a92612cb7614424565b612cbf6147a1565b6040516363039f8b60e11b6020820152978896602488016143ec565b61448a565b978897604051968796876143ec565b0390a260016004556040519081529081906020820190565b3461063b57604036600319011261063b575f80600435612d268161062a565b60243590612d326147a1565b6109b2612142612d40614934565b9360405192839160208301956363706efd60e11b8752602484016141a3565b3461063b575f36600319011261063b5760206040515f8152f35b3461063b57606036600319011261063b5760043560ff811680910361063b57602435906001612da6610b5c565b9103612e1b57612ddf915f527f348bae4e1f5cd16c7acea618682eb9de87b5f8161d5b94b9b5591b7620ae71a360205260405f20613e8c565b80546107c76001830154926002810154906003810154600482015490612e0e6006600585015494015460ff1690565b9360405197889788611b80565b612e4e915f527f348bae4e1f5cd16c7acea618682eb9de87b5f8161d5b94b9b5591b7620ae71a460205260405f20613e8c565b612ddf565b3461063b57602036600319011261063b576004356001600160401b03811161063b57612e86612eca913690600401611e74565b612e8e614424565b612e966147a1565b612ec26040516365e270d560e11b602082015260206024820152611b5e816109b2604482018688614261565b50369161147e565b602081519101207fc0701a0c15577896ad516e3ca2668eb0cee26a8f32bc862c0d94950619e368035f80a26001600455005b3461063b57602036600319011261063b576004355f52600c602052602060405f2054604051908152f35b3461063b57602036600319011261063b57600435612f426147a1565b7f1c8121c98d871a1523a6112e29ac660378afbcb9b921cff8f187c3da35d1708181600854612f7660405192839283613510565b0390a1600855005b3461063b575f36600319011261063b57602060ff600a54166040519015158152f35b3461063b575f36600319011261063b576040517f00000000000000000000000000000000000000000000000000000000000000006001600160a01b03168152602090f35b3461063b575f36600319011261063b5760207fbc488d3e2575f0f2113dc4d9a0cd6bc52445c6bc28a8974ed97a6ba3ecfd657f54604051908152f35b3461063b57602036600319011261063b576004355f526016602052602060405f2054604051908152f35b3461063b57608036600319011261063b5760443560043560643560243561307082610bb4565b6130786147a1565b821561314c57601754916040519461308f86611384565b8486526020860192808452604087019382855260608801978415158952600160401b87101561137f57600187016017556130c88761087c565b919091613147577fb08290a3275552d4032ce96418c8bc739fd6be2860fe5897558f5c0af90e91fb9961314297613115946003935185555160018501555160028401555115159101613aea565b6040519586958693909594919260809360a086019786526020860152604085015260608401521515910152565b0390a1005b613a7d565b639033099360e01b5f5260045ffd5b3461063b57610a5061316c36612768565b906131756147a1565b6001600160a01b03165f908152600960205260409020613aea565b3461063b575f36600319011261063b5760ff60065460a01c1660405160098210156131bc576020918152f35b634e487b7160e01b5f52602160045260245ffd5b3461063b57604036600319011261063b57602060ff6112e86004356131f48161062a565b602435906132018261062a565b6001600160a01b03165f9081526001855260409020610f01565b3461063b5760a036600319011261063b576004356132388161062a565b6024356132448161062a565b60443590606435926084356001600160401b03811161063b5761326b9036906004016114b4565b926001600160a01b03821633811415806132e8575b6132d2576001600160a01b038416156132bf57156132ad57610a50946132a591614f81565b929091615269565b626a0d4560e21b5f525f60045260245ffd5b632bfa23e760e11b5f525f60045260245ffd5b63711bec9160e11b5f523360045260245260445ffd5b50805f52600160205260ff6133003360405f20610f01565b541615613280565b3461063b57602036600319011261063b576004356133258161062a565b61332d614e94565b6001600160a01b0316801561336c57600380546001600160a01b0319811683179091556001600160a01b03165f516020615dbc5f395f51905f525f80a3005b631e4fbdf760e01b5f525f60045260245ffd5b3461063b5761338d36611f26565b9061339782613c80565b906133a183613c80565b925f5b8181106133bd575050506107c760405192839283611f54565b806133cb600192848661382f565b356133d58161108a565b906133e5825460ff9060a01c1690565b1561340e57506133fc9061203861203284896138bd565b61340682886138bd565b525b016133a4565b61341891506110a4565b805460ff81169081613453575b50613431575b50613408565b6134429061208361203284896138bd565b61344c82886138bd565b525f61342b565b60881c63ffffffff16151590505f613425565b3461063b57602036600319011261063b576004355f52600d602052602060405f2054604051908152f35b3461063b575f36600319011261063b576020601454604051908152f35b3461063b575f36600319011261063b576020604051600b8152f35b604091949392606082019560018060a01b0316825260208201520152565b919082604091031261063b576020825192015190565b6040519061350b6020836113bb565b5f8252565b908152602081019190915260400190565b600654909793969195939492939192906001600160a01b03168061363057506005546001600160a01b03165b6001600160a01b03163303610a875760098310156131bc57604051630bd6783360e01b6020820152602481018990526001600160401b0396871660448201529590931660648601526001600160801b03958616608486015291851660a485015290151560c484015260ff1660e48301529091166101048083019190915281526135dc906109c0610124826113bb565b507ff236e4a60720cc79b1fa956ec64fd78f4d702ba14614ed969c4912a86a3e995161362b61361f835f525f516020615d1c5f395f51905f5260205260405f2090565b60405191829182613635565b0390a2565b61354d565b81546001600160401b0381168252610100820193926113ed929160e0916136cb916002919061367e90604081901c6001600160401b03166020880152604087019060801c611d6c565b600181015461273e9061369d606088016001600160801b038316611d6c565b6136b16080880160ff8360801c1615159052565b608881901c60ff1660a088015260901c60ff1660c0870152565b910190611d6c565b5f516020615dfc5f395f51905f5255565b5f516020615cdc5f395f51905f5255565b805191908290602001825e015f815290565b3d15613731573d9061371882611463565b9161372660405193846113bb565b82523d5f602084013e565b606090565b98978298611b4c61010494869a859a6137bd9a8f9a611b5e9a6137896109b29a9d61375f614424565b6137676147a1565b604051631163081760e11b602082015260e060248201529e8f9d8e019161380b565b60448c019690965260648b01526001600160401b0390811660848b01521660a48901528783036023190160c489015261380b565b505f5b8181106137d65750505050506113ed6001600455565b806137e4600192848861382f565b355f516020615e3c5f395f51905f5260405180613802888a83613510565b0390a2016137c0565b81835290916001600160fb1b03831161063b5760209260051b809284830137010190565b91908110156108985760051b0190565b90613849826113ef565b61385660405191826113bb565b8281528092613867601f19916113ef565b015f5b81811061387657505050565b60405160a0810191906001600160401b0383118184101761137f576020926040525f81525f838201525f60408201525f60608201525f60808201528282860101520161386a565b80518210156108985760209160051b010190565b6001600160a01b0381165f908152600e602052604090209091909182546138f78161383f565b935f5b82811061393a5750505f80805260205250613935907fad3228b676f7d3cd4284a5443f17f1962b36e491b30a40b2405849e597ba5fb5610f01565b549190565b8061395461394a60019385610f46565b90549060031b1c90565b6139be613969825f52600b60205260405f2090565b5480151590816139da575b613986845f52600c60205260405f2090565b54613999855f52600d60205260405f2090565b54906139a36113de565b95865260208601526040850152606084015215156080830152565b6139c882896138bd565b526139d381886138bd565b50016138fa565b809150421190613974565b939291906001600160a01b0385163381141580613a1e575b6132d2576001600160a01b038216156132bf57156132ad576113ed94615269565b50805f52600160205260ff613a363360405f20610f01565b5416156139fd565b91908110156108985760071b0190565b634e487b7160e01b5f52601160045260245ffd5b908160011b9180830460021490151715613a7857565b613a4e565b634e487b7160e01b5f525f60045260245ffd5b6017545f60175580613a9f5750565b600281901b906001600160fe1b03811603613a785760175f5260205f205f5b828110613aca57505050565b805f60036004938501828155826001820155826002820155015501613abe565b9060ff801983541691151516179055565b601754600160401b81101561137f57600181016017556017548110156108985760175f5260021b5f516020615ddc5f395f51905f5201600360606113ed93803584556020810135600185015560408101356002850155013591613b5d83610bb4565b01613aea565b613b6b6147a1565b8115613bf1575f5b828110613bd85750613b83613a90565b5f5b828110613bbc5750506040519081527f2f291eaf494dc7eca20457441a1df7d9119f0c0d764309daf9cb6b148810ee3690602090a1565b80613bd2613bcd6001938686613a3e565b613afb565b01613b85565b613be3818484613a3e565b351561314c57600101613b73565b6308ba5b6160e01b5f5260045ffd5b805f525f516020615d3c5f395f51905f5260205260405f2060ff815460a01c16613c7657505f525f516020615cfc5f395f51905f5260205260405f20805460ff81169081613c63575b50613c5557505f905f90565b613c5e90614cf2565b600191565b63ffffffff915060881c1615155f613c49565b613c5e9150614c4e565b90613c8a826113ef565b613c9760405191826113bb565b8281528092613ca8601f19916113ef565b0190602036910137565b91909180518351808203613d17575050613ccc8151613c80565b905f5b8151811015613d105780613cfe60019260051b602080828701015191890101515f525f60205260405f20610f01565b54613d0982866138bd565b5201613ccf565b5090925050565b635b05999160e01b5f5260045260245260445ffd5b97959192613d9c9460209694613d8a93613d44614424565b613d4c6147a1565b6040516352b9ec2360e01b8a820152602481019c909c526001600160401b0390811660448d01521660648b015260c060848b015260e48a0191613e05565b8781036023190160a489015291613e05565b8481036023190160c48601528281520191905f905b808210613ddd5750505090611b5e81613dd29303601f1981018352826113bb565b506113ed6001600455565b90919283359063ffffffff821680920361063b57602081600193829352019401920190613db1565b90602083828152019060208160051b85010193835f915b838310613e2c5750505050505090565b909192939495601f198282030186528635601e198436030181121561063b578301602081019190356001600160401b03811161063b578060051b3603831361063b57613e7e602092839260019561380b565b980196019493019190613e1c565b9060018060401b03165f5260205260405f2090565b90613eab8261108a565b5460ff8160a01c16613f635750613ec1826110a4565b5460ff81169081613f50575b50613edc5750505f905f905f90565b6001600160a01b03811615159182613f08575b5050613eff576001905f90600190565b5f905f90600190565b613f49925090610a22613f42925f527fcb1a422c9916903f224af4db9a3bf1529921bf95ff7b75d7d9ed9073a48394ad60205260405f2090565b5460ff1690565b5f80613eef565b60881c63ffffffff16151590505f613ecd565b6001936001600160801b0390911692505f9150565b90613f81614424565b6001600160a01b03831615610a7857611b5e613fb7926109b28560405194859363fd44e85560e01b602086015260248501614ebb565b91613fcb602084518501016020850161437f565b92949150948551835103612a6c5750613fe3906144d9565b613fec816145f0565b613ff581610e97565b5415905f935f955f5b885181101561403c57614011818a6138bd565b5115614020575b600101613ffe565b9650946140319061293688876138bd565b600196909590614018565b509092959491941561415a575b50848061414f575b61412c575b80614115575b5f5b86518110156140e75761407181856138bd565b51908115610a6957600191614086828a6138bd565b51156140e15764174876e80061409c838b6138bd565b51106140bd576140b7906140b0838b6138bd565b5188614dce565b0161405e565b6140dc906140cb838b6138bd565b51906140d56134fc565b9189614652565b6140b7565b506140b7565b509293915093505f14614107576140fd91614672565b6113ed6001600455565b61411091614e6d565b6140fd565b6141276141206134fc565b828661462d565b61405c565b614137612a3c614ee4565b50548110156140565763559d06d760e01b5f5260045ffd5b506017541515614051565b90505f614049565b91908110156108985760051b81013590601e198136030182121561063b5701803591906001600160401b03831161063b57602001823603811361063b579190565b6001600160a01b039091168152602081019190915260400190565b9081602091031261063b575190565b64174876e8008110614252575f9081525f516020615d7c5f395f51905f5260209081526040808320545f516020615d9c5f395f51905f52909252909120546001600160401b0390811691168015159081614257575b50614252576001600160401b03168015159081614248575b5061424457600190565b5f90565b905042115f61423a565b505f90565b905042105f614222565b908060209392818452848401375f828201840152601f01601f1916010190565b93929190816040860160408752526060850160608360051b87010192825f90601e19813603015b8383106142cb575050505050509060206113ed9294019060018060a01b03169052565b909192939495605f198a820301865286358281121561063b578301602081019190356001600160401b03811161063b57803603831361063b576143146020928392600195614261565b9801960194930191906142a8565b9080601f8301121561063b578151614339816113ef565b9261434760405194856113bb565b81845260208085019260051b82010192831161063b57602001905b82821061436f5750505090565b8151815260209182019101614362565b9060808282031261063b57815192602083015192604081015160018060401b03811161063b57836143b1918301614322565b60608201519093906001600160401b03811161063b57610cb99201614322565b9060018201809211613a7857565b91908201809211613a7857565b9081526001600160401b039182166020820152911660408201526060810191909152608081019190915260a081019190915260c00190565b600260045414614435576002600455565b633ee5aeb560e01b5f5260045ffd5b5f809161445160016149c6565b602082519201905af490614463613707565b911561446b57565b50614f4f565b5f809161445160036149c6565b5f8091614451826149c6565b5f809161445160026149c6565b5f809161445160046149c6565b9081602091031261063b5751610cb98161062a565b6040513d5f823e3d90fd5b9081602091031261063b5751610cb981610bb4565b600460206144f36144ee6144ee60055461061e565b61061e565b604051630e83251360e01b815292839182905afa9081156145ad575f916145c1575b506001600160a01b031680156145b257602060405180926303330c7960e41b825281806145458760048301610e25565b03915afa9081156145ad575f9161457e575b5061456557610cb990614699565b803b1561456f5790565b632ad05f3360e11b5f5260045ffd5b6145a0915060203d6020116145a6575b61459881836113bb565b8101906144c4565b5f614557565b503d61458e565b6144b9565b63ab82bb9960e01b5f5260045ffd5b6145e3915060203d6020116145e9575b6145db81836113bb565b8101906144a4565b5f614515565b503d6145d1565b60405163e6a84c7760e01b60208201526001600160a01b03909116602480830191909152815261462a906146256044826113bb565b614497565b50565b9091906001600160a01b038116156132bf5761464c6113ed935f614f81565b91614fa6565b919291906001600160a01b038216156132bf576113ed9361464c91614f81565b9061462561462a926109b260405193849263179953bf60e11b6020850152602484016141a3565b600460206146ae6144ee6144ee60055461061e565b60405163fb3894d360e01b815292839182905afa9081156145ad575f91614782575b506001600160a01b0381169182156145b257602060405180946308a8c59960e01b825281806147028660048301610e25565b03915afa9283156145ad575f93614761575b506001600160a01b038316158015614758575b61473057505090565b63ad12d34160e01b5f526001600160a01b039081166004529081166024521660445260645b5ffd5b50823b15614727565b61477b91935060203d6020116145e9576145db81836113bb565b915f614714565b61479b915060203d6020116145e9576145db81836113bb565b5f6146d0565b6006546001600160a01b03168061480057506005546001600160a01b03165b6003546001600160a01b031633141590816147ec575b506147dd57565b630fc5e1ab60e41b5f5260045ffd5b6001600160a01b031633141590505f6147d6565b6147c0565b6005546001600160a01b031680158181156148c9575b506145b2575f60049160405192838092634f9e8d1560e11b82525afa9081156145ad575f91614850575b508051156145b25790565b90503d805f833e61486181836113bb565b81019060208183031261063b578051906001600160401b03821161063b570181601f8201121561063b5780519061489782611463565b926148a560405194856113bb565b8284526020838301011161063b57815f9260208093018386015e830101525f614845565b90503b155f61481b565b604051906148e26040836113bb565b601082526f181899199a1a9b1b9c1cb0b131b232b360811b6020830152565b6040516060919061491283826113bb565b6028815291601f1901366020840137565b908151811015610898570160200190565b61493f60055461061e565b6001600160a01b0381169081159081156149bc575b506145b257602060049160405192838092632502c7e760e11b82525afa9081156145ad575f9161499d575b506001600160a01b038116610cb95763a9d04f8760e01b5f5260045ffd5b6149b6915060203d6020116145e9576145db81836113bb565b5f61497f565b90503b155f614954565b6149d160055461061e565b6001600160a01b03811691908215908115614b4c575b506145b257602060ff600492169283155f14614a7857604051620c3c5d60e81b815292839182905afa9081156145ad575f91614a59575b505b6001600160a01b038116614a545760048214614a455763a9d04f8760e01b5f5260045ffd5b632dc6cc2360e01b5f5260045ffd5b905090565b614a72915060203d6020116145e9576145db81836113bb565b5f614a1e565b60018403614ac757604051635ee738d560e11b815292839182905afa9081156145ad575f91614aa8575b50614a20565b614ac1915060203d6020116145e9576145db81836113bb565b5f614aa2565b60028403614af657604051632b5e757b60e11b815292839182905afa9081156145ad575f91614aa85750614a20565b60038403614b2557604051632502c7e760e11b815292839182905afa9081156145ad575f91614aa85750614a20565b6040516324e1067960e11b815292839182905afa9081156145ad575f91614aa85750614a20565b90503b155f6149e7565b908160a091031261063b578051614b6c816107e8565b916020820151614b7b8161062a565b916040810151916080606083015192015190565b90614bae815f525f516020615e1c5f395f51905f5260205260405f2090565b600681015460ff16908115614c32575b50614c2e575f918291604051614bee816109b26020820194630d61b51960e01b8652602483019190602083019252565b51915af4614bfa613707565b9015614c2957614c16816020806113ed94518301019101614b56565b509290916001600160a01b031690615528565b614f4f565b5050565b6005915001545f516020615cdc5f395f51905f5254115f614bbe565b60018060801b038154169060028101600381549201908154838110614cd1575b5060408311614cc8575b5f5b838110614c88575050505090565b614c928183610f46565b90549060031b1c15614ca7575b600101614c7a565b93614cb28584610f46565b90549060031b1c8101809111613a785793614c9f565b60409250614c78565b92505f614c6e565b8054821015610898575f52600360205f20910201905f90565b60010180545f9160208211614d9e575b5f5b828110614d115750505090565b614d1b8183614cd9565b5060018101600281549201908154838110614d96575b5060408311614d8d575b5f5b838110614d505750505050600101614d04565b614d5d61394a8284610f46565b15614d6b575b600101614d3d565b96614d85600191614d7f61394a8b87610f46565b906143df565b979050614d63565b60409250614d3b565b92505f614d31565b60209150614d02565b9061462561462a926109b2604051938492635bcc7ca960e11b6020850152602484016141a3565b60207fae2f87dbf103db294ddd4ab45caa7a914d70bb3d06eeb8a8dc23e03e84548c8d91614e17604051633c2f328b60e11b84820152612cdb816109b2898987602485016134c8565b50614e33604051614e2884826113bb565b5f8152868684614652565b6040519485526001600160a01b031693a3565b9061462561462a926109b260405193849263b932546160e01b6020850152602484016141a3565b9061462561462a926109b260405193849263a55d613f60e01b6020850152602484016141a3565b6003546001600160a01b03163303614ea857565b63118cdaa760e01b5f523360045260245ffd5b91602091614ed491959495604085526040850191614261565b6001600160a01b03909416910152565b6017548015614f49575f90601754156108985760175f525f516020615ddc5f395f51905f525460015b828110614f1a5750505090565b81614f248261087c565b505410614f34575b600101614f0d565b809350614f41915061087c565b505482614f2c565b505f1990565b80519081614f7c5760405163dccff66960e01b815260206004820152908190612a89906024830190610c84565b602001fd5b9160405192600184526020840152604083019160018352606084015260808301604052565b9293614fb28251613c80565b91614fbd8151613c80565b935f925f5b83518110156150d057614fd581856138bd565b516064811015806150c2575b615060571580615059575b614ffb575b6001905b01614fc2565b600a5460ff1661500b575b614ff1565b5f8052600960205261503061502c5f516020615c7c5f395f51905f52613f42565b1590565b15614ff15761504461502c613f428a610ee8565b15615006575b639798976560e01b5f5260045ffd5b505f614fec565b6001600160a01b03891615806150bb575b61507f575b50600190614ff5565b856150b4916150a45f6150956001969a8c6138bd565b6001600160a01b039091169052565b6150ae828b6138bd565b526156ab565b9490615076565b505f615071565b5064174876e8008110614fe1565b5092969093959194956150e58587855f615a9b565b5f97885b87518a10156151465761513e8a60019261512c615111615109848d6138bd565b51938d6138bd565b515f525f516020615d5c5f395f51905f5260205260405f2090565b6151378382546143df565b90556143df565b9901986150e9565b61517091939795995061516b90989294985f516020615dfc5f395f51905f52546143df565b6136d3565b6001600160a01b03871615928361520a575b5f5b8381106151d357505050501561519b575b50505050565b80516001036151c357906020806151ba95930151910151915f3361583f565b5f808080615195565b6151ce935f33615721565b6151ba565b806152046151f36151e6600194866138bd565b516001600160a01b031690565b6151fd83876138bd565b5190615c54565b01615184565b969290979395915f985f995b88518b1015615242578a600191615233615111615109848d6138bd565b828154039055019a0199615216565b61526491939599929498969a505f516020615dfc5f395f51905f5254036136d3565b615182565b929490936001600160a01b038416158015949093908580615515575b61528f8351613c80565b9261529a8151613c80565b955f955f5b83518110156153b7576152b281856138bd565b516064811015806153a9575b615330571580615329575b6152d8575b6001905b0161529f565b600a5460ff16156152ce575f805260096020528b61530561502c5f516020615c7c5f395f51905f52613f42565b615310575b506152ce565b61502c613f4261531f92610ee8565b61504a578b61530a565b508a6152c9565b8a86615398575b15615389576001600160a01b038d161580615382575b61535b575b506001906152d2565b8861537b91615371896150956001969d8d6138bd565b6150ae828d6138bd565b9790615352565b508561534d565b63b8333dc960e01b5f5260045ffd5b506001600160a01b038d1615615337565b5064174876e80081106152be565b50985099959150979391956153ce868a878a615a9b565b6154b6575b6001600160a01b03841615928361544f575b5f5b8381106154365750505050156153ff575b5050505050565b84516001036154255760208061541b960151920151923361583f565b5f808080806153f8565b61543194919233615721565b61541b565b806154496151f36151e6600194866138bd565b016153e7565b979693915f9693915f975b895189101561548e578960019161547f6151118c615478818e6138bd565b51946138bd565b8281540390550198019761545a565b6154b191939598509991939598995f516020615dfc5f395f51905f5254036136d3565b6153e5565b979394915f9693915f975b89518910156154ea576154e28a60019261512c6151118d615478818f6138bd565b9801976154c1565b615510919395985061516b909a929497969a5f516020615dfc5f395f51905f52546143df565b6153d3565b6001600160a01b03881615159650615285565b9092906001600160e01b031916637fcb29c960e01b810361554e5750506113ed91615999565b6363706efd60e11b810361566f575090916001600160a01b03811691508115610a785761558061502c613f4283610eb0565b6121565760015f516020615cbc5f395f51905f52541115612156576155a76155b191610eb0565b805460ff19169055565b5f905f516020615cbc5f395f51905f52545f5b818110615601575b5050501561215657801580156155ea575b612156576113ed906136e4565b505f516020615cbc5f395f51905f525481116155dd565b826156266144ee61561184610f16565b905460039190911b1c6001600160a01b031690565b14615633576001016155c4565b915061565d925061565161561161564c615657936158dd565b610f16565b91610f16565b906158eb565b61566561590e565b60015f80806155cc565b631cb4772560e21b8103615692575050906113ed9161568c6134fc565b9161462d565b90915063178fb21b60e11b03612156576113ed91614da7565b5f198114613a785760010190565b9081602091031261063b5751610cb9816107e8565b6001600160a01b0391821681529116602082015260a060408201819052610cb9949193919261571392916157059190860190611774565b908482036060860152611774565b916080818403910152610c84565b9091949293853b615735575b505050505050565b60209361575791604051968795869563bc197c8160e01b8752600487016156ce565b03815f6001600160a01b0387165af15f91816157d5575b5061579f575061577c613707565b805191908261579857632bfa23e760e11b5f5261475582610e14565b6020915001fd5b6001600160e01b0319166343e6837f60e01b016157c257505f808080808061572d565b632bfa23e760e11b5f5261475590610e14565b6157f891925060203d6020116157ff575b6157f081836113bb565b8101906156b9565b905f61576e565b503d6157e6565b6001600160a01b039182168152911660208201526040810191909152606081019190915260a060808201819052610cb992910190610c84565b9091949293853b61585257505050505050565b60209361587491604051968795869563f23a6e6160e01b875260048701615806565b03815f6001600160a01b0387165af15f91816158bc575b50615899575061577c613707565b6001600160e01b031916630dc5919f60e01b016157c257505f808080808061572d565b6158d691925060203d6020116157ff576157f081836113bb565b905f61588b565b5f19810191908211613a7857565b80546001600160a01b0360039390931b83811b199091169290931690921b179055565b5f516020615cbc5f395f51905f52548015615985575f198101905f516020615cbc5f395f51905f5254821015610898575f516020615cbc5f395f51905f525f8190527f1e7af2776b414202f4d0720b6aeaf88d7ffd91a44ea0aa781eb527e3c97a87b890910180546001600160a01b031916905555565b634e487b7160e01b5f52603160045260245ffd5b6001600160a01b03811615610a785760ff6159b382610eb0565b5416156159da575b505f516020615cbc5f395f51905f52548111612156576113ed906136e4565b6159e381610eb0565b805460ff191660011790555f516020615cbc5f395f51905f525490600160401b82101561137f57600182015f516020615cbc5f395f51905f52555f516020615cbc5f395f51905f5254821015610898575f516020615cbc5f395f51905f525f908152615a70927f1e7af2776b414202f4d0720b6aeaf88d7ffd91a44ea0aa781eb527e3c97a87b9016158eb565b5f6159bb565b9091615a8d610cb993604084526040840190611774565b916020818403910152611774565b9392918051835190818103615c3f5750505f5b8151811015615b9a578060051b90602080838501015192860101518460018060a01b038916615b1d575b6001936001600160a01b038216615af3575b50505001615aae565b615b1391610a22615b0b925f525f60205260405f2090565b9182546143df565b90555f8481615aea565b509091615b3588610a22835f525f60205260405f2090565b54828110615b6357829160019493879203615b5b8b610a22845f525f60205260405f2090565b559350615ad8565b6040516303dee4c560e01b81526001600160a01b038a16600482015260248101919091526044810183905260648101829052608490fd5b508051939493919291600103615bfc576020908101519101516040516001600160a01b03938416949093169233927fc3d58168c5ae7397731d063d5bbf3d657854427343f4c083240f7aacaa2d0f62928291615bf7919083613510565b0390a4565b6040516001600160a01b03938416949093169233927f4a39dc06d4c0dbc64b70af90fd698a233a518aa5d07e595d983b8c0526c8f7fb928291615bf79183615a76565b635b05999160e01b5f5260045260245260445ffd5b9061462561462a926109b2604051938492637e4152e760e11b6020850152602484016141a356feec8156718a8372b1db44bb411437d0870f3e3790d4a08526d024ce1b0b668f6b3bf2de114e2e7636c289f21be023528e47d89b45e873b976c78989c3ddc683f5bc488d3e2575f0f2113dc4d9a0cd6bc52445c6bc28a8974ed97a6ba3ecfd657cbc488d3e2575f0f2113dc4d9a0cd6bc52445c6bc28a8974ed97a6ba3ecfd657acb1a422c9916903f224af4db9a3bf1529921bf95ff7b75d7d9ed9073a48394ace5fcefe92466b78c655fa732b80b16e07a00f2a897e833e17d9914703cad5632cb1a422c9916903f224af4db9a3bf1529921bf95ff7b75d7d9ed9073a48394abd34312c2e21f45f2b6715cf87d9e919b2098c835582e2b5c6e716490b0dfd0d4fed699897f2561c8a98f833aa3de83c4904370d413fe5fb15abe26e9f8150b2afed699897f2561c8a98f833aa3de83c4904370d413fe5fb15abe26e9f8150b2b8be0079c531659141344cd1fd0a4f28419497f9722a3daafe3b4186f6b6457e0c624b66cc0138b8fabc209247f72d758e1cf3343756d543badbf24212bed8c15d34312c2e21f45f2b6715cf87d9e919b2098c835582e2b5c6e716490b0dfd0d5bc488d3e2575f0f2113dc4d9a0cd6bc52445c6bc28a8974ed97a6ba3ecfd657d5d5ebc8105f0482c05c969b7e79cf039bd47ae3ad5b49c5ffe0e2e1e26f3974fa2646970667358221220df15144eddb967322d265e8ea9305b34c2637df6fc32bf139ba216e83593cda264736f6c63430008210033bc488d3e2575f0f2113dc4d9a0cd6bc52445c6bc28a8974ed97a6ba3ecfd657c",
  "linkReferences": {},
  "deployedLinkReferences": {},
  "immutableReferences": {
    "2300": [
      {
        "length": 32,
        "start": 12213
      }
    ]
  },
  "inputSourceName": "project/src/BeamioUserCard/BeamioUserCard.sol",
  "buildInfoId": "solc-0_8_33-a27af4ee294174a50deeb02ebe39da2acdca5691"
}