{
  "_format": "hh3-artifact-1",
  "contractName": "BeamioUserCard",
  "sourceName": "src/BeamioUserCard/BeamioUserCard.sol",
  "abi": [
    {
      "inputs": [
        {
          "internalType": "string",
          "name": "uri_",
          "type": "string"
        },
        {
          "internalType": "enum BeamioCurrency.CurrencyType",
          "name": "currency_",
          "type": "uint8"
        },
        {
          "internalType": "uint256",
          "name": "pointsUnitPriceInCurrencyE6_",
          "type": "uint256"
        },
        {
          "internalType": "address",
          "name": "initialOwner",
          "type": "address"
        },
        {
          "internalType": "address",
          "name": "gateway_",
          "type": "address"
        },
        {
          "internalType": "uint8",
          "name": "upgradeType_",
          "type": "uint8"
        },
        {
          "internalType": "bool",
          "name": "initialTransferWhitelistEnabled",
          "type": "bool"
        },
        {
          "internalType": "string",
          "name": "contractName_",
          "type": "string"
        }
      ],
      "stateMutability": "nonpayable",
      "type": "constructor"
    },
    {
      "inputs": [],
      "name": "BM_NotAuthorized",
      "type": "error"
    },
    {
      "inputs": [],
      "name": "BM_ZeroAddress",
      "type": "error"
    },
    {
      "inputs": [],
      "name": "ECDSAInvalidSignature",
      "type": "error"
    },
    {
      "inputs": [
        {
          "internalType": "uint256",
          "name": "length",
          "type": "uint256"
        }
      ],
      "name": "ECDSAInvalidSignatureLength",
      "type": "error"
    },
    {
      "inputs": [
        {
          "internalType": "bytes32",
          "name": "s",
          "type": "bytes32"
        }
      ],
      "name": "ECDSAInvalidSignatureS",
      "type": "error"
    },
    {
      "inputs": [
        {
          "internalType": "address",
          "name": "sender",
          "type": "address"
        },
        {
          "internalType": "uint256",
          "name": "balance",
          "type": "uint256"
        },
        {
          "internalType": "uint256",
          "name": "needed",
          "type": "uint256"
        },
        {
          "internalType": "uint256",
          "name": "tokenId",
          "type": "uint256"
        }
      ],
      "name": "ERC1155InsufficientBalance",
      "type": "error"
    },
    {
      "inputs": [
        {
          "internalType": "address",
          "name": "approver",
          "type": "address"
        }
      ],
      "name": "ERC1155InvalidApprover",
      "type": "error"
    },
    {
      "inputs": [
        {
          "internalType": "uint256",
          "name": "idsLength",
          "type": "uint256"
        },
        {
          "internalType": "uint256",
          "name": "valuesLength",
          "type": "uint256"
        }
      ],
      "name": "ERC1155InvalidArrayLength",
      "type": "error"
    },
    {
      "inputs": [
        {
          "internalType": "address",
          "name": "operator",
          "type": "address"
        }
      ],
      "name": "ERC1155InvalidOperator",
      "type": "error"
    },
    {
      "inputs": [
        {
          "internalType": "address",
          "name": "receiver",
          "type": "address"
        }
      ],
      "name": "ERC1155InvalidReceiver",
      "type": "error"
    },
    {
      "inputs": [
        {
          "internalType": "address",
          "name": "sender",
          "type": "address"
        }
      ],
      "name": "ERC1155InvalidSender",
      "type": "error"
    },
    {
      "inputs": [
        {
          "internalType": "address",
          "name": "operator",
          "type": "address"
        },
        {
          "internalType": "address",
          "name": "owner",
          "type": "address"
        }
      ],
      "name": "ERC1155MissingApprovalForAll",
      "type": "error"
    },
    {
      "inputs": [
        {
          "internalType": "address",
          "name": "owner",
          "type": "address"
        }
      ],
      "name": "OwnableInvalidOwner",
      "type": "error"
    },
    {
      "inputs": [
        {
          "internalType": "address",
          "name": "account",
          "type": "address"
        }
      ],
      "name": "OwnableUnauthorizedAccount",
      "type": "error"
    },
    {
      "inputs": [],
      "name": "ReentrancyGuardReentrantCall",
      "type": "error"
    },
    {
      "inputs": [],
      "name": "UC_AmountZero",
      "type": "error"
    },
    {
      "inputs": [],
      "name": "UC_BelowMinThreshold",
      "type": "error"
    },
    {
      "inputs": [],
      "name": "UC_GlobalMisconfigured",
      "type": "error"
    },
    {
      "inputs": [
        {
          "internalType": "address",
          "name": "fromAccount",
          "type": "address"
        },
        {
          "internalType": "uint256",
          "name": "id",
          "type": "uint256"
        },
        {
          "internalType": "uint256",
          "name": "have",
          "type": "uint256"
        },
        {
          "internalType": "uint256",
          "name": "need",
          "type": "uint256"
        }
      ],
      "name": "UC_InsufficientBalance",
      "type": "error"
    },
    {
      "inputs": [
        {
          "internalType": "address",
          "name": "recovered",
          "type": "address"
        },
        {
          "internalType": "address",
          "name": "expected",
          "type": "address"
        }
      ],
      "name": "UC_InvalidSignature",
      "type": "error"
    },
    {
      "inputs": [
        {
          "internalType": "uint256",
          "name": "nowTs",
          "type": "uint256"
        },
        {
          "internalType": "uint256",
          "name": "validAfter",
          "type": "uint256"
        },
        {
          "internalType": "uint256",
          "name": "validBefore",
          "type": "uint256"
        }
      ],
      "name": "UC_InvalidTimeWindow",
      "type": "error"
    },
    {
      "inputs": [],
      "name": "UC_InvalidUpgradeType",
      "type": "error"
    },
    {
      "inputs": [],
      "name": "UC_NoBeamioAccount",
      "type": "error"
    },
    {
      "inputs": [],
      "name": "UC_NonceUsed",
      "type": "error"
    },
    {
      "inputs": [],
      "name": "UC_NotAdmin",
      "type": "error"
    },
    {
      "inputs": [],
      "name": "UC_OpenMintExecutorUnauthorized",
      "type": "error"
    },
    {
      "inputs": [],
      "name": "UC_PriceZero",
      "type": "error"
    },
    {
      "inputs": [
        {
          "internalType": "bytes",
          "name": "data",
          "type": "bytes"
        }
      ],
      "name": "UC_RedeemDelegateFailed",
      "type": "error"
    },
    {
      "inputs": [],
      "name": "UC_TierLenMismatch",
      "type": "error"
    },
    {
      "inputs": [],
      "name": "UC_TierMinZero",
      "type": "error"
    },
    {
      "inputs": [],
      "name": "UC_UnauthorizedGateway",
      "type": "error"
    },
    {
      "anonymous": false,
      "inputs": [
        {
          "indexed": true,
          "internalType": "address",
          "name": "beneficiaryAccount",
          "type": "address"
        },
        {
          "indexed": true,
          "internalType": "uint256",
          "name": "tokenId",
          "type": "uint256"
        },
        {
          "indexed": false,
          "internalType": "uint256",
          "name": "attr",
          "type": "uint256"
        },
        {
          "indexed": false,
          "internalType": "uint256",
          "name": "expiry",
          "type": "uint256"
        }
      ],
      "name": "AdminCardMinted",
      "type": "event"
    },
    {
      "anonymous": false,
      "inputs": [
        {
          "indexed": true,
          "internalType": "address",
          "name": "account",
          "type": "address"
        },
        {
          "indexed": false,
          "internalType": "uint256",
          "name": "amount",
          "type": "uint256"
        }
      ],
      "name": "AdminPointsBurned",
      "type": "event"
    },
    {
      "anonymous": false,
      "inputs": [
        {
          "indexed": true,
          "internalType": "address",
          "name": "beneficiaryAccount",
          "type": "address"
        },
        {
          "indexed": false,
          "internalType": "uint256",
          "name": "points6",
          "type": "uint256"
        }
      ],
      "name": "AdminPointsMinted",
      "type": "event"
    },
    {
      "anonymous": false,
      "inputs": [
        {
          "indexed": true,
          "internalType": "address",
          "name": "account",
          "type": "address"
        },
        {
          "indexed": true,
          "internalType": "address",
          "name": "operator",
          "type": "address"
        },
        {
          "indexed": false,
          "internalType": "bool",
          "name": "approved",
          "type": "bool"
        }
      ],
      "name": "ApprovalForAll",
      "type": "event"
    },
    {
      "anonymous": false,
      "inputs": [
        {
          "indexed": true,
          "internalType": "address",
          "name": "userEOA",
          "type": "address"
        },
        {
          "indexed": true,
          "internalType": "address",
          "name": "acct",
          "type": "address"
        },
        {
          "indexed": false,
          "internalType": "uint8",
          "name": "chargeCurrency",
          "type": "uint8"
        },
        {
          "indexed": false,
          "internalType": "uint256",
          "name": "amountFiat6",
          "type": "uint256"
        },
        {
          "indexed": false,
          "internalType": "uint256",
          "name": "rewardMinted",
          "type": "uint256"
        }
      ],
      "name": "ChargeRewardAirdropped",
      "type": "event"
    },
    {
      "anonymous": false,
      "inputs": [
        {
          "indexed": false,
          "internalType": "uint256",
          "name": "attr",
          "type": "uint256"
        }
      ],
      "name": "DefaultAttrUpdated",
      "type": "event"
    },
    {
      "anonymous": false,
      "inputs": [
        {
          "indexed": false,
          "internalType": "uint256",
          "name": "oldSecs",
          "type": "uint256"
        },
        {
          "indexed": false,
          "internalType": "uint256",
          "name": "newSecs",
          "type": "uint256"
        }
      ],
      "name": "ExpirySecondsUpdated",
      "type": "event"
    },
    {
      "anonymous": false,
      "inputs": [
        {
          "indexed": true,
          "internalType": "uint256",
          "name": "id",
          "type": "uint256"
        },
        {
          "indexed": true,
          "internalType": "address",
          "name": "userEOA",
          "type": "address"
        },
        {
          "indexed": true,
          "internalType": "address",
          "name": "acct",
          "type": "address"
        },
        {
          "indexed": false,
          "internalType": "uint256",
          "name": "amount",
          "type": "uint256"
        },
        {
          "indexed": false,
          "internalType": "uint256",
          "name": "claimedAfter",
          "type": "uint256"
        }
      ],
      "name": "FaucetClaimed",
      "type": "event"
    },
    {
      "anonymous": false,
      "inputs": [
        {
          "indexed": true,
          "internalType": "uint256",
          "name": "id",
          "type": "uint256"
        },
        {
          "components": [
            {
              "internalType": "uint64",
              "name": "validUntil",
              "type": "uint64"
            },
            {
              "internalType": "uint64",
              "name": "perClaimMax",
              "type": "uint64"
            },
            {
              "internalType": "uint128",
              "name": "maxPerUser",
              "type": "uint128"
            },
            {
              "internalType": "uint128",
              "name": "maxGlobal",
              "type": "uint128"
            },
            {
              "internalType": "bool",
              "name": "enabled",
              "type": "bool"
            },
            {
              "internalType": "uint8",
              "name": "currency",
              "type": "uint8"
            },
            {
              "internalType": "uint8",
              "name": "decimals",
              "type": "uint8"
            },
            {
              "internalType": "uint128",
              "name": "priceInCurrency6",
              "type": "uint128"
            }
          ],
          "indexed": false,
          "internalType": "struct FaucetStorage.FaucetConfig",
          "name": "cfg",
          "type": "tuple"
        }
      ],
      "name": "FaucetConfigUpdated",
      "type": "event"
    },
    {
      "anonymous": false,
      "inputs": [
        {
          "indexed": true,
          "internalType": "uint256",
          "name": "tokenId",
          "type": "uint256"
        },
        {
          "indexed": false,
          "internalType": "bytes32",
          "name": "title",
          "type": "bytes32"
        },
        {
          "indexed": false,
          "internalType": "uint64",
          "name": "validAfter",
          "type": "uint64"
        },
        {
          "indexed": false,
          "internalType": "uint64",
          "name": "validBefore",
          "type": "uint64"
        },
        {
          "indexed": false,
          "internalType": "uint256",
          "name": "maxSupply",
          "type": "uint256"
        },
        {
          "indexed": false,
          "internalType": "uint256",
          "name": "priceInCurrency6",
          "type": "uint256"
        },
        {
          "indexed": false,
          "internalType": "bytes32",
          "name": "sharedMetadataHash",
          "type": "bytes32"
        }
      ],
      "name": "IssuedNftCreated",
      "type": "event"
    },
    {
      "anonymous": false,
      "inputs": [
        {
          "indexed": true,
          "internalType": "uint256",
          "name": "tokenId",
          "type": "uint256"
        },
        {
          "indexed": true,
          "internalType": "address",
          "name": "recipient",
          "type": "address"
        },
        {
          "indexed": false,
          "internalType": "uint256",
          "name": "amount",
          "type": "uint256"
        }
      ],
      "name": "IssuedNftMinted",
      "type": "event"
    },
    {
      "anonymous": false,
      "inputs": [
        {
          "indexed": true,
          "internalType": "address",
          "name": "userEOA",
          "type": "address"
        },
        {
          "indexed": true,
          "internalType": "address",
          "name": "payeeEOA",
          "type": "address"
        },
        {
          "indexed": true,
          "internalType": "uint256",
          "name": "tokenId",
          "type": "uint256"
        },
        {
          "indexed": false,
          "internalType": "uint256",
          "name": "amount",
          "type": "uint256"
        },
        {
          "indexed": false,
          "internalType": "uint256",
          "name": "totalPriceInCurrency6",
          "type": "uint256"
        },
        {
          "indexed": false,
          "internalType": "uint256",
          "name": "pointsCharged6",
          "type": "uint256"
        }
      ],
      "name": "IssuedNftPurchasedWithPointsCharge",
      "type": "event"
    },
    {
      "anonymous": false,
      "inputs": [
        {
          "indexed": true,
          "internalType": "address",
          "name": "user",
          "type": "address"
        },
        {
          "indexed": true,
          "internalType": "uint256",
          "name": "tokenId",
          "type": "uint256"
        },
        {
          "indexed": false,
          "internalType": "uint256",
          "name": "tierIndexOrMax",
          "type": "uint256"
        },
        {
          "indexed": false,
          "internalType": "uint256",
          "name": "minUsdc6",
          "type": "uint256"
        },
        {
          "indexed": false,
          "internalType": "uint256",
          "name": "expiry",
          "type": "uint256"
        }
      ],
      "name": "MemberNFTIssued",
      "type": "event"
    },
    {
      "anonymous": false,
      "inputs": [
        {
          "indexed": true,
          "internalType": "address",
          "name": "user",
          "type": "address"
        },
        {
          "indexed": true,
          "internalType": "uint256",
          "name": "oldActiveTokenId",
          "type": "uint256"
        },
        {
          "indexed": true,
          "internalType": "uint256",
          "name": "newTokenId",
          "type": "uint256"
        },
        {
          "indexed": false,
          "internalType": "uint256",
          "name": "oldTierIndexOrMax",
          "type": "uint256"
        },
        {
          "indexed": false,
          "internalType": "uint256",
          "name": "newTierIndex",
          "type": "uint256"
        },
        {
          "indexed": false,
          "internalType": "uint256",
          "name": "newExpiry",
          "type": "uint256"
        }
      ],
      "name": "MemberNFTUpgraded",
      "type": "event"
    },
    {
      "anonymous": false,
      "inputs": [
        {
          "indexed": true,
          "internalType": "address",
          "name": "previousOwner",
          "type": "address"
        },
        {
          "indexed": true,
          "internalType": "address",
          "name": "newOwner",
          "type": "address"
        }
      ],
      "name": "OwnershipTransferred",
      "type": "event"
    },
    {
      "anonymous": false,
      "inputs": [
        {
          "indexed": true,
          "internalType": "address",
          "name": "userEOA",
          "type": "address"
        },
        {
          "indexed": true,
          "internalType": "address",
          "name": "acct",
          "type": "address"
        },
        {
          "indexed": false,
          "internalType": "uint256",
          "name": "points6",
          "type": "uint256"
        }
      ],
      "name": "PointsMintedByGateway",
      "type": "event"
    },
    {
      "anonymous": false,
      "inputs": [
        {
          "indexed": true,
          "internalType": "address",
          "name": "payerEOA",
          "type": "address"
        },
        {
          "indexed": true,
          "internalType": "address",
          "name": "beneficiaryAccount",
          "type": "address"
        },
        {
          "indexed": true,
          "internalType": "address",
          "name": "usdc",
          "type": "address"
        },
        {
          "indexed": false,
          "internalType": "uint256",
          "name": "usdcIn6",
          "type": "uint256"
        },
        {
          "indexed": false,
          "internalType": "uint256",
          "name": "pointsMinted6",
          "type": "uint256"
        },
        {
          "indexed": false,
          "internalType": "uint256",
          "name": "unitPointPriceUsdc6",
          "type": "uint256"
        },
        {
          "indexed": false,
          "internalType": "bytes32",
          "name": "nonce",
          "type": "bytes32"
        }
      ],
      "name": "PointsPurchasedWithUSDC",
      "type": "event"
    },
    {
      "anonymous": false,
      "inputs": [
        {
          "indexed": false,
          "internalType": "uint256",
          "name": "priceInCurrencyE6",
          "type": "uint256"
        }
      ],
      "name": "PointsUnitPriceUpdated",
      "type": "event"
    },
    {
      "anonymous": false,
      "inputs": [
        {
          "indexed": true,
          "internalType": "uint256",
          "name": "id",
          "type": "uint256"
        },
        {
          "indexed": true,
          "internalType": "address",
          "name": "admin",
          "type": "address"
        }
      ],
      "name": "ProposalApproved",
      "type": "event"
    },
    {
      "anonymous": false,
      "inputs": [
        {
          "indexed": true,
          "internalType": "uint256",
          "name": "id",
          "type": "uint256"
        },
        {
          "indexed": true,
          "internalType": "bytes4",
          "name": "selector",
          "type": "bytes4"
        },
        {
          "indexed": true,
          "internalType": "address",
          "name": "proposer",
          "type": "address"
        }
      ],
      "name": "ProposalCreated",
      "type": "event"
    },
    {
      "anonymous": false,
      "inputs": [
        {
          "indexed": true,
          "internalType": "uint256",
          "name": "id",
          "type": "uint256"
        }
      ],
      "name": "ProposalExecuted",
      "type": "event"
    },
    {
      "anonymous": false,
      "inputs": [
        {
          "indexed": true,
          "internalType": "bytes32",
          "name": "hash",
          "type": "bytes32"
        }
      ],
      "name": "RedeemCancelled",
      "type": "event"
    },
    {
      "anonymous": false,
      "inputs": [
        {
          "indexed": true,
          "internalType": "bytes32",
          "name": "hash",
          "type": "bytes32"
        },
        {
          "indexed": false,
          "internalType": "uint256",
          "name": "points6",
          "type": "uint256"
        },
        {
          "indexed": false,
          "internalType": "uint256",
          "name": "attr",
          "type": "uint256"
        }
      ],
      "name": "RedeemCreated",
      "type": "event"
    },
    {
      "anonymous": false,
      "inputs": [
        {
          "indexed": true,
          "internalType": "address",
          "name": "refereeAA",
          "type": "address"
        },
        {
          "indexed": true,
          "internalType": "address",
          "name": "referrerAA",
          "type": "address"
        },
        {
          "indexed": true,
          "internalType": "address",
          "name": "operator",
          "type": "address"
        }
      ],
      "name": "RefereeReferrerUpdated",
      "type": "event"
    },
    {
      "anonymous": false,
      "inputs": [
        {
          "indexed": true,
          "internalType": "address",
          "name": "refereeAA",
          "type": "address"
        },
        {
          "indexed": true,
          "internalType": "address",
          "name": "operator",
          "type": "address"
        }
      ],
      "name": "RefereeRegistered",
      "type": "event"
    },
    {
      "anonymous": false,
      "inputs": [
        {
          "indexed": true,
          "internalType": "address",
          "name": "refereeAA",
          "type": "address"
        },
        {
          "indexed": true,
          "internalType": "address",
          "name": "operator",
          "type": "address"
        }
      ],
      "name": "RefereeUnregistered",
      "type": "event"
    },
    {
      "anonymous": false,
      "inputs": [
        {
          "indexed": true,
          "internalType": "address",
          "name": "refereeAA",
          "type": "address"
        },
        {
          "indexed": true,
          "internalType": "address",
          "name": "referrerAA",
          "type": "address"
        },
        {
          "indexed": false,
          "internalType": "uint256",
          "name": "rewardAmount",
          "type": "uint256"
        }
      ],
      "name": "ReferrerRewardMinted",
      "type": "event"
    },
    {
      "anonymous": false,
      "inputs": [
        {
          "indexed": false,
          "internalType": "uint256",
          "name": "oldRatioE6",
          "type": "uint256"
        },
        {
          "indexed": false,
          "internalType": "uint256",
          "name": "newRatioE6",
          "type": "uint256"
        }
      ],
      "name": "ReferrerRewardRatioUpdated",
      "type": "event"
    },
    {
      "anonymous": false,
      "inputs": [
        {
          "indexed": false,
          "internalType": "uint256",
          "name": "index",
          "type": "uint256"
        },
        {
          "indexed": false,
          "internalType": "uint256",
          "name": "minUsdc6",
          "type": "uint256"
        },
        {
          "indexed": false,
          "internalType": "uint256",
          "name": "attr",
          "type": "uint256"
        },
        {
          "indexed": false,
          "internalType": "uint256",
          "name": "tierExpirySeconds",
          "type": "uint256"
        }
      ],
      "name": "TierAppended",
      "type": "event"
    },
    {
      "anonymous": false,
      "inputs": [
        {
          "indexed": false,
          "internalType": "uint256",
          "name": "count",
          "type": "uint256"
        }
      ],
      "name": "TiersUpdated",
      "type": "event"
    },
    {
      "anonymous": false,
      "inputs": [
        {
          "indexed": true,
          "internalType": "address",
          "name": "operator",
          "type": "address"
        },
        {
          "indexed": true,
          "internalType": "address",
          "name": "from",
          "type": "address"
        },
        {
          "indexed": true,
          "internalType": "address",
          "name": "to",
          "type": "address"
        },
        {
          "indexed": false,
          "internalType": "uint256[]",
          "name": "ids",
          "type": "uint256[]"
        },
        {
          "indexed": false,
          "internalType": "uint256[]",
          "name": "values",
          "type": "uint256[]"
        }
      ],
      "name": "TransferBatch",
      "type": "event"
    },
    {
      "anonymous": false,
      "inputs": [
        {
          "indexed": true,
          "internalType": "address",
          "name": "operator",
          "type": "address"
        },
        {
          "indexed": true,
          "internalType": "address",
          "name": "from",
          "type": "address"
        },
        {
          "indexed": true,
          "internalType": "address",
          "name": "to",
          "type": "address"
        },
        {
          "indexed": false,
          "internalType": "uint256",
          "name": "id",
          "type": "uint256"
        },
        {
          "indexed": false,
          "internalType": "uint256",
          "name": "value",
          "type": "uint256"
        }
      ],
      "name": "TransferSingle",
      "type": "event"
    },
    {
      "anonymous": false,
      "inputs": [
        {
          "indexed": false,
          "internalType": "bool",
          "name": "enabled",
          "type": "bool"
        }
      ],
      "name": "TransferWhitelistEnabledUpdated",
      "type": "event"
    },
    {
      "anonymous": false,
      "inputs": [
        {
          "indexed": false,
          "internalType": "string",
          "name": "value",
          "type": "string"
        },
        {
          "indexed": true,
          "internalType": "uint256",
          "name": "id",
          "type": "uint256"
        }
      ],
      "name": "URI",
      "type": "event"
    },
    {
      "stateMutability": "nonpayable",
      "type": "fallback"
    },
    {
      "inputs": [],
      "name": "CHARGE_REWARD_TOKEN_ID",
      "outputs": [
        {
          "internalType": "uint256",
          "name": "",
          "type": "uint256"
        }
      ],
      "stateMutability": "view",
      "type": "function"
    },
    {
      "inputs": [],
      "name": "ISSUED_NFT_START_ID",
      "outputs": [
        {
          "internalType": "uint256",
          "name": "",
          "type": "uint256"
        }
      ],
      "stateMutability": "view",
      "type": "function"
    },
    {
      "inputs": [],
      "name": "NFT_START_ID",
      "outputs": [
        {
          "internalType": "uint256",
          "name": "",
          "type": "uint256"
        }
      ],
      "stateMutability": "view",
      "type": "function"
    },
    {
      "inputs": [],
      "name": "POINTS_DECIMALS",
      "outputs": [
        {
          "internalType": "uint8",
          "name": "",
          "type": "uint8"
        }
      ],
      "stateMutability": "view",
      "type": "function"
    },
    {
      "inputs": [],
      "name": "POINTS_ID",
      "outputs": [
        {
          "internalType": "uint256",
          "name": "",
          "type": "uint256"
        }
      ],
      "stateMutability": "view",
      "type": "function"
    },
    {
      "inputs": [],
      "name": "REFERRER_REWARD_TOKEN_ID",
      "outputs": [
        {
          "internalType": "uint256",
          "name": "",
          "type": "uint256"
        }
      ],
      "stateMutability": "view",
      "type": "function"
    },
    {
      "inputs": [],
      "name": "VERSION",
      "outputs": [
        {
          "internalType": "uint256",
          "name": "",
          "type": "uint256"
        }
      ],
      "stateMutability": "view",
      "type": "function"
    },
    {
      "inputs": [
        {
          "internalType": "address",
          "name": "",
          "type": "address"
        },
        {
          "internalType": "uint256",
          "name": "",
          "type": "uint256"
        }
      ],
      "name": "_userOwnedNfts",
      "outputs": [
        {
          "internalType": "uint256",
          "name": "",
          "type": "uint256"
        }
      ],
      "stateMutability": "view",
      "type": "function"
    },
    {
      "inputs": [
        {
          "internalType": "uint256",
          "name": "",
          "type": "uint256"
        }
      ],
      "name": "activeMembershipCountByTierIndex",
      "outputs": [
        {
          "internalType": "uint256",
          "name": "",
          "type": "uint256"
        }
      ],
      "stateMutability": "view",
      "type": "function"
    },
    {
      "inputs": [
        {
          "internalType": "uint256",
          "name": "",
          "type": "uint256"
        }
      ],
      "name": "activeMembershipCountByTokenId",
      "outputs": [
        {
          "internalType": "uint256",
          "name": "",
          "type": "uint256"
        }
      ],
      "stateMutability": "view",
      "type": "function"
    },
    {
      "inputs": [
        {
          "internalType": "address",
          "name": "",
          "type": "address"
        }
      ],
      "name": "activeMembershipId",
      "outputs": [
        {
          "internalType": "uint256",
          "name": "",
          "type": "uint256"
        }
      ],
      "stateMutability": "view",
      "type": "function"
    },
    {
      "inputs": [
        {
          "internalType": "address",
          "name": "",
          "type": "address"
        }
      ],
      "name": "activeTierIndexOrMax",
      "outputs": [
        {
          "internalType": "uint256",
          "name": "",
          "type": "uint256"
        }
      ],
      "stateMutability": "view",
      "type": "function"
    },
    {
      "inputs": [
        {
          "internalType": "address",
          "name": "a",
          "type": "address"
        }
      ],
      "name": "adminParent",
      "outputs": [
        {
          "internalType": "address",
          "name": "",
          "type": "address"
        }
      ],
      "stateMutability": "view",
      "type": "function"
    },
    {
      "inputs": [
        {
          "internalType": "uint256",
          "name": "minUsdc6",
          "type": "uint256"
        },
        {
          "internalType": "uint256",
          "name": "attr",
          "type": "uint256"
        },
        {
          "internalType": "uint256",
          "name": "tierExpirySeconds",
          "type": "uint256"
        }
      ],
      "name": "appendTier",
      "outputs": [],
      "stateMutability": "nonpayable",
      "type": "function"
    },
    {
      "inputs": [
        {
          "internalType": "uint256",
          "name": "id",
          "type": "uint256"
        }
      ],
      "name": "approveProposal",
      "outputs": [],
      "stateMutability": "nonpayable",
      "type": "function"
    },
    {
      "inputs": [
        {
          "internalType": "uint256",
          "name": "id",
          "type": "uint256"
        },
        {
          "internalType": "address",
          "name": "adminSigner",
          "type": "address"
        }
      ],
      "name": "approveProposalByGateway",
      "outputs": [],
      "stateMutability": "nonpayable",
      "type": "function"
    },
    {
      "inputs": [
        {
          "internalType": "uint256",
          "name": "",
          "type": "uint256"
        }
      ],
      "name": "attributes",
      "outputs": [
        {
          "internalType": "uint256",
          "name": "",
          "type": "uint256"
        }
      ],
      "stateMutability": "view",
      "type": "function"
    },
    {
      "inputs": [
        {
          "internalType": "address",
          "name": "account",
          "type": "address"
        },
        {
          "internalType": "uint256",
          "name": "id",
          "type": "uint256"
        }
      ],
      "name": "balanceOf",
      "outputs": [
        {
          "internalType": "uint256",
          "name": "",
          "type": "uint256"
        }
      ],
      "stateMutability": "view",
      "type": "function"
    },
    {
      "inputs": [
        {
          "internalType": "address[]",
          "name": "accounts",
          "type": "address[]"
        },
        {
          "internalType": "uint256[]",
          "name": "ids",
          "type": "uint256[]"
        }
      ],
      "name": "balanceOfBatch",
      "outputs": [
        {
          "internalType": "uint256[]",
          "name": "",
          "type": "uint256[]"
        }
      ],
      "stateMutability": "view",
      "type": "function"
    },
    {
      "inputs": [
        {
          "internalType": "address",
          "name": "target",
          "type": "address"
        },
        {
          "internalType": "uint256",
          "name": "amount",
          "type": "uint256"
        }
      ],
      "name": "burnPointsByAdmin",
      "outputs": [],
      "stateMutability": "nonpayable",
      "type": "function"
    },
    {
      "inputs": [
        {
          "internalType": "address",
          "name": "userEOA",
          "type": "address"
        },
        {
          "internalType": "uint256",
          "name": "pointsCost",
          "type": "uint256"
        }
      ],
      "name": "burnSocialPointsForExchange",
      "outputs": [],
      "stateMutability": "nonpayable",
      "type": "function"
    },
    {
      "inputs": [
        {
          "internalType": "address",
          "name": "acct",
          "type": "address"
        },
        {
          "internalType": "uint256",
          "name": "id",
          "type": "uint256"
        }
      ],
      "name": "cardSelfAppendMembershipNftIfMissing",
      "outputs": [],
      "stateMutability": "nonpayable",
      "type": "function"
    },
    {
      "inputs": [
        {
          "internalType": "address",
          "name": "from",
          "type": "address"
        },
        {
          "internalType": "uint256",
          "name": "id",
          "type": "uint256"
        },
        {
          "internalType": "uint256",
          "name": "amount",
          "type": "uint256"
        }
      ],
      "name": "cardSelfBurn",
      "outputs": [],
      "stateMutability": "nonpayable",
      "type": "function"
    },
    {
      "inputs": [
        {
          "internalType": "uint8",
          "name": "kind",
          "type": "uint8"
        },
        {
          "internalType": "bytes",
          "name": "data",
          "type": "bytes"
        }
      ],
      "name": "cardSelfCallModule",
      "outputs": [
        {
          "internalType": "bytes",
          "name": "",
          "type": "bytes"
        }
      ],
      "stateMutability": "nonpayable",
      "type": "function"
    },
    {
      "inputs": [],
      "name": "cardSelfCurrencyType",
      "outputs": [
        {
          "internalType": "uint8",
          "name": "",
          "type": "uint8"
        }
      ],
      "stateMutability": "view",
      "type": "function"
    },
    {
      "inputs": [
        {
          "internalType": "address",
          "name": "acct",
          "type": "address"
        },
        {
          "internalType": "uint256",
          "name": "points6",
          "type": "uint256"
        }
      ],
      "name": "cardSelfEmitAdminPointsMinted",
      "outputs": [],
      "stateMutability": "nonpayable",
      "type": "function"
    },
    {
      "inputs": [
        {
          "internalType": "address",
          "name": "userEOA",
          "type": "address"
        },
        {
          "internalType": "address",
          "name": "acct",
          "type": "address"
        },
        {
          "internalType": "uint8",
          "name": "chargeCurrency",
          "type": "uint8"
        },
        {
          "internalType": "uint256",
          "name": "amountFiat6",
          "type": "uint256"
        },
        {
          "internalType": "uint256",
          "name": "reward",
          "type": "uint256"
        }
      ],
      "name": "cardSelfEmitChargeRewardAirdropped",
      "outputs": [],
      "stateMutability": "nonpayable",
      "type": "function"
    },
    {
      "inputs": [
        {
          "internalType": "uint256",
          "name": "id",
          "type": "uint256"
        },
        {
          "internalType": "address",
          "name": "userEOA",
          "type": "address"
        },
        {
          "internalType": "address",
          "name": "acct",
          "type": "address"
        },
        {
          "internalType": "uint256",
          "name": "amount",
          "type": "uint256"
        },
        {
          "internalType": "uint256",
          "name": "claimedAfter",
          "type": "uint256"
        }
      ],
      "name": "cardSelfEmitFaucetClaimed",
      "outputs": [],
      "stateMutability": "nonpayable",
      "type": "function"
    },
    {
      "inputs": [
        {
          "internalType": "uint256",
          "name": "tokenId",
          "type": "uint256"
        },
        {
          "internalType": "address",
          "name": "acct",
          "type": "address"
        },
        {
          "internalType": "uint256",
          "name": "amount",
          "type": "uint256"
        }
      ],
      "name": "cardSelfEmitIssuedNftMinted",
      "outputs": [],
      "stateMutability": "nonpayable",
      "type": "function"
    },
    {
      "inputs": [
        {
          "internalType": "address",
          "name": "userEOA",
          "type": "address"
        },
        {
          "internalType": "address",
          "name": "payeeEOA",
          "type": "address"
        },
        {
          "internalType": "uint256",
          "name": "tokenId",
          "type": "uint256"
        },
        {
          "internalType": "uint256",
          "name": "amount",
          "type": "uint256"
        },
        {
          "internalType": "uint256",
          "name": "totalPriceInCurrency6",
          "type": "uint256"
        },
        {
          "internalType": "uint256",
          "name": "pointsCharged6",
          "type": "uint256"
        }
      ],
      "name": "cardSelfEmitIssuedNftPurchasedWithPointsCharge",
      "outputs": [],
      "stateMutability": "nonpayable",
      "type": "function"
    },
    {
      "inputs": [
        {
          "internalType": "address",
          "name": "userEOA",
          "type": "address"
        },
        {
          "internalType": "address",
          "name": "acct",
          "type": "address"
        },
        {
          "internalType": "uint256",
          "name": "points6",
          "type": "uint256"
        }
      ],
      "name": "cardSelfEmitPointsMintedByGateway",
      "outputs": [],
      "stateMutability": "nonpayable",
      "type": "function"
    },
    {
      "inputs": [
        {
          "internalType": "address",
          "name": "refereeAA",
          "type": "address"
        },
        {
          "internalType": "address",
          "name": "referrerAA",
          "type": "address"
        },
        {
          "internalType": "uint256",
          "name": "rewardAmount",
          "type": "uint256"
        }
      ],
      "name": "cardSelfEmitReferrerRewardMinted",
      "outputs": [],
      "stateMutability": "nonpayable",
      "type": "function"
    },
    {
      "inputs": [
        {
          "internalType": "address",
          "name": "module",
          "type": "address"
        },
        {
          "internalType": "bytes",
          "name": "data",
          "type": "bytes"
        }
      ],
      "name": "cardSelfGovernanceDelegate",
      "outputs": [
        {
          "internalType": "bool",
          "name": "",
          "type": "bool"
        }
      ],
      "stateMutability": "nonpayable",
      "type": "function"
    },
    {
      "inputs": [
        {
          "internalType": "address",
          "name": "acct",
          "type": "address"
        }
      ],
      "name": "cardSelfHasValidCard",
      "outputs": [
        {
          "internalType": "bool",
          "name": "",
          "type": "bool"
        }
      ],
      "stateMutability": "view",
      "type": "function"
    },
    {
      "inputs": [],
      "name": "cardSelfMembershipFlowTotals",
      "outputs": [
        {
          "internalType": "uint256",
          "name": "issued",
          "type": "uint256"
        },
        {
          "internalType": "uint256",
          "name": "upgraded",
          "type": "uint256"
        }
      ],
      "stateMutability": "view",
      "type": "function"
    },
    {
      "inputs": [
        {
          "internalType": "address",
          "name": "to",
          "type": "address"
        },
        {
          "internalType": "uint256",
          "name": "id",
          "type": "uint256"
        },
        {
          "internalType": "uint256",
          "name": "amount",
          "type": "uint256"
        }
      ],
      "name": "cardSelfMint",
      "outputs": [],
      "stateMutability": "nonpayable",
      "type": "function"
    },
    {
      "inputs": [],
      "name": "cardSelfOwner",
      "outputs": [
        {
          "internalType": "address",
          "name": "",
          "type": "address"
        }
      ],
      "stateMutability": "view",
      "type": "function"
    },
    {
      "inputs": [],
      "name": "cardSelfPointsUnitPriceInCurrencyE6",
      "outputs": [
        {
          "internalType": "uint256",
          "name": "",
          "type": "uint256"
        }
      ],
      "stateMutability": "view",
      "type": "function"
    },
    {
      "inputs": [
        {
          "internalType": "address",
          "name": "operator",
          "type": "address"
        },
        {
          "internalType": "uint256",
          "name": "issuedBefore",
          "type": "uint256"
        },
        {
          "internalType": "uint256",
          "name": "upgradedBefore",
          "type": "uint256"
        }
      ],
      "name": "cardSelfRecordAdminMembershipFlow",
      "outputs": [],
      "stateMutability": "nonpayable",
      "type": "function"
    },
    {
      "inputs": [
        {
          "internalType": "address",
          "name": "operator",
          "type": "address"
        },
        {
          "internalType": "uint256",
          "name": "amount",
          "type": "uint256"
        }
      ],
      "name": "cardSelfRecordAdminRedeemMint",
      "outputs": [],
      "stateMutability": "nonpayable",
      "type": "function"
    },
    {
      "inputs": [
        {
          "internalType": "address",
          "name": "operator",
          "type": "address"
        },
        {
          "internalType": "uint256",
          "name": "amount",
          "type": "uint256"
        }
      ],
      "name": "cardSelfRecordAdminStatsMint",
      "outputs": [],
      "stateMutability": "nonpayable",
      "type": "function"
    },
    {
      "inputs": [
        {
          "internalType": "address",
          "name": "operator",
          "type": "address"
        },
        {
          "internalType": "uint256",
          "name": "amount",
          "type": "uint256"
        }
      ],
      "name": "cardSelfRecordAdminUsdcMint",
      "outputs": [],
      "stateMutability": "nonpayable",
      "type": "function"
    },
    {
      "inputs": [
        {
          "internalType": "address",
          "name": "acct",
          "type": "address"
        },
        {
          "internalType": "uint256",
          "name": "points6",
          "type": "uint256"
        }
      ],
      "name": "cardSelfRequirePointsMintAllowsFirstMembership",
      "outputs": [],
      "stateMutability": "view",
      "type": "function"
    },
    {
      "inputs": [
        {
          "internalType": "address",
          "name": "eoa",
          "type": "address"
        }
      ],
      "name": "cardSelfToAccount",
      "outputs": [
        {
          "internalType": "address",
          "name": "",
          "type": "address"
        }
      ],
      "stateMutability": "view",
      "type": "function"
    },
    {
      "inputs": [
        {
          "internalType": "address",
          "name": "from",
          "type": "address"
        },
        {
          "internalType": "address",
          "name": "to",
          "type": "address"
        },
        {
          "internalType": "uint256",
          "name": "amount",
          "type": "uint256"
        }
      ],
      "name": "cardSelfTransferPointsUpdate",
      "outputs": [],
      "stateMutability": "nonpayable",
      "type": "function"
    },
    {
      "inputs": [],
      "name": "cardSelfUpgradeType",
      "outputs": [
        {
          "internalType": "uint8",
          "name": "",
          "type": "uint8"
        }
      ],
      "stateMutability": "view",
      "type": "function"
    },
    {
      "inputs": [
        {
          "internalType": "address",
          "name": "userEOA",
          "type": "address"
        },
        {
          "internalType": "uint256",
          "name": "tokenId",
          "type": "uint256"
        },
        {
          "internalType": "uint256",
          "name": "pointsCost",
          "type": "uint256"
        },
        {
          "internalType": "uint256",
          "name": "usdcReward6",
          "type": "uint256"
        },
        {
          "internalType": "uint256",
          "name": "deadline",
          "type": "uint256"
        },
        {
          "internalType": "bytes32",
          "name": "nonce",
          "type": "bytes32"
        },
        {
          "internalType": "bytes",
          "name": "userSignature",
          "type": "bytes"
        }
      ],
      "name": "claimSocialExchangeWithUserSignature",
      "outputs": [],
      "stateMutability": "nonpayable",
      "type": "function"
    },
    {
      "inputs": [
        {
          "internalType": "address",
          "name": "subordinate",
          "type": "address"
        },
        {
          "internalType": "address",
          "name": "authorizer",
          "type": "address"
        }
      ],
      "name": "clearAdminMintCounterForSubordinate",
      "outputs": [],
      "stateMutability": "nonpayable",
      "type": "function"
    },
    {
      "inputs": [
        {
          "internalType": "address",
          "name": "refereeAA",
          "type": "address"
        }
      ],
      "name": "clearRefereeReferrer",
      "outputs": [],
      "stateMutability": "nonpayable",
      "type": "function"
    },
    {
      "inputs": [
        {
          "internalType": "bytes4",
          "name": "selector",
          "type": "bytes4"
        },
        {
          "internalType": "address",
          "name": "target",
          "type": "address"
        },
        {
          "internalType": "uint256",
          "name": "v1",
          "type": "uint256"
        },
        {
          "internalType": "uint256",
          "name": "v2",
          "type": "uint256"
        },
        {
          "internalType": "uint256",
          "name": "v3",
          "type": "uint256"
        }
      ],
      "name": "createProposal",
      "outputs": [
        {
          "internalType": "uint256",
          "name": "",
          "type": "uint256"
        }
      ],
      "stateMutability": "nonpayable",
      "type": "function"
    },
    {
      "inputs": [],
      "name": "currency",
      "outputs": [
        {
          "internalType": "enum BeamioCurrency.CurrencyType",
          "name": "",
          "type": "uint8"
        }
      ],
      "stateMutability": "view",
      "type": "function"
    },
    {
      "inputs": [],
      "name": "debugGateway",
      "outputs": [
        {
          "internalType": "address",
          "name": "",
          "type": "address"
        }
      ],
      "stateMutability": "view",
      "type": "function"
    },
    {
      "inputs": [],
      "name": "defaultAttrWhenNoTiers",
      "outputs": [
        {
          "internalType": "uint256",
          "name": "",
          "type": "uint256"
        }
      ],
      "stateMutability": "view",
      "type": "function"
    },
    {
      "inputs": [],
      "name": "deployer",
      "outputs": [
        {
          "internalType": "address",
          "name": "",
          "type": "address"
        }
      ],
      "stateMutability": "view",
      "type": "function"
    },
    {
      "inputs": [
        {
          "internalType": "uint256",
          "name": "",
          "type": "uint256"
        }
      ],
      "name": "expiresAt",
      "outputs": [
        {
          "internalType": "uint256",
          "name": "",
          "type": "uint256"
        }
      ],
      "stateMutability": "view",
      "type": "function"
    },
    {
      "inputs": [],
      "name": "expirySeconds",
      "outputs": [
        {
          "internalType": "uint256",
          "name": "",
          "type": "uint256"
        }
      ],
      "stateMutability": "view",
      "type": "function"
    },
    {
      "inputs": [],
      "name": "factoryGateway",
      "outputs": [
        {
          "internalType": "address",
          "name": "",
          "type": "address"
        }
      ],
      "stateMutability": "view",
      "type": "function"
    },
    {
      "inputs": [
        {
          "internalType": "address",
          "name": "userEOA",
          "type": "address"
        },
        {
          "internalType": "uint256",
          "name": "id",
          "type": "uint256"
        },
        {
          "internalType": "uint256",
          "name": "amount",
          "type": "uint256"
        }
      ],
      "name": "faucetByGateway",
      "outputs": [],
      "stateMutability": "nonpayable",
      "type": "function"
    },
    {
      "inputs": [
        {
          "internalType": "uint256",
          "name": "id",
          "type": "uint256"
        }
      ],
      "name": "faucetConfig",
      "outputs": [
        {
          "components": [
            {
              "internalType": "uint64",
              "name": "validUntil",
              "type": "uint64"
            },
            {
              "internalType": "uint64",
              "name": "perClaimMax",
              "type": "uint64"
            },
            {
              "internalType": "uint128",
              "name": "maxPerUser",
              "type": "uint128"
            },
            {
              "internalType": "uint128",
              "name": "maxGlobal",
              "type": "uint128"
            },
            {
              "internalType": "bool",
              "name": "enabled",
              "type": "bool"
            },
            {
              "internalType": "uint8",
              "name": "currency",
              "type": "uint8"
            },
            {
              "internalType": "uint8",
              "name": "decimals",
              "type": "uint8"
            },
            {
              "internalType": "uint128",
              "name": "priceInCurrency6",
              "type": "uint128"
            }
          ],
          "internalType": "struct FaucetStorage.FaucetConfig",
          "name": "",
          "type": "tuple"
        }
      ],
      "stateMutability": "view",
      "type": "function"
    },
    {
      "inputs": [
        {
          "internalType": "address",
          "name": "payerEOA",
          "type": "address"
        },
        {
          "internalType": "uint256",
          "name": "amount6",
          "type": "uint256"
        }
      ],
      "name": "fundSocialExchangeUsdcEscrow",
      "outputs": [],
      "stateMutability": "nonpayable",
      "type": "function"
    },
    {
      "inputs": [],
      "name": "gateway",
      "outputs": [
        {
          "internalType": "address",
          "name": "",
          "type": "address"
        }
      ],
      "stateMutability": "view",
      "type": "function"
    },
    {
      "inputs": [
        {
          "internalType": "address",
          "name": "user",
          "type": "address"
        }
      ],
      "name": "getOwnership",
      "outputs": [
        {
          "internalType": "uint256",
          "name": "pt",
          "type": "uint256"
        },
        {
          "components": [
            {
              "internalType": "uint256",
              "name": "tokenId",
              "type": "uint256"
            },
            {
              "internalType": "uint256",
              "name": "attribute",
              "type": "uint256"
            },
            {
              "internalType": "uint256",
              "name": "tierIndexOrMax",
              "type": "uint256"
            },
            {
              "internalType": "uint256",
              "name": "expiry",
              "type": "uint256"
            },
            {
              "internalType": "bool",
              "name": "isExpired",
              "type": "bool"
            }
          ],
          "internalType": "struct NFTDetail[]",
          "name": "nfts",
          "type": "tuple[]"
        }
      ],
      "stateMutability": "view",
      "type": "function"
    },
    {
      "inputs": [
        {
          "internalType": "address",
          "name": "userEOA",
          "type": "address"
        }
      ],
      "name": "getOwnershipByEOA",
      "outputs": [
        {
          "internalType": "uint256",
          "name": "pt",
          "type": "uint256"
        },
        {
          "components": [
            {
              "internalType": "uint256",
              "name": "tokenId",
              "type": "uint256"
            },
            {
              "internalType": "uint256",
              "name": "attribute",
              "type": "uint256"
            },
            {
              "internalType": "uint256",
              "name": "tierIndexOrMax",
              "type": "uint256"
            },
            {
              "internalType": "uint256",
              "name": "expiry",
              "type": "uint256"
            },
            {
              "internalType": "bool",
              "name": "isExpired",
              "type": "bool"
            }
          ],
          "internalType": "struct NFTDetail[]",
          "name": "nfts",
          "type": "tuple[]"
        }
      ],
      "stateMutability": "view",
      "type": "function"
    },
    {
      "inputs": [
        {
          "internalType": "address",
          "name": "referrerAA",
          "type": "address"
        },
        {
          "internalType": "uint256",
          "name": "offset",
          "type": "uint256"
        },
        {
          "internalType": "uint256",
          "name": "pageSize",
          "type": "uint256"
        }
      ],
      "name": "getRefereesByReferrerPage",
      "outputs": [
        {
          "internalType": "address[]",
          "name": "referees",
          "type": "address[]"
        },
        {
          "internalType": "uint256[]",
          "name": "refereeChargeTotals6",
          "type": "uint256[]"
        },
        {
          "internalType": "uint256",
          "name": "total",
          "type": "uint256"
        },
        {
          "internalType": "uint256",
          "name": "nextOffset",
          "type": "uint256"
        }
      ],
      "stateMutability": "view",
      "type": "function"
    },
    {
      "inputs": [
        {
          "internalType": "uint256",
          "name": "offset",
          "type": "uint256"
        },
        {
          "internalType": "uint256",
          "name": "pageSize",
          "type": "uint256"
        }
      ],
      "name": "getReferrersPage",
      "outputs": [
        {
          "internalType": "address[]",
          "name": "referrers",
          "type": "address[]"
        },
        {
          "internalType": "uint256[]",
          "name": "referrerRewardBalances",
          "type": "uint256[]"
        },
        {
          "internalType": "uint256",
          "name": "total",
          "type": "uint256"
        },
        {
          "internalType": "uint256",
          "name": "nextOffset",
          "type": "uint256"
        }
      ],
      "stateMutability": "view",
      "type": "function"
    },
    {
      "inputs": [
        {
          "internalType": "uint256",
          "name": "offset",
          "type": "uint256"
        },
        {
          "internalType": "uint256",
          "name": "pageSize",
          "type": "uint256"
        }
      ],
      "name": "getRegisteredRefereesPage",
      "outputs": [
        {
          "internalType": "address[]",
          "name": "referees",
          "type": "address[]"
        },
        {
          "internalType": "uint256",
          "name": "total",
          "type": "uint256"
        },
        {
          "internalType": "uint256",
          "name": "nextOffset",
          "type": "uint256"
        }
      ],
      "stateMutability": "view",
      "type": "function"
    },
    {
      "inputs": [
        {
          "internalType": "address",
          "name": "a",
          "type": "address"
        }
      ],
      "name": "isAdmin",
      "outputs": [
        {
          "internalType": "bool",
          "name": "",
          "type": "bool"
        }
      ],
      "stateMutability": "view",
      "type": "function"
    },
    {
      "inputs": [
        {
          "internalType": "address",
          "name": "account",
          "type": "address"
        },
        {
          "internalType": "address",
          "name": "operator",
          "type": "address"
        }
      ],
      "name": "isApprovedForAll",
      "outputs": [
        {
          "internalType": "bool",
          "name": "",
          "type": "bool"
        }
      ],
      "stateMutability": "view",
      "type": "function"
    },
    {
      "inputs": [
        {
          "internalType": "address",
          "name": "effectiveTo",
          "type": "address"
        }
      ],
      "name": "isPointsTransferRecipientAllowed",
      "outputs": [
        {
          "internalType": "bool",
          "name": "",
          "type": "bool"
        }
      ],
      "stateMutability": "view",
      "type": "function"
    },
    {
      "inputs": [
        {
          "internalType": "address",
          "name": "refereeAA",
          "type": "address"
        }
      ],
      "name": "isRegisteredReferee",
      "outputs": [
        {
          "internalType": "bool",
          "name": "",
          "type": "bool"
        }
      ],
      "stateMutability": "view",
      "type": "function"
    },
    {
      "inputs": [
        {
          "internalType": "uint256",
          "name": "tokenId",
          "type": "uint256"
        }
      ],
      "name": "issuedNftPriceInCurrency6",
      "outputs": [
        {
          "internalType": "uint256",
          "name": "",
          "type": "uint256"
        }
      ],
      "stateMutability": "view",
      "type": "function"
    },
    {
      "inputs": [
        {
          "internalType": "uint256",
          "name": "tokenId",
          "type": "uint256"
        }
      ],
      "name": "issuedNftSharedMetadataHash",
      "outputs": [
        {
          "internalType": "bytes32",
          "name": "",
          "type": "bytes32"
        }
      ],
      "stateMutability": "view",
      "type": "function"
    },
    {
      "inputs": [],
      "name": "metadataBaseURI",
      "outputs": [
        {
          "internalType": "string",
          "name": "",
          "type": "string"
        }
      ],
      "stateMutability": "view",
      "type": "function"
    },
    {
      "inputs": [
        {
          "internalType": "address",
          "name": "userEOA",
          "type": "address"
        },
        {
          "internalType": "uint256",
          "name": "id",
          "type": "uint256"
        },
        {
          "internalType": "uint256",
          "name": "amount6",
          "type": "uint256"
        }
      ],
      "name": "mintFaucetByGateway",
      "outputs": [],
      "stateMutability": "nonpayable",
      "type": "function"
    },
    {
      "inputs": [
        {
          "internalType": "address",
          "name": "userEOA",
          "type": "address"
        },
        {
          "internalType": "uint256",
          "name": "tokenId",
          "type": "uint256"
        },
        {
          "internalType": "uint256",
          "name": "amount",
          "type": "uint256"
        }
      ],
      "name": "mintIssuedNftByGateway",
      "outputs": [],
      "stateMutability": "nonpayable",
      "type": "function"
    },
    {
      "inputs": [
        {
          "internalType": "address",
          "name": "to",
          "type": "address"
        },
        {
          "internalType": "uint256",
          "name": "tokenId",
          "type": "uint256"
        },
        {
          "internalType": "uint256",
          "name": "amount",
          "type": "uint256"
        }
      ],
      "name": "mintIssuedNftByOwner",
      "outputs": [],
      "stateMutability": "nonpayable",
      "type": "function"
    },
    {
      "inputs": [
        {
          "internalType": "address",
          "name": "userEOA",
          "type": "address"
        },
        {
          "internalType": "uint256",
          "name": "tokenId",
          "type": "uint256"
        }
      ],
      "name": "mintIssuedNftByUserSigClaim",
      "outputs": [],
      "stateMutability": "nonpayable",
      "type": "function"
    },
    {
      "inputs": [
        {
          "internalType": "address",
          "name": "user",
          "type": "address"
        },
        {
          "internalType": "uint256",
          "name": "tierIndex",
          "type": "uint256"
        }
      ],
      "name": "mintMemberCardByAdmin",
      "outputs": [],
      "stateMutability": "nonpayable",
      "type": "function"
    },
    {
      "inputs": [
        {
          "internalType": "address",
          "name": "user",
          "type": "address"
        },
        {
          "internalType": "uint256",
          "name": "points6",
          "type": "uint256"
        }
      ],
      "name": "mintPointsByAdmin",
      "outputs": [],
      "stateMutability": "nonpayable",
      "type": "function"
    },
    {
      "inputs": [
        {
          "internalType": "address",
          "name": "user",
          "type": "address"
        },
        {
          "internalType": "uint256",
          "name": "points6",
          "type": "uint256"
        },
        {
          "internalType": "address",
          "name": "operator",
          "type": "address"
        }
      ],
      "name": "mintPointsByAdminWithOperator",
      "outputs": [],
      "stateMutability": "nonpayable",
      "type": "function"
    },
    {
      "inputs": [
        {
          "internalType": "address",
          "name": "userEOA",
          "type": "address"
        },
        {
          "internalType": "uint256",
          "name": "points6",
          "type": "uint256"
        }
      ],
      "name": "mintPointsByGateway",
      "outputs": [],
      "stateMutability": "nonpayable",
      "type": "function"
    },
    {
      "inputs": [
        {
          "internalType": "address",
          "name": "userEOA",
          "type": "address"
        },
        {
          "internalType": "uint256",
          "name": "points6",
          "type": "uint256"
        },
        {
          "internalType": "address",
          "name": "operator",
          "type": "address"
        }
      ],
      "name": "mintPointsByGatewayWithOperator",
      "outputs": [],
      "stateMutability": "nonpayable",
      "type": "function"
    },
    {
      "inputs": [
        {
          "internalType": "address",
          "name": "payerAA",
          "type": "address"
        },
        {
          "internalType": "uint256",
          "name": "points6",
          "type": "uint256"
        },
        {
          "internalType": "address",
          "name": "operatorForStats",
          "type": "address"
        }
      ],
      "name": "mintPointsOpenContainerRelay",
      "outputs": [],
      "stateMutability": "nonpayable",
      "type": "function"
    },
    {
      "inputs": [],
      "name": "name",
      "outputs": [
        {
          "internalType": "string",
          "name": "",
          "type": "string"
        }
      ],
      "stateMutability": "view",
      "type": "function"
    },
    {
      "inputs": [
        {
          "internalType": "uint256",
          "name": "tokenId",
          "type": "uint256"
        }
      ],
      "name": "nftAttributes",
      "outputs": [
        {
          "internalType": "uint256",
          "name": "",
          "type": "uint256"
        }
      ],
      "stateMutability": "view",
      "type": "function"
    },
    {
      "inputs": [
        {
          "internalType": "uint256",
          "name": "tokenId",
          "type": "uint256"
        }
      ],
      "name": "nftExpiresAt",
      "outputs": [
        {
          "internalType": "uint256",
          "name": "",
          "type": "uint256"
        }
      ],
      "stateMutability": "view",
      "type": "function"
    },
    {
      "inputs": [
        {
          "internalType": "address",
          "name": "user",
          "type": "address"
        },
        {
          "internalType": "uint256",
          "name": "index",
          "type": "uint256"
        }
      ],
      "name": "nftInventoryAt",
      "outputs": [
        {
          "internalType": "uint256",
          "name": "",
          "type": "uint256"
        }
      ],
      "stateMutability": "view",
      "type": "function"
    },
    {
      "inputs": [
        {
          "internalType": "address",
          "name": "user",
          "type": "address"
        }
      ],
      "name": "nftInventoryLength",
      "outputs": [
        {
          "internalType": "uint256",
          "name": "",
          "type": "uint256"
        }
      ],
      "stateMutability": "view",
      "type": "function"
    },
    {
      "inputs": [
        {
          "internalType": "uint256",
          "name": "tokenId",
          "type": "uint256"
        }
      ],
      "name": "nftTierIndexOrMax",
      "outputs": [
        {
          "internalType": "uint256",
          "name": "",
          "type": "uint256"
        }
      ],
      "stateMutability": "view",
      "type": "function"
    },
    {
      "inputs": [],
      "name": "owner",
      "outputs": [
        {
          "internalType": "address",
          "name": "",
          "type": "address"
        }
      ],
      "stateMutability": "view",
      "type": "function"
    },
    {
      "inputs": [
        {
          "internalType": "address",
          "name": "userEOA",
          "type": "address"
        },
        {
          "internalType": "uint256",
          "name": "usdcReward6",
          "type": "uint256"
        }
      ],
      "name": "payoutSocialExchangeUsdc",
      "outputs": [],
      "stateMutability": "nonpayable",
      "type": "function"
    },
    {
      "inputs": [
        {
          "internalType": "address",
          "name": "user",
          "type": "address"
        }
      ],
      "name": "pointsBalanceOf",
      "outputs": [
        {
          "internalType": "uint256",
          "name": "",
          "type": "uint256"
        }
      ],
      "stateMutability": "view",
      "type": "function"
    },
    {
      "inputs": [],
      "name": "pointsUnitPriceInCurrencyE6",
      "outputs": [
        {
          "internalType": "uint256",
          "name": "",
          "type": "uint256"
        }
      ],
      "stateMutability": "view",
      "type": "function"
    },
    {
      "inputs": [
        {
          "internalType": "uint256",
          "name": "chargeRewardAmount",
          "type": "uint256"
        }
      ],
      "name": "previewReferrerRewardFromChargeReward",
      "outputs": [
        {
          "internalType": "uint256",
          "name": "",
          "type": "uint256"
        }
      ],
      "stateMutability": "view",
      "type": "function"
    },
    {
      "inputs": [
        {
          "internalType": "address",
          "name": "userEOA",
          "type": "address"
        },
        {
          "internalType": "uint256",
          "name": "tokenId",
          "type": "uint256"
        },
        {
          "internalType": "uint256",
          "name": "amount",
          "type": "uint256"
        },
        {
          "internalType": "address",
          "name": "payeeEOA",
          "type": "address"
        }
      ],
      "name": "purchaseIssuedNftWithPointsCharge",
      "outputs": [],
      "stateMutability": "nonpayable",
      "type": "function"
    },
    {
      "inputs": [
        {
          "internalType": "uint256",
          "name": "tokenId",
          "type": "uint256"
        },
        {
          "internalType": "uint256",
          "name": "amount",
          "type": "uint256"
        }
      ],
      "name": "quoteIssuedNftPurchasePoints6",
      "outputs": [
        {
          "internalType": "uint256",
          "name": "points6",
          "type": "uint256"
        },
        {
          "internalType": "uint256",
          "name": "totalPriceInCurrency6",
          "type": "uint256"
        }
      ],
      "stateMutability": "view",
      "type": "function"
    },
    {
      "inputs": [
        {
          "internalType": "address",
          "name": "operator",
          "type": "address"
        },
        {
          "internalType": "uint256",
          "name": "amount",
          "type": "uint256"
        }
      ],
      "name": "recordAdminBurnForStats",
      "outputs": [],
      "stateMutability": "nonpayable",
      "type": "function"
    },
    {
      "inputs": [
        {
          "internalType": "address",
          "name": "admin",
          "type": "address"
        },
        {
          "internalType": "uint256",
          "name": "amount",
          "type": "uint256"
        }
      ],
      "name": "recordAdminMintForStats",
      "outputs": [],
      "stateMutability": "nonpayable",
      "type": "function"
    },
    {
      "inputs": [
        {
          "internalType": "address",
          "name": "userEOA",
          "type": "address"
        },
        {
          "internalType": "uint256",
          "name": "tokenId",
          "type": "uint256"
        }
      ],
      "name": "recordSocialExchangeUsdcClaim",
      "outputs": [],
      "stateMutability": "nonpayable",
      "type": "function"
    },
    {
      "inputs": [
        {
          "internalType": "string",
          "name": "code",
          "type": "string"
        },
        {
          "internalType": "address",
          "name": "to",
          "type": "address"
        }
      ],
      "name": "redeemAdminByGateway",
      "outputs": [],
      "stateMutability": "nonpayable",
      "type": "function"
    },
    {
      "inputs": [
        {
          "internalType": "string[]",
          "name": "codes",
          "type": "string[]"
        },
        {
          "internalType": "address",
          "name": "userEOA",
          "type": "address"
        }
      ],
      "name": "redeemBatchByGateway",
      "outputs": [],
      "stateMutability": "nonpayable",
      "type": "function"
    },
    {
      "inputs": [
        {
          "internalType": "string",
          "name": "code",
          "type": "string"
        },
        {
          "internalType": "address",
          "name": "userEOA",
          "type": "address"
        }
      ],
      "name": "redeemByGateway",
      "outputs": [],
      "stateMutability": "nonpayable",
      "type": "function"
    },
    {
      "inputs": [
        {
          "internalType": "string",
          "name": "code",
          "type": "string"
        },
        {
          "internalType": "address",
          "name": "userEOA",
          "type": "address"
        }
      ],
      "name": "redeemPoolByGateway",
      "outputs": [],
      "stateMutability": "nonpayable",
      "type": "function"
    },
    {
      "inputs": [
        {
          "internalType": "address",
          "name": "refereeAA",
          "type": "address"
        }
      ],
      "name": "refereeChargePointsTotal6",
      "outputs": [
        {
          "internalType": "uint256",
          "name": "",
          "type": "uint256"
        }
      ],
      "stateMutability": "view",
      "type": "function"
    },
    {
      "inputs": [
        {
          "internalType": "address",
          "name": "referrerAA",
          "type": "address"
        }
      ],
      "name": "refereeCountByReferrer",
      "outputs": [
        {
          "internalType": "uint256",
          "name": "",
          "type": "uint256"
        }
      ],
      "stateMutability": "view",
      "type": "function"
    },
    {
      "inputs": [
        {
          "internalType": "address",
          "name": "refereeAA",
          "type": "address"
        }
      ],
      "name": "refereeReferrer",
      "outputs": [
        {
          "internalType": "address",
          "name": "",
          "type": "address"
        }
      ],
      "stateMutability": "view",
      "type": "function"
    },
    {
      "inputs": [],
      "name": "referrerRewardFromChargeRewardRatioE6",
      "outputs": [
        {
          "internalType": "uint256",
          "name": "",
          "type": "uint256"
        }
      ],
      "stateMutability": "view",
      "type": "function"
    },
    {
      "inputs": [],
      "name": "referrerTotalCount",
      "outputs": [
        {
          "internalType": "uint256",
          "name": "",
          "type": "uint256"
        }
      ],
      "stateMutability": "view",
      "type": "function"
    },
    {
      "inputs": [
        {
          "internalType": "address",
          "name": "refereeAA",
          "type": "address"
        }
      ],
      "name": "registerReferee",
      "outputs": [],
      "stateMutability": "nonpayable",
      "type": "function"
    },
    {
      "inputs": [],
      "name": "registeredRefereeTotalCount",
      "outputs": [
        {
          "internalType": "uint256",
          "name": "",
          "type": "uint256"
        }
      ],
      "stateMutability": "view",
      "type": "function"
    },
    {
      "inputs": [],
      "name": "renounceOwnership",
      "outputs": [],
      "stateMutability": "nonpayable",
      "type": "function"
    },
    {
      "inputs": [
        {
          "internalType": "address",
          "name": "adminAddr",
          "type": "address"
        }
      ],
      "name": "resetAdminLimit",
      "outputs": [],
      "stateMutability": "nonpayable",
      "type": "function"
    },
    {
      "inputs": [
        {
          "internalType": "address",
          "name": "adminAddr",
          "type": "address"
        },
        {
          "internalType": "address",
          "name": "authorizer",
          "type": "address"
        }
      ],
      "name": "resetAdminLimitByAdmin",
      "outputs": [],
      "stateMutability": "nonpayable",
      "type": "function"
    },
    {
      "inputs": [
        {
          "internalType": "address",
          "name": "from",
          "type": "address"
        },
        {
          "internalType": "address",
          "name": "to",
          "type": "address"
        },
        {
          "internalType": "uint256[]",
          "name": "ids",
          "type": "uint256[]"
        },
        {
          "internalType": "uint256[]",
          "name": "values",
          "type": "uint256[]"
        },
        {
          "internalType": "bytes",
          "name": "data",
          "type": "bytes"
        }
      ],
      "name": "safeBatchTransferFrom",
      "outputs": [],
      "stateMutability": "nonpayable",
      "type": "function"
    },
    {
      "inputs": [
        {
          "internalType": "address",
          "name": "from",
          "type": "address"
        },
        {
          "internalType": "address",
          "name": "to",
          "type": "address"
        },
        {
          "internalType": "uint256",
          "name": "id",
          "type": "uint256"
        },
        {
          "internalType": "uint256",
          "name": "value",
          "type": "uint256"
        },
        {
          "internalType": "bytes",
          "name": "data",
          "type": "bytes"
        }
      ],
      "name": "safeTransferFrom",
      "outputs": [],
      "stateMutability": "nonpayable",
      "type": "function"
    },
    {
      "inputs": [
        {
          "internalType": "address",
          "name": "operator",
          "type": "address"
        },
        {
          "internalType": "bool",
          "name": "approved",
          "type": "bool"
        }
      ],
      "name": "setApprovalForAll",
      "outputs": [],
      "stateMutability": "nonpayable",
      "type": "function"
    },
    {
      "inputs": [
        {
          "internalType": "uint256",
          "name": "attr",
          "type": "uint256"
        }
      ],
      "name": "setDefaultAttr",
      "outputs": [],
      "stateMutability": "nonpayable",
      "type": "function"
    },
    {
      "inputs": [
        {
          "internalType": "uint256",
          "name": "secs",
          "type": "uint256"
        }
      ],
      "name": "setExpirySeconds",
      "outputs": [],
      "stateMutability": "nonpayable",
      "type": "function"
    },
    {
      "inputs": [
        {
          "internalType": "uint256",
          "name": "priceInCurrencyE6",
          "type": "uint256"
        }
      ],
      "name": "setPointsUnitPrice",
      "outputs": [],
      "stateMutability": "nonpayable",
      "type": "function"
    },
    {
      "inputs": [
        {
          "internalType": "address",
          "name": "refereeAA",
          "type": "address"
        },
        {
          "internalType": "address",
          "name": "referrerAA",
          "type": "address"
        }
      ],
      "name": "setRefereeReferrer",
      "outputs": [],
      "stateMutability": "nonpayable",
      "type": "function"
    },
    {
      "inputs": [
        {
          "internalType": "uint256",
          "name": "ratioE6",
          "type": "uint256"
        }
      ],
      "name": "setReferrerRewardRatio",
      "outputs": [],
      "stateMutability": "nonpayable",
      "type": "function"
    },
    {
      "inputs": [
        {
          "components": [
            {
              "internalType": "uint256",
              "name": "minUsdc6",
              "type": "uint256"
            },
            {
              "internalType": "uint256",
              "name": "attr",
              "type": "uint256"
            },
            {
              "internalType": "uint256",
              "name": "tierExpirySeconds",
              "type": "uint256"
            }
          ],
          "internalType": "struct Tier[]",
          "name": "newTiers",
          "type": "tuple[]"
        }
      ],
      "name": "setTiers",
      "outputs": [],
      "stateMutability": "nonpayable",
      "type": "function"
    },
    {
      "inputs": [
        {
          "internalType": "address",
          "name": "target",
          "type": "address"
        },
        {
          "internalType": "bool",
          "name": "allowed",
          "type": "bool"
        }
      ],
      "name": "setTransferWhitelist",
      "outputs": [],
      "stateMutability": "nonpayable",
      "type": "function"
    },
    {
      "inputs": [
        {
          "internalType": "bool",
          "name": "enabled",
          "type": "bool"
        }
      ],
      "name": "setTransferWhitelistEnabled",
      "outputs": [],
      "stateMutability": "nonpayable",
      "type": "function"
    },
    {
      "inputs": [
        {
          "internalType": "bytes4",
          "name": "interfaceId",
          "type": "bytes4"
        }
      ],
      "name": "supportsInterface",
      "outputs": [
        {
          "internalType": "bool",
          "name": "",
          "type": "bool"
        }
      ],
      "stateMutability": "view",
      "type": "function"
    },
    {
      "inputs": [],
      "name": "symbol",
      "outputs": [
        {
          "internalType": "string",
          "name": "",
          "type": "string"
        }
      ],
      "stateMutability": "pure",
      "type": "function"
    },
    {
      "inputs": [
        {
          "internalType": "uint256",
          "name": "",
          "type": "uint256"
        }
      ],
      "name": "tiers",
      "outputs": [
        {
          "internalType": "uint256",
          "name": "minUsdc6",
          "type": "uint256"
        },
        {
          "internalType": "uint256",
          "name": "attr",
          "type": "uint256"
        },
        {
          "internalType": "uint256",
          "name": "tierExpirySeconds",
          "type": "uint256"
        }
      ],
      "stateMutability": "view",
      "type": "function"
    },
    {
      "inputs": [
        {
          "internalType": "uint256",
          "name": "",
          "type": "uint256"
        }
      ],
      "name": "tokenTierIndexOrMax",
      "outputs": [
        {
          "internalType": "uint256",
          "name": "",
          "type": "uint256"
        }
      ],
      "stateMutability": "view",
      "type": "function"
    },
    {
      "inputs": [],
      "name": "totalActiveMemberships",
      "outputs": [
        {
          "internalType": "uint256",
          "name": "",
          "type": "uint256"
        }
      ],
      "stateMutability": "view",
      "type": "function"
    },
    {
      "inputs": [],
      "name": "totalMembershipIssued",
      "outputs": [
        {
          "internalType": "uint256",
          "name": "",
          "type": "uint256"
        }
      ],
      "stateMutability": "view",
      "type": "function"
    },
    {
      "inputs": [
        {
          "internalType": "uint256",
          "name": "",
          "type": "uint256"
        }
      ],
      "name": "totalMembershipIssuedByTierIndex",
      "outputs": [
        {
          "internalType": "uint256",
          "name": "",
          "type": "uint256"
        }
      ],
      "stateMutability": "view",
      "type": "function"
    },
    {
      "inputs": [],
      "name": "totalMembershipUpgraded",
      "outputs": [
        {
          "internalType": "uint256",
          "name": "",
          "type": "uint256"
        }
      ],
      "stateMutability": "view",
      "type": "function"
    },
    {
      "inputs": [],
      "name": "totalSupply",
      "outputs": [
        {
          "internalType": "uint256",
          "name": "",
          "type": "uint256"
        }
      ],
      "stateMutability": "view",
      "type": "function"
    },
    {
      "inputs": [
        {
          "internalType": "uint256",
          "name": "id",
          "type": "uint256"
        }
      ],
      "name": "totalSupply",
      "outputs": [
        {
          "internalType": "uint256",
          "name": "",
          "type": "uint256"
        }
      ],
      "stateMutability": "view",
      "type": "function"
    },
    {
      "inputs": [
        {
          "internalType": "address",
          "name": "newOwner",
          "type": "address"
        }
      ],
      "name": "transferOwnership",
      "outputs": [],
      "stateMutability": "nonpayable",
      "type": "function"
    },
    {
      "inputs": [
        {
          "internalType": "address",
          "name": "",
          "type": "address"
        }
      ],
      "name": "transferWhitelist",
      "outputs": [
        {
          "internalType": "bool",
          "name": "",
          "type": "bool"
        }
      ],
      "stateMutability": "view",
      "type": "function"
    },
    {
      "inputs": [],
      "name": "transferWhitelistEnabled",
      "outputs": [
        {
          "internalType": "bool",
          "name": "",
          "type": "bool"
        }
      ],
      "stateMutability": "view",
      "type": "function"
    },
    {
      "inputs": [
        {
          "internalType": "address",
          "name": "refereeAA",
          "type": "address"
        }
      ],
      "name": "unregisterReferee",
      "outputs": [],
      "stateMutability": "nonpayable",
      "type": "function"
    },
    {
      "inputs": [],
      "name": "upgradeType",
      "outputs": [
        {
          "internalType": "uint8",
          "name": "",
          "type": "uint8"
        }
      ],
      "stateMutability": "view",
      "type": "function"
    },
    {
      "inputs": [
        {
          "internalType": "uint256",
          "name": "",
          "type": "uint256"
        }
      ],
      "name": "uri",
      "outputs": [
        {
          "internalType": "string",
          "name": "",
          "type": "string"
        }
      ],
      "stateMutability": "view",
      "type": "function"
    }
  ],
  "bytecode": "0x60a06040523461051d57616d728038038061001981610521565b92833981016101008282031261051d5781516001600160401b03811161051d5781610045918401610546565b50602082015191600983101561051d5760408101519061006760608201610597565b9361007460808301610597565b9260a08301519260ff841680940361051d5760c081015195861515870361051d5760e08201516001600160401b03811161051d576100b29201610546565b916020965f6100c089610521565b52600254600181811c91168015610513575b8982101461048857601f81116104e1575b505f6002556001600160a01b03169485156104ce57600380546001600160a01b03198116881790915586906001600160a01b03167f8be0079c531659141344cd1fd0a4f28419497f9722a3daafe3b4186f6b6457e05f80a3600160045560646019556001600160a01b0381169081159081156104c4575b506104b557600285116104a65733608052600580546001600160a01b03191682179055600680546001600160a81b03191690911760a09290921b60ff60a01b169190911790556007558051906001600160401b0382116103ab57601b5490600182811c9216801561049c575b878310146104885781601f849311610430575b508690601f83116001146103ca575f926103bf575b50508160011b915f199060031b1c191617601b555b620f42407f669d986a32f5e30674d7f66bb8d44cc28fe3e0e39e2f1cd4349a57cbd64d6cc855620f42407f22c0a15d444e21db16bbb52e03d65846fb96a18771ae18cefb26e2b75b089ee25560ff19601a541617601a5560017fbc488d3e2575f0f2113dc4d9a0cd6bc52445c6bc28a8974ed97a6ba3ecfd657a55805f527fbc488d3e2575f0f2113dc4d9a0cd6bc52445c6bc28a8974ed97a6ba3ecfd657b835260405f20600160ff198254161790555f516020616d525f395f51905f5254680100000000000000008110156103ab5760018101805f516020616d525f395f51905f5255811015610397575f516020616d525f395f51905f525f9081528490200180546001600160a01b031916909117905564174876e8007ffed699897f2561c8a98f833aa3de83c4904370d413fe5fb15abe26e9f8150b295561035a575b6040516167a690816105ac823960805181613b280152f35b7fc52867146282c253c04e94eb2a948478a1f7ef84cf2d6f5864facc99f2203f2c90600160ff19600a541617600a5560405160018152a15f610342565b634e487b7160e01b5f52603260045260245ffd5b634e487b7160e01b5f52604160045260245ffd5b015190505f806101ee565b601b5f9081528881209350601f198516905b8982821061041a575050908460019594939210610402575b505050811b01601b55610203565b01515f1960f88460031b161c191690555f80806103f4565b60018596829396860151815501950193016103dc565b828111156101d957909150601b5f52865f20601f840160051c90888510610480575b849392601f0160051c82900391015f5b8281106104705750506101d9565b5f81830155859450600101610462565b5f9150610452565b634e487b7160e01b5f52602260045260245ffd5b91607f16916101c6565b63c7e283e160e01b5f5260045ffd5b63ab82bb9960e01b5f5260045ffd5b90503b155f61015a565b631e4fbdf760e01b5f525f60045260245ffd5b80156100e35760025f52601f895f20910160051c905f5b8281106105065750506100e3565b5f828201556001016104f8565b90607f16906100d2565b5f80fd5b6040519190601f01601f191682016001600160401b038111838210176103ab57604052565b81601f8201121561051d578051906001600160401b0382116103ab57610575601f8301601f1916602001610521565b928284526020838301011161051d57815f9260208093018386015e8301015290565b51906001600160a01b038216820361051d5756fe60806040526004361015610019575b34156152fe575b5f80fd5b5f3560e01c80629019b2146108b8578062fdd58e146108b357806301ffc9a7146108ae578063039af9eb146108a957806303ca3e38146108a457806304edc1a71461089f57806306fdde031461089a5780630a106e9c146108955780630a96cefa146108905780630b6c8d711461088b5780630cb85641146108865780630e4ab487146108815780630e89341c1461087c5780630ec3786b146108775780631018c34b1461087257806310bba8641461086d578063116191b6146107d25780631284b92f14610868578063132220f01461086357806315c39d9d1461085e57806317c95709146106ba57806318160ddd146108595780631b09a97e146107325780631c790e24146108545780631fe56e6a1461084f57806324d7806c1461084a578063279181f3146108455780632a27fc3c146108405780632aff2a591461083b5780632b681a54146108365780632d0da7d2146108315780632dd50a491461082c5780632df08b9c146108275780632eb2c2d614610822578063306177031461081d57806333d4e562146108185780633c703d45146108135780633c970fb91461080e57806343159ce5146108095780634321976f14610804578063475e53ec146107ff57806348ed7ebe146107fa5780634932c0d6146107f557806349dd0900146107f05780634a1fb451146107eb5780634dda2215146107e65780634e1273f4146107e15780634e6ef844146107dc57806352304691146107d757806353785619146107d25780635476d071146107cd57806356217848146107c85780635637d5bc146107c3578063564da757146107be5780635932ab26146107b95780635cae09f2146107b45780636465c3a7146107af578063671395c8146107aa578063684cc3a5146107a55780636d315421146107a05780636e636a8c1461079b578063706e013214610796578063715018a61461079157806371b8982f146106335780637766fa441461078c5780637d879f9b146107875780637e1ed94b146107825780637ffbe2411461077d578063810b0e011461077857806382b720c91461077357806383dbbf531461076e5780638842fe4614610769578063897828a8146107645780638a1b32bb1461075f5780638abc9b251461075a5780638c29dce0146107555780638da5cb5b14610750578063918e29991461074b57806394b2e946146107465780639557ff44146107415780639565c5421461073c57806395d89b4114610737578063976ae3861461073257806398951b561461072d5780639a1ffd55146107285780639d712e3b146107235780639f1bbda71461071e5780639f3d1a2a146107195780639f48facc14610714578063a22cb4651461070f578063a47904461461070a578063a657a65b14610705578063a876c75914610700578063a98d916e146106fb578063aad3d45e146106f6578063acf12d3d146106f1578063af7ffa2b146106ec578063b676a96c146106e7578063b6c12c5f14610638578063b9ad3aa7146106e2578063bd85b039146106dd578063bdf70fd9146106d8578063bf70f559146106d3578063c163292e146106ce578063c231c2a7146106c9578063c926bbfd146106c4578063cb940969146106bf578063cb975e81146106ba578063cc73bcbe146106b5578063d05dcc6a146106a6578063d4506e77146106b0578063d4772f52146106ab578063d4b5d603146106a6578063d52dc515146106a1578063d5f394881461069c578063d85fa36214610697578063dd1bc5e914610692578063df1f44ac1461068d578063df6811dd14610688578063e221c8f314610683578063e2f972711461067e578063e4a34dce14610679578063e5a6b10f14610674578063e5df8c2f1461066f578063e6b708251461066a578063e985e9c514610665578063ea2b867214610660578063eae134fd1461065b578063ec12577114610656578063ee3bb7b814610651578063ef79d3661461064c578063f141b0a114610647578063f242432a14610642578063f2fde38b1461063d578063f540f22714610638578063f986f67614610633578063fcef6b011461062e578063fee3d73e14610629578063ff9b25f4146106245763ffa1ad740361000e57614706565b61464e565b61462e565b614611565b612801565b61367e565b61459a565b6144d2565b614454565b6140b8565b61409d565b61404b565b613f9b565b613efc565b613ecb565b613e36565b613dcb565b613d9f565b613d4d565b613cd5565b613c83565b613c5c565b613bcc565b613b76565b613b57565b613b13565b613af1565b6139e2565b613a64565b613a0c565b6139b3565b6114c0565b613983565b613969565b613940565b61389d565b61374e565b61372a565b6136e1565b6136a8565b6135d1565b61355e565b613541565b613512565b6134f3565b6134d6565b61347b565b613413565b613388565b61322a565b613173565b613156565b61311b565b6130ee565b61306c565b611526565b613024565b612ffc565b612fa9565b612f6e565b612ede565b612eb6565b612e26565b612d45565b612c8f565b612c2d565b612bae565b612b4c565b612a54565b612a14565b6129d4565b61294c565b61291c565b61284e565b612781565b612702565b612666565b6125d3565b61258a565b61254f565b6124c2565b612463565b612422565b6123af565b612394565b61236a565b61234d565b6112e1565b61228f565b6121f2565b612131565b6120d0565b6120a0565b61203d565b611fb9565b611ee8565b611e5b565b611d59565b611c03565b611b7e565b611b35565b611b04565b611aa1565b611a0d565b611833565b611814565b6117e3565b6117be565b611739565b6116b6565b611653565b61161e565b6115f4565b611556565b6114ea565b61141a565b6113ff565b6113a3565b6112a2565b611245565b6111e9565b611122565b6110d4565b611077565b610fbf565b610e95565b610d92565b610c6e565b610bfb565b610aba565b610a50565b610997565b610949565b6108da565b6001600160a01b031690565b6001600160a01b0381160361001557565b34610015576040366003190112610015576004356108f7816108c9565b6024359030330361093a576040519182526001600160a01b0316907f3e38a9410c08ddb4af8b083bfd2b197b1c3e61a651bd1c54c51ebce0cdcdc48e90602090a2005b630fc5e1ab60e41b5f5260045ffd5b3461001557604036600319011261001557602061097c60043561096b816108c9565b6024355f525f835260405f20611379565b54604051908152f35b6001600160e01b031981160361001557565b346100155760203660031901126100155760206004356109b681610985565b63ffffffff60e01b16636cdb3d1360e11b81149081156109f4575b81156109e3575b506040519015158152f35b6301ffc9a760e01b1490505f6109d8565b6303a24d0760e21b811491506109d1565b634e487b7160e01b5f52603260045260245ffd5b601754811015610a355760175f52600360205f20910201905f90565b610a05565b6040919493926060820195825260208201520152565b346100155760203660031901126100155760043560175481101561001557610a7790610a19565b508054610a936002600184015493015460405193849384610a3a565b0390f35b606090600319011261001557600435610aaf816108c9565b906024359060443590565b3461001557610ac836610a97565b6006545f9391906001600160a01b031680610b8157506005546001600160a01b03165b6001600160a01b03163303610b7257610b02615395565b73__$3eaf591ed8966daf2821da51125ab266f1$__803b1561001557610b42935f9360405195869485938493636f246bab60e11b85523060048601614721565b03915af48015610b6d57610b5a575b50600160045580f35b610b6691505f906118f8565b5f5f610b51565b61474b565b6396f47d2360e01b5f5260045ffd5b610aeb565b6044359060ff8216820361001557565b9181601f84011215610015578235916001600160401b038311610015576020838186019501011161001557565b805180835260209291819084018484015e5f828201840152601f01601f1916010190565b906020610bf8928181520190610bc3565b90565b346100155760403660031901126100155760043560ff81168103610015576024356001600160401b03811161001557610c38903690600401610b96565b9130330361093a57610c52610c5892610a939436916119bc565b90615429565b60405191829182610be7565b5f91031261001557565b34610015575f366003190112610015576040515f601b548060011c91600182168015610d63575b602084108114610d4f5783855284926020840191908115610d365750600114610ce1575b50610cc6925003826118f8565b8051610cd85750610a93610c58614756565b610a9390610c58565b601b5f90815291507f3ad8aa4f87544323a9d1e5dd902f40c356527a7955687113db5f9a85ad579dc15b848310610d1f5750610cc69350015f610cb9565b805482840152859350602090920191600101610d0b565b60ff1916825250610cc693151560051b0190505f610cb9565b634e487b7160e01b5f52602260045260245ffd5b92607f1692610c95565b604090600319011261001557600435610d85816108c9565b90602435610bf8816108c9565b3461001557610da036610d6d565b6006545f92906001600160a01b031680610e3257506005546001600160a01b03165b6001600160a01b03163303610b725773__$3c477d5d68b513e5270f7570f908764970$__91823b156100155760405163055a8d8160e51b8152925f92849283918291610e12913060048501614784565b03915af48015610b6d57610e24575080f35b610e3091505f906118f8565b005b610dc2565b90602080835192838152019201905f5b818110610e545750505090565b82516001600160a01b0316845260209384019390920191600101610e47565b610e8b60409295949395606083526060830190610e37565b9460208201520152565b346100155760403660031901126100155760405163054b677d60e11b81525f8180610ec8602435600480359084016130dd565b038173__$d22e98e2656d9a6189be97d809b75d9ca7$__5af48015610b6d575f905f925f91610f03575b50610a939060405193849384610e73565b925050503d805f833e610f1681836118f8565b8101606082820312610015578151906001600160401b03821161001557610f3e9183016147b2565b6020820151604090920151610a93610ef2565b6060602091604081019381526040838201528451809452019201905f5b818110610f7b5750505090565b909192602060a06001926080875180518352848101518584015260408101516040840152606081015160608401520151151560808201520194019101919091610f6e565b34610015576020366003190112610015576110086020600435610fe1816108c9565b60055460405163805a016360e01b815293849283926001600160a01b031660048401614bfb565b038173__$a9219284c3f0d74f57f4dcfc58f5429559$__5af48015610b6d57611038915f91611048575b506148e1565b90610a9360405192839283610f51565b61106a915060203d602011611070575b61106281836118f8565b810190614a15565b5f611032565b503d611058565b3461001557604036600319011261001557600435611094816108c9565b600654602435906001600160a01b0316806110cf57506005546001600160a01b03165b6001600160a01b03163303610b7257610e3091615442565b6110b7565b34610015576020366003190112610015576004356110f0615570565b7ff316e065e93b4fddef3d2d93a57817985081f76ea9e0ca7417ed5b4b086b1fcb6020601854604051908152a1601855005b34610015576020366003190112610015576111615f61113f6155c5565b604051809381926319c56d4160e21b8352604060048401526044830190610bc3565b306024830152038173__$9326044641c87b14e434c703319e7fbd9b$__5af48015610b6d57610a93915f9161119e575b5060405191829182610be7565b6111ba91503d805f833e6111b281836118f8565b810190614819565b5f611191565b6060906003190112610015576004356111d8816108c9565b9060243590604435610bf8816108c9565b34610015576111f7366111c0565b6006549091906001600160a01b03168061124057506005546001600160a01b03165b6001600160a01b03163303610b725761123992611234615395565b615634565b6001600455005b611219565b3461001557604036600319011261001557600435611262816108c9565b600654602435906001600160a01b03168061129d57506005546001600160a01b03165b6001600160a01b03163303610b7257610e3091615691565b611285565b34610015575f36600319011261001557602060405160068152f35b6001600160a01b0316600452602490565b6001600160a01b03909116815260200190565b34610015575f366003190112610015576005546040516001600160a01b039091168152602090f35b6001600160a01b03165f9081527fbc488d3e2575f0f2113dc4d9a0cd6bc52445c6bc28a8974ed97a6ba3ecfd657b6020526040902090565b6001600160a01b03165f9081527fbe5c2328713858b26c97b83c5ace333ac35b55572be4794180ba426b12cc48c46020526040902090565b9060018060a01b03165f5260205260405f2090565b8054821015610a35575f5260205f2001905f90565b34610015576040366003190112610015576004356113c0816108c9565b6001600160a01b03165f908152600e6020526040902080546024359190821015610015576020916113f09161138e565b90549060031b1c604051908152f35b34610015575f36600319011261001557602060405160018152f35b3461001557604036600319011261001557600435611437816108c9565b6024356001600160401b03811161001557611456903690600401610b96565b9030330361093a575f83838293610a93956040519283928337810184815203915af4611480614879565b5060405190151581529081906020820190565b5f527ffed699897f2561c8a98f833aa3de83c4904370d413fe5fb15abe26e9f8150b4060205260405f2090565b34610015576020366003190112610015576004355f52600b602052602060405f2054604051908152f35b34610015575f3660031901126100155760207fd34312c2e21f45f2b6715cf87d9e919b2098c835582e2b5c6e716490b0dfd0d554604051908152f35b3461001557604036600319011261001557600435611543816108c9565b60243530330361093a57610e3091614f8d565b34610015575f604036600319011261001557600435602435611577816108c9565b6006546001600160a01b0316806115ef57506005546001600160a01b03165b6001600160a01b03163303610b725773__$9c8bea727f7bd63306a827421d136dff37$__906115c3615760565b91803b1561001557610e12935f9360405195869485938493634961ea3960e01b855230600486016148a8565b611596565b34610015576020366003190112610015576004355f526011602052602060405f2054604051908152f35b3461001557602036600319011261001557602060ff611647600435611642816108c9565b611309565b54166040519015158152f35b3461001557606036600319011261001557602435600435611673826108c9565b6044359130330361093a576040519283526001600160a01b0316917fae2f87dbf103db294ddd4ab45caa7a914d70bb3d06eeb8a8dc23e03e84548c8d90602090a3005b34610015575f36600319011261001557604051630a89ff0f60e21b815260208160048173__$d22e98e2656d9a6189be97d809b75d9ca7$__5af4908115610b6d575f9161170a575b50604051908152602090f35b61172c915060203d602011611732575b61172481836118f8565b8101906148d2565b5f6116fe565b503d61171a565b346100155761174736610d6d565b6006545f92906001600160a01b0316806117b957506005546001600160a01b03165b6001600160a01b03163303610b725773__$3c477d5d68b513e5270f7570f908764970$__91823b1561001557604051638461257560e01b8152925f92849283918291610e12913060048501614784565b611769565b34610015576020366003190112610015576110386004356117de816108c9565b6148e1565b3461001557602036600319011261001557602061097c600435611805816108c9565b5f80525f835260405f20611379565b3461001557611239611825366111c0565b9161182e615395565b614a3f565b3461001557602036600319011261001557600435611850816108c9565b60018060a01b03165f527f22c0a15d444e21db16bbb52e03d65846fb96a18771ae18cefb26e2b75b089ee9602052602060405f2054604051908152f35b634e487b7160e01b5f52604160045260245ffd5b606081019081106001600160401b038211176118bc57604052565b61188d565b61010081019081106001600160401b038211176118bc57604052565b60a081019081106001600160401b038211176118bc57604052565b601f909101601f19168101906001600160401b038211908210176118bc57604052565b6040519061192b610100836118f8565b565b6001600160401b0381116118bc5760051b60200190565b9080601f8301121561001557813561195b8161192d565b9261196960405194856118f8565b81845260208085019260051b82010192831161001557602001905b8282106119915750505090565b8135815260209182019101611984565b6001600160401b0381116118bc57601f01601f191660200190565b9291926119c8826119a1565b916119d660405193846118f8565b829481845281830111610015578281602093845f960137010152565b9080601f8301121561001557816020610bf8933591016119bc565b346100155760a036600319011261001557600435611a2a816108c9565b60243590611a37826108c9565b6044356001600160401b03811161001557611a56903690600401611944565b6064356001600160401b03811161001557611a75903690600401611944565b608435939091906001600160401b03851161001557611a9b610e309536906004016119f2565b93614c15565b3461001557602036600319011261001557600435611abe816108c9565b6001600160a01b039081165f9081527f22c0a15d444e21db16bbb52e03d65846fb96a18771ae18cefb26e2b75b089ee16020908152604091829020549151919092168152f35b34610015576020366003190112610015576020611b2b600435611b26816108c9565b614c6e565b6040519015158152f35b34610015576020366003190112610015576004355f527ffed699897f2561c8a98f833aa3de83c4904370d413fe5fb15abe26e9f8150b30602052602060405f2054604051908152f35b3461001557604036600319011261001557611239600435611b9e816108c9565b602435611ba9615395565b611bb1615570565b611bf160135491611bec60145494611bde604051938492635bcc7ca960e11b602085015260248401614cd6565b03601f1981018352826118f8565b6153b5565b506003546001600160a01b0316615827565b3461001557604036600319011261001557600435611c20816108c9565b6024356006546001600160a01b031680611d5457506005546001600160a01b03165b6001600160a01b03163303610b7257611c59615395565b9081906001600160a01b03811615611d4557611c7490615888565b5f80805260205290611c98825f51602061677a5f395f51905f52611379565b611379565b54908115611d0c575f1914611d3d575b808311611d1b57508115611d0c57611cff81611ce5847fcfaedf921126ed75cd0b52e9418d816572c256b67104e03066bd3f067f2d53c0946158e1565b6040519384526001600160a01b0316929081906020820190565b0390a2610e306001600455565b63201165f360e21b5f5260045ffd5b60405163406e3ab960e01b8152928392611d39929060048501614cf1565b0390fd5b915081611ca8565b63a9b8048960e01b5f5260045ffd5b611c42565b3461001557608036600319011261001557600435611d76816108c9565b60443590602435606435611d89816108c9565b6006546001600160a01b031680611e5657506005546001600160a01b03165b6001600160a01b03163303610b7257611dbf615395565b6007549273__$ff68ecfc9a6b7df0c313e683766fad5a92$__803b15610015575f9460c4936040519788968795639120622d60e01b875230600488015260018060a01b031660248701526044860152606485015260018060a01b0316608484015260a48301525af48015610b6d57611e3c575b610e306001600455565b80611e4a5f611e50936118f8565b80610c64565b5f611e32565b611da8565b3461001557611e6936610a97565b6006545f9391906001600160a01b031680611ee357506005546001600160a01b03165b6001600160a01b03163303610b7257611ea3615395565b73__$ff68ecfc9a6b7df0c313e683766fad5a92$__803b1561001557610b42935f93604051958694859384936302f46e9b60e41b85523060048601614721565b611e8c565b3461001557611ef6366111c0565b6006549192916001600160a01b031680611fb457506005546001600160a01b03165b6001600160a01b03163303610b7257611f2f615395565b611f49611f45611f3e83611309565b5460ff1690565b1590565b611fa55773__$91c961bf2335aa1fea43924da854687380$__803b1561001557611f8d935f936040519586948593849363298a0b4f60e01b855230600486016148a8565b03915af48015610b6d57611e3c57610e306001600455565b6363bc5ecb60e11b5f5260045ffd5b611f18565b346100155760203660031901126100155760405163272048d960e01b8152600480359082015260208160248173__$d22e98e2656d9a6189be97d809b75d9ca7$__5af48015610b6d57610a93915f9161201e575b506040519081529081906020820190565b612037915060203d6020116117325761172481836118f8565b5f61200d565b346100155760203660031901126100155760043561205a816108c9565b6001600160a01b039081165f9081527fbc488d3e2575f0f2113dc4d9a0cd6bc52445c6bc28a8974ed97a6ba3ecfd65816020908152604091829020549151919092168152f35b34610015576040366003190112610015576004356120bd816108c9565b60243530330361093a57610e3091615900565b34610015575f366003190112610015576020600754604051908152f35b90602080835192838152019201905f5b81811061210a5750505090565b82518452602093840193909201916001016120fd565b906020610bf89281815201906120ed565b34610015576040366003190112610015576004356001600160401b03811161001557366023820112156100155780600401359061216d8261192d565b9161217b60405193846118f8565b8083526024602084019160051b8301019136831161001557602401905b8282106121d857836024356001600160401b03811161001557610a93916121c66121cc923690600401611944565b90614d7d565b60405191829182612120565b6020809183356121e7816108c9565b815201910190612198565b346100155760403660031901126100155760043561220f816108c9565b6024356006546001600160a01b03168061228a57506005546001600160a01b03165b6001600160a01b03163303610b7257612248615395565b6001600160a01b03821615611d455761227d61228292611bde60405193849263139bbe1160e21b602085015260248401614cd6565b61540f565b506001600455005b612231565b34610015576020366003190112610015576004356122ac816108c9565b6122b4615946565b6122bd81615975565b73__$d22e98e2656d9a6189be97d809b75d9ca7$__90813b1561001557604051635230469160e01b81526001600160a01b0390911660048201819052915f90829060249082905af48015610b6d57612339575b5033907fb414de90006d2f0dee7e12639f50b309b8fbca8e8e9323c07fd358cef0ce92085f80a3005b80611e4a5f612347936118f8565b5f612310565b34610015575f366003190112610015576020601554604051908152f35b34610015576020366003190112610015576004355f526012602052602060405f2054604051908152f35b34610015575f36600319011261001557602060405160648152f35b34610015575f6040366003190112610015576004356123cd816108c9565b602435906123d9615395565b6123e1615570565b73__$91c961bf2335aa1fea43924da854687380$__91823b1561001557604051636042127160e11b8152925f92849283918291610b42913060048501614df7565b346100155760203660031901126100155760043561243f816108c9565b30330361093a57612451602091615888565b6040516001600160a01b039091168152f35b3461001557602036600319011261001557600435612480816108c9565b60018060a01b03165f527f22c0a15d444e21db16bbb52e03d65846fb96a18771ae18cefb26e2b75b089ee0602052602060ff60405f2054166040519015158152f35b34610015576124d036610a97565b6006545f9391906001600160a01b03168061254a57506005546001600160a01b03165b6001600160a01b03163303610b725761250a615395565b73__$3eaf591ed8966daf2821da51125ab266f1$__803b1561001557610b42935f936040519586948593849363379d191f60e01b85523060048601614721565b6124f3565b346100155760203660031901126100155760043561256c816108c9565b60018060a01b03165f52600f602052602060405f2054604051908152f35b34610015576020366003190112610015576004355f527ffed699897f2561c8a98f833aa3de83c4904370d413fe5fb15abe26e9f8150b2d602052602060405f2054604051908152f35b34610015576125e136610a97565b909130330361093a576001600160a01b0381161561261f576126075f92610e3094616020565b929091816040516126196020826118f8565b52615cdb565b626a0d4560e21b5f525f60045260245ffd5b9060609261264e61265c9297969597608085526080850190610e37565b9083820360208501526120ed565b9460408201520152565b3461001557604036600319011261001557604051631b98daa360e21b81525f8180612699602435600480359084016130dd565b038173__$d22e98e2656d9a6189be97d809b75d9ca7$__5af48015610b6d575f5f915f5f916126d4575b90610a939160405194859485612631565b505050506126f6610a93913d805f833e6126ee81836118f8565b810190614e76565b919350839291906126c3565b346100155761271036610a97565b61271b929192615395565b612723615570565b6001600160a01b03821615611d45578015611d0c5761275673__$ff68ecfc9a6b7df0c313e683766fad5a92$__92615888565b91803b1561001557611f8d935f9360405195869485938493626fbc3360e31b85523060048601614721565b34610015575f36600319011261001557612799615a42565b600380546001600160a01b031981169091555f906001600160a01b03165f51602061675a5f395f51905f528280a3005b604060031982011261001557600435906001600160401b038211610015576127f391600401610b96565b9091602435610bf8816108c9565b346100155761280f366127c9565b6006549091906001600160a01b03168061284957506005546001600160a01b03165b6001600160a01b03163303610b7257610e3092614ecd565b612831565b346100155761285c366127c9565b6006546001600160a01b03168061291757506005546001600160a01b03165b6001600160a01b03163303610b7257612892615395565b73__$14fcd45fd929aea0b8f272435d174b619d$__6128af615760565b93813b15610015575f936128e8936040519687958694859463add0055d60e01b8652306004870152608060248701526084860191614f5a565b6001600160a01b0392831660448501529116606483015203915af48015610b6d57611e3c57610e306001600455565b61287b565b3461001557604036600319011261001557600435612939816108c9565b60243530330361093a57610e3091615a69565b346100155760c036600319011261001557600435612969816108c9565b60243590612976826108c9565b604435916064359060843560a4359130330361093a576129cf7fd8315aa093986599acfce9ddc9df890135154ffe58abebb49d1874c03575f9d99360405193849360018060a01b03169760018060a01b03169684610a3a565b0390a4005b34610015576020366003190112610015576004356129f1816108c9565b60018060a01b03165f526009602052602060ff60405f2054166040519015158152f35b346100155760403660031901126100155760206113f0600435612a36816108c9565b6001600160a01b03165f908152600e8352604090206024359061138e565b346100155760a036600319011261001557600435612a7181610985565b602435612a7d816108c9565b604435606435906084356006549093906001600160a01b031680612b4757506005546001600160a01b03165b6001600160a01b03163303610b7257612ac0615760565b6040516333033a9960e21b81523060048201526001600160a01b0391821660248201526001600160e01b03199096166044870152166064850152608484015260a483015260c482015260208160e48173__$9c8bea727f7bd63306a827421d136dff37$__5af48015610b6d57610a93915f9161201e57506040519081529081906020820190565b612aa9565b3461001557602036600319011261001557600435612b68615570565b8015612b9f576020817fd45b01a2f21a7aa8a0f57023efdce73147de071e77875c3f4d486b1e13eaef7092600755604051908152a1005b6376024b7160e01b5f5260045ffd5b3461001557612bbc36610a97565b6040516344217f2360e11b81526001600160a01b039093166004840152602483019190915260448201525f8160648173__$d22e98e2656d9a6189be97d809b75d9ca7$__5af48015610b6d575f5f915f5f916126d45790610a939160405194859485612631565b8015150361001557565b34610015576020366003190112610015577fc52867146282c253c04e94eb2a948478a1f7ef84cf2d6f5864facc99f2203f2c6020600435612c6d81612c23565b612c75615570565b151560ff19600a541660ff821617600a55604051908152a1005b3461001557602036600319011261001557600435612cac816108c9565b6006546001600160a01b031680612d4057506005546001600160a01b03165b6001600160a01b03163303610b725773__$3c477d5d68b513e5270f7570f908764970$__90813b1561001557604051630c94249760e21b81523060048201526001600160a01b039091166024820152905f90829060449082905af48015610b6d57612d3257005b80611e4a5f610e30936118f8565b612ccb565b3461001557606036600319011261001557604435600435602435612d67615570565b8115612e17576017549060405193612d7e856118a1565b83855260208501918083526040860195828752600160401b8510156118bc5760018501601755612dad85610a19565b919091612e12577fc9553df3224b08515381089b4a0e07d62144ba87c402485fabd66899cadc2ab197612e0d9560029251845551600184015551910155604051948594859094939260609260808301968352602083015260408201520152565b0390a1005b614f7a565b639033099360e01b5f5260045ffd5b3461001557604036600319011261001557600435612e43816108c9565b6024356006546001600160a01b031680612eb157506005546001600160a01b03165b6001600160a01b03163303610b7257612e7c615395565b6001600160a01b03821615611d455761227d61228292611bde604051938492633acaf10960e01b602085015260248401614cd6565b612e65565b34610015575f366003190112610015576003546040516001600160a01b039091168152602090f35b3461001557604036600319011261001557600435612efb816108c9565b6024356006546001600160a01b031680612f6957506005546001600160a01b03165b6001600160a01b03163303610b7257612f34615395565b6001600160a01b03821615611d455761227d61228292611bde60405193849263b933dba960e01b602085015260248401614cd6565b612f1d565b3461001557602036600319011261001557600435612f8b816108c9565b60018060a01b03165f526010602052602060405f2054604051908152f35b34610015575f36600319011261001557604051632555ffd160e21b815260208160048173__$d22e98e2656d9a6189be97d809b75d9ca7$__5af4908115610b6d575f9161170a5750604051908152602090f35b34610015575f366003190112610015576006546040516001600160a01b039091168152602090f35b34610015575f36600319011261001557610a936040516130456040826118f8565b60068152654245414d494f60d01b6020820152604051918291602083526020830190610bc3565b34610015575f60203660031901126100155760043560ff61308c33611309565b541615611fa55773__$9c8bea727f7bd63306a827421d136dff37$__906130b1615760565b90823b1561001557604051633225b39f60e01b8152925f92849283918291610e12913060048501614df7565b908152602081019190915260400190565b34610015575f3660031901126100155730330361093a5760135460145490610a93604051928392836130dd565b3461001557602036600319011261001557600435613138816108c9565b60018060a01b03165f52600e602052602060405f2054604051908152f35b34610015575f366003190112610015576020600854604051908152f35b34610015575f36600319011261001557610a9361318e6155c5565b604051918291602083526020830190610bc3565b81516001600160401b039081168252602080840151909116908201526040808301516001600160801b0390811691830191909152606080840151909116908201526101008101929161192b919060e090819060808181015115159085015260a08181015160ff169085015260c08181015160ff169085015201516001600160801b0316910152565b34610015576020366003190112610015576004355f60e060405161324d816118c1565b8281528260208201528260408201528260608201528260808201528260a08201528260c082015201525f527fe5fcefe92466b78c655fa732b80b16e07a00f2a897e833e17d9914703cad5632602052610a9360405f206133576133476002604051936132b8856118c1565b80546001600160401b038082168752604082901c1660208701526132e99060801c6001600160801b03166040870152565b60018101546001600160801b03811660608701526133399061332f90613319608082901c60ff16151560808a0152565b60ff608882901c1660a089015260901c60ff1690565b60ff1660c0870152565b01546001600160801b031690565b6001600160801b031660e0830152565b604051918291826131a2565b60409060031901126100155760043561337b816108c9565b90602435610bf881612c23565b346100155761339636613363565b6001600160a01b03821691821561340157816133c06133d192335f52600160205260405f20611379565b9060ff801983541691151516179055565b60405190151581527f17307eab39ab6107e8899845ad3d59bd9653f200f220920489ca2b5937696c3160203392a3005b62ced3e160e81b5f525f60045260245ffd5b34610015576040366003190112610015576004356001600160401b0381116100155736602382011215610015576004810135906001600160401b038211610015573660248360051b8301011161001557610e30916024803592613475846108c9565b01614fb9565b34610015576020366003190112610015576004356001600160401b03811161001557366023820112156100155760048101356001600160401b038111610015573660246060830284010111610015576024610e3092016151c2565b34610015575f366003190112610015576020601854604051908152f35b34610015575f36600319011261001557602060405164174876e8008152f35b34610015575f3660031901126100155730330361093a576003546040516001600160a01b039091168152602090f35b34610015575f366003190112610015576020601354604051908152f35b346100155760403660031901126100155760043561357b816108c9565b60065460243591906001600160a01b0316806135cc57506005546001600160a01b03165b6001600160a01b03163303610b7257611239916135ba615395565b6003546001600160a01b031691615634565b61359f565b34610015576040366003190112610015576007546040805163cc383d9f60e01b8152918290819061360b9060243560048035908501610a3a565b038173__$ff68ecfc9a6b7df0c313e683766fad5a92$__5af4908115610b6d575f905f92613644575b50610a93604051928392836130dd565b9150506040813d604011613676575b81613660604093836118f8565b810103126100155760208151910151905f613634565b3d9150613653565b34610015576020366003190112610015576004355f52600d602052602060405f2054604051908152f35b34610015575f3660031901126100155730330361093a5760ff60065460a01c1660098110156136dc57602090604051908152f35b613d8b565b34610015576020366003190112610015576004355f527fd34312c2e21f45f2b6715cf87d9e919b2098c835582e2b5c6e716490b0dfd0d4602052602060405f2054604051908152f35b34610015575f3660031901126100155730330361093a576020600754604051908152f35b346100155761375c36610a97565b9130330361093a576020926040519261377585856118f8565b5f84526001600160a01b03831691821561388a5761379291616020565b9161379f8383865f615cdb565b81516001036137bc57509380610e30950151910151915f33616603565b83949192933b6137c857005b6137ee935f87946040519687958694859363bc197c8160e01b8552853360048701616577565b03925af15f918161385b575b5061382c5750613808614879565b805192908361382757632bfa23e760e11b5f52613824836112bd565b5ffd5b019050fd5b9091506001600160e01b0319166343e6837f60e01b0161384857005b632bfa23e760e11b5f52613824906112bd565b61387c919250843d8611613883575b61387481836118f8565b810190616562565b905f6137fa565b503d61386a565b632bfa23e760e11b5f525f60045260245ffd5b34610015576020366003190112610015576004356138ba816108c9565b6138c2615946565b73__$d22e98e2656d9a6189be97d809b75d9ca7$__90813b15610015576040516360b1949760e11b81526001600160a01b0390911660048201819052915f90829060249082905af48015610b6d5761392c575b505f33915f51602061671a5f395f51905f528280a4005b80611e4a5f61393a936118f8565b5f613915565b34610015575f3660031901126100155760205f51602061673a5f395f51905f5254604051908152f35b34610015575f3660031901126100155760206040515f8152f35b34610015576040366003190112610015576004356139a0816108c9565b60243530330361093a57610e309161525f565b34610015576020366003190112610015576004356139d0816108c9565b30330361093a57611b2b602091615b97565b34610015576020366003190112610015576004355f52600c602052602060405f2054604051908152f35b3461001557602036600319011261001557600435613a28615570565b7f1c8121c98d871a1523a6112e29ac660378afbcb9b921cff8f187c3da35d1708181600854613a5c604051928392836130dd565b0390a1600855005b346100155760a036600319011261001557600435613a81816108c9565b602435613a8d816108c9565b613a95610b86565b906064356084359130330361093a577faec7eac010683474b50da2ca2793836009e34ef09022b5ec5d16de3342dbb7469260609260ff604051961686526020860152604085015260018060a01b03169360018060a01b031692a3005b34610015575f36600319011261001557602060ff600a54166040519015158152f35b34610015575f366003190112610015576040517f00000000000000000000000000000000000000000000000000000000000000006001600160a01b03168152602090f35b3461001557613b6536610a97565b9030330361093a57610e3092615827565b34610015576020366003190112610015576004355f526016602052602060405f2054604051908152f35b606090600319011261001557600435613bb8816108c9565b90602435613bc5816108c9565b9060443590565b3461001557613bda36613ba0565b919030330361093a575f808052602052613c01825f51602061677a5f395f51905f52611379565b54808411613c3e5750613c12614d15565b90613c1b614d15565b92825115610a35575f6020840152835115610a3557610e30946020850152615cdb565b82611d398560405193849363406e3ab960e01b855260048501614cf1565b34610015575f3660031901126100155730330361093a57602060ff601a5416604051908152f35b3461001557613c9136613ba0565b9030330361093a576040519182526001600160a01b039081169216907f6ac4f60455173f2148d89d52868ac4ffb14111720d245aa36ad26e0d7e64c59b90602090a3005b3461001557602036600319011261001557600435613cf2816108c9565b60405163e2f9727160e01b81526001600160a01b03909116600482015260208160248173__$d22e98e2656d9a6189be97d809b75d9ca7$__5af48015610b6d57610a93915f9161201e57506040519081529081906020820190565b3461001557610e30613d5e36613363565b90613d67615570565b60018060a01b03165f52600960205260405f209060ff801983541691151516179055565b634e487b7160e01b5f52602160045260245ffd5b34610015575f3660031901126100155760ff60065460a01c1660405160098210156136dc576020918152f35b34610015576020366003190112610015577f22347ec833323e597ceae8cffe5b0b7024b50a318357296b6ad3a548e1c66ec7600435613e08615946565b5f51602061673a5f395f51905f5254815f51602061673a5f395f51905f5255612e0d604051928392836130dd565b3461001557604036600319011261001557600435613e53816108c9565b6024356006546001600160a01b031680613ec657506005546001600160a01b03165b6001600160a01b03163303610b7257613e8c615395565b6001600160a01b03821615611d4557613ec161228292611bde604051938492631f79107d60e21b602085015260248401614cd6565b61541c565b613e75565b3461001557602060ff611647613ee036610d6d565b6001600160a01b039091165f9081526001855260409020611379565b34610015575f604036600319011261001557600435613f1a816108c9565b60065460243591906001600160a01b031680613f9657506005546001600160a01b03165b6001600160a01b03163303610b7257613f55615395565b73__$ff68ecfc9a6b7df0c313e683766fad5a92$__91823b15610015576040516351aa172f60e01b8152925f92849283918291610b42913060048501614df7565b613f3e565b3461001557613fa936610d6d565b90613fb2615946565b613fbb81615975565b613fc482615975565b73__$d22e98e2656d9a6189be97d809b75d9ca7$__803b15610015575f604051809263eae134fd60e01b82528180614000888860048401614bfb565b03915af48015610b6d57614032575b5033916001600160a01b0390811691165f51602061671a5f395f51905f525f80a4005b8061403e5f80936118f8565b800312610015575f61400f565b346100155761405936613ba0565b9030330361093a576040519182526001600160a01b039081169216907f01ff503732e46b833fc2900bbc89c476968a545f18c9ec757e33526c88b4002e90602090a3005b34610015575f36600319011261001557602060405160028152f35b346100155760e0366003190112610015576004356140d5816108c9565b6024359060643560443560843560c4356001600160401b03811161001557614101903690600401610b96565b60a49291923591614110615395565b6001600160a01b038716938415611d4557814211614437578515611d0c576005546001600160a01b0390614143906108bd565b16938415611d45578860405161416281611bde85602083019586614cd6565b51902092614172611f3e85611493565b61442857886141f889611bde6020958f9561419661419160049b611493565b6152d9565b60405195869489860198308a9260c094919796959260e08501987f17f3dc818316411c3ecccec93e76b26979d2ff377e5a7e2e0a1db1e9b13e753f865260018060a01b0316602086015260408501526060840152608083015260a08201520152565b5190209460405193848092633644e51560e01b82525afa918215610b6d576142559461424f93614247925f91614409575b506042916040519161190160f01b8352600283015260228201522090565b9236916119bc565b90615e06565b906001600160a01b038216036143e7575073__$ff68ecfc9a6b7df0c313e683766fad5a92$__90813b15610015576040516310550add60e11b8152600481018690525f81602481865af48015610b6d576142d492611bde9261227d926143d3575b50604051633acaf10960e01b60208201529283918860248401614cd6565b50811561437c57509161432c5f9261430c611bde61227d6143469760405192839163b933dba960e01b60208401528660248401614cd6565b50611bde604051938492631f79107d60e21b602085015260248401614cd6565b604051809381926304edc1a760e01b8352600483016152e6565b038183305af18015610b6d57614362575b50610e306001600455565b614375903d805f833e6111b281836118f8565b505f614357565b809391503b15610015576040516351aa172f60e01b8152925f928492839182916143aa913060048501614df7565b03915af48015610b6d576143bf575b50611e32565b80611e4a5f6143cd936118f8565b5f6143b9565b80611e4a5f6143e1936118f8565b5f6142b6565b636cf57d9160e11b5f526001600160a01b03908116600452831660245260445ffd5b614422915060203d6020116117325761172481836118f8565b5f614229565b637b7fc77160e01b5f5260045ffd5b631f1183ed60e31b5f90815242600452602452604482905260645ffd5b346100155760a036600319011261001557602435600435614474826108c9565b60443590614481826108c9565b6064359160843530330361093a576040516001600160a01b0392831695909216937f3bf2de114e2e7636c289f21be023528e47d89b45e873b976c78989c3ddc683f5929182916129cf9190836130dd565b346100155760a0366003190112610015576004356144ef816108c9565b6024356144fb816108c9565b60443590606435926084356001600160401b038111610015576145229036906004016119f2565b926001600160a01b038216338114158061457a575b614564576001600160a01b0384161561388a571561261f57610e309461455c91616020565b929091615e1c565b63711bec9160e11b5f523360045260245260445ffd5b50805f52600160205260ff6145923360405f20611379565b541615614537565b34610015576020366003190112610015576004356145b7816108c9565b6145bf615a42565b6001600160a01b031680156145fe57600380546001600160a01b0319811683179091556001600160a01b03165f51602061675a5f395f51905f525f80a3005b631e4fbdf760e01b5f525f60045260245ffd5b34610015575f366003190112610015576020601454604051908152f35b34610015575f36600319011261001557602060ff601a5416604051908152f35b346100155760203660031901126100155760043561466b816108c9565b614673615946565b73__$d22e98e2656d9a6189be97d809b75d9ca7$__90813b156100155760405160016219368360e21b031981526001600160a01b0390911660048201819052915f90829060249082905af48015610b6d576146f2575b5033907fd6aa15bb31cca0774d36bdd90707bb8705e5031d7392febcb7678dd8e1c9c2405f80a3005b80611e4a5f614700936118f8565b5f6146c9565b34610015575f366003190112610015576020604051601b8152f35b6001600160a01b039182168152911660208201526040810191909152606081019190915260800190565b6040513d5f823e3d90fd5b604051906147656040836118f8565b601082526f1099585b5a5bc8155cd95c8810d85c9960821b6020830152565b6001600160a01b0391821681529181166020830152909116604082015260600190565b519061192b826108c9565b9080601f830112156100155781516147c98161192d565b926147d760405194856118f8565b81845260208085019260051b82010192831161001557602001905b8282106147ff5750505090565b60208091835161480e816108c9565b8152019101906147f2565b602081830312610015578051906001600160401b038211610015570181601f820112156100155760208151910161484f826119a1565b9261485d60405194856118f8565b8284528282011161001557815f926020928386015e8301015290565b3d156148a3573d9061488a826119a1565b9161489860405193846118f8565b82523d5f602084013e565b606090565b6001600160a01b039182168152918116602083015260408201929092529116606082015260800190565b90816020910312610015575190565b604051630789b7b160e51b81523060048201526001600160a01b039091166024820152905f8260448173__$c358c1027d02ab1c17f0ade0d7945ec897$__5af4918215610b6d575f905f9361493557509190565b9250503d805f843e61494781846118f8565b820191604081840312610015578051602082015190916001600160401b038211610015570183601f82011215610015578051906149838261192d565b9461499160405196876118f8565b828652602060a081880194028301019181831161001557602001925b8284106149bc57505050509190565b60a08483031261001557602060a0916040516149d7816118dd565b86518152828701518382015260408701516040820152606087015160608201526080870151614a0581612c23565b60808201528152019301926149ad565b908160209103126100155751610bf8816108c9565b908160209103126100155751610bf881612c23565b91908015614bf6576001600160a01b038316928315611d45576001600160a01b03831615611d455760405163c45a015560e01b8152602081600481885afa908115610b6d575f91614bd7575b506001600160a01b03168015611d455760405163054c14ed60e51b8152602081600481855afa908115610b6d575f91614bb8575b506001600160a01b03168015614ba9573303614b9b57614af79160209160405180809581946303330c7960e41b8352600483016112ce565b03915afa908115610b6d575f91614b6c575b5015614b5d57602060049360405194858092638da5cb5b60e01b82525afa8015610b6d5761192b935f91614b3e575b50615634565b614b57915060203d6020116110705761106281836118f8565b5f614b38565b632ad05f3360e11b5f5260045ffd5b614b8e915060203d602011614b94575b614b8681836118f8565b810190614a2a565b5f614b09565b503d614b7c565b62645ab960e51b5f5260045ffd5b63ab82bb9960e01b5f5260045ffd5b614bd1915060203d6020116110705761106281836118f8565b5f614abf565b614bf0915060203d6020116110705761106281836118f8565b5f614a8b565b505050565b6001600160a01b0391821681529116602082015260400190565b939291906001600160a01b0385163381141580614c4e575b614564576001600160a01b0382161561388a571561261f5761192b94615e1c565b50805f52600160205260ff614c663360405f20611379565b541615614c2d565b60ff600a541615614cd0575f805260096020527fec8156718a8372b1db44bb411437d0870f3e3790d4a08526d024ce1b0b668f6b5460ff16908115614cb1575090565b6001600160a01b03165f9081526009602052604090205460ff16919050565b50600190565b6001600160a01b039091168152602081019190915260400190565b606091949392608082019560018060a01b031682525f602083015260408201520152565b60408051909190614d2683826118f8565b6001815291601f1901366020840137565b90614d418261192d565b614d4e60405191826118f8565b8281528092614d5f601f199161192d565b0190602036910137565b8051821015610a355760209160051b010190565b91909180518351808203614de2575050614d978151614d37565b905f5b8151811015614ddb5780614dc960019260051b602080828701015191890101515f525f60205260405f20611379565b54614dd48286614d69565b5201614d9a565b5090925050565b635b05999160e01b5f5260045260245260445ffd5b6001600160a01b03918216815291166020820152604081019190915260600190565b9080601f83011215610015578151614e308161192d565b92614e3e60405194856118f8565b81845260208085019260051b82010192831161001557602001905b828210614e665750505090565b8151815260209182019101614e59565b9190916080818403126100155780516001600160401b0381116100155783614e9f9183016147b2565b602082015190936001600160401b03821161001557614ebf918301614e19565b916060604083015192015190565b90614ed6615395565b73__$14fcd45fd929aea0b8f272435d174b619d$__803b15610015575f92614f2392604051958694859384936379616bbd60e11b8552306004860152606060248601526064850191614f5a565b6001600160a01b03909116604483015203915af48015610b6d57614f4a575b506001600455565b5f614f54916118f8565b5f614f42565b908060209392818452848401375f828201840152601f01601f1916010190565b634e487b7160e01b5f525f60045260245ffd5b906001600160a01b038216158015614fb1575b614fad5761192b91615a91565b5050565b508015614fa0565b600654909291906001600160a01b0316806150ff57506005546001600160a01b03165b6001600160a01b03163303610b7257614ff3615395565b73__$14fcd45fd929aea0b8f272435d174b619d$__91823b15610015579290604051938492633d88d6a560e11b8452826064850130600487015260606024870152526084840160848460051b86010193825f90601e19813603015b8383106150a0575050506001600160a01b039093166044860152505f949284925082915003915af48015610b6d5761508c575b5061192b6001600455565b80611e4a5f61509a936118f8565b5f615081565b9193959690929497506083198a8203018652873582811215610015578301602081019190356001600160401b038111610015578036038313610015576150ec6020928392600195614f5a565b990196019301909189979695949261504e565b614fdc565b9190811015610a35576060020190565b634e487b7160e01b5f52601160045260245ffd5b6017545f601755806151375750565b806003029060038204036151755760175f5260205f205f5b82811061515b57505050565b805f6002600393850182815582600182015501550161514f565b615114565b601754600160401b8110156118bc5760018101601755601754811015610a3557604060029160175f52600360205f209102019280358455602081013560018501550135910155565b6151ca615570565b8115615250575f5b82811061523757506151e2615128565b5f5b82811061521b5750506040519081527f2f291eaf494dc7eca20457441a1df7d9119f0c0d764309daf9cb6b148810ee3690602090a1565b8061523161522c6001938686615104565b61517a565b016151e4565b615242818484615104565b3515612e17576001016151d2565b6308ba5b6160e01b5f5260045ffd5b6001600160a01b03165f908152600e60205260408120805490915b8181106152b45750600160401b8110156118bc5761529d9160018201815561138e565b819291549060031b91821b915f19901b1916179055565b836152bf828561138e565b90549060031b1c146152d35760010161527a565b50505050565b805460ff19166001179055565b906040610bf892600281528160208201520190610bc3565b600554604051635f62570d60e11b81526001600160a01b0390911660048201526001600160e01b03195f3516602482015260208160448173__$071cf681b03e9c24fcf6005bc28358a856$__5af4908115610b6d575f9182918291615376575b50368280378136915af43d90815f803e15613824575ff35b61538f915060203d6020116110705761106281836118f8565b5f61535e565b6002600454146153a6576002600455565b633ee5aeb560e01b5f5260045ffd5b5f80916153c260046157ce565b602082519201905af4906153d4614879565b91156153dc57565b508051908161540a5760405163dccff66960e01b815260206004820152908190611d39906024830190610bc3565b602001fd5b5f80916153c260056157ce565b5f80916153c260026157ce565b5f916153c283926157ce565b9190820180921161517557565b906001600160a01b03821680158015615568575b614bf6575f527fbe5c2328713858b26c97b83c5ace333ac35b55572be4794180ba426b12cc48be60205260405f208054928284018094116151755760089361549e9255611341565b610e1042045f5260205260405f2090600982016154bf611f45825460ff1690565b615559575b506154d05f8354615435565b82556154e160018301918254615435565b9055600281016154f25f8254615435565b9055600381016155035f8254615435565b9055600481016155145f8254615435565b9055600581016155255f8254615435565b9055600681016155365f8254615435565b9055600781016155475f8254615435565b9055016155555f8254615435565b9055565b615562906152d9565b5f6154c4565b508115615456565b6006546001600160a01b0316806155c057506005546001600160a01b03165b6003546001600160a01b031633141590816155ac575b5061093a57565b6001600160a01b031633141590505f6155a5565b61558f565b6005546001600160a01b0316801581811561562a575b50614ba9575f60049160405192838092634f9e8d1560e11b82525afa908115610b6d575f91615610575b50805115614ba95790565b61562491503d805f833e6111b281836118f8565b5f615605565b90503b155f6155db565b909173__$91c961bf2335aa1fea43924da854687380$__803b1561001557615676935f936040519586948593849363f3523b7360e01b855230600486016148a8565b03915af48015610b6d576156875750565b5f61192b916118f8565b906001600160a01b03821680158015615758575b614bf6575f527fbe5c2328713858b26c97b83c5ace333ac35b55572be4794180ba426b12cc48bf60205260405f208054928284018094116151755760089361570392556156f6610e10420491611341565b905f5260205260405f2090565b9060098201615716611f45825460ff1690565b615749575b506157275f8354615435565b8255600182016157385f8254615435565b90556154f260028301918254615435565b615752906152d9565b5f61571b565b5081156156a5565b600554604051636664034560e11b81526001600160a01b0390911660048201526003602482015260208160448173__$071cf681b03e9c24fcf6005bc28358a856$__5af4908115610b6d575f916157b5575090565b610bf8915060203d6020116110705761106281836118f8565b600554604051636664034560e11b81526001600160a01b03909116600482015260ff91909116602482015260208160448173__$071cf681b03e9c24fcf6005bc28358a856$__5af4908115610b6d575f916157b5575090565b9160135482810391818311615175576014549080820394828611615175576001600160a01b03871615938415615869575b50505050614bf65761192b92615f27565b149250908261587e575b50505f808080615858565b1490505f80615873565b6005546040516306e0faf160e21b815291602091839182916158b791906001600160a01b031660048401614bfb565b038173__$a9219284c3f0d74f57f4dcfc58f5429559$__5af4908115610b6d575f916157b5575090565b906001600160a01b0382161561261f5761192b916126075f9283616020565b8115614fad5761590f90615b97565b61594357601754156159435761592b615926616045565b610a19565b50541161593457565b63559d06d760e01b5f5260045ffd5b50565b6003546001600160a01b031633141580615961575b61093a57565b5060ff61596d33611309565b54161561595b565b6001600160a01b03811615611d45576004602061599e6159996159996005546108bd565b6108bd565b604051630e83251360e01b815292839182905afa918215610b6d576159e3926020925f91615a25575b5060405180809581946303330c7960e41b8352600483016112ce565b03916001600160a01b03165afa908115610b6d575f91615a06575b5015614b5d57565b615a1f915060203d602011614b9457614b8681836118f8565b5f6159fe565b615a3c9150833d85116110705761106281836118f8565b5f6159c7565b6003546001600160a01b03163303615a5657565b63118cdaa760e01b5f523360045260245ffd5b906001600160a01b038216158015615a89575b614fad5761192b916160c3565b508015615a7c565b906001600160a01b03821680158015615b8f575b614bf6575f527fbe5c2328713858b26c97b83c5ace333ac35b55572be4794180ba426b12cc48c360205260405f2080549282840180941161517557600893615af692556156f6610e10420491611341565b9060098201615b09611f45825460ff1690565b615b80575b50615b1a5f8354615435565b825560018201615b2b5f8254615435565b905560028201615b3c5f8254615435565b905560038201615b4d5f8254615435565b905560048201615b5e5f8254615435565b905560058201615b6f5f8254615435565b905561553660068301918254615435565b615b89906152d9565b5f615b0e565b508115615aa5565b6001600160a01b0381165f908152600f60205260409020548015159182615be7575b5081615bc3575090565b90505f52600b60205260405f20548015159081615bdf57501590565b905042111590565b81615bfd9293505f525f60205260405f20611379565b541515905f615bb9565b6001600160a01b0391821681529181166020830152909116604082015260c0606082018190529092615c50929091615c4291908501906120ed565b9083820360808501526120ed565b81810360a09092019190915281516001600160a01b039081168252602080840151909116908201526040828101516001600160a01b031690820152606082015160608201526080820151608082015260e080615cd2615cc060a086015161010060a0870152610100860190610e37565b60c086015185820360c08701526120ed565b93015191015290565b9190915f60e0604051615ced816118c1565b828152826020820152826040820152826060820152826080820152606060a0820152606060c08201520152825f82615d266005546108bd565b615d468887604051998a958695637bd8ece960e11b87526004870161627e565b038173__$a9219284c3f0d74f57f4dcfc58f5429559$__5af4938415610b6d575f94615de2575b50615d838584615d7d87516108bd565b856162e9565b73__$22d83b6ff1da5ba98b89a83b211093667b$__91823b1561001557615dc35f95604051978896879586956304c70af760e31b87523060048801615c07565b03915af48015610b6d57615dd45750565b80611e4a5f61192b936118f8565b615dff9194503d805f833e615df781836118f8565b8101906161b8565b925f615d6d565b610bf891615e13916164a2565b909291926164e6565b9193929093615e2d82828786615cdb565b6001600160a01b03851680615e45575b505050505050565b8151600103615e6e575093602080615e639601519201519233616603565b5f8080808080615e3d565b90853b615e81575b505050505050615e63565b5f602094615ea66040519788968795869463bc197c8160e01b86523360048701616577565b03925af15f9181615f06575b50615ee35750615ec0614879565b8051919082615edc57632bfa23e760e11b5f52613824826112bd565b6020915001fd5b6001600160e01b0319166343e6837f60e01b0161384857505f8080808080615e76565b615f2091925060203d6020116138835761387481836118f8565b905f615eb2565b6001600160a01b03811615801561600f575b614bf65761555591615f4c600892611341565b610e1042045f5260205260405f209060098201615f6d611f45825460ff1690565b616000575b50615f7e5f8354615435565b825560018201615f8f5f8254615435565b905560028201615fa05f8254615435565b905560038201615fb15f8254615435565b905560048201615fc25f8254615435565b905560058201615fd35f8254615435565b905560068201615fe45f8254615435565b9055615ff560078301918254615435565b905501918254615435565b616009906152d9565b5f615f72565b5081158015615f3957508215615f39565b9160405192600184526020840152604083019160018352606084015260808301604052565b60175480156160bd575f9060175415610a355760175f527fc624b66cc0138b8fabc209247f72d758e1cf3343756d543badbf24212bed8c155460015b82811061608e5750505090565b8161609882610a19565b5054106160a8575b600101616081565b8093506160b59150610a19565b5054826160a0565b505f1990565b906001600160a01b038216801580156161b0575b614bf6575f527fbe5c2328713858b26c97b83c5ace333ac35b55572be4794180ba426b12cc48c260205260405f208054928284018094116151755760089361612892556156f6610e10420491611341565b906009820161613b611f45825460ff1690565b6161a1575b5061614c5f8354615435565b82556001820161615d5f8254615435565b90556002820161616e5f8254615435565b90556003820161617f5f8254615435565b9055600482016161905f8254615435565b905561552560058301918254615435565b6161aa906152d9565b5f616140565b5081156160d7565b602081830312610015578051906001600160401b03821161001557019061010082820312610015576161e861191b565b916161f2816147a7565b8352616200602082016147a7565b6020840152616211604082016147a7565b6040840152606081810151908401526080808201519084015260a08101516001600160401b03811161001557826162499183016147b2565b60a084015260c08101516001600160401b0381116100155760e09261626f918301614e19565b60c0840152015160e082015290565b6001600160a01b0391821681529181166020830152909116604082015260a060608201819052610bf89391926162b6918401906120ed565b9160808184039101526120ed565b90916162db610bf8936040845260408401906120ed565b9160208184039101526120ed565b939291805183519081810361648d5750505f5b81518110156163e8578060051b90602080838501015192860101518460018060a01b03891661636b575b6001936001600160a01b038216616341575b505050016162fc565b61636191611c93616359925f525f60205260405f2090565b918254615435565b90555f8481616338565b50909161638388611c93835f525f60205260405f2090565b548281106163b1578291600194938792036163a98b611c93845f525f60205260405f2090565b559350616326565b6040516303dee4c560e01b81526001600160a01b038a16600482015260248101919091526044810183905260648101829052608490fd5b50805193949391929160010361644a576020908101519101516040516001600160a01b03938416949093169233927fc3d58168c5ae7397731d063d5bbf3d657854427343f4c083240f7aacaa2d0f629282916164459190836130dd565b0390a4565b6040516001600160a01b03938416949093169233927f4a39dc06d4c0dbc64b70af90fd698a233a518aa5d07e595d983b8c0526c8f7fb92829161644591836162c4565b635b05999160e01b5f5260045260245260445ffd5b81519190604183036164d2576164cb9250602082015190606060408401519301515f1a906166a1565b9192909190565b50505f9160029190565b600411156136dc57565b6164ef816164dc565b806164f8575050565b616501816164dc565b600181036165185763f645eedf60e01b5f5260045ffd5b616521816164dc565b6002810361653c575063fce698f760e01b5f5260045260245ffd5b806165486003926164dc565b146165505750565b6335e2f38360e21b5f5260045260245ffd5b908160209103126100155751610bf881610985565b6001600160a01b0391821681529116602082015260a060408201819052610bf894919391926165bc92916165ae91908601906120ed565b9084820360608601526120ed565b916080818403910152610bc3565b6001600160a01b039182168152911660208201526040810191909152606081019190915260a060808201819052610bf892910190610bc3565b9091949293853b61661657505050505050565b60209361663891604051968795869563f23a6e6160e01b8752600487016165ca565b03815f6001600160a01b0387165af15f9181616680575b5061665d5750615ec0614879565b6001600160e01b031916630dc5919f60e01b0161384857505f8080808080615e3d565b61669a91925060203d6020116138835761387481836118f8565b905f61664f565b91906fa2a8918ca85bafe22016d0b997e4df60600160ff1b03841161670e579160209360809260ff5f9560405194855216868401526040830152606082015282805260015afa15610b6d575f516001600160a01b0381161561670457905f905f90565b505f906001905f90565b5050505f916003919056fef1b2bf0f075c4489d90ad473efa5fb2849d46fa0376db8fab751a98e03b3ce1b22c0a15d444e21db16bbb52e03d65846fb96a18771ae18cefb26e2b75b089ee28be0079c531659141344cd1fd0a4f28419497f9722a3daafe3b4186f6b6457e0ad3228b676f7d3cd4284a5443f17f1962b36e491b30a40b2405849e597ba5fb5a164736f6c6343000823000abc488d3e2575f0f2113dc4d9a0cd6bc52445c6bc28a8974ed97a6ba3ecfd657c",
  "linkReferences": {
    "project/src/BeamioUserCard/BeamioUserCardAdminGatewayLib.sol": {
      "BeamioUserCardAdminGatewayLib": [
        {
          "length": 20,
          "start": 4991
        },
        {
          "length": 20,
          "start": 7462
        },
        {
          "length": 20,
          "start": 12936
        }
      ]
    },
    "project/src/BeamioUserCard/BeamioUserCardFaucetGatewayLib.sol": {
      "BeamioUserCardFaucetGatewayLib": [
        {
          "length": 20,
          "start": 4272
        },
        {
          "length": 20,
          "start": 10936
        }
      ]
    },
    "project/src/BeamioUserCard/BeamioUserCardFormattingLib.sol": {
      "BeamioUserCardFormattingLib": [
        {
          "length": 20,
          "start": 5911
        }
      ]
    },
    "project/src/BeamioUserCard/BeamioUserCardGatewayMintLib.sol": {
      "BeamioUserCardGatewayMintLib": [
        {
          "length": 20,
          "start": 9467
        },
        {
          "length": 20,
          "start": 10639
        },
        {
          "length": 20,
          "start": 23524
        }
      ]
    },
    "project/src/BeamioUserCard/BeamioUserCardGovernanceLib.sol": {
      "BeamioUserCardGovernanceLib": [
        {
          "length": 20,
          "start": 6995
        },
        {
          "length": 20,
          "start": 12477
        },
        {
          "length": 20,
          "start": 13889
        }
      ]
    },
    "project/src/BeamioUserCard/BeamioUserCardIssuedNftGatewayLib.sol": {
      "BeamioUserCardIssuedNftGatewayLib": [
        {
          "length": 20,
          "start": 9073
        },
        {
          "length": 20,
          "start": 9297
        },
        {
          "length": 20,
          "start": 11497
        },
        {
          "length": 20,
          "start": 15291
        },
        {
          "length": 20,
          "start": 17667
        },
        {
          "length": 20,
          "start": 18452
        }
      ]
    },
    "project/src/BeamioUserCard/BeamioUserCardModuleRouterLib.sol": {
      "BeamioUserCardModuleRouterLib": [
        {
          "length": 20,
          "start": 22755
        },
        {
          "length": 20,
          "start": 23867
        },
        {
          "length": 20,
          "start": 23981
        }
      ]
    },
    "project/src/BeamioUserCard/BeamioUserCardRedeemGatewayLib.sol": {
      "BeamioUserCardRedeemGatewayLib": [
        {
          "length": 20,
          "start": 11840
        },
        {
          "length": 20,
          "start": 21636
        },
        {
          "length": 20,
          "start": 21921
        }
      ]
    },
    "project/src/BeamioUserCard/BeamioUserCardReferrerLib.sol": {
      "BeamioUserCardReferrerLib": [
        {
          "length": 20,
          "start": 5240
        },
        {
          "length": 20,
          "start": 7303
        },
        {
          "length": 20,
          "start": 9619
        },
        {
          "length": 20,
          "start": 10347
        },
        {
          "length": 20,
          "start": 11337
        },
        {
          "length": 20,
          "start": 12697
        },
        {
          "length": 20,
          "start": 13690
        },
        {
          "length": 20,
          "start": 15984
        },
        {
          "length": 20,
          "start": 17091
        },
        {
          "length": 20,
          "start": 17778
        },
        {
          "length": 20,
          "start": 19489
        }
      ]
    },
    "project/src/BeamioUserCard/BeamioUserCardTransferLib.sol": {
      "BeamioUserCardTransferLib": [
        {
          "length": 20,
          "start": 5560
        },
        {
          "length": 20,
          "start": 24167
        },
        {
          "length": 20,
          "start": 25334
        }
      ]
    },
    "project/src/BeamioUserCard/BeamioUserCardUpdateLib.sol": {
      "BeamioUserCardUpdateLib": [
        {
          "length": 20,
          "start": 25393
        }
      ]
    },
    "project/src/BeamioUserCard/BeamioUserCardViewsLib.sol": {
      "BeamioUserCardViewsLib": [
        {
          "length": 20,
          "start": 20152
        }
      ]
    }
  },
  "deployedLinkReferences": {
    "project/src/BeamioUserCard/BeamioUserCardAdminGatewayLib.sol": {
      "BeamioUserCardAdminGatewayLib": [
        {
          "length": 20,
          "start": 3539
        },
        {
          "length": 20,
          "start": 6010
        },
        {
          "length": 20,
          "start": 11484
        }
      ]
    },
    "project/src/BeamioUserCard/BeamioUserCardFaucetGatewayLib.sol": {
      "BeamioUserCardFaucetGatewayLib": [
        {
          "length": 20,
          "start": 2820
        },
        {
          "length": 20,
          "start": 9484
        }
      ]
    },
    "project/src/BeamioUserCard/BeamioUserCardFormattingLib.sol": {
      "BeamioUserCardFormattingLib": [
        {
          "length": 20,
          "start": 4459
        }
      ]
    },
    "project/src/BeamioUserCard/BeamioUserCardGatewayMintLib.sol": {
      "BeamioUserCardGatewayMintLib": [
        {
          "length": 20,
          "start": 8015
        },
        {
          "length": 20,
          "start": 9187
        },
        {
          "length": 20,
          "start": 22072
        }
      ]
    },
    "project/src/BeamioUserCard/BeamioUserCardGovernanceLib.sol": {
      "BeamioUserCardGovernanceLib": [
        {
          "length": 20,
          "start": 5543
        },
        {
          "length": 20,
          "start": 11025
        },
        {
          "length": 20,
          "start": 12437
        }
      ]
    },
    "project/src/BeamioUserCard/BeamioUserCardIssuedNftGatewayLib.sol": {
      "BeamioUserCardIssuedNftGatewayLib": [
        {
          "length": 20,
          "start": 7621
        },
        {
          "length": 20,
          "start": 7845
        },
        {
          "length": 20,
          "start": 10045
        },
        {
          "length": 20,
          "start": 13839
        },
        {
          "length": 20,
          "start": 16215
        },
        {
          "length": 20,
          "start": 17000
        }
      ]
    },
    "project/src/BeamioUserCard/BeamioUserCardModuleRouterLib.sol": {
      "BeamioUserCardModuleRouterLib": [
        {
          "length": 20,
          "start": 21303
        },
        {
          "length": 20,
          "start": 22415
        },
        {
          "length": 20,
          "start": 22529
        }
      ]
    },
    "project/src/BeamioUserCard/BeamioUserCardRedeemGatewayLib.sol": {
      "BeamioUserCardRedeemGatewayLib": [
        {
          "length": 20,
          "start": 10388
        },
        {
          "length": 20,
          "start": 20184
        },
        {
          "length": 20,
          "start": 20469
        }
      ]
    },
    "project/src/BeamioUserCard/BeamioUserCardReferrerLib.sol": {
      "BeamioUserCardReferrerLib": [
        {
          "length": 20,
          "start": 3788
        },
        {
          "length": 20,
          "start": 5851
        },
        {
          "length": 20,
          "start": 8167
        },
        {
          "length": 20,
          "start": 8895
        },
        {
          "length": 20,
          "start": 9885
        },
        {
          "length": 20,
          "start": 11245
        },
        {
          "length": 20,
          "start": 12238
        },
        {
          "length": 20,
          "start": 14532
        },
        {
          "length": 20,
          "start": 15639
        },
        {
          "length": 20,
          "start": 16326
        },
        {
          "length": 20,
          "start": 18037
        }
      ]
    },
    "project/src/BeamioUserCard/BeamioUserCardTransferLib.sol": {
      "BeamioUserCardTransferLib": [
        {
          "length": 20,
          "start": 4108
        },
        {
          "length": 20,
          "start": 22715
        },
        {
          "length": 20,
          "start": 23882
        }
      ]
    },
    "project/src/BeamioUserCard/BeamioUserCardUpdateLib.sol": {
      "BeamioUserCardUpdateLib": [
        {
          "length": 20,
          "start": 23941
        }
      ]
    },
    "project/src/BeamioUserCard/BeamioUserCardViewsLib.sol": {
      "BeamioUserCardViewsLib": [
        {
          "length": 20,
          "start": 18700
        }
      ]
    }
  },
  "immutableReferences": {
    "2648": [
      {
        "length": 32,
        "start": 15144
      }
    ]
  },
  "inputSourceName": "project/src/BeamioUserCard/BeamioUserCard.sol",
  "buildInfoId": "solc-0_8_35-1a95465dea97f806ab0f16a70fd05d626e726fea"
}