{
  "_format": "hh3-artifact-1",
  "contractName": "BeamioUserCard",
  "sourceName": "src/BeamioUserCard/BeamioUserCard.sol",
  "abi": [
    {
      "inputs": [
        {
          "internalType": "string",
          "name": "uri_",
          "type": "string"
        },
        {
          "internalType": "enum BeamioCurrency.CurrencyType",
          "name": "currency_",
          "type": "uint8"
        },
        {
          "internalType": "uint256",
          "name": "pointsUnitPriceInCurrencyE6_",
          "type": "uint256"
        },
        {
          "internalType": "address",
          "name": "initialOwner",
          "type": "address"
        },
        {
          "internalType": "address",
          "name": "gateway_",
          "type": "address"
        }
      ],
      "stateMutability": "nonpayable",
      "type": "constructor"
    },
    {
      "inputs": [],
      "name": "BM_NotAuthorized",
      "type": "error"
    },
    {
      "inputs": [],
      "name": "BM_ZeroAddress",
      "type": "error"
    },
    {
      "inputs": [
        {
          "internalType": "address",
          "name": "sender",
          "type": "address"
        },
        {
          "internalType": "uint256",
          "name": "balance",
          "type": "uint256"
        },
        {
          "internalType": "uint256",
          "name": "needed",
          "type": "uint256"
        },
        {
          "internalType": "uint256",
          "name": "tokenId",
          "type": "uint256"
        }
      ],
      "name": "ERC1155InsufficientBalance",
      "type": "error"
    },
    {
      "inputs": [
        {
          "internalType": "address",
          "name": "approver",
          "type": "address"
        }
      ],
      "name": "ERC1155InvalidApprover",
      "type": "error"
    },
    {
      "inputs": [
        {
          "internalType": "uint256",
          "name": "idsLength",
          "type": "uint256"
        },
        {
          "internalType": "uint256",
          "name": "valuesLength",
          "type": "uint256"
        }
      ],
      "name": "ERC1155InvalidArrayLength",
      "type": "error"
    },
    {
      "inputs": [
        {
          "internalType": "address",
          "name": "operator",
          "type": "address"
        }
      ],
      "name": "ERC1155InvalidOperator",
      "type": "error"
    },
    {
      "inputs": [
        {
          "internalType": "address",
          "name": "receiver",
          "type": "address"
        }
      ],
      "name": "ERC1155InvalidReceiver",
      "type": "error"
    },
    {
      "inputs": [
        {
          "internalType": "address",
          "name": "sender",
          "type": "address"
        }
      ],
      "name": "ERC1155InvalidSender",
      "type": "error"
    },
    {
      "inputs": [
        {
          "internalType": "address",
          "name": "operator",
          "type": "address"
        },
        {
          "internalType": "address",
          "name": "owner",
          "type": "address"
        }
      ],
      "name": "ERC1155MissingApprovalForAll",
      "type": "error"
    },
    {
      "inputs": [
        {
          "internalType": "address",
          "name": "owner",
          "type": "address"
        }
      ],
      "name": "OwnableInvalidOwner",
      "type": "error"
    },
    {
      "inputs": [
        {
          "internalType": "address",
          "name": "account",
          "type": "address"
        }
      ],
      "name": "OwnableUnauthorizedAccount",
      "type": "error"
    },
    {
      "inputs": [],
      "name": "ReentrancyGuardReentrantCall",
      "type": "error"
    },
    {
      "inputs": [],
      "name": "UC_AlreadyHasValidCard",
      "type": "error"
    },
    {
      "inputs": [],
      "name": "UC_AmountZero",
      "type": "error"
    },
    {
      "inputs": [],
      "name": "UC_BelowMinThreshold",
      "type": "error"
    },
    {
      "inputs": [],
      "name": "UC_FaucetAmountTooLarge",
      "type": "error"
    },
    {
      "inputs": [],
      "name": "UC_FaucetConfigFrozen",
      "type": "error"
    },
    {
      "inputs": [],
      "name": "UC_FaucetConfigInvalid",
      "type": "error"
    },
    {
      "inputs": [],
      "name": "UC_FaucetDisabledBecausePriced",
      "type": "error"
    },
    {
      "inputs": [],
      "name": "UC_FaucetExpired",
      "type": "error"
    },
    {
      "inputs": [],
      "name": "UC_FaucetGlobalMaxExceeded",
      "type": "error"
    },
    {
      "inputs": [],
      "name": "UC_FaucetIdNotIssued",
      "type": "error"
    },
    {
      "inputs": [],
      "name": "UC_FaucetMaxExceeded",
      "type": "error"
    },
    {
      "inputs": [],
      "name": "UC_FaucetNotEnabled",
      "type": "error"
    },
    {
      "inputs": [],
      "name": "UC_GlobalMisconfigured",
      "type": "error"
    },
    {
      "inputs": [
        {
          "internalType": "address",
          "name": "fromAccount",
          "type": "address"
        },
        {
          "internalType": "uint256",
          "name": "id",
          "type": "uint256"
        },
        {
          "internalType": "uint256",
          "name": "have",
          "type": "uint256"
        },
        {
          "internalType": "uint256",
          "name": "need",
          "type": "uint256"
        }
      ],
      "name": "UC_InsufficientBalance",
      "type": "error"
    },
    {
      "inputs": [
        {
          "internalType": "uint64",
          "name": "validAfter",
          "type": "uint64"
        },
        {
          "internalType": "uint64",
          "name": "validBefore",
          "type": "uint64"
        }
      ],
      "name": "UC_InvalidDateRange",
      "type": "error"
    },
    {
      "inputs": [],
      "name": "UC_InvalidProposal",
      "type": "error"
    },
    {
      "inputs": [
        {
          "internalType": "uint256",
          "name": "got",
          "type": "uint256"
        },
        {
          "internalType": "uint256",
          "name": "expected",
          "type": "uint256"
        }
      ],
      "name": "UC_InvalidTokenId",
      "type": "error"
    },
    {
      "inputs": [],
      "name": "UC_MustGrow",
      "type": "error"
    },
    {
      "inputs": [],
      "name": "UC_NoBeamioAccount",
      "type": "error"
    },
    {
      "inputs": [],
      "name": "UC_NotAdmin",
      "type": "error"
    },
    {
      "inputs": [],
      "name": "UC_PointsToNotWhitelisted",
      "type": "error"
    },
    {
      "inputs": [],
      "name": "UC_PriceZero",
      "type": "error"
    },
    {
      "inputs": [],
      "name": "UC_PurchaseDisabledBecauseFree",
      "type": "error"
    },
    {
      "inputs": [
        {
          "internalType": "bytes",
          "name": "data",
          "type": "bytes"
        }
      ],
      "name": "UC_RedeemDelegateFailed",
      "type": "error"
    },
    {
      "inputs": [],
      "name": "UC_RedeemModuleZero",
      "type": "error"
    },
    {
      "inputs": [
        {
          "internalType": "address",
          "name": "eoa",
          "type": "address"
        },
        {
          "internalType": "address",
          "name": "aaFactory",
          "type": "address"
        },
        {
          "internalType": "address",
          "name": "acct",
          "type": "address"
        }
      ],
      "name": "UC_ResolveAccountFailed",
      "type": "error"
    },
    {
      "inputs": [],
      "name": "UC_SBTNonTransferable",
      "type": "error"
    },
    {
      "inputs": [],
      "name": "UC_TierLenMismatch",
      "type": "error"
    },
    {
      "inputs": [],
      "name": "UC_TierMinZero",
      "type": "error"
    },
    {
      "inputs": [],
      "name": "UC_UnauthorizedGateway",
      "type": "error"
    },
    {
      "anonymous": false,
      "inputs": [
        {
          "indexed": true,
          "internalType": "address",
          "name": "beneficiaryAccount",
          "type": "address"
        },
        {
          "indexed": true,
          "internalType": "uint256",
          "name": "tokenId",
          "type": "uint256"
        },
        {
          "indexed": false,
          "internalType": "uint256",
          "name": "attr",
          "type": "uint256"
        },
        {
          "indexed": false,
          "internalType": "uint256",
          "name": "expiry",
          "type": "uint256"
        }
      ],
      "name": "AdminCardMinted",
      "type": "event"
    },
    {
      "anonymous": false,
      "inputs": [
        {
          "indexed": true,
          "internalType": "address",
          "name": "beneficiaryAccount",
          "type": "address"
        },
        {
          "indexed": false,
          "internalType": "uint256",
          "name": "points6",
          "type": "uint256"
        }
      ],
      "name": "AdminPointsMinted",
      "type": "event"
    },
    {
      "anonymous": false,
      "inputs": [
        {
          "indexed": true,
          "internalType": "address",
          "name": "account",
          "type": "address"
        },
        {
          "indexed": true,
          "internalType": "address",
          "name": "operator",
          "type": "address"
        },
        {
          "indexed": false,
          "internalType": "bool",
          "name": "approved",
          "type": "bool"
        }
      ],
      "name": "ApprovalForAll",
      "type": "event"
    },
    {
      "anonymous": false,
      "inputs": [
        {
          "indexed": false,
          "internalType": "uint256",
          "name": "attr",
          "type": "uint256"
        }
      ],
      "name": "DefaultAttrUpdated",
      "type": "event"
    },
    {
      "anonymous": false,
      "inputs": [
        {
          "indexed": false,
          "internalType": "uint256",
          "name": "oldSecs",
          "type": "uint256"
        },
        {
          "indexed": false,
          "internalType": "uint256",
          "name": "newSecs",
          "type": "uint256"
        }
      ],
      "name": "ExpirySecondsUpdated",
      "type": "event"
    },
    {
      "anonymous": false,
      "inputs": [
        {
          "indexed": true,
          "internalType": "uint256",
          "name": "id",
          "type": "uint256"
        },
        {
          "indexed": true,
          "internalType": "address",
          "name": "userEOA",
          "type": "address"
        },
        {
          "indexed": true,
          "internalType": "address",
          "name": "acct",
          "type": "address"
        },
        {
          "indexed": false,
          "internalType": "uint256",
          "name": "amount",
          "type": "uint256"
        },
        {
          "indexed": false,
          "internalType": "uint256",
          "name": "claimedAfter",
          "type": "uint256"
        }
      ],
      "name": "FaucetClaimed",
      "type": "event"
    },
    {
      "anonymous": false,
      "inputs": [
        {
          "indexed": true,
          "internalType": "uint256",
          "name": "id",
          "type": "uint256"
        },
        {
          "components": [
            {
              "internalType": "uint64",
              "name": "validUntil",
              "type": "uint64"
            },
            {
              "internalType": "uint64",
              "name": "perClaimMax",
              "type": "uint64"
            },
            {
              "internalType": "uint128",
              "name": "maxPerUser",
              "type": "uint128"
            },
            {
              "internalType": "uint128",
              "name": "maxGlobal",
              "type": "uint128"
            },
            {
              "internalType": "bool",
              "name": "enabled",
              "type": "bool"
            },
            {
              "internalType": "uint8",
              "name": "currency",
              "type": "uint8"
            },
            {
              "internalType": "uint8",
              "name": "decimals",
              "type": "uint8"
            },
            {
              "internalType": "uint128",
              "name": "priceInCurrency6",
              "type": "uint128"
            }
          ],
          "indexed": false,
          "internalType": "struct BeamioUserCard.FaucetConfig",
          "name": "cfg",
          "type": "tuple"
        }
      ],
      "name": "FaucetConfigUpdated",
      "type": "event"
    },
    {
      "anonymous": false,
      "inputs": [
        {
          "indexed": true,
          "internalType": "uint256",
          "name": "tokenId",
          "type": "uint256"
        },
        {
          "indexed": false,
          "internalType": "bytes32",
          "name": "title",
          "type": "bytes32"
        },
        {
          "indexed": false,
          "internalType": "uint64",
          "name": "validAfter",
          "type": "uint64"
        },
        {
          "indexed": false,
          "internalType": "uint64",
          "name": "validBefore",
          "type": "uint64"
        },
        {
          "indexed": false,
          "internalType": "uint256",
          "name": "maxSupply",
          "type": "uint256"
        },
        {
          "indexed": false,
          "internalType": "uint256",
          "name": "priceInCurrency6",
          "type": "uint256"
        },
        {
          "indexed": false,
          "internalType": "bytes32",
          "name": "sharedMetadataHash",
          "type": "bytes32"
        }
      ],
      "name": "IssuedNftCreated",
      "type": "event"
    },
    {
      "anonymous": false,
      "inputs": [
        {
          "indexed": true,
          "internalType": "uint256",
          "name": "tokenId",
          "type": "uint256"
        },
        {
          "indexed": true,
          "internalType": "address",
          "name": "recipient",
          "type": "address"
        },
        {
          "indexed": false,
          "internalType": "uint256",
          "name": "amount",
          "type": "uint256"
        }
      ],
      "name": "IssuedNftMinted",
      "type": "event"
    },
    {
      "anonymous": false,
      "inputs": [
        {
          "indexed": true,
          "internalType": "address",
          "name": "user",
          "type": "address"
        },
        {
          "indexed": true,
          "internalType": "uint256",
          "name": "tokenId",
          "type": "uint256"
        },
        {
          "indexed": false,
          "internalType": "uint256",
          "name": "tierIndexOrMax",
          "type": "uint256"
        },
        {
          "indexed": false,
          "internalType": "uint256",
          "name": "minUsdc6",
          "type": "uint256"
        },
        {
          "indexed": false,
          "internalType": "uint256",
          "name": "expiry",
          "type": "uint256"
        }
      ],
      "name": "MemberNFTIssued",
      "type": "event"
    },
    {
      "anonymous": false,
      "inputs": [
        {
          "indexed": true,
          "internalType": "address",
          "name": "user",
          "type": "address"
        },
        {
          "indexed": true,
          "internalType": "uint256",
          "name": "oldActiveTokenId",
          "type": "uint256"
        },
        {
          "indexed": true,
          "internalType": "uint256",
          "name": "newTokenId",
          "type": "uint256"
        },
        {
          "indexed": false,
          "internalType": "uint256",
          "name": "oldTierIndexOrMax",
          "type": "uint256"
        },
        {
          "indexed": false,
          "internalType": "uint256",
          "name": "newTierIndex",
          "type": "uint256"
        },
        {
          "indexed": false,
          "internalType": "uint256",
          "name": "newExpiry",
          "type": "uint256"
        }
      ],
      "name": "MemberNFTUpgraded",
      "type": "event"
    },
    {
      "anonymous": false,
      "inputs": [
        {
          "indexed": true,
          "internalType": "address",
          "name": "previousOwner",
          "type": "address"
        },
        {
          "indexed": true,
          "internalType": "address",
          "name": "newOwner",
          "type": "address"
        }
      ],
      "name": "OwnershipTransferred",
      "type": "event"
    },
    {
      "anonymous": false,
      "inputs": [
        {
          "indexed": true,
          "internalType": "address",
          "name": "userEOA",
          "type": "address"
        },
        {
          "indexed": true,
          "internalType": "address",
          "name": "acct",
          "type": "address"
        },
        {
          "indexed": false,
          "internalType": "uint256",
          "name": "points6",
          "type": "uint256"
        }
      ],
      "name": "PointsMintedByGateway",
      "type": "event"
    },
    {
      "anonymous": false,
      "inputs": [
        {
          "indexed": true,
          "internalType": "address",
          "name": "payerEOA",
          "type": "address"
        },
        {
          "indexed": true,
          "internalType": "address",
          "name": "beneficiaryAccount",
          "type": "address"
        },
        {
          "indexed": true,
          "internalType": "address",
          "name": "usdc",
          "type": "address"
        },
        {
          "indexed": false,
          "internalType": "uint256",
          "name": "usdcIn6",
          "type": "uint256"
        },
        {
          "indexed": false,
          "internalType": "uint256",
          "name": "pointsMinted6",
          "type": "uint256"
        },
        {
          "indexed": false,
          "internalType": "uint256",
          "name": "unitPointPriceUsdc6",
          "type": "uint256"
        },
        {
          "indexed": false,
          "internalType": "bytes32",
          "name": "nonce",
          "type": "bytes32"
        }
      ],
      "name": "PointsPurchasedWithUSDC",
      "type": "event"
    },
    {
      "anonymous": false,
      "inputs": [
        {
          "indexed": false,
          "internalType": "uint256",
          "name": "priceInCurrencyE6",
          "type": "uint256"
        }
      ],
      "name": "PointsUnitPriceUpdated",
      "type": "event"
    },
    {
      "anonymous": false,
      "inputs": [
        {
          "indexed": true,
          "internalType": "uint256",
          "name": "id",
          "type": "uint256"
        },
        {
          "indexed": true,
          "internalType": "address",
          "name": "admin",
          "type": "address"
        }
      ],
      "name": "ProposalApproved",
      "type": "event"
    },
    {
      "anonymous": false,
      "inputs": [
        {
          "indexed": true,
          "internalType": "uint256",
          "name": "id",
          "type": "uint256"
        },
        {
          "indexed": true,
          "internalType": "bytes4",
          "name": "selector",
          "type": "bytes4"
        },
        {
          "indexed": true,
          "internalType": "address",
          "name": "proposer",
          "type": "address"
        }
      ],
      "name": "ProposalCreated",
      "type": "event"
    },
    {
      "anonymous": false,
      "inputs": [
        {
          "indexed": true,
          "internalType": "uint256",
          "name": "id",
          "type": "uint256"
        }
      ],
      "name": "ProposalExecuted",
      "type": "event"
    },
    {
      "anonymous": false,
      "inputs": [
        {
          "indexed": true,
          "internalType": "bytes32",
          "name": "hash",
          "type": "bytes32"
        }
      ],
      "name": "RedeemCancelled",
      "type": "event"
    },
    {
      "anonymous": false,
      "inputs": [
        {
          "indexed": true,
          "internalType": "bytes32",
          "name": "hash",
          "type": "bytes32"
        },
        {
          "indexed": false,
          "internalType": "uint256",
          "name": "points6",
          "type": "uint256"
        },
        {
          "indexed": false,
          "internalType": "uint256",
          "name": "attr",
          "type": "uint256"
        }
      ],
      "name": "RedeemCreated",
      "type": "event"
    },
    {
      "anonymous": false,
      "inputs": [
        {
          "indexed": false,
          "internalType": "uint256",
          "name": "index",
          "type": "uint256"
        },
        {
          "indexed": false,
          "internalType": "uint256",
          "name": "minUsdc6",
          "type": "uint256"
        },
        {
          "indexed": false,
          "internalType": "uint256",
          "name": "attr",
          "type": "uint256"
        },
        {
          "indexed": false,
          "internalType": "uint256",
          "name": "tierExpirySeconds",
          "type": "uint256"
        },
        {
          "indexed": false,
          "internalType": "bool",
          "name": "upgradeByBalance",
          "type": "bool"
        }
      ],
      "name": "TierAppended",
      "type": "event"
    },
    {
      "anonymous": false,
      "inputs": [
        {
          "indexed": false,
          "internalType": "uint256",
          "name": "count",
          "type": "uint256"
        }
      ],
      "name": "TiersUpdated",
      "type": "event"
    },
    {
      "anonymous": false,
      "inputs": [
        {
          "indexed": true,
          "internalType": "address",
          "name": "operator",
          "type": "address"
        },
        {
          "indexed": true,
          "internalType": "address",
          "name": "from",
          "type": "address"
        },
        {
          "indexed": true,
          "internalType": "address",
          "name": "to",
          "type": "address"
        },
        {
          "indexed": false,
          "internalType": "uint256[]",
          "name": "ids",
          "type": "uint256[]"
        },
        {
          "indexed": false,
          "internalType": "uint256[]",
          "name": "values",
          "type": "uint256[]"
        }
      ],
      "name": "TransferBatch",
      "type": "event"
    },
    {
      "anonymous": false,
      "inputs": [
        {
          "indexed": true,
          "internalType": "address",
          "name": "operator",
          "type": "address"
        },
        {
          "indexed": true,
          "internalType": "address",
          "name": "from",
          "type": "address"
        },
        {
          "indexed": true,
          "internalType": "address",
          "name": "to",
          "type": "address"
        },
        {
          "indexed": false,
          "internalType": "uint256",
          "name": "id",
          "type": "uint256"
        },
        {
          "indexed": false,
          "internalType": "uint256",
          "name": "value",
          "type": "uint256"
        }
      ],
      "name": "TransferSingle",
      "type": "event"
    },
    {
      "anonymous": false,
      "inputs": [
        {
          "indexed": false,
          "internalType": "bool",
          "name": "enabled",
          "type": "bool"
        }
      ],
      "name": "TransferWhitelistEnabledUpdated",
      "type": "event"
    },
    {
      "anonymous": false,
      "inputs": [
        {
          "indexed": false,
          "internalType": "string",
          "name": "value",
          "type": "string"
        },
        {
          "indexed": true,
          "internalType": "uint256",
          "name": "id",
          "type": "uint256"
        }
      ],
      "name": "URI",
      "type": "event"
    },
    {
      "inputs": [],
      "name": "ISSUED_NFT_START_ID",
      "outputs": [
        {
          "internalType": "uint256",
          "name": "",
          "type": "uint256"
        }
      ],
      "stateMutability": "view",
      "type": "function"
    },
    {
      "inputs": [],
      "name": "NFT_START_ID",
      "outputs": [
        {
          "internalType": "uint256",
          "name": "",
          "type": "uint256"
        }
      ],
      "stateMutability": "view",
      "type": "function"
    },
    {
      "inputs": [],
      "name": "POINTS_DECIMALS",
      "outputs": [
        {
          "internalType": "uint8",
          "name": "",
          "type": "uint8"
        }
      ],
      "stateMutability": "view",
      "type": "function"
    },
    {
      "inputs": [],
      "name": "POINTS_ID",
      "outputs": [
        {
          "internalType": "uint256",
          "name": "",
          "type": "uint256"
        }
      ],
      "stateMutability": "view",
      "type": "function"
    },
    {
      "inputs": [],
      "name": "VERSION",
      "outputs": [
        {
          "internalType": "uint256",
          "name": "",
          "type": "uint256"
        }
      ],
      "stateMutability": "view",
      "type": "function"
    },
    {
      "inputs": [
        {
          "internalType": "address",
          "name": "",
          "type": "address"
        },
        {
          "internalType": "uint256",
          "name": "",
          "type": "uint256"
        }
      ],
      "name": "_userOwnedNfts",
      "outputs": [
        {
          "internalType": "uint256",
          "name": "",
          "type": "uint256"
        }
      ],
      "stateMutability": "view",
      "type": "function"
    },
    {
      "inputs": [
        {
          "internalType": "address",
          "name": "",
          "type": "address"
        }
      ],
      "name": "activeMembershipId",
      "outputs": [
        {
          "internalType": "uint256",
          "name": "",
          "type": "uint256"
        }
      ],
      "stateMutability": "view",
      "type": "function"
    },
    {
      "inputs": [
        {
          "internalType": "address",
          "name": "",
          "type": "address"
        }
      ],
      "name": "activeTierIndexOrMax",
      "outputs": [
        {
          "internalType": "uint256",
          "name": "",
          "type": "uint256"
        }
      ],
      "stateMutability": "view",
      "type": "function"
    },
    {
      "inputs": [
        {
          "internalType": "address",
          "name": "newAdmin",
          "type": "address"
        },
        {
          "internalType": "uint256",
          "name": "newThreshold",
          "type": "uint256"
        }
      ],
      "name": "addAdmin",
      "outputs": [],
      "stateMutability": "nonpayable",
      "type": "function"
    },
    {
      "inputs": [
        {
          "internalType": "uint256",
          "name": "",
          "type": "uint256"
        }
      ],
      "name": "adminList",
      "outputs": [
        {
          "internalType": "address",
          "name": "",
          "type": "address"
        }
      ],
      "stateMutability": "view",
      "type": "function"
    },
    {
      "inputs": [
        {
          "internalType": "uint256",
          "name": "minUsdc6",
          "type": "uint256"
        },
        {
          "internalType": "uint256",
          "name": "attr",
          "type": "uint256"
        },
        {
          "internalType": "uint256",
          "name": "tierExpirySeconds",
          "type": "uint256"
        },
        {
          "internalType": "bool",
          "name": "upgradeByBalance",
          "type": "bool"
        }
      ],
      "name": "appendTier",
      "outputs": [],
      "stateMutability": "nonpayable",
      "type": "function"
    },
    {
      "inputs": [
        {
          "internalType": "uint256",
          "name": "id",
          "type": "uint256"
        }
      ],
      "name": "approveProposal",
      "outputs": [],
      "stateMutability": "nonpayable",
      "type": "function"
    },
    {
      "inputs": [
        {
          "internalType": "uint256",
          "name": "id",
          "type": "uint256"
        },
        {
          "internalType": "address",
          "name": "adminSigner",
          "type": "address"
        }
      ],
      "name": "approveProposalByGateway",
      "outputs": [],
      "stateMutability": "nonpayable",
      "type": "function"
    },
    {
      "inputs": [
        {
          "internalType": "uint256",
          "name": "",
          "type": "uint256"
        }
      ],
      "name": "attributes",
      "outputs": [
        {
          "internalType": "uint256",
          "name": "",
          "type": "uint256"
        }
      ],
      "stateMutability": "view",
      "type": "function"
    },
    {
      "inputs": [
        {
          "internalType": "address",
          "name": "account",
          "type": "address"
        },
        {
          "internalType": "uint256",
          "name": "id",
          "type": "uint256"
        }
      ],
      "name": "balanceOf",
      "outputs": [
        {
          "internalType": "uint256",
          "name": "",
          "type": "uint256"
        }
      ],
      "stateMutability": "view",
      "type": "function"
    },
    {
      "inputs": [
        {
          "internalType": "address[]",
          "name": "accounts",
          "type": "address[]"
        },
        {
          "internalType": "uint256[]",
          "name": "ids",
          "type": "uint256[]"
        }
      ],
      "name": "balanceOfBatch",
      "outputs": [
        {
          "internalType": "uint256[]",
          "name": "",
          "type": "uint256[]"
        }
      ],
      "stateMutability": "view",
      "type": "function"
    },
    {
      "inputs": [
        {
          "internalType": "string",
          "name": "code",
          "type": "string"
        }
      ],
      "name": "cancelRedeem",
      "outputs": [],
      "stateMutability": "nonpayable",
      "type": "function"
    },
    {
      "inputs": [
        {
          "internalType": "bytes32",
          "name": "title",
          "type": "bytes32"
        },
        {
          "internalType": "uint64",
          "name": "validAfter",
          "type": "uint64"
        },
        {
          "internalType": "uint64",
          "name": "validBefore",
          "type": "uint64"
        },
        {
          "internalType": "uint256",
          "name": "maxSupply",
          "type": "uint256"
        },
        {
          "internalType": "uint256",
          "name": "priceInCurrency6",
          "type": "uint256"
        },
        {
          "internalType": "bytes32",
          "name": "sharedMetadataHash",
          "type": "bytes32"
        }
      ],
      "name": "createIssuedNft",
      "outputs": [
        {
          "internalType": "uint256",
          "name": "tokenId",
          "type": "uint256"
        }
      ],
      "stateMutability": "nonpayable",
      "type": "function"
    },
    {
      "inputs": [
        {
          "internalType": "bytes4",
          "name": "selector",
          "type": "bytes4"
        },
        {
          "internalType": "address",
          "name": "target",
          "type": "address"
        },
        {
          "internalType": "uint256",
          "name": "v1",
          "type": "uint256"
        },
        {
          "internalType": "uint256",
          "name": "v2",
          "type": "uint256"
        },
        {
          "internalType": "uint256",
          "name": "v3",
          "type": "uint256"
        }
      ],
      "name": "createProposal",
      "outputs": [
        {
          "internalType": "uint256",
          "name": "",
          "type": "uint256"
        }
      ],
      "stateMutability": "nonpayable",
      "type": "function"
    },
    {
      "inputs": [
        {
          "internalType": "bytes32",
          "name": "hash",
          "type": "bytes32"
        },
        {
          "internalType": "uint256",
          "name": "points6",
          "type": "uint256"
        },
        {
          "internalType": "uint256",
          "name": "attr",
          "type": "uint256"
        },
        {
          "internalType": "uint64",
          "name": "validAfter",
          "type": "uint64"
        },
        {
          "internalType": "uint64",
          "name": "validBefore",
          "type": "uint64"
        },
        {
          "internalType": "uint256[]",
          "name": "tokenIds",
          "type": "uint256[]"
        },
        {
          "internalType": "uint256[]",
          "name": "amounts",
          "type": "uint256[]"
        }
      ],
      "name": "createRedeem",
      "outputs": [],
      "stateMutability": "nonpayable",
      "type": "function"
    },
    {
      "inputs": [
        {
          "internalType": "bytes32[]",
          "name": "hashes",
          "type": "bytes32[]"
        },
        {
          "internalType": "uint256",
          "name": "points6",
          "type": "uint256"
        },
        {
          "internalType": "uint256",
          "name": "attr",
          "type": "uint256"
        },
        {
          "internalType": "uint64",
          "name": "validAfter",
          "type": "uint64"
        },
        {
          "internalType": "uint64",
          "name": "validBefore",
          "type": "uint64"
        },
        {
          "internalType": "uint256[]",
          "name": "tokenIds",
          "type": "uint256[]"
        },
        {
          "internalType": "uint256[]",
          "name": "amounts",
          "type": "uint256[]"
        }
      ],
      "name": "createRedeemBatch",
      "outputs": [],
      "stateMutability": "nonpayable",
      "type": "function"
    },
    {
      "inputs": [
        {
          "internalType": "bytes32",
          "name": "poolHash",
          "type": "bytes32"
        },
        {
          "internalType": "uint64",
          "name": "validAfter",
          "type": "uint64"
        },
        {
          "internalType": "uint64",
          "name": "validBefore",
          "type": "uint64"
        },
        {
          "internalType": "uint256[][]",
          "name": "tokenIdsList",
          "type": "uint256[][]"
        },
        {
          "internalType": "uint256[][]",
          "name": "amountsList",
          "type": "uint256[][]"
        },
        {
          "internalType": "uint32[]",
          "name": "counts",
          "type": "uint32[]"
        }
      ],
      "name": "createRedeemPool",
      "outputs": [],
      "stateMutability": "nonpayable",
      "type": "function"
    },
    {
      "inputs": [],
      "name": "currency",
      "outputs": [
        {
          "internalType": "enum BeamioCurrency.CurrencyType",
          "name": "",
          "type": "uint8"
        }
      ],
      "stateMutability": "view",
      "type": "function"
    },
    {
      "inputs": [],
      "name": "debugGateway",
      "outputs": [
        {
          "internalType": "address",
          "name": "",
          "type": "address"
        }
      ],
      "stateMutability": "view",
      "type": "function"
    },
    {
      "inputs": [],
      "name": "defaultAttrWhenNoTiers",
      "outputs": [
        {
          "internalType": "uint256",
          "name": "",
          "type": "uint256"
        }
      ],
      "stateMutability": "view",
      "type": "function"
    },
    {
      "inputs": [],
      "name": "deployer",
      "outputs": [
        {
          "internalType": "address",
          "name": "",
          "type": "address"
        }
      ],
      "stateMutability": "view",
      "type": "function"
    },
    {
      "inputs": [
        {
          "internalType": "uint256",
          "name": "",
          "type": "uint256"
        }
      ],
      "name": "expiresAt",
      "outputs": [
        {
          "internalType": "uint256",
          "name": "",
          "type": "uint256"
        }
      ],
      "stateMutability": "view",
      "type": "function"
    },
    {
      "inputs": [],
      "name": "expirySeconds",
      "outputs": [
        {
          "internalType": "uint256",
          "name": "",
          "type": "uint256"
        }
      ],
      "stateMutability": "view",
      "type": "function"
    },
    {
      "inputs": [],
      "name": "factoryGateway",
      "outputs": [
        {
          "internalType": "address",
          "name": "",
          "type": "address"
        }
      ],
      "stateMutability": "view",
      "type": "function"
    },
    {
      "inputs": [
        {
          "internalType": "address",
          "name": "userEOA",
          "type": "address"
        },
        {
          "internalType": "uint256",
          "name": "id",
          "type": "uint256"
        },
        {
          "internalType": "uint256",
          "name": "amount",
          "type": "uint256"
        }
      ],
      "name": "faucetByGateway",
      "outputs": [],
      "stateMutability": "nonpayable",
      "type": "function"
    },
    {
      "inputs": [
        {
          "internalType": "uint256",
          "name": "",
          "type": "uint256"
        },
        {
          "internalType": "address",
          "name": "",
          "type": "address"
        }
      ],
      "name": "faucetClaimed",
      "outputs": [
        {
          "internalType": "uint256",
          "name": "",
          "type": "uint256"
        }
      ],
      "stateMutability": "view",
      "type": "function"
    },
    {
      "inputs": [
        {
          "internalType": "uint256",
          "name": "",
          "type": "uint256"
        }
      ],
      "name": "faucetConfig",
      "outputs": [
        {
          "internalType": "uint64",
          "name": "validUntil",
          "type": "uint64"
        },
        {
          "internalType": "uint64",
          "name": "perClaimMax",
          "type": "uint64"
        },
        {
          "internalType": "uint128",
          "name": "maxPerUser",
          "type": "uint128"
        },
        {
          "internalType": "uint128",
          "name": "maxGlobal",
          "type": "uint128"
        },
        {
          "internalType": "bool",
          "name": "enabled",
          "type": "bool"
        },
        {
          "internalType": "uint8",
          "name": "currency",
          "type": "uint8"
        },
        {
          "internalType": "uint8",
          "name": "decimals",
          "type": "uint8"
        },
        {
          "internalType": "uint128",
          "name": "priceInCurrency6",
          "type": "uint128"
        }
      ],
      "stateMutability": "view",
      "type": "function"
    },
    {
      "inputs": [
        {
          "internalType": "uint256",
          "name": "",
          "type": "uint256"
        }
      ],
      "name": "faucetConfigFrozen",
      "outputs": [
        {
          "internalType": "bool",
          "name": "",
          "type": "bool"
        }
      ],
      "stateMutability": "view",
      "type": "function"
    },
    {
      "inputs": [
        {
          "internalType": "uint256",
          "name": "",
          "type": "uint256"
        }
      ],
      "name": "faucetGlobalMinted",
      "outputs": [
        {
          "internalType": "uint256",
          "name": "",
          "type": "uint256"
        }
      ],
      "stateMutability": "view",
      "type": "function"
    },
    {
      "inputs": [],
      "name": "gateway",
      "outputs": [
        {
          "internalType": "address",
          "name": "",
          "type": "address"
        }
      ],
      "stateMutability": "view",
      "type": "function"
    },
    {
      "inputs": [
        {
          "internalType": "address",
          "name": "user",
          "type": "address"
        }
      ],
      "name": "getOwnership",
      "outputs": [
        {
          "internalType": "uint256",
          "name": "pt",
          "type": "uint256"
        },
        {
          "components": [
            {
              "internalType": "uint256",
              "name": "tokenId",
              "type": "uint256"
            },
            {
              "internalType": "uint256",
              "name": "attribute",
              "type": "uint256"
            },
            {
              "internalType": "uint256",
              "name": "tierIndexOrMax",
              "type": "uint256"
            },
            {
              "internalType": "uint256",
              "name": "expiry",
              "type": "uint256"
            },
            {
              "internalType": "bool",
              "name": "isExpired",
              "type": "bool"
            }
          ],
          "internalType": "struct BeamioUserCard.NFTDetail[]",
          "name": "nfts",
          "type": "tuple[]"
        }
      ],
      "stateMutability": "view",
      "type": "function"
    },
    {
      "inputs": [
        {
          "internalType": "address",
          "name": "userEOA",
          "type": "address"
        }
      ],
      "name": "getOwnershipByEOA",
      "outputs": [
        {
          "internalType": "uint256",
          "name": "pt",
          "type": "uint256"
        },
        {
          "components": [
            {
              "internalType": "uint256",
              "name": "tokenId",
              "type": "uint256"
            },
            {
              "internalType": "uint256",
              "name": "attribute",
              "type": "uint256"
            },
            {
              "internalType": "uint256",
              "name": "tierIndexOrMax",
              "type": "uint256"
            },
            {
              "internalType": "uint256",
              "name": "expiry",
              "type": "uint256"
            },
            {
              "internalType": "bool",
              "name": "isExpired",
              "type": "bool"
            }
          ],
          "internalType": "struct BeamioUserCard.NFTDetail[]",
          "name": "nfts",
          "type": "tuple[]"
        }
      ],
      "stateMutability": "view",
      "type": "function"
    },
    {
      "inputs": [
        {
          "internalType": "bytes32",
          "name": "hash",
          "type": "bytes32"
        }
      ],
      "name": "getRedeemStatus",
      "outputs": [
        {
          "internalType": "bool",
          "name": "active",
          "type": "bool"
        },
        {
          "internalType": "uint256",
          "name": "totalPoints6",
          "type": "uint256"
        }
      ],
      "stateMutability": "view",
      "type": "function"
    },
    {
      "inputs": [
        {
          "internalType": "string[]",
          "name": "codes",
          "type": "string[]"
        }
      ],
      "name": "getRedeemStatusBatch",
      "outputs": [
        {
          "internalType": "bool[]",
          "name": "active",
          "type": "bool[]"
        },
        {
          "internalType": "uint256[]",
          "name": "totalPoints6",
          "type": "uint256[]"
        }
      ],
      "stateMutability": "view",
      "type": "function"
    },
    {
      "inputs": [
        {
          "internalType": "bytes32[]",
          "name": "hashes",
          "type": "bytes32[]"
        }
      ],
      "name": "getRedeemStatusBatch",
      "outputs": [
        {
          "internalType": "bool[]",
          "name": "active",
          "type": "bool[]"
        },
        {
          "internalType": "uint256[]",
          "name": "totalPoints6",
          "type": "uint256[]"
        }
      ],
      "stateMutability": "view",
      "type": "function"
    },
    {
      "inputs": [
        {
          "internalType": "bytes32",
          "name": "hash",
          "type": "bytes32"
        },
        {
          "internalType": "address",
          "name": "claimer",
          "type": "address"
        }
      ],
      "name": "getRedeemStatusEx",
      "outputs": [
        {
          "internalType": "bool",
          "name": "active",
          "type": "bool"
        },
        {
          "internalType": "uint128",
          "name": "points6",
          "type": "uint128"
        },
        {
          "internalType": "bool",
          "name": "isPool",
          "type": "bool"
        }
      ],
      "stateMutability": "view",
      "type": "function"
    },
    {
      "inputs": [
        {
          "internalType": "uint256",
          "name": "idx",
          "type": "uint256"
        }
      ],
      "name": "getTierAt",
      "outputs": [
        {
          "components": [
            {
              "internalType": "uint256",
              "name": "minUsdc6",
              "type": "uint256"
            },
            {
              "internalType": "uint256",
              "name": "attr",
              "type": "uint256"
            },
            {
              "internalType": "uint256",
              "name": "tierExpirySeconds",
              "type": "uint256"
            },
            {
              "internalType": "bool",
              "name": "upgradeByBalance",
              "type": "bool"
            }
          ],
          "internalType": "struct BeamioUserCard.Tier",
          "name": "",
          "type": "tuple"
        }
      ],
      "stateMutability": "view",
      "type": "function"
    },
    {
      "inputs": [],
      "name": "getTiersCount",
      "outputs": [
        {
          "internalType": "uint256",
          "name": "",
          "type": "uint256"
        }
      ],
      "stateMutability": "view",
      "type": "function"
    },
    {
      "inputs": [
        {
          "internalType": "address",
          "name": "",
          "type": "address"
        }
      ],
      "name": "isAdmin",
      "outputs": [
        {
          "internalType": "bool",
          "name": "",
          "type": "bool"
        }
      ],
      "stateMutability": "view",
      "type": "function"
    },
    {
      "inputs": [
        {
          "internalType": "uint256",
          "name": "",
          "type": "uint256"
        },
        {
          "internalType": "address",
          "name": "",
          "type": "address"
        }
      ],
      "name": "isApproved",
      "outputs": [
        {
          "internalType": "bool",
          "name": "",
          "type": "bool"
        }
      ],
      "stateMutability": "view",
      "type": "function"
    },
    {
      "inputs": [
        {
          "internalType": "address",
          "name": "account",
          "type": "address"
        },
        {
          "internalType": "address",
          "name": "operator",
          "type": "address"
        }
      ],
      "name": "isApprovedForAll",
      "outputs": [
        {
          "internalType": "bool",
          "name": "",
          "type": "bool"
        }
      ],
      "stateMutability": "view",
      "type": "function"
    },
    {
      "inputs": [
        {
          "internalType": "uint256",
          "name": "tokenId",
          "type": "uint256"
        }
      ],
      "name": "isIssuedNftValid",
      "outputs": [
        {
          "internalType": "bool",
          "name": "",
          "type": "bool"
        }
      ],
      "stateMutability": "view",
      "type": "function"
    },
    {
      "inputs": [],
      "name": "issuedNftIndex",
      "outputs": [
        {
          "internalType": "uint256",
          "name": "",
          "type": "uint256"
        }
      ],
      "stateMutability": "view",
      "type": "function"
    },
    {
      "inputs": [
        {
          "internalType": "uint256",
          "name": "",
          "type": "uint256"
        }
      ],
      "name": "issuedNftMaxSupply",
      "outputs": [
        {
          "internalType": "uint256",
          "name": "",
          "type": "uint256"
        }
      ],
      "stateMutability": "view",
      "type": "function"
    },
    {
      "inputs": [
        {
          "internalType": "uint256",
          "name": "",
          "type": "uint256"
        }
      ],
      "name": "issuedNftMintedCount",
      "outputs": [
        {
          "internalType": "uint256",
          "name": "",
          "type": "uint256"
        }
      ],
      "stateMutability": "view",
      "type": "function"
    },
    {
      "inputs": [
        {
          "internalType": "uint256",
          "name": "",
          "type": "uint256"
        }
      ],
      "name": "issuedNftPriceInCurrency6",
      "outputs": [
        {
          "internalType": "uint256",
          "name": "",
          "type": "uint256"
        }
      ],
      "stateMutability": "view",
      "type": "function"
    },
    {
      "inputs": [
        {
          "internalType": "uint256",
          "name": "",
          "type": "uint256"
        }
      ],
      "name": "issuedNftSharedMetadataHash",
      "outputs": [
        {
          "internalType": "bytes32",
          "name": "",
          "type": "bytes32"
        }
      ],
      "stateMutability": "view",
      "type": "function"
    },
    {
      "inputs": [
        {
          "internalType": "uint256",
          "name": "",
          "type": "uint256"
        }
      ],
      "name": "issuedNftTitle",
      "outputs": [
        {
          "internalType": "bytes32",
          "name": "",
          "type": "bytes32"
        }
      ],
      "stateMutability": "view",
      "type": "function"
    },
    {
      "inputs": [
        {
          "internalType": "uint256",
          "name": "",
          "type": "uint256"
        }
      ],
      "name": "issuedNftValidAfter",
      "outputs": [
        {
          "internalType": "uint64",
          "name": "",
          "type": "uint64"
        }
      ],
      "stateMutability": "view",
      "type": "function"
    },
    {
      "inputs": [
        {
          "internalType": "uint256",
          "name": "",
          "type": "uint256"
        }
      ],
      "name": "issuedNftValidBefore",
      "outputs": [
        {
          "internalType": "uint64",
          "name": "",
          "type": "uint64"
        }
      ],
      "stateMutability": "view",
      "type": "function"
    },
    {
      "inputs": [
        {
          "internalType": "address",
          "name": "userEOA",
          "type": "address"
        },
        {
          "internalType": "uint256",
          "name": "id",
          "type": "uint256"
        },
        {
          "internalType": "uint256",
          "name": "amount6",
          "type": "uint256"
        }
      ],
      "name": "mintFaucetByGateway",
      "outputs": [],
      "stateMutability": "nonpayable",
      "type": "function"
    },
    {
      "inputs": [
        {
          "internalType": "address",
          "name": "userEOA",
          "type": "address"
        },
        {
          "internalType": "uint256",
          "name": "tokenId",
          "type": "uint256"
        },
        {
          "internalType": "uint256",
          "name": "amount",
          "type": "uint256"
        }
      ],
      "name": "mintIssuedNftByGateway",
      "outputs": [],
      "stateMutability": "nonpayable",
      "type": "function"
    },
    {
      "inputs": [
        {
          "internalType": "address",
          "name": "to",
          "type": "address"
        },
        {
          "internalType": "uint256",
          "name": "tokenId",
          "type": "uint256"
        },
        {
          "internalType": "uint256",
          "name": "amount",
          "type": "uint256"
        }
      ],
      "name": "mintIssuedNftByOwner",
      "outputs": [],
      "stateMutability": "nonpayable",
      "type": "function"
    },
    {
      "inputs": [
        {
          "internalType": "address",
          "name": "user",
          "type": "address"
        },
        {
          "internalType": "uint256",
          "name": "tierIndex",
          "type": "uint256"
        }
      ],
      "name": "mintMemberCardByAdmin",
      "outputs": [],
      "stateMutability": "nonpayable",
      "type": "function"
    },
    {
      "inputs": [
        {
          "internalType": "address",
          "name": "user",
          "type": "address"
        },
        {
          "internalType": "uint256",
          "name": "points6",
          "type": "uint256"
        }
      ],
      "name": "mintPointsByAdmin",
      "outputs": [],
      "stateMutability": "nonpayable",
      "type": "function"
    },
    {
      "inputs": [
        {
          "internalType": "address",
          "name": "userEOA",
          "type": "address"
        },
        {
          "internalType": "uint256",
          "name": "points6",
          "type": "uint256"
        }
      ],
      "name": "mintPointsByGateway",
      "outputs": [],
      "stateMutability": "nonpayable",
      "type": "function"
    },
    {
      "inputs": [],
      "name": "owner",
      "outputs": [
        {
          "internalType": "address",
          "name": "",
          "type": "address"
        }
      ],
      "stateMutability": "view",
      "type": "function"
    },
    {
      "inputs": [],
      "name": "pointsUnitPriceInCurrencyE6",
      "outputs": [
        {
          "internalType": "uint256",
          "name": "",
          "type": "uint256"
        }
      ],
      "stateMutability": "view",
      "type": "function"
    },
    {
      "inputs": [],
      "name": "proposalCount",
      "outputs": [
        {
          "internalType": "uint256",
          "name": "",
          "type": "uint256"
        }
      ],
      "stateMutability": "view",
      "type": "function"
    },
    {
      "inputs": [
        {
          "internalType": "uint256",
          "name": "",
          "type": "uint256"
        }
      ],
      "name": "proposals",
      "outputs": [
        {
          "internalType": "address",
          "name": "target",
          "type": "address"
        },
        {
          "internalType": "uint256",
          "name": "v1",
          "type": "uint256"
        },
        {
          "internalType": "uint256",
          "name": "v2",
          "type": "uint256"
        },
        {
          "internalType": "uint256",
          "name": "v3",
          "type": "uint256"
        },
        {
          "internalType": "bytes4",
          "name": "selector",
          "type": "bytes4"
        },
        {
          "internalType": "uint256",
          "name": "approvals",
          "type": "uint256"
        },
        {
          "internalType": "bool",
          "name": "executed",
          "type": "bool"
        }
      ],
      "stateMutability": "view",
      "type": "function"
    },
    {
      "inputs": [
        {
          "internalType": "string[]",
          "name": "codes",
          "type": "string[]"
        },
        {
          "internalType": "address",
          "name": "userEOA",
          "type": "address"
        }
      ],
      "name": "redeemBatchByGateway",
      "outputs": [],
      "stateMutability": "nonpayable",
      "type": "function"
    },
    {
      "inputs": [
        {
          "internalType": "string",
          "name": "code",
          "type": "string"
        },
        {
          "internalType": "address",
          "name": "userEOA",
          "type": "address"
        }
      ],
      "name": "redeemByGateway",
      "outputs": [],
      "stateMutability": "nonpayable",
      "type": "function"
    },
    {
      "inputs": [
        {
          "internalType": "string",
          "name": "code",
          "type": "string"
        },
        {
          "internalType": "address",
          "name": "userEOA",
          "type": "address"
        }
      ],
      "name": "redeemPoolByGateway",
      "outputs": [],
      "stateMutability": "nonpayable",
      "type": "function"
    },
    {
      "inputs": [],
      "name": "renounceOwnership",
      "outputs": [],
      "stateMutability": "nonpayable",
      "type": "function"
    },
    {
      "inputs": [
        {
          "internalType": "address",
          "name": "from",
          "type": "address"
        },
        {
          "internalType": "address",
          "name": "to",
          "type": "address"
        },
        {
          "internalType": "uint256[]",
          "name": "ids",
          "type": "uint256[]"
        },
        {
          "internalType": "uint256[]",
          "name": "values",
          "type": "uint256[]"
        },
        {
          "internalType": "bytes",
          "name": "data",
          "type": "bytes"
        }
      ],
      "name": "safeBatchTransferFrom",
      "outputs": [],
      "stateMutability": "nonpayable",
      "type": "function"
    },
    {
      "inputs": [
        {
          "internalType": "address",
          "name": "from",
          "type": "address"
        },
        {
          "internalType": "address",
          "name": "to",
          "type": "address"
        },
        {
          "internalType": "uint256",
          "name": "id",
          "type": "uint256"
        },
        {
          "internalType": "uint256",
          "name": "value",
          "type": "uint256"
        },
        {
          "internalType": "bytes",
          "name": "data",
          "type": "bytes"
        }
      ],
      "name": "safeTransferFrom",
      "outputs": [],
      "stateMutability": "nonpayable",
      "type": "function"
    },
    {
      "inputs": [
        {
          "internalType": "address",
          "name": "operator",
          "type": "address"
        },
        {
          "internalType": "bool",
          "name": "approved",
          "type": "bool"
        }
      ],
      "name": "setApprovalForAll",
      "outputs": [],
      "stateMutability": "nonpayable",
      "type": "function"
    },
    {
      "inputs": [
        {
          "internalType": "uint256",
          "name": "attr",
          "type": "uint256"
        }
      ],
      "name": "setDefaultAttr",
      "outputs": [],
      "stateMutability": "nonpayable",
      "type": "function"
    },
    {
      "inputs": [
        {
          "internalType": "uint256",
          "name": "secs",
          "type": "uint256"
        }
      ],
      "name": "setExpirySeconds",
      "outputs": [],
      "stateMutability": "nonpayable",
      "type": "function"
    },
    {
      "inputs": [
        {
          "internalType": "uint256",
          "name": "id",
          "type": "uint256"
        },
        {
          "internalType": "uint64",
          "name": "validUntil",
          "type": "uint64"
        },
        {
          "internalType": "uint64",
          "name": "perClaimMax",
          "type": "uint64"
        },
        {
          "internalType": "uint128",
          "name": "maxPerUser",
          "type": "uint128"
        },
        {
          "internalType": "uint128",
          "name": "maxGlobal",
          "type": "uint128"
        },
        {
          "internalType": "bool",
          "name": "enabled",
          "type": "bool"
        },
        {
          "internalType": "enum BeamioCurrency.CurrencyType",
          "name": "cur",
          "type": "uint8"
        },
        {
          "internalType": "uint128",
          "name": "priceInCurrency6",
          "type": "uint128"
        }
      ],
      "name": "setFaucetConfig",
      "outputs": [],
      "stateMutability": "nonpayable",
      "type": "function"
    },
    {
      "inputs": [
        {
          "internalType": "uint256",
          "name": "priceInCurrencyE6",
          "type": "uint256"
        }
      ],
      "name": "setPointsUnitPrice",
      "outputs": [],
      "stateMutability": "nonpayable",
      "type": "function"
    },
    {
      "inputs": [
        {
          "components": [
            {
              "internalType": "uint256",
              "name": "minUsdc6",
              "type": "uint256"
            },
            {
              "internalType": "uint256",
              "name": "attr",
              "type": "uint256"
            },
            {
              "internalType": "uint256",
              "name": "tierExpirySeconds",
              "type": "uint256"
            },
            {
              "internalType": "bool",
              "name": "upgradeByBalance",
              "type": "bool"
            }
          ],
          "internalType": "struct BeamioUserCard.Tier[]",
          "name": "newTiers",
          "type": "tuple[]"
        }
      ],
      "name": "setTiers",
      "outputs": [],
      "stateMutability": "nonpayable",
      "type": "function"
    },
    {
      "inputs": [
        {
          "internalType": "address",
          "name": "target",
          "type": "address"
        },
        {
          "internalType": "bool",
          "name": "allowed",
          "type": "bool"
        }
      ],
      "name": "setTransferWhitelist",
      "outputs": [],
      "stateMutability": "nonpayable",
      "type": "function"
    },
    {
      "inputs": [
        {
          "internalType": "bool",
          "name": "enabled",
          "type": "bool"
        }
      ],
      "name": "setTransferWhitelistEnabled",
      "outputs": [],
      "stateMutability": "nonpayable",
      "type": "function"
    },
    {
      "inputs": [
        {
          "internalType": "bytes4",
          "name": "interfaceId",
          "type": "bytes4"
        }
      ],
      "name": "supportsInterface",
      "outputs": [
        {
          "internalType": "bool",
          "name": "",
          "type": "bool"
        }
      ],
      "stateMutability": "view",
      "type": "function"
    },
    {
      "inputs": [
        {
          "internalType": "bytes32",
          "name": "poolHash",
          "type": "bytes32"
        }
      ],
      "name": "terminateRedeemPool",
      "outputs": [],
      "stateMutability": "nonpayable",
      "type": "function"
    },
    {
      "inputs": [],
      "name": "threshold",
      "outputs": [
        {
          "internalType": "uint256",
          "name": "",
          "type": "uint256"
        }
      ],
      "stateMutability": "view",
      "type": "function"
    },
    {
      "inputs": [
        {
          "internalType": "uint256",
          "name": "",
          "type": "uint256"
        }
      ],
      "name": "tiers",
      "outputs": [
        {
          "internalType": "uint256",
          "name": "minUsdc6",
          "type": "uint256"
        },
        {
          "internalType": "uint256",
          "name": "attr",
          "type": "uint256"
        },
        {
          "internalType": "uint256",
          "name": "tierExpirySeconds",
          "type": "uint256"
        },
        {
          "internalType": "bool",
          "name": "upgradeByBalance",
          "type": "bool"
        }
      ],
      "stateMutability": "view",
      "type": "function"
    },
    {
      "inputs": [
        {
          "internalType": "uint256",
          "name": "",
          "type": "uint256"
        }
      ],
      "name": "tokenTierIndexOrMax",
      "outputs": [
        {
          "internalType": "uint256",
          "name": "",
          "type": "uint256"
        }
      ],
      "stateMutability": "view",
      "type": "function"
    },
    {
      "inputs": [
        {
          "internalType": "address",
          "name": "newOwner",
          "type": "address"
        }
      ],
      "name": "transferOwnership",
      "outputs": [],
      "stateMutability": "nonpayable",
      "type": "function"
    },
    {
      "inputs": [
        {
          "internalType": "address",
          "name": "",
          "type": "address"
        }
      ],
      "name": "transferWhitelist",
      "outputs": [
        {
          "internalType": "bool",
          "name": "",
          "type": "bool"
        }
      ],
      "stateMutability": "view",
      "type": "function"
    },
    {
      "inputs": [],
      "name": "transferWhitelistEnabled",
      "outputs": [
        {
          "internalType": "bool",
          "name": "",
          "type": "bool"
        }
      ],
      "stateMutability": "view",
      "type": "function"
    },
    {
      "inputs": [
        {
          "internalType": "uint256",
          "name": "",
          "type": "uint256"
        }
      ],
      "name": "uri",
      "outputs": [
        {
          "internalType": "string",
          "name": "",
          "type": "string"
        }
      ],
      "stateMutability": "view",
      "type": "function"
    }
  ],
  "bytecode": "0x60a0604052346103c1576164de80380380610019816103c5565b92833981019060a0818303126103c15780516001600160401b0381116103c157810182601f820112156103c1578051906001600160401b03821161027c5761006a601f8301601f19166020016103c5565b93828552602083830101116103c157815f9260208093018387015e84010152602081015190600d8210156103c1576040810151906100b660806100af606084016103ea565b92016103ea565b845190946001600160401b03821161027c5760025490600182811c921680156103b7575b60208310146103a35781601f84931161032d575b50602090601f83116001146102c7575f926102bc575b50508160011b915f199060031b1c1916176002555b6001600160a01b03169182156102a957600380546001600160a01b031981168517909155604051949084906001600160a01b03167f8be0079c531659141344cd1fd0a4f28419497f9722a3daafe3b4186f6b6457e05f80a360016004556064601d5564174876e800601e556001600160a01b03811690811590811561029f575b506102905733608052600580546001600160a01b03191682179055600680546001600160a81b03191690911760a09290921b60ff60a01b16919091179055600755600160098190555f828152600a60205260409020805460ff19169091179055600b546801000000000000000081101561027c576001810180600b5581101561026857600b5f527f0175b7a638427703f0dbe7bb9bbf987a2551717b34e79f33b5b1008d1fa01db90180546001600160a01b03191690911790556160df90816103ff823960805181612e2a0152f35b634e487b7160e01b5f52603260045260245ffd5b634e487b7160e01b5f52604160045260245ffd5b63ab82bb9960e01b5f5260045ffd5b90503b155f610199565b631e4fbdf760e01b5f525f60045260245ffd5b015190505f80610104565b60025f9081528281209350601f198516905b81811061031557509084600195949392106102fd575b505050811b01600255610119565b01515f1960f88460031b161c191690555f80806102ef565b929360206001819287860151815501950193016102d9565b828111156100ee5760025f52909150601f830160051c7f405787fa12a823e0f2b7631cc41b3ba8828b3321ca811111fa75cd3aa3bb5ace6020851061039b575b849392601f0160051c82900391015f5b82811061038b5750506100ee565b5f8183015585945060010161037d565b5f915061036d565b634e487b7160e01b5f52602260045260245ffd5b91607f16916100da565b5f80fd5b6040519190601f01601f191682016001600160401b0381118382101761027c57604052565b51906001600160a01b03821682036103c15756fe60806040526004361015610011575f80fd5b5f3560e01c8062fdd58e14610589578063013cf08b1461058457806301f28d911461057f57806301ffc9a71461057a578063039af9eb1461057557806303ca3e38146105705780630b6c8d711461056b5780630bd67833146105665780630e4ab487146105615780630e89341c1461055c57806310bba8641461055757806311117fc814610552578063116191b6146104e45780631284b92f1461054d57806315a762291461054857806317c95709146105435780631c790e241461053e57806322c6102e1461053957806324d7806c14610534578063254582651461052f5780632b681a541461052a5780632c0c4cfd146105255780632eb2c2d614610520578063312e76a91461051b57806331b86d351461051657806334bca52c146105115780633c703d451461050c5780633c970fb91461050757806342cde4e814610502578063475e53ec146104fd57806349c01d8a146104f85780634dda2215146104f35780634e1273f4146104ee57806352b9ec23146104e957806353785619146104e45780635637d5bc146104df578063564da757146104da57806356988130146104d557806356c31637146104d05780636465c3a7146104cb578063671395c8146104c6578063677f58b9146104c1578063684cc3a5146104bc578063706e0132146104b7578063715018a6146104b257806371b8982f146103e557806371d7193b146104ad5780637940482b146104a85780637fcb29c9146104a35780637ffbe2411461049e57806382b720c91461049957806383dbbf5314610494578063897828a81461048f5780638b3c6f8f1461048a5780638da5cb5b146104855780638db553081461048057806391afe1721461047b57806394b2e946146104765780639565c5421461047157806395f7b2ff1461046c57806398951b56146104675780639f1bbda7146104625780639f48facc1461045d578063a22cb46514610458578063a479044614610453578063a876c7591461044e578063a98d916e14610449578063af7ffa2b14610444578063b3b86ddc1461043f578063c6073f161461043a578063c926bbfd14610435578063cbc4e1aa14610430578063d05dcc6a1461042b578063d4506e7714610426578063d52dc51514610421578063d5f394881461041c578063da35c66414610417578063e141dcb814610412578063e41021371461040d578063e4a34dce14610408578063e5a6b10f14610403578063e985e9c5146103fe578063f242432a146103f9578063f2fde38b146103f4578063f51089f6146103ef578063f540f227146103ea578063f986f676146103e55763ffa1ad74146103e0575f80fd5b61331d565b611f0a565b6132f3565b61320c565b613182565b613095565b61304a565b61301e565b612fc2565b612f93565b612e76565b612e59565b612e15565b612df3565b612d9e565b612d74565b612c8f565b612c75565b612ac2565b612a8f565b6129a9565b61298a565b61296d565b6126c2565b612637565b612574565b612557565b612523565b6124f9565b6124d1565b612496565b61240b565b6123e3565b6123bb565b612391565b61232f565b6122cd565b612180565b612140565b61210f565b6120dd565b611fd6565b611e4a565b611e2b565b611e01565b611db6565b611d7b565b611b4d565b611b0b565b611992565b6118da565b6118bf565b610fd1565b61182d565b61176c565b61170b565b6116d7565b611665565b611648565b611608565b6115de565b6115b4565b611588565b61152d565b61149b565b61131c565b6112fc565b6112df565b61129f565b61120a565b61114f565b611125565b6110b5565b611059565b610f77565b610f47565b610db4565b610d2e565b610cb6565b610c01565b61081f565b6107a2565b6106ff565b6106d0565b610639565b6105a3565b6001600160a01b0381160361059f57565b5f80fd5b3461059f57604036600319011261059f5760206105d66004356105c58161058e565b6024355f525f835260405f20611044565b54604051908152f35b5f527fcb1a422c9916903f224af4db9a3bf1529921bf95ff7b75d7d9ed9073a48394ab60205260405f2090565b5f527fcb1a422c9916903f224af4db9a3bf1529921bf95ff7b75d7d9ed9073a48394ac60205260405f2090565b3461059f57602036600319011261059f57600480355f908152600c6020908152604091829020805460018201546002830154600384015496840154600585015460069095015487516001600160a01b039095168552958401929092529482019490945260608101949094526001600160e01b031960e093841b16608085015260a084015260ff16151560c0830152819081015b0390f35b3461059f575f36600319011261059f576020601754604051908152f35b6001600160e01b031981160361059f57565b3461059f57602036600319011261059f57602060043561071e816106ed565b63ffffffff60e01b16636cdb3d1360e11b811490811561075c575b811561074b575b506040519015158152f35b6301ffc9a760e01b1490505f610740565b6303a24d0760e21b81149150610739565b634e487b7160e01b5f52603260045260245ffd5b60175481101561079d5760175f5260205f209060021b01905f90565b61076d565b3461059f57602036600319011261059f5760043560175481101561059f576107cb608091610781565b5080549060018101549060ff6003600283015492015416916040519384526020840152604083015215156060820152f35b606090600319011261059f576004356108148161058e565b906024359060443590565b3461059f5761082d366107fc565b600654909291906001600160a01b031680610b8e57506005546001600160a01b03165b6001600160a01b03163303610b7f576108676144f9565b6001600160a01b038216918215610b70578315610b6157610890825f52601960205260405f2090565b60018101549060ff608083901c16156108a8565b1590565b610b52578054906108c96001600160401b0383165b6001600160401b031690565b4211610b43576108e5604083901c6001600160401b03166108bd565b8711610b345760055461090e90610902906001600160a01b031681565b6001600160a01b031690565b6040516326387a5160e21b81523060048201526024810187905290602090829060449082905afa908115610b2f575f91610b00575b5015610af157600201546001600160801b0316610ae25761099861098c6109858861097f8761097a8a5f52601a60205260405f2090565b611044565b5461337f565b9260801c90565b6001600160801b031690565b10610ad3576109c661098c6109b98761097f875f52601b60205260405f2090565b926001600160801b031690565b10610ac45780610a037f3bf2de114e2e7636c289f21be023528e47d89b45e873b976c78989c3ddc683f59261097a855f52601a60205260405f2090565b610a0e86825461337f565b9055610a22835f52601b60205260405f2090565b610a2d86825461337f565b9055610a83610a3b8261452e565b91610a4583614638565b610a4e83610ff9565b5415610a63610a5b61338c565b8988876147e5565b85610abd5787905b610aad575b5061097a855f52601a60205260405f2090565b546040805196875260208701919091526001600160a01b039190911694a4610aab6001600455565b005b610ab79084614840565b5f610a70565b5f90610a6b565b633eb230e560e21b5f5260045ffd5b632fb3850b60e11b5f5260045ffd5b6311fc944f60e31b5f5260045ffd5b631f3263b960e01b5f5260045ffd5b610b22915060203d602011610b28575b610b1a818361137a565b810190613338565b5f610943565b503d610b10565b61334d565b6314a447a760e11b5f5260045ffd5b638242235f60e01b5f5260045ffd5b63ab6138a560e01b5f5260045ffd5b63201165f360e21b5f5260045ffd5b63a9b8048960e01b5f5260045ffd5b6396f47d2360e01b5f5260045ffd5b610850565b6060602091604081019381526040838201528451809452019201905f5b818110610bbd5750505090565b909192602060a06001926080875180518352848101518584015260408101516040840152606081015160608401520151151560808201520194019101919091610bb0565b3461059f57602036600319011261059f57610c2e610c29600435610c248161058e565b614ace565b613960565b906106cc60405192839283610b93565b602435906001600160401b038216820361059f57565b604435906001600160401b038216820361059f57565b606435906001600160401b038216820361059f57565b608435906001600160401b038216820361059f57565b60e435906001600160801b038216820361059f57565b8015150361059f57565b3461059f5761010036600319011261059f57600435610cd3610c3e565b90610cdc610c54565b6064356001600160801b038116810361059f576084356001600160801b038116810361059f5760a43591610d0f83610cac565b60c43593600d85101561059f57610aab96610d28610c96565b966133a0565b3461059f57602036600319011261059f57600435610d4a614ca2565b7ff316e065e93b4fddef3d2d93a57817985081f76ea9e0ca7417ed5b4b086b1fcb6020601854604051908152a1601855005b805180835260209291819084018484015e5f828201840152601f01601f1916010190565b906020610db1928181520190610d7c565b90565b3461059f57602036600319011261059f57604051610dd360608261137a565b602181527f68747470733a2f2f6170692e6265616d696f2e696f2f6d657461646174612f306020820152600f60fb1b604082015260405190610e3b82610e2d306020830160149160018060601b03199060601b1681520190565b03601f19810184528361137a565b610e43614d06565b91610e4c614d34565b925f5b60148110610eab576040516106cc90610e9f81610e91610e7c8a610e76602085018c613704565b90613704565b683db4b23e973539b7b760b91b815260090190565b03601f19810183528261137a565b60405191829182610da0565b80610ef3610eca610eed610ee7610ede610ed8610eca6001988b614d56565b516001600160f81b03191690565b60f81c90565b60041c600f1690565b60ff1690565b85614d56565b610f09610eff83613acd565b915f1a9188614d56565b53610f2c610eca610eed600f610f25610ed8610eca878b614d56565b1660ff1690565b610f40610eff610f3b84613acd565b61336c565b5301610e4f565b3461059f575f36600319011261059f57602060405160068152f35b805482101561079d575f5260205f2001905f90565b3461059f57602036600319011261059f57600435600b5481101561059f57600b5f527f0175b7a638427703f0dbe7bb9bbf987a2551717b34e79f33b5b1008d1fa01db901546040516001600160a01b039091168152602090f35b3461059f575f36600319011261059f576005546040516001600160a01b039091168152602090f35b6001600160a01b03165f90815260156020526040902090565b6001600160a01b03165f90815260146020526040902090565b6001600160a01b03165f90815260166020526040902090565b9060018060a01b03165f5260205260405f2090565b3461059f57604036600319011261059f576004356110768161058e565b6001600160a01b03165f9081526014602052604090208054602435919082101561059f576020916110a691610f62565b90549060031b1c604051908152f35b3461059f57602036600319011261059f5760806110fc6110f66004355f60606040516110e08161135a565b8281528260208201528260408201520152610781565b50613716565b606060405191805183526020810151602084015260408101516040840152015115156060820152f35b3461059f57602036600319011261059f576004355f526011602052602060405f2054604051908152f35b3461059f57604036600319011261059f5760043560243561116f8161058e565b6006546001600160a01b0316806111d557506005546001600160a01b03165b6001600160a01b03163303610b7f576001600160a01b0381165f908152600a602052604090205460ff16156111c657610aab91614d67565b6363bc5ecb60e11b5f5260045ffd5b61118e565b9181601f8401121561059f578235916001600160401b03831161059f576020808501948460051b01011161059f57565b3461059f5760e036600319011261059f576004356001600160401b03811161059f5761123a9036906004016111da565b60243591604435611249610c6a565b90611252610c80565b60a4356001600160401b03811161059f576112719036906004016111da565b93909260c435976001600160401b03891161059f57611297610aab9936906004016111da565b98909761374d565b3461059f57602036600319011261059f576004356112bc8161058e565b60018060a01b03165f52600a602052602060ff60405f2054166040519015158152f35b3461059f575f36600319011261059f576020601e54604051908152f35b3461059f57602036600319011261059f57610c2e600435610c298161058e565b3461059f57602036600319011261059f576004355f52601b602052602060405f2054604051908152f35b634e487b7160e01b5f52604160045260245ffd5b608081019081106001600160401b0382111761137557604052565b611346565b90601f801991011681019081106001600160401b0382111761137557604052565b604051906113aa60e08361137a565b565b604051906113aa60a08361137a565b6001600160401b0381116113755760051b60200190565b9080601f8301121561059f5781356113e9816113bb565b926113f7604051948561137a565b81845260208085019260051b82010192831161059f57602001905b82821061141f5750505090565b8135815260209182019101611412565b6001600160401b03811161137557601f01601f191660200190565b9291926114568261142f565b91611464604051938461137a565b82948184528183011161059f578281602093845f960137010152565b9080601f8301121561059f57816020610db19335910161144a565b3461059f5760a036600319011261059f576004356114b88161058e565b602435906114c58261058e565b6044356001600160401b03811161059f576114e49036906004016113d2565b6064356001600160401b03811161059f576115039036906004016113d2565b90608435936001600160401b03851161059f57611527610aab953690600401611480565b93613a64565b3461059f57602036600319011261059f576004356001600160401b03811161059f573660238201121561059f5780600401356001600160401b03811161059f573660248260071b8401011161059f576024610aab9201613bd7565b3461059f57602036600319011261059f5760406115a6600435613c74565b825191151582526020820152f35b3461059f57602036600319011261059f576004355f526024602052602060405f2054604051908152f35b3461059f57602036600319011261059f576004355f526025602052602060405f2054604051908152f35b3461059f57604036600319011261059f576116416004356116288161058e565b602435906116346144f9565b61163c614ca2565b6150da565b6001600455005b3461059f575f36600319011261059f576020600954604051908152f35b3461059f57611673366107fc565b6006549091906001600160a01b0316806116d257506005546001600160a01b03165b6001600160a01b03163303610b7f576116ac6144f9565b6001600160a01b03831615610b70578115610b61576116cd6116419361452e565b615289565b611695565b3461059f57604036600319011261059f5760206105d66024356004356116fc8261058e565b5f52601a835260405f20611044565b3461059f575f36600319011261059f576020600754604051908152f35b90602080835192838152019201905f5b8181106117455750505090565b8251845260209384019390920191600101611738565b906020610db1928181520190611728565b3461059f57604036600319011261059f576004356001600160401b03811161059f573660238201121561059f578060040135906117a8826113bb565b916117b6604051938461137a565b8083526024602084019160051b8301019136831161059f57602401905b82821061181357836024356001600160401b03811161059f576106cc916118016118079236906004016113d2565b90613d4c565b6040519182918261175b565b6020809183356118228161058e565b8152019101906117d3565b3461059f5760c036600319011261059f57600435611849610c3e565b611851610c54565b916064356001600160401b03811161059f576118719036906004016111da565b906084356001600160401b03811161059f576118919036906004016111da565b92909160a435966001600160401b03881161059f576118b7610aab9836906004016111da565b979096613dc6565b3461059f575f36600319011261059f57602060405160648152f35b3461059f57604036600319011261059f576004356118f78161058e565b602435906119036144f9565b61190b614ca2565b6001600160a01b03811615610b70578115610b6157602061194c7f3e38a9410c08ddb4af8b083bfd2b197b1c3e61a651bd1c54c51ebce0cdcdc48e9261452e565b61196660405161195c848261137a565b5f815285836147a0565b61197084826153a2565b61197a8482615458565b6040519384526001600160a01b031692a26001600455005b3461059f5760e036600319011261059f576024356004356044356119b4610c6a565b6119bc610c80565b60a4356001600160401b03811161059f576119db9036906004016111da565b909160c4356001600160401b03811161059f576119fc9036906004016111da565b611a046144f9565b611a0c614ca2565b611a14614ef4565b946040519485946020860198630569881360e41b8a528b60248801528c60448801528a60648801526001600160401b031660848701526001600160401b031660a486015260c4850160e09052610104850190611a6f9261380e565b906023198483030160e4850152611a859261380e565b03601f1981018252611a97908261137a565b515a925f93928493f492611aa961388f565b9315611aec576040805191825260208201929092527f5d5ebc8105f0482c05c969b7e79cf039bd47ae3ad5b49c5ffe0e2e1e26f3974f9190a2610aab6001600455565b60405163dccff66960e01b815280611b078660048301610da0565b0390fd5b3461059f57604036600319011261059f57602060ff611b41602435600435611b328261058e565b5f52600d845260405f20611044565b54166040519015158152f35b3461059f57611b5b366107fc565b600654909291906001600160a01b031680611d7657506005546001600160a01b03165b6001600160a01b03163303610b7f57611b956144f9565b6001600160a01b038216918215610b70578315610b6157611bbe825f52601960205260405f2090565b60018101549060ff608083901c1615610b5257805490611be66001600160401b0383166108bd565b4211610b4357611c02604083901c6001600160401b03166108bd565b8711610b3457600554611c1f90610902906001600160a01b031681565b6040516326387a5160e21b81523060048201526024810187905290602090829060449082905afa908115610b2f575f91611d57575b5015610af157600201546001600160801b031615611d4857611c8c61098c6109858861097f8761097a8a5f52601a60205260405f2090565b10610ad357611cad61098c6109b98761097f875f52601b60205260405f2090565b10610ac45780611cea7f3bf2de114e2e7636c289f21be023528e47d89b45e873b976c78989c3ddc683f59261097a855f52601a60205260405f2090565b611cf586825461337f565b9055611d09835f52601b60205260405f2090565b611d1486825461337f565b9055610a83611d228261452e565b91611d36611d2e61338c565b8887866147e5565b61097a855f52601a60205260405f2090565b63225426e360e01b5f5260045ffd5b611d70915060203d602011610b2857610b1a818361137a565b5f611c54565b611b7e565b3461059f57602036600319011261059f57600435611d988161058e565b60018060a01b03165f526015602052602060405f2054604051908152f35b3461059f57604036600319011261059f576060611de0602435600435611ddb8261058e565b613f4d565b6040805193151584526001600160801b039092166020840152151590820152f35b3461059f57602036600319011261059f576004355f526022602052602060405f2054604051908152f35b3461059f57611e39366107fc565b90611e426144f9565b6116ac614ca2565b3461059f575f36600319011261059f57611e6261563f565b600380546001600160a01b031981169091555f906001600160a01b03167f8be0079c531659141344cd1fd0a4f28419497f9722a3daafe3b4186f6b6457e08280a3005b9181601f8401121561059f578235916001600160401b03831161059f576020838186019501011161059f57565b604060031982011261059f57600435906001600160401b03821161059f57611efc91600401611ea5565b9091602435610db18161058e565b3461059f57611f1836611ed2565b6006549091906001600160a01b031680611f5257506005546001600160a01b03165b6001600160a01b03163303610b7f57610aab9261401d565b611f3a565b602060031982011261059f57600435906001600160401b03821161059f57611f81916004016111da565b9091565b9291604084019360408152825180955260206060820193015f955b808710611fbc575050610db19394506020818403910152611728565b909360208060019287511515815201950196019590611fa0565b3461059f57611fe436611f57565b90611fee82613d1a565b90611ff883613d1a565b925f5b818110612014575050506106cc60405192839283611f85565b8061202c6120256001938587614223565b369161144a565b6020815191012061203c816105df565b9061204c825460ff9060a01c1690565b15612080575061206e90612069612063848961394c565b60019052565b614f81565b612078828861394c565b525b01611ffb565b61208a915061060c565b805460ff811690816120ca575b506120a3575b5061207a565b6120b9906120b4612063848961394c565b615025565b6120c3828861394c565b525f61209d565b60881c63ffffffff16151590505f612097565b3461059f57602036600319011261059f576004355f526020805260206001600160401b0360405f205416604051908152f35b3461059f57604036600319011261059f57610aab60043561212f8161058e565b6024359061213b614ca2565b61568f565b3461059f57602036600319011261059f5760043561215d8161058e565b60018060a01b03165f52600f602052602060ff60405f2054166040519015158152f35b3461059f5760a036600319011261059f5760043561219d816106ed565b602435906121aa8261058e565b604435906064356084356006549094906001600160a01b0316806122c857506005546001600160a01b03165b6001600160a01b03163303610b7f576106cc9461225992600e54956121fa87614264565b600e5561221761220861139b565b6001600160a01b039095168552565b6020840152604083015260608201526001600160e01b0319831660808201525f60a08201525f60c0820152612254845f52600c60205260405f2090565b614272565b33906001600160e01b031916827f5cad714c75d7c75eabb440ba28d3f6a407c16bf6e9c4f54fa1fdddc068de20745f80a4335f908152600a602052604090206122a4905b5460ff1690565b6122b9575b6040519081529081906020820190565b6122c33382614d67565b6122a9565b6121d6565b3461059f57602036600319011261059f576004356122e9614ca2565b8015612320576020817fd45b01a2f21a7aa8a0f57023efdce73147de071e77875c3f4d486b1e13eaef7092600755604051908152a1005b6376024b7160e01b5f5260045ffd5b3461059f57602036600319011261059f577fc52867146282c253c04e94eb2a948478a1f7ef84cf2d6f5864facc99f2203f2c602060043561236f81610cac565b612377614ca2565b151560ff196010541660ff821617601055604051908152a1005b3461059f57602036600319011261059f576004355f526021602052602060405f2054604051908152f35b3461059f575f36600319011261059f576003546040516001600160a01b039091168152602090f35b3461059f57602036600319011261059f576020612401600435614308565b6040519015158152f35b3461059f57602036600319011261059f575f806004356124296144f9565b612431614ca2565b612439614ef4565b9060405160208101916348d7f0b960e11b835260248201526024815261246060448261137a565b51915af461246c61388f565b9015612479576001600455005b60405163dccff66960e01b8152908190611b079060048301610da0565b3461059f57602036600319011261059f576004356124b38161058e565b60018060a01b03165f526016602052602060405f2054604051908152f35b3461059f575f36600319011261059f576006546040516001600160a01b039091168152602090f35b3461059f57602036600319011261059f576004355f526023602052602060405f2054604051908152f35b3461059f57602036600319011261059f57600435335f52600a60205260ff60405f205416156111c657610aab903390614d67565b3461059f575f36600319011261059f576020600854604051908152f35b3461059f57602036600319011261059f576004355f908152601960209081526040918290208054600182015460029092015484516001600160401b03808416825283871c1694810194909452608091821c948401949094526001600160801b03808316606085015260ff83831c8116151592850192909252608883901c821660a085015260909290921c1660c083015290911660e082015261010090f35b604090600319011261059f5760043561262a8161058e565b90602435610db181610cac565b3461059f5761264536612612565b6001600160a01b0382169182156126b0578161266f61268092335f52600160205260405f20611044565b9060ff801983541691151516179055565b60405190151581527f17307eab39ab6107e8899845ad3d59bd9653f200f220920489ca2b5937696c3160203392a3005b62ced3e160e81b5f525f60045260245ffd5b3461059f57604036600319011261059f576004356001600160401b03811161059f576126f29036906004016111da565b602435916126ff8361058e565b6006546001600160a01b03168061296857506005546001600160a01b03165b6001600160a01b03163303610b7f576127356144f9565b6001600160a01b03831615610b70578115612959575f9182918461277c61275a614ef4565b93610e91604051938492602084019663bca0e27d60e01b8852602485016143a9565b51915af49061278961388f565b911561293e576127a260208351840101602084016144a8565b9293915093845183510361247957506127ba9061452e565b906127c482614638565b6127cd82610ff9565b54155f925f945f5b875181101561281a576127e8818961394c565b51156127f7575b6001016127d5565b95509361280f90612808878661394c565b519061337f565b6001959094906127ef565b509093919415612936575b50838061292b575b612903575b806128ec575b5f5b85518110156128c35761284d818461394c565b51908115610b6157600191612862828961394c565b51156128bd5764174876e800612878838a61394c565b5110612899576128939061288c838a61394c565b5187615289565b0161283a565b6128b8906128a7838a61394c565b51906128b161338c565b91886147e5565b612893565b50612893565b838286156128de576128d491614840565b610aab6001600455565b6128e791615458565b6128d4565b6128fe6128f761338c565b82856147a0565b612838565b61291361290e615748565b610781565b50548110156128325763559d06d760e01b5f5260045ffd5b50601754151561282d565b90505f612825565b60405163dccff66960e01b815280611b078460048301610da0565b63fb713d2b60e01b5f5260045ffd5b61271e565b3461059f575f36600319011261059f576020601854604051908152f35b3461059f575f36600319011261059f57602060405164174876e8008152f35b3461059f57604036600319011261059f576004356129c68161058e565b60065460243591906001600160a01b031680612a8a57506005546001600160a01b03165b6001600160a01b03163303610b7f57612a016144f9565b6001600160a01b038116908115610b70578215610b61576020612a447f6ac4f60455173f2148d89d52868ac4ffb14111720d245aa36ad26e0d7e64c59b9261452e565b612a5e604051612a54848261137a565b5f815286836147a0565b612a6885826153a2565b612a728582615458565b6040519485526001600160a01b031693a36001600455005b6129ea565b3461059f57602036600319011261059f576004355f52601f60205260206001600160401b0360405f205416604051908152f35b3461059f5760c036600319011261059f57600435612ade610c3e565b90612ae7610c54565b6064359160a435608435612af96144f9565b612b01614ca2565b8415610b61576001600160401b0384168015159081612c62575b50612c405791612c336106cc96927f0d52bfb4760322d7d520c725a53d2a1b3a1d17bdc1615c95867a525cbf7916f394601e54978897612b62612b5d8a614264565b601e55565b85612b758a5f52602160205260405f2090565b55612ba787612b8c8b5f52601f60205260405f2090565b906001600160401b03166001600160401b0319825416179055565b612bbc81612b8c8b5f526020805260405f2090565b81612bcf8a5f52602360205260405f2090565b5582612be38a5f52602560205260405f2090565b5583612bf78a5f52602260205260405f2090565b5560405196879687926001600160401b03908160a096939998979460c087019a8752166020860152166040840152606083015260808201520152565b0390a26122a96001600455565b630640952160e21b5f526001600160401b03808716600452841660245260445ffd5b90506001600160401b038716115f612b1b565b3461059f575f36600319011261059f5760206040515f8152f35b3461059f57602036600319011261059f576004356001600160401b03811161059f57612cbf903690600401611ea5565b90612cc86144f9565b612cd0614ca2565b5f80612cda614ef4565b6040516365e270d560e11b6020808301918252602483015290612d0581610e91604482018a8a614389565b51915af491612d1261388f565b9215612d5957612d249250369161144a565b602081519101207fc0701a0c15577896ad516e3ca2668eb0cee26a8f32bc862c0d94950619e368035f80a2610aab6001600455565b60405163dccff66960e01b815280611b078560048301610da0565b3461059f57602036600319011261059f576004355f526012602052602060405f2054604051908152f35b3461059f57602036600319011261059f57600435612dba614ca2565b60085460408051918252602082018390527f1c8121c98d871a1523a6112e29ac660378afbcb9b921cff8f187c3da35d1708191a1600855005b3461059f575f36600319011261059f57602060ff601054166040519015158152f35b3461059f575f36600319011261059f576040517f00000000000000000000000000000000000000000000000000000000000000006001600160a01b03168152602090f35b3461059f575f36600319011261059f576020600e54604051908152f35b3461059f57608036600319011261059f57604435600435606435602435612e9c82610cac565b612ea4614ca2565b8215612f84576017549160405194612ebb8661135a565b8486526020860192808452604087019382855260608801978415158952600160401b8710156113755760018701601755612ef487610781565b919091612f7f577fb08290a3275552d4032ce96418c8bc739fd6be2860fe5897558f5c0af90e91fb99612f7a97612f4d9460039351855551600185015551600284015551151591019060ff801983541691151516179055565b6040519586958693909594919260809360a086019786526020860152604085015260608401521515910152565b0390a1005b613ae3565b639033099360e01b5f5260045ffd5b3461059f57602036600319011261059f576004355f52601c602052602060ff60405f2054166040519015158152f35b3461059f57610aab612fd336612612565b90612fdc614ca2565b60018060a01b03165f52600f60205260405f209060ff801983541691151516179055565b600d111561300a57565b634e487b7160e01b5f52602160045260245ffd5b3461059f575f36600319011261059f5760ff60065460a01c16604051600d82101561300a576020918152f35b3461059f57604036600319011261059f57602060ff611b4160043561306e8161058e565b6024359061307b8261058e565b6001600160a01b03165f9081526001855260409020611044565b3461059f5760a036600319011261059f576004356130b28161058e565b6024356130be8161058e565b60443590606435926084356001600160401b03811161059f576130e5903690600401611480565b926001600160a01b0382163381141580613162575b61314c576001600160a01b03841615613139571561312757610aab9461311f916157e6565b929091615975565b626a0d4560e21b5f525f60045260245ffd5b632bfa23e760e11b5f525f60045260245ffd5b63711bec9160e11b5f523360045260245260445ffd5b50805f52600160205260ff61317a3360405f20611044565b5416156130fa565b3461059f57602036600319011261059f5760043561319f8161058e565b6131a761563f565b6001600160a01b031680156131f957600380546001600160a01b0319811683179091556001600160a01b03167f8be0079c531659141344cd1fd0a4f28419497f9722a3daafe3b4186f6b6457e05f80a3005b631e4fbdf760e01b5f525f60045260245ffd5b3461059f5761321a36611f57565b9061322482613d1a565b9061322e83613d1a565b925f5b81811061324a575050506106cc60405192839283611f85565b8061325860019284866138be565b35613262816105df565b90613272825460ff9060a01c1690565b1561329b575061328990612069612063848961394c565b613293828861394c565b525b01613231565b6132a5915061060c565b805460ff811690816132e0575b506132be575b50613295565b6132cf906120b4612063848961394c565b6132d9828861394c565b525f6132b8565b60881c63ffffffff16151590505f6132b2565b3461059f57602036600319011261059f576004355f526013602052602060405f2054604051908152f35b3461059f575f36600319011261059f576020604051600a8152f35b9081602091031261059f5751610db181610cac565b6040513d5f823e3d90fd5b634e487b7160e01b5f52601160045260245ffd5b906001820180921161337a57565b613358565b9190820180921161337a57565b6040519061339b60208361137a565b5f8252565b60065490979296959194906001600160a01b03168061357f57506005546001600160a01b03165b6001600160a01b03163303610b7f57875f52601c60205260ff60405f205416613570576134f661356b966134d36135099461349861352c986134787ff236e4a60720cc79b1fa956ec64fd78f4d702ba14614ed969c4912a86a3e99519d8f5f52601960205261345060405f209d8e906001600160401b03166001600160401b0319825416179055565b8c5467ffffffffffffffff60401b191660409190911b67ffffffffffffffff60401b16178c55565b8a546001600160801b031660809190911b6001600160801b031916178a55565b6001890180546001600160801b0319166001600160801b03909616959095178555845460ff60801b191690151560801b60ff60801b16178455565b6134dc81613000565b825460ff60881b191660889190911b60ff60881b16178255565b805460ff60901b1916600360911b179055565b6002830180546001600160801b0319166001600160801b03909216919091179055565b61353d61353882613584565b614be2565b61355f613552855f52601c60205260405f2090565b805460ff19166001179055565b6040519182918261366d565b0390a2565b6325ddcb7760e21b5f5260045ffd5b6133c7565b906040516101008101908082106001600160401b03831117611375576113aa9160405260e061365f600283966136016135f182546001600160401b03811688526135eb6135db826001600160401b039060401c1690565b6001600160401b031660208a0152565b60801c90565b6001600160801b03166040870152565b60018101546001600160801b03811660608701526136519061364790613631608082901c60ff16151560808a0152565b60ff608882901c1660a089015260901c60ff1690565b60ff1660c0870152565b01546001600160801b031690565b6001600160801b0316910152565b6113aa9092919260e061365f60026101008401966136be81546136a1876001600160401b0383166001600160401b03169052565b604081901c6001600160401b0316602088015260801c6040870152565b60018101546001600160801b0381166060870152613651906136ea6080880160ff8360801c1615159052565b608881901c60ff1660a088015260901c60ff1660c0870152565b805191908290602001825e015f815290565b906040516137238161135a565b606060ff600383958054855260018101546020860152600281015460408601520154161515910152565b9881610e9161379a92859b879b8e97969b5f9b8c9b61376a6144f9565b613772614ca2565b61377a614ef4565b9b6040519a8b9960208b019d8e631163081760e11b905260248c01613832565b51915af46137a661388f565b901561247957505f5b8181106137c55750505050506113aa6001600455565b806137d360019284886138be565b60408051878152602081018790529135917f5d5ebc8105f0482c05c969b7e79cf039bd47ae3ad5b49c5ffe0e2e1e26f3974f9190a2016137af565b81835290916001600160fb1b03831161059f5760209260051b809284830137010190565b989692946001600160401b039290610db19b999561385d6138819994869460e08f818152019161380e565b9760208d015260408c01521660608a015216608088015286830360a088015261380e565b9260c081850391015261380e565b3d156138b9573d906138a08261142f565b916138ae604051938461137a565b82523d5f602084013e565b606090565b919081101561079d5760051b0190565b906138d8826113bb565b6138e5604051918261137a565b82815280926138f6601f19916113bb565b015f5b81811061390557505050565b6040519060a08201918083106001600160401b03841117611375576020926040525f81525f838201525f60408201525f60608201525f6080820152828286010152016138f9565b805182101561079d5760209160051b010190565b9061396a82611012565b918254613976816138ce565b935f5b8281106139b95750505f808052602052506139b4907fad3228b676f7d3cd4284a5443f17f1962b36e491b30a40b2405849e597ba5fb5611044565b549190565b806139d36139c960019385610f62565b90549060031b1c90565b613a3d6139e8825f52601160205260405f2090565b548015159081613a59575b613a05845f52601260205260405f2090565b54613a18855f52601360205260405f2090565b5490613a226113ac565b95865260208601526040850152606084015215156080830152565b613a47828961394c565b52613a52818861394c565b5001613979565b8091504211906139f3565b939291906001600160a01b0385163381141580613a9d575b61314c576001600160a01b038216156131395715613127576113aa94615975565b50805f52600160205260ff613ab53360405f20611044565b541615613a7c565b919081101561079d5760071b0190565b908160011b918083046002149015171561337a57565b634e487b7160e01b5f525f60045260245ffd5b6017545f60175580613b055750565b600281901b906001600160fe1b0381160361337a5760175f5260205f205f5b828110613b3057505050565b805f60036004938501828155826001820155826002820155015501613b24565b601754600160401b811015611375576001810160175560175481101561079d5760175f5260021b7fc624b66cc0138b8fabc209247f72d758e1cf3343756d543badbf24212bed8c1501600360606113aa93803584556020810135600185015560408101356002850155013591613bc583610cac565b019060ff801983541691151516179055565b613bdf614ca2565b8115613c65575f5b828110613c4c5750613bf7613af6565b5f5b828110613c305750506040519081527f2f291eaf494dc7eca20457441a1df7d9119f0c0d764309daf9cb6b148810ee3690602090a1565b80613c46613c416001938686613abd565b613b50565b01613bf9565b613c57818484613abd565b3515612f8457600101613be7565b6308ba5b6160e01b5f5260045ffd5b805f527fcb1a422c9916903f224af4db9a3bf1529921bf95ff7b75d7d9ed9073a48394ab60205260405f2060ff815460a01c16613d1057505f527fcb1a422c9916903f224af4db9a3bf1529921bf95ff7b75d7d9ed9073a48394ac60205260405f20805460ff81169081613cfd575b50613cef57505f905f90565b613cf890615025565b600191565b63ffffffff915060881c1615155f613ce3565b613cf89150614f81565b90613d24826113bb565b613d31604051918261137a565b8281528092613d42601f19916113bb565b0190602036910137565b91909180518351808203613db1575050613d668151613d1a565b905f5b8151811015613daa5780613d9860019260051b602080828701015191890101515f525f60205260405f20611044565b54613da3828661394c565b5201613d69565b5090925050565b635b05999160e01b5f5260045260245260445ffd5b9694929095919793613dd66144f9565b613dde614ca2565b613de6614ef4565b986040519760208901996352b9ec2360e01b8b5260248a01526001600160401b031660448901526001600160401b031660648801526084870160c0905260e4870190613e3192613ec5565b906023198683030160a4870152613e4792613ec5565b8381036023190160c485015281815260200191905f905b808210613e9d575050509181613e805f9593869503601f19810183528261137a565b51915af4613e8c61388f565b901561247957506113aa6001600455565b90919283359063ffffffff821680920361059f57602081600193829352019401920190613e5e565b90602083828152019060208160051b85010193835f915b838310613eec5750505050505090565b909192939495601f198282030186528635601e198436030181121561059f57830190602082359201916001600160401b03811161059f578060051b3603831361059f57613f3f602092839260019561380e565b980196019493019190613edc565b90613f57826105df565b5460ff8160a01c166140085750613f6d8261060c565b5460ff81169081613ff5575b50613f885750505f905f905f90565b6001600160a01b03811615159182613fb4575b5050613fab576001905f90600190565b5f905f90600190565b613fee92509061097a61229d925f527fcb1a422c9916903f224af4db9a3bf1529921bf95ff7b75d7d9ed9073a48394ad60205260405f2090565b5f80613f9b565b60881c63ffffffff16151590505f613f79565b6001936001600160801b0390911692505f9150565b6140256144f9565b6001600160a01b03831615610b70575f91829184614066614044614ef4565b93610e91604051938492602084019663fd44e85560e01b885260248501615666565b51915af49161407361388f565b9215612d595761408c60208451850101602085016144a8565b9294915094855183510361247957506140a49061452e565b6140ad81614638565b6140b681610ff9565b5415905f935f955f5b88518110156140fd576140d2818a61394c565b51156140e1575b6001016140bf565b9650946140f290612808888761394c565b6001969095906140d9565b509092959491941561421b575b508480614210575b6141ed575b806141d6575b5f5b86518110156141a857614132818561394c565b51908115610b6157600191614147828a61394c565b51156141a25764174876e80061415d838b61394c565b511061417e5761417890614171838b61394c565b5188615289565b0161411f565b61419d9061418c838b61394c565b519061419661338c565b91896147e5565b614178565b50614178565b509293915093505f146141c8576141be91614840565b6113aa6001600455565b6141d191615458565b6141be565b6141e86141e161338c565b82866147a0565b61411d565b6141f861290e615748565b50548110156141175763559d06d760e01b5f5260045ffd5b506017541515614112565b90505f61410a565b919081101561079d5760051b81013590601e198136030182121561059f5701908135916001600160401b03831161059f57602001823603811361059f579190565b5f19811461337a5760010190565b815181546001600160a01b0319166001600160a01b039190911617815560208201516001820155604082015160028201556060820151600382015560808201516113aa926006916142f59160c0916142e4906001600160e01b031916600487019060e01c63ffffffff19825416179055565b60a081015160058601550151151590565b91019060ff801983541691151516179055565b64174876e800811061437a57805f52601f6020526001600160401b0360405f205416905f52602080526001600160401b0360405f20541690801515908161437f575b5061437a576001600160401b03168015159081614370575b5061436c57600190565b5f90565b905042115f614362565b505f90565b905042105f61434a565b908060209392818452848401375f828201840152601f01601f1916010190565b93929190816040860160408752526060850160608360051b87010192825f90601e19813603015b8383106143f3575050505050509060206113aa9294019060018060a01b03169052565b909192939495605f198a820301865286358281121561059f57830190602082359201916001600160401b03811161059f57803603831361059f5761443d6020928392600195614389565b9801960194930191906143d0565b9080601f8301121561059f578151614462816113bb565b92614470604051948561137a565b81845260208085019260051b82010192831161059f57602001905b8282106144985750505090565b815181526020918201910161448b565b9060808282031261059f5781519260208301519260408101516001600160401b03811161059f57836144db91830161444b565b9260608201516001600160401b03811161059f57610db1920161444b565b60026004541461450a576002600455565b633ee5aeb560e01b5f5260045ffd5b9081602091031261059f5751610db18161058e565b60055460049060209061454b90610902906001600160a01b031681565b604051630e83251360e01b815292839182905afa908115610b2f575f91614609575b506001600160a01b031680156145fa576040516303330c7960e41b81526001600160a01b038316600482015290602090829060249082905afa908115610b2f575f916145db575b506145c257610db190614ace565b803b156145cc5790565b632ad05f3360e11b5f5260045ffd5b6145f4915060203d602011610b2857610b1a818361137a565b5f6145b4565b63ab82bb9960e01b5f5260045ffd5b61462b915060203d602011614631575b614623818361137a565b810190614519565b5f61456d565b503d614619565b61464181610ff9565b548061474f575b509061465382611012565b918254156147355782546017545f1992915f91825b82811061468b575050506146889293945061468282610ff9565b5561102b565b55565b6146986139c9828a610f62565b6146ad8661097a835f525f60205260405f2090565b541561472c576146bc816157c6565b61472c576146d2815f52601360205260405f2090565b549083821015614722575f1988148015614705575b6146f8575b50506001905b01614668565b909650935060015f6146ec565b5061470f82610781565b505461471a89610781565b5054106146e7565b50506001906146f2565b506001906146f2565b6113aa919250805f61468261474993610ff9565b5f199055565b6147648261097a835f525f60205260405f2090565b5415158061478e575b1561464857614787614688915f52601360205260405f2090565b549161102b565b5061479b6108a4826157c6565b61476d565b9091906001600160a01b03811615613139576147bf6113aa935f6157e6565b9161580b565b9091906001600160a01b03811615613139576147bf60016113aa946157e6565b919291906001600160a01b03821615613139576113aa936147bf916157e6565b80549190600160401b83101561137557826148289160016113aa95018155610f62565b90919082549060031b91821b915f19901b1916179055565b9061484a82610ff9565b54614abf57601754156149df575f19915f915f90601754915b82811061497b575050505f198314614976576146889161488284615b3c565b8061496657505f905b601d549182916148a261489d84614264565b601d55565b6148b46148ad61338c565b84876147c5565b816148c7845f52601160205260405f2090565b556148da835f52601260205260405f2090565b55856148ee835f52601360205260405f2090565b55614901826148fc86611012565b614805565b7fa1617247f4f1078375680895d347eab75e7ccbda5c9bde1acb40416494a1683861495a61492e88610781565b5054604080518a815260208101929092528101939093526001600160a01b038616929081906060820190565b0390a361468282610ff9565b614970904261337f565b9061488b565b505050565b61498481610781565b5054821015614996575b600101614863565b5f19861480156149c2575b1561498e5794508493506001806149b786610781565b50015494905061498e565b506149cc81610781565b50546149d787610781565b5054106149a1565b506147496113aa9160085480155f14614ab057505f5b601d548091614a0661489d83614264565b614a18614a1161338c565b83866147c5565b80614a2b835f52601160205260405f2090565b55601854614a41835f52601260205260405f2090565b55614a57614749835f52601360205260405f2090565b614a64826148fc86611012565b604080515f1981525f6020820152908101919091526001600160a01b038416907fa1617247f4f1078375680895d347eab75e7ccbda5c9bde1acb40416494a1683890806060810161495a565b614aba904261337f565b6149f5565b630275df1160e01b5f5260045ffd5b600554600490602090614aeb90610902906001600160a01b031681565b60405163fb3894d360e01b815292839182905afa908115610b2f575f91614bc3575b506001600160a01b0381169182156145fa576040516308a8c59960e01b81526001600160a01b038216600482015292602090849060249082905afa928315610b2f575f93614ba2575b506001600160a01b038316158015614b99575b614b7257505090565b63ad12d34160e01b5f526001600160a01b039081166004529081166024521660445260645ffd5b50823b15614b69565b614bbc91935060203d60201161463157614623818361137a565b915f614b56565b614bdc915060203d60201161463157614623818361137a565b5f614b0d565b614bf26108a46080830151151590565b80614c81575b614c5457600660ff614c0e60c084015160ff1690565b1603614c54576001600160401b03614c3060208301516001600160401b031690565b1615614c545760408101516001600160801b031615908115614c63575b50614c5457565b633c425ec360e21b5f5260045ffd5b60600151614c7a91506001600160801b031661098c565b155f614c4d565b506001600160401b03614c9b82516001600160401b031690565b1615614bf8565b6006546001600160a01b031680614d0157506005546001600160a01b03165b6003546001600160a01b03163314159081614ced575b50614cde57565b630fc5e1ab60e41b5f5260045ffd5b6001600160a01b031633141590505f614cd7565b614cc1565b60405190614d1560408361137a565b601082526f181899199a1a9b1b9c1cb0b131b232b360811b6020830152565b60405160609190614d45838261137a565b6028815291601f1901366020840137565b90815181101561079d570160200190565b90614d7a825f52600c60205260405f2090565b60ff6006820154166129595760ff614d9e8361097a865f52600d60205260405f2090565b541661295957600590614dc06135528461097a875f52600d60205260405f2090565b0190614dcc8254614264565b82556001600160a01b0316827f049c28adfe50bcf1b76fd95273b6a24566b9f377e52fddc653c3355248dad07a5f80a3546009541115614e095750565b614e1b815f52600c60205260405f2090565b60068101805460ff1661295957805460ff1916600117905560048101546001600160e01b03199060e01b16637fcb29c960e01b8103614e9557508054600190910154614e6f916001600160a01b031661568f565b7f712ae1383f79ac853f8d882153778e0260ef8f03b504e2866e0593e04d2b291f5f80a2565b631cb4772560e21b8103614ecd57508054614ec891906001906001600160a01b0316910154614ec261338c565b916147a0565b614e6f565b63178fb21b60e11b03612959578054600290910154614ec8916001600160a01b03166150da565b6005546001600160a01b0316908115828115614f77575b506145fa57602060049260405193848092620c3c5d60e81b82525afa918215610b2f575f92614f56575b506001600160a01b03821615614f4757565b63a9d04f8760e01b5f5260045ffd5b614f7091925060203d60201161463157614623818361137a565b905f614f35565b90503b155f614f0b565b60018060801b038154169060028101600381549201908154838110615004575b5060408311614ffb575b5f5b838110614fbb575050505090565b614fc58183610f62565b90549060031b1c15614fda575b600101614fad565b93614fe58584610f62565b90549060031b1c810180911161337a5793614fd2565b60409250614fab565b92505f614fa1565b805482101561079d575f52600360205f20910201905f90565b60010180545f91602082116150d1575b5f5b8281106150445750505090565b61504e818361500c565b50600181016002815492019081548381106150c9575b50604083116150c0575b5f5b8381106150835750505050600101615037565b6150906139c98284610f62565b1561509e575b600101615070565b966150b86001916150b26139c98b87610f62565b9061337f565b979050615096565b6040925061506e565b92505f615064565b60209150615035565b6001600160a01b03811615610b7057601754801561523b5782101561523b576151029061452e565b61510b81610ff9565b548015159081615227575b50614abf577fef80dfae739c4e8cf106d33ce054e670379e6a87d72585303558960b7675844c601d549261514c61489d85614264565b602061515a6110f683610781565b61516383615b3c565b61517561516e61338c565b88886147c5565b8061521857505f5b61518f875f52601160205260405f2090565b55019081516151a6865f52601260205260405f2090565b55806151ba865f52601360205260405f2090565b556151c8856148fc86611012565b846151d285610ff9565b556151dc8461102b565b5551916151f1845f52601160205260405f2090565b546040805194855260208501919091526001600160a01b039091169290819081015b0390a3565b615222904261337f565b61517d565b61523591506108a4906157c6565b5f615116565b63c759a36760e01b5f5260045ffd5b5f1981019190821161337a57565b9190820391821161337a57565b90949392606092608083019660018060a01b03168352602083015260408201520152565b64174876e8008210615385576152a7825f52602360205260405f2090565b54801561536c576152c0835f52602460205260405f2090565b5490806152cd868461337f565b1161534257507fae2f87dbf103db294ddd4ab45caa7a914d70bb3d06eeb8a8dc23e03e84548c8d91615302856152139361337f565b615314855f52602460205260405f2090565b5561532861532061338c565b8686846147e5565b6040519485526001600160a01b0316939081906020820190565b611b0792509061535191615258565b9260405193849363406e3ab960e01b85523060048601615265565b631f21179960e21b5f908152600484905260245260445ffd5b631f21179960e21b5f52600482905264174876e80060245260445ffd5b6153ab9061452e565b906153b582614638565b6153be82610ff9565b5461545457601754156149df575f19915f915f90601754915b8281106153f6575050505f198314614976576146889161488284615b3c565b6153ff81615b5a565b82101561540f575b6001016153d7565b5f198614801561543b575b1561540757945084935060018061543086610781565b500154949050615407565b5061544581615b5a565b61544e87615b5a565b1061541a565b5050565b601754156154545761546981614638565b61547281610ff9565b549081158015615630575b6149765761548a8161102b565b5460175481101561562a5761549e81615b68565b935f198514615610576154b36110f686610781565b906154c16060830151151590565b1561561757505f8080526020526154f8837fad3228b676f7d3cd4284a5443f17f1962b36e491b30a40b2405849e597ba5fb5611044565b5481511161561057614688936020925b61551187615b3c565b806155dd57507fdb8805d9b276e7aa729ceec69dcc9dce3e97c50e69f3d906ebc3ed79951405686155d15f5b601d5496879661554f61489d89614264565b82615562895f52601160205260405f2090565b550151615577875f52601260205260405f2090565b558961558b875f52601360205260405f2090565b55615599866148fc8a611012565b6155ab6155a461338c565b878a6147c5565b60408051948552602085018b90528401526001600160a01b038716929081906060820190565b0390a461468282610ff9565b6155d161560b7fdb8805d9b276e7aa729ceec69dcc9dce3e97c50e69f3d906ebc3ed7995140568924261337f565b61553d565b5050505050565b8151116156105761468893602092615508565b50505050565b5061563a826157c6565b61547d565b6003546001600160a01b0316330361565357565b63118cdaa760e01b5f523360045260245ffd5b9160209161567f91959495604085526040850191614389565b6001600160a01b03909416910152565b6001600160a01b038116908115610b7057815f52600a60205260ff60405f205416156156c6575b5050600b54811161295957600955565b6001600160a01b03165f908152600a602052604090206156e590613552565b600b54600160401b8110156113755760018101600b55600b5481101561079d57600b5f9081527f0175b7a638427703f0dbe7bb9bbf987a2551717b34e79f33b5b1008d1fa01db99190910180546001600160a01b031916909217909155806156b6565b60175480156157c0575f906017541561079d5760175f527fc624b66cc0138b8fabc209247f72d758e1cf3343756d543badbf24212bed8c155460015b8281106157915750505090565b8161579b82610781565b5054106157ab575b600101615784565b8093506157b89150610781565b5054826157a3565b505f1990565b5f52601160205260405f205480151590816157df575090565b9050421190565b9160405192600184526020840152604083019160018352606084015260808301604052565b92939091935f5b835181101561591857615825818561394c565b5160648110158061590a575b6158d35715806158cc575b61584b575b6001905b01615812565b60105460ff1661585b575b615841565b5f8052600f60205261588f6108a47ff4803e074bd026baaf6ed2e288c9515f68c72fb7216eebdd7cae1718a53ec37561229d565b15615841576001600160a01b0385165f908152600f602052604090206158b8906108a49061229d565b1561585657639798976560e01b5f5260045ffd5b505f61583c565b600191906001600160a01b0387161580615903575b6158f3575b50615845565b6158fd905f615e43565b5f6158ed565b505f6158e8565b5064174876e8008110615831565b50919390936159298282865f615f07565b6001600160a01b03841661593d5750505050565b8051600103615965579060208061595c95930151910151915f33615d6a565b5f80808061562a565b615970935f33615c3b565b61595c565b929490936001600160a01b0384161580159490939092859283615b29575b5f5b8351811015615ac7576159a8818561394c565b51606481101580615ab9575b615a56571580615a4f575b6159ce575b6001905b01615995565b60105460ff166159de575b6159c4565b5f8052600f602052615a126108a47ff4803e074bd026baaf6ed2e288c9515f68c72fb7216eebdd7cae1718a53ec37561229d565b156159c4576001600160a01b0389165f908152600f60205260409020615a3b906108a49061229d565b156159d957639798976560e01b5f5260045ffd5b50876159bf565b908786615aa8575b15615a99576001916001600160a01b038b161580615a92575b615a82575b506159c8565b615a8c9088615e43565b5f615a7c565b5086615a77565b63b8333dc960e01b5f5260045ffd5b506001600160a01b038a1615615a5e565b5064174876e80081106159b4565b50955096929350949050615add82868386615f07565b6001600160a01b038116615af2575050505050565b8451600103615b1857602080615b0e9601519201519233615d6a565b5f80808080615610565b615b2494919233615c3b565b615b0e565b6001600160a01b03881615159650615993565b615b47600291610781565b5001548015615b535790565b5060085490565b615b6390610781565b505490565b6017549081811015615bcc57615b7d90610781565b50545f199190825f5b838110615b94575050505090565b615b9d81610781565b505483811180615bc3575b615bb6575b50600101615b86565b9150935060018490615bad565b50828110615ba8565b50505f1990565b9081602091031261059f5751610db1816106ed565b6001600160a01b0391821681529116602082015260a060408201819052610db19491939192615c2d9291615c1f9190860190611728565b908482036060860152611728565b916080818403910152610d7c565b9091949293853b615c4f575b505050505050565b602093615c7191604051968795869563bc197c8160e01b875260048701615be8565b03815f6001600160a01b0387165af15f9181615d00575b50615cc25750615c9661388f565b8051919082615cbb57632bfa23e760e11b5f526001600160a01b03821660045260245ffd5b6020915001fd5b6001600160e01b0319166343e6837f60e01b01615ce557505f8080808080615c47565b632bfa23e760e11b5f526001600160a01b031660045260245ffd5b615d2391925060203d602011615d2a575b615d1b818361137a565b810190615bd3565b905f615c88565b503d615d11565b6001600160a01b039182168152911660208201526040810191909152606081019190915260a060808201819052610db192910190610d7c565b9091949293853b615d7d57505050505050565b602093615d9f91604051968795869563f23a6e6160e01b875260048701615d31565b03815f6001600160a01b0387165af15f9181615de7575b50615dc45750615c9661388f565b6001600160e01b031916630dc5919f60e01b01615ce557505f8080808080615c47565b615e0191925060203d602011615d2a57615d1b818361137a565b905f615db6565b80548015615e2f575f190190615e1e8282610f62565b8154905f199060031b1b1916905555565b634e487b7160e01b5f52603160045260245ffd5b6001600160a01b0381165f90815260146020526040812092905b835480821015615ed85782615e728387610f62565b90549060031b1c14615e875750600101615e5d565b615eb592939491614828615ea96139c9615ea3615eb09561524a565b86610f62565b9184610f62565b615e08565b615ebe82610ff9565b5414615ec75750565b614749815f6146826113aa94610ff9565b5050909150615eb5565b9091615ef9610db193604084526040840190611728565b916020818403910152611728565b93929180518351908181036160945750505f5b8151811015615fee578060051b90602080838501015192860101518460018060a01b038916615f89575b6001936001600160a01b038216615f5f575b50505001615f1a565b615f7f9161097a615f77925f525f60205260405f2090565b91825461337f565b90555f8481615f56565b509091615fa18861097a835f525f60205260405f2090565b54828110615fcf57829160019493879203615fc78b61097a845f525f60205260405f2090565b559350615f44565b88611b0783856040519485946303dee4c560e01b865260048601615265565b508051939493919291600103616051576020908101519181015160408051938452918301526001600160a01b03928316939092169133917fc3d58168c5ae7397731d063d5bbf3d657854427343f4c083240f7aacaa2d0f6291819081015b0390a4565b6040516001600160a01b03938416949093169233927f4a39dc06d4c0dbc64b70af90fd698a233a518aa5d07e595d983b8c0526c8f7fb92829161604c9183615ee2565b635b05999160e01b5f5260045260245260445ffdfea2646970667358221220bab469e92fda828eadf288457b0541b59e4d929709112ded8d23e6d17015700564736f6c63430008210033",
  "linkReferences": {},
  "deployedLinkReferences": {},
  "immutableReferences": {
    "14114": [
      {
        "length": 32,
        "start": 11818
      }
    ]
  },
  "inputSourceName": "project/src/BeamioUserCard/BeamioUserCard.sol",
  "buildInfoId": "solc-0_8_33-c93c8589387b118a8e57b215d51663cf872eec73"
}