{
  "_format": "hh3-artifact-1",
  "contractName": "BeamioUserCardFactoryPaymasterV07",
  "sourceName": "src/BeamioUserCard/BeamioUserCardFactoryPaymasterV07.sol",
  "abi": [
    {
      "inputs": [
        {
          "internalType": "address",
          "name": "usdcToken_",
          "type": "address"
        },
        {
          "internalType": "address",
          "name": "redeemModule_",
          "type": "address"
        },
        {
          "internalType": "address",
          "name": "quoteHelper_",
          "type": "address"
        },
        {
          "internalType": "address",
          "name": "deployer_",
          "type": "address"
        },
        {
          "internalType": "address",
          "name": "aaFactory_",
          "type": "address"
        },
        {
          "internalType": "address",
          "name": "initialOwner",
          "type": "address"
        }
      ],
      "stateMutability": "nonpayable",
      "type": "constructor"
    },
    {
      "inputs": [],
      "name": "BM_CallFailed",
      "type": "error"
    },
    {
      "inputs": [],
      "name": "BM_DeployFailed",
      "type": "error"
    },
    {
      "inputs": [
        {
          "internalType": "uint8",
          "name": "step",
          "type": "uint8"
        }
      ],
      "name": "BM_DeployFailedAtStep",
      "type": "error"
    },
    {
      "inputs": [],
      "name": "BM_NotAuthorized",
      "type": "error"
    },
    {
      "inputs": [],
      "name": "BM_ZeroAddress",
      "type": "error"
    },
    {
      "inputs": [],
      "name": "ECDSAInvalidSignature",
      "type": "error"
    },
    {
      "inputs": [
        {
          "internalType": "uint256",
          "name": "length",
          "type": "uint256"
        }
      ],
      "name": "ECDSAInvalidSignatureLength",
      "type": "error"
    },
    {
      "inputs": [
        {
          "internalType": "bytes32",
          "name": "s",
          "type": "bytes32"
        }
      ],
      "name": "ECDSAInvalidSignatureS",
      "type": "error"
    },
    {
      "inputs": [],
      "name": "F_AlreadyRegistered",
      "type": "error"
    },
    {
      "inputs": [],
      "name": "F_BadDeployedCard",
      "type": "error"
    },
    {
      "inputs": [],
      "name": "F_InvalidRedeemHash",
      "type": "error"
    },
    {
      "inputs": [],
      "name": "UC_AmountZero",
      "type": "error"
    },
    {
      "inputs": [],
      "name": "UC_FaucetNotEnabled",
      "type": "error"
    },
    {
      "inputs": [],
      "name": "UC_InvalidProposal",
      "type": "error"
    },
    {
      "inputs": [
        {
          "internalType": "address",
          "name": "recovered",
          "type": "address"
        },
        {
          "internalType": "address",
          "name": "expected",
          "type": "address"
        }
      ],
      "name": "UC_InvalidSignature",
      "type": "error"
    },
    {
      "inputs": [
        {
          "internalType": "uint256",
          "name": "nowTs",
          "type": "uint256"
        },
        {
          "internalType": "uint256",
          "name": "validAfter",
          "type": "uint256"
        },
        {
          "internalType": "uint256",
          "name": "validBefore",
          "type": "uint256"
        }
      ],
      "name": "UC_InvalidTimeWindow",
      "type": "error"
    },
    {
      "inputs": [],
      "name": "UC_NonceUsed",
      "type": "error"
    },
    {
      "inputs": [],
      "name": "UC_NotAdmin",
      "type": "error"
    },
    {
      "inputs": [],
      "name": "UC_PointsZero",
      "type": "error"
    },
    {
      "inputs": [],
      "name": "UC_PriceZero",
      "type": "error"
    },
    {
      "inputs": [],
      "name": "UC_PurchaseDisabledBecauseFree",
      "type": "error"
    },
    {
      "inputs": [],
      "name": "UC_Slippage",
      "type": "error"
    },
    {
      "inputs": [],
      "name": "UC_TierMinZero",
      "type": "error"
    },
    {
      "anonymous": false,
      "inputs": [
        {
          "indexed": true,
          "internalType": "address",
          "name": "oldFactory",
          "type": "address"
        },
        {
          "indexed": true,
          "internalType": "address",
          "name": "newFactory",
          "type": "address"
        }
      ],
      "name": "AAFactoryChanged",
      "type": "event"
    },
    {
      "anonymous": false,
      "inputs": [
        {
          "indexed": true,
          "internalType": "address",
          "name": "card",
          "type": "address"
        },
        {
          "indexed": true,
          "internalType": "address",
          "name": "adminSigner",
          "type": "address"
        },
        {
          "indexed": false,
          "internalType": "bytes32",
          "name": "nonce",
          "type": "bytes32"
        }
      ],
      "name": "AdminExecuteExecuted",
      "type": "event"
    },
    {
      "anonymous": false,
      "inputs": [
        {
          "indexed": true,
          "internalType": "address",
          "name": "cardOwner",
          "type": "address"
        },
        {
          "indexed": true,
          "internalType": "address",
          "name": "card",
          "type": "address"
        },
        {
          "indexed": false,
          "internalType": "uint8",
          "name": "currency",
          "type": "uint8"
        },
        {
          "indexed": false,
          "internalType": "uint256",
          "name": "priceE18",
          "type": "uint256"
        }
      ],
      "name": "CardDeployed",
      "type": "event"
    },
    {
      "anonymous": false,
      "inputs": [
        {
          "indexed": true,
          "internalType": "address",
          "name": "cardOwner",
          "type": "address"
        },
        {
          "indexed": true,
          "internalType": "address",
          "name": "card",
          "type": "address"
        }
      ],
      "name": "CardRegistered",
      "type": "event"
    },
    {
      "anonymous": false,
      "inputs": [
        {
          "indexed": true,
          "internalType": "address",
          "name": "oldM",
          "type": "address"
        },
        {
          "indexed": true,
          "internalType": "address",
          "name": "newM",
          "type": "address"
        }
      ],
      "name": "DefaultFaucetModuleUpdated",
      "type": "event"
    },
    {
      "anonymous": false,
      "inputs": [
        {
          "indexed": true,
          "internalType": "address",
          "name": "oldM",
          "type": "address"
        },
        {
          "indexed": true,
          "internalType": "address",
          "name": "newM",
          "type": "address"
        }
      ],
      "name": "DefaultGovernanceModuleUpdated",
      "type": "event"
    },
    {
      "anonymous": false,
      "inputs": [
        {
          "indexed": true,
          "internalType": "address",
          "name": "oldM",
          "type": "address"
        },
        {
          "indexed": true,
          "internalType": "address",
          "name": "newM",
          "type": "address"
        }
      ],
      "name": "DefaultIssuedNftModuleUpdated",
      "type": "event"
    },
    {
      "anonymous": false,
      "inputs": [
        {
          "indexed": true,
          "internalType": "address",
          "name": "oldM",
          "type": "address"
        },
        {
          "indexed": true,
          "internalType": "address",
          "name": "newM",
          "type": "address"
        }
      ],
      "name": "DefaultMembershipStatsModuleUpdated",
      "type": "event"
    },
    {
      "anonymous": false,
      "inputs": [
        {
          "indexed": true,
          "internalType": "address",
          "name": "oldM",
          "type": "address"
        },
        {
          "indexed": true,
          "internalType": "address",
          "name": "newM",
          "type": "address"
        }
      ],
      "name": "DefaultRedeemModuleUpdated",
      "type": "event"
    },
    {
      "anonymous": false,
      "inputs": [
        {
          "indexed": false,
          "internalType": "uint8",
          "name": "step",
          "type": "uint8"
        }
      ],
      "name": "DeployFailedStep",
      "type": "event"
    },
    {
      "anonymous": false,
      "inputs": [
        {
          "indexed": true,
          "internalType": "address",
          "name": "oldD",
          "type": "address"
        },
        {
          "indexed": true,
          "internalType": "address",
          "name": "newD",
          "type": "address"
        }
      ],
      "name": "DeployerChanged",
      "type": "event"
    },
    {
      "anonymous": false,
      "inputs": [
        {
          "indexed": true,
          "internalType": "address",
          "name": "card",
          "type": "address"
        },
        {
          "indexed": true,
          "internalType": "address",
          "name": "userEOA",
          "type": "address"
        },
        {
          "indexed": true,
          "internalType": "address",
          "name": "cardOwner",
          "type": "address"
        },
        {
          "indexed": false,
          "internalType": "uint256",
          "name": "tokenId",
          "type": "uint256"
        },
        {
          "indexed": false,
          "internalType": "uint256",
          "name": "amount",
          "type": "uint256"
        },
        {
          "indexed": false,
          "internalType": "uint256",
          "name": "usdcAmount6",
          "type": "uint256"
        },
        {
          "indexed": false,
          "internalType": "bytes32",
          "name": "nonce",
          "type": "bytes32"
        }
      ],
      "name": "IssuedNftPurchasedForUser",
      "type": "event"
    },
    {
      "anonymous": false,
      "inputs": [
        {
          "indexed": false,
          "internalType": "string",
          "name": "oldURI",
          "type": "string"
        },
        {
          "indexed": false,
          "internalType": "string",
          "name": "newURI",
          "type": "string"
        }
      ],
      "name": "MetadataBaseURIUpdated",
      "type": "event"
    },
    {
      "anonymous": false,
      "inputs": [
        {
          "indexed": true,
          "internalType": "address",
          "name": "oldOwner",
          "type": "address"
        },
        {
          "indexed": true,
          "internalType": "address",
          "name": "newOwner",
          "type": "address"
        }
      ],
      "name": "OwnerChanged",
      "type": "event"
    },
    {
      "anonymous": false,
      "inputs": [
        {
          "indexed": true,
          "internalType": "address",
          "name": "account",
          "type": "address"
        },
        {
          "indexed": false,
          "internalType": "bool",
          "name": "allowed",
          "type": "bool"
        }
      ],
      "name": "PaymasterStatusChanged",
      "type": "event"
    },
    {
      "anonymous": false,
      "inputs": [
        {
          "indexed": true,
          "internalType": "address",
          "name": "card",
          "type": "address"
        },
        {
          "indexed": true,
          "internalType": "address",
          "name": "fromEOA",
          "type": "address"
        },
        {
          "indexed": true,
          "internalType": "address",
          "name": "cardOwner",
          "type": "address"
        },
        {
          "indexed": false,
          "internalType": "uint256",
          "name": "usdcAmount6",
          "type": "uint256"
        },
        {
          "indexed": false,
          "internalType": "uint256",
          "name": "pointsOut6",
          "type": "uint256"
        },
        {
          "indexed": false,
          "internalType": "bytes32",
          "name": "nonce",
          "type": "bytes32"
        }
      ],
      "name": "PointsPurchasedForUser",
      "type": "event"
    },
    {
      "anonymous": false,
      "inputs": [
        {
          "indexed": true,
          "internalType": "address",
          "name": "oldH",
          "type": "address"
        },
        {
          "indexed": true,
          "internalType": "address",
          "name": "newH",
          "type": "address"
        }
      ],
      "name": "QuoteHelperChanged",
      "type": "event"
    },
    {
      "anonymous": false,
      "inputs": [
        {
          "indexed": true,
          "internalType": "address",
          "name": "card",
          "type": "address"
        },
        {
          "indexed": true,
          "internalType": "address",
          "name": "user",
          "type": "address"
        },
        {
          "indexed": false,
          "internalType": "bytes32",
          "name": "redeemHash",
          "type": "bytes32"
        }
      ],
      "name": "RedeemExecuted",
      "type": "event"
    },
    {
      "anonymous": false,
      "inputs": [
        {
          "indexed": true,
          "internalType": "address",
          "name": "card",
          "type": "address"
        },
        {
          "indexed": true,
          "internalType": "uint256",
          "name": "id",
          "type": "uint256"
        },
        {
          "indexed": false,
          "internalType": "bool",
          "name": "isNft",
          "type": "bool"
        }
      ],
      "name": "TokenIdIssued",
      "type": "event"
    },
    {
      "inputs": [],
      "name": "DOMAIN_SEPARATOR",
      "outputs": [
        {
          "internalType": "bytes32",
          "name": "",
          "type": "bytes32"
        }
      ],
      "stateMutability": "view",
      "type": "function"
    },
    {
      "inputs": [],
      "name": "EXECUTE_FOR_ADMIN_TYPEHASH",
      "outputs": [
        {
          "internalType": "bytes32",
          "name": "",
          "type": "bytes32"
        }
      ],
      "stateMutability": "view",
      "type": "function"
    },
    {
      "inputs": [],
      "name": "EXECUTE_FOR_OWNER_TYPEHASH",
      "outputs": [
        {
          "internalType": "bytes32",
          "name": "",
          "type": "bytes32"
        }
      ],
      "stateMutability": "view",
      "type": "function"
    },
    {
      "inputs": [],
      "name": "USDC",
      "outputs": [
        {
          "internalType": "address",
          "name": "",
          "type": "address"
        }
      ],
      "stateMutability": "view",
      "type": "function"
    },
    {
      "inputs": [],
      "name": "USDC_TOKEN",
      "outputs": [
        {
          "internalType": "address",
          "name": "",
          "type": "address"
        }
      ],
      "stateMutability": "view",
      "type": "function"
    },
    {
      "inputs": [],
      "name": "_aaFactory",
      "outputs": [
        {
          "internalType": "address",
          "name": "",
          "type": "address"
        }
      ],
      "stateMutability": "view",
      "type": "function"
    },
    {
      "inputs": [],
      "name": "aaFactory",
      "outputs": [
        {
          "internalType": "address",
          "name": "",
          "type": "address"
        }
      ],
      "stateMutability": "view",
      "type": "function"
    },
    {
      "inputs": [
        {
          "internalType": "address",
          "name": "cardAddr",
          "type": "address"
        },
        {
          "internalType": "uint256",
          "name": "minUsdc6",
          "type": "uint256"
        },
        {
          "internalType": "uint256",
          "name": "attr",
          "type": "uint256"
        },
        {
          "internalType": "uint256",
          "name": "tierExpirySeconds",
          "type": "uint256"
        },
        {
          "internalType": "bool",
          "name": "upgradeByBalance",
          "type": "bool"
        }
      ],
      "name": "appendTierForCard",
      "outputs": [],
      "stateMutability": "nonpayable",
      "type": "function"
    },
    {
      "inputs": [
        {
          "internalType": "address",
          "name": "cardAddr",
          "type": "address"
        },
        {
          "internalType": "uint256",
          "name": "minUsdc6",
          "type": "uint256"
        },
        {
          "internalType": "uint256",
          "name": "attr",
          "type": "uint256"
        },
        {
          "internalType": "uint256",
          "name": "tierExpirySeconds",
          "type": "uint256"
        },
        {
          "internalType": "bool",
          "name": "upgradeByBalance",
          "type": "bool"
        },
        {
          "internalType": "uint256",
          "name": "deadline",
          "type": "uint256"
        },
        {
          "internalType": "bytes32",
          "name": "nonce",
          "type": "bytes32"
        },
        {
          "internalType": "bytes",
          "name": "ownerSignature",
          "type": "bytes"
        }
      ],
      "name": "appendTierForCardWithOwnerSignature",
      "outputs": [],
      "stateMutability": "nonpayable",
      "type": "function"
    },
    {
      "inputs": [
        {
          "internalType": "address",
          "name": "",
          "type": "address"
        }
      ],
      "name": "beamioUserCardOwner",
      "outputs": [
        {
          "internalType": "address",
          "name": "",
          "type": "address"
        }
      ],
      "stateMutability": "view",
      "type": "function"
    },
    {
      "inputs": [
        {
          "internalType": "address",
          "name": "cardAddr",
          "type": "address"
        },
        {
          "internalType": "address",
          "name": "fromEOA",
          "type": "address"
        },
        {
          "internalType": "uint256",
          "name": "usdcAmount6",
          "type": "uint256"
        },
        {
          "internalType": "uint256",
          "name": "validAfter",
          "type": "uint256"
        },
        {
          "internalType": "uint256",
          "name": "validBefore",
          "type": "uint256"
        },
        {
          "internalType": "bytes32",
          "name": "nonce",
          "type": "bytes32"
        },
        {
          "internalType": "bytes",
          "name": "signature",
          "type": "bytes"
        },
        {
          "internalType": "uint256",
          "name": "minPointsOut6",
          "type": "uint256"
        }
      ],
      "name": "buyPointsForUser",
      "outputs": [
        {
          "internalType": "uint256",
          "name": "pointsOut6",
          "type": "uint256"
        }
      ],
      "stateMutability": "nonpayable",
      "type": "function"
    },
    {
      "inputs": [
        {
          "internalType": "address",
          "name": "cardOwner",
          "type": "address"
        }
      ],
      "name": "cardsOfOwner",
      "outputs": [
        {
          "internalType": "address[]",
          "name": "",
          "type": "address[]"
        }
      ],
      "stateMutability": "view",
      "type": "function"
    },
    {
      "inputs": [
        {
          "internalType": "address",
          "name": "a",
          "type": "address"
        },
        {
          "internalType": "bool",
          "name": "ok",
          "type": "bool"
        }
      ],
      "name": "changePaymasterStatus",
      "outputs": [],
      "stateMutability": "nonpayable",
      "type": "function"
    },
    {
      "inputs": [
        {
          "internalType": "address",
          "name": "cardOwner",
          "type": "address"
        },
        {
          "internalType": "uint8",
          "name": "currency",
          "type": "uint8"
        },
        {
          "internalType": "uint256",
          "name": "priceInCurrencyE6",
          "type": "uint256"
        },
        {
          "internalType": "bytes",
          "name": "initCode",
          "type": "bytes"
        }
      ],
      "name": "createCardCollectionWithInitCode",
      "outputs": [
        {
          "internalType": "address",
          "name": "card",
          "type": "address"
        }
      ],
      "stateMutability": "nonpayable",
      "type": "function"
    },
    {
      "inputs": [
        {
          "internalType": "address",
          "name": "cardOwner",
          "type": "address"
        },
        {
          "internalType": "uint8",
          "name": "currency",
          "type": "uint8"
        },
        {
          "internalType": "uint256",
          "name": "priceInCurrencyE6",
          "type": "uint256"
        },
        {
          "internalType": "bytes",
          "name": "initCode",
          "type": "bytes"
        },
        {
          "components": [
            {
              "internalType": "uint256",
              "name": "minUsdc6",
              "type": "uint256"
            },
            {
              "internalType": "uint256",
              "name": "attr",
              "type": "uint256"
            },
            {
              "internalType": "uint256",
              "name": "tierExpirySeconds",
              "type": "uint256"
            },
            {
              "internalType": "bool",
              "name": "upgradeByBalance",
              "type": "bool"
            }
          ],
          "internalType": "struct BeamioUserCard.Tier[]",
          "name": "tiers",
          "type": "tuple[]"
        }
      ],
      "name": "createCardCollectionWithInitCodeAndTiers",
      "outputs": [
        {
          "internalType": "address",
          "name": "card",
          "type": "address"
        }
      ],
      "stateMutability": "nonpayable",
      "type": "function"
    },
    {
      "inputs": [],
      "name": "defaultFaucetModule",
      "outputs": [
        {
          "internalType": "address",
          "name": "",
          "type": "address"
        }
      ],
      "stateMutability": "view",
      "type": "function"
    },
    {
      "inputs": [],
      "name": "defaultGovernanceModule",
      "outputs": [
        {
          "internalType": "address",
          "name": "",
          "type": "address"
        }
      ],
      "stateMutability": "view",
      "type": "function"
    },
    {
      "inputs": [],
      "name": "defaultIssuedNftModule",
      "outputs": [
        {
          "internalType": "address",
          "name": "",
          "type": "address"
        }
      ],
      "stateMutability": "view",
      "type": "function"
    },
    {
      "inputs": [],
      "name": "defaultMembershipStatsModule",
      "outputs": [
        {
          "internalType": "address",
          "name": "",
          "type": "address"
        }
      ],
      "stateMutability": "view",
      "type": "function"
    },
    {
      "inputs": [],
      "name": "defaultRedeemModule",
      "outputs": [
        {
          "internalType": "address",
          "name": "",
          "type": "address"
        }
      ],
      "stateMutability": "view",
      "type": "function"
    },
    {
      "inputs": [],
      "name": "deployer",
      "outputs": [
        {
          "internalType": "address",
          "name": "",
          "type": "address"
        }
      ],
      "stateMutability": "view",
      "type": "function"
    },
    {
      "inputs": [
        {
          "internalType": "address",
          "name": "cardAddr",
          "type": "address"
        },
        {
          "internalType": "bytes",
          "name": "data",
          "type": "bytes"
        },
        {
          "internalType": "uint256",
          "name": "deadline",
          "type": "uint256"
        },
        {
          "internalType": "bytes32",
          "name": "nonce",
          "type": "bytes32"
        },
        {
          "internalType": "bytes",
          "name": "adminSignature",
          "type": "bytes"
        }
      ],
      "name": "executeForAdmin",
      "outputs": [],
      "stateMutability": "nonpayable",
      "type": "function"
    },
    {
      "inputs": [
        {
          "internalType": "address",
          "name": "cardAddr",
          "type": "address"
        },
        {
          "internalType": "bytes",
          "name": "data",
          "type": "bytes"
        },
        {
          "internalType": "uint256",
          "name": "deadline",
          "type": "uint256"
        },
        {
          "internalType": "bytes32",
          "name": "nonce",
          "type": "bytes32"
        },
        {
          "internalType": "bytes",
          "name": "ownerSignature",
          "type": "bytes"
        }
      ],
      "name": "executeForOwner",
      "outputs": [],
      "stateMutability": "nonpayable",
      "type": "function"
    },
    {
      "inputs": [
        {
          "internalType": "address",
          "name": "card",
          "type": "address"
        }
      ],
      "name": "isBeamioUserCard",
      "outputs": [
        {
          "internalType": "bool",
          "name": "",
          "type": "bool"
        }
      ],
      "stateMutability": "view",
      "type": "function"
    },
    {
      "inputs": [
        {
          "internalType": "address",
          "name": "",
          "type": "address"
        },
        {
          "internalType": "address",
          "name": "",
          "type": "address"
        }
      ],
      "name": "isCardOfOwner",
      "outputs": [
        {
          "internalType": "bool",
          "name": "",
          "type": "bool"
        }
      ],
      "stateMutability": "view",
      "type": "function"
    },
    {
      "inputs": [
        {
          "internalType": "address",
          "name": "",
          "type": "address"
        }
      ],
      "name": "isPaymaster",
      "outputs": [
        {
          "internalType": "bool",
          "name": "",
          "type": "bool"
        }
      ],
      "stateMutability": "view",
      "type": "function"
    },
    {
      "inputs": [
        {
          "internalType": "address",
          "name": "card",
          "type": "address"
        },
        {
          "internalType": "uint256",
          "name": "id",
          "type": "uint256"
        }
      ],
      "name": "isTokenIdIssued",
      "outputs": [
        {
          "internalType": "bool",
          "name": "",
          "type": "bool"
        }
      ],
      "stateMutability": "view",
      "type": "function"
    },
    {
      "inputs": [
        {
          "internalType": "address",
          "name": "card",
          "type": "address"
        },
        {
          "internalType": "bool",
          "name": "isNft",
          "type": "bool"
        }
      ],
      "name": "issueTokenId",
      "outputs": [
        {
          "internalType": "uint256",
          "name": "id",
          "type": "uint256"
        }
      ],
      "stateMutability": "nonpayable",
      "type": "function"
    },
    {
      "inputs": [
        {
          "internalType": "address",
          "name": "cardOwner",
          "type": "address"
        }
      ],
      "name": "latestCardOfOwner",
      "outputs": [
        {
          "internalType": "address",
          "name": "",
          "type": "address"
        }
      ],
      "stateMutability": "view",
      "type": "function"
    },
    {
      "inputs": [],
      "name": "metadataBaseURI",
      "outputs": [
        {
          "internalType": "string",
          "name": "",
          "type": "string"
        }
      ],
      "stateMutability": "view",
      "type": "function"
    },
    {
      "inputs": [],
      "name": "nextFungibleId",
      "outputs": [
        {
          "internalType": "uint256",
          "name": "",
          "type": "uint256"
        }
      ],
      "stateMutability": "view",
      "type": "function"
    },
    {
      "inputs": [],
      "name": "nextNftId",
      "outputs": [
        {
          "internalType": "uint256",
          "name": "",
          "type": "uint256"
        }
      ],
      "stateMutability": "view",
      "type": "function"
    },
    {
      "inputs": [],
      "name": "owner",
      "outputs": [
        {
          "internalType": "address",
          "name": "",
          "type": "address"
        }
      ],
      "stateMutability": "view",
      "type": "function"
    },
    {
      "inputs": [
        {
          "internalType": "address",
          "name": "cardAddr",
          "type": "address"
        },
        {
          "internalType": "address",
          "name": "userEOA",
          "type": "address"
        },
        {
          "internalType": "uint256",
          "name": "id",
          "type": "uint256"
        },
        {
          "internalType": "uint256",
          "name": "amount6",
          "type": "uint256"
        },
        {
          "internalType": "uint256",
          "name": "validAfter",
          "type": "uint256"
        },
        {
          "internalType": "uint256",
          "name": "validBefore",
          "type": "uint256"
        },
        {
          "internalType": "bytes32",
          "name": "nonce",
          "type": "bytes32"
        },
        {
          "internalType": "bytes",
          "name": "signature",
          "type": "bytes"
        }
      ],
      "name": "purchaseFaucetForUser",
      "outputs": [],
      "stateMutability": "nonpayable",
      "type": "function"
    },
    {
      "inputs": [
        {
          "internalType": "address",
          "name": "cardAddr",
          "type": "address"
        },
        {
          "internalType": "address",
          "name": "userEOA",
          "type": "address"
        },
        {
          "internalType": "uint256",
          "name": "tokenId",
          "type": "uint256"
        },
        {
          "internalType": "uint256",
          "name": "amount",
          "type": "uint256"
        },
        {
          "internalType": "uint256",
          "name": "validAfter",
          "type": "uint256"
        },
        {
          "internalType": "uint256",
          "name": "validBefore",
          "type": "uint256"
        },
        {
          "internalType": "bytes32",
          "name": "nonce",
          "type": "bytes32"
        },
        {
          "internalType": "bytes",
          "name": "signature",
          "type": "bytes"
        }
      ],
      "name": "purchaseIssuedNftForUser",
      "outputs": [],
      "stateMutability": "nonpayable",
      "type": "function"
    },
    {
      "inputs": [
        {
          "internalType": "uint8",
          "name": "cur",
          "type": "uint8"
        },
        {
          "internalType": "uint256",
          "name": "amount6",
          "type": "uint256"
        }
      ],
      "name": "quoteCurrencyAmountInUSDC6",
      "outputs": [
        {
          "internalType": "uint256",
          "name": "",
          "type": "uint256"
        }
      ],
      "stateMutability": "view",
      "type": "function"
    },
    {
      "inputs": [],
      "name": "quoteHelper",
      "outputs": [
        {
          "internalType": "address",
          "name": "",
          "type": "address"
        }
      ],
      "stateMutability": "view",
      "type": "function"
    },
    {
      "inputs": [
        {
          "internalType": "address",
          "name": "card",
          "type": "address"
        }
      ],
      "name": "quoteUnitPointInUSDC6",
      "outputs": [
        {
          "internalType": "uint256",
          "name": "",
          "type": "uint256"
        }
      ],
      "stateMutability": "view",
      "type": "function"
    },
    {
      "inputs": [
        {
          "internalType": "address",
          "name": "cardAddr",
          "type": "address"
        },
        {
          "internalType": "string[]",
          "name": "codes",
          "type": "string[]"
        },
        {
          "internalType": "address",
          "name": "userEOA",
          "type": "address"
        }
      ],
      "name": "redeemBatchForUser",
      "outputs": [],
      "stateMutability": "nonpayable",
      "type": "function"
    },
    {
      "inputs": [
        {
          "internalType": "address",
          "name": "cardAddr",
          "type": "address"
        },
        {
          "internalType": "string",
          "name": "code",
          "type": "string"
        },
        {
          "internalType": "address",
          "name": "userEOA",
          "type": "address"
        }
      ],
      "name": "redeemForUser",
      "outputs": [],
      "stateMutability": "nonpayable",
      "type": "function"
    },
    {
      "inputs": [
        {
          "internalType": "address",
          "name": "cardAddr",
          "type": "address"
        },
        {
          "internalType": "string",
          "name": "code",
          "type": "string"
        },
        {
          "internalType": "address",
          "name": "userEOA",
          "type": "address"
        }
      ],
      "name": "redeemPoolForUser",
      "outputs": [],
      "stateMutability": "nonpayable",
      "type": "function"
    },
    {
      "inputs": [
        {
          "internalType": "address",
          "name": "cardOwner",
          "type": "address"
        },
        {
          "internalType": "address",
          "name": "card",
          "type": "address"
        }
      ],
      "name": "registerExistingCard",
      "outputs": [],
      "stateMutability": "nonpayable",
      "type": "function"
    },
    {
      "inputs": [
        {
          "internalType": "address",
          "name": "f",
          "type": "address"
        }
      ],
      "name": "setAAFactory",
      "outputs": [],
      "stateMutability": "nonpayable",
      "type": "function"
    },
    {
      "inputs": [
        {
          "internalType": "address",
          "name": "d",
          "type": "address"
        }
      ],
      "name": "setDeployer",
      "outputs": [],
      "stateMutability": "nonpayable",
      "type": "function"
    },
    {
      "inputs": [
        {
          "internalType": "address",
          "name": "m",
          "type": "address"
        }
      ],
      "name": "setFaucetModule",
      "outputs": [],
      "stateMutability": "nonpayable",
      "type": "function"
    },
    {
      "inputs": [
        {
          "internalType": "address",
          "name": "m",
          "type": "address"
        }
      ],
      "name": "setGovernanceModule",
      "outputs": [],
      "stateMutability": "nonpayable",
      "type": "function"
    },
    {
      "inputs": [
        {
          "internalType": "address",
          "name": "m",
          "type": "address"
        }
      ],
      "name": "setIssuedNftModule",
      "outputs": [],
      "stateMutability": "nonpayable",
      "type": "function"
    },
    {
      "inputs": [
        {
          "internalType": "address",
          "name": "m",
          "type": "address"
        }
      ],
      "name": "setMembershipStatsModule",
      "outputs": [],
      "stateMutability": "nonpayable",
      "type": "function"
    },
    {
      "inputs": [
        {
          "internalType": "string",
          "name": "newBaseURI",
          "type": "string"
        }
      ],
      "name": "setMetadataBaseURI",
      "outputs": [],
      "stateMutability": "nonpayable",
      "type": "function"
    },
    {
      "inputs": [
        {
          "internalType": "address",
          "name": "h",
          "type": "address"
        }
      ],
      "name": "setQuoteHelper",
      "outputs": [],
      "stateMutability": "nonpayable",
      "type": "function"
    },
    {
      "inputs": [
        {
          "internalType": "address",
          "name": "m",
          "type": "address"
        }
      ],
      "name": "setRedeemModule",
      "outputs": [],
      "stateMutability": "nonpayable",
      "type": "function"
    },
    {
      "inputs": [
        {
          "internalType": "address",
          "name": "",
          "type": "address"
        },
        {
          "internalType": "uint256",
          "name": "",
          "type": "uint256"
        }
      ],
      "name": "tokenIdIssued",
      "outputs": [
        {
          "internalType": "bool",
          "name": "",
          "type": "bool"
        }
      ],
      "stateMutability": "view",
      "type": "function"
    },
    {
      "inputs": [
        {
          "internalType": "address",
          "name": "newOwner",
          "type": "address"
        }
      ],
      "name": "transferOwner",
      "outputs": [],
      "stateMutability": "nonpayable",
      "type": "function"
    },
    {
      "inputs": [
        {
          "internalType": "bytes32",
          "name": "",
          "type": "bytes32"
        }
      ],
      "name": "usedAdminExecuteNonces",
      "outputs": [
        {
          "internalType": "bool",
          "name": "",
          "type": "bool"
        }
      ],
      "stateMutability": "view",
      "type": "function"
    },
    {
      "inputs": [
        {
          "internalType": "bytes32",
          "name": "",
          "type": "bytes32"
        }
      ],
      "name": "usedOwnerExecuteNonces",
      "outputs": [
        {
          "internalType": "bool",
          "name": "",
          "type": "bool"
        }
      ],
      "stateMutability": "view",
      "type": "function"
    }
  ],
  "bytecode": "0x60c080604052346102c35760c081613e21803803809161001f82856102c7565b8339810103126102c357610032816102fe565b61003e602083016102fe565b61004a604084016102fe565b90610057606085016102fe565b9261007060a0610069608088016102fe565b96016102fe565b906001600160a01b0381161580156102b2575b80156102a1575b8015610290575b801561027f575b801561026e575b61025f576080525f80546001600160a01b03199081166001600160a01b039384169081178355825260016020819052604092839020805460ff19168217905560028054831695851695861790556003805483168617905560048054831686179055600580548316861790556006805483169095179094556007805482169584169590951790945560088054851695831695909517909455600a80549093169416939093179055600b919091556064600c5580519061015d90826102c7565b601581527f4265616d696f5573657243617264466163746f72790000000000000000000000602090910152604080517fb77f4f874d464e6b89d928e63195f8e6a3efa6ad7d73e629a7033d854b4099b9916101b890826102c7565b600181526020810190603160f81b82525190206040519060208201927f8b73c3c69bb8fe3d512ecc4cf759cc79239f7b179b0ffacaa9a75d522b39400f8452604083015260608201524660808201523060a082015260a0815261021c60c0826102c7565b51902060a052604051613b0e908161031382396080518181816105b3015281816112c80152818161156d0152613003015260a051818181610b0f01526122180152f35b63a9b8048960e01b5f5260045ffd5b506001600160a01b0382161561009f565b506001600160a01b03861615610098565b506001600160a01b03851615610091565b506001600160a01b0384161561008a565b506001600160a01b03831615610083565b5f80fd5b601f909101601f19168101906001600160401b038211908210176102ea57604052565b634e487b7160e01b5f52604160045260245ffd5b51906001600160a01b03821682036102c35756fe60806040526004361015610011575f80fd5b5f3560e01c80630562f3e714610375578063058c71e6146103705780630895a860146102ee5780630c3c5d001461036b5780630e1398b9146103665780630e832513146102805780631d4d9cf71461036157806331a04f1d1461035c5780633644e5151461035757806339a8886d146103525780633cc29bb31461034d5780633d8807f814610348578063409826d31461034357806349c20cf21461033e5780634a058fce146103395780634f11ef12146103345780634fb2e45d1461032f57806356bceaf61461032a57806362cb913c146103255780636eb30f651461032057806371326e551461031b5780637264becd146103165780637b422f3914610311578063803efb8a1461030c57806389a302711461028a5780638da5cb5b1461030757806393f1da4f1461030257806396214735146102fd5780639688856f146102f85780639858d824146102f357806398e1e944146102ee5780639f3d1a2a146102e9578063a2d5b9c8146102e4578063ac68fc00146102df578063b2592cf7146102da578063bdce71aa146102d5578063c1cfc34a146102d0578063c374a7a9146102cb578063cc7dcbe8146102c6578063ce85715d146102c1578063d5f39488146102bc578063d68a7bf7146102b7578063d9dd2f20146102b2578063dcc96a34146102ad578063dd16dfdc146102a8578063deaefff2146102a3578063dfcf851f1461029e578063e83492d114610299578063e8e3511314610294578063ef7590951461028f578063fa5692741461028a578063fa957c2e14610285578063fb3894d314610280578063fb94bd8a1461027b5763fd722edb14610276575f80fd5b612711565b6125af565b610947565b612530565b611558565b6124a8565b612434565b6120e7565b611fe0565b611f61565b611ee2565b611e63565b611d9a565b611c0a565b611bb3565b611b8b565b6119b3565b61192a565b6118d2565b611848565b6117cd565b611790565b611719565b6116ea565b610835565b611686565b61165f565b6115e0565b6115c3565b61159c565b611515565b6114a0565b611152565b6110d3565b6110ac565b611002565b610fcf565b610f58565b610e60565b610e38565b610e10565b610dcb565b610d41565b610ce2565b610b7b565b610af8565b610ac9565b61096f565b6108c8565b6108a0565b6107a1565b61041a565b6001600160a01b0381160361038b57565b5f80fd5b9181601f8401121561038b578235916001600160401b03831161038b576020838186019501011161038b57565b9061010060031983011261038b576004356103d68161037a565b916024356103e38161037a565b9160443591606435916084359160a4359160c4359160e435906001600160401b03821161038b576104169160040161038f565b9091565b3461038b57610428366103bc565b929060018060a09a97989a1b035f54163314801561078b575b15610753576001600160a01b03881615610704576001600160a01b038616958615908115610781575b5061070457604051635378561960e01b81526020816004818a5afa90811561066b575f91610762575b50306001600160a01b039091160361075357861561074457604051638da5cb5b60e01b8152906020826004818a5afa91821561066b575f92610713575b506001600160a01b03821615610704576040516327d23eb360e21b8152600481018b905293610100856024818b5afa94851561066b575f956106d3575b5061052261051e6080870151151590565b1590565b6106c45760e0850180516001600160801b0316156106b55761059d9561058260a06105796105708e61056b61055f6020985160018060801b031690565b6001600160801b031690565b6128be565b620f4240900490565b92015160ff1690565b60405163145ab73960e31b81529788928392600484016128fe565b0381305afa94851561066b575f95610684575b507f00000000000000000000000000000000000000000000000000000000000000006001600160a01b031693843b1561038b575f9687938c9361060a936040519b8c9a8b998a9863cf09299560e01b8a5260048a01612933565b03925af1801561066b57610670575b50803b1561038b57610645935f809460405196879586948593636465c3a760e01b855260048501612978565b03925af1801561066b5761065557005b806106635f61066993612770565b80610883565b005b6127a8565b806106635f61067e93612770565b5f610619565b6106a791955060203d6020116106ae575b61069f8183612770565b8101906128ef565b935f6105b0565b503d610695565b63225426e360e01b5f5260045ffd5b63ab6138a560e01b5f5260045ffd5b6106f69195506101003d81116106fd575b6106ee8183612770565b8101906127f3565b935f61050d565b503d6106e4565b63a9b8048960e01b5f5260045ffd5b61073691925060203d60201161073d575b61072e8183612770565b810190612793565b905f6104d0565b503d610724565b63201165f360e21b5f5260045ffd5b630fc5e1ab60e41b5f5260045ffd5b61077b915060203d60201161073d5761072e8183612770565b5f610493565b90503b155f61046a565b50335f52600160205260ff60405f205416610441565b3461038b57602036600319011261038b576004356107be8161037a565b5f546001600160a01b03163303610753576001600160a01b0316801561070457600654816001600160a01b0382167f68c2faaf0ebfd42d2518b6fbf5130982e7ad496f58df6975a54886e81d5a084b5f80a36001600160a01b03191617600655005b9060018060a01b03165f5260205260405f2090565b3461038b57604036600319011261038b576004356108528161037a565b6024359060018060a01b03165f52600d60205260405f20905f52602052602060ff60405f2054166040519015158152f35b5f91031261038b57565b6001600160a01b03909116815260200190565b3461038b575f36600319011261038b576002546040516001600160a01b039091168152602090f35b3461038b57602036600319011261038b576004356108e58161037a565b5f546001600160a01b03163303610753576001600160a01b0316801561070457600754816001600160a01b0382167feb7103e1b7fa12591abe0ba2fb5df1720e3786a45a1684846043c1b7dcfcb9c75f80a36001600160a01b03191617600755005b3461038b575f36600319011261038b57600a546040516001600160a01b039091168152602090f35b3461038b57602036600319011261038b5760043561098c8161037a565b6007546001600160a01b03918216916109b3916109a7911681565b6001600160a01b031690565b60405163e5a6b10f60e01b815290602082600481865afa91821561066b575f92610a96575b50602082936109e86004946129c2565b604051634dda221560e01b815293849182905afa90811561066b57610a2e936020935f93610a77575b5060405180958194829363577e933760e11b8452600484016128fe565b03915afa801561066b57610a54915f91610a58575b506040519081529081906020820190565b0390f35b610a71915060203d6020116106ae5761069f8183612770565b5f610a43565b610a8f919350843d86116106ae5761069f8183612770565b915f610a11565b60049250610abb602091823d8411610ac2575b610ab38183612770565b810190612996565b92506109d8565b503d610aa9565b3461038b57602036600319011261038b576004355f526011602052602060ff60405f2054166040519015158152f35b3461038b575f36600319011261038b5760206040517f00000000000000000000000000000000000000000000000000000000000000008152f35b90606060031983011261038b57600435610b4b8161037a565b91602435906001600160401b03821161038b57610b6a9160040161038f565b9091604435610b788161037a565b90565b3461038b57610b8936610b32565b5f549293926001600160a01b031633148015610ccc575b15610753576001600160a01b038116938415610704576001600160a01b038416938415908115610cc2575b5061070457604051635378561960e01b8152602081600481885afa90811561066b575f91610ca3575b50306001600160a01b0390911603610753578215610c9457833b1561038b575f610c349260405180948192637cc37b3b60e11b83528786600485016129d1565b038183885af190811561066b575f516020613ab95f395f51905f5293610c7b93610c6593610c80575b503691612a15565b8051602091820120604051908152918291820190565b0390a3005b806106635f610c8e93612770565b5f610c5d565b63411581df60e11b5f5260045ffd5b610cbc915060203d60201161073d5761072e8183612770565b5f610bf4565b90503b155f610bcb565b50335f52600160205260ff60405f205416610ba0565b3461038b575f36600319011261038b576020600b54604051908152f35b60206040818301928281528451809452019201905f5b818110610d225750505090565b82516001600160a01b0316845260209384019390920191600101610d15565b3461038b57602036600319011261038b57600435610d5e8161037a565b60018060a01b03165f52600e60205260405f206040519081602082549182815201915f5260205f20905f5b818110610dac57610a5485610da081870382612770565b60405191829182610cff565b82546001600160a01b0316845260209093019260019283019201610d89565b3461038b57602036600319011261038b57600435610de88161037a565b60018060a01b03165f526010602052602060018060a01b0360405f2054161515604051908152f35b3461038b575f36600319011261038b576006546040516001600160a01b039091168152602090f35b3461038b575f36600319011261038b576005546040516001600160a01b039091168152602090f35b3461038b57610e6e36610b32565b5f549293926001600160a01b031633148015610f42575b15610753576001600160a01b038116938415610704576001600160a01b038416938415908115610f38575b5061070457604051635378561960e01b8152602081600481885afa90811561066b575f91610f19575b50306001600160a01b0390911603610753578215610c9457833b1561038b575f610c3492604051809481926371b8982f60e01b83528786600485016129d1565b610f32915060203d60201161073d5761072e8183612770565b5f610ed9565b90503b155f610eb0565b50335f52600160205260ff60405f205416610e85565b3461038b57602036600319011261038b57600435610f758161037a565b5f546001600160a01b0381169133839003610753576001600160a01b03169182156107045782907fb532073b38c83145e3e5135377a08bf9aab55bc0fd7c1179cd4fb995d2a5159c5f80a36001600160a01b031916175f55005b3461038b575f36600319011261038b576004546040516001600160a01b039091168152602090f35b60ff81160361038b57565b3461038b5760a036600319011261038b5760043561101f8161037a565b6024359061102c82610ff7565b6044356064356001600160401b03811161038b5761104e90369060040161038f565b60843593916001600160401b03851161038b573660238601121561038b576004850135936001600160401b03851161038b573660248660071b8801011161038b57610a549660246110a0970194612a4b565b6040519182918261088d565b3461038b575f36600319011261038b5760206040515f516020613a395f395f51905f528152f35b3461038b57602036600319011261038b576004356110f08161037a565b5f546001600160a01b03163303610753576001600160a01b0316801561070457600454816001600160a01b0382167f604f85697fb330a944d96c7ccaa0cc8e84f90ae4e43e07c4fb7a17614c1aa2755f80a36001600160a01b03191617600455005b3461038b57611160366103bc565b9795929190969360018060a01b035f54163314801561148a575b15610753576001600160a01b038516978815610704576001600160a01b038816978815908115611480575b5061070457604051635378561960e01b81526020816004818c5afa90811561066b575f91611461575b50306001600160a01b039091160361075357861561074457604051638da5cb5b60e01b8152936020856004818c5afa94851561066b575f95611440575b506001600160a01b0385169a8b1561070457604051633c703d4560e01b8152600481018890526020816024818e5afa90811561066b575f91611421575b5080156106b557611259908a6128be565b60405163e5a6b10f60e01b81529096906020816004818f5afa97881561066b576112ac986020925f91611404575b50611291816129c2565b60405163145ab73960e31b8152998a928392600484016128fe565b0381305afa96871561066b575f976113e3575b508615610744577f00000000000000000000000000000000000000000000000000000000000000006001600160a01b031691823b1561038b57896113215f969287938a8c986040519b8c9a8b998a9863cf09299560e01b8a5260048a01612933565b03925af1801561066b576113cf575b50853b1561038b575f83869561135a60405198899384936311d794fb60e21b855260048501612978565b0381838a5af191821561066b577f46153b28e9a3688aede6f2c4c60c8d2cd1e2181b36e413211bf9134a7b195996956113b6936113bb575b50604051948594859094939260609260808301968352602083015260408201520152565b0390a4005b806106635f6113c993612770565b5f611392565b806106635f6113dd93612770565b5f611330565b6113fd91975060203d6020116106ae5761069f8183612770565b955f6112bf565b61141b9150833d8511610ac257610ab38183612770565b5f611287565b61143a915060203d6020116106ae5761069f8183612770565b5f611248565b61145a91955060203d60201161073d5761072e8183612770565b935f61120b565b61147a915060203d60201161073d5761072e8183612770565b5f6111ce565b90503b155f6111a5565b50335f52600160205260ff60405f20541661117a565b3461038b57606036600319011261038b576004356114bd8161037a565b6024356001600160401b03811161038b573660238201121561038b5760048101356001600160401b03811161038b573660248260051b8401011161038b576106699260246044359361150e8561037a565b0190612bdf565b3461038b57602036600319011261038b576004356115328161037a565b60018060a01b03165f526010602052602060018060a01b0360405f205416604051908152f35b3461038b575f36600319011261038b576040517f00000000000000000000000000000000000000000000000000000000000000006001600160a01b03168152602090f35b3461038b575f36600319011261038b575f546040516001600160a01b039091168152602090f35b3461038b575f36600319011261038b576020600c54604051908152f35b3461038b57602036600319011261038b576004356115fd8161037a565b5f546001600160a01b03163303610753576001600160a01b0316801561070457600854816001600160a01b0382167fb425bf30023a30c35ee17f3f416360da7ea96a46b589cfa6a14f39dc98a52bca5f80a36001600160a01b03191617600855005b3461038b575f36600319011261038b5760206040515f516020613a195f395f51905f528152f35b3461038b57602036600319011261038b576004356116a38161037a565b60018060a01b03165f526001602052602060ff60405f2054166040519015158152f35b805180835260209291819084018484015e5f828201840152601f01601f1916010190565b3461038b575f36600319011261038b57610a54611705612e4c565b6040519182916020835260208301906116c6565b3461038b57604036600319011261038b57610a2e602060043561173b81610ff7565b60075460405163145ab73960e31b81529384926001600160a01b03909216918391829160243590600484016128fe565b604090600319011261038b576004356117838161037a565b90602435610b788161037a565b3461038b57602060ff6117c16117a53661176b565b6001600160a01b039091165f908152600f855260409020610820565b54166040519015158152f35b3461038b5761010036600319011261038b576004356117eb8161037a565b6024356117f78161037a565b6064359160c435916044359060a4356084356001600160401b03861161038b57610a549661182c61183897369060040161038f565b95909460e43597612eee565b6040519081529081906020820190565b3461038b575f36600319011261038b576003546040516001600160a01b039091168152602090f35b9060a060031983011261038b576004356118898161037a565b916024356001600160401b03811161038b57816118a89160040161038f565b909290916044359160643591608435906001600160401b03821161038b576104169160040161038f565b3461038b576118e036611870565b9495909360018060a09594951b035f541633148015611914575b15610753576106699661190e913691612a15565b906135dd565b50335f52600160205260ff60405f2054166118fa565b3461038b57602036600319011261038b576004356119478161037a565b6001600160a01b03165f818152600e6020526040902054908161197457505060405180610a545f8261088d565b5f52600e60205260405f205f1982019182116119ae57610a5491611997916131dd565b905460039190911b1c6001600160a01b03166110a0565b612890565b3461038b576119c13661176b565b5f546001600160a01b031633148015611b75575b15610753576001600160a01b0382169081158015611b64575b61070457611a1f611a1882611a138660018060a01b03165f52600f60205260405f2090565b610820565b5460ff1690565b611b5557604051635378561960e01b81526001600160a01b0382169390602081600481885afa90811561066b575f91611b36575b50306001600160a01b0390911603611b0857604051638da5cb5b60e01b8152602081600481885afa801561066b5784915f91611b17575b506001600160a01b031603611b0857611ac382611aaa611ae294846137cc565b6001600160a01b03165f90815260106020526040902090565b80546001600160a01b0319166001600160a01b03909216919091179055565b7fc063fc300750e8c5649c6b3779f6c4b05e7b38b170ee5c4a4b222ede9a2880835f80a3005b633a307eb360e01b5f5260045ffd5b611b30915060203d60201161073d5761072e8183612770565b5f611a8a565b611b4f915060203d60201161073d5761072e8183612770565b5f611a53565b63d62a8c9560e01b5f5260045ffd5b506001600160a01b038116156119ee565b50335f52600160205260ff60405f2054166119d5565b3461038b575f36600319011261038b576007546040516001600160a01b039091168152602090f35b3461038b575f36600319011261038b576008546040516001600160a01b039091168152602090f35b8015150361038b57565b604090600319011261038b57600435611bfd8161037a565b90602435610b7881611bdb565b3461038b57611c1836611be5565b5f546001600160a01b031633148015611d84575b15610753576001600160a01b0382169182158015611d7b575b61070457604051635378561960e01b8152602081600481875afa90811561066b575f91611d5c575b50306001600160a01b039091160361075357610a54927f4c1cbefbba6c448ac41213acf5c22774d44a2ba3b12119ff1f747a82cf887d8e611d12611ce694805f14611d2557611d00611cf3600c54611ccc611cc7826131f2565b600c55565b8098819860018060a01b03165f52600d60205260405f2090565b905f5260205260405f2090565b805460ff19166001179055565b60405190151581529081906020820190565b0390a36040519081529081906020820190565b611d00611cf3600b54611d3f611d3a826131f2565b600b55565b809881986001600160a01b03165f908152600d6020526040902090565b611d75915060203d60201161073d5761072e8183612770565b5f611c6d565b50803b15611c45565b50335f52600160205260ff60405f205416611c2c565b3461038b5761010036600319011261038b57600435611db88161037a565b602435604435906064359260843592611dd084611bdb565b60c4359160a435919060e4356001600160401b03811161038b57611df890369060040161038f565b96909560018060a01b035f541633148015611e4d575b1561075357611e3a611e48926106699a604051968794631c283b9760e31b602087015260248601612bbf565b03601f198101845283612770565b6135dd565b50335f52600160205260ff60405f205416611e0e565b3461038b57602036600319011261038b57600435611e808161037a565b5f546001600160a01b03163303610753576001600160a01b0316801561070457600354816001600160a01b0382167f5e8861c011b27f9301ab1873c22d74fa961d4262fad8e19488f049cd48d3aaba5f80a36001600160a01b03191617600355005b3461038b57602036600319011261038b57600435611eff8161037a565b5f546001600160a01b03163303610753576001600160a01b0316801561070457600554816001600160a01b0382167fd6dc2c603206d37bd08c10999d5659ccd709ea565580b7d63cda117c96a90c2b5f80a36001600160a01b03191617600555005b3461038b57602036600319011261038b57600435611f7e8161037a565b5f546001600160a01b03163303610753576001600160a01b0316801561070457600a54816001600160a01b0382167fb30a75ccd0bb0742ffc18720f7e4013b83d98b9d9236dc4532955541a1df3a655f80a36001600160a01b03191617600a55005b3461038b5760a036600319011261038b57600435611ffd8161037a565b60243560443591606435906084359361201585611bdb565b5f546001600160a01b0316331480156120d1575b15610753576001600160a01b0382169182159081156120c7575b5061070457604051635378561960e01b8152602081600481865afa90811561066b575f916120a8575b50306001600160a01b039091160361075357813b1561038b575f809461064560405197889687958694631c283b9760e31b865260048601612bbf565b6120c1915060203d60201161073d5761072e8183612770565b5f61206c565b90503b155f612043565b50335f52600160205260ff60405f205416612029565b3461038b576120f536611870565b60018060a09896959794981b035f54163314801561241e575b15610753576001600160a01b0385169586158015612415575b6107045760048510610c94578042116123fa57604051635378561960e01b81526020816004818b5afa90811561066b575f916123db575b50306001600160a01b03909116036107535761217a8585613200565b63564da75760e01b916001600160e01b0319916121969161320e565b16036123cc57612262926122548761225c936122138c6122056121ba368d8d612a15565b60208151910120916040519485936020850197889094939260809260a08301965f516020613a195f395f51905f52845260018060a01b03166020840152604083015260608201520152565b03601f198101835282612770565b5190207f00000000000000000000000000000000000000000000000000000000000000006042916040519161190160f01b8352600283015260228201522090565b923691612a15565b90613846565b92604051630935e01b60e21b815260208180612281886004830161088d565b0381895afa90811561066b575f9161239d575b501561238e57604080516001600160a01b038084166020830190815290871692820192909252606081018890526122ce8160808101612205565b519020926122e7611a18855f52601260205260405f2090565b61237f575f809493612305611cf383965f52601260205260405f2090565b61231460405180948193613259565b03925af1612320613266565b901561236357506040519283526001600160a01b0316917fc2d58ddd39bae8d891e64c790e06675be0c60c0c8abaaceac647c83798f19d71908060208101610c7b565b8051908161237a57633655084960e01b5f5260045ffd5b602001fd5b637b7fc77160e01b5f5260045ffd5b6363bc5ecb60e11b5f5260045ffd5b6123bf915060203d6020116123c5575b6123b78183612770565b810190613244565b5f612294565b503d6123ad565b63fb713d2b60e01b5f5260045ffd5b6123f4915060203d60201161073d5761072e8183612770565b5f61215e565b631f1183ed60e31b5f9081524260045260245260445260645ffd5b50853b15612127565b50335f52600160205260ff60405f20541661210e565b3461038b5761244236611be5565b5f549091906001600160a01b031633036107535760207f70f3008dcbe7ca1157c0809d9b79a5751736957d08f23274121a0903a38cfa999160018060a01b031692835f526001825260405f209015159060ff1981541660ff8316179055604051908152a2005b3461038b57608036600319011261038b576004356124c58161037a565b602435906124d282610ff7565b6044356064356001600160401b03811161038b576124f490369060040161038f565b9160018060a01b035f54163314801561251a575b1561075357610a54946110a0946132a6565b50335f52600160205260ff60405f205416612508565b3461038b57602036600319011261038b5760043561254d8161037a565b5f546001600160a01b03163303610753576001600160a01b0316801561070457600254816001600160a01b0382167f2744eeda02c397774dc1a9c7576a416e8d6ee463c636b09a5c558cd3263843ea5f80a36001600160a01b03191617600255005b3461038b57602036600319011261038b576004356001600160401b03811161038b576125df90369060040161038f565b5f549091906001600160a01b03163303610753576125fe913691612a15565b8051156107045761260d612e4c565b815191906001600160401b03831161270c576126338361262e600954612e14565b61385c565b6020601f841160011461269157835f516020613a795f395f51905f529461266e925f91612686575b508160011b915f199060031b1c19161790565b6009555b612681604051928392836138bb565b0390a1005b90508401515f61265b565b60095f52601f198416905f516020613a595f395f51905f52915f5b8181106126f457509185915f516020613a795f395f51905f5296600194106126dc575b5050811b01600955612672565b8501515f1960f88460031b161c191690555f806126cf565b919260206001819286890151815501940192016126ac565b612740565b3461038b57602036600319011261038b576004355f526012602052602060ff60405f2054166040519015158152f35b634e487b7160e01b5f52604160045260245ffd5b61010081019081106001600160401b0382111761270c57604052565b601f909101601f19168101906001600160401b0382119082101761270c57604052565b9081602091031261038b5751610b788161037a565b6040513d5f823e3d90fd5b51906001600160401b038216820361038b57565b51906001600160801b038216820361038b57565b51906127e682611bdb565b565b51906127e682610ff7565b908161010091031261038b5761288860e06040519261281184612754565b61281a816127b3565b8452612828602082016127b3565b6020850152612839604082016127c7565b604085015261284a606082016127c7565b606085015261285b608082016127db565b608085015261286c60a082016127e8565b60a085015261287d60c082016127e8565b60c0850152016127c7565b60e082015290565b634e487b7160e01b5f52601160045260245ffd5b90620f4240820291808304620f424014901517156119ae57565b818102929181159184041417156119ae57565b81156128db570490565b634e487b7160e01b5f52601260045260245ffd5b9081602091031261038b575190565b6020909392919360ff60408201951681520152565b908060209392818452848401375f828201840152601f01601f1916010190565b93909260e09592610b7899979460018060a01b0316865260018060a01b0316602086015260408501526060840152608083015260a08201528160c08201520191612913565b604091949392606082019560018060a01b0316825260208201520152565b9081602091031261038b5751600981101561038b5790565b634e487b7160e01b5f52602160045260245ffd5b600911156129cc57565b6129ae565b916020916129ea91959495604085526040850191612913565b6001600160a01b03909416910152565b6001600160401b03811161270c57601f01601f191660200190565b929192612a21826129fa565b91612a2f6040519384612770565b82948184528183011161038b578281602093845f960137010152565b9392919095949560018060a01b035f541633148015612b2a575b1561075357612a73946132a6565b916001600160a01b038316915f5b818110612a8f575050505090565b612aa2612a9d828486612b54565b612b69565b90815115612b1b5781516020830151612ac360606040860151950151151590565b91873b1561038b57612aeb5f936040519687948594631c283b9760e31b865260048601612bbf565b038183895af191821561066b57600192612b07575b5001612a81565b806106635f612b1593612770565b5f612b00565b639033099360e01b5f5260045ffd5b50335f52600160205260ff60405f205416612a65565b634e487b7160e01b5f52603260045260245ffd5b9190811015612b645760071b0190565b612b40565b60808136031261038b576040519060808201906001600160401b0382118383101761270c576060916040528035835260208101356020840152604081013560408401520135612bb781611bdb565b606082015290565b926060929594919560808501968552602085015260408401521515910152565b90929160018060a01b035f541633148015612d1c575b15610753576001600160a01b038316928315610704576001600160a01b038316928315908115612d12575b5061070457604051635378561960e01b8152602081600481875afa90811561066b575f91612cf3575b50306001600160a01b0390911603610753578115610c9457823b1561038b575f612c89916040518093819263523c822360e11b8352868a60048501612d32565b038183875af1801561066b57612cdf575b505f5b818110612cab575050505050565b8084845f516020613ab95f395f51905f52612cd6610c65612ccf600197898d612dd3565b3691612a15565b0390a301612c9d565b806106635f612ced93612770565b5f612c9a565b612d0c915060203d60201161073d5761072e8183612770565b5f612c49565b90503b155f612c20565b50335f52600160205260ff60405f205416612bf5565b93929190816040860160408752526060850160608360051b87010192825f90601e19813603015b838310612d7c575050505050509060206127e69294019060018060a01b03169052565b909192939495605f198a820301865286358281121561038b578301602081019190356001600160401b03811161038b57803603831361038b57612dc56020928392600195612913565b980196019493019190612d59565b9190811015612b645760051b81013590601e198136030182121561038b5701803591906001600160401b03831161038b57602001823603811361038b579190565b90600182811c92168015612e42575b6020831014612e2e57565b634e487b7160e01b5f52602260045260245ffd5b91607f1691612e23565b604051905f8260095491612e5f83612e14565b8083529260018116908115612ecf5750600114612e83575b6127e692500383612770565b5060095f90815290915f516020613a595f395f51905f525b818310612eb35750509060206127e692820101612e77565b6020919350806001915483858901015201910190918492612e9b565b602092506127e694915060ff191682840152151560051b820101612e77565b9694939592909260018060a01b035f5416331480156131ac575b15610753576001600160a01b038416968715610704576001600160a01b03891696871580156131a3575b61070457604051635378561960e01b81526020816004818c5afa90811561066b575f91613184575b50306001600160a01b039091160361075357841561074457604051638da5cb5b60e01b81526020816004818c5afa90811561066b575f91613165575b506001600160a01b0381169a8b15610704576020612fc89160405180938192631d4d9cf760e01b83526004830161088d565b0381305afa90811561066b575f91613146575b50801561313757612ff490612fef886128a4565b6128d1565b9b8c15613128578c10613119577f00000000000000000000000000000000000000000000000000000000000000006001600160a01b031691823b1561038b578761305c5f969287938c8b986040519b8c9a8b998a9863cf09299560e01b8a5260048a01612933565b03925af1801561066b57613105575b50833b1561038b575f8761309493604051948592839263af7ffa2b60e01b8452600484016131c2565b038183885af1801561066b577f246821f0caf9ce5a9ae8fb3bd7097a6d47299d00676d0ec0b40b429694a8684d9388936130eb926130f1575b50604051938493846040919493926060820195825260208201520152565b0390a490565b806106635f6130ff93612770565b5f6130cd565b806106635f61311393612770565b5f61306b565b63c02e577360e01b5f5260045ffd5b6313f3da3f60e21b5f5260045ffd5b6376024b7160e01b5f5260045ffd5b61315f915060203d6020116106ae5761069f8183612770565b5f612fdb565b61317e915060203d60201161073d5761072e8183612770565b5f612f96565b61319d915060203d60201161073d5761072e8183612770565b5f612f5a565b50893b15612f32565b50335f52600160205260ff60405f205416612f08565b6001600160a01b039091168152602081019190915260400190565b8054821015612b64575f5260205f2001905f90565b5f1981146119ae5760010190565b9060041161038b5790600490565b356001600160e01b0319811692919060048210613229575050565b6001600160e01b031960049290920360031b82901b16169150565b9081602091031261038b5751610b7881611bdb565b908092918237015f815290565b3d15613290573d90613277826129fa565b916132856040519384612770565b82523d5f602084013e565b606090565b916020610b78938181520191612913565b909493926001600160a01b038216929083156107045784156135ce576008546132ff9560209290916132e2906109a7906001600160a01b031681565b905f6040518099819582946203ba1b60e51b845260048401613295565b03925af193841561066b575f946135ad575b5092946001600160a01b038616939086851580156135a4575b61357757604051635378561960e01b81526020816004818a5afa90811561066b575f91613558575b50306001600160a01b039091160361352a57604051638da5cb5b60e01b81526020816004818a5afa801561066b5786915f9161350b575b506001600160a01b0316036134dd5760405163e5a6b10f60e01b81526020816004818a5afa90811561066b575f916134be575b506133c6816129c2565b60ff80841691160361349057604051634dda221560e01b81526020816004818a5afa801561066b5784915f91613471575b50036134445783611ac382611aaa613430947fb6ce9f4a6c24844ee121b78004db1a1773ef64e1d804b875dd31413a87560cc0986137cc565b61343f604051928392836128fe565b0390a3565b604051600481525f516020613a995f395f51905f5290602090a16355c7c7ff60e01b5f526004805260245ffd5b61348a915060203d6020116106ae5761069f8183612770565b5f6133f7565b604051600381525f516020613a995f395f51905f5290602090a16355c7c7ff60e01b5f52600360045260245ffd5b6134d7915060203d602011610ac257610ab38183612770565b5f6133bc565b604051600281525f516020613a995f395f51905f5290602090a16355c7c7ff60e01b5f52600260045260245ffd5b613524915060203d60201161073d5761072e8183612770565b5f613389565b604051600181525f516020613a995f395f51905f5290602090a16355c7c7ff60e01b5f52600160045260245ffd5b613571915060203d60201161073d5761072e8183612770565b5f613352565b6040515f81525f516020613a995f395f51905f5290602090a16355c7c7ff60e01b5f90815260045260245ffd5b50803b1561332a565b6135c791945060203d60201161073d5761072e8183612770565b925f613311565b633448691b60e11b5f5260045ffd5b91949093919291906001600160a01b03841690811580156137c3575b61070457855115610c94578642116137a657604051635378561960e01b8152602081600481865afa90811561066b575f91613787575b50306001600160a01b039091160361075357602060049260405193848092638da5cb5b60e01b82525afa91821561066b575f92613760575b5061225c6136c892936122548789519a61221360208c019c8d206122058b6040519485936020850197889094939260809260a08301965f516020613a395f395f51905f52845260018060a01b03166020840152604083015260608201520152565b6001600160a01b038281169082160361373f5750506040516136f381612205602082019486866131c2565b5190209261370c611a18855f52601160205260405f2090565b61237f575f80949361372a611cf383965f52601160205260405f2090565b51925af1613736613266565b90156123635750565b636cf57d9160e11b5f526001600160a01b039081166004521660245260445ffd5b6136c8925061378061225c9160203d60201161073d5761072e8183612770565b9250613667565b6137a0915060203d60201161073d5761072e8183612770565b5f61362f565b631f1183ed60e31b5f90815242600452602452604487905260645ffd5b50843b156135f9565b6001600160a01b03165f818152600f602052604090206137ed908390610820565b805460ff191660011790555f908152600e602052604090208054600160401b81101561270c57613822916001820181556131dd565b81546001600160a01b0393841660039290921b91821b9390911b1916919091179055565b610b7891613853916138e0565b90929192613924565b90601f8211613869575050565b808211613874575050565b60095f5260205f206020601f830160051c92106138b3575b81601f9101920160051c03905f5b8281106138a657505050565b5f8282015560010161389a565b5f915061388c565b90916138d2610b78936040845260408401906116c6565b9160208184039101526116c6565b8151919060418303613910576139099250602082015190606060408401519301515f1a906139a0565b9192909190565b50505f9160029190565b600411156129cc57565b61392d8161391a565b80613936575050565b61393f8161391a565b600181036139565763f645eedf60e01b5f5260045ffd5b61395f8161391a565b6002810361397a575063fce698f760e01b5f5260045260245ffd5b8061398660039261391a565b1461398e5750565b6335e2f38360e21b5f5260045260245ffd5b91906fa2a8918ca85bafe22016d0b997e4df60600160ff1b038411613a0d579160209360809260ff5f9560405194855216868401526040830152606082015282805260015afa1561066b575f516001600160a01b03811615613a0357905f905f90565b505f906001905f90565b5050505f916003919056fe8b5e44529430631511cdb2103b51a2b17522f3ccef30b4cecb8b600e589b21845d2010d98a8af54e10756d0f1f88c21936f3cee3282ba1a12e8b6ea9dc3cd00b6e1540171b6c0c960b71a7020d9f60077f6af931a8bbf590da0223dacf75c7af944f9ca1b679ec8381ef5d5419085e9ea4df3b274eb009910b19bd295bd18fc303b08423472f7ab3868687f6f058518938a70d81f39d56bbef07d72ad5207adc6fda4e9204adb930edd263bf167f0f95464e9f84006d5c89c84ed55f50528b33a264697066735822122053c5087ea57ccea3e19eac3e81baca063fe5b5b903994d5bee81475a9a7640da64736f6c63430008210033",
  "linkReferences": {},
  "deployedLinkReferences": {},
  "immutableReferences": {
    "8367": [
      {
        "length": 32,
        "start": 1459
      },
      {
        "length": 32,
        "start": 4808
      },
      {
        "length": 32,
        "start": 5485
      },
      {
        "length": 32,
        "start": 12291
      }
    ],
    "10479": [
      {
        "length": 32,
        "start": 2831
      },
      {
        "length": 32,
        "start": 8728
      }
    ]
  },
  "inputSourceName": "project/src/BeamioUserCard/BeamioUserCardFactoryPaymasterV07.sol",
  "buildInfoId": "solc-0_8_33-558afad7b2a9b3ab58016956cd837eefacb6d718"
}