{
  "_format": "hh3-artifact-1",
  "contractName": "BeamioUserCard",
  "sourceName": "src/BeamioUserCard/BeamioUserCard.sol",
  "abi": [
    {
      "inputs": [
        {
          "internalType": "string",
          "name": "uri_",
          "type": "string"
        },
        {
          "internalType": "enum BeamioCurrency.CurrencyType",
          "name": "currency_",
          "type": "uint8"
        },
        {
          "internalType": "uint256",
          "name": "pointsUnitPriceInCurrencyE6_",
          "type": "uint256"
        },
        {
          "internalType": "address",
          "name": "initialOwner",
          "type": "address"
        },
        {
          "internalType": "address",
          "name": "gateway_",
          "type": "address"
        }
      ],
      "stateMutability": "nonpayable",
      "type": "constructor"
    },
    {
      "inputs": [],
      "name": "BM_CallFailed",
      "type": "error"
    },
    {
      "inputs": [],
      "name": "BM_NotAuthorized",
      "type": "error"
    },
    {
      "inputs": [],
      "name": "BM_ZeroAddress",
      "type": "error"
    },
    {
      "inputs": [
        {
          "internalType": "address",
          "name": "sender",
          "type": "address"
        },
        {
          "internalType": "uint256",
          "name": "balance",
          "type": "uint256"
        },
        {
          "internalType": "uint256",
          "name": "needed",
          "type": "uint256"
        },
        {
          "internalType": "uint256",
          "name": "tokenId",
          "type": "uint256"
        }
      ],
      "name": "ERC1155InsufficientBalance",
      "type": "error"
    },
    {
      "inputs": [
        {
          "internalType": "address",
          "name": "approver",
          "type": "address"
        }
      ],
      "name": "ERC1155InvalidApprover",
      "type": "error"
    },
    {
      "inputs": [
        {
          "internalType": "uint256",
          "name": "idsLength",
          "type": "uint256"
        },
        {
          "internalType": "uint256",
          "name": "valuesLength",
          "type": "uint256"
        }
      ],
      "name": "ERC1155InvalidArrayLength",
      "type": "error"
    },
    {
      "inputs": [
        {
          "internalType": "address",
          "name": "operator",
          "type": "address"
        }
      ],
      "name": "ERC1155InvalidOperator",
      "type": "error"
    },
    {
      "inputs": [
        {
          "internalType": "address",
          "name": "receiver",
          "type": "address"
        }
      ],
      "name": "ERC1155InvalidReceiver",
      "type": "error"
    },
    {
      "inputs": [
        {
          "internalType": "address",
          "name": "sender",
          "type": "address"
        }
      ],
      "name": "ERC1155InvalidSender",
      "type": "error"
    },
    {
      "inputs": [
        {
          "internalType": "address",
          "name": "operator",
          "type": "address"
        },
        {
          "internalType": "address",
          "name": "owner",
          "type": "address"
        }
      ],
      "name": "ERC1155MissingApprovalForAll",
      "type": "error"
    },
    {
      "inputs": [
        {
          "internalType": "address",
          "name": "owner",
          "type": "address"
        }
      ],
      "name": "OwnableInvalidOwner",
      "type": "error"
    },
    {
      "inputs": [
        {
          "internalType": "address",
          "name": "account",
          "type": "address"
        }
      ],
      "name": "OwnableUnauthorizedAccount",
      "type": "error"
    },
    {
      "inputs": [],
      "name": "ReentrancyGuardReentrantCall",
      "type": "error"
    },
    {
      "inputs": [],
      "name": "UC_AdminManagerRequiresOwnerSignature",
      "type": "error"
    },
    {
      "inputs": [],
      "name": "UC_AmountZero",
      "type": "error"
    },
    {
      "inputs": [],
      "name": "UC_BelowMinThreshold",
      "type": "error"
    },
    {
      "inputs": [],
      "name": "UC_GlobalMisconfigured",
      "type": "error"
    },
    {
      "inputs": [
        {
          "internalType": "address",
          "name": "fromAccount",
          "type": "address"
        },
        {
          "internalType": "uint256",
          "name": "id",
          "type": "uint256"
        },
        {
          "internalType": "uint256",
          "name": "have",
          "type": "uint256"
        },
        {
          "internalType": "uint256",
          "name": "need",
          "type": "uint256"
        }
      ],
      "name": "UC_InsufficientBalance",
      "type": "error"
    },
    {
      "inputs": [],
      "name": "UC_InvalidProposal",
      "type": "error"
    },
    {
      "inputs": [],
      "name": "UC_NoBeamioAccount",
      "type": "error"
    },
    {
      "inputs": [],
      "name": "UC_NotAdmin",
      "type": "error"
    },
    {
      "inputs": [],
      "name": "UC_PointsToNotWhitelisted",
      "type": "error"
    },
    {
      "inputs": [],
      "name": "UC_PriceZero",
      "type": "error"
    },
    {
      "inputs": [
        {
          "internalType": "bytes",
          "name": "data",
          "type": "bytes"
        }
      ],
      "name": "UC_RedeemDelegateFailed",
      "type": "error"
    },
    {
      "inputs": [],
      "name": "UC_RedeemModuleZero",
      "type": "error"
    },
    {
      "inputs": [
        {
          "internalType": "address",
          "name": "eoa",
          "type": "address"
        },
        {
          "internalType": "address",
          "name": "aaFactory",
          "type": "address"
        },
        {
          "internalType": "address",
          "name": "acct",
          "type": "address"
        }
      ],
      "name": "UC_ResolveAccountFailed",
      "type": "error"
    },
    {
      "inputs": [],
      "name": "UC_SBTNonTransferable",
      "type": "error"
    },
    {
      "inputs": [],
      "name": "UC_StatsModuleZero",
      "type": "error"
    },
    {
      "inputs": [],
      "name": "UC_TierLenMismatch",
      "type": "error"
    },
    {
      "inputs": [],
      "name": "UC_TierMinZero",
      "type": "error"
    },
    {
      "inputs": [],
      "name": "UC_UnauthorizedGateway",
      "type": "error"
    },
    {
      "anonymous": false,
      "inputs": [
        {
          "indexed": true,
          "internalType": "address",
          "name": "beneficiaryAccount",
          "type": "address"
        },
        {
          "indexed": true,
          "internalType": "uint256",
          "name": "tokenId",
          "type": "uint256"
        },
        {
          "indexed": false,
          "internalType": "uint256",
          "name": "attr",
          "type": "uint256"
        },
        {
          "indexed": false,
          "internalType": "uint256",
          "name": "expiry",
          "type": "uint256"
        }
      ],
      "name": "AdminCardMinted",
      "type": "event"
    },
    {
      "anonymous": false,
      "inputs": [
        {
          "indexed": true,
          "internalType": "address",
          "name": "account",
          "type": "address"
        },
        {
          "indexed": false,
          "internalType": "uint256",
          "name": "amount",
          "type": "uint256"
        }
      ],
      "name": "AdminPointsBurned",
      "type": "event"
    },
    {
      "anonymous": false,
      "inputs": [
        {
          "indexed": true,
          "internalType": "address",
          "name": "beneficiaryAccount",
          "type": "address"
        },
        {
          "indexed": false,
          "internalType": "uint256",
          "name": "points6",
          "type": "uint256"
        }
      ],
      "name": "AdminPointsMinted",
      "type": "event"
    },
    {
      "anonymous": false,
      "inputs": [
        {
          "indexed": true,
          "internalType": "address",
          "name": "account",
          "type": "address"
        },
        {
          "indexed": true,
          "internalType": "address",
          "name": "operator",
          "type": "address"
        },
        {
          "indexed": false,
          "internalType": "bool",
          "name": "approved",
          "type": "bool"
        }
      ],
      "name": "ApprovalForAll",
      "type": "event"
    },
    {
      "anonymous": false,
      "inputs": [
        {
          "indexed": false,
          "internalType": "uint256",
          "name": "attr",
          "type": "uint256"
        }
      ],
      "name": "DefaultAttrUpdated",
      "type": "event"
    },
    {
      "anonymous": false,
      "inputs": [
        {
          "indexed": false,
          "internalType": "uint256",
          "name": "oldSecs",
          "type": "uint256"
        },
        {
          "indexed": false,
          "internalType": "uint256",
          "name": "newSecs",
          "type": "uint256"
        }
      ],
      "name": "ExpirySecondsUpdated",
      "type": "event"
    },
    {
      "anonymous": false,
      "inputs": [
        {
          "indexed": true,
          "internalType": "uint256",
          "name": "id",
          "type": "uint256"
        },
        {
          "indexed": true,
          "internalType": "address",
          "name": "userEOA",
          "type": "address"
        },
        {
          "indexed": true,
          "internalType": "address",
          "name": "acct",
          "type": "address"
        },
        {
          "indexed": false,
          "internalType": "uint256",
          "name": "amount",
          "type": "uint256"
        },
        {
          "indexed": false,
          "internalType": "uint256",
          "name": "claimedAfter",
          "type": "uint256"
        }
      ],
      "name": "FaucetClaimed",
      "type": "event"
    },
    {
      "anonymous": false,
      "inputs": [
        {
          "indexed": true,
          "internalType": "uint256",
          "name": "id",
          "type": "uint256"
        },
        {
          "components": [
            {
              "internalType": "uint64",
              "name": "validUntil",
              "type": "uint64"
            },
            {
              "internalType": "uint64",
              "name": "perClaimMax",
              "type": "uint64"
            },
            {
              "internalType": "uint128",
              "name": "maxPerUser",
              "type": "uint128"
            },
            {
              "internalType": "uint128",
              "name": "maxGlobal",
              "type": "uint128"
            },
            {
              "internalType": "bool",
              "name": "enabled",
              "type": "bool"
            },
            {
              "internalType": "uint8",
              "name": "currency",
              "type": "uint8"
            },
            {
              "internalType": "uint8",
              "name": "decimals",
              "type": "uint8"
            },
            {
              "internalType": "uint128",
              "name": "priceInCurrency6",
              "type": "uint128"
            }
          ],
          "indexed": false,
          "internalType": "struct FaucetStorage.FaucetConfig",
          "name": "cfg",
          "type": "tuple"
        }
      ],
      "name": "FaucetConfigUpdated",
      "type": "event"
    },
    {
      "anonymous": false,
      "inputs": [
        {
          "indexed": true,
          "internalType": "uint256",
          "name": "tokenId",
          "type": "uint256"
        },
        {
          "indexed": false,
          "internalType": "bytes32",
          "name": "title",
          "type": "bytes32"
        },
        {
          "indexed": false,
          "internalType": "uint64",
          "name": "validAfter",
          "type": "uint64"
        },
        {
          "indexed": false,
          "internalType": "uint64",
          "name": "validBefore",
          "type": "uint64"
        },
        {
          "indexed": false,
          "internalType": "uint256",
          "name": "maxSupply",
          "type": "uint256"
        },
        {
          "indexed": false,
          "internalType": "uint256",
          "name": "priceInCurrency6",
          "type": "uint256"
        },
        {
          "indexed": false,
          "internalType": "bytes32",
          "name": "sharedMetadataHash",
          "type": "bytes32"
        }
      ],
      "name": "IssuedNftCreated",
      "type": "event"
    },
    {
      "anonymous": false,
      "inputs": [
        {
          "indexed": true,
          "internalType": "uint256",
          "name": "tokenId",
          "type": "uint256"
        },
        {
          "indexed": true,
          "internalType": "address",
          "name": "recipient",
          "type": "address"
        },
        {
          "indexed": false,
          "internalType": "uint256",
          "name": "amount",
          "type": "uint256"
        }
      ],
      "name": "IssuedNftMinted",
      "type": "event"
    },
    {
      "anonymous": false,
      "inputs": [
        {
          "indexed": true,
          "internalType": "address",
          "name": "user",
          "type": "address"
        },
        {
          "indexed": true,
          "internalType": "uint256",
          "name": "tokenId",
          "type": "uint256"
        },
        {
          "indexed": false,
          "internalType": "uint256",
          "name": "tierIndexOrMax",
          "type": "uint256"
        },
        {
          "indexed": false,
          "internalType": "uint256",
          "name": "minUsdc6",
          "type": "uint256"
        },
        {
          "indexed": false,
          "internalType": "uint256",
          "name": "expiry",
          "type": "uint256"
        }
      ],
      "name": "MemberNFTIssued",
      "type": "event"
    },
    {
      "anonymous": false,
      "inputs": [
        {
          "indexed": true,
          "internalType": "address",
          "name": "user",
          "type": "address"
        },
        {
          "indexed": true,
          "internalType": "uint256",
          "name": "oldActiveTokenId",
          "type": "uint256"
        },
        {
          "indexed": true,
          "internalType": "uint256",
          "name": "newTokenId",
          "type": "uint256"
        },
        {
          "indexed": false,
          "internalType": "uint256",
          "name": "oldTierIndexOrMax",
          "type": "uint256"
        },
        {
          "indexed": false,
          "internalType": "uint256",
          "name": "newTierIndex",
          "type": "uint256"
        },
        {
          "indexed": false,
          "internalType": "uint256",
          "name": "newExpiry",
          "type": "uint256"
        }
      ],
      "name": "MemberNFTUpgraded",
      "type": "event"
    },
    {
      "anonymous": false,
      "inputs": [
        {
          "indexed": true,
          "internalType": "address",
          "name": "previousOwner",
          "type": "address"
        },
        {
          "indexed": true,
          "internalType": "address",
          "name": "newOwner",
          "type": "address"
        }
      ],
      "name": "OwnershipTransferred",
      "type": "event"
    },
    {
      "anonymous": false,
      "inputs": [
        {
          "indexed": true,
          "internalType": "address",
          "name": "userEOA",
          "type": "address"
        },
        {
          "indexed": true,
          "internalType": "address",
          "name": "acct",
          "type": "address"
        },
        {
          "indexed": false,
          "internalType": "uint256",
          "name": "points6",
          "type": "uint256"
        }
      ],
      "name": "PointsMintedByGateway",
      "type": "event"
    },
    {
      "anonymous": false,
      "inputs": [
        {
          "indexed": true,
          "internalType": "address",
          "name": "payerEOA",
          "type": "address"
        },
        {
          "indexed": true,
          "internalType": "address",
          "name": "beneficiaryAccount",
          "type": "address"
        },
        {
          "indexed": true,
          "internalType": "address",
          "name": "usdc",
          "type": "address"
        },
        {
          "indexed": false,
          "internalType": "uint256",
          "name": "usdcIn6",
          "type": "uint256"
        },
        {
          "indexed": false,
          "internalType": "uint256",
          "name": "pointsMinted6",
          "type": "uint256"
        },
        {
          "indexed": false,
          "internalType": "uint256",
          "name": "unitPointPriceUsdc6",
          "type": "uint256"
        },
        {
          "indexed": false,
          "internalType": "bytes32",
          "name": "nonce",
          "type": "bytes32"
        }
      ],
      "name": "PointsPurchasedWithUSDC",
      "type": "event"
    },
    {
      "anonymous": false,
      "inputs": [
        {
          "indexed": false,
          "internalType": "uint256",
          "name": "priceInCurrencyE6",
          "type": "uint256"
        }
      ],
      "name": "PointsUnitPriceUpdated",
      "type": "event"
    },
    {
      "anonymous": false,
      "inputs": [
        {
          "indexed": true,
          "internalType": "uint256",
          "name": "id",
          "type": "uint256"
        },
        {
          "indexed": true,
          "internalType": "address",
          "name": "admin",
          "type": "address"
        }
      ],
      "name": "ProposalApproved",
      "type": "event"
    },
    {
      "anonymous": false,
      "inputs": [
        {
          "indexed": true,
          "internalType": "uint256",
          "name": "id",
          "type": "uint256"
        },
        {
          "indexed": true,
          "internalType": "bytes4",
          "name": "selector",
          "type": "bytes4"
        },
        {
          "indexed": true,
          "internalType": "address",
          "name": "proposer",
          "type": "address"
        }
      ],
      "name": "ProposalCreated",
      "type": "event"
    },
    {
      "anonymous": false,
      "inputs": [
        {
          "indexed": true,
          "internalType": "uint256",
          "name": "id",
          "type": "uint256"
        }
      ],
      "name": "ProposalExecuted",
      "type": "event"
    },
    {
      "anonymous": false,
      "inputs": [
        {
          "indexed": true,
          "internalType": "bytes32",
          "name": "hash",
          "type": "bytes32"
        }
      ],
      "name": "RedeemCancelled",
      "type": "event"
    },
    {
      "anonymous": false,
      "inputs": [
        {
          "indexed": true,
          "internalType": "bytes32",
          "name": "hash",
          "type": "bytes32"
        },
        {
          "indexed": false,
          "internalType": "uint256",
          "name": "points6",
          "type": "uint256"
        },
        {
          "indexed": false,
          "internalType": "uint256",
          "name": "attr",
          "type": "uint256"
        }
      ],
      "name": "RedeemCreated",
      "type": "event"
    },
    {
      "anonymous": false,
      "inputs": [
        {
          "indexed": false,
          "internalType": "uint256",
          "name": "index",
          "type": "uint256"
        },
        {
          "indexed": false,
          "internalType": "uint256",
          "name": "minUsdc6",
          "type": "uint256"
        },
        {
          "indexed": false,
          "internalType": "uint256",
          "name": "attr",
          "type": "uint256"
        },
        {
          "indexed": false,
          "internalType": "uint256",
          "name": "tierExpirySeconds",
          "type": "uint256"
        },
        {
          "indexed": false,
          "internalType": "bool",
          "name": "upgradeByBalance",
          "type": "bool"
        }
      ],
      "name": "TierAppended",
      "type": "event"
    },
    {
      "anonymous": false,
      "inputs": [
        {
          "indexed": false,
          "internalType": "uint256",
          "name": "count",
          "type": "uint256"
        }
      ],
      "name": "TiersUpdated",
      "type": "event"
    },
    {
      "anonymous": false,
      "inputs": [
        {
          "indexed": true,
          "internalType": "address",
          "name": "operator",
          "type": "address"
        },
        {
          "indexed": true,
          "internalType": "address",
          "name": "from",
          "type": "address"
        },
        {
          "indexed": true,
          "internalType": "address",
          "name": "to",
          "type": "address"
        },
        {
          "indexed": false,
          "internalType": "uint256[]",
          "name": "ids",
          "type": "uint256[]"
        },
        {
          "indexed": false,
          "internalType": "uint256[]",
          "name": "values",
          "type": "uint256[]"
        }
      ],
      "name": "TransferBatch",
      "type": "event"
    },
    {
      "anonymous": false,
      "inputs": [
        {
          "indexed": true,
          "internalType": "address",
          "name": "operator",
          "type": "address"
        },
        {
          "indexed": true,
          "internalType": "address",
          "name": "from",
          "type": "address"
        },
        {
          "indexed": true,
          "internalType": "address",
          "name": "to",
          "type": "address"
        },
        {
          "indexed": false,
          "internalType": "uint256",
          "name": "id",
          "type": "uint256"
        },
        {
          "indexed": false,
          "internalType": "uint256",
          "name": "value",
          "type": "uint256"
        }
      ],
      "name": "TransferSingle",
      "type": "event"
    },
    {
      "anonymous": false,
      "inputs": [
        {
          "indexed": false,
          "internalType": "bool",
          "name": "enabled",
          "type": "bool"
        }
      ],
      "name": "TransferWhitelistEnabledUpdated",
      "type": "event"
    },
    {
      "anonymous": false,
      "inputs": [
        {
          "indexed": false,
          "internalType": "string",
          "name": "value",
          "type": "string"
        },
        {
          "indexed": true,
          "internalType": "uint256",
          "name": "id",
          "type": "uint256"
        }
      ],
      "name": "URI",
      "type": "event"
    },
    {
      "stateMutability": "nonpayable",
      "type": "fallback"
    },
    {
      "inputs": [],
      "name": "ISSUED_NFT_START_ID",
      "outputs": [
        {
          "internalType": "uint256",
          "name": "",
          "type": "uint256"
        }
      ],
      "stateMutability": "view",
      "type": "function"
    },
    {
      "inputs": [],
      "name": "NFT_START_ID",
      "outputs": [
        {
          "internalType": "uint256",
          "name": "",
          "type": "uint256"
        }
      ],
      "stateMutability": "view",
      "type": "function"
    },
    {
      "inputs": [],
      "name": "POINTS_DECIMALS",
      "outputs": [
        {
          "internalType": "uint8",
          "name": "",
          "type": "uint8"
        }
      ],
      "stateMutability": "view",
      "type": "function"
    },
    {
      "inputs": [],
      "name": "POINTS_ID",
      "outputs": [
        {
          "internalType": "uint256",
          "name": "",
          "type": "uint256"
        }
      ],
      "stateMutability": "view",
      "type": "function"
    },
    {
      "inputs": [],
      "name": "VERSION",
      "outputs": [
        {
          "internalType": "uint256",
          "name": "",
          "type": "uint256"
        }
      ],
      "stateMutability": "view",
      "type": "function"
    },
    {
      "inputs": [
        {
          "internalType": "address",
          "name": "",
          "type": "address"
        },
        {
          "internalType": "uint256",
          "name": "",
          "type": "uint256"
        }
      ],
      "name": "_userOwnedNfts",
      "outputs": [
        {
          "internalType": "uint256",
          "name": "",
          "type": "uint256"
        }
      ],
      "stateMutability": "view",
      "type": "function"
    },
    {
      "inputs": [
        {
          "internalType": "uint256",
          "name": "",
          "type": "uint256"
        }
      ],
      "name": "activeMembershipCountByTierIndex",
      "outputs": [
        {
          "internalType": "uint256",
          "name": "",
          "type": "uint256"
        }
      ],
      "stateMutability": "view",
      "type": "function"
    },
    {
      "inputs": [
        {
          "internalType": "uint256",
          "name": "",
          "type": "uint256"
        }
      ],
      "name": "activeMembershipCountByTokenId",
      "outputs": [
        {
          "internalType": "uint256",
          "name": "",
          "type": "uint256"
        }
      ],
      "stateMutability": "view",
      "type": "function"
    },
    {
      "inputs": [
        {
          "internalType": "address",
          "name": "",
          "type": "address"
        }
      ],
      "name": "activeMembershipId",
      "outputs": [
        {
          "internalType": "uint256",
          "name": "",
          "type": "uint256"
        }
      ],
      "stateMutability": "view",
      "type": "function"
    },
    {
      "inputs": [
        {
          "internalType": "address",
          "name": "",
          "type": "address"
        }
      ],
      "name": "activeTierIndexOrMax",
      "outputs": [
        {
          "internalType": "uint256",
          "name": "",
          "type": "uint256"
        }
      ],
      "stateMutability": "view",
      "type": "function"
    },
    {
      "inputs": [
        {
          "internalType": "address",
          "name": "a",
          "type": "address"
        }
      ],
      "name": "adminParent",
      "outputs": [
        {
          "internalType": "address",
          "name": "",
          "type": "address"
        }
      ],
      "stateMutability": "view",
      "type": "function"
    },
    {
      "inputs": [
        {
          "internalType": "uint256",
          "name": "minUsdc6",
          "type": "uint256"
        },
        {
          "internalType": "uint256",
          "name": "attr",
          "type": "uint256"
        },
        {
          "internalType": "uint256",
          "name": "tierExpirySeconds",
          "type": "uint256"
        },
        {
          "internalType": "bool",
          "name": "upgradeByBalance",
          "type": "bool"
        }
      ],
      "name": "appendTier",
      "outputs": [],
      "stateMutability": "nonpayable",
      "type": "function"
    },
    {
      "inputs": [
        {
          "internalType": "uint256",
          "name": "id",
          "type": "uint256"
        }
      ],
      "name": "approveProposal",
      "outputs": [],
      "stateMutability": "nonpayable",
      "type": "function"
    },
    {
      "inputs": [
        {
          "internalType": "uint256",
          "name": "id",
          "type": "uint256"
        },
        {
          "internalType": "address",
          "name": "adminSigner",
          "type": "address"
        }
      ],
      "name": "approveProposalByGateway",
      "outputs": [],
      "stateMutability": "nonpayable",
      "type": "function"
    },
    {
      "inputs": [
        {
          "internalType": "uint256",
          "name": "",
          "type": "uint256"
        }
      ],
      "name": "attributes",
      "outputs": [
        {
          "internalType": "uint256",
          "name": "",
          "type": "uint256"
        }
      ],
      "stateMutability": "view",
      "type": "function"
    },
    {
      "inputs": [
        {
          "internalType": "address",
          "name": "account",
          "type": "address"
        },
        {
          "internalType": "uint256",
          "name": "id",
          "type": "uint256"
        }
      ],
      "name": "balanceOf",
      "outputs": [
        {
          "internalType": "uint256",
          "name": "",
          "type": "uint256"
        }
      ],
      "stateMutability": "view",
      "type": "function"
    },
    {
      "inputs": [
        {
          "internalType": "address[]",
          "name": "accounts",
          "type": "address[]"
        },
        {
          "internalType": "uint256[]",
          "name": "ids",
          "type": "uint256[]"
        }
      ],
      "name": "balanceOfBatch",
      "outputs": [
        {
          "internalType": "uint256[]",
          "name": "",
          "type": "uint256[]"
        }
      ],
      "stateMutability": "view",
      "type": "function"
    },
    {
      "inputs": [
        {
          "internalType": "address",
          "name": "target",
          "type": "address"
        },
        {
          "internalType": "uint256",
          "name": "amount",
          "type": "uint256"
        }
      ],
      "name": "burnPointsByAdmin",
      "outputs": [],
      "stateMutability": "nonpayable",
      "type": "function"
    },
    {
      "inputs": [
        {
          "internalType": "address",
          "name": "subordinate",
          "type": "address"
        },
        {
          "internalType": "address",
          "name": "authorizer",
          "type": "address"
        }
      ],
      "name": "clearAdminMintCounterForSubordinate",
      "outputs": [],
      "stateMutability": "nonpayable",
      "type": "function"
    },
    {
      "inputs": [
        {
          "internalType": "bytes4",
          "name": "selector",
          "type": "bytes4"
        },
        {
          "internalType": "address",
          "name": "target",
          "type": "address"
        },
        {
          "internalType": "uint256",
          "name": "v1",
          "type": "uint256"
        },
        {
          "internalType": "uint256",
          "name": "v2",
          "type": "uint256"
        },
        {
          "internalType": "uint256",
          "name": "v3",
          "type": "uint256"
        }
      ],
      "name": "createProposal",
      "outputs": [
        {
          "internalType": "uint256",
          "name": "",
          "type": "uint256"
        }
      ],
      "stateMutability": "nonpayable",
      "type": "function"
    },
    {
      "inputs": [],
      "name": "currency",
      "outputs": [
        {
          "internalType": "enum BeamioCurrency.CurrencyType",
          "name": "",
          "type": "uint8"
        }
      ],
      "stateMutability": "view",
      "type": "function"
    },
    {
      "inputs": [],
      "name": "debugGateway",
      "outputs": [
        {
          "internalType": "address",
          "name": "",
          "type": "address"
        }
      ],
      "stateMutability": "view",
      "type": "function"
    },
    {
      "inputs": [],
      "name": "defaultAttrWhenNoTiers",
      "outputs": [
        {
          "internalType": "uint256",
          "name": "",
          "type": "uint256"
        }
      ],
      "stateMutability": "view",
      "type": "function"
    },
    {
      "inputs": [],
      "name": "deployer",
      "outputs": [
        {
          "internalType": "address",
          "name": "",
          "type": "address"
        }
      ],
      "stateMutability": "view",
      "type": "function"
    },
    {
      "inputs": [
        {
          "internalType": "uint256",
          "name": "",
          "type": "uint256"
        }
      ],
      "name": "expiresAt",
      "outputs": [
        {
          "internalType": "uint256",
          "name": "",
          "type": "uint256"
        }
      ],
      "stateMutability": "view",
      "type": "function"
    },
    {
      "inputs": [],
      "name": "expirySeconds",
      "outputs": [
        {
          "internalType": "uint256",
          "name": "",
          "type": "uint256"
        }
      ],
      "stateMutability": "view",
      "type": "function"
    },
    {
      "inputs": [],
      "name": "factoryGateway",
      "outputs": [
        {
          "internalType": "address",
          "name": "",
          "type": "address"
        }
      ],
      "stateMutability": "view",
      "type": "function"
    },
    {
      "inputs": [
        {
          "internalType": "address",
          "name": "userEOA",
          "type": "address"
        },
        {
          "internalType": "uint256",
          "name": "id",
          "type": "uint256"
        },
        {
          "internalType": "uint256",
          "name": "amount",
          "type": "uint256"
        }
      ],
      "name": "faucetByGateway",
      "outputs": [],
      "stateMutability": "nonpayable",
      "type": "function"
    },
    {
      "inputs": [
        {
          "internalType": "uint256",
          "name": "id",
          "type": "uint256"
        }
      ],
      "name": "faucetConfig",
      "outputs": [
        {
          "components": [
            {
              "internalType": "uint64",
              "name": "validUntil",
              "type": "uint64"
            },
            {
              "internalType": "uint64",
              "name": "perClaimMax",
              "type": "uint64"
            },
            {
              "internalType": "uint128",
              "name": "maxPerUser",
              "type": "uint128"
            },
            {
              "internalType": "uint128",
              "name": "maxGlobal",
              "type": "uint128"
            },
            {
              "internalType": "bool",
              "name": "enabled",
              "type": "bool"
            },
            {
              "internalType": "uint8",
              "name": "currency",
              "type": "uint8"
            },
            {
              "internalType": "uint8",
              "name": "decimals",
              "type": "uint8"
            },
            {
              "internalType": "uint128",
              "name": "priceInCurrency6",
              "type": "uint128"
            }
          ],
          "internalType": "struct FaucetStorage.FaucetConfig",
          "name": "",
          "type": "tuple"
        }
      ],
      "stateMutability": "view",
      "type": "function"
    },
    {
      "inputs": [],
      "name": "gateway",
      "outputs": [
        {
          "internalType": "address",
          "name": "",
          "type": "address"
        }
      ],
      "stateMutability": "view",
      "type": "function"
    },
    {
      "inputs": [
        {
          "internalType": "address",
          "name": "admin",
          "type": "address"
        }
      ],
      "name": "getAdminBurnCounter",
      "outputs": [
        {
          "internalType": "uint256",
          "name": "",
          "type": "uint256"
        }
      ],
      "stateMutability": "view",
      "type": "function"
    },
    {
      "inputs": [
        {
          "internalType": "address",
          "name": "admin",
          "type": "address"
        }
      ],
      "name": "getAdminMintCounter",
      "outputs": [
        {
          "internalType": "uint256",
          "name": "",
          "type": "uint256"
        }
      ],
      "stateMutability": "view",
      "type": "function"
    },
    {
      "inputs": [
        {
          "internalType": "address",
          "name": "admin",
          "type": "address"
        }
      ],
      "name": "getAdminRedeemMintCounter",
      "outputs": [
        {
          "internalType": "uint256",
          "name": "",
          "type": "uint256"
        }
      ],
      "stateMutability": "view",
      "type": "function"
    },
    {
      "inputs": [
        {
          "internalType": "address",
          "name": "admin",
          "type": "address"
        }
      ],
      "name": "getAdminTransferCounter",
      "outputs": [
        {
          "internalType": "uint256",
          "name": "",
          "type": "uint256"
        }
      ],
      "stateMutability": "view",
      "type": "function"
    },
    {
      "inputs": [
        {
          "internalType": "address",
          "name": "admin",
          "type": "address"
        }
      ],
      "name": "getAdminUSDCMintCounter",
      "outputs": [
        {
          "internalType": "uint256",
          "name": "",
          "type": "uint256"
        }
      ],
      "stateMutability": "view",
      "type": "function"
    },
    {
      "inputs": [
        {
          "internalType": "address",
          "name": "user",
          "type": "address"
        }
      ],
      "name": "getOwnership",
      "outputs": [
        {
          "internalType": "uint256",
          "name": "pt",
          "type": "uint256"
        },
        {
          "components": [
            {
              "internalType": "uint256",
              "name": "tokenId",
              "type": "uint256"
            },
            {
              "internalType": "uint256",
              "name": "attribute",
              "type": "uint256"
            },
            {
              "internalType": "uint256",
              "name": "tierIndexOrMax",
              "type": "uint256"
            },
            {
              "internalType": "uint256",
              "name": "expiry",
              "type": "uint256"
            },
            {
              "internalType": "bool",
              "name": "isExpired",
              "type": "bool"
            }
          ],
          "internalType": "struct BeamioUserCard.NFTDetail[]",
          "name": "nfts",
          "type": "tuple[]"
        }
      ],
      "stateMutability": "view",
      "type": "function"
    },
    {
      "inputs": [
        {
          "internalType": "address",
          "name": "userEOA",
          "type": "address"
        }
      ],
      "name": "getOwnershipByEOA",
      "outputs": [
        {
          "internalType": "uint256",
          "name": "pt",
          "type": "uint256"
        },
        {
          "components": [
            {
              "internalType": "uint256",
              "name": "tokenId",
              "type": "uint256"
            },
            {
              "internalType": "uint256",
              "name": "attribute",
              "type": "uint256"
            },
            {
              "internalType": "uint256",
              "name": "tierIndexOrMax",
              "type": "uint256"
            },
            {
              "internalType": "uint256",
              "name": "expiry",
              "type": "uint256"
            },
            {
              "internalType": "bool",
              "name": "isExpired",
              "type": "bool"
            }
          ],
          "internalType": "struct BeamioUserCard.NFTDetail[]",
          "name": "nfts",
          "type": "tuple[]"
        }
      ],
      "stateMutability": "view",
      "type": "function"
    },
    {
      "inputs": [
        {
          "internalType": "address",
          "name": "a",
          "type": "address"
        }
      ],
      "name": "isAdmin",
      "outputs": [
        {
          "internalType": "bool",
          "name": "",
          "type": "bool"
        }
      ],
      "stateMutability": "view",
      "type": "function"
    },
    {
      "inputs": [
        {
          "internalType": "address",
          "name": "account",
          "type": "address"
        },
        {
          "internalType": "address",
          "name": "operator",
          "type": "address"
        }
      ],
      "name": "isApprovedForAll",
      "outputs": [
        {
          "internalType": "bool",
          "name": "",
          "type": "bool"
        }
      ],
      "stateMutability": "view",
      "type": "function"
    },
    {
      "inputs": [
        {
          "internalType": "uint256",
          "name": "tokenId",
          "type": "uint256"
        }
      ],
      "name": "isIssuedNftValid",
      "outputs": [
        {
          "internalType": "bool",
          "name": "",
          "type": "bool"
        }
      ],
      "stateMutability": "view",
      "type": "function"
    },
    {
      "inputs": [
        {
          "internalType": "uint256",
          "name": "tokenId",
          "type": "uint256"
        }
      ],
      "name": "issuedNftPriceInCurrency6",
      "outputs": [
        {
          "internalType": "uint256",
          "name": "",
          "type": "uint256"
        }
      ],
      "stateMutability": "view",
      "type": "function"
    },
    {
      "inputs": [
        {
          "internalType": "uint64",
          "name": "hourIndex",
          "type": "uint64"
        }
      ],
      "name": "membershipFlowBucketAtHour",
      "outputs": [
        {
          "internalType": "uint256",
          "name": "issuedCount",
          "type": "uint256"
        },
        {
          "internalType": "uint256",
          "name": "upgradedCount",
          "type": "uint256"
        },
        {
          "internalType": "uint256",
          "name": "expiredDiscoveredCount",
          "type": "uint256"
        },
        {
          "internalType": "uint256",
          "name": "activeSwitchCount",
          "type": "uint256"
        },
        {
          "internalType": "uint256",
          "name": "activatedCount",
          "type": "uint256"
        },
        {
          "internalType": "uint256",
          "name": "deactivatedCount",
          "type": "uint256"
        },
        {
          "internalType": "bool",
          "name": "hasData",
          "type": "bool"
        }
      ],
      "stateMutability": "view",
      "type": "function"
    },
    {
      "inputs": [
        {
          "internalType": "uint8",
          "name": "scopeType",
          "type": "uint8"
        },
        {
          "internalType": "uint256",
          "name": "scopeKey",
          "type": "uint256"
        },
        {
          "internalType": "uint64",
          "name": "hourIndex",
          "type": "uint64"
        }
      ],
      "name": "membershipScopedFlowBucketAtHour",
      "outputs": [
        {
          "internalType": "uint256",
          "name": "issuedCount",
          "type": "uint256"
        },
        {
          "internalType": "uint256",
          "name": "upgradedCount",
          "type": "uint256"
        },
        {
          "internalType": "uint256",
          "name": "expiredDiscoveredCount",
          "type": "uint256"
        },
        {
          "internalType": "uint256",
          "name": "activeSwitchCount",
          "type": "uint256"
        },
        {
          "internalType": "uint256",
          "name": "activatedCount",
          "type": "uint256"
        },
        {
          "internalType": "uint256",
          "name": "deactivatedCount",
          "type": "uint256"
        },
        {
          "internalType": "bool",
          "name": "hasData",
          "type": "bool"
        }
      ],
      "stateMutability": "view",
      "type": "function"
    },
    {
      "inputs": [],
      "name": "metadataBaseURI",
      "outputs": [
        {
          "internalType": "string",
          "name": "",
          "type": "string"
        }
      ],
      "stateMutability": "view",
      "type": "function"
    },
    {
      "inputs": [
        {
          "internalType": "address",
          "name": "userEOA",
          "type": "address"
        },
        {
          "internalType": "uint256",
          "name": "id",
          "type": "uint256"
        },
        {
          "internalType": "uint256",
          "name": "amount6",
          "type": "uint256"
        }
      ],
      "name": "mintFaucetByGateway",
      "outputs": [],
      "stateMutability": "nonpayable",
      "type": "function"
    },
    {
      "inputs": [
        {
          "internalType": "address",
          "name": "userEOA",
          "type": "address"
        },
        {
          "internalType": "uint256",
          "name": "tokenId",
          "type": "uint256"
        },
        {
          "internalType": "uint256",
          "name": "amount",
          "type": "uint256"
        }
      ],
      "name": "mintIssuedNftByGateway",
      "outputs": [],
      "stateMutability": "nonpayable",
      "type": "function"
    },
    {
      "inputs": [
        {
          "internalType": "address",
          "name": "to",
          "type": "address"
        },
        {
          "internalType": "uint256",
          "name": "tokenId",
          "type": "uint256"
        },
        {
          "internalType": "uint256",
          "name": "amount",
          "type": "uint256"
        }
      ],
      "name": "mintIssuedNftByOwner",
      "outputs": [],
      "stateMutability": "nonpayable",
      "type": "function"
    },
    {
      "inputs": [
        {
          "internalType": "address",
          "name": "user",
          "type": "address"
        },
        {
          "internalType": "uint256",
          "name": "tierIndex",
          "type": "uint256"
        }
      ],
      "name": "mintMemberCardByAdmin",
      "outputs": [],
      "stateMutability": "nonpayable",
      "type": "function"
    },
    {
      "inputs": [
        {
          "internalType": "address",
          "name": "user",
          "type": "address"
        },
        {
          "internalType": "uint256",
          "name": "points6",
          "type": "uint256"
        }
      ],
      "name": "mintPointsByAdmin",
      "outputs": [],
      "stateMutability": "nonpayable",
      "type": "function"
    },
    {
      "inputs": [
        {
          "internalType": "address",
          "name": "user",
          "type": "address"
        },
        {
          "internalType": "uint256",
          "name": "points6",
          "type": "uint256"
        },
        {
          "internalType": "address",
          "name": "operator",
          "type": "address"
        }
      ],
      "name": "mintPointsByAdminWithOperator",
      "outputs": [],
      "stateMutability": "nonpayable",
      "type": "function"
    },
    {
      "inputs": [
        {
          "internalType": "address",
          "name": "userEOA",
          "type": "address"
        },
        {
          "internalType": "uint256",
          "name": "points6",
          "type": "uint256"
        }
      ],
      "name": "mintPointsByGateway",
      "outputs": [],
      "stateMutability": "nonpayable",
      "type": "function"
    },
    {
      "inputs": [
        {
          "internalType": "address",
          "name": "userEOA",
          "type": "address"
        },
        {
          "internalType": "uint256",
          "name": "points6",
          "type": "uint256"
        },
        {
          "internalType": "address",
          "name": "operator",
          "type": "address"
        }
      ],
      "name": "mintPointsByGatewayWithOperator",
      "outputs": [],
      "stateMutability": "nonpayable",
      "type": "function"
    },
    {
      "inputs": [],
      "name": "owner",
      "outputs": [
        {
          "internalType": "address",
          "name": "",
          "type": "address"
        }
      ],
      "stateMutability": "view",
      "type": "function"
    },
    {
      "inputs": [],
      "name": "pointsUnitPriceInCurrencyE6",
      "outputs": [
        {
          "internalType": "uint256",
          "name": "",
          "type": "uint256"
        }
      ],
      "stateMutability": "view",
      "type": "function"
    },
    {
      "inputs": [
        {
          "internalType": "address",
          "name": "operator",
          "type": "address"
        },
        {
          "internalType": "uint256",
          "name": "amount",
          "type": "uint256"
        }
      ],
      "name": "recordAdminBurnForStats",
      "outputs": [],
      "stateMutability": "nonpayable",
      "type": "function"
    },
    {
      "inputs": [
        {
          "internalType": "address",
          "name": "admin",
          "type": "address"
        },
        {
          "internalType": "uint256",
          "name": "amount",
          "type": "uint256"
        }
      ],
      "name": "recordAdminMintForStats",
      "outputs": [],
      "stateMutability": "nonpayable",
      "type": "function"
    },
    {
      "inputs": [
        {
          "internalType": "string",
          "name": "code",
          "type": "string"
        },
        {
          "internalType": "address",
          "name": "to",
          "type": "address"
        }
      ],
      "name": "redeemAdminByGateway",
      "outputs": [],
      "stateMutability": "nonpayable",
      "type": "function"
    },
    {
      "inputs": [
        {
          "internalType": "string[]",
          "name": "codes",
          "type": "string[]"
        },
        {
          "internalType": "address",
          "name": "userEOA",
          "type": "address"
        }
      ],
      "name": "redeemBatchByGateway",
      "outputs": [],
      "stateMutability": "nonpayable",
      "type": "function"
    },
    {
      "inputs": [
        {
          "internalType": "string",
          "name": "code",
          "type": "string"
        },
        {
          "internalType": "address",
          "name": "userEOA",
          "type": "address"
        }
      ],
      "name": "redeemByGateway",
      "outputs": [],
      "stateMutability": "nonpayable",
      "type": "function"
    },
    {
      "inputs": [
        {
          "internalType": "string",
          "name": "code",
          "type": "string"
        },
        {
          "internalType": "address",
          "name": "userEOA",
          "type": "address"
        }
      ],
      "name": "redeemPoolByGateway",
      "outputs": [],
      "stateMutability": "nonpayable",
      "type": "function"
    },
    {
      "inputs": [],
      "name": "renounceOwnership",
      "outputs": [],
      "stateMutability": "nonpayable",
      "type": "function"
    },
    {
      "inputs": [
        {
          "internalType": "address",
          "name": "from",
          "type": "address"
        },
        {
          "internalType": "address",
          "name": "to",
          "type": "address"
        },
        {
          "internalType": "uint256[]",
          "name": "ids",
          "type": "uint256[]"
        },
        {
          "internalType": "uint256[]",
          "name": "values",
          "type": "uint256[]"
        },
        {
          "internalType": "bytes",
          "name": "data",
          "type": "bytes"
        }
      ],
      "name": "safeBatchTransferFrom",
      "outputs": [],
      "stateMutability": "nonpayable",
      "type": "function"
    },
    {
      "inputs": [
        {
          "internalType": "address",
          "name": "from",
          "type": "address"
        },
        {
          "internalType": "address",
          "name": "to",
          "type": "address"
        },
        {
          "internalType": "uint256",
          "name": "id",
          "type": "uint256"
        },
        {
          "internalType": "uint256",
          "name": "value",
          "type": "uint256"
        },
        {
          "internalType": "bytes",
          "name": "data",
          "type": "bytes"
        }
      ],
      "name": "safeTransferFrom",
      "outputs": [],
      "stateMutability": "nonpayable",
      "type": "function"
    },
    {
      "inputs": [
        {
          "internalType": "address",
          "name": "operator",
          "type": "address"
        },
        {
          "internalType": "bool",
          "name": "approved",
          "type": "bool"
        }
      ],
      "name": "setApprovalForAll",
      "outputs": [],
      "stateMutability": "nonpayable",
      "type": "function"
    },
    {
      "inputs": [
        {
          "internalType": "uint256",
          "name": "attr",
          "type": "uint256"
        }
      ],
      "name": "setDefaultAttr",
      "outputs": [],
      "stateMutability": "nonpayable",
      "type": "function"
    },
    {
      "inputs": [
        {
          "internalType": "uint256",
          "name": "secs",
          "type": "uint256"
        }
      ],
      "name": "setExpirySeconds",
      "outputs": [],
      "stateMutability": "nonpayable",
      "type": "function"
    },
    {
      "inputs": [
        {
          "internalType": "uint256",
          "name": "priceInCurrencyE6",
          "type": "uint256"
        }
      ],
      "name": "setPointsUnitPrice",
      "outputs": [],
      "stateMutability": "nonpayable",
      "type": "function"
    },
    {
      "inputs": [
        {
          "components": [
            {
              "internalType": "uint256",
              "name": "minUsdc6",
              "type": "uint256"
            },
            {
              "internalType": "uint256",
              "name": "attr",
              "type": "uint256"
            },
            {
              "internalType": "uint256",
              "name": "tierExpirySeconds",
              "type": "uint256"
            },
            {
              "internalType": "bool",
              "name": "upgradeByBalance",
              "type": "bool"
            }
          ],
          "internalType": "struct BeamioUserCard.Tier[]",
          "name": "newTiers",
          "type": "tuple[]"
        }
      ],
      "name": "setTiers",
      "outputs": [],
      "stateMutability": "nonpayable",
      "type": "function"
    },
    {
      "inputs": [
        {
          "internalType": "address",
          "name": "target",
          "type": "address"
        },
        {
          "internalType": "bool",
          "name": "allowed",
          "type": "bool"
        }
      ],
      "name": "setTransferWhitelist",
      "outputs": [],
      "stateMutability": "nonpayable",
      "type": "function"
    },
    {
      "inputs": [
        {
          "internalType": "bool",
          "name": "enabled",
          "type": "bool"
        }
      ],
      "name": "setTransferWhitelistEnabled",
      "outputs": [],
      "stateMutability": "nonpayable",
      "type": "function"
    },
    {
      "inputs": [
        {
          "internalType": "bytes4",
          "name": "interfaceId",
          "type": "bytes4"
        }
      ],
      "name": "supportsInterface",
      "outputs": [
        {
          "internalType": "bool",
          "name": "",
          "type": "bool"
        }
      ],
      "stateMutability": "view",
      "type": "function"
    },
    {
      "inputs": [
        {
          "internalType": "uint256",
          "name": "",
          "type": "uint256"
        }
      ],
      "name": "tiers",
      "outputs": [
        {
          "internalType": "uint256",
          "name": "minUsdc6",
          "type": "uint256"
        },
        {
          "internalType": "uint256",
          "name": "attr",
          "type": "uint256"
        },
        {
          "internalType": "uint256",
          "name": "tierExpirySeconds",
          "type": "uint256"
        },
        {
          "internalType": "bool",
          "name": "upgradeByBalance",
          "type": "bool"
        }
      ],
      "stateMutability": "view",
      "type": "function"
    },
    {
      "inputs": [
        {
          "internalType": "uint256",
          "name": "",
          "type": "uint256"
        }
      ],
      "name": "tokenTierIndexOrMax",
      "outputs": [
        {
          "internalType": "uint256",
          "name": "",
          "type": "uint256"
        }
      ],
      "stateMutability": "view",
      "type": "function"
    },
    {
      "inputs": [],
      "name": "totalActiveMemberships",
      "outputs": [
        {
          "internalType": "uint256",
          "name": "",
          "type": "uint256"
        }
      ],
      "stateMutability": "view",
      "type": "function"
    },
    {
      "inputs": [],
      "name": "totalMembershipIssued",
      "outputs": [
        {
          "internalType": "uint256",
          "name": "",
          "type": "uint256"
        }
      ],
      "stateMutability": "view",
      "type": "function"
    },
    {
      "inputs": [
        {
          "internalType": "uint256",
          "name": "",
          "type": "uint256"
        }
      ],
      "name": "totalMembershipIssuedByTierIndex",
      "outputs": [
        {
          "internalType": "uint256",
          "name": "",
          "type": "uint256"
        }
      ],
      "stateMutability": "view",
      "type": "function"
    },
    {
      "inputs": [],
      "name": "totalMembershipUpgraded",
      "outputs": [
        {
          "internalType": "uint256",
          "name": "",
          "type": "uint256"
        }
      ],
      "stateMutability": "view",
      "type": "function"
    },
    {
      "inputs": [],
      "name": "totalSupply",
      "outputs": [
        {
          "internalType": "uint256",
          "name": "",
          "type": "uint256"
        }
      ],
      "stateMutability": "view",
      "type": "function"
    },
    {
      "inputs": [
        {
          "internalType": "uint256",
          "name": "id",
          "type": "uint256"
        }
      ],
      "name": "totalSupply",
      "outputs": [
        {
          "internalType": "uint256",
          "name": "",
          "type": "uint256"
        }
      ],
      "stateMutability": "view",
      "type": "function"
    },
    {
      "inputs": [
        {
          "internalType": "address",
          "name": "newOwner",
          "type": "address"
        }
      ],
      "name": "transferOwnership",
      "outputs": [],
      "stateMutability": "nonpayable",
      "type": "function"
    },
    {
      "inputs": [
        {
          "internalType": "address",
          "name": "",
          "type": "address"
        }
      ],
      "name": "transferWhitelist",
      "outputs": [
        {
          "internalType": "bool",
          "name": "",
          "type": "bool"
        }
      ],
      "stateMutability": "view",
      "type": "function"
    },
    {
      "inputs": [],
      "name": "transferWhitelistEnabled",
      "outputs": [
        {
          "internalType": "bool",
          "name": "",
          "type": "bool"
        }
      ],
      "stateMutability": "view",
      "type": "function"
    },
    {
      "inputs": [
        {
          "internalType": "uint256",
          "name": "",
          "type": "uint256"
        }
      ],
      "name": "uri",
      "outputs": [
        {
          "internalType": "string",
          "name": "",
          "type": "string"
        }
      ],
      "stateMutability": "view",
      "type": "function"
    }
  ],
  "bytecode": "0x60a06040523461033e576162eb8038038061001981610342565b928339810160a08282031261033e5781516001600160401b03811161033e57820181601f8201121561033e5780516001600160401b0381116102ae57610068601f8201601f1916602001610342565b928184526020828401011161033e575f928160208094018483015e0101526020810151600981101561033e576040820151916100b260806100ab60608401610367565b9201610367565b926020915f6100c084610342565b52600254600181811c91168015610334575b8482101461032057601f81116102ee575b505f6002556001600160a01b03169283156102db57600380546001600160a01b031981168617909155604051959085906001600160a01b03167f8be0079c531659141344cd1fd0a4f28419497f9722a3daafe3b4186f6b6457e05f80a3600160045560646019556001600160a01b0381169081159081156102d1575b506102c25733608052600580546001600160a01b03191682179055600680546001600160a81b03191690911760a09290921b60ff60a01b1691909117905560075560017fbc488d3e2575f0f2113dc4d9a0cd6bc52445c6bc28a8974ed97a6ba3ecfd657a8190555f8381527fbc488d3e2575f0f2113dc4d9a0cd6bc52445c6bc28a8974ed97a6ba3ecfd657b835260409020805460ff191690911790555f5160206162cb5f395f51905f525490680100000000000000008210156102ae5760018201805f5160206162cb5f395f51905f525582101561029a575f5160206162cb5f395f51905f525f908152200180546001600160a01b031916909117905564174876e8007ffed699897f2561c8a98f833aa3de83c4904370d413fe5fb15abe26e9f8150b2955615f4f908161037c8239608051816127a10152f35b634e487b7160e01b5f52603260045260245ffd5b634e487b7160e01b5f52604160045260245ffd5b63ab82bb9960e01b5f5260045ffd5b90503b155f61015f565b631e4fbdf760e01b5f525f60045260245ffd5b80156100e35760025f52601f845f20910160051c905f5b8281106103135750506100e3565b5f82820155600101610305565b634e487b7160e01b5f52602260045260245ffd5b90607f16906100d2565b5f80fd5b6040519190601f01601f191682016001600160401b038111838210176102ae57604052565b51906001600160a01b038216820361033e5756fe60806040526004361015610019575b341561385f575b5f80fd5b5f3560e01c8062fdd58e1461053d57806301ffc9a714610538578063039af9eb1461053357806303ca3e381461052e5780630b6c8d71146105295780630cb85641146105245780630e4ab4871461051f5780630e89341c1461051a5780630ec3786b146105155780631018c34b1461051057806310bba8641461050b578063116191b6146104ac5780631284b92f1461050657806317c957091461050157806318160ddd146104fc5780631c790e24146104f75780631fe56e6a146104f257806324d7806c146104ed5780632aff2a59146104e85780632b681a54146104e35780632eb2c2d6146104de578063312e76a9146104d95780633c703d45146104d45780633c970fb9146104cf57806343159ce5146104ca578063475e53ec146104c557806348ed7ebe146104c057806349dd0900146104bb5780634dda2215146104b65780634e1273f4146104b157806353785619146104ac5780635476d071146104a757806356217848146104a25780635637d5bc1461049d578063564da7571461049857806356c689fa146104935780636465c3a71461048e578063671395c8146104895780636f0fa0cb146104845780636f5def391461047f578063706e01321461047a578063715018a61461047557806371b8982f146103b75780637766fa44146104705780637ffbe2411461046b57806382b720c91461046657806383dbbf5314610461578063897828a81461045c5780638da5cb5b146104575780638db553081461045257806394b2e9461461044d5780639565c5421461044857806398951b56146104435780639b52f90d1461043e5780639f1bbda7146104395780639f3d1a2a146104345780639f48facc1461042f578063a22cb4651461042a578063a479044614610425578063a876c75914610420578063a98d916e1461041b578063acf12d3d14610416578063aeadb04b14610411578063af7ffa2b1461040c578063b84f1fe814610407578063bd85b03914610402578063c926bbfd146103fd578063c9840daf146103f8578063d05dcc6a146103f3578063d4506e77146103ee578063d52dc515146103e9578063d5f39488146103e4578063dd1bc5e9146103df578063e141dcb8146103da578063e4a34dce146103d5578063e5a6b10f146103d0578063e985e9c5146103cb578063f242432a146103c6578063f2fde38b146103c1578063f540f227146103bc578063f986f676146103b7578063fcef6b01146103b25763ffa1ad740361000e57612b5c565b612b3f565b611cf2565b612b15565b612a9e565b6129b1565b612980565b612940565b61290b565b6127fa565b6127d0565b61278c565b61276a565b612712565b6126e8565b61260e565b6125f4565b6125be565b612597565b612524565b6124fd565b6124e0565b6124c1565b6124a4565b61243c565b6123bd565b61225f565b6121a8565b61218b565b612164565b6120f0565b6120c8565b61208d565b612065565b61203d565b611fdb565b611f6f565b611e73565b611e33565b611d3f565b611c51565b611c32565b611c0b565b611be4565b611ba9565b611a9f565b611a10565b61192f565b611914565b6118ea565b6118cd565b610c75565b61180c565b6117ab565b611770565b611697565b611625565b6114da565b611497565b61144e565b6113f3565b61135f565b6111db565b61112f565b6110d5565b6110ab565b610fee565b610fc5565b610f9b565b610ee5565b610c36565b610bd9565b610b7d565b610a17565b610991565b610934565b6108f3565b6106cd565b610650565b6105ad565b61055f565b6001600160a01b031690565b6001600160a01b0381160361001557565b346100155760403660031901126100155760206105926004356105818161054e565b6024355f525f835260405f20610ebb565b54604051908152f35b6001600160e01b031981160361001557565b346100155760203660031901126100155760206004356105cc8161059b565b63ffffffff60e01b16636cdb3d1360e11b811490811561060a575b81156105f9575b506040519015158152f35b6301ffc9a760e01b1490505f6105ee565b6303a24d0760e21b811491506105e7565b634e487b7160e01b5f52603260045260245ffd5b60175481101561064b5760175f5260205f209060021b01905f90565b61061b565b34610015576020366003190112610015576004356017548110156100155761067960809161062f565b5080549060018101549060ff6003600283015492015416916040519384526020840152604083015215156060820152f35b6060906003190112610015576004356106c28161054e565b906024359060443590565b34610015576106db366106aa565b600654919290916001600160a01b03168061088057506005546001600160a01b03165b6001600160a01b031633036108715761071561391e565b6001600160a01b03811691821561086257801561085357610778610787916107735f516020615e435f395f51905f529661076560405193849263c791063b60e01b60208501528860248501612b77565b03601f19810183528261124b565b61393e565b60208082518301019101612b95565b939091610805610796826139d3565b916107a083613aea565b6107f76107ac84610c9d565b54156107c16107b9612bab565b8a8988613b4c565b8661084c5788905b60135460145492909115610830576107e19087613bae565b6003546001600160a01b0316613be3565b613be3565b61080085610f41565b610ebb565b546040516001600160a01b039092169582916108219183612bbf565b0390a461082e6001600455565b005b8061083c575b506107e1565b6108469087613b87565b5f610836565b5f906107c9565b63201165f360e21b5f5260045ffd5b63a9b8048960e01b5f5260045ffd5b6396f47d2360e01b5f5260045ffd5b6106fe565b6060602091604081019381526040838201528451809452019201905f5b8181106108af5750505090565b909192602060a060019260808751805183528481015185840152604081015160408401526060810151606084015201511515608082015201940191019190916108a2565b346100155760203660031901126100155761092061091b6004356109168161054e565b613c96565b612cb4565b9061093060405192839283610885565b0390f35b34610015576040366003190112610015576004356109518161054e565b600654602435906001600160a01b03168061098c57506005546001600160a01b03165b6001600160a01b031633036108715761082e91613d9d565b610974565b34610015576020366003190112610015576004356109ad613eb1565b7ff316e065e93b4fddef3d2d93a57817985081f76ea9e0ca7417ed5b4b086b1fcb6020601854604051908152a1601855005b805180835260209291819084018484015e5f828201840152601f01601f1916010190565b906020610a149281815201906109df565b90565b3461001557602036600319011261001557610a30613f15565b6040516001600160601b03193060601b1660208201526014815290610a5660348361124b565b610a5e613f8c565b91610a67613fba565b925f5b60148110610ab85760405161093090610aac81610765610a978a610a91602085018c612be1565b90612be1565b683db4b23e973539b7b760b91b815260090190565b60405191829182610a03565b80610b00610ad7610afa610af4610aeb610ae5610ad76001988b613fdc565b516001600160f81b03191690565b60f81c90565b60041c600f1690565b60ff1690565b85613fdc565b610b16610b0c83612e32565b915f1a9188613fdc565b53610b39610ad7610afa600f610b32610ae5610ad7878b613fdc565b1660ff1690565b610b4d610b0c610b4884612e32565b613844565b5301610a6a565b606090600319011261001557600435610b6c8161054e565b9060243590604435610a148161054e565b3461001557610b8b36610b54565b6006549091906001600160a01b031680610bd457506005546001600160a01b03165b6001600160a01b0316330361087157610bcd92610bc861391e565b613fed565b6001600455005b610bad565b3461001557604036600319011261001557600435610bf68161054e565b600654602435906001600160a01b031680610c3157506005546001600160a01b03165b6001600160a01b031633036108715761082e91614091565b610c19565b34610015575f36600319011261001557602060405160068152f35b6001600160a01b0316600452602490565b6001600160a01b03909116815260200190565b34610015575f366003190112610015576005546040516001600160a01b039091168152602090f35b6001600160a01b03165f908152600f6020526040902090565b6001600160a01b03165f9081527fbc488d3e2575f0f2113dc4d9a0cd6bc52445c6bc28a8974ed97a6ba3ecfd657b6020526040902090565b6001600160a01b03165f9081527fbc488d3e2575f0f2113dc4d9a0cd6bc52445c6bc28a8974ed97a6ba3ecfd65816020526040902090565b6001600160a01b03165f9081527fbe5c2328713858b26c97b83c5ace333ac35b55572be4794180ba426b12cc48be6020526040902090565b6001600160a01b03165f9081527fbe5c2328713858b26c97b83c5ace333ac35b55572be4794180ba426b12cc48bf6020526040902090565b6001600160a01b03165f9081527fbe5c2328713858b26c97b83c5ace333ac35b55572be4794180ba426b12cc48c06020526040902090565b6001600160a01b03165f9081527fbe5c2328713858b26c97b83c5ace333ac35b55572be4794180ba426b12cc48c16020526040902090565b6001600160a01b03165f9081527fbe5c2328713858b26c97b83c5ace333ac35b55572be4794180ba426b12cc48c26020526040902090565b6001600160a01b03165f9081527fbe5c2328713858b26c97b83c5ace333ac35b55572be4794180ba426b12cc48c36020526040902090565b5f805260096020527fec8156718a8372b1db44bb411437d0870f3e3790d4a08526d024ce1b0b668f6b90565b6001600160a01b03165f90815260096020526040902090565b9060018060a01b03165f5260205260405f2090565b805482101561064b575f5260205f2001905f90565b3461001557604036600319011261001557600435610f028161054e565b6001600160a01b03165f908152600e602052604090208054602435919082101561001557602091610f3291610ed0565b90549060031b1c604051908152f35b5f527fe5fcefe92466b78c655fa732b80b16e07a00f2a897e833e17d9914703cad563360205260405f2090565b5f527fcb1a422c9916903f224af4db9a3bf1529921bf95ff7b75d7d9ed9073a48394ac60205260405f2090565b34610015576020366003190112610015576004355f52600b602052602060405f2054604051908152f35b34610015575f3660031901126100155760205f516020615f035f395f51905f5254604051908152f35b346100155760403660031901126100155760243560043561100e8261054e565b6006546001600160a01b0316806110a657506005546001600160a01b03165b6001600160a01b03163303610871575f8061104661413e565b93604051602081019163071e438960e21b835285602483015260018060a01b031660448201526044815261107b60648261124b565b5190855af4611088612bf3565b50156110975761082e916144ee565b6363bc5ecb60e11b5f5260045ffd5b61102d565b34610015576020366003190112610015576004355f526011602052602060405f2054604051908152f35b3461001557602036600319011261001557602060ff6110fe6004356110f98161054e565b610cb6565b54166040519015158152f35b6040906003190112610015576004356111228161054e565b90602435610a148161054e565b346100155761113d3661110a565b6006546001600160a01b0316806111d657506005546001600160a01b03165b6001600160a01b03163303610871576001600160a01b03821615610862576001600160a01b0361118b83610cee565b54166001600160a01b0390911603611097576111d3815f6111ac8194610d26565b55826111b782610d5e565b55826111c282610d96565b55826111cd82610dce565b55610e06565b55005b61115c565b346100155760203660031901126100155761092060043561091b8161054e565b634e487b7160e01b5f52604160045260245ffd5b61010081019081106001600160401b0382111761122b57604052565b6111fb565b608081019081106001600160401b0382111761122b57604052565b601f909101601f19168101906001600160401b0382119082101761122b57604052565b6040519061127d60a08361124b565b565b6001600160401b03811161122b5760051b60200190565b9080601f830112156100155781356112ad8161127f565b926112bb604051948561124b565b81845260208085019260051b82010192831161001557602001905b8282106112e35750505090565b81358152602091820191016112d6565b6001600160401b03811161122b57601f01601f191660200190565b92919261131a826112f3565b91611328604051938461124b565b829481845281830111610015578281602093845f960137010152565b9080601f8301121561001557816020610a149335910161130e565b346100155760a03660031901126100155760043561137c8161054e565b602435906113898261054e565b6044356001600160401b038111610015576113a8903690600401611296565b6064356001600160401b038111610015576113c7903690600401611296565b608435939091906001600160401b038511610015576113ed61082e953690600401611344565b93612db5565b34610015576020366003190112610015576004356001600160401b03811161001557366023820112156100155760048101356001600160401b038111610015573660248260071b8401011161001557602461082e9201612f40565b34610015576020366003190112610015576004355f527ffed699897f2561c8a98f833aa3de83c4904370d413fe5fb15abe26e9f8150b30602052602060405f2054604051908152f35b3461001557604036600319011261001557610bcd6004356114b78161054e565b6024356114c261391e565b6114ca613eb1565b6107e160135491601454936145cf565b34610015576040366003190112610015576004356114f78161054e565b6024356006546001600160a01b03168061162057506005546001600160a01b03165b6001600160a01b031633036108715761153061391e565b9081906001600160a01b038116156108625761154b906139d3565b5f8080526020529061156a825f516020615f235f395f51905f52610ebb565b54908115610853575f1914611618575b8083116115de57508115610853576115d1816115b7847fcfaedf921126ed75cd0b52e9418d816572c256b67104e03066bd3f067f2d53c0946145f6565b6040519384526001600160a01b0316929081906020820190565b0390a261082e6001600455565b60405163406e3ab960e01b81526001600160a01b0390921660048301525f60248301526044820152606481019190915280608481015b0390fd5b91508161157a565b611519565b3461001557611633366106aa565b6006549091906001600160a01b03168061169257506005546001600160a01b03165b6001600160a01b031633036108715761166c61391e565b6001600160a01b038316156108625781156108535761168d610bcd936139d3565b614836565b611655565b34610015576116a536610b54565b600654919290916001600160a01b03168061176b57506005546001600160a01b03165b6001600160a01b03163303610871576116df61391e565b6001600160a01b03811615801561175a575b610862578215610853575f516020615e835f395f51905f52916115b76117196115d1936139d3565b916013546014549161173c60405161173260208261124b565b5f81528987613b27565b6117468882613d9d565b61175088866148b3565b6107f28886613b87565b506001600160a01b038216156116f1565b6116c8565b3461001557602036600319011261001557602060043561178f8161054e565b6001600160a01b03906117a190610cee565b5416604051908152f35b34610015575f366003190112610015576020600754604051908152f35b90602080835192838152019201905f5b8181106117e55750505090565b82518452602093840193909201916001016117d8565b906020610a149281815201906117c8565b34610015576040366003190112610015576004356001600160401b0381116100155736602382011215610015578060040135906118488261127f565b91611856604051938461124b565b8083526024602084019160051b8301019136831161001557602401905b8282106118b357836024356001600160401b03811161001557610930916118a16118a7923690600401611296565b9061300f565b604051918291826117fb565b6020809183356118c28161054e565b815201910190611873565b34610015575f366003190112610015576020601554604051908152f35b34610015576020366003190112610015576004355f526012602052602060405f2054604051908152f35b34610015575f36600319011261001557602060405160648152f35b346100155760403660031901126100155760043561194c8161054e565b6024359061195861391e565b611960613eb1565b6001600160a01b03811615610862578115610853576115d161198f5f516020615e835f395f51905f52926139d3565b6115b7601354601454906119b46040516119aa60208261124b565b5f81528886613b27565b6119be87856148b3565b6107e18785613b87565b604435906001600160401b038216820361001557565b959260c09592989794919860e08801998852602088015260408701526060860152608085015260a08401521515910152565b34610015576020366003190112610015576004356001600160401b0381168103610015576001600160401b03165f9081527f348bae4e1f5cd16c7acea618682eb9de87b5f8161d5b94b9b5591b7620ae71a2602052604090208054610930600183015492600281015490600381015460048201549060ff600660058501549401541693604051978897886119de565b3461001557611aad366106aa565b600654919290916001600160a01b031680611ba457506005546001600160a01b03165b6001600160a01b0316330361087157611ae761391e565b6001600160a01b03811691821561086257801561085357610778611b37916107735f516020615e435f395f51905f5296610765604051938492634404589760e01b60208501528860248501612b77565b939091610805611b46826139d3565b91611b5a611b52612bab565b888786613b4c565b84611b9e57865b80611b71575b5061080085610f41565b6107e1611b9891611b856013549060145490565b929091611b9281896148b3565b87613b87565b5f611b67565b5f611b61565b611ad0565b3461001557602036600319011261001557600435611bc68161054e565b60018060a01b03165f52600f602052602060405f2054604051908152f35b34610015576020366003190112610015576020610592600435611c068161054e565b610d26565b34610015576020366003190112610015576020610592600435611c2d8161054e565b610d5e565b3461001557611c40366106aa565b90611c4961391e565b61166c613eb1565b34610015575f36600319011261001557611c696148da565b600380546001600160a01b031981169091555f906001600160a01b03165f516020615ec35f395f51905f528280a3005b906040600319830112610015576004356001600160401b0381116100155782602382011215610015576004810135926001600160401b0384116100155760248483010111610015576024019190602435610a148161054e565b3461001557611d0036611c99565b6006549091906001600160a01b031680611d3a57506005546001600160a01b03165b6001600160a01b031633036108715761082e9261309e565b611d22565b3461001557611d4d36611c99565b6006549192916001600160a01b031680611e2e57506005546001600160a01b03165b6001600160a01b0316330361087157611d8661391e565b6001600160a01b0381161561086257611dd5611dc65f94611dc18695610765604051938492633aa2954160e11b602085015260248401613351565b61396b565b60208082518301019101613362565b90610765611e03611de461413e565b936040519283916020830195630b18ae1d60e11b8752602484016133c4565b51915af4611e0f612bf3565b5015611e1f5761082e6001600455565b63fb713d2b60e01b5f5260045ffd5b611d6f565b3461001557602036600319011261001557600435611e508161054e565b60018060a01b03165f526009602052602060ff60405f2054166040519015158152f35b346100155760a036600319011261001557600435611e908161059b565b60243590611e9d8261054e565b604435906064356084356006549091906001600160a01b031680611f6a57506005546001600160a01b03165b6001600160a01b0316330361087157611f3a93611ee461413e565b6040516382b720c960e01b60208201526001600160e01b031990951660248601526001600160a01b0390961660448501526064840152608483015260a4808301919091528152611f3560c48261124b565b613977565b9060208280518101031261001557611f5a602061093093015180926144ee565b6040519081529081906020820190565b611ec9565b3461001557602036600319011261001557600435611f8b613eb1565b8015611fc2576020817fd45b01a2f21a7aa8a0f57023efdce73147de071e77875c3f4d486b1e13eaef7092600755604051908152a1005b6376024b7160e01b5f5260045ffd5b8015150361001557565b34610015576020366003190112610015577fc52867146282c253c04e94eb2a948478a1f7ef84cf2d6f5864facc99f2203f2c602060043561201b81611fd1565b612023613eb1565b151560ff19600a541660ff821617600a55604051908152a1005b34610015575f366003190112610015576003546040516001600160a01b039091168152602090f35b346100155760203660031901126100155760206120836004356133f4565b6040519015158152f35b34610015576020366003190112610015576004356120aa8161054e565b60018060a01b03165f526010602052602060405f2054604051908152f35b34610015575f366003190112610015576006546040516001600160a01b039091168152602090f35b346100155760203660031901126100155760043560ff61210f33610cb6565b5416156110975761211e61413e565b905f806040516020810190634c4a8dab60e11b82528460248201526024815261214860448261124b565b5190855af4612155612bf3565b5015611e1f5761082e916144ee565b346100155760203660031901126100155760206105926004356121868161054e565b610dce565b34610015575f366003190112610015576020600854604051908152f35b34610015575f366003190112610015576109306121c3613f15565b6040519182916020835260208301906109df565b81516001600160401b039081168252602080840151909116908201526040808301516001600160801b0390811691830191909152606080840151909116908201526101008101929161127d919060e090819060808181015115159085015260a08181015160ff169085015260c08181015160ff169085015201516001600160801b0316910152565b34610015576020366003190112610015576004355f60e06040516122828161120f565b8281528260208201528260408201528260608201528260808201528260a08201528260c082015201525f527fe5fcefe92466b78c655fa732b80b16e07a00f2a897e833e17d9914703cad563260205261093060405f2061238c61237c6002604051936122ed8561120f565b80546001600160401b038082168752604082901c16602087015261231e9060801c6001600160801b03166040870152565b60018101546001600160801b038116606087015261236e906123649061234e608082901c60ff16151560808a0152565b60ff608882901c1660a089015260901c60ff1690565b60ff1660c0870152565b01546001600160801b031690565b6001600160801b031660e0830152565b604051918291826121d7565b6040906003190112610015576004356123b08161054e565b90602435610a1481611fd1565b34610015576123cb36612398565b6001600160a01b03821691821561242a57816123f56123fa92335f52600160205260405f20610ebb565b612ec7565b60405190151581527f17307eab39ab6107e8899845ad3d59bd9653f200f220920489ca2b5937696c3160203392a3005b62ced3e160e81b5f525f60045260245ffd5b34610015576040366003190112610015576004356001600160401b0381116100155736602382011215610015576004810135906001600160401b038211610015573660248360051b830101116100155761082e91602480359261249e8461054e565b016134ae565b34610015575f366003190112610015576020601854604051908152f35b34610015575f36600319011261001557602060405164174876e8008152f35b34610015575f366003190112610015576020601354604051908152f35b3461001557602036600319011261001557602061059260043561251f8161054e565b610e06565b34610015576040366003190112610015576004356125418161054e565b60065460243591906001600160a01b03168061259257506005546001600160a01b03165b6001600160a01b0316330361087157610bcd9161258061391e565b6003546001600160a01b031691613fed565b612565565b346100155760203660031901126100155760206105926004356125b98161054e565b610d96565b34610015576020366003190112610015576004355f525f516020615ea35f395f51905f52602052602060405f2054604051908152f35b34610015575f3660031901126100155760206040515f8152f35b346100155760603660031901126100155760043560ff81168091036100155760243590600161263b6119c8565b91036126b057612674915f527f348bae4e1f5cd16c7acea618682eb9de87b5f8161d5b94b9b5591b7620ae71a360205260405f20613089565b805461093060018301549260028101549060038101546004820154906126a36006600585015494015460ff1690565b93604051978897886119de565b6126e3915f527f348bae4e1f5cd16c7acea618682eb9de87b5f8161d5b94b9b5591b7620ae71a460205260405f20613089565b612674565b34610015576020366003190112610015576004355f52600c602052602060405f2054604051908152f35b346100155760203660031901126100155760043561272e613eb1565b7f1c8121c98d871a1523a6112e29ac660378afbcb9b921cff8f187c3da35d170818160085461276260405192839283612bbf565b0390a1600855005b34610015575f36600319011261001557602060ff600a54166040519015158152f35b34610015575f366003190112610015576040517f00000000000000000000000000000000000000000000000000000000000000006001600160a01b03168152602090f35b34610015576020366003190112610015576004355f526016602052602060405f2054604051908152f35b346100155760803660031901126100155760443560043560643560243561282082611fd1565b612828613eb1565b82156128fc57601754916040519461283f86611230565b8486526020860192808452604087019382855260608801978415158952600160401b87101561122b57600187016017556128788761062f565b9190916128f7577fb08290a3275552d4032ce96418c8bc739fd6be2860fe5897558f5c0af90e91fb996128f2976128c5946003935185555160018501555160028401555115159101612ec7565b6040519586958693909594919260809360a086019786526020860152604085015260608401521515910152565b0390a1005b612e4d565b639033099360e01b5f5260045ffd5b346100155761082e61291c36612398565b90612925613eb1565b6001600160a01b03165f908152600960205260409020612ec7565b34610015575f3660031901126100155760ff60065460a01c16604051600982101561296c576020918152f35b634e487b7160e01b5f52602160045260245ffd5b3461001557602060ff6110fe6129953661110a565b6001600160a01b039091165f9081526001855260409020610ebb565b346100155760a0366003190112610015576004356129ce8161054e565b6024356129da8161054e565b60443590606435926084356001600160401b03811161001557612a01903690600401611344565b926001600160a01b0382163381141580612a7e575b612a68576001600160a01b03841615612a555715612a435761082e94612a3b91614ec0565b92909161518b565b626a0d4560e21b5f525f60045260245ffd5b632bfa23e760e11b5f525f60045260245ffd5b63711bec9160e11b5f523360045260245260445ffd5b50805f52600160205260ff612a963360405f20610ebb565b541615612a16565b3461001557602036600319011261001557600435612abb8161054e565b612ac36148da565b6001600160a01b03168015612b0257600380546001600160a01b0319811683179091556001600160a01b03165f516020615ec35f395f51905f525f80a3005b631e4fbdf760e01b5f525f60045260245ffd5b34610015576020366003190112610015576004355f52600d602052602060405f2054604051908152f35b34610015575f366003190112610015576020601454604051908152f35b34610015575f366003190112610015576020604051600b8152f35b604091949392606082019560018060a01b0316825260208201520152565b9190826040910312610015576020825192015190565b60405190612bba60208361124b565b5f8252565b908152602081019190915260400190565b5f516020615f035f395f51905f5255565b805191908290602001825e015f815290565b3d15612c1d573d90612c04826112f3565b91612c12604051938461124b565b82523d5f602084013e565b606090565b90612c2c8261127f565b612c39604051918261124b565b8281528092612c4a601f199161127f565b015f5b818110612c5957505050565b60405160a0810191906001600160401b0383118184101761122b576020926040525f81525f838201525f60408201525f60608201525f608082015282828601015201612c4d565b805182101561064b5760209160051b010190565b6001600160a01b0381165f908152600e60205260409020909190918254612cda81612c22565b935f5b828110612d0a5750505f80805260205250612d05905f516020615f235f395f51905f52610ebb565b549190565b80612d24612d1a60019385610ed0565b90549060031b1c90565b612d8e612d39825f52600b60205260405f2090565b548015159081612daa575b612d56845f52600c60205260405f2090565b54612d69855f52600d60205260405f2090565b5490612d7361126e565b95865260208601526040850152606084015215156080830152565b612d988289612ca0565b52612da38188612ca0565b5001612cdd565b809150421190612d44565b939291906001600160a01b0385163381141580612dee575b612a68576001600160a01b03821615612a555715612a435761127d9461518b565b50805f52600160205260ff612e063360405f20610ebb565b541615612dcd565b919081101561064b5760071b0190565b634e487b7160e01b5f52601160045260245ffd5b908160011b9180830460021490151715612e4857565b612e1e565b634e487b7160e01b5f525f60045260245ffd5b6017545f60175580612e6f5750565b600281901b906001600160fe1b03811603612e485760175f5260205f205f5b828110612e9a57505050565b805f60036004938501828155826001820155826002820155015501612e8e565b805460ff19166001179055565b9060ff801983541691151516179055565b601754600160401b81101561122b576001810160175560175481101561064b5760175f5260021b5f516020615ee35f395f51905f52016003606061127d93803584556020810135600185015560408101356002850155013591612f3a83611fd1565b01612ec7565b612f48613eb1565b8115612fce575f5b828110612fb55750612f60612e60565b5f5b828110612f995750506040519081527f2f291eaf494dc7eca20457441a1df7d9119f0c0d764309daf9cb6b148810ee3690602090a1565b80612faf612faa6001938686612e0e565b612ed8565b01612f62565b612fc0818484612e0e565b35156128fc57600101612f50565b6308ba5b6160e01b5f5260045ffd5b90612fe78261127f565b612ff4604051918261124b565b8281528092613005601f199161127f565b0190602036910137565b919091805183518082036130745750506130298151612fdd565b905f5b815181101561306d578061305b60019260051b602080828701015191890101515f525f60205260405f20610ebb565b546130668286612ca0565b520161302c565b5090925050565b635b05999160e01b5f5260045260245260445ffd5b9060018060401b03165f5260205260405f2090565b90926130a861391e565b6001600160a01b03831615610862576130f36130c4858461492a565b94611dc16130d282866149a6565b946107658760405194859363fd44e85560e01b602086015260248501614901565b9361310760208651870101602087016137f2565b94929691509687518551036133145750613120906139d3565b9061312a82613aea565b61313382610c9d565b54155f955f975f5b8a518110156131805761314e818c612ca0565b511561315d575b60010161313b565b9850966131759061316e8a89612ca0565b5190613852565b600198909790613155565b5090919294979693961561330c575b508180613301575b6132d9575b828061328a575b50505f5b8751811015613230576131ba8186612ca0565b51908115610853576001916131cf828b612ca0565b511561322a5764174876e8006131e5838c612ca0565b511061320657613200906131f9838c612ca0565b5189614836565b016131a7565b61322590613214838c612ca0565b519061321e612bab565b918a613b4c565b613200565b50613200565b509195506132659490939192506001600160a01b0381161561327857905b6013546014549490931561326f576107f291613bae565b61127d6001600455565b6107f291613b87565b50613284600354610542565b9061324e565b6132be916132a0613299612bab565b838a613b27565b6001600160a01b038916156132c5576132b9828a613d9d565b614a87565b5f826131a3565b6132b9826132d4600354610542565b613d9d565b6132e96132e4614a1c565b61062f565b505483101561319c5763559d06d760e01b5f5260045ffd5b506017541515613197565b92505f61318f565b60405163dccff66960e01b81529081906116149060048301610a03565b908060209392818452848401375f828201840152601f01601f1916010190565b916020610a14938181520191613331565b602081830312610015578051906001600160401b038211610015570181601f8201121561001557805190613395826112f3565b926133a3604051948561124b565b8284526020838301011161001557815f9260208093018386015e8301015290565b6001600160a01b0390911681526001602082018190526040820152608060608201819052610a14929101906109df565b64174876e800811061349f575f9081527ffed699897f2561c8a98f833aa3de83c4904370d413fe5fb15abe26e9f8150b2a60209081526040808320547ffed699897f2561c8a98f833aa3de83c4904370d413fe5fb15abe26e9f8150b2b909252909120546001600160401b03908116911680151590816134a4575b5061349f576001600160401b03168015159081613495575b5061349157600190565b5f90565b905042115f613487565b505f90565b905042105f61346f565b600654919390916001600160a01b0316806136b557506005546001600160a01b03165b6001600160a01b03163303610871576134e861391e565b6001600160a01b03831615610862578315611e1f5761354b61351361350d86856136ba565b9061492a565b94611dc161352a61352483876136ba565b906149a6565b946107658760405194859363bca0e27d60e01b6020860152602485016136f4565b9361355f60208651870101602087016137f2565b94929691509687518551036133145750613578906139d3565b9061358282613aea565b61358b82610c9d565b54155f955f975f5b8a518110156135d1576135a6818c612ca0565b51156135b5575b600101613593565b9850966135c69061316e8a89612ca0565b6001989097906135ad565b509091929497969396156136ad575b5081806136a2575b61367f575b8280613669575b50505f5b87518110156132305761360b8186612ca0565b5190811561085357600191613620828b612ca0565b51156136635764174876e800613636838c612ca0565b51106136505761364a906131f9838c612ca0565b016135f8565b61365e90613214838c612ca0565b61364a565b5061364a565b613678916132a0613299612bab565b5f826135f4565b61368a6132e4614a1c565b50548310156135ed5763559d06d760e01b5f5260045ffd5b5060175415156135e8565b92505f6135e0565b6134d1565b901561064b57803590601e19813603018212156100155701803591906001600160401b038311610015576020018236038113610015579190565b93929190816040860160408752526060850160608360051b87010192825f90601e19813603015b83831061373e5750505050505090602061127d9294019060018060a01b03169052565b909192939495605f198a8203018652863582811215610015578301602081019190356001600160401b038111610015578036038313610015576137876020928392600195613331565b98019601949301919061371b565b9080601f830112156100155781516137ac8161127f565b926137ba604051948561124b565b81845260208085019260051b82010192831161001557602001905b8282106137e25750505090565b81518152602091820191016137d5565b9060808282031261001557815192602083015192604081015160018060401b0381116100155783613824918301613795565b60608201519093906001600160401b03811161001557610a149201613795565b9060018201809211612e4857565b91908201809211612e4857565b5f356001600160e01b03191661387481614aff565b1561389e57505f80613884614df2565b368280378136915af43d90815f803e1561389b575ff35b5ffd5b6138a781614b8a565b156138bc57505f806138b76142b4565b613884565b6138c581614dc6565b156138d557505f806138b761413e565b6001600160e01b03191663f42987cd60e01b81016138f857505f806138b7614242565b6363039f8b60e11b0361390f575f806138b76141d0565b633655084960e01b5f5260045ffd5b60026004541461392f576002600455565b633ee5aeb560e01b5f5260045ffd5b5f809161394b6001614325565b602082519201905af49061395d612bf3565b911561396557565b50614e8e565b5f809161394b82614325565b5f809161394b6003614325565b5f809161394b6004614325565b5f809161394b6002614325565b908160209103126100155751610a148161054e565b6040513d5f823e3d90fd5b908160209103126100155751610a1481611fd1565b600460206139ed6139e86139e8600554610542565b610542565b604051630e83251360e01b815292839182905afa908115613aa7575f91613abb575b506001600160a01b03168015613aac57602060405180926303330c7960e41b82528180613a3f8760048301610c62565b03915afa908115613aa7575f91613a78575b50613a5f57610a1490613c96565b803b15613a695790565b632ad05f3360e11b5f5260045ffd5b613a9a915060203d602011613aa0575b613a92818361124b565b8101906139be565b5f613a51565b503d613a88565b6139b3565b63ab82bb9960e01b5f5260045ffd5b613add915060203d602011613ae3575b613ad5818361124b565b81019061399e565b5f613a0f565b503d613acb565b60405163e6a84c7760e01b60208201526001600160a01b039091166024808301919091528152613b2490613b1f60448261124b565b613984565b50565b9091906001600160a01b03811615612a5557613b4661127d935f614ec0565b91614ee5565b919291906001600160a01b03821615612a555761127d93613b4691614ec0565b6001600160a01b039091168152602081019190915260400190565b90613b1f613b249261076560405193849263a55d613f60e01b602085015260248401613b6c565b90613b1f613b249261076560405193849263179953bf60e11b602085015260248401613b6c565b5f198114612e485760010190565b601354828103949392818611612e4857601454938403938411612e48576001600160a01b03831615918215613c7e575b5050613c7857925f935b6001600160a01b038116151580613c6e575b15613c6757613c5b613c4e82613c498686613c61966154ac565b610cee565b546001600160a01b031690565b94613bd5565b93613c1d565b5050509050565b5060408510613c2f565b50509050565b14905080613c8e575b5f80613c13565b508115613c87565b60046020613cab6139e86139e8600554610542565b60405163fb3894d360e01b815292839182905afa908115613aa7575f91613d7e575b506001600160a01b038116918215613aac57602060405180946308a8c59960e01b82528180613cff8660048301610c62565b03915afa928315613aa7575f93613d5d575b506001600160a01b038316158015613d54575b613d2d57505090565b63ad12d34160e01b5f526001600160a01b039081166004529081166024521660445260645ffd5b50823b15613d24565b613d7791935060203d602011613ae357613ad5818361124b565b915f613d11565b613d97915060203d602011613ae357613ad5818361124b565b5f613ccd565b906001600160a01b038216158015613ea9575b613ea557613dbd82610d26565b805492828401809411612e4857600893613dd79255610e3e565b610e1042045f5260205260405f209060098201613dfc613df8825460ff1690565b1590565b613e96575b50613e0d5f8354613852565b8255613e1e60018301918254613852565b905560028101613e2f5f8254613852565b905560038101613e405f8254613852565b905560048101613e515f8254613852565b905560058101613e625f8254613852565b905560068101613e735f8254613852565b905560078101613e845f8254613852565b905501613e925f8254613852565b9055565b613e9f90612eba565b5f613e01565b5050565b508015613db0565b6006546001600160a01b031680613f1057506005546001600160a01b03165b6003546001600160a01b03163314159081613efc575b50613eed57565b630fc5e1ab60e41b5f5260045ffd5b6001600160a01b031633141590505f613ee6565b613ed0565b6005546001600160a01b03168015818115613f82575b50613aac575f60049160405192838092634f9e8d1560e11b82525afa908115613aa7575f91613f60575b50805115613aac5790565b613f7c91503d805f833e613f74818361124b565b810190613362565b5f613f55565b90503b155f613f2b565b60405190613f9b60408361124b565b601082526f181899199a1a9b1b9c1cb0b131b232b360811b6020830152565b60405160609190613fcb838261124b565b6028815291601f1901366020840137565b90815181101561064b570160200190565b90916001600160a01b03821691908215610862576001600160a01b038116156108625783156108535761407b6140437f6ac4f60455173f2148d89d52868ac4ffb14111720d245aa36ad26e0d7e64c59b936139d3565b916013546014549161405d614056612bab565b8987613b27565b61406788866148b3565b6140718886613b87565b6107f288826155aa565b6040519384526001600160a01b031692602090a3565b906001600160a01b038216158015614136575b613ea5576140b182610d5e565b805492828401809411612e48576008936140e192556140d4610e10420491610e3e565b905f5260205260405f2090565b90600982016140f4613df8825460ff1690565b614127575b506141055f8354613852565b8255600182016141165f8254613852565b9055613e2f60028301918254613852565b61413090612eba565b5f6140f9565b5080156140a4565b614149600554610542565b6001600160a01b0381169081159081156141c6575b50613aac57602060049160405192838092632502c7e760e11b82525afa908115613aa7575f916141a7575b506001600160a01b038116610a145763a9d04f8760e01b5f5260045ffd5b6141c0915060203d602011613ae357613ad5818361124b565b5f614189565b90503b155f61415e565b6141db600554610542565b6001600160a01b038116908115908115614238575b50613aac57602060049160405192838092632b5e757b60e11b82525afa908115613aa7575f916141a757506001600160a01b038116610a145763a9d04f8760e01b5f5260045ffd5b90503b155f6141f0565b61424d600554610542565b6001600160a01b0381169081159081156142aa575b50613aac57602060049160405192838092635ee738d560e11b82525afa908115613aa7575f916141a757506001600160a01b038116610a145763a9d04f8760e01b5f5260045ffd5b90503b155f614262565b6142bf600554610542565b6001600160a01b03811690811590811561431b575b50613aac57602060049160405192838092620c3c5d60e81b82525afa908115613aa7575f916141a757506001600160a01b038116610a145763a9d04f8760e01b5f5260045ffd5b90503b155f6142d4565b614330600554610542565b6001600160a01b038116919082159081156144ab575b50613aac57602060ff600492169283155f146143d757604051620c3c5d60e81b815292839182905afa908115613aa7575f916143b8575b505b6001600160a01b0381166143b357600482146143a45763a9d04f8760e01b5f5260045ffd5b632dc6cc2360e01b5f5260045ffd5b905090565b6143d1915060203d602011613ae357613ad5818361124b565b5f61437d565b6001840361442657604051635ee738d560e11b815292839182905afa908115613aa7575f91614407575b5061437f565b614420915060203d602011613ae357613ad5818361124b565b5f614401565b6002840361445557604051632b5e757b60e11b815292839182905afa908115613aa7575f91614407575061437f565b6003840361448457604051632502c7e760e11b815292839182905afa908115613aa7575f91614407575061437f565b6040516324e1067960e11b815292839182905afa908115613aa7575f91614407575061437f565b90503b155f614346565b908160a09103126100155780516144cb8161059b565b9160208201516144da8161054e565b916040810151916080606083015192015190565b90614520815f527fbc488d3e2575f0f2113dc4d9a0cd6bc52445c6bc28a8974ed97a6ba3ecfd657d60205260405f2090565b600681015460ff169081156145a0575b50613ea5575f918291604051614560816107656020820194630d61b51960e01b8652602483019190602083019252565b51915af461456c612bf3565b901561459b576145888160208061127d945183010191016144b5565b509290916001600160a01b031690615603565b614e8e565b6005915001547fbc488d3e2575f0f2113dc4d9a0cd6bc52445c6bc28a8974ed97a6ba3ecfd657a54115f614530565b90613b1f613b2492610765604051938492635bcc7ca960e11b602085015260248401613b6c565b906001600160a01b03821615612a4357614610905f614ec0565b915f60405161462060208261124b565b525f905f9261462f8151612fdd565b9161463a8251612fdd565b905f925f5b8151811015614745576146528183612ca0565b51606481101580614737575b6146fc5715806146f5575b614678575b6001905b0161463f565b614682818a612ca0565b516146d6575b600a5460ff16614698575b61466e565b6146ad613df86146a6610e76565b5460ff1690565b1561466e576146c1613df86146a65f610ea2565b15614693575b639798976560e01b5f5260045ffd5b96956146e46146ef91613844565b9661316e898b612ca0565b96614688565b505f614669565b600191956147319161472186614712848c612ca0565b6001600160a01b039091169052565b61472b8288612ca0565b52613bd5565b94614672565b5064174876e800811061465e565b50959091979396945f61475a87898387615a72565b61481d575b5050505f955f965b85518810156147b65760019061477d8987612ca0565b51906147a761478c8b8a612ca0565b515f525f516020615ea35f395f51905f5260205260405f2090565b82815403905501970196614767565b9195935093506147d79195505f516020615f035f395f51905f525403612bd0565b5f5b8381106147e65750505050565b806148176148066147f960019486612ca0565b516001600160a01b031690565b6148108387612ca0565b5190615d50565b016147d9565b61482961482e93615c2b565b615cd2565b5f808061475f565b60207fae2f87dbf103db294ddd4ab45caa7a914d70bb3d06eeb8a8dc23e03e84548c8d91614884604051633c2f328b60e11b8482015261487f8161076589898760248501612b77565b613991565b506148a0604051614895848261124b565b5f8152868684613b4c565b6040519485526001600160a01b031693a3565b90613b1f613b249261076560405193849263b932546160e01b602085015260248401613b6c565b6003546001600160a01b031633036148ee57565b63118cdaa760e01b5f523360045260245ffd5b9160209161491a91959495604085526040850191613331565b6001600160a01b03909416910152565b81156149a05761493b91369161130e565b60208151910120805f525f516020615e635f395f51905f5260205260405f2060ff815460a01c1661498e575061497090610f6e565b60ff81541661497e57505f90565b600201546001600160a01b031690565b600401546001600160a01b0316919050565b50505f90565b81156149a0576149b791369161130e565b60208151910120805f525f516020615e635f395f51905f5260205260405f2060ff815460a01c16614a0a57506149ec90610f6e565b60ff8154166149fa57505f90565b600301546001600160a01b031690565b600501546001600160a01b0316919050565b6017548015614a81575f906017541561064b5760175f525f516020615ee35f395f51905f525460015b828110614a525750505090565b81614a5c8261062f565b505410614a6c575b600101614a45565b809350614a79915061062f565b505482614a64565b505f1990565b9091906001600160a01b038116158015614af7575b614af2575f905b6001600160a01b038116151580614ae8575b15613c785780614ac885614ae293615672565b6001600160a01b0390614ada90610cee565b541691613bd5565b90614aa3565b5060408210614ab5565b509050565b508215614a9c565b63ffffffff60e01b16628c2cb160e51b8114908115614b79575b8115614b68575b8115614b57575b8115614b46575b8115614b38575090565b636785147560e01b14919050565b632e8d3d7160e11b81149150614b2e565b6333444d1960e21b81149150614b27565b631357891160e31b81149150614b20565b63ef15fba760e01b81149150614b19565b63ffffffff60e01b16636c27fde560e01b8114908115614db5575b8115614da4575b8115614d93575b8115614d82575b8115614d71575b8115614d60575b8115614d4f575b8115614d3e575b8115614d2d575b8115614d1c575b8115614d0b575b8115614cfa575b8115614ce9575b8115614cd8575b8115614cc7575b8115614cb6575b8115614ca5575b8115614c94575b8115614c83575b8115614c72575b8115614c61575b8115614c50575b8115614c42575090565b6348d7f0b960e11b14919050565b6393e8419160e01b81149150614c38565b638568e38360e01b81149150614c31565b63f249d30360e01b81149150614c2a565b6352b9ec2360e01b81149150614c23565b6365e270d560e11b81149150614c1c565b633c87fa8960e11b81149150614c15565b630ea3ac9f60e11b81149150614c0e565b6378a5b02560e11b81149150614c07565b63b0c2093960e01b81149150614c00565b639f63520960e01b81149150614bf9565b63677f58b960e01b81149150614bf2565b637a8844fb60e11b81149150614beb565b6371d7193b60e01b81149150614be4565b6331b86d3560e01b81149150614bdd565b6301247ab760e61b81149150614bd6565b63b04e83b760e01b81149150614bcf565b63294ae08160e11b81149150614bc8565b631163081760e11b81149150614bc1565b6361e3f2a560e11b81149150614bba565b6347b5881360e01b81149150614bb3565b63c0ab3ba360e01b81149150614bac565b630569881360e41b81149150614ba5565b63ffffffff60e01b16630b18ae1d60e11b8114908115614de4575090565b6303bbece160e21b14919050565b614dfd600554610542565b6001600160a01b03811691908215908115614e84575b50613aac57602060049260405193848092634e077ded60e11b82525afa918215613aa7575f92614e63575b506001600160a01b03821615828115614e59575b50613aac57565b90503b155f614e52565b614e7d91925060203d602011613ae357613ad5818361124b565b905f614e3e565b90503b155f614e13565b80519081614ebb5760405163dccff66960e01b8152602060048201529081906116149060248301906109df565b602001fd5b9160405192600184526020840152604083019160018352606084015260808301604052565b9293905f905f92614ef68251612fdd565b90614f018351612fdd565b925f915f5b825181101561500b57614f198184612ca0565b51606481101580614ffd575b614fb0571580614fa9575b614f3f575b6001905b01614f06565b614f49818a612ca0565b51614f95575b600a5460ff16614f5f575b614f35565b614f6d613df86146a6610e76565b15614f3557614f81613df86146a68c610ea2565b15614f5a57639798976560e01b5f5260045ffd5b96956146e4614fa391613844565b96614f4f565b505f614f30565b6001600160a01b038b161580614ff6575b614fcf575b50600190614f39565b84614fef91614fe55f614712600196998b612ca0565b61472b828a612ca0565b9390614fc6565b505f614fc1565b5064174876e8008110614f25565b5094909695989291989793975f615024888a8884615a72565b615177575b50505f975f985b87518a10156150725761506a8a60019261505861478c615050848d612ca0565b51938d612ca0565b615063838254613852565b9055613852565b990198615030565b61509c91939795995061509790989294985f516020615f035f395f51905f5254613852565b612bd0565b6001600160a01b038716159283615118575b5f5b8381106150ff5750505050156150c7575b50505050565b80516001036150ef57906020806150e695930151910151915f336158cb565b5f8080806150c1565b6150fa935f336157ad565b6150e6565b806151126148066147f960019486612ca0565b016150b0565b969290979395915f985f995b88518b1015615150578a60019161514161478c615050848d612ca0565b828154039055019a0199615124565b61517291939599929498969a505f516020615f035f395f51905f525403612bd0565b6150ae565b615184916148295f615c2b565b5f80615029565b93949093916001600160a01b0383161580159283929083615499575b5f945f966151b58451612fdd565b916151c08551612fdd565b945f945f5b8251811015615303578d846151da8386612ca0565b51916064831015806152f5575b61527a5750501580615273575b615203575b6001905b016151c5565b8c61520e8282612ca0565b51615253575b50600a5460ff16156151f9578d61522f613df86146a6610e76565b61523a575b506151f9565b613df86146a661524992610ea2565b6146c7578d615234565b9a9b61316e8261526661526c949f613844565b9d612ca0565b9a8c615214565b50896151f4565b8b916152e3575b50156152d4576001600160a01b038f1615806152cd575b6152a6575b506001906151fd565b876152c6916152bc886147126001969c8c612ca0565b61472b828c612ca0565b969061529d565b5084615298565b63b8333dc960e01b5f5260045ffd5b6001600160a01b03161590508f615281565b5064174876e80083106151e7565b509c9a98929991509a9695929594939461531f898d8a8d615a72565b80615487575b615473575b5050615414575b6001600160a01b0384161592836153ad575b5f5b83811061539457505050501561535d575b5050505050565b84516001036153835760208061537996015192015192336158cb565b5f80808080615356565b61538f949192336157ad565b615379565b806153a76148066147f960019486612ca0565b01615345565b979693915f9693915f975b89518910156153ec57896001916153dd61478c8c6153d6818e612ca0565b5194612ca0565b828154039055019801976153b8565b61540f91939598509991939598995f516020615f035f395f51905f525403612bd0565b615343565b979394915f9693915f975b8951891015615448576154408a60019261505861478c8d6153d6818f612ca0565b98019761541f565b61546e9193959850615097909a929497969a5f516020615f035f395f51905f5254613852565b615331565b615480916148298a615c2b565b5f8061532a565b50811515806153255750801515615325565b6001600160a01b038816151593506151a7565b6001600160a01b038116158015615599575b61559457613e92916154d1600892610e3e565b610e1042045f5260205260405f2090600982016154f2613df8825460ff1690565b615585575b506155035f8354613852565b8255600182016155145f8254613852565b9055600282016155255f8254613852565b9055600382016155365f8254613852565b9055600482016155475f8254613852565b9055600582016155585f8254613852565b9055600682016155695f8254613852565b905561557a60078301918254613852565b905501918254613852565b61558e90612eba565b5f6154f7565b505050565b50811580156154be575082156154be565b9091906001600160a01b0381161580156155fb575b614af2575f905b6001600160a01b0381161515806155f1575b15613c785780614ac8856155eb93615969565b906155c6565b50604082106155d8565b5082156155bf565b9092906001600160e01b031916630b18ae1d60e11b810361562d57632bb82cb360e01b5f5260045ffd5b631cb4772560e21b81036156595750509061127d916040519161565160208461124b565b5f8352613b27565b90915063178fb21b60e11b03611e1f5761127d916145cf565b906001600160a01b03821615801561573d575b613ea55761569282610dce565b805492828401809411612e48576008936156b592556140d4610e10420491610e3e565b90600982016156c8613df8825460ff1690565b61572e575b506156d95f8354613852565b8255600182016156ea5f8254613852565b9055600282016156fb5f8254613852565b90556003820161570c5f8254613852565b90556004820161571d5f8254613852565b9055613e6260058301918254613852565b61573790612eba565b5f6156cd565b508015615685565b908160209103126100155751610a148161059b565b6001600160a01b0391821681529116602082015260a060408201819052610a14949193919261579f929161579191908601906117c8565b9084820360608601526117c8565b9160808184039101526109df565b9091949293853b6157c1575b505050505050565b6020936157e391604051968795869563bc197c8160e01b87526004870161575a565b03815f6001600160a01b0387165af15f9181615861575b5061582b5750615808612bf3565b805191908261582457632bfa23e760e11b5f5261389b82610c51565b6020915001fd5b6001600160e01b0319166343e6837f60e01b0161584e57505f80808080806157b9565b632bfa23e760e11b5f5261389b90610c51565b61588491925060203d60201161588b575b61587c818361124b565b810190615745565b905f6157fa565b503d615872565b6001600160a01b039182168152911660208201526040810191909152606081019190915260a060808201819052610a14929101906109df565b9091949293853b6158de57505050505050565b60209361590091604051968795869563f23a6e6160e01b875260048701615892565b03815f6001600160a01b0387165af15f9181615948575b506159255750615808612bf3565b6001600160e01b031916630dc5919f60e01b0161584e57505f80808080806157b9565b61596291925060203d60201161588b5761587c818361124b565b905f615917565b906001600160a01b038216158015615a45575b613ea55761598982610e06565b805492828401809411612e48576008936159ac92556140d4610e10420491610e3e565b90600982016159bf613df8825460ff1690565b615a36575b506159d05f8354613852565b8255600182016159e15f8254613852565b9055600282016159f25f8254613852565b905560038201615a035f8254613852565b905560048201615a145f8254613852565b905560058201615a255f8254613852565b9055613e7360068301918254613852565b615a3f90612eba565b5f6159c4565b50801561597c565b9091615a64610a14936040845260408401906117c8565b9160208184039101526117c8565b9392918051835190818103615c165750505f5b8151811015615b71578060051b90602080838501015192860101518460018060a01b038916615af4575b6001936001600160a01b038216615aca575b50505001615a85565b615aea91610800615ae2925f525f60205260405f2090565b918254613852565b90555f8481615ac1565b509091615b0c88610800835f525f60205260405f2090565b54828110615b3a57829160019493879203615b328b610800845f525f60205260405f2090565b559350615aaf565b6040516303dee4c560e01b81526001600160a01b038a16600482015260248101919091526044810183905260648101829052608490fd5b508051939493919291600103615bd3576020908101519101516040516001600160a01b03938416949093169233927fc3d58168c5ae7397731d063d5bbf3d657854427343f4c083240f7aacaa2d0f62928291615bce919083612bbf565b0390a4565b6040516001600160a01b03938416949093169233927f4a39dc06d4c0dbc64b70af90fd698a233a518aa5d07e595d983b8c0526c8f7fb928291615bce9183615a4d565b635b05999160e01b5f5260045260245260445ffd5b615c376146a633610cb6565b615ccd576001600160a01b038116158015615cc4575b61349f575f80916040516020810190638da5cb5b60e01b825260048152615c7560248261124b565b51915afa615c81612bf3565b90158015615cb9575b61349f576139e881602080615ca49451830101910161399e565b615cb06146a682610cb6565b610a1457505f90565b506020815110615c8a565b50803b15615c4d565b503390565b9192916001600160a01b038116158015615d3f575b613c7857905f915b6001600160a01b038116151580615d35575b15613c675780615d158684615d2f94615d77565b6001600160a01b0390615d2790610cee565b541692613bd5565b91615cef565b5060408310615d01565b5081158015615ce757508315615ce7565b90613b1f613b2492610765604051938492637e4152e760e11b602085015260248401613b6c565b916001600160a01b038316158015615e31575b61559457615d9783610d96565b805493838501809511612e4857600894615dba92556140d4610e10420491610e3e565b9160098301615dcd613df8825460ff1690565b615e22575b50615dde5f8454613852565b835560018301615def5f8254613852565b905560028301615e005f8254613852565b9055615e1160038401918254613852565b9055613e5160048301918254613852565b615e2b90612eba565b5f615dd2565b5081158015615d8a57508015615d8a56fe3bf2de114e2e7636c289f21be023528e47d89b45e873b976c78989c3ddc683f5cb1a422c9916903f224af4db9a3bf1529921bf95ff7b75d7d9ed9073a48394ab3e38a9410c08ddb4af8b083bfd2b197b1c3e61a651bd1c54c51ebce0cdcdc48ed34312c2e21f45f2b6715cf87d9e919b2098c835582e2b5c6e716490b0dfd0d48be0079c531659141344cd1fd0a4f28419497f9722a3daafe3b4186f6b6457e0c624b66cc0138b8fabc209247f72d758e1cf3343756d543badbf24212bed8c15d34312c2e21f45f2b6715cf87d9e919b2098c835582e2b5c6e716490b0dfd0d5ad3228b676f7d3cd4284a5443f17f1962b36e491b30a40b2405849e597ba5fb5a164736f6c6343000821000abc488d3e2575f0f2113dc4d9a0cd6bc52445c6bc28a8974ed97a6ba3ecfd657c",
  "linkReferences": {},
  "deployedLinkReferences": {},
  "immutableReferences": {
    "16975": [
      {
        "length": 32,
        "start": 10145
      }
    ]
  },
  "inputSourceName": "project/src/BeamioUserCard/BeamioUserCard.sol",
  "buildInfoId": "solc-0_8_33-b62d47ff2b6fff2deec581c76c45552a420f7bef"
}