{
  "_format": "hh3-artifact-1",
  "contractName": "BeamioUserCard",
  "sourceName": "src/BeamioUserCard/BeamioUserCard.sol",
  "abi": [
    {
      "inputs": [
        {
          "internalType": "string",
          "name": "uri_",
          "type": "string"
        },
        {
          "internalType": "enum BeamioCurrency.CurrencyType",
          "name": "currency_",
          "type": "uint8"
        },
        {
          "internalType": "uint256",
          "name": "pointsUnitPriceInCurrencyE6_",
          "type": "uint256"
        },
        {
          "internalType": "address",
          "name": "initialOwner",
          "type": "address"
        },
        {
          "internalType": "address",
          "name": "gateway_",
          "type": "address"
        }
      ],
      "stateMutability": "nonpayable",
      "type": "constructor"
    },
    {
      "inputs": [],
      "name": "BM_NotAuthorized",
      "type": "error"
    },
    {
      "inputs": [],
      "name": "BM_ZeroAddress",
      "type": "error"
    },
    {
      "inputs": [
        {
          "internalType": "address",
          "name": "sender",
          "type": "address"
        },
        {
          "internalType": "uint256",
          "name": "balance",
          "type": "uint256"
        },
        {
          "internalType": "uint256",
          "name": "needed",
          "type": "uint256"
        },
        {
          "internalType": "uint256",
          "name": "tokenId",
          "type": "uint256"
        }
      ],
      "name": "ERC1155InsufficientBalance",
      "type": "error"
    },
    {
      "inputs": [
        {
          "internalType": "address",
          "name": "approver",
          "type": "address"
        }
      ],
      "name": "ERC1155InvalidApprover",
      "type": "error"
    },
    {
      "inputs": [
        {
          "internalType": "uint256",
          "name": "idsLength",
          "type": "uint256"
        },
        {
          "internalType": "uint256",
          "name": "valuesLength",
          "type": "uint256"
        }
      ],
      "name": "ERC1155InvalidArrayLength",
      "type": "error"
    },
    {
      "inputs": [
        {
          "internalType": "address",
          "name": "operator",
          "type": "address"
        }
      ],
      "name": "ERC1155InvalidOperator",
      "type": "error"
    },
    {
      "inputs": [
        {
          "internalType": "address",
          "name": "receiver",
          "type": "address"
        }
      ],
      "name": "ERC1155InvalidReceiver",
      "type": "error"
    },
    {
      "inputs": [
        {
          "internalType": "address",
          "name": "sender",
          "type": "address"
        }
      ],
      "name": "ERC1155InvalidSender",
      "type": "error"
    },
    {
      "inputs": [
        {
          "internalType": "address",
          "name": "operator",
          "type": "address"
        },
        {
          "internalType": "address",
          "name": "owner",
          "type": "address"
        }
      ],
      "name": "ERC1155MissingApprovalForAll",
      "type": "error"
    },
    {
      "inputs": [
        {
          "internalType": "address",
          "name": "owner",
          "type": "address"
        }
      ],
      "name": "OwnableInvalidOwner",
      "type": "error"
    },
    {
      "inputs": [
        {
          "internalType": "address",
          "name": "account",
          "type": "address"
        }
      ],
      "name": "OwnableUnauthorizedAccount",
      "type": "error"
    },
    {
      "inputs": [],
      "name": "ReentrancyGuardReentrantCall",
      "type": "error"
    },
    {
      "inputs": [],
      "name": "UC_AmountZero",
      "type": "error"
    },
    {
      "inputs": [],
      "name": "UC_BelowMinThreshold",
      "type": "error"
    },
    {
      "inputs": [],
      "name": "UC_GlobalMisconfigured",
      "type": "error"
    },
    {
      "inputs": [],
      "name": "UC_InvalidProposal",
      "type": "error"
    },
    {
      "inputs": [],
      "name": "UC_NoBeamioAccount",
      "type": "error"
    },
    {
      "inputs": [],
      "name": "UC_NotAdmin",
      "type": "error"
    },
    {
      "inputs": [],
      "name": "UC_PointsToNotWhitelisted",
      "type": "error"
    },
    {
      "inputs": [],
      "name": "UC_PriceZero",
      "type": "error"
    },
    {
      "inputs": [
        {
          "internalType": "bytes",
          "name": "data",
          "type": "bytes"
        }
      ],
      "name": "UC_RedeemDelegateFailed",
      "type": "error"
    },
    {
      "inputs": [],
      "name": "UC_RedeemModuleZero",
      "type": "error"
    },
    {
      "inputs": [
        {
          "internalType": "address",
          "name": "eoa",
          "type": "address"
        },
        {
          "internalType": "address",
          "name": "aaFactory",
          "type": "address"
        },
        {
          "internalType": "address",
          "name": "acct",
          "type": "address"
        }
      ],
      "name": "UC_ResolveAccountFailed",
      "type": "error"
    },
    {
      "inputs": [],
      "name": "UC_SBTNonTransferable",
      "type": "error"
    },
    {
      "inputs": [],
      "name": "UC_StatsModuleZero",
      "type": "error"
    },
    {
      "inputs": [],
      "name": "UC_TierLenMismatch",
      "type": "error"
    },
    {
      "inputs": [],
      "name": "UC_TierMinZero",
      "type": "error"
    },
    {
      "inputs": [],
      "name": "UC_UnauthorizedGateway",
      "type": "error"
    },
    {
      "anonymous": false,
      "inputs": [
        {
          "indexed": true,
          "internalType": "address",
          "name": "beneficiaryAccount",
          "type": "address"
        },
        {
          "indexed": true,
          "internalType": "uint256",
          "name": "tokenId",
          "type": "uint256"
        },
        {
          "indexed": false,
          "internalType": "uint256",
          "name": "attr",
          "type": "uint256"
        },
        {
          "indexed": false,
          "internalType": "uint256",
          "name": "expiry",
          "type": "uint256"
        }
      ],
      "name": "AdminCardMinted",
      "type": "event"
    },
    {
      "anonymous": false,
      "inputs": [
        {
          "indexed": true,
          "internalType": "address",
          "name": "beneficiaryAccount",
          "type": "address"
        },
        {
          "indexed": false,
          "internalType": "uint256",
          "name": "points6",
          "type": "uint256"
        }
      ],
      "name": "AdminPointsMinted",
      "type": "event"
    },
    {
      "anonymous": false,
      "inputs": [
        {
          "indexed": true,
          "internalType": "address",
          "name": "account",
          "type": "address"
        },
        {
          "indexed": true,
          "internalType": "address",
          "name": "operator",
          "type": "address"
        },
        {
          "indexed": false,
          "internalType": "bool",
          "name": "approved",
          "type": "bool"
        }
      ],
      "name": "ApprovalForAll",
      "type": "event"
    },
    {
      "anonymous": false,
      "inputs": [
        {
          "indexed": false,
          "internalType": "uint256",
          "name": "attr",
          "type": "uint256"
        }
      ],
      "name": "DefaultAttrUpdated",
      "type": "event"
    },
    {
      "anonymous": false,
      "inputs": [
        {
          "indexed": false,
          "internalType": "uint256",
          "name": "oldSecs",
          "type": "uint256"
        },
        {
          "indexed": false,
          "internalType": "uint256",
          "name": "newSecs",
          "type": "uint256"
        }
      ],
      "name": "ExpirySecondsUpdated",
      "type": "event"
    },
    {
      "anonymous": false,
      "inputs": [
        {
          "indexed": true,
          "internalType": "uint256",
          "name": "id",
          "type": "uint256"
        },
        {
          "indexed": true,
          "internalType": "address",
          "name": "userEOA",
          "type": "address"
        },
        {
          "indexed": true,
          "internalType": "address",
          "name": "acct",
          "type": "address"
        },
        {
          "indexed": false,
          "internalType": "uint256",
          "name": "amount",
          "type": "uint256"
        },
        {
          "indexed": false,
          "internalType": "uint256",
          "name": "claimedAfter",
          "type": "uint256"
        }
      ],
      "name": "FaucetClaimed",
      "type": "event"
    },
    {
      "anonymous": false,
      "inputs": [
        {
          "indexed": true,
          "internalType": "uint256",
          "name": "id",
          "type": "uint256"
        },
        {
          "components": [
            {
              "internalType": "uint64",
              "name": "validUntil",
              "type": "uint64"
            },
            {
              "internalType": "uint64",
              "name": "perClaimMax",
              "type": "uint64"
            },
            {
              "internalType": "uint128",
              "name": "maxPerUser",
              "type": "uint128"
            },
            {
              "internalType": "uint128",
              "name": "maxGlobal",
              "type": "uint128"
            },
            {
              "internalType": "bool",
              "name": "enabled",
              "type": "bool"
            },
            {
              "internalType": "uint8",
              "name": "currency",
              "type": "uint8"
            },
            {
              "internalType": "uint8",
              "name": "decimals",
              "type": "uint8"
            },
            {
              "internalType": "uint128",
              "name": "priceInCurrency6",
              "type": "uint128"
            }
          ],
          "indexed": false,
          "internalType": "struct FaucetStorage.FaucetConfig",
          "name": "cfg",
          "type": "tuple"
        }
      ],
      "name": "FaucetConfigUpdated",
      "type": "event"
    },
    {
      "anonymous": false,
      "inputs": [
        {
          "indexed": true,
          "internalType": "uint256",
          "name": "tokenId",
          "type": "uint256"
        },
        {
          "indexed": false,
          "internalType": "bytes32",
          "name": "title",
          "type": "bytes32"
        },
        {
          "indexed": false,
          "internalType": "uint64",
          "name": "validAfter",
          "type": "uint64"
        },
        {
          "indexed": false,
          "internalType": "uint64",
          "name": "validBefore",
          "type": "uint64"
        },
        {
          "indexed": false,
          "internalType": "uint256",
          "name": "maxSupply",
          "type": "uint256"
        },
        {
          "indexed": false,
          "internalType": "uint256",
          "name": "priceInCurrency6",
          "type": "uint256"
        },
        {
          "indexed": false,
          "internalType": "bytes32",
          "name": "sharedMetadataHash",
          "type": "bytes32"
        }
      ],
      "name": "IssuedNftCreated",
      "type": "event"
    },
    {
      "anonymous": false,
      "inputs": [
        {
          "indexed": true,
          "internalType": "uint256",
          "name": "tokenId",
          "type": "uint256"
        },
        {
          "indexed": true,
          "internalType": "address",
          "name": "recipient",
          "type": "address"
        },
        {
          "indexed": false,
          "internalType": "uint256",
          "name": "amount",
          "type": "uint256"
        }
      ],
      "name": "IssuedNftMinted",
      "type": "event"
    },
    {
      "anonymous": false,
      "inputs": [
        {
          "indexed": true,
          "internalType": "address",
          "name": "user",
          "type": "address"
        },
        {
          "indexed": true,
          "internalType": "uint256",
          "name": "tokenId",
          "type": "uint256"
        },
        {
          "indexed": false,
          "internalType": "uint256",
          "name": "tierIndexOrMax",
          "type": "uint256"
        },
        {
          "indexed": false,
          "internalType": "uint256",
          "name": "minUsdc6",
          "type": "uint256"
        },
        {
          "indexed": false,
          "internalType": "uint256",
          "name": "expiry",
          "type": "uint256"
        }
      ],
      "name": "MemberNFTIssued",
      "type": "event"
    },
    {
      "anonymous": false,
      "inputs": [
        {
          "indexed": true,
          "internalType": "address",
          "name": "user",
          "type": "address"
        },
        {
          "indexed": true,
          "internalType": "uint256",
          "name": "oldActiveTokenId",
          "type": "uint256"
        },
        {
          "indexed": true,
          "internalType": "uint256",
          "name": "newTokenId",
          "type": "uint256"
        },
        {
          "indexed": false,
          "internalType": "uint256",
          "name": "oldTierIndexOrMax",
          "type": "uint256"
        },
        {
          "indexed": false,
          "internalType": "uint256",
          "name": "newTierIndex",
          "type": "uint256"
        },
        {
          "indexed": false,
          "internalType": "uint256",
          "name": "newExpiry",
          "type": "uint256"
        }
      ],
      "name": "MemberNFTUpgraded",
      "type": "event"
    },
    {
      "anonymous": false,
      "inputs": [
        {
          "indexed": true,
          "internalType": "address",
          "name": "previousOwner",
          "type": "address"
        },
        {
          "indexed": true,
          "internalType": "address",
          "name": "newOwner",
          "type": "address"
        }
      ],
      "name": "OwnershipTransferred",
      "type": "event"
    },
    {
      "anonymous": false,
      "inputs": [
        {
          "indexed": true,
          "internalType": "address",
          "name": "userEOA",
          "type": "address"
        },
        {
          "indexed": true,
          "internalType": "address",
          "name": "acct",
          "type": "address"
        },
        {
          "indexed": false,
          "internalType": "uint256",
          "name": "points6",
          "type": "uint256"
        }
      ],
      "name": "PointsMintedByGateway",
      "type": "event"
    },
    {
      "anonymous": false,
      "inputs": [
        {
          "indexed": true,
          "internalType": "address",
          "name": "payerEOA",
          "type": "address"
        },
        {
          "indexed": true,
          "internalType": "address",
          "name": "beneficiaryAccount",
          "type": "address"
        },
        {
          "indexed": true,
          "internalType": "address",
          "name": "usdc",
          "type": "address"
        },
        {
          "indexed": false,
          "internalType": "uint256",
          "name": "usdcIn6",
          "type": "uint256"
        },
        {
          "indexed": false,
          "internalType": "uint256",
          "name": "pointsMinted6",
          "type": "uint256"
        },
        {
          "indexed": false,
          "internalType": "uint256",
          "name": "unitPointPriceUsdc6",
          "type": "uint256"
        },
        {
          "indexed": false,
          "internalType": "bytes32",
          "name": "nonce",
          "type": "bytes32"
        }
      ],
      "name": "PointsPurchasedWithUSDC",
      "type": "event"
    },
    {
      "anonymous": false,
      "inputs": [
        {
          "indexed": false,
          "internalType": "uint256",
          "name": "priceInCurrencyE6",
          "type": "uint256"
        }
      ],
      "name": "PointsUnitPriceUpdated",
      "type": "event"
    },
    {
      "anonymous": false,
      "inputs": [
        {
          "indexed": true,
          "internalType": "uint256",
          "name": "id",
          "type": "uint256"
        },
        {
          "indexed": true,
          "internalType": "address",
          "name": "admin",
          "type": "address"
        }
      ],
      "name": "ProposalApproved",
      "type": "event"
    },
    {
      "anonymous": false,
      "inputs": [
        {
          "indexed": true,
          "internalType": "uint256",
          "name": "id",
          "type": "uint256"
        },
        {
          "indexed": true,
          "internalType": "bytes4",
          "name": "selector",
          "type": "bytes4"
        },
        {
          "indexed": true,
          "internalType": "address",
          "name": "proposer",
          "type": "address"
        }
      ],
      "name": "ProposalCreated",
      "type": "event"
    },
    {
      "anonymous": false,
      "inputs": [
        {
          "indexed": true,
          "internalType": "uint256",
          "name": "id",
          "type": "uint256"
        }
      ],
      "name": "ProposalExecuted",
      "type": "event"
    },
    {
      "anonymous": false,
      "inputs": [
        {
          "indexed": true,
          "internalType": "bytes32",
          "name": "hash",
          "type": "bytes32"
        }
      ],
      "name": "RedeemCancelled",
      "type": "event"
    },
    {
      "anonymous": false,
      "inputs": [
        {
          "indexed": true,
          "internalType": "bytes32",
          "name": "hash",
          "type": "bytes32"
        },
        {
          "indexed": false,
          "internalType": "uint256",
          "name": "points6",
          "type": "uint256"
        },
        {
          "indexed": false,
          "internalType": "uint256",
          "name": "attr",
          "type": "uint256"
        }
      ],
      "name": "RedeemCreated",
      "type": "event"
    },
    {
      "anonymous": false,
      "inputs": [
        {
          "indexed": false,
          "internalType": "uint256",
          "name": "index",
          "type": "uint256"
        },
        {
          "indexed": false,
          "internalType": "uint256",
          "name": "minUsdc6",
          "type": "uint256"
        },
        {
          "indexed": false,
          "internalType": "uint256",
          "name": "attr",
          "type": "uint256"
        },
        {
          "indexed": false,
          "internalType": "uint256",
          "name": "tierExpirySeconds",
          "type": "uint256"
        },
        {
          "indexed": false,
          "internalType": "bool",
          "name": "upgradeByBalance",
          "type": "bool"
        }
      ],
      "name": "TierAppended",
      "type": "event"
    },
    {
      "anonymous": false,
      "inputs": [
        {
          "indexed": false,
          "internalType": "uint256",
          "name": "count",
          "type": "uint256"
        }
      ],
      "name": "TiersUpdated",
      "type": "event"
    },
    {
      "anonymous": false,
      "inputs": [
        {
          "indexed": true,
          "internalType": "address",
          "name": "operator",
          "type": "address"
        },
        {
          "indexed": true,
          "internalType": "address",
          "name": "from",
          "type": "address"
        },
        {
          "indexed": true,
          "internalType": "address",
          "name": "to",
          "type": "address"
        },
        {
          "indexed": false,
          "internalType": "uint256[]",
          "name": "ids",
          "type": "uint256[]"
        },
        {
          "indexed": false,
          "internalType": "uint256[]",
          "name": "values",
          "type": "uint256[]"
        }
      ],
      "name": "TransferBatch",
      "type": "event"
    },
    {
      "anonymous": false,
      "inputs": [
        {
          "indexed": true,
          "internalType": "address",
          "name": "operator",
          "type": "address"
        },
        {
          "indexed": true,
          "internalType": "address",
          "name": "from",
          "type": "address"
        },
        {
          "indexed": true,
          "internalType": "address",
          "name": "to",
          "type": "address"
        },
        {
          "indexed": false,
          "internalType": "uint256",
          "name": "id",
          "type": "uint256"
        },
        {
          "indexed": false,
          "internalType": "uint256",
          "name": "value",
          "type": "uint256"
        }
      ],
      "name": "TransferSingle",
      "type": "event"
    },
    {
      "anonymous": false,
      "inputs": [
        {
          "indexed": false,
          "internalType": "bool",
          "name": "enabled",
          "type": "bool"
        }
      ],
      "name": "TransferWhitelistEnabledUpdated",
      "type": "event"
    },
    {
      "anonymous": false,
      "inputs": [
        {
          "indexed": false,
          "internalType": "string",
          "name": "value",
          "type": "string"
        },
        {
          "indexed": true,
          "internalType": "uint256",
          "name": "id",
          "type": "uint256"
        }
      ],
      "name": "URI",
      "type": "event"
    },
    {
      "inputs": [],
      "name": "ISSUED_NFT_START_ID",
      "outputs": [
        {
          "internalType": "uint256",
          "name": "",
          "type": "uint256"
        }
      ],
      "stateMutability": "view",
      "type": "function"
    },
    {
      "inputs": [],
      "name": "NFT_START_ID",
      "outputs": [
        {
          "internalType": "uint256",
          "name": "",
          "type": "uint256"
        }
      ],
      "stateMutability": "view",
      "type": "function"
    },
    {
      "inputs": [],
      "name": "POINTS_DECIMALS",
      "outputs": [
        {
          "internalType": "uint8",
          "name": "",
          "type": "uint8"
        }
      ],
      "stateMutability": "view",
      "type": "function"
    },
    {
      "inputs": [],
      "name": "POINTS_ID",
      "outputs": [
        {
          "internalType": "uint256",
          "name": "",
          "type": "uint256"
        }
      ],
      "stateMutability": "view",
      "type": "function"
    },
    {
      "inputs": [],
      "name": "VERSION",
      "outputs": [
        {
          "internalType": "uint256",
          "name": "",
          "type": "uint256"
        }
      ],
      "stateMutability": "view",
      "type": "function"
    },
    {
      "inputs": [
        {
          "internalType": "address",
          "name": "",
          "type": "address"
        },
        {
          "internalType": "uint256",
          "name": "",
          "type": "uint256"
        }
      ],
      "name": "_userOwnedNfts",
      "outputs": [
        {
          "internalType": "uint256",
          "name": "",
          "type": "uint256"
        }
      ],
      "stateMutability": "view",
      "type": "function"
    },
    {
      "inputs": [
        {
          "internalType": "uint256",
          "name": "",
          "type": "uint256"
        }
      ],
      "name": "activeMembershipCountByTierIndex",
      "outputs": [
        {
          "internalType": "uint256",
          "name": "",
          "type": "uint256"
        }
      ],
      "stateMutability": "view",
      "type": "function"
    },
    {
      "inputs": [
        {
          "internalType": "uint256",
          "name": "",
          "type": "uint256"
        }
      ],
      "name": "activeMembershipCountByTokenId",
      "outputs": [
        {
          "internalType": "uint256",
          "name": "",
          "type": "uint256"
        }
      ],
      "stateMutability": "view",
      "type": "function"
    },
    {
      "inputs": [
        {
          "internalType": "address",
          "name": "",
          "type": "address"
        }
      ],
      "name": "activeMembershipId",
      "outputs": [
        {
          "internalType": "uint256",
          "name": "",
          "type": "uint256"
        }
      ],
      "stateMutability": "view",
      "type": "function"
    },
    {
      "inputs": [
        {
          "internalType": "address",
          "name": "",
          "type": "address"
        }
      ],
      "name": "activeTierIndexOrMax",
      "outputs": [
        {
          "internalType": "uint256",
          "name": "",
          "type": "uint256"
        }
      ],
      "stateMutability": "view",
      "type": "function"
    },
    {
      "inputs": [
        {
          "internalType": "address",
          "name": "newAdmin",
          "type": "address"
        },
        {
          "internalType": "uint256",
          "name": "newThreshold",
          "type": "uint256"
        }
      ],
      "name": "addAdmin",
      "outputs": [],
      "stateMutability": "nonpayable",
      "type": "function"
    },
    {
      "inputs": [
        {
          "internalType": "uint256",
          "name": "i",
          "type": "uint256"
        }
      ],
      "name": "adminList",
      "outputs": [
        {
          "internalType": "address",
          "name": "",
          "type": "address"
        }
      ],
      "stateMutability": "view",
      "type": "function"
    },
    {
      "inputs": [
        {
          "internalType": "uint256",
          "name": "minUsdc6",
          "type": "uint256"
        },
        {
          "internalType": "uint256",
          "name": "attr",
          "type": "uint256"
        },
        {
          "internalType": "uint256",
          "name": "tierExpirySeconds",
          "type": "uint256"
        },
        {
          "internalType": "bool",
          "name": "upgradeByBalance",
          "type": "bool"
        }
      ],
      "name": "appendTier",
      "outputs": [],
      "stateMutability": "nonpayable",
      "type": "function"
    },
    {
      "inputs": [
        {
          "internalType": "uint256",
          "name": "id",
          "type": "uint256"
        }
      ],
      "name": "approveProposal",
      "outputs": [],
      "stateMutability": "nonpayable",
      "type": "function"
    },
    {
      "inputs": [
        {
          "internalType": "uint256",
          "name": "id",
          "type": "uint256"
        },
        {
          "internalType": "address",
          "name": "adminSigner",
          "type": "address"
        }
      ],
      "name": "approveProposalByGateway",
      "outputs": [],
      "stateMutability": "nonpayable",
      "type": "function"
    },
    {
      "inputs": [
        {
          "internalType": "uint256",
          "name": "",
          "type": "uint256"
        }
      ],
      "name": "attributes",
      "outputs": [
        {
          "internalType": "uint256",
          "name": "",
          "type": "uint256"
        }
      ],
      "stateMutability": "view",
      "type": "function"
    },
    {
      "inputs": [
        {
          "internalType": "address",
          "name": "account",
          "type": "address"
        },
        {
          "internalType": "uint256",
          "name": "id",
          "type": "uint256"
        }
      ],
      "name": "balanceOf",
      "outputs": [
        {
          "internalType": "uint256",
          "name": "",
          "type": "uint256"
        }
      ],
      "stateMutability": "view",
      "type": "function"
    },
    {
      "inputs": [
        {
          "internalType": "address[]",
          "name": "accounts",
          "type": "address[]"
        },
        {
          "internalType": "uint256[]",
          "name": "ids",
          "type": "uint256[]"
        }
      ],
      "name": "balanceOfBatch",
      "outputs": [
        {
          "internalType": "uint256[]",
          "name": "",
          "type": "uint256[]"
        }
      ],
      "stateMutability": "view",
      "type": "function"
    },
    {
      "inputs": [
        {
          "internalType": "string",
          "name": "code",
          "type": "string"
        }
      ],
      "name": "cancelRedeem",
      "outputs": [],
      "stateMutability": "nonpayable",
      "type": "function"
    },
    {
      "inputs": [
        {
          "internalType": "bytes32",
          "name": "title",
          "type": "bytes32"
        },
        {
          "internalType": "uint64",
          "name": "validAfter",
          "type": "uint64"
        },
        {
          "internalType": "uint64",
          "name": "validBefore",
          "type": "uint64"
        },
        {
          "internalType": "uint256",
          "name": "maxSupply",
          "type": "uint256"
        },
        {
          "internalType": "uint256",
          "name": "priceInCurrency6",
          "type": "uint256"
        },
        {
          "internalType": "bytes32",
          "name": "sharedMetadataHash",
          "type": "bytes32"
        }
      ],
      "name": "createIssuedNft",
      "outputs": [
        {
          "internalType": "uint256",
          "name": "tokenId",
          "type": "uint256"
        }
      ],
      "stateMutability": "nonpayable",
      "type": "function"
    },
    {
      "inputs": [
        {
          "internalType": "bytes4",
          "name": "selector",
          "type": "bytes4"
        },
        {
          "internalType": "address",
          "name": "target",
          "type": "address"
        },
        {
          "internalType": "uint256",
          "name": "v1",
          "type": "uint256"
        },
        {
          "internalType": "uint256",
          "name": "v2",
          "type": "uint256"
        },
        {
          "internalType": "uint256",
          "name": "v3",
          "type": "uint256"
        }
      ],
      "name": "createProposal",
      "outputs": [
        {
          "internalType": "uint256",
          "name": "",
          "type": "uint256"
        }
      ],
      "stateMutability": "nonpayable",
      "type": "function"
    },
    {
      "inputs": [
        {
          "internalType": "bytes32",
          "name": "hash",
          "type": "bytes32"
        },
        {
          "internalType": "uint256",
          "name": "points6",
          "type": "uint256"
        },
        {
          "internalType": "uint256",
          "name": "attr",
          "type": "uint256"
        },
        {
          "internalType": "uint64",
          "name": "validAfter",
          "type": "uint64"
        },
        {
          "internalType": "uint64",
          "name": "validBefore",
          "type": "uint64"
        },
        {
          "internalType": "uint256[]",
          "name": "tokenIds",
          "type": "uint256[]"
        },
        {
          "internalType": "uint256[]",
          "name": "amounts",
          "type": "uint256[]"
        }
      ],
      "name": "createRedeem",
      "outputs": [],
      "stateMutability": "nonpayable",
      "type": "function"
    },
    {
      "inputs": [
        {
          "internalType": "bytes32[]",
          "name": "hashes",
          "type": "bytes32[]"
        },
        {
          "internalType": "uint256",
          "name": "points6",
          "type": "uint256"
        },
        {
          "internalType": "uint256",
          "name": "attr",
          "type": "uint256"
        },
        {
          "internalType": "uint64",
          "name": "validAfter",
          "type": "uint64"
        },
        {
          "internalType": "uint64",
          "name": "validBefore",
          "type": "uint64"
        },
        {
          "internalType": "uint256[]",
          "name": "tokenIds",
          "type": "uint256[]"
        },
        {
          "internalType": "uint256[]",
          "name": "amounts",
          "type": "uint256[]"
        }
      ],
      "name": "createRedeemBatch",
      "outputs": [],
      "stateMutability": "nonpayable",
      "type": "function"
    },
    {
      "inputs": [
        {
          "internalType": "bytes32",
          "name": "poolHash",
          "type": "bytes32"
        },
        {
          "internalType": "uint64",
          "name": "validAfter",
          "type": "uint64"
        },
        {
          "internalType": "uint64",
          "name": "validBefore",
          "type": "uint64"
        },
        {
          "internalType": "uint256[][]",
          "name": "tokenIdsList",
          "type": "uint256[][]"
        },
        {
          "internalType": "uint256[][]",
          "name": "amountsList",
          "type": "uint256[][]"
        },
        {
          "internalType": "uint32[]",
          "name": "counts",
          "type": "uint32[]"
        }
      ],
      "name": "createRedeemPool",
      "outputs": [],
      "stateMutability": "nonpayable",
      "type": "function"
    },
    {
      "inputs": [],
      "name": "currency",
      "outputs": [
        {
          "internalType": "enum BeamioCurrency.CurrencyType",
          "name": "",
          "type": "uint8"
        }
      ],
      "stateMutability": "view",
      "type": "function"
    },
    {
      "inputs": [],
      "name": "debugGateway",
      "outputs": [
        {
          "internalType": "address",
          "name": "",
          "type": "address"
        }
      ],
      "stateMutability": "view",
      "type": "function"
    },
    {
      "inputs": [],
      "name": "defaultAttrWhenNoTiers",
      "outputs": [
        {
          "internalType": "uint256",
          "name": "",
          "type": "uint256"
        }
      ],
      "stateMutability": "view",
      "type": "function"
    },
    {
      "inputs": [],
      "name": "deployer",
      "outputs": [
        {
          "internalType": "address",
          "name": "",
          "type": "address"
        }
      ],
      "stateMutability": "view",
      "type": "function"
    },
    {
      "inputs": [
        {
          "internalType": "uint256",
          "name": "id",
          "type": "uint256"
        }
      ],
      "name": "exists",
      "outputs": [
        {
          "internalType": "bool",
          "name": "",
          "type": "bool"
        }
      ],
      "stateMutability": "view",
      "type": "function"
    },
    {
      "inputs": [
        {
          "internalType": "uint256",
          "name": "",
          "type": "uint256"
        }
      ],
      "name": "expiresAt",
      "outputs": [
        {
          "internalType": "uint256",
          "name": "",
          "type": "uint256"
        }
      ],
      "stateMutability": "view",
      "type": "function"
    },
    {
      "inputs": [],
      "name": "expirySeconds",
      "outputs": [
        {
          "internalType": "uint256",
          "name": "",
          "type": "uint256"
        }
      ],
      "stateMutability": "view",
      "type": "function"
    },
    {
      "inputs": [],
      "name": "factoryGateway",
      "outputs": [
        {
          "internalType": "address",
          "name": "",
          "type": "address"
        }
      ],
      "stateMutability": "view",
      "type": "function"
    },
    {
      "inputs": [
        {
          "internalType": "address",
          "name": "userEOA",
          "type": "address"
        },
        {
          "internalType": "uint256",
          "name": "id",
          "type": "uint256"
        },
        {
          "internalType": "uint256",
          "name": "amount",
          "type": "uint256"
        }
      ],
      "name": "faucetByGateway",
      "outputs": [],
      "stateMutability": "nonpayable",
      "type": "function"
    },
    {
      "inputs": [
        {
          "internalType": "uint256",
          "name": "id",
          "type": "uint256"
        }
      ],
      "name": "faucetConfig",
      "outputs": [
        {
          "components": [
            {
              "internalType": "uint64",
              "name": "validUntil",
              "type": "uint64"
            },
            {
              "internalType": "uint64",
              "name": "perClaimMax",
              "type": "uint64"
            },
            {
              "internalType": "uint128",
              "name": "maxPerUser",
              "type": "uint128"
            },
            {
              "internalType": "uint128",
              "name": "maxGlobal",
              "type": "uint128"
            },
            {
              "internalType": "bool",
              "name": "enabled",
              "type": "bool"
            },
            {
              "internalType": "uint8",
              "name": "currency",
              "type": "uint8"
            },
            {
              "internalType": "uint8",
              "name": "decimals",
              "type": "uint8"
            },
            {
              "internalType": "uint128",
              "name": "priceInCurrency6",
              "type": "uint128"
            }
          ],
          "internalType": "struct FaucetStorage.FaucetConfig",
          "name": "",
          "type": "tuple"
        }
      ],
      "stateMutability": "view",
      "type": "function"
    },
    {
      "inputs": [],
      "name": "gateway",
      "outputs": [
        {
          "internalType": "address",
          "name": "",
          "type": "address"
        }
      ],
      "stateMutability": "view",
      "type": "function"
    },
    {
      "inputs": [
        {
          "internalType": "address",
          "name": "user",
          "type": "address"
        }
      ],
      "name": "getOwnership",
      "outputs": [
        {
          "internalType": "uint256",
          "name": "pt",
          "type": "uint256"
        },
        {
          "components": [
            {
              "internalType": "uint256",
              "name": "tokenId",
              "type": "uint256"
            },
            {
              "internalType": "uint256",
              "name": "attribute",
              "type": "uint256"
            },
            {
              "internalType": "uint256",
              "name": "tierIndexOrMax",
              "type": "uint256"
            },
            {
              "internalType": "uint256",
              "name": "expiry",
              "type": "uint256"
            },
            {
              "internalType": "bool",
              "name": "isExpired",
              "type": "bool"
            }
          ],
          "internalType": "struct BeamioUserCard.NFTDetail[]",
          "name": "nfts",
          "type": "tuple[]"
        }
      ],
      "stateMutability": "view",
      "type": "function"
    },
    {
      "inputs": [
        {
          "internalType": "address",
          "name": "userEOA",
          "type": "address"
        }
      ],
      "name": "getOwnershipByEOA",
      "outputs": [
        {
          "internalType": "uint256",
          "name": "pt",
          "type": "uint256"
        },
        {
          "components": [
            {
              "internalType": "uint256",
              "name": "tokenId",
              "type": "uint256"
            },
            {
              "internalType": "uint256",
              "name": "attribute",
              "type": "uint256"
            },
            {
              "internalType": "uint256",
              "name": "tierIndexOrMax",
              "type": "uint256"
            },
            {
              "internalType": "uint256",
              "name": "expiry",
              "type": "uint256"
            },
            {
              "internalType": "bool",
              "name": "isExpired",
              "type": "bool"
            }
          ],
          "internalType": "struct BeamioUserCard.NFTDetail[]",
          "name": "nfts",
          "type": "tuple[]"
        }
      ],
      "stateMutability": "view",
      "type": "function"
    },
    {
      "inputs": [
        {
          "internalType": "bytes32",
          "name": "hash",
          "type": "bytes32"
        }
      ],
      "name": "getRedeemStatus",
      "outputs": [
        {
          "internalType": "bool",
          "name": "active",
          "type": "bool"
        },
        {
          "internalType": "uint256",
          "name": "totalPoints6",
          "type": "uint256"
        }
      ],
      "stateMutability": "view",
      "type": "function"
    },
    {
      "inputs": [
        {
          "internalType": "string[]",
          "name": "codes",
          "type": "string[]"
        }
      ],
      "name": "getRedeemStatusBatch",
      "outputs": [
        {
          "internalType": "bool[]",
          "name": "active",
          "type": "bool[]"
        },
        {
          "internalType": "uint256[]",
          "name": "totalPoints6",
          "type": "uint256[]"
        }
      ],
      "stateMutability": "view",
      "type": "function"
    },
    {
      "inputs": [
        {
          "internalType": "bytes32[]",
          "name": "hashes",
          "type": "bytes32[]"
        }
      ],
      "name": "getRedeemStatusBatch",
      "outputs": [
        {
          "internalType": "bool[]",
          "name": "active",
          "type": "bool[]"
        },
        {
          "internalType": "uint256[]",
          "name": "totalPoints6",
          "type": "uint256[]"
        }
      ],
      "stateMutability": "view",
      "type": "function"
    },
    {
      "inputs": [
        {
          "internalType": "bytes32",
          "name": "hash",
          "type": "bytes32"
        },
        {
          "internalType": "address",
          "name": "claimer",
          "type": "address"
        }
      ],
      "name": "getRedeemStatusEx",
      "outputs": [
        {
          "internalType": "bool",
          "name": "active",
          "type": "bool"
        },
        {
          "internalType": "uint128",
          "name": "points6",
          "type": "uint128"
        },
        {
          "internalType": "bool",
          "name": "isPool",
          "type": "bool"
        }
      ],
      "stateMutability": "view",
      "type": "function"
    },
    {
      "inputs": [
        {
          "internalType": "uint256",
          "name": "idx",
          "type": "uint256"
        }
      ],
      "name": "getTierAt",
      "outputs": [
        {
          "components": [
            {
              "internalType": "uint256",
              "name": "minUsdc6",
              "type": "uint256"
            },
            {
              "internalType": "uint256",
              "name": "attr",
              "type": "uint256"
            },
            {
              "internalType": "uint256",
              "name": "tierExpirySeconds",
              "type": "uint256"
            },
            {
              "internalType": "bool",
              "name": "upgradeByBalance",
              "type": "bool"
            }
          ],
          "internalType": "struct BeamioUserCard.Tier",
          "name": "",
          "type": "tuple"
        }
      ],
      "stateMutability": "view",
      "type": "function"
    },
    {
      "inputs": [],
      "name": "getTiersCount",
      "outputs": [
        {
          "internalType": "uint256",
          "name": "",
          "type": "uint256"
        }
      ],
      "stateMutability": "view",
      "type": "function"
    },
    {
      "inputs": [
        {
          "internalType": "address",
          "name": "a",
          "type": "address"
        }
      ],
      "name": "isAdmin",
      "outputs": [
        {
          "internalType": "bool",
          "name": "",
          "type": "bool"
        }
      ],
      "stateMutability": "view",
      "type": "function"
    },
    {
      "inputs": [
        {
          "internalType": "address",
          "name": "account",
          "type": "address"
        },
        {
          "internalType": "address",
          "name": "operator",
          "type": "address"
        }
      ],
      "name": "isApprovedForAll",
      "outputs": [
        {
          "internalType": "bool",
          "name": "",
          "type": "bool"
        }
      ],
      "stateMutability": "view",
      "type": "function"
    },
    {
      "inputs": [
        {
          "internalType": "uint256",
          "name": "tokenId",
          "type": "uint256"
        }
      ],
      "name": "isIssuedNftValid",
      "outputs": [
        {
          "internalType": "bool",
          "name": "",
          "type": "bool"
        }
      ],
      "stateMutability": "view",
      "type": "function"
    },
    {
      "inputs": [],
      "name": "issuedNftIndex",
      "outputs": [
        {
          "internalType": "uint256",
          "name": "",
          "type": "uint256"
        }
      ],
      "stateMutability": "view",
      "type": "function"
    },
    {
      "inputs": [
        {
          "internalType": "uint256",
          "name": "tokenId",
          "type": "uint256"
        }
      ],
      "name": "issuedNftMaxSupply",
      "outputs": [
        {
          "internalType": "uint256",
          "name": "",
          "type": "uint256"
        }
      ],
      "stateMutability": "view",
      "type": "function"
    },
    {
      "inputs": [
        {
          "internalType": "uint256",
          "name": "tokenId",
          "type": "uint256"
        }
      ],
      "name": "issuedNftMintedCount",
      "outputs": [
        {
          "internalType": "uint256",
          "name": "",
          "type": "uint256"
        }
      ],
      "stateMutability": "view",
      "type": "function"
    },
    {
      "inputs": [
        {
          "internalType": "uint256",
          "name": "tokenId",
          "type": "uint256"
        }
      ],
      "name": "issuedNftPriceInCurrency6",
      "outputs": [
        {
          "internalType": "uint256",
          "name": "",
          "type": "uint256"
        }
      ],
      "stateMutability": "view",
      "type": "function"
    },
    {
      "inputs": [
        {
          "internalType": "uint256",
          "name": "tokenId",
          "type": "uint256"
        }
      ],
      "name": "issuedNftSharedMetadataHash",
      "outputs": [
        {
          "internalType": "bytes32",
          "name": "",
          "type": "bytes32"
        }
      ],
      "stateMutability": "view",
      "type": "function"
    },
    {
      "inputs": [
        {
          "internalType": "uint256",
          "name": "tokenId",
          "type": "uint256"
        }
      ],
      "name": "issuedNftTitle",
      "outputs": [
        {
          "internalType": "bytes32",
          "name": "",
          "type": "bytes32"
        }
      ],
      "stateMutability": "view",
      "type": "function"
    },
    {
      "inputs": [
        {
          "internalType": "uint256",
          "name": "tokenId",
          "type": "uint256"
        }
      ],
      "name": "issuedNftValidAfter",
      "outputs": [
        {
          "internalType": "uint64",
          "name": "",
          "type": "uint64"
        }
      ],
      "stateMutability": "view",
      "type": "function"
    },
    {
      "inputs": [
        {
          "internalType": "uint256",
          "name": "tokenId",
          "type": "uint256"
        }
      ],
      "name": "issuedNftValidBefore",
      "outputs": [
        {
          "internalType": "uint64",
          "name": "",
          "type": "uint64"
        }
      ],
      "stateMutability": "view",
      "type": "function"
    },
    {
      "inputs": [
        {
          "internalType": "uint64",
          "name": "hourIndex",
          "type": "uint64"
        }
      ],
      "name": "membershipFlowBucketAtHour",
      "outputs": [
        {
          "internalType": "uint256",
          "name": "issuedCount",
          "type": "uint256"
        },
        {
          "internalType": "uint256",
          "name": "upgradedCount",
          "type": "uint256"
        },
        {
          "internalType": "uint256",
          "name": "expiredDiscoveredCount",
          "type": "uint256"
        },
        {
          "internalType": "uint256",
          "name": "activeSwitchCount",
          "type": "uint256"
        },
        {
          "internalType": "uint256",
          "name": "activatedCount",
          "type": "uint256"
        },
        {
          "internalType": "uint256",
          "name": "deactivatedCount",
          "type": "uint256"
        },
        {
          "internalType": "bool",
          "name": "hasData",
          "type": "bool"
        }
      ],
      "stateMutability": "view",
      "type": "function"
    },
    {
      "inputs": [
        {
          "internalType": "uint8",
          "name": "scopeType",
          "type": "uint8"
        },
        {
          "internalType": "uint256",
          "name": "scopeKey",
          "type": "uint256"
        },
        {
          "internalType": "uint64",
          "name": "hourIndex",
          "type": "uint64"
        }
      ],
      "name": "membershipScopedFlowBucketAtHour",
      "outputs": [
        {
          "internalType": "uint256",
          "name": "issuedCount",
          "type": "uint256"
        },
        {
          "internalType": "uint256",
          "name": "upgradedCount",
          "type": "uint256"
        },
        {
          "internalType": "uint256",
          "name": "expiredDiscoveredCount",
          "type": "uint256"
        },
        {
          "internalType": "uint256",
          "name": "activeSwitchCount",
          "type": "uint256"
        },
        {
          "internalType": "uint256",
          "name": "activatedCount",
          "type": "uint256"
        },
        {
          "internalType": "uint256",
          "name": "deactivatedCount",
          "type": "uint256"
        },
        {
          "internalType": "bool",
          "name": "hasData",
          "type": "bool"
        }
      ],
      "stateMutability": "view",
      "type": "function"
    },
    {
      "inputs": [],
      "name": "metadataBaseURI",
      "outputs": [
        {
          "internalType": "string",
          "name": "",
          "type": "string"
        }
      ],
      "stateMutability": "view",
      "type": "function"
    },
    {
      "inputs": [
        {
          "internalType": "address",
          "name": "userEOA",
          "type": "address"
        },
        {
          "internalType": "uint256",
          "name": "id",
          "type": "uint256"
        },
        {
          "internalType": "uint256",
          "name": "amount6",
          "type": "uint256"
        }
      ],
      "name": "mintFaucetByGateway",
      "outputs": [],
      "stateMutability": "nonpayable",
      "type": "function"
    },
    {
      "inputs": [
        {
          "internalType": "address",
          "name": "userEOA",
          "type": "address"
        },
        {
          "internalType": "uint256",
          "name": "tokenId",
          "type": "uint256"
        },
        {
          "internalType": "uint256",
          "name": "amount",
          "type": "uint256"
        }
      ],
      "name": "mintIssuedNftByGateway",
      "outputs": [],
      "stateMutability": "nonpayable",
      "type": "function"
    },
    {
      "inputs": [
        {
          "internalType": "address",
          "name": "to",
          "type": "address"
        },
        {
          "internalType": "uint256",
          "name": "tokenId",
          "type": "uint256"
        },
        {
          "internalType": "uint256",
          "name": "amount",
          "type": "uint256"
        }
      ],
      "name": "mintIssuedNftByOwner",
      "outputs": [],
      "stateMutability": "nonpayable",
      "type": "function"
    },
    {
      "inputs": [
        {
          "internalType": "address",
          "name": "user",
          "type": "address"
        },
        {
          "internalType": "uint256",
          "name": "tierIndex",
          "type": "uint256"
        }
      ],
      "name": "mintMemberCardByAdmin",
      "outputs": [],
      "stateMutability": "nonpayable",
      "type": "function"
    },
    {
      "inputs": [
        {
          "internalType": "address",
          "name": "user",
          "type": "address"
        },
        {
          "internalType": "uint256",
          "name": "points6",
          "type": "uint256"
        }
      ],
      "name": "mintPointsByAdmin",
      "outputs": [],
      "stateMutability": "nonpayable",
      "type": "function"
    },
    {
      "inputs": [
        {
          "internalType": "address",
          "name": "userEOA",
          "type": "address"
        },
        {
          "internalType": "uint256",
          "name": "points6",
          "type": "uint256"
        }
      ],
      "name": "mintPointsByGateway",
      "outputs": [],
      "stateMutability": "nonpayable",
      "type": "function"
    },
    {
      "inputs": [],
      "name": "owner",
      "outputs": [
        {
          "internalType": "address",
          "name": "",
          "type": "address"
        }
      ],
      "stateMutability": "view",
      "type": "function"
    },
    {
      "inputs": [],
      "name": "pointsUnitPriceInCurrencyE6",
      "outputs": [
        {
          "internalType": "uint256",
          "name": "",
          "type": "uint256"
        }
      ],
      "stateMutability": "view",
      "type": "function"
    },
    {
      "inputs": [],
      "name": "proposalCount",
      "outputs": [
        {
          "internalType": "uint256",
          "name": "",
          "type": "uint256"
        }
      ],
      "stateMutability": "view",
      "type": "function"
    },
    {
      "inputs": [
        {
          "internalType": "uint256",
          "name": "id",
          "type": "uint256"
        }
      ],
      "name": "proposals",
      "outputs": [
        {
          "components": [
            {
              "internalType": "address",
              "name": "target",
              "type": "address"
            },
            {
              "internalType": "uint256",
              "name": "v1",
              "type": "uint256"
            },
            {
              "internalType": "uint256",
              "name": "v2",
              "type": "uint256"
            },
            {
              "internalType": "uint256",
              "name": "v3",
              "type": "uint256"
            },
            {
              "internalType": "bytes4",
              "name": "selector",
              "type": "bytes4"
            },
            {
              "internalType": "uint256",
              "name": "approvals",
              "type": "uint256"
            },
            {
              "internalType": "bool",
              "name": "executed",
              "type": "bool"
            }
          ],
          "internalType": "struct GovernanceStorage.Proposal",
          "name": "",
          "type": "tuple"
        }
      ],
      "stateMutability": "view",
      "type": "function"
    },
    {
      "inputs": [
        {
          "internalType": "string[]",
          "name": "codes",
          "type": "string[]"
        },
        {
          "internalType": "address",
          "name": "userEOA",
          "type": "address"
        }
      ],
      "name": "redeemBatchByGateway",
      "outputs": [],
      "stateMutability": "nonpayable",
      "type": "function"
    },
    {
      "inputs": [
        {
          "internalType": "string",
          "name": "code",
          "type": "string"
        },
        {
          "internalType": "address",
          "name": "userEOA",
          "type": "address"
        }
      ],
      "name": "redeemByGateway",
      "outputs": [],
      "stateMutability": "nonpayable",
      "type": "function"
    },
    {
      "inputs": [
        {
          "internalType": "string",
          "name": "code",
          "type": "string"
        },
        {
          "internalType": "address",
          "name": "userEOA",
          "type": "address"
        }
      ],
      "name": "redeemPoolByGateway",
      "outputs": [],
      "stateMutability": "nonpayable",
      "type": "function"
    },
    {
      "inputs": [
        {
          "internalType": "address",
          "name": "adminToRemove",
          "type": "address"
        },
        {
          "internalType": "uint256",
          "name": "newThreshold",
          "type": "uint256"
        }
      ],
      "name": "removeAdmin",
      "outputs": [],
      "stateMutability": "nonpayable",
      "type": "function"
    },
    {
      "inputs": [],
      "name": "renounceOwnership",
      "outputs": [],
      "stateMutability": "nonpayable",
      "type": "function"
    },
    {
      "inputs": [
        {
          "internalType": "address",
          "name": "from",
          "type": "address"
        },
        {
          "internalType": "address",
          "name": "to",
          "type": "address"
        },
        {
          "internalType": "uint256[]",
          "name": "ids",
          "type": "uint256[]"
        },
        {
          "internalType": "uint256[]",
          "name": "values",
          "type": "uint256[]"
        },
        {
          "internalType": "bytes",
          "name": "data",
          "type": "bytes"
        }
      ],
      "name": "safeBatchTransferFrom",
      "outputs": [],
      "stateMutability": "nonpayable",
      "type": "function"
    },
    {
      "inputs": [
        {
          "internalType": "address",
          "name": "from",
          "type": "address"
        },
        {
          "internalType": "address",
          "name": "to",
          "type": "address"
        },
        {
          "internalType": "uint256",
          "name": "id",
          "type": "uint256"
        },
        {
          "internalType": "uint256",
          "name": "value",
          "type": "uint256"
        },
        {
          "internalType": "bytes",
          "name": "data",
          "type": "bytes"
        }
      ],
      "name": "safeTransferFrom",
      "outputs": [],
      "stateMutability": "nonpayable",
      "type": "function"
    },
    {
      "inputs": [
        {
          "internalType": "address",
          "name": "operator",
          "type": "address"
        },
        {
          "internalType": "bool",
          "name": "approved",
          "type": "bool"
        }
      ],
      "name": "setApprovalForAll",
      "outputs": [],
      "stateMutability": "nonpayable",
      "type": "function"
    },
    {
      "inputs": [
        {
          "internalType": "uint256",
          "name": "attr",
          "type": "uint256"
        }
      ],
      "name": "setDefaultAttr",
      "outputs": [],
      "stateMutability": "nonpayable",
      "type": "function"
    },
    {
      "inputs": [
        {
          "internalType": "uint256",
          "name": "secs",
          "type": "uint256"
        }
      ],
      "name": "setExpirySeconds",
      "outputs": [],
      "stateMutability": "nonpayable",
      "type": "function"
    },
    {
      "inputs": [
        {
          "internalType": "uint256",
          "name": "id",
          "type": "uint256"
        },
        {
          "internalType": "uint64",
          "name": "validUntil",
          "type": "uint64"
        },
        {
          "internalType": "uint64",
          "name": "perClaimMax",
          "type": "uint64"
        },
        {
          "internalType": "uint128",
          "name": "maxPerUser",
          "type": "uint128"
        },
        {
          "internalType": "uint128",
          "name": "maxGlobal",
          "type": "uint128"
        },
        {
          "internalType": "bool",
          "name": "enabled",
          "type": "bool"
        },
        {
          "internalType": "enum BeamioCurrency.CurrencyType",
          "name": "cur",
          "type": "uint8"
        },
        {
          "internalType": "uint128",
          "name": "priceInCurrency6",
          "type": "uint128"
        }
      ],
      "name": "setFaucetConfig",
      "outputs": [],
      "stateMutability": "nonpayable",
      "type": "function"
    },
    {
      "inputs": [
        {
          "internalType": "uint256",
          "name": "priceInCurrencyE6",
          "type": "uint256"
        }
      ],
      "name": "setPointsUnitPrice",
      "outputs": [],
      "stateMutability": "nonpayable",
      "type": "function"
    },
    {
      "inputs": [
        {
          "components": [
            {
              "internalType": "uint256",
              "name": "minUsdc6",
              "type": "uint256"
            },
            {
              "internalType": "uint256",
              "name": "attr",
              "type": "uint256"
            },
            {
              "internalType": "uint256",
              "name": "tierExpirySeconds",
              "type": "uint256"
            },
            {
              "internalType": "bool",
              "name": "upgradeByBalance",
              "type": "bool"
            }
          ],
          "internalType": "struct BeamioUserCard.Tier[]",
          "name": "newTiers",
          "type": "tuple[]"
        }
      ],
      "name": "setTiers",
      "outputs": [],
      "stateMutability": "nonpayable",
      "type": "function"
    },
    {
      "inputs": [
        {
          "internalType": "address",
          "name": "target",
          "type": "address"
        },
        {
          "internalType": "bool",
          "name": "allowed",
          "type": "bool"
        }
      ],
      "name": "setTransferWhitelist",
      "outputs": [],
      "stateMutability": "nonpayable",
      "type": "function"
    },
    {
      "inputs": [
        {
          "internalType": "bool",
          "name": "enabled",
          "type": "bool"
        }
      ],
      "name": "setTransferWhitelistEnabled",
      "outputs": [],
      "stateMutability": "nonpayable",
      "type": "function"
    },
    {
      "inputs": [
        {
          "internalType": "bytes4",
          "name": "interfaceId",
          "type": "bytes4"
        }
      ],
      "name": "supportsInterface",
      "outputs": [
        {
          "internalType": "bool",
          "name": "",
          "type": "bool"
        }
      ],
      "stateMutability": "view",
      "type": "function"
    },
    {
      "inputs": [
        {
          "internalType": "bytes32",
          "name": "poolHash",
          "type": "bytes32"
        }
      ],
      "name": "terminateRedeemPool",
      "outputs": [],
      "stateMutability": "nonpayable",
      "type": "function"
    },
    {
      "inputs": [],
      "name": "threshold",
      "outputs": [
        {
          "internalType": "uint256",
          "name": "",
          "type": "uint256"
        }
      ],
      "stateMutability": "view",
      "type": "function"
    },
    {
      "inputs": [
        {
          "internalType": "uint256",
          "name": "",
          "type": "uint256"
        }
      ],
      "name": "tiers",
      "outputs": [
        {
          "internalType": "uint256",
          "name": "minUsdc6",
          "type": "uint256"
        },
        {
          "internalType": "uint256",
          "name": "attr",
          "type": "uint256"
        },
        {
          "internalType": "uint256",
          "name": "tierExpirySeconds",
          "type": "uint256"
        },
        {
          "internalType": "bool",
          "name": "upgradeByBalance",
          "type": "bool"
        }
      ],
      "stateMutability": "view",
      "type": "function"
    },
    {
      "inputs": [
        {
          "internalType": "uint256",
          "name": "",
          "type": "uint256"
        }
      ],
      "name": "tokenTierIndexOrMax",
      "outputs": [
        {
          "internalType": "uint256",
          "name": "",
          "type": "uint256"
        }
      ],
      "stateMutability": "view",
      "type": "function"
    },
    {
      "inputs": [],
      "name": "totalActiveMemberships",
      "outputs": [
        {
          "internalType": "uint256",
          "name": "",
          "type": "uint256"
        }
      ],
      "stateMutability": "view",
      "type": "function"
    },
    {
      "inputs": [],
      "name": "totalMembershipIssued",
      "outputs": [
        {
          "internalType": "uint256",
          "name": "",
          "type": "uint256"
        }
      ],
      "stateMutability": "view",
      "type": "function"
    },
    {
      "inputs": [
        {
          "internalType": "uint256",
          "name": "",
          "type": "uint256"
        }
      ],
      "name": "totalMembershipIssuedByTierIndex",
      "outputs": [
        {
          "internalType": "uint256",
          "name": "",
          "type": "uint256"
        }
      ],
      "stateMutability": "view",
      "type": "function"
    },
    {
      "inputs": [],
      "name": "totalMembershipUpgraded",
      "outputs": [
        {
          "internalType": "uint256",
          "name": "",
          "type": "uint256"
        }
      ],
      "stateMutability": "view",
      "type": "function"
    },
    {
      "inputs": [],
      "name": "totalSupply",
      "outputs": [
        {
          "internalType": "uint256",
          "name": "",
          "type": "uint256"
        }
      ],
      "stateMutability": "view",
      "type": "function"
    },
    {
      "inputs": [
        {
          "internalType": "uint256",
          "name": "id",
          "type": "uint256"
        }
      ],
      "name": "totalSupply",
      "outputs": [
        {
          "internalType": "uint256",
          "name": "",
          "type": "uint256"
        }
      ],
      "stateMutability": "view",
      "type": "function"
    },
    {
      "inputs": [
        {
          "internalType": "address",
          "name": "newOwner",
          "type": "address"
        }
      ],
      "name": "transferOwnership",
      "outputs": [],
      "stateMutability": "nonpayable",
      "type": "function"
    },
    {
      "inputs": [
        {
          "internalType": "address",
          "name": "",
          "type": "address"
        }
      ],
      "name": "transferWhitelist",
      "outputs": [
        {
          "internalType": "bool",
          "name": "",
          "type": "bool"
        }
      ],
      "stateMutability": "view",
      "type": "function"
    },
    {
      "inputs": [],
      "name": "transferWhitelistEnabled",
      "outputs": [
        {
          "internalType": "bool",
          "name": "",
          "type": "bool"
        }
      ],
      "stateMutability": "view",
      "type": "function"
    },
    {
      "inputs": [
        {
          "internalType": "uint256",
          "name": "",
          "type": "uint256"
        }
      ],
      "name": "uri",
      "outputs": [
        {
          "internalType": "string",
          "name": "",
          "type": "string"
        }
      ],
      "stateMutability": "view",
      "type": "function"
    }
  ],
  "bytecode": "0x60a06040523461033e576161558038038061001981610342565b928339810160a08282031261033e5781516001600160401b03811161033e57820181601f8201121561033e5780516001600160401b0381116102ae57610068601f8201601f1916602001610342565b928184526020828401011161033e575f928160208094018483015e0101526020810151600981101561033e576040820151916100b260806100ab60608401610367565b9201610367565b926020915f6100c084610342565b52600254600181811c91168015610334575b8482101461032057601f81116102ee575b505f6002556001600160a01b03169283156102db57600380546001600160a01b031981168617909155604051959085906001600160a01b03167f8be0079c531659141344cd1fd0a4f28419497f9722a3daafe3b4186f6b6457e05f80a360016004556064601b556001600160a01b0381169081159081156102d1575b506102c25733608052600580546001600160a01b03191682179055600680546001600160a81b03191690911760a09290921b60ff60a01b1691909117905560075560017fbc488d3e2575f0f2113dc4d9a0cd6bc52445c6bc28a8974ed97a6ba3ecfd657a8190555f8381527fbc488d3e2575f0f2113dc4d9a0cd6bc52445c6bc28a8974ed97a6ba3ecfd657b835260409020805460ff191690911790555f5160206161355f395f51905f525490680100000000000000008210156102ae5760018201805f5160206161355f395f51905f525582101561029a575f5160206161355f395f51905f525f908152200180546001600160a01b031916909117905564174876e8007ffed699897f2561c8a98f833aa3de83c4904370d413fe5fb15abe26e9f8150b2955615db9908161037c823960805181612f6a0152f35b634e487b7160e01b5f52603260045260245ffd5b634e487b7160e01b5f52604160045260245ffd5b63ab82bb9960e01b5f5260045ffd5b90503b155f61015f565b631e4fbdf760e01b5f525f60045260245ffd5b80156100e35760025f52601f845f20910160051c905f5b8281106103135750506100e3565b5f82820155600101610305565b634e487b7160e01b5f52602260045260245ffd5b90607f16906100d2565b5f80fd5b6040519190601f01601f191682016001600160401b038111838210176102ae57604052565b51906001600160a01b038216820361033e5756fe60806040526004361015610011575f80fd5b5f3560e01c8062fdd58e14610619578063013cf08b1461061457806301f28d911461060f57806301ffc9a71461060a578063039af9eb1461060557806303ca3e38146106005780630b6c8d71146105fb5780630bd67833146105f65780630e4ab487146105f15780630e89341c146105ec57806310bba864146105e757806311117fc8146105e2578063116191b61461056f5780631284b92f146105dd57806315a76229146105d857806317c95709146105d357806318160ddd146105ce5780631c790e24146105c95780631fe56e6a146105c457806322c6102e146105bf57806324d7806c146105ba57806325458265146105b55780632b681a54146105b05780632eb2c2d6146105ab578063312e76a9146105a657806331b86d35146105a157806334bca52c1461059c5780633c703d45146105975780633c970fb91461059257806342cde4e81461058d578063475e53ec146105885780634dda2215146105835780634e1273f41461057e5780634f558e791461057957806352b9ec2314610574578063537856191461056f5780635476d0711461056a57806356217848146105655780635637d5bc14610560578063564da7571461055b578063569881301461055657806356c689fa146105515780636465c3a71461054c578063671395c814610547578063677f58b914610542578063684cc3a51461053d578063706e013214610538578063715018a61461053357806371b8982f1461044d57806371d7193b1461052e5780637940482b146105295780637fcb29c9146105245780637ffbe2411461051f57806382b720c91461051a57806383dbbf5314610515578063897828a8146105105780638b3c6f8f1461050b5780638da5cb5b146105065780638db553081461050157806391afe172146104fc57806394b2e946146104f75780639565c542146104f257806395f7b2ff146104ed57806398951b56146104e85780639f1bbda7146104e35780639f3d1a2a146104de5780639f48facc146104d9578063a22cb465146104d4578063a4790446146104cf578063a876c759146104ca578063a98d916e146104c5578063acf12d3d146104c0578063af7ffa2b146104bb578063b3b86ddc146104b6578063bd85b039146104b1578063c6073f16146104ac578063c6e0ddfa146104a7578063c926bbfd146104a2578063c9840daf1461049d578063cbc4e1aa14610498578063d05dcc6a14610493578063d4506e771461048e578063d52dc51514610489578063d5f3948814610484578063da35c6641461047f578063dd1bc5e91461047a578063e141dcb814610475578063e4a34dce14610470578063e5a6b10f1461046b578063e985e9c514610466578063f242432a14610461578063f2fde38b1461045c578063f51089f614610457578063f540f22714610452578063f986f6761461044d578063fcef6b01146104485763ffa1ad7414610443575f80fd5b613462565b613445565b611e9a565b61341b565b613334565b6132bd565b6131d0565b613185565b613145565b613110565b612fff565b612fd5565b612f99565b612f55565b612f33565b612edb565b612eb1565b612e08565b612d2e565b612d14565b612cbc565b612bfa565b612bd0565b612b92565b612aac565b612a8f565b612a70565b612a53565b6127cd565b61274e565b612603565b612550565b612533565b6124bf565b612476565b61244e565b612413565b6123bf565b612397565b61236f565b612326565b6122c4565b612262565b612166565b612126565b6120ab565b61206d565b611f66565b611ded565b611dce565b611d85565b611d3a565b611cf2565b611c29565b611b9a565b611a47565b61198f565b611974565b61194a565b61192d565b610e6f565b611899565b61186d565b6117ac565b61174b565b6116d9565b6116b0565b611670565b611627565b6115de565b6115b2565b611557565b6114c3565b611324565b6112e8565b6112b3565b61121c565b6111c2565b611105565b6110e8565b6110be565b610fb7565b610f5b565b610e38565b610df9565b610cbc565b610c36565b610bbe565b610b09565b61091a565b61089d565b6107fa565b6107cb565b61067b565b61063f565b6001600160a01b031690565b6001600160a01b0381160361063b57565b5f80fd5b3461063b57604036600319011261063b5760206106726004356106618161062a565b6024355f525f835260405f20610f01565b54604051908152f35b3461063b57602036600319011261063b576004355f60c060405161069e81611358565b8281528260208201528260408201528260608201528260808201528260a082015201525f525f516020615d245f395f51905f526020526107c760405f2061076561075c6006604051936106f085611358565b61070a6106fd825461061e565b6001600160a01b03168652565b60018101546020860152600281015460408601526003810154606086015261074a610739600483015460e01b90565b6001600160e01b0319166080870152565b600581015460a0860152015460ff1690565b151560c0830152565b6040519182918291909160c08060e083019460018060a01b03815116845260208101516020850152604081015160408501526060810151606085015263ffffffff60e01b608082015116608085015260a081015160a085015201511515910152565b0390f35b3461063b575f36600319011261063b576020601954604051908152f35b6001600160e01b031981160361063b57565b3461063b57602036600319011261063b576020600435610819816107e8565b63ffffffff60e01b16636cdb3d1360e11b8114908115610857575b8115610846575b506040519015158152f35b6301ffc9a760e01b1490505f61083b565b6303a24d0760e21b81149150610834565b634e487b7160e01b5f52603260045260245ffd5b6019548110156108985760195f5260205f209060021b01905f90565b610868565b3461063b57602036600319011261063b5760043560195481101561063b576108c660809161087c565b5080549060018101549060ff6003600283015492015416916040519384526020840152604083015215156060820152f35b606090600319011261063b5760043561090f8161062a565b906024359060443590565b3461063b57610928366108f7565b600654919290916001600160a01b031680610a9657506005546001600160a01b03165b6001600160a01b03163303610a87576109626143c8565b6001600160a01b038116918215610a78578015610a69576109c56109d4916109c05f516020615c045f395f51905f52966109b260405193849263c791063b60e01b6020850152886024850161347d565b03601f1981018352826113af565b6143e8565b6020808251830101910161349b565b939091610a276109e38261447d565b916109ed83614594565b6109f683610e97565b5415610a0b610a036134b1565b8988876145f6565b85610a625787905b610a52575b50610a228561105d565b610f01565b546040516001600160a01b03909216958291610a4391836134c5565b0390a4610a506001600455565b005b610a5c9084614616565b5f610a18565b5f90610a13565b63201165f360e21b5f5260045ffd5b63a9b8048960e01b5f5260045ffd5b6396f47d2360e01b5f5260045ffd5b61094b565b6060602091604081019381526040838201528451809452019201905f5b818110610ac55750505090565b909192602060a06001926080875180518352848101518584015260408101516040840152606081015160608401520151151560808201520194019101919091610ab8565b3461063b57602036600319011261063b57610b36610b31600435610b2c8161062a565b61463d565b613875565b906107c760405192839283610a9b565b602435906001600160401b038216820361063b57565b604435906001600160401b038216820361063b57565b606435906001600160401b038216820361063b57565b608435906001600160401b038216820361063b57565b60e435906001600160801b038216820361063b57565b8015150361063b57565b3461063b5761010036600319011261063b57600435610bdb610b46565b90610be4610b5c565b6064356001600160801b038116810361063b576084356001600160801b038116810361063b5760a43591610c1783610bb4565b60c43593600985101561063b57610a5096610c30610b9e565b966134d6565b3461063b57602036600319011261063b57600435610c52614745565b7ff316e065e93b4fddef3d2d93a57817985081f76ea9e0ca7417ed5b4b086b1fcb6020601a54604051908152a1601a55005b805180835260209291819084018484015e5f828201840152601f01601f1916010190565b906020610cb9928181520190610c84565b90565b3461063b57602036600319011261063b57610cd56147a9565b6040516001600160601b03193060601b1660208201526014815290610cfb6034836113af565b610d03614877565b91610d0c6148a5565b925f5b60148110610d5d576040516107c790610d51816109b2610d3c8a610d36602085018c613699565b90613699565b683db4b23e973539b7b760b91b815260090190565b60405191829182610ca8565b80610da5610d7c610d9f610d99610d90610d8a610d7c6001988b6148c7565b516001600160f81b03191690565b60f81c90565b60041c600f1690565b60ff1690565b856148c7565b610dbb610db183613a06565b915f1a91886148c7565b53610dde610d7c610d9f600f610dd7610d8a610d7c878b6148c7565b1660ff1690565b610df2610db1610ded84613a06565b614375565b5301610d0f565b3461063b575f36600319011261063b57602060405160068152f35b6001600160a01b0316600452602490565b6001600160a01b03909116815260200190565b3461063b57602036600319011261063b576020610e56600435610f16565b905460405160039290921b1c6001600160a01b03168152f35b3461063b575f36600319011261063b576005546040516001600160a01b039091168152602090f35b6001600160a01b03165f90815260116020526040902090565b6001600160a01b03165f9081527fbc488d3e2575f0f2113dc4d9a0cd6bc52445c6bc28a8974ed97a6ba3ecfd657b6020526040902090565b6001600160a01b03165f90815260096020526040902090565b9060018060a01b03165f5260205260405f2090565b5f516020615c245f395f51905f5254811015610898575f516020615c245f395f51905f525f5260205f2001905f90565b8054821015610898575f5260205f2001905f90565b3461063b57604036600319011261063b57600435610f788161062a565b6001600160a01b03165f908152600e602052604090208054602435919082101561063b57602091610fa891610f46565b90549060031b1c604051908152f35b3461063b57602036600319011261063b576107c7610ff66004355f6060604051610fe081611378565b828152826020820152826040820152015261087c565b5060ff60036040519261100884611378565b8054845260018101546020850152600281015460408501520154161515606082015260405191829182919091606080608083019480518452602081015160208501526040810151604085015201511515910152565b5f527fe5fcefe92466b78c655fa732b80b16e07a00f2a897e833e17d9914703cad563360205260405f2090565b5f525f516020615ca45f395f51905f5260205260405f2090565b5f525f516020615c645f395f51905f5260205260405f2090565b3461063b57602036600319011261063b576004355f52600b602052602060405f2054604051908152f35b3461063b575f36600319011261063b576020601054604051908152f35b3461063b57604036600319011261063b576024356004356111258261062a565b6006546001600160a01b0316806111bd57506005546001600160a01b03165b6001600160a01b03163303610a87575f8061115d6148d8565b93604051602081019163071e438960e21b835285602483015260018060a01b03166044820152604481526111926064826113af565b5190855af461119f6136ab565b50156111ae57610a5091614b33565b6363bc5ecb60e11b5f5260045ffd5b611144565b3461063b57602036600319011261063b576004355f526013602052602060405f2054604051908152f35b9181601f8401121561063b578235916001600160401b03831161063b576020808501948460051b01011161063b57565b3461063b5760e036600319011261063b576004356001600160401b03811161063b5761124c9036906004016111ec565b6024359160443561125b610b72565b90611264610b88565b60a4356001600160401b03811161063b576112839036906004016111ec565b60c4359790949193906001600160401b03891161063b576112ab610a509936906004016111ec565b9890976136da565b3461063b57602036600319011261063b57602060ff6112dc6004356112d78161062a565b610eb0565b54166040519015158152f35b3461063b575f36600319011261063b5760207ffed699897f2561c8a98f833aa3de83c4904370d413fe5fb15abe26e9f8150b2954604051908152f35b3461063b57602036600319011261063b57610b36600435610b318161062a565b634e487b7160e01b5f52604160045260245ffd5b60e081019081106001600160401b0382111761137357604052565b611344565b608081019081106001600160401b0382111761137357604052565b61010081019081106001600160401b0382111761137357604052565b601f909101601f19168101906001600160401b0382119082101761137357604052565b604051906113e160a0836113af565b565b6001600160401b0381116113735760051b60200190565b9080601f8301121561063b578135611411816113e3565b9261141f60405194856113af565b81845260208085019260051b82010192831161063b57602001905b8282106114475750505090565b813581526020918201910161143a565b6001600160401b03811161137357601f01601f191660200190565b92919261147e82611457565b9161148c60405193846113af565b82948184528183011161063b578281602093845f960137010152565b9080601f8301121561063b57816020610cb993359101611472565b3461063b5760a036600319011261063b576004356114e08161062a565b602435906114ed8261062a565b6044356001600160401b03811161063b5761150c9036906004016113fa565b6064356001600160401b03811161063b5761152b9036906004016113fa565b608435939091906001600160401b03851161063b57611551610a509536906004016114a8565b93613989565b3461063b57602036600319011261063b576004356001600160401b03811161063b573660238201121561063b5760048101356001600160401b03811161063b573660248260071b8401011161063b576024610a509201613b07565b3461063b57602036600319011261063b5760406115d0600435613ba4565b825191151582526020820152f35b3461063b57602036600319011261063b576004355f527ffed699897f2561c8a98f833aa3de83c4904370d413fe5fb15abe26e9f8150b2f602052602060405f2054604051908152f35b3461063b57602036600319011261063b576004355f527ffed699897f2561c8a98f833aa3de83c4904370d413fe5fb15abe26e9f8150b30602052602060405f2054604051908152f35b3461063b57604036600319011261063b576116a96004356116908161062a565b6024359061169c6143c8565b6116a4614745565b614d4b565b6001600455005b3461063b575f36600319011261063b5760205f516020615c445f395f51905f5254604051908152f35b3461063b576116e7366108f7565b6006549091906001600160a01b03168061174657506005546001600160a01b03165b6001600160a01b03163303610a87576117206143c8565b6001600160a01b03831615610a78578115610a69576117416116a99361447d565b614d72565b611709565b3461063b575f36600319011261063b576020600754604051908152f35b90602080835192838152019201905f5b8181106117855750505090565b8251845260209384019390920191600101611778565b906020610cb9928181520190611768565b3461063b57604036600319011261063b576004356001600160401b03811161063b573660238201121561063b578060040135906117e8826113e3565b916117f660405193846113af565b8083526024602084019160051b8301019136831161063b57602401905b82821061185357836024356001600160401b03811161063b576107c7916118416118479236906004016113fa565b90613c56565b6040519182918261179b565b6020809183356118628161062a565b815201910190611813565b3461063b57602036600319011261063b576004355f52600f602052602060405f20541515604051908152f35b3461063b5760c036600319011261063b576004356118b5610b46565b6118bd610b5c565b916064356001600160401b03811161063b576118dd9036906004016111ec565b906084356001600160401b03811161063b576118fd9036906004016111ec565b60a4359690939192906001600160401b03881161063b57611925610a509836906004016111ec565b979096613cd0565b3461063b575f36600319011261063b576020601754604051908152f35b3461063b57602036600319011261063b576004355f526014602052602060405f2054604051908152f35b3461063b575f36600319011261063b57602060405160648152f35b3461063b57604036600319011261063b576004356119ac8161062a565b602435906119b86143c8565b6119c0614745565b6001600160a01b03811615610a78578115610a69576020611a017f3e38a9410c08ddb4af8b083bfd2b197b1c3e61a651bd1c54c51ebce0cdcdc48e9261447d565b611a1b604051611a1184826113af565b5f815285836145d1565b611a258482614dea565b611a2f8482614e11565b6040519384526001600160a01b031692a26001600455005b3461063b5760e036600319011261063b57600435602435604435611a69610b72565b91611a72610b88565b60a4356001600160401b03811161063b57611a919036906004016111ec565b90949060c4356001600160401b03811161063b576109b2611b4b94611b4693611b345f516020615d445f395f51905f529a611ad18d9636906004016111ec565b939094611adc6143c8565b611ae4614745565b604051998a98630569881360e41b60208b015260248a01528c60448a01528d60648a015260018060401b0316608489015260018060401b031660a488015260e060c48801526101048701916137af565b8481036023190160e4860152916137af565b614422565b50611b5b604051928392836134c5565b0390a2610a506001600455565b959260c09592989794919860e08801998852602088015260408701526060860152608085015260a08401521515910152565b3461063b57602036600319011261063b576004356001600160401b038116810361063b576001600160401b03165f9081527f348bae4e1f5cd16c7acea618682eb9de87b5f8161d5b94b9b5591b7620ae71a26020526040902080546107c7600183015492600281015490600381015460048201549060ff60066005850154940154169360405197889788611b68565b3461063b57611c37366108f7565b600654919290916001600160a01b031680611ced57506005546001600160a01b03165b6001600160a01b03163303610a8757611c716143c8565b6001600160a01b038116918215610a78578015610a69576109c5611cc1916109c05f516020615c045f395f51905f52966109b2604051938492634404589760e01b6020850152886024850161347d565b939091610a27611cd08261447d565b91611ce4611cdc6134b1565b8887866145f6565b610a228561105d565b611c5a565b3461063b57602036600319011261063b57600435611d0f8161062a565b60018060a01b03165f526011602052602060405f2054604051908152f35b6001600160801b03169052565b3461063b57604036600319011261063b576060611d64602435600435611d5f8261062a565b613e45565b6040805193151584526001600160801b039092166020840152151590820152f35b3461063b57602036600319011261063b576004355f527ffed699897f2561c8a98f833aa3de83c4904370d413fe5fb15abe26e9f8150b2d602052602060405f2054604051908152f35b3461063b57611ddc366108f7565b90611de56143c8565b611720614745565b3461063b575f36600319011261063b57611e05614e38565b600380546001600160a01b031981169091555f906001600160a01b03165f516020615d045f395f51905f528280a3005b9181601f8401121561063b578235916001600160401b03831161063b576020838186019501011161063b57565b604060031982011261063b57600435906001600160401b03821161063b57611e8c91600401611e35565b9091602435610cb98161062a565b3461063b57611ea836611e62565b6006549091906001600160a01b031680611ee257506005546001600160a01b03165b6001600160a01b03163303610a8757610a5092613f1c565b611eca565b602060031982011261063b57600435906001600160401b03821161063b57611f11916004016111ec565b9091565b9291604084019360408152825180955260206060820193015f955b808710611f4c575050610cb99394506020818403910152611768565b909360208060019287511515815201950196019590611f30565b3461063b57611f7436611ee7565b90611f7e82613c24565b90611f8883613c24565b925f5b818110611fa4575050506107c760405192839283611f15565b80611fbc611fb56001938587614106565b3691611472565b60208151910120611fcc8161108a565b90611fdc825460ff9060a01c1690565b156120105750611ffe90611ff9611ff38489613861565b60019052565b614bf2565b6120088288613861565b525b01611f8b565b61201a91506110a4565b805460ff8116908161205a575b50612033575b5061200a565b61204990612044611ff38489613861565b614c96565b6120538288613861565b525f61202d565b60881c63ffffffff16151590505f612027565b3461063b57602036600319011261063b576004355f525f516020615ce45f395f51905f52602052602060018060401b0360405f205416604051908152f35b3461063b57604036600319011261063b575f806004356120ca8161062a565b602435906120d6614745565b6109b26121036120e46148d8565b936040519283916020830195637fcb29c960e01b875260248401614147565b51915af461210f6136ab565b501561211757005b63fb713d2b60e01b5f5260045ffd5b3461063b57602036600319011261063b576004356121438161062a565b60018060a01b03165f526009602052602060ff60405f2054166040519015158152f35b3461063b5760a036600319011261063b57600435612183816107e8565b60243561218f8161062a565b6044356064356084356006549092906001600160a01b03168061225d57506005546001600160a01b03165b6001600160a01b03163303610a87576107c79461224d9361224693612237936121e16148d8565b6040516382b720c960e01b60208201526001600160e01b031990951660248601526001600160a01b0390981660448501526064840152608483015260a480830191909152815261223260c4826113af565b614415565b60208082518301019101614162565b8092614b33565b6040519081529081906020820190565b6121ba565b3461063b57602036600319011261063b5760043561227e614745565b80156122b5576020817fd45b01a2f21a7aa8a0f57023efdce73147de071e77875c3f4d486b1e13eaef7092600755604051908152a1005b6376024b7160e01b5f5260045ffd5b3461063b57602036600319011261063b577fc52867146282c253c04e94eb2a948478a1f7ef84cf2d6f5864facc99f2203f2c602060043561230481610bb4565b61230c614745565b151560ff19600a541660ff821617600a55604051908152a1005b3461063b57602036600319011261063b576004355f527ffed699897f2561c8a98f833aa3de83c4904370d413fe5fb15abe26e9f8150b2c602052602060405f2054604051908152f35b3461063b575f36600319011261063b576003546040516001600160a01b039091168152602090f35b3461063b57602036600319011261063b5760206123b5600435614171565b6040519015158152f35b3461063b57602036600319011261063b5761240b6004356123de6143c8565b6123e6614745565b604051906348d7f0b960e11b6020830152602482015260248152611b466044826113af565b506001600455005b3461063b57602036600319011261063b576004356124308161062a565b60018060a01b03165f526012602052602060405f2054604051908152f35b3461063b575f36600319011261063b576006546040516001600160a01b039091168152602090f35b3461063b57602036600319011261063b576004355f527ffed699897f2561c8a98f833aa3de83c4904370d413fe5fb15abe26e9f8150b2e602052602060405f2054604051908152f35b3461063b57602036600319011261063b5760043560ff6124de33610eb0565b5416156111ae576124ed6148d8565b905f806040516020810190634c4a8dab60e11b8252846024820152602481526125176044826113af565b5190855af46125246136ab565b501561211757610a5091614b33565b3461063b575f36600319011261063b576020600854604051908152f35b3461063b575f36600319011261063b576107c761256b6147a9565b604051918291602083526020830190610c84565b81516001600160401b039081168252602080840151909116908201526040808301516001600160801b031690820152606080830151610100830194936113e1939260e0928392916125d39190860190611d2d565b60808181015115159085015260a08181015160ff169085015260c08181015160ff16908501520151910190611d2d565b3461063b57602036600319011261063b576004355f60e060405161262681611393565b8281528260208201528260408201528260608201528260808201528260a08201528260c082015201525f525f516020615c845f395f51905f526020526107c760405f2061271d61270d60026040519361267e85611393565b80546001600160401b038082168752604082901c1660208701526126af9060801c6001600160801b03166040870152565b60018101546001600160801b03811660608701526126ff906126f5906126df608082901c60ff16151560808a0152565b60ff608882901c1660a089015260901c60ff1690565b60ff1660c0870152565b01546001600160801b031690565b6001600160801b031660e0830152565b6040519182918261257f565b604090600319011261063b576004356127418161062a565b90602435610cb981610bb4565b3461063b5761275c36612729565b6001600160a01b0382169182156127bb578161278661278b92335f52600160205260405f20610f01565b613a8e565b60405190151581527f17307eab39ab6107e8899845ad3d59bd9653f200f220920489ca2b5937696c3160203392a3005b62ced3e160e81b5f525f60045260245ffd5b3461063b57604036600319011261063b576004356001600160401b03811161063b576127fd9036906004016111ec565b906024359161280b8361062a565b6006546001600160a01b031680612a4e57506005546001600160a01b03165b6001600160a01b03163303610a87576128416143c8565b6001600160a01b03831615610a7857801561211757611b4661287d926109b28560405194859363bca0e27d60e01b602086015260248501614225565b906128916020835184010160208401614323565b92939150938451835103612a2d57506128a99061447d565b906128b382614594565b6128bc82610e97565b54155f925f945f5b8751811015612909576128d78189613861565b51156128e6575b6001016128c4565b9550936128fe906128f78786613861565b5190614383565b6001959094906128de565b509093919415612a25575b508380612a1a575b6129f2575b806129db575b5f5b85518110156129b25761293c8184613861565b51908115610a69576001916129518289613861565b51156129ac5764174876e800612967838a613861565b5110612988576129829061297b838a613861565b5187614d72565b01612929565b6129a790612996838a613861565b51906129a06134b1565b91886145f6565b612982565b50612982565b838286156129cd576129c391614616565b610a506001600455565b6129d691614e11565b6129c3565b6129ed6129e66134b1565b82856145d1565b612927565b612a026129fd614e88565b61087c565b50548110156129215763559d06d760e01b5f5260045ffd5b50601954151561291c565b90505f612914565b60405163dccff66960e01b8152908190612a4a9060048301610ca8565b0390fd5b61282a565b3461063b575f36600319011261063b576020601a54604051908152f35b3461063b575f36600319011261063b57602060405164174876e8008152f35b3461063b575f36600319011261063b576020601554604051908152f35b3461063b57604036600319011261063b57600435612ac98161062a565b60065460243591906001600160a01b031680612b8d57506005546001600160a01b03165b6001600160a01b03163303610a8757612b046143c8565b6001600160a01b038116908115610a78578215610a69576020612b477f6ac4f60455173f2148d89d52868ac4ffb14111720d245aa36ad26e0d7e64c59b9261447d565b612b61604051612b5784826113af565b5f815286836145d1565b612b6b8582614dea565b612b758582614e11565b6040519485526001600160a01b031693a36001600455005b612aed565b3461063b57602036600319011261063b576004355f525f516020615cc45f395f51905f52602052602060018060401b0360405f205416604051908152f35b3461063b57602036600319011261063b576004355f52600f602052602060405f2054604051908152f35b3461063b5760c036600319011261063b576107c7600435612c19610b46565b7f0d52bfb4760322d7d520c725a53d2a1b3a1d17bdc1615c95867a525cbf7916f3612c42610b5c565b9160643593612ca485608435612c9561223786612c90876109b28c8760a435998a92612c6c6143c8565b612c74614745565b6040516363039f8b60e11b602082015297889660248801614390565b61442e565b97889760405196879687614390565b0390a260016004556040519081529081906020820190565b3461063b57604036600319011261063b575f80600435612cdb8161062a565b60243590612ce7614745565b6109b2612103612cf56148d8565b9360405192839160208301956363706efd60e11b875260248401614147565b3461063b575f36600319011261063b5760206040515f8152f35b3461063b57606036600319011261063b5760043560ff811680910361063b57602435906001612d5b610b5c565b9103612dd057612d94915f527f348bae4e1f5cd16c7acea618682eb9de87b5f8161d5b94b9b5591b7620ae71a360205260405f20613e30565b80546107c76001830154926002810154906003810154600482015490612dc36006600585015494015460ff1690565b9360405197889788611b68565b612e03915f527f348bae4e1f5cd16c7acea618682eb9de87b5f8161d5b94b9b5591b7620ae71a460205260405f20613e30565b612d94565b3461063b57602036600319011261063b576004356001600160401b03811161063b57612e3b612e7f913690600401611e35565b612e436143c8565b612e4b614745565b612e776040516365e270d560e11b602082015260206024820152611b46816109b2604482018688614205565b503691611472565b602081519101207fc0701a0c15577896ad516e3ca2668eb0cee26a8f32bc862c0d94950619e368035f80a26001600455005b3461063b57602036600319011261063b576004355f52600c602052602060405f2054604051908152f35b3461063b57602036600319011261063b57600435612ef7614745565b7f1c8121c98d871a1523a6112e29ac660378afbcb9b921cff8f187c3da35d1708181600854612f2b604051928392836134c5565b0390a1600855005b3461063b575f36600319011261063b57602060ff600a54166040519015158152f35b3461063b575f36600319011261063b576040517f00000000000000000000000000000000000000000000000000000000000000006001600160a01b03168152602090f35b3461063b575f36600319011261063b5760207fbc488d3e2575f0f2113dc4d9a0cd6bc52445c6bc28a8974ed97a6ba3ecfd657f54604051908152f35b3461063b57602036600319011261063b576004355f526018602052602060405f2054604051908152f35b3461063b57608036600319011261063b5760443560043560643560243561302582610bb4565b61302d614745565b821561310157601954916040519461304486611378565b8486526020860192808452604087019382855260608801978415158952600160401b871015611373576001870160195561307d8761087c565b9190916130fc577fb08290a3275552d4032ce96418c8bc739fd6be2860fe5897558f5c0af90e91fb996130f7976130ca946003935185555160018501555160028401555115159101613a8e565b6040519586958693909594919260809360a086019786526020860152604085015260608401521515910152565b0390a1005b613a21565b639033099360e01b5f5260045ffd5b3461063b57610a5061312136612729565b9061312a614745565b6001600160a01b03165f908152600960205260409020613a8e565b3461063b575f36600319011261063b5760ff60065460a01c166040516009821015613171576020918152f35b634e487b7160e01b5f52602160045260245ffd5b3461063b57604036600319011261063b57602060ff6112dc6004356131a98161062a565b602435906131b68261062a565b6001600160a01b03165f9081526001855260409020610f01565b3461063b5760a036600319011261063b576004356131ed8161062a565b6024356131f98161062a565b60443590606435926084356001600160401b03811161063b576132209036906004016114a8565b926001600160a01b038216338114158061329d575b613287576001600160a01b03841615613274571561326257610a509461325a91614f25565b9290916151e9565b626a0d4560e21b5f525f60045260245ffd5b632bfa23e760e11b5f525f60045260245ffd5b63711bec9160e11b5f523360045260245260445ffd5b50805f52600160205260ff6132b53360405f20610f01565b541615613235565b3461063b57602036600319011261063b576004356132da8161062a565b6132e2614e38565b6001600160a01b0316801561332157600380546001600160a01b0319811683179091556001600160a01b03165f516020615d045f395f51905f525f80a3005b631e4fbdf760e01b5f525f60045260245ffd5b3461063b5761334236611ee7565b9061334c82613c24565b9061335683613c24565b925f5b818110613372575050506107c760405192839283611f15565b8061338060019284866137d3565b3561338a8161108a565b9061339a825460ff9060a01c1690565b156133c357506133b190611ff9611ff38489613861565b6133bb8288613861565b525b01613359565b6133cd91506110a4565b805460ff81169081613408575b506133e6575b506133bd565b6133f790612044611ff38489613861565b6134018288613861565b525f6133e0565b60881c63ffffffff16151590505f6133da565b3461063b57602036600319011261063b576004355f52600d602052602060405f2054604051908152f35b3461063b575f36600319011261063b576020601654604051908152f35b3461063b575f36600319011261063b576020604051600b8152f35b604091949392606082019560018060a01b0316825260208201520152565b919082604091031261063b576020825192015190565b604051906134c06020836113af565b5f8252565b908152602081019190915260400190565b600654909793969195939492939192906001600160a01b0316806135e557506005546001600160a01b03165b6001600160a01b03163303610a8757600983101561317157604051630bd6783360e01b6020820152602481018990526001600160401b0396871660448201529590931660648601526001600160801b03958616608486015291851660a485015290151560c484015260ff1660e4830152909116610104808301919091528152613591906109c0610124826113af565b507ff236e4a60720cc79b1fa956ec64fd78f4d702ba14614ed969c4912a86a3e99516135e06135d4835f525f516020615c845f395f51905f5260205260405f2090565b604051918291826135ea565b0390a2565b613502565b81546001600160401b0381168252610100820193926113e1929160e091613680916002919061363390604081901c6001600160401b03166020880152604087019060801c611d2d565b60018101546126ff90613652606088016001600160801b038316611d2d565b6136666080880160ff8360801c1615159052565b608881901c60ff1660a088015260901c60ff1660c0870152565b910190611d2d565b5f516020615c445f395f51905f5255565b805191908290602001825e015f815290565b3d156136d5573d906136bc82611457565b916136ca60405193846113af565b82523d5f602084013e565b606090565b98978298611b3461010494869a859a6137619a8f9a611b469a61372d6109b29a9d6137036143c8565b61370b614745565b604051631163081760e11b602082015260e060248201529e8f9d8e01916137af565b60448c019690965260648b01526001600160401b0390811660848b01521660a48901528783036023190160c48901526137af565b505f5b81811061377a5750505050506113e16001600455565b8061378860019284886137d3565b355f516020615d445f395f51905f52604051806137a6888a836134c5565b0390a201613764565b81835290916001600160fb1b03831161063b5760209260051b809284830137010190565b91908110156108985760051b0190565b906137ed826113e3565b6137fa60405191826113af565b828152809261380b601f19916113e3565b015f5b81811061381a57505050565b60405160a0810191906001600160401b03831181841017611373576020926040525f81525f838201525f60408201525f60608201525f60808201528282860101520161380e565b80518210156108985760209160051b010190565b6001600160a01b0381165f908152600e6020526040902090919091825461389b816137e3565b935f5b8281106138de5750505f808052602052506138d9907fad3228b676f7d3cd4284a5443f17f1962b36e491b30a40b2405849e597ba5fb5610f01565b549190565b806138f86138ee60019385610f46565b90549060031b1c90565b61396261390d825f52600b60205260405f2090565b54801515908161397e575b61392a845f52600c60205260405f2090565b5461393d855f52600d60205260405f2090565b54906139476113d2565b95865260208601526040850152606084015215156080830152565b61396c8289613861565b526139778188613861565b500161389e565b809150421190613918565b939291906001600160a01b03851633811415806139c2575b613287576001600160a01b038216156132745715613262576113e1946151e9565b50805f52600160205260ff6139da3360405f20610f01565b5416156139a1565b91908110156108985760071b0190565b634e487b7160e01b5f52601160045260245ffd5b908160011b9180830460021490151715613a1c57565b6139f2565b634e487b7160e01b5f525f60045260245ffd5b6019545f60195580613a435750565b600281901b906001600160fe1b03811603613a1c5760195f5260205f205f5b828110613a6e57505050565b805f60036004938501828155826001820155826002820155015501613a62565b9060ff801983541691151516179055565b601954600160401b81101561137357600181016019556019548110156108985760195f5260021b5f516020615d645f395f51905f5201600360606113e193803584556020810135600185015560408101356002850155013591613b0183610bb4565b01613a8e565b613b0f614745565b8115613b95575f5b828110613b7c5750613b27613a34565b5f5b828110613b605750506040519081527f2f291eaf494dc7eca20457441a1df7d9119f0c0d764309daf9cb6b148810ee3690602090a1565b80613b76613b7160019386866139e2565b613a9f565b01613b29565b613b878184846139e2565b351561310157600101613b17565b6308ba5b6160e01b5f5260045ffd5b805f525f516020615ca45f395f51905f5260205260405f2060ff815460a01c16613c1a57505f525f516020615c645f395f51905f5260205260405f20805460ff81169081613c07575b50613bf957505f905f90565b613c0290614c96565b600191565b63ffffffff915060881c1615155f613bed565b613c029150614bf2565b90613c2e826113e3565b613c3b60405191826113af565b8281528092613c4c601f19916113e3565b0190602036910137565b91909180518351808203613cbb575050613c708151613c24565b905f5b8151811015613cb45780613ca260019260051b602080828701015191890101515f525f60205260405f20610f01565b54613cad8286613861565b5201613c73565b5090925050565b635b05999160e01b5f5260045260245260445ffd5b97959192613d409460209694613d2e93613ce86143c8565b613cf0614745565b6040516352b9ec2360e01b8a820152602481019c909c526001600160401b0390811660448d01521660648b015260c060848b015260e48a0191613da9565b8781036023190160a489015291613da9565b8481036023190160c48601528281520191905f905b808210613d815750505090611b4681613d769303601f1981018352826113af565b506113e16001600455565b90919283359063ffffffff821680920361063b57602081600193829352019401920190613d55565b90602083828152019060208160051b85010193835f915b838310613dd05750505050505090565b909192939495601f198282030186528635601e198436030181121561063b578301602081019190356001600160401b03811161063b578060051b3603831361063b57613e2260209283926001956137af565b980196019493019190613dc0565b9060018060401b03165f5260205260405f2090565b90613e4f8261108a565b5460ff8160a01c16613f075750613e65826110a4565b5460ff81169081613ef4575b50613e805750505f905f905f90565b6001600160a01b03811615159182613eac575b5050613ea3576001905f90600190565b5f905f90600190565b613eed925090610a22613ee6925f527fcb1a422c9916903f224af4db9a3bf1529921bf95ff7b75d7d9ed9073a48394ad60205260405f2090565b5460ff1690565b5f80613e93565b60881c63ffffffff16151590505f613e71565b6001936001600160801b0390911692505f9150565b90613f256143c8565b6001600160a01b03831615610a7857611b46613f5b926109b28560405194859363fd44e85560e01b602086015260248501614e5f565b91613f6f6020845185010160208501614323565b92949150948551835103612a2d5750613f879061447d565b613f9081614594565b613f9981610e97565b5415905f935f955f5b8851811015613fe057613fb5818a613861565b5115613fc4575b600101613fa2565b965094613fd5906128f78887613861565b600196909590613fbc565b50909295949194156140fe575b5084806140f3575b6140d0575b806140b9575b5f5b865181101561408b576140158185613861565b51908115610a695760019161402a828a613861565b51156140855764174876e800614040838b613861565b51106140615761405b90614054838b613861565b5188614d72565b01614002565b6140809061406f838b613861565b51906140796134b1565b91896145f6565b61405b565b5061405b565b509293915093505f146140ab576140a191614616565b6113e16001600455565b6140b491614e11565b6140a1565b6140cb6140c46134b1565b82866145d1565b614000565b6140db6129fd614e88565b5054811015613ffa5763559d06d760e01b5f5260045ffd5b506019541515613ff5565b90505f613fed565b91908110156108985760051b81013590601e198136030182121561063b5701803591906001600160401b03831161063b57602001823603811361063b579190565b6001600160a01b039091168152602081019190915260400190565b9081602091031261063b575190565b64174876e80081106141f6575f9081525f516020615cc45f395f51905f5260209081526040808320545f516020615ce45f395f51905f52909252909120546001600160401b03908116911680151590816141fb575b506141f6576001600160401b031680151590816141ec575b506141e857600190565b5f90565b905042115f6141de565b505f90565b905042105f6141c6565b908060209392818452848401375f828201840152601f01601f1916010190565b93929190816040860160408752526060850160608360051b87010192825f90601e19813603015b83831061426f575050505050509060206113e19294019060018060a01b03169052565b909192939495605f198a820301865286358281121561063b578301602081019190356001600160401b03811161063b57803603831361063b576142b86020928392600195614205565b98019601949301919061424c565b9080601f8301121561063b5781516142dd816113e3565b926142eb60405194856113af565b81845260208085019260051b82010192831161063b57602001905b8282106143135750505090565b8151815260209182019101614306565b9060808282031261063b57815192602083015192604081015160018060401b03811161063b57836143559183016142c6565b60608201519093906001600160401b03811161063b57610cb992016142c6565b9060018201809211613a1c57565b91908201809211613a1c57565b9081526001600160401b039182166020820152911660408201526060810191909152608081019190915260a081019190915260c00190565b6002600454146143d9576002600455565b633ee5aeb560e01b5f5260045ffd5b5f80916143f5600161496a565b602082519201905af4906144076136ab565b911561440f57565b50614ef3565b5f80916143f5600361496a565b5f80916143f58261496a565b5f80916143f5600261496a565b5f80916143f5600461496a565b9081602091031261063b5751610cb98161062a565b6040513d5f823e3d90fd5b9081602091031261063b5751610cb981610bb4565b6004602061449761449261449260055461061e565b61061e565b604051630e83251360e01b815292839182905afa908115614551575f91614565575b506001600160a01b0316801561455657602060405180926303330c7960e41b825281806144e98760048301610e25565b03915afa908115614551575f91614522575b5061450957610cb99061463d565b803b156145135790565b632ad05f3360e11b5f5260045ffd5b614544915060203d60201161454a575b61453c81836113af565b810190614468565b5f6144fb565b503d614532565b61445d565b63ab82bb9960e01b5f5260045ffd5b614587915060203d60201161458d575b61457f81836113af565b810190614448565b5f6144b9565b503d614575565b60405163e6a84c7760e01b60208201526001600160a01b0390911660248083019190915281526145ce906145c96044826113af565b61443b565b50565b9091906001600160a01b03811615613274576145f06113e1935f614f25565b91614f4a565b919291906001600160a01b03821615613274576113e1936145f091614f25565b906145c96145ce926109b260405193849263179953bf60e11b602085015260248401614147565b6004602061465261449261449260055461061e565b60405163fb3894d360e01b815292839182905afa908115614551575f91614726575b506001600160a01b03811691821561455657602060405180946308a8c59960e01b825281806146a68660048301610e25565b03915afa928315614551575f93614705575b506001600160a01b0383161580156146fc575b6146d457505090565b63ad12d34160e01b5f526001600160a01b039081166004529081166024521660445260645b5ffd5b50823b156146cb565b61471f91935060203d60201161458d5761457f81836113af565b915f6146b8565b61473f915060203d60201161458d5761457f81836113af565b5f614674565b6006546001600160a01b0316806147a457506005546001600160a01b03165b6003546001600160a01b03163314159081614790575b5061478157565b630fc5e1ab60e41b5f5260045ffd5b6001600160a01b031633141590505f61477a565b614764565b6005546001600160a01b0316801581811561486d575b50614556575f60049160405192838092634f9e8d1560e11b82525afa908115614551575f916147f4575b508051156145565790565b90503d805f833e61480581836113af565b81019060208183031261063b578051906001600160401b03821161063b570181601f8201121561063b5780519061483b82611457565b9261484960405194856113af565b8284526020838301011161063b57815f9260208093018386015e830101525f6147e9565b90503b155f6147bf565b604051906148866040836113af565b601082526f181899199a1a9b1b9c1cb0b131b232b360811b6020830152565b604051606091906148b683826113af565b6028815291601f1901366020840137565b908151811015610898570160200190565b6148e360055461061e565b6001600160a01b038116908115908115614960575b5061455657602060049160405192838092632502c7e760e11b82525afa908115614551575f91614941575b506001600160a01b038116610cb95763a9d04f8760e01b5f5260045ffd5b61495a915060203d60201161458d5761457f81836113af565b5f614923565b90503b155f6148f8565b61497560055461061e565b6001600160a01b03811691908215908115614af0575b5061455657602060ff600492169283155f14614a1c57604051620c3c5d60e81b815292839182905afa908115614551575f916149fd575b505b6001600160a01b0381166149f857600482146149e95763a9d04f8760e01b5f5260045ffd5b632dc6cc2360e01b5f5260045ffd5b905090565b614a16915060203d60201161458d5761457f81836113af565b5f6149c2565b60018403614a6b57604051635ee738d560e11b815292839182905afa908115614551575f91614a4c575b506149c4565b614a65915060203d60201161458d5761457f81836113af565b5f614a46565b60028403614a9a57604051632b5e757b60e11b815292839182905afa908115614551575f91614a4c57506149c4565b60038403614ac957604051632502c7e760e11b815292839182905afa908115614551575f91614a4c57506149c4565b6040516324e1067960e11b815292839182905afa908115614551575f91614a4c57506149c4565b90503b155f61498b565b908160a091031261063b578051614b10816107e8565b916020820151614b1f8161062a565b916040810151916080606083015192015190565b90614b52815f525f516020615d245f395f51905f5260205260405f2090565b600681015460ff16908115614bd6575b50614bd2575f918291604051614b92816109b26020820194630d61b51960e01b8652602483019190602083019252565b51915af4614b9e6136ab565b9015614bcd57614bba816020806113e194518301019101614afa565b509290916001600160a01b031690615490565b614ef3565b5050565b6005915001545f516020615c445f395f51905f5254115f614b62565b60018060801b038154169060028101600381549201908154838110614c75575b5060408311614c6c575b5f5b838110614c2c575050505090565b614c368183610f46565b90549060031b1c15614c4b575b600101614c1e565b93614c568584610f46565b90549060031b1c8101809111613a1c5793614c43565b60409250614c1c565b92505f614c12565b8054821015610898575f52600360205f20910201905f90565b60010180545f9160208211614d42575b5f5b828110614cb55750505090565b614cbf8183614c7d565b5060018101600281549201908154838110614d3a575b5060408311614d31575b5f5b838110614cf45750505050600101614ca8565b614d016138ee8284610f46565b15614d0f575b600101614ce1565b96614d29600191614d236138ee8b87610f46565b90614383565b979050614d07565b60409250614cdf565b92505f614cd5565b60209150614ca6565b906145c96145ce926109b2604051938492635bcc7ca960e11b602085015260248401614147565b60207fae2f87dbf103db294ddd4ab45caa7a914d70bb3d06eeb8a8dc23e03e84548c8d91614dbb604051633c2f328b60e11b84820152612c90816109b28989876024850161347d565b50614dd7604051614dcc84826113af565b5f81528686846145f6565b6040519485526001600160a01b031693a3565b906145c96145ce926109b260405193849263b932546160e01b602085015260248401614147565b906145c96145ce926109b260405193849263a55d613f60e01b602085015260248401614147565b6003546001600160a01b03163303614e4c57565b63118cdaa760e01b5f523360045260245ffd5b91602091614e7891959495604085526040850191614205565b6001600160a01b03909416910152565b6019548015614eed575f90601954156108985760195f525f516020615d645f395f51905f525460015b828110614ebe5750505090565b81614ec88261087c565b505410614ed8575b600101614eb1565b809350614ee5915061087c565b505482614ed0565b505f1990565b80519081614f205760405163dccff66960e01b815260206004820152908190612a4a906024830190610c84565b602001fd5b9160405192600184526020840152604083019160018352606084015260808301604052565b9293614f568251613c24565b91614f618151613c24565b935f925f5b835181101561507457614f798185613861565b51606481101580615066575b615004571580614ffd575b614f9f575b6001905b01614f66565b600a5460ff16614faf575b614f95565b5f80526009602052614fd4614fd05f516020615be45f395f51905f52613ee6565b1590565b15614f9557614fe8614fd0613ee68a610ee8565b15614faa575b639798976560e01b5f5260045ffd5b505f614f90565b6001600160a01b038916158061505f575b615023575b50600190614f99565b85615058916150485f6150396001969a8c613861565b6001600160a01b039091169052565b615052828b613861565b52615613565b949061501a565b505f615015565b5064174876e8008110614f85565b5092969093959194956150898587855f615a03565b5f97885b87518a10156150de576150d68a6001926150c46150b56150ad848d613861565b51938d613861565b515f52600f60205260405f2090565b6150cf838254614383565b9055614383565b99019861508d565b6150fc9193979599506150f79098929498601054614383565b601055565b6001600160a01b038716159283615196575b5f5b83811061515f575050505015615127575b50505050565b805160010361514f579060208061514695930151910151915f336157a7565b5f808080615121565b61515a935f33615689565b615146565b8061519061517f61517260019486613861565b516001600160a01b031690565b6151898387613861565b5190615bbc565b01615110565b969290979395915f985f995b88518b10156151ce578a6001916151bf6150b56150ad848d613861565b828154039055019a01996151a2565b6151e491939599929498969a5060105403601055565b61510e565b929490936001600160a01b03841615801594909390858061547d575b61520f8351613c24565b9261521a8151613c24565b955f955f5b8351811015615337576152328185613861565b51606481101580615329575b6152b05715806152a9575b615258575b6001905b0161521f565b600a5460ff161561524e575f805260096020528b615285614fd05f516020615be45f395f51905f52613ee6565b615290575b5061524e565b614fd0613ee661529f92610ee8565b614fee578b61528a565b508a615249565b8a86615318575b15615309576001600160a01b038d161580615302575b6152db575b50600190615252565b886152fb916152f1896150396001969d8d613861565b615052828d613861565b97906152d2565b50856152cd565b63b8333dc960e01b5f5260045ffd5b506001600160a01b038d16156152b7565b5064174876e800811061523e565b509850999591509793919561534e868a878a615a03565b61542a575b6001600160a01b0384161592836153cf575b5f5b8381106153b657505050501561537f575b5050505050565b84516001036153a55760208061539b96015192015192336157a7565b5f80808080615378565b6153b194919233615689565b61539b565b806153c961517f61517260019486613861565b01615367565b979693915f9693915f975b895189101561540e57896001916153ff6150b58c6153f8818e613861565b5194613861565b828154039055019801976153da565b615425919395985099919395989960105403601055565b615365565b979394915f9693915f975b895189101561545e576154568a6001926150c46150b58d6153f8818f613861565b980197615435565b61547891939598506150f7909a929497969a601054614383565b615353565b6001600160a01b03881615159650615205565b9092906001600160e01b031916637fcb29c960e01b81036154b65750506113e191615901565b6363706efd60e11b81036155d7575090916001600160a01b03811691508115610a78576154e8614fd0613ee683610eb0565b6121175760015f516020615c245f395f51905f525411156121175761550f61551991610eb0565b805460ff19169055565b5f905f516020615c245f395f51905f52545f5b818110615569575b505050156121175780158015615552575b612117576113e190613688565b505f516020615c245f395f51905f52548111615545565b8261558e61449261557984610f16565b905460039190911b1c6001600160a01b031690565b1461559b5760010161552c565b91506155c592506155b96155796155b46155bf93615845565b610f16565b91610f16565b90615853565b6155cd615876565b60015f8080615534565b631cb4772560e21b81036155fa575050906113e1916155f46134b1565b916145d1565b90915063178fb21b60e11b03612117576113e191614d4b565b5f198114613a1c5760010190565b9081602091031261063b5751610cb9816107e8565b6001600160a01b0391821681529116602082015260a060408201819052610cb9949193919261567b929161566d9190860190611768565b908482036060860152611768565b916080818403910152610c84565b9091949293853b61569d575b505050505050565b6020936156bf91604051968795869563bc197c8160e01b875260048701615636565b03815f6001600160a01b0387165af15f918161573d575b5061570757506156e46136ab565b805191908261570057632bfa23e760e11b5f526146f982610e14565b6020915001fd5b6001600160e01b0319166343e6837f60e01b0161572a57505f8080808080615695565b632bfa23e760e11b5f526146f990610e14565b61576091925060203d602011615767575b61575881836113af565b810190615621565b905f6156d6565b503d61574e565b6001600160a01b039182168152911660208201526040810191909152606081019190915260a060808201819052610cb992910190610c84565b9091949293853b6157ba57505050505050565b6020936157dc91604051968795869563f23a6e6160e01b87526004870161576e565b03815f6001600160a01b0387165af15f9181615824575b5061580157506156e46136ab565b6001600160e01b031916630dc5919f60e01b0161572a57505f8080808080615695565b61583e91925060203d6020116157675761575881836113af565b905f6157f3565b5f19810191908211613a1c57565b80546001600160a01b0360039390931b83811b199091169290931690921b179055565b5f516020615c245f395f51905f525480156158ed575f198101905f516020615c245f395f51905f5254821015610898575f516020615c245f395f51905f525f8190527f1e7af2776b414202f4d0720b6aeaf88d7ffd91a44ea0aa781eb527e3c97a87b890910180546001600160a01b031916905555565b634e487b7160e01b5f52603160045260245ffd5b6001600160a01b03811615610a785760ff61591b82610eb0565b541615615942575b505f516020615c245f395f51905f52548111612117576113e190613688565b61594b81610eb0565b805460ff191660011790555f516020615c245f395f51905f525490600160401b82101561137357600182015f516020615c245f395f51905f52555f516020615c245f395f51905f5254821015610898575f516020615c245f395f51905f525f9081526159d8927f1e7af2776b414202f4d0720b6aeaf88d7ffd91a44ea0aa781eb527e3c97a87b901615853565b5f615923565b90916159f5610cb993604084526040840190611768565b916020818403910152611768565b9392918051835190818103615ba75750505f5b8151811015615b02578060051b90602080838501015192860101518460018060a01b038916615a85575b6001936001600160a01b038216615a5b575b50505001615a16565b615a7b91610a22615a73925f525f60205260405f2090565b918254614383565b90555f8481615a52565b509091615a9d88610a22835f525f60205260405f2090565b54828110615acb57829160019493879203615ac38b610a22845f525f60205260405f2090565b559350615a40565b6040516303dee4c560e01b81526001600160a01b038a16600482015260248101919091526044810183905260648101829052608490fd5b508051939493919291600103615b64576020908101519101516040516001600160a01b03938416949093169233927fc3d58168c5ae7397731d063d5bbf3d657854427343f4c083240f7aacaa2d0f62928291615b5f9190836134c5565b0390a4565b6040516001600160a01b03938416949093169233927f4a39dc06d4c0dbc64b70af90fd698a233a518aa5d07e595d983b8c0526c8f7fb928291615b5f91836159de565b635b05999160e01b5f5260045260245260445ffd5b906145c96145ce926109b2604051938492637e4152e760e11b60208501526024840161414756feec8156718a8372b1db44bb411437d0870f3e3790d4a08526d024ce1b0b668f6b3bf2de114e2e7636c289f21be023528e47d89b45e873b976c78989c3ddc683f5bc488d3e2575f0f2113dc4d9a0cd6bc52445c6bc28a8974ed97a6ba3ecfd657cbc488d3e2575f0f2113dc4d9a0cd6bc52445c6bc28a8974ed97a6ba3ecfd657acb1a422c9916903f224af4db9a3bf1529921bf95ff7b75d7d9ed9073a48394ace5fcefe92466b78c655fa732b80b16e07a00f2a897e833e17d9914703cad5632cb1a422c9916903f224af4db9a3bf1529921bf95ff7b75d7d9ed9073a48394abfed699897f2561c8a98f833aa3de83c4904370d413fe5fb15abe26e9f8150b2afed699897f2561c8a98f833aa3de83c4904370d413fe5fb15abe26e9f8150b2b8be0079c531659141344cd1fd0a4f28419497f9722a3daafe3b4186f6b6457e0bc488d3e2575f0f2113dc4d9a0cd6bc52445c6bc28a8974ed97a6ba3ecfd657d5d5ebc8105f0482c05c969b7e79cf039bd47ae3ad5b49c5ffe0e2e1e26f3974f944998273e477b495144fb8794c914197f3ccb46be2900f4698fd0ef743c9695a2646970667358221220a53ec4c2119d363854c8cca20c06f47eddbe6651bf1cc051aedef95ceba31b3e64736f6c63430008210033bc488d3e2575f0f2113dc4d9a0cd6bc52445c6bc28a8974ed97a6ba3ecfd657c",
  "linkReferences": {},
  "deployedLinkReferences": {},
  "immutableReferences": {
    "12626": [
      {
        "length": 32,
        "start": 12138
      }
    ]
  },
  "inputSourceName": "project/src/BeamioUserCard/BeamioUserCard.sol",
  "buildInfoId": "solc-0_8_33-72f1ca1c7c55aa2ea764b076e3762dc01a627471"
}