{
  "_format": "hh3-artifact-1",
  "contractName": "BeamioUserCard",
  "sourceName": "src/BeamioUserCard/BeamioUserCard.sol",
  "abi": [
    {
      "inputs": [
        {
          "internalType": "string",
          "name": "uri_",
          "type": "string"
        },
        {
          "internalType": "enum BeamioCurrency.CurrencyType",
          "name": "currency_",
          "type": "uint8"
        },
        {
          "internalType": "uint256",
          "name": "pointsUnitPriceInCurrencyE6_",
          "type": "uint256"
        },
        {
          "internalType": "address",
          "name": "initialOwner",
          "type": "address"
        },
        {
          "internalType": "address",
          "name": "gateway_",
          "type": "address"
        },
        {
          "internalType": "uint8",
          "name": "upgradeType_",
          "type": "uint8"
        },
        {
          "internalType": "bool",
          "name": "initialTransferWhitelistEnabled",
          "type": "bool"
        },
        {
          "internalType": "string",
          "name": "contractName_",
          "type": "string"
        }
      ],
      "stateMutability": "nonpayable",
      "type": "constructor"
    },
    {
      "inputs": [],
      "name": "BM_NotAuthorized",
      "type": "error"
    },
    {
      "inputs": [],
      "name": "BM_ZeroAddress",
      "type": "error"
    },
    {
      "inputs": [
        {
          "internalType": "address",
          "name": "sender",
          "type": "address"
        },
        {
          "internalType": "uint256",
          "name": "balance",
          "type": "uint256"
        },
        {
          "internalType": "uint256",
          "name": "needed",
          "type": "uint256"
        },
        {
          "internalType": "uint256",
          "name": "tokenId",
          "type": "uint256"
        }
      ],
      "name": "ERC1155InsufficientBalance",
      "type": "error"
    },
    {
      "inputs": [
        {
          "internalType": "address",
          "name": "approver",
          "type": "address"
        }
      ],
      "name": "ERC1155InvalidApprover",
      "type": "error"
    },
    {
      "inputs": [
        {
          "internalType": "uint256",
          "name": "idsLength",
          "type": "uint256"
        },
        {
          "internalType": "uint256",
          "name": "valuesLength",
          "type": "uint256"
        }
      ],
      "name": "ERC1155InvalidArrayLength",
      "type": "error"
    },
    {
      "inputs": [
        {
          "internalType": "address",
          "name": "operator",
          "type": "address"
        }
      ],
      "name": "ERC1155InvalidOperator",
      "type": "error"
    },
    {
      "inputs": [
        {
          "internalType": "address",
          "name": "receiver",
          "type": "address"
        }
      ],
      "name": "ERC1155InvalidReceiver",
      "type": "error"
    },
    {
      "inputs": [
        {
          "internalType": "address",
          "name": "sender",
          "type": "address"
        }
      ],
      "name": "ERC1155InvalidSender",
      "type": "error"
    },
    {
      "inputs": [
        {
          "internalType": "address",
          "name": "operator",
          "type": "address"
        },
        {
          "internalType": "address",
          "name": "owner",
          "type": "address"
        }
      ],
      "name": "ERC1155MissingApprovalForAll",
      "type": "error"
    },
    {
      "inputs": [
        {
          "internalType": "address",
          "name": "owner",
          "type": "address"
        }
      ],
      "name": "OwnableInvalidOwner",
      "type": "error"
    },
    {
      "inputs": [
        {
          "internalType": "address",
          "name": "account",
          "type": "address"
        }
      ],
      "name": "OwnableUnauthorizedAccount",
      "type": "error"
    },
    {
      "inputs": [],
      "name": "ReentrancyGuardReentrantCall",
      "type": "error"
    },
    {
      "inputs": [],
      "name": "UC_AmountZero",
      "type": "error"
    },
    {
      "inputs": [],
      "name": "UC_BelowMinThreshold",
      "type": "error"
    },
    {
      "inputs": [],
      "name": "UC_GlobalMisconfigured",
      "type": "error"
    },
    {
      "inputs": [
        {
          "internalType": "address",
          "name": "fromAccount",
          "type": "address"
        },
        {
          "internalType": "uint256",
          "name": "id",
          "type": "uint256"
        },
        {
          "internalType": "uint256",
          "name": "have",
          "type": "uint256"
        },
        {
          "internalType": "uint256",
          "name": "need",
          "type": "uint256"
        }
      ],
      "name": "UC_InsufficientBalance",
      "type": "error"
    },
    {
      "inputs": [],
      "name": "UC_InvalidUpgradeType",
      "type": "error"
    },
    {
      "inputs": [],
      "name": "UC_NoBeamioAccount",
      "type": "error"
    },
    {
      "inputs": [],
      "name": "UC_NotAdmin",
      "type": "error"
    },
    {
      "inputs": [],
      "name": "UC_OpenMintExecutorUnauthorized",
      "type": "error"
    },
    {
      "inputs": [],
      "name": "UC_PriceZero",
      "type": "error"
    },
    {
      "inputs": [
        {
          "internalType": "bytes",
          "name": "data",
          "type": "bytes"
        }
      ],
      "name": "UC_RedeemDelegateFailed",
      "type": "error"
    },
    {
      "inputs": [],
      "name": "UC_TierLenMismatch",
      "type": "error"
    },
    {
      "inputs": [],
      "name": "UC_TierMinZero",
      "type": "error"
    },
    {
      "inputs": [],
      "name": "UC_UnauthorizedGateway",
      "type": "error"
    },
    {
      "anonymous": false,
      "inputs": [
        {
          "indexed": true,
          "internalType": "address",
          "name": "beneficiaryAccount",
          "type": "address"
        },
        {
          "indexed": true,
          "internalType": "uint256",
          "name": "tokenId",
          "type": "uint256"
        },
        {
          "indexed": false,
          "internalType": "uint256",
          "name": "attr",
          "type": "uint256"
        },
        {
          "indexed": false,
          "internalType": "uint256",
          "name": "expiry",
          "type": "uint256"
        }
      ],
      "name": "AdminCardMinted",
      "type": "event"
    },
    {
      "anonymous": false,
      "inputs": [
        {
          "indexed": true,
          "internalType": "address",
          "name": "account",
          "type": "address"
        },
        {
          "indexed": false,
          "internalType": "uint256",
          "name": "amount",
          "type": "uint256"
        }
      ],
      "name": "AdminPointsBurned",
      "type": "event"
    },
    {
      "anonymous": false,
      "inputs": [
        {
          "indexed": true,
          "internalType": "address",
          "name": "beneficiaryAccount",
          "type": "address"
        },
        {
          "indexed": false,
          "internalType": "uint256",
          "name": "points6",
          "type": "uint256"
        }
      ],
      "name": "AdminPointsMinted",
      "type": "event"
    },
    {
      "anonymous": false,
      "inputs": [
        {
          "indexed": true,
          "internalType": "address",
          "name": "account",
          "type": "address"
        },
        {
          "indexed": true,
          "internalType": "address",
          "name": "operator",
          "type": "address"
        },
        {
          "indexed": false,
          "internalType": "bool",
          "name": "approved",
          "type": "bool"
        }
      ],
      "name": "ApprovalForAll",
      "type": "event"
    },
    {
      "anonymous": false,
      "inputs": [
        {
          "indexed": true,
          "internalType": "address",
          "name": "userEOA",
          "type": "address"
        },
        {
          "indexed": true,
          "internalType": "address",
          "name": "acct",
          "type": "address"
        },
        {
          "indexed": false,
          "internalType": "uint8",
          "name": "chargeCurrency",
          "type": "uint8"
        },
        {
          "indexed": false,
          "internalType": "uint256",
          "name": "amountFiat6",
          "type": "uint256"
        },
        {
          "indexed": false,
          "internalType": "uint256",
          "name": "rewardMinted",
          "type": "uint256"
        }
      ],
      "name": "ChargeRewardAirdropped",
      "type": "event"
    },
    {
      "anonymous": false,
      "inputs": [
        {
          "indexed": false,
          "internalType": "uint256",
          "name": "attr",
          "type": "uint256"
        }
      ],
      "name": "DefaultAttrUpdated",
      "type": "event"
    },
    {
      "anonymous": false,
      "inputs": [
        {
          "indexed": false,
          "internalType": "uint256",
          "name": "oldSecs",
          "type": "uint256"
        },
        {
          "indexed": false,
          "internalType": "uint256",
          "name": "newSecs",
          "type": "uint256"
        }
      ],
      "name": "ExpirySecondsUpdated",
      "type": "event"
    },
    {
      "anonymous": false,
      "inputs": [
        {
          "indexed": true,
          "internalType": "uint256",
          "name": "id",
          "type": "uint256"
        },
        {
          "indexed": true,
          "internalType": "address",
          "name": "userEOA",
          "type": "address"
        },
        {
          "indexed": true,
          "internalType": "address",
          "name": "acct",
          "type": "address"
        },
        {
          "indexed": false,
          "internalType": "uint256",
          "name": "amount",
          "type": "uint256"
        },
        {
          "indexed": false,
          "internalType": "uint256",
          "name": "claimedAfter",
          "type": "uint256"
        }
      ],
      "name": "FaucetClaimed",
      "type": "event"
    },
    {
      "anonymous": false,
      "inputs": [
        {
          "indexed": true,
          "internalType": "uint256",
          "name": "id",
          "type": "uint256"
        },
        {
          "components": [
            {
              "internalType": "uint64",
              "name": "validUntil",
              "type": "uint64"
            },
            {
              "internalType": "uint64",
              "name": "perClaimMax",
              "type": "uint64"
            },
            {
              "internalType": "uint128",
              "name": "maxPerUser",
              "type": "uint128"
            },
            {
              "internalType": "uint128",
              "name": "maxGlobal",
              "type": "uint128"
            },
            {
              "internalType": "bool",
              "name": "enabled",
              "type": "bool"
            },
            {
              "internalType": "uint8",
              "name": "currency",
              "type": "uint8"
            },
            {
              "internalType": "uint8",
              "name": "decimals",
              "type": "uint8"
            },
            {
              "internalType": "uint128",
              "name": "priceInCurrency6",
              "type": "uint128"
            }
          ],
          "indexed": false,
          "internalType": "struct FaucetStorage.FaucetConfig",
          "name": "cfg",
          "type": "tuple"
        }
      ],
      "name": "FaucetConfigUpdated",
      "type": "event"
    },
    {
      "anonymous": false,
      "inputs": [
        {
          "indexed": true,
          "internalType": "uint256",
          "name": "tokenId",
          "type": "uint256"
        },
        {
          "indexed": false,
          "internalType": "bytes32",
          "name": "title",
          "type": "bytes32"
        },
        {
          "indexed": false,
          "internalType": "uint64",
          "name": "validAfter",
          "type": "uint64"
        },
        {
          "indexed": false,
          "internalType": "uint64",
          "name": "validBefore",
          "type": "uint64"
        },
        {
          "indexed": false,
          "internalType": "uint256",
          "name": "maxSupply",
          "type": "uint256"
        },
        {
          "indexed": false,
          "internalType": "uint256",
          "name": "priceInCurrency6",
          "type": "uint256"
        },
        {
          "indexed": false,
          "internalType": "bytes32",
          "name": "sharedMetadataHash",
          "type": "bytes32"
        }
      ],
      "name": "IssuedNftCreated",
      "type": "event"
    },
    {
      "anonymous": false,
      "inputs": [
        {
          "indexed": true,
          "internalType": "uint256",
          "name": "tokenId",
          "type": "uint256"
        },
        {
          "indexed": true,
          "internalType": "address",
          "name": "recipient",
          "type": "address"
        },
        {
          "indexed": false,
          "internalType": "uint256",
          "name": "amount",
          "type": "uint256"
        }
      ],
      "name": "IssuedNftMinted",
      "type": "event"
    },
    {
      "anonymous": false,
      "inputs": [
        {
          "indexed": true,
          "internalType": "address",
          "name": "userEOA",
          "type": "address"
        },
        {
          "indexed": true,
          "internalType": "address",
          "name": "payeeEOA",
          "type": "address"
        },
        {
          "indexed": true,
          "internalType": "uint256",
          "name": "tokenId",
          "type": "uint256"
        },
        {
          "indexed": false,
          "internalType": "uint256",
          "name": "amount",
          "type": "uint256"
        },
        {
          "indexed": false,
          "internalType": "uint256",
          "name": "totalPriceInCurrency6",
          "type": "uint256"
        },
        {
          "indexed": false,
          "internalType": "uint256",
          "name": "pointsCharged6",
          "type": "uint256"
        }
      ],
      "name": "IssuedNftPurchasedWithPointsCharge",
      "type": "event"
    },
    {
      "anonymous": false,
      "inputs": [
        {
          "indexed": true,
          "internalType": "address",
          "name": "user",
          "type": "address"
        },
        {
          "indexed": true,
          "internalType": "uint256",
          "name": "tokenId",
          "type": "uint256"
        },
        {
          "indexed": false,
          "internalType": "uint256",
          "name": "tierIndexOrMax",
          "type": "uint256"
        },
        {
          "indexed": false,
          "internalType": "uint256",
          "name": "minUsdc6",
          "type": "uint256"
        },
        {
          "indexed": false,
          "internalType": "uint256",
          "name": "expiry",
          "type": "uint256"
        }
      ],
      "name": "MemberNFTIssued",
      "type": "event"
    },
    {
      "anonymous": false,
      "inputs": [
        {
          "indexed": true,
          "internalType": "address",
          "name": "user",
          "type": "address"
        },
        {
          "indexed": true,
          "internalType": "uint256",
          "name": "oldActiveTokenId",
          "type": "uint256"
        },
        {
          "indexed": true,
          "internalType": "uint256",
          "name": "newTokenId",
          "type": "uint256"
        },
        {
          "indexed": false,
          "internalType": "uint256",
          "name": "oldTierIndexOrMax",
          "type": "uint256"
        },
        {
          "indexed": false,
          "internalType": "uint256",
          "name": "newTierIndex",
          "type": "uint256"
        },
        {
          "indexed": false,
          "internalType": "uint256",
          "name": "newExpiry",
          "type": "uint256"
        }
      ],
      "name": "MemberNFTUpgraded",
      "type": "event"
    },
    {
      "anonymous": false,
      "inputs": [
        {
          "indexed": true,
          "internalType": "address",
          "name": "previousOwner",
          "type": "address"
        },
        {
          "indexed": true,
          "internalType": "address",
          "name": "newOwner",
          "type": "address"
        }
      ],
      "name": "OwnershipTransferred",
      "type": "event"
    },
    {
      "anonymous": false,
      "inputs": [
        {
          "indexed": true,
          "internalType": "address",
          "name": "userEOA",
          "type": "address"
        },
        {
          "indexed": true,
          "internalType": "address",
          "name": "acct",
          "type": "address"
        },
        {
          "indexed": false,
          "internalType": "uint256",
          "name": "points6",
          "type": "uint256"
        }
      ],
      "name": "PointsMintedByGateway",
      "type": "event"
    },
    {
      "anonymous": false,
      "inputs": [
        {
          "indexed": true,
          "internalType": "address",
          "name": "payerEOA",
          "type": "address"
        },
        {
          "indexed": true,
          "internalType": "address",
          "name": "beneficiaryAccount",
          "type": "address"
        },
        {
          "indexed": true,
          "internalType": "address",
          "name": "usdc",
          "type": "address"
        },
        {
          "indexed": false,
          "internalType": "uint256",
          "name": "usdcIn6",
          "type": "uint256"
        },
        {
          "indexed": false,
          "internalType": "uint256",
          "name": "pointsMinted6",
          "type": "uint256"
        },
        {
          "indexed": false,
          "internalType": "uint256",
          "name": "unitPointPriceUsdc6",
          "type": "uint256"
        },
        {
          "indexed": false,
          "internalType": "bytes32",
          "name": "nonce",
          "type": "bytes32"
        }
      ],
      "name": "PointsPurchasedWithUSDC",
      "type": "event"
    },
    {
      "anonymous": false,
      "inputs": [
        {
          "indexed": false,
          "internalType": "uint256",
          "name": "priceInCurrencyE6",
          "type": "uint256"
        }
      ],
      "name": "PointsUnitPriceUpdated",
      "type": "event"
    },
    {
      "anonymous": false,
      "inputs": [
        {
          "indexed": true,
          "internalType": "uint256",
          "name": "id",
          "type": "uint256"
        },
        {
          "indexed": true,
          "internalType": "address",
          "name": "admin",
          "type": "address"
        }
      ],
      "name": "ProposalApproved",
      "type": "event"
    },
    {
      "anonymous": false,
      "inputs": [
        {
          "indexed": true,
          "internalType": "uint256",
          "name": "id",
          "type": "uint256"
        },
        {
          "indexed": true,
          "internalType": "bytes4",
          "name": "selector",
          "type": "bytes4"
        },
        {
          "indexed": true,
          "internalType": "address",
          "name": "proposer",
          "type": "address"
        }
      ],
      "name": "ProposalCreated",
      "type": "event"
    },
    {
      "anonymous": false,
      "inputs": [
        {
          "indexed": true,
          "internalType": "uint256",
          "name": "id",
          "type": "uint256"
        }
      ],
      "name": "ProposalExecuted",
      "type": "event"
    },
    {
      "anonymous": false,
      "inputs": [
        {
          "indexed": true,
          "internalType": "bytes32",
          "name": "hash",
          "type": "bytes32"
        }
      ],
      "name": "RedeemCancelled",
      "type": "event"
    },
    {
      "anonymous": false,
      "inputs": [
        {
          "indexed": true,
          "internalType": "bytes32",
          "name": "hash",
          "type": "bytes32"
        },
        {
          "indexed": false,
          "internalType": "uint256",
          "name": "points6",
          "type": "uint256"
        },
        {
          "indexed": false,
          "internalType": "uint256",
          "name": "attr",
          "type": "uint256"
        }
      ],
      "name": "RedeemCreated",
      "type": "event"
    },
    {
      "anonymous": false,
      "inputs": [
        {
          "indexed": true,
          "internalType": "address",
          "name": "refereeAA",
          "type": "address"
        },
        {
          "indexed": true,
          "internalType": "address",
          "name": "referrerAA",
          "type": "address"
        },
        {
          "indexed": true,
          "internalType": "address",
          "name": "operator",
          "type": "address"
        }
      ],
      "name": "RefereeReferrerUpdated",
      "type": "event"
    },
    {
      "anonymous": false,
      "inputs": [
        {
          "indexed": true,
          "internalType": "address",
          "name": "refereeAA",
          "type": "address"
        },
        {
          "indexed": true,
          "internalType": "address",
          "name": "operator",
          "type": "address"
        }
      ],
      "name": "RefereeRegistered",
      "type": "event"
    },
    {
      "anonymous": false,
      "inputs": [
        {
          "indexed": true,
          "internalType": "address",
          "name": "refereeAA",
          "type": "address"
        },
        {
          "indexed": true,
          "internalType": "address",
          "name": "operator",
          "type": "address"
        }
      ],
      "name": "RefereeUnregistered",
      "type": "event"
    },
    {
      "anonymous": false,
      "inputs": [
        {
          "indexed": true,
          "internalType": "address",
          "name": "refereeAA",
          "type": "address"
        },
        {
          "indexed": true,
          "internalType": "address",
          "name": "referrerAA",
          "type": "address"
        },
        {
          "indexed": false,
          "internalType": "uint256",
          "name": "rewardAmount",
          "type": "uint256"
        }
      ],
      "name": "ReferrerRewardMinted",
      "type": "event"
    },
    {
      "anonymous": false,
      "inputs": [
        {
          "indexed": false,
          "internalType": "uint256",
          "name": "oldRatioE6",
          "type": "uint256"
        },
        {
          "indexed": false,
          "internalType": "uint256",
          "name": "newRatioE6",
          "type": "uint256"
        }
      ],
      "name": "ReferrerRewardRatioUpdated",
      "type": "event"
    },
    {
      "anonymous": false,
      "inputs": [
        {
          "indexed": false,
          "internalType": "uint256",
          "name": "index",
          "type": "uint256"
        },
        {
          "indexed": false,
          "internalType": "uint256",
          "name": "minUsdc6",
          "type": "uint256"
        },
        {
          "indexed": false,
          "internalType": "uint256",
          "name": "attr",
          "type": "uint256"
        },
        {
          "indexed": false,
          "internalType": "uint256",
          "name": "tierExpirySeconds",
          "type": "uint256"
        }
      ],
      "name": "TierAppended",
      "type": "event"
    },
    {
      "anonymous": false,
      "inputs": [
        {
          "indexed": false,
          "internalType": "uint256",
          "name": "count",
          "type": "uint256"
        }
      ],
      "name": "TiersUpdated",
      "type": "event"
    },
    {
      "anonymous": false,
      "inputs": [
        {
          "indexed": true,
          "internalType": "address",
          "name": "operator",
          "type": "address"
        },
        {
          "indexed": true,
          "internalType": "address",
          "name": "from",
          "type": "address"
        },
        {
          "indexed": true,
          "internalType": "address",
          "name": "to",
          "type": "address"
        },
        {
          "indexed": false,
          "internalType": "uint256[]",
          "name": "ids",
          "type": "uint256[]"
        },
        {
          "indexed": false,
          "internalType": "uint256[]",
          "name": "values",
          "type": "uint256[]"
        }
      ],
      "name": "TransferBatch",
      "type": "event"
    },
    {
      "anonymous": false,
      "inputs": [
        {
          "indexed": true,
          "internalType": "address",
          "name": "operator",
          "type": "address"
        },
        {
          "indexed": true,
          "internalType": "address",
          "name": "from",
          "type": "address"
        },
        {
          "indexed": true,
          "internalType": "address",
          "name": "to",
          "type": "address"
        },
        {
          "indexed": false,
          "internalType": "uint256",
          "name": "id",
          "type": "uint256"
        },
        {
          "indexed": false,
          "internalType": "uint256",
          "name": "value",
          "type": "uint256"
        }
      ],
      "name": "TransferSingle",
      "type": "event"
    },
    {
      "anonymous": false,
      "inputs": [
        {
          "indexed": false,
          "internalType": "bool",
          "name": "enabled",
          "type": "bool"
        }
      ],
      "name": "TransferWhitelistEnabledUpdated",
      "type": "event"
    },
    {
      "anonymous": false,
      "inputs": [
        {
          "indexed": false,
          "internalType": "string",
          "name": "value",
          "type": "string"
        },
        {
          "indexed": true,
          "internalType": "uint256",
          "name": "id",
          "type": "uint256"
        }
      ],
      "name": "URI",
      "type": "event"
    },
    {
      "stateMutability": "nonpayable",
      "type": "fallback"
    },
    {
      "inputs": [],
      "name": "CHARGE_REWARD_TOKEN_ID",
      "outputs": [
        {
          "internalType": "uint256",
          "name": "",
          "type": "uint256"
        }
      ],
      "stateMutability": "view",
      "type": "function"
    },
    {
      "inputs": [],
      "name": "ISSUED_NFT_START_ID",
      "outputs": [
        {
          "internalType": "uint256",
          "name": "",
          "type": "uint256"
        }
      ],
      "stateMutability": "view",
      "type": "function"
    },
    {
      "inputs": [],
      "name": "NFT_START_ID",
      "outputs": [
        {
          "internalType": "uint256",
          "name": "",
          "type": "uint256"
        }
      ],
      "stateMutability": "view",
      "type": "function"
    },
    {
      "inputs": [],
      "name": "POINTS_DECIMALS",
      "outputs": [
        {
          "internalType": "uint8",
          "name": "",
          "type": "uint8"
        }
      ],
      "stateMutability": "view",
      "type": "function"
    },
    {
      "inputs": [],
      "name": "POINTS_ID",
      "outputs": [
        {
          "internalType": "uint256",
          "name": "",
          "type": "uint256"
        }
      ],
      "stateMutability": "view",
      "type": "function"
    },
    {
      "inputs": [],
      "name": "REFERRER_REWARD_TOKEN_ID",
      "outputs": [
        {
          "internalType": "uint256",
          "name": "",
          "type": "uint256"
        }
      ],
      "stateMutability": "view",
      "type": "function"
    },
    {
      "inputs": [],
      "name": "VERSION",
      "outputs": [
        {
          "internalType": "uint256",
          "name": "",
          "type": "uint256"
        }
      ],
      "stateMutability": "view",
      "type": "function"
    },
    {
      "inputs": [
        {
          "internalType": "address",
          "name": "",
          "type": "address"
        },
        {
          "internalType": "uint256",
          "name": "",
          "type": "uint256"
        }
      ],
      "name": "_userOwnedNfts",
      "outputs": [
        {
          "internalType": "uint256",
          "name": "",
          "type": "uint256"
        }
      ],
      "stateMutability": "view",
      "type": "function"
    },
    {
      "inputs": [
        {
          "internalType": "uint256",
          "name": "",
          "type": "uint256"
        }
      ],
      "name": "activeMembershipCountByTierIndex",
      "outputs": [
        {
          "internalType": "uint256",
          "name": "",
          "type": "uint256"
        }
      ],
      "stateMutability": "view",
      "type": "function"
    },
    {
      "inputs": [
        {
          "internalType": "uint256",
          "name": "",
          "type": "uint256"
        }
      ],
      "name": "activeMembershipCountByTokenId",
      "outputs": [
        {
          "internalType": "uint256",
          "name": "",
          "type": "uint256"
        }
      ],
      "stateMutability": "view",
      "type": "function"
    },
    {
      "inputs": [
        {
          "internalType": "address",
          "name": "",
          "type": "address"
        }
      ],
      "name": "activeMembershipId",
      "outputs": [
        {
          "internalType": "uint256",
          "name": "",
          "type": "uint256"
        }
      ],
      "stateMutability": "view",
      "type": "function"
    },
    {
      "inputs": [
        {
          "internalType": "address",
          "name": "",
          "type": "address"
        }
      ],
      "name": "activeTierIndexOrMax",
      "outputs": [
        {
          "internalType": "uint256",
          "name": "",
          "type": "uint256"
        }
      ],
      "stateMutability": "view",
      "type": "function"
    },
    {
      "inputs": [
        {
          "internalType": "address",
          "name": "a",
          "type": "address"
        }
      ],
      "name": "adminParent",
      "outputs": [
        {
          "internalType": "address",
          "name": "",
          "type": "address"
        }
      ],
      "stateMutability": "view",
      "type": "function"
    },
    {
      "inputs": [
        {
          "internalType": "uint256",
          "name": "minUsdc6",
          "type": "uint256"
        },
        {
          "internalType": "uint256",
          "name": "attr",
          "type": "uint256"
        },
        {
          "internalType": "uint256",
          "name": "tierExpirySeconds",
          "type": "uint256"
        }
      ],
      "name": "appendTier",
      "outputs": [],
      "stateMutability": "nonpayable",
      "type": "function"
    },
    {
      "inputs": [
        {
          "internalType": "uint256",
          "name": "id",
          "type": "uint256"
        }
      ],
      "name": "approveProposal",
      "outputs": [],
      "stateMutability": "nonpayable",
      "type": "function"
    },
    {
      "inputs": [
        {
          "internalType": "uint256",
          "name": "id",
          "type": "uint256"
        },
        {
          "internalType": "address",
          "name": "adminSigner",
          "type": "address"
        }
      ],
      "name": "approveProposalByGateway",
      "outputs": [],
      "stateMutability": "nonpayable",
      "type": "function"
    },
    {
      "inputs": [
        {
          "internalType": "uint256",
          "name": "",
          "type": "uint256"
        }
      ],
      "name": "attributes",
      "outputs": [
        {
          "internalType": "uint256",
          "name": "",
          "type": "uint256"
        }
      ],
      "stateMutability": "view",
      "type": "function"
    },
    {
      "inputs": [
        {
          "internalType": "address",
          "name": "account",
          "type": "address"
        },
        {
          "internalType": "uint256",
          "name": "id",
          "type": "uint256"
        }
      ],
      "name": "balanceOf",
      "outputs": [
        {
          "internalType": "uint256",
          "name": "",
          "type": "uint256"
        }
      ],
      "stateMutability": "view",
      "type": "function"
    },
    {
      "inputs": [
        {
          "internalType": "address[]",
          "name": "accounts",
          "type": "address[]"
        },
        {
          "internalType": "uint256[]",
          "name": "ids",
          "type": "uint256[]"
        }
      ],
      "name": "balanceOfBatch",
      "outputs": [
        {
          "internalType": "uint256[]",
          "name": "",
          "type": "uint256[]"
        }
      ],
      "stateMutability": "view",
      "type": "function"
    },
    {
      "inputs": [
        {
          "internalType": "address",
          "name": "target",
          "type": "address"
        },
        {
          "internalType": "uint256",
          "name": "amount",
          "type": "uint256"
        }
      ],
      "name": "burnPointsByAdmin",
      "outputs": [],
      "stateMutability": "nonpayable",
      "type": "function"
    },
    {
      "inputs": [
        {
          "internalType": "address",
          "name": "acct",
          "type": "address"
        },
        {
          "internalType": "uint256",
          "name": "id",
          "type": "uint256"
        }
      ],
      "name": "cardSelfAppendMembershipNftIfMissing",
      "outputs": [],
      "stateMutability": "nonpayable",
      "type": "function"
    },
    {
      "inputs": [
        {
          "internalType": "uint8",
          "name": "kind",
          "type": "uint8"
        },
        {
          "internalType": "bytes",
          "name": "data",
          "type": "bytes"
        }
      ],
      "name": "cardSelfCallModule",
      "outputs": [
        {
          "internalType": "bytes",
          "name": "",
          "type": "bytes"
        }
      ],
      "stateMutability": "nonpayable",
      "type": "function"
    },
    {
      "inputs": [],
      "name": "cardSelfCurrencyType",
      "outputs": [
        {
          "internalType": "uint8",
          "name": "",
          "type": "uint8"
        }
      ],
      "stateMutability": "view",
      "type": "function"
    },
    {
      "inputs": [
        {
          "internalType": "address",
          "name": "acct",
          "type": "address"
        },
        {
          "internalType": "uint256",
          "name": "points6",
          "type": "uint256"
        }
      ],
      "name": "cardSelfEmitAdminPointsMinted",
      "outputs": [],
      "stateMutability": "nonpayable",
      "type": "function"
    },
    {
      "inputs": [
        {
          "internalType": "address",
          "name": "userEOA",
          "type": "address"
        },
        {
          "internalType": "address",
          "name": "acct",
          "type": "address"
        },
        {
          "internalType": "uint8",
          "name": "chargeCurrency",
          "type": "uint8"
        },
        {
          "internalType": "uint256",
          "name": "amountFiat6",
          "type": "uint256"
        },
        {
          "internalType": "uint256",
          "name": "reward",
          "type": "uint256"
        }
      ],
      "name": "cardSelfEmitChargeRewardAirdropped",
      "outputs": [],
      "stateMutability": "nonpayable",
      "type": "function"
    },
    {
      "inputs": [
        {
          "internalType": "uint256",
          "name": "id",
          "type": "uint256"
        },
        {
          "internalType": "address",
          "name": "userEOA",
          "type": "address"
        },
        {
          "internalType": "address",
          "name": "acct",
          "type": "address"
        },
        {
          "internalType": "uint256",
          "name": "amount",
          "type": "uint256"
        },
        {
          "internalType": "uint256",
          "name": "claimedAfter",
          "type": "uint256"
        }
      ],
      "name": "cardSelfEmitFaucetClaimed",
      "outputs": [],
      "stateMutability": "nonpayable",
      "type": "function"
    },
    {
      "inputs": [
        {
          "internalType": "uint256",
          "name": "tokenId",
          "type": "uint256"
        },
        {
          "internalType": "address",
          "name": "acct",
          "type": "address"
        },
        {
          "internalType": "uint256",
          "name": "amount",
          "type": "uint256"
        }
      ],
      "name": "cardSelfEmitIssuedNftMinted",
      "outputs": [],
      "stateMutability": "nonpayable",
      "type": "function"
    },
    {
      "inputs": [
        {
          "internalType": "address",
          "name": "userEOA",
          "type": "address"
        },
        {
          "internalType": "address",
          "name": "payeeEOA",
          "type": "address"
        },
        {
          "internalType": "uint256",
          "name": "tokenId",
          "type": "uint256"
        },
        {
          "internalType": "uint256",
          "name": "amount",
          "type": "uint256"
        },
        {
          "internalType": "uint256",
          "name": "totalPriceInCurrency6",
          "type": "uint256"
        },
        {
          "internalType": "uint256",
          "name": "pointsCharged6",
          "type": "uint256"
        }
      ],
      "name": "cardSelfEmitIssuedNftPurchasedWithPointsCharge",
      "outputs": [],
      "stateMutability": "nonpayable",
      "type": "function"
    },
    {
      "inputs": [
        {
          "internalType": "address",
          "name": "userEOA",
          "type": "address"
        },
        {
          "internalType": "address",
          "name": "acct",
          "type": "address"
        },
        {
          "internalType": "uint256",
          "name": "points6",
          "type": "uint256"
        }
      ],
      "name": "cardSelfEmitPointsMintedByGateway",
      "outputs": [],
      "stateMutability": "nonpayable",
      "type": "function"
    },
    {
      "inputs": [
        {
          "internalType": "address",
          "name": "refereeAA",
          "type": "address"
        },
        {
          "internalType": "address",
          "name": "referrerAA",
          "type": "address"
        },
        {
          "internalType": "uint256",
          "name": "rewardAmount",
          "type": "uint256"
        }
      ],
      "name": "cardSelfEmitReferrerRewardMinted",
      "outputs": [],
      "stateMutability": "nonpayable",
      "type": "function"
    },
    {
      "inputs": [
        {
          "internalType": "address",
          "name": "module",
          "type": "address"
        },
        {
          "internalType": "bytes",
          "name": "data",
          "type": "bytes"
        }
      ],
      "name": "cardSelfGovernanceDelegate",
      "outputs": [
        {
          "internalType": "bool",
          "name": "",
          "type": "bool"
        }
      ],
      "stateMutability": "nonpayable",
      "type": "function"
    },
    {
      "inputs": [
        {
          "internalType": "address",
          "name": "acct",
          "type": "address"
        }
      ],
      "name": "cardSelfHasValidCard",
      "outputs": [
        {
          "internalType": "bool",
          "name": "",
          "type": "bool"
        }
      ],
      "stateMutability": "view",
      "type": "function"
    },
    {
      "inputs": [],
      "name": "cardSelfMembershipFlowTotals",
      "outputs": [
        {
          "internalType": "uint256",
          "name": "issued",
          "type": "uint256"
        },
        {
          "internalType": "uint256",
          "name": "upgraded",
          "type": "uint256"
        }
      ],
      "stateMutability": "view",
      "type": "function"
    },
    {
      "inputs": [
        {
          "internalType": "address",
          "name": "to",
          "type": "address"
        },
        {
          "internalType": "uint256",
          "name": "id",
          "type": "uint256"
        },
        {
          "internalType": "uint256",
          "name": "amount",
          "type": "uint256"
        }
      ],
      "name": "cardSelfMint",
      "outputs": [],
      "stateMutability": "nonpayable",
      "type": "function"
    },
    {
      "inputs": [],
      "name": "cardSelfOwner",
      "outputs": [
        {
          "internalType": "address",
          "name": "",
          "type": "address"
        }
      ],
      "stateMutability": "view",
      "type": "function"
    },
    {
      "inputs": [],
      "name": "cardSelfPointsUnitPriceInCurrencyE6",
      "outputs": [
        {
          "internalType": "uint256",
          "name": "",
          "type": "uint256"
        }
      ],
      "stateMutability": "view",
      "type": "function"
    },
    {
      "inputs": [
        {
          "internalType": "address",
          "name": "operator",
          "type": "address"
        },
        {
          "internalType": "uint256",
          "name": "issuedBefore",
          "type": "uint256"
        },
        {
          "internalType": "uint256",
          "name": "upgradedBefore",
          "type": "uint256"
        }
      ],
      "name": "cardSelfRecordAdminMembershipFlow",
      "outputs": [],
      "stateMutability": "nonpayable",
      "type": "function"
    },
    {
      "inputs": [
        {
          "internalType": "address",
          "name": "operator",
          "type": "address"
        },
        {
          "internalType": "uint256",
          "name": "amount",
          "type": "uint256"
        }
      ],
      "name": "cardSelfRecordAdminRedeemMint",
      "outputs": [],
      "stateMutability": "nonpayable",
      "type": "function"
    },
    {
      "inputs": [
        {
          "internalType": "address",
          "name": "operator",
          "type": "address"
        },
        {
          "internalType": "uint256",
          "name": "amount",
          "type": "uint256"
        }
      ],
      "name": "cardSelfRecordAdminStatsMint",
      "outputs": [],
      "stateMutability": "nonpayable",
      "type": "function"
    },
    {
      "inputs": [
        {
          "internalType": "address",
          "name": "operator",
          "type": "address"
        },
        {
          "internalType": "uint256",
          "name": "amount",
          "type": "uint256"
        }
      ],
      "name": "cardSelfRecordAdminUsdcMint",
      "outputs": [],
      "stateMutability": "nonpayable",
      "type": "function"
    },
    {
      "inputs": [
        {
          "internalType": "address",
          "name": "acct",
          "type": "address"
        },
        {
          "internalType": "uint256",
          "name": "points6",
          "type": "uint256"
        }
      ],
      "name": "cardSelfRequirePointsMintAllowsFirstMembership",
      "outputs": [],
      "stateMutability": "view",
      "type": "function"
    },
    {
      "inputs": [
        {
          "internalType": "address",
          "name": "eoa",
          "type": "address"
        }
      ],
      "name": "cardSelfToAccount",
      "outputs": [
        {
          "internalType": "address",
          "name": "",
          "type": "address"
        }
      ],
      "stateMutability": "view",
      "type": "function"
    },
    {
      "inputs": [
        {
          "internalType": "address",
          "name": "from",
          "type": "address"
        },
        {
          "internalType": "address",
          "name": "to",
          "type": "address"
        },
        {
          "internalType": "uint256",
          "name": "amount",
          "type": "uint256"
        }
      ],
      "name": "cardSelfTransferPointsUpdate",
      "outputs": [],
      "stateMutability": "nonpayable",
      "type": "function"
    },
    {
      "inputs": [],
      "name": "cardSelfUpgradeType",
      "outputs": [
        {
          "internalType": "uint8",
          "name": "",
          "type": "uint8"
        }
      ],
      "stateMutability": "view",
      "type": "function"
    },
    {
      "inputs": [
        {
          "internalType": "address",
          "name": "subordinate",
          "type": "address"
        },
        {
          "internalType": "address",
          "name": "authorizer",
          "type": "address"
        }
      ],
      "name": "clearAdminMintCounterForSubordinate",
      "outputs": [],
      "stateMutability": "nonpayable",
      "type": "function"
    },
    {
      "inputs": [
        {
          "internalType": "address",
          "name": "refereeAA",
          "type": "address"
        }
      ],
      "name": "clearRefereeReferrer",
      "outputs": [],
      "stateMutability": "nonpayable",
      "type": "function"
    },
    {
      "inputs": [
        {
          "internalType": "bytes4",
          "name": "selector",
          "type": "bytes4"
        },
        {
          "internalType": "address",
          "name": "target",
          "type": "address"
        },
        {
          "internalType": "uint256",
          "name": "v1",
          "type": "uint256"
        },
        {
          "internalType": "uint256",
          "name": "v2",
          "type": "uint256"
        },
        {
          "internalType": "uint256",
          "name": "v3",
          "type": "uint256"
        }
      ],
      "name": "createProposal",
      "outputs": [
        {
          "internalType": "uint256",
          "name": "",
          "type": "uint256"
        }
      ],
      "stateMutability": "nonpayable",
      "type": "function"
    },
    {
      "inputs": [],
      "name": "currency",
      "outputs": [
        {
          "internalType": "enum BeamioCurrency.CurrencyType",
          "name": "",
          "type": "uint8"
        }
      ],
      "stateMutability": "view",
      "type": "function"
    },
    {
      "inputs": [],
      "name": "debugGateway",
      "outputs": [
        {
          "internalType": "address",
          "name": "",
          "type": "address"
        }
      ],
      "stateMutability": "view",
      "type": "function"
    },
    {
      "inputs": [],
      "name": "defaultAttrWhenNoTiers",
      "outputs": [
        {
          "internalType": "uint256",
          "name": "",
          "type": "uint256"
        }
      ],
      "stateMutability": "view",
      "type": "function"
    },
    {
      "inputs": [],
      "name": "deployer",
      "outputs": [
        {
          "internalType": "address",
          "name": "",
          "type": "address"
        }
      ],
      "stateMutability": "view",
      "type": "function"
    },
    {
      "inputs": [
        {
          "internalType": "uint256",
          "name": "",
          "type": "uint256"
        }
      ],
      "name": "expiresAt",
      "outputs": [
        {
          "internalType": "uint256",
          "name": "",
          "type": "uint256"
        }
      ],
      "stateMutability": "view",
      "type": "function"
    },
    {
      "inputs": [],
      "name": "expirySeconds",
      "outputs": [
        {
          "internalType": "uint256",
          "name": "",
          "type": "uint256"
        }
      ],
      "stateMutability": "view",
      "type": "function"
    },
    {
      "inputs": [],
      "name": "factoryGateway",
      "outputs": [
        {
          "internalType": "address",
          "name": "",
          "type": "address"
        }
      ],
      "stateMutability": "view",
      "type": "function"
    },
    {
      "inputs": [
        {
          "internalType": "address",
          "name": "userEOA",
          "type": "address"
        },
        {
          "internalType": "uint256",
          "name": "id",
          "type": "uint256"
        },
        {
          "internalType": "uint256",
          "name": "amount",
          "type": "uint256"
        }
      ],
      "name": "faucetByGateway",
      "outputs": [],
      "stateMutability": "nonpayable",
      "type": "function"
    },
    {
      "inputs": [
        {
          "internalType": "uint256",
          "name": "id",
          "type": "uint256"
        }
      ],
      "name": "faucetConfig",
      "outputs": [
        {
          "components": [
            {
              "internalType": "uint64",
              "name": "validUntil",
              "type": "uint64"
            },
            {
              "internalType": "uint64",
              "name": "perClaimMax",
              "type": "uint64"
            },
            {
              "internalType": "uint128",
              "name": "maxPerUser",
              "type": "uint128"
            },
            {
              "internalType": "uint128",
              "name": "maxGlobal",
              "type": "uint128"
            },
            {
              "internalType": "bool",
              "name": "enabled",
              "type": "bool"
            },
            {
              "internalType": "uint8",
              "name": "currency",
              "type": "uint8"
            },
            {
              "internalType": "uint8",
              "name": "decimals",
              "type": "uint8"
            },
            {
              "internalType": "uint128",
              "name": "priceInCurrency6",
              "type": "uint128"
            }
          ],
          "internalType": "struct FaucetStorage.FaucetConfig",
          "name": "",
          "type": "tuple"
        }
      ],
      "stateMutability": "view",
      "type": "function"
    },
    {
      "inputs": [],
      "name": "gateway",
      "outputs": [
        {
          "internalType": "address",
          "name": "",
          "type": "address"
        }
      ],
      "stateMutability": "view",
      "type": "function"
    },
    {
      "inputs": [
        {
          "internalType": "address",
          "name": "user",
          "type": "address"
        }
      ],
      "name": "getOwnership",
      "outputs": [
        {
          "internalType": "uint256",
          "name": "pt",
          "type": "uint256"
        },
        {
          "components": [
            {
              "internalType": "uint256",
              "name": "tokenId",
              "type": "uint256"
            },
            {
              "internalType": "uint256",
              "name": "attribute",
              "type": "uint256"
            },
            {
              "internalType": "uint256",
              "name": "tierIndexOrMax",
              "type": "uint256"
            },
            {
              "internalType": "uint256",
              "name": "expiry",
              "type": "uint256"
            },
            {
              "internalType": "bool",
              "name": "isExpired",
              "type": "bool"
            }
          ],
          "internalType": "struct NFTDetail[]",
          "name": "nfts",
          "type": "tuple[]"
        }
      ],
      "stateMutability": "view",
      "type": "function"
    },
    {
      "inputs": [
        {
          "internalType": "address",
          "name": "userEOA",
          "type": "address"
        }
      ],
      "name": "getOwnershipByEOA",
      "outputs": [
        {
          "internalType": "uint256",
          "name": "pt",
          "type": "uint256"
        },
        {
          "components": [
            {
              "internalType": "uint256",
              "name": "tokenId",
              "type": "uint256"
            },
            {
              "internalType": "uint256",
              "name": "attribute",
              "type": "uint256"
            },
            {
              "internalType": "uint256",
              "name": "tierIndexOrMax",
              "type": "uint256"
            },
            {
              "internalType": "uint256",
              "name": "expiry",
              "type": "uint256"
            },
            {
              "internalType": "bool",
              "name": "isExpired",
              "type": "bool"
            }
          ],
          "internalType": "struct NFTDetail[]",
          "name": "nfts",
          "type": "tuple[]"
        }
      ],
      "stateMutability": "view",
      "type": "function"
    },
    {
      "inputs": [
        {
          "internalType": "address",
          "name": "referrerAA",
          "type": "address"
        },
        {
          "internalType": "uint256",
          "name": "offset",
          "type": "uint256"
        },
        {
          "internalType": "uint256",
          "name": "pageSize",
          "type": "uint256"
        }
      ],
      "name": "getRefereesByReferrerPage",
      "outputs": [
        {
          "internalType": "address[]",
          "name": "referees",
          "type": "address[]"
        },
        {
          "internalType": "uint256[]",
          "name": "refereeChargeTotals6",
          "type": "uint256[]"
        },
        {
          "internalType": "uint256",
          "name": "total",
          "type": "uint256"
        },
        {
          "internalType": "uint256",
          "name": "nextOffset",
          "type": "uint256"
        }
      ],
      "stateMutability": "view",
      "type": "function"
    },
    {
      "inputs": [
        {
          "internalType": "uint256",
          "name": "offset",
          "type": "uint256"
        },
        {
          "internalType": "uint256",
          "name": "pageSize",
          "type": "uint256"
        }
      ],
      "name": "getReferrersPage",
      "outputs": [
        {
          "internalType": "address[]",
          "name": "referrers",
          "type": "address[]"
        },
        {
          "internalType": "uint256[]",
          "name": "referrerRewardBalances",
          "type": "uint256[]"
        },
        {
          "internalType": "uint256",
          "name": "total",
          "type": "uint256"
        },
        {
          "internalType": "uint256",
          "name": "nextOffset",
          "type": "uint256"
        }
      ],
      "stateMutability": "view",
      "type": "function"
    },
    {
      "inputs": [
        {
          "internalType": "uint256",
          "name": "offset",
          "type": "uint256"
        },
        {
          "internalType": "uint256",
          "name": "pageSize",
          "type": "uint256"
        }
      ],
      "name": "getRegisteredRefereesPage",
      "outputs": [
        {
          "internalType": "address[]",
          "name": "referees",
          "type": "address[]"
        },
        {
          "internalType": "uint256",
          "name": "total",
          "type": "uint256"
        },
        {
          "internalType": "uint256",
          "name": "nextOffset",
          "type": "uint256"
        }
      ],
      "stateMutability": "view",
      "type": "function"
    },
    {
      "inputs": [
        {
          "internalType": "address",
          "name": "a",
          "type": "address"
        }
      ],
      "name": "isAdmin",
      "outputs": [
        {
          "internalType": "bool",
          "name": "",
          "type": "bool"
        }
      ],
      "stateMutability": "view",
      "type": "function"
    },
    {
      "inputs": [
        {
          "internalType": "address",
          "name": "account",
          "type": "address"
        },
        {
          "internalType": "address",
          "name": "operator",
          "type": "address"
        }
      ],
      "name": "isApprovedForAll",
      "outputs": [
        {
          "internalType": "bool",
          "name": "",
          "type": "bool"
        }
      ],
      "stateMutability": "view",
      "type": "function"
    },
    {
      "inputs": [
        {
          "internalType": "address",
          "name": "effectiveTo",
          "type": "address"
        }
      ],
      "name": "isPointsTransferRecipientAllowed",
      "outputs": [
        {
          "internalType": "bool",
          "name": "",
          "type": "bool"
        }
      ],
      "stateMutability": "view",
      "type": "function"
    },
    {
      "inputs": [
        {
          "internalType": "address",
          "name": "refereeAA",
          "type": "address"
        }
      ],
      "name": "isRegisteredReferee",
      "outputs": [
        {
          "internalType": "bool",
          "name": "",
          "type": "bool"
        }
      ],
      "stateMutability": "view",
      "type": "function"
    },
    {
      "inputs": [
        {
          "internalType": "uint256",
          "name": "tokenId",
          "type": "uint256"
        }
      ],
      "name": "issuedNftPriceInCurrency6",
      "outputs": [
        {
          "internalType": "uint256",
          "name": "",
          "type": "uint256"
        }
      ],
      "stateMutability": "view",
      "type": "function"
    },
    {
      "inputs": [
        {
          "internalType": "uint256",
          "name": "tokenId",
          "type": "uint256"
        }
      ],
      "name": "issuedNftSharedMetadataHash",
      "outputs": [
        {
          "internalType": "bytes32",
          "name": "",
          "type": "bytes32"
        }
      ],
      "stateMutability": "view",
      "type": "function"
    },
    {
      "inputs": [],
      "name": "metadataBaseURI",
      "outputs": [
        {
          "internalType": "string",
          "name": "",
          "type": "string"
        }
      ],
      "stateMutability": "view",
      "type": "function"
    },
    {
      "inputs": [
        {
          "internalType": "address",
          "name": "userEOA",
          "type": "address"
        },
        {
          "internalType": "uint256",
          "name": "id",
          "type": "uint256"
        },
        {
          "internalType": "uint256",
          "name": "amount6",
          "type": "uint256"
        }
      ],
      "name": "mintFaucetByGateway",
      "outputs": [],
      "stateMutability": "nonpayable",
      "type": "function"
    },
    {
      "inputs": [
        {
          "internalType": "address",
          "name": "userEOA",
          "type": "address"
        },
        {
          "internalType": "uint256",
          "name": "tokenId",
          "type": "uint256"
        },
        {
          "internalType": "uint256",
          "name": "amount",
          "type": "uint256"
        }
      ],
      "name": "mintIssuedNftByGateway",
      "outputs": [],
      "stateMutability": "nonpayable",
      "type": "function"
    },
    {
      "inputs": [
        {
          "internalType": "address",
          "name": "to",
          "type": "address"
        },
        {
          "internalType": "uint256",
          "name": "tokenId",
          "type": "uint256"
        },
        {
          "internalType": "uint256",
          "name": "amount",
          "type": "uint256"
        }
      ],
      "name": "mintIssuedNftByOwner",
      "outputs": [],
      "stateMutability": "nonpayable",
      "type": "function"
    },
    {
      "inputs": [
        {
          "internalType": "address",
          "name": "userEOA",
          "type": "address"
        },
        {
          "internalType": "uint256",
          "name": "tokenId",
          "type": "uint256"
        }
      ],
      "name": "mintIssuedNftByUserSigClaim",
      "outputs": [],
      "stateMutability": "nonpayable",
      "type": "function"
    },
    {
      "inputs": [
        {
          "internalType": "address",
          "name": "user",
          "type": "address"
        },
        {
          "internalType": "uint256",
          "name": "tierIndex",
          "type": "uint256"
        }
      ],
      "name": "mintMemberCardByAdmin",
      "outputs": [],
      "stateMutability": "nonpayable",
      "type": "function"
    },
    {
      "inputs": [
        {
          "internalType": "address",
          "name": "user",
          "type": "address"
        },
        {
          "internalType": "uint256",
          "name": "points6",
          "type": "uint256"
        }
      ],
      "name": "mintPointsByAdmin",
      "outputs": [],
      "stateMutability": "nonpayable",
      "type": "function"
    },
    {
      "inputs": [
        {
          "internalType": "address",
          "name": "user",
          "type": "address"
        },
        {
          "internalType": "uint256",
          "name": "points6",
          "type": "uint256"
        },
        {
          "internalType": "address",
          "name": "operator",
          "type": "address"
        }
      ],
      "name": "mintPointsByAdminWithOperator",
      "outputs": [],
      "stateMutability": "nonpayable",
      "type": "function"
    },
    {
      "inputs": [
        {
          "internalType": "address",
          "name": "userEOA",
          "type": "address"
        },
        {
          "internalType": "uint256",
          "name": "points6",
          "type": "uint256"
        }
      ],
      "name": "mintPointsByGateway",
      "outputs": [],
      "stateMutability": "nonpayable",
      "type": "function"
    },
    {
      "inputs": [
        {
          "internalType": "address",
          "name": "userEOA",
          "type": "address"
        },
        {
          "internalType": "uint256",
          "name": "points6",
          "type": "uint256"
        },
        {
          "internalType": "address",
          "name": "operator",
          "type": "address"
        }
      ],
      "name": "mintPointsByGatewayWithOperator",
      "outputs": [],
      "stateMutability": "nonpayable",
      "type": "function"
    },
    {
      "inputs": [
        {
          "internalType": "address",
          "name": "payerAA",
          "type": "address"
        },
        {
          "internalType": "uint256",
          "name": "points6",
          "type": "uint256"
        },
        {
          "internalType": "address",
          "name": "operatorForStats",
          "type": "address"
        }
      ],
      "name": "mintPointsOpenContainerRelay",
      "outputs": [],
      "stateMutability": "nonpayable",
      "type": "function"
    },
    {
      "inputs": [],
      "name": "name",
      "outputs": [
        {
          "internalType": "string",
          "name": "",
          "type": "string"
        }
      ],
      "stateMutability": "view",
      "type": "function"
    },
    {
      "inputs": [
        {
          "internalType": "uint256",
          "name": "tokenId",
          "type": "uint256"
        }
      ],
      "name": "nftAttributes",
      "outputs": [
        {
          "internalType": "uint256",
          "name": "",
          "type": "uint256"
        }
      ],
      "stateMutability": "view",
      "type": "function"
    },
    {
      "inputs": [
        {
          "internalType": "uint256",
          "name": "tokenId",
          "type": "uint256"
        }
      ],
      "name": "nftExpiresAt",
      "outputs": [
        {
          "internalType": "uint256",
          "name": "",
          "type": "uint256"
        }
      ],
      "stateMutability": "view",
      "type": "function"
    },
    {
      "inputs": [
        {
          "internalType": "address",
          "name": "user",
          "type": "address"
        },
        {
          "internalType": "uint256",
          "name": "index",
          "type": "uint256"
        }
      ],
      "name": "nftInventoryAt",
      "outputs": [
        {
          "internalType": "uint256",
          "name": "",
          "type": "uint256"
        }
      ],
      "stateMutability": "view",
      "type": "function"
    },
    {
      "inputs": [
        {
          "internalType": "address",
          "name": "user",
          "type": "address"
        }
      ],
      "name": "nftInventoryLength",
      "outputs": [
        {
          "internalType": "uint256",
          "name": "",
          "type": "uint256"
        }
      ],
      "stateMutability": "view",
      "type": "function"
    },
    {
      "inputs": [
        {
          "internalType": "uint256",
          "name": "tokenId",
          "type": "uint256"
        }
      ],
      "name": "nftTierIndexOrMax",
      "outputs": [
        {
          "internalType": "uint256",
          "name": "",
          "type": "uint256"
        }
      ],
      "stateMutability": "view",
      "type": "function"
    },
    {
      "inputs": [],
      "name": "owner",
      "outputs": [
        {
          "internalType": "address",
          "name": "",
          "type": "address"
        }
      ],
      "stateMutability": "view",
      "type": "function"
    },
    {
      "inputs": [
        {
          "internalType": "address",
          "name": "user",
          "type": "address"
        }
      ],
      "name": "pointsBalanceOf",
      "outputs": [
        {
          "internalType": "uint256",
          "name": "",
          "type": "uint256"
        }
      ],
      "stateMutability": "view",
      "type": "function"
    },
    {
      "inputs": [],
      "name": "pointsUnitPriceInCurrencyE6",
      "outputs": [
        {
          "internalType": "uint256",
          "name": "",
          "type": "uint256"
        }
      ],
      "stateMutability": "view",
      "type": "function"
    },
    {
      "inputs": [
        {
          "internalType": "uint256",
          "name": "chargeRewardAmount",
          "type": "uint256"
        }
      ],
      "name": "previewReferrerRewardFromChargeReward",
      "outputs": [
        {
          "internalType": "uint256",
          "name": "",
          "type": "uint256"
        }
      ],
      "stateMutability": "view",
      "type": "function"
    },
    {
      "inputs": [
        {
          "internalType": "address",
          "name": "userEOA",
          "type": "address"
        },
        {
          "internalType": "uint256",
          "name": "tokenId",
          "type": "uint256"
        },
        {
          "internalType": "uint256",
          "name": "amount",
          "type": "uint256"
        },
        {
          "internalType": "address",
          "name": "payeeEOA",
          "type": "address"
        }
      ],
      "name": "purchaseIssuedNftWithPointsCharge",
      "outputs": [],
      "stateMutability": "nonpayable",
      "type": "function"
    },
    {
      "inputs": [
        {
          "internalType": "uint256",
          "name": "tokenId",
          "type": "uint256"
        },
        {
          "internalType": "uint256",
          "name": "amount",
          "type": "uint256"
        }
      ],
      "name": "quoteIssuedNftPurchasePoints6",
      "outputs": [
        {
          "internalType": "uint256",
          "name": "points6",
          "type": "uint256"
        },
        {
          "internalType": "uint256",
          "name": "totalPriceInCurrency6",
          "type": "uint256"
        }
      ],
      "stateMutability": "view",
      "type": "function"
    },
    {
      "inputs": [
        {
          "internalType": "address",
          "name": "operator",
          "type": "address"
        },
        {
          "internalType": "uint256",
          "name": "amount",
          "type": "uint256"
        }
      ],
      "name": "recordAdminBurnForStats",
      "outputs": [],
      "stateMutability": "nonpayable",
      "type": "function"
    },
    {
      "inputs": [
        {
          "internalType": "address",
          "name": "admin",
          "type": "address"
        },
        {
          "internalType": "uint256",
          "name": "amount",
          "type": "uint256"
        }
      ],
      "name": "recordAdminMintForStats",
      "outputs": [],
      "stateMutability": "nonpayable",
      "type": "function"
    },
    {
      "inputs": [
        {
          "internalType": "string",
          "name": "code",
          "type": "string"
        },
        {
          "internalType": "address",
          "name": "to",
          "type": "address"
        }
      ],
      "name": "redeemAdminByGateway",
      "outputs": [],
      "stateMutability": "nonpayable",
      "type": "function"
    },
    {
      "inputs": [
        {
          "internalType": "string[]",
          "name": "codes",
          "type": "string[]"
        },
        {
          "internalType": "address",
          "name": "userEOA",
          "type": "address"
        }
      ],
      "name": "redeemBatchByGateway",
      "outputs": [],
      "stateMutability": "nonpayable",
      "type": "function"
    },
    {
      "inputs": [
        {
          "internalType": "string",
          "name": "code",
          "type": "string"
        },
        {
          "internalType": "address",
          "name": "userEOA",
          "type": "address"
        }
      ],
      "name": "redeemByGateway",
      "outputs": [],
      "stateMutability": "nonpayable",
      "type": "function"
    },
    {
      "inputs": [
        {
          "internalType": "string",
          "name": "code",
          "type": "string"
        },
        {
          "internalType": "address",
          "name": "userEOA",
          "type": "address"
        }
      ],
      "name": "redeemPoolByGateway",
      "outputs": [],
      "stateMutability": "nonpayable",
      "type": "function"
    },
    {
      "inputs": [
        {
          "internalType": "address",
          "name": "refereeAA",
          "type": "address"
        }
      ],
      "name": "refereeChargePointsTotal6",
      "outputs": [
        {
          "internalType": "uint256",
          "name": "",
          "type": "uint256"
        }
      ],
      "stateMutability": "view",
      "type": "function"
    },
    {
      "inputs": [
        {
          "internalType": "address",
          "name": "referrerAA",
          "type": "address"
        }
      ],
      "name": "refereeCountByReferrer",
      "outputs": [
        {
          "internalType": "uint256",
          "name": "",
          "type": "uint256"
        }
      ],
      "stateMutability": "view",
      "type": "function"
    },
    {
      "inputs": [
        {
          "internalType": "address",
          "name": "refereeAA",
          "type": "address"
        }
      ],
      "name": "refereeReferrer",
      "outputs": [
        {
          "internalType": "address",
          "name": "",
          "type": "address"
        }
      ],
      "stateMutability": "view",
      "type": "function"
    },
    {
      "inputs": [],
      "name": "referrerRewardFromChargeRewardRatioE6",
      "outputs": [
        {
          "internalType": "uint256",
          "name": "",
          "type": "uint256"
        }
      ],
      "stateMutability": "view",
      "type": "function"
    },
    {
      "inputs": [],
      "name": "referrerTotalCount",
      "outputs": [
        {
          "internalType": "uint256",
          "name": "",
          "type": "uint256"
        }
      ],
      "stateMutability": "view",
      "type": "function"
    },
    {
      "inputs": [
        {
          "internalType": "address",
          "name": "refereeAA",
          "type": "address"
        }
      ],
      "name": "registerReferee",
      "outputs": [],
      "stateMutability": "nonpayable",
      "type": "function"
    },
    {
      "inputs": [],
      "name": "registeredRefereeTotalCount",
      "outputs": [
        {
          "internalType": "uint256",
          "name": "",
          "type": "uint256"
        }
      ],
      "stateMutability": "view",
      "type": "function"
    },
    {
      "inputs": [],
      "name": "renounceOwnership",
      "outputs": [],
      "stateMutability": "nonpayable",
      "type": "function"
    },
    {
      "inputs": [
        {
          "internalType": "address",
          "name": "adminAddr",
          "type": "address"
        }
      ],
      "name": "resetAdminLimit",
      "outputs": [],
      "stateMutability": "nonpayable",
      "type": "function"
    },
    {
      "inputs": [
        {
          "internalType": "address",
          "name": "adminAddr",
          "type": "address"
        },
        {
          "internalType": "address",
          "name": "authorizer",
          "type": "address"
        }
      ],
      "name": "resetAdminLimitByAdmin",
      "outputs": [],
      "stateMutability": "nonpayable",
      "type": "function"
    },
    {
      "inputs": [
        {
          "internalType": "address",
          "name": "from",
          "type": "address"
        },
        {
          "internalType": "address",
          "name": "to",
          "type": "address"
        },
        {
          "internalType": "uint256[]",
          "name": "ids",
          "type": "uint256[]"
        },
        {
          "internalType": "uint256[]",
          "name": "values",
          "type": "uint256[]"
        },
        {
          "internalType": "bytes",
          "name": "data",
          "type": "bytes"
        }
      ],
      "name": "safeBatchTransferFrom",
      "outputs": [],
      "stateMutability": "nonpayable",
      "type": "function"
    },
    {
      "inputs": [
        {
          "internalType": "address",
          "name": "from",
          "type": "address"
        },
        {
          "internalType": "address",
          "name": "to",
          "type": "address"
        },
        {
          "internalType": "uint256",
          "name": "id",
          "type": "uint256"
        },
        {
          "internalType": "uint256",
          "name": "value",
          "type": "uint256"
        },
        {
          "internalType": "bytes",
          "name": "data",
          "type": "bytes"
        }
      ],
      "name": "safeTransferFrom",
      "outputs": [],
      "stateMutability": "nonpayable",
      "type": "function"
    },
    {
      "inputs": [
        {
          "internalType": "address",
          "name": "operator",
          "type": "address"
        },
        {
          "internalType": "bool",
          "name": "approved",
          "type": "bool"
        }
      ],
      "name": "setApprovalForAll",
      "outputs": [],
      "stateMutability": "nonpayable",
      "type": "function"
    },
    {
      "inputs": [
        {
          "internalType": "uint256",
          "name": "attr",
          "type": "uint256"
        }
      ],
      "name": "setDefaultAttr",
      "outputs": [],
      "stateMutability": "nonpayable",
      "type": "function"
    },
    {
      "inputs": [
        {
          "internalType": "uint256",
          "name": "secs",
          "type": "uint256"
        }
      ],
      "name": "setExpirySeconds",
      "outputs": [],
      "stateMutability": "nonpayable",
      "type": "function"
    },
    {
      "inputs": [
        {
          "internalType": "uint256",
          "name": "priceInCurrencyE6",
          "type": "uint256"
        }
      ],
      "name": "setPointsUnitPrice",
      "outputs": [],
      "stateMutability": "nonpayable",
      "type": "function"
    },
    {
      "inputs": [
        {
          "internalType": "address",
          "name": "refereeAA",
          "type": "address"
        },
        {
          "internalType": "address",
          "name": "referrerAA",
          "type": "address"
        }
      ],
      "name": "setRefereeReferrer",
      "outputs": [],
      "stateMutability": "nonpayable",
      "type": "function"
    },
    {
      "inputs": [
        {
          "internalType": "uint256",
          "name": "ratioE6",
          "type": "uint256"
        }
      ],
      "name": "setReferrerRewardRatio",
      "outputs": [],
      "stateMutability": "nonpayable",
      "type": "function"
    },
    {
      "inputs": [
        {
          "components": [
            {
              "internalType": "uint256",
              "name": "minUsdc6",
              "type": "uint256"
            },
            {
              "internalType": "uint256",
              "name": "attr",
              "type": "uint256"
            },
            {
              "internalType": "uint256",
              "name": "tierExpirySeconds",
              "type": "uint256"
            }
          ],
          "internalType": "struct Tier[]",
          "name": "newTiers",
          "type": "tuple[]"
        }
      ],
      "name": "setTiers",
      "outputs": [],
      "stateMutability": "nonpayable",
      "type": "function"
    },
    {
      "inputs": [
        {
          "internalType": "address",
          "name": "target",
          "type": "address"
        },
        {
          "internalType": "bool",
          "name": "allowed",
          "type": "bool"
        }
      ],
      "name": "setTransferWhitelist",
      "outputs": [],
      "stateMutability": "nonpayable",
      "type": "function"
    },
    {
      "inputs": [
        {
          "internalType": "bool",
          "name": "enabled",
          "type": "bool"
        }
      ],
      "name": "setTransferWhitelistEnabled",
      "outputs": [],
      "stateMutability": "nonpayable",
      "type": "function"
    },
    {
      "inputs": [
        {
          "internalType": "bytes4",
          "name": "interfaceId",
          "type": "bytes4"
        }
      ],
      "name": "supportsInterface",
      "outputs": [
        {
          "internalType": "bool",
          "name": "",
          "type": "bool"
        }
      ],
      "stateMutability": "view",
      "type": "function"
    },
    {
      "inputs": [],
      "name": "symbol",
      "outputs": [
        {
          "internalType": "string",
          "name": "",
          "type": "string"
        }
      ],
      "stateMutability": "pure",
      "type": "function"
    },
    {
      "inputs": [
        {
          "internalType": "uint256",
          "name": "",
          "type": "uint256"
        }
      ],
      "name": "tiers",
      "outputs": [
        {
          "internalType": "uint256",
          "name": "minUsdc6",
          "type": "uint256"
        },
        {
          "internalType": "uint256",
          "name": "attr",
          "type": "uint256"
        },
        {
          "internalType": "uint256",
          "name": "tierExpirySeconds",
          "type": "uint256"
        }
      ],
      "stateMutability": "view",
      "type": "function"
    },
    {
      "inputs": [
        {
          "internalType": "uint256",
          "name": "",
          "type": "uint256"
        }
      ],
      "name": "tokenTierIndexOrMax",
      "outputs": [
        {
          "internalType": "uint256",
          "name": "",
          "type": "uint256"
        }
      ],
      "stateMutability": "view",
      "type": "function"
    },
    {
      "inputs": [],
      "name": "totalActiveMemberships",
      "outputs": [
        {
          "internalType": "uint256",
          "name": "",
          "type": "uint256"
        }
      ],
      "stateMutability": "view",
      "type": "function"
    },
    {
      "inputs": [],
      "name": "totalMembershipIssued",
      "outputs": [
        {
          "internalType": "uint256",
          "name": "",
          "type": "uint256"
        }
      ],
      "stateMutability": "view",
      "type": "function"
    },
    {
      "inputs": [
        {
          "internalType": "uint256",
          "name": "",
          "type": "uint256"
        }
      ],
      "name": "totalMembershipIssuedByTierIndex",
      "outputs": [
        {
          "internalType": "uint256",
          "name": "",
          "type": "uint256"
        }
      ],
      "stateMutability": "view",
      "type": "function"
    },
    {
      "inputs": [],
      "name": "totalMembershipUpgraded",
      "outputs": [
        {
          "internalType": "uint256",
          "name": "",
          "type": "uint256"
        }
      ],
      "stateMutability": "view",
      "type": "function"
    },
    {
      "inputs": [],
      "name": "totalSupply",
      "outputs": [
        {
          "internalType": "uint256",
          "name": "",
          "type": "uint256"
        }
      ],
      "stateMutability": "view",
      "type": "function"
    },
    {
      "inputs": [
        {
          "internalType": "uint256",
          "name": "id",
          "type": "uint256"
        }
      ],
      "name": "totalSupply",
      "outputs": [
        {
          "internalType": "uint256",
          "name": "",
          "type": "uint256"
        }
      ],
      "stateMutability": "view",
      "type": "function"
    },
    {
      "inputs": [
        {
          "internalType": "address",
          "name": "newOwner",
          "type": "address"
        }
      ],
      "name": "transferOwnership",
      "outputs": [],
      "stateMutability": "nonpayable",
      "type": "function"
    },
    {
      "inputs": [
        {
          "internalType": "address",
          "name": "",
          "type": "address"
        }
      ],
      "name": "transferWhitelist",
      "outputs": [
        {
          "internalType": "bool",
          "name": "",
          "type": "bool"
        }
      ],
      "stateMutability": "view",
      "type": "function"
    },
    {
      "inputs": [],
      "name": "transferWhitelistEnabled",
      "outputs": [
        {
          "internalType": "bool",
          "name": "",
          "type": "bool"
        }
      ],
      "stateMutability": "view",
      "type": "function"
    },
    {
      "inputs": [
        {
          "internalType": "address",
          "name": "refereeAA",
          "type": "address"
        }
      ],
      "name": "unregisterReferee",
      "outputs": [],
      "stateMutability": "nonpayable",
      "type": "function"
    },
    {
      "inputs": [],
      "name": "upgradeType",
      "outputs": [
        {
          "internalType": "uint8",
          "name": "",
          "type": "uint8"
        }
      ],
      "stateMutability": "view",
      "type": "function"
    },
    {
      "inputs": [
        {
          "internalType": "uint256",
          "name": "",
          "type": "uint256"
        }
      ],
      "name": "uri",
      "outputs": [
        {
          "internalType": "string",
          "name": "",
          "type": "string"
        }
      ],
      "stateMutability": "view",
      "type": "function"
    }
  ],
  "bytecode": "0x60a06040523461051d5761653e8038038061001981610521565b92833981016101008282031261051d5781516001600160401b03811161051d5781610045918401610546565b50602082015191600983101561051d5760408101519061006760608201610597565b9361007460808301610597565b9260a08301519260ff841680940361051d5760c081015195861515870361051d5760e08201516001600160401b03811161051d576100b29201610546565b916020965f6100c089610521565b52600254600181811c91168015610513575b8982101461048857601f81116104e1575b505f6002556001600160a01b03169485156104ce57600380546001600160a01b03198116881790915586906001600160a01b03167f8be0079c531659141344cd1fd0a4f28419497f9722a3daafe3b4186f6b6457e05f80a3600160045560646019556001600160a01b0381169081159081156104c4575b506104b557600285116104a65733608052600580546001600160a01b03191682179055600680546001600160a81b03191690911760a09290921b60ff60a01b169190911790556007558051906001600160401b0382116103ab57601b5490600182811c9216801561049c575b878310146104885781601f849311610430575b508690601f83116001146103ca575f926103bf575b50508160011b915f199060031b1c191617601b555b620f42407f669d986a32f5e30674d7f66bb8d44cc28fe3e0e39e2f1cd4349a57cbd64d6cc855620f42407f22c0a15d444e21db16bbb52e03d65846fb96a18771ae18cefb26e2b75b089ee25560ff19601a541617601a5560017fbc488d3e2575f0f2113dc4d9a0cd6bc52445c6bc28a8974ed97a6ba3ecfd657a55805f527fbc488d3e2575f0f2113dc4d9a0cd6bc52445c6bc28a8974ed97a6ba3ecfd657b835260405f20600160ff198254161790555f51602061651e5f395f51905f5254680100000000000000008110156103ab5760018101805f51602061651e5f395f51905f5255811015610397575f51602061651e5f395f51905f525f9081528490200180546001600160a01b031916909117905564174876e8007ffed699897f2561c8a98f833aa3de83c4904370d413fe5fb15abe26e9f8150b295561035a575b604051615f7290816105ac82396080518161388f0152f35b7fc52867146282c253c04e94eb2a948478a1f7ef84cf2d6f5864facc99f2203f2c90600160ff19600a541617600a5560405160018152a15f610342565b634e487b7160e01b5f52603260045260245ffd5b634e487b7160e01b5f52604160045260245ffd5b015190505f806101ee565b601b5f9081528881209350601f198516905b8982821061041a575050908460019594939210610402575b505050811b01601b55610203565b01515f1960f88460031b161c191690555f80806103f4565b60018596829396860151815501950193016103dc565b828111156101d957909150601b5f52865f20601f840160051c90888510610480575b849392601f0160051c82900391015f5b8281106104705750506101d9565b5f81830155859450600101610462565b5f9150610452565b634e487b7160e01b5f52602260045260245ffd5b91607f16916101c6565b63c7e283e160e01b5f5260045ffd5b63ab82bb9960e01b5f5260045ffd5b90503b155f61015a565b631e4fbdf760e01b5f525f60045260245ffd5b80156100e35760025f52601f895f20910160051c905f5b8281106105065750506100e3565b5f828201556001016104f8565b90607f16906100d2565b5f80fd5b6040519190601f01601f191682016001600160401b038111838210176103ab57604052565b81601f8201121561051d578051906001600160401b0382116103ab57610575601f8301601f1916602001610521565b928284526020838301011161051d57815f9260208093018386015e8301015290565b51906001600160a01b038216820361051d5756fe60806040526004361015610019575b3415614bf4575b5f80fd5b5f3560e01c80629019b214610858578062fdd58e1461085357806301ffc9a71461084e578063039af9eb1461084957806303ca3e381461084457806304edc1a71461083f57806306fdde031461083a5780630a106e9c146108355780630a96cefa146108305780630b6c8d711461082b5780630cb85641146108265780630e4ab487146108215780630e89341c1461081c5780630ec3786b146108175780631018c34b1461081257806310bba8641461080d578063116191b6146107775780631284b92f14610808578063132220f01461080357806315c39d9d146107fe57806317c957091461066e57806318160ddd146107f95780631b09a97e146106e65780631c790e24146107f45780631fe56e6a146107ef57806324d7806c146107ea578063279181f3146107e55780632a27fc3c146107e05780632aff2a59146107db5780632b681a54146107d65780632d0da7d2146107d15780632dd50a49146107cc5780632df08b9c146107c75780632eb2c2d6146107c257806330617703146107bd57806333d4e562146107b85780633c703d45146107b35780633c970fb9146107ae57806343159ce5146107a95780634321976f146107a4578063475e53ec1461079f57806348ed7ebe1461079a5780634932c0d61461079557806349dd0900146107905780634a1fb4511461078b5780634dda2215146107865780634e1273f414610781578063523046911461077c57806353785619146107775780635476d07114610772578063562178481461076d5780635637d5bc14610768578063564da757146107635780635932ab261461075e5780635cae09f2146107595780636465c3a714610754578063671395c81461074f578063684cc3a51461074a5780636e636a8c14610745578063706e013214610740578063715018a61461073b57806371b8982f146105f15780637766fa44146107365780637d879f9b146107315780637e1ed94b1461072c5780637ffbe24114610727578063810b0e011461072257806382b720c91461071d57806383dbbf53146107185780638842fe4614610713578063897828a81461070e5780638a1b32bb146107095780638abc9b25146107045780638da5cb5b146106ff57806394b2e946146106fa5780639557ff44146106f55780639565c542146106f057806395d89b41146106eb578063976ae386146106e657806398951b56146106e15780639a1ffd55146106dc5780639d712e3b146106d75780639f1bbda7146106d25780639f3d1a2a146106cd5780639f48facc146106c8578063a22cb465146106c3578063a4790446146106be578063a657a65b146106b9578063a876c759146106b4578063a98d916e146106af578063aad3d45e146106aa578063acf12d3d146106a5578063af7ffa2b146106a0578063b676a96c1461069b578063b6c12c5f146105f6578063b9ad3aa714610696578063bd85b03914610691578063bdf70fd91461068c578063bf70f55914610687578063c163292e14610682578063c231c2a71461067d578063c926bbfd14610678578063cb94096914610673578063cb975e811461066e578063cc73bcbe14610669578063d05dcc6a1461065a578063d4506e7714610664578063d4772f521461065f578063d4b5d6031461065a578063d52dc51514610655578063d5f3948814610650578063d85fa3621461064b578063dd1bc5e914610646578063df1f44ac14610641578063df6811dd1461063c578063e221c8f314610637578063e2f9727114610632578063e4a34dce1461062d578063e5a6b10f14610628578063e5df8c2f14610623578063e985e9c51461061e578063ea2b867214610619578063eae134fd14610614578063ec1257711461060f578063ee3bb7b81461060a578063f141b0a114610605578063f242432a14610600578063f2fde38b146105fb578063f540f227146105f6578063f986f676146105f1578063fcef6b01146105ec578063fee3d73e146105e7578063ff9b25f4146105e25763ffa1ad740361000e5761403a565b613f82565b613f62565b613f45565b612675565b6133d2565b613ece565b613df4565b613d76565b613d5b565b613d09565b613c59565b613bba565b613b89565b613b1e565b613af2565b613ab4565b613a3c565b6139ea565b6139c3565b613933565b6138dd565b6138be565b61387a565b613858565b613749565b6137cb565b613773565b61371a565b611427565b6136ea565b6136d0565b6136a7565b613604565b6134b5565b613491565b613448565b6133fc565b613325565b6132b2565b613295565b613266565b613247565b61322a565b6131cf565b613167565b6130dc565b612f7e565b612ec7565b612eaa565b612e6f565b612e42565b612dc0565b61148d565b612d78565b612d50565b612cfd565b612cc2565b612c9a565b612bb9565b612b03565b612aa1565b612a22565b6129c0565b6128c8565b612888565b612848565b6127c0565b612790565b6126c2565b6125f5565b612576565b6124da565b61245c565b612421565b612394565b612335565b6122f4565b612281565b612266565b61223c565b61221f565b611275565b612161565b6120a0565b61203f565b61200f565b611fac565b611f28565b611e57565b611dca565b611cc8565b611b72565b611ae5565b611a9c565b611a6b565b611a08565b611974565b61179a565b61177b565b61174a565b611725565b6116a0565b61161d565b6115ba565b611585565b61155b565b6114bd565b611451565b6113ae565b611393565b611337565b611236565b6111d9565b61117d565b6110b6565b611068565b61100b565b610f53565b610e29565b610d26565b610c02565b610b8f565b610a4e565b6109e4565b61092b565b6108dd565b61086e565b6001600160a01b0381160361001557565b346100155760403660031901126100155760043561088b8161085d565b602435903033036108ce576040519182526001600160a01b0316907f3e38a9410c08ddb4af8b083bfd2b197b1c3e61a651bd1c54c51ebce0cdcdc48e90602090a2005b630fc5e1ab60e41b5f5260045ffd5b346100155760403660031901126100155760206109106004356108ff8161085d565b6024355f525f835260405f2061130d565b54604051908152f35b6001600160e01b031981160361001557565b3461001557602036600319011261001557602060043561094a81610919565b63ffffffff60e01b16636cdb3d1360e11b8114908115610988575b8115610977575b506040519015158152f35b6301ffc9a760e01b1490505f61096c565b6303a24d0760e21b81149150610965565b634e487b7160e01b5f52603260045260245ffd5b6017548110156109c95760175f52600360205f20910201905f90565b610999565b6040919493926060820195825260208201520152565b346100155760203660031901126100155760043560175481101561001557610a0b906109ad565b508054610a2760026001840154930154604051938493846109ce565b0390f35b606090600319011261001557600435610a438161085d565b906024359060443590565b3461001557610a5c36610a2b565b6006545f9391906001600160a01b031680610b1557506005546001600160a01b03165b6001600160a01b03163303610b0657610a96614c8b565b73__$3eaf591ed8966daf2821da51125ab266f1$__803b1561001557610ad6935f9360405195869485938493636f246bab60e11b85523060048601614055565b03915af48015610b0157610aee575b50600160045580f35b610afa91505f9061185f565b5f5f610ae5565b61407f565b6396f47d2360e01b5f5260045ffd5b610a7f565b6044359060ff8216820361001557565b9181601f84011215610015578235916001600160401b038311610015576020838186019501011161001557565b805180835260209291819084018484015e5f828201840152601f01601f1916010190565b906020610b8c928181520190610b57565b90565b346100155760403660031901126100155760043560ff81168103610015576024356001600160401b03811161001557610bcc903690600401610b2a565b913033036108ce57610be6610bec92610a27943691611923565b90614d05565b60405191829182610b7b565b5f91031261001557565b34610015575f366003190112610015576040515f601b548060011c91600182168015610cf7575b602084108114610ce35783855284926020840191908115610cca5750600114610c75575b50610c5a9250038261185f565b8051610c6c5750610a27610bec61408a565b610a2790610bec565b601b5f90815291507f3ad8aa4f87544323a9d1e5dd902f40c356527a7955687113db5f9a85ad579dc15b848310610cb35750610c5a9350015f610c4d565b805482840152859350602090920191600101610c9f565b60ff1916825250610c5a93151560051b0190505f610c4d565b634e487b7160e01b5f52602260045260245ffd5b92607f1692610c29565b604090600319011261001557600435610d198161085d565b90602435610b8c8161085d565b3461001557610d3436610d01565b6006545f92906001600160a01b031680610dc657506005546001600160a01b03165b6001600160a01b03163303610b065773__$3c477d5d68b513e5270f7570f908764970$__91823b156100155760405163055a8d8160e51b8152925f92849283918291610da69130600485016140b8565b03915af48015610b0157610db8575080f35b610dc491505f9061185f565b005b610d56565b90602080835192838152019201905f5b818110610de85750505090565b82516001600160a01b0316845260209384019390920191600101610ddb565b610e1f60409295949395606083526060830190610dcb565b9460208201520152565b346100155760403660031901126100155760405163054b677d60e11b81525f8180610e5c60243560048035908401612e31565b038173__$d22e98e2656d9a6189be97d809b75d9ca7$__5af48015610b01575f905f925f91610e97575b50610a279060405193849384610e07565b925050503d805f833e610eaa818361185f565b8101606082820312610015578151906001600160401b03821161001557610ed29183016140e6565b6020820151604090920151610a27610e86565b6060602091604081019381526040838201528451809452019201905f5b818110610f0f5750505090565b909192602060a06001926080875180518352848101518584015260408101516040840152606081015160608401520151151560808201520194019101919091610f02565b3461001557602036600319011261001557610f9c6020600435610f758161085d565b60055460405163805a016360e01b815293849283926001600160a01b031660048401614531565b038173__$a9219284c3f0d74f57f4dcfc58f5429559$__5af48015610b0157610fcc915f91610fdc575b50614217565b90610a2760405192839283610ee5565b610ffe915060203d602011611004575b610ff6818361185f565b81019061434b565b5f610fc6565b503d610fec565b34610015576040366003190112610015576004356110288161085d565b600654602435906001600160a01b03168061106357506005546001600160a01b03165b6001600160a01b03163303610b0657610dc491614d1e565b61104b565b3461001557602036600319011261001557600435611084614e4c565b7ff316e065e93b4fddef3d2d93a57817985081f76ea9e0ca7417ed5b4b086b1fcb6020601854604051908152a1601855005b34610015576020366003190112610015576110f55f6110d3614ea1565b604051809381926319c56d4160e21b8352604060048401526044830190610b57565b306024830152038173__$9326044641c87b14e434c703319e7fbd9b$__5af48015610b0157610a27915f91611132575b5060405191829182610b7b565b61114e91503d805f833e611146818361185f565b81019061414d565b5f611125565b60609060031901126100155760043561116c8161085d565b9060243590604435610b8c8161085d565b346100155761118b36611154565b6006549091906001600160a01b0316806111d457506005546001600160a01b03165b6001600160a01b03163303610b06576111cd926111c8614c8b565b614f10565b6001600455005b6111ad565b34610015576040366003190112610015576004356111f68161085d565b600654602435906001600160a01b03168061123157506005546001600160a01b03165b6001600160a01b03163303610b0657610dc491614f6d565b611219565b34610015575f36600319011261001557602060405160068152f35b6001600160a01b0316600452602490565b6001600160a01b03909116815260200190565b34610015575f366003190112610015576005546040516001600160a01b039091168152602090f35b6001600160a01b03165f9081527fbc488d3e2575f0f2113dc4d9a0cd6bc52445c6bc28a8974ed97a6ba3ecfd657b6020526040902090565b6001600160a01b03165f9081527fbe5c2328713858b26c97b83c5ace333ac35b55572be4794180ba426b12cc48c46020526040902090565b9060018060a01b03165f5260205260405f2090565b80548210156109c9575f5260205f2001905f90565b34610015576040366003190112610015576004356113548161085d565b6001600160a01b03165f908152600e60205260409020805460243591908210156100155760209161138491611322565b90549060031b1c604051908152f35b34610015575f36600319011261001557602060405160018152f35b34610015576040366003190112610015576004356113cb8161085d565b6024356001600160401b038111610015576113ea903690600401610b2a565b903033036108ce575f83838293610a27956040519283928337810184815203915af46114146141af565b5060405190151581529081906020820190565b34610015576020366003190112610015576004355f52600b602052602060405f2054604051908152f35b34610015575f3660031901126100155760207fd34312c2e21f45f2b6715cf87d9e919b2098c835582e2b5c6e716490b0dfd0d554604051908152f35b34610015576040366003190112610015576004356114aa8161085d565b6024353033036108ce57610dc4916148a8565b34610015575f6040366003190112610015576004356024356114de8161085d565b6006546001600160a01b03168061155657506005546001600160a01b03165b6001600160a01b03163303610b065773__$9c8bea727f7bd63306a827421d136dff37$__9061152a61503c565b91803b1561001557610da6935f9360405195869485938493634961ea3960e01b855230600486016141de565b6114fd565b34610015576020366003190112610015576004355f526011602052602060405f2054604051908152f35b3461001557602036600319011261001557602060ff6115ae6004356115a98161085d565b61129d565b54166040519015158152f35b34610015576060366003190112610015576024356004356115da8261085d565b604435913033036108ce576040519283526001600160a01b0316917fae2f87dbf103db294ddd4ab45caa7a914d70bb3d06eeb8a8dc23e03e84548c8d90602090a3005b34610015575f36600319011261001557604051630a89ff0f60e21b815260208160048173__$d22e98e2656d9a6189be97d809b75d9ca7$__5af4908115610b01575f91611671575b50604051908152602090f35b611693915060203d602011611699575b61168b818361185f565b810190614208565b5f611665565b503d611681565b34610015576116ae36610d01565b6006545f92906001600160a01b03168061172057506005546001600160a01b03165b6001600160a01b03163303610b065773__$3c477d5d68b513e5270f7570f908764970$__91823b1561001557604051638461257560e01b8152925f92849283918291610da69130600485016140b8565b6116d0565b3461001557602036600319011261001557610fcc6004356117458161085d565b614217565b3461001557602036600319011261001557602061091060043561176c8161085d565b5f80525f835260405f2061130d565b34610015576111cd61178c36611154565b91611795614c8b565b614375565b34610015576020366003190112610015576004356117b78161085d565b60018060a01b03165f527f22c0a15d444e21db16bbb52e03d65846fb96a18771ae18cefb26e2b75b089ee9602052602060405f2054604051908152f35b634e487b7160e01b5f52604160045260245ffd5b606081019081106001600160401b0382111761182357604052565b6117f4565b61010081019081106001600160401b0382111761182357604052565b60a081019081106001600160401b0382111761182357604052565b601f909101601f19168101906001600160401b0382119082101761182357604052565b604051906118926101008361185f565b565b6001600160401b0381116118235760051b60200190565b9080601f830112156100155781356118c281611894565b926118d0604051948561185f565b81845260208085019260051b82010192831161001557602001905b8282106118f85750505090565b81358152602091820191016118eb565b6001600160401b03811161182357601f01601f191660200190565b92919261192f82611908565b9161193d604051938461185f565b829481845281830111610015578281602093845f960137010152565b9080601f8301121561001557816020610b8c93359101611923565b346100155760a0366003190112610015576004356119918161085d565b6024359061199e8261085d565b6044356001600160401b038111610015576119bd9036906004016118ab565b6064356001600160401b038111610015576119dc9036906004016118ab565b608435939091906001600160401b03851161001557611a02610dc4953690600401611959565b9361454b565b3461001557602036600319011261001557600435611a258161085d565b6001600160a01b039081165f9081527f22c0a15d444e21db16bbb52e03d65846fb96a18771ae18cefb26e2b75b089ee16020908152604091829020549151919092168152f35b34610015576020366003190112610015576020611a92600435611a8d8161085d565b6145a4565b6040519015158152f35b34610015576020366003190112610015576004355f527ffed699897f2561c8a98f833aa3de83c4904370d413fe5fb15abe26e9f8150b30602052602060405f2054604051908152f35b34610015576040366003190112610015576111cd600435611b058161085d565b60243590611b11614c8b565b611b19614e4c565b601354601454604051635bcc7ca960e11b60208201526001600160a01b03909316602484015260448084019490945292825290611b6090611b5b60648261185f565b614cab565b506003546001600160a01b0316615103565b3461001557604036600319011261001557600435611b8f8161085d565b6024356006546001600160a01b031680611cc357506005546001600160a01b03165b6001600160a01b03163303610b0657611bc8614c8b565b9081906001600160a01b03811615611cb457611be390615164565b5f80805260205290611c07825f516020615f465f395f51905f5261130d565b61130d565b54908115611c7b575f1914611cac575b808311611c8a57508115611c7b57611c6e81611c54847fcfaedf921126ed75cd0b52e9418d816572c256b67104e03066bd3f067f2d53c0946151bd565b6040519384526001600160a01b0316929081906020820190565b0390a2610dc46001600455565b63201165f360e21b5f5260045ffd5b60405163406e3ab960e01b8152928392611ca892906004850161460c565b0390fd5b915081611c17565b63a9b8048960e01b5f5260045ffd5b611bb1565b3461001557608036600319011261001557600435611ce58161085d565b60443590602435606435611cf88161085d565b6006546001600160a01b031680611dc557506005546001600160a01b03165b6001600160a01b03163303610b0657611d2e614c8b565b6007549273__$ff68ecfc9a6b7df0c313e683766fad5a92$__803b15610015575f9460c4936040519788968795639120622d60e01b875230600488015260018060a01b031660248701526044860152606485015260018060a01b0316608484015260a48301525af48015610b0157611dab575b610dc46001600455565b80611db95f611dbf9361185f565b80610bf8565b5f611da1565b611d17565b3461001557611dd836610a2b565b6006545f9391906001600160a01b031680611e5257506005546001600160a01b03165b6001600160a01b03163303610b0657611e12614c8b565b73__$ff68ecfc9a6b7df0c313e683766fad5a92$__803b1561001557610ad6935f93604051958694859384936302f46e9b60e41b85523060048601614055565b611dfb565b3461001557611e6536611154565b6006549192916001600160a01b031680611f2357506005546001600160a01b03165b6001600160a01b03163303610b0657611e9e614c8b565b611eb8611eb4611ead8361129d565b5460ff1690565b1590565b611f145773__$91c961bf2335aa1fea43924da854687380$__803b1561001557611efc935f936040519586948593849363298a0b4f60e01b855230600486016141de565b03915af48015610b0157611dab57610dc46001600455565b6363bc5ecb60e11b5f5260045ffd5b611e87565b346100155760203660031901126100155760405163272048d960e01b8152600480359082015260208160248173__$d22e98e2656d9a6189be97d809b75d9ca7$__5af48015610b0157610a27915f91611f8d575b506040519081529081906020820190565b611fa6915060203d6020116116995761168b818361185f565b5f611f7c565b3461001557602036600319011261001557600435611fc98161085d565b6001600160a01b039081165f9081527fbc488d3e2575f0f2113dc4d9a0cd6bc52445c6bc28a8974ed97a6ba3ecfd65816020908152604091829020549151919092168152f35b346100155760403660031901126100155760043561202c8161085d565b6024353033036108ce57610dc4916151f4565b34610015575f366003190112610015576020600754604051908152f35b90602080835192838152019201905f5b8181106120795750505090565b825184526020938401939092019160010161206c565b906020610b8c92818152019061205c565b34610015576040366003190112610015576004356001600160401b0381116100155736602382011215610015578060040135906120dc82611894565b916120ea604051938461185f565b8083526024602084019160051b8301019136831161001557602401905b82821061214757836024356001600160401b03811161001557610a279161213561213b9236906004016118ab565b90614698565b6040519182918261208f565b6020809183356121568161085d565b815201910190612107565b346100155760203660031901126100155760043561217e8161085d565b61218661523a565b61218f81615269565b73__$d22e98e2656d9a6189be97d809b75d9ca7$__90813b1561001557604051635230469160e01b81526001600160a01b0390911660048201819052915f90829060249082905af48015610b015761220b575b5033907fb414de90006d2f0dee7e12639f50b309b8fbca8e8e9323c07fd358cef0ce92085f80a3005b80611db95f6122199361185f565b5f6121e2565b34610015575f366003190112610015576020601554604051908152f35b34610015576020366003190112610015576004355f526012602052602060405f2054604051908152f35b34610015575f36600319011261001557602060405160648152f35b34610015575f60403660031901126100155760043561229f8161085d565b602435906122ab614c8b565b6122b3614e4c565b73__$91c961bf2335aa1fea43924da854687380$__91823b1561001557604051636042127160e11b8152925f92849283918291610ad6913060048501614712565b34610015576020366003190112610015576004356123118161085d565b3033036108ce57612323602091615164565b6040516001600160a01b039091168152f35b34610015576020366003190112610015576004356123528161085d565b60018060a01b03165f527f22c0a15d444e21db16bbb52e03d65846fb96a18771ae18cefb26e2b75b089ee0602052602060ff60405f2054166040519015158152f35b34610015576123a236610a2b565b6006545f9391906001600160a01b03168061241c57506005546001600160a01b03165b6001600160a01b03163303610b06576123dc614c8b565b73__$3eaf591ed8966daf2821da51125ab266f1$__803b1561001557610ad6935f936040519586948593849363379d191f60e01b85523060048601614055565b6123c5565b346100155760203660031901126100155760043561243e8161085d565b60018060a01b03165f52600f602052602060405f2054604051908152f35b34610015576020366003190112610015576004355f527ffed699897f2561c8a98f833aa3de83c4904370d413fe5fb15abe26e9f8150b2d602052602060405f2054604051908152f35b906060926124c26124d09297969597608085526080850190610dcb565b90838203602085015261205c565b9460408201520152565b3461001557604036600319011261001557604051631b98daa360e21b81525f818061250d60243560048035908401612e31565b038173__$d22e98e2656d9a6189be97d809b75d9ca7$__5af48015610b01575f5f915f5f91612548575b90610a2791604051948594856124a5565b5050505061256a610a27913d805f833e612562818361185f565b810190614791565b91935083929190612537565b346100155761258436610a2b565b61258f929192614c8b565b612597614e4c565b6001600160a01b03821615611cb4578015611c7b576125ca73__$ff68ecfc9a6b7df0c313e683766fad5a92$__92615164565b91803b1561001557611efc935f9360405195869485938493626fbc3360e31b85523060048601614055565b34610015575f3660031901126100155761260d615345565b600380546001600160a01b031981169091555f906001600160a01b03165f516020615f265f395f51905f528280a3005b604060031982011261001557600435906001600160401b0382116100155761266791600401610b2a565b9091602435610b8c8161085d565b34610015576126833661263d565b6006549091906001600160a01b0316806126bd57506005546001600160a01b03165b6001600160a01b03163303610b0657610dc4926147e8565b6126a5565b34610015576126d03661263d565b6006546001600160a01b03168061278b57506005546001600160a01b03165b6001600160a01b03163303610b0657612706614c8b565b73__$14fcd45fd929aea0b8f272435d174b619d$__61272361503c565b93813b15610015575f9361275c936040519687958694859463add0055d60e01b8652306004870152608060248701526084860191614875565b6001600160a01b0392831660448501529116606483015203915af48015610b0157611dab57610dc46001600455565b6126ef565b34610015576040366003190112610015576004356127ad8161085d565b6024353033036108ce57610dc49161536c565b346100155760c0366003190112610015576004356127dd8161085d565b602435906127ea8261085d565b604435916064359060843560a435913033036108ce576128437fd8315aa093986599acfce9ddc9df890135154ffe58abebb49d1874c03575f9d99360405193849360018060a01b03169760018060a01b031696846109ce565b0390a4005b34610015576020366003190112610015576004356128658161085d565b60018060a01b03165f526009602052602060ff60405f2054166040519015158152f35b346100155760403660031901126100155760206113846004356128aa8161085d565b6001600160a01b03165f908152600e83526040902060243590611322565b346100155760a0366003190112610015576004356128e581610919565b6024356128f18161085d565b604435606435906084356006549093906001600160a01b0316806129bb57506005546001600160a01b03165b6001600160a01b03163303610b065761293461503c565b6040516333033a9960e21b81523060048201526001600160a01b0391821660248201526001600160e01b03199096166044870152166064850152608484015260a483015260c482015260208160e48173__$9c8bea727f7bd63306a827421d136dff37$__5af48015610b0157610a27915f91611f8d57506040519081529081906020820190565b61291d565b34610015576020366003190112610015576004356129dc614e4c565b8015612a13576020817fd45b01a2f21a7aa8a0f57023efdce73147de071e77875c3f4d486b1e13eaef7092600755604051908152a1005b6376024b7160e01b5f5260045ffd5b3461001557612a3036610a2b565b6040516344217f2360e11b81526001600160a01b039093166004840152602483019190915260448201525f8160648173__$d22e98e2656d9a6189be97d809b75d9ca7$__5af48015610b01575f5f915f5f916125485790610a2791604051948594856124a5565b8015150361001557565b34610015576020366003190112610015577fc52867146282c253c04e94eb2a948478a1f7ef84cf2d6f5864facc99f2203f2c6020600435612ae181612a97565b612ae9614e4c565b151560ff19600a541660ff821617600a55604051908152a1005b3461001557602036600319011261001557600435612b208161085d565b6006546001600160a01b031680612bb457506005546001600160a01b03165b6001600160a01b03163303610b065773__$3c477d5d68b513e5270f7570f908764970$__90813b1561001557604051630c94249760e21b81523060048201526001600160a01b039091166024820152905f90829060449082905af48015610b0157612ba657005b80611db95f610dc49361185f565b612b3f565b3461001557606036600319011261001557604435600435602435612bdb614e4c565b8115612c8b576017549060405193612bf285611808565b83855260208501918083526040860195828752600160401b8510156118235760018501601755612c21856109ad565b919091612c86577fc9553df3224b08515381089b4a0e07d62144ba87c402485fabd66899cadc2ab197612c819560029251845551600184015551910155604051948594859094939260609260808301968352602083015260408201520152565b0390a1005b614895565b639033099360e01b5f5260045ffd5b34610015575f366003190112610015576003546040516001600160a01b039091168152602090f35b3461001557602036600319011261001557600435612cdf8161085d565b60018060a01b03165f526010602052602060405f2054604051908152f35b34610015575f36600319011261001557604051632555ffd160e21b815260208160048173__$d22e98e2656d9a6189be97d809b75d9ca7$__5af4908115610b01575f916116715750604051908152602090f35b34610015575f366003190112610015576006546040516001600160a01b039091168152602090f35b34610015575f36600319011261001557610a27604051612d9960408261185f565b60068152654245414d494f60d01b6020820152604051918291602083526020830190610b57565b34610015575f60203660031901126100155760043560ff612de03361129d565b541615611f145773__$9c8bea727f7bd63306a827421d136dff37$__90612e0561503c565b90823b1561001557604051633225b39f60e01b8152925f92849283918291610da6913060048501614712565b908152602081019190915260400190565b34610015575f366003190112610015573033036108ce5760135460145490610a2760405192839283612e31565b3461001557602036600319011261001557600435612e8c8161085d565b60018060a01b03165f52600e602052602060405f2054604051908152f35b34610015575f366003190112610015576020600854604051908152f35b34610015575f36600319011261001557610a27612ee2614ea1565b604051918291602083526020830190610b57565b81516001600160401b039081168252602080840151909116908201526040808301516001600160801b03908116918301919091526060808401519091169082015261010081019291611892919060e090819060808181015115159085015260a08181015160ff169085015260c08181015160ff169085015201516001600160801b0316910152565b34610015576020366003190112610015576004355f60e0604051612fa181611828565b8281528260208201528260408201528260608201528260808201528260a08201528260c082015201525f527fe5fcefe92466b78c655fa732b80b16e07a00f2a897e833e17d9914703cad5632602052610a2760405f206130ab61309b60026040519361300c85611828565b80546001600160401b038082168752604082901c16602087015261303d9060801c6001600160801b03166040870152565b60018101546001600160801b038116606087015261308d906130839061306d608082901c60ff16151560808a0152565b60ff608882901c1660a089015260901c60ff1690565b60ff1660c0870152565b01546001600160801b031690565b6001600160801b031660e0830152565b60405191829182612ef6565b6040906003190112610015576004356130cf8161085d565b90602435610b8c81612a97565b34610015576130ea366130b7565b6001600160a01b038216918215613155578161311461312592335f52600160205260405f2061130d565b9060ff801983541691151516179055565b60405190151581527f17307eab39ab6107e8899845ad3d59bd9653f200f220920489ca2b5937696c3160203392a3005b62ced3e160e81b5f525f60045260245ffd5b34610015576040366003190112610015576004356001600160401b0381116100155736602382011215610015576004810135906001600160401b038211610015573660248360051b8301011161001557610dc49160248035926131c98461085d565b016148d4565b34610015576020366003190112610015576004356001600160401b03811161001557366023820112156100155760048101356001600160401b038111610015573660246060830284010111610015576024610dc49201614add565b34610015575f366003190112610015576020601854604051908152f35b34610015575f36600319011261001557602060405164174876e8008152f35b34610015575f366003190112610015573033036108ce576003546040516001600160a01b039091168152602090f35b34610015575f366003190112610015576020601354604051908152f35b34610015576040366003190112610015576004356132cf8161085d565b60065460243591906001600160a01b03168061332057506005546001600160a01b03165b6001600160a01b03163303610b06576111cd9161330e614c8b565b6003546001600160a01b031691614f10565b6132f3565b34610015576040366003190112610015576007546040805163cc383d9f60e01b8152918290819061335f90602435600480359085016109ce565b038173__$ff68ecfc9a6b7df0c313e683766fad5a92$__5af4908115610b01575f905f92613398575b50610a2760405192839283612e31565b9150506040813d6040116133ca575b816133b46040938361185f565b810103126100155760208151910151905f613388565b3d91506133a7565b34610015576020366003190112610015576004355f52600d602052602060405f2054604051908152f35b34610015575f366003190112610015573033036108ce5760ff60065460a01c1660098110156134345760405160ff9091168152602090f35b634e487b7160e01b5f52602160045260245ffd5b34610015576020366003190112610015576004355f527fd34312c2e21f45f2b6715cf87d9e919b2098c835582e2b5c6e716490b0dfd0d4602052602060405f2054604051908152f35b34610015575f366003190112610015573033036108ce576020600754604051908152f35b34610015576134c336610a2b565b913033036108ce57602092604051926134dc858561185f565b5f84526001600160a01b0383169182156135f1576134f991615924565b916135068383865f6155eb565b815160010361352357509380610dc4950151910151915f33615e47565b83949192933b61352f57005b613555935f87946040519687958694859363bc197c8160e01b8552853360048701615dbb565b03925af15f91816135c2575b50613593575061356f6141af565b805192908361358e57632bfa23e760e11b5f5261358b83611251565b5ffd5b019050fd5b9091506001600160e01b0319166343e6837f60e01b016135af57005b632bfa23e760e11b5f5261358b90611251565b6135e3919250843d86116135ea575b6135db818361185f565b810190615da6565b905f613561565b503d6135d1565b632bfa23e760e11b5f525f60045260245ffd5b34610015576020366003190112610015576004356136218161085d565b61362961523a565b73__$d22e98e2656d9a6189be97d809b75d9ca7$__90813b15610015576040516360b1949760e11b81526001600160a01b0390911660048201819052915f90829060249082905af48015610b0157613693575b505f33915f516020615ee65f395f51905f528280a4005b80611db95f6136a19361185f565b5f61367c565b34610015575f3660031901126100155760205f516020615f065f395f51905f5254604051908152f35b34610015575f3660031901126100155760206040515f8152f35b34610015576040366003190112610015576004356137078161085d565b6024353033036108ce57610dc491614b7a565b34610015576020366003190112610015576004356137378161085d565b3033036108ce57611a926020916154a7565b34610015576020366003190112610015576004355f52600c602052602060405f2054604051908152f35b346100155760203660031901126100155760043561378f614e4c565b7f1c8121c98d871a1523a6112e29ac660378afbcb9b921cff8f187c3da35d17081816008546137c360405192839283612e31565b0390a1600855005b346100155760a0366003190112610015576004356137e88161085d565b6024356137f48161085d565b6137fc610b1a565b90606435608435913033036108ce577faec7eac010683474b50da2ca2793836009e34ef09022b5ec5d16de3342dbb7469260609260ff604051961686526020860152604085015260018060a01b03169360018060a01b031692a3005b34610015575f36600319011261001557602060ff600a54166040519015158152f35b34610015575f366003190112610015576040517f00000000000000000000000000000000000000000000000000000000000000006001600160a01b03168152602090f35b34610015576138cc36610a2b565b903033036108ce57610dc492615103565b34610015576020366003190112610015576004355f526016602052602060405f2054604051908152f35b60609060031901126100155760043561391f8161085d565b9060243561392c8161085d565b9060443590565b346100155761394136613907565b91903033036108ce575f808052602052613968825f516020615f465f395f51905f5261130d565b548084116139a55750613979614630565b90613982614630565b928251156109c9575f60208401528351156109c957610dc49460208501526155eb565b82611ca88560405193849363406e3ab960e01b85526004850161460c565b34610015575f366003190112610015573033036108ce57602060ff601a5416604051908152f35b34610015576139f836613907565b903033036108ce576040519182526001600160a01b039081169216907f6ac4f60455173f2148d89d52868ac4ffb14111720d245aa36ad26e0d7e64c59b90602090a3005b3461001557602036600319011261001557600435613a598161085d565b60405163e2f9727160e01b81526001600160a01b03909116600482015260208160248173__$d22e98e2656d9a6189be97d809b75d9ca7$__5af48015610b0157610a27915f91611f8d57506040519081529081906020820190565b3461001557610dc4613ac5366130b7565b90613ace614e4c565b60018060a01b03165f52600960205260405f209060ff801983541691151516179055565b34610015575f3660031901126100155760ff60065460a01c166040516009821015613434576020918152f35b34610015576020366003190112610015577f22347ec833323e597ceae8cffe5b0b7024b50a318357296b6ad3a548e1c66ec7600435613b5b61523a565b5f516020615f065f395f51905f5254815f516020615f065f395f51905f5255612c8160405192839283612e31565b3461001557602060ff6115ae613b9e36610d01565b6001600160a01b039091165f908152600185526040902061130d565b34610015575f604036600319011261001557600435613bd88161085d565b60065460243591906001600160a01b031680613c5457506005546001600160a01b03165b6001600160a01b03163303610b0657613c13614c8b565b73__$ff68ecfc9a6b7df0c313e683766fad5a92$__91823b15610015576040516351aa172f60e01b8152925f92849283918291610ad6913060048501614712565b613bfc565b3461001557613c6736610d01565b90613c7061523a565b613c7981615269565b613c8282615269565b73__$d22e98e2656d9a6189be97d809b75d9ca7$__803b15610015575f604051809263eae134fd60e01b82528180613cbe888860048401614531565b03915af48015610b0157613cf0575b5033916001600160a01b0390811691165f516020615ee65f395f51905f525f80a4005b80613cfc5f809361185f565b800312610015575f613ccd565b3461001557613d1736613907565b903033036108ce576040519182526001600160a01b039081169216907f01ff503732e46b833fc2900bbc89c476968a545f18c9ec757e33526c88b4002e90602090a3005b34610015575f36600319011261001557602060405160028152f35b346100155760a036600319011261001557602435600435613d968261085d565b60443590613da38261085d565b606435916084353033036108ce576040516001600160a01b0392831695909216937f3bf2de114e2e7636c289f21be023528e47d89b45e873b976c78989c3ddc683f592918291612843919083612e31565b346100155760a036600319011261001557600435613e118161085d565b602435613e1d8161085d565b60443590606435926084356001600160401b03811161001557613e44903690600401611959565b926001600160a01b0382163381141580613eae575b613e98576001600160a01b038416156135f15715613e8657610dc494613e7e91615924565b929091615720565b626a0d4560e21b5f525f60045260245ffd5b63711bec9160e11b5f523360045260245260445ffd5b50805f52600160205260ff613ec63360405f2061130d565b541615613e59565b3461001557602036600319011261001557600435613eeb8161085d565b613ef3615345565b6001600160a01b03168015613f3257600380546001600160a01b0319811683179091556001600160a01b03165f516020615f265f395f51905f525f80a3005b631e4fbdf760e01b5f525f60045260245ffd5b34610015575f366003190112610015576020601454604051908152f35b34610015575f36600319011261001557602060ff601a5416604051908152f35b3461001557602036600319011261001557600435613f9f8161085d565b613fa761523a565b73__$d22e98e2656d9a6189be97d809b75d9ca7$__90813b156100155760405160016219368360e21b031981526001600160a01b0390911660048201819052915f90829060249082905af48015610b0157614026575b5033907fd6aa15bb31cca0774d36bdd90707bb8705e5031d7392febcb7678dd8e1c9c2405f80a3005b80611db95f6140349361185f565b5f613ffd565b34610015575f366003190112610015576020604051601b8152f35b6001600160a01b039182168152911660208201526040810191909152606081019190915260800190565b6040513d5f823e3d90fd5b6040519061409960408361185f565b601082526f1099585b5a5bc8155cd95c8810d85c9960821b6020830152565b6001600160a01b0391821681529181166020830152909116604082015260600190565b51906118928261085d565b9080601f830112156100155781516140fd81611894565b9261410b604051948561185f565b81845260208085019260051b82010192831161001557602001905b8282106141335750505090565b6020809183516141428161085d565b815201910190614126565b602081830312610015578051906001600160401b038211610015570181601f820112156100155780519061418082611908565b9261418e604051948561185f565b8284526020838301011161001557815f9260208093018386015e8301015290565b3d156141d9573d906141c082611908565b916141ce604051938461185f565b82523d5f602084013e565b606090565b6001600160a01b039182168152918116602083015260408201929092529116606082015260800190565b90816020910312610015575190565b604051630789b7b160e51b81523060048201526001600160a01b039091166024820152905f8260448173__$c358c1027d02ab1c17f0ade0d7945ec897$__5af4918215610b01575f905f9361426b57509190565b9250503d805f843e61427d818461185f565b820191604081840312610015578051602082015190916001600160401b038211610015570183601f82011215610015578051906142b982611894565b946142c7604051968761185f565b828652602060a081880194028301019181831161001557602001925b8284106142f257505050509190565b60a08483031261001557602060a09160405161430d81611844565b8651815282870151838201526040870151604082015260608701516060820152608087015161433b81612a97565b60808201528152019301926142e3565b908160209103126100155751610b8c8161085d565b908160209103126100155751610b8c81612a97565b9190801561452c576001600160a01b038316928315611cb4576001600160a01b03831615611cb45760405163c45a015560e01b8152602081600481885afa908115610b01575f9161450d575b506001600160a01b03168015611cb45760405163054c14ed60e51b8152602081600481855afa908115610b01575f916144ee575b506001600160a01b031680156144df5733036144d15761442d9160209160405180809581946303330c7960e41b835260048301611262565b03915afa908115610b01575f916144a2575b501561449357602060049360405194858092638da5cb5b60e01b82525afa8015610b0157611892935f91614474575b50614f10565b61448d915060203d60201161100457610ff6818361185f565b5f61446e565b632ad05f3360e11b5f5260045ffd5b6144c4915060203d6020116144ca575b6144bc818361185f565b810190614360565b5f61443f565b503d6144b2565b62645ab960e51b5f5260045ffd5b63ab82bb9960e01b5f5260045ffd5b614507915060203d60201161100457610ff6818361185f565b5f6143f5565b614526915060203d60201161100457610ff6818361185f565b5f6143c1565b505050565b6001600160a01b0391821681529116602082015260400190565b939291906001600160a01b0385163381141580614584575b613e98576001600160a01b038216156135f15715613e865761189294615720565b50805f52600160205260ff61459c3360405f2061130d565b541615614563565b60ff600a541615614606575f805260096020527fec8156718a8372b1db44bb411437d0870f3e3790d4a08526d024ce1b0b668f6b5460ff169081156145e7575090565b6001600160a01b03165f9081526009602052604090205460ff16919050565b50600190565b606091949392608082019560018060a01b031682525f602083015260408201520152565b60408051909190614641838261185f565b6001815291601f1901366020840137565b9061465c82611894565b614669604051918261185f565b828152809261467a601f1991611894565b0190602036910137565b80518210156109c95760209160051b010190565b919091805183518082036146fd5750506146b28151614652565b905f5b81518110156146f657806146e460019260051b602080828701015191890101515f525f60205260405f2061130d565b546146ef8286614684565b52016146b5565b5090925050565b635b05999160e01b5f5260045260245260445ffd5b6001600160a01b03918216815291166020820152604081019190915260600190565b9080601f8301121561001557815161474b81611894565b92614759604051948561185f565b81845260208085019260051b82010192831161001557602001905b8282106147815750505090565b8151815260209182019101614774565b9190916080818403126100155780516001600160401b03811161001557836147ba9183016140e6565b602082015190936001600160401b038211610015576147da918301614734565b916060604083015192015190565b906147f1614c8b565b73__$14fcd45fd929aea0b8f272435d174b619d$__803b15610015575f9261483e92604051958694859384936379616bbd60e11b8552306004860152606060248601526064850191614875565b6001600160a01b03909116604483015203915af48015610b0157614865575b506001600455565b5f61486f9161185f565b5f61485d565b908060209392818452848401375f828201840152601f01601f1916010190565b634e487b7160e01b5f525f60045260245ffd5b906001600160a01b0382161580156148cc575b6148c857611892916153a1565b5050565b5080156148bb565b600654909291906001600160a01b031680614a1a57506005546001600160a01b03165b6001600160a01b03163303610b065761490e614c8b565b73__$14fcd45fd929aea0b8f272435d174b619d$__91823b15610015579290604051938492633d88d6a560e11b8452826064850130600487015260606024870152526084840160848460051b86010193825f90601e19813603015b8383106149bb575050506001600160a01b039093166044860152505f949284925082915003915af48015610b01576149a7575b506118926001600455565b80611db95f6149b59361185f565b5f61499c565b9193959690929497506083198a8203018652873582811215610015578301602081019190356001600160401b03811161001557803603831361001557614a076020928392600195614875565b9901960193019091899796959492614969565b6148f7565b91908110156109c9576060020190565b634e487b7160e01b5f52601160045260245ffd5b6017545f60175580614a525750565b80600302906003820403614a905760175f5260205f205f5b828110614a7657505050565b805f60026003938501828155826001820155015501614a6a565b614a2f565b601754600160401b81101561182357600181016017556017548110156109c957604060029160175f52600360205f209102019280358455602081013560018501550135910155565b614ae5614e4c565b8115614b6b575f5b828110614b525750614afd614a43565b5f5b828110614b365750506040519081527f2f291eaf494dc7eca20457441a1df7d9119f0c0d764309daf9cb6b148810ee3690602090a1565b80614b4c614b476001938686614a1f565b614a95565b01614aff565b614b5d818484614a1f565b3515612c8b57600101614aed565b6308ba5b6160e01b5f5260045ffd5b6001600160a01b03165f908152600e60205260408120805490915b818110614bcf5750600160401b81101561182357614bb891600182018155611322565b819291549060031b91821b915f19901b1916179055565b83614bda8285611322565b90549060031b1c14614bee57600101614b95565b50505050565b600554604051635f62570d60e11b81526001600160a01b0390911660048201526001600160e01b03195f3516602482015260208160448173__$071cf681b03e9c24fcf6005bc28358a856$__5af4908115610b01575f9182918291614c6c575b50368280378136915af43d90815f803e1561358b575ff35b614c85915060203d60201161100457610ff6818361185f565b5f614c54565b600260045414614c9c576002600455565b633ee5aeb560e01b5f5260045ffd5b5f8091614cb860046150aa565b602082519201905af490614cca6141af565b9115614cd257565b5080519081614d005760405163dccff66960e01b815260206004820152908190611ca8906024830190610b57565b602001fd5b5f91614cb883926150aa565b91908201809211614a9057565b906001600160a01b03821680158015614e44575b61452c575f527fbe5c2328713858b26c97b83c5ace333ac35b55572be4794180ba426b12cc48be60205260405f20805492828401809411614a9057600893614d7a92556112d5565b610e1042045f5260205260405f209060098201614d9b611eb4825460ff1690565b614e35575b50614dac5f8354614d11565b8255614dbd60018301918254614d11565b905560028101614dce5f8254614d11565b905560038101614ddf5f8254614d11565b905560048101614df05f8254614d11565b905560058101614e015f8254614d11565b905560068101614e125f8254614d11565b905560078101614e235f8254614d11565b905501614e315f8254614d11565b9055565b614e3e90615394565b5f614da0565b508115614d32565b6006546001600160a01b031680614e9c57506005546001600160a01b03165b6003546001600160a01b03163314159081614e88575b506108ce57565b6001600160a01b031633141590505f614e81565b614e6b565b6005546001600160a01b03168015818115614f06575b506144df575f60049160405192838092634f9e8d1560e11b82525afa908115610b01575f91614eec575b508051156144df5790565b614f0091503d805f833e611146818361185f565b5f614ee1565b90503b155f614eb7565b909173__$91c961bf2335aa1fea43924da854687380$__803b1561001557614f52935f936040519586948593849363f3523b7360e01b855230600486016141de565b03915af48015610b0157614f635750565b5f6118929161185f565b906001600160a01b03821680158015615034575b61452c575f527fbe5c2328713858b26c97b83c5ace333ac35b55572be4794180ba426b12cc48bf60205260405f20805492828401809411614a9057600893614fdf9255614fd2610e104204916112d5565b905f5260205260405f2090565b9060098201614ff2611eb4825460ff1690565b615025575b506150035f8354614d11565b8255600182016150145f8254614d11565b9055614dce60028301918254614d11565b61502e90615394565b5f614ff7565b508115614f81565b600554604051636664034560e11b81526001600160a01b0390911660048201526003602482015260208160448173__$071cf681b03e9c24fcf6005bc28358a856$__5af4908115610b01575f91615091575090565b610b8c915060203d60201161100457610ff6818361185f565b600554604051636664034560e11b81526001600160a01b03909116600482015260ff91909116602482015260208160448173__$071cf681b03e9c24fcf6005bc28358a856$__5af4908115610b01575f91615091575090565b9160135482810391818311614a90576014549080820394828611614a90576001600160a01b03871615938415615145575b5050505061452c576118929261582b565b149250908261515a575b50505f808080615134565b1490505f8061514f565b6005546040516306e0faf160e21b8152916020918391829161519391906001600160a01b031660048401614531565b038173__$a9219284c3f0d74f57f4dcfc58f5429559$__5af4908115610b01575f91615091575090565b906001600160a01b03821615613e8657611892916151dc5f9283615924565b929091816040516151ee60208261185f565b526155eb565b81156148c857615203906154a7565b61523757601754156152375761521f61521a615949565b6109ad565b50541161522857565b63559d06d760e01b5f5260045ffd5b50565b6003546001600160a01b031633141580615255575b6108ce57565b5060ff6152613361129d565b54161561524f565b6001600160a01b03811615611cb4576005546004906020906152a190615295906001600160a01b031681565b6001600160a01b031690565b604051630e83251360e01b815292839182905afa918215610b01576152e6926020925f91615328575b5060405180809581946303330c7960e41b835260048301611262565b03916001600160a01b03165afa908115610b01575f91615309575b501561449357565b615322915060203d6020116144ca576144bc818361185f565b5f615301565b61533f9150833d851161100457610ff6818361185f565b5f6152ca565b6003546001600160a01b0316330361535957565b63118cdaa760e01b5f523360045260245ffd5b906001600160a01b03821615801561538c575b6148c857611892916159c7565b50801561537f565b805460ff19166001179055565b906001600160a01b0382168015801561549f575b61452c575f527fbe5c2328713858b26c97b83c5ace333ac35b55572be4794180ba426b12cc48c360205260405f20805492828401809411614a90576008936154069255614fd2610e104204916112d5565b9060098201615419611eb4825460ff1690565b615490575b5061542a5f8354614d11565b82556001820161543b5f8254614d11565b90556002820161544c5f8254614d11565b90556003820161545d5f8254614d11565b90556004820161546e5f8254614d11565b90556005820161547f5f8254614d11565b9055614e1260068301918254614d11565b61549990615394565b5f61541e565b5081156153b5565b6001600160a01b0381165f908152600f602052604090205480151591826154f7575b50816154d3575090565b90505f52600b60205260405f205480151590816154ef57501590565b905042111590565b8161550d9293505f525f60205260405f2061130d565b541515905f6154c9565b6001600160a01b0391821681529181166020830152909116604082015260c0606082018190529092615560929091615552919085019061205c565b90838203608085015261205c565b81810360a09092019190915281516001600160a01b039081168252602080840151909116908201526040828101516001600160a01b031690820152606082015160608201526080820151608082015260e0806155e26155d060a086015161010060a0870152610100860190610dcb565b60c086015185820360c087015261205c565b93015191015290565b9190915f60e06040516155fd81611828565b828152826020820152826040820152826060820152826080820152606060a0820152606060c08201520152825f8261563c60055460018060a01b031690565b61565c8887604051998a958695637bd8ece960e11b875260048701615b82565b038173__$a9219284c3f0d74f57f4dcfc58f5429559$__5af4938415610b01575f946156fc575b50835161569d90869085906001600160a01b031685615bed565b73__$22d83b6ff1da5ba98b89a83b211093667b$__91823b15610015576156dd5f95604051978896879586956304c70af760e31b87523060048801615517565b03915af48015610b01576156ee5750565b80611db95f6118929361185f565b6157199194503d805f833e615711818361185f565b810190615abc565b925f615683565b9193929093615731828287866155eb565b6001600160a01b03851680615749575b505050505050565b81516001036157725750936020806157679601519201519233615e47565b5f8080808080615741565b90853b615785575b505050505050615767565b5f6020946157aa6040519788968795869463bc197c8160e01b86523360048701615dbb565b03925af15f918161580a575b506157e757506157c46141af565b80519190826157e057632bfa23e760e11b5f5261358b82611251565b6020915001fd5b6001600160e01b0319166343e6837f60e01b016135af57505f808080808061577a565b61582491925060203d6020116135ea576135db818361185f565b905f6157b6565b6001600160a01b038116158015615913575b61452c57614e31916158506008926112d5565b610e1042045f5260205260405f209060098201615871611eb4825460ff1690565b615904575b506158825f8354614d11565b8255600182016158935f8254614d11565b9055600282016158a45f8254614d11565b9055600382016158b55f8254614d11565b9055600482016158c65f8254614d11565b9055600582016158d75f8254614d11565b9055600682016158e85f8254614d11565b90556158f960078301918254614d11565b905501918254614d11565b61590d90615394565b5f615876565b508115801561583d5750821561583d565b9160405192600184526020840152604083019160018352606084015260808301604052565b60175480156159c1575f90601754156109c95760175f527fc624b66cc0138b8fabc209247f72d758e1cf3343756d543badbf24212bed8c155460015b8281106159925750505090565b8161599c826109ad565b5054106159ac575b600101615985565b8093506159b991506109ad565b5054826159a4565b505f1990565b906001600160a01b03821680158015615ab4575b61452c575f527fbe5c2328713858b26c97b83c5ace333ac35b55572be4794180ba426b12cc48c260205260405f20805492828401809411614a9057600893615a2c9255614fd2610e104204916112d5565b9060098201615a3f611eb4825460ff1690565b615aa5575b50615a505f8354614d11565b825560018201615a615f8254614d11565b905560028201615a725f8254614d11565b905560038201615a835f8254614d11565b905560048201615a945f8254614d11565b9055614e0160058301918254614d11565b615aae90615394565b5f615a44565b5081156159db565b602081830312610015578051906001600160401b0382116100155701906101008282031261001557615aec611882565b91615af6816140db565b8352615b04602082016140db565b6020840152615b15604082016140db565b6040840152606081810151908401526080808201519084015260a08101516001600160401b0381116100155782615b4d9183016140e6565b60a084015260c08101516001600160401b0381116100155760e092615b73918301614734565b60c0840152015160e082015290565b6001600160a01b0391821681529181166020830152909116604082015260a060608201819052610b8c939192615bba9184019061205c565b91608081840391015261205c565b9091615bdf610b8c9360408452604084019061205c565b91602081840391015261205c565b9392918051835190818103615d915750505f5b8151811015615cec578060051b90602080838501015192860101518460018060a01b038916615c6f575b6001936001600160a01b038216615c45575b50505001615c00565b615c6591611c02615c5d925f525f60205260405f2090565b918254614d11565b90555f8481615c3c565b509091615c8788611c02835f525f60205260405f2090565b54828110615cb557829160019493879203615cad8b611c02845f525f60205260405f2090565b559350615c2a565b6040516303dee4c560e01b81526001600160a01b038a16600482015260248101919091526044810183905260648101829052608490fd5b508051939493919291600103615d4e576020908101519101516040516001600160a01b03938416949093169233927fc3d58168c5ae7397731d063d5bbf3d657854427343f4c083240f7aacaa2d0f62928291615d49919083612e31565b0390a4565b6040516001600160a01b03938416949093169233927f4a39dc06d4c0dbc64b70af90fd698a233a518aa5d07e595d983b8c0526c8f7fb928291615d499183615bc8565b635b05999160e01b5f5260045260245260445ffd5b908160209103126100155751610b8c81610919565b6001600160a01b0391821681529116602082015260a060408201819052610b8c9491939192615e009291615df2919086019061205c565b90848203606086015261205c565b916080818403910152610b57565b6001600160a01b039182168152911660208201526040810191909152606081019190915260a060808201819052610b8c92910190610b57565b9091949293853b615e5a57505050505050565b602093615e7c91604051968795869563f23a6e6160e01b875260048701615e0e565b03815f6001600160a01b0387165af15f9181615ec4575b50615ea157506157c46141af565b6001600160e01b031916630dc5919f60e01b016135af57505f8080808080615741565b615ede91925060203d6020116135ea576135db818361185f565b905f615e9356fef1b2bf0f075c4489d90ad473efa5fb2849d46fa0376db8fab751a98e03b3ce1b22c0a15d444e21db16bbb52e03d65846fb96a18771ae18cefb26e2b75b089ee28be0079c531659141344cd1fd0a4f28419497f9722a3daafe3b4186f6b6457e0ad3228b676f7d3cd4284a5443f17f1962b36e491b30a40b2405849e597ba5fb5a164736f6c6343000821000abc488d3e2575f0f2113dc4d9a0cd6bc52445c6bc28a8974ed97a6ba3ecfd657c",
  "linkReferences": {
    "project/src/BeamioUserCard/BeamioUserCardAdminGatewayLib.sol": {
      "BeamioUserCardAdminGatewayLib": [
        {
          "length": 20,
          "start": 4883
        },
        {
          "length": 20,
          "start": 7309
        },
        {
          "length": 20,
          "start": 12540
        }
      ]
    },
    "project/src/BeamioUserCard/BeamioUserCardFaucetGatewayLib.sol": {
      "BeamioUserCardFaucetGatewayLib": [
        {
          "length": 20,
          "start": 4164
        },
        {
          "length": 20,
          "start": 10634
        }
      ]
    },
    "project/src/BeamioUserCard/BeamioUserCardFormattingLib.sol": {
      "BeamioUserCardFormattingLib": [
        {
          "length": 20,
          "start": 5803
        }
      ]
    },
    "project/src/BeamioUserCard/BeamioUserCardGatewayMintLib.sol": {
      "BeamioUserCardGatewayMintLib": [
        {
          "length": 20,
          "start": 9322
        },
        {
          "length": 20,
          "start": 10337
        },
        {
          "length": 20,
          "start": 21696
        }
      ]
    },
    "project/src/BeamioUserCard/BeamioUserCardGovernanceLib.sol": {
      "BeamioUserCardGovernanceLib": [
        {
          "length": 20,
          "start": 6842
        },
        {
          "length": 20,
          "start": 12081
        },
        {
          "length": 20,
          "start": 13205
        }
      ]
    },
    "project/src/BeamioUserCard/BeamioUserCardIssuedNftGatewayLib.sol": {
      "BeamioUserCardIssuedNftGatewayLib": [
        {
          "length": 20,
          "start": 8928
        },
        {
          "length": 20,
          "start": 9152
        },
        {
          "length": 20,
          "start": 11101
        },
        {
          "length": 20,
          "start": 14607
        },
        {
          "length": 20,
          "start": 16833
        }
      ]
    },
    "project/src/BeamioUserCard/BeamioUserCardModuleRouterLib.sol": {
      "BeamioUserCardModuleRouterLib": [
        {
          "length": 20,
          "start": 20953
        },
        {
          "length": 20,
          "start": 22039
        },
        {
          "length": 20,
          "start": 22153
        }
      ]
    },
    "project/src/BeamioUserCard/BeamioUserCardRedeemGatewayLib.sol": {
      "BeamioUserCardRedeemGatewayLib": [
        {
          "length": 20,
          "start": 11444
        },
        {
          "length": 20,
          "start": 19871
        },
        {
          "length": 20,
          "start": 20156
        }
      ]
    },
    "project/src/BeamioUserCard/BeamioUserCardReferrerLib.sol": {
      "BeamioUserCardReferrerLib": [
        {
          "length": 20,
          "start": 5132
        },
        {
          "length": 20,
          "start": 7150
        },
        {
          "length": 20,
          "start": 9474
        },
        {
          "length": 20,
          "start": 10045
        },
        {
          "length": 20,
          "start": 10941
        },
        {
          "length": 20,
          "start": 12301
        },
        {
          "length": 20,
          "start": 13006
        },
        {
          "length": 20,
          "start": 15319
        },
        {
          "length": 20,
          "start": 16426
        },
        {
          "length": 20,
          "start": 16944
        },
        {
          "length": 20,
          "start": 17749
        }
      ]
    },
    "project/src/BeamioUserCard/BeamioUserCardTransferLib.sol": {
      "BeamioUserCardTransferLib": [
        {
          "length": 20,
          "start": 5452
        },
        {
          "length": 20,
          "start": 22339
        },
        {
          "length": 20,
          "start": 23564
        }
      ]
    },
    "project/src/BeamioUserCard/BeamioUserCardUpdateLib.sol": {
      "BeamioUserCardUpdateLib": [
        {
          "length": 20,
          "start": 23627
        }
      ]
    },
    "project/src/BeamioUserCard/BeamioUserCardViewsLib.sol": {
      "BeamioUserCardViewsLib": [
        {
          "length": 20,
          "start": 18414
        }
      ]
    }
  },
  "deployedLinkReferences": {
    "project/src/BeamioUserCard/BeamioUserCardAdminGatewayLib.sol": {
      "BeamioUserCardAdminGatewayLib": [
        {
          "length": 20,
          "start": 3431
        },
        {
          "length": 20,
          "start": 5857
        },
        {
          "length": 20,
          "start": 11088
        }
      ]
    },
    "project/src/BeamioUserCard/BeamioUserCardFaucetGatewayLib.sol": {
      "BeamioUserCardFaucetGatewayLib": [
        {
          "length": 20,
          "start": 2712
        },
        {
          "length": 20,
          "start": 9182
        }
      ]
    },
    "project/src/BeamioUserCard/BeamioUserCardFormattingLib.sol": {
      "BeamioUserCardFormattingLib": [
        {
          "length": 20,
          "start": 4351
        }
      ]
    },
    "project/src/BeamioUserCard/BeamioUserCardGatewayMintLib.sol": {
      "BeamioUserCardGatewayMintLib": [
        {
          "length": 20,
          "start": 7870
        },
        {
          "length": 20,
          "start": 8885
        },
        {
          "length": 20,
          "start": 20244
        }
      ]
    },
    "project/src/BeamioUserCard/BeamioUserCardGovernanceLib.sol": {
      "BeamioUserCardGovernanceLib": [
        {
          "length": 20,
          "start": 5390
        },
        {
          "length": 20,
          "start": 10629
        },
        {
          "length": 20,
          "start": 11753
        }
      ]
    },
    "project/src/BeamioUserCard/BeamioUserCardIssuedNftGatewayLib.sol": {
      "BeamioUserCardIssuedNftGatewayLib": [
        {
          "length": 20,
          "start": 7476
        },
        {
          "length": 20,
          "start": 7700
        },
        {
          "length": 20,
          "start": 9649
        },
        {
          "length": 20,
          "start": 13155
        },
        {
          "length": 20,
          "start": 15381
        }
      ]
    },
    "project/src/BeamioUserCard/BeamioUserCardModuleRouterLib.sol": {
      "BeamioUserCardModuleRouterLib": [
        {
          "length": 20,
          "start": 19501
        },
        {
          "length": 20,
          "start": 20587
        },
        {
          "length": 20,
          "start": 20701
        }
      ]
    },
    "project/src/BeamioUserCard/BeamioUserCardRedeemGatewayLib.sol": {
      "BeamioUserCardRedeemGatewayLib": [
        {
          "length": 20,
          "start": 9992
        },
        {
          "length": 20,
          "start": 18419
        },
        {
          "length": 20,
          "start": 18704
        }
      ]
    },
    "project/src/BeamioUserCard/BeamioUserCardReferrerLib.sol": {
      "BeamioUserCardReferrerLib": [
        {
          "length": 20,
          "start": 3680
        },
        {
          "length": 20,
          "start": 5698
        },
        {
          "length": 20,
          "start": 8022
        },
        {
          "length": 20,
          "start": 8593
        },
        {
          "length": 20,
          "start": 9489
        },
        {
          "length": 20,
          "start": 10849
        },
        {
          "length": 20,
          "start": 11554
        },
        {
          "length": 20,
          "start": 13867
        },
        {
          "length": 20,
          "start": 14974
        },
        {
          "length": 20,
          "start": 15492
        },
        {
          "length": 20,
          "start": 16297
        }
      ]
    },
    "project/src/BeamioUserCard/BeamioUserCardTransferLib.sol": {
      "BeamioUserCardTransferLib": [
        {
          "length": 20,
          "start": 4000
        },
        {
          "length": 20,
          "start": 20887
        },
        {
          "length": 20,
          "start": 22112
        }
      ]
    },
    "project/src/BeamioUserCard/BeamioUserCardUpdateLib.sol": {
      "BeamioUserCardUpdateLib": [
        {
          "length": 20,
          "start": 22175
        }
      ]
    },
    "project/src/BeamioUserCard/BeamioUserCardViewsLib.sol": {
      "BeamioUserCardViewsLib": [
        {
          "length": 20,
          "start": 16962
        }
      ]
    }
  },
  "immutableReferences": {
    "28542": [
      {
        "length": 32,
        "start": 14479
      }
    ]
  },
  "inputSourceName": "project/src/BeamioUserCard/BeamioUserCard.sol",
  "buildInfoId": "solc-0_8_33-2ee85a448d76d0e9db4864daa08ff93c5b8b0afd"
}