{
  "_format": "hh3-artifact-1",
  "contractName": "BeamioUserCard",
  "sourceName": "src/BeamioUserCard/BeamioUserCard.sol",
  "abi": [
    {
      "inputs": [
        {
          "internalType": "string",
          "name": "uri_",
          "type": "string"
        },
        {
          "internalType": "enum BeamioCurrency.CurrencyType",
          "name": "currency_",
          "type": "uint8"
        },
        {
          "internalType": "uint256",
          "name": "pointsUnitPriceInCurrencyE6_",
          "type": "uint256"
        },
        {
          "internalType": "address",
          "name": "initialOwner",
          "type": "address"
        },
        {
          "internalType": "address",
          "name": "gateway_",
          "type": "address"
        }
      ],
      "stateMutability": "nonpayable",
      "type": "constructor"
    },
    {
      "inputs": [],
      "name": "BM_CallFailed",
      "type": "error"
    },
    {
      "inputs": [],
      "name": "BM_NotAuthorized",
      "type": "error"
    },
    {
      "inputs": [],
      "name": "BM_ZeroAddress",
      "type": "error"
    },
    {
      "inputs": [
        {
          "internalType": "address",
          "name": "sender",
          "type": "address"
        },
        {
          "internalType": "uint256",
          "name": "balance",
          "type": "uint256"
        },
        {
          "internalType": "uint256",
          "name": "needed",
          "type": "uint256"
        },
        {
          "internalType": "uint256",
          "name": "tokenId",
          "type": "uint256"
        }
      ],
      "name": "ERC1155InsufficientBalance",
      "type": "error"
    },
    {
      "inputs": [
        {
          "internalType": "address",
          "name": "approver",
          "type": "address"
        }
      ],
      "name": "ERC1155InvalidApprover",
      "type": "error"
    },
    {
      "inputs": [
        {
          "internalType": "uint256",
          "name": "idsLength",
          "type": "uint256"
        },
        {
          "internalType": "uint256",
          "name": "valuesLength",
          "type": "uint256"
        }
      ],
      "name": "ERC1155InvalidArrayLength",
      "type": "error"
    },
    {
      "inputs": [
        {
          "internalType": "address",
          "name": "operator",
          "type": "address"
        }
      ],
      "name": "ERC1155InvalidOperator",
      "type": "error"
    },
    {
      "inputs": [
        {
          "internalType": "address",
          "name": "receiver",
          "type": "address"
        }
      ],
      "name": "ERC1155InvalidReceiver",
      "type": "error"
    },
    {
      "inputs": [
        {
          "internalType": "address",
          "name": "sender",
          "type": "address"
        }
      ],
      "name": "ERC1155InvalidSender",
      "type": "error"
    },
    {
      "inputs": [
        {
          "internalType": "address",
          "name": "operator",
          "type": "address"
        },
        {
          "internalType": "address",
          "name": "owner",
          "type": "address"
        }
      ],
      "name": "ERC1155MissingApprovalForAll",
      "type": "error"
    },
    {
      "inputs": [
        {
          "internalType": "address",
          "name": "owner",
          "type": "address"
        }
      ],
      "name": "OwnableInvalidOwner",
      "type": "error"
    },
    {
      "inputs": [
        {
          "internalType": "address",
          "name": "account",
          "type": "address"
        }
      ],
      "name": "OwnableUnauthorizedAccount",
      "type": "error"
    },
    {
      "inputs": [],
      "name": "ReentrancyGuardReentrantCall",
      "type": "error"
    },
    {
      "inputs": [],
      "name": "UC_AdminManagerRequiresOwnerSignature",
      "type": "error"
    },
    {
      "inputs": [],
      "name": "UC_AmountZero",
      "type": "error"
    },
    {
      "inputs": [],
      "name": "UC_BelowMinThreshold",
      "type": "error"
    },
    {
      "inputs": [],
      "name": "UC_GlobalMisconfigured",
      "type": "error"
    },
    {
      "inputs": [
        {
          "internalType": "address",
          "name": "fromAccount",
          "type": "address"
        },
        {
          "internalType": "uint256",
          "name": "id",
          "type": "uint256"
        },
        {
          "internalType": "uint256",
          "name": "have",
          "type": "uint256"
        },
        {
          "internalType": "uint256",
          "name": "need",
          "type": "uint256"
        }
      ],
      "name": "UC_InsufficientBalance",
      "type": "error"
    },
    {
      "inputs": [],
      "name": "UC_InvalidProposal",
      "type": "error"
    },
    {
      "inputs": [],
      "name": "UC_NoBeamioAccount",
      "type": "error"
    },
    {
      "inputs": [],
      "name": "UC_NotAdmin",
      "type": "error"
    },
    {
      "inputs": [],
      "name": "UC_PointsToNotWhitelisted",
      "type": "error"
    },
    {
      "inputs": [],
      "name": "UC_PriceZero",
      "type": "error"
    },
    {
      "inputs": [
        {
          "internalType": "bytes",
          "name": "data",
          "type": "bytes"
        }
      ],
      "name": "UC_RedeemDelegateFailed",
      "type": "error"
    },
    {
      "inputs": [],
      "name": "UC_RedeemModuleZero",
      "type": "error"
    },
    {
      "inputs": [
        {
          "internalType": "address",
          "name": "eoa",
          "type": "address"
        },
        {
          "internalType": "address",
          "name": "aaFactory",
          "type": "address"
        },
        {
          "internalType": "address",
          "name": "acct",
          "type": "address"
        }
      ],
      "name": "UC_ResolveAccountFailed",
      "type": "error"
    },
    {
      "inputs": [],
      "name": "UC_SBTNonTransferable",
      "type": "error"
    },
    {
      "inputs": [],
      "name": "UC_StatsModuleZero",
      "type": "error"
    },
    {
      "inputs": [],
      "name": "UC_TierLenMismatch",
      "type": "error"
    },
    {
      "inputs": [],
      "name": "UC_TierMinZero",
      "type": "error"
    },
    {
      "inputs": [],
      "name": "UC_UnauthorizedGateway",
      "type": "error"
    },
    {
      "anonymous": false,
      "inputs": [
        {
          "indexed": true,
          "internalType": "address",
          "name": "beneficiaryAccount",
          "type": "address"
        },
        {
          "indexed": true,
          "internalType": "uint256",
          "name": "tokenId",
          "type": "uint256"
        },
        {
          "indexed": false,
          "internalType": "uint256",
          "name": "attr",
          "type": "uint256"
        },
        {
          "indexed": false,
          "internalType": "uint256",
          "name": "expiry",
          "type": "uint256"
        }
      ],
      "name": "AdminCardMinted",
      "type": "event"
    },
    {
      "anonymous": false,
      "inputs": [
        {
          "indexed": true,
          "internalType": "address",
          "name": "account",
          "type": "address"
        },
        {
          "indexed": false,
          "internalType": "uint256",
          "name": "amount",
          "type": "uint256"
        }
      ],
      "name": "AdminPointsBurned",
      "type": "event"
    },
    {
      "anonymous": false,
      "inputs": [
        {
          "indexed": true,
          "internalType": "address",
          "name": "beneficiaryAccount",
          "type": "address"
        },
        {
          "indexed": false,
          "internalType": "uint256",
          "name": "points6",
          "type": "uint256"
        }
      ],
      "name": "AdminPointsMinted",
      "type": "event"
    },
    {
      "anonymous": false,
      "inputs": [
        {
          "indexed": true,
          "internalType": "address",
          "name": "account",
          "type": "address"
        },
        {
          "indexed": true,
          "internalType": "address",
          "name": "operator",
          "type": "address"
        },
        {
          "indexed": false,
          "internalType": "bool",
          "name": "approved",
          "type": "bool"
        }
      ],
      "name": "ApprovalForAll",
      "type": "event"
    },
    {
      "anonymous": false,
      "inputs": [
        {
          "indexed": false,
          "internalType": "uint256",
          "name": "attr",
          "type": "uint256"
        }
      ],
      "name": "DefaultAttrUpdated",
      "type": "event"
    },
    {
      "anonymous": false,
      "inputs": [
        {
          "indexed": false,
          "internalType": "uint256",
          "name": "oldSecs",
          "type": "uint256"
        },
        {
          "indexed": false,
          "internalType": "uint256",
          "name": "newSecs",
          "type": "uint256"
        }
      ],
      "name": "ExpirySecondsUpdated",
      "type": "event"
    },
    {
      "anonymous": false,
      "inputs": [
        {
          "indexed": true,
          "internalType": "uint256",
          "name": "id",
          "type": "uint256"
        },
        {
          "indexed": true,
          "internalType": "address",
          "name": "userEOA",
          "type": "address"
        },
        {
          "indexed": true,
          "internalType": "address",
          "name": "acct",
          "type": "address"
        },
        {
          "indexed": false,
          "internalType": "uint256",
          "name": "amount",
          "type": "uint256"
        },
        {
          "indexed": false,
          "internalType": "uint256",
          "name": "claimedAfter",
          "type": "uint256"
        }
      ],
      "name": "FaucetClaimed",
      "type": "event"
    },
    {
      "anonymous": false,
      "inputs": [
        {
          "indexed": true,
          "internalType": "uint256",
          "name": "id",
          "type": "uint256"
        },
        {
          "components": [
            {
              "internalType": "uint64",
              "name": "validUntil",
              "type": "uint64"
            },
            {
              "internalType": "uint64",
              "name": "perClaimMax",
              "type": "uint64"
            },
            {
              "internalType": "uint128",
              "name": "maxPerUser",
              "type": "uint128"
            },
            {
              "internalType": "uint128",
              "name": "maxGlobal",
              "type": "uint128"
            },
            {
              "internalType": "bool",
              "name": "enabled",
              "type": "bool"
            },
            {
              "internalType": "uint8",
              "name": "currency",
              "type": "uint8"
            },
            {
              "internalType": "uint8",
              "name": "decimals",
              "type": "uint8"
            },
            {
              "internalType": "uint128",
              "name": "priceInCurrency6",
              "type": "uint128"
            }
          ],
          "indexed": false,
          "internalType": "struct FaucetStorage.FaucetConfig",
          "name": "cfg",
          "type": "tuple"
        }
      ],
      "name": "FaucetConfigUpdated",
      "type": "event"
    },
    {
      "anonymous": false,
      "inputs": [
        {
          "indexed": true,
          "internalType": "uint256",
          "name": "tokenId",
          "type": "uint256"
        },
        {
          "indexed": false,
          "internalType": "bytes32",
          "name": "title",
          "type": "bytes32"
        },
        {
          "indexed": false,
          "internalType": "uint64",
          "name": "validAfter",
          "type": "uint64"
        },
        {
          "indexed": false,
          "internalType": "uint64",
          "name": "validBefore",
          "type": "uint64"
        },
        {
          "indexed": false,
          "internalType": "uint256",
          "name": "maxSupply",
          "type": "uint256"
        },
        {
          "indexed": false,
          "internalType": "uint256",
          "name": "priceInCurrency6",
          "type": "uint256"
        },
        {
          "indexed": false,
          "internalType": "bytes32",
          "name": "sharedMetadataHash",
          "type": "bytes32"
        }
      ],
      "name": "IssuedNftCreated",
      "type": "event"
    },
    {
      "anonymous": false,
      "inputs": [
        {
          "indexed": true,
          "internalType": "uint256",
          "name": "tokenId",
          "type": "uint256"
        },
        {
          "indexed": true,
          "internalType": "address",
          "name": "recipient",
          "type": "address"
        },
        {
          "indexed": false,
          "internalType": "uint256",
          "name": "amount",
          "type": "uint256"
        }
      ],
      "name": "IssuedNftMinted",
      "type": "event"
    },
    {
      "anonymous": false,
      "inputs": [
        {
          "indexed": true,
          "internalType": "address",
          "name": "user",
          "type": "address"
        },
        {
          "indexed": true,
          "internalType": "uint256",
          "name": "tokenId",
          "type": "uint256"
        },
        {
          "indexed": false,
          "internalType": "uint256",
          "name": "tierIndexOrMax",
          "type": "uint256"
        },
        {
          "indexed": false,
          "internalType": "uint256",
          "name": "minUsdc6",
          "type": "uint256"
        },
        {
          "indexed": false,
          "internalType": "uint256",
          "name": "expiry",
          "type": "uint256"
        }
      ],
      "name": "MemberNFTIssued",
      "type": "event"
    },
    {
      "anonymous": false,
      "inputs": [
        {
          "indexed": true,
          "internalType": "address",
          "name": "user",
          "type": "address"
        },
        {
          "indexed": true,
          "internalType": "uint256",
          "name": "oldActiveTokenId",
          "type": "uint256"
        },
        {
          "indexed": true,
          "internalType": "uint256",
          "name": "newTokenId",
          "type": "uint256"
        },
        {
          "indexed": false,
          "internalType": "uint256",
          "name": "oldTierIndexOrMax",
          "type": "uint256"
        },
        {
          "indexed": false,
          "internalType": "uint256",
          "name": "newTierIndex",
          "type": "uint256"
        },
        {
          "indexed": false,
          "internalType": "uint256",
          "name": "newExpiry",
          "type": "uint256"
        }
      ],
      "name": "MemberNFTUpgraded",
      "type": "event"
    },
    {
      "anonymous": false,
      "inputs": [
        {
          "indexed": true,
          "internalType": "address",
          "name": "previousOwner",
          "type": "address"
        },
        {
          "indexed": true,
          "internalType": "address",
          "name": "newOwner",
          "type": "address"
        }
      ],
      "name": "OwnershipTransferred",
      "type": "event"
    },
    {
      "anonymous": false,
      "inputs": [
        {
          "indexed": true,
          "internalType": "address",
          "name": "userEOA",
          "type": "address"
        },
        {
          "indexed": true,
          "internalType": "address",
          "name": "acct",
          "type": "address"
        },
        {
          "indexed": false,
          "internalType": "uint256",
          "name": "points6",
          "type": "uint256"
        }
      ],
      "name": "PointsMintedByGateway",
      "type": "event"
    },
    {
      "anonymous": false,
      "inputs": [
        {
          "indexed": true,
          "internalType": "address",
          "name": "payerEOA",
          "type": "address"
        },
        {
          "indexed": true,
          "internalType": "address",
          "name": "beneficiaryAccount",
          "type": "address"
        },
        {
          "indexed": true,
          "internalType": "address",
          "name": "usdc",
          "type": "address"
        },
        {
          "indexed": false,
          "internalType": "uint256",
          "name": "usdcIn6",
          "type": "uint256"
        },
        {
          "indexed": false,
          "internalType": "uint256",
          "name": "pointsMinted6",
          "type": "uint256"
        },
        {
          "indexed": false,
          "internalType": "uint256",
          "name": "unitPointPriceUsdc6",
          "type": "uint256"
        },
        {
          "indexed": false,
          "internalType": "bytes32",
          "name": "nonce",
          "type": "bytes32"
        }
      ],
      "name": "PointsPurchasedWithUSDC",
      "type": "event"
    },
    {
      "anonymous": false,
      "inputs": [
        {
          "indexed": false,
          "internalType": "uint256",
          "name": "priceInCurrencyE6",
          "type": "uint256"
        }
      ],
      "name": "PointsUnitPriceUpdated",
      "type": "event"
    },
    {
      "anonymous": false,
      "inputs": [
        {
          "indexed": true,
          "internalType": "uint256",
          "name": "id",
          "type": "uint256"
        },
        {
          "indexed": true,
          "internalType": "address",
          "name": "admin",
          "type": "address"
        }
      ],
      "name": "ProposalApproved",
      "type": "event"
    },
    {
      "anonymous": false,
      "inputs": [
        {
          "indexed": true,
          "internalType": "uint256",
          "name": "id",
          "type": "uint256"
        },
        {
          "indexed": true,
          "internalType": "bytes4",
          "name": "selector",
          "type": "bytes4"
        },
        {
          "indexed": true,
          "internalType": "address",
          "name": "proposer",
          "type": "address"
        }
      ],
      "name": "ProposalCreated",
      "type": "event"
    },
    {
      "anonymous": false,
      "inputs": [
        {
          "indexed": true,
          "internalType": "uint256",
          "name": "id",
          "type": "uint256"
        }
      ],
      "name": "ProposalExecuted",
      "type": "event"
    },
    {
      "anonymous": false,
      "inputs": [
        {
          "indexed": true,
          "internalType": "bytes32",
          "name": "hash",
          "type": "bytes32"
        }
      ],
      "name": "RedeemCancelled",
      "type": "event"
    },
    {
      "anonymous": false,
      "inputs": [
        {
          "indexed": true,
          "internalType": "bytes32",
          "name": "hash",
          "type": "bytes32"
        },
        {
          "indexed": false,
          "internalType": "uint256",
          "name": "points6",
          "type": "uint256"
        },
        {
          "indexed": false,
          "internalType": "uint256",
          "name": "attr",
          "type": "uint256"
        }
      ],
      "name": "RedeemCreated",
      "type": "event"
    },
    {
      "anonymous": false,
      "inputs": [
        {
          "indexed": false,
          "internalType": "uint256",
          "name": "index",
          "type": "uint256"
        },
        {
          "indexed": false,
          "internalType": "uint256",
          "name": "minUsdc6",
          "type": "uint256"
        },
        {
          "indexed": false,
          "internalType": "uint256",
          "name": "attr",
          "type": "uint256"
        },
        {
          "indexed": false,
          "internalType": "uint256",
          "name": "tierExpirySeconds",
          "type": "uint256"
        },
        {
          "indexed": false,
          "internalType": "bool",
          "name": "upgradeByBalance",
          "type": "bool"
        }
      ],
      "name": "TierAppended",
      "type": "event"
    },
    {
      "anonymous": false,
      "inputs": [
        {
          "indexed": false,
          "internalType": "uint256",
          "name": "count",
          "type": "uint256"
        }
      ],
      "name": "TiersUpdated",
      "type": "event"
    },
    {
      "anonymous": false,
      "inputs": [
        {
          "indexed": true,
          "internalType": "address",
          "name": "operator",
          "type": "address"
        },
        {
          "indexed": true,
          "internalType": "address",
          "name": "from",
          "type": "address"
        },
        {
          "indexed": true,
          "internalType": "address",
          "name": "to",
          "type": "address"
        },
        {
          "indexed": false,
          "internalType": "uint256[]",
          "name": "ids",
          "type": "uint256[]"
        },
        {
          "indexed": false,
          "internalType": "uint256[]",
          "name": "values",
          "type": "uint256[]"
        }
      ],
      "name": "TransferBatch",
      "type": "event"
    },
    {
      "anonymous": false,
      "inputs": [
        {
          "indexed": true,
          "internalType": "address",
          "name": "operator",
          "type": "address"
        },
        {
          "indexed": true,
          "internalType": "address",
          "name": "from",
          "type": "address"
        },
        {
          "indexed": true,
          "internalType": "address",
          "name": "to",
          "type": "address"
        },
        {
          "indexed": false,
          "internalType": "uint256",
          "name": "id",
          "type": "uint256"
        },
        {
          "indexed": false,
          "internalType": "uint256",
          "name": "value",
          "type": "uint256"
        }
      ],
      "name": "TransferSingle",
      "type": "event"
    },
    {
      "anonymous": false,
      "inputs": [
        {
          "indexed": false,
          "internalType": "bool",
          "name": "enabled",
          "type": "bool"
        }
      ],
      "name": "TransferWhitelistEnabledUpdated",
      "type": "event"
    },
    {
      "anonymous": false,
      "inputs": [
        {
          "indexed": false,
          "internalType": "string",
          "name": "value",
          "type": "string"
        },
        {
          "indexed": true,
          "internalType": "uint256",
          "name": "id",
          "type": "uint256"
        }
      ],
      "name": "URI",
      "type": "event"
    },
    {
      "stateMutability": "nonpayable",
      "type": "fallback"
    },
    {
      "inputs": [],
      "name": "ISSUED_NFT_START_ID",
      "outputs": [
        {
          "internalType": "uint256",
          "name": "",
          "type": "uint256"
        }
      ],
      "stateMutability": "view",
      "type": "function"
    },
    {
      "inputs": [],
      "name": "NFT_START_ID",
      "outputs": [
        {
          "internalType": "uint256",
          "name": "",
          "type": "uint256"
        }
      ],
      "stateMutability": "view",
      "type": "function"
    },
    {
      "inputs": [],
      "name": "POINTS_DECIMALS",
      "outputs": [
        {
          "internalType": "uint8",
          "name": "",
          "type": "uint8"
        }
      ],
      "stateMutability": "view",
      "type": "function"
    },
    {
      "inputs": [],
      "name": "POINTS_ID",
      "outputs": [
        {
          "internalType": "uint256",
          "name": "",
          "type": "uint256"
        }
      ],
      "stateMutability": "view",
      "type": "function"
    },
    {
      "inputs": [],
      "name": "VERSION",
      "outputs": [
        {
          "internalType": "uint256",
          "name": "",
          "type": "uint256"
        }
      ],
      "stateMutability": "view",
      "type": "function"
    },
    {
      "inputs": [
        {
          "internalType": "address",
          "name": "",
          "type": "address"
        },
        {
          "internalType": "uint256",
          "name": "",
          "type": "uint256"
        }
      ],
      "name": "_userOwnedNfts",
      "outputs": [
        {
          "internalType": "uint256",
          "name": "",
          "type": "uint256"
        }
      ],
      "stateMutability": "view",
      "type": "function"
    },
    {
      "inputs": [
        {
          "internalType": "uint256",
          "name": "",
          "type": "uint256"
        }
      ],
      "name": "activeMembershipCountByTierIndex",
      "outputs": [
        {
          "internalType": "uint256",
          "name": "",
          "type": "uint256"
        }
      ],
      "stateMutability": "view",
      "type": "function"
    },
    {
      "inputs": [
        {
          "internalType": "uint256",
          "name": "",
          "type": "uint256"
        }
      ],
      "name": "activeMembershipCountByTokenId",
      "outputs": [
        {
          "internalType": "uint256",
          "name": "",
          "type": "uint256"
        }
      ],
      "stateMutability": "view",
      "type": "function"
    },
    {
      "inputs": [
        {
          "internalType": "address",
          "name": "",
          "type": "address"
        }
      ],
      "name": "activeMembershipId",
      "outputs": [
        {
          "internalType": "uint256",
          "name": "",
          "type": "uint256"
        }
      ],
      "stateMutability": "view",
      "type": "function"
    },
    {
      "inputs": [
        {
          "internalType": "address",
          "name": "",
          "type": "address"
        }
      ],
      "name": "activeTierIndexOrMax",
      "outputs": [
        {
          "internalType": "uint256",
          "name": "",
          "type": "uint256"
        }
      ],
      "stateMutability": "view",
      "type": "function"
    },
    {
      "inputs": [
        {
          "internalType": "address",
          "name": "a",
          "type": "address"
        }
      ],
      "name": "adminParent",
      "outputs": [
        {
          "internalType": "address",
          "name": "",
          "type": "address"
        }
      ],
      "stateMutability": "view",
      "type": "function"
    },
    {
      "inputs": [
        {
          "internalType": "uint256",
          "name": "minUsdc6",
          "type": "uint256"
        },
        {
          "internalType": "uint256",
          "name": "attr",
          "type": "uint256"
        },
        {
          "internalType": "uint256",
          "name": "tierExpirySeconds",
          "type": "uint256"
        },
        {
          "internalType": "bool",
          "name": "upgradeByBalance",
          "type": "bool"
        }
      ],
      "name": "appendTier",
      "outputs": [],
      "stateMutability": "nonpayable",
      "type": "function"
    },
    {
      "inputs": [
        {
          "internalType": "uint256",
          "name": "id",
          "type": "uint256"
        }
      ],
      "name": "approveProposal",
      "outputs": [],
      "stateMutability": "nonpayable",
      "type": "function"
    },
    {
      "inputs": [
        {
          "internalType": "uint256",
          "name": "id",
          "type": "uint256"
        },
        {
          "internalType": "address",
          "name": "adminSigner",
          "type": "address"
        }
      ],
      "name": "approveProposalByGateway",
      "outputs": [],
      "stateMutability": "nonpayable",
      "type": "function"
    },
    {
      "inputs": [
        {
          "internalType": "uint256",
          "name": "",
          "type": "uint256"
        }
      ],
      "name": "attributes",
      "outputs": [
        {
          "internalType": "uint256",
          "name": "",
          "type": "uint256"
        }
      ],
      "stateMutability": "view",
      "type": "function"
    },
    {
      "inputs": [
        {
          "internalType": "address",
          "name": "account",
          "type": "address"
        },
        {
          "internalType": "uint256",
          "name": "id",
          "type": "uint256"
        }
      ],
      "name": "balanceOf",
      "outputs": [
        {
          "internalType": "uint256",
          "name": "",
          "type": "uint256"
        }
      ],
      "stateMutability": "view",
      "type": "function"
    },
    {
      "inputs": [
        {
          "internalType": "address[]",
          "name": "accounts",
          "type": "address[]"
        },
        {
          "internalType": "uint256[]",
          "name": "ids",
          "type": "uint256[]"
        }
      ],
      "name": "balanceOfBatch",
      "outputs": [
        {
          "internalType": "uint256[]",
          "name": "",
          "type": "uint256[]"
        }
      ],
      "stateMutability": "view",
      "type": "function"
    },
    {
      "inputs": [
        {
          "internalType": "address",
          "name": "target",
          "type": "address"
        },
        {
          "internalType": "uint256",
          "name": "amount",
          "type": "uint256"
        }
      ],
      "name": "burnPointsByAdmin",
      "outputs": [],
      "stateMutability": "nonpayable",
      "type": "function"
    },
    {
      "inputs": [
        {
          "internalType": "address",
          "name": "subordinate",
          "type": "address"
        },
        {
          "internalType": "address",
          "name": "authorizer",
          "type": "address"
        }
      ],
      "name": "clearAdminMintCounterForSubordinate",
      "outputs": [],
      "stateMutability": "nonpayable",
      "type": "function"
    },
    {
      "inputs": [
        {
          "internalType": "bytes4",
          "name": "selector",
          "type": "bytes4"
        },
        {
          "internalType": "address",
          "name": "target",
          "type": "address"
        },
        {
          "internalType": "uint256",
          "name": "v1",
          "type": "uint256"
        },
        {
          "internalType": "uint256",
          "name": "v2",
          "type": "uint256"
        },
        {
          "internalType": "uint256",
          "name": "v3",
          "type": "uint256"
        }
      ],
      "name": "createProposal",
      "outputs": [
        {
          "internalType": "uint256",
          "name": "",
          "type": "uint256"
        }
      ],
      "stateMutability": "nonpayable",
      "type": "function"
    },
    {
      "inputs": [],
      "name": "currency",
      "outputs": [
        {
          "internalType": "enum BeamioCurrency.CurrencyType",
          "name": "",
          "type": "uint8"
        }
      ],
      "stateMutability": "view",
      "type": "function"
    },
    {
      "inputs": [],
      "name": "debugGateway",
      "outputs": [
        {
          "internalType": "address",
          "name": "",
          "type": "address"
        }
      ],
      "stateMutability": "view",
      "type": "function"
    },
    {
      "inputs": [],
      "name": "defaultAttrWhenNoTiers",
      "outputs": [
        {
          "internalType": "uint256",
          "name": "",
          "type": "uint256"
        }
      ],
      "stateMutability": "view",
      "type": "function"
    },
    {
      "inputs": [],
      "name": "deployer",
      "outputs": [
        {
          "internalType": "address",
          "name": "",
          "type": "address"
        }
      ],
      "stateMutability": "view",
      "type": "function"
    },
    {
      "inputs": [
        {
          "internalType": "uint256",
          "name": "",
          "type": "uint256"
        }
      ],
      "name": "expiresAt",
      "outputs": [
        {
          "internalType": "uint256",
          "name": "",
          "type": "uint256"
        }
      ],
      "stateMutability": "view",
      "type": "function"
    },
    {
      "inputs": [],
      "name": "expirySeconds",
      "outputs": [
        {
          "internalType": "uint256",
          "name": "",
          "type": "uint256"
        }
      ],
      "stateMutability": "view",
      "type": "function"
    },
    {
      "inputs": [],
      "name": "factoryGateway",
      "outputs": [
        {
          "internalType": "address",
          "name": "",
          "type": "address"
        }
      ],
      "stateMutability": "view",
      "type": "function"
    },
    {
      "inputs": [
        {
          "internalType": "address",
          "name": "userEOA",
          "type": "address"
        },
        {
          "internalType": "uint256",
          "name": "id",
          "type": "uint256"
        },
        {
          "internalType": "uint256",
          "name": "amount",
          "type": "uint256"
        }
      ],
      "name": "faucetByGateway",
      "outputs": [],
      "stateMutability": "nonpayable",
      "type": "function"
    },
    {
      "inputs": [
        {
          "internalType": "uint256",
          "name": "id",
          "type": "uint256"
        }
      ],
      "name": "faucetConfig",
      "outputs": [
        {
          "components": [
            {
              "internalType": "uint64",
              "name": "validUntil",
              "type": "uint64"
            },
            {
              "internalType": "uint64",
              "name": "perClaimMax",
              "type": "uint64"
            },
            {
              "internalType": "uint128",
              "name": "maxPerUser",
              "type": "uint128"
            },
            {
              "internalType": "uint128",
              "name": "maxGlobal",
              "type": "uint128"
            },
            {
              "internalType": "bool",
              "name": "enabled",
              "type": "bool"
            },
            {
              "internalType": "uint8",
              "name": "currency",
              "type": "uint8"
            },
            {
              "internalType": "uint8",
              "name": "decimals",
              "type": "uint8"
            },
            {
              "internalType": "uint128",
              "name": "priceInCurrency6",
              "type": "uint128"
            }
          ],
          "internalType": "struct FaucetStorage.FaucetConfig",
          "name": "",
          "type": "tuple"
        }
      ],
      "stateMutability": "view",
      "type": "function"
    },
    {
      "inputs": [],
      "name": "gateway",
      "outputs": [
        {
          "internalType": "address",
          "name": "",
          "type": "address"
        }
      ],
      "stateMutability": "view",
      "type": "function"
    },
    {
      "inputs": [
        {
          "internalType": "address",
          "name": "admin",
          "type": "address"
        }
      ],
      "name": "getAdminBurnCounter",
      "outputs": [
        {
          "internalType": "uint256",
          "name": "",
          "type": "uint256"
        }
      ],
      "stateMutability": "view",
      "type": "function"
    },
    {
      "inputs": [
        {
          "internalType": "address",
          "name": "admin",
          "type": "address"
        }
      ],
      "name": "getAdminMintCounter",
      "outputs": [
        {
          "internalType": "uint256",
          "name": "",
          "type": "uint256"
        }
      ],
      "stateMutability": "view",
      "type": "function"
    },
    {
      "inputs": [
        {
          "internalType": "address",
          "name": "admin",
          "type": "address"
        }
      ],
      "name": "getAdminRedeemMintCounter",
      "outputs": [
        {
          "internalType": "uint256",
          "name": "",
          "type": "uint256"
        }
      ],
      "stateMutability": "view",
      "type": "function"
    },
    {
      "inputs": [
        {
          "internalType": "address",
          "name": "admin",
          "type": "address"
        }
      ],
      "name": "getAdminTransferCounter",
      "outputs": [
        {
          "internalType": "uint256",
          "name": "",
          "type": "uint256"
        }
      ],
      "stateMutability": "view",
      "type": "function"
    },
    {
      "inputs": [
        {
          "internalType": "address",
          "name": "admin",
          "type": "address"
        }
      ],
      "name": "getAdminUSDCMintCounter",
      "outputs": [
        {
          "internalType": "uint256",
          "name": "",
          "type": "uint256"
        }
      ],
      "stateMutability": "view",
      "type": "function"
    },
    {
      "inputs": [
        {
          "internalType": "address",
          "name": "user",
          "type": "address"
        }
      ],
      "name": "getOwnership",
      "outputs": [
        {
          "internalType": "uint256",
          "name": "pt",
          "type": "uint256"
        },
        {
          "components": [
            {
              "internalType": "uint256",
              "name": "tokenId",
              "type": "uint256"
            },
            {
              "internalType": "uint256",
              "name": "attribute",
              "type": "uint256"
            },
            {
              "internalType": "uint256",
              "name": "tierIndexOrMax",
              "type": "uint256"
            },
            {
              "internalType": "uint256",
              "name": "expiry",
              "type": "uint256"
            },
            {
              "internalType": "bool",
              "name": "isExpired",
              "type": "bool"
            }
          ],
          "internalType": "struct BeamioUserCard.NFTDetail[]",
          "name": "nfts",
          "type": "tuple[]"
        }
      ],
      "stateMutability": "view",
      "type": "function"
    },
    {
      "inputs": [
        {
          "internalType": "address",
          "name": "userEOA",
          "type": "address"
        }
      ],
      "name": "getOwnershipByEOA",
      "outputs": [
        {
          "internalType": "uint256",
          "name": "pt",
          "type": "uint256"
        },
        {
          "components": [
            {
              "internalType": "uint256",
              "name": "tokenId",
              "type": "uint256"
            },
            {
              "internalType": "uint256",
              "name": "attribute",
              "type": "uint256"
            },
            {
              "internalType": "uint256",
              "name": "tierIndexOrMax",
              "type": "uint256"
            },
            {
              "internalType": "uint256",
              "name": "expiry",
              "type": "uint256"
            },
            {
              "internalType": "bool",
              "name": "isExpired",
              "type": "bool"
            }
          ],
          "internalType": "struct BeamioUserCard.NFTDetail[]",
          "name": "nfts",
          "type": "tuple[]"
        }
      ],
      "stateMutability": "view",
      "type": "function"
    },
    {
      "inputs": [
        {
          "internalType": "address",
          "name": "a",
          "type": "address"
        }
      ],
      "name": "isAdmin",
      "outputs": [
        {
          "internalType": "bool",
          "name": "",
          "type": "bool"
        }
      ],
      "stateMutability": "view",
      "type": "function"
    },
    {
      "inputs": [
        {
          "internalType": "address",
          "name": "account",
          "type": "address"
        },
        {
          "internalType": "address",
          "name": "operator",
          "type": "address"
        }
      ],
      "name": "isApprovedForAll",
      "outputs": [
        {
          "internalType": "bool",
          "name": "",
          "type": "bool"
        }
      ],
      "stateMutability": "view",
      "type": "function"
    },
    {
      "inputs": [
        {
          "internalType": "uint256",
          "name": "tokenId",
          "type": "uint256"
        }
      ],
      "name": "isIssuedNftValid",
      "outputs": [
        {
          "internalType": "bool",
          "name": "",
          "type": "bool"
        }
      ],
      "stateMutability": "view",
      "type": "function"
    },
    {
      "inputs": [
        {
          "internalType": "uint256",
          "name": "tokenId",
          "type": "uint256"
        }
      ],
      "name": "issuedNftPriceInCurrency6",
      "outputs": [
        {
          "internalType": "uint256",
          "name": "",
          "type": "uint256"
        }
      ],
      "stateMutability": "view",
      "type": "function"
    },
    {
      "inputs": [
        {
          "internalType": "uint64",
          "name": "hourIndex",
          "type": "uint64"
        }
      ],
      "name": "membershipFlowBucketAtHour",
      "outputs": [
        {
          "internalType": "uint256",
          "name": "issuedCount",
          "type": "uint256"
        },
        {
          "internalType": "uint256",
          "name": "upgradedCount",
          "type": "uint256"
        },
        {
          "internalType": "uint256",
          "name": "expiredDiscoveredCount",
          "type": "uint256"
        },
        {
          "internalType": "uint256",
          "name": "activeSwitchCount",
          "type": "uint256"
        },
        {
          "internalType": "uint256",
          "name": "activatedCount",
          "type": "uint256"
        },
        {
          "internalType": "uint256",
          "name": "deactivatedCount",
          "type": "uint256"
        },
        {
          "internalType": "bool",
          "name": "hasData",
          "type": "bool"
        }
      ],
      "stateMutability": "view",
      "type": "function"
    },
    {
      "inputs": [
        {
          "internalType": "uint8",
          "name": "scopeType",
          "type": "uint8"
        },
        {
          "internalType": "uint256",
          "name": "scopeKey",
          "type": "uint256"
        },
        {
          "internalType": "uint64",
          "name": "hourIndex",
          "type": "uint64"
        }
      ],
      "name": "membershipScopedFlowBucketAtHour",
      "outputs": [
        {
          "internalType": "uint256",
          "name": "issuedCount",
          "type": "uint256"
        },
        {
          "internalType": "uint256",
          "name": "upgradedCount",
          "type": "uint256"
        },
        {
          "internalType": "uint256",
          "name": "expiredDiscoveredCount",
          "type": "uint256"
        },
        {
          "internalType": "uint256",
          "name": "activeSwitchCount",
          "type": "uint256"
        },
        {
          "internalType": "uint256",
          "name": "activatedCount",
          "type": "uint256"
        },
        {
          "internalType": "uint256",
          "name": "deactivatedCount",
          "type": "uint256"
        },
        {
          "internalType": "bool",
          "name": "hasData",
          "type": "bool"
        }
      ],
      "stateMutability": "view",
      "type": "function"
    },
    {
      "inputs": [],
      "name": "metadataBaseURI",
      "outputs": [
        {
          "internalType": "string",
          "name": "",
          "type": "string"
        }
      ],
      "stateMutability": "view",
      "type": "function"
    },
    {
      "inputs": [
        {
          "internalType": "address",
          "name": "userEOA",
          "type": "address"
        },
        {
          "internalType": "uint256",
          "name": "id",
          "type": "uint256"
        },
        {
          "internalType": "uint256",
          "name": "amount6",
          "type": "uint256"
        }
      ],
      "name": "mintFaucetByGateway",
      "outputs": [],
      "stateMutability": "nonpayable",
      "type": "function"
    },
    {
      "inputs": [
        {
          "internalType": "address",
          "name": "userEOA",
          "type": "address"
        },
        {
          "internalType": "uint256",
          "name": "tokenId",
          "type": "uint256"
        },
        {
          "internalType": "uint256",
          "name": "amount",
          "type": "uint256"
        }
      ],
      "name": "mintIssuedNftByGateway",
      "outputs": [],
      "stateMutability": "nonpayable",
      "type": "function"
    },
    {
      "inputs": [
        {
          "internalType": "address",
          "name": "to",
          "type": "address"
        },
        {
          "internalType": "uint256",
          "name": "tokenId",
          "type": "uint256"
        },
        {
          "internalType": "uint256",
          "name": "amount",
          "type": "uint256"
        }
      ],
      "name": "mintIssuedNftByOwner",
      "outputs": [],
      "stateMutability": "nonpayable",
      "type": "function"
    },
    {
      "inputs": [
        {
          "internalType": "address",
          "name": "user",
          "type": "address"
        },
        {
          "internalType": "uint256",
          "name": "tierIndex",
          "type": "uint256"
        }
      ],
      "name": "mintMemberCardByAdmin",
      "outputs": [],
      "stateMutability": "nonpayable",
      "type": "function"
    },
    {
      "inputs": [
        {
          "internalType": "address",
          "name": "user",
          "type": "address"
        },
        {
          "internalType": "uint256",
          "name": "points6",
          "type": "uint256"
        }
      ],
      "name": "mintPointsByAdmin",
      "outputs": [],
      "stateMutability": "nonpayable",
      "type": "function"
    },
    {
      "inputs": [
        {
          "internalType": "address",
          "name": "user",
          "type": "address"
        },
        {
          "internalType": "uint256",
          "name": "points6",
          "type": "uint256"
        },
        {
          "internalType": "address",
          "name": "operator",
          "type": "address"
        }
      ],
      "name": "mintPointsByAdminWithOperator",
      "outputs": [],
      "stateMutability": "nonpayable",
      "type": "function"
    },
    {
      "inputs": [
        {
          "internalType": "address",
          "name": "userEOA",
          "type": "address"
        },
        {
          "internalType": "uint256",
          "name": "points6",
          "type": "uint256"
        }
      ],
      "name": "mintPointsByGateway",
      "outputs": [],
      "stateMutability": "nonpayable",
      "type": "function"
    },
    {
      "inputs": [
        {
          "internalType": "address",
          "name": "userEOA",
          "type": "address"
        },
        {
          "internalType": "uint256",
          "name": "points6",
          "type": "uint256"
        },
        {
          "internalType": "address",
          "name": "operator",
          "type": "address"
        }
      ],
      "name": "mintPointsByGatewayWithOperator",
      "outputs": [],
      "stateMutability": "nonpayable",
      "type": "function"
    },
    {
      "inputs": [],
      "name": "owner",
      "outputs": [
        {
          "internalType": "address",
          "name": "",
          "type": "address"
        }
      ],
      "stateMutability": "view",
      "type": "function"
    },
    {
      "inputs": [],
      "name": "pointsUnitPriceInCurrencyE6",
      "outputs": [
        {
          "internalType": "uint256",
          "name": "",
          "type": "uint256"
        }
      ],
      "stateMutability": "view",
      "type": "function"
    },
    {
      "inputs": [
        {
          "internalType": "address",
          "name": "operator",
          "type": "address"
        },
        {
          "internalType": "uint256",
          "name": "amount",
          "type": "uint256"
        }
      ],
      "name": "recordAdminBurnForStats",
      "outputs": [],
      "stateMutability": "nonpayable",
      "type": "function"
    },
    {
      "inputs": [
        {
          "internalType": "address",
          "name": "admin",
          "type": "address"
        },
        {
          "internalType": "uint256",
          "name": "amount",
          "type": "uint256"
        }
      ],
      "name": "recordAdminMintForStats",
      "outputs": [],
      "stateMutability": "nonpayable",
      "type": "function"
    },
    {
      "inputs": [
        {
          "internalType": "string",
          "name": "code",
          "type": "string"
        },
        {
          "internalType": "address",
          "name": "to",
          "type": "address"
        }
      ],
      "name": "redeemAdminByGateway",
      "outputs": [],
      "stateMutability": "nonpayable",
      "type": "function"
    },
    {
      "inputs": [
        {
          "internalType": "string[]",
          "name": "codes",
          "type": "string[]"
        },
        {
          "internalType": "address",
          "name": "userEOA",
          "type": "address"
        }
      ],
      "name": "redeemBatchByGateway",
      "outputs": [],
      "stateMutability": "nonpayable",
      "type": "function"
    },
    {
      "inputs": [
        {
          "internalType": "string",
          "name": "code",
          "type": "string"
        },
        {
          "internalType": "address",
          "name": "userEOA",
          "type": "address"
        }
      ],
      "name": "redeemByGateway",
      "outputs": [],
      "stateMutability": "nonpayable",
      "type": "function"
    },
    {
      "inputs": [
        {
          "internalType": "string",
          "name": "code",
          "type": "string"
        },
        {
          "internalType": "address",
          "name": "userEOA",
          "type": "address"
        }
      ],
      "name": "redeemPoolByGateway",
      "outputs": [],
      "stateMutability": "nonpayable",
      "type": "function"
    },
    {
      "inputs": [],
      "name": "renounceOwnership",
      "outputs": [],
      "stateMutability": "nonpayable",
      "type": "function"
    },
    {
      "inputs": [
        {
          "internalType": "address",
          "name": "from",
          "type": "address"
        },
        {
          "internalType": "address",
          "name": "to",
          "type": "address"
        },
        {
          "internalType": "uint256[]",
          "name": "ids",
          "type": "uint256[]"
        },
        {
          "internalType": "uint256[]",
          "name": "values",
          "type": "uint256[]"
        },
        {
          "internalType": "bytes",
          "name": "data",
          "type": "bytes"
        }
      ],
      "name": "safeBatchTransferFrom",
      "outputs": [],
      "stateMutability": "nonpayable",
      "type": "function"
    },
    {
      "inputs": [
        {
          "internalType": "address",
          "name": "from",
          "type": "address"
        },
        {
          "internalType": "address",
          "name": "to",
          "type": "address"
        },
        {
          "internalType": "uint256",
          "name": "id",
          "type": "uint256"
        },
        {
          "internalType": "uint256",
          "name": "value",
          "type": "uint256"
        },
        {
          "internalType": "bytes",
          "name": "data",
          "type": "bytes"
        }
      ],
      "name": "safeTransferFrom",
      "outputs": [],
      "stateMutability": "nonpayable",
      "type": "function"
    },
    {
      "inputs": [
        {
          "internalType": "address",
          "name": "operator",
          "type": "address"
        },
        {
          "internalType": "bool",
          "name": "approved",
          "type": "bool"
        }
      ],
      "name": "setApprovalForAll",
      "outputs": [],
      "stateMutability": "nonpayable",
      "type": "function"
    },
    {
      "inputs": [
        {
          "internalType": "uint256",
          "name": "attr",
          "type": "uint256"
        }
      ],
      "name": "setDefaultAttr",
      "outputs": [],
      "stateMutability": "nonpayable",
      "type": "function"
    },
    {
      "inputs": [
        {
          "internalType": "uint256",
          "name": "secs",
          "type": "uint256"
        }
      ],
      "name": "setExpirySeconds",
      "outputs": [],
      "stateMutability": "nonpayable",
      "type": "function"
    },
    {
      "inputs": [
        {
          "internalType": "uint256",
          "name": "priceInCurrencyE6",
          "type": "uint256"
        }
      ],
      "name": "setPointsUnitPrice",
      "outputs": [],
      "stateMutability": "nonpayable",
      "type": "function"
    },
    {
      "inputs": [
        {
          "components": [
            {
              "internalType": "uint256",
              "name": "minUsdc6",
              "type": "uint256"
            },
            {
              "internalType": "uint256",
              "name": "attr",
              "type": "uint256"
            },
            {
              "internalType": "uint256",
              "name": "tierExpirySeconds",
              "type": "uint256"
            },
            {
              "internalType": "bool",
              "name": "upgradeByBalance",
              "type": "bool"
            }
          ],
          "internalType": "struct BeamioUserCard.Tier[]",
          "name": "newTiers",
          "type": "tuple[]"
        }
      ],
      "name": "setTiers",
      "outputs": [],
      "stateMutability": "nonpayable",
      "type": "function"
    },
    {
      "inputs": [
        {
          "internalType": "address",
          "name": "target",
          "type": "address"
        },
        {
          "internalType": "bool",
          "name": "allowed",
          "type": "bool"
        }
      ],
      "name": "setTransferWhitelist",
      "outputs": [],
      "stateMutability": "nonpayable",
      "type": "function"
    },
    {
      "inputs": [
        {
          "internalType": "bool",
          "name": "enabled",
          "type": "bool"
        }
      ],
      "name": "setTransferWhitelistEnabled",
      "outputs": [],
      "stateMutability": "nonpayable",
      "type": "function"
    },
    {
      "inputs": [
        {
          "internalType": "bytes4",
          "name": "interfaceId",
          "type": "bytes4"
        }
      ],
      "name": "supportsInterface",
      "outputs": [
        {
          "internalType": "bool",
          "name": "",
          "type": "bool"
        }
      ],
      "stateMutability": "view",
      "type": "function"
    },
    {
      "inputs": [
        {
          "internalType": "uint256",
          "name": "",
          "type": "uint256"
        }
      ],
      "name": "tiers",
      "outputs": [
        {
          "internalType": "uint256",
          "name": "minUsdc6",
          "type": "uint256"
        },
        {
          "internalType": "uint256",
          "name": "attr",
          "type": "uint256"
        },
        {
          "internalType": "uint256",
          "name": "tierExpirySeconds",
          "type": "uint256"
        },
        {
          "internalType": "bool",
          "name": "upgradeByBalance",
          "type": "bool"
        }
      ],
      "stateMutability": "view",
      "type": "function"
    },
    {
      "inputs": [
        {
          "internalType": "uint256",
          "name": "",
          "type": "uint256"
        }
      ],
      "name": "tokenTierIndexOrMax",
      "outputs": [
        {
          "internalType": "uint256",
          "name": "",
          "type": "uint256"
        }
      ],
      "stateMutability": "view",
      "type": "function"
    },
    {
      "inputs": [],
      "name": "totalActiveMemberships",
      "outputs": [
        {
          "internalType": "uint256",
          "name": "",
          "type": "uint256"
        }
      ],
      "stateMutability": "view",
      "type": "function"
    },
    {
      "inputs": [],
      "name": "totalMembershipIssued",
      "outputs": [
        {
          "internalType": "uint256",
          "name": "",
          "type": "uint256"
        }
      ],
      "stateMutability": "view",
      "type": "function"
    },
    {
      "inputs": [
        {
          "internalType": "uint256",
          "name": "",
          "type": "uint256"
        }
      ],
      "name": "totalMembershipIssuedByTierIndex",
      "outputs": [
        {
          "internalType": "uint256",
          "name": "",
          "type": "uint256"
        }
      ],
      "stateMutability": "view",
      "type": "function"
    },
    {
      "inputs": [],
      "name": "totalMembershipUpgraded",
      "outputs": [
        {
          "internalType": "uint256",
          "name": "",
          "type": "uint256"
        }
      ],
      "stateMutability": "view",
      "type": "function"
    },
    {
      "inputs": [],
      "name": "totalSupply",
      "outputs": [
        {
          "internalType": "uint256",
          "name": "",
          "type": "uint256"
        }
      ],
      "stateMutability": "view",
      "type": "function"
    },
    {
      "inputs": [
        {
          "internalType": "uint256",
          "name": "id",
          "type": "uint256"
        }
      ],
      "name": "totalSupply",
      "outputs": [
        {
          "internalType": "uint256",
          "name": "",
          "type": "uint256"
        }
      ],
      "stateMutability": "view",
      "type": "function"
    },
    {
      "inputs": [
        {
          "internalType": "address",
          "name": "newOwner",
          "type": "address"
        }
      ],
      "name": "transferOwnership",
      "outputs": [],
      "stateMutability": "nonpayable",
      "type": "function"
    },
    {
      "inputs": [
        {
          "internalType": "address",
          "name": "",
          "type": "address"
        }
      ],
      "name": "transferWhitelist",
      "outputs": [
        {
          "internalType": "bool",
          "name": "",
          "type": "bool"
        }
      ],
      "stateMutability": "view",
      "type": "function"
    },
    {
      "inputs": [],
      "name": "transferWhitelistEnabled",
      "outputs": [
        {
          "internalType": "bool",
          "name": "",
          "type": "bool"
        }
      ],
      "stateMutability": "view",
      "type": "function"
    },
    {
      "inputs": [
        {
          "internalType": "uint256",
          "name": "",
          "type": "uint256"
        }
      ],
      "name": "uri",
      "outputs": [
        {
          "internalType": "string",
          "name": "",
          "type": "string"
        }
      ],
      "stateMutability": "view",
      "type": "function"
    }
  ],
  "bytecode": "0x60a06040523461033e576163908038038061001981610342565b928339810160a08282031261033e5781516001600160401b03811161033e57820181601f8201121561033e5780516001600160401b0381116102ae57610068601f8201601f1916602001610342565b928184526020828401011161033e575f928160208094018483015e0101526020810151600981101561033e576040820151916100b260806100ab60608401610367565b9201610367565b926020915f6100c084610342565b52600254600181811c91168015610334575b8482101461032057601f81116102ee575b505f6002556001600160a01b03169283156102db57600380546001600160a01b031981168617909155604051959085906001600160a01b03167f8be0079c531659141344cd1fd0a4f28419497f9722a3daafe3b4186f6b6457e05f80a3600160045560646019556001600160a01b0381169081159081156102d1575b506102c25733608052600580546001600160a01b03191682179055600680546001600160a81b03191690911760a09290921b60ff60a01b1691909117905560075560017fbc488d3e2575f0f2113dc4d9a0cd6bc52445c6bc28a8974ed97a6ba3ecfd657a8190555f8381527fbc488d3e2575f0f2113dc4d9a0cd6bc52445c6bc28a8974ed97a6ba3ecfd657b835260409020805460ff191690911790555f5160206163705f395f51905f525490680100000000000000008210156102ae5760018201805f5160206163705f395f51905f525582101561029a575f5160206163705f395f51905f525f908152200180546001600160a01b031916909117905564174876e8007ffed699897f2561c8a98f833aa3de83c4904370d413fe5fb15abe26e9f8150b2955615ff4908161037c8239608051816127b00152f35b634e487b7160e01b5f52603260045260245ffd5b634e487b7160e01b5f52604160045260245ffd5b63ab82bb9960e01b5f5260045ffd5b90503b155f61015f565b631e4fbdf760e01b5f525f60045260245ffd5b80156100e35760025f52601f845f20910160051c905f5b8281106103135750506100e3565b5f82820155600101610305565b634e487b7160e01b5f52602260045260245ffd5b90607f16906100d2565b5f80fd5b6040519190601f01601f191682016001600160401b038111838210176102ae57604052565b51906001600160a01b038216820361033e5756fe60806040526004361015610019575b3415613889575b5f80fd5b5f3560e01c8062fdd58e1461053d57806301ffc9a714610538578063039af9eb1461053357806303ca3e381461052e5780630b6c8d71146105295780630cb85641146105245780630e4ab4871461051f5780630e89341c1461051a5780630ec3786b146105155780631018c34b1461051057806310bba8641461050b578063116191b6146104ac5780631284b92f1461050657806317c957091461050157806318160ddd146104fc5780631c790e24146104f75780631fe56e6a146104f257806324d7806c146104ed5780632aff2a59146104e85780632b681a54146104e35780632eb2c2d6146104de578063312e76a9146104d95780633c703d45146104d45780633c970fb9146104cf57806343159ce5146104ca578063475e53ec146104c557806348ed7ebe146104c057806349dd0900146104bb5780634dda2215146104b65780634e1273f4146104b157806353785619146104ac5780635476d071146104a757806356217848146104a25780635637d5bc1461049d578063564da7571461049857806356c689fa146104935780636465c3a71461048e578063671395c8146104895780636f0fa0cb146104845780636f5def391461047f578063706e01321461047a578063715018a61461047557806371b8982f146103b75780637766fa44146104705780637ffbe2411461046b57806382b720c91461046657806383dbbf5314610461578063897828a81461045c5780638da5cb5b146104575780638db553081461045257806394b2e9461461044d5780639565c5421461044857806398951b56146104435780639b52f90d1461043e5780639f1bbda7146104395780639f3d1a2a146104345780639f48facc1461042f578063a22cb4651461042a578063a479044614610425578063a876c75914610420578063a98d916e1461041b578063acf12d3d14610416578063aeadb04b14610411578063af7ffa2b1461040c578063b84f1fe814610407578063bd85b03914610402578063c926bbfd146103fd578063c9840daf146103f8578063d05dcc6a146103f3578063d4506e77146103ee578063d52dc515146103e9578063d5f39488146103e4578063dd1bc5e9146103df578063e141dcb8146103da578063e4a34dce146103d5578063e5a6b10f146103d0578063e985e9c5146103cb578063f242432a146103c6578063f2fde38b146103c1578063f540f227146103bc578063f986f676146103b7578063fcef6b01146103b25763ffa1ad740361000e57612b6b565b612b4e565b611d06565b612b24565b612aad565b6129c0565b61298f565b61294f565b61291a565b612809565b6127df565b61279b565b612779565b612721565b6126f7565b61261d565b612603565b6125cd565b6125a6565b612533565b61250c565b6124ef565b6124d0565b6124b3565b61244b565b6123cc565b61226e565b6121b7565b61219a565b612173565b6120ff565b6120d7565b61209c565b612074565b61204c565b611fea565b611f7e565b611e87565b611e47565b611d53565b611c65565b611c46565b611c1f565b611bf8565b611bbd565b611ab3565b611a24565b611943565b611928565b6118fe565b6118e1565b610c75565b611820565b6117bf565b611784565b611669565b6115f7565b6114ac565b611469565b611420565b6113c5565b611331565b6111ad565b61112f565b6110d5565b6110ab565b610fee565b610fc5565b610f9b565b610ee5565b610c36565b610bd9565b610b7d565b610a17565b610991565b610934565b6108f3565b6106cd565b610650565b6105ad565b61055f565b6001600160a01b031690565b6001600160a01b0381160361001557565b346100155760403660031901126100155760206105926004356105818161054e565b6024355f525f835260405f20610ebb565b54604051908152f35b6001600160e01b031981160361001557565b346100155760203660031901126100155760206004356105cc8161059b565b63ffffffff60e01b16636cdb3d1360e11b811490811561060a575b81156105f9575b506040519015158152f35b6301ffc9a760e01b1490505f6105ee565b6303a24d0760e21b811491506105e7565b634e487b7160e01b5f52603260045260245ffd5b60175481101561064b5760175f5260205f209060021b01905f90565b61061b565b34610015576020366003190112610015576004356017548110156100155761067960809161062f565b5080549060018101549060ff6003600283015492015416916040519384526020840152604083015215156060820152f35b6060906003190112610015576004356106c28161054e565b906024359060443590565b34610015576106db366106aa565b600654919290916001600160a01b03168061088057506005546001600160a01b03165b6001600160a01b0316330361087157610715613948565b6001600160a01b03811691821561086257801561085357610778610787916107735f516020615ee85f395f51905f529661076560405193849263c791063b60e01b60208501528860248501612b86565b03601f19810183528261121d565b613968565b60208082518301019101612ba4565b939091610805610796826139fd565b916107a083613b14565b6107f76107ac84610c9d565b54156107c16107b9612bba565b8a8988613b76565b8661084c5788905b60135460145492909115610830576107e19087613bbd565b6003546001600160a01b0316613bf2565b613bf2565b61080085610f41565b610ebb565b546040516001600160a01b039092169582916108219183612bce565b0390a461082e6001600455565b005b8061083c575b506107e1565b6108469087613b96565b5f610836565b5f906107c9565b63201165f360e21b5f5260045ffd5b63a9b8048960e01b5f5260045ffd5b6396f47d2360e01b5f5260045ffd5b6106fe565b6060602091604081019381526040838201528451809452019201905f5b8181106108af5750505090565b909192602060a060019260808751805183528481015185840152604081015160408401526060810151606084015201511515608082015201940191019190916108a2565b346100155760203660031901126100155761092061091b6004356109168161054e565b613ca5565b612cc3565b9061093060405192839283610885565b0390f35b34610015576040366003190112610015576004356109518161054e565b600654602435906001600160a01b03168061098c57506005546001600160a01b03165b6001600160a01b031633036108715761082e91613dac565b610974565b34610015576020366003190112610015576004356109ad613ebc565b7ff316e065e93b4fddef3d2d93a57817985081f76ea9e0ca7417ed5b4b086b1fcb6020601854604051908152a1601855005b805180835260209291819084018484015e5f828201840152601f01601f1916010190565b906020610a149281815201906109df565b90565b3461001557602036600319011261001557610a30613f20565b6040516001600160601b03193060601b1660208201526014815290610a5660348361121d565b610a5e613f97565b91610a67613fc5565b925f5b60148110610ab85760405161093090610aac81610765610a978a610a91602085018c612bf0565b90612bf0565b683db4b23e973539b7b760b91b815260090190565b60405191829182610a03565b80610b00610ad7610afa610af4610aeb610ae5610ad76001988b613fe7565b516001600160f81b03191690565b60f81c90565b60041c600f1690565b60ff1690565b85613fe7565b610b16610b0c83612e41565b915f1a9188613fe7565b53610b39610ad7610afa600f610b32610ae5610ad7878b613fe7565b1660ff1690565b610b4d610b0c610b4884612e41565b61386e565b5301610a6a565b606090600319011261001557600435610b6c8161054e565b9060243590604435610a148161054e565b3461001557610b8b36610b54565b6006549091906001600160a01b031680610bd457506005546001600160a01b03165b6001600160a01b0316330361087157610bcd92610bc8613948565b613ff8565b6001600455005b610bad565b3461001557604036600319011261001557600435610bf68161054e565b600654602435906001600160a01b031680610c3157506005546001600160a01b03165b6001600160a01b031633036108715761082e91614095565b610c19565b34610015575f36600319011261001557602060405160068152f35b6001600160a01b0316600452602490565b6001600160a01b03909116815260200190565b34610015575f366003190112610015576005546040516001600160a01b039091168152602090f35b6001600160a01b03165f908152600f6020526040902090565b6001600160a01b03165f9081527fbc488d3e2575f0f2113dc4d9a0cd6bc52445c6bc28a8974ed97a6ba3ecfd657b6020526040902090565b6001600160a01b03165f9081527fbc488d3e2575f0f2113dc4d9a0cd6bc52445c6bc28a8974ed97a6ba3ecfd65816020526040902090565b6001600160a01b03165f9081527fbe5c2328713858b26c97b83c5ace333ac35b55572be4794180ba426b12cc48be6020526040902090565b6001600160a01b03165f9081527fbe5c2328713858b26c97b83c5ace333ac35b55572be4794180ba426b12cc48bf6020526040902090565b6001600160a01b03165f9081527fbe5c2328713858b26c97b83c5ace333ac35b55572be4794180ba426b12cc48c16020526040902090565b6001600160a01b03165f9081527fbe5c2328713858b26c97b83c5ace333ac35b55572be4794180ba426b12cc48c26020526040902090565b6001600160a01b03165f9081527fbe5c2328713858b26c97b83c5ace333ac35b55572be4794180ba426b12cc48c06020526040902090565b6001600160a01b03165f9081527fbe5c2328713858b26c97b83c5ace333ac35b55572be4794180ba426b12cc48c36020526040902090565b5f805260096020527fec8156718a8372b1db44bb411437d0870f3e3790d4a08526d024ce1b0b668f6b90565b6001600160a01b03165f90815260096020526040902090565b9060018060a01b03165f5260205260405f2090565b805482101561064b575f5260205f2001905f90565b3461001557604036600319011261001557600435610f028161054e565b6001600160a01b03165f908152600e602052604090208054602435919082101561001557602091610f3291610ed0565b90549060031b1c604051908152f35b5f527fe5fcefe92466b78c655fa732b80b16e07a00f2a897e833e17d9914703cad563360205260405f2090565b5f527fcb1a422c9916903f224af4db9a3bf1529921bf95ff7b75d7d9ed9073a48394ac60205260405f2090565b34610015576020366003190112610015576004355f52600b602052602060405f2054604051908152f35b34610015575f3660031901126100155760205f516020615fa85f395f51905f5254604051908152f35b346100155760403660031901126100155760243560043561100e8261054e565b6006546001600160a01b0316806110a657506005546001600160a01b03165b6001600160a01b03163303610871575f80611046614142565b93604051602081019163071e438960e21b835285602483015260018060a01b031660448201526044815261107b60648261121d565b5190855af4611088612c02565b50156110975761082e916144f2565b6363bc5ecb60e11b5f5260045ffd5b61102d565b34610015576020366003190112610015576004355f526011602052602060405f2054604051908152f35b3461001557602036600319011261001557602060ff6110fe6004356110f98161054e565b610cb6565b54166040519015158152f35b6040906003190112610015576004356111228161054e565b90602435610a148161054e565b346100155761113d3661110a565b6006546001600160a01b0316806111a857506005546001600160a01b03165b6001600160a01b0316330361087157604051630ed647d960e11b60208201526001600160a01b0392831660248201529116604482015261082e906111a38160648101610765565b613995565b61115c565b346100155760203660031901126100155761092060043561091b8161054e565b634e487b7160e01b5f52604160045260245ffd5b61010081019081106001600160401b038211176111fd57604052565b6111cd565b608081019081106001600160401b038211176111fd57604052565b601f909101601f19168101906001600160401b038211908210176111fd57604052565b6040519061124f60a08361121d565b565b6001600160401b0381116111fd5760051b60200190565b9080601f8301121561001557813561127f81611251565b9261128d604051948561121d565b81845260208085019260051b82010192831161001557602001905b8282106112b55750505090565b81358152602091820191016112a8565b6001600160401b0381116111fd57601f01601f191660200190565b9291926112ec826112c5565b916112fa604051938461121d565b829481845281830111610015578281602093845f960137010152565b9080601f8301121561001557816020610a14933591016112e0565b346100155760a03660031901126100155760043561134e8161054e565b6024359061135b8261054e565b6044356001600160401b0381116100155761137a903690600401611268565b6064356001600160401b03811161001557611399903690600401611268565b608435939091906001600160401b038511610015576113bf61082e953690600401611316565b93612dc4565b34610015576020366003190112610015576004356001600160401b03811161001557366023820112156100155760048101356001600160401b038111610015573660248260071b8401011161001557602461082e9201612f4f565b34610015576020366003190112610015576004355f527ffed699897f2561c8a98f833aa3de83c4904370d413fe5fb15abe26e9f8150b30602052602060405f2054604051908152f35b3461001557604036600319011261001557610bcd6004356114898161054e565b602435611494613948565b61149c613ebc565b6107e160135491601454936145d3565b34610015576040366003190112610015576004356114c98161054e565b6024356006546001600160a01b0316806115f257506005546001600160a01b03165b6001600160a01b0316330361087157611502613948565b9081906001600160a01b038116156108625761151d906139fd565b5f8080526020529061153c825f516020615fc85f395f51905f52610ebb565b54908115610853575f19146115ea575b8083116115b057508115610853576115a381611589847fcfaedf921126ed75cd0b52e9418d816572c256b67104e03066bd3f067f2d53c0946145fa565b6040519384526001600160a01b0316929081906020820190565b0390a261082e6001600455565b60405163406e3ab960e01b81526001600160a01b0390921660048301525f60248301526044820152606481019190915280608481015b0390fd5b91508161154c565b6114eb565b3461001557611605366106aa565b6006549091906001600160a01b03168061166457506005546001600160a01b03165b6001600160a01b031633036108715761163e613948565b6001600160a01b038316156108625781156108535761165f610bcd936139fd565b614833565b611627565b346100155761167736610b54565b600654919290916001600160a01b03168061177f57506005546001600160a01b03165b6001600160a01b03163303610871576116b1613948565b6001600160a01b03811615801561176e575b610862578215610853576116e76116e36116dc84610cb6565b5460ff1690565b1590565b611097575f516020615f285f395f51905f529161158961172f6115a393611729604051631deff10f60e11b60208201526111a3816107658b8960248401612fec565b506139fd565b9161173d6013549060145490565b91611750611749612bba565b8987613b51565b61175a8882613dac565b61176488866148b0565b6107f28886613b96565b506001600160a01b038216156116c3565b61169a565b346100155760203660031901126100155760206004356117a38161054e565b6001600160a01b03906117b590610cee565b5416604051908152f35b34610015575f366003190112610015576020600754604051908152f35b90602080835192838152019201905f5b8181106117f95750505090565b82518452602093840193909201916001016117ec565b906020610a149281815201906117dc565b34610015576040366003190112610015576004356001600160401b03811161001557366023820112156100155780600401359061185c82611251565b9161186a604051938461121d565b8083526024602084019160051b8301019136831161001557602401905b8282106118c757836024356001600160401b03811161001557610930916118b56118bb923690600401611268565b90613039565b6040519182918261180f565b6020809183356118d68161054e565b815201910190611887565b34610015575f366003190112610015576020601554604051908152f35b34610015576020366003190112610015576004355f526012602052602060405f2054604051908152f35b34610015575f36600319011261001557602060405160648152f35b34610015576040366003190112610015576004356119608161054e565b6024359061196c613948565b611974613ebc565b6001600160a01b03811615610862578115610853576115a36119a35f516020615f285f395f51905f52926139fd565b611589601354601454906119c86040516119be60208261121d565b5f81528886613b51565b6119d287856148b0565b6107e18785613b96565b604435906001600160401b038216820361001557565b959260c09592989794919860e08801998852602088015260408701526060860152608085015260a08401521515910152565b34610015576020366003190112610015576004356001600160401b0381168103610015576001600160401b03165f9081527f348bae4e1f5cd16c7acea618682eb9de87b5f8161d5b94b9b5591b7620ae71a2602052604090208054610930600183015492600281015490600381015460048201549060ff600660058501549401541693604051978897886119f2565b3461001557611ac1366106aa565b600654919290916001600160a01b031680611bb857506005546001600160a01b03165b6001600160a01b0316330361087157611afb613948565b6001600160a01b03811691821561086257801561085357610778611b4b916107735f516020615ee85f395f51905f5296610765604051938492634404589760e01b60208501528860248501612b86565b939091610805611b5a826139fd565b91611b6e611b66612bba565b888786613b76565b84611bb257865b80611b85575b5061080085610f41565b6107e1611bac91611b996013549060145490565b929091611ba681896148b0565b87613b96565b5f611b7b565b5f611b75565b611ae4565b3461001557602036600319011261001557600435611bda8161054e565b60018060a01b03165f52600f602052602060405f2054604051908152f35b34610015576020366003190112610015576020610592600435611c1a8161054e565b610d26565b34610015576020366003190112610015576020610592600435611c418161054e565b610d5e565b3461001557611c54366106aa565b90611c5d613948565b61163e613ebc565b34610015575f36600319011261001557611c7d6148d7565b600380546001600160a01b031981169091555f906001600160a01b03165f516020615f685f395f51905f528280a3005b906040600319830112610015576004356001600160401b0381116100155782602382011215610015576004810135926001600160401b0384116100155760248483010111610015576024019190602435610a148161054e565b3461001557611d1436611cad565b6006549091906001600160a01b031680611d4e57506005546001600160a01b03165b6001600160a01b031633036108715761082e926130c8565b611d36565b3461001557611d6136611cad565b6006549192916001600160a01b031680611e4257506005546001600160a01b03165b6001600160a01b0316330361087157611d9a613948565b6001600160a01b0381161561086257611de9611dda5f94611dd58695610765604051938492633aa2954160e11b60208501526024840161337b565b6139a2565b6020808251830101910161338c565b90610765611e17611df8614142565b936040519283916020830195630b18ae1d60e11b8752602484016133ee565b51915af4611e23612c02565b5015611e335761082e6001600455565b63fb713d2b60e01b5f5260045ffd5b611d83565b3461001557602036600319011261001557600435611e648161054e565b60018060a01b03165f526009602052602060ff60405f2054166040519015158152f35b346100155760a036600319011261001557600435611ea48161059b565b60243590611eb18261054e565b604435906064356084356006549091906001600160a01b031680611f7957506005546001600160a01b03165b6001600160a01b0316330361087157611f4993611ef8614142565b6040516382b720c960e01b60208201526001600160e01b031990951660248601526001600160a01b0390961660448501526064840152608483015260a48083019190915281526111a360c48261121d565b9060208280518101031261001557611f69602061093093015180926144f2565b6040519081529081906020820190565b611edd565b3461001557602036600319011261001557600435611f9a613ebc565b8015611fd1576020817fd45b01a2f21a7aa8a0f57023efdce73147de071e77875c3f4d486b1e13eaef7092600755604051908152a1005b6376024b7160e01b5f5260045ffd5b8015150361001557565b34610015576020366003190112610015577fc52867146282c253c04e94eb2a948478a1f7ef84cf2d6f5864facc99f2203f2c602060043561202a81611fe0565b612032613ebc565b151560ff19600a541660ff821617600a55604051908152a1005b34610015575f366003190112610015576003546040516001600160a01b039091168152602090f35b3461001557602036600319011261001557602061209260043561341e565b6040519015158152f35b34610015576020366003190112610015576004356120b98161054e565b60018060a01b03165f526010602052602060405f2054604051908152f35b34610015575f366003190112610015576006546040516001600160a01b039091168152602090f35b346100155760203660031901126100155760043560ff61211e33610cb6565b5416156110975761212d614142565b905f806040516020810190634c4a8dab60e11b82528460248201526024815261215760448261121d565b5190855af4612164612c02565b5015611e335761082e916144f2565b346100155760203660031901126100155760206105926004356121958161054e565b610d96565b34610015575f366003190112610015576020600854604051908152f35b34610015575f366003190112610015576109306121d2613f20565b6040519182916020835260208301906109df565b81516001600160401b039081168252602080840151909116908201526040808301516001600160801b0390811691830191909152606080840151909116908201526101008101929161124f919060e090819060808181015115159085015260a08181015160ff169085015260c08181015160ff169085015201516001600160801b0316910152565b34610015576020366003190112610015576004355f60e0604051612291816111e1565b8281528260208201528260408201528260608201528260808201528260a08201528260c082015201525f527fe5fcefe92466b78c655fa732b80b16e07a00f2a897e833e17d9914703cad563260205261093060405f2061239b61238b6002604051936122fc856111e1565b80546001600160401b038082168752604082901c16602087015261232d9060801c6001600160801b03166040870152565b60018101546001600160801b038116606087015261237d906123739061235d608082901c60ff16151560808a0152565b60ff608882901c1660a089015260901c60ff1690565b60ff1660c0870152565b01546001600160801b031690565b6001600160801b031660e0830152565b604051918291826121e6565b6040906003190112610015576004356123bf8161054e565b90602435610a1481611fe0565b34610015576123da366123a7565b6001600160a01b038216918215612439578161240461240992335f52600160205260405f20610ebb565b612ed6565b60405190151581527f17307eab39ab6107e8899845ad3d59bd9653f200f220920489ca2b5937696c3160203392a3005b62ced3e160e81b5f525f60045260245ffd5b34610015576040366003190112610015576004356001600160401b0381116100155736602382011215610015576004810135906001600160401b038211610015573660248360051b830101116100155761082e9160248035926124ad8461054e565b016134d8565b34610015575f366003190112610015576020601854604051908152f35b34610015575f36600319011261001557602060405164174876e8008152f35b34610015575f366003190112610015576020601354604051908152f35b3461001557602036600319011261001557602061059260043561252e8161054e565b610dce565b34610015576040366003190112610015576004356125508161054e565b60065460243591906001600160a01b0316806125a157506005546001600160a01b03165b6001600160a01b0316330361087157610bcd9161258f613948565b6003546001600160a01b031691613ff8565b612574565b346100155760203660031901126100155760206105926004356125c88161054e565b610e06565b34610015576020366003190112610015576004355f525f516020615f485f395f51905f52602052602060405f2054604051908152f35b34610015575f3660031901126100155760206040515f8152f35b346100155760603660031901126100155760043560ff81168091036100155760243590600161264a6119dc565b91036126bf57612683915f527f348bae4e1f5cd16c7acea618682eb9de87b5f8161d5b94b9b5591b7620ae71a360205260405f206130b3565b805461093060018301549260028101549060038101546004820154906126b26006600585015494015460ff1690565b93604051978897886119f2565b6126f2915f527f348bae4e1f5cd16c7acea618682eb9de87b5f8161d5b94b9b5591b7620ae71a460205260405f206130b3565b612683565b34610015576020366003190112610015576004355f52600c602052602060405f2054604051908152f35b346100155760203660031901126100155760043561273d613ebc565b7f1c8121c98d871a1523a6112e29ac660378afbcb9b921cff8f187c3da35d170818160085461277160405192839283612bce565b0390a1600855005b34610015575f36600319011261001557602060ff600a54166040519015158152f35b34610015575f366003190112610015576040517f00000000000000000000000000000000000000000000000000000000000000006001600160a01b03168152602090f35b34610015576020366003190112610015576004355f526016602052602060405f2054604051908152f35b346100155760803660031901126100155760443560043560643560243561282f82611fe0565b612837613ebc565b821561290b57601754916040519461284e86611202565b8486526020860192808452604087019382855260608801978415158952600160401b8710156111fd57600187016017556128878761062f565b919091612906577fb08290a3275552d4032ce96418c8bc739fd6be2860fe5897558f5c0af90e91fb99612901976128d4946003935185555160018501555160028401555115159101612ed6565b6040519586958693909594919260809360a086019786526020860152604085015260608401521515910152565b0390a1005b612e5c565b639033099360e01b5f5260045ffd5b346100155761082e61292b366123a7565b90612934613ebc565b6001600160a01b03165f908152600960205260409020612ed6565b34610015575f3660031901126100155760ff60065460a01c16604051600982101561297b576020918152f35b634e487b7160e01b5f52602160045260245ffd5b3461001557602060ff6110fe6129a43661110a565b6001600160a01b039091165f9081526001855260409020610ebb565b346100155760a0366003190112610015576004356129dd8161054e565b6024356129e98161054e565b60443590606435926084356001600160401b03811161001557612a10903690600401611316565b926001600160a01b0382163381141580612a8d575b612a77576001600160a01b03841615612a645715612a525761082e94612a4a91614f65565b929091615230565b626a0d4560e21b5f525f60045260245ffd5b632bfa23e760e11b5f525f60045260245ffd5b63711bec9160e11b5f523360045260245260445ffd5b50805f52600160205260ff612aa53360405f20610ebb565b541615612a25565b3461001557602036600319011261001557600435612aca8161054e565b612ad26148d7565b6001600160a01b03168015612b1157600380546001600160a01b0319811683179091556001600160a01b03165f516020615f685f395f51905f525f80a3005b631e4fbdf760e01b5f525f60045260245ffd5b34610015576020366003190112610015576004355f52600d602052602060405f2054604051908152f35b34610015575f366003190112610015576020601454604051908152f35b34610015575f366003190112610015576020604051600c8152f35b604091949392606082019560018060a01b0316825260208201520152565b9190826040910312610015576020825192015190565b60405190612bc960208361121d565b5f8252565b908152602081019190915260400190565b5f516020615fa85f395f51905f5255565b805191908290602001825e015f815290565b3d15612c2c573d90612c13826112c5565b91612c21604051938461121d565b82523d5f602084013e565b606090565b90612c3b82611251565b612c48604051918261121d565b8281528092612c59601f1991611251565b015f5b818110612c6857505050565b60405160a0810191906001600160401b038311818410176111fd576020926040525f81525f838201525f60408201525f60608201525f608082015282828601015201612c5c565b805182101561064b5760209160051b010190565b6001600160a01b0381165f908152600e60205260409020909190918254612ce981612c31565b935f5b828110612d195750505f80805260205250612d14905f516020615fc85f395f51905f52610ebb565b549190565b80612d33612d2960019385610ed0565b90549060031b1c90565b612d9d612d48825f52600b60205260405f2090565b548015159081612db9575b612d65845f52600c60205260405f2090565b54612d78855f52600d60205260405f2090565b5490612d82611240565b95865260208601526040850152606084015215156080830152565b612da78289612caf565b52612db28188612caf565b5001612cec565b809150421190612d53565b939291906001600160a01b0385163381141580612dfd575b612a77576001600160a01b03821615612a645715612a525761124f94615230565b50805f52600160205260ff612e153360405f20610ebb565b541615612ddc565b919081101561064b5760071b0190565b634e487b7160e01b5f52601160045260245ffd5b908160011b9180830460021490151715612e5757565b612e2d565b634e487b7160e01b5f525f60045260245ffd5b6017545f60175580612e7e5750565b600281901b906001600160fe1b03811603612e575760175f5260205f205f5b828110612ea957505050565b805f60036004938501828155826001820155826002820155015501612e9d565b805460ff19166001179055565b9060ff801983541691151516179055565b601754600160401b8110156111fd576001810160175560175481101561064b5760175f5260021b5f516020615f885f395f51905f52016003606061124f93803584556020810135600185015560408101356002850155013591612f4983611fe0565b01612ed6565b612f57613ebc565b8115612fdd575f5b828110612fc45750612f6f612e6f565b5f5b828110612fa85750506040519081527f2f291eaf494dc7eca20457441a1df7d9119f0c0d764309daf9cb6b148810ee3690602090a1565b80612fbe612fb96001938686612e1d565b612ee7565b01612f71565b612fcf818484612e1d565b351561290b57600101612f5f565b6308ba5b6160e01b5f5260045ffd5b6001600160a01b039091168152602081019190915260400190565b9061301182611251565b61301e604051918261121d565b828152809261302f601f1991611251565b0190602036910137565b9190918051835180820361309e5750506130538151613007565b905f5b8151811015613097578061308560019260051b602080828701015191890101515f525f60205260405f20610ebb565b546130908286612caf565b5201613056565b5090925050565b635b05999160e01b5f5260045260245260445ffd5b9060018060401b03165f5260205260405f2090565b90926130d2613948565b6001600160a01b038316156108625761311d6130ee8584614927565b94611dd56130fc82866149a3565b946107658760405194859363fd44e85560e01b6020860152602485016148fe565b93613131602086518701016020870161381c565b949296915096875185510361333e575061314a906139fd565b9061315482613b14565b61315d82610c9d565b54155f955f975f5b8a518110156131aa57613178818c612caf565b5115613187575b600101613165565b98509661319f906131988a89612caf565b519061387c565b60019890979061317f565b50909192949796939615613336575b50818061332b575b613303575b82806132b4575b50505f5b875181101561325a576131e48186612caf565b51908115610853576001916131f9828b612caf565b51156132545764174876e80061320f838c612caf565b51106132305761322a90613223838c612caf565b5189614833565b016131d1565b61324f9061323e838c612caf565b5190613248612bba565b918a613b76565b61322a565b5061322a565b5091955061328f9490939192506001600160a01b038116156132a257905b60135460145494909315613299576107f291613bbd565b61124f6001600455565b6107f291613b96565b506132ae600354610542565b90613278565b6132e8916132ca6132c3612bba565b838a613b51565b6001600160a01b038916156132ef576132e3828a613dac565b614a84565b5f826131cd565b6132e3826132fe600354610542565b613dac565b61331361330e614a19565b61062f565b50548310156131c65763559d06d760e01b5f5260045ffd5b5060175415156131c1565b92505f6131b9565b60405163dccff66960e01b81529081906115e69060048301610a03565b908060209392818452848401375f828201840152601f01601f1916010190565b916020610a1493818152019161335b565b602081830312610015578051906001600160401b038211610015570181601f82011215610015578051906133bf826112c5565b926133cd604051948561121d565b8284526020838301011161001557815f9260208093018386015e8301015290565b6001600160a01b0390911681526001602082018190526040820152608060608201819052610a14929101906109df565b64174876e80081106134c9575f9081527ffed699897f2561c8a98f833aa3de83c4904370d413fe5fb15abe26e9f8150b2a60209081526040808320547ffed699897f2561c8a98f833aa3de83c4904370d413fe5fb15abe26e9f8150b2b909252909120546001600160401b03908116911680151590816134ce575b506134c9576001600160401b031680151590816134bf575b506134bb57600190565b5f90565b905042115f6134b1565b505f90565b905042105f613499565b600654919390916001600160a01b0316806136df57506005546001600160a01b03165b6001600160a01b0316330361087157613512613948565b6001600160a01b03831615610862578315611e335761357561353d61353786856136e4565b90614927565b94611dd561355461354e83876136e4565b906149a3565b946107658760405194859363bca0e27d60e01b60208601526024850161371e565b93613589602086518701016020870161381c565b949296915096875185510361333e57506135a2906139fd565b906135ac82613b14565b6135b582610c9d565b54155f955f975f5b8a518110156135fb576135d0818c612caf565b51156135df575b6001016135bd565b9850966135f0906131988a89612caf565b6001989097906135d7565b509091929497969396156136d7575b5081806136cc575b6136a9575b8280613693575b50505f5b875181101561325a576136358186612caf565b519081156108535760019161364a828b612caf565b511561368d5764174876e800613660838c612caf565b511061367a5761367490613223838c612caf565b01613622565b6136889061323e838c612caf565b613674565b50613674565b6136a2916132ca6132c3612bba565b5f8261361e565b6136b461330e614a19565b50548310156136175763559d06d760e01b5f5260045ffd5b506017541515613612565b92505f61360a565b6134fb565b901561064b57803590601e19813603018212156100155701803591906001600160401b038311610015576020018236038113610015579190565b93929190816040860160408752526060850160608360051b87010192825f90601e19813603015b8383106137685750505050505090602061124f9294019060018060a01b03169052565b909192939495605f198a8203018652863582811215610015578301602081019190356001600160401b038111610015578036038313610015576137b1602092839260019561335b565b980196019493019190613745565b9080601f830112156100155781516137d681611251565b926137e4604051948561121d565b81845260208085019260051b82010192831161001557602001905b82821061380c5750505090565b81518152602091820191016137ff565b9060808282031261001557815192602083015192604081015160018060401b038111610015578361384e9183016137bf565b60608201519093906001600160401b03811161001557610a1492016137bf565b9060018201809211612e5757565b91908201809211612e5757565b5f356001600160e01b03191661389e81614afc565b156138c857505f806138ae614e97565b368280378136915af43d90815f803e156138c5575ff35b5ffd5b6138d181614bcf565b156138e657505f806138e16142b8565b6138ae565b6138ef81614e0b565b156138ff57505f806138e1614142565b6001600160e01b03191663f42987cd60e01b810161392257505f806138e1614246565b6363039f8b60e11b03613939575f806138e16141d4565b633655084960e01b5f5260045ffd5b600260045414613959576002600455565b633ee5aeb560e01b5f5260045ffd5b5f80916139756001614329565b602082519201905af490613987612c02565b911561398f57565b50614f33565b5f80916139756003614329565b5f809161397582614329565b5f80916139756004614329565b5f80916139756002614329565b908160209103126100155751610a148161054e565b6040513d5f823e3d90fd5b908160209103126100155751610a1481611fe0565b60046020613a17613a12613a12600554610542565b610542565b604051630e83251360e01b815292839182905afa908115613ad1575f91613ae5575b506001600160a01b03168015613ad657602060405180926303330c7960e41b82528180613a698760048301610c62565b03915afa908115613ad1575f91613aa2575b50613a8957610a1490613ca5565b803b15613a935790565b632ad05f3360e11b5f5260045ffd5b613ac4915060203d602011613aca575b613abc818361121d565b8101906139e8565b5f613a7b565b503d613ab2565b6139dd565b63ab82bb9960e01b5f5260045ffd5b613b07915060203d602011613b0d575b613aff818361121d565b8101906139c8565b5f613a39565b503d613af5565b60405163e6a84c7760e01b60208201526001600160a01b039091166024808301919091528152613b4e90613b4960448261121d565b6139ae565b50565b9091906001600160a01b03811615612a6457613b7061124f935f614f65565b91614f8a565b919291906001600160a01b03821615612a645761124f93613b7091614f65565b90613b49613b4e9261076560405193849263a55d613f60e01b602085015260248401612fec565b90613b49613b4e9261076560405193849263179953bf60e11b602085015260248401612fec565b5f198114612e575760010190565b601354828103949392818611612e5757601454938403938411612e57576001600160a01b03831615918215613c8d575b5050613c8757925f935b6001600160a01b038116151580613c7d575b15613c7657613c6a613c5d82613c588686613c7096615551565b610cee565b546001600160a01b031690565b94613be4565b93613c2c565b5050509050565b5060408510613c3e565b50509050565b14905080613c9d575b5f80613c22565b508115613c96565b60046020613cba613a12613a12600554610542565b60405163fb3894d360e01b815292839182905afa908115613ad1575f91613d8d575b506001600160a01b038116918215613ad657602060405180946308a8c59960e01b82528180613d0e8660048301610c62565b03915afa928315613ad1575f93613d6c575b506001600160a01b038316158015613d63575b613d3c57505090565b63ad12d34160e01b5f526001600160a01b039081166004529081166024521660445260645ffd5b50823b15613d33565b613d8691935060203d602011613b0d57613aff818361121d565b915f613d20565b613da6915060203d602011613b0d57613aff818361121d565b5f613cdc565b906001600160a01b038216158015613eb4575b613eb057613dcc82610d26565b805492828401809411612e5757600893613de69255610e3e565b610e1042045f5260205260405f209060098201613e076116e3825460ff1690565b613ea1575b50613e185f835461387c565b8255613e296001830191825461387c565b905560028101613e3a5f825461387c565b905560038101613e4b5f825461387c565b905560048101613e5c5f825461387c565b905560058101613e6d5f825461387c565b905560068101613e7e5f825461387c565b905560078101613e8f5f825461387c565b905501613e9d5f825461387c565b9055565b613eaa90612ec9565b5f613e0c565b5050565b508015613dbf565b6006546001600160a01b031680613f1b57506005546001600160a01b03165b6003546001600160a01b03163314159081613f07575b50613ef857565b630fc5e1ab60e41b5f5260045ffd5b6001600160a01b031633141590505f613ef1565b613edb565b6005546001600160a01b03168015818115613f8d575b50613ad6575f60049160405192838092634f9e8d1560e11b82525afa908115613ad1575f91613f6b575b50805115613ad65790565b613f8791503d805f833e613f7f818361121d565b81019061338c565b5f613f60565b90503b155f613f36565b60405190613fa660408361121d565b601082526f181899199a1a9b1b9c1cb0b131b232b360811b6020830152565b60405160609190613fd6838261121d565b6028815291601f1901366020840137565b90815181101561064b570160200190565b90916001600160a01b03821691908215610862576001600160a01b038116156108625783156108535761407f61404e7f6ac4f60455173f2148d89d52868ac4ffb14111720d245aa36ad26e0d7e64c59b936139fd565b9160135460145491614061611749612bba565b61406b88866148b0565b6140758886613b96565b6107f2888261564f565b6040519384526001600160a01b031692602090a3565b906001600160a01b03821615801561413a575b613eb0576140b582610d5e565b805492828401809411612e57576008936140e592556140d8610e10420491610e3e565b905f5260205260405f2090565b90600982016140f86116e3825460ff1690565b61412b575b506141095f835461387c565b82556001820161411a5f825461387c565b9055613e3a6002830191825461387c565b61413490612ec9565b5f6140fd565b5080156140a8565b61414d600554610542565b6001600160a01b0381169081159081156141ca575b50613ad657602060049160405192838092632502c7e760e11b82525afa908115613ad1575f916141ab575b506001600160a01b038116610a145763a9d04f8760e01b5f5260045ffd5b6141c4915060203d602011613b0d57613aff818361121d565b5f61418d565b90503b155f614162565b6141df600554610542565b6001600160a01b03811690811590811561423c575b50613ad657602060049160405192838092632b5e757b60e11b82525afa908115613ad1575f916141ab57506001600160a01b038116610a145763a9d04f8760e01b5f5260045ffd5b90503b155f6141f4565b614251600554610542565b6001600160a01b0381169081159081156142ae575b50613ad657602060049160405192838092635ee738d560e11b82525afa908115613ad1575f916141ab57506001600160a01b038116610a145763a9d04f8760e01b5f5260045ffd5b90503b155f614266565b6142c3600554610542565b6001600160a01b03811690811590811561431f575b50613ad657602060049160405192838092620c3c5d60e81b82525afa908115613ad1575f916141ab57506001600160a01b038116610a145763a9d04f8760e01b5f5260045ffd5b90503b155f6142d8565b614334600554610542565b6001600160a01b038116919082159081156144af575b50613ad657602060ff600492169283155f146143db57604051620c3c5d60e81b815292839182905afa908115613ad1575f916143bc575b505b6001600160a01b0381166143b757600482146143a85763a9d04f8760e01b5f5260045ffd5b632dc6cc2360e01b5f5260045ffd5b905090565b6143d5915060203d602011613b0d57613aff818361121d565b5f614381565b6001840361442a57604051635ee738d560e11b815292839182905afa908115613ad1575f9161440b575b50614383565b614424915060203d602011613b0d57613aff818361121d565b5f614405565b6002840361445957604051632b5e757b60e11b815292839182905afa908115613ad1575f9161440b5750614383565b6003840361448857604051632502c7e760e11b815292839182905afa908115613ad1575f9161440b5750614383565b6040516324e1067960e11b815292839182905afa908115613ad1575f9161440b5750614383565b90503b155f61434a565b908160a09103126100155780516144cf8161059b565b9160208201516144de8161054e565b916040810151916080606083015192015190565b90614524815f527fbc488d3e2575f0f2113dc4d9a0cd6bc52445c6bc28a8974ed97a6ba3ecfd657d60205260405f2090565b600681015460ff169081156145a4575b50613eb0575f918291604051614564816107656020820194630d61b51960e01b8652602483019190602083019252565b51915af4614570612c02565b901561459f5761458c8160208061124f945183010191016144b9565b509290916001600160a01b0316906156a8565b614f33565b6005915001547fbc488d3e2575f0f2113dc4d9a0cd6bc52445c6bc28a8974ed97a6ba3ecfd657a54115f614534565b90613b49613b4e92610765604051938492635bcc7ca960e11b602085015260248401612fec565b906001600160a01b03821615612a5257614614905f614f65565b915f60405161462460208261121d565b525f905f926146338151613007565b9161463e8251613007565b905f925f5b8151811015614742576146568183612caf565b51606481101580614734575b6146f95715806146f2575b61467c575b6001905b01614643565b614686818a612caf565b516146d3575b600a5460ff1661469c575b614672565b6146aa6116e36116dc610e76565b15614672576146be6116e36116dc5f610ea2565b15614697575b639798976560e01b5f5260045ffd5b96956146e16146ec9161386e565b96613198898b612caf565b9661468c565b505f61466d565b6001919561472e9161471e8661470f848c612caf565b6001600160a01b039091169052565b6147288288612caf565b52613be4565b94614676565b5064174876e8008110614662565b50959091979396945f61475787898387615b17565b61481a575b5050505f955f965b85518810156147b35760019061477a8987612caf565b51906147a46147898b8a612caf565b515f525f516020615f485f395f51905f5260205260405f2090565b82815403905501970196614764565b9195935093506147d49195505f516020615fa85f395f51905f525403612bdf565b5f5b8381106147e35750505050565b806148146148036147f660019486612caf565b516001600160a01b031690565b61480d8387612caf565b5190615df5565b016147d6565b61482661482b93615cd0565b615d77565b5f808061475c565b60207fae2f87dbf103db294ddd4ab45caa7a914d70bb3d06eeb8a8dc23e03e84548c8d91614881604051633c2f328b60e11b8482015261487c8161076589898760248501612b86565b6139bb565b5061489d604051614892848261121d565b5f8152868684613b76565b6040519485526001600160a01b031693a3565b90613b49613b4e9261076560405193849263b932546160e01b602085015260248401612fec565b6003546001600160a01b031633036148eb57565b63118cdaa760e01b5f523360045260245ffd5b916020916149179195949560408552604085019161335b565b6001600160a01b03909416910152565b811561499d576149389136916112e0565b60208151910120805f525f516020615f085f395f51905f5260205260405f2060ff815460a01c1661498b575061496d90610f6e565b60ff81541661497b57505f90565b600201546001600160a01b031690565b600401546001600160a01b0316919050565b50505f90565b811561499d576149b49136916112e0565b60208151910120805f525f516020615f085f395f51905f5260205260405f2060ff815460a01c16614a0757506149e990610f6e565b60ff8154166149f757505f90565b600301546001600160a01b031690565b600501546001600160a01b0316919050565b6017548015614a7e575f906017541561064b5760175f525f516020615f885f395f51905f525460015b828110614a4f5750505090565b81614a598261062f565b505410614a69575b600101614a42565b809350614a76915061062f565b505482614a61565b505f1990565b9091906001600160a01b038116158015614af4575b614aef575f905b6001600160a01b038116151580614ae5575b15613c875780614ac585614adf93615717565b6001600160a01b0390614ad790610cee565b541691613be4565b90614aa0565b5060408210614ab2565b509050565b508215614a99565b63ffffffff60e01b16628c2cb160e51b8114908115614bbe575b8115614bad575b8115614b9c575b8115614b8b575b8115614b7a575b8115614b69575b8115614b58575b8115614b4a575090565b630516df1760e21b14919050565b630ca3dccb60e21b81149150614b40565b63068e993160e51b81149150614b39565b636785147560e01b81149150614b32565b632e8d3d7160e11b81149150614b2b565b6333444d1960e21b81149150614b24565b631357891160e31b81149150614b1d565b63ef15fba760e01b81149150614b16565b63ffffffff60e01b16636c27fde560e01b8114908115614dfa575b8115614de9575b8115614dd8575b8115614dc7575b8115614db6575b8115614da5575b8115614d94575b8115614d83575b8115614d72575b8115614d61575b8115614d50575b8115614d3f575b8115614d2e575b8115614d1d575b8115614d0c575b8115614cfb575b8115614cea575b8115614cd9575b8115614cc8575b8115614cb7575b8115614ca6575b8115614c95575b8115614c87575090565b6348d7f0b960e11b14919050565b6393e8419160e01b81149150614c7d565b638568e38360e01b81149150614c76565b63f249d30360e01b81149150614c6f565b6352b9ec2360e01b81149150614c68565b6365e270d560e11b81149150614c61565b633c87fa8960e11b81149150614c5a565b630ea3ac9f60e11b81149150614c53565b6378a5b02560e11b81149150614c4c565b63b0c2093960e01b81149150614c45565b639f63520960e01b81149150614c3e565b63677f58b960e01b81149150614c37565b637a8844fb60e11b81149150614c30565b6371d7193b60e01b81149150614c29565b6331b86d3560e01b81149150614c22565b6301247ab760e61b81149150614c1b565b63b04e83b760e01b81149150614c14565b63294ae08160e11b81149150614c0d565b631163081760e11b81149150614c06565b6361e3f2a560e11b81149150614bff565b6347b5881360e01b81149150614bf8565b63c0ab3ba360e01b81149150614bf1565b630569881360e41b81149150614bea565b63ffffffff60e01b16630b18ae1d60e11b8114908115614e86575b8115614e75575b8115614e64575b8115614e53575b8115614e45575090565b636f5d64cf60e11b14919050565b63738abdef60e01b81149150614e3b565b63037fe8db60e51b81149150614e34565b6303bbece160e21b81149150614e2d565b63d8bdbdf560e01b81149150614e26565b614ea2600554610542565b6001600160a01b03811691908215908115614f29575b50613ad657602060049260405193848092634e077ded60e11b82525afa918215613ad1575f92614f08575b506001600160a01b03821615828115614efe575b50613ad657565b90503b155f614ef7565b614f2291925060203d602011613b0d57613aff818361121d565b905f614ee3565b90503b155f614eb8565b80519081614f605760405163dccff66960e01b8152602060048201529081906115e69060248301906109df565b602001fd5b9160405192600184526020840152604083019160018352606084015260808301604052565b9293905f905f92614f9b8251613007565b90614fa68351613007565b925f915f5b82518110156150b057614fbe8184612caf565b516064811015806150a2575b61505557158061504e575b614fe4575b6001905b01614fab565b614fee818a612caf565b5161503a575b600a5460ff16615004575b614fda565b6150126116e36116dc610e76565b15614fda576150266116e36116dc8c610ea2565b15614fff57639798976560e01b5f5260045ffd5b96956146e16150489161386e565b96614ff4565b505f614fd5565b6001600160a01b038b16158061509b575b615074575b50600190614fde565b846150949161508a5f61470f600196998b612caf565b614728828a612caf565b939061506b565b505f615066565b5064174876e8008110614fca565b5094909695989291989793975f6150c9888a8884615b17565b61521c575b50505f975f985b87518a10156151175761510f8a6001926150fd6147896150f5848d612caf565b51938d612caf565b61510883825461387c565b905561387c565b9901986150d5565b61514191939795995061513c90989294985f516020615fa85f395f51905f525461387c565b612bdf565b6001600160a01b0387161592836151bd575b5f5b8381106151a457505050501561516c575b50505050565b8051600103615194579060208061518b95930151910151915f33615970565b5f808080615166565b61519f935f33615852565b61518b565b806151b76148036147f660019486612caf565b01615155565b969290979395915f985f995b88518b10156151f5578a6001916151e66147896150f5848d612caf565b828154039055019a01996151c9565b61521791939599929498969a505f516020615fa85f395f51905f525403612bdf565b615153565b615229916148265f615cd0565b5f806150ce565b93949093916001600160a01b038316158015928392908361553e575b5f945f9661525a8451613007565b916152658551613007565b945f945f5b82518110156153a8578d8461527f8386612caf565b519160648310158061539a575b61531f5750501580615318575b6152a8575b6001905b0161526a565b8c6152b38282612caf565b516152f8575b50600a5460ff161561529e578d6152d46116e36116dc610e76565b6152df575b5061529e565b6116e36116dc6152ee92610ea2565b6146c4578d6152d9565b9a9b6131988261530b615311949f61386e565b9d612caf565b9a8c6152b9565b5089615299565b8b91615388575b5015615379576001600160a01b038f161580615372575b61534b575b506001906152a2565b8761536b916153618861470f6001969c8c612caf565b614728828c612caf565b9690615342565b508461533d565b63b8333dc960e01b5f5260045ffd5b6001600160a01b03161590508f615326565b5064174876e800831061528c565b509c9a98929991509a969592959493946153c4898d8a8d615b17565b8061552c575b615518575b50506154b9575b6001600160a01b038416159283615452575b5f5b838110615439575050505015615402575b5050505050565b84516001036154285760208061541e9601519201519233615970565b5f808080806153fb565b61543494919233615852565b61541e565b8061544c6148036147f660019486612caf565b016153ea565b979693915f9693915f975b895189101561549157896001916154826147898c61547b818e612caf565b5194612caf565b8281540390550198019761545d565b6154b491939598509991939598995f516020615fa85f395f51905f525403612bdf565b6153e8565b979394915f9693915f975b89518910156154ed576154e58a6001926150fd6147898d61547b818f612caf565b9801976154c4565b615513919395985061513c909a929497969a5f516020615fa85f395f51905f525461387c565b6153d6565b615525916148268a615cd0565b5f806153cf565b50811515806153ca57508015156153ca565b6001600160a01b0388161515935061524c565b6001600160a01b03811615801561563e575b61563957613e9d91615576600892610e3e565b610e1042045f5260205260405f2090600982016155976116e3825460ff1690565b61562a575b506155a85f835461387c565b8255600182016155b95f825461387c565b9055600282016155ca5f825461387c565b9055600382016155db5f825461387c565b9055600482016155ec5f825461387c565b9055600582016155fd5f825461387c565b90556006820161560e5f825461387c565b905561561f6007830191825461387c565b90550191825461387c565b61563390612ec9565b5f61559c565b505050565b508115801561556357508215615563565b9091906001600160a01b0381161580156156a0575b614aef575f905b6001600160a01b038116151580615696575b15613c875780614ac58561569093615a0e565b9061566b565b506040821061567d565b508215615664565b9092906001600160e01b031916630b18ae1d60e11b81036156d257632bb82cb360e01b5f5260045ffd5b631cb4772560e21b81036156fe5750509061124f91604051916156f660208461121d565b5f8352613b51565b90915063178fb21b60e11b03611e335761124f916145d3565b906001600160a01b0382161580156157e2575b613eb05761573782610d96565b805492828401809411612e575760089361575a92556140d8610e10420491610e3e565b906009820161576d6116e3825460ff1690565b6157d3575b5061577e5f835461387c565b82556001820161578f5f825461387c565b9055600282016157a05f825461387c565b9055600382016157b15f825461387c565b9055600482016157c25f825461387c565b9055613e6d6005830191825461387c565b6157dc90612ec9565b5f615772565b50801561572a565b908160209103126100155751610a148161059b565b6001600160a01b0391821681529116602082015260a060408201819052610a149491939192615844929161583691908601906117dc565b9084820360608601526117dc565b9160808184039101526109df565b9091949293853b615866575b505050505050565b60209361588891604051968795869563bc197c8160e01b8752600487016157ff565b03815f6001600160a01b0387165af15f9181615906575b506158d057506158ad612c02565b80519190826158c957632bfa23e760e11b5f526138c582610c51565b6020915001fd5b6001600160e01b0319166343e6837f60e01b016158f357505f808080808061585e565b632bfa23e760e11b5f526138c590610c51565b61592991925060203d602011615930575b615921818361121d565b8101906157ea565b905f61589f565b503d615917565b6001600160a01b039182168152911660208201526040810191909152606081019190915260a060808201819052610a14929101906109df565b9091949293853b61598357505050505050565b6020936159a591604051968795869563f23a6e6160e01b875260048701615937565b03815f6001600160a01b0387165af15f91816159ed575b506159ca57506158ad612c02565b6001600160e01b031916630dc5919f60e01b016158f357505f808080808061585e565b615a0791925060203d60201161593057615921818361121d565b905f6159bc565b906001600160a01b038216158015615aea575b613eb057615a2e82610dce565b805492828401809411612e5757600893615a5192556140d8610e10420491610e3e565b9060098201615a646116e3825460ff1690565b615adb575b50615a755f835461387c565b825560018201615a865f825461387c565b905560028201615a975f825461387c565b905560038201615aa85f825461387c565b905560048201615ab95f825461387c565b905560058201615aca5f825461387c565b9055613e7e6006830191825461387c565b615ae490612ec9565b5f615a69565b508015615a21565b9091615b09610a14936040845260408401906117dc565b9160208184039101526117dc565b9392918051835190818103615cbb5750505f5b8151811015615c16578060051b90602080838501015192860101518460018060a01b038916615b99575b6001936001600160a01b038216615b6f575b50505001615b2a565b615b8f91610800615b87925f525f60205260405f2090565b91825461387c565b90555f8481615b66565b509091615bb188610800835f525f60205260405f2090565b54828110615bdf57829160019493879203615bd78b610800845f525f60205260405f2090565b559350615b54565b6040516303dee4c560e01b81526001600160a01b038a16600482015260248101919091526044810183905260648101829052608490fd5b508051939493919291600103615c78576020908101519101516040516001600160a01b03938416949093169233927fc3d58168c5ae7397731d063d5bbf3d657854427343f4c083240f7aacaa2d0f62928291615c73919083612bce565b0390a4565b6040516001600160a01b03938416949093169233927f4a39dc06d4c0dbc64b70af90fd698a233a518aa5d07e595d983b8c0526c8f7fb928291615c739183615af2565b635b05999160e01b5f5260045260245260445ffd5b615cdc6116dc33610cb6565b615d72576001600160a01b038116158015615d69575b6134c9575f80916040516020810190638da5cb5b60e01b825260048152615d1a60248261121d565b51915afa615d26612c02565b90158015615d5e575b6134c957613a1281602080615d49945183010191016139c8565b615d556116dc82610cb6565b610a1457505f90565b506020815110615d2f565b50803b15615cf2565b503390565b9192916001600160a01b038116158015615de4575b613c8757905f915b6001600160a01b038116151580615dda575b15613c765780615dba8684615dd494615e1c565b6001600160a01b0390615dcc90610cee565b541692613be4565b91615d94565b5060408310615da6565b5081158015615d8c57508315615d8c565b90613b49613b4e92610765604051938492637e4152e760e11b602085015260248401612fec565b916001600160a01b038316158015615ed6575b61563957615e3c83610e06565b805493838501809511612e5757600894615e5f92556140d8610e10420491610e3e565b9160098301615e726116e3825460ff1690565b615ec7575b50615e835f845461387c565b835560018301615e945f825461387c565b905560028301615ea55f825461387c565b9055615eb66003840191825461387c565b9055613e5c6004830191825461387c565b615ed090612ec9565b5f615e77565b5081158015615e2f57508015615e2f56fe3bf2de114e2e7636c289f21be023528e47d89b45e873b976c78989c3ddc683f5cb1a422c9916903f224af4db9a3bf1529921bf95ff7b75d7d9ed9073a48394ab3e38a9410c08ddb4af8b083bfd2b197b1c3e61a651bd1c54c51ebce0cdcdc48ed34312c2e21f45f2b6715cf87d9e919b2098c835582e2b5c6e716490b0dfd0d48be0079c531659141344cd1fd0a4f28419497f9722a3daafe3b4186f6b6457e0c624b66cc0138b8fabc209247f72d758e1cf3343756d543badbf24212bed8c15d34312c2e21f45f2b6715cf87d9e919b2098c835582e2b5c6e716490b0dfd0d5ad3228b676f7d3cd4284a5443f17f1962b36e491b30a40b2405849e597ba5fb5a164736f6c6343000821000abc488d3e2575f0f2113dc4d9a0cd6bc52445c6bc28a8974ed97a6ba3ecfd657c",
  "linkReferences": {},
  "deployedLinkReferences": {},
  "immutableReferences": {
    "3418": [
      {
        "length": 32,
        "start": 10160
      }
    ]
  },
  "inputSourceName": "project/src/BeamioUserCard/BeamioUserCard.sol",
  "buildInfoId": "solc-0_8_33-f7ee755906cf15b2bc99d688822beeacc37cc294"
}