{
  "_format": "hh3-artifact-1",
  "contractName": "BeamioUserCard",
  "sourceName": "src/BeamioUserCard/BeamioUserCard.sol",
  "abi": [
    {
      "inputs": [
        {
          "internalType": "string",
          "name": "uri_",
          "type": "string"
        },
        {
          "internalType": "enum BeamioCurrency.CurrencyType",
          "name": "currency_",
          "type": "uint8"
        },
        {
          "internalType": "uint256",
          "name": "pointsUnitPriceInCurrencyE6_",
          "type": "uint256"
        },
        {
          "internalType": "address",
          "name": "initialOwner",
          "type": "address"
        },
        {
          "internalType": "address",
          "name": "gateway_",
          "type": "address"
        }
      ],
      "stateMutability": "nonpayable",
      "type": "constructor"
    },
    {
      "inputs": [],
      "name": "BM_CallFailed",
      "type": "error"
    },
    {
      "inputs": [],
      "name": "BM_NotAuthorized",
      "type": "error"
    },
    {
      "inputs": [],
      "name": "BM_ZeroAddress",
      "type": "error"
    },
    {
      "inputs": [
        {
          "internalType": "address",
          "name": "sender",
          "type": "address"
        },
        {
          "internalType": "uint256",
          "name": "balance",
          "type": "uint256"
        },
        {
          "internalType": "uint256",
          "name": "needed",
          "type": "uint256"
        },
        {
          "internalType": "uint256",
          "name": "tokenId",
          "type": "uint256"
        }
      ],
      "name": "ERC1155InsufficientBalance",
      "type": "error"
    },
    {
      "inputs": [
        {
          "internalType": "address",
          "name": "approver",
          "type": "address"
        }
      ],
      "name": "ERC1155InvalidApprover",
      "type": "error"
    },
    {
      "inputs": [
        {
          "internalType": "uint256",
          "name": "idsLength",
          "type": "uint256"
        },
        {
          "internalType": "uint256",
          "name": "valuesLength",
          "type": "uint256"
        }
      ],
      "name": "ERC1155InvalidArrayLength",
      "type": "error"
    },
    {
      "inputs": [
        {
          "internalType": "address",
          "name": "operator",
          "type": "address"
        }
      ],
      "name": "ERC1155InvalidOperator",
      "type": "error"
    },
    {
      "inputs": [
        {
          "internalType": "address",
          "name": "receiver",
          "type": "address"
        }
      ],
      "name": "ERC1155InvalidReceiver",
      "type": "error"
    },
    {
      "inputs": [
        {
          "internalType": "address",
          "name": "sender",
          "type": "address"
        }
      ],
      "name": "ERC1155InvalidSender",
      "type": "error"
    },
    {
      "inputs": [
        {
          "internalType": "address",
          "name": "operator",
          "type": "address"
        },
        {
          "internalType": "address",
          "name": "owner",
          "type": "address"
        }
      ],
      "name": "ERC1155MissingApprovalForAll",
      "type": "error"
    },
    {
      "inputs": [
        {
          "internalType": "address",
          "name": "owner",
          "type": "address"
        }
      ],
      "name": "OwnableInvalidOwner",
      "type": "error"
    },
    {
      "inputs": [
        {
          "internalType": "address",
          "name": "account",
          "type": "address"
        }
      ],
      "name": "OwnableUnauthorizedAccount",
      "type": "error"
    },
    {
      "inputs": [],
      "name": "ReentrancyGuardReentrantCall",
      "type": "error"
    },
    {
      "inputs": [],
      "name": "UC_AdminManagerRequiresOwnerSignature",
      "type": "error"
    },
    {
      "inputs": [],
      "name": "UC_AmountZero",
      "type": "error"
    },
    {
      "inputs": [],
      "name": "UC_BelowMinThreshold",
      "type": "error"
    },
    {
      "inputs": [],
      "name": "UC_GlobalMisconfigured",
      "type": "error"
    },
    {
      "inputs": [
        {
          "internalType": "address",
          "name": "fromAccount",
          "type": "address"
        },
        {
          "internalType": "uint256",
          "name": "id",
          "type": "uint256"
        },
        {
          "internalType": "uint256",
          "name": "have",
          "type": "uint256"
        },
        {
          "internalType": "uint256",
          "name": "need",
          "type": "uint256"
        }
      ],
      "name": "UC_InsufficientBalance",
      "type": "error"
    },
    {
      "inputs": [],
      "name": "UC_InvalidProposal",
      "type": "error"
    },
    {
      "inputs": [],
      "name": "UC_NoBeamioAccount",
      "type": "error"
    },
    {
      "inputs": [],
      "name": "UC_NotAdmin",
      "type": "error"
    },
    {
      "inputs": [],
      "name": "UC_PointsToNotWhitelisted",
      "type": "error"
    },
    {
      "inputs": [],
      "name": "UC_PriceZero",
      "type": "error"
    },
    {
      "inputs": [
        {
          "internalType": "bytes",
          "name": "data",
          "type": "bytes"
        }
      ],
      "name": "UC_RedeemDelegateFailed",
      "type": "error"
    },
    {
      "inputs": [],
      "name": "UC_RedeemModuleZero",
      "type": "error"
    },
    {
      "inputs": [
        {
          "internalType": "address",
          "name": "eoa",
          "type": "address"
        },
        {
          "internalType": "address",
          "name": "aaFactory",
          "type": "address"
        },
        {
          "internalType": "address",
          "name": "acct",
          "type": "address"
        }
      ],
      "name": "UC_ResolveAccountFailed",
      "type": "error"
    },
    {
      "inputs": [],
      "name": "UC_SBTNonTransferable",
      "type": "error"
    },
    {
      "inputs": [],
      "name": "UC_StatsModuleZero",
      "type": "error"
    },
    {
      "inputs": [],
      "name": "UC_TierLenMismatch",
      "type": "error"
    },
    {
      "inputs": [],
      "name": "UC_TierMinZero",
      "type": "error"
    },
    {
      "inputs": [],
      "name": "UC_UnauthorizedGateway",
      "type": "error"
    },
    {
      "anonymous": false,
      "inputs": [
        {
          "indexed": true,
          "internalType": "address",
          "name": "beneficiaryAccount",
          "type": "address"
        },
        {
          "indexed": true,
          "internalType": "uint256",
          "name": "tokenId",
          "type": "uint256"
        },
        {
          "indexed": false,
          "internalType": "uint256",
          "name": "attr",
          "type": "uint256"
        },
        {
          "indexed": false,
          "internalType": "uint256",
          "name": "expiry",
          "type": "uint256"
        }
      ],
      "name": "AdminCardMinted",
      "type": "event"
    },
    {
      "anonymous": false,
      "inputs": [
        {
          "indexed": true,
          "internalType": "address",
          "name": "account",
          "type": "address"
        },
        {
          "indexed": false,
          "internalType": "uint256",
          "name": "amount",
          "type": "uint256"
        }
      ],
      "name": "AdminPointsBurned",
      "type": "event"
    },
    {
      "anonymous": false,
      "inputs": [
        {
          "indexed": true,
          "internalType": "address",
          "name": "beneficiaryAccount",
          "type": "address"
        },
        {
          "indexed": false,
          "internalType": "uint256",
          "name": "points6",
          "type": "uint256"
        }
      ],
      "name": "AdminPointsMinted",
      "type": "event"
    },
    {
      "anonymous": false,
      "inputs": [
        {
          "indexed": true,
          "internalType": "address",
          "name": "account",
          "type": "address"
        },
        {
          "indexed": true,
          "internalType": "address",
          "name": "operator",
          "type": "address"
        },
        {
          "indexed": false,
          "internalType": "bool",
          "name": "approved",
          "type": "bool"
        }
      ],
      "name": "ApprovalForAll",
      "type": "event"
    },
    {
      "anonymous": false,
      "inputs": [
        {
          "indexed": false,
          "internalType": "uint256",
          "name": "attr",
          "type": "uint256"
        }
      ],
      "name": "DefaultAttrUpdated",
      "type": "event"
    },
    {
      "anonymous": false,
      "inputs": [
        {
          "indexed": false,
          "internalType": "uint256",
          "name": "oldSecs",
          "type": "uint256"
        },
        {
          "indexed": false,
          "internalType": "uint256",
          "name": "newSecs",
          "type": "uint256"
        }
      ],
      "name": "ExpirySecondsUpdated",
      "type": "event"
    },
    {
      "anonymous": false,
      "inputs": [
        {
          "indexed": true,
          "internalType": "uint256",
          "name": "id",
          "type": "uint256"
        },
        {
          "indexed": true,
          "internalType": "address",
          "name": "userEOA",
          "type": "address"
        },
        {
          "indexed": true,
          "internalType": "address",
          "name": "acct",
          "type": "address"
        },
        {
          "indexed": false,
          "internalType": "uint256",
          "name": "amount",
          "type": "uint256"
        },
        {
          "indexed": false,
          "internalType": "uint256",
          "name": "claimedAfter",
          "type": "uint256"
        }
      ],
      "name": "FaucetClaimed",
      "type": "event"
    },
    {
      "anonymous": false,
      "inputs": [
        {
          "indexed": true,
          "internalType": "uint256",
          "name": "id",
          "type": "uint256"
        },
        {
          "components": [
            {
              "internalType": "uint64",
              "name": "validUntil",
              "type": "uint64"
            },
            {
              "internalType": "uint64",
              "name": "perClaimMax",
              "type": "uint64"
            },
            {
              "internalType": "uint128",
              "name": "maxPerUser",
              "type": "uint128"
            },
            {
              "internalType": "uint128",
              "name": "maxGlobal",
              "type": "uint128"
            },
            {
              "internalType": "bool",
              "name": "enabled",
              "type": "bool"
            },
            {
              "internalType": "uint8",
              "name": "currency",
              "type": "uint8"
            },
            {
              "internalType": "uint8",
              "name": "decimals",
              "type": "uint8"
            },
            {
              "internalType": "uint128",
              "name": "priceInCurrency6",
              "type": "uint128"
            }
          ],
          "indexed": false,
          "internalType": "struct FaucetStorage.FaucetConfig",
          "name": "cfg",
          "type": "tuple"
        }
      ],
      "name": "FaucetConfigUpdated",
      "type": "event"
    },
    {
      "anonymous": false,
      "inputs": [
        {
          "indexed": true,
          "internalType": "uint256",
          "name": "tokenId",
          "type": "uint256"
        },
        {
          "indexed": false,
          "internalType": "bytes32",
          "name": "title",
          "type": "bytes32"
        },
        {
          "indexed": false,
          "internalType": "uint64",
          "name": "validAfter",
          "type": "uint64"
        },
        {
          "indexed": false,
          "internalType": "uint64",
          "name": "validBefore",
          "type": "uint64"
        },
        {
          "indexed": false,
          "internalType": "uint256",
          "name": "maxSupply",
          "type": "uint256"
        },
        {
          "indexed": false,
          "internalType": "uint256",
          "name": "priceInCurrency6",
          "type": "uint256"
        },
        {
          "indexed": false,
          "internalType": "bytes32",
          "name": "sharedMetadataHash",
          "type": "bytes32"
        }
      ],
      "name": "IssuedNftCreated",
      "type": "event"
    },
    {
      "anonymous": false,
      "inputs": [
        {
          "indexed": true,
          "internalType": "uint256",
          "name": "tokenId",
          "type": "uint256"
        },
        {
          "indexed": true,
          "internalType": "address",
          "name": "recipient",
          "type": "address"
        },
        {
          "indexed": false,
          "internalType": "uint256",
          "name": "amount",
          "type": "uint256"
        }
      ],
      "name": "IssuedNftMinted",
      "type": "event"
    },
    {
      "anonymous": false,
      "inputs": [
        {
          "indexed": true,
          "internalType": "address",
          "name": "user",
          "type": "address"
        },
        {
          "indexed": true,
          "internalType": "uint256",
          "name": "tokenId",
          "type": "uint256"
        },
        {
          "indexed": false,
          "internalType": "uint256",
          "name": "tierIndexOrMax",
          "type": "uint256"
        },
        {
          "indexed": false,
          "internalType": "uint256",
          "name": "minUsdc6",
          "type": "uint256"
        },
        {
          "indexed": false,
          "internalType": "uint256",
          "name": "expiry",
          "type": "uint256"
        }
      ],
      "name": "MemberNFTIssued",
      "type": "event"
    },
    {
      "anonymous": false,
      "inputs": [
        {
          "indexed": true,
          "internalType": "address",
          "name": "user",
          "type": "address"
        },
        {
          "indexed": true,
          "internalType": "uint256",
          "name": "oldActiveTokenId",
          "type": "uint256"
        },
        {
          "indexed": true,
          "internalType": "uint256",
          "name": "newTokenId",
          "type": "uint256"
        },
        {
          "indexed": false,
          "internalType": "uint256",
          "name": "oldTierIndexOrMax",
          "type": "uint256"
        },
        {
          "indexed": false,
          "internalType": "uint256",
          "name": "newTierIndex",
          "type": "uint256"
        },
        {
          "indexed": false,
          "internalType": "uint256",
          "name": "newExpiry",
          "type": "uint256"
        }
      ],
      "name": "MemberNFTUpgraded",
      "type": "event"
    },
    {
      "anonymous": false,
      "inputs": [
        {
          "indexed": true,
          "internalType": "address",
          "name": "previousOwner",
          "type": "address"
        },
        {
          "indexed": true,
          "internalType": "address",
          "name": "newOwner",
          "type": "address"
        }
      ],
      "name": "OwnershipTransferred",
      "type": "event"
    },
    {
      "anonymous": false,
      "inputs": [
        {
          "indexed": true,
          "internalType": "address",
          "name": "userEOA",
          "type": "address"
        },
        {
          "indexed": true,
          "internalType": "address",
          "name": "acct",
          "type": "address"
        },
        {
          "indexed": false,
          "internalType": "uint256",
          "name": "points6",
          "type": "uint256"
        }
      ],
      "name": "PointsMintedByGateway",
      "type": "event"
    },
    {
      "anonymous": false,
      "inputs": [
        {
          "indexed": true,
          "internalType": "address",
          "name": "payerEOA",
          "type": "address"
        },
        {
          "indexed": true,
          "internalType": "address",
          "name": "beneficiaryAccount",
          "type": "address"
        },
        {
          "indexed": true,
          "internalType": "address",
          "name": "usdc",
          "type": "address"
        },
        {
          "indexed": false,
          "internalType": "uint256",
          "name": "usdcIn6",
          "type": "uint256"
        },
        {
          "indexed": false,
          "internalType": "uint256",
          "name": "pointsMinted6",
          "type": "uint256"
        },
        {
          "indexed": false,
          "internalType": "uint256",
          "name": "unitPointPriceUsdc6",
          "type": "uint256"
        },
        {
          "indexed": false,
          "internalType": "bytes32",
          "name": "nonce",
          "type": "bytes32"
        }
      ],
      "name": "PointsPurchasedWithUSDC",
      "type": "event"
    },
    {
      "anonymous": false,
      "inputs": [
        {
          "indexed": false,
          "internalType": "uint256",
          "name": "priceInCurrencyE6",
          "type": "uint256"
        }
      ],
      "name": "PointsUnitPriceUpdated",
      "type": "event"
    },
    {
      "anonymous": false,
      "inputs": [
        {
          "indexed": true,
          "internalType": "uint256",
          "name": "id",
          "type": "uint256"
        },
        {
          "indexed": true,
          "internalType": "address",
          "name": "admin",
          "type": "address"
        }
      ],
      "name": "ProposalApproved",
      "type": "event"
    },
    {
      "anonymous": false,
      "inputs": [
        {
          "indexed": true,
          "internalType": "uint256",
          "name": "id",
          "type": "uint256"
        },
        {
          "indexed": true,
          "internalType": "bytes4",
          "name": "selector",
          "type": "bytes4"
        },
        {
          "indexed": true,
          "internalType": "address",
          "name": "proposer",
          "type": "address"
        }
      ],
      "name": "ProposalCreated",
      "type": "event"
    },
    {
      "anonymous": false,
      "inputs": [
        {
          "indexed": true,
          "internalType": "uint256",
          "name": "id",
          "type": "uint256"
        }
      ],
      "name": "ProposalExecuted",
      "type": "event"
    },
    {
      "anonymous": false,
      "inputs": [
        {
          "indexed": true,
          "internalType": "bytes32",
          "name": "hash",
          "type": "bytes32"
        }
      ],
      "name": "RedeemCancelled",
      "type": "event"
    },
    {
      "anonymous": false,
      "inputs": [
        {
          "indexed": true,
          "internalType": "bytes32",
          "name": "hash",
          "type": "bytes32"
        },
        {
          "indexed": false,
          "internalType": "uint256",
          "name": "points6",
          "type": "uint256"
        },
        {
          "indexed": false,
          "internalType": "uint256",
          "name": "attr",
          "type": "uint256"
        }
      ],
      "name": "RedeemCreated",
      "type": "event"
    },
    {
      "anonymous": false,
      "inputs": [
        {
          "indexed": false,
          "internalType": "uint256",
          "name": "index",
          "type": "uint256"
        },
        {
          "indexed": false,
          "internalType": "uint256",
          "name": "minUsdc6",
          "type": "uint256"
        },
        {
          "indexed": false,
          "internalType": "uint256",
          "name": "attr",
          "type": "uint256"
        },
        {
          "indexed": false,
          "internalType": "uint256",
          "name": "tierExpirySeconds",
          "type": "uint256"
        },
        {
          "indexed": false,
          "internalType": "bool",
          "name": "upgradeByBalance",
          "type": "bool"
        }
      ],
      "name": "TierAppended",
      "type": "event"
    },
    {
      "anonymous": false,
      "inputs": [
        {
          "indexed": false,
          "internalType": "uint256",
          "name": "count",
          "type": "uint256"
        }
      ],
      "name": "TiersUpdated",
      "type": "event"
    },
    {
      "anonymous": false,
      "inputs": [
        {
          "indexed": true,
          "internalType": "address",
          "name": "operator",
          "type": "address"
        },
        {
          "indexed": true,
          "internalType": "address",
          "name": "from",
          "type": "address"
        },
        {
          "indexed": true,
          "internalType": "address",
          "name": "to",
          "type": "address"
        },
        {
          "indexed": false,
          "internalType": "uint256[]",
          "name": "ids",
          "type": "uint256[]"
        },
        {
          "indexed": false,
          "internalType": "uint256[]",
          "name": "values",
          "type": "uint256[]"
        }
      ],
      "name": "TransferBatch",
      "type": "event"
    },
    {
      "anonymous": false,
      "inputs": [
        {
          "indexed": true,
          "internalType": "address",
          "name": "operator",
          "type": "address"
        },
        {
          "indexed": true,
          "internalType": "address",
          "name": "from",
          "type": "address"
        },
        {
          "indexed": true,
          "internalType": "address",
          "name": "to",
          "type": "address"
        },
        {
          "indexed": false,
          "internalType": "uint256",
          "name": "id",
          "type": "uint256"
        },
        {
          "indexed": false,
          "internalType": "uint256",
          "name": "value",
          "type": "uint256"
        }
      ],
      "name": "TransferSingle",
      "type": "event"
    },
    {
      "anonymous": false,
      "inputs": [
        {
          "indexed": false,
          "internalType": "bool",
          "name": "enabled",
          "type": "bool"
        }
      ],
      "name": "TransferWhitelistEnabledUpdated",
      "type": "event"
    },
    {
      "anonymous": false,
      "inputs": [
        {
          "indexed": false,
          "internalType": "string",
          "name": "value",
          "type": "string"
        },
        {
          "indexed": true,
          "internalType": "uint256",
          "name": "id",
          "type": "uint256"
        }
      ],
      "name": "URI",
      "type": "event"
    },
    {
      "stateMutability": "nonpayable",
      "type": "fallback"
    },
    {
      "inputs": [],
      "name": "ISSUED_NFT_START_ID",
      "outputs": [
        {
          "internalType": "uint256",
          "name": "",
          "type": "uint256"
        }
      ],
      "stateMutability": "view",
      "type": "function"
    },
    {
      "inputs": [],
      "name": "NFT_START_ID",
      "outputs": [
        {
          "internalType": "uint256",
          "name": "",
          "type": "uint256"
        }
      ],
      "stateMutability": "view",
      "type": "function"
    },
    {
      "inputs": [],
      "name": "POINTS_DECIMALS",
      "outputs": [
        {
          "internalType": "uint8",
          "name": "",
          "type": "uint8"
        }
      ],
      "stateMutability": "view",
      "type": "function"
    },
    {
      "inputs": [],
      "name": "POINTS_ID",
      "outputs": [
        {
          "internalType": "uint256",
          "name": "",
          "type": "uint256"
        }
      ],
      "stateMutability": "view",
      "type": "function"
    },
    {
      "inputs": [],
      "name": "VERSION",
      "outputs": [
        {
          "internalType": "uint256",
          "name": "",
          "type": "uint256"
        }
      ],
      "stateMutability": "view",
      "type": "function"
    },
    {
      "inputs": [
        {
          "internalType": "address",
          "name": "",
          "type": "address"
        },
        {
          "internalType": "uint256",
          "name": "",
          "type": "uint256"
        }
      ],
      "name": "_userOwnedNfts",
      "outputs": [
        {
          "internalType": "uint256",
          "name": "",
          "type": "uint256"
        }
      ],
      "stateMutability": "view",
      "type": "function"
    },
    {
      "inputs": [
        {
          "internalType": "uint256",
          "name": "",
          "type": "uint256"
        }
      ],
      "name": "activeMembershipCountByTierIndex",
      "outputs": [
        {
          "internalType": "uint256",
          "name": "",
          "type": "uint256"
        }
      ],
      "stateMutability": "view",
      "type": "function"
    },
    {
      "inputs": [
        {
          "internalType": "uint256",
          "name": "",
          "type": "uint256"
        }
      ],
      "name": "activeMembershipCountByTokenId",
      "outputs": [
        {
          "internalType": "uint256",
          "name": "",
          "type": "uint256"
        }
      ],
      "stateMutability": "view",
      "type": "function"
    },
    {
      "inputs": [
        {
          "internalType": "address",
          "name": "",
          "type": "address"
        }
      ],
      "name": "activeMembershipId",
      "outputs": [
        {
          "internalType": "uint256",
          "name": "",
          "type": "uint256"
        }
      ],
      "stateMutability": "view",
      "type": "function"
    },
    {
      "inputs": [
        {
          "internalType": "address",
          "name": "",
          "type": "address"
        }
      ],
      "name": "activeTierIndexOrMax",
      "outputs": [
        {
          "internalType": "uint256",
          "name": "",
          "type": "uint256"
        }
      ],
      "stateMutability": "view",
      "type": "function"
    },
    {
      "inputs": [
        {
          "internalType": "address",
          "name": "a",
          "type": "address"
        }
      ],
      "name": "adminParent",
      "outputs": [
        {
          "internalType": "address",
          "name": "",
          "type": "address"
        }
      ],
      "stateMutability": "view",
      "type": "function"
    },
    {
      "inputs": [
        {
          "internalType": "uint256",
          "name": "minUsdc6",
          "type": "uint256"
        },
        {
          "internalType": "uint256",
          "name": "attr",
          "type": "uint256"
        },
        {
          "internalType": "uint256",
          "name": "tierExpirySeconds",
          "type": "uint256"
        },
        {
          "internalType": "bool",
          "name": "upgradeByBalance",
          "type": "bool"
        }
      ],
      "name": "appendTier",
      "outputs": [],
      "stateMutability": "nonpayable",
      "type": "function"
    },
    {
      "inputs": [
        {
          "internalType": "uint256",
          "name": "id",
          "type": "uint256"
        }
      ],
      "name": "approveProposal",
      "outputs": [],
      "stateMutability": "nonpayable",
      "type": "function"
    },
    {
      "inputs": [
        {
          "internalType": "uint256",
          "name": "id",
          "type": "uint256"
        },
        {
          "internalType": "address",
          "name": "adminSigner",
          "type": "address"
        }
      ],
      "name": "approveProposalByGateway",
      "outputs": [],
      "stateMutability": "nonpayable",
      "type": "function"
    },
    {
      "inputs": [
        {
          "internalType": "uint256",
          "name": "",
          "type": "uint256"
        }
      ],
      "name": "attributes",
      "outputs": [
        {
          "internalType": "uint256",
          "name": "",
          "type": "uint256"
        }
      ],
      "stateMutability": "view",
      "type": "function"
    },
    {
      "inputs": [
        {
          "internalType": "address",
          "name": "account",
          "type": "address"
        },
        {
          "internalType": "uint256",
          "name": "id",
          "type": "uint256"
        }
      ],
      "name": "balanceOf",
      "outputs": [
        {
          "internalType": "uint256",
          "name": "",
          "type": "uint256"
        }
      ],
      "stateMutability": "view",
      "type": "function"
    },
    {
      "inputs": [
        {
          "internalType": "address[]",
          "name": "accounts",
          "type": "address[]"
        },
        {
          "internalType": "uint256[]",
          "name": "ids",
          "type": "uint256[]"
        }
      ],
      "name": "balanceOfBatch",
      "outputs": [
        {
          "internalType": "uint256[]",
          "name": "",
          "type": "uint256[]"
        }
      ],
      "stateMutability": "view",
      "type": "function"
    },
    {
      "inputs": [
        {
          "internalType": "address",
          "name": "target",
          "type": "address"
        },
        {
          "internalType": "uint256",
          "name": "amount",
          "type": "uint256"
        }
      ],
      "name": "burnPointsByAdmin",
      "outputs": [],
      "stateMutability": "nonpayable",
      "type": "function"
    },
    {
      "inputs": [
        {
          "internalType": "address",
          "name": "subordinate",
          "type": "address"
        },
        {
          "internalType": "address",
          "name": "authorizer",
          "type": "address"
        }
      ],
      "name": "clearAdminMintCounterForSubordinate",
      "outputs": [],
      "stateMutability": "nonpayable",
      "type": "function"
    },
    {
      "inputs": [
        {
          "internalType": "bytes4",
          "name": "selector",
          "type": "bytes4"
        },
        {
          "internalType": "address",
          "name": "target",
          "type": "address"
        },
        {
          "internalType": "uint256",
          "name": "v1",
          "type": "uint256"
        },
        {
          "internalType": "uint256",
          "name": "v2",
          "type": "uint256"
        },
        {
          "internalType": "uint256",
          "name": "v3",
          "type": "uint256"
        }
      ],
      "name": "createProposal",
      "outputs": [
        {
          "internalType": "uint256",
          "name": "",
          "type": "uint256"
        }
      ],
      "stateMutability": "nonpayable",
      "type": "function"
    },
    {
      "inputs": [],
      "name": "currency",
      "outputs": [
        {
          "internalType": "enum BeamioCurrency.CurrencyType",
          "name": "",
          "type": "uint8"
        }
      ],
      "stateMutability": "view",
      "type": "function"
    },
    {
      "inputs": [],
      "name": "debugGateway",
      "outputs": [
        {
          "internalType": "address",
          "name": "",
          "type": "address"
        }
      ],
      "stateMutability": "view",
      "type": "function"
    },
    {
      "inputs": [],
      "name": "defaultAttrWhenNoTiers",
      "outputs": [
        {
          "internalType": "uint256",
          "name": "",
          "type": "uint256"
        }
      ],
      "stateMutability": "view",
      "type": "function"
    },
    {
      "inputs": [],
      "name": "deployer",
      "outputs": [
        {
          "internalType": "address",
          "name": "",
          "type": "address"
        }
      ],
      "stateMutability": "view",
      "type": "function"
    },
    {
      "inputs": [
        {
          "internalType": "uint256",
          "name": "",
          "type": "uint256"
        }
      ],
      "name": "expiresAt",
      "outputs": [
        {
          "internalType": "uint256",
          "name": "",
          "type": "uint256"
        }
      ],
      "stateMutability": "view",
      "type": "function"
    },
    {
      "inputs": [],
      "name": "expirySeconds",
      "outputs": [
        {
          "internalType": "uint256",
          "name": "",
          "type": "uint256"
        }
      ],
      "stateMutability": "view",
      "type": "function"
    },
    {
      "inputs": [],
      "name": "factoryGateway",
      "outputs": [
        {
          "internalType": "address",
          "name": "",
          "type": "address"
        }
      ],
      "stateMutability": "view",
      "type": "function"
    },
    {
      "inputs": [
        {
          "internalType": "address",
          "name": "userEOA",
          "type": "address"
        },
        {
          "internalType": "uint256",
          "name": "id",
          "type": "uint256"
        },
        {
          "internalType": "uint256",
          "name": "amount",
          "type": "uint256"
        }
      ],
      "name": "faucetByGateway",
      "outputs": [],
      "stateMutability": "nonpayable",
      "type": "function"
    },
    {
      "inputs": [
        {
          "internalType": "uint256",
          "name": "id",
          "type": "uint256"
        }
      ],
      "name": "faucetConfig",
      "outputs": [
        {
          "components": [
            {
              "internalType": "uint64",
              "name": "validUntil",
              "type": "uint64"
            },
            {
              "internalType": "uint64",
              "name": "perClaimMax",
              "type": "uint64"
            },
            {
              "internalType": "uint128",
              "name": "maxPerUser",
              "type": "uint128"
            },
            {
              "internalType": "uint128",
              "name": "maxGlobal",
              "type": "uint128"
            },
            {
              "internalType": "bool",
              "name": "enabled",
              "type": "bool"
            },
            {
              "internalType": "uint8",
              "name": "currency",
              "type": "uint8"
            },
            {
              "internalType": "uint8",
              "name": "decimals",
              "type": "uint8"
            },
            {
              "internalType": "uint128",
              "name": "priceInCurrency6",
              "type": "uint128"
            }
          ],
          "internalType": "struct FaucetStorage.FaucetConfig",
          "name": "",
          "type": "tuple"
        }
      ],
      "stateMutability": "view",
      "type": "function"
    },
    {
      "inputs": [],
      "name": "gateway",
      "outputs": [
        {
          "internalType": "address",
          "name": "",
          "type": "address"
        }
      ],
      "stateMutability": "view",
      "type": "function"
    },
    {
      "inputs": [
        {
          "internalType": "address",
          "name": "admin",
          "type": "address"
        }
      ],
      "name": "getAdminBurnCounter",
      "outputs": [
        {
          "internalType": "uint256",
          "name": "",
          "type": "uint256"
        }
      ],
      "stateMutability": "view",
      "type": "function"
    },
    {
      "inputs": [
        {
          "internalType": "address",
          "name": "admin",
          "type": "address"
        }
      ],
      "name": "getAdminMintCounter",
      "outputs": [
        {
          "internalType": "uint256",
          "name": "",
          "type": "uint256"
        }
      ],
      "stateMutability": "view",
      "type": "function"
    },
    {
      "inputs": [
        {
          "internalType": "address",
          "name": "admin",
          "type": "address"
        }
      ],
      "name": "getAdminRedeemMintCounter",
      "outputs": [
        {
          "internalType": "uint256",
          "name": "",
          "type": "uint256"
        }
      ],
      "stateMutability": "view",
      "type": "function"
    },
    {
      "inputs": [
        {
          "internalType": "address",
          "name": "admin",
          "type": "address"
        }
      ],
      "name": "getAdminTransferCounter",
      "outputs": [
        {
          "internalType": "uint256",
          "name": "",
          "type": "uint256"
        }
      ],
      "stateMutability": "view",
      "type": "function"
    },
    {
      "inputs": [
        {
          "internalType": "address",
          "name": "admin",
          "type": "address"
        }
      ],
      "name": "getAdminUSDCMintCounter",
      "outputs": [
        {
          "internalType": "uint256",
          "name": "",
          "type": "uint256"
        }
      ],
      "stateMutability": "view",
      "type": "function"
    },
    {
      "inputs": [
        {
          "internalType": "address",
          "name": "user",
          "type": "address"
        }
      ],
      "name": "getOwnership",
      "outputs": [
        {
          "internalType": "uint256",
          "name": "pt",
          "type": "uint256"
        },
        {
          "components": [
            {
              "internalType": "uint256",
              "name": "tokenId",
              "type": "uint256"
            },
            {
              "internalType": "uint256",
              "name": "attribute",
              "type": "uint256"
            },
            {
              "internalType": "uint256",
              "name": "tierIndexOrMax",
              "type": "uint256"
            },
            {
              "internalType": "uint256",
              "name": "expiry",
              "type": "uint256"
            },
            {
              "internalType": "bool",
              "name": "isExpired",
              "type": "bool"
            }
          ],
          "internalType": "struct BeamioUserCard.NFTDetail[]",
          "name": "nfts",
          "type": "tuple[]"
        }
      ],
      "stateMutability": "view",
      "type": "function"
    },
    {
      "inputs": [
        {
          "internalType": "address",
          "name": "userEOA",
          "type": "address"
        }
      ],
      "name": "getOwnershipByEOA",
      "outputs": [
        {
          "internalType": "uint256",
          "name": "pt",
          "type": "uint256"
        },
        {
          "components": [
            {
              "internalType": "uint256",
              "name": "tokenId",
              "type": "uint256"
            },
            {
              "internalType": "uint256",
              "name": "attribute",
              "type": "uint256"
            },
            {
              "internalType": "uint256",
              "name": "tierIndexOrMax",
              "type": "uint256"
            },
            {
              "internalType": "uint256",
              "name": "expiry",
              "type": "uint256"
            },
            {
              "internalType": "bool",
              "name": "isExpired",
              "type": "bool"
            }
          ],
          "internalType": "struct BeamioUserCard.NFTDetail[]",
          "name": "nfts",
          "type": "tuple[]"
        }
      ],
      "stateMutability": "view",
      "type": "function"
    },
    {
      "inputs": [
        {
          "internalType": "address",
          "name": "a",
          "type": "address"
        }
      ],
      "name": "isAdmin",
      "outputs": [
        {
          "internalType": "bool",
          "name": "",
          "type": "bool"
        }
      ],
      "stateMutability": "view",
      "type": "function"
    },
    {
      "inputs": [
        {
          "internalType": "address",
          "name": "account",
          "type": "address"
        },
        {
          "internalType": "address",
          "name": "operator",
          "type": "address"
        }
      ],
      "name": "isApprovedForAll",
      "outputs": [
        {
          "internalType": "bool",
          "name": "",
          "type": "bool"
        }
      ],
      "stateMutability": "view",
      "type": "function"
    },
    {
      "inputs": [
        {
          "internalType": "uint256",
          "name": "tokenId",
          "type": "uint256"
        }
      ],
      "name": "isIssuedNftValid",
      "outputs": [
        {
          "internalType": "bool",
          "name": "",
          "type": "bool"
        }
      ],
      "stateMutability": "view",
      "type": "function"
    },
    {
      "inputs": [
        {
          "internalType": "uint256",
          "name": "tokenId",
          "type": "uint256"
        }
      ],
      "name": "issuedNftPriceInCurrency6",
      "outputs": [
        {
          "internalType": "uint256",
          "name": "",
          "type": "uint256"
        }
      ],
      "stateMutability": "view",
      "type": "function"
    },
    {
      "inputs": [
        {
          "internalType": "uint64",
          "name": "hourIndex",
          "type": "uint64"
        }
      ],
      "name": "membershipFlowBucketAtHour",
      "outputs": [
        {
          "internalType": "uint256",
          "name": "issuedCount",
          "type": "uint256"
        },
        {
          "internalType": "uint256",
          "name": "upgradedCount",
          "type": "uint256"
        },
        {
          "internalType": "uint256",
          "name": "expiredDiscoveredCount",
          "type": "uint256"
        },
        {
          "internalType": "uint256",
          "name": "activeSwitchCount",
          "type": "uint256"
        },
        {
          "internalType": "uint256",
          "name": "activatedCount",
          "type": "uint256"
        },
        {
          "internalType": "uint256",
          "name": "deactivatedCount",
          "type": "uint256"
        },
        {
          "internalType": "bool",
          "name": "hasData",
          "type": "bool"
        }
      ],
      "stateMutability": "view",
      "type": "function"
    },
    {
      "inputs": [
        {
          "internalType": "uint8",
          "name": "scopeType",
          "type": "uint8"
        },
        {
          "internalType": "uint256",
          "name": "scopeKey",
          "type": "uint256"
        },
        {
          "internalType": "uint64",
          "name": "hourIndex",
          "type": "uint64"
        }
      ],
      "name": "membershipScopedFlowBucketAtHour",
      "outputs": [
        {
          "internalType": "uint256",
          "name": "issuedCount",
          "type": "uint256"
        },
        {
          "internalType": "uint256",
          "name": "upgradedCount",
          "type": "uint256"
        },
        {
          "internalType": "uint256",
          "name": "expiredDiscoveredCount",
          "type": "uint256"
        },
        {
          "internalType": "uint256",
          "name": "activeSwitchCount",
          "type": "uint256"
        },
        {
          "internalType": "uint256",
          "name": "activatedCount",
          "type": "uint256"
        },
        {
          "internalType": "uint256",
          "name": "deactivatedCount",
          "type": "uint256"
        },
        {
          "internalType": "bool",
          "name": "hasData",
          "type": "bool"
        }
      ],
      "stateMutability": "view",
      "type": "function"
    },
    {
      "inputs": [],
      "name": "metadataBaseURI",
      "outputs": [
        {
          "internalType": "string",
          "name": "",
          "type": "string"
        }
      ],
      "stateMutability": "view",
      "type": "function"
    },
    {
      "inputs": [
        {
          "internalType": "address",
          "name": "userEOA",
          "type": "address"
        },
        {
          "internalType": "uint256",
          "name": "id",
          "type": "uint256"
        },
        {
          "internalType": "uint256",
          "name": "amount6",
          "type": "uint256"
        }
      ],
      "name": "mintFaucetByGateway",
      "outputs": [],
      "stateMutability": "nonpayable",
      "type": "function"
    },
    {
      "inputs": [
        {
          "internalType": "address",
          "name": "userEOA",
          "type": "address"
        },
        {
          "internalType": "uint256",
          "name": "tokenId",
          "type": "uint256"
        },
        {
          "internalType": "uint256",
          "name": "amount",
          "type": "uint256"
        }
      ],
      "name": "mintIssuedNftByGateway",
      "outputs": [],
      "stateMutability": "nonpayable",
      "type": "function"
    },
    {
      "inputs": [
        {
          "internalType": "address",
          "name": "to",
          "type": "address"
        },
        {
          "internalType": "uint256",
          "name": "tokenId",
          "type": "uint256"
        },
        {
          "internalType": "uint256",
          "name": "amount",
          "type": "uint256"
        }
      ],
      "name": "mintIssuedNftByOwner",
      "outputs": [],
      "stateMutability": "nonpayable",
      "type": "function"
    },
    {
      "inputs": [
        {
          "internalType": "address",
          "name": "user",
          "type": "address"
        },
        {
          "internalType": "uint256",
          "name": "tierIndex",
          "type": "uint256"
        }
      ],
      "name": "mintMemberCardByAdmin",
      "outputs": [],
      "stateMutability": "nonpayable",
      "type": "function"
    },
    {
      "inputs": [
        {
          "internalType": "address",
          "name": "user",
          "type": "address"
        },
        {
          "internalType": "uint256",
          "name": "points6",
          "type": "uint256"
        }
      ],
      "name": "mintPointsByAdmin",
      "outputs": [],
      "stateMutability": "nonpayable",
      "type": "function"
    },
    {
      "inputs": [
        {
          "internalType": "address",
          "name": "user",
          "type": "address"
        },
        {
          "internalType": "uint256",
          "name": "points6",
          "type": "uint256"
        },
        {
          "internalType": "address",
          "name": "operator",
          "type": "address"
        }
      ],
      "name": "mintPointsByAdminWithOperator",
      "outputs": [],
      "stateMutability": "nonpayable",
      "type": "function"
    },
    {
      "inputs": [
        {
          "internalType": "address",
          "name": "userEOA",
          "type": "address"
        },
        {
          "internalType": "uint256",
          "name": "points6",
          "type": "uint256"
        }
      ],
      "name": "mintPointsByGateway",
      "outputs": [],
      "stateMutability": "nonpayable",
      "type": "function"
    },
    {
      "inputs": [
        {
          "internalType": "address",
          "name": "userEOA",
          "type": "address"
        },
        {
          "internalType": "uint256",
          "name": "points6",
          "type": "uint256"
        },
        {
          "internalType": "address",
          "name": "operator",
          "type": "address"
        }
      ],
      "name": "mintPointsByGatewayWithOperator",
      "outputs": [],
      "stateMutability": "nonpayable",
      "type": "function"
    },
    {
      "inputs": [],
      "name": "owner",
      "outputs": [
        {
          "internalType": "address",
          "name": "",
          "type": "address"
        }
      ],
      "stateMutability": "view",
      "type": "function"
    },
    {
      "inputs": [],
      "name": "pointsUnitPriceInCurrencyE6",
      "outputs": [
        {
          "internalType": "uint256",
          "name": "",
          "type": "uint256"
        }
      ],
      "stateMutability": "view",
      "type": "function"
    },
    {
      "inputs": [
        {
          "internalType": "address",
          "name": "operator",
          "type": "address"
        },
        {
          "internalType": "uint256",
          "name": "amount",
          "type": "uint256"
        }
      ],
      "name": "recordAdminBurnForStats",
      "outputs": [],
      "stateMutability": "nonpayable",
      "type": "function"
    },
    {
      "inputs": [
        {
          "internalType": "address",
          "name": "admin",
          "type": "address"
        },
        {
          "internalType": "uint256",
          "name": "amount",
          "type": "uint256"
        }
      ],
      "name": "recordAdminMintForStats",
      "outputs": [],
      "stateMutability": "nonpayable",
      "type": "function"
    },
    {
      "inputs": [
        {
          "internalType": "string",
          "name": "code",
          "type": "string"
        },
        {
          "internalType": "address",
          "name": "to",
          "type": "address"
        }
      ],
      "name": "redeemAdminByGateway",
      "outputs": [],
      "stateMutability": "nonpayable",
      "type": "function"
    },
    {
      "inputs": [
        {
          "internalType": "string[]",
          "name": "codes",
          "type": "string[]"
        },
        {
          "internalType": "address",
          "name": "userEOA",
          "type": "address"
        }
      ],
      "name": "redeemBatchByGateway",
      "outputs": [],
      "stateMutability": "nonpayable",
      "type": "function"
    },
    {
      "inputs": [
        {
          "internalType": "string",
          "name": "code",
          "type": "string"
        },
        {
          "internalType": "address",
          "name": "userEOA",
          "type": "address"
        }
      ],
      "name": "redeemByGateway",
      "outputs": [],
      "stateMutability": "nonpayable",
      "type": "function"
    },
    {
      "inputs": [
        {
          "internalType": "string",
          "name": "code",
          "type": "string"
        },
        {
          "internalType": "address",
          "name": "userEOA",
          "type": "address"
        }
      ],
      "name": "redeemPoolByGateway",
      "outputs": [],
      "stateMutability": "nonpayable",
      "type": "function"
    },
    {
      "inputs": [],
      "name": "renounceOwnership",
      "outputs": [],
      "stateMutability": "nonpayable",
      "type": "function"
    },
    {
      "inputs": [
        {
          "internalType": "address",
          "name": "adminAddr",
          "type": "address"
        }
      ],
      "name": "resetAdminLimit",
      "outputs": [],
      "stateMutability": "nonpayable",
      "type": "function"
    },
    {
      "inputs": [
        {
          "internalType": "address",
          "name": "adminAddr",
          "type": "address"
        },
        {
          "internalType": "address",
          "name": "authorizer",
          "type": "address"
        }
      ],
      "name": "resetAdminLimitByAdmin",
      "outputs": [],
      "stateMutability": "nonpayable",
      "type": "function"
    },
    {
      "inputs": [
        {
          "internalType": "address",
          "name": "from",
          "type": "address"
        },
        {
          "internalType": "address",
          "name": "to",
          "type": "address"
        },
        {
          "internalType": "uint256[]",
          "name": "ids",
          "type": "uint256[]"
        },
        {
          "internalType": "uint256[]",
          "name": "values",
          "type": "uint256[]"
        },
        {
          "internalType": "bytes",
          "name": "data",
          "type": "bytes"
        }
      ],
      "name": "safeBatchTransferFrom",
      "outputs": [],
      "stateMutability": "nonpayable",
      "type": "function"
    },
    {
      "inputs": [
        {
          "internalType": "address",
          "name": "from",
          "type": "address"
        },
        {
          "internalType": "address",
          "name": "to",
          "type": "address"
        },
        {
          "internalType": "uint256",
          "name": "id",
          "type": "uint256"
        },
        {
          "internalType": "uint256",
          "name": "value",
          "type": "uint256"
        },
        {
          "internalType": "bytes",
          "name": "data",
          "type": "bytes"
        }
      ],
      "name": "safeTransferFrom",
      "outputs": [],
      "stateMutability": "nonpayable",
      "type": "function"
    },
    {
      "inputs": [
        {
          "internalType": "address",
          "name": "operator",
          "type": "address"
        },
        {
          "internalType": "bool",
          "name": "approved",
          "type": "bool"
        }
      ],
      "name": "setApprovalForAll",
      "outputs": [],
      "stateMutability": "nonpayable",
      "type": "function"
    },
    {
      "inputs": [
        {
          "internalType": "uint256",
          "name": "attr",
          "type": "uint256"
        }
      ],
      "name": "setDefaultAttr",
      "outputs": [],
      "stateMutability": "nonpayable",
      "type": "function"
    },
    {
      "inputs": [
        {
          "internalType": "uint256",
          "name": "secs",
          "type": "uint256"
        }
      ],
      "name": "setExpirySeconds",
      "outputs": [],
      "stateMutability": "nonpayable",
      "type": "function"
    },
    {
      "inputs": [
        {
          "internalType": "uint256",
          "name": "priceInCurrencyE6",
          "type": "uint256"
        }
      ],
      "name": "setPointsUnitPrice",
      "outputs": [],
      "stateMutability": "nonpayable",
      "type": "function"
    },
    {
      "inputs": [
        {
          "components": [
            {
              "internalType": "uint256",
              "name": "minUsdc6",
              "type": "uint256"
            },
            {
              "internalType": "uint256",
              "name": "attr",
              "type": "uint256"
            },
            {
              "internalType": "uint256",
              "name": "tierExpirySeconds",
              "type": "uint256"
            },
            {
              "internalType": "bool",
              "name": "upgradeByBalance",
              "type": "bool"
            }
          ],
          "internalType": "struct BeamioUserCard.Tier[]",
          "name": "newTiers",
          "type": "tuple[]"
        }
      ],
      "name": "setTiers",
      "outputs": [],
      "stateMutability": "nonpayable",
      "type": "function"
    },
    {
      "inputs": [
        {
          "internalType": "address",
          "name": "target",
          "type": "address"
        },
        {
          "internalType": "bool",
          "name": "allowed",
          "type": "bool"
        }
      ],
      "name": "setTransferWhitelist",
      "outputs": [],
      "stateMutability": "nonpayable",
      "type": "function"
    },
    {
      "inputs": [
        {
          "internalType": "bool",
          "name": "enabled",
          "type": "bool"
        }
      ],
      "name": "setTransferWhitelistEnabled",
      "outputs": [],
      "stateMutability": "nonpayable",
      "type": "function"
    },
    {
      "inputs": [
        {
          "internalType": "bytes4",
          "name": "interfaceId",
          "type": "bytes4"
        }
      ],
      "name": "supportsInterface",
      "outputs": [
        {
          "internalType": "bool",
          "name": "",
          "type": "bool"
        }
      ],
      "stateMutability": "view",
      "type": "function"
    },
    {
      "inputs": [
        {
          "internalType": "uint256",
          "name": "",
          "type": "uint256"
        }
      ],
      "name": "tiers",
      "outputs": [
        {
          "internalType": "uint256",
          "name": "minUsdc6",
          "type": "uint256"
        },
        {
          "internalType": "uint256",
          "name": "attr",
          "type": "uint256"
        },
        {
          "internalType": "uint256",
          "name": "tierExpirySeconds",
          "type": "uint256"
        },
        {
          "internalType": "bool",
          "name": "upgradeByBalance",
          "type": "bool"
        }
      ],
      "stateMutability": "view",
      "type": "function"
    },
    {
      "inputs": [
        {
          "internalType": "uint256",
          "name": "",
          "type": "uint256"
        }
      ],
      "name": "tokenTierIndexOrMax",
      "outputs": [
        {
          "internalType": "uint256",
          "name": "",
          "type": "uint256"
        }
      ],
      "stateMutability": "view",
      "type": "function"
    },
    {
      "inputs": [],
      "name": "totalActiveMemberships",
      "outputs": [
        {
          "internalType": "uint256",
          "name": "",
          "type": "uint256"
        }
      ],
      "stateMutability": "view",
      "type": "function"
    },
    {
      "inputs": [],
      "name": "totalMembershipIssued",
      "outputs": [
        {
          "internalType": "uint256",
          "name": "",
          "type": "uint256"
        }
      ],
      "stateMutability": "view",
      "type": "function"
    },
    {
      "inputs": [
        {
          "internalType": "uint256",
          "name": "",
          "type": "uint256"
        }
      ],
      "name": "totalMembershipIssuedByTierIndex",
      "outputs": [
        {
          "internalType": "uint256",
          "name": "",
          "type": "uint256"
        }
      ],
      "stateMutability": "view",
      "type": "function"
    },
    {
      "inputs": [],
      "name": "totalMembershipUpgraded",
      "outputs": [
        {
          "internalType": "uint256",
          "name": "",
          "type": "uint256"
        }
      ],
      "stateMutability": "view",
      "type": "function"
    },
    {
      "inputs": [],
      "name": "totalSupply",
      "outputs": [
        {
          "internalType": "uint256",
          "name": "",
          "type": "uint256"
        }
      ],
      "stateMutability": "view",
      "type": "function"
    },
    {
      "inputs": [
        {
          "internalType": "uint256",
          "name": "id",
          "type": "uint256"
        }
      ],
      "name": "totalSupply",
      "outputs": [
        {
          "internalType": "uint256",
          "name": "",
          "type": "uint256"
        }
      ],
      "stateMutability": "view",
      "type": "function"
    },
    {
      "inputs": [
        {
          "internalType": "address",
          "name": "newOwner",
          "type": "address"
        }
      ],
      "name": "transferOwnership",
      "outputs": [],
      "stateMutability": "nonpayable",
      "type": "function"
    },
    {
      "inputs": [
        {
          "internalType": "address",
          "name": "",
          "type": "address"
        }
      ],
      "name": "transferWhitelist",
      "outputs": [
        {
          "internalType": "bool",
          "name": "",
          "type": "bool"
        }
      ],
      "stateMutability": "view",
      "type": "function"
    },
    {
      "inputs": [],
      "name": "transferWhitelistEnabled",
      "outputs": [
        {
          "internalType": "bool",
          "name": "",
          "type": "bool"
        }
      ],
      "stateMutability": "view",
      "type": "function"
    },
    {
      "inputs": [
        {
          "internalType": "uint256",
          "name": "",
          "type": "uint256"
        }
      ],
      "name": "uri",
      "outputs": [
        {
          "internalType": "string",
          "name": "",
          "type": "string"
        }
      ],
      "stateMutability": "view",
      "type": "function"
    }
  ],
  "bytecode": "0x60a06040523461033e576165698038038061001981610342565b928339810160a08282031261033e5781516001600160401b03811161033e57820181601f8201121561033e5780516001600160401b0381116102ae57610068601f8201601f1916602001610342565b928184526020828401011161033e575f928160208094018483015e0101526020810151600981101561033e576040820151916100b260806100ab60608401610367565b9201610367565b926020915f6100c084610342565b52600254600181811c91168015610334575b8482101461032057601f81116102ee575b505f6002556001600160a01b03169283156102db57600380546001600160a01b031981168617909155604051959085906001600160a01b03167f8be0079c531659141344cd1fd0a4f28419497f9722a3daafe3b4186f6b6457e05f80a3600160045560646019556001600160a01b0381169081159081156102d1575b506102c25733608052600580546001600160a01b03191682179055600680546001600160a81b03191690911760a09290921b60ff60a01b1691909117905560075560017fbc488d3e2575f0f2113dc4d9a0cd6bc52445c6bc28a8974ed97a6ba3ecfd657a8190555f8381527fbc488d3e2575f0f2113dc4d9a0cd6bc52445c6bc28a8974ed97a6ba3ecfd657b835260409020805460ff191690911790555f5160206165495f395f51905f525490680100000000000000008210156102ae5760018201805f5160206165495f395f51905f525582101561029a575f5160206165495f395f51905f525f908152200180546001600160a01b031916909117905564174876e8007ffed699897f2561c8a98f833aa3de83c4904370d413fe5fb15abe26e9f8150b29556161cd908161037c8239608051816128f00152f35b634e487b7160e01b5f52603260045260245ffd5b634e487b7160e01b5f52604160045260245ffd5b63ab82bb9960e01b5f5260045ffd5b90503b155f61015f565b631e4fbdf760e01b5f525f60045260245ffd5b80156100e35760025f52601f845f20910160051c905f5b8281106103135750506100e3565b5f82820155600101610305565b634e487b7160e01b5f52602260045260245ffd5b90607f16906100d2565b5f80fd5b6040519190601f01601f191682016001600160401b038111838210176102ae57604052565b51906001600160a01b038216820361033e5756fe60806040526004361015610019575b3415613a2f575b5f80fd5b5f3560e01c8062fdd58e1461055d57806301ffc9a714610558578063039af9eb1461055357806303ca3e381461054e5780630a106e9c146105495780630b6c8d71146105445780630cb856411461053f5780630e4ab4871461053a5780630e89341c146105355780630ec3786b146105305780631018c34b1461052b57806310bba86414610526578063116191b6146104c75780631284b92f1461052157806317c957091461051c57806318160ddd146105175780631c790e24146105125780631fe56e6a1461050d57806324d7806c146105085780632aff2a59146105035780632b681a54146104fe5780632eb2c2d6146104f9578063312e76a9146104f45780633c703d45146104ef5780633c970fb9146104ea57806343159ce5146104e5578063475e53ec146104e057806348ed7ebe146104db57806349dd0900146104d65780634dda2215146104d15780634e1273f4146104cc57806353785619146104c75780635476d071146104c257806356217848146104bd5780635637d5bc146104b8578063564da757146104b357806356c689fa146104ae5780636465c3a7146104a9578063671395c8146104a45780636f0fa0cb1461049f5780636f5def391461049a578063706e013214610495578063715018a61461049057806371b8982f146103cd5780637766fa441461048b5780637ffbe2411461048657806382b720c91461048157806383dbbf531461047c578063897828a8146104775780638a1b32bb146104725780638da5cb5b1461046d5780638db553081461046857806394b2e946146104635780639565c5421461045e57806398951b56146104595780639b52f90d146104545780639f1bbda71461044f5780639f3d1a2a1461044a5780639f48facc14610445578063a22cb46514610440578063a47904461461043b578063a876c75914610436578063a98d916e14610431578063acf12d3d1461042c578063aeadb04b14610427578063af7ffa2b14610422578063b84f1fe81461041d578063bd85b03914610418578063c926bbfd14610413578063c9840daf1461040e578063d05dcc6a14610409578063d4506e7714610404578063d52dc515146103ff578063d5f39488146103fa578063dd1bc5e9146103f5578063e141dcb8146103f0578063e4a34dce146103eb578063e5a6b10f146103e6578063e985e9c5146103e1578063f242432a146103dc578063f2fde38b146103d7578063f540f227146103d2578063f986f676146103cd578063fcef6b01146103c85763ffa1ad740361000e57612cab565b612c8e565b611d7b565b612c64565b612bed565b612b00565b612acf565b612a8f565b612a5a565b612949565b61291f565b6128db565b6128b9565b612861565b612837565b61275d565b612743565b61270d565b6126e6565b612673565b61264c565b61262f565b612610565b6125f3565b61258b565b61250c565b6123ae565b6122f7565b6122da565b6122b3565b61223f565b612217565b6121dc565b6121b4565b61218c565b612107565b6120a5565b612039565b611f42565b611f02565b611dc8565b611cda565b611cbb565b611c94565b611c6d565b611c32565b611b28565b611a99565b6119b8565b61199d565b611973565b611956565b610d26565b611895565b611834565b6117f9565b6116de565b61166c565b611521565b6114de565b611495565b61143a565b6113a6565b611222565b6111bb565b611186565b61115c565b61109f565b611076565b61104c565b610f96565b610ce7565b610c8a565b610c2e565b610ac8565b610a45565b6109e8565b6109a7565b6108cd565b6106ed565b610670565b6105cd565b61057f565b6001600160a01b031690565b6001600160a01b0381160361001557565b346100155760403660031901126100155760206105b26004356105a18161056e565b6024355f525f835260405f20610f6c565b54604051908152f35b6001600160e01b031981160361001557565b346100155760203660031901126100155760206004356105ec816105bb565b63ffffffff60e01b16636cdb3d1360e11b811490811561062a575b8115610619575b506040519015158152f35b6301ffc9a760e01b1490505f61060e565b6303a24d0760e21b81149150610607565b634e487b7160e01b5f52603260045260245ffd5b60175481101561066b5760175f5260205f209060021b01905f90565b61063b565b34610015576020366003190112610015576004356017548110156100155761069960809161064f565b5080549060018101549060ff6003600283015492015416916040519384526020840152604083015215156060820152f35b6060906003190112610015576004356106e28161056e565b906024359060443590565b34610015576106fb366106ca565b600654919290916001600160a01b0316806108a057506005546001600160a01b03165b6001600160a01b0316330361089157610735613aee565b6001600160a01b038116918215610882578015610873576107986107a7916107935f5160206160c15f395f51905f529661078560405193849263c791063b60e01b60208501528860248501612cc6565b03601f198101835282611292565b613b0e565b60208082518301019101612ce4565b9390916108256107b682613ba3565b916107c083613cba565b6108176107cc84610d4e565b54156107e16107d9612cfa565b8a8988613d1c565b8661086c5788905b60135460145492909115610850576108019087613d63565b6003546001600160a01b0316613d98565b613d98565b61082085610ff2565b610f6c565b546040516001600160a01b039092169582916108419183612d0e565b0390a461084e6001600455565b005b8061085c575b50610801565b6108669087613d3c565b5f610856565b5f906107e9565b63201165f360e21b5f5260045ffd5b63a9b8048960e01b5f5260045ffd5b6396f47d2360e01b5f5260045ffd5b61071e565b6040906003190112610015576004356108bd8161056e565b906024356108ca8161056e565b90565b34610015576108db366108a5565b6006546001600160a01b03168061093457506005546001600160a01b03165b6001600160a01b031633036108915761092f61084e926107856040519384926302841ba760e21b602085015260248401612d1f565b613b3b565b6108fa565b6060602091604081019381526040838201528451809452019201905f5b8181106109635750505090565b909192602060a06001926080875180518352848101518584015260408101516040840152606081015160608401520151151560808201520194019101919091610956565b34610015576020366003190112610015576109d46109cf6004356109ca8161056e565b613e4b565b612e1d565b906109e460405192839283610939565b0390f35b3461001557604036600319011261001557600435610a058161056e565b600654602435906001600160a01b031680610a4057506005546001600160a01b03165b6001600160a01b031633036108915761084e91613f52565b610a28565b3461001557602036600319011261001557600435610a61614062565b7ff316e065e93b4fddef3d2d93a57817985081f76ea9e0ca7417ed5b4b086b1fcb6020601854604051908152a1601855005b805180835260209291819084018484015e5f828201840152601f01601f1916010190565b9060206108ca928181520190610a93565b3461001557602036600319011261001557610ae16140c6565b6040516001600160601b03193060601b1660208201526014815290610b07603483611292565b610b0f614158565b91610b18614186565b925f5b60148110610b69576040516109e490610b5d81610785610b488a610b42602085018c612d4a565b90612d4a565b683db4b23e973539b7b760b91b815260090190565b60405191829182610ab7565b80610bb1610b88610bab610ba5610b9c610b96610b886001988b6141a8565b516001600160f81b03191690565b60f81c90565b60041c600f1690565b60ff1690565b856141a8565b610bc7610bbd83612f9b565b915f1a91886141a8565b53610bea610b88610bab600f610be3610b96610b88878b6141a8565b1660ff1690565b610bfe610bbd610bf984612f9b565b613a14565b5301610b1b565b606090600319011261001557600435610c1d8161056e565b90602435906044356108ca8161056e565b3461001557610c3c36610c05565b6006549091906001600160a01b031680610c8557506005546001600160a01b03165b6001600160a01b0316330361089157610c7e92610c79613aee565b6141b9565b6001600455005b610c5e565b3461001557604036600319011261001557600435610ca78161056e565b600654602435906001600160a01b031680610ce257506005546001600160a01b03165b6001600160a01b031633036108915761084e91614256565b610cca565b34610015575f36600319011261001557602060405160068152f35b6001600160a01b0316600452602490565b6001600160a01b03909116815260200190565b34610015575f366003190112610015576005546040516001600160a01b039091168152602090f35b6001600160a01b03165f908152600f6020526040902090565b6001600160a01b03165f9081527fbc488d3e2575f0f2113dc4d9a0cd6bc52445c6bc28a8974ed97a6ba3ecfd657b6020526040902090565b6001600160a01b03165f9081527fbc488d3e2575f0f2113dc4d9a0cd6bc52445c6bc28a8974ed97a6ba3ecfd65816020526040902090565b6001600160a01b03165f9081527fbe5c2328713858b26c97b83c5ace333ac35b55572be4794180ba426b12cc48be6020526040902090565b6001600160a01b03165f9081527fbe5c2328713858b26c97b83c5ace333ac35b55572be4794180ba426b12cc48bf6020526040902090565b6001600160a01b03165f9081527fbe5c2328713858b26c97b83c5ace333ac35b55572be4794180ba426b12cc48c16020526040902090565b6001600160a01b03165f9081527fbe5c2328713858b26c97b83c5ace333ac35b55572be4794180ba426b12cc48c26020526040902090565b6001600160a01b03165f9081527fbe5c2328713858b26c97b83c5ace333ac35b55572be4794180ba426b12cc48c06020526040902090565b6001600160a01b03165f9081527fbe5c2328713858b26c97b83c5ace333ac35b55572be4794180ba426b12cc48c36020526040902090565b5f805260096020527fec8156718a8372b1db44bb411437d0870f3e3790d4a08526d024ce1b0b668f6b90565b6001600160a01b03165f90815260096020526040902090565b9060018060a01b03165f5260205260405f2090565b805482101561066b575f5260205f2001905f90565b3461001557604036600319011261001557600435610fb38161056e565b6001600160a01b03165f908152600e602052604090208054602435919082101561001557602091610fe391610f81565b90549060031b1c604051908152f35b5f527fe5fcefe92466b78c655fa732b80b16e07a00f2a897e833e17d9914703cad563360205260405f2090565b5f527fcb1a422c9916903f224af4db9a3bf1529921bf95ff7b75d7d9ed9073a48394ac60205260405f2090565b34610015576020366003190112610015576004355f52600b602052602060405f2054604051908152f35b34610015575f3660031901126100155760205f5160206161815f395f51905f5254604051908152f35b34610015576040366003190112610015576024356004356110bf8261056e565b6006546001600160a01b03168061115757506005546001600160a01b03165b6001600160a01b03163303610891575f806110f7614303565b93604051602081019163071e438960e21b835285602483015260018060a01b031660448201526044815261112c606482611292565b5190855af4611139612d5c565b50156111485761084e916146b3565b6363bc5ecb60e11b5f5260045ffd5b6110de565b34610015576020366003190112610015576004355f526011602052602060405f2054604051908152f35b3461001557602036600319011261001557602060ff6111af6004356111aa8161056e565b610d67565b54166040519015158152f35b34610015576111c9366108a5565b6006546001600160a01b03168061121d57506005546001600160a01b03165b6001600160a01b031633036108915761092f61084e92610785604051938492630ed647d960e11b602085015260248401612d1f565b6111e8565b34610015576020366003190112610015576109d46004356109cf8161056e565b634e487b7160e01b5f52604160045260245ffd5b61010081019081106001600160401b0382111761127257604052565b611242565b608081019081106001600160401b0382111761127257604052565b601f909101601f19168101906001600160401b0382119082101761127257604052565b604051906112c460a083611292565b565b6001600160401b0381116112725760051b60200190565b9080601f830112156100155781356112f4816112c6565b926113026040519485611292565b81845260208085019260051b82010192831161001557602001905b82821061132a5750505090565b813581526020918201910161131d565b6001600160401b03811161127257601f01601f191660200190565b9291926113618261133a565b9161136f6040519384611292565b829481845281830111610015578281602093845f960137010152565b9080601f83011215610015578160206108ca93359101611355565b346100155760a0366003190112610015576004356113c38161056e565b602435906113d08261056e565b6044356001600160401b038111610015576113ef9036906004016112dd565b6064356001600160401b0381116100155761140e9036906004016112dd565b608435939091906001600160401b0385116100155761143461084e95369060040161138b565b93612f1e565b34610015576020366003190112610015576004356001600160401b03811161001557366023820112156100155760048101356001600160401b038111610015573660248260071b8401011161001557602461084e92016130a9565b34610015576020366003190112610015576004355f527ffed699897f2561c8a98f833aa3de83c4904370d413fe5fb15abe26e9f8150b30602052602060405f2054604051908152f35b3461001557604036600319011261001557610c7e6004356114fe8161056e565b602435611509613aee565b611511614062565b6108016013549160145493614794565b346100155760403660031901126100155760043561153e8161056e565b6024356006546001600160a01b03168061166757506005546001600160a01b03165b6001600160a01b0316330361089157611577613aee565b9081906001600160a01b038116156108825761159290613ba3565b5f808052602052906115b1825f5160206161a15f395f51905f52610f6c565b54908115610873575f191461165f575b8083116116255750811561087357611618816115fe847fcfaedf921126ed75cd0b52e9418d816572c256b67104e03066bd3f067f2d53c0946147bb565b6040519384526001600160a01b0316929081906020820190565b0390a261084e6001600455565b60405163406e3ab960e01b81526001600160a01b0390921660048301525f60248301526044820152606481019190915280608481015b0390fd5b9150816115c1565b611560565b346100155761167a366106ca565b6006549091906001600160a01b0316806116d957506005546001600160a01b03165b6001600160a01b03163303610891576116b3613aee565b6001600160a01b03831615610882578115610873576116d4610c7e93613ba3565b6149f4565b61169c565b34610015576116ec36610c05565b600654919290916001600160a01b0316806117f457506005546001600160a01b03165b6001600160a01b0316330361089157611726613aee565b6001600160a01b0381161580156117e3575b6108825782156108735761175c61175861175184610d67565b5460ff1690565b1590565b611148575f5160206161015f395f51905f52916115fe6117a46116189361179e604051631deff10f60e11b602082015261092f816107858b8960248401613146565b50613ba3565b916117b26013549060145490565b916117c56117be612cfa565b8987613cf7565b6117cf8882613f52565b6117d98886614a71565b6108128886613d3c565b506001600160a01b03821615611738565b61170f565b346100155760203660031901126100155760206004356118188161056e565b6001600160a01b039061182a90610d9f565b5416604051908152f35b34610015575f366003190112610015576020600754604051908152f35b90602080835192838152019201905f5b81811061186e5750505090565b8251845260209384019390920191600101611861565b9060206108ca928181520190611851565b34610015576040366003190112610015576004356001600160401b0381116100155736602382011215610015578060040135906118d1826112c6565b916118df6040519384611292565b8083526024602084019160051b8301019136831161001557602401905b82821061193c57836024356001600160401b038111610015576109e49161192a6119309236906004016112dd565b90613193565b60405191829182611884565b60208091833561194b8161056e565b8152019101906118fc565b34610015575f366003190112610015576020601554604051908152f35b34610015576020366003190112610015576004355f526012602052602060405f2054604051908152f35b34610015575f36600319011261001557602060405160648152f35b34610015576040366003190112610015576004356119d58161056e565b602435906119e1613aee565b6119e9614062565b6001600160a01b0381161561088257811561087357611618611a185f5160206161015f395f51905f5292613ba3565b6115fe60135460145490611a3d604051611a33602082611292565b5f81528886613cf7565b611a478785614a71565b6108018785613d3c565b604435906001600160401b038216820361001557565b959260c09592989794919860e08801998852602088015260408701526060860152608085015260a08401521515910152565b34610015576020366003190112610015576004356001600160401b0381168103610015576001600160401b03165f9081527f348bae4e1f5cd16c7acea618682eb9de87b5f8161d5b94b9b5591b7620ae71a26020526040902080546109e4600183015492600281015490600381015460048201549060ff60066005850154940154169360405197889788611a67565b3461001557611b36366106ca565b600654919290916001600160a01b031680611c2d57506005546001600160a01b03165b6001600160a01b0316330361089157611b70613aee565b6001600160a01b03811691821561088257801561087357610798611bc0916107935f5160206160c15f395f51905f5296610785604051938492634404589760e01b60208501528860248501612cc6565b939091610825611bcf82613ba3565b91611be3611bdb612cfa565b888786613d1c565b84611c2757865b80611bfa575b5061082085610ff2565b610801611c2191611c0e6013549060145490565b929091611c1b8189614a71565b87613d3c565b5f611bf0565b5f611bea565b611b59565b3461001557602036600319011261001557600435611c4f8161056e565b60018060a01b03165f52600f602052602060405f2054604051908152f35b346100155760203660031901126100155760206105b2600435611c8f8161056e565b610dd7565b346100155760203660031901126100155760206105b2600435611cb68161056e565b610e0f565b3461001557611cc9366106ca565b90611cd2613aee565b6116b3614062565b34610015575f36600319011261001557611cf2614a98565b600380546001600160a01b031981169091555f906001600160a01b03165f5160206161415f395f51905f528280a3005b906040600319830112610015576004356001600160401b0381116100155782602382011215610015576004810135926001600160401b03841161001557602484830101116100155760240191906024356108ca8161056e565b3461001557611d8936611d22565b6006549091906001600160a01b031680611dc357506005546001600160a01b03165b6001600160a01b031633036108915761084e92613222565b611dab565b3461001557611dd636611d22565b6006549192916001600160a01b031680611efd57506005546001600160a01b03165b6001600160a01b0316330361089157611e0f613aee565b6001600160a01b0381161561088257611e5e611e4f5f94611e4a8695610785604051938492633aa2954160e11b6020850152602484016134d5565b613b48565b6020808251830101910161352c565b611e69929192614303565b928115158514611ec457611e9890610785604051938492602084019663d8bdbdf560e01b88526024850161358c565b51915af4611ea4612d5c565b505b15611eb55761084e6001600455565b63fb713d2b60e01b5f5260045ffd5b6107859150611eeb906040519283916020830195630b18ae1d60e11b87526024840161355c565b51915af4611ef7612d5c565b50611ea6565b611df8565b3461001557602036600319011261001557600435611f1f8161056e565b60018060a01b03165f526009602052602060ff60405f2054166040519015158152f35b346100155760a036600319011261001557600435611f5f816105bb565b60243590611f6c8261056e565b604435906064356084356006549091906001600160a01b03168061203457506005546001600160a01b03165b6001600160a01b031633036108915761200493611fb3614303565b6040516382b720c960e01b60208201526001600160e01b031990951660248601526001600160a01b0390961660448501526064840152608483015260a480830191909152815261092f60c482611292565b906020828051810103126100155761202460206109e493015180926146b3565b6040519081529081906020820190565b611f98565b3461001557602036600319011261001557600435612055614062565b801561208c576020817fd45b01a2f21a7aa8a0f57023efdce73147de071e77875c3f4d486b1e13eaef7092600755604051908152a1005b6376024b7160e01b5f5260045ffd5b8015150361001557565b34610015576020366003190112610015577fc52867146282c253c04e94eb2a948478a1f7ef84cf2d6f5864facc99f2203f2c60206004356120e58161209b565b6120ed614062565b151560ff19600a541660ff821617600a55604051908152a1005b34610015576020366003190112610015576004356121248161056e565b6006546001600160a01b03168061218757506005546001600160a01b03165b6001600160a01b0316330361089157604051638a1b32bb60e01b60208201526001600160a01b03909116602480830191909152815261084e9061092f604482611292565b612143565b34610015575f366003190112610015576003546040516001600160a01b039091168152602090f35b346100155760203660031901126100155760206121d26004356135c4565b6040519015158152f35b34610015576020366003190112610015576004356121f98161056e565b60018060a01b03165f526010602052602060405f2054604051908152f35b34610015575f366003190112610015576006546040516001600160a01b039091168152602090f35b346100155760203660031901126100155760043560ff61225e33610d67565b5416156111485761226d614303565b905f806040516020810190634c4a8dab60e11b825284602482015260248152612297604482611292565b5190855af46122a4612d5c565b5015611eb55761084e916146b3565b346100155760203660031901126100155760206105b26004356122d58161056e565b610e47565b34610015575f366003190112610015576020600854604051908152f35b34610015575f366003190112610015576109e46123126140c6565b604051918291602083526020830190610a93565b81516001600160401b039081168252602080840151909116908201526040808301516001600160801b039081169183019190915260608084015190911690820152610100810192916112c4919060e090819060808181015115159085015260a08181015160ff169085015260c08181015160ff169085015201516001600160801b0316910152565b34610015576020366003190112610015576004355f60e06040516123d181611256565b8281528260208201528260408201528260608201528260808201528260a08201528260c082015201525f527fe5fcefe92466b78c655fa732b80b16e07a00f2a897e833e17d9914703cad56326020526109e460405f206124db6124cb60026040519361243c85611256565b80546001600160401b038082168752604082901c16602087015261246d9060801c6001600160801b03166040870152565b60018101546001600160801b03811660608701526124bd906124b39061249d608082901c60ff16151560808a0152565b60ff608882901c1660a089015260901c60ff1690565b60ff1660c0870152565b01546001600160801b031690565b6001600160801b031660e0830152565b60405191829182612326565b6040906003190112610015576004356124ff8161056e565b906024356108ca8161209b565b346100155761251a366124e7565b6001600160a01b038216918215612579578161254461254992335f52600160205260405f20610f6c565b613030565b60405190151581527f17307eab39ab6107e8899845ad3d59bd9653f200f220920489ca2b5937696c3160203392a3005b62ced3e160e81b5f525f60045260245ffd5b34610015576040366003190112610015576004356001600160401b0381116100155736602382011215610015576004810135906001600160401b038211610015573660248360051b830101116100155761084e9160248035926125ed8461056e565b0161367e565b34610015575f366003190112610015576020601854604051908152f35b34610015575f36600319011261001557602060405164174876e8008152f35b34610015575f366003190112610015576020601354604051908152f35b346100155760203660031901126100155760206105b260043561266e8161056e565b610e7f565b34610015576040366003190112610015576004356126908161056e565b60065460243591906001600160a01b0316806126e157506005546001600160a01b03165b6001600160a01b0316330361089157610c7e916126cf613aee565b6003546001600160a01b0316916141b9565b6126b4565b346100155760203660031901126100155760206105b26004356127088161056e565b610eb7565b34610015576020366003190112610015576004355f525f5160206161215f395f51905f52602052602060405f2054604051908152f35b34610015575f3660031901126100155760206040515f8152f35b346100155760603660031901126100155760043560ff81168091036100155760243590600161278a611a51565b91036127ff576127c3915f527f348bae4e1f5cd16c7acea618682eb9de87b5f8161d5b94b9b5591b7620ae71a360205260405f2061320d565b80546109e460018301549260028101549060038101546004820154906127f26006600585015494015460ff1690565b9360405197889788611a67565b612832915f527f348bae4e1f5cd16c7acea618682eb9de87b5f8161d5b94b9b5591b7620ae71a460205260405f2061320d565b6127c3565b34610015576020366003190112610015576004355f52600c602052602060405f2054604051908152f35b346100155760203660031901126100155760043561287d614062565b7f1c8121c98d871a1523a6112e29ac660378afbcb9b921cff8f187c3da35d17081816008546128b160405192839283612d0e565b0390a1600855005b34610015575f36600319011261001557602060ff600a54166040519015158152f35b34610015575f366003190112610015576040517f00000000000000000000000000000000000000000000000000000000000000006001600160a01b03168152602090f35b34610015576020366003190112610015576004355f526016602052602060405f2054604051908152f35b346100155760803660031901126100155760443560043560643560243561296f8261209b565b612977614062565b8215612a4b57601754916040519461298e86611277565b8486526020860192808452604087019382855260608801978415158952600160401b87101561127257600187016017556129c78761064f565b919091612a46577fb08290a3275552d4032ce96418c8bc739fd6be2860fe5897558f5c0af90e91fb99612a4197612a14946003935185555160018501555160028401555115159101613030565b6040519586958693909594919260809360a086019786526020860152604085015260608401521515910152565b0390a1005b612fb6565b639033099360e01b5f5260045ffd5b346100155761084e612a6b366124e7565b90612a74614062565b6001600160a01b03165f908152600960205260409020613030565b34610015575f3660031901126100155760ff60065460a01c166040516009821015612abb576020918152f35b634e487b7160e01b5f52602160045260245ffd5b3461001557602060ff6111af612ae4366108a5565b6001600160a01b039091165f9081526001855260409020610f6c565b346100155760a036600319011261001557600435612b1d8161056e565b602435612b298161056e565b60443590606435926084356001600160401b03811161001557612b5090369060040161138b565b926001600160a01b0382163381141580612bcd575b612bb7576001600160a01b03841615612ba45715612b925761084e94612b8a9161513e565b929091615409565b626a0d4560e21b5f525f60045260245ffd5b632bfa23e760e11b5f525f60045260245ffd5b63711bec9160e11b5f523360045260245260445ffd5b50805f52600160205260ff612be53360405f20610f6c565b541615612b65565b3461001557602036600319011261001557600435612c0a8161056e565b612c12614a98565b6001600160a01b03168015612c5157600380546001600160a01b0319811683179091556001600160a01b03165f5160206161415f395f51905f525f80a3005b631e4fbdf760e01b5f525f60045260245ffd5b34610015576020366003190112610015576004355f52600d602052602060405f2054604051908152f35b34610015575f366003190112610015576020601454604051908152f35b34610015575f366003190112610015576020604051600c8152f35b604091949392606082019560018060a01b0316825260208201520152565b9190826040910312610015576020825192015190565b60405190612d09602083611292565b5f8252565b908152602081019190915260400190565b6001600160a01b0391821681529116602082015260400190565b5f5160206161815f395f51905f5255565b805191908290602001825e015f815290565b3d15612d86573d90612d6d8261133a565b91612d7b6040519384611292565b82523d5f602084013e565b606090565b90612d95826112c6565b612da26040519182611292565b8281528092612db3601f19916112c6565b015f5b818110612dc257505050565b60405160a0810191906001600160401b03831181841017611272576020926040525f81525f838201525f60408201525f60608201525f608082015282828601015201612db6565b805182101561066b5760209160051b010190565b6001600160a01b0381165f908152600e60205260409020909190918254612e4381612d8b565b935f5b828110612e735750505f80805260205250612e6e905f5160206161a15f395f51905f52610f6c565b549190565b80612e8d612e8360019385610f81565b90549060031b1c90565b612ef7612ea2825f52600b60205260405f2090565b548015159081612f13575b612ebf845f52600c60205260405f2090565b54612ed2855f52600d60205260405f2090565b5490612edc6112b5565b95865260208601526040850152606084015215156080830152565b612f018289612e09565b52612f0c8188612e09565b5001612e46565b809150421190612ead565b939291906001600160a01b0385163381141580612f57575b612bb7576001600160a01b03821615612ba45715612b92576112c494615409565b50805f52600160205260ff612f6f3360405f20610f6c565b541615612f36565b919081101561066b5760071b0190565b634e487b7160e01b5f52601160045260245ffd5b908160011b9180830460021490151715612fb157565b612f87565b634e487b7160e01b5f525f60045260245ffd5b6017545f60175580612fd85750565b600281901b906001600160fe1b03811603612fb15760175f5260205f205f5b82811061300357505050565b805f60036004938501828155826001820155826002820155015501612ff7565b805460ff19166001179055565b9060ff801983541691151516179055565b601754600160401b811015611272576001810160175560175481101561066b5760175f5260021b5f5160206161615f395f51905f5201600360606112c4938035845560208101356001850155604081013560028501550135916130a38361209b565b01613030565b6130b1614062565b8115613137575f5b82811061311e57506130c9612fc9565b5f5b8281106131025750506040519081527f2f291eaf494dc7eca20457441a1df7d9119f0c0d764309daf9cb6b148810ee3690602090a1565b806131186131136001938686612f77565b613041565b016130cb565b613129818484612f77565b3515612a4b576001016130b9565b6308ba5b6160e01b5f5260045ffd5b6001600160a01b039091168152602081019190915260400190565b9061316b826112c6565b6131786040519182611292565b8281528092613189601f19916112c6565b0190602036910137565b919091805183518082036131f85750506131ad8151613161565b905f5b81518110156131f157806131df60019260051b602080828701015191890101515f525f60205260405f20610f6c565b546131ea8286612e09565b52016131b0565b5090925050565b635b05999160e01b5f5260045260245260445ffd5b9060018060401b03165f5260205260405f2090565b909261322c613aee565b6001600160a01b03831615610882576132776132488584614ae8565b94611e4a6132568286614b64565b946107858760405194859363fd44e85560e01b602086015260248501614abf565b9361328b60208651870101602087016139c2565b949296915096875185510361349857506132a490613ba3565b906132ae82613cba565b6132b782610d4e565b54155f955f975f5b8a51811015613304576132d2818c612e09565b51156132e1575b6001016132bf565b9850966132f9906132f28a89612e09565b5190613a22565b6001989097906132d9565b50909192949796939615613490575b508180613485575b61345d575b828061340e575b50505f5b87518110156133b45761333e8186612e09565b5190811561087357600191613353828b612e09565b51156133ae5764174876e800613369838c612e09565b511061338a576133849061337d838c612e09565b51896149f4565b0161332b565b6133a990613398838c612e09565b51906133a2612cfa565b918a613d1c565b613384565b50613384565b509195506133e99490939192506001600160a01b038116156133fc57905b601354601454949093156133f35761081291613d63565b6112c46001600455565b61081291613d3c565b50613408600354610562565b906133d2565b6134429161342461341d612cfa565b838a613cf7565b6001600160a01b038916156134495761343d828a613f52565b614c45565b5f82613327565b61343d82613458600354610562565b613f52565b61346d613468614bda565b61064f565b50548310156133205763559d06d760e01b5f5260045ffd5b50601754151561331b565b92505f613313565b60405163dccff66960e01b815290819061165b9060048301610ab7565b908060209392818452848401375f828201840152601f01601f1916010190565b9160206108ca9381815201916134b5565b81601f82011215610015578051906134fd8261133a565b9261350b6040519485611292565b8284526020838301011161001557815f9260208093018386015e8301015290565b91906040838203126100155782516001600160401b038111610015576020916135569185016134e6565b92015190565b6001600160a01b03909116815260016020820181905260408201526080606082018190526108ca92910190610a93565b9392916135bf9060809260018060a01b03168652600160208701526001604087015260a0606087015260a0860190610a93565b930152565b64174876e800811061366f575f9081527ffed699897f2561c8a98f833aa3de83c4904370d413fe5fb15abe26e9f8150b2a60209081526040808320547ffed699897f2561c8a98f833aa3de83c4904370d413fe5fb15abe26e9f8150b2b909252909120546001600160401b0390811691168015159081613674575b5061366f576001600160401b03168015159081613665575b5061366157600190565b5f90565b905042115f613657565b505f90565b905042105f61363f565b600654919390916001600160a01b03168061388557506005546001600160a01b03165b6001600160a01b03163303610891576136b8613aee565b6001600160a01b03831615610882578315611eb55761371b6136e36136dd868561388a565b90614ae8565b94611e4a6136fa6136f4838761388a565b90614b64565b946107858760405194859363bca0e27d60e01b6020860152602485016138c4565b9361372f60208651870101602087016139c2565b9492969150968751855103613498575061374890613ba3565b9061375282613cba565b61375b82610d4e565b54155f955f975f5b8a518110156137a157613776818c612e09565b5115613785575b600101613763565b985096613796906132f28a89612e09565b60019890979061377d565b5090919294979693961561387d575b508180613872575b61384f575b8280613839575b50505f5b87518110156133b4576137db8186612e09565b51908115610873576001916137f0828b612e09565b51156138335764174876e800613806838c612e09565b51106138205761381a9061337d838c612e09565b016137c8565b61382e90613398838c612e09565b61381a565b5061381a565b6138489161342461341d612cfa565b5f826137c4565b61385a613468614bda565b50548310156137bd5763559d06d760e01b5f5260045ffd5b5060175415156137b8565b92505f6137b0565b6136a1565b901561066b57803590601e19813603018212156100155701803591906001600160401b038311610015576020018236038113610015579190565b93929190816040860160408752526060850160608360051b87010192825f90601e19813603015b83831061390e575050505050509060206112c49294019060018060a01b03169052565b909192939495605f198a8203018652863582811215610015578301602081019190356001600160401b0381116100155780360383136100155761395760209283926001956134b5565b9801960194930191906138eb565b9080601f8301121561001557815161397c816112c6565b9261398a6040519485611292565b81845260208085019260051b82010192831161001557602001905b8282106139b25750505090565b81518152602091820191016139a5565b9060808282031261001557815192602083015192604081015160018060401b03811161001557836139f4918301613965565b60608201519093906001600160401b038111610015576108ca9201613965565b9060018201809211612fb157565b91908201809211612fb157565b5f356001600160e01b031916613a4481614cbd565b15613a6e57505f80613a54615070565b368280378136915af43d90815f803e15613a6b575ff35b5ffd5b613a7781614d90565b15613a8c57505f80613a87614479565b613a54565b613a9581614fe4565b15613aa557505f80613a87614303565b6001600160e01b03191663f42987cd60e01b8101613ac857505f80613a87614407565b6363039f8b60e11b03613adf575f80613a87614395565b633655084960e01b5f5260045ffd5b600260045414613aff576002600455565b633ee5aeb560e01b5f5260045ffd5b5f8091613b1b60016144ea565b602082519201905af490613b2d612d5c565b9115613b3557565b5061510c565b5f8091613b1b60036144ea565b5f8091613b1b826144ea565b5f8091613b1b60046144ea565b5f8091613b1b60026144ea565b9081602091031261001557516108ca8161056e565b6040513d5f823e3d90fd5b9081602091031261001557516108ca8161209b565b60046020613bbd613bb8613bb8600554610562565b610562565b604051630e83251360e01b815292839182905afa908115613c77575f91613c8b575b506001600160a01b03168015613c7c57602060405180926303330c7960e41b82528180613c0f8760048301610d13565b03915afa908115613c77575f91613c48575b50613c2f576108ca90613e4b565b803b15613c395790565b632ad05f3360e11b5f5260045ffd5b613c6a915060203d602011613c70575b613c628183611292565b810190613b8e565b5f613c21565b503d613c58565b613b83565b63ab82bb9960e01b5f5260045ffd5b613cad915060203d602011613cb3575b613ca58183611292565b810190613b6e565b5f613bdf565b503d613c9b565b60405163e6a84c7760e01b60208201526001600160a01b039091166024808301919091528152613cf490613cef604482611292565b613b54565b50565b9091906001600160a01b03811615612ba457613d166112c4935f61513e565b91615163565b919291906001600160a01b03821615612ba4576112c493613d169161513e565b90613cef613cf49261078560405193849263a55d613f60e01b602085015260248401613146565b90613cef613cf49261078560405193849263179953bf60e11b602085015260248401613146565b5f198114612fb15760010190565b601354828103949392818611612fb157601454938403938411612fb1576001600160a01b03831615918215613e33575b5050613e2d57925f935b6001600160a01b038116151580613e23575b15613e1c57613e10613e0382613dfe8686613e169661572a565b610d9f565b546001600160a01b031690565b94613d8a565b93613dd2565b5050509050565b5060408510613de4565b50509050565b14905080613e43575b5f80613dc8565b508115613e3c565b60046020613e60613bb8613bb8600554610562565b60405163fb3894d360e01b815292839182905afa908115613c77575f91613f33575b506001600160a01b038116918215613c7c57602060405180946308a8c59960e01b82528180613eb48660048301610d13565b03915afa928315613c77575f93613f12575b506001600160a01b038316158015613f09575b613ee257505090565b63ad12d34160e01b5f526001600160a01b039081166004529081166024521660445260645ffd5b50823b15613ed9565b613f2c91935060203d602011613cb357613ca58183611292565b915f613ec6565b613f4c915060203d602011613cb357613ca58183611292565b5f613e82565b906001600160a01b03821615801561405a575b61405657613f7282610dd7565b805492828401809411612fb157600893613f8c9255610eef565b610e1042045f5260205260405f209060098201613fad611758825460ff1690565b614047575b50613fbe5f8354613a22565b8255613fcf60018301918254613a22565b905560028101613fe05f8254613a22565b905560038101613ff15f8254613a22565b9055600481016140025f8254613a22565b9055600581016140135f8254613a22565b9055600681016140245f8254613a22565b9055600781016140355f8254613a22565b9055016140435f8254613a22565b9055565b61405090613023565b5f613fb2565b5050565b508015613f65565b6006546001600160a01b0316806140c157506005546001600160a01b03165b6003546001600160a01b031633141590816140ad575b5061409e57565b630fc5e1ab60e41b5f5260045ffd5b6001600160a01b031633141590505f614097565b614081565b6005546001600160a01b0316801581811561414e575b50613c7c575f60049160405192838092634f9e8d1560e11b82525afa908115613c77575f91614111575b50805115613c7c5790565b90503d805f833e6141228183611292565b81016020828203126100155781516001600160401b0381116100155761414892016134e6565b5f614106565b90503b155f6140dc565b60405190614167604083611292565b601082526f181899199a1a9b1b9c1cb0b131b232b360811b6020830152565b604051606091906141978382611292565b6028815291601f1901366020840137565b90815181101561066b570160200190565b90916001600160a01b03821691908215610882576001600160a01b038116156108825783156108735761424061420f7f6ac4f60455173f2148d89d52868ac4ffb14111720d245aa36ad26e0d7e64c59b93613ba3565b91601354601454916142226117be612cfa565b61422c8886614a71565b6142368886613d3c565b6108128882615828565b6040519384526001600160a01b031692602090a3565b906001600160a01b0382161580156142fb575b6140565761427682610e0f565b805492828401809411612fb1576008936142a69255614299610e10420491610eef565b905f5260205260405f2090565b90600982016142b9611758825460ff1690565b6142ec575b506142ca5f8354613a22565b8255600182016142db5f8254613a22565b9055613fe060028301918254613a22565b6142f590613023565b5f6142be565b508015614269565b61430e600554610562565b6001600160a01b03811690811590811561438b575b50613c7c57602060049160405192838092632502c7e760e11b82525afa908115613c77575f9161436c575b506001600160a01b0381166108ca5763a9d04f8760e01b5f5260045ffd5b614385915060203d602011613cb357613ca58183611292565b5f61434e565b90503b155f614323565b6143a0600554610562565b6001600160a01b0381169081159081156143fd575b50613c7c57602060049160405192838092632b5e757b60e11b82525afa908115613c77575f9161436c57506001600160a01b0381166108ca5763a9d04f8760e01b5f5260045ffd5b90503b155f6143b5565b614412600554610562565b6001600160a01b03811690811590811561446f575b50613c7c57602060049160405192838092635ee738d560e11b82525afa908115613c77575f9161436c57506001600160a01b0381166108ca5763a9d04f8760e01b5f5260045ffd5b90503b155f614427565b614484600554610562565b6001600160a01b0381169081159081156144e0575b50613c7c57602060049160405192838092620c3c5d60e81b82525afa908115613c77575f9161436c57506001600160a01b0381166108ca5763a9d04f8760e01b5f5260045ffd5b90503b155f614499565b6144f5600554610562565b6001600160a01b03811691908215908115614670575b50613c7c57602060ff600492169283155f1461459c57604051620c3c5d60e81b815292839182905afa908115613c77575f9161457d575b505b6001600160a01b03811661457857600482146145695763a9d04f8760e01b5f5260045ffd5b632dc6cc2360e01b5f5260045ffd5b905090565b614596915060203d602011613cb357613ca58183611292565b5f614542565b600184036145eb57604051635ee738d560e11b815292839182905afa908115613c77575f916145cc575b50614544565b6145e5915060203d602011613cb357613ca58183611292565b5f6145c6565b6002840361461a57604051632b5e757b60e11b815292839182905afa908115613c77575f916145cc5750614544565b6003840361464957604051632502c7e760e11b815292839182905afa908115613c77575f916145cc5750614544565b6040516324e1067960e11b815292839182905afa908115613c77575f916145cc5750614544565b90503b155f61450b565b908160a0910312610015578051614690816105bb565b91602082015161469f8161056e565b916040810151916080606083015192015190565b906146e5815f527fbc488d3e2575f0f2113dc4d9a0cd6bc52445c6bc28a8974ed97a6ba3ecfd657d60205260405f2090565b600681015460ff16908115614765575b50614056575f918291604051614725816107856020820194630d61b51960e01b8652602483019190602083019252565b51915af4614731612d5c565b90156147605761474d816020806112c49451830101910161467a565b509290916001600160a01b031690615881565b61510c565b6005915001547fbc488d3e2575f0f2113dc4d9a0cd6bc52445c6bc28a8974ed97a6ba3ecfd657a54115f6146f5565b90613cef613cf492610785604051938492635bcc7ca960e11b602085015260248401613146565b906001600160a01b03821615612b92576147d5905f61513e565b915f6040516147e5602082611292565b525f905f926147f48151613161565b916147ff8251613161565b905f925f5b8151811015614903576148178183612e09565b516064811015806148f5575b6148ba5715806148b3575b61483d575b6001905b01614804565b614847818a612e09565b51614894575b600a5460ff1661485d575b614833565b61486b611758611751610f27565b156148335761487f6117586117515f610f53565b15614858575b639798976560e01b5f5260045ffd5b96956148a26148ad91613a14565b966132f2898b612e09565b9661484d565b505f61482e565b600191956148ef916148df866148d0848c612e09565b6001600160a01b039091169052565b6148e98288612e09565b52613d8a565b94614837565b5064174876e8008110614823565b50959091979396945f61491887898387615cf0565b6149db575b5050505f955f965b85518810156149745760019061493b8987612e09565b519061496561494a8b8a612e09565b515f525f5160206161215f395f51905f5260205260405f2090565b82815403905501970196614925565b9195935093506149959195505f5160206161815f395f51905f525403612d39565b5f5b8381106149a45750505050565b806149d56149c46149b760019486612e09565b516001600160a01b031690565b6149ce8387612e09565b5190615fce565b01614997565b6149e76149ec93615ea9565b615f50565b5f808061491d565b60207fae2f87dbf103db294ddd4ab45caa7a914d70bb3d06eeb8a8dc23e03e84548c8d91614a42604051633c2f328b60e11b84820152614a3d8161078589898760248501612cc6565b613b61565b50614a5e604051614a538482611292565b5f8152868684613d1c565b6040519485526001600160a01b031693a3565b90613cef613cf49261078560405193849263b932546160e01b602085015260248401613146565b6003546001600160a01b03163303614aac57565b63118cdaa760e01b5f523360045260245ffd5b91602091614ad8919594956040855260408501916134b5565b6001600160a01b03909416910152565b8115614b5e57614af9913691611355565b60208151910120805f525f5160206160e15f395f51905f5260205260405f2060ff815460a01c16614b4c5750614b2e9061101f565b60ff815416614b3c57505f90565b600201546001600160a01b031690565b600401546001600160a01b0316919050565b50505f90565b8115614b5e57614b75913691611355565b60208151910120805f525f5160206160e15f395f51905f5260205260405f2060ff815460a01c16614bc85750614baa9061101f565b60ff815416614bb857505f90565b600301546001600160a01b031690565b600501546001600160a01b0316919050565b6017548015614c3f575f906017541561066b5760175f525f5160206161615f395f51905f525460015b828110614c105750505090565b81614c1a8261064f565b505410614c2a575b600101614c03565b809350614c37915061064f565b505482614c22565b505f1990565b9091906001600160a01b038116158015614cb5575b614cb0575f905b6001600160a01b038116151580614ca6575b15613e2d5780614c8685614ca0936158f0565b6001600160a01b0390614c9890610d9f565b541691613d8a565b90614c61565b5060408210614c73565b509050565b508215614c5a565b63ffffffff60e01b16628c2cb160e51b8114908115614d7f575b8115614d6e575b8115614d5d575b8115614d4c575b8115614d3b575b8115614d2a575b8115614d19575b8115614d0b575090565b630516df1760e21b14919050565b630ca3dccb60e21b81149150614d01565b63068e993160e51b81149150614cfa565b636785147560e01b81149150614cf3565b632e8d3d7160e11b81149150614cec565b6333444d1960e21b81149150614ce5565b631357891160e31b81149150614cde565b63ef15fba760e01b81149150614cd7565b63ffffffff60e01b16636c27fde560e01b8114908115614fd3575b8115614fc2575b8115614fb1575b8115614fa0575b8115614f8f575b8115614f7e575b8115614f6d575b8115614f5c575b8115614f4b575b8115614f3a575b8115614f29575b8115614f18575b8115614f07575b8115614ef6575b8115614ee5575b8115614ed4575b8115614ec3575b8115614eb2575b8115614ea1575b8115614e90575b8115614e7f575b8115614e6e575b8115614e5d575b8115614e4f575090565b6348d7f0b960e11b14919050565b6393e8419160e01b81149150614e45565b638568e38360e01b81149150614e3e565b63f249d30360e01b81149150614e37565b6352b9ec2360e01b81149150614e30565b6365e270d560e11b81149150614e29565b633c87fa8960e11b81149150614e22565b630ea3ac9f60e11b81149150614e1b565b6378a5b02560e11b81149150614e14565b63b0c2093960e01b81149150614e0d565b639f63520960e01b81149150614e06565b63677f58b960e01b81149150614dff565b637a8844fb60e11b81149150614df8565b6371d7193b60e01b81149150614df1565b6331b86d3560e01b81149150614dea565b6301247ab760e61b81149150614de3565b63b04e83b760e01b81149150614ddc565b63294ae08160e11b81149150614dd5565b631163081760e11b81149150614dce565b6361e3f2a560e11b81149150614dc7565b6347b5881360e01b81149150614dc0565b63c0ab3ba360e01b81149150614db9565b630569881360e41b81149150614db2565b63057a66b360e21b81149150614dab565b63ffffffff60e01b16630b18ae1d60e11b811490811561505f575b811561504e575b811561503d575b811561502c575b811561501e575090565b636f5d64cf60e11b14919050565b63738abdef60e01b81149150615014565b63037fe8db60e51b8114915061500d565b6303bbece160e21b81149150615006565b63d8bdbdf560e01b81149150614fff565b61507b600554610562565b6001600160a01b03811691908215908115615102575b50613c7c57602060049260405193848092634e077ded60e11b82525afa918215613c77575f926150e1575b506001600160a01b038216158281156150d7575b50613c7c57565b90503b155f6150d0565b6150fb91925060203d602011613cb357613ca58183611292565b905f6150bc565b90503b155f615091565b805190816151395760405163dccff66960e01b81526020600482015290819061165b906024830190610a93565b602001fd5b9160405192600184526020840152604083019160018352606084015260808301604052565b9293905f905f926151748251613161565b9061517f8351613161565b925f915f5b8251811015615289576151978184612e09565b5160648110158061527b575b61522e571580615227575b6151bd575b6001905b01615184565b6151c7818a612e09565b51615213575b600a5460ff166151dd575b6151b3565b6151eb611758611751610f27565b156151b3576151ff6117586117518c610f53565b156151d857639798976560e01b5f5260045ffd5b96956148a261522191613a14565b966151cd565b505f6151ae565b6001600160a01b038b161580615274575b61524d575b506001906151b7565b8461526d916152635f6148d0600196998b612e09565b6148e9828a612e09565b9390615244565b505f61523f565b5064174876e80081106151a3565b5094909695989291989793975f6152a2888a8884615cf0565b6153f5575b50505f975f985b87518a10156152f0576152e88a6001926152d661494a6152ce848d612e09565b51938d612e09565b6152e1838254613a22565b9055613a22565b9901986152ae565b61531a91939795995061531590989294985f5160206161815f395f51905f5254613a22565b612d39565b6001600160a01b038716159283615396575b5f5b83811061537d575050505015615345575b50505050565b805160010361536d579060208061536495930151910151915f33615b49565b5f80808061533f565b615378935f33615a2b565b615364565b806153906149c46149b760019486612e09565b0161532e565b969290979395915f985f995b88518b10156153ce578a6001916153bf61494a6152ce848d612e09565b828154039055019a01996153a2565b6153f091939599929498969a505f5160206161815f395f51905f525403612d39565b61532c565b615402916149e75f615ea9565b5f806152a7565b93949093916001600160a01b0383161580159283929083615717575b5f945f966154338451613161565b9161543e8551613161565b945f945f5b8251811015615581578d846154588386612e09565b5191606483101580615573575b6154f857505015806154f1575b615481575b6001905b01615443565b8c61548c8282612e09565b516154d1575b50600a5460ff1615615477578d6154ad611758611751610f27565b6154b8575b50615477565b6117586117516154c792610f53565b614885578d6154b2565b9a9b6132f2826154e46154ea949f613a14565b9d612e09565b9a8c615492565b5089615472565b8b91615561575b5015615552576001600160a01b038f16158061554b575b615524575b5060019061547b565b876155449161553a886148d06001969c8c612e09565b6148e9828c612e09565b969061551b565b5084615516565b63b8333dc960e01b5f5260045ffd5b6001600160a01b03161590508f6154ff565b5064174876e8008310615465565b509c9a98929991509a9695929594939461559d898d8a8d615cf0565b80615705575b6156f1575b5050615692575b6001600160a01b03841615928361562b575b5f5b8381106156125750505050156155db575b5050505050565b8451600103615601576020806155f79601519201519233615b49565b5f808080806155d4565b61560d94919233615a2b565b6155f7565b806156256149c46149b760019486612e09565b016155c3565b979693915f9693915f975b895189101561566a578960019161565b61494a8c615654818e612e09565b5194612e09565b82815403905501980197615636565b61568d91939598509991939598995f5160206161815f395f51905f525403612d39565b6155c1565b979394915f9693915f975b89518910156156c6576156be8a6001926152d661494a8d615654818f612e09565b98019761569d565b6156ec9193959850615315909a929497969a5f5160206161815f395f51905f5254613a22565b6155af565b6156fe916149e78a615ea9565b5f806155a8565b50811515806155a357508015156155a3565b6001600160a01b03881615159350615425565b6001600160a01b038116158015615817575b615812576140439161574f600892610eef565b610e1042045f5260205260405f209060098201615770611758825460ff1690565b615803575b506157815f8354613a22565b8255600182016157925f8254613a22565b9055600282016157a35f8254613a22565b9055600382016157b45f8254613a22565b9055600482016157c55f8254613a22565b9055600582016157d65f8254613a22565b9055600682016157e75f8254613a22565b90556157f860078301918254613a22565b905501918254613a22565b61580c90613023565b5f615775565b505050565b508115801561573c5750821561573c565b9091906001600160a01b038116158015615879575b614cb0575f905b6001600160a01b03811615158061586f575b15613e2d5780614c868561586993615be7565b90615844565b5060408210615856565b50821561583d565b9092906001600160e01b031916630b18ae1d60e11b81036158ab57632bb82cb360e01b5f5260045ffd5b631cb4772560e21b81036158d7575050906112c491604051916158cf602084611292565b5f8352613cf7565b90915063178fb21b60e11b03611eb5576112c491614794565b906001600160a01b0382161580156159bb575b6140565761591082610e47565b805492828401809411612fb1576008936159339255614299610e10420491610eef565b9060098201615946611758825460ff1690565b6159ac575b506159575f8354613a22565b8255600182016159685f8254613a22565b9055600282016159795f8254613a22565b90556003820161598a5f8254613a22565b90556004820161599b5f8254613a22565b905561401360058301918254613a22565b6159b590613023565b5f61594b565b508015615903565b9081602091031261001557516108ca816105bb565b6001600160a01b0391821681529116602082015260a0604082018190526108ca9491939192615a1d9291615a0f9190860190611851565b908482036060860152611851565b916080818403910152610a93565b9091949293853b615a3f575b505050505050565b602093615a6191604051968795869563bc197c8160e01b8752600487016159d8565b03815f6001600160a01b0387165af15f9181615adf575b50615aa95750615a86612d5c565b8051919082615aa257632bfa23e760e11b5f52613a6b82610d02565b6020915001fd5b6001600160e01b0319166343e6837f60e01b01615acc57505f8080808080615a37565b632bfa23e760e11b5f52613a6b90610d02565b615b0291925060203d602011615b09575b615afa8183611292565b8101906159c3565b905f615a78565b503d615af0565b6001600160a01b039182168152911660208201526040810191909152606081019190915260a0608082018190526108ca92910190610a93565b9091949293853b615b5c57505050505050565b602093615b7e91604051968795869563f23a6e6160e01b875260048701615b10565b03815f6001600160a01b0387165af15f9181615bc6575b50615ba35750615a86612d5c565b6001600160e01b031916630dc5919f60e01b01615acc57505f8080808080615a37565b615be091925060203d602011615b0957615afa8183611292565b905f615b95565b906001600160a01b038216158015615cc3575b61405657615c0782610e7f565b805492828401809411612fb157600893615c2a9255614299610e10420491610eef565b9060098201615c3d611758825460ff1690565b615cb4575b50615c4e5f8354613a22565b825560018201615c5f5f8254613a22565b905560028201615c705f8254613a22565b905560038201615c815f8254613a22565b905560048201615c925f8254613a22565b905560058201615ca35f8254613a22565b905561402460068301918254613a22565b615cbd90613023565b5f615c42565b508015615bfa565b9091615ce26108ca93604084526040840190611851565b916020818403910152611851565b9392918051835190818103615e945750505f5b8151811015615def578060051b90602080838501015192860101518460018060a01b038916615d72575b6001936001600160a01b038216615d48575b50505001615d03565b615d6891610820615d60925f525f60205260405f2090565b918254613a22565b90555f8481615d3f565b509091615d8a88610820835f525f60205260405f2090565b54828110615db857829160019493879203615db08b610820845f525f60205260405f2090565b559350615d2d565b6040516303dee4c560e01b81526001600160a01b038a16600482015260248101919091526044810183905260648101829052608490fd5b508051939493919291600103615e51576020908101519101516040516001600160a01b03938416949093169233927fc3d58168c5ae7397731d063d5bbf3d657854427343f4c083240f7aacaa2d0f62928291615e4c919083612d0e565b0390a4565b6040516001600160a01b03938416949093169233927f4a39dc06d4c0dbc64b70af90fd698a233a518aa5d07e595d983b8c0526c8f7fb928291615e4c9183615ccb565b635b05999160e01b5f5260045260245260445ffd5b615eb561175133610d67565b615f4b576001600160a01b038116158015615f42575b61366f575f80916040516020810190638da5cb5b60e01b825260048152615ef3602482611292565b51915afa615eff612d5c565b90158015615f37575b61366f57613bb881602080615f2294518301019101613b6e565b615f2e61175182610d67565b6108ca57505f90565b506020815110615f08565b50803b15615ecb565b503390565b9192916001600160a01b038116158015615fbd575b613e2d57905f915b6001600160a01b038116151580615fb3575b15613e1c5780615f938684615fad94615ff5565b6001600160a01b0390615fa590610d9f565b541692613d8a565b91615f6d565b5060408310615f7f565b5081158015615f6557508315615f65565b90613cef613cf492610785604051938492637e4152e760e11b602085015260248401613146565b916001600160a01b0383161580156160af575b6158125761601583610eb7565b805493838501809511612fb1576008946160389255614299610e10420491610eef565b916009830161604b611758825460ff1690565b6160a0575b5061605c5f8454613a22565b83556001830161606d5f8254613a22565b90556002830161607e5f8254613a22565b905561608f60038401918254613a22565b905561400260048301918254613a22565b6160a990613023565b5f616050565b50811580156160085750801561600856fe3bf2de114e2e7636c289f21be023528e47d89b45e873b976c78989c3ddc683f5cb1a422c9916903f224af4db9a3bf1529921bf95ff7b75d7d9ed9073a48394ab3e38a9410c08ddb4af8b083bfd2b197b1c3e61a651bd1c54c51ebce0cdcdc48ed34312c2e21f45f2b6715cf87d9e919b2098c835582e2b5c6e716490b0dfd0d48be0079c531659141344cd1fd0a4f28419497f9722a3daafe3b4186f6b6457e0c624b66cc0138b8fabc209247f72d758e1cf3343756d543badbf24212bed8c15d34312c2e21f45f2b6715cf87d9e919b2098c835582e2b5c6e716490b0dfd0d5ad3228b676f7d3cd4284a5443f17f1962b36e491b30a40b2405849e597ba5fb5a164736f6c6343000821000abc488d3e2575f0f2113dc4d9a0cd6bc52445c6bc28a8974ed97a6ba3ecfd657c",
  "linkReferences": {},
  "deployedLinkReferences": {},
  "immutableReferences": {
    "3453": [
      {
        "length": 32,
        "start": 10480
      }
    ]
  },
  "inputSourceName": "project/src/BeamioUserCard/BeamioUserCard.sol",
  "buildInfoId": "solc-0_8_33-50b5d29df39dc20179d4bcb430617429f52e7a5c"
}