{
  "_format": "hh3-artifact-1",
  "contractName": "BeamioUserCardFactoryPaymasterV07",
  "sourceName": "src/BeamioUserCard/BeamioUserCardFactoryPaymasterV07.sol",
  "abi": [
    {
      "inputs": [
        {
          "internalType": "address",
          "name": "usdcToken_",
          "type": "address"
        },
        {
          "internalType": "address",
          "name": "redeemModule_",
          "type": "address"
        },
        {
          "internalType": "address",
          "name": "quoteHelper_",
          "type": "address"
        },
        {
          "internalType": "address",
          "name": "deployer_",
          "type": "address"
        },
        {
          "internalType": "address",
          "name": "aaFactory_",
          "type": "address"
        },
        {
          "internalType": "address",
          "name": "initialOwner",
          "type": "address"
        }
      ],
      "stateMutability": "nonpayable",
      "type": "constructor"
    },
    {
      "inputs": [],
      "name": "BM_CallFailed",
      "type": "error"
    },
    {
      "inputs": [],
      "name": "BM_DeployFailed",
      "type": "error"
    },
    {
      "inputs": [
        {
          "internalType": "uint8",
          "name": "step",
          "type": "uint8"
        }
      ],
      "name": "BM_DeployFailedAtStep",
      "type": "error"
    },
    {
      "inputs": [],
      "name": "BM_NotAuthorized",
      "type": "error"
    },
    {
      "inputs": [],
      "name": "BM_ZeroAddress",
      "type": "error"
    },
    {
      "inputs": [],
      "name": "ECDSAInvalidSignature",
      "type": "error"
    },
    {
      "inputs": [
        {
          "internalType": "uint256",
          "name": "length",
          "type": "uint256"
        }
      ],
      "name": "ECDSAInvalidSignatureLength",
      "type": "error"
    },
    {
      "inputs": [
        {
          "internalType": "bytes32",
          "name": "s",
          "type": "bytes32"
        }
      ],
      "name": "ECDSAInvalidSignatureS",
      "type": "error"
    },
    {
      "inputs": [],
      "name": "F_AlreadyRegistered",
      "type": "error"
    },
    {
      "inputs": [],
      "name": "F_BadDeployedCard",
      "type": "error"
    },
    {
      "inputs": [],
      "name": "F_InvalidRedeemHash",
      "type": "error"
    },
    {
      "inputs": [],
      "name": "UC_AmountZero",
      "type": "error"
    },
    {
      "inputs": [],
      "name": "UC_FaucetNotEnabled",
      "type": "error"
    },
    {
      "inputs": [
        {
          "internalType": "address",
          "name": "recovered",
          "type": "address"
        },
        {
          "internalType": "address",
          "name": "expected",
          "type": "address"
        }
      ],
      "name": "UC_InvalidSignature",
      "type": "error"
    },
    {
      "inputs": [
        {
          "internalType": "uint256",
          "name": "nowTs",
          "type": "uint256"
        },
        {
          "internalType": "uint256",
          "name": "validAfter",
          "type": "uint256"
        },
        {
          "internalType": "uint256",
          "name": "validBefore",
          "type": "uint256"
        }
      ],
      "name": "UC_InvalidTimeWindow",
      "type": "error"
    },
    {
      "inputs": [],
      "name": "UC_NonceUsed",
      "type": "error"
    },
    {
      "inputs": [],
      "name": "UC_NotAdmin",
      "type": "error"
    },
    {
      "inputs": [],
      "name": "UC_PointsZero",
      "type": "error"
    },
    {
      "inputs": [],
      "name": "UC_PriceZero",
      "type": "error"
    },
    {
      "inputs": [],
      "name": "UC_PurchaseDisabledBecauseFree",
      "type": "error"
    },
    {
      "inputs": [],
      "name": "UC_Slippage",
      "type": "error"
    },
    {
      "anonymous": false,
      "inputs": [
        {
          "indexed": true,
          "internalType": "address",
          "name": "oldFactory",
          "type": "address"
        },
        {
          "indexed": true,
          "internalType": "address",
          "name": "newFactory",
          "type": "address"
        }
      ],
      "name": "AAFactoryChanged",
      "type": "event"
    },
    {
      "anonymous": false,
      "inputs": [
        {
          "indexed": true,
          "internalType": "address",
          "name": "card",
          "type": "address"
        },
        {
          "indexed": true,
          "internalType": "address",
          "name": "adminSigner",
          "type": "address"
        },
        {
          "indexed": false,
          "internalType": "bytes32",
          "name": "nonce",
          "type": "bytes32"
        }
      ],
      "name": "AdminExecuteExecuted",
      "type": "event"
    },
    {
      "anonymous": false,
      "inputs": [
        {
          "indexed": true,
          "internalType": "address",
          "name": "cardOwner",
          "type": "address"
        },
        {
          "indexed": true,
          "internalType": "address",
          "name": "card",
          "type": "address"
        },
        {
          "indexed": false,
          "internalType": "uint8",
          "name": "currency",
          "type": "uint8"
        },
        {
          "indexed": false,
          "internalType": "uint256",
          "name": "priceE18",
          "type": "uint256"
        }
      ],
      "name": "CardDeployed",
      "type": "event"
    },
    {
      "anonymous": false,
      "inputs": [
        {
          "indexed": true,
          "internalType": "address",
          "name": "cardOwner",
          "type": "address"
        },
        {
          "indexed": true,
          "internalType": "address",
          "name": "card",
          "type": "address"
        }
      ],
      "name": "CardRegistered",
      "type": "event"
    },
    {
      "anonymous": false,
      "inputs": [
        {
          "indexed": true,
          "internalType": "address",
          "name": "oldM",
          "type": "address"
        },
        {
          "indexed": true,
          "internalType": "address",
          "name": "newM",
          "type": "address"
        }
      ],
      "name": "DefaultFaucetModuleUpdated",
      "type": "event"
    },
    {
      "anonymous": false,
      "inputs": [
        {
          "indexed": true,
          "internalType": "address",
          "name": "oldM",
          "type": "address"
        },
        {
          "indexed": true,
          "internalType": "address",
          "name": "newM",
          "type": "address"
        }
      ],
      "name": "DefaultGovernanceModuleUpdated",
      "type": "event"
    },
    {
      "anonymous": false,
      "inputs": [
        {
          "indexed": true,
          "internalType": "address",
          "name": "oldM",
          "type": "address"
        },
        {
          "indexed": true,
          "internalType": "address",
          "name": "newM",
          "type": "address"
        }
      ],
      "name": "DefaultIssuedNftModuleUpdated",
      "type": "event"
    },
    {
      "anonymous": false,
      "inputs": [
        {
          "indexed": true,
          "internalType": "address",
          "name": "oldM",
          "type": "address"
        },
        {
          "indexed": true,
          "internalType": "address",
          "name": "newM",
          "type": "address"
        }
      ],
      "name": "DefaultRedeemModuleUpdated",
      "type": "event"
    },
    {
      "anonymous": false,
      "inputs": [
        {
          "indexed": false,
          "internalType": "uint8",
          "name": "step",
          "type": "uint8"
        }
      ],
      "name": "DeployFailedStep",
      "type": "event"
    },
    {
      "anonymous": false,
      "inputs": [
        {
          "indexed": true,
          "internalType": "address",
          "name": "oldD",
          "type": "address"
        },
        {
          "indexed": true,
          "internalType": "address",
          "name": "newD",
          "type": "address"
        }
      ],
      "name": "DeployerChanged",
      "type": "event"
    },
    {
      "anonymous": false,
      "inputs": [
        {
          "indexed": true,
          "internalType": "address",
          "name": "card",
          "type": "address"
        },
        {
          "indexed": true,
          "internalType": "address",
          "name": "userEOA",
          "type": "address"
        },
        {
          "indexed": true,
          "internalType": "address",
          "name": "cardOwner",
          "type": "address"
        },
        {
          "indexed": false,
          "internalType": "uint256",
          "name": "tokenId",
          "type": "uint256"
        },
        {
          "indexed": false,
          "internalType": "uint256",
          "name": "amount",
          "type": "uint256"
        },
        {
          "indexed": false,
          "internalType": "uint256",
          "name": "usdcAmount6",
          "type": "uint256"
        },
        {
          "indexed": false,
          "internalType": "bytes32",
          "name": "nonce",
          "type": "bytes32"
        }
      ],
      "name": "IssuedNftPurchasedForUser",
      "type": "event"
    },
    {
      "anonymous": false,
      "inputs": [
        {
          "indexed": true,
          "internalType": "address",
          "name": "oldOwner",
          "type": "address"
        },
        {
          "indexed": true,
          "internalType": "address",
          "name": "newOwner",
          "type": "address"
        }
      ],
      "name": "OwnerChanged",
      "type": "event"
    },
    {
      "anonymous": false,
      "inputs": [
        {
          "indexed": true,
          "internalType": "address",
          "name": "account",
          "type": "address"
        },
        {
          "indexed": false,
          "internalType": "bool",
          "name": "allowed",
          "type": "bool"
        }
      ],
      "name": "PaymasterStatusChanged",
      "type": "event"
    },
    {
      "anonymous": false,
      "inputs": [
        {
          "indexed": true,
          "internalType": "address",
          "name": "card",
          "type": "address"
        },
        {
          "indexed": true,
          "internalType": "address",
          "name": "fromEOA",
          "type": "address"
        },
        {
          "indexed": true,
          "internalType": "address",
          "name": "cardOwner",
          "type": "address"
        },
        {
          "indexed": false,
          "internalType": "uint256",
          "name": "usdcAmount6",
          "type": "uint256"
        },
        {
          "indexed": false,
          "internalType": "uint256",
          "name": "pointsOut6",
          "type": "uint256"
        },
        {
          "indexed": false,
          "internalType": "bytes32",
          "name": "nonce",
          "type": "bytes32"
        }
      ],
      "name": "PointsPurchasedForUser",
      "type": "event"
    },
    {
      "anonymous": false,
      "inputs": [
        {
          "indexed": true,
          "internalType": "address",
          "name": "oldH",
          "type": "address"
        },
        {
          "indexed": true,
          "internalType": "address",
          "name": "newH",
          "type": "address"
        }
      ],
      "name": "QuoteHelperChanged",
      "type": "event"
    },
    {
      "anonymous": false,
      "inputs": [
        {
          "indexed": true,
          "internalType": "address",
          "name": "card",
          "type": "address"
        },
        {
          "indexed": true,
          "internalType": "address",
          "name": "user",
          "type": "address"
        },
        {
          "indexed": false,
          "internalType": "bytes32",
          "name": "redeemHash",
          "type": "bytes32"
        }
      ],
      "name": "RedeemExecuted",
      "type": "event"
    },
    {
      "anonymous": false,
      "inputs": [
        {
          "indexed": true,
          "internalType": "address",
          "name": "card",
          "type": "address"
        },
        {
          "indexed": true,
          "internalType": "uint256",
          "name": "id",
          "type": "uint256"
        },
        {
          "indexed": false,
          "internalType": "bool",
          "name": "isNft",
          "type": "bool"
        }
      ],
      "name": "TokenIdIssued",
      "type": "event"
    },
    {
      "inputs": [],
      "name": "DOMAIN_SEPARATOR",
      "outputs": [
        {
          "internalType": "bytes32",
          "name": "",
          "type": "bytes32"
        }
      ],
      "stateMutability": "view",
      "type": "function"
    },
    {
      "inputs": [],
      "name": "EXECUTE_FOR_ADMIN_TYPEHASH",
      "outputs": [
        {
          "internalType": "bytes32",
          "name": "",
          "type": "bytes32"
        }
      ],
      "stateMutability": "view",
      "type": "function"
    },
    {
      "inputs": [],
      "name": "EXECUTE_FOR_OWNER_TYPEHASH",
      "outputs": [
        {
          "internalType": "bytes32",
          "name": "",
          "type": "bytes32"
        }
      ],
      "stateMutability": "view",
      "type": "function"
    },
    {
      "inputs": [],
      "name": "USDC",
      "outputs": [
        {
          "internalType": "address",
          "name": "",
          "type": "address"
        }
      ],
      "stateMutability": "view",
      "type": "function"
    },
    {
      "inputs": [],
      "name": "USDC_TOKEN",
      "outputs": [
        {
          "internalType": "address",
          "name": "",
          "type": "address"
        }
      ],
      "stateMutability": "view",
      "type": "function"
    },
    {
      "inputs": [],
      "name": "_aaFactory",
      "outputs": [
        {
          "internalType": "address",
          "name": "",
          "type": "address"
        }
      ],
      "stateMutability": "view",
      "type": "function"
    },
    {
      "inputs": [],
      "name": "aaFactory",
      "outputs": [
        {
          "internalType": "address",
          "name": "",
          "type": "address"
        }
      ],
      "stateMutability": "view",
      "type": "function"
    },
    {
      "inputs": [
        {
          "internalType": "address",
          "name": "",
          "type": "address"
        }
      ],
      "name": "beamioUserCardOwner",
      "outputs": [
        {
          "internalType": "address",
          "name": "",
          "type": "address"
        }
      ],
      "stateMutability": "view",
      "type": "function"
    },
    {
      "inputs": [
        {
          "internalType": "address",
          "name": "cardAddr",
          "type": "address"
        },
        {
          "internalType": "address",
          "name": "fromEOA",
          "type": "address"
        },
        {
          "internalType": "uint256",
          "name": "usdcAmount6",
          "type": "uint256"
        },
        {
          "internalType": "uint256",
          "name": "validAfter",
          "type": "uint256"
        },
        {
          "internalType": "uint256",
          "name": "validBefore",
          "type": "uint256"
        },
        {
          "internalType": "bytes32",
          "name": "nonce",
          "type": "bytes32"
        },
        {
          "internalType": "bytes",
          "name": "signature",
          "type": "bytes"
        },
        {
          "internalType": "uint256",
          "name": "minPointsOut6",
          "type": "uint256"
        }
      ],
      "name": "buyPointsForUser",
      "outputs": [
        {
          "internalType": "uint256",
          "name": "pointsOut6",
          "type": "uint256"
        }
      ],
      "stateMutability": "nonpayable",
      "type": "function"
    },
    {
      "inputs": [
        {
          "internalType": "address",
          "name": "cardOwner",
          "type": "address"
        }
      ],
      "name": "cardsOfOwner",
      "outputs": [
        {
          "internalType": "address[]",
          "name": "",
          "type": "address[]"
        }
      ],
      "stateMutability": "view",
      "type": "function"
    },
    {
      "inputs": [
        {
          "internalType": "address",
          "name": "a",
          "type": "address"
        },
        {
          "internalType": "bool",
          "name": "ok",
          "type": "bool"
        }
      ],
      "name": "changePaymasterStatus",
      "outputs": [],
      "stateMutability": "nonpayable",
      "type": "function"
    },
    {
      "inputs": [
        {
          "internalType": "address",
          "name": "cardOwner",
          "type": "address"
        },
        {
          "internalType": "uint8",
          "name": "currency",
          "type": "uint8"
        },
        {
          "internalType": "uint256",
          "name": "priceInCurrencyE6",
          "type": "uint256"
        },
        {
          "internalType": "bytes",
          "name": "initCode",
          "type": "bytes"
        }
      ],
      "name": "createCardCollectionWithInitCode",
      "outputs": [
        {
          "internalType": "address",
          "name": "card",
          "type": "address"
        }
      ],
      "stateMutability": "nonpayable",
      "type": "function"
    },
    {
      "inputs": [],
      "name": "defaultFaucetModule",
      "outputs": [
        {
          "internalType": "address",
          "name": "",
          "type": "address"
        }
      ],
      "stateMutability": "view",
      "type": "function"
    },
    {
      "inputs": [],
      "name": "defaultGovernanceModule",
      "outputs": [
        {
          "internalType": "address",
          "name": "",
          "type": "address"
        }
      ],
      "stateMutability": "view",
      "type": "function"
    },
    {
      "inputs": [],
      "name": "defaultIssuedNftModule",
      "outputs": [
        {
          "internalType": "address",
          "name": "",
          "type": "address"
        }
      ],
      "stateMutability": "view",
      "type": "function"
    },
    {
      "inputs": [],
      "name": "defaultRedeemModule",
      "outputs": [
        {
          "internalType": "address",
          "name": "",
          "type": "address"
        }
      ],
      "stateMutability": "view",
      "type": "function"
    },
    {
      "inputs": [],
      "name": "deployer",
      "outputs": [
        {
          "internalType": "address",
          "name": "",
          "type": "address"
        }
      ],
      "stateMutability": "view",
      "type": "function"
    },
    {
      "inputs": [
        {
          "internalType": "address",
          "name": "cardAddr",
          "type": "address"
        },
        {
          "internalType": "bytes",
          "name": "data",
          "type": "bytes"
        },
        {
          "internalType": "uint256",
          "name": "deadline",
          "type": "uint256"
        },
        {
          "internalType": "bytes32",
          "name": "nonce",
          "type": "bytes32"
        },
        {
          "internalType": "bytes",
          "name": "adminSignature",
          "type": "bytes"
        }
      ],
      "name": "executeForAdmin",
      "outputs": [],
      "stateMutability": "nonpayable",
      "type": "function"
    },
    {
      "inputs": [
        {
          "internalType": "address",
          "name": "cardAddr",
          "type": "address"
        },
        {
          "internalType": "bytes",
          "name": "data",
          "type": "bytes"
        },
        {
          "internalType": "uint256",
          "name": "deadline",
          "type": "uint256"
        },
        {
          "internalType": "bytes32",
          "name": "nonce",
          "type": "bytes32"
        },
        {
          "internalType": "bytes",
          "name": "ownerSignature",
          "type": "bytes"
        }
      ],
      "name": "executeForOwner",
      "outputs": [],
      "stateMutability": "nonpayable",
      "type": "function"
    },
    {
      "inputs": [
        {
          "internalType": "address",
          "name": "card",
          "type": "address"
        }
      ],
      "name": "isBeamioUserCard",
      "outputs": [
        {
          "internalType": "bool",
          "name": "",
          "type": "bool"
        }
      ],
      "stateMutability": "view",
      "type": "function"
    },
    {
      "inputs": [
        {
          "internalType": "address",
          "name": "",
          "type": "address"
        },
        {
          "internalType": "address",
          "name": "",
          "type": "address"
        }
      ],
      "name": "isCardOfOwner",
      "outputs": [
        {
          "internalType": "bool",
          "name": "",
          "type": "bool"
        }
      ],
      "stateMutability": "view",
      "type": "function"
    },
    {
      "inputs": [
        {
          "internalType": "address",
          "name": "",
          "type": "address"
        }
      ],
      "name": "isPaymaster",
      "outputs": [
        {
          "internalType": "bool",
          "name": "",
          "type": "bool"
        }
      ],
      "stateMutability": "view",
      "type": "function"
    },
    {
      "inputs": [
        {
          "internalType": "address",
          "name": "card",
          "type": "address"
        },
        {
          "internalType": "uint256",
          "name": "id",
          "type": "uint256"
        }
      ],
      "name": "isTokenIdIssued",
      "outputs": [
        {
          "internalType": "bool",
          "name": "",
          "type": "bool"
        }
      ],
      "stateMutability": "view",
      "type": "function"
    },
    {
      "inputs": [
        {
          "internalType": "address",
          "name": "card",
          "type": "address"
        },
        {
          "internalType": "bool",
          "name": "isNft",
          "type": "bool"
        }
      ],
      "name": "issueTokenId",
      "outputs": [
        {
          "internalType": "uint256",
          "name": "id",
          "type": "uint256"
        }
      ],
      "stateMutability": "nonpayable",
      "type": "function"
    },
    {
      "inputs": [
        {
          "internalType": "address",
          "name": "cardOwner",
          "type": "address"
        }
      ],
      "name": "latestCardOfOwner",
      "outputs": [
        {
          "internalType": "address",
          "name": "",
          "type": "address"
        }
      ],
      "stateMutability": "view",
      "type": "function"
    },
    {
      "inputs": [],
      "name": "nextFungibleId",
      "outputs": [
        {
          "internalType": "uint256",
          "name": "",
          "type": "uint256"
        }
      ],
      "stateMutability": "view",
      "type": "function"
    },
    {
      "inputs": [],
      "name": "nextNftId",
      "outputs": [
        {
          "internalType": "uint256",
          "name": "",
          "type": "uint256"
        }
      ],
      "stateMutability": "view",
      "type": "function"
    },
    {
      "inputs": [],
      "name": "owner",
      "outputs": [
        {
          "internalType": "address",
          "name": "",
          "type": "address"
        }
      ],
      "stateMutability": "view",
      "type": "function"
    },
    {
      "inputs": [
        {
          "internalType": "address",
          "name": "cardAddr",
          "type": "address"
        },
        {
          "internalType": "address",
          "name": "userEOA",
          "type": "address"
        },
        {
          "internalType": "uint256",
          "name": "id",
          "type": "uint256"
        },
        {
          "internalType": "uint256",
          "name": "amount6",
          "type": "uint256"
        },
        {
          "internalType": "uint256",
          "name": "validAfter",
          "type": "uint256"
        },
        {
          "internalType": "uint256",
          "name": "validBefore",
          "type": "uint256"
        },
        {
          "internalType": "bytes32",
          "name": "nonce",
          "type": "bytes32"
        },
        {
          "internalType": "bytes",
          "name": "signature",
          "type": "bytes"
        }
      ],
      "name": "purchaseFaucetForUser",
      "outputs": [],
      "stateMutability": "nonpayable",
      "type": "function"
    },
    {
      "inputs": [
        {
          "internalType": "address",
          "name": "cardAddr",
          "type": "address"
        },
        {
          "internalType": "address",
          "name": "userEOA",
          "type": "address"
        },
        {
          "internalType": "uint256",
          "name": "tokenId",
          "type": "uint256"
        },
        {
          "internalType": "uint256",
          "name": "amount",
          "type": "uint256"
        },
        {
          "internalType": "uint256",
          "name": "validAfter",
          "type": "uint256"
        },
        {
          "internalType": "uint256",
          "name": "validBefore",
          "type": "uint256"
        },
        {
          "internalType": "bytes32",
          "name": "nonce",
          "type": "bytes32"
        },
        {
          "internalType": "bytes",
          "name": "signature",
          "type": "bytes"
        }
      ],
      "name": "purchaseIssuedNftForUser",
      "outputs": [],
      "stateMutability": "nonpayable",
      "type": "function"
    },
    {
      "inputs": [
        {
          "internalType": "uint8",
          "name": "cur",
          "type": "uint8"
        },
        {
          "internalType": "uint256",
          "name": "amount6",
          "type": "uint256"
        }
      ],
      "name": "quoteCurrencyAmountInUSDC6",
      "outputs": [
        {
          "internalType": "uint256",
          "name": "",
          "type": "uint256"
        }
      ],
      "stateMutability": "view",
      "type": "function"
    },
    {
      "inputs": [],
      "name": "quoteHelper",
      "outputs": [
        {
          "internalType": "address",
          "name": "",
          "type": "address"
        }
      ],
      "stateMutability": "view",
      "type": "function"
    },
    {
      "inputs": [
        {
          "internalType": "address",
          "name": "card",
          "type": "address"
        }
      ],
      "name": "quoteUnitPointInUSDC6",
      "outputs": [
        {
          "internalType": "uint256",
          "name": "",
          "type": "uint256"
        }
      ],
      "stateMutability": "view",
      "type": "function"
    },
    {
      "inputs": [
        {
          "internalType": "address",
          "name": "cardAddr",
          "type": "address"
        },
        {
          "internalType": "string[]",
          "name": "codes",
          "type": "string[]"
        },
        {
          "internalType": "address",
          "name": "userEOA",
          "type": "address"
        }
      ],
      "name": "redeemBatchForUser",
      "outputs": [],
      "stateMutability": "nonpayable",
      "type": "function"
    },
    {
      "inputs": [
        {
          "internalType": "address",
          "name": "cardAddr",
          "type": "address"
        },
        {
          "internalType": "string",
          "name": "code",
          "type": "string"
        },
        {
          "internalType": "address",
          "name": "userEOA",
          "type": "address"
        }
      ],
      "name": "redeemForUser",
      "outputs": [],
      "stateMutability": "nonpayable",
      "type": "function"
    },
    {
      "inputs": [
        {
          "internalType": "address",
          "name": "cardAddr",
          "type": "address"
        },
        {
          "internalType": "string",
          "name": "code",
          "type": "string"
        },
        {
          "internalType": "address",
          "name": "userEOA",
          "type": "address"
        }
      ],
      "name": "redeemPoolForUser",
      "outputs": [],
      "stateMutability": "nonpayable",
      "type": "function"
    },
    {
      "inputs": [
        {
          "internalType": "address",
          "name": "cardOwner",
          "type": "address"
        },
        {
          "internalType": "address",
          "name": "card",
          "type": "address"
        }
      ],
      "name": "registerExistingCard",
      "outputs": [],
      "stateMutability": "nonpayable",
      "type": "function"
    },
    {
      "inputs": [
        {
          "internalType": "address",
          "name": "f",
          "type": "address"
        }
      ],
      "name": "setAAFactory",
      "outputs": [],
      "stateMutability": "nonpayable",
      "type": "function"
    },
    {
      "inputs": [
        {
          "internalType": "address",
          "name": "d",
          "type": "address"
        }
      ],
      "name": "setDeployer",
      "outputs": [],
      "stateMutability": "nonpayable",
      "type": "function"
    },
    {
      "inputs": [
        {
          "internalType": "address",
          "name": "m",
          "type": "address"
        }
      ],
      "name": "setFaucetModule",
      "outputs": [],
      "stateMutability": "nonpayable",
      "type": "function"
    },
    {
      "inputs": [
        {
          "internalType": "address",
          "name": "m",
          "type": "address"
        }
      ],
      "name": "setGovernanceModule",
      "outputs": [],
      "stateMutability": "nonpayable",
      "type": "function"
    },
    {
      "inputs": [
        {
          "internalType": "address",
          "name": "m",
          "type": "address"
        }
      ],
      "name": "setIssuedNftModule",
      "outputs": [],
      "stateMutability": "nonpayable",
      "type": "function"
    },
    {
      "inputs": [
        {
          "internalType": "address",
          "name": "h",
          "type": "address"
        }
      ],
      "name": "setQuoteHelper",
      "outputs": [],
      "stateMutability": "nonpayable",
      "type": "function"
    },
    {
      "inputs": [
        {
          "internalType": "address",
          "name": "m",
          "type": "address"
        }
      ],
      "name": "setRedeemModule",
      "outputs": [],
      "stateMutability": "nonpayable",
      "type": "function"
    },
    {
      "inputs": [
        {
          "internalType": "address",
          "name": "",
          "type": "address"
        },
        {
          "internalType": "uint256",
          "name": "",
          "type": "uint256"
        }
      ],
      "name": "tokenIdIssued",
      "outputs": [
        {
          "internalType": "bool",
          "name": "",
          "type": "bool"
        }
      ],
      "stateMutability": "view",
      "type": "function"
    },
    {
      "inputs": [
        {
          "internalType": "address",
          "name": "newOwner",
          "type": "address"
        }
      ],
      "name": "transferOwner",
      "outputs": [],
      "stateMutability": "nonpayable",
      "type": "function"
    },
    {
      "inputs": [
        {
          "internalType": "bytes32",
          "name": "",
          "type": "bytes32"
        }
      ],
      "name": "usedAdminExecuteNonces",
      "outputs": [
        {
          "internalType": "bool",
          "name": "",
          "type": "bool"
        }
      ],
      "stateMutability": "view",
      "type": "function"
    },
    {
      "inputs": [
        {
          "internalType": "bytes32",
          "name": "",
          "type": "bytes32"
        }
      ],
      "name": "usedOwnerExecuteNonces",
      "outputs": [
        {
          "internalType": "bool",
          "name": "",
          "type": "bool"
        }
      ],
      "stateMutability": "view",
      "type": "function"
    }
  ],
  "bytecode": "0x60c080604052346102b95760c081613552803803809161001f82856102bd565b8339810103126102b957610032816102f4565b61003e602083016102f4565b61004a604084016102f4565b90610057606085016102f4565b9261007060a0610069608088016102f4565b96016102f4565b906001600160a01b0381161580156102a8575b8015610297575b8015610286575b8015610275575b8015610264575b610255576080525f80546001600160a01b03199081166001600160a01b039384169081178355825260016020819052604092839020805460ff1916821790556002805483169585169586179055600380548316861790556004805483168617905560058054831690951790945560068054821695841695909517909455600780548516958316959095179094556008805490931694169390931790556009919091556064600a5580519061015390826102bd565b601581527f4265616d696f5573657243617264466163746f72790000000000000000000000602090910152604080517fb77f4f874d464e6b89d928e63195f8e6a3efa6ad7d73e629a7033d854b4099b9916101ae90826102bd565b600181526020810190603160f81b82525190206040519060208201927f8b73c3c69bb8fe3d512ecc4cf759cc79239f7b179b0ffacaa9a75d522b39400f8452604083015260608201524660808201523060a082015260a0815261021260c0826102bd565b51902060a0526040516132499081610309823960805181818161054301528181611115015281816113ba0152612d6c015260a051818181610a3901526118060152f35b63a9b8048960e01b5f5260045ffd5b506001600160a01b0382161561009f565b506001600160a01b03861615610098565b506001600160a01b03851615610091565b506001600160a01b0384161561008a565b506001600160a01b03831615610083565b5f80fd5b601f909101601f19168101906001600160401b038211908210176102e057604052565b634e487b7160e01b5f52604160045260245ffd5b51906001600160a01b03821682036102b95756fe60806040526004361015610011575f80fd5b5f3560e01c80630562f3e7146103055780630895a8601461028d5780630c3c5d00146103005780630e1398b9146102fb5780630e8325131461022e5780631d4d9cf7146102f657806331a04f1d146102f15780633644e515146102ec57806339a8886d146102e75780633cc29bb3146102e25780633d8807f8146102dd578063409826d3146102d85780634a058fce146102d35780634f11ef12146102ce5780634fb2e45d146102c957806356bceaf6146102c45780636eb30f65146102bf57806371326e55146102ba5780637264becd146102b55780637b422f39146102b0578063803efb8a146102ab57806389a30271146102385780638da5cb5b146102a657806393f1da4f146102a1578063962147351461029c5780639688856f146102975780639858d8241461029257806398e1e9441461028d578063a2d5b9c814610288578063ac68fc0014610283578063b2592cf71461027e578063bdce71aa14610279578063c1cfc34a14610274578063c374a7a91461026f578063cc7dcbe81461026a578063ce85715d14610265578063d5f3948814610260578063d68a7bf71461025b578063dcc96a3414610256578063dd16dfdc14610251578063deaefff21461024c578063e83492d114610247578063e8e3511314610242578063ef7590951461023d578063fa56927414610238578063fa957c2e14610233578063fb3894d31461022e5763fd722edb14610229575f80fd5b6126ca565b610871565b61264b565b6113a5565b61228f565b61221b565b611f93565b611f14565b611e95565b611e16565b611c93565b611c3c565b611c14565b611a57565b6119cb565b6116d7565b61164d565b6115d2565b611595565b61151e565b61075f565b6114d3565b6114ac565b61142d565b611410565b6113e9565b611362565b6112ed565b610f9f565b610f20565b610ef9565b610ed1565b610e5a565b610d62565b610d3a565b610cf5565b610c6b565b610c0c565b610aa5565b610a22565b6109f3565b610899565b6107f2565b6107ca565b6103aa565b6001600160a01b0381160361031b57565b5f80fd5b9181601f8401121561031b578235916001600160401b03831161031b576020838186019501011161031b57565b9061010060031983011261031b576004356103668161030a565b916024356103738161030a565b9160443591606435916084359160a4359160c4359160e435906001600160401b03821161031b576103a69160040161031f565b9091565b3461031b576103b83661034c565b929060018060a09a97989a1b035f54163314801561071b575b156106e3576001600160a01b03881615610694576001600160a01b038616958615908115610711575b5061069457604051635378561960e01b81526020816004818a5afa9081156105fb575f916106f2575b50306001600160a01b03909116036106e35786156106d457604051638da5cb5b60e01b8152906020826004818a5afa9182156105fb575f926106a3575b506001600160a01b03821615610694576040516327d23eb360e21b8152600481018b905293610100856024818b5afa9485156105fb575f95610663575b506104b26104ae6080870151151590565b1590565b6106545760e0850180516001600160801b0316156106455761052d9561051260a06105096105008e6104fb6104ef6020985160018060801b031690565b6001600160801b031690565b61287c565b620f4240900490565b92015160ff1690565b60405163145ab73960e31b81529788928392600484016128bc565b0381305afa9485156105fb575f95610614575b507f00000000000000000000000000000000000000000000000000000000000000006001600160a01b031693843b1561031b575f9687938c9361059a936040519b8c9a8b998a9863cf09299560e01b8a5260048a016128f1565b03925af180156105fb57610600575b50803b1561031b576105d5935f809460405196879586948593636465c3a760e01b855260048501612936565b03925af180156105fb576105e557005b806105f35f6105f99361272e565b806107ad565b005b612766565b806105f35f61060e9361272e565b5f6105a9565b61063791955060203d60201161063e575b61062f818361272e565b8101906128ad565b935f610540565b503d610625565b63225426e360e01b5f5260045ffd5b63ab6138a560e01b5f5260045ffd5b6106869195506101003d811161068d575b61067e818361272e565b8101906127b1565b935f61049d565b503d610674565b63a9b8048960e01b5f5260045ffd5b6106c691925060203d6020116106cd575b6106be818361272e565b810190612751565b905f610460565b503d6106b4565b63201165f360e21b5f5260045ffd5b630fc5e1ab60e41b5f5260045ffd5b61070b915060203d6020116106cd576106be818361272e565b5f610423565b90503b155f6103fa565b50335f52600160205260ff60405f2054166103d1565b6001600160a01b03165f908152600e6020526040902090565b9060018060a01b03165f5260205260405f2090565b3461031b57604036600319011261031b5760043561077c8161030a565b6024359060018060a01b03165f52600b60205260405f20905f52602052602060ff60405f2054166040519015158152f35b5f91031261031b57565b6001600160a01b03909116815260200190565b3461031b575f36600319011261031b576002546040516001600160a01b039091168152602090f35b3461031b57602036600319011261031b5760043561080f8161030a565b5f546001600160a01b031633036106e3576001600160a01b0316801561069457600654816001600160a01b0382167feb7103e1b7fa12591abe0ba2fb5df1720e3786a45a1684846043c1b7dcfcb9c75f80a36001600160a01b03191617600655005b3461031b575f36600319011261031b576008546040516001600160a01b039091168152602090f35b3461031b57602036600319011261031b576004356108b68161030a565b6006546001600160a01b03918216916108dd916108d1911681565b6001600160a01b031690565b60405163e5a6b10f60e01b815290602082600481865afa9182156105fb575f926109c0575b5060208293610912600494612980565b604051634dda221560e01b815293849182905afa9081156105fb57610958936020935f936109a1575b5060405180958194829363577e933760e11b8452600484016128bc565b03915afa80156105fb5761097e915f91610982575b506040519081529081906020820190565b0390f35b61099b915060203d60201161063e5761062f818361272e565b5f61096d565b6109b9919350843d861161063e5761062f818361272e565b915f61093b565b600492506109e5602091823d84116109ec575b6109dd818361272e565b810190612954565b9250610902565b503d6109d3565b3461031b57602036600319011261031b576004355f52600f602052602060ff60405f2054166040519015158152f35b3461031b575f36600319011261031b5760206040517f00000000000000000000000000000000000000000000000000000000000000008152f35b90606060031983011261031b57600435610a758161030a565b91602435906001600160401b03821161031b57610a949160040161031f565b9091604435610aa28161030a565b90565b3461031b57610ab336610a5c565b5f549293926001600160a01b031633148015610bf6575b156106e3576001600160a01b038116938415610694576001600160a01b038416938415908115610bec575b5061069457604051635378561960e01b8152602081600481885afa9081156105fb575f91610bcd575b50306001600160a01b03909116036106e3578215610bbe57833b1561031b575f610b5e9260405180948192637cc37b3b60e11b835287866004850161298f565b038183885af19081156105fb575f5160206131f45f395f51905f5293610ba593610b8f93610baa575b5036916129d3565b8051602091820120604051908152918291820190565b0390a3005b806105f35f610bb89361272e565b5f610b87565b63411581df60e11b5f5260045ffd5b610be6915060203d6020116106cd576106be818361272e565b5f610b1e565b90503b155f610af5565b50335f52600160205260ff60405f205416610aca565b3461031b575f36600319011261031b576020600954604051908152f35b60206040818301928281528451809452019201905f5b818110610c4c5750505090565b82516001600160a01b0316845260209384019390920191600101610c3f565b3461031b57602036600319011261031b57600435610c888161030a565b60018060a01b03165f52600c60205260405f206040519081602082549182815201915f5260205f20905f5b818110610cd65761097e85610cca8187038261272e565b60405191829182610c29565b82546001600160a01b0316845260209093019260019283019201610cb3565b3461031b57602036600319011261031b57600435610d128161030a565b60018060a01b03165f52600e602052602060018060a01b0360405f2054161515604051908152f35b3461031b575f36600319011261031b576005546040516001600160a01b039091168152602090f35b3461031b57610d7036610a5c565b5f549293926001600160a01b031633148015610e44575b156106e3576001600160a01b038116938415610694576001600160a01b038416938415908115610e3a575b5061069457604051635378561960e01b8152602081600481885afa9081156105fb575f91610e1b575b50306001600160a01b03909116036106e3578215610bbe57833b1561031b575f610b5e92604051809481926371b8982f60e01b835287866004850161298f565b610e34915060203d6020116106cd576106be818361272e565b5f610ddb565b90503b155f610db2565b50335f52600160205260ff60405f205416610d87565b3461031b57602036600319011261031b57600435610e778161030a565b5f546001600160a01b03811691338390036106e3576001600160a01b03169182156106945782907fb532073b38c83145e3e5135377a08bf9aab55bc0fd7c1179cd4fb995d2a5159c5f80a36001600160a01b031916175f55005b3461031b575f36600319011261031b576004546040516001600160a01b039091168152602090f35b3461031b575f36600319011261031b5760206040515f5160206131b45f395f51905f528152f35b3461031b57602036600319011261031b57600435610f3d8161030a565b5f546001600160a01b031633036106e3576001600160a01b0316801561069457600454816001600160a01b0382167f604f85697fb330a944d96c7ccaa0cc8e84f90ae4e43e07c4fb7a17614c1aa2755f80a36001600160a01b03191617600455005b3461031b57610fad3661034c565b9795929190969360018060a01b035f5416331480156112d7575b156106e3576001600160a01b038516978815610694576001600160a01b0388169788159081156112cd575b5061069457604051635378561960e01b81526020816004818c5afa9081156105fb575f916112ae575b50306001600160a01b03909116036106e35786156106d457604051638da5cb5b60e01b8152936020856004818c5afa9485156105fb575f9561128d575b506001600160a01b0385169a8b1561069457604051633c703d4560e01b8152600481018890526020816024818e5afa9081156105fb575f9161126e575b508015610645576110a6908a61287c565b60405163e5a6b10f60e01b81529096906020816004818f5afa9788156105fb576110f9986020925f91611251575b506110de81612980565b60405163145ab73960e31b8152998a928392600484016128bc565b0381305afa9687156105fb575f97611230575b5086156106d4577f00000000000000000000000000000000000000000000000000000000000000006001600160a01b031691823b1561031b578961116e5f969287938a8c986040519b8c9a8b998a9863cf09299560e01b8a5260048a016128f1565b03925af180156105fb5761121c575b50853b1561031b575f8386956111a760405198899384936311d794fb60e21b855260048501612936565b0381838a5af19182156105fb577f46153b28e9a3688aede6f2c4c60c8d2cd1e2181b36e413211bf9134a7b1959969561120393611208575b50604051948594859094939260609260808301968352602083015260408201520152565b0390a4005b806105f35f6112169361272e565b5f6111df565b806105f35f61122a9361272e565b5f61117d565b61124a91975060203d60201161063e5761062f818361272e565b955f61110c565b6112689150833d85116109ec576109dd818361272e565b5f6110d4565b611287915060203d60201161063e5761062f818361272e565b5f611095565b6112a791955060203d6020116106cd576106be818361272e565b935f611058565b6112c7915060203d6020116106cd576106be818361272e565b5f61101b565b90503b155f610ff2565b50335f52600160205260ff60405f205416610fc7565b3461031b57606036600319011261031b5760043561130a8161030a565b6024356001600160401b03811161031b573660238201121561031b5760048101356001600160401b03811161031b573660248260051b8401011161031b576105f99260246044359361135b8561030a565b0190612a09565b3461031b57602036600319011261031b5760043561137f8161030a565b60018060a01b03165f52600e602052602060018060a01b0360405f205416604051908152f35b3461031b575f36600319011261031b576040517f00000000000000000000000000000000000000000000000000000000000000006001600160a01b03168152602090f35b3461031b575f36600319011261031b575f546040516001600160a01b039091168152602090f35b3461031b575f36600319011261031b576020600a54604051908152f35b3461031b57602036600319011261031b5760043561144a8161030a565b5f546001600160a01b031633036106e3576001600160a01b0316801561069457600754816001600160a01b0382167fb425bf30023a30c35ee17f3f416360da7ea96a46b589cfa6a14f39dc98a52bca5f80a36001600160a01b03191617600755005b3461031b575f36600319011261031b5760206040515f5160206131945f395f51905f528152f35b3461031b57602036600319011261031b576004356114f08161030a565b60018060a01b03165f526001602052602060ff60405f2054166040519015158152f35b60ff81160361031b57565b3461031b57604036600319011261031b57610958602060043561154081611513565b60065460405163145ab73960e31b81529384926001600160a01b03909216918391829160243590600484016128bc565b604090600319011261031b576004356115888161030a565b90602435610aa28161030a565b3461031b57602060ff6115c66115aa36611570565b6001600160a01b039091165f908152600d85526040902061074a565b54166040519015158152f35b3461031b5761010036600319011261031b576004356115f08161030a565b6024356115fc8161030a565b6064359160c435916044359060a4356084356001600160401b03861161031b5761097e9661163161163d97369060040161031f565b95909460e43597612c57565b6040519081529081906020820190565b3461031b575f36600319011261031b576003546040516001600160a01b039091168152602090f35b9060a060031983011261031b5760043561168e8161030a565b916024356001600160401b03811161031b57816116ad9160040161031f565b909290916044359160643591608435906001600160401b03821161031b576103a69160040161031f565b3461031b576116e536611675565b5f549496949293926001600160a01b0316331480156119b5575b156106e3576001600160a01b03851691821580156119ac575b610694578715610bbe5783421161198f57604051635378561960e01b8152602081600481875afa9081156105fb575f91611970575b50306001600160a01b03909116036106e357602060049360405194858092638da5cb5b60e01b82525afa9283156105fb5788948888925f96611935575b5091611842916118016117a761184a9695611850999a36916129d3565b8051602091820120604080515f5160206131b45f395f51905f529381019384526001600160a01b03909616908601526060850152608084019290925260a083018a90529091908160c081015b03601f19810183528261272e565b5190207f00000000000000000000000000000000000000000000000000000000000000006042916040519161190160f01b8352600283015260228201522090565b9236916129d3565b90612fcb565b6001600160a01b038281169082160361191457505060405161187b816117f360208201948686612f2b565b5190209261189b611894855f52600f60205260405f2090565b5460ff1690565b611905575f8094936118c66118b983965f52600f60205260405f2090565b805460ff19166001179055565b6118d560405180948193612f46565b03925af16118e1612f53565b90156118e957005b8051908161190057633655084960e01b5f5260045ffd5b602001fd5b637b7fc77160e01b5f5260045ffd5b636cf57d9160e11b5f526001600160a01b039081166004521660245260445ffd5b6118509650916118016117a761184a9695936119626118429660203d6020116106cd576106be818361272e565b99509395965050509161178a565b611989915060203d6020116106cd576106be818361272e565b5f61174d565b631f1183ed60e31b5f90815242600452602452604484905260645ffd5b50853b15611718565b50335f52600160205260ff60405f2054166116ff565b3461031b57602036600319011261031b576004356119e88161030a565b6001600160a01b03165f818152600c60205260409020549081611a1857505061097e5f5b604051918291826107b7565b5f52600c60205260405f205f198201918211611a525761097e91611a3b91612f82565b905460039190911b1c6001600160a01b0316611a0c565b61284e565b3461031b57611a6536611570565b5f546001600160a01b031633148015611bfe575b156106e3576001600160a01b0382169081158015611bed575b61069457611abc61189482611ab78660018060a01b03165f52600d60205260405f2090565b61074a565b611bde57604051635378561960e01b81526001600160a01b0382169390602081600481885afa9081156105fb575f91611bbf575b50306001600160a01b0390911603611b9157604051638da5cb5b60e01b8152602081600481885afa80156105fb5784915f91611ba0575b506001600160a01b031603611b9157611b4c82611b47611b6b9484612fe1565b610731565b80546001600160a01b0319166001600160a01b03909216919091179055565b7fc063fc300750e8c5649c6b3779f6c4b05e7b38b170ee5c4a4b222ede9a2880835f80a3005b633a307eb360e01b5f5260045ffd5b611bb9915060203d6020116106cd576106be818361272e565b5f611b27565b611bd8915060203d6020116106cd576106be818361272e565b5f611af0565b63d62a8c9560e01b5f5260045ffd5b506001600160a01b03811615611a92565b50335f52600160205260ff60405f205416611a79565b3461031b575f36600319011261031b576006546040516001600160a01b039091168152602090f35b3461031b575f36600319011261031b576007546040516001600160a01b039091168152602090f35b8015150361031b57565b604090600319011261031b57600435611c868161030a565b90602435610aa281611c64565b3461031b57611ca136611c6e565b5f546001600160a01b031633148015611e00575b156106e3576001600160a01b0382169182158015611df7575b61069457604051635378561960e01b8152602081600481875afa9081156105fb575f91611dd8575b50306001600160a01b03909116036106e35761097e927f4c1cbefbba6c448ac41213acf5c22774d44a2ba3b12119ff1f747a82cf887d8e611d8e611d6f94805f14611da157611d7c6118b9600a54611d55611d5082612f97565b600a55565b8098819860018060a01b03165f52600b60205260405f2090565b905f5260205260405f2090565b60405190151581529081906020820190565b0390a36040519081529081906020820190565b611d7c6118b9600954611dbb611db682612f97565b600955565b809881986001600160a01b03165f908152600b6020526040902090565b611df1915060203d6020116106cd576106be818361272e565b5f611cf6565b50803b15611cce565b50335f52600160205260ff60405f205416611cb5565b3461031b57602036600319011261031b57600435611e338161030a565b5f546001600160a01b031633036106e3576001600160a01b0316801561069457600354816001600160a01b0382167f5e8861c011b27f9301ab1873c22d74fa961d4262fad8e19488f049cd48d3aaba5f80a36001600160a01b03191617600355005b3461031b57602036600319011261031b57600435611eb28161030a565b5f546001600160a01b031633036106e3576001600160a01b0316801561069457600554816001600160a01b0382167fd6dc2c603206d37bd08c10999d5659ccd709ea565580b7d63cda117c96a90c2b5f80a36001600160a01b03191617600555005b3461031b57602036600319011261031b57600435611f318161030a565b5f546001600160a01b031633036106e3576001600160a01b0316801561069457600854816001600160a01b0382167fb30a75ccd0bb0742ffc18720f7e4013b83d98b9d9236dc4532955541a1df3a655f80a36001600160a01b03191617600855005b3461031b57611fa136611675565b60018060a09896959794981b035f541633148015612205575b156106e3576001600160a01b03851695861580156121fc575b610694578415610bbe578042116121e157604051635378561960e01b81526020816004818b5afa9081156105fb575f916121c2575b50306001600160a01b03909116036106e357612083926118428761184a936118018c6117f3612038368d8d6129d3565b60208151910120916040519485936020850197889094939260809260a08301965f5160206131945f395f51905f52845260018060a01b03166020840152604083015260608201520152565b92604051630935e01b60e21b8152602081806120a288600483016107b7565b0381895afa9081156105fb575f91612193575b501561218457604080516001600160a01b038084166020830190815290871692820192909252606081018890526120ef81608081016117f3565b51902092612108611894855f52601060205260405f2090565b611905575f8094936121266118b983965f52601060205260405f2090565b61213560405180948193612f46565b03925af1612141612f53565b90156118e957506040519283526001600160a01b0316917fc2d58ddd39bae8d891e64c790e06675be0c60c0c8abaaceac647c83798f19d71908060208101610ba5565b6363bc5ecb60e11b5f5260045ffd5b6121b5915060203d6020116121bb575b6121ad818361272e565b810190612fa5565b5f6120b5565b503d6121a3565b6121db915060203d6020116106cd576106be818361272e565b5f612008565b631f1183ed60e31b5f9081524260045260245260445260645ffd5b50853b15611fd3565b50335f52600160205260ff60405f205416611fba565b3461031b5761222936611c6e565b5f549091906001600160a01b031633036106e35760207f70f3008dcbe7ca1157c0809d9b79a5751736957d08f23274121a0903a38cfa999160018060a01b031692835f526001825260405f209015159060ff1981541660ff8316179055604051908152a2005b3461031b57608036600319011261031b576004356122ac8161030a565b602435906122b982611513565b6044356064356001600160401b03811161031b576122db90369060040161031f565b9260018060a01b035f541633148015612635575b156106e3576001600160a01b0381169182156106945784156126265760075461234895602092909161232b906108d1906001600160a01b031681565b905f6040518099819582946203ba1b60e51b845260048401612fba565b03925af19384156105fb575f94612605575b506001600160a01b03841692831580156125fc575b6125cf57604051635378561960e01b8152602081600481885afa9081156105fb575f916125b0575b50306001600160a01b039091160361258257604051638da5cb5b60e01b8152602081600481885afa80156105fb5784915f91612563575b506001600160a01b0316036125355760405163e5a6b10f60e01b8152602081600481885afa9081156105fb575f91612516575b5061240b81612980565b60ff8088169116036124e857604051634dda221560e01b8152602081600481885afa80156105fb5782915f916124c9575b500361249c5761097e9561247e83612475887fb6ce9f4a6c24844ee121b78004db1a1773ef64e1d804b875dd31413a87560cc096612fe1565b611b4c88610731565b61248d604051928392836128bc565b0390a3604051918291826107b7565b604051600481525f5160206131d45f395f51905f5290602090a16355c7c7ff60e01b5f526004805260245ffd5b6124e2915060203d60201161063e5761062f818361272e565b5f61243c565b604051600381525f5160206131d45f395f51905f5290602090a16355c7c7ff60e01b5f52600360045260245ffd5b61252f915060203d6020116109ec576109dd818361272e565b5f612401565b604051600281525f5160206131d45f395f51905f5290602090a16355c7c7ff60e01b5f52600260045260245ffd5b61257c915060203d6020116106cd576106be818361272e565b5f6123ce565b604051600181525f5160206131d45f395f51905f5290602090a16355c7c7ff60e01b5f52600160045260245ffd5b6125c9915060203d6020116106cd576106be818361272e565b5f612397565b6040515f81525f5160206131d45f395f51905f5290602090a16355c7c7ff60e01b5f90815260045260245ffd5b50843b1561236f565b61261f91945060203d6020116106cd576106be818361272e565b925f61235a565b633448691b60e11b5f5260045ffd5b50335f52600160205260ff60405f2054166122ef565b3461031b57602036600319011261031b576004356126688161030a565b5f546001600160a01b031633036106e3576001600160a01b0316801561069457600254816001600160a01b0382167f2744eeda02c397774dc1a9c7576a416e8d6ee463c636b09a5c558cd3263843ea5f80a36001600160a01b03191617600255005b3461031b57602036600319011261031b576004355f526010602052602060ff60405f2054166040519015158152f35b634e487b7160e01b5f52604160045260245ffd5b61010081019081106001600160401b0382111761272957604052565b6126f9565b601f909101601f19168101906001600160401b0382119082101761272957604052565b9081602091031261031b5751610aa28161030a565b6040513d5f823e3d90fd5b51906001600160401b038216820361031b57565b51906001600160801b038216820361031b57565b51906127a482611c64565b565b51906127a482611513565b908161010091031261031b5761284660e0604051926127cf8461270d565b6127d881612771565b84526127e660208201612771565b60208501526127f760408201612785565b604085015261280860608201612785565b606085015261281960808201612799565b608085015261282a60a082016127a6565b60a085015261283b60c082016127a6565b60c085015201612785565b60e082015290565b634e487b7160e01b5f52601160045260245ffd5b90620f4240820291808304620f42401490151715611a5257565b81810292918115918404141715611a5257565b8115612899570490565b634e487b7160e01b5f52601260045260245ffd5b9081602091031261031b575190565b6020909392919360ff60408201951681520152565b908060209392818452848401375f828201840152601f01601f1916010190565b93909260e09592610aa299979460018060a01b0316865260018060a01b0316602086015260408501526060840152608083015260a08201528160c082015201916128d1565b604091949392606082019560018060a01b0316825260208201520152565b9081602091031261031b5751600d81101561031b5790565b634e487b7160e01b5f52602160045260245ffd5b600d111561298a57565b61296c565b916020916129a8919594956040855260408501916128d1565b6001600160a01b03909416910152565b6001600160401b03811161272957601f01601f191660200190565b9291926129df826129b8565b916129ed604051938461272e565b82948184528183011161031b578281602093845f960137010152565b90929160018060a01b035f541633148015612b46575b156106e3576001600160a01b038316928315610694576001600160a01b038316928315908115612b3c575b5061069457604051635378561960e01b8152602081600481875afa9081156105fb575f91612b1d575b50306001600160a01b03909116036106e3578115610bbe57823b1561031b575f612ab3916040518093819263523c822360e11b8352868a60048501612b5c565b038183875af180156105fb57612b09575b505f5b818110612ad5575050505050565b8084845f5160206131f45f395f51905f52612b00610b8f612af9600197898d612c11565b36916129d3565b0390a301612ac7565b806105f35f612b179361272e565b5f612ac4565b612b36915060203d6020116106cd576106be818361272e565b5f612a73565b90503b155f612a4a565b50335f52600160205260ff60405f205416612a1f565b93929190816040860160408752526060850160608360051b87010192825f90601e19813603015b838310612ba6575050505050509060206127a49294019060018060a01b03169052565b909192939495605f198a820301865286358281121561031b578301602081019190356001600160401b03811161031b57803603831361031b57612bef60209283926001956128d1565b980196019493019190612b83565b634e487b7160e01b5f52603260045260245ffd5b9190811015612c525760051b81013590601e198136030182121561031b5701803591906001600160401b03831161031b57602001823603811361031b579190565b612bfd565b9694939592909260018060a01b035f541633148015612f15575b156106e3576001600160a01b038416968715610694576001600160a01b0389169687158015612f0c575b61069457604051635378561960e01b81526020816004818c5afa9081156105fb575f91612eed575b50306001600160a01b03909116036106e35784156106d457604051638da5cb5b60e01b81526020816004818c5afa9081156105fb575f91612ece575b506001600160a01b0381169a8b15610694576020612d319160405180938192631d4d9cf760e01b8352600483016107b7565b0381305afa9081156105fb575f91612eaf575b508015612ea057612d5d90612d5888612862565b61288f565b9b8c15612e91578c10612e82577f00000000000000000000000000000000000000000000000000000000000000006001600160a01b031691823b1561031b5787612dc55f969287938c8b986040519b8c9a8b998a9863cf09299560e01b8a5260048a016128f1565b03925af180156105fb57612e6e575b50833b1561031b575f87612dfd93604051948592839263af7ffa2b60e01b845260048401612f2b565b038183885af180156105fb577f246821f0caf9ce5a9ae8fb3bd7097a6d47299d00676d0ec0b40b429694a8684d938893612e5492612e5a575b50604051938493846040919493926060820195825260208201520152565b0390a490565b806105f35f612e689361272e565b5f612e36565b806105f35f612e7c9361272e565b5f612dd4565b63c02e577360e01b5f5260045ffd5b6313f3da3f60e21b5f5260045ffd5b6376024b7160e01b5f5260045ffd5b612ec8915060203d60201161063e5761062f818361272e565b5f612d44565b612ee7915060203d6020116106cd576106be818361272e565b5f612cff565b612f06915060203d6020116106cd576106be818361272e565b5f612cc3565b50893b15612c9b565b50335f52600160205260ff60405f205416612c71565b6001600160a01b039091168152602081019190915260400190565b908092918237015f815290565b3d15612f7d573d90612f64826129b8565b91612f72604051938461272e565b82523d5f602084013e565b606090565b8054821015612c52575f5260205f2001905f90565b5f198114611a525760010190565b9081602091031261031b5751610aa281611c64565b916020610aa29381815201916128d1565b610aa291612fd89161305b565b9092919261309f565b6001600160a01b03165f818152600d6020526040902061300290839061074a565b805460ff191660011790555f908152600c602052604090208054600160401b8110156127295761303791600182018155612f82565b81546001600160a01b0393841660039290921b91821b9390911b1916919091179055565b815191906041830361308b576130849250602082015190606060408401519301515f1a9061311b565b9192909190565b50505f9160029190565b6004111561298a57565b6130a881613095565b806130b1575050565b6130ba81613095565b600181036130d15763f645eedf60e01b5f5260045ffd5b6130da81613095565b600281036130f5575063fce698f760e01b5f5260045260245ffd5b80613101600392613095565b146131095750565b6335e2f38360e21b5f5260045260245ffd5b91906fa2a8918ca85bafe22016d0b997e4df60600160ff1b038411613188579160209360809260ff5f9560405194855216868401526040830152606082015282805260015afa156105fb575f516001600160a01b0381161561317e57905f905f90565b505f906001905f90565b5050505f916003919056fe8b5e44529430631511cdb2103b51a2b17522f3ccef30b4cecb8b600e589b21845d2010d98a8af54e10756d0f1f88c21936f3cee3282ba1a12e8b6ea9dc3cd00b03b08423472f7ab3868687f6f058518938a70d81f39d56bbef07d72ad5207adc6fda4e9204adb930edd263bf167f0f95464e9f84006d5c89c84ed55f50528b33a26469706673582212209b3a5afe805d5343dbd32408affc4da0d8c72011efbb054ca33b0657d90116ae64736f6c63430008210033",
  "linkReferences": {},
  "deployedLinkReferences": {},
  "immutableReferences": {
    "7991": [
      {
        "length": 32,
        "start": 1347
      },
      {
        "length": 32,
        "start": 4373
      },
      {
        "length": 32,
        "start": 5050
      },
      {
        "length": 32,
        "start": 11628
      }
    ],
    "9803": [
      {
        "length": 32,
        "start": 2617
      },
      {
        "length": 32,
        "start": 6150
      }
    ]
  },
  "inputSourceName": "project/src/BeamioUserCard/BeamioUserCardFactoryPaymasterV07.sol",
  "buildInfoId": "solc-0_8_33-40f5a0326ef38523cae59c79773c3b2b1f6b39fb"
}