{
  "_format": "hh3-artifact-1",
  "contractName": "BeamioUserCard",
  "sourceName": "src/BeamioUserCard/BeamioUserCard.sol",
  "abi": [
    {
      "inputs": [
        {
          "internalType": "string",
          "name": "uri_",
          "type": "string"
        },
        {
          "internalType": "enum BeamioCurrency.CurrencyType",
          "name": "currency_",
          "type": "uint8"
        },
        {
          "internalType": "uint256",
          "name": "pointsUnitPriceInCurrencyE6_",
          "type": "uint256"
        },
        {
          "internalType": "address",
          "name": "initialOwner",
          "type": "address"
        },
        {
          "internalType": "address",
          "name": "gateway_",
          "type": "address"
        },
        {
          "internalType": "uint8",
          "name": "upgradeType_",
          "type": "uint8"
        },
        {
          "internalType": "bool",
          "name": "initialTransferWhitelistEnabled",
          "type": "bool"
        }
      ],
      "stateMutability": "nonpayable",
      "type": "constructor"
    },
    {
      "inputs": [],
      "name": "BM_CallFailed",
      "type": "error"
    },
    {
      "inputs": [],
      "name": "BM_NotAuthorized",
      "type": "error"
    },
    {
      "inputs": [],
      "name": "BM_ZeroAddress",
      "type": "error"
    },
    {
      "inputs": [
        {
          "internalType": "address",
          "name": "sender",
          "type": "address"
        },
        {
          "internalType": "uint256",
          "name": "balance",
          "type": "uint256"
        },
        {
          "internalType": "uint256",
          "name": "needed",
          "type": "uint256"
        },
        {
          "internalType": "uint256",
          "name": "tokenId",
          "type": "uint256"
        }
      ],
      "name": "ERC1155InsufficientBalance",
      "type": "error"
    },
    {
      "inputs": [
        {
          "internalType": "address",
          "name": "approver",
          "type": "address"
        }
      ],
      "name": "ERC1155InvalidApprover",
      "type": "error"
    },
    {
      "inputs": [
        {
          "internalType": "uint256",
          "name": "idsLength",
          "type": "uint256"
        },
        {
          "internalType": "uint256",
          "name": "valuesLength",
          "type": "uint256"
        }
      ],
      "name": "ERC1155InvalidArrayLength",
      "type": "error"
    },
    {
      "inputs": [
        {
          "internalType": "address",
          "name": "operator",
          "type": "address"
        }
      ],
      "name": "ERC1155InvalidOperator",
      "type": "error"
    },
    {
      "inputs": [
        {
          "internalType": "address",
          "name": "receiver",
          "type": "address"
        }
      ],
      "name": "ERC1155InvalidReceiver",
      "type": "error"
    },
    {
      "inputs": [
        {
          "internalType": "address",
          "name": "sender",
          "type": "address"
        }
      ],
      "name": "ERC1155InvalidSender",
      "type": "error"
    },
    {
      "inputs": [
        {
          "internalType": "address",
          "name": "operator",
          "type": "address"
        },
        {
          "internalType": "address",
          "name": "owner",
          "type": "address"
        }
      ],
      "name": "ERC1155MissingApprovalForAll",
      "type": "error"
    },
    {
      "inputs": [
        {
          "internalType": "address",
          "name": "owner",
          "type": "address"
        }
      ],
      "name": "OwnableInvalidOwner",
      "type": "error"
    },
    {
      "inputs": [
        {
          "internalType": "address",
          "name": "account",
          "type": "address"
        }
      ],
      "name": "OwnableUnauthorizedAccount",
      "type": "error"
    },
    {
      "inputs": [],
      "name": "ReentrancyGuardReentrantCall",
      "type": "error"
    },
    {
      "inputs": [],
      "name": "UC_AdminManagerRequiresOwnerSignature",
      "type": "error"
    },
    {
      "inputs": [],
      "name": "UC_AmountZero",
      "type": "error"
    },
    {
      "inputs": [],
      "name": "UC_BelowMinThreshold",
      "type": "error"
    },
    {
      "inputs": [],
      "name": "UC_GlobalMisconfigured",
      "type": "error"
    },
    {
      "inputs": [
        {
          "internalType": "address",
          "name": "fromAccount",
          "type": "address"
        },
        {
          "internalType": "uint256",
          "name": "id",
          "type": "uint256"
        },
        {
          "internalType": "uint256",
          "name": "have",
          "type": "uint256"
        },
        {
          "internalType": "uint256",
          "name": "need",
          "type": "uint256"
        }
      ],
      "name": "UC_InsufficientBalance",
      "type": "error"
    },
    {
      "inputs": [],
      "name": "UC_InvalidProposal",
      "type": "error"
    },
    {
      "inputs": [],
      "name": "UC_InvalidUpgradeType",
      "type": "error"
    },
    {
      "inputs": [
        {
          "internalType": "uint8",
          "name": "kind",
          "type": "uint8"
        }
      ],
      "name": "UC_ModuleZero",
      "type": "error"
    },
    {
      "inputs": [],
      "name": "UC_NoBeamioAccount",
      "type": "error"
    },
    {
      "inputs": [],
      "name": "UC_NotAdmin",
      "type": "error"
    },
    {
      "inputs": [],
      "name": "UC_OpenMintExecutorUnauthorized",
      "type": "error"
    },
    {
      "inputs": [],
      "name": "UC_PriceZero",
      "type": "error"
    },
    {
      "inputs": [
        {
          "internalType": "bytes",
          "name": "data",
          "type": "bytes"
        }
      ],
      "name": "UC_RedeemDelegateFailed",
      "type": "error"
    },
    {
      "inputs": [],
      "name": "UC_TierLenMismatch",
      "type": "error"
    },
    {
      "inputs": [],
      "name": "UC_TierMinZero",
      "type": "error"
    },
    {
      "inputs": [],
      "name": "UC_UnauthorizedGateway",
      "type": "error"
    },
    {
      "anonymous": false,
      "inputs": [
        {
          "indexed": true,
          "internalType": "address",
          "name": "beneficiaryAccount",
          "type": "address"
        },
        {
          "indexed": true,
          "internalType": "uint256",
          "name": "tokenId",
          "type": "uint256"
        },
        {
          "indexed": false,
          "internalType": "uint256",
          "name": "attr",
          "type": "uint256"
        },
        {
          "indexed": false,
          "internalType": "uint256",
          "name": "expiry",
          "type": "uint256"
        }
      ],
      "name": "AdminCardMinted",
      "type": "event"
    },
    {
      "anonymous": false,
      "inputs": [
        {
          "indexed": true,
          "internalType": "address",
          "name": "account",
          "type": "address"
        },
        {
          "indexed": false,
          "internalType": "uint256",
          "name": "amount",
          "type": "uint256"
        }
      ],
      "name": "AdminPointsBurned",
      "type": "event"
    },
    {
      "anonymous": false,
      "inputs": [
        {
          "indexed": true,
          "internalType": "address",
          "name": "beneficiaryAccount",
          "type": "address"
        },
        {
          "indexed": false,
          "internalType": "uint256",
          "name": "points6",
          "type": "uint256"
        }
      ],
      "name": "AdminPointsMinted",
      "type": "event"
    },
    {
      "anonymous": false,
      "inputs": [
        {
          "indexed": true,
          "internalType": "address",
          "name": "account",
          "type": "address"
        },
        {
          "indexed": true,
          "internalType": "address",
          "name": "operator",
          "type": "address"
        },
        {
          "indexed": false,
          "internalType": "bool",
          "name": "approved",
          "type": "bool"
        }
      ],
      "name": "ApprovalForAll",
      "type": "event"
    },
    {
      "anonymous": false,
      "inputs": [
        {
          "indexed": false,
          "internalType": "uint256",
          "name": "attr",
          "type": "uint256"
        }
      ],
      "name": "DefaultAttrUpdated",
      "type": "event"
    },
    {
      "anonymous": false,
      "inputs": [
        {
          "indexed": false,
          "internalType": "uint256",
          "name": "oldSecs",
          "type": "uint256"
        },
        {
          "indexed": false,
          "internalType": "uint256",
          "name": "newSecs",
          "type": "uint256"
        }
      ],
      "name": "ExpirySecondsUpdated",
      "type": "event"
    },
    {
      "anonymous": false,
      "inputs": [
        {
          "indexed": true,
          "internalType": "uint256",
          "name": "id",
          "type": "uint256"
        },
        {
          "indexed": true,
          "internalType": "address",
          "name": "userEOA",
          "type": "address"
        },
        {
          "indexed": true,
          "internalType": "address",
          "name": "acct",
          "type": "address"
        },
        {
          "indexed": false,
          "internalType": "uint256",
          "name": "amount",
          "type": "uint256"
        },
        {
          "indexed": false,
          "internalType": "uint256",
          "name": "claimedAfter",
          "type": "uint256"
        }
      ],
      "name": "FaucetClaimed",
      "type": "event"
    },
    {
      "anonymous": false,
      "inputs": [
        {
          "indexed": true,
          "internalType": "uint256",
          "name": "id",
          "type": "uint256"
        },
        {
          "components": [
            {
              "internalType": "uint64",
              "name": "validUntil",
              "type": "uint64"
            },
            {
              "internalType": "uint64",
              "name": "perClaimMax",
              "type": "uint64"
            },
            {
              "internalType": "uint128",
              "name": "maxPerUser",
              "type": "uint128"
            },
            {
              "internalType": "uint128",
              "name": "maxGlobal",
              "type": "uint128"
            },
            {
              "internalType": "bool",
              "name": "enabled",
              "type": "bool"
            },
            {
              "internalType": "uint8",
              "name": "currency",
              "type": "uint8"
            },
            {
              "internalType": "uint8",
              "name": "decimals",
              "type": "uint8"
            },
            {
              "internalType": "uint128",
              "name": "priceInCurrency6",
              "type": "uint128"
            }
          ],
          "indexed": false,
          "internalType": "struct FaucetStorage.FaucetConfig",
          "name": "cfg",
          "type": "tuple"
        }
      ],
      "name": "FaucetConfigUpdated",
      "type": "event"
    },
    {
      "anonymous": false,
      "inputs": [
        {
          "indexed": true,
          "internalType": "uint256",
          "name": "tokenId",
          "type": "uint256"
        },
        {
          "indexed": false,
          "internalType": "bytes32",
          "name": "title",
          "type": "bytes32"
        },
        {
          "indexed": false,
          "internalType": "uint64",
          "name": "validAfter",
          "type": "uint64"
        },
        {
          "indexed": false,
          "internalType": "uint64",
          "name": "validBefore",
          "type": "uint64"
        },
        {
          "indexed": false,
          "internalType": "uint256",
          "name": "maxSupply",
          "type": "uint256"
        },
        {
          "indexed": false,
          "internalType": "uint256",
          "name": "priceInCurrency6",
          "type": "uint256"
        },
        {
          "indexed": false,
          "internalType": "bytes32",
          "name": "sharedMetadataHash",
          "type": "bytes32"
        }
      ],
      "name": "IssuedNftCreated",
      "type": "event"
    },
    {
      "anonymous": false,
      "inputs": [
        {
          "indexed": true,
          "internalType": "uint256",
          "name": "tokenId",
          "type": "uint256"
        },
        {
          "indexed": true,
          "internalType": "address",
          "name": "recipient",
          "type": "address"
        },
        {
          "indexed": false,
          "internalType": "uint256",
          "name": "amount",
          "type": "uint256"
        }
      ],
      "name": "IssuedNftMinted",
      "type": "event"
    },
    {
      "anonymous": false,
      "inputs": [
        {
          "indexed": true,
          "internalType": "address",
          "name": "user",
          "type": "address"
        },
        {
          "indexed": true,
          "internalType": "uint256",
          "name": "tokenId",
          "type": "uint256"
        },
        {
          "indexed": false,
          "internalType": "uint256",
          "name": "tierIndexOrMax",
          "type": "uint256"
        },
        {
          "indexed": false,
          "internalType": "uint256",
          "name": "minUsdc6",
          "type": "uint256"
        },
        {
          "indexed": false,
          "internalType": "uint256",
          "name": "expiry",
          "type": "uint256"
        }
      ],
      "name": "MemberNFTIssued",
      "type": "event"
    },
    {
      "anonymous": false,
      "inputs": [
        {
          "indexed": true,
          "internalType": "address",
          "name": "user",
          "type": "address"
        },
        {
          "indexed": true,
          "internalType": "uint256",
          "name": "oldActiveTokenId",
          "type": "uint256"
        },
        {
          "indexed": true,
          "internalType": "uint256",
          "name": "newTokenId",
          "type": "uint256"
        },
        {
          "indexed": false,
          "internalType": "uint256",
          "name": "oldTierIndexOrMax",
          "type": "uint256"
        },
        {
          "indexed": false,
          "internalType": "uint256",
          "name": "newTierIndex",
          "type": "uint256"
        },
        {
          "indexed": false,
          "internalType": "uint256",
          "name": "newExpiry",
          "type": "uint256"
        }
      ],
      "name": "MemberNFTUpgraded",
      "type": "event"
    },
    {
      "anonymous": false,
      "inputs": [
        {
          "indexed": true,
          "internalType": "address",
          "name": "previousOwner",
          "type": "address"
        },
        {
          "indexed": true,
          "internalType": "address",
          "name": "newOwner",
          "type": "address"
        }
      ],
      "name": "OwnershipTransferred",
      "type": "event"
    },
    {
      "anonymous": false,
      "inputs": [
        {
          "indexed": true,
          "internalType": "address",
          "name": "userEOA",
          "type": "address"
        },
        {
          "indexed": true,
          "internalType": "address",
          "name": "acct",
          "type": "address"
        },
        {
          "indexed": false,
          "internalType": "uint256",
          "name": "points6",
          "type": "uint256"
        }
      ],
      "name": "PointsMintedByGateway",
      "type": "event"
    },
    {
      "anonymous": false,
      "inputs": [
        {
          "indexed": true,
          "internalType": "address",
          "name": "payerEOA",
          "type": "address"
        },
        {
          "indexed": true,
          "internalType": "address",
          "name": "beneficiaryAccount",
          "type": "address"
        },
        {
          "indexed": true,
          "internalType": "address",
          "name": "usdc",
          "type": "address"
        },
        {
          "indexed": false,
          "internalType": "uint256",
          "name": "usdcIn6",
          "type": "uint256"
        },
        {
          "indexed": false,
          "internalType": "uint256",
          "name": "pointsMinted6",
          "type": "uint256"
        },
        {
          "indexed": false,
          "internalType": "uint256",
          "name": "unitPointPriceUsdc6",
          "type": "uint256"
        },
        {
          "indexed": false,
          "internalType": "bytes32",
          "name": "nonce",
          "type": "bytes32"
        }
      ],
      "name": "PointsPurchasedWithUSDC",
      "type": "event"
    },
    {
      "anonymous": false,
      "inputs": [
        {
          "indexed": false,
          "internalType": "uint256",
          "name": "priceInCurrencyE6",
          "type": "uint256"
        }
      ],
      "name": "PointsUnitPriceUpdated",
      "type": "event"
    },
    {
      "anonymous": false,
      "inputs": [
        {
          "indexed": true,
          "internalType": "uint256",
          "name": "id",
          "type": "uint256"
        },
        {
          "indexed": true,
          "internalType": "address",
          "name": "admin",
          "type": "address"
        }
      ],
      "name": "ProposalApproved",
      "type": "event"
    },
    {
      "anonymous": false,
      "inputs": [
        {
          "indexed": true,
          "internalType": "uint256",
          "name": "id",
          "type": "uint256"
        },
        {
          "indexed": true,
          "internalType": "bytes4",
          "name": "selector",
          "type": "bytes4"
        },
        {
          "indexed": true,
          "internalType": "address",
          "name": "proposer",
          "type": "address"
        }
      ],
      "name": "ProposalCreated",
      "type": "event"
    },
    {
      "anonymous": false,
      "inputs": [
        {
          "indexed": true,
          "internalType": "uint256",
          "name": "id",
          "type": "uint256"
        }
      ],
      "name": "ProposalExecuted",
      "type": "event"
    },
    {
      "anonymous": false,
      "inputs": [
        {
          "indexed": true,
          "internalType": "bytes32",
          "name": "hash",
          "type": "bytes32"
        }
      ],
      "name": "RedeemCancelled",
      "type": "event"
    },
    {
      "anonymous": false,
      "inputs": [
        {
          "indexed": true,
          "internalType": "bytes32",
          "name": "hash",
          "type": "bytes32"
        },
        {
          "indexed": false,
          "internalType": "uint256",
          "name": "points6",
          "type": "uint256"
        },
        {
          "indexed": false,
          "internalType": "uint256",
          "name": "attr",
          "type": "uint256"
        }
      ],
      "name": "RedeemCreated",
      "type": "event"
    },
    {
      "anonymous": false,
      "inputs": [
        {
          "indexed": false,
          "internalType": "uint256",
          "name": "index",
          "type": "uint256"
        },
        {
          "indexed": false,
          "internalType": "uint256",
          "name": "minUsdc6",
          "type": "uint256"
        },
        {
          "indexed": false,
          "internalType": "uint256",
          "name": "attr",
          "type": "uint256"
        },
        {
          "indexed": false,
          "internalType": "uint256",
          "name": "tierExpirySeconds",
          "type": "uint256"
        }
      ],
      "name": "TierAppended",
      "type": "event"
    },
    {
      "anonymous": false,
      "inputs": [
        {
          "indexed": false,
          "internalType": "uint256",
          "name": "count",
          "type": "uint256"
        }
      ],
      "name": "TiersUpdated",
      "type": "event"
    },
    {
      "anonymous": false,
      "inputs": [
        {
          "indexed": true,
          "internalType": "address",
          "name": "operator",
          "type": "address"
        },
        {
          "indexed": true,
          "internalType": "address",
          "name": "from",
          "type": "address"
        },
        {
          "indexed": true,
          "internalType": "address",
          "name": "to",
          "type": "address"
        },
        {
          "indexed": false,
          "internalType": "uint256[]",
          "name": "ids",
          "type": "uint256[]"
        },
        {
          "indexed": false,
          "internalType": "uint256[]",
          "name": "values",
          "type": "uint256[]"
        }
      ],
      "name": "TransferBatch",
      "type": "event"
    },
    {
      "anonymous": false,
      "inputs": [
        {
          "indexed": true,
          "internalType": "address",
          "name": "operator",
          "type": "address"
        },
        {
          "indexed": true,
          "internalType": "address",
          "name": "from",
          "type": "address"
        },
        {
          "indexed": true,
          "internalType": "address",
          "name": "to",
          "type": "address"
        },
        {
          "indexed": false,
          "internalType": "uint256",
          "name": "id",
          "type": "uint256"
        },
        {
          "indexed": false,
          "internalType": "uint256",
          "name": "value",
          "type": "uint256"
        }
      ],
      "name": "TransferSingle",
      "type": "event"
    },
    {
      "anonymous": false,
      "inputs": [
        {
          "indexed": false,
          "internalType": "bool",
          "name": "enabled",
          "type": "bool"
        }
      ],
      "name": "TransferWhitelistEnabledUpdated",
      "type": "event"
    },
    {
      "anonymous": false,
      "inputs": [
        {
          "indexed": false,
          "internalType": "string",
          "name": "value",
          "type": "string"
        },
        {
          "indexed": true,
          "internalType": "uint256",
          "name": "id",
          "type": "uint256"
        }
      ],
      "name": "URI",
      "type": "event"
    },
    {
      "stateMutability": "nonpayable",
      "type": "fallback"
    },
    {
      "inputs": [],
      "name": "ISSUED_NFT_START_ID",
      "outputs": [
        {
          "internalType": "uint256",
          "name": "",
          "type": "uint256"
        }
      ],
      "stateMutability": "view",
      "type": "function"
    },
    {
      "inputs": [],
      "name": "NFT_START_ID",
      "outputs": [
        {
          "internalType": "uint256",
          "name": "",
          "type": "uint256"
        }
      ],
      "stateMutability": "view",
      "type": "function"
    },
    {
      "inputs": [],
      "name": "POINTS_DECIMALS",
      "outputs": [
        {
          "internalType": "uint8",
          "name": "",
          "type": "uint8"
        }
      ],
      "stateMutability": "view",
      "type": "function"
    },
    {
      "inputs": [],
      "name": "POINTS_ID",
      "outputs": [
        {
          "internalType": "uint256",
          "name": "",
          "type": "uint256"
        }
      ],
      "stateMutability": "view",
      "type": "function"
    },
    {
      "inputs": [],
      "name": "VERSION",
      "outputs": [
        {
          "internalType": "uint256",
          "name": "",
          "type": "uint256"
        }
      ],
      "stateMutability": "view",
      "type": "function"
    },
    {
      "inputs": [
        {
          "internalType": "address",
          "name": "",
          "type": "address"
        },
        {
          "internalType": "uint256",
          "name": "",
          "type": "uint256"
        }
      ],
      "name": "_userOwnedNfts",
      "outputs": [
        {
          "internalType": "uint256",
          "name": "",
          "type": "uint256"
        }
      ],
      "stateMutability": "view",
      "type": "function"
    },
    {
      "inputs": [
        {
          "internalType": "uint256",
          "name": "",
          "type": "uint256"
        }
      ],
      "name": "activeMembershipCountByTierIndex",
      "outputs": [
        {
          "internalType": "uint256",
          "name": "",
          "type": "uint256"
        }
      ],
      "stateMutability": "view",
      "type": "function"
    },
    {
      "inputs": [
        {
          "internalType": "uint256",
          "name": "",
          "type": "uint256"
        }
      ],
      "name": "activeMembershipCountByTokenId",
      "outputs": [
        {
          "internalType": "uint256",
          "name": "",
          "type": "uint256"
        }
      ],
      "stateMutability": "view",
      "type": "function"
    },
    {
      "inputs": [
        {
          "internalType": "address",
          "name": "",
          "type": "address"
        }
      ],
      "name": "activeMembershipId",
      "outputs": [
        {
          "internalType": "uint256",
          "name": "",
          "type": "uint256"
        }
      ],
      "stateMutability": "view",
      "type": "function"
    },
    {
      "inputs": [
        {
          "internalType": "address",
          "name": "",
          "type": "address"
        }
      ],
      "name": "activeTierIndexOrMax",
      "outputs": [
        {
          "internalType": "uint256",
          "name": "",
          "type": "uint256"
        }
      ],
      "stateMutability": "view",
      "type": "function"
    },
    {
      "inputs": [
        {
          "internalType": "address",
          "name": "a",
          "type": "address"
        }
      ],
      "name": "adminParent",
      "outputs": [
        {
          "internalType": "address",
          "name": "",
          "type": "address"
        }
      ],
      "stateMutability": "view",
      "type": "function"
    },
    {
      "inputs": [
        {
          "internalType": "uint256",
          "name": "minUsdc6",
          "type": "uint256"
        },
        {
          "internalType": "uint256",
          "name": "attr",
          "type": "uint256"
        },
        {
          "internalType": "uint256",
          "name": "tierExpirySeconds",
          "type": "uint256"
        }
      ],
      "name": "appendTier",
      "outputs": [],
      "stateMutability": "nonpayable",
      "type": "function"
    },
    {
      "inputs": [
        {
          "internalType": "uint256",
          "name": "id",
          "type": "uint256"
        }
      ],
      "name": "approveProposal",
      "outputs": [],
      "stateMutability": "nonpayable",
      "type": "function"
    },
    {
      "inputs": [
        {
          "internalType": "uint256",
          "name": "id",
          "type": "uint256"
        },
        {
          "internalType": "address",
          "name": "adminSigner",
          "type": "address"
        }
      ],
      "name": "approveProposalByGateway",
      "outputs": [],
      "stateMutability": "nonpayable",
      "type": "function"
    },
    {
      "inputs": [
        {
          "internalType": "uint256",
          "name": "",
          "type": "uint256"
        }
      ],
      "name": "attributes",
      "outputs": [
        {
          "internalType": "uint256",
          "name": "",
          "type": "uint256"
        }
      ],
      "stateMutability": "view",
      "type": "function"
    },
    {
      "inputs": [
        {
          "internalType": "address",
          "name": "account",
          "type": "address"
        },
        {
          "internalType": "uint256",
          "name": "id",
          "type": "uint256"
        }
      ],
      "name": "balanceOf",
      "outputs": [
        {
          "internalType": "uint256",
          "name": "",
          "type": "uint256"
        }
      ],
      "stateMutability": "view",
      "type": "function"
    },
    {
      "inputs": [
        {
          "internalType": "address[]",
          "name": "accounts",
          "type": "address[]"
        },
        {
          "internalType": "uint256[]",
          "name": "ids",
          "type": "uint256[]"
        }
      ],
      "name": "balanceOfBatch",
      "outputs": [
        {
          "internalType": "uint256[]",
          "name": "",
          "type": "uint256[]"
        }
      ],
      "stateMutability": "view",
      "type": "function"
    },
    {
      "inputs": [
        {
          "internalType": "address",
          "name": "target",
          "type": "address"
        },
        {
          "internalType": "uint256",
          "name": "amount",
          "type": "uint256"
        }
      ],
      "name": "burnPointsByAdmin",
      "outputs": [],
      "stateMutability": "nonpayable",
      "type": "function"
    },
    {
      "inputs": [
        {
          "internalType": "address",
          "name": "subordinate",
          "type": "address"
        },
        {
          "internalType": "address",
          "name": "authorizer",
          "type": "address"
        }
      ],
      "name": "clearAdminMintCounterForSubordinate",
      "outputs": [],
      "stateMutability": "nonpayable",
      "type": "function"
    },
    {
      "inputs": [
        {
          "internalType": "bytes4",
          "name": "selector",
          "type": "bytes4"
        },
        {
          "internalType": "address",
          "name": "target",
          "type": "address"
        },
        {
          "internalType": "uint256",
          "name": "v1",
          "type": "uint256"
        },
        {
          "internalType": "uint256",
          "name": "v2",
          "type": "uint256"
        },
        {
          "internalType": "uint256",
          "name": "v3",
          "type": "uint256"
        }
      ],
      "name": "createProposal",
      "outputs": [
        {
          "internalType": "uint256",
          "name": "",
          "type": "uint256"
        }
      ],
      "stateMutability": "nonpayable",
      "type": "function"
    },
    {
      "inputs": [],
      "name": "currency",
      "outputs": [
        {
          "internalType": "enum BeamioCurrency.CurrencyType",
          "name": "",
          "type": "uint8"
        }
      ],
      "stateMutability": "view",
      "type": "function"
    },
    {
      "inputs": [],
      "name": "debugGateway",
      "outputs": [
        {
          "internalType": "address",
          "name": "",
          "type": "address"
        }
      ],
      "stateMutability": "view",
      "type": "function"
    },
    {
      "inputs": [],
      "name": "defaultAttrWhenNoTiers",
      "outputs": [
        {
          "internalType": "uint256",
          "name": "",
          "type": "uint256"
        }
      ],
      "stateMutability": "view",
      "type": "function"
    },
    {
      "inputs": [],
      "name": "deployer",
      "outputs": [
        {
          "internalType": "address",
          "name": "",
          "type": "address"
        }
      ],
      "stateMutability": "view",
      "type": "function"
    },
    {
      "inputs": [
        {
          "internalType": "uint256",
          "name": "",
          "type": "uint256"
        }
      ],
      "name": "expiresAt",
      "outputs": [
        {
          "internalType": "uint256",
          "name": "",
          "type": "uint256"
        }
      ],
      "stateMutability": "view",
      "type": "function"
    },
    {
      "inputs": [],
      "name": "expirySeconds",
      "outputs": [
        {
          "internalType": "uint256",
          "name": "",
          "type": "uint256"
        }
      ],
      "stateMutability": "view",
      "type": "function"
    },
    {
      "inputs": [],
      "name": "factoryGateway",
      "outputs": [
        {
          "internalType": "address",
          "name": "",
          "type": "address"
        }
      ],
      "stateMutability": "view",
      "type": "function"
    },
    {
      "inputs": [
        {
          "internalType": "address",
          "name": "userEOA",
          "type": "address"
        },
        {
          "internalType": "uint256",
          "name": "id",
          "type": "uint256"
        },
        {
          "internalType": "uint256",
          "name": "amount",
          "type": "uint256"
        }
      ],
      "name": "faucetByGateway",
      "outputs": [],
      "stateMutability": "nonpayable",
      "type": "function"
    },
    {
      "inputs": [
        {
          "internalType": "uint256",
          "name": "id",
          "type": "uint256"
        }
      ],
      "name": "faucetConfig",
      "outputs": [
        {
          "components": [
            {
              "internalType": "uint64",
              "name": "validUntil",
              "type": "uint64"
            },
            {
              "internalType": "uint64",
              "name": "perClaimMax",
              "type": "uint64"
            },
            {
              "internalType": "uint128",
              "name": "maxPerUser",
              "type": "uint128"
            },
            {
              "internalType": "uint128",
              "name": "maxGlobal",
              "type": "uint128"
            },
            {
              "internalType": "bool",
              "name": "enabled",
              "type": "bool"
            },
            {
              "internalType": "uint8",
              "name": "currency",
              "type": "uint8"
            },
            {
              "internalType": "uint8",
              "name": "decimals",
              "type": "uint8"
            },
            {
              "internalType": "uint128",
              "name": "priceInCurrency6",
              "type": "uint128"
            }
          ],
          "internalType": "struct FaucetStorage.FaucetConfig",
          "name": "",
          "type": "tuple"
        }
      ],
      "stateMutability": "view",
      "type": "function"
    },
    {
      "inputs": [],
      "name": "gateway",
      "outputs": [
        {
          "internalType": "address",
          "name": "",
          "type": "address"
        }
      ],
      "stateMutability": "view",
      "type": "function"
    },
    {
      "inputs": [
        {
          "internalType": "address",
          "name": "user",
          "type": "address"
        }
      ],
      "name": "getOwnership",
      "outputs": [
        {
          "internalType": "uint256",
          "name": "pt",
          "type": "uint256"
        },
        {
          "components": [
            {
              "internalType": "uint256",
              "name": "tokenId",
              "type": "uint256"
            },
            {
              "internalType": "uint256",
              "name": "attribute",
              "type": "uint256"
            },
            {
              "internalType": "uint256",
              "name": "tierIndexOrMax",
              "type": "uint256"
            },
            {
              "internalType": "uint256",
              "name": "expiry",
              "type": "uint256"
            },
            {
              "internalType": "bool",
              "name": "isExpired",
              "type": "bool"
            }
          ],
          "internalType": "struct BeamioUserCard.NFTDetail[]",
          "name": "nfts",
          "type": "tuple[]"
        }
      ],
      "stateMutability": "view",
      "type": "function"
    },
    {
      "inputs": [
        {
          "internalType": "address",
          "name": "userEOA",
          "type": "address"
        }
      ],
      "name": "getOwnershipByEOA",
      "outputs": [
        {
          "internalType": "uint256",
          "name": "pt",
          "type": "uint256"
        },
        {
          "components": [
            {
              "internalType": "uint256",
              "name": "tokenId",
              "type": "uint256"
            },
            {
              "internalType": "uint256",
              "name": "attribute",
              "type": "uint256"
            },
            {
              "internalType": "uint256",
              "name": "tierIndexOrMax",
              "type": "uint256"
            },
            {
              "internalType": "uint256",
              "name": "expiry",
              "type": "uint256"
            },
            {
              "internalType": "bool",
              "name": "isExpired",
              "type": "bool"
            }
          ],
          "internalType": "struct BeamioUserCard.NFTDetail[]",
          "name": "nfts",
          "type": "tuple[]"
        }
      ],
      "stateMutability": "view",
      "type": "function"
    },
    {
      "inputs": [
        {
          "internalType": "address",
          "name": "a",
          "type": "address"
        }
      ],
      "name": "isAdmin",
      "outputs": [
        {
          "internalType": "bool",
          "name": "",
          "type": "bool"
        }
      ],
      "stateMutability": "view",
      "type": "function"
    },
    {
      "inputs": [
        {
          "internalType": "address",
          "name": "account",
          "type": "address"
        },
        {
          "internalType": "address",
          "name": "operator",
          "type": "address"
        }
      ],
      "name": "isApprovedForAll",
      "outputs": [
        {
          "internalType": "bool",
          "name": "",
          "type": "bool"
        }
      ],
      "stateMutability": "view",
      "type": "function"
    },
    {
      "inputs": [
        {
          "internalType": "address",
          "name": "effectiveTo",
          "type": "address"
        }
      ],
      "name": "isPointsTransferRecipientAllowed",
      "outputs": [
        {
          "internalType": "bool",
          "name": "",
          "type": "bool"
        }
      ],
      "stateMutability": "view",
      "type": "function"
    },
    {
      "inputs": [
        {
          "internalType": "uint256",
          "name": "tokenId",
          "type": "uint256"
        }
      ],
      "name": "issuedNftPriceInCurrency6",
      "outputs": [
        {
          "internalType": "uint256",
          "name": "",
          "type": "uint256"
        }
      ],
      "stateMutability": "view",
      "type": "function"
    },
    {
      "inputs": [
        {
          "internalType": "uint256",
          "name": "tokenId",
          "type": "uint256"
        }
      ],
      "name": "issuedNftSharedMetadataHash",
      "outputs": [
        {
          "internalType": "bytes32",
          "name": "",
          "type": "bytes32"
        }
      ],
      "stateMutability": "view",
      "type": "function"
    },
    {
      "inputs": [],
      "name": "metadataBaseURI",
      "outputs": [
        {
          "internalType": "string",
          "name": "",
          "type": "string"
        }
      ],
      "stateMutability": "view",
      "type": "function"
    },
    {
      "inputs": [
        {
          "internalType": "address",
          "name": "userEOA",
          "type": "address"
        },
        {
          "internalType": "uint256",
          "name": "id",
          "type": "uint256"
        },
        {
          "internalType": "uint256",
          "name": "amount6",
          "type": "uint256"
        }
      ],
      "name": "mintFaucetByGateway",
      "outputs": [],
      "stateMutability": "nonpayable",
      "type": "function"
    },
    {
      "inputs": [
        {
          "internalType": "address",
          "name": "userEOA",
          "type": "address"
        },
        {
          "internalType": "uint256",
          "name": "tokenId",
          "type": "uint256"
        },
        {
          "internalType": "uint256",
          "name": "amount",
          "type": "uint256"
        }
      ],
      "name": "mintIssuedNftByGateway",
      "outputs": [],
      "stateMutability": "nonpayable",
      "type": "function"
    },
    {
      "inputs": [
        {
          "internalType": "address",
          "name": "to",
          "type": "address"
        },
        {
          "internalType": "uint256",
          "name": "tokenId",
          "type": "uint256"
        },
        {
          "internalType": "uint256",
          "name": "amount",
          "type": "uint256"
        }
      ],
      "name": "mintIssuedNftByOwner",
      "outputs": [],
      "stateMutability": "nonpayable",
      "type": "function"
    },
    {
      "inputs": [
        {
          "internalType": "address",
          "name": "userEOA",
          "type": "address"
        },
        {
          "internalType": "uint256",
          "name": "tokenId",
          "type": "uint256"
        }
      ],
      "name": "mintIssuedNftByUserSigClaim",
      "outputs": [],
      "stateMutability": "nonpayable",
      "type": "function"
    },
    {
      "inputs": [
        {
          "internalType": "address",
          "name": "user",
          "type": "address"
        },
        {
          "internalType": "uint256",
          "name": "tierIndex",
          "type": "uint256"
        }
      ],
      "name": "mintMemberCardByAdmin",
      "outputs": [],
      "stateMutability": "nonpayable",
      "type": "function"
    },
    {
      "inputs": [
        {
          "internalType": "address",
          "name": "user",
          "type": "address"
        },
        {
          "internalType": "uint256",
          "name": "points6",
          "type": "uint256"
        }
      ],
      "name": "mintPointsByAdmin",
      "outputs": [],
      "stateMutability": "nonpayable",
      "type": "function"
    },
    {
      "inputs": [
        {
          "internalType": "address",
          "name": "user",
          "type": "address"
        },
        {
          "internalType": "uint256",
          "name": "points6",
          "type": "uint256"
        },
        {
          "internalType": "address",
          "name": "operator",
          "type": "address"
        }
      ],
      "name": "mintPointsByAdminWithOperator",
      "outputs": [],
      "stateMutability": "nonpayable",
      "type": "function"
    },
    {
      "inputs": [
        {
          "internalType": "address",
          "name": "userEOA",
          "type": "address"
        },
        {
          "internalType": "uint256",
          "name": "points6",
          "type": "uint256"
        }
      ],
      "name": "mintPointsByGateway",
      "outputs": [],
      "stateMutability": "nonpayable",
      "type": "function"
    },
    {
      "inputs": [
        {
          "internalType": "address",
          "name": "userEOA",
          "type": "address"
        },
        {
          "internalType": "uint256",
          "name": "points6",
          "type": "uint256"
        },
        {
          "internalType": "address",
          "name": "operator",
          "type": "address"
        }
      ],
      "name": "mintPointsByGatewayWithOperator",
      "outputs": [],
      "stateMutability": "nonpayable",
      "type": "function"
    },
    {
      "inputs": [
        {
          "internalType": "address",
          "name": "payerAA",
          "type": "address"
        },
        {
          "internalType": "uint256",
          "name": "points6",
          "type": "uint256"
        },
        {
          "internalType": "address",
          "name": "operatorForStats",
          "type": "address"
        }
      ],
      "name": "mintPointsOpenContainerRelay",
      "outputs": [],
      "stateMutability": "nonpayable",
      "type": "function"
    },
    {
      "inputs": [],
      "name": "owner",
      "outputs": [
        {
          "internalType": "address",
          "name": "",
          "type": "address"
        }
      ],
      "stateMutability": "view",
      "type": "function"
    },
    {
      "inputs": [],
      "name": "pointsUnitPriceInCurrencyE6",
      "outputs": [
        {
          "internalType": "uint256",
          "name": "",
          "type": "uint256"
        }
      ],
      "stateMutability": "view",
      "type": "function"
    },
    {
      "inputs": [
        {
          "internalType": "address",
          "name": "operator",
          "type": "address"
        },
        {
          "internalType": "uint256",
          "name": "amount",
          "type": "uint256"
        }
      ],
      "name": "recordAdminBurnForStats",
      "outputs": [],
      "stateMutability": "nonpayable",
      "type": "function"
    },
    {
      "inputs": [
        {
          "internalType": "address",
          "name": "admin",
          "type": "address"
        },
        {
          "internalType": "uint256",
          "name": "amount",
          "type": "uint256"
        }
      ],
      "name": "recordAdminMintForStats",
      "outputs": [],
      "stateMutability": "nonpayable",
      "type": "function"
    },
    {
      "inputs": [
        {
          "internalType": "string",
          "name": "code",
          "type": "string"
        },
        {
          "internalType": "address",
          "name": "to",
          "type": "address"
        }
      ],
      "name": "redeemAdminByGateway",
      "outputs": [],
      "stateMutability": "nonpayable",
      "type": "function"
    },
    {
      "inputs": [
        {
          "internalType": "string[]",
          "name": "codes",
          "type": "string[]"
        },
        {
          "internalType": "address",
          "name": "userEOA",
          "type": "address"
        }
      ],
      "name": "redeemBatchByGateway",
      "outputs": [],
      "stateMutability": "nonpayable",
      "type": "function"
    },
    {
      "inputs": [
        {
          "internalType": "string",
          "name": "code",
          "type": "string"
        },
        {
          "internalType": "address",
          "name": "userEOA",
          "type": "address"
        }
      ],
      "name": "redeemByGateway",
      "outputs": [],
      "stateMutability": "nonpayable",
      "type": "function"
    },
    {
      "inputs": [
        {
          "internalType": "string",
          "name": "code",
          "type": "string"
        },
        {
          "internalType": "address",
          "name": "userEOA",
          "type": "address"
        }
      ],
      "name": "redeemPoolByGateway",
      "outputs": [],
      "stateMutability": "nonpayable",
      "type": "function"
    },
    {
      "inputs": [],
      "name": "renounceOwnership",
      "outputs": [],
      "stateMutability": "nonpayable",
      "type": "function"
    },
    {
      "inputs": [
        {
          "internalType": "address",
          "name": "adminAddr",
          "type": "address"
        }
      ],
      "name": "resetAdminLimit",
      "outputs": [],
      "stateMutability": "nonpayable",
      "type": "function"
    },
    {
      "inputs": [
        {
          "internalType": "address",
          "name": "adminAddr",
          "type": "address"
        },
        {
          "internalType": "address",
          "name": "authorizer",
          "type": "address"
        }
      ],
      "name": "resetAdminLimitByAdmin",
      "outputs": [],
      "stateMutability": "nonpayable",
      "type": "function"
    },
    {
      "inputs": [
        {
          "internalType": "address",
          "name": "from",
          "type": "address"
        },
        {
          "internalType": "address",
          "name": "to",
          "type": "address"
        },
        {
          "internalType": "uint256[]",
          "name": "ids",
          "type": "uint256[]"
        },
        {
          "internalType": "uint256[]",
          "name": "values",
          "type": "uint256[]"
        },
        {
          "internalType": "bytes",
          "name": "data",
          "type": "bytes"
        }
      ],
      "name": "safeBatchTransferFrom",
      "outputs": [],
      "stateMutability": "nonpayable",
      "type": "function"
    },
    {
      "inputs": [
        {
          "internalType": "address",
          "name": "from",
          "type": "address"
        },
        {
          "internalType": "address",
          "name": "to",
          "type": "address"
        },
        {
          "internalType": "uint256",
          "name": "id",
          "type": "uint256"
        },
        {
          "internalType": "uint256",
          "name": "value",
          "type": "uint256"
        },
        {
          "internalType": "bytes",
          "name": "data",
          "type": "bytes"
        }
      ],
      "name": "safeTransferFrom",
      "outputs": [],
      "stateMutability": "nonpayable",
      "type": "function"
    },
    {
      "inputs": [
        {
          "internalType": "address",
          "name": "operator",
          "type": "address"
        },
        {
          "internalType": "bool",
          "name": "approved",
          "type": "bool"
        }
      ],
      "name": "setApprovalForAll",
      "outputs": [],
      "stateMutability": "nonpayable",
      "type": "function"
    },
    {
      "inputs": [
        {
          "internalType": "uint256",
          "name": "attr",
          "type": "uint256"
        }
      ],
      "name": "setDefaultAttr",
      "outputs": [],
      "stateMutability": "nonpayable",
      "type": "function"
    },
    {
      "inputs": [
        {
          "internalType": "uint256",
          "name": "secs",
          "type": "uint256"
        }
      ],
      "name": "setExpirySeconds",
      "outputs": [],
      "stateMutability": "nonpayable",
      "type": "function"
    },
    {
      "inputs": [
        {
          "internalType": "uint256",
          "name": "priceInCurrencyE6",
          "type": "uint256"
        }
      ],
      "name": "setPointsUnitPrice",
      "outputs": [],
      "stateMutability": "nonpayable",
      "type": "function"
    },
    {
      "inputs": [
        {
          "components": [
            {
              "internalType": "uint256",
              "name": "minUsdc6",
              "type": "uint256"
            },
            {
              "internalType": "uint256",
              "name": "attr",
              "type": "uint256"
            },
            {
              "internalType": "uint256",
              "name": "tierExpirySeconds",
              "type": "uint256"
            }
          ],
          "internalType": "struct Tier[]",
          "name": "newTiers",
          "type": "tuple[]"
        }
      ],
      "name": "setTiers",
      "outputs": [],
      "stateMutability": "nonpayable",
      "type": "function"
    },
    {
      "inputs": [
        {
          "internalType": "address",
          "name": "target",
          "type": "address"
        },
        {
          "internalType": "bool",
          "name": "allowed",
          "type": "bool"
        }
      ],
      "name": "setTransferWhitelist",
      "outputs": [],
      "stateMutability": "nonpayable",
      "type": "function"
    },
    {
      "inputs": [
        {
          "internalType": "bool",
          "name": "enabled",
          "type": "bool"
        }
      ],
      "name": "setTransferWhitelistEnabled",
      "outputs": [],
      "stateMutability": "nonpayable",
      "type": "function"
    },
    {
      "inputs": [
        {
          "internalType": "bytes4",
          "name": "interfaceId",
          "type": "bytes4"
        }
      ],
      "name": "supportsInterface",
      "outputs": [
        {
          "internalType": "bool",
          "name": "",
          "type": "bool"
        }
      ],
      "stateMutability": "view",
      "type": "function"
    },
    {
      "inputs": [
        {
          "internalType": "uint256",
          "name": "",
          "type": "uint256"
        }
      ],
      "name": "tiers",
      "outputs": [
        {
          "internalType": "uint256",
          "name": "minUsdc6",
          "type": "uint256"
        },
        {
          "internalType": "uint256",
          "name": "attr",
          "type": "uint256"
        },
        {
          "internalType": "uint256",
          "name": "tierExpirySeconds",
          "type": "uint256"
        }
      ],
      "stateMutability": "view",
      "type": "function"
    },
    {
      "inputs": [
        {
          "internalType": "uint256",
          "name": "",
          "type": "uint256"
        }
      ],
      "name": "tokenTierIndexOrMax",
      "outputs": [
        {
          "internalType": "uint256",
          "name": "",
          "type": "uint256"
        }
      ],
      "stateMutability": "view",
      "type": "function"
    },
    {
      "inputs": [],
      "name": "totalActiveMemberships",
      "outputs": [
        {
          "internalType": "uint256",
          "name": "",
          "type": "uint256"
        }
      ],
      "stateMutability": "view",
      "type": "function"
    },
    {
      "inputs": [],
      "name": "totalMembershipIssued",
      "outputs": [
        {
          "internalType": "uint256",
          "name": "",
          "type": "uint256"
        }
      ],
      "stateMutability": "view",
      "type": "function"
    },
    {
      "inputs": [
        {
          "internalType": "uint256",
          "name": "",
          "type": "uint256"
        }
      ],
      "name": "totalMembershipIssuedByTierIndex",
      "outputs": [
        {
          "internalType": "uint256",
          "name": "",
          "type": "uint256"
        }
      ],
      "stateMutability": "view",
      "type": "function"
    },
    {
      "inputs": [],
      "name": "totalMembershipUpgraded",
      "outputs": [
        {
          "internalType": "uint256",
          "name": "",
          "type": "uint256"
        }
      ],
      "stateMutability": "view",
      "type": "function"
    },
    {
      "inputs": [],
      "name": "totalSupply",
      "outputs": [
        {
          "internalType": "uint256",
          "name": "",
          "type": "uint256"
        }
      ],
      "stateMutability": "view",
      "type": "function"
    },
    {
      "inputs": [
        {
          "internalType": "uint256",
          "name": "id",
          "type": "uint256"
        }
      ],
      "name": "totalSupply",
      "outputs": [
        {
          "internalType": "uint256",
          "name": "",
          "type": "uint256"
        }
      ],
      "stateMutability": "view",
      "type": "function"
    },
    {
      "inputs": [
        {
          "internalType": "address",
          "name": "newOwner",
          "type": "address"
        }
      ],
      "name": "transferOwnership",
      "outputs": [],
      "stateMutability": "nonpayable",
      "type": "function"
    },
    {
      "inputs": [
        {
          "internalType": "address",
          "name": "",
          "type": "address"
        }
      ],
      "name": "transferWhitelist",
      "outputs": [
        {
          "internalType": "bool",
          "name": "",
          "type": "bool"
        }
      ],
      "stateMutability": "view",
      "type": "function"
    },
    {
      "inputs": [],
      "name": "transferWhitelistEnabled",
      "outputs": [
        {
          "internalType": "bool",
          "name": "",
          "type": "bool"
        }
      ],
      "stateMutability": "view",
      "type": "function"
    },
    {
      "inputs": [],
      "name": "upgradeType",
      "outputs": [
        {
          "internalType": "uint8",
          "name": "",
          "type": "uint8"
        }
      ],
      "stateMutability": "view",
      "type": "function"
    },
    {
      "inputs": [
        {
          "internalType": "uint256",
          "name": "",
          "type": "uint256"
        }
      ],
      "name": "uri",
      "outputs": [
        {
          "internalType": "string",
          "name": "",
          "type": "string"
        }
      ],
      "stateMutability": "view",
      "type": "function"
    }
  ],
  "bytecode": "0x60a0604052346103df5761600580380380610019816103e3565b928339810160e0828203126103df5781516001600160401b0381116103df57820181601f820112156103df5780516001600160401b03811161034057610068601f8201601f19166020016103e3565b92818452602082840101116103df575f928160208094018483015e010152602081015160098110156103df5760408201516100a560608401610408565b916100b260808501610408565b9360a08101519060ff82168092036103df5760c001519283151584036103df576020945f6100df876103e3565b52600254600181811c911680156103d5575b878210146103c157601f811161038f575b505f6002556001600160a01b031692831561037c57600380546001600160a01b031981168617909155604051979085906001600160a01b03167f8be0079c531659141344cd1fd0a4f28419497f9722a3daafe3b4186f6b6457e05f80a3600160045560646019556001600160a01b038116908115908115610372575b50610363576002841161035457336080528060018060a01b031960055416176005556006549160ff60a01b9060a01b169160018060a81b0319161717600655600755620f42407f669d986a32f5e30674d7f66bb8d44cc28fe3e0e39e2f1cd4349a57cbd64d6cc85560ff19601a541617601a5560017fbc488d3e2575f0f2113dc4d9a0cd6bc52445c6bc28a8974ed97a6ba3ecfd657a55805f527fbc488d3e2575f0f2113dc4d9a0cd6bc52445c6bc28a8974ed97a6ba3ecfd657b835260405f20600160ff198254161790555f516020615fe55f395f51905f5254680100000000000000008110156103405760018101805f516020615fe55f395f51905f525581101561032c575f516020615fe55f395f51905f525f9081528490200180546001600160a01b031916909117905564174876e8007ffed699897f2561c8a98f833aa3de83c4904370d413fe5fb15abe26e9f8150b29556102f1575b604051615bc8908161041d8239608051816126630152f35b7fc52867146282c253c04e94eb2a948478a1f7ef84cf2d6f5864facc99f2203f2c91600160ff19600a541617600a5560018152a15f806102d9565b634e487b7160e01b5f52603260045260245ffd5b634e487b7160e01b5f52604160045260245ffd5b63c7e283e160e01b5f5260045ffd5b63ab82bb9960e01b5f5260045ffd5b90503b155f61017e565b631e4fbdf760e01b5f525f60045260245ffd5b80156101025760025f52601f875f20910160051c905f5b8281106103b4575050610102565b5f828201556001016103a6565b634e487b7160e01b5f52602260045260245ffd5b90607f16906100f1565b5f80fd5b6040519190601f01601f191682016001600160401b0381118382101761034057604052565b51906001600160a01b03821682036103df5756fe60806040526004361015610019575b3415613589575b5f80fd5b5f3560e01c8062fdd58e1461052d57806301ffc9a714610528578063039af9eb1461052357806303ca3e381461051e5780630a106e9c146105195780630b6c8d71146105145780630cb856411461050f5780630e4ab4871461050a5780630e89341c146105055780630ec3786b146105005780631018c34b146104fb57806310bba864146104f6578063116191b6146104925780631284b92f146104f157806317c95709146104ec57806318160ddd146104e75780631c790e24146104e25780631fe56e6a146104dd57806324d7806c146104d85780632aff2a59146104d35780632b681a54146104ce5780632dd50a49146104c95780632eb2c2d6146104c457806333d4e562146104bf5780633c703d45146104ba5780633c970fb9146104b557806343159ce5146104b0578063475e53ec146104ab57806348ed7ebe146104a657806349dd0900146104a15780634dda22151461049c5780634e1273f41461049757806353785619146104925780635476d0711461048d57806356217848146104885780635637d5bc14610483578063564da7571461047e5780636465c3a714610479578063671395c814610474578063684cc3a51461046f578063706e01321461046a578063715018a61461046557806371b8982f146103b15780637766fa44146104605780637ffbe2411461045b57806382b720c91461045657806383dbbf5314610451578063897828a81461044c5780638a1b32bb146104475780638abc9b25146104425780638da5cb5b1461043d57806394b2e946146104385780639565c5421461043357806398951b561461042e5780639f1bbda7146104295780639f3d1a2a146104245780639f48facc1461041f578063a22cb4651461041a578063a479044614610415578063a657a65b14610410578063a876c7591461040b578063a98d916e14610406578063acf12d3d14610401578063af7ffa2b146103fc578063bd85b039146103f7578063c926bbfd146103f2578063d05dcc6a146103ed578063d4506e77146103e8578063d52dc515146103e3578063d5f39488146103de578063dd1bc5e9146103d9578063e4a34dce146103d4578063e5a6b10f146103cf578063e985e9c5146103ca578063ea2b8672146103c5578063f242432a146103c0578063f2fde38b146103bb578063f540f227146103b6578063f986f676146103b1578063fcef6b01146103ac578063fee3d73e146103a75763ffa1ad740361000e57612a2a565b612a0a565b6129ed565b611b1d565b6129c3565b61294c565b61285f565b61276b565b61273a565b6126fa565b6126bc565b612692565b61264e565b61262c565b6125d4565b6125aa565b612590565b61255a565b6124e7565b6124ca565b6124ab565b61248e565b612433565b6123cb565b612340565b6121e2565b61212b565b61210e565b61209a565b612072565b612037565b61200f565b611f2e565b611ea9565b611e47565b611ddb565b611ce4565b611ca4565b611b6a565b611a7c565b611a5d565b611a14565b6119d9565b6118a0565b6117f4565b6117d9565b6117af565b611792565b610d0a565b6116d1565b611670565b61160d565b6114e6565b611474565b611329565b6112e6565b61129d565b61126c565b6111d8565b611050565b61102b565b610fc4565b610f8f565b610f65565b610ea8565b610e7f565b610e55565b610dcc565b610cde565b610c6a565b610c0e565b610b47565b610ac4565b610a67565b6109a6565b6108cc565b6106ad565b610640565b61059d565b61054f565b6001600160a01b031690565b6001600160a01b0381160361001557565b346100155760403660031901126100155760206105826004356105718161053e565b6024355f525f835260405f20610da2565b54604051908152f35b6001600160e01b031981160361001557565b346100155760203660031901126100155760206004356105bc8161058b565b63ffffffff60e01b16636cdb3d1360e11b81149081156105fa575b81156105e9575b506040519015158152f35b6301ffc9a760e01b1490505f6105de565b6303a24d0760e21b811491506105d7565b634e487b7160e01b5f52603260045260245ffd5b60175481101561063b5760175f52600360205f20910201905f90565b61060b565b34610015576020366003190112610015576004356017548110156100155761066960609161061f565b50805490600260018201549101549060405192835260208301526040820152f35b6060906003190112610015576004356106a28161053e565b906024359060443590565b34610015576106bb3661068a565b600654919290916001600160a01b03168061089f57506005546001600160a01b03165b6001600160a01b03163303610890576106f56136ad565b6001600160a01b03811691821561088157801561087257610758610767916107535f516020615adc5f395f51905f529661074560405193849263c791063b60e01b60208501528860248501612a5c565b03601f1981018352826110bf565b6136cd565b60208082518301019101612a7a565b9390916107f76107768261372d565b916107808361379f565b6107e961078c846137dc565b86158080610869575b61085a575b6107ad6107a5612a90565b8b8a896138d8565b156108535788905b60135460145492909161083e57601754610822576107d3908761391f565b6003546001600160a01b0316613946565b613946565b6107f285610e28565b610da2565b546040516001600160a01b039092169582916108139183612aa4565b0390a46108206001600455565b005b8061082e575b506107d3565b610838908761391f565b5f610828565b8061084957506107d3565b61083890876138f8565b5f906107b5565b6108648a8761384c565b61079a565b50891515610795565b63201165f360e21b5f5260045ffd5b63a9b8048960e01b5f5260045ffd5b6396f47d2360e01b5f5260045ffd5b6106de565b6040906003190112610015576004356108bc8161053e565b906024356108c98161053e565b90565b34610015576108da366108a4565b6006546001600160a01b03168061093357506005546001600160a01b03165b6001600160a01b031633036108905761092e610820926107456040519384926302841ba760e21b602085015260248401612ab5565b6136fa565b6108f9565b6060602091604081019381526040838201528451809452019201905f5b8181106109625750505090565b909192602060a06001926080875180518352848101518584015260408101516040840152606081015160608401520151151560808201520194019101919091610955565b34610015576020366003190112610015576109ef60206004356109c88161053e565b60055460405163805a016360e01b815293849283926001600160a01b031660048401612ab5565b038173__$a9219284c3f0d74f57f4dcfc58f5429559$__5af48015610a6257610a1f915f91610a33575b50612c17565b90610a2f60405192839283610938565b0390f35b610a55915060203d602011610a5b575b610a4d81836110bf565b810190612d23565b5f610a19565b503d610a43565b612b4b565b3461001557604036600319011261001557600435610a848161053e565b600654602435906001600160a01b031680610abf57506005546001600160a01b03165b6001600160a01b0316330361089057610820916139b4565b610aa7565b3461001557602036600319011261001557600435610ae0613ae2565b7ff316e065e93b4fddef3d2d93a57817985081f76ea9e0ca7417ed5b4b086b1fcb6020601854604051908152a1601855005b805180835260209291819084018484015e5f828201840152601f01601f1916010190565b9060206108c9928181520190610b12565b3461001557602036600319011261001557610b865f610b64613b46565b604051809381926319c56d4160e21b8352604060048401526044830190610b12565b306024830152038173__$9326044641c87b14e434c703319e7fbd9b$__5af48015610a6257610a2f915f91610bc3575b5060405191829182610b36565b610bdf91503d805f833e610bd781836110bf565b810190612b26565b5f610bb6565b606090600319011261001557600435610bfd8161053e565b90602435906044356108c98161053e565b3461001557610c1c36610be5565b6006549091906001600160a01b031680610c6557506005546001600160a01b03165b6001600160a01b0316330361089057610c5e92610c596136ad565b613bb5565b6001600455005b610c3e565b3461001557604036600319011261001557600435610c878161053e565b600654602435906001600160a01b031680610cc257506005546001600160a01b03165b6001600160a01b031633036108905761082091613c78565b610caa565b5f91031261001557565b60ff909116815260200190565b34610015575f36600319011261001557602060405160068152f35b6001600160a01b0316600452602490565b34610015575f366003190112610015576005546040516001600160a01b039091168152602090f35b6001600160a01b03165f9081527fbc488d3e2575f0f2113dc4d9a0cd6bc52445c6bc28a8974ed97a6ba3ecfd657b6020526040902090565b6001600160a01b03165f9081527fbe5c2328713858b26c97b83c5ace333ac35b55572be4794180ba426b12cc48c46020526040902090565b9060018060a01b03165f5260205260405f2090565b805482101561063b575f5260205f2001905f90565b3461001557604036600319011261001557600435610de98161053e565b6001600160a01b03165f908152600e602052604090208054602435919082101561001557602091610e1991610db7565b90549060031b1c604051908152f35b5f527fe5fcefe92466b78c655fa732b80b16e07a00f2a897e833e17d9914703cad563360205260405f2090565b34610015576020366003190112610015576004355f52600b602052602060405f2054604051908152f35b34610015575f3660031901126100155760205f516020615b7c5f395f51905f5254604051908152f35b3461001557604036600319011261001557602435600435610ec88261053e565b6006546001600160a01b031680610f6057506005546001600160a01b03165b6001600160a01b03163303610890575f80610f00613d47565b93604051602081019163071e438960e21b835285602483015260018060a01b0316604482015260448152610f356064826110bf565b5190855af4610f42612b56565b5015610f5157610820916141f8565b6363bc5ecb60e11b5f5260045ffd5b610ee7565b34610015576020366003190112610015576004355f526011602052602060405f2054604051908152f35b3461001557602036600319011261001557602060ff610fb8600435610fb38161053e565b610d32565b54166040519015158152f35b3461001557610fd2366108a4565b6006546001600160a01b03168061102657506005546001600160a01b03165b6001600160a01b031633036108905761092e61082092610745604051938492630ed647d960e11b602085015260248401612ab5565b610ff1565b3461001557602036600319011261001557610a1f60043561104b8161053e565b612c17565b3461001557610c5e61106136610be5565b9161106a6136ad565b612d4d565b634e487b7160e01b5f52604160045260245ffd5b606081019081106001600160401b0382111761109e57604052565b61106f565b61010081019081106001600160401b0382111761109e57604052565b601f909101601f19168101906001600160401b0382119082101761109e57604052565b604051906110f160a0836110bf565b565b604051906110f1610100836110bf565b6001600160401b03811161109e5760051b60200190565b9080601f8301121561001557813561113181611103565b9261113f60405194856110bf565b81845260208085019260051b82010192831161001557602001905b8282106111675750505090565b813581526020918201910161115a565b6001600160401b03811161109e57601f01601f191660200190565b81601f82011215610015578035906111a982611177565b926111b760405194856110bf565b8284526020838301011161001557815f926020809301838601378301015290565b346100155760a0366003190112610015576004356111f58161053e565b602435906112028261053e565b6044356001600160401b0381116100155761122190369060040161111a565b6064356001600160401b0381116100155761124090369060040161111a565b608435939091906001600160401b03851161001557611266610820953690600401611192565b93612f0d565b3461001557602036600319011261001557602061129360043561128e8161053e565b612f66565b6040519015158152f35b34610015576020366003190112610015576004355f527ffed699897f2561c8a98f833aa3de83c4904370d413fe5fb15abe26e9f8150b30602052602060405f2054604051908152f35b3461001557604036600319011261001557610c5e6004356113068161053e565b6024356113116136ad565b611319613ae2565b6107d360135491601454936142d9565b34610015576040366003190112610015576004356113468161053e565b6024356006546001600160a01b03168061146f57506005546001600160a01b03165b6001600160a01b031633036108905761137f6136ad565b9081906001600160a01b038116156108815761139a9061372d565b5f808052602052906113b9825f516020615b9c5f395f51905f52610da2565b54908115610872575f1914611467575b80831161142d575081156108725761142081611406847fcfaedf921126ed75cd0b52e9418d816572c256b67104e03066bd3f067f2d53c094614300565b6040519384526001600160a01b0316929081906020820190565b0390a26108206001600455565b60405163406e3ab960e01b81526001600160a01b0390921660048301525f60248301526044820152606481019190915280608481015b0390fd5b9150816113c9565b611368565b34610015576114823661068a565b6006549091906001600160a01b0316806114e157506005546001600160a01b03165b6001600160a01b03163303610890576114bb6136ad565b6001600160a01b03831615610881578115610872576114dc610c5e9361372d565b6144f3565b6114a4565b34610015576114f436610be5565b600654919290916001600160a01b03168061160857506005546001600160a01b03165b6001600160a01b031633036108905761152e6136ad565b6001600160a01b0381161580156115f7575b6108815782156108725761156461156061155984610d32565b5460ff1690565b1590565b610f51575f516020615afc5f395f51905f52916114066115ac611420936115a6604051631deff10f60e11b602082015261092e816107458b8960248401612fce565b5061372d565b916115b68361379f565b6115c0868461384c565b601354601454916115d96115d2612a90565b8987613893565b6115e388826139b4565b6115ed8886614558565b6107e488866138f8565b506001600160a01b03821615611540565b611517565b346100155760203660031901126100155760043561162a8161053e565b6001600160a01b039081165f9081527fbc488d3e2575f0f2113dc4d9a0cd6bc52445c6bc28a8974ed97a6ba3ecfd65816020908152604091829020549151919092168152f35b34610015575f366003190112610015576020600754604051908152f35b90602080835192838152019201905f5b8181106116aa5750505090565b825184526020938401939092019160010161169d565b9060206108c992818152019061168d565b34610015576040366003190112610015576004356001600160401b03811161001557366023820112156100155780600401359061170d82611103565b9161171b60405193846110bf565b8083526024602084019160051b8301019136831161001557602401905b82821061177857836024356001600160401b03811161001557610a2f9161176661176c92369060040161111a565b90612fe9565b604051918291826116c0565b6020809183356117878161053e565b815201910190611738565b34610015575f366003190112610015576020601554604051908152f35b34610015576020366003190112610015576004355f526012602052602060405f2054604051908152f35b34610015575f36600319011261001557602060405160648152f35b34610015576040366003190112610015576004356118118161053e565b6024359061181d6136ad565b611825613ae2565b6001600160a01b03811615610881578115610872576114206118545f516020615afc5f395f51905f529261372d565b61185d8161379f565b611867848261384c565b6114066013546014549061188c6040516118826020826110bf565b5f81528886613893565b6118968785614558565b6107d387856138f8565b34610015576118ae3661068a565b600654919290916001600160a01b0316806119d457506005546001600160a01b03165b6001600160a01b03163303610890576118e86136ad565b6001600160a01b03811691821561088157801561087257610758611938916107535f516020615adc5f395f51905f5296610745604051938492634404589760e01b60208501528860248501612a5c565b9390916107f76119478261372d565b916119518361379f565b841580806119cb575b6119bc575b61197261196a612a90565b8988876138d8565b156119b657865b80611989575b506107f285610e28565b6107d36119b09161199d6013549060145490565b9290916119aa8189614558565b876138f8565b5f61197f565b5f611979565b6119c6888561384c565b61195f565b5087151561195a565b6118d1565b34610015576020366003190112610015576004356119f68161053e565b60018060a01b03165f52600f602052602060405f2054604051908152f35b34610015576020366003190112610015576004355f527ffed699897f2561c8a98f833aa3de83c4904370d413fe5fb15abe26e9f8150b2d602052602060405f2054604051908152f35b3461001557611a6b3661068a565b90611a746136ad565b6114bb613ae2565b34610015575f36600319011261001557611a9461457f565b600380546001600160a01b031981169091555f906001600160a01b03165f516020615b3c5f395f51905f528280a3005b906040600319830112610015576004356001600160401b0381116100155782602382011215610015576004810135926001600160401b03841161001557602484830101116100155760240191906024356108c98161053e565b3461001557611b2b36611ac4565b6006549091906001600160a01b031680611b6557506005546001600160a01b03165b6001600160a01b03163303610890576108209261307e565b611b4d565b3461001557611b7836611ac4565b6006549192916001600160a01b031680611c9f57506005546001600160a01b03165b6001600160a01b0316330361089057611bb16136ad565b6001600160a01b0381161561088157611c00611bf15f94611bec8695610745604051938492633aa2954160e11b602085015260248401613131565b613707565b60208082518301019101613142565b611c0b929192613d47565b928115158514611c6657611c3a90610745604051938492602084019663d8bdbdf560e01b8852602485016131a2565b51915af4611c46612b56565b505b15611c57576108206001600455565b63fb713d2b60e01b5f5260045ffd5b6107459150611c8d906040519283916020830195630b18ae1d60e11b875260248401613172565b51915af4611c99612b56565b50611c48565b611b9a565b3461001557602036600319011261001557600435611cc18161053e565b60018060a01b03165f526009602052602060ff60405f2054166040519015158152f35b346100155760a036600319011261001557600435611d018161058b565b60243590611d0e8261053e565b604435906064356084356006549091906001600160a01b031680611dd657506005546001600160a01b03165b6001600160a01b0316330361089057611da693611d55613d47565b6040516382b720c960e01b60208201526001600160e01b031990951660248601526001600160a01b0390961660448501526064840152608483015260a480830191909152815261092e60c4826110bf565b9060208280518101031261001557611dc66020610a2f93015180926141f8565b6040519081529081906020820190565b611d3a565b3461001557602036600319011261001557600435611df7613ae2565b8015611e2e576020817fd45b01a2f21a7aa8a0f57023efdce73147de071e77875c3f4d486b1e13eaef7092600755604051908152a1005b6376024b7160e01b5f5260045ffd5b8015150361001557565b34610015576020366003190112610015577fc52867146282c253c04e94eb2a948478a1f7ef84cf2d6f5864facc99f2203f2c6020600435611e8781611e3d565b611e8f613ae2565b151560ff19600a541660ff821617600a55604051908152a1005b3461001557602036600319011261001557600435611ec68161053e565b6006546001600160a01b031680611f2957506005546001600160a01b03165b6001600160a01b0316330361089057604051638a1b32bb60e01b60208201526001600160a01b0390911660248083019190915281526108209061092e6044826110bf565b611ee5565b3461001557606036600319011261001557604435600435602435611f50613ae2565b8115612000576017549060405193611f6785611083565b83855260208501918083526040860195828752600160401b85101561109e5760018501601755611f968561061f565b919091611ffb577fc9553df3224b08515381089b4a0e07d62144ba87c402485fabd66899cadc2ab197611ff69560029251845551600184015551910155604051948594859094939260609260808301968352602083015260408201520152565b0390a1005b6131da565b639033099360e01b5f5260045ffd5b34610015575f366003190112610015576003546040516001600160a01b039091168152602090f35b34610015576020366003190112610015576004356120548161053e565b60018060a01b03165f526010602052602060405f2054604051908152f35b34610015575f366003190112610015576006546040516001600160a01b039091168152602090f35b346100155760203660031901126100155760043560ff6120b933610d32565b541615610f51576120c8613d47565b905f806040516020810190634c4a8dab60e11b8252846024820152602481526120f26044826110bf565b5190855af46120ff612b56565b5015611c5757610820916141f8565b34610015575f366003190112610015576020600854604051908152f35b34610015575f36600319011261001557610a2f612146613b46565b604051918291602083526020830190610b12565b81516001600160401b039081168252602080840151909116908201526040808301516001600160801b039081169183019190915260608084015190911690820152610100810192916110f1919060e090819060808181015115159085015260a08181015160ff169085015260c08181015160ff169085015201516001600160801b0316910152565b34610015576020366003190112610015576004355f60e0604051612205816110a3565b8281528260208201528260408201528260608201528260808201528260a08201528260c082015201525f527fe5fcefe92466b78c655fa732b80b16e07a00f2a897e833e17d9914703cad5632602052610a2f60405f2061230f6122ff600260405193612270856110a3565b80546001600160401b038082168752604082901c1660208701526122a19060801c6001600160801b03166040870152565b60018101546001600160801b03811660608701526122f1906122e7906122d1608082901c60ff16151560808a0152565b60ff608882901c1660a089015260901c60ff1690565b60ff1660c0870152565b01546001600160801b031690565b6001600160801b031660e0830152565b6040519182918261215a565b6040906003190112610015576004356123338161053e565b906024356108c981611e3d565b346100155761234e3661231b565b6001600160a01b0382169182156123b9578161237861238992335f52600160205260405f20610da2565b9060ff801983541691151516179055565b60405190151581527f17307eab39ab6107e8899845ad3d59bd9653f200f220920489ca2b5937696c3160203392a3005b62ced3e160e81b5f525f60045260245ffd5b34610015576040366003190112610015576004356001600160401b0381116100155736602382011215610015576004810135906001600160401b038211610015573660248360051b830101116100155761082091602480359261242d8461053e565b016131ed565b34610015576020366003190112610015576004356001600160401b03811161001557366023820112156100155760048101356001600160401b03811161001557366024606083028401011161001557602461082092016134d3565b34610015575f366003190112610015576020601854604051908152f35b34610015575f36600319011261001557602060405164174876e8008152f35b34610015575f366003190112610015576020601354604051908152f35b34610015576040366003190112610015576004356125048161053e565b60065460243591906001600160a01b03168061255557506005546001600160a01b03165b6001600160a01b0316330361089057610c5e916125436136ad565b6003546001600160a01b031691613bb5565b612528565b34610015576020366003190112610015576004355f525f516020615b1c5f395f51905f52602052602060405f2054604051908152f35b34610015575f3660031901126100155760206040515f8152f35b34610015576020366003190112610015576004355f52600c602052602060405f2054604051908152f35b34610015576020366003190112610015576004356125f0613ae2565b7f1c8121c98d871a1523a6112e29ac660378afbcb9b921cff8f187c3da35d170818160085461262460405192839283612aa4565b0390a1600855005b34610015575f36600319011261001557602060ff600a54166040519015158152f35b34610015575f366003190112610015576040517f00000000000000000000000000000000000000000000000000000000000000006001600160a01b03168152602090f35b34610015576020366003190112610015576004355f526016602052602060405f2054604051908152f35b34610015576108206126cd3661231b565b906126d6613ae2565b60018060a01b03165f52600960205260405f209060ff801983541691151516179055565b34610015575f3660031901126100155760ff60065460a01c166040516009821015612726576020918152f35b634e487b7160e01b5f52602160045260245ffd5b3461001557602060ff610fb861274f366108a4565b6001600160a01b039091165f9081526001855260409020610da2565b34610015576040366003190112610015576004356127888161053e565b6024356006546001600160a01b03168061285a57506005546001600160a01b03165b6001600160a01b03163303610890576127c16136ad565b6001600160a01b038216918215610881576127de6128369161372d565b6040516335be6eb960e21b602082015260248101949094526001600160a01b038116604485018190526064808601859052855293612826906128216084826110bf565b613713565b5082612830612a90565b916138b8565b604051600181525f516020615b5c5f395f51905f5290602090a36108206001600455565b6127aa565b346100155760a03660031901126100155760043561287c8161053e565b6024356128888161053e565b60443590606435926084356001600160401b038111610015576128af903690600401611192565b926001600160a01b038216338114158061292c575b612916576001600160a01b0384161561290357156128f157610820946128e991614998565b929091614ba2565b626a0d4560e21b5f525f60045260245ffd5b632bfa23e760e11b5f525f60045260245ffd5b63711bec9160e11b5f523360045260245260445ffd5b50805f52600160205260ff6129443360405f20610da2565b5416156128c4565b34610015576020366003190112610015576004356129698161053e565b61297161457f565b6001600160a01b031680156129b057600380546001600160a01b0319811683179091556001600160a01b03165f516020615b3c5f395f51905f525f80a3005b631e4fbdf760e01b5f525f60045260245ffd5b34610015576020366003190112610015576004355f52600d602052602060405f2054604051908152f35b34610015575f366003190112610015576020601454604051908152f35b34610015575f36600319011261001557602060ff601a5416604051908152f35b34610015575f36600319011261001557602060405160158152f35b612a58915f525f60205260405f20610da2565b5490565b604091949392606082019560018060a01b0316825260208201520152565b9190826040910312610015576020825192015190565b60405190612a9f6020836110bf565b5f8252565b908152602081019190915260400190565b6001600160a01b0391821681529116602082015260400190565b5f516020615b7c5f395f51905f5255565b81601f8201121561001557805190612af782611177565b92612b0560405194856110bf565b8284526020838301011161001557815f9260208093018386015e8301015290565b906020828203126100155781516001600160401b038111610015576108c99201612ae0565b6040513d5f823e3d90fd5b3d15612b80573d90612b6782611177565b91612b7560405193846110bf565b82523d5f602084013e565b606090565b90612b8f82611103565b612b9c60405191826110bf565b8281528092612bad601f1991611103565b015f5b818110612bbc57505050565b60405160a0810191906001600160401b0383118184101761109e576020926040525f81525f838201525f60408201525f60608201525f608082015282828601015201612bb0565b805182101561063b5760209160051b010190565b6001600160a01b0381165f908152600e60205260409020909190918254612c3d81612b85565b935f5b828110612c6d5750505f80805260205250612c68905f516020615b9c5f395f51905f52610da2565b549190565b80612c87612c7d60019385610db7565b90549060031b1c90565b612cf1612c9c825f52600b60205260405f2090565b548015159081612d0d575b612cb9845f52600c60205260405f2090565b54612ccc855f52600d60205260405f2090565b5490612cd66110e2565b95865260208601526040850152606084015215156080830152565b612cfb8289612c03565b52612d068188612c03565b5001612c40565b809150421190612ca7565b51906110f18261053e565b9081602091031261001557516108c98161053e565b9081602091031261001557516108c981611e3d565b91908015612f08576001600160a01b038316928315610881576001600160a01b038316156108815760405163c45a015560e01b8152602081600481885afa908115610a62575f91612ee9575b506001600160a01b031680156108815760405163054c14ed60e51b8152602081600481855afa908115610a62575f91612eca575b506001600160a01b03168015612ebb573303612ead576040516303330c7960e41b81526001600160a01b03929092166004830152602090829060249082905afa908115610a62575f91612e7e575b5015612e6f57602060049360405194858092638da5cb5b60e01b82525afa8015610a62576110f1935f91612e50575b50613bb5565b612e69915060203d602011610a5b57610a4d81836110bf565b5f612e4a565b632ad05f3360e11b5f5260045ffd5b612ea0915060203d602011612ea6575b612e9881836110bf565b810190612d38565b5f612e1b565b503d612e8e565b62645ab960e51b5f5260045ffd5b63ab82bb9960e01b5f5260045ffd5b612ee3915060203d602011610a5b57610a4d81836110bf565b5f612dcd565b612f02915060203d602011610a5b57610a4d81836110bf565b5f612d99565b505050565b939291906001600160a01b0385163381141580612f46575b612916576001600160a01b0382161561290357156128f1576110f194614ba2565b50805f52600160205260ff612f5e3360405f20610da2565b541615612f25565b60ff600a541615612fc8575f805260096020527fec8156718a8372b1db44bb411437d0870f3e3790d4a08526d024ce1b0b668f6b5460ff16908115612fa9575090565b6001600160a01b03165f9081526009602052604090205460ff16919050565b50600190565b6001600160a01b039091168152602081019190915260400190565b9190918051835180820361306957505080519061300582611103565b9161301360405193846110bf565b808352613022601f1991611103565b013660208401375f5b8151811015613062578061305160019260051b6020808287010151918901015190612a45565b61305b8286612c03565b520161302b565b5090925050565b635b05999160e01b5f5260045260245260445ffd5b91906130886136ad565b6001600160a01b038216918215610881576130eb84611bec6130ad8561310a986145b3565b9590966130d760405194859363fd44e85560e01b6020860152604060248601526064850191613111565b90604483015203601f1981018352826110bf565b926130ff60208551860101602086016133c3565b959293915093614655565b6001600455565b908060209392818452848401375f828201840152601f01601f1916010190565b9160206108c9938181520191613111565b91906040838203126100155782516001600160401b0381116100155760209161316c918501612ae0565b92015190565b6001600160a01b03909116815260016020820181905260408201526080606082018190526108c992910190610b12565b9392916131d59060809260018060a01b03168652600160208701526001604087015260a0606087015260a0860190610b12565b930152565b634e487b7160e01b5f525f60045260245ffd5b6006549091906001600160a01b03168061328657506005546001600160a01b03165b6001600160a01b03163303610890576132266136ad565b6001600160a01b03831615610881578015611c575761327c926130eb611bec92613259613253828761328b565b906145b3565b9490956107458560405194859363bca0e27d60e01b6020860152602485016132c5565b6110f16001600455565b61320f565b901561063b57803590601e19813603018212156100155701803591906001600160401b038311610015576020018236038113610015579190565b93929190816040860160408752526060850160608360051b87010192825f90601e19813603015b83831061330f575050505050509060206110f19294019060018060a01b03169052565b909192939495605f198a8203018652863582811215610015578301602081019190356001600160401b038111610015578036038313610015576133586020928392600195613111565b9801960194930191906132ec565b9080601f8301121561001557815161337d81611103565b9261338b60405194856110bf565b81845260208085019260051b82010192831161001557602001905b8282106133b35750505090565b81518152602091820191016133a6565b9060808282031261001557815192602083015192604081015160018060401b03811161001557836133f5918301613366565b60608201519093906001600160401b038111610015576108c99201613366565b919081101561063b576060020190565b634e487b7160e01b5f52601160045260245ffd5b6017545f601755806134485750565b806003029060038204036134865760175f5260205f205f5b82811061346c57505050565b805f60026003938501828155826001820155015501613460565b613425565b601754600160401b81101561109e576001810160175560175481101561063b57604060029160175f52600360205f209102019280358455602081013560018501550135910155565b6134db613ae2565b8115613561575f5b82811061354857506134f3613439565b5f5b82811061352c5750506040519081527f2f291eaf494dc7eca20457441a1df7d9119f0c0d764309daf9cb6b148810ee3690602090a1565b8061354261353d6001938686613415565b61348b565b016134f5565b613553818484613415565b3515612000576001016134e3565b6308ba5b6160e01b5f5260045ffd5b90816020910312610015575160ff811681036100155790565b61359161483f565b60405163426dc88f60e01b81526001600160e01b03195f351660048201526020816024816001600160a01b0386165afa908115610a62575f9161367e575b5060ff1660fd1981016135fb57505f80915b368280378136915af43d90815f803e156135f8575ff35b5ffd5b90508061361257505f8061360d614074565b6135e1565b6003810361362557505f8061360d613d47565b6001810361363857505f8061360d613fd1565b6002810361364b57505f8061360d613f2e565b6004810361365e57505f8061360d613e8d565b60050361366f575f8061360d613dea565b633655084960e01b5f5260045ffd5b6136a0915060203d6020116136a6575b61369881836110bf565b810190613570565b5f6135cf565b503d61368e565b6002600454146136be576002600455565b633ee5aeb560e01b5f5260045ffd5b5f80916136da6001614116565b602082519201905af4906136ec612b56565b91156136f457565b506148e8565b5f80916136da6003614116565b5f80916136da82614116565b5f80916136da6002614116565b5f80916136da6004614116565b6005546040516306e0faf160e21b8152916020918391829161375c91906001600160a01b031660048401612ab5565b038173__$a9219284c3f0d74f57f4dcfc58f5429559$__5af4908115610a62575f91613786575090565b6108c9915060203d602011610a5b57610a4d81836110bf565b60405163e6a84c7760e01b60208201526001600160a01b0390911660248083019190915281526137d9906137d46044826110bf565b613720565b50565b6001600160a01b0381165f908152600f6020526040902054801515918261382c575b5081613808575090565b90505f52600b60205260405f2054801515908161382457501590565b905042111590565b816138429293505f525f60205260405f20610da2565b541515905f6137fe565b811561388f5761385b906137dc565b6137d957601754156137d95761387761387261491a565b61061f565b50541161388057565b63559d06d760e01b5f5260045ffd5b5050565b9091906001600160a01b03811615612903576138b26110f1935f614998565b916149bd565b9091906001600160a01b03811615612903576138b260016110f194614998565b919291906001600160a01b03821615612903576110f1936138b291614998565b906137d46137d99261074560405193849263a55d613f60e01b602085015260248401612fce565b906137d46137d99261074560405193849263179953bf60e11b602085015260248401612fce565b9160135482810391818311613486576014549080820394828611613486576001600160a01b03871615938415613988575b50505050612f08576110f192614f46565b149250908261399d575b50505f808080613977565b1490505f80613992565b9190820180921161348657565b906001600160a01b03821680158015613ada575b612f08575f527fbe5c2328713858b26c97b83c5ace333ac35b55572be4794180ba426b12cc48be60205260405f2080549282840180941161348657600893613a109255610d6a565b610e1042045f5260205260405f209060098201613a31611560825460ff1690565b613acb575b50613a425f83546139a7565b8255613a53600183019182546139a7565b905560028101613a645f82546139a7565b905560038101613a755f82546139a7565b905560048101613a865f82546139a7565b905560058101613a975f82546139a7565b905560068101613aa85f82546139a7565b905560078101613ab95f82546139a7565b905501613ac75f82546139a7565b9055565b613ad4906145a6565b5f613a36565b5081156139c8565b6006546001600160a01b031680613b4157506005546001600160a01b03165b6003546001600160a01b03163314159081613b2d575b50613b1e57565b630fc5e1ab60e41b5f5260045ffd5b6001600160a01b031633141590505f613b17565b613b01565b6005546001600160a01b03168015818115613bab575b50612ebb575f60049160405192838092634f9e8d1560e11b82525afa908115610a62575f91613b91575b50805115612ebb5790565b613ba591503d805f833e610bd781836110bf565b5f613b86565b90503b155f613b5c565b90916001600160a01b038216918215610881576001600160a01b03821615610881578315610872577f6ac4f60455173f2148d89d52868ac4ffb14111720d245aa36ad26e0d7e64c59b91613c59613c0e613c739361372d565b91613c188361379f565b613c22878461384c565b60135460145491613c3b613c34612a90565b8a87613893565b613c458986614558565b613c4f89866138f8565b6107e4898261503f565b6040519485526001600160a01b0316939081906020820190565b0390a3565b906001600160a01b03821680158015613d3f575b612f08575f527fbe5c2328713858b26c97b83c5ace333ac35b55572be4794180ba426b12cc48bf60205260405f2080549282840180941161348657600893613cea9255613cdd610e10420491610d6a565b905f5260205260405f2090565b9060098201613cfd611560825460ff1690565b613d30575b50613d0e5f83546139a7565b825560018201613d1f5f82546139a7565b9055613a64600283019182546139a7565b613d39906145a6565b5f613d02565b508115613c8c565b613d52600554610532565b6001600160a01b038116908115908115613de0575b50612ebb5760206040518092631927a41b60e21b82528180613d8d600360048301610cd1565b03915afa908115610a62575f91613dc1575b506001600160a01b0381166108c9576252330960e91b5f52600360045260245ffd5b613dda915060203d602011610a5b57610a4d81836110bf565b5f613d9f565b90503b155f613d67565b613df5600554610532565b6001600160a01b038116908115908115613e83575b50612ebb5760206040518092631927a41b60e21b82528180613e30600560048301610cd1565b03915afa908115610a62575f91613e64575b506001600160a01b0381166108c9576252330960e91b5f52600560045260245ffd5b613e7d915060203d602011610a5b57610a4d81836110bf565b5f613e42565b90503b155f613e0a565b613e98600554610532565b6001600160a01b038116908115908115613f24575b50612ebb5760206040518092631927a41b60e21b82528180613ed26004808301610cd1565b03915afa908115610a62575f91613f05575b506001600160a01b0381166108c9576252330960e91b5f526004805260245ffd5b613f1e915060203d602011610a5b57610a4d81836110bf565b5f613ee4565b90503b155f613ead565b613f39600554610532565b6001600160a01b038116908115908115613fc7575b50612ebb5760206040518092631927a41b60e21b82528180613f74600260048301610cd1565b03915afa908115610a62575f91613fa8575b506001600160a01b0381166108c9576252330960e91b5f52600260045260245ffd5b613fc1915060203d602011610a5b57610a4d81836110bf565b5f613f86565b90503b155f613f4e565b613fdc600554610532565b6001600160a01b03811690811590811561406a575b50612ebb5760206040518092631927a41b60e21b82528180614017600160048301610cd1565b03915afa908115610a62575f9161404b575b506001600160a01b0381166108c9576252330960e91b5f52600160045260245ffd5b614064915060203d602011610a5b57610a4d81836110bf565b5f614029565b90503b155f613ff1565b61407f600554610532565b6001600160a01b03811690811590811561410c575b50612ebb5760206040518092631927a41b60e21b825281806140b95f60048301610cd1565b03915afa908115610a62575f916140ed575b506001600160a01b0381166108c9576252330960e91b5f90815260045260245ffd5b614106915060203d602011610a5b57610a4d81836110bf565b5f6140cb565b90503b155f614094565b614121600554610532565b6001600160a01b0381169081159081156141b5575b50612ebb5760206040518092631927a41b60e21b8252818061415b8760048301610cd1565b03915afa908115610a62575f91614196575b506001600160a01b038116614191576252330960e91b5f5260ff821660045260245ffd5b905090565b6141af915060203d602011610a5b57610a4d81836110bf565b5f61416d565b90503b155f614136565b908160a09103126100155780516141d58161058b565b9160208201516141e48161053e565b916040810151916080606083015192015190565b9061422a815f527fbc488d3e2575f0f2113dc4d9a0cd6bc52445c6bc28a8974ed97a6ba3ecfd657d60205260405f2090565b600681015460ff169081156142aa575b5061388f575f91829160405161426a816107456020820194630d61b51960e01b8652602483019190602083019252565b51915af4614276612b56565b90156142a557614292816020806110f1945183010191016141bf565b509290916001600160a01b031690615067565b6148e8565b6005915001547fbc488d3e2575f0f2113dc4d9a0cd6bc52445c6bc28a8974ed97a6ba3ecfd657a54115f61423a565b906137d46137d992610745604051938492635bcc7ca960e11b602085015260248401612fce565b91906001600160a01b038316156128f15761431b905f614998565b925f60405161432b6020826110bf565b5261433884835f846156cd565b9061434e85846143488551610532565b846157a1565b600260ff61435e601a5460ff1690565b1614806144ec575b6144b4575b5f91825b84518410156143be576001906143858589612c03565b51906143af6143948789612c03565b515f525f516020615b1c5f395f51905f5260205260405f2090565b8281540390550193019261436f565b6143dd919492969593505f516020615b7c5f395f51905f525403612acf565b5f9460e084019460c060a086019501965b8651811015614430578061442a61441861440b6001948a51612c03565b516001600160a01b031690565b614423838c51612c03565b519061595a565b016143ee565b509295505f94509250835b81518110156144ab5761444e8183612c03565b511580614498575b6144625760010161443b565b505050905060015b80614480575b6144775750565b6110f190615aa0565b50600160ff614491601a5460ff1690565b1614614470565b506144a38184612c03565b511515614456565b5050509061446a565b6144e6836137d46144c58551610532565b61074589604051948593635d935afb60e01b602086015288602486016150fe565b5061436b565b505f614366565b60205f516020615b5c5f395f51905f5291614529604051633c2f328b60e11b848201526128218161074589898760248501612a5c565b5061454560405161453a84826110bf565b5f81528686846138d8565b6040519485526001600160a01b031693a3565b906137d46137d99261074560405193849263b932546160e01b602085015260248401612fce565b6003546001600160a01b0316330361459357565b63118cdaa760e01b5f523360045260245ffd5b805460ff19166001179055565b60408051630d01186b60e41b81526020600482015293929091849182916145de916024840191613111565b038173__$a9219284c3f0d74f57f4dcfc58f5429559$__5af4918215610a62575f905f9361460b57509190565b9250506040823d60401161464d575b81614627604093836110bf565b8101031261001557602082519261463d8461053e565b0151916146498361053e565b9190565b3d915061461a565b9092959691949396875185510361482257506146709061372d565b9061467a8261379f565b614683826137dc565b5f955f975f5b8a518110156146ce5761469c818c612c03565b51156146ab575b600101614689565b9850966146c3906146bc8a89612c03565b51906139a7565b6001989097906146a3565b5090919294979693961561481a575b5082806147c1575b50505f5b8751811015614772576146fc8186612c03565b5190811561087257600191614711828b612c03565b511561476c5764174876e800614727838c612c03565b5110614748576147429061473b838c612c03565b51896144f3565b016146e9565b61476790614756838c612c03565b5190614760612a90565b918a6138d8565b614742565b50614742565b509195506110f19490939192506001600160a01b038116156147af57905b6013546014549490936147a6576107e49161391f565b6107e4916138f8565b506147bb600354610532565b90614790565b6147ff916147cf828961384c565b6147e16147da612a90565b838a613893565b6001600160a01b03891615614806576147fa828a6139b4565b6150d6565b5f826146e5565b6147fa82614815600354610532565b6139b4565b92505f6146dd565b60405163dccff66960e01b81529081906114639060048301610b36565b61484a600554610532565b6001600160a01b038116919082159081156148de575b50612ebb5760206040518093631927a41b60e21b8252818061488660fe60048301610cd1565b03915afa918215610a62575f926148bd575b506001600160a01b038216158281156148b3575b50612ebb57565b90503b155f6148ac565b6148d791925060203d602011610a5b57610a4d81836110bf565b905f614898565b90503b155f614860565b805190816149155760405163dccff66960e01b815260206004820152908190611463906024830190610b12565b602001fd5b6017548015614992575f906017541561063b5760175f527fc624b66cc0138b8fabc209247f72d758e1cf3343756d543badbf24212bed8c155460015b8281106149635750505090565b8161496d8261061f565b50541061497d575b600101614956565b80935061498a915061061f565b505482614975565b505f1990565b9160405192600184526020840152604083019160018352606084015260808301604052565b9091936149cc8584845f6156cd565b916149e286856149dc8651610532565b5f6157a1565b600260ff6149f2601a5460ff1690565b161480614b9b575b614b63575b5f5b8451811015614a575780614a51614a4c614a1d6001948b612c03565b51614a2b614394858b612c03565b614a368282546139a7565b90555f516020615b7c5f395f51905f52546139a7565b612acf565b01614a01565b509091929360018060a01b038216159586614afc575b5f969560e086019660c060a088019701985b8851811015614aae5780614aa88b61442383614aa161440b6001978f51612c03565b9251612c03565b01614a7f565b5092955092955092955015614ac4575b50505050565b8051600103614aec5790602080614ae395930151910151915f336152c1565b5f808080614abe565b614af7935f336151a3565b614ae3565b9591925f95949195935f945b8651861015614b3c57600190614b1e878b612c03565b5190614b2d614394898b612c03565b82815403905501950194614b08565b614b5e919498929550969295965f516020615b7c5f395f51905f525403612acf565b614a6d565b614b95846137d4614b748651610532565b6107458a604051948593635d935afb60e01b60208601525f602486016150fe565b506149ff565b505f6149fa565b9294919093614bb3868387876156cd565b93614bc387846143488851610532565b6001600160a01b03811615801597908880614f34575b80614e7f575b8080614e65575b614e30575b600260ff614bfb601a5460ff1690565b16149081614e28575b50614df0575b614da7575b6001600160a01b038716159687614d3c575b5f989760e088019860c060a08a0199019a5b8a51811015614c5c5780614c568d61442383614aa18f60019761440b9151612c03565b01614c33565b509295985092959850929550614cb1575b15614c7a575b5050505050565b8451600103614ca057602080614c9696015192015192336152c1565b5f80808080614c73565b614cac949192336151a3565b614c96565b94939291905f955f5b8651811015614d3057614ccd8188612c03565b511580614d1d575b614ce157600101614cba565b509091929394955060015b80614d05575b15614c6d57614d0084615aa0565b614c6d565b50600160ff614d16601a5460ff1690565b1614614cf2565b50614d288185612c03565b511515614cd5565b50909192939495614cec565b96925f98949692959198955f965b8851881015614d7e57600190614d60898d612c03565b5190614d6f6143948b8d612c03565b82815403905501970196614d4a565b614da2919498969a939750989194985f516020615b7c5f395f51905f525403612acf565b614c21565b94915f9794919693975b8851811015614de25780614ddc614a4c8b614a2b61439485614dd56001988f612c03565b5193612c03565b01614db1565b509194969295909396614c0f565b614e22856137d4614e018a51610532565b61074586604051948593635d935afb60e01b60208601528a602486016150fe565b50614c0a565b90505f614c04565b614e60614e4060208a0151610532565b614e4d60408b0151610532565b60608b01519060808c0151928d896159f5565b614beb565b506060880151151580614be6575060808801511515614be6565b979295919893905f985f995b87518b1015614f0e57614e9e8b89612c03565b51908c606483108015614eff575b614ef4578c614eba91612c03565b5115614eea575080614ecf614ede928b61595a565b614ed98b51610532565b615981565b6001809a5b0199614e8b565b9a60019150614ee3565b509a60019150614ee3565b5064174876e800831015614eac565b909192959a939794995015614bdf57614f2f614f2a8951610532565b61379f565b614bdf565b506001600160a01b0388161515614bd9565b6001600160a01b03811615801561502e575b612f0857613ac791614f6b600892610d6a565b610e1042045f5260205260405f209060098201614f8c611560825460ff1690565b61501f575b50614f9d5f83546139a7565b825560018201614fae5f82546139a7565b905560028201614fbf5f82546139a7565b905560038201614fd05f82546139a7565b905560048201614fe15f82546139a7565b905560058201614ff25f82546139a7565b9055600682016150035f82546139a7565b9055615014600783019182546139a7565b9055019182546139a7565b615028906145a6565b5f614f91565b5081158015614f5857508215614f58565b906001600160a01b03821615801561505f575b61388f576110f19161535f565b508015615052565b9092906001600160e01b031916630b18ae1d60e11b810361509157632bb82cb360e01b5f5260045ffd5b631cb4772560e21b81036150bd575050906110f191604051916150b56020846110bf565b5f8352613893565b90915063178fb21b60e11b03611c57576110f1916142d9565b906001600160a01b0382161580156150f6575b61388f576110f191615465565b5080156150e9565b6001600160a01b039182168152911660208201526080604082018190526108c993919261512d9184019061168d565b91606081840391015261168d565b9081602091031261001557516108c98161058b565b6001600160a01b0391821681529116602082015260a0604082018190526108c994919391926151959291615187919086019061168d565b90848203606086015261168d565b916080818403910152610b12565b9091949293853b6151b7575b505050505050565b6020936151d991604051968795869563bc197c8160e01b875260048701615150565b03815f6001600160a01b0387165af15f9181615257575b5061522157506151fe612b56565b805191908261521a57632bfa23e760e11b5f526135f882610cf9565b6020915001fd5b6001600160e01b0319166343e6837f60e01b0161524457505f80808080806151af565b632bfa23e760e11b5f526135f890610cf9565b61527a91925060203d602011615281575b61527281836110bf565b81019061513b565b905f6151f0565b503d615268565b6001600160a01b039182168152911660208201526040810191909152606081019190915260a0608082018190526108c992910190610b12565b9091949293853b6152d457505050505050565b6020936152f691604051968795869563f23a6e6160e01b875260048701615288565b03815f6001600160a01b0387165af15f918161533e575b5061531b57506151fe612b56565b6001600160e01b031916630dc5919f60e01b0161524457505f80808080806151af565b61535891925060203d6020116152815761527281836110bf565b905f61530d565b906001600160a01b0382168015801561545d575b612f08575f527fbe5c2328713858b26c97b83c5ace333ac35b55572be4794180ba426b12cc48c360205260405f20805492828401809411613486576008936153c49255613cdd610e10420491610d6a565b90600982016153d7611560825460ff1690565b61544e575b506153e85f83546139a7565b8255600182016153f95f82546139a7565b90556002820161540a5f82546139a7565b90556003820161541b5f82546139a7565b90556004820161542c5f82546139a7565b90556005820161543d5f82546139a7565b9055613aa8600683019182546139a7565b615457906145a6565b5f6153dc565b508115615373565b906001600160a01b03821680158015615552575b612f08575f527fbe5c2328713858b26c97b83c5ace333ac35b55572be4794180ba426b12cc48c260205260405f20805492828401809411613486576008936154ca9255613cdd610e10420491610d6a565b90600982016154dd611560825460ff1690565b615543575b506154ee5f83546139a7565b8255600182016154ff5f82546139a7565b9055600282016155105f82546139a7565b9055600382016155215f82546139a7565b9055600482016155325f82546139a7565b9055613a97600583019182546139a7565b61554c906145a6565b5f6154e2565b508115615479565b9080601f8301121561001557815161557181611103565b9261557f60405194856110bf565b81845260208085019260051b82010192831161001557602001905b8282106155a75750505090565b6020809183516155b68161053e565b81520191019061559a565b602081830312610015578051906001600160401b03821161001557019061010082820312610015576155f16110f3565b916155fb81612d18565b835261560960208201612d18565b602084015261561a60408201612d18565b6040840152606081810151908401526080808201519084015260a08101516001600160401b038111610015578261565291830161555a565b60a084015260c08101516001600160401b0381116100155760e092615678918301613366565b60c0840152015160e082015290565b6001600160a01b0391821681529181166020830152909116604082015260a0606082018190526108c99391926156bf9184019061168d565b91608081840391015261168d565b9092916157365f938460e06040516156e4816110a3565b828152826020820152826040820152826060820152826080820152606060a0820152606060c0820152015261571a600554610532565b604051637bd8ece960e11b815296879586959260048701615687565b038173__$a9219284c3f0d74f57f4dcfc58f5429559$__5af4908115610a62575f91615760575090565b6108c991503d805f833e61577481836110bf565b8101906155c1565b90916157936108c99360408452604084019061168d565b91602081840391015261168d565b93929180518351908181036159455750505f5b81518110156158a0578060051b90602080838501015192860101518460018060a01b038916615823575b6001936001600160a01b0382166157f9575b505050016157b4565b615819916107f2615811925f525f60205260405f2090565b9182546139a7565b90555f84816157f0565b50909161583b886107f2835f525f60205260405f2090565b54828110615869578291600194938792036158618b6107f2845f525f60205260405f2090565b5593506157de565b6040516303dee4c560e01b81526001600160a01b038a16600482015260248101919091526044810183905260648101829052608490fd5b508051939493919291600103615902576020908101519101516040516001600160a01b03938416949093169233927fc3d58168c5ae7397731d063d5bbf3d657854427343f4c083240f7aacaa2d0f629282916158fd919083612aa4565b0390a4565b6040516001600160a01b03938416949093169233927f4a39dc06d4c0dbc64b70af90fd698a233a518aa5d07e595d983b8c0526c8f7fb9282916158fd918361577c565b635b05999160e01b5f5260045260245260445ffd5b906137d46137d992610745604051938492637e4152e760e11b602085015260248401612fce565b6001600160a01b03165f908152600e60205260408120805490915b8181106159d65750600160401b81101561109e576159bf91600182018155610db7565b819291549060031b91821b915f19901b1916179055565b836159e18285610db7565b90549060031b1c14614abe5760010161599c565b6003549295919392909173__$a9219284c3f0d74f57f4dcfc58f5429559$__916001600160a01b031690823b156100155760405163451cddf960e11b81526001600160a01b03948516600482015295841660248701529683166044860152929091166064840152608483019390935260a482019390935260c48101929092525f90829060e49082905af48015610a6257615a8c5750565b80615a9a5f6110f1936110bf565b80610cc7565b60405163adebc2d360e01b60208201526001600160a01b0390911660248201525f60448083019190915281526137d9906137d46064826110bf56fe3bf2de114e2e7636c289f21be023528e47d89b45e873b976c78989c3ddc683f53e38a9410c08ddb4af8b083bfd2b197b1c3e61a651bd1c54c51ebce0cdcdc48ed34312c2e21f45f2b6715cf87d9e919b2098c835582e2b5c6e716490b0dfd0d48be0079c531659141344cd1fd0a4f28419497f9722a3daafe3b4186f6b6457e0ae2f87dbf103db294ddd4ab45caa7a914d70bb3d06eeb8a8dc23e03e84548c8dd34312c2e21f45f2b6715cf87d9e919b2098c835582e2b5c6e716490b0dfd0d5ad3228b676f7d3cd4284a5443f17f1962b36e491b30a40b2405849e597ba5fb5a164736f6c6343000821000abc488d3e2575f0f2113dc4d9a0cd6bc52445c6bc28a8974ed97a6ba3ecfd657c",
  "linkReferences": {
    "project/src/BeamioUserCard/BeamioUserCardFormattingLib.sol": {
      "BeamioUserCardFormattingLib": [
        {
          "length": 20,
          "start": 4013
        }
      ]
    },
    "project/src/BeamioUserCard/BeamioUserCardTransferLib.sol": {
      "BeamioUserCardTransferLib": [
        {
          "length": 20,
          "start": 3600
        },
        {
          "length": 20,
          "start": 15229
        },
        {
          "length": 20,
          "start": 18943
        },
        {
          "length": 20,
          "start": 23383
        },
        {
          "length": 20,
          "start": 24094
        }
      ]
    }
  },
  "deployedLinkReferences": {
    "project/src/BeamioUserCard/BeamioUserCardFormattingLib.sol": {
      "BeamioUserCardFormattingLib": [
        {
          "length": 20,
          "start": 2960
        }
      ]
    },
    "project/src/BeamioUserCard/BeamioUserCardTransferLib.sol": {
      "BeamioUserCardTransferLib": [
        {
          "length": 20,
          "start": 2547
        },
        {
          "length": 20,
          "start": 14176
        },
        {
          "length": 20,
          "start": 17890
        },
        {
          "length": 20,
          "start": 22330
        },
        {
          "length": 20,
          "start": 23041
        }
      ]
    }
  },
  "immutableReferences": {
    "19841": [
      {
        "length": 32,
        "start": 9827
      }
    ]
  },
  "inputSourceName": "project/src/BeamioUserCard/BeamioUserCard.sol",
  "buildInfoId": "solc-0_8_33-952ce3c6c8cf715b8d678bfce9b318ee3c4fd06d"
}