{
  "_format": "hh3-artifact-1",
  "contractName": "BeamioAccount",
  "sourceName": "src/BeamioAccount/BeamioAccount.sol",
  "abi": [
    {
      "inputs": [
        {
          "internalType": "contract IEntryPointV07",
          "name": "ep",
          "type": "address"
        }
      ],
      "stateMutability": "nonpayable",
      "type": "constructor"
    },
    {
      "inputs": [],
      "name": "AlreadyInitialized",
      "type": "error"
    },
    {
      "inputs": [],
      "name": "ECDSAInvalidSignature",
      "type": "error"
    },
    {
      "inputs": [
        {
          "internalType": "uint256",
          "name": "length",
          "type": "uint256"
        }
      ],
      "name": "ECDSAInvalidSignatureLength",
      "type": "error"
    },
    {
      "inputs": [
        {
          "internalType": "bytes32",
          "name": "s",
          "type": "bytes32"
        }
      ],
      "name": "ECDSAInvalidSignatureS",
      "type": "error"
    },
    {
      "inputs": [],
      "name": "LenMismatch",
      "type": "error"
    },
    {
      "inputs": [],
      "name": "NotAuthorized",
      "type": "error"
    },
    {
      "inputs": [],
      "name": "NotEntryPoint",
      "type": "error"
    },
    {
      "inputs": [],
      "name": "NotFactory",
      "type": "error"
    },
    {
      "inputs": [
        {
          "internalType": "address",
          "name": "got",
          "type": "address"
        },
        {
          "internalType": "address",
          "name": "expected",
          "type": "address"
        }
      ],
      "name": "PMD_BadPaymaster",
      "type": "error"
    },
    {
      "inputs": [
        {
          "internalType": "uint256",
          "name": "len",
          "type": "uint256"
        }
      ],
      "name": "PMD_TooShort",
      "type": "error"
    },
    {
      "inputs": [],
      "name": "ZeroAddress",
      "type": "error"
    },
    {
      "anonymous": false,
      "inputs": [
        {
          "indexed": true,
          "internalType": "address",
          "name": "oldFactory",
          "type": "address"
        },
        {
          "indexed": true,
          "internalType": "address",
          "name": "newFactory",
          "type": "address"
        }
      ],
      "name": "FactoryUpdated",
      "type": "event"
    },
    {
      "anonymous": false,
      "inputs": [
        {
          "indexed": true,
          "internalType": "address",
          "name": "owner",
          "type": "address"
        },
        {
          "indexed": true,
          "internalType": "address",
          "name": "factory",
          "type": "address"
        },
        {
          "indexed": false,
          "internalType": "address",
          "name": "entryPoint",
          "type": "address"
        }
      ],
      "name": "Initialized",
      "type": "event"
    },
    {
      "anonymous": false,
      "inputs": [
        {
          "indexed": true,
          "internalType": "bytes32",
          "name": "managersHash",
          "type": "bytes32"
        },
        {
          "indexed": false,
          "internalType": "uint256",
          "name": "threshold",
          "type": "uint256"
        }
      ],
      "name": "ThresholdPolicyUpdated",
      "type": "event"
    },
    {
      "inputs": [
        {
          "internalType": "string",
          "name": "code",
          "type": "string"
        }
      ],
      "name": "cancelFaucetPool",
      "outputs": [],
      "stateMutability": "nonpayable",
      "type": "function"
    },
    {
      "inputs": [
        {
          "internalType": "string",
          "name": "code",
          "type": "string"
        }
      ],
      "name": "cancelFaucetPoolFromEntryPoint",
      "outputs": [],
      "stateMutability": "nonpayable",
      "type": "function"
    },
    {
      "inputs": [
        {
          "internalType": "string",
          "name": "code",
          "type": "string"
        }
      ],
      "name": "cancelRedeem",
      "outputs": [],
      "stateMutability": "nonpayable",
      "type": "function"
    },
    {
      "inputs": [
        {
          "internalType": "string",
          "name": "code",
          "type": "string"
        }
      ],
      "name": "cancelRedeemFromEntryPoint",
      "outputs": [],
      "stateMutability": "nonpayable",
      "type": "function"
    },
    {
      "inputs": [
        {
          "internalType": "address",
          "name": "beneficiary",
          "type": "address"
        },
        {
          "internalType": "uint256",
          "name": "index",
          "type": "uint256"
        }
      ],
      "name": "cancelReserve",
      "outputs": [],
      "stateMutability": "nonpayable",
      "type": "function"
    },
    {
      "inputs": [
        {
          "internalType": "address",
          "name": "beneficiary",
          "type": "address"
        },
        {
          "internalType": "uint256",
          "name": "index",
          "type": "uint256"
        }
      ],
      "name": "cancelReserveFromEntryPoint",
      "outputs": [],
      "stateMutability": "nonpayable",
      "type": "function"
    },
    {
      "inputs": [
        {
          "internalType": "address",
          "name": "to",
          "type": "address"
        },
        {
          "components": [
            {
              "internalType": "enum AssetKind",
              "name": "kind",
              "type": "uint8"
            },
            {
              "internalType": "address",
              "name": "asset",
              "type": "address"
            },
            {
              "internalType": "uint256",
              "name": "amount",
              "type": "uint256"
            },
            {
              "internalType": "uint256",
              "name": "tokenId",
              "type": "uint256"
            },
            {
              "internalType": "bytes",
              "name": "data",
              "type": "bytes"
            }
          ],
          "internalType": "struct ContainerItem[]",
          "name": "items",
          "type": "tuple[]"
        },
        {
          "internalType": "uint256",
          "name": "nonce_",
          "type": "uint256"
        },
        {
          "internalType": "uint256",
          "name": "deadline_",
          "type": "uint256"
        },
        {
          "internalType": "bytes",
          "name": "sig",
          "type": "bytes"
        }
      ],
      "name": "containerMainRelayed",
      "outputs": [],
      "stateMutability": "nonpayable",
      "type": "function"
    },
    {
      "inputs": [
        {
          "internalType": "address",
          "name": "to",
          "type": "address"
        },
        {
          "components": [
            {
              "internalType": "enum AssetKind",
              "name": "kind",
              "type": "uint8"
            },
            {
              "internalType": "address",
              "name": "asset",
              "type": "address"
            },
            {
              "internalType": "uint256",
              "name": "amount",
              "type": "uint256"
            },
            {
              "internalType": "uint256",
              "name": "tokenId",
              "type": "uint256"
            },
            {
              "internalType": "bytes",
              "name": "data",
              "type": "bytes"
            }
          ],
          "internalType": "struct ContainerItem[]",
          "name": "items",
          "type": "tuple[]"
        },
        {
          "internalType": "uint256",
          "name": "nonce_",
          "type": "uint256"
        },
        {
          "internalType": "uint256",
          "name": "deadline_",
          "type": "uint256"
        },
        {
          "internalType": "bytes",
          "name": "sig",
          "type": "bytes"
        }
      ],
      "name": "containerMainRelayedFromEntryPoint",
      "outputs": [],
      "stateMutability": "nonpayable",
      "type": "function"
    },
    {
      "inputs": [
        {
          "internalType": "address",
          "name": "to",
          "type": "address"
        },
        {
          "components": [
            {
              "internalType": "enum AssetKind",
              "name": "kind",
              "type": "uint8"
            },
            {
              "internalType": "address",
              "name": "asset",
              "type": "address"
            },
            {
              "internalType": "uint256",
              "name": "amount",
              "type": "uint256"
            },
            {
              "internalType": "uint256",
              "name": "tokenId",
              "type": "uint256"
            },
            {
              "internalType": "bytes",
              "name": "data",
              "type": "bytes"
            }
          ],
          "internalType": "struct ContainerItem[]",
          "name": "items",
          "type": "tuple[]"
        },
        {
          "internalType": "uint8",
          "name": "currencyType",
          "type": "uint8"
        },
        {
          "internalType": "uint256",
          "name": "maxAmount",
          "type": "uint256"
        },
        {
          "internalType": "uint256",
          "name": "nonce_",
          "type": "uint256"
        },
        {
          "internalType": "uint256",
          "name": "deadline_",
          "type": "uint256"
        },
        {
          "internalType": "bytes",
          "name": "sig",
          "type": "bytes"
        }
      ],
      "name": "containerMainRelayedOpen",
      "outputs": [],
      "stateMutability": "nonpayable",
      "type": "function"
    },
    {
      "inputs": [
        {
          "internalType": "address",
          "name": "to",
          "type": "address"
        },
        {
          "components": [
            {
              "internalType": "enum AssetKind",
              "name": "kind",
              "type": "uint8"
            },
            {
              "internalType": "address",
              "name": "asset",
              "type": "address"
            },
            {
              "internalType": "uint256",
              "name": "amount",
              "type": "uint256"
            },
            {
              "internalType": "uint256",
              "name": "tokenId",
              "type": "uint256"
            },
            {
              "internalType": "bytes",
              "name": "data",
              "type": "bytes"
            }
          ],
          "internalType": "struct ContainerItem[]",
          "name": "items",
          "type": "tuple[]"
        },
        {
          "internalType": "uint8",
          "name": "currencyType",
          "type": "uint8"
        },
        {
          "internalType": "uint256",
          "name": "maxAmount",
          "type": "uint256"
        },
        {
          "internalType": "uint256",
          "name": "nonce_",
          "type": "uint256"
        },
        {
          "internalType": "uint256",
          "name": "deadline_",
          "type": "uint256"
        },
        {
          "internalType": "bytes",
          "name": "sig",
          "type": "bytes"
        }
      ],
      "name": "containerMainRelayedOpenFromEntryPoint",
      "outputs": [],
      "stateMutability": "nonpayable",
      "type": "function"
    },
    {
      "inputs": [
        {
          "internalType": "address",
          "name": "pointsTo",
          "type": "address"
        },
        {
          "components": [
            {
              "internalType": "enum AssetKind",
              "name": "kind",
              "type": "uint8"
            },
            {
              "internalType": "address",
              "name": "asset",
              "type": "address"
            },
            {
              "internalType": "uint256",
              "name": "amount",
              "type": "uint256"
            },
            {
              "internalType": "uint256",
              "name": "tokenId",
              "type": "uint256"
            },
            {
              "internalType": "bytes",
              "name": "data",
              "type": "bytes"
            }
          ],
          "internalType": "struct ContainerItem[]",
          "name": "items",
          "type": "tuple[]"
        },
        {
          "internalType": "uint8",
          "name": "currencyType",
          "type": "uint8"
        },
        {
          "internalType": "uint256",
          "name": "maxAmount",
          "type": "uint256"
        },
        {
          "internalType": "uint256",
          "name": "nonce_",
          "type": "uint256"
        },
        {
          "internalType": "uint256",
          "name": "deadline_",
          "type": "uint256"
        },
        {
          "internalType": "bytes",
          "name": "sig",
          "type": "bytes"
        }
      ],
      "name": "containerMainRelayedOpenUsdcTopupThenPoints",
      "outputs": [],
      "stateMutability": "nonpayable",
      "type": "function"
    },
    {
      "inputs": [
        {
          "internalType": "address",
          "name": "pointsTo",
          "type": "address"
        },
        {
          "components": [
            {
              "internalType": "enum AssetKind",
              "name": "kind",
              "type": "uint8"
            },
            {
              "internalType": "address",
              "name": "asset",
              "type": "address"
            },
            {
              "internalType": "uint256",
              "name": "amount",
              "type": "uint256"
            },
            {
              "internalType": "uint256",
              "name": "tokenId",
              "type": "uint256"
            },
            {
              "internalType": "bytes",
              "name": "data",
              "type": "bytes"
            }
          ],
          "internalType": "struct ContainerItem[]",
          "name": "items",
          "type": "tuple[]"
        },
        {
          "internalType": "uint8",
          "name": "currencyType",
          "type": "uint8"
        },
        {
          "internalType": "uint256",
          "name": "maxAmount",
          "type": "uint256"
        },
        {
          "internalType": "uint256",
          "name": "nonce_",
          "type": "uint256"
        },
        {
          "internalType": "uint256",
          "name": "deadline_",
          "type": "uint256"
        },
        {
          "internalType": "bytes",
          "name": "sig",
          "type": "bytes"
        }
      ],
      "name": "containerMainRelayedOpenUsdcTopupThenPointsFromEntryPoint",
      "outputs": [],
      "stateMutability": "nonpayable",
      "type": "function"
    },
    {
      "inputs": [
        {
          "internalType": "bytes32",
          "name": "passwordHash",
          "type": "bytes32"
        },
        {
          "internalType": "uint32",
          "name": "totalCount",
          "type": "uint32"
        },
        {
          "internalType": "uint64",
          "name": "expiry",
          "type": "uint64"
        },
        {
          "components": [
            {
              "internalType": "enum AssetKind",
              "name": "kind",
              "type": "uint8"
            },
            {
              "internalType": "address",
              "name": "asset",
              "type": "address"
            },
            {
              "internalType": "uint256",
              "name": "amount",
              "type": "uint256"
            },
            {
              "internalType": "uint256",
              "name": "tokenId",
              "type": "uint256"
            },
            {
              "internalType": "bytes",
              "name": "data",
              "type": "bytes"
            }
          ],
          "internalType": "struct ContainerItem[]",
          "name": "items",
          "type": "tuple[]"
        }
      ],
      "name": "createFaucetPool",
      "outputs": [],
      "stateMutability": "nonpayable",
      "type": "function"
    },
    {
      "inputs": [
        {
          "internalType": "bytes32",
          "name": "passwordHash",
          "type": "bytes32"
        },
        {
          "internalType": "uint32",
          "name": "totalCount",
          "type": "uint32"
        },
        {
          "internalType": "uint64",
          "name": "expiry",
          "type": "uint64"
        },
        {
          "components": [
            {
              "internalType": "enum AssetKind",
              "name": "kind",
              "type": "uint8"
            },
            {
              "internalType": "address",
              "name": "asset",
              "type": "address"
            },
            {
              "internalType": "uint256",
              "name": "amount",
              "type": "uint256"
            },
            {
              "internalType": "uint256",
              "name": "tokenId",
              "type": "uint256"
            },
            {
              "internalType": "bytes",
              "name": "data",
              "type": "bytes"
            }
          ],
          "internalType": "struct ContainerItem[]",
          "name": "items",
          "type": "tuple[]"
        }
      ],
      "name": "createFaucetPoolFromEntryPoint",
      "outputs": [],
      "stateMutability": "nonpayable",
      "type": "function"
    },
    {
      "inputs": [
        {
          "internalType": "bytes32",
          "name": "passwordHash",
          "type": "bytes32"
        },
        {
          "internalType": "address",
          "name": "to",
          "type": "address"
        },
        {
          "components": [
            {
              "internalType": "enum AssetKind",
              "name": "kind",
              "type": "uint8"
            },
            {
              "internalType": "address",
              "name": "asset",
              "type": "address"
            },
            {
              "internalType": "uint256",
              "name": "amount",
              "type": "uint256"
            },
            {
              "internalType": "uint256",
              "name": "tokenId",
              "type": "uint256"
            },
            {
              "internalType": "bytes",
              "name": "data",
              "type": "bytes"
            }
          ],
          "internalType": "struct ContainerItem[]",
          "name": "items",
          "type": "tuple[]"
        },
        {
          "internalType": "uint64",
          "name": "expiry",
          "type": "uint64"
        }
      ],
      "name": "createRedeem",
      "outputs": [],
      "stateMutability": "nonpayable",
      "type": "function"
    },
    {
      "inputs": [
        {
          "internalType": "bytes32",
          "name": "passwordHash",
          "type": "bytes32"
        },
        {
          "internalType": "address",
          "name": "to",
          "type": "address"
        },
        {
          "components": [
            {
              "internalType": "enum AssetKind",
              "name": "kind",
              "type": "uint8"
            },
            {
              "internalType": "address",
              "name": "asset",
              "type": "address"
            },
            {
              "internalType": "uint256",
              "name": "amount",
              "type": "uint256"
            },
            {
              "internalType": "uint256",
              "name": "tokenId",
              "type": "uint256"
            },
            {
              "internalType": "bytes",
              "name": "data",
              "type": "bytes"
            }
          ],
          "internalType": "struct ContainerItem[]",
          "name": "items",
          "type": "tuple[]"
        },
        {
          "internalType": "uint64",
          "name": "expiry",
          "type": "uint64"
        }
      ],
      "name": "createRedeemFromEntryPoint",
      "outputs": [],
      "stateMutability": "nonpayable",
      "type": "function"
    },
    {
      "inputs": [
        {
          "components": [
            {
              "internalType": "enum AssetKind",
              "name": "kind",
              "type": "uint8"
            },
            {
              "internalType": "address",
              "name": "asset",
              "type": "address"
            },
            {
              "internalType": "uint256",
              "name": "amount",
              "type": "uint256"
            },
            {
              "internalType": "uint256",
              "name": "tokenId",
              "type": "uint256"
            },
            {
              "internalType": "bytes",
              "name": "data",
              "type": "bytes"
            }
          ],
          "internalType": "struct ContainerItem[]",
          "name": "items",
          "type": "tuple[]"
        },
        {
          "internalType": "address",
          "name": "beneficiary",
          "type": "address"
        },
        {
          "internalType": "uint32",
          "name": "cancelWindowSeconds",
          "type": "uint32"
        }
      ],
      "name": "createReserve",
      "outputs": [],
      "stateMutability": "nonpayable",
      "type": "function"
    },
    {
      "inputs": [
        {
          "components": [
            {
              "internalType": "enum AssetKind",
              "name": "kind",
              "type": "uint8"
            },
            {
              "internalType": "address",
              "name": "asset",
              "type": "address"
            },
            {
              "internalType": "uint256",
              "name": "amount",
              "type": "uint256"
            },
            {
              "internalType": "uint256",
              "name": "tokenId",
              "type": "uint256"
            },
            {
              "internalType": "bytes",
              "name": "data",
              "type": "bytes"
            }
          ],
          "internalType": "struct ContainerItem[]",
          "name": "items",
          "type": "tuple[]"
        },
        {
          "internalType": "address",
          "name": "beneficiary",
          "type": "address"
        },
        {
          "internalType": "uint32",
          "name": "cancelWindowSeconds",
          "type": "uint32"
        }
      ],
      "name": "createReserveFromEntryPoint",
      "outputs": [],
      "stateMutability": "nonpayable",
      "type": "function"
    },
    {
      "inputs": [],
      "name": "entryPoint",
      "outputs": [
        {
          "internalType": "contract IEntryPointV07",
          "name": "",
          "type": "address"
        }
      ],
      "stateMutability": "view",
      "type": "function"
    },
    {
      "inputs": [
        {
          "internalType": "address",
          "name": "beneficiary",
          "type": "address"
        },
        {
          "internalType": "uint256",
          "name": "index",
          "type": "uint256"
        }
      ],
      "name": "execReserve",
      "outputs": [],
      "stateMutability": "nonpayable",
      "type": "function"
    },
    {
      "inputs": [
        {
          "internalType": "address",
          "name": "dest",
          "type": "address"
        },
        {
          "internalType": "uint256",
          "name": "value",
          "type": "uint256"
        },
        {
          "internalType": "bytes",
          "name": "func",
          "type": "bytes"
        }
      ],
      "name": "execute",
      "outputs": [],
      "stateMutability": "nonpayable",
      "type": "function"
    },
    {
      "inputs": [
        {
          "internalType": "address[]",
          "name": "dest",
          "type": "address[]"
        },
        {
          "internalType": "uint256[]",
          "name": "value",
          "type": "uint256[]"
        },
        {
          "internalType": "bytes[]",
          "name": "func",
          "type": "bytes[]"
        }
      ],
      "name": "executeBatch",
      "outputs": [],
      "stateMutability": "nonpayable",
      "type": "function"
    },
    {
      "inputs": [
        {
          "internalType": "bytes",
          "name": "data",
          "type": "bytes"
        }
      ],
      "name": "executeFromFactory",
      "outputs": [],
      "stateMutability": "nonpayable",
      "type": "function"
    },
    {
      "inputs": [],
      "name": "factory",
      "outputs": [
        {
          "internalType": "address",
          "name": "",
          "type": "address"
        }
      ],
      "stateMutability": "view",
      "type": "function"
    },
    {
      "inputs": [
        {
          "internalType": "string",
          "name": "password",
          "type": "string"
        },
        {
          "internalType": "address",
          "name": "claimer",
          "type": "address"
        },
        {
          "internalType": "address",
          "name": "to",
          "type": "address"
        },
        {
          "components": [
            {
              "internalType": "enum AssetKind",
              "name": "kind",
              "type": "uint8"
            },
            {
              "internalType": "address",
              "name": "asset",
              "type": "address"
            },
            {
              "internalType": "uint256",
              "name": "amount",
              "type": "uint256"
            },
            {
              "internalType": "uint256",
              "name": "tokenId",
              "type": "uint256"
            },
            {
              "internalType": "bytes",
              "name": "data",
              "type": "bytes"
            }
          ],
          "internalType": "struct ContainerItem[]",
          "name": "items",
          "type": "tuple[]"
        }
      ],
      "name": "faucetRedeemPool",
      "outputs": [],
      "stateMutability": "nonpayable",
      "type": "function"
    },
    {
      "inputs": [
        {
          "internalType": "enum IBeamioAccountAssetBalanceV07.AssetKind",
          "name": "kind",
          "type": "uint8"
        },
        {
          "internalType": "address",
          "name": "asset",
          "type": "address"
        },
        {
          "internalType": "uint256",
          "name": "tokenId",
          "type": "uint256"
        }
      ],
      "name": "getAssetBalanceView",
      "outputs": [
        {
          "components": [
            {
              "internalType": "uint256",
              "name": "total",
              "type": "uint256"
            },
            {
              "internalType": "uint256",
              "name": "reserved",
              "type": "uint256"
            },
            {
              "internalType": "uint256",
              "name": "spendable",
              "type": "uint256"
            }
          ],
          "internalType": "struct IBeamioAccountAssetBalanceV07.AssetBalanceView",
          "name": "out",
          "type": "tuple"
        }
      ],
      "stateMutability": "view",
      "type": "function"
    },
    {
      "inputs": [
        {
          "internalType": "address",
          "name": "_owner",
          "type": "address"
        },
        {
          "internalType": "address[]",
          "name": "managersSorted",
          "type": "address[]"
        },
        {
          "internalType": "uint256",
          "name": "_threshold",
          "type": "uint256"
        },
        {
          "internalType": "address",
          "name": "_factory",
          "type": "address"
        }
      ],
      "name": "initialize",
      "outputs": [],
      "stateMutability": "nonpayable",
      "type": "function"
    },
    {
      "inputs": [
        {
          "internalType": "address",
          "name": "",
          "type": "address"
        }
      ],
      "name": "isThresholdManager",
      "outputs": [
        {
          "internalType": "bool",
          "name": "",
          "type": "bool"
        }
      ],
      "stateMutability": "view",
      "type": "function"
    },
    {
      "inputs": [
        {
          "internalType": "bytes32",
          "name": "hash",
          "type": "bytes32"
        },
        {
          "internalType": "bytes",
          "name": "signature",
          "type": "bytes"
        }
      ],
      "name": "isValidSignature",
      "outputs": [
        {
          "internalType": "bytes4",
          "name": "",
          "type": "bytes4"
        }
      ],
      "stateMutability": "view",
      "type": "function"
    },
    {
      "inputs": [
        {
          "internalType": "address",
          "name": "",
          "type": "address"
        },
        {
          "internalType": "address",
          "name": "",
          "type": "address"
        },
        {
          "internalType": "uint256[]",
          "name": "",
          "type": "uint256[]"
        },
        {
          "internalType": "uint256[]",
          "name": "",
          "type": "uint256[]"
        },
        {
          "internalType": "bytes",
          "name": "",
          "type": "bytes"
        }
      ],
      "name": "onERC1155BatchReceived",
      "outputs": [
        {
          "internalType": "bytes4",
          "name": "",
          "type": "bytes4"
        }
      ],
      "stateMutability": "nonpayable",
      "type": "function"
    },
    {
      "inputs": [
        {
          "internalType": "address",
          "name": "",
          "type": "address"
        },
        {
          "internalType": "address",
          "name": "",
          "type": "address"
        },
        {
          "internalType": "uint256",
          "name": "",
          "type": "uint256"
        },
        {
          "internalType": "uint256",
          "name": "",
          "type": "uint256"
        },
        {
          "internalType": "bytes",
          "name": "",
          "type": "bytes"
        }
      ],
      "name": "onERC1155Received",
      "outputs": [
        {
          "internalType": "bytes4",
          "name": "",
          "type": "bytes4"
        }
      ],
      "stateMutability": "nonpayable",
      "type": "function"
    },
    {
      "inputs": [],
      "name": "openRelayedNonce",
      "outputs": [
        {
          "internalType": "uint256",
          "name": "",
          "type": "uint256"
        }
      ],
      "stateMutability": "view",
      "type": "function"
    },
    {
      "inputs": [],
      "name": "owner",
      "outputs": [
        {
          "internalType": "address",
          "name": "",
          "type": "address"
        }
      ],
      "stateMutability": "view",
      "type": "function"
    },
    {
      "inputs": [
        {
          "internalType": "string",
          "name": "password",
          "type": "string"
        },
        {
          "internalType": "address",
          "name": "to",
          "type": "address"
        }
      ],
      "name": "redeem",
      "outputs": [],
      "stateMutability": "nonpayable",
      "type": "function"
    },
    {
      "inputs": [],
      "name": "relayedNonce",
      "outputs": [
        {
          "internalType": "uint256",
          "name": "",
          "type": "uint256"
        }
      ],
      "stateMutability": "view",
      "type": "function"
    },
    {
      "inputs": [
        {
          "internalType": "address",
          "name": "beneficiary",
          "type": "address"
        }
      ],
      "name": "searchReserve",
      "outputs": [
        {
          "internalType": "uint256[]",
          "name": "index",
          "type": "uint256[]"
        },
        {
          "internalType": "bytes[]",
          "name": "itemBundles",
          "type": "bytes[]"
        },
        {
          "internalType": "uint8[]",
          "name": "execStatus",
          "type": "uint8[]"
        },
        {
          "internalType": "string[]",
          "name": "statusLabel",
          "type": "string[]"
        }
      ],
      "stateMutability": "nonpayable",
      "type": "function"
    },
    {
      "inputs": [
        {
          "internalType": "address",
          "name": "newFactory",
          "type": "address"
        }
      ],
      "name": "setFactory",
      "outputs": [],
      "stateMutability": "nonpayable",
      "type": "function"
    },
    {
      "inputs": [
        {
          "internalType": "address[]",
          "name": "managersSorted",
          "type": "address[]"
        },
        {
          "internalType": "uint256",
          "name": "newThreshold",
          "type": "uint256"
        }
      ],
      "name": "setThresholdPolicy",
      "outputs": [],
      "stateMutability": "nonpayable",
      "type": "function"
    },
    {
      "inputs": [
        {
          "internalType": "address",
          "name": "to",
          "type": "address"
        },
        {
          "components": [
            {
              "internalType": "enum AssetKind",
              "name": "kind",
              "type": "uint8"
            },
            {
              "internalType": "address",
              "name": "asset",
              "type": "address"
            },
            {
              "internalType": "uint256",
              "name": "amount",
              "type": "uint256"
            },
            {
              "internalType": "uint256",
              "name": "tokenId",
              "type": "uint256"
            },
            {
              "internalType": "bytes",
              "name": "data",
              "type": "bytes"
            }
          ],
          "internalType": "struct ContainerItem[]",
          "name": "items",
          "type": "tuple[]"
        },
        {
          "internalType": "uint8",
          "name": "currencyType",
          "type": "uint8"
        },
        {
          "internalType": "uint256",
          "name": "maxAmount",
          "type": "uint256"
        },
        {
          "internalType": "uint256",
          "name": "nonce_",
          "type": "uint256"
        },
        {
          "internalType": "uint256",
          "name": "deadline_",
          "type": "uint256"
        },
        {
          "internalType": "bytes",
          "name": "sig",
          "type": "bytes"
        }
      ],
      "name": "simulateOpenContainer",
      "outputs": [
        {
          "internalType": "bool",
          "name": "ok",
          "type": "bool"
        },
        {
          "internalType": "string",
          "name": "reason",
          "type": "string"
        }
      ],
      "stateMutability": "view",
      "type": "function"
    },
    {
      "inputs": [
        {
          "internalType": "address",
          "name": "pointsTo",
          "type": "address"
        },
        {
          "components": [
            {
              "internalType": "enum AssetKind",
              "name": "kind",
              "type": "uint8"
            },
            {
              "internalType": "address",
              "name": "asset",
              "type": "address"
            },
            {
              "internalType": "uint256",
              "name": "amount",
              "type": "uint256"
            },
            {
              "internalType": "uint256",
              "name": "tokenId",
              "type": "uint256"
            },
            {
              "internalType": "bytes",
              "name": "data",
              "type": "bytes"
            }
          ],
          "internalType": "struct ContainerItem[]",
          "name": "items",
          "type": "tuple[]"
        },
        {
          "internalType": "uint8",
          "name": "currencyType",
          "type": "uint8"
        },
        {
          "internalType": "uint256",
          "name": "maxAmount",
          "type": "uint256"
        },
        {
          "internalType": "uint256",
          "name": "nonce_",
          "type": "uint256"
        },
        {
          "internalType": "uint256",
          "name": "deadline_",
          "type": "uint256"
        },
        {
          "internalType": "bytes",
          "name": "sig",
          "type": "bytes"
        }
      ],
      "name": "simulateOpenContainerUsdcTopupThenPoints",
      "outputs": [
        {
          "internalType": "bool",
          "name": "ok",
          "type": "bool"
        },
        {
          "internalType": "string",
          "name": "reason",
          "type": "string"
        }
      ],
      "stateMutability": "view",
      "type": "function"
    },
    {
      "inputs": [
        {
          "internalType": "bytes4",
          "name": "interfaceId",
          "type": "bytes4"
        }
      ],
      "name": "supportsInterface",
      "outputs": [
        {
          "internalType": "bool",
          "name": "",
          "type": "bool"
        }
      ],
      "stateMutability": "view",
      "type": "function"
    },
    {
      "inputs": [],
      "name": "threshold",
      "outputs": [
        {
          "internalType": "uint256",
          "name": "",
          "type": "uint256"
        }
      ],
      "stateMutability": "view",
      "type": "function"
    },
    {
      "inputs": [
        {
          "internalType": "uint256",
          "name": "",
          "type": "uint256"
        }
      ],
      "name": "thresholdManagers",
      "outputs": [
        {
          "internalType": "address",
          "name": "",
          "type": "address"
        }
      ],
      "stateMutability": "view",
      "type": "function"
    },
    {
      "inputs": [
        {
          "internalType": "address",
          "name": "beneficiary",
          "type": "address"
        },
        {
          "internalType": "uint256",
          "name": "index",
          "type": "uint256"
        }
      ],
      "name": "transferReserve",
      "outputs": [],
      "stateMutability": "nonpayable",
      "type": "function"
    },
    {
      "inputs": [
        {
          "components": [
            {
              "internalType": "address",
              "name": "sender",
              "type": "address"
            },
            {
              "internalType": "uint256",
              "name": "nonce",
              "type": "uint256"
            },
            {
              "internalType": "bytes",
              "name": "initCode",
              "type": "bytes"
            },
            {
              "internalType": "bytes",
              "name": "callData",
              "type": "bytes"
            },
            {
              "internalType": "bytes32",
              "name": "accountGasLimits",
              "type": "bytes32"
            },
            {
              "internalType": "uint256",
              "name": "preVerificationGas",
              "type": "uint256"
            },
            {
              "internalType": "bytes32",
              "name": "gasFees",
              "type": "bytes32"
            },
            {
              "internalType": "bytes",
              "name": "paymasterAndData",
              "type": "bytes"
            },
            {
              "internalType": "bytes",
              "name": "signature",
              "type": "bytes"
            }
          ],
          "internalType": "struct PackedUserOperation",
          "name": "userOp",
          "type": "tuple"
        },
        {
          "internalType": "bytes32",
          "name": "userOpHash",
          "type": "bytes32"
        },
        {
          "internalType": "uint256",
          "name": "missingAccountFunds",
          "type": "uint256"
        }
      ],
      "name": "validateUserOp",
      "outputs": [
        {
          "internalType": "uint256",
          "name": "validationData",
          "type": "uint256"
        }
      ],
      "stateMutability": "nonpayable",
      "type": "function"
    },
    {
      "stateMutability": "payable",
      "type": "receive"
    }
  ],
  "bytecode": "0x60a0346100d357601f612f8f38819003918201601f19168301916001600160401b038311848410176100d7578084926020946040528339810103126100d357516001600160a01b03811681036100d357608052604051612ea390816100ec8239608051818181610575015281816106af01528181610720015281816108770152818161096601528181610aa401528181610d0301528181610dc701528181610f5801528181610ff901528181611045015281816110b90152818161168d01528181611b7701528181611bea0152611f420152f35b5f80fd5b634e487b7160e01b5f52604160045260245ffdfe6080604052600436101561001a575b3615610018575f80fd5b005b5f3560e01c806301ffc9a7146102e95780630acd4f6c146102e45780630c23008c146102df5780630e68f763146102da5780630eba3b4b146102d55780631626ba7e146102d057806317af07f3146102cb57806319822f7c146102c65780632ca632c0146102c15780632da802f0146102bc5780632e4515be146102b75780632ee8a7f8146102b25780633afce508146102ad57806342cde4e8146102a857806343378eb5146102a3578063458f09781461029e57806347e1da2a146102995780634b11a9c0146102945780635bb478081461028f5780635f7110ec1461028a578063714f37d9146102855780637980523f146102805780637f7ec81e1461027b5780638904efbf146102765780638da5cb5b14610271578063915d953f1461026c578063964cda87146102675780639b55e75014610262578063b0d691fe1461025d578063b61d27f614610258578063b81ab7bc14610253578063bc197c811461024e578063be4429b814610249578063bffb869514610244578063c45a01551461023f578063c58714851461023a578063cafd6a3d14610235578063cbc4e1aa14610230578063d7c4029c1461022b578063ddafb9a914610226578063e3b35c3014610221578063f23a6e611461021c578063f25950e014610217578063f6b76d6c146102125763f7a579a20361000e57611bd6565b611bae565b611b67565b611b0e565b6119ba565b611841565b611763565b61173b565b6116f5565b611559565b611531565b6114e7565b6114a7565b61140e565b61114e565b611074565b611030565b610fe2565b610fac565b610f36565b610f0f565b610ee1565b610e1c565b610db5565b610d3a565b610cef565b610c22565b610bdc565b610a31565b6109ff565b61094c565b61092f565b6108e3565b6108ae565b610867565b6107f9565b6107b2565b6106e6565b610679565b610627565b6105bb565b61055b565b61051b565b61048c565b3461033f57602036600319011261033f5760043563ffffffff60e01b811680910361033f57602090630271189760e51b811490811561032e575b506040519015158152f35b6301ffc9a760e01b1490505f610323565b5f80fd5b6001600160a01b031690565b6001600160a01b0381160361033f57565b9181601f8401121561033f578235916001600160401b03831161033f576020808501948460051b01011161033f57565b60ff81160361033f57565b35906103a682610390565b565b9181601f8401121561033f578235916001600160401b03831161033f576020838186019501011161033f57565b9060e060031983011261033f576004356103ee8161034f565b916024356001600160401b03811161033f578161040d91600401610360565b9290929160443561041d81610390565b91606435916084359160a4359160c435906001600160401b03821161033f57610448916004016103a8565b9091565b805180835260209291819084018484015e5f828201840152601f01601f1916010190565b604090610489939215158152816020820152019061044c565b90565b3461033f576104ee6104df6104cc6104da6104a6366103d5565b9560409a979a959195949294519a8b996302b353db60e21b60208c015260248b01611d4b565b03601f19810183528261130b565b612415565b60208082518301019101611deb565b906104fe60405192839283610470565b0390f35b6001600160a01b03165f90815260026020526040902090565b3461033f57602036600319011261033f576004356105388161034f565b60018060a01b03165f526002602052602060ff60405f2054166040519015158152f35b3461033f57610569366103d5565b969095919492939291907f00000000000000000000000000000000000000000000000000000000000000006001600160a01b031633036105ac5761001898611e23565b636b31ba1560e11b5f5260045ffd5b3461033f57604036600319011261033f576004356105d88161034f565b5f54602435906001600160a01b0316330361061857610613610018926104cc604051938492630eba3b4b60e01b602085015260248401611e53565b612468565b63ea8e4eb560e01b5f5260045ffd5b3461033f57604036600319011261033f576004356024356001600160401b03811161033f576020916106606106669236906004016103a8565b91611e6e565b6040516001600160e01b03199091168152f35b3461033f57604036600319011261033f576004356001600160401b03811161033f576106a9903690600401610360565b602435907f00000000000000000000000000000000000000000000000000000000000000006001600160a01b031633036105ac57610018926126b5565b3461033f57606036600319011261033f576004356001600160401b03811161033f57610120600319823603011261033f57602435906044357f00000000000000000000000000000000000000000000000000000000000000006001600160a01b031633036105ac576104fe9261075e92600401611ef6565b6040519081529081906020820190565b634e487b7160e01b5f52603260045260245ffd5b60035481101561079a5760035f5260205f2001905f90565b61076e565b6001600160a01b03909116815260200190565b3461033f57602036600319011261033f5760043560035481101561033f5760035f525f516020612e575f395f51905f5201546040516001600160a01b039091168152602090f35b3461033f57610807366103d5565b6001549097919692959394939291906001600160a01b0316330361082e5761001898611e23565b631966391b60e11b5f5260045ffd5b602060031982011261033f57600435906001600160401b03821161033f57610448916004016103a8565b3461033f576108753661083d565b7f00000000000000000000000000000000000000000000000000000000000000006001600160a01b031633036105ac5761001891611ff9565b3461033f576108bc366103d5565b6001549097919692959394939291906001600160a01b0316330361082e5761001898612026565b3461033f575f36600319011261033f57602061092761091960405163075f9ca160e31b84820152600481526104da60248261130b565b828082518301019101612053565b604051908152f35b3461033f575f36600319011261033f576020600454604051908152f35b3461033f5761095a366103d5565b969095919492939291907f00000000000000000000000000000000000000000000000000000000000000006001600160a01b031633036105ac5761001898612026565b9060a060031983011261033f576004356109b68161034f565b916024356001600160401b03811161033f57816109d591600401610360565b909290916044359160643591608435906001600160401b03821161033f57610448916004016103a8565b3461033f57610a0d3661099d565b6001549095919492939291906001600160a01b0316330361082e5761001896612062565b3461033f57606036600319011261033f576004356001600160401b03811161033f57610a61903690600401610360565b6024356001600160401b03811161033f57610a80903690600401610360565b92906044356001600160401b03811161033f57610aa1903690600401610360565b937f00000000000000000000000000000000000000000000000000000000000000006001600160a01b031633036105ac57858114801590610bd2575b610bc3575f5b818110610aec57005b610b07610b02610afd8385896120ce565b6120de565b610343565b15610bb457610b58610b1d610afd8385896120ce565b610613610b2b848b896120ce565b35916104cc610b3b868c8a6120e8565b90604051958694631182259360e11b6020870152602486016120ff565b505f80610b69610afd84868a6120ce565b610b74848b896120ce565b35610b80858b896120e8565b9190610b9160405180948193612123565b03925af1610b9d611ec7565b9015610bac5750600101610ae3565b602081519101fd5b63d92e233d60e01b5f5260045ffd5b638b140a8160e01b5f5260045ffd5b5084811415610add565b3461033f57604036600319011261033f57610018600435610bfc8161034f565b610613602435916104cc60405193849263012c46a760e61b602085015260248401611e53565b3461033f57602036600319011261033f57600435610c3f8161034f565b6001546001600160a01b0381163381900361082e576001600160a01b038316928315908115610c91575b50610bb45782905f516020612e775f395f51905f525f80a36001600160a01b03191617600155005b90503b155f610c69565b90608060031983011261033f576004359160243563ffffffff8116810361033f57916044356001600160401b038116810361033f5791606435906001600160401b03821161033f5761044891600401610360565b3461033f57610cfd36610c9b565b929091907f00000000000000000000000000000000000000000000000000000000000000006001600160a01b031633036105ac5761001894612130565b3461033f57610d483661083d565b6001546001600160a01b0316330361082e57610018916106139136916113bd565b606060031982011261033f57600435906001600160401b03821161033f57610d9391600401610360565b9091602435610da18161034f565b9060443563ffffffff8116810361033f5790565b3461033f57610dc336610d69565b90927f00000000000000000000000000000000000000000000000000000000000000006001600160a01b031633036105ac576104cc6106139261001895604051958694637980523f60e01b60208701526024860161217f565b3461033f57608036600319011261033f576004356001600160401b03811161033f57610e4c9036906004016103a8565b9060243591610e5a8361034f565b60443590610e678261034f565b6064356001600160401b03811161033f576100189461061393610e916104cc933690600401610360565b91610eb9604051988997633fbf640f60e11b60208a0152608060248a015260a4890191611c44565b6001600160a01b03948516604488015293166064860152848303602319016084860152611c64565b3461033f57610eef36610c9b565b5f549093919291906001600160a01b031633036106185761001894612130565b3461033f575f36600319011261033f575f546040516001600160a01b039091168152602090f35b3461033f57604036600319011261033f57600435610f538161034f565b6024357f00000000000000000000000000000000000000000000000000000000000000006001600160a01b031633036105ac57610613610018926104cc60405193849263915d953f60e01b602085015260248401611e53565b3461033f575f36600319011261033f57602061092761091960405163964cda8760e01b84820152600481526104da60248261130b565b3461033f57610ff03661099d565b949093919291907f00000000000000000000000000000000000000000000000000000000000000006001600160a01b031633036105ac5761001896612062565b3461033f575f36600319011261033f576040517f00000000000000000000000000000000000000000000000000000000000000006001600160a01b03168152602090f35b3461033f57606036600319011261033f576004356110918161034f565b602435906044356001600160401b03811161033f576110b49036906004016103a8565b9091907f00000000000000000000000000000000000000000000000000000000000000006001600160a01b031633036105ac576001600160a01b03821615610bb4575f938493611121604051631182259360e11b6020820152610613816104cc8786888b602486016120ff565b50826040519384928337810185815203925af161113c611ec7565b9015610bac57005b6002111561033f57565b3461033f57606036600319011261033f5760043561116b81611144565b6024356111778161034f565b604435906111836121b2565b6001600160a01b038216939092908415610bb4576111a081611c35565b61126c57506111ae90612a7d565b6020820152602060405180936370a0823160e01b825281806111d3306004830161079f565b03915afa8015611267576104fe925f91611238575b5081525b805160208201518082111561123057611204916121ff565b604082015260405191829182919091604080606083019480518452602081015160208501520151910152565b50505f611204565b61125a915060203d602011611260575b611252818361130b565b810190612053565b5f6111e8565b503d611248565b6121e0565b61129b9361127c82602094612a0d565b838501526040518080968194627eeac760e11b83523060048401611e53565b03915afa8015611267576104fe925f916112b8575b5081526111ec565b6112d1915060203d60201161126057611252818361130b565b5f6112b0565b634e487b7160e01b5f52604160045260245ffd5b60a081019081106001600160401b0382111761130657604052565b6112d7565b601f909101601f19168101906001600160401b0382119082101761130657604052565b6001600160401b0381116113065760051b60200190565b9080601f8301121561033f57813561135c8161132e565b9261136a604051948561130b565b81845260208085019260051b82010192831161033f57602001905b8282106113925750505090565b8135815260209182019101611385565b6001600160401b03811161130657601f01601f191660200190565b9291926113c9826113a2565b916113d7604051938461130b565b82948184528183011161033f578281602093845f960137010152565b9080601f8301121561033f57816020610489933591016113bd565b3461033f5760a036600319011261033f5761142a60043561034f565b61143560243561034f565b6044356001600160401b03811161033f57611454903690600401611345565b506064356001600160401b03811161033f57611474903690600401611345565b506084356001600160401b03811161033f576114949036906004016113f3565b5060405163bc197c8160e01b8152602090f35b3461033f576104ee6104df6104cc6104da6114c1366103d5565b9560409a979a959195949294519a8b996317c8853760e31b60208c015260248b01611d4b565b3461033f576114f536610d69565b5f54919390916001600160a01b03163303610618576104cc610613926100189560405195869463bffb869560e01b60208701526024860161217f565b3461033f575f36600319011261033f576001546040516001600160a01b039091168152602090f35b3461033f57608036600319011261033f576004356115768161034f565b6024356001600160401b03811161033f57611595903690600401610360565b604435916064356115a58161034f565b60055460ff166116e7576001600160a01b038516908115610bb4576001600160a01b03811691821580156116de575b610bb457841561061857806115ef610b02610afd88886120c5565b0361061857851580156116d5575b6106185761166283926116406100189961161f600160ff196005541617600555565b5f80546001600160a01b0319166001600160a01b0392909216919091179055565b600180546001600160a01b0319166001600160a01b0392909216919091179055565b6040517fad307780531f6353137c35adc50ad58d71b76e76aa891e729387f2e720f2de2090806116bb7f00000000000000000000000000000000000000000000000000000000000000006001600160a01b03168261079f565b0390a35f5f516020612e775f395f51905f528180a36126b5565b508486116115fd565b50813b156115d4565b62dc149f60e41b5f5260045ffd5b3461033f57604036600319011261033f576100186004356117158161034f565b610613602435916104cc60405193849263cafd6a3d60e01b602085015260248401611e53565b3461033f576117493661083d565b5f546001600160a01b031633036106185761001891612211565b3461033f57604036600319011261033f576004356001600160401b03811161033f576106136117996100189236906004016103a8565b6024929192356117a88161034f565b6117cf6040519485936335f100a760e21b6020860152604060248601526064850191611c44565b6001600160a01b0391909116604483015203601f19810183528261130b565b608060031982011261033f576004359160243561180a8161034f565b91604435906001600160401b03821161033f5761182991600401610360565b90916064356001600160401b038116810361033f5790565b3461033f5761184f366117ee565b5f549093919291906001600160a01b03163303610618576100189461223e565b90602080835192838152019201905f5b81811061188c5750505090565b825160ff1684526020938401939092019160010161187f565b9080602083519182815201916020808360051b8301019401925f915b8383106118d057505050505090565b90919293946020806118ee600193601f19868203018752895161044c565b970193019301919392906118c1565b92949391909460808401608085528651809152602060a086019701905f5b8181106119a4575050508386036020850152815180875260208701906020808260051b8a01019401915f905b82821061197857505050506104899495509061196a91848203604086015261186f565b9160608184039101526118a5565b909192946020806119966001938d601f19908203018652895161044c565b970192019201909291611947565b825189526020988901989092019160010161191b565b3461033f57602036600319011261033f57611a0b6004356119da8161034f565b604051630e3b35c360e41b60208201526001600160a01b03909116602480830191909152815261061360448261130b565b80518101906080816020840193031261033f5760208101516001600160401b03811161033f5781019082603f8301121561033f57602082015191611a4e8361132e565b92611a5c604051948561130b565b8084526020808086019260051b840101019185831161033f57604001905b828210611afe5750505060408101516001600160401b03811161033f57836020611aa6928401016122a1565b60608201519093906001600160401b03811161033f57816020611acb92850101612330565b608083015190916001600160401b03821161033f576020611af1926104fe950101612397565b90604051948594856118fd565b8151815260209182019101611a7a565b3461033f5760a036600319011261033f57611b2a60043561034f565b611b3560243561034f565b6084356001600160401b03811161033f57611b549036906004016113f3565b5060405163f23a6e6160e01b8152602090f35b3461033f57611b753661083d565b7f00000000000000000000000000000000000000000000000000000000000000006001600160a01b031633036105ac5761001891612211565b3461033f57611bbc3661083d565b5f546001600160a01b031633036106185761001891611ff9565b3461033f57611be4366117ee565b929091907f00000000000000000000000000000000000000000000000000000000000000006001600160a01b031633036105ac576100189461223e565b634e487b7160e01b5f52602160045260245ffd5b60021115611c3f57565b611c21565b908060209392818452848401375f828201840152601f01601f1916010190565b906020838281520160208260051b85010193835f915b848310611c8a5750505050505090565b909192939495601f198282030185528635609e198436030181121561033f5783018035611cb681611144565b611cbf81611c35565b82526020810135611ccf8161034f565b6001600160a01b031660208301526040818101359083015260608082013590830152608081013536829003601e190181121561033f57016020810190356001600160401b03811161033f57803603821361033f57611d3d602092839260a08681608060019901520191611c44565b980196950193019190611c7a565b9491611d78906104899a989599979460ff9360018060a01b0316885260e0602089015260e0880191611c64565b971660408501526060840152608083015260a082015260c0818503910152611c44565b929192611da7826113a2565b91611db5604051938461130b565b82948184528183011161033f578281602093845f96015e010152565b9080601f8301121561033f57815161048992602001611d9b565b91909160408184031261033f578051801515810361033f5760208201519093906001600160401b03811161033f576104899201611dd1565b946104cc94611e509994610613989399946040519a8b996302da802f60e41b60208c015260248b01611d4b565b50565b6001600160a01b039091168152602081019190915260400190565b90611e7992916124ba565b15611e8957630b135d3f60e11b90565b6001600160e01b031990565b903590601e198136030182121561033f57018035906001600160401b03821161033f5760200191813603831361033f57565b3d15611ef1573d90611ed8826113a2565b91611ee6604051938461130b565b82523d5f602084013e565b606090565b611f01600154610343565b6001600160a01b038116151580611fe2575b611f80575b50611f2a91611f2691612969565b1590565b611f7a5780611f3857505f90565b5f908190819081907f00000000000000000000000000000000000000000000000000000000000000006001600160a01b03165af150611f75611ec7565b505f90565b50600190565b611f8d60e0830183611e95565b60148110611fd057503560601c611fa382610343565b8103611faf5750611f18565b63187efe2360e01b5f526001600160a01b039081166004521660245260445ffd5b631811743760e21b5f5260045260245ffd5b50611ff060e0830183611e95565b90501515611f13565b610613611e50926104cc604051938492633daddb5b60e21b60208501526020602485018181520191611c44565b946104cc94611e509994610613989399946040519a8b996305dd14ff60e31b60208c015260248b01611d4b565b9081602091031261033f575190565b6040516308b1e12f60e31b60208201526001600160a01b03909116602482015260a06044820152611e509690956106139587956104cc9590946120a99160c4890191611c64565b93606487015260848601526023198584030160a4860152611c44565b901561079a5790565b919081101561079a5760051b0190565b356104898161034f565b9082101561079a576104489160051b810190611e95565b610489949260609260018060a01b0316825260208201528160408201520191611c44565b908092918237015f815290565b90926104cc90611e50956106139463ffffffff604051978896638904efbf60e01b6020890152602488015216604486015260018060401b031660648501526080608485015260a4840191611c64565b92949361219c63ffffffff92604094606087526060870191611c64565b6001600160a01b03909616602085015216910152565b60405190606082016001600160401b03811183821017611306576040525f6040838281528260208201520152565b6040513d5f823e3d90fd5b634e487b7160e01b5f52601160045260245ffd5b9190820391821161220c57565b6121eb565b610613611e50926104cc6040519384926365e270d560e11b60208501526020602485018181520191611c44565b90929361228261061393611e509660405196879563ddafb9a960e01b6020880152602487015260018060a01b031660448601526080606486015260a4850191611c64565b6001600160401b0391909116608483015203601f19810183528261130b565b81601f8201121561033f578051906122b88261132e565b926122c6604051948561130b565b82845260208085019360051b8301019181831161033f5760208101935b8385106122f257505050505090565b84516001600160401b03811161033f57820183603f8201121561033f576020916123258583604086809601519101611d9b565b8152019401936122e3565b9080601f8301121561033f5781516123478161132e565b92612355604051948561130b565b81845260208085019260051b82010192831161033f57602001905b82821061237d5750505090565b60208091835161238c81610390565b815201910190612370565b9080601f8301121561033f5781516123ae8161132e565b926123bc604051948561130b565b81845260208085019260051b8201019183831161033f5760208201905b8382106123e857505050505090565b81516001600160401b03811161033f5760209161240a87848094880101611dd1565b8152019101906123d9565b5f8091612420612ad9565b9060405161245360146020838180820196805191829101885e81013060601b838201520301600b1981018452018261130b565b51915afa61245f611ec7565b9015610bac5790565b5f8091612473612ad9565b602082519201905af461245f611ec7565b9060418202918083046041149015171561220c57565b60ff601b9116019060ff821161220c57565b5f19811461220c5760010190565b90916124cb611f2660055460ff1690565b80156125dd575b6125d657604181066125d6576041900491600454918284106125ce5761251e907b0ca2ba3432b932bab69029b4b3b732b21026b2b9b9b0b3b29d05199960211b5f52601c52603c5f2090565b5f918291825b86811061253657505050505050505f90565b61256261254282612484565b840160408101355f1a601b81106125c0575b602082013591359085612b85565b936001600160a01b0390811690851611156125b55761258a61258385610502565b5460ff1690565b612597575b600101612524565b936125a1906124ac565b9385851061258f5750505050505050600190565b505050505050505f90565b6125c99061249a565b612554565b505050505f90565b5050505f90565b50600454156124d2565b6003545f600355806125f65750565b60035f5260205f205f5b82811061260c57505050565b5f82820155600101612600565b600354600160401b811015611306576001810160035560035481101561079a5760035f525f516020612e575f395f51905f520180546001600160a01b0319166001600160a01b03909216919091179055565b6040602082019160208152600354809352019060035f5260205f20905f5b8181106126965750505090565b82546001600160a01b0316845260209093019260019283019201612689565b91908015610618576126ca610afd82856120c5565b6126d7610b025f54610343565b6001600160a01b0390911603610618575f5b600354811015612732578061272c61272261271d612708600195610782565b905460039190911b1c6001600160a01b031690565b610502565b805460ff19169055565b016126e9565b50909161273d6125e7565b5f915f5b8181106127b05750505050801580156127a5575b610618576004556040516020810190612771816104cc8461266b565b5190206004546040519081527fb96db730cba2eb08f2ce34a133b4cdaa9c3876aa06dfc81d4401d232f49bb88290602090a2565b506003548111612755565b6127be610afd8284866120ce565b936001600160a01b0385168015918215612804575b5050610618576001906127fe856127f96127ec82610502565b805460ff19166001179055565b612619565b01612741565b6001600160a01b0316101590505f806127d3565b9060e08282031261033f57813561282e8161034f565b9260208301356001600160401b03811161033f57830182601f8201121561033f5780359061285b8261132e565b91612869604051938461130b565b80835260208084019160051b8301019185831161033f5760208101915b8383106128ce57505050509261289e6040820161039b565b9260608201359260808301359260a08101359260c08201356001600160401b03811161033f5761048992016113f3565b82356001600160401b03811161033f5782019060a0828903601f19011261033f57604051906128fc826112eb565b602083013561290a81611144565b8252604083013561291a8161034f565b6020830152606083810135604084015260808401359083015260a0830135916001600160401b03831161033f576129598a6020809695819601016113f3565b6080820152815201920191612886565b906129776060830183611e95565b90600482101561299c575b505061299682610100610489940190611e95565b916124ba565b80356001600160e01b0319166343378eb560e01b81146129ed57630e68f76360e01b0361298257915091508160041161033f57610489916129e39190810190600401612818565b9550935091612be7565b50925080915060041161033f578160046129e39261048994019101612818565b604051602081019160018060a01b031682527f5a26911361a4f7d1113b7c86427c27a3b1f9b14ce40a4a7f6ac88540b70192c4604082015260408152612a5460608261130b565b5190206040519060208201928352604082015260408152612a7660608261130b565b5190205490565b604051602081019160018060a01b031682527f5a26911361a4f7d1113b7c86427c27a3b1f9b14ce40a4a7f6ac88540b70192c3604082015260408152612a7660608261130b565b9081602091031261033f57516104898161034f565b612ae4600154610343565b6001600160a01b03811691908215908115612b7b575b50610bb457602060049260405193848092633d87f9db60e11b82525afa918215611267575f92612b4a575b506001600160a01b03821615828115612b40575b50610bb457565b90503b155f612b39565b612b6d91925060203d602011612b74575b612b65818361130b565b810190612ac4565b905f612b25565b503d612b5b565b90503b155f612afa565b916104899391612b9493612d17565b90929192612d99565b60405190612bac60408361130b565b600d82526c1099585b5a5bd058d8dbdd5b9d609a1b6020830152565b60405190612bd760408361130b565b60018252603160f81b6020830152565b9390929192824211612d0e576041825103612d0e576104899461258394612c73612d09936104cc61271d9760405194859360208501973089919260ff60a094979695929760c08501987f837ef0773534ba8150c37cf0d2dd5fa292583e8be6494c5226a2ab5cb65d32938652600180881b03166020860152166040840152606083015260808201520152565b519020612c7e612b9d565b602081519101206104cc612ce9612c93612bc8565b8051602091820120604080517f8b73c3c69bb8fe3d512ecc4cf759cc79239f7b179b0ffacaa9a75d522b39400f9381019384529081019590955260608501524660808501523060a08501529291829060c0820190565b5190206042916040519161190160f01b8352600283015260228201522090565b612e15565b50505050505f90565b91906fa2a8918ca85bafe22016d0b997e4df60600160ff1b038411612d84579160209360809260ff5f9560405194855216868401526040830152606082015282805260015afa15611267575f516001600160a01b03811615612d7a57905f905f90565b505f906001905f90565b5050505f9160039190565b60041115611c3f57565b612da281612d8f565b80612dab575050565b612db481612d8f565b60018103612dcb5763f645eedf60e01b5f5260045ffd5b612dd481612d8f565b60028103612def575063fce698f760e01b5f5260045260245ffd5b80612dfb600392612d8f565b14612e035750565b6335e2f38360e21b5f5260045260245ffd5b815161048992612b94926040198301612e4c57612e459250602082015190606060408401519301515f1a90612d17565b9192909190565b50505f916002919056fec2575a0e9e593c00f959f8c92f12db2869c3395a3b0502d05e2516446f71f85b333c7678baf16017cf31e1d2f90143a62aab01a67a0807f6836a4304ceabb555a164736f6c6343000821000a",
  "linkReferences": {},
  "deployedLinkReferences": {},
  "immutableReferences": {
    "299": [
      {
        "length": 32,
        "start": 1397
      },
      {
        "length": 32,
        "start": 1711
      },
      {
        "length": 32,
        "start": 1824
      },
      {
        "length": 32,
        "start": 2167
      },
      {
        "length": 32,
        "start": 2406
      },
      {
        "length": 32,
        "start": 2724
      },
      {
        "length": 32,
        "start": 3331
      },
      {
        "length": 32,
        "start": 3527
      },
      {
        "length": 32,
        "start": 3928
      },
      {
        "length": 32,
        "start": 4089
      },
      {
        "length": 32,
        "start": 4165
      },
      {
        "length": 32,
        "start": 4281
      },
      {
        "length": 32,
        "start": 5773
      },
      {
        "length": 32,
        "start": 7031
      },
      {
        "length": 32,
        "start": 7146
      },
      {
        "length": 32,
        "start": 8002
      }
    ]
  },
  "inputSourceName": "project/src/BeamioAccount/BeamioAccount.sol",
  "buildInfoId": "solc-0_8_33-56170ff1ebd11644a7a1576f43389561575f5807"
}