{
  "_format": "hh3-artifact-1",
  "contractName": "BeamioUserCard",
  "sourceName": "src/BeamioUserCard/BeamioUserCard.sol",
  "abi": [
    {
      "inputs": [
        {
          "internalType": "string",
          "name": "uri_",
          "type": "string"
        },
        {
          "internalType": "enum BeamioCurrency.CurrencyType",
          "name": "currency_",
          "type": "uint8"
        },
        {
          "internalType": "uint256",
          "name": "pointsUnitPriceInCurrencyE6_",
          "type": "uint256"
        },
        {
          "internalType": "address",
          "name": "initialOwner",
          "type": "address"
        },
        {
          "internalType": "address",
          "name": "gateway_",
          "type": "address"
        }
      ],
      "stateMutability": "nonpayable",
      "type": "constructor"
    },
    {
      "inputs": [],
      "name": "BM_NotAuthorized",
      "type": "error"
    },
    {
      "inputs": [],
      "name": "BM_ZeroAddress",
      "type": "error"
    },
    {
      "inputs": [
        {
          "internalType": "address",
          "name": "sender",
          "type": "address"
        },
        {
          "internalType": "uint256",
          "name": "balance",
          "type": "uint256"
        },
        {
          "internalType": "uint256",
          "name": "needed",
          "type": "uint256"
        },
        {
          "internalType": "uint256",
          "name": "tokenId",
          "type": "uint256"
        }
      ],
      "name": "ERC1155InsufficientBalance",
      "type": "error"
    },
    {
      "inputs": [
        {
          "internalType": "address",
          "name": "approver",
          "type": "address"
        }
      ],
      "name": "ERC1155InvalidApprover",
      "type": "error"
    },
    {
      "inputs": [
        {
          "internalType": "uint256",
          "name": "idsLength",
          "type": "uint256"
        },
        {
          "internalType": "uint256",
          "name": "valuesLength",
          "type": "uint256"
        }
      ],
      "name": "ERC1155InvalidArrayLength",
      "type": "error"
    },
    {
      "inputs": [
        {
          "internalType": "address",
          "name": "operator",
          "type": "address"
        }
      ],
      "name": "ERC1155InvalidOperator",
      "type": "error"
    },
    {
      "inputs": [
        {
          "internalType": "address",
          "name": "receiver",
          "type": "address"
        }
      ],
      "name": "ERC1155InvalidReceiver",
      "type": "error"
    },
    {
      "inputs": [
        {
          "internalType": "address",
          "name": "sender",
          "type": "address"
        }
      ],
      "name": "ERC1155InvalidSender",
      "type": "error"
    },
    {
      "inputs": [
        {
          "internalType": "address",
          "name": "operator",
          "type": "address"
        },
        {
          "internalType": "address",
          "name": "owner",
          "type": "address"
        }
      ],
      "name": "ERC1155MissingApprovalForAll",
      "type": "error"
    },
    {
      "inputs": [
        {
          "internalType": "address",
          "name": "owner",
          "type": "address"
        }
      ],
      "name": "OwnableInvalidOwner",
      "type": "error"
    },
    {
      "inputs": [
        {
          "internalType": "address",
          "name": "account",
          "type": "address"
        }
      ],
      "name": "OwnableUnauthorizedAccount",
      "type": "error"
    },
    {
      "inputs": [],
      "name": "ReentrancyGuardReentrantCall",
      "type": "error"
    },
    {
      "inputs": [],
      "name": "UC_AlreadyHasValidCard",
      "type": "error"
    },
    {
      "inputs": [],
      "name": "UC_AmountZero",
      "type": "error"
    },
    {
      "inputs": [],
      "name": "UC_BelowMinThreshold",
      "type": "error"
    },
    {
      "inputs": [],
      "name": "UC_GlobalMisconfigured",
      "type": "error"
    },
    {
      "inputs": [],
      "name": "UC_InvalidProposal",
      "type": "error"
    },
    {
      "inputs": [],
      "name": "UC_MustGrow",
      "type": "error"
    },
    {
      "inputs": [],
      "name": "UC_NoBeamioAccount",
      "type": "error"
    },
    {
      "inputs": [],
      "name": "UC_NotAdmin",
      "type": "error"
    },
    {
      "inputs": [],
      "name": "UC_PointsToNotWhitelisted",
      "type": "error"
    },
    {
      "inputs": [],
      "name": "UC_PriceZero",
      "type": "error"
    },
    {
      "inputs": [
        {
          "internalType": "bytes",
          "name": "data",
          "type": "bytes"
        }
      ],
      "name": "UC_RedeemDelegateFailed",
      "type": "error"
    },
    {
      "inputs": [],
      "name": "UC_RedeemModuleZero",
      "type": "error"
    },
    {
      "inputs": [
        {
          "internalType": "address",
          "name": "eoa",
          "type": "address"
        },
        {
          "internalType": "address",
          "name": "aaFactory",
          "type": "address"
        },
        {
          "internalType": "address",
          "name": "acct",
          "type": "address"
        }
      ],
      "name": "UC_ResolveAccountFailed",
      "type": "error"
    },
    {
      "inputs": [],
      "name": "UC_SBTNonTransferable",
      "type": "error"
    },
    {
      "inputs": [],
      "name": "UC_TierLenMismatch",
      "type": "error"
    },
    {
      "inputs": [],
      "name": "UC_TierMinZero",
      "type": "error"
    },
    {
      "inputs": [],
      "name": "UC_UnauthorizedGateway",
      "type": "error"
    },
    {
      "anonymous": false,
      "inputs": [
        {
          "indexed": true,
          "internalType": "address",
          "name": "beneficiaryAccount",
          "type": "address"
        },
        {
          "indexed": true,
          "internalType": "uint256",
          "name": "tokenId",
          "type": "uint256"
        },
        {
          "indexed": false,
          "internalType": "uint256",
          "name": "attr",
          "type": "uint256"
        },
        {
          "indexed": false,
          "internalType": "uint256",
          "name": "expiry",
          "type": "uint256"
        }
      ],
      "name": "AdminCardMinted",
      "type": "event"
    },
    {
      "anonymous": false,
      "inputs": [
        {
          "indexed": true,
          "internalType": "address",
          "name": "beneficiaryAccount",
          "type": "address"
        },
        {
          "indexed": false,
          "internalType": "uint256",
          "name": "points6",
          "type": "uint256"
        }
      ],
      "name": "AdminPointsMinted",
      "type": "event"
    },
    {
      "anonymous": false,
      "inputs": [
        {
          "indexed": true,
          "internalType": "address",
          "name": "account",
          "type": "address"
        },
        {
          "indexed": true,
          "internalType": "address",
          "name": "operator",
          "type": "address"
        },
        {
          "indexed": false,
          "internalType": "bool",
          "name": "approved",
          "type": "bool"
        }
      ],
      "name": "ApprovalForAll",
      "type": "event"
    },
    {
      "anonymous": false,
      "inputs": [
        {
          "indexed": false,
          "internalType": "uint256",
          "name": "attr",
          "type": "uint256"
        }
      ],
      "name": "DefaultAttrUpdated",
      "type": "event"
    },
    {
      "anonymous": false,
      "inputs": [
        {
          "indexed": false,
          "internalType": "uint256",
          "name": "oldSecs",
          "type": "uint256"
        },
        {
          "indexed": false,
          "internalType": "uint256",
          "name": "newSecs",
          "type": "uint256"
        }
      ],
      "name": "ExpirySecondsUpdated",
      "type": "event"
    },
    {
      "anonymous": false,
      "inputs": [
        {
          "indexed": true,
          "internalType": "uint256",
          "name": "id",
          "type": "uint256"
        },
        {
          "indexed": true,
          "internalType": "address",
          "name": "userEOA",
          "type": "address"
        },
        {
          "indexed": true,
          "internalType": "address",
          "name": "acct",
          "type": "address"
        },
        {
          "indexed": false,
          "internalType": "uint256",
          "name": "amount",
          "type": "uint256"
        },
        {
          "indexed": false,
          "internalType": "uint256",
          "name": "claimedAfter",
          "type": "uint256"
        }
      ],
      "name": "FaucetClaimed",
      "type": "event"
    },
    {
      "anonymous": false,
      "inputs": [
        {
          "indexed": true,
          "internalType": "uint256",
          "name": "id",
          "type": "uint256"
        },
        {
          "components": [
            {
              "internalType": "uint64",
              "name": "validUntil",
              "type": "uint64"
            },
            {
              "internalType": "uint64",
              "name": "perClaimMax",
              "type": "uint64"
            },
            {
              "internalType": "uint128",
              "name": "maxPerUser",
              "type": "uint128"
            },
            {
              "internalType": "uint128",
              "name": "maxGlobal",
              "type": "uint128"
            },
            {
              "internalType": "bool",
              "name": "enabled",
              "type": "bool"
            },
            {
              "internalType": "uint8",
              "name": "currency",
              "type": "uint8"
            },
            {
              "internalType": "uint8",
              "name": "decimals",
              "type": "uint8"
            },
            {
              "internalType": "uint128",
              "name": "priceInCurrency6",
              "type": "uint128"
            }
          ],
          "indexed": false,
          "internalType": "struct FaucetStorage.FaucetConfig",
          "name": "cfg",
          "type": "tuple"
        }
      ],
      "name": "FaucetConfigUpdated",
      "type": "event"
    },
    {
      "anonymous": false,
      "inputs": [
        {
          "indexed": true,
          "internalType": "uint256",
          "name": "tokenId",
          "type": "uint256"
        },
        {
          "indexed": false,
          "internalType": "bytes32",
          "name": "title",
          "type": "bytes32"
        },
        {
          "indexed": false,
          "internalType": "uint64",
          "name": "validAfter",
          "type": "uint64"
        },
        {
          "indexed": false,
          "internalType": "uint64",
          "name": "validBefore",
          "type": "uint64"
        },
        {
          "indexed": false,
          "internalType": "uint256",
          "name": "maxSupply",
          "type": "uint256"
        },
        {
          "indexed": false,
          "internalType": "uint256",
          "name": "priceInCurrency6",
          "type": "uint256"
        },
        {
          "indexed": false,
          "internalType": "bytes32",
          "name": "sharedMetadataHash",
          "type": "bytes32"
        }
      ],
      "name": "IssuedNftCreated",
      "type": "event"
    },
    {
      "anonymous": false,
      "inputs": [
        {
          "indexed": true,
          "internalType": "uint256",
          "name": "tokenId",
          "type": "uint256"
        },
        {
          "indexed": true,
          "internalType": "address",
          "name": "recipient",
          "type": "address"
        },
        {
          "indexed": false,
          "internalType": "uint256",
          "name": "amount",
          "type": "uint256"
        }
      ],
      "name": "IssuedNftMinted",
      "type": "event"
    },
    {
      "anonymous": false,
      "inputs": [
        {
          "indexed": true,
          "internalType": "address",
          "name": "user",
          "type": "address"
        },
        {
          "indexed": true,
          "internalType": "uint256",
          "name": "tokenId",
          "type": "uint256"
        },
        {
          "indexed": false,
          "internalType": "uint256",
          "name": "tierIndexOrMax",
          "type": "uint256"
        },
        {
          "indexed": false,
          "internalType": "uint256",
          "name": "minUsdc6",
          "type": "uint256"
        },
        {
          "indexed": false,
          "internalType": "uint256",
          "name": "expiry",
          "type": "uint256"
        }
      ],
      "name": "MemberNFTIssued",
      "type": "event"
    },
    {
      "anonymous": false,
      "inputs": [
        {
          "indexed": true,
          "internalType": "address",
          "name": "user",
          "type": "address"
        },
        {
          "indexed": true,
          "internalType": "uint256",
          "name": "oldActiveTokenId",
          "type": "uint256"
        },
        {
          "indexed": true,
          "internalType": "uint256",
          "name": "newTokenId",
          "type": "uint256"
        },
        {
          "indexed": false,
          "internalType": "uint256",
          "name": "oldTierIndexOrMax",
          "type": "uint256"
        },
        {
          "indexed": false,
          "internalType": "uint256",
          "name": "newTierIndex",
          "type": "uint256"
        },
        {
          "indexed": false,
          "internalType": "uint256",
          "name": "newExpiry",
          "type": "uint256"
        }
      ],
      "name": "MemberNFTUpgraded",
      "type": "event"
    },
    {
      "anonymous": false,
      "inputs": [
        {
          "indexed": true,
          "internalType": "address",
          "name": "previousOwner",
          "type": "address"
        },
        {
          "indexed": true,
          "internalType": "address",
          "name": "newOwner",
          "type": "address"
        }
      ],
      "name": "OwnershipTransferred",
      "type": "event"
    },
    {
      "anonymous": false,
      "inputs": [
        {
          "indexed": true,
          "internalType": "address",
          "name": "userEOA",
          "type": "address"
        },
        {
          "indexed": true,
          "internalType": "address",
          "name": "acct",
          "type": "address"
        },
        {
          "indexed": false,
          "internalType": "uint256",
          "name": "points6",
          "type": "uint256"
        }
      ],
      "name": "PointsMintedByGateway",
      "type": "event"
    },
    {
      "anonymous": false,
      "inputs": [
        {
          "indexed": true,
          "internalType": "address",
          "name": "payerEOA",
          "type": "address"
        },
        {
          "indexed": true,
          "internalType": "address",
          "name": "beneficiaryAccount",
          "type": "address"
        },
        {
          "indexed": true,
          "internalType": "address",
          "name": "usdc",
          "type": "address"
        },
        {
          "indexed": false,
          "internalType": "uint256",
          "name": "usdcIn6",
          "type": "uint256"
        },
        {
          "indexed": false,
          "internalType": "uint256",
          "name": "pointsMinted6",
          "type": "uint256"
        },
        {
          "indexed": false,
          "internalType": "uint256",
          "name": "unitPointPriceUsdc6",
          "type": "uint256"
        },
        {
          "indexed": false,
          "internalType": "bytes32",
          "name": "nonce",
          "type": "bytes32"
        }
      ],
      "name": "PointsPurchasedWithUSDC",
      "type": "event"
    },
    {
      "anonymous": false,
      "inputs": [
        {
          "indexed": false,
          "internalType": "uint256",
          "name": "priceInCurrencyE6",
          "type": "uint256"
        }
      ],
      "name": "PointsUnitPriceUpdated",
      "type": "event"
    },
    {
      "anonymous": false,
      "inputs": [
        {
          "indexed": true,
          "internalType": "uint256",
          "name": "id",
          "type": "uint256"
        },
        {
          "indexed": true,
          "internalType": "address",
          "name": "admin",
          "type": "address"
        }
      ],
      "name": "ProposalApproved",
      "type": "event"
    },
    {
      "anonymous": false,
      "inputs": [
        {
          "indexed": true,
          "internalType": "uint256",
          "name": "id",
          "type": "uint256"
        },
        {
          "indexed": true,
          "internalType": "bytes4",
          "name": "selector",
          "type": "bytes4"
        },
        {
          "indexed": true,
          "internalType": "address",
          "name": "proposer",
          "type": "address"
        }
      ],
      "name": "ProposalCreated",
      "type": "event"
    },
    {
      "anonymous": false,
      "inputs": [
        {
          "indexed": true,
          "internalType": "uint256",
          "name": "id",
          "type": "uint256"
        }
      ],
      "name": "ProposalExecuted",
      "type": "event"
    },
    {
      "anonymous": false,
      "inputs": [
        {
          "indexed": true,
          "internalType": "bytes32",
          "name": "hash",
          "type": "bytes32"
        }
      ],
      "name": "RedeemCancelled",
      "type": "event"
    },
    {
      "anonymous": false,
      "inputs": [
        {
          "indexed": true,
          "internalType": "bytes32",
          "name": "hash",
          "type": "bytes32"
        },
        {
          "indexed": false,
          "internalType": "uint256",
          "name": "points6",
          "type": "uint256"
        },
        {
          "indexed": false,
          "internalType": "uint256",
          "name": "attr",
          "type": "uint256"
        }
      ],
      "name": "RedeemCreated",
      "type": "event"
    },
    {
      "anonymous": false,
      "inputs": [
        {
          "indexed": false,
          "internalType": "uint256",
          "name": "index",
          "type": "uint256"
        },
        {
          "indexed": false,
          "internalType": "uint256",
          "name": "minUsdc6",
          "type": "uint256"
        },
        {
          "indexed": false,
          "internalType": "uint256",
          "name": "attr",
          "type": "uint256"
        },
        {
          "indexed": false,
          "internalType": "uint256",
          "name": "tierExpirySeconds",
          "type": "uint256"
        },
        {
          "indexed": false,
          "internalType": "bool",
          "name": "upgradeByBalance",
          "type": "bool"
        }
      ],
      "name": "TierAppended",
      "type": "event"
    },
    {
      "anonymous": false,
      "inputs": [
        {
          "indexed": false,
          "internalType": "uint256",
          "name": "count",
          "type": "uint256"
        }
      ],
      "name": "TiersUpdated",
      "type": "event"
    },
    {
      "anonymous": false,
      "inputs": [
        {
          "indexed": true,
          "internalType": "address",
          "name": "operator",
          "type": "address"
        },
        {
          "indexed": true,
          "internalType": "address",
          "name": "from",
          "type": "address"
        },
        {
          "indexed": true,
          "internalType": "address",
          "name": "to",
          "type": "address"
        },
        {
          "indexed": false,
          "internalType": "uint256[]",
          "name": "ids",
          "type": "uint256[]"
        },
        {
          "indexed": false,
          "internalType": "uint256[]",
          "name": "values",
          "type": "uint256[]"
        }
      ],
      "name": "TransferBatch",
      "type": "event"
    },
    {
      "anonymous": false,
      "inputs": [
        {
          "indexed": true,
          "internalType": "address",
          "name": "operator",
          "type": "address"
        },
        {
          "indexed": true,
          "internalType": "address",
          "name": "from",
          "type": "address"
        },
        {
          "indexed": true,
          "internalType": "address",
          "name": "to",
          "type": "address"
        },
        {
          "indexed": false,
          "internalType": "uint256",
          "name": "id",
          "type": "uint256"
        },
        {
          "indexed": false,
          "internalType": "uint256",
          "name": "value",
          "type": "uint256"
        }
      ],
      "name": "TransferSingle",
      "type": "event"
    },
    {
      "anonymous": false,
      "inputs": [
        {
          "indexed": false,
          "internalType": "bool",
          "name": "enabled",
          "type": "bool"
        }
      ],
      "name": "TransferWhitelistEnabledUpdated",
      "type": "event"
    },
    {
      "anonymous": false,
      "inputs": [
        {
          "indexed": false,
          "internalType": "string",
          "name": "value",
          "type": "string"
        },
        {
          "indexed": true,
          "internalType": "uint256",
          "name": "id",
          "type": "uint256"
        }
      ],
      "name": "URI",
      "type": "event"
    },
    {
      "inputs": [],
      "name": "ISSUED_NFT_START_ID",
      "outputs": [
        {
          "internalType": "uint256",
          "name": "",
          "type": "uint256"
        }
      ],
      "stateMutability": "view",
      "type": "function"
    },
    {
      "inputs": [],
      "name": "NFT_START_ID",
      "outputs": [
        {
          "internalType": "uint256",
          "name": "",
          "type": "uint256"
        }
      ],
      "stateMutability": "view",
      "type": "function"
    },
    {
      "inputs": [],
      "name": "POINTS_DECIMALS",
      "outputs": [
        {
          "internalType": "uint8",
          "name": "",
          "type": "uint8"
        }
      ],
      "stateMutability": "view",
      "type": "function"
    },
    {
      "inputs": [],
      "name": "POINTS_ID",
      "outputs": [
        {
          "internalType": "uint256",
          "name": "",
          "type": "uint256"
        }
      ],
      "stateMutability": "view",
      "type": "function"
    },
    {
      "inputs": [],
      "name": "VERSION",
      "outputs": [
        {
          "internalType": "uint256",
          "name": "",
          "type": "uint256"
        }
      ],
      "stateMutability": "view",
      "type": "function"
    },
    {
      "inputs": [
        {
          "internalType": "address",
          "name": "",
          "type": "address"
        },
        {
          "internalType": "uint256",
          "name": "",
          "type": "uint256"
        }
      ],
      "name": "_userOwnedNfts",
      "outputs": [
        {
          "internalType": "uint256",
          "name": "",
          "type": "uint256"
        }
      ],
      "stateMutability": "view",
      "type": "function"
    },
    {
      "inputs": [
        {
          "internalType": "address",
          "name": "",
          "type": "address"
        }
      ],
      "name": "activeMembershipId",
      "outputs": [
        {
          "internalType": "uint256",
          "name": "",
          "type": "uint256"
        }
      ],
      "stateMutability": "view",
      "type": "function"
    },
    {
      "inputs": [
        {
          "internalType": "address",
          "name": "",
          "type": "address"
        }
      ],
      "name": "activeTierIndexOrMax",
      "outputs": [
        {
          "internalType": "uint256",
          "name": "",
          "type": "uint256"
        }
      ],
      "stateMutability": "view",
      "type": "function"
    },
    {
      "inputs": [
        {
          "internalType": "address",
          "name": "newAdmin",
          "type": "address"
        },
        {
          "internalType": "uint256",
          "name": "newThreshold",
          "type": "uint256"
        }
      ],
      "name": "addAdmin",
      "outputs": [],
      "stateMutability": "nonpayable",
      "type": "function"
    },
    {
      "inputs": [
        {
          "internalType": "uint256",
          "name": "i",
          "type": "uint256"
        }
      ],
      "name": "adminList",
      "outputs": [
        {
          "internalType": "address",
          "name": "",
          "type": "address"
        }
      ],
      "stateMutability": "view",
      "type": "function"
    },
    {
      "inputs": [
        {
          "internalType": "uint256",
          "name": "minUsdc6",
          "type": "uint256"
        },
        {
          "internalType": "uint256",
          "name": "attr",
          "type": "uint256"
        },
        {
          "internalType": "uint256",
          "name": "tierExpirySeconds",
          "type": "uint256"
        },
        {
          "internalType": "bool",
          "name": "upgradeByBalance",
          "type": "bool"
        }
      ],
      "name": "appendTier",
      "outputs": [],
      "stateMutability": "nonpayable",
      "type": "function"
    },
    {
      "inputs": [
        {
          "internalType": "uint256",
          "name": "id",
          "type": "uint256"
        }
      ],
      "name": "approveProposal",
      "outputs": [],
      "stateMutability": "nonpayable",
      "type": "function"
    },
    {
      "inputs": [
        {
          "internalType": "uint256",
          "name": "id",
          "type": "uint256"
        },
        {
          "internalType": "address",
          "name": "adminSigner",
          "type": "address"
        }
      ],
      "name": "approveProposalByGateway",
      "outputs": [],
      "stateMutability": "nonpayable",
      "type": "function"
    },
    {
      "inputs": [
        {
          "internalType": "uint256",
          "name": "",
          "type": "uint256"
        }
      ],
      "name": "attributes",
      "outputs": [
        {
          "internalType": "uint256",
          "name": "",
          "type": "uint256"
        }
      ],
      "stateMutability": "view",
      "type": "function"
    },
    {
      "inputs": [
        {
          "internalType": "address",
          "name": "account",
          "type": "address"
        },
        {
          "internalType": "uint256",
          "name": "id",
          "type": "uint256"
        }
      ],
      "name": "balanceOf",
      "outputs": [
        {
          "internalType": "uint256",
          "name": "",
          "type": "uint256"
        }
      ],
      "stateMutability": "view",
      "type": "function"
    },
    {
      "inputs": [
        {
          "internalType": "address[]",
          "name": "accounts",
          "type": "address[]"
        },
        {
          "internalType": "uint256[]",
          "name": "ids",
          "type": "uint256[]"
        }
      ],
      "name": "balanceOfBatch",
      "outputs": [
        {
          "internalType": "uint256[]",
          "name": "",
          "type": "uint256[]"
        }
      ],
      "stateMutability": "view",
      "type": "function"
    },
    {
      "inputs": [
        {
          "internalType": "string",
          "name": "code",
          "type": "string"
        }
      ],
      "name": "cancelRedeem",
      "outputs": [],
      "stateMutability": "nonpayable",
      "type": "function"
    },
    {
      "inputs": [
        {
          "internalType": "bytes32",
          "name": "title",
          "type": "bytes32"
        },
        {
          "internalType": "uint64",
          "name": "validAfter",
          "type": "uint64"
        },
        {
          "internalType": "uint64",
          "name": "validBefore",
          "type": "uint64"
        },
        {
          "internalType": "uint256",
          "name": "maxSupply",
          "type": "uint256"
        },
        {
          "internalType": "uint256",
          "name": "priceInCurrency6",
          "type": "uint256"
        },
        {
          "internalType": "bytes32",
          "name": "sharedMetadataHash",
          "type": "bytes32"
        }
      ],
      "name": "createIssuedNft",
      "outputs": [
        {
          "internalType": "uint256",
          "name": "tokenId",
          "type": "uint256"
        }
      ],
      "stateMutability": "nonpayable",
      "type": "function"
    },
    {
      "inputs": [
        {
          "internalType": "bytes4",
          "name": "selector",
          "type": "bytes4"
        },
        {
          "internalType": "address",
          "name": "target",
          "type": "address"
        },
        {
          "internalType": "uint256",
          "name": "v1",
          "type": "uint256"
        },
        {
          "internalType": "uint256",
          "name": "v2",
          "type": "uint256"
        },
        {
          "internalType": "uint256",
          "name": "v3",
          "type": "uint256"
        }
      ],
      "name": "createProposal",
      "outputs": [
        {
          "internalType": "uint256",
          "name": "",
          "type": "uint256"
        }
      ],
      "stateMutability": "nonpayable",
      "type": "function"
    },
    {
      "inputs": [
        {
          "internalType": "bytes32",
          "name": "hash",
          "type": "bytes32"
        },
        {
          "internalType": "uint256",
          "name": "points6",
          "type": "uint256"
        },
        {
          "internalType": "uint256",
          "name": "attr",
          "type": "uint256"
        },
        {
          "internalType": "uint64",
          "name": "validAfter",
          "type": "uint64"
        },
        {
          "internalType": "uint64",
          "name": "validBefore",
          "type": "uint64"
        },
        {
          "internalType": "uint256[]",
          "name": "tokenIds",
          "type": "uint256[]"
        },
        {
          "internalType": "uint256[]",
          "name": "amounts",
          "type": "uint256[]"
        }
      ],
      "name": "createRedeem",
      "outputs": [],
      "stateMutability": "nonpayable",
      "type": "function"
    },
    {
      "inputs": [
        {
          "internalType": "bytes32[]",
          "name": "hashes",
          "type": "bytes32[]"
        },
        {
          "internalType": "uint256",
          "name": "points6",
          "type": "uint256"
        },
        {
          "internalType": "uint256",
          "name": "attr",
          "type": "uint256"
        },
        {
          "internalType": "uint64",
          "name": "validAfter",
          "type": "uint64"
        },
        {
          "internalType": "uint64",
          "name": "validBefore",
          "type": "uint64"
        },
        {
          "internalType": "uint256[]",
          "name": "tokenIds",
          "type": "uint256[]"
        },
        {
          "internalType": "uint256[]",
          "name": "amounts",
          "type": "uint256[]"
        }
      ],
      "name": "createRedeemBatch",
      "outputs": [],
      "stateMutability": "nonpayable",
      "type": "function"
    },
    {
      "inputs": [
        {
          "internalType": "bytes32",
          "name": "poolHash",
          "type": "bytes32"
        },
        {
          "internalType": "uint64",
          "name": "validAfter",
          "type": "uint64"
        },
        {
          "internalType": "uint64",
          "name": "validBefore",
          "type": "uint64"
        },
        {
          "internalType": "uint256[][]",
          "name": "tokenIdsList",
          "type": "uint256[][]"
        },
        {
          "internalType": "uint256[][]",
          "name": "amountsList",
          "type": "uint256[][]"
        },
        {
          "internalType": "uint32[]",
          "name": "counts",
          "type": "uint32[]"
        }
      ],
      "name": "createRedeemPool",
      "outputs": [],
      "stateMutability": "nonpayable",
      "type": "function"
    },
    {
      "inputs": [],
      "name": "currency",
      "outputs": [
        {
          "internalType": "enum BeamioCurrency.CurrencyType",
          "name": "",
          "type": "uint8"
        }
      ],
      "stateMutability": "view",
      "type": "function"
    },
    {
      "inputs": [],
      "name": "debugGateway",
      "outputs": [
        {
          "internalType": "address",
          "name": "",
          "type": "address"
        }
      ],
      "stateMutability": "view",
      "type": "function"
    },
    {
      "inputs": [],
      "name": "defaultAttrWhenNoTiers",
      "outputs": [
        {
          "internalType": "uint256",
          "name": "",
          "type": "uint256"
        }
      ],
      "stateMutability": "view",
      "type": "function"
    },
    {
      "inputs": [],
      "name": "deployer",
      "outputs": [
        {
          "internalType": "address",
          "name": "",
          "type": "address"
        }
      ],
      "stateMutability": "view",
      "type": "function"
    },
    {
      "inputs": [
        {
          "internalType": "uint256",
          "name": "",
          "type": "uint256"
        }
      ],
      "name": "expiresAt",
      "outputs": [
        {
          "internalType": "uint256",
          "name": "",
          "type": "uint256"
        }
      ],
      "stateMutability": "view",
      "type": "function"
    },
    {
      "inputs": [],
      "name": "expirySeconds",
      "outputs": [
        {
          "internalType": "uint256",
          "name": "",
          "type": "uint256"
        }
      ],
      "stateMutability": "view",
      "type": "function"
    },
    {
      "inputs": [],
      "name": "factoryGateway",
      "outputs": [
        {
          "internalType": "address",
          "name": "",
          "type": "address"
        }
      ],
      "stateMutability": "view",
      "type": "function"
    },
    {
      "inputs": [
        {
          "internalType": "address",
          "name": "userEOA",
          "type": "address"
        },
        {
          "internalType": "uint256",
          "name": "id",
          "type": "uint256"
        },
        {
          "internalType": "uint256",
          "name": "amount",
          "type": "uint256"
        }
      ],
      "name": "faucetByGateway",
      "outputs": [],
      "stateMutability": "nonpayable",
      "type": "function"
    },
    {
      "inputs": [
        {
          "internalType": "uint256",
          "name": "id",
          "type": "uint256"
        }
      ],
      "name": "faucetConfig",
      "outputs": [
        {
          "components": [
            {
              "internalType": "uint64",
              "name": "validUntil",
              "type": "uint64"
            },
            {
              "internalType": "uint64",
              "name": "perClaimMax",
              "type": "uint64"
            },
            {
              "internalType": "uint128",
              "name": "maxPerUser",
              "type": "uint128"
            },
            {
              "internalType": "uint128",
              "name": "maxGlobal",
              "type": "uint128"
            },
            {
              "internalType": "bool",
              "name": "enabled",
              "type": "bool"
            },
            {
              "internalType": "uint8",
              "name": "currency",
              "type": "uint8"
            },
            {
              "internalType": "uint8",
              "name": "decimals",
              "type": "uint8"
            },
            {
              "internalType": "uint128",
              "name": "priceInCurrency6",
              "type": "uint128"
            }
          ],
          "internalType": "struct FaucetStorage.FaucetConfig",
          "name": "",
          "type": "tuple"
        }
      ],
      "stateMutability": "view",
      "type": "function"
    },
    {
      "inputs": [],
      "name": "gateway",
      "outputs": [
        {
          "internalType": "address",
          "name": "",
          "type": "address"
        }
      ],
      "stateMutability": "view",
      "type": "function"
    },
    {
      "inputs": [
        {
          "internalType": "address",
          "name": "user",
          "type": "address"
        }
      ],
      "name": "getOwnership",
      "outputs": [
        {
          "internalType": "uint256",
          "name": "pt",
          "type": "uint256"
        },
        {
          "components": [
            {
              "internalType": "uint256",
              "name": "tokenId",
              "type": "uint256"
            },
            {
              "internalType": "uint256",
              "name": "attribute",
              "type": "uint256"
            },
            {
              "internalType": "uint256",
              "name": "tierIndexOrMax",
              "type": "uint256"
            },
            {
              "internalType": "uint256",
              "name": "expiry",
              "type": "uint256"
            },
            {
              "internalType": "bool",
              "name": "isExpired",
              "type": "bool"
            }
          ],
          "internalType": "struct BeamioUserCard.NFTDetail[]",
          "name": "nfts",
          "type": "tuple[]"
        }
      ],
      "stateMutability": "view",
      "type": "function"
    },
    {
      "inputs": [
        {
          "internalType": "address",
          "name": "userEOA",
          "type": "address"
        }
      ],
      "name": "getOwnershipByEOA",
      "outputs": [
        {
          "internalType": "uint256",
          "name": "pt",
          "type": "uint256"
        },
        {
          "components": [
            {
              "internalType": "uint256",
              "name": "tokenId",
              "type": "uint256"
            },
            {
              "internalType": "uint256",
              "name": "attribute",
              "type": "uint256"
            },
            {
              "internalType": "uint256",
              "name": "tierIndexOrMax",
              "type": "uint256"
            },
            {
              "internalType": "uint256",
              "name": "expiry",
              "type": "uint256"
            },
            {
              "internalType": "bool",
              "name": "isExpired",
              "type": "bool"
            }
          ],
          "internalType": "struct BeamioUserCard.NFTDetail[]",
          "name": "nfts",
          "type": "tuple[]"
        }
      ],
      "stateMutability": "view",
      "type": "function"
    },
    {
      "inputs": [
        {
          "internalType": "bytes32",
          "name": "hash",
          "type": "bytes32"
        }
      ],
      "name": "getRedeemStatus",
      "outputs": [
        {
          "internalType": "bool",
          "name": "active",
          "type": "bool"
        },
        {
          "internalType": "uint256",
          "name": "totalPoints6",
          "type": "uint256"
        }
      ],
      "stateMutability": "view",
      "type": "function"
    },
    {
      "inputs": [
        {
          "internalType": "string[]",
          "name": "codes",
          "type": "string[]"
        }
      ],
      "name": "getRedeemStatusBatch",
      "outputs": [
        {
          "internalType": "bool[]",
          "name": "active",
          "type": "bool[]"
        },
        {
          "internalType": "uint256[]",
          "name": "totalPoints6",
          "type": "uint256[]"
        }
      ],
      "stateMutability": "view",
      "type": "function"
    },
    {
      "inputs": [
        {
          "internalType": "bytes32[]",
          "name": "hashes",
          "type": "bytes32[]"
        }
      ],
      "name": "getRedeemStatusBatch",
      "outputs": [
        {
          "internalType": "bool[]",
          "name": "active",
          "type": "bool[]"
        },
        {
          "internalType": "uint256[]",
          "name": "totalPoints6",
          "type": "uint256[]"
        }
      ],
      "stateMutability": "view",
      "type": "function"
    },
    {
      "inputs": [
        {
          "internalType": "bytes32",
          "name": "hash",
          "type": "bytes32"
        },
        {
          "internalType": "address",
          "name": "claimer",
          "type": "address"
        }
      ],
      "name": "getRedeemStatusEx",
      "outputs": [
        {
          "internalType": "bool",
          "name": "active",
          "type": "bool"
        },
        {
          "internalType": "uint128",
          "name": "points6",
          "type": "uint128"
        },
        {
          "internalType": "bool",
          "name": "isPool",
          "type": "bool"
        }
      ],
      "stateMutability": "view",
      "type": "function"
    },
    {
      "inputs": [
        {
          "internalType": "uint256",
          "name": "idx",
          "type": "uint256"
        }
      ],
      "name": "getTierAt",
      "outputs": [
        {
          "components": [
            {
              "internalType": "uint256",
              "name": "minUsdc6",
              "type": "uint256"
            },
            {
              "internalType": "uint256",
              "name": "attr",
              "type": "uint256"
            },
            {
              "internalType": "uint256",
              "name": "tierExpirySeconds",
              "type": "uint256"
            },
            {
              "internalType": "bool",
              "name": "upgradeByBalance",
              "type": "bool"
            }
          ],
          "internalType": "struct BeamioUserCard.Tier",
          "name": "",
          "type": "tuple"
        }
      ],
      "stateMutability": "view",
      "type": "function"
    },
    {
      "inputs": [],
      "name": "getTiersCount",
      "outputs": [
        {
          "internalType": "uint256",
          "name": "",
          "type": "uint256"
        }
      ],
      "stateMutability": "view",
      "type": "function"
    },
    {
      "inputs": [
        {
          "internalType": "address",
          "name": "a",
          "type": "address"
        }
      ],
      "name": "isAdmin",
      "outputs": [
        {
          "internalType": "bool",
          "name": "",
          "type": "bool"
        }
      ],
      "stateMutability": "view",
      "type": "function"
    },
    {
      "inputs": [
        {
          "internalType": "address",
          "name": "account",
          "type": "address"
        },
        {
          "internalType": "address",
          "name": "operator",
          "type": "address"
        }
      ],
      "name": "isApprovedForAll",
      "outputs": [
        {
          "internalType": "bool",
          "name": "",
          "type": "bool"
        }
      ],
      "stateMutability": "view",
      "type": "function"
    },
    {
      "inputs": [
        {
          "internalType": "uint256",
          "name": "tokenId",
          "type": "uint256"
        }
      ],
      "name": "isIssuedNftValid",
      "outputs": [
        {
          "internalType": "bool",
          "name": "",
          "type": "bool"
        }
      ],
      "stateMutability": "view",
      "type": "function"
    },
    {
      "inputs": [],
      "name": "issuedNftIndex",
      "outputs": [
        {
          "internalType": "uint256",
          "name": "",
          "type": "uint256"
        }
      ],
      "stateMutability": "view",
      "type": "function"
    },
    {
      "inputs": [
        {
          "internalType": "uint256",
          "name": "tokenId",
          "type": "uint256"
        }
      ],
      "name": "issuedNftMaxSupply",
      "outputs": [
        {
          "internalType": "uint256",
          "name": "",
          "type": "uint256"
        }
      ],
      "stateMutability": "view",
      "type": "function"
    },
    {
      "inputs": [
        {
          "internalType": "uint256",
          "name": "tokenId",
          "type": "uint256"
        }
      ],
      "name": "issuedNftMintedCount",
      "outputs": [
        {
          "internalType": "uint256",
          "name": "",
          "type": "uint256"
        }
      ],
      "stateMutability": "view",
      "type": "function"
    },
    {
      "inputs": [
        {
          "internalType": "uint256",
          "name": "tokenId",
          "type": "uint256"
        }
      ],
      "name": "issuedNftPriceInCurrency6",
      "outputs": [
        {
          "internalType": "uint256",
          "name": "",
          "type": "uint256"
        }
      ],
      "stateMutability": "view",
      "type": "function"
    },
    {
      "inputs": [
        {
          "internalType": "uint256",
          "name": "tokenId",
          "type": "uint256"
        }
      ],
      "name": "issuedNftSharedMetadataHash",
      "outputs": [
        {
          "internalType": "bytes32",
          "name": "",
          "type": "bytes32"
        }
      ],
      "stateMutability": "view",
      "type": "function"
    },
    {
      "inputs": [
        {
          "internalType": "uint256",
          "name": "tokenId",
          "type": "uint256"
        }
      ],
      "name": "issuedNftTitle",
      "outputs": [
        {
          "internalType": "bytes32",
          "name": "",
          "type": "bytes32"
        }
      ],
      "stateMutability": "view",
      "type": "function"
    },
    {
      "inputs": [
        {
          "internalType": "uint256",
          "name": "tokenId",
          "type": "uint256"
        }
      ],
      "name": "issuedNftValidAfter",
      "outputs": [
        {
          "internalType": "uint64",
          "name": "",
          "type": "uint64"
        }
      ],
      "stateMutability": "view",
      "type": "function"
    },
    {
      "inputs": [
        {
          "internalType": "uint256",
          "name": "tokenId",
          "type": "uint256"
        }
      ],
      "name": "issuedNftValidBefore",
      "outputs": [
        {
          "internalType": "uint64",
          "name": "",
          "type": "uint64"
        }
      ],
      "stateMutability": "view",
      "type": "function"
    },
    {
      "inputs": [
        {
          "internalType": "address",
          "name": "userEOA",
          "type": "address"
        },
        {
          "internalType": "uint256",
          "name": "id",
          "type": "uint256"
        },
        {
          "internalType": "uint256",
          "name": "amount6",
          "type": "uint256"
        }
      ],
      "name": "mintFaucetByGateway",
      "outputs": [],
      "stateMutability": "nonpayable",
      "type": "function"
    },
    {
      "inputs": [
        {
          "internalType": "address",
          "name": "userEOA",
          "type": "address"
        },
        {
          "internalType": "uint256",
          "name": "tokenId",
          "type": "uint256"
        },
        {
          "internalType": "uint256",
          "name": "amount",
          "type": "uint256"
        }
      ],
      "name": "mintIssuedNftByGateway",
      "outputs": [],
      "stateMutability": "nonpayable",
      "type": "function"
    },
    {
      "inputs": [
        {
          "internalType": "address",
          "name": "to",
          "type": "address"
        },
        {
          "internalType": "uint256",
          "name": "tokenId",
          "type": "uint256"
        },
        {
          "internalType": "uint256",
          "name": "amount",
          "type": "uint256"
        }
      ],
      "name": "mintIssuedNftByOwner",
      "outputs": [],
      "stateMutability": "nonpayable",
      "type": "function"
    },
    {
      "inputs": [
        {
          "internalType": "address",
          "name": "user",
          "type": "address"
        },
        {
          "internalType": "uint256",
          "name": "tierIndex",
          "type": "uint256"
        }
      ],
      "name": "mintMemberCardByAdmin",
      "outputs": [],
      "stateMutability": "nonpayable",
      "type": "function"
    },
    {
      "inputs": [
        {
          "internalType": "address",
          "name": "user",
          "type": "address"
        },
        {
          "internalType": "uint256",
          "name": "points6",
          "type": "uint256"
        }
      ],
      "name": "mintPointsByAdmin",
      "outputs": [],
      "stateMutability": "nonpayable",
      "type": "function"
    },
    {
      "inputs": [
        {
          "internalType": "address",
          "name": "userEOA",
          "type": "address"
        },
        {
          "internalType": "uint256",
          "name": "points6",
          "type": "uint256"
        }
      ],
      "name": "mintPointsByGateway",
      "outputs": [],
      "stateMutability": "nonpayable",
      "type": "function"
    },
    {
      "inputs": [],
      "name": "owner",
      "outputs": [
        {
          "internalType": "address",
          "name": "",
          "type": "address"
        }
      ],
      "stateMutability": "view",
      "type": "function"
    },
    {
      "inputs": [],
      "name": "pointsUnitPriceInCurrencyE6",
      "outputs": [
        {
          "internalType": "uint256",
          "name": "",
          "type": "uint256"
        }
      ],
      "stateMutability": "view",
      "type": "function"
    },
    {
      "inputs": [],
      "name": "proposalCount",
      "outputs": [
        {
          "internalType": "uint256",
          "name": "",
          "type": "uint256"
        }
      ],
      "stateMutability": "view",
      "type": "function"
    },
    {
      "inputs": [
        {
          "internalType": "uint256",
          "name": "id",
          "type": "uint256"
        }
      ],
      "name": "proposals",
      "outputs": [
        {
          "components": [
            {
              "internalType": "address",
              "name": "target",
              "type": "address"
            },
            {
              "internalType": "uint256",
              "name": "v1",
              "type": "uint256"
            },
            {
              "internalType": "uint256",
              "name": "v2",
              "type": "uint256"
            },
            {
              "internalType": "uint256",
              "name": "v3",
              "type": "uint256"
            },
            {
              "internalType": "bytes4",
              "name": "selector",
              "type": "bytes4"
            },
            {
              "internalType": "uint256",
              "name": "approvals",
              "type": "uint256"
            },
            {
              "internalType": "bool",
              "name": "executed",
              "type": "bool"
            }
          ],
          "internalType": "struct GovernanceStorage.Proposal",
          "name": "",
          "type": "tuple"
        }
      ],
      "stateMutability": "view",
      "type": "function"
    },
    {
      "inputs": [
        {
          "internalType": "string[]",
          "name": "codes",
          "type": "string[]"
        },
        {
          "internalType": "address",
          "name": "userEOA",
          "type": "address"
        }
      ],
      "name": "redeemBatchByGateway",
      "outputs": [],
      "stateMutability": "nonpayable",
      "type": "function"
    },
    {
      "inputs": [
        {
          "internalType": "string",
          "name": "code",
          "type": "string"
        },
        {
          "internalType": "address",
          "name": "userEOA",
          "type": "address"
        }
      ],
      "name": "redeemByGateway",
      "outputs": [],
      "stateMutability": "nonpayable",
      "type": "function"
    },
    {
      "inputs": [
        {
          "internalType": "string",
          "name": "code",
          "type": "string"
        },
        {
          "internalType": "address",
          "name": "userEOA",
          "type": "address"
        }
      ],
      "name": "redeemPoolByGateway",
      "outputs": [],
      "stateMutability": "nonpayable",
      "type": "function"
    },
    {
      "inputs": [],
      "name": "renounceOwnership",
      "outputs": [],
      "stateMutability": "nonpayable",
      "type": "function"
    },
    {
      "inputs": [
        {
          "internalType": "address",
          "name": "from",
          "type": "address"
        },
        {
          "internalType": "address",
          "name": "to",
          "type": "address"
        },
        {
          "internalType": "uint256[]",
          "name": "ids",
          "type": "uint256[]"
        },
        {
          "internalType": "uint256[]",
          "name": "values",
          "type": "uint256[]"
        },
        {
          "internalType": "bytes",
          "name": "data",
          "type": "bytes"
        }
      ],
      "name": "safeBatchTransferFrom",
      "outputs": [],
      "stateMutability": "nonpayable",
      "type": "function"
    },
    {
      "inputs": [
        {
          "internalType": "address",
          "name": "from",
          "type": "address"
        },
        {
          "internalType": "address",
          "name": "to",
          "type": "address"
        },
        {
          "internalType": "uint256",
          "name": "id",
          "type": "uint256"
        },
        {
          "internalType": "uint256",
          "name": "value",
          "type": "uint256"
        },
        {
          "internalType": "bytes",
          "name": "data",
          "type": "bytes"
        }
      ],
      "name": "safeTransferFrom",
      "outputs": [],
      "stateMutability": "nonpayable",
      "type": "function"
    },
    {
      "inputs": [
        {
          "internalType": "address",
          "name": "operator",
          "type": "address"
        },
        {
          "internalType": "bool",
          "name": "approved",
          "type": "bool"
        }
      ],
      "name": "setApprovalForAll",
      "outputs": [],
      "stateMutability": "nonpayable",
      "type": "function"
    },
    {
      "inputs": [
        {
          "internalType": "uint256",
          "name": "attr",
          "type": "uint256"
        }
      ],
      "name": "setDefaultAttr",
      "outputs": [],
      "stateMutability": "nonpayable",
      "type": "function"
    },
    {
      "inputs": [
        {
          "internalType": "uint256",
          "name": "secs",
          "type": "uint256"
        }
      ],
      "name": "setExpirySeconds",
      "outputs": [],
      "stateMutability": "nonpayable",
      "type": "function"
    },
    {
      "inputs": [
        {
          "internalType": "uint256",
          "name": "id",
          "type": "uint256"
        },
        {
          "internalType": "uint64",
          "name": "validUntil",
          "type": "uint64"
        },
        {
          "internalType": "uint64",
          "name": "perClaimMax",
          "type": "uint64"
        },
        {
          "internalType": "uint128",
          "name": "maxPerUser",
          "type": "uint128"
        },
        {
          "internalType": "uint128",
          "name": "maxGlobal",
          "type": "uint128"
        },
        {
          "internalType": "bool",
          "name": "enabled",
          "type": "bool"
        },
        {
          "internalType": "enum BeamioCurrency.CurrencyType",
          "name": "cur",
          "type": "uint8"
        },
        {
          "internalType": "uint128",
          "name": "priceInCurrency6",
          "type": "uint128"
        }
      ],
      "name": "setFaucetConfig",
      "outputs": [],
      "stateMutability": "nonpayable",
      "type": "function"
    },
    {
      "inputs": [
        {
          "internalType": "uint256",
          "name": "priceInCurrencyE6",
          "type": "uint256"
        }
      ],
      "name": "setPointsUnitPrice",
      "outputs": [],
      "stateMutability": "nonpayable",
      "type": "function"
    },
    {
      "inputs": [
        {
          "components": [
            {
              "internalType": "uint256",
              "name": "minUsdc6",
              "type": "uint256"
            },
            {
              "internalType": "uint256",
              "name": "attr",
              "type": "uint256"
            },
            {
              "internalType": "uint256",
              "name": "tierExpirySeconds",
              "type": "uint256"
            },
            {
              "internalType": "bool",
              "name": "upgradeByBalance",
              "type": "bool"
            }
          ],
          "internalType": "struct BeamioUserCard.Tier[]",
          "name": "newTiers",
          "type": "tuple[]"
        }
      ],
      "name": "setTiers",
      "outputs": [],
      "stateMutability": "nonpayable",
      "type": "function"
    },
    {
      "inputs": [
        {
          "internalType": "address",
          "name": "target",
          "type": "address"
        },
        {
          "internalType": "bool",
          "name": "allowed",
          "type": "bool"
        }
      ],
      "name": "setTransferWhitelist",
      "outputs": [],
      "stateMutability": "nonpayable",
      "type": "function"
    },
    {
      "inputs": [
        {
          "internalType": "bool",
          "name": "enabled",
          "type": "bool"
        }
      ],
      "name": "setTransferWhitelistEnabled",
      "outputs": [],
      "stateMutability": "nonpayable",
      "type": "function"
    },
    {
      "inputs": [
        {
          "internalType": "bytes4",
          "name": "interfaceId",
          "type": "bytes4"
        }
      ],
      "name": "supportsInterface",
      "outputs": [
        {
          "internalType": "bool",
          "name": "",
          "type": "bool"
        }
      ],
      "stateMutability": "view",
      "type": "function"
    },
    {
      "inputs": [
        {
          "internalType": "bytes32",
          "name": "poolHash",
          "type": "bytes32"
        }
      ],
      "name": "terminateRedeemPool",
      "outputs": [],
      "stateMutability": "nonpayable",
      "type": "function"
    },
    {
      "inputs": [],
      "name": "threshold",
      "outputs": [
        {
          "internalType": "uint256",
          "name": "",
          "type": "uint256"
        }
      ],
      "stateMutability": "view",
      "type": "function"
    },
    {
      "inputs": [
        {
          "internalType": "uint256",
          "name": "",
          "type": "uint256"
        }
      ],
      "name": "tiers",
      "outputs": [
        {
          "internalType": "uint256",
          "name": "minUsdc6",
          "type": "uint256"
        },
        {
          "internalType": "uint256",
          "name": "attr",
          "type": "uint256"
        },
        {
          "internalType": "uint256",
          "name": "tierExpirySeconds",
          "type": "uint256"
        },
        {
          "internalType": "bool",
          "name": "upgradeByBalance",
          "type": "bool"
        }
      ],
      "stateMutability": "view",
      "type": "function"
    },
    {
      "inputs": [
        {
          "internalType": "uint256",
          "name": "",
          "type": "uint256"
        }
      ],
      "name": "tokenTierIndexOrMax",
      "outputs": [
        {
          "internalType": "uint256",
          "name": "",
          "type": "uint256"
        }
      ],
      "stateMutability": "view",
      "type": "function"
    },
    {
      "inputs": [
        {
          "internalType": "address",
          "name": "newOwner",
          "type": "address"
        }
      ],
      "name": "transferOwnership",
      "outputs": [],
      "stateMutability": "nonpayable",
      "type": "function"
    },
    {
      "inputs": [
        {
          "internalType": "address",
          "name": "",
          "type": "address"
        }
      ],
      "name": "transferWhitelist",
      "outputs": [
        {
          "internalType": "bool",
          "name": "",
          "type": "bool"
        }
      ],
      "stateMutability": "view",
      "type": "function"
    },
    {
      "inputs": [],
      "name": "transferWhitelistEnabled",
      "outputs": [
        {
          "internalType": "bool",
          "name": "",
          "type": "bool"
        }
      ],
      "stateMutability": "view",
      "type": "function"
    },
    {
      "inputs": [
        {
          "internalType": "uint256",
          "name": "",
          "type": "uint256"
        }
      ],
      "name": "uri",
      "outputs": [
        {
          "internalType": "string",
          "name": "",
          "type": "string"
        }
      ],
      "stateMutability": "view",
      "type": "function"
    }
  ],
  "bytecode": "0x60a060405234610442576163048038038061001981610446565b92833981019060a0818303126104425780516001600160401b03811161044257810182601f82011215610442578051906001600160401b0382116102fd5761006a601f8301601f1916602001610446565b938285526020838301011161044257815f9260208093018387015e84010152602081015190600d821015610442576040810151906100b660806100af6060840161046b565b920161046b565b845190946001600160401b0382116102fd5760025490600182811c92168015610438575b60208310146104245781601f8493116103ae575b50602090601f8311600114610348575f9261033d575b50508160011b915f199060031b1c1916176002555b6001600160a01b031691821561032a57600380546001600160a01b031981168517909155604051949084906001600160a01b03167f8be0079c531659141344cd1fd0a4f28419497f9722a3daafe3b4186f6b6457e05f80a3600160045560646013556001600160a01b038116908115908115610320575b506103115733608052600580546001600160a01b03191682179055600680546001600160a81b03191690911760a09290921b60ff60a01b1691909117905560075560017fbc488d3e2575f0f2113dc4d9a0cd6bc52445c6bc28a8974ed97a6ba3ecfd657a8190555f8281527fbc488d3e2575f0f2113dc4d9a0cd6bc52445c6bc28a8974ed97a6ba3ecfd657b60205260409020805460ff191690911790555f5160206162e45f395f51905f5254680100000000000000008110156102fd5760018101805f5160206162e45f395f51905f52558110156102e9575f5160206162e45f395f51905f525f527f1e7af2776b414202f4d0720b6aeaf88d7ffd91a44ea0aa781eb527e3c97a87b90180546001600160a01b031916909117905564174876e8007ffed699897f2561c8a98f833aa3de83c4904370d413fe5fb15abe26e9f8150b2955615e649081610480823960805181612d460152f35b634e487b7160e01b5f52603260045260245ffd5b634e487b7160e01b5f52604160045260245ffd5b63ab82bb9960e01b5f5260045ffd5b90503b155f610190565b631e4fbdf760e01b5f525f60045260245ffd5b015190505f80610104565b60025f9081528281209350601f198516905b818110610396575090846001959493921061037e575b505050811b01600255610119565b01515f1960f88460031b161c191690555f8080610370565b9293602060018192878601518155019501930161035a565b828111156100ee5760025f52909150601f830160051c7f405787fa12a823e0f2b7631cc41b3ba8828b3321ca811111fa75cd3aa3bb5ace6020851061041c575b849392601f0160051c82900391015f5b82811061040c5750506100ee565b5f818301558594506001016103fe565b5f91506103ee565b634e487b7160e01b5f52602260045260245ffd5b91607f16916100da565b5f80fd5b6040519190601f01601f191682016001600160401b038111838210176102fd57604052565b51906001600160a01b03821682036104425756fe60806040526004361015610011575f80fd5b5f3560e01c8062fdd58e14610549578063013cf08b1461054457806301f28d911461053f57806301ffc9a71461053a578063039af9eb1461053557806303ca3e38146105305780630b6c8d711461052b5780630bd67833146105265780630e4ab487146105215780630e89341c1461051c57806310bba8641461051757806311117fc814610512578063116191b6146104ae5780631284b92f1461050d57806315a762291461050857806317c95709146105035780631c790e24146104fe57806322c6102e146104f957806324d7806c146104f457806325458265146104ef5780632b681a54146104ea5780632eb2c2d6146104e5578063312e76a9146104e057806331b86d35146104db57806334bca52c146104d65780633c703d45146104d15780633c970fb9146104cc57806342cde4e8146104c7578063475e53ec146104c25780634dda2215146104bd5780634e1273f4146104b857806352b9ec23146104b357806353785619146104ae5780635637d5bc146104a9578063564da757146104a4578063569881301461049f5780636465c3a71461049a578063671395c814610495578063677f58b914610490578063684cc3a51461048b578063706e013214610486578063715018a61461048157806371b8982f146103b957806371d7193b1461047c5780637940482b146104775780637fcb29c9146104725780637ffbe2411461046d57806382b720c91461046857806383dbbf5314610463578063897828a81461045e5780638b3c6f8f146104595780638da5cb5b146104545780638db553081461044f57806391afe1721461044a57806394b2e946146104455780639565c5421461044057806395f7b2ff1461043b57806398951b56146104365780639f1bbda7146104315780639f48facc1461042c578063a22cb46514610427578063a479044614610422578063a876c7591461041d578063a98d916e14610418578063af7ffa2b14610413578063b3b86ddc1461040e578063c6073f1614610409578063c926bbfd14610404578063cbc4e1aa146103ff578063d05dcc6a146103fa578063d4506e77146103f5578063d52dc515146103f0578063d5f39488146103eb578063da35c664146103e6578063e141dcb8146103e1578063e4a34dce146103dc578063e5a6b10f146103d7578063e985e9c5146103d2578063f242432a146103cd578063f2fde38b146103c8578063f51089f6146103c3578063f540f227146103be578063f986f676146103b95763ffa1ad74146103b4575f80fd5b6131f7565b611d40565b6131cd565b6130e6565b61306f565b612f82565b612f37565b612ef7565b612ec2565b612db1565b612d75565b612d31565b612d0f565b612cb7565b612c8d565b612ba8565b612b8e565b612a9b565b612a5d565b612977565b612958565b61293b565b61269f565b612620565b6124d5565b612434565b6123c0565b612377565b61234f565b612314565b612289565b612261565b612239565b6121f0565b61218e565b61212c565b612021565b611fe1565b611f51565b611f13565b611e0c565b611c93565b611c74565b611c2b565b611be0565b611b98565b611aa6565b61194b565b611893565b611878565b610e2a565b6117e4565b611723565b6116c2565b611650565b611627565b6115e7565b61159e565b611555565b611529565b6114ce565b61143a565b61129b565b61125f565b61122a565b611193565b6110a6565b61107c565b610f74565b610f18565b610dcb565b610d8c565b610c07565b610b81565b610b09565b610a54565b61084a565b6107cd565b61072a565b6106fb565b6105ab565b61056f565b6001600160a01b031690565b6001600160a01b0381160361056b57565b5f80fd5b3461056b57604036600319011261056b5760206105a26004356105918161055a565b6024355f525f835260405f20610eee565b54604051908152f35b3461056b57602036600319011261056b576004355f60c06040516105ce816112cf565b8281528260208201528260408201528260608201528260808201528260a082015201525f525f516020615dcf5f395f51905f526020526106f760405f2061069561068c600660405193610620856112cf565b61063a61062d825461054e565b6001600160a01b03168652565b60018101546020860152600281015460408601526003810154606086015261067a610669600483015460e01b90565b6001600160e01b0319166080870152565b600581015460a0860152015460ff1690565b151560c0830152565b6040519182918291909160c08060e083019460018060a01b03815116845260208101516020850152604081015160408501526060810151606085015263ffffffff60e01b608082015116608085015260a081015160a085015201511515910152565b0390f35b3461056b575f36600319011261056b576020601154604051908152f35b6001600160e01b031981160361056b57565b3461056b57602036600319011261056b57602060043561074981610718565b63ffffffff60e01b16636cdb3d1360e11b8114908115610787575b8115610776575b506040519015158152f35b6301ffc9a760e01b1490505f61076b565b6303a24d0760e21b81149150610764565b634e487b7160e01b5f52603260045260245ffd5b6011548110156107c85760115f5260205f209060021b01905f90565b610798565b3461056b57602036600319011261056b5760043560115481101561056b576107f66080916107ac565b5080549060018101549060ff6003600283015492015416916040519384526020840152604083015215156060820152f35b606090600319011261056b5760043561083f8161055a565b906024359060443590565b3461056b5761085836610827565b6006546001600160a01b0316806109e157506005546001600160a01b03165b6001600160a01b031633036109d25761088e6141ab565b6001600160a01b0383169182156109c35781156109b4575f9182916108d76108e56108b76141eb565b93604051928391602083019563c791063b60e01b87528b60248501613212565b03601f198101835282611326565b51915af4916108f2613244565b92156109ae57610919836020805f516020615c2f5f395f51905f5296518301019101613273565b93909161096c610928826142ee565b91610932836143e1565b61093b83610e52565b5415610950610948613230565b898887614570565b856109a75787905b610997575b5061096785610fe4565b610eee565b546040516001600160a01b039092169582916109889183613289565b0390a46109956001600455565b005b6109a190846145ef565b5f61095d565b5f90610958565b826142a7565b63201165f360e21b5f5260045ffd5b63a9b8048960e01b5f5260045ffd5b6396f47d2360e01b5f5260045ffd5b610877565b6060602091604081019381526040838201528451809452019201905f5b818110610a105750505090565b909192602060a06001926080875180518352848101518584015260408101516040840152606081015160608401520151151560808201520194019101919091610a03565b3461056b57602036600319011261056b57610a81610a7c600435610a778161055a565b614813565b61368a565b906106f7604051928392836109e6565b602435906001600160401b038216820361056b57565b604435906001600160401b038216820361056b57565b606435906001600160401b038216820361056b57565b608435906001600160401b038216820361056b57565b60e435906001600160801b038216820361056b57565b8015150361056b57565b3461056b5761010036600319011261056b57600435610b26610a91565b90610b2f610aa7565b6064356001600160801b038116810361056b576084356001600160801b038116810361056b5760a43591610b6283610aff565b60c43593600d85101561056b5761099596610b7b610ae9565b9661329a565b3461056b57602036600319011261056b57600435610b9d61491b565b7ff316e065e93b4fddef3d2d93a57817985081f76ea9e0ca7417ed5b4b086b1fcb6020601254604051908152a1601255005b805180835260209291819084018484015e5f828201840152601f01601f1916010190565b906020610c04928181520190610bcf565b90565b3461056b57602036600319011261056b57604051610c26606082611326565b602181527f68747470733a2f2f6170692e6265616d696f2e696f2f6d657461646174612f306020820152600f60fb1b604082015260405190610c8e82610c80306020830160149160018060601b03199060601b1681520190565b03601f198101845283611326565b610c9661497f565b91610c9f6149ad565b925f5b60148110610cf0576040516106f790610ce4816108d7610ccf8a610cc9602085018c61346e565b9061346e565b683db4b23e973539b7b760b91b815260090190565b60405191829182610bf3565b80610d38610d0f610d32610d2c610d23610d1d610d0f6001988b6149cf565b516001600160f81b03191690565b60f81c90565b60041c600f1690565b60ff1690565b856149cf565b610d4e610d44836137dd565b915f1a91886149cf565b53610d71610d0f610d32600f610d6a610d1d610d0f878b6149cf565b1660ff1690565b610d85610d44610d80846137dd565b614158565b5301610ca2565b3461056b575f36600319011261056b57602060405160068152f35b6001600160a01b0316600452602490565b6001600160a01b03909116815260200190565b3461056b57602036600319011261056b576004355f516020615c4f5f395f51905f52548110156107c8575f516020615c4f5f395f51905f525f525f516020615d0f5f395f51905f5201546040516001600160a01b039091168152602090f35b3461056b575f36600319011261056b576005546040516001600160a01b039091168152602090f35b6001600160a01b03165f908152600f6020526040902090565b6001600160a01b03165f9081527fbc488d3e2575f0f2113dc4d9a0cd6bc52445c6bc28a8974ed97a6ba3ecfd657b6020526040902090565b6001600160a01b03165f908152600e6020526040902090565b6001600160a01b03165f90815260106020526040902090565b6001600160a01b03165f90815260096020526040902090565b9060018060a01b03165f5260205260405f2090565b80548210156107c8575f5260205f2001905f90565b3461056b57604036600319011261056b57600435610f358161055a565b6001600160a01b03165f908152600e602052604090208054602435919082101561056b57602091610f6591610f03565b90549060031b1c604051908152f35b3461056b57602036600319011261056b576080610fbb610fb56004355f6060604051610f9f816112ef565b82815282602082015282604082015201526107ac565b50613480565b606060405191805183526020810151602084015260408101516040840152015115156060820152f35b5f527fe5fcefe92466b78c655fa732b80b16e07a00f2a897e833e17d9914703cad563360205260405f2090565b5f525f516020615cef5f395f51905f5260205260405f2090565b5f525f516020615caf5f395f51905f5260205260405f2090565b5f52600b60205260405f2090565b5f52600c60205260405f2090565b5f52600d60205260405f2090565b5f525f60205260405f2090565b3461056b57602036600319011261056b576004355f52600b602052602060405f2054604051908152f35b3461056b57604036600319011261056b576024356004356110c68261055a565b6006546001600160a01b03168061115e57506005546001600160a01b03165b6001600160a01b031633036109d2575f806110fe6149e0565b93604051602081019163071e438960e21b835285602483015260018060a01b0316604482015260448152611133606482611326565b5190855af4611140613244565b501561114f5761099591614a80565b6363bc5ecb60e11b5f5260045ffd5b6110e5565b9181601f8401121561056b578235916001600160401b03831161056b576020808501948460051b01011161056b57565b3461056b5760e036600319011261056b576004356001600160401b03811161056b576111c3903690600401611163565b602435916044356111d2610abd565b906111db610ad3565b60a4356001600160401b03811161056b576111fa903690600401611163565b60c4359790949193906001600160401b03891161056b57611222610995993690600401611163565b9890976134b7565b3461056b57602036600319011261056b57602060ff61125360043561124e8161055a565b610e6b565b54166040519015158152f35b3461056b575f36600319011261056b5760207ffed699897f2561c8a98f833aa3de83c4904370d413fe5fb15abe26e9f8150b2954604051908152f35b3461056b57602036600319011261056b57610a81600435610a7c8161055a565b634e487b7160e01b5f52604160045260245ffd5b60e081019081106001600160401b038211176112ea57604052565b6112bb565b608081019081106001600160401b038211176112ea57604052565b61010081019081106001600160401b038211176112ea57604052565b601f909101601f19168101906001600160401b038211908210176112ea57604052565b6040519061135860a083611326565b565b6001600160401b0381116112ea5760051b60200190565b9080601f8301121561056b5781356113888161135a565b926113966040519485611326565b81845260208085019260051b82010192831161056b57602001905b8282106113be5750505090565b81358152602091820191016113b1565b6001600160401b0381116112ea57601f01601f191660200190565b9291926113f5826113ce565b916114036040519384611326565b82948184528183011161056b578281602093845f960137010152565b9080601f8301121561056b57816020610c04933591016113e9565b3461056b5760a036600319011261056b576004356114578161055a565b602435906114648261055a565b6044356001600160401b03811161056b57611483903690600401611371565b6064356001600160401b03811161056b576114a2903690600401611371565b608435939091906001600160401b03851161056b576114c861099595369060040161141f565b93613760565b3461056b57602036600319011261056b576004356001600160401b03811161056b573660238201121561056b5760048101356001600160401b03811161056b573660248260071b8401011161056b57602461099592016138de565b3461056b57602036600319011261056b57604061154760043561397b565b825191151582526020820152f35b3461056b57602036600319011261056b576004355f527ffed699897f2561c8a98f833aa3de83c4904370d413fe5fb15abe26e9f8150b2f602052602060405f2054604051908152f35b3461056b57602036600319011261056b576004355f527ffed699897f2561c8a98f833aa3de83c4904370d413fe5fb15abe26e9f8150b30602052602060405f2054604051908152f35b3461056b57604036600319011261056b576116206004356116078161055a565b602435906116136141ab565b61161b61491b565b614cf9565b6001600455005b3461056b575f36600319011261056b5760205f516020615c6f5f395f51905f5254604051908152f35b3461056b5761165e36610827565b6006549091906001600160a01b0316806116bd57506005546001600160a01b03165b6001600160a01b031633036109d2576116976141ab565b6001600160a01b038316156109c35781156109b4576116b8611620936142ee565b614e3f565b611680565b3461056b575f36600319011261056b576020600754604051908152f35b90602080835192838152019201905f5b8181106116fc5750505090565b82518452602093840193909201916001016116ef565b906020610c049281815201906116df565b3461056b57604036600319011261056b576004356001600160401b03811161056b573660238201121561056b5780600401359061175f8261135a565b9161176d6040519384611326565b8083526024602084019160051b8301019136831161056b57602401905b8282106117ca57836024356001600160401b03811161056b576106f7916117b86117be923690600401611371565b90613a2d565b60405191829182611712565b6020809183356117d98161055a565b81520191019061178a565b3461056b5760c036600319011261056b57600435611800610a91565b611808610aa7565b916064356001600160401b03811161056b57611828903690600401611163565b906084356001600160401b03811161056b57611848903690600401611163565b60a4359690939192906001600160401b03881161056b57611870610995983690600401611163565b979096613aa7565b3461056b575f36600319011261056b57602060405160648152f35b3461056b57604036600319011261056b576004356118b08161055a565b602435906118bc6141ab565b6118c461491b565b6001600160a01b038116156109c35781156109b45760206119057f3e38a9410c08ddb4af8b083bfd2b197b1c3e61a651bd1c54c51ebce0cdcdc48e926142ee565b61191f6040516119158482611326565b5f8152858361452b565b6119298482614ed4565b6119338482614f86565b6040519384526001600160a01b031692a26001600455005b3461056b5760e036600319011261056b5760243560043560443561196d610abd565b611975610ad3565b60a4356001600160401b03811161056b57611994903690600401611163565b9260c435929091906001600160401b03841161056b57611a48886108d788935f98611a368c976119c98c9b3690600401611163565b9390946119d46141ab565b6119dc61491b565b6119e4614b3a565b9b6040519a8b9960208b019d8e630569881360e41b905260248c015260448b015260648a015260018060401b0316608489015260018060401b031660a488015260e060c4880152610104870191613564565b8481036023190160e486015291613564565b51915af492611a55613244565b9315611a8757905f516020615def5f395f51905f5291611a7a60405192839283613289565b0390a26109956001600455565b60405163dccff66960e01b815280611aa28660048301610bf3565b0390fd5b3461056b57611ab436610827565b6006546001600160a01b031680611b9357506005546001600160a01b03165b6001600160a01b031633036109d257611aea6141ab565b6001600160a01b0383169182156109c35781156109b4575f9182916108d7611b33611b136141eb565b936040519283916020830195634404589760e01b87528b60248501613212565b51915af491611b40613244565b92156109ae57611b67836020805f516020615c2f5f395f51905f5296518301019101613273565b93909161096c611b76826142ee565b91611b8a611b82613230565b888786614570565b61096785610fe4565b611ad3565b3461056b57602036600319011261056b57600435611bb58161055a565b60018060a01b03165f52600f602052602060405f2054604051908152f35b6001600160801b03169052565b3461056b57604036600319011261056b576060611c0a602435600435611c058261055a565b613c27565b6040805193151584526001600160801b039092166020840152151590820152f35b3461056b57602036600319011261056b576004355f527ffed699897f2561c8a98f833aa3de83c4904370d413fe5fb15abe26e9f8150b2d602052602060405f2054604051908152f35b3461056b57611c8236610827565b90611c8b6141ab565b61169761491b565b3461056b575f36600319011261056b57611cab61510a565b600380546001600160a01b031981169091555f906001600160a01b03165f516020615d6f5f395f51905f528280a3005b9181601f8401121561056b578235916001600160401b03831161056b576020838186019501011161056b57565b604060031982011261056b57600435906001600160401b03821161056b57611d3291600401611cdb565b9091602435610c048161055a565b3461056b57611d4e36611d08565b6006549091906001600160a01b031680611d8857506005546001600160a01b03165b6001600160a01b031633036109d25761099592613cfe565b611d70565b602060031982011261056b57600435906001600160401b03821161056b57611db791600401611163565b9091565b9291604084019360408152825180955260206060820193015f955b808710611df2575050610c0493945060208184039101526116df565b909360208060019287511515815201950196019590611dd6565b3461056b57611e1a36611d8d565b90611e24826139fb565b90611e2e836139fb565b925f5b818110611e4a575050506106f760405192839283611dbb565b80611e62611e5b6001938587613f04565b36916113e9565b60208151910120611e7281611011565b90611e82825460ff9060a01c1690565b15611eb65750611ea490611e9f611e998489613676565b60019052565b614ba0565b611eae8288613676565b525b01611e31565b611ec0915061102b565b805460ff81169081611f00575b50611ed9575b50611eb0565b611eef90611eea611e998489613676565b614c44565b611ef98288613676565b525f611ed3565b60881c63ffffffff16151590505f611ecd565b3461056b57602036600319011261056b576004355f525f516020615d4f5f395f51905f52602052602060018060401b0360405f205416604051908152f35b3461056b57604036600319011261056b575f80600435611f708161055a565b60243590611f7c61491b565b611f846149e0565b604051637fcb29c960e01b602082019081526001600160a01b03909316602482015260448082019490945292835291611fbe606482611326565b51915af4611fca613244565b5015611fd257005b63fb713d2b60e01b5f5260045ffd5b3461056b57602036600319011261056b57600435611ffe8161055a565b60018060a01b03165f526009602052602060ff60405f2054166040519015158152f35b3461056b5760a036600319011261056b5760043561203e81610718565b60243561204a8161055a565b6006546044359260843592606435926001600160a01b03168061212757506005546001600160a01b03165b6001600160a01b031633036109d2575f9384936120906149e0565b966040519360208501956382b720c960e01b875263ffffffff60e01b16602486015260018060a01b031660448501526064840152608483015260a482015260a481526120dd60c482611326565b5190845af4906120eb613244565b91156121215761211161210a836020806106f796518301019101613f45565b8092614a80565b6040519081529081906020820190565b506142a7565b612075565b3461056b57602036600319011261056b5760043561214861491b565b801561217f576020817fd45b01a2f21a7aa8a0f57023efdce73147de071e77875c3f4d486b1e13eaef7092600755604051908152a1005b6376024b7160e01b5f5260045ffd5b3461056b57602036600319011261056b577fc52867146282c253c04e94eb2a948478a1f7ef84cf2d6f5864facc99f2203f2c60206004356121ce81610aff565b6121d661491b565b151560ff19600a541660ff821617600a55604051908152a1005b3461056b57602036600319011261056b576004355f527ffed699897f2561c8a98f833aa3de83c4904370d413fe5fb15abe26e9f8150b2c602052602060405f2054604051908152f35b3461056b575f36600319011261056b576003546040516001600160a01b039091168152602090f35b3461056b57602036600319011261056b57602061227f600435613f54565b6040519015158152f35b3461056b57602036600319011261056b575f806004356122a76141ab565b6122af61491b565b6122b7614b3a565b9060405160208101916348d7f0b960e11b83526024820152602481526122de604482611326565b51915af46122ea613244565b90156122f7576001600455005b60405163dccff66960e01b8152908190611aa29060048301610bf3565b3461056b57602036600319011261056b576004356123318161055a565b60018060a01b03165f526010602052602060405f2054604051908152f35b3461056b575f36600319011261056b576006546040516001600160a01b039091168152602090f35b3461056b57602036600319011261056b576004355f527ffed699897f2561c8a98f833aa3de83c4904370d413fe5fb15abe26e9f8150b2e602052602060405f2054604051908152f35b3461056b57602036600319011261056b5760043560ff6123df33610e6b565b54161561114f576123ee6149e0565b905f806040516020810190634c4a8dab60e11b825284602482015260248152612418604482611326565b5190855af4612425613244565b5015611fd25761099591614a80565b3461056b575f36600319011261056b576020600854604051908152f35b81516001600160401b039081168252602080840151909116908201526040808301516001600160801b03169082015260608083015161010083019493611358939260e0928392916124a59190860190611bd3565b60808181015115159085015260a08181015160ff169085015260c08181015160ff16908501520151910190611bd3565b3461056b57602036600319011261056b576004355f60e06040516124f88161130a565b8281528260208201528260408201528260608201528260808201528260a08201528260c082015201525f525f516020615ccf5f395f51905f526020526106f760405f206125ef6125df6002604051936125508561130a565b80546001600160401b038082168752604082901c1660208701526125819060801c6001600160801b03166040870152565b60018101546001600160801b03811660608701526125d1906125c7906125b1608082901c60ff16151560808a0152565b60ff608882901c1660a089015260901c60ff1690565b60ff1660c0870152565b01546001600160801b031690565b6001600160801b031660e0830152565b60405191829182612451565b604090600319011261056b576004356126138161055a565b90602435610c0481610aff565b3461056b5761262e366125fb565b6001600160a01b03821691821561268d578161265861265d92335f52600160205260405f20610eee565b613865565b60405190151581527f17307eab39ab6107e8899845ad3d59bd9653f200f220920489ca2b5937696c3160203392a3005b62ced3e160e81b5f525f60045260245ffd5b3461056b57604036600319011261056b576004356001600160401b03811161056b576126cf903690600401611163565b602435916126dc8361055a565b6006546001600160a01b03168061293657506005546001600160a01b03165b6001600160a01b031633036109d2576127126141ab565b6001600160a01b038316156109c3578115611fd2575f91829184612759612737614b3a565b936108d7604051938492602084019663bca0e27d60e01b885260248501614008565b51915af490612766613244565b911561291b5761277f6020835184010160208401614106565b929391509384518351036122f75750612797906142ee565b906127a1826143e1565b6127aa82610e52565b54155f925f945f5b87518110156127f7576127c58189613676565b51156127d4575b6001016127b2565b9550936127ec906127e58786613676565b5190614166565b6001959094906127cc565b509093919415612913575b508380612908575b6128e0575b806128c9575b5f5b85518110156128a05761282a8184613676565b519081156109b45760019161283f8289613676565b511561289a5764174876e800612855838a613676565b51106128765761287090612869838a613676565b5187614e3f565b01612817565b61289590612884838a613676565b519061288e613230565b9188614570565b612870565b50612870565b838286156128bb576128b1916145ef565b6109956001600455565b6128c491614f86565b6128b1565b6128db6128d4613230565b828561452b565b612815565b6128f06128eb61515a565b6107ac565b505481101561280f5763559d06d760e01b5f5260045ffd5b50601154151561280a565b90505f612802565b60405163dccff66960e01b815280611aa28460048301610bf3565b6126fb565b3461056b575f36600319011261056b576020601254604051908152f35b3461056b575f36600319011261056b57602060405164174876e8008152f35b3461056b57604036600319011261056b576004356129948161055a565b60065460243591906001600160a01b031680612a5857506005546001600160a01b03165b6001600160a01b031633036109d2576129cf6141ab565b6001600160a01b0381169081156109c35782156109b4576020612a127f6ac4f60455173f2148d89d52868ac4ffb14111720d245aa36ad26e0d7e64c59b926142ee565b612a2c604051612a228482611326565b5f8152868361452b565b612a368582614ed4565b612a408582614f86565b6040519485526001600160a01b031693a36001600455005b6129b8565b3461056b57602036600319011261056b576004355f525f516020615d2f5f395f51905f52602052602060018060401b0360405f205416604051908152f35b3461056b5760c036600319011261056b57600435612ab7610a91565b612abf610aa7565b6064359160843593845f80868487612b10886108d760a4358099612ae16141ab565b612ae961491b565b612af16151c5565b9760405196879560208701996363039f8b60e11b8b5260248801614173565b51915af495612b1d613244565b9615612b88577f0d52bfb4760322d7d520c725a53d2a1b3a1d17bdc1615c95867a525cbf7916f3939291612b7091612b61896020806106f79c518301019101613f45565b97889760405196879687614173565b0390a260016004556040519081529081906020820190565b866142a7565b3461056b575f36600319011261056b5760206040515f8152f35b3461056b57602036600319011261056b576004356001600160401b03811161056b57612bd8903690600401611cdb565b90612be16141ab565b612be961491b565b5f80612bf3614b3a565b6040516365e270d560e11b6020808301918252602483015290612c1e816108d7604482018a8a613fe8565b51915af491612c2b613244565b9215612c7257612c3d925036916113e9565b602081519101207fc0701a0c15577896ad516e3ca2668eb0cee26a8f32bc862c0d94950619e368035f80a26109956001600455565b60405163dccff66960e01b815280611aa28560048301610bf3565b3461056b57602036600319011261056b576004355f52600c602052602060405f2054604051908152f35b3461056b57602036600319011261056b57600435612cd361491b565b7f1c8121c98d871a1523a6112e29ac660378afbcb9b921cff8f187c3da35d1708181600854612d0760405192839283613289565b0390a1600855005b3461056b575f36600319011261056b57602060ff600a54166040519015158152f35b3461056b575f36600319011261056b576040517f00000000000000000000000000000000000000000000000000000000000000006001600160a01b03168152602090f35b3461056b575f36600319011261056b5760207fbc488d3e2575f0f2113dc4d9a0cd6bc52445c6bc28a8974ed97a6ba3ecfd657f54604051908152f35b3461056b57608036600319011261056b57604435600435606435602435612dd782610aff565b612ddf61491b565b8215612eb3576011549160405194612df6866112ef565b8486526020860192808452604087019382855260608801978415158952600160401b8710156112ea5760018701601155612e2f876107ac565b919091612eae577fb08290a3275552d4032ce96418c8bc739fd6be2860fe5897558f5c0af90e91fb99612ea997612e7c946003935185555160018501555160028401555115159101613865565b6040519586958693909594919260809360a086019786526020860152604085015260608401521515910152565b0390a1005b6137f8565b639033099360e01b5f5260045ffd5b3461056b57610995612ed3366125fb565b90612edc61491b565b6001600160a01b03165f908152600960205260409020613865565b3461056b575f36600319011261056b5760ff60065460a01c16604051600d821015612f23576020918152f35b634e487b7160e01b5f52602160045260245ffd5b3461056b57604036600319011261056b57602060ff611253600435612f5b8161055a565b60243590612f688261055a565b6001600160a01b03165f9081526001855260409020610eee565b3461056b5760a036600319011261056b57600435612f9f8161055a565b602435612fab8161055a565b60443590606435926084356001600160401b03811161056b57612fd290369060040161141f565b926001600160a01b038216338114158061304f575b613039576001600160a01b038416156130265715613014576109959461300c9161524c565b9290916153b3565b626a0d4560e21b5f525f60045260245ffd5b632bfa23e760e11b5f525f60045260245ffd5b63711bec9160e11b5f523360045260245260445ffd5b50805f52600160205260ff6130673360405f20610eee565b541615612fe7565b3461056b57602036600319011261056b5760043561308c8161055a565b61309461510a565b6001600160a01b031680156130d357600380546001600160a01b0319811683179091556001600160a01b03165f516020615d6f5f395f51905f525f80a3005b631e4fbdf760e01b5f525f60045260245ffd5b3461056b576130f436611d8d565b906130fe826139fb565b90613108836139fb565b925f5b818110613124575050506106f760405192839283611dbb565b8061313260019284866135e8565b3561313c81611011565b9061314c825460ff9060a01c1690565b15613175575061316390611e9f611e998489613676565b61316d8288613676565b525b0161310b565b61317f915061102b565b805460ff811690816131ba575b50613198575b5061316f565b6131a990611eea611e998489613676565b6131b38288613676565b525f613192565b60881c63ffffffff16151590505f61318c565b3461056b57602036600319011261056b576004355f52600d602052602060405f2054604051908152f35b3461056b575f36600319011261056b576020604051600a8152f35b604091949392606082019560018060a01b0316825260208201520152565b6040519061323f602083611326565b5f8252565b3d1561326e573d90613255826113ce565b916132636040519384611326565b82523d5f602084013e565b606090565b919082604091031261056b576020825192015190565b908152602081019190915260400190565b6006549097959694959193906001600160a01b0316806133cb57506005546001600160a01b03165b6001600160a01b031633036109d2576132d96141eb565b94600d811015612f2357604051630bd6783360e01b60208201908152602482018b90526001600160401b0396871660448301529590941660648501526001600160801b03918216608485015295811660a484015295151560c483015260ff9490941660e4820152929093166101048084019190915282525f92839261336061012482611326565b51915af461336c613244565b90156133c657507ff236e4a60720cc79b1fa956ec64fd78f4d702ba14614ed969c4912a86a3e99516133c16133b5835f525f516020615ccf5f395f51905f5260205260405f2090565b604051918291826133d0565b0390a2565b6142a7565b6132c2565b81546001600160401b038116825261010082019392611358929160e091613466916002919061341990604081901c6001600160401b03166020880152604087019060801c611bd3565b60018101546125d190613438606088016001600160801b038316611bd3565b61344c6080880160ff8360801c1615159052565b608881901c60ff1660a088015260901c60ff1660c0870152565b910190611bd3565b805191908290602001825e015f815290565b9060405161348d816112ef565b606060ff600383958054855260018101546020860152600281015460408601520154161515910152565b98816108d761350492859b879b8e97969b5f9b8c9b6134d46141ab565b6134dc61491b565b6134e4614b3a565b9b6040519a8b9960208b019d8e631163081760e11b905260248c01613588565b51915af4613510613244565b90156122f757505f5b81811061352f5750505050506113586001600455565b8061353d60019284886135e8565b355f516020615def5f395f51905f526040518061355b888a83613289565b0390a201613519565b81835290916001600160fb1b03831161056b5760209260051b809284830137010190565b9896929490936135aa610c049b99956135da989460e08d5260e08d0191613564565b60208b019690965260408a01526001600160401b0390811660608a015216608088015286830360a0880152613564565b9260c0818503910152613564565b91908110156107c85760051b0190565b906136028261135a565b61360f6040519182611326565b8281528092613620601f199161135a565b015f5b81811061362f57505050565b60405160a0810191906001600160401b038311818410176112ea576020926040525f81525f838201525f60408201525f60608201525f608082015282828601015201613623565b80518210156107c85760209160051b010190565b9061369482610ea3565b9182546136a0816135f8565b935f5b8281106136d05750505f808052602052506136cb905f516020615e0f5f395f51905f52610eee565b549190565b806136ea6136e060019385610f03565b90549060031b1c90565b6137396136f682611045565b548015159081613755575b61370a84611053565b5461371485611061565b549061371e611349565b95865260208601526040850152606084015215156080830152565b6137438289613676565b5261374e8188613676565b50016136a3565b809150421190613701565b939291906001600160a01b0385163381141580613799575b613039576001600160a01b03821615613026571561301457611358946153b3565b50805f52600160205260ff6137b13360405f20610eee565b541615613778565b91908110156107c85760071b0190565b634e487b7160e01b5f52601160045260245ffd5b908160011b91808304600214901517156137f357565b6137c9565b634e487b7160e01b5f525f60045260245ffd5b6011545f6011558061381a5750565b600281901b906001600160fe1b038116036137f35760115f5260205f205f5b82811061384557505050565b805f60036004938501828155826001820155826002820155015501613839565b9060ff801983541691151516179055565b601154600160401b8110156112ea57600181016011556011548110156107c85760115f5260021b5f516020615c8f5f395f51905f520160036060611358938035845560208101356001850155604081013560028501550135916138d883610aff565b01613865565b6138e661491b565b811561396c575f5b82811061395357506138fe61380b565b5f5b8281106139375750506040519081527f2f291eaf494dc7eca20457441a1df7d9119f0c0d764309daf9cb6b148810ee3690602090a1565b8061394d61394860019386866137b9565b613876565b01613900565b61395e8184846137b9565b3515612eb3576001016138ee565b6308ba5b6160e01b5f5260045ffd5b805f525f516020615cef5f395f51905f5260205260405f2060ff815460a01c166139f157505f525f516020615caf5f395f51905f5260205260405f20805460ff811690816139de575b506139d057505f905f90565b6139d990614c44565b600191565b63ffffffff915060881c1615155f6139c4565b6139d99150614ba0565b90613a058261135a565b613a126040519182611326565b8281528092613a23601f199161135a565b0190602036910137565b91909180518351808203613a92575050613a4781516139fb565b905f5b8151811015613a8b5780613a7960019260051b602080828701015191890101515f525f60205260405f20610eee565b54613a848286613676565b5201613a4a565b5090925050565b635b05999160e01b5f5260045260245260445ffd5b96949095613b12602094613b24949a96613abf6141ab565b613ac761491b565b613acf614b3a565b6040516352b9ec2360e01b898201908152602482019d909d526001600160401b039b8c1660448201529a909c1660648b015260c060848b015260e48a0191613ba0565b8781036023190160a489015291613ba0565b8481036023190160c48601528281520191905f905b808210613b78575050509181613b5b5f9593869503601f198101835282611326565b51915af4613b67613244565b90156122f757506113586001600455565b90919283359063ffffffff821680920361056b57602081600193829352019401920190613b39565b90602083828152019060208160051b85010193835f915b838310613bc75750505050505090565b909192939495601f198282030186528635601e198436030181121561056b578301602081019190356001600160401b03811161056b578060051b3603831361056b57613c196020928392600195613564565b980196019493019190613bb7565b90613c3182611011565b5460ff8160a01c16613ce95750613c478261102b565b5460ff81169081613cd6575b50613c625750505f905f905f90565b6001600160a01b03811615159182613c8e575b5050613c85576001905f90600190565b5f905f90600190565b613ccf925090610967613cc8925f527fcb1a422c9916903f224af4db9a3bf1529921bf95ff7b75d7d9ed9073a48394ad60205260405f2090565b5460ff1690565b5f80613c75565b60881c63ffffffff16151590505f613c53565b6001936001600160801b0390911692505f9150565b613d066141ab565b6001600160a01b038316156109c3575f91829184613d47613d25614b3a565b936108d7604051938492602084019663fd44e85560e01b885260248501615131565b51915af491613d54613244565b9215612c7257613d6d6020845185010160208501614106565b929491509485518351036122f75750613d85906142ee565b613d8e816143e1565b613d9781610e52565b5415905f935f955f5b8851811015613dde57613db3818a613676565b5115613dc2575b600101613da0565b965094613dd3906127e58887613676565b600196909590613dba565b5090929594919415613efc575b508480613ef1575b613ece575b80613eb7575b5f5b8651811015613e8957613e138185613676565b519081156109b457600191613e28828a613676565b5115613e835764174876e800613e3e838b613676565b5110613e5f57613e5990613e52838b613676565b5188614e3f565b01613e00565b613e7e90613e6d838b613676565b5190613e77613230565b9189614570565b613e59565b50613e59565b509293915093505f14613ea957613e9f916145ef565b6113586001600455565b613eb291614f86565b613e9f565b613ec9613ec2613230565b828661452b565b613dfe565b613ed96128eb61515a565b5054811015613df85763559d06d760e01b5f5260045ffd5b506011541515613df3565b90505f613deb565b91908110156107c85760051b81013590601e198136030182121561056b5701803591906001600160401b03831161056b57602001823603811361056b579190565b9081602091031261056b575190565b64174876e8008110613fd9575f9081525f516020615d2f5f395f51905f5260209081526040808320545f516020615d4f5f395f51905f52909252909120546001600160401b0390811691168015159081613fde575b50613fd9576001600160401b03168015159081613fcf575b50613fcb57600190565b5f90565b905042115f613fc1565b505f90565b905042105f613fa9565b908060209392818452848401375f828201840152601f01601f1916010190565b93929190816040860160408752526060850160608360051b87010192825f90601e19813603015b838310614052575050505050509060206113589294019060018060a01b03169052565b909192939495605f198a820301865286358281121561056b578301602081019190356001600160401b03811161056b57803603831361056b5761409b6020928392600195613fe8565b98019601949301919061402f565b9080601f8301121561056b5781516140c08161135a565b926140ce6040519485611326565b81845260208085019260051b82010192831161056b57602001905b8282106140f65750505090565b81518152602091820191016140e9565b9060808282031261056b57815192602083015192604081015160018060401b03811161056b57836141389183016140a9565b60608201519093906001600160401b03811161056b57610c0492016140a9565b90600182018092116137f357565b919082018092116137f357565b9081526001600160401b039182166020820152911660408201526060810191909152608081019190915260a081019190915260c00190565b6002600454146141bc576002600455565b633ee5aeb560e01b5f5260045ffd5b9081602091031261056b5751610c048161055a565b6040513d5f823e3d90fd5b6141f660055461054e565b6001600160a01b0381169190821590811561429d575b5061428e57602060049260405193848092635ee738d560e11b82525afa918215614289575f92614258575b506001600160a01b0382161561424957565b63a9d04f8760e01b5f5260045ffd5b61427b91925060203d602011614282575b6142738183611326565b8101906141cb565b905f614237565b503d614269565b6141e0565b63ab82bb9960e01b5f5260045ffd5b90503b155f61420c565b805190816142d45760405163dccff66960e01b815260206004820152908190611aa2906024830190610bcf565b602001fd5b9081602091031261056b5751610c0481610aff565b6004602061430861430361430360055461054e565b61054e565b604051630e83251360e01b815292839182905afa908115614289575f916143c2575b506001600160a01b0316801561428e57602060405180926303330c7960e41b8252818061435a8760048301610db8565b03915afa908115614289575f91614393575b5061437a57610c0490614813565b803b156143845790565b632ad05f3360e11b5f5260045ffd5b6143b5915060203d6020116143bb575b6143ad8183611326565b8101906142d9565b5f61436c565b503d6143a3565b6143db915060203d602011614282576142738183611326565b5f61432a565b6143ea81610e52565b54806144e7575b50906143fc82610ea3565b918254156144cd5782546011545f1992915f91825b828110614434575050506144319293945061442b82610e52565b55610ebc565b55565b6144416136e0828a610f03565b61444e866109678361106f565b54156144c45761445d8161522c565b6144c45761446a81611061565b5490838210156144ba575f198814801561449d575b614490575b50506001905b01614411565b909650935060015f614484565b506144a7826107ac565b50546144b2896107ac565b50541061447f565b505060019061448a565b5060019061448a565b611358919250805f61442b6144e193610e52565b5f199055565b6144f4826109678361106f565b54151580614515575b156143f15761450e61443191611061565b5491610ebc565b506145266145228261522c565b1590565b6144fd565b9091906001600160a01b038116156130265761454a611358935f61524c565b91615271565b9091906001600160a01b038116156130265761454a60016113589461524c565b919291906001600160a01b03821615613026576113589361454a9161524c565b5f1981146137f35760010190565b80549190600160401b8310156112ea57826145c191600161135895018155610f03565b90919082549060031b91821b915f19901b1916179055565b6040919493926060820195825260208201520152565b906145f982610e52565b546148045760115415614752575f19915f915f90601154915b8281106146ee575050505f1983146146e9576144319161463184615552565b806146d957505f905b60135491829161465161464c84614590565b601355565b61466361465c613230565b8487614550565b8161466d84611045565b5561467783611053565b558561468283611061565b556146958261469086610ea3565b61459e565b5f516020615d8f5f395f51905f526146cd6146af886107ac565b50546040516001600160a01b03881694909283929091908b846145d9565b0390a361442b82610e52565b6146e39042614166565b9061463a565b505050565b6146f7816107ac565b5054821015614709575b600101614612565b5f1986148015614735575b1561470157945084935060018061472a866107ac565b500154949050614701565b5061473f816107ac565b505461474a876107ac565b505410614714565b506144e16113589160085480155f146147f557505f5b601354809161477961464c83614590565b61478b614784613230565b8386614550565b8061479583611045565b556012546147a283611053565b556147af6144e183611061565b6147bc8261469086610ea3565b604080515f1981525f6020820152908101919091526001600160a01b038416905f516020615d8f5f395f51905f529080606081016146cd565b6147ff9042614166565b614768565b630275df1160e01b5f5260045ffd5b6004602061482861430361430360055461054e565b60405163fb3894d360e01b815292839182905afa908115614289575f916148fc575b506001600160a01b03811691821561428e57602060405180946308a8c59960e01b8252818061487c8660048301610db8565b03915afa928315614289575f936148db575b506001600160a01b0383161580156148d2575b6148aa57505090565b63ad12d34160e01b5f526001600160a01b039081166004529081166024521660445260645b5ffd5b50823b156148a1565b6148f591935060203d602011614282576142738183611326565b915f61488e565b614915915060203d602011614282576142738183611326565b5f61484a565b6006546001600160a01b03168061497a57506005546001600160a01b03165b6003546001600160a01b03163314159081614966575b5061495757565b630fc5e1ab60e41b5f5260045ffd5b6001600160a01b031633141590505f614950565b61493a565b6040519061498e604083611326565b601082526f181899199a1a9b1b9c1cb0b131b232b360811b6020830152565b604051606091906149be8382611326565b6028815291601f1901366020840137565b9081518110156107c8570160200190565b6149eb60055461054e565b6001600160a01b03811691908215908115614a3d575b5061428e57602060049260405193848092632502c7e760e11b82525afa918215614289575f9261425857506001600160a01b0382161561424957565b90503b155f614a01565b908160a091031261056b578051614a5d81610718565b916020820151614a6c8161055a565b916040810151916080606083015192015190565b90614a9f815f525f516020615dcf5f395f51905f5260205260405f2090565b600681015460ff16908115614b1e575b50614b1a575f918291604051614adf816108d76020820194630d61b51960e01b8652602483019190602083019252565b51915af4614aeb613244565b90156133c657614b078160208061135894518301019101614a47565b509290916001600160a01b031690615570565b5050565b6005915001545f516020615c6f5f395f51905f5254115f614aaf565b614b4560055461054e565b6001600160a01b03811691908215908115614b96575b5061428e57602060049260405193848092620c3c5d60e81b82525afa918215614289575f9261425857506001600160a01b0382161561424957565b90503b155f614b5b565b60018060801b038154169060028101600381549201908154838110614c23575b5060408311614c1a575b5f5b838110614bda575050505090565b614be48183610f03565b90549060031b1c15614bf9575b600101614bcc565b93614c048584610f03565b90549060031b1c81018091116137f35793614bf1565b60409250614bca565b92505f614bc0565b80548210156107c8575f52600360205f20910201905f90565b60010180545f9160208211614cf0575b5f5b828110614c635750505090565b614c6d8183614c2b565b5060018101600281549201908154838110614ce8575b5060408311614cdf575b5f5b838110614ca25750505050600101614c56565b614caf6136e08284610f03565b15614cbd575b600101614c8f565b96614cd7600191614cd16136e08b87610f03565b90614166565b979050614cb5565b60409250614c8d565b92505f614c83565b60209150614c54565b6001600160a01b038116156109c3576011548015614e3057821015614e3057614d21906142ee565b614d2a81610e52565b548015159081614e1c575b50614804577fef80dfae739c4e8cf106d33ce054e670379e6a87d72585303558960b7675844c60135492614d6b61464c85614590565b6020614d79610fb5836107ac565b614d8283615552565b614d94614d8d613230565b8888614550565b80614e0d57505f5b614da587611045565b5501908151614db386611053565b5580614dbe86611061565b55614dcc8561469086610ea3565b84614dd685610e52565b55614de084610ebc565b555191614dec84611045565b546040516001600160a01b03909216938291614e089183613289565b0390a3565b614e179042614166565b614d9c565b614e2a91506145229061522c565b5f614d35565b63c759a36760e01b5f5260045ffd5b5f80614e496151c5565b604051633c2f328b60e11b6020820190815290614e6f816108d78a8a8a60248501613212565b51915af4614e7b613244565b90156133c6575060207fae2f87dbf103db294ddd4ab45caa7a914d70bb3d06eeb8a8dc23e03e84548c8d91614ec1604051614eb68482611326565b5f8152868684614570565b6040519485526001600160a01b031693a3565b614edd906142ee565b90614ee7826143e1565b614ef082610e52565b54614b1a5760115415614752575f19915f915f90601154915b828110614f28575050505f1983146146e9576144319161463184615552565b614f3181615641565b821015614f41575b600101614f09565b5f1986148015614f6d575b15614f39579450849350600180614f62866107ac565b500154949050614f39565b50614f7781615641565b614f8087615641565b10614f4c565b60115415614b1a57614f97816143e1565b614fa081610e52565b5490811580156150fb575b6146e957614fb881610ebc565b546011548110156150f557614fcc8161564f565b935f1985146150db57614fe1610fb5866107ac565b90614fef6060830151151590565b156150e257505f808052602052615013835f516020615e0f5f395f51905f52610eee565b548151116150db57614431936020925b61502c87615552565b806150bb57505f516020615daf5f395f51905f526150af5f5b60135496879661505761464c89614590565b8261506189611045565b55015161506d87611053565b558961507887611061565b55615086866146908a610ea3565b615098615091613230565b878a614550565b6040519182918b60018060a01b038b1696846145d9565b0390a461442b82610e52565b6150af6150d65f516020615daf5f395f51905f529242614166565b615045565b5050505050565b8151116150db5761443193602092615023565b50505050565b506151058261522c565b614fab565b6003546001600160a01b0316330361511e57565b63118cdaa760e01b5f523360045260245ffd5b9160209161514a91959495604085526040850191613fe8565b6001600160a01b03909416910152565b60115480156151bf575f90601154156107c85760115f525f516020615c8f5f395f51905f525460015b8281106151905750505090565b8161519a826107ac565b5054106151aa575b600101615183565b8093506151b791506107ac565b5054826151a2565b505f1990565b6151d060055461054e565b6001600160a01b03811691908215908115615222575b5061428e57602060049260405193848092632b5e757b60e11b82525afa918215614289575f9261425857506001600160a01b0382161561424957565b90503b155f6151e6565b5f52600b60205260405f20548015159081615245575090565b9050421190565b9160405192600184526020840152604083019160018352606084015260808301604052565b92939091935f5b83518110156153565761528b8185613676565b51606481101580615348575b61531157158061530a575b6152b1575b6001905b01615278565b600a5460ff166152c1575b6152a7565b5f805260096020526152e26145225f516020615c0f5f395f51905f52613cc8565b156152a7576152f6614522613cc887610ed5565b156152bc57639798976560e01b5f5260045ffd5b505f6152a2565b600191906001600160a01b0387161580615341575b615331575b506152ab565b61533b905f6159a9565b5f61532b565b505f615326565b5064174876e8008110615297565b50919390936153678282865f615a6d565b6001600160a01b03841661537b5750505050565b80516001036153a3579060208061539a95930151910151915f33615840565b5f8080806150f5565b6153ae935f33615722565b61539a565b929490936001600160a01b038416158015949093909285928361553f575b5f5b83518110156154dd576153e68185613676565b516064811015806154cf575b61546c571580615465575b61540c575b6001905b016153d3565b600a5460ff1661541c575b615402565b5f8052600960205261543d6145225f516020615c0f5f395f51905f52613cc8565b1561540257615451614522613cc88b610ed5565b1561541757639798976560e01b5f5260045ffd5b50876153fd565b9087866154be575b156154af576001916001600160a01b038b1615806154a8575b615498575b50615406565b6154a290886159a9565b5f615492565b508661548d565b63b8333dc960e01b5f5260045ffd5b506001600160a01b038a1615615474565b5064174876e80081106153f2565b509550969293509490506154f382868386615a6d565b6001600160a01b038116615508575050505050565b845160010361552e576020806155249601519201519233615840565b5f808080806150db565b61553a94919233615722565b615524565b6001600160a01b038816151596506153d1565b61555d6002916107ac565b50015480156155695790565b5060085490565b9092906001600160e01b031916637fcb29c960e01b81036155fc5750909190506001600160a01b038116156109c35760ff6155aa82610e6b565b5416156155d9575b505f516020615c4f5f395f51905f52548111611fd2575f516020615c6f5f395f51905f5255565b806155e66155f692610e6b565b805460ff191660011790556158de565b5f6155b2565b631cb4772560e21b8103615628575050906113589160405191615620602084611326565b5f835261452b565b90915063178fb21b60e11b03611fd25761135891614cf9565b61564a906107ac565b505490565b60115490818110156156b357615664906107ac565b50545f199190825f5b83811061567b575050505090565b615684816107ac565b5054838111806156aa575b61569d575b5060010161566d565b9150935060018490615694565b5082811061568f565b50505f1990565b9081602091031261056b5751610c0481610718565b6001600160a01b0391821681529116602082015260a060408201819052610c049491939192615714929161570691908601906116df565b9084820360608601526116df565b916080818403910152610bcf565b9091949293853b615736575b505050505050565b60209361575891604051968795869563bc197c8160e01b8752600487016156cf565b03815f6001600160a01b0387165af15f91816157d6575b506157a0575061577d613244565b805191908261579957632bfa23e760e11b5f526148cf82610da7565b6020915001fd5b6001600160e01b0319166343e6837f60e01b016157c357505f808080808061572e565b632bfa23e760e11b5f526148cf90610da7565b6157f991925060203d602011615800575b6157f18183611326565b8101906156ba565b905f61576f565b503d6157e7565b6001600160a01b039182168152911660208201526040810191909152606081019190915260a060808201819052610c0492910190610bcf565b9091949293853b61585357505050505050565b60209361587591604051968795869563f23a6e6160e01b875260048701615807565b03815f6001600160a01b0387165af15f91816158bd575b5061589a575061577d613244565b6001600160e01b031916630dc5919f60e01b016157c357505f808080808061572e565b6158d791925060203d602011615800576157f18183611326565b905f61588c565b5f516020615c4f5f395f51905f5254600160401b8110156112ea57600181015f516020615c4f5f395f51905f52555f516020615c4f5f395f51905f52548110156107c8575f516020615c4f5f395f51905f525f525f516020615d0f5f395f51905f520180546001600160a01b0319166001600160a01b03909216919091179055565b5f198101919082116137f357565b80548015615995575f1901906159848282610f03565b8154905f199060031b1b1916905555565b634e487b7160e01b5f52603160045260245ffd5b6001600160a01b0381165f908152600e6020526040812092905b835480821015615a3e57826159d88387610f03565b90549060031b1c146159ed57506001016159c3565b615a1b929394916145c1615a0f6136e0615a09615a1695615960565b86610f03565b9184610f03565b61596e565b615a2482610e52565b5414615a2d5750565b6144e1815f61442b61135894610e52565b5050909150615a1b565b9091615a5f610c04936040845260408401906116df565b9160208184039101526116df565b9392918051835190818103615bf95750505f5b8151811015615b54578060051b90602080838501015192860101518460018060a01b038916615ae7575b6001936001600160a01b038216615ac5575b50505001615a80565b615add91610967615ad59261106f565b918254614166565b90555f8481615abc565b509091615af7886109678361106f565b54828110615b1d57829160019493879203615b158b6109678461106f565b559350615aaa565b6040516303dee4c560e01b81526001600160a01b038a16600482015260248101919091526044810183905260648101829052608490fd5b508051939493919291600103615bb6576020908101519101516040516001600160a01b03938416949093169233927fc3d58168c5ae7397731d063d5bbf3d657854427343f4c083240f7aacaa2d0f62928291615bb1919083613289565b0390a4565b6040516001600160a01b03938416949093169233927f4a39dc06d4c0dbc64b70af90fd698a233a518aa5d07e595d983b8c0526c8f7fb928291615bb19183615a48565b635b05999160e01b5f5260045260245260445ffdfeec8156718a8372b1db44bb411437d0870f3e3790d4a08526d024ce1b0b668f6b3bf2de114e2e7636c289f21be023528e47d89b45e873b976c78989c3ddc683f5bc488d3e2575f0f2113dc4d9a0cd6bc52445c6bc28a8974ed97a6ba3ecfd657cbc488d3e2575f0f2113dc4d9a0cd6bc52445c6bc28a8974ed97a6ba3ecfd657a31ecc21a745e3968a04e9570e4425bc18fa8019c68028196b546d1669c200c68cb1a422c9916903f224af4db9a3bf1529921bf95ff7b75d7d9ed9073a48394ace5fcefe92466b78c655fa732b80b16e07a00f2a897e833e17d9914703cad5632cb1a422c9916903f224af4db9a3bf1529921bf95ff7b75d7d9ed9073a48394ab1e7af2776b414202f4d0720b6aeaf88d7ffd91a44ea0aa781eb527e3c97a87b9fed699897f2561c8a98f833aa3de83c4904370d413fe5fb15abe26e9f8150b2afed699897f2561c8a98f833aa3de83c4904370d413fe5fb15abe26e9f8150b2b8be0079c531659141344cd1fd0a4f28419497f9722a3daafe3b4186f6b6457e0a1617247f4f1078375680895d347eab75e7ccbda5c9bde1acb40416494a16838db8805d9b276e7aa729ceec69dcc9dce3e97c50e69f3d906ebc3ed7995140568bc488d3e2575f0f2113dc4d9a0cd6bc52445c6bc28a8974ed97a6ba3ecfd657d5d5ebc8105f0482c05c969b7e79cf039bd47ae3ad5b49c5ffe0e2e1e26f3974fad3228b676f7d3cd4284a5443f17f1962b36e491b30a40b2405849e597ba5fb5a26469706673582212209d355dac03e876ca877f69e31a45ade99dc68273391ac0bced2f380548afec7f64736f6c63430008210033bc488d3e2575f0f2113dc4d9a0cd6bc52445c6bc28a8974ed97a6ba3ecfd657c",
  "linkReferences": {},
  "deployedLinkReferences": {},
  "immutableReferences": {
    "2252": [
      {
        "length": 32,
        "start": 11590
      }
    ]
  },
  "inputSourceName": "project/src/BeamioUserCard/BeamioUserCard.sol",
  "buildInfoId": "solc-0_8_33-40f5a0326ef38523cae59c79773c3b2b1f6b39fb"
}