{
  "_format": "hh3-artifact-1",
  "contractName": "BeamioUserCard",
  "sourceName": "src/BeamioUserCard/BeamioUserCard.sol",
  "abi": [
    {
      "inputs": [
        {
          "internalType": "string",
          "name": "uri_",
          "type": "string"
        },
        {
          "internalType": "enum BeamioCurrency.CurrencyType",
          "name": "currency_",
          "type": "uint8"
        },
        {
          "internalType": "uint256",
          "name": "pointsUnitPriceInCurrencyE6_",
          "type": "uint256"
        },
        {
          "internalType": "address",
          "name": "initialOwner",
          "type": "address"
        },
        {
          "internalType": "address",
          "name": "gateway_",
          "type": "address"
        }
      ],
      "stateMutability": "nonpayable",
      "type": "constructor"
    },
    {
      "inputs": [],
      "name": "BM_CallFailed",
      "type": "error"
    },
    {
      "inputs": [],
      "name": "BM_NotAuthorized",
      "type": "error"
    },
    {
      "inputs": [],
      "name": "BM_ZeroAddress",
      "type": "error"
    },
    {
      "inputs": [
        {
          "internalType": "address",
          "name": "sender",
          "type": "address"
        },
        {
          "internalType": "uint256",
          "name": "balance",
          "type": "uint256"
        },
        {
          "internalType": "uint256",
          "name": "needed",
          "type": "uint256"
        },
        {
          "internalType": "uint256",
          "name": "tokenId",
          "type": "uint256"
        }
      ],
      "name": "ERC1155InsufficientBalance",
      "type": "error"
    },
    {
      "inputs": [
        {
          "internalType": "address",
          "name": "approver",
          "type": "address"
        }
      ],
      "name": "ERC1155InvalidApprover",
      "type": "error"
    },
    {
      "inputs": [
        {
          "internalType": "uint256",
          "name": "idsLength",
          "type": "uint256"
        },
        {
          "internalType": "uint256",
          "name": "valuesLength",
          "type": "uint256"
        }
      ],
      "name": "ERC1155InvalidArrayLength",
      "type": "error"
    },
    {
      "inputs": [
        {
          "internalType": "address",
          "name": "operator",
          "type": "address"
        }
      ],
      "name": "ERC1155InvalidOperator",
      "type": "error"
    },
    {
      "inputs": [
        {
          "internalType": "address",
          "name": "receiver",
          "type": "address"
        }
      ],
      "name": "ERC1155InvalidReceiver",
      "type": "error"
    },
    {
      "inputs": [
        {
          "internalType": "address",
          "name": "sender",
          "type": "address"
        }
      ],
      "name": "ERC1155InvalidSender",
      "type": "error"
    },
    {
      "inputs": [
        {
          "internalType": "address",
          "name": "operator",
          "type": "address"
        },
        {
          "internalType": "address",
          "name": "owner",
          "type": "address"
        }
      ],
      "name": "ERC1155MissingApprovalForAll",
      "type": "error"
    },
    {
      "inputs": [
        {
          "internalType": "address",
          "name": "owner",
          "type": "address"
        }
      ],
      "name": "OwnableInvalidOwner",
      "type": "error"
    },
    {
      "inputs": [
        {
          "internalType": "address",
          "name": "account",
          "type": "address"
        }
      ],
      "name": "OwnableUnauthorizedAccount",
      "type": "error"
    },
    {
      "inputs": [],
      "name": "ReentrancyGuardReentrantCall",
      "type": "error"
    },
    {
      "inputs": [],
      "name": "UC_AdminManagerRequiresOwnerSignature",
      "type": "error"
    },
    {
      "inputs": [],
      "name": "UC_AmountZero",
      "type": "error"
    },
    {
      "inputs": [],
      "name": "UC_BelowMinThreshold",
      "type": "error"
    },
    {
      "inputs": [],
      "name": "UC_BeneficiaryMustBeAA",
      "type": "error"
    },
    {
      "inputs": [],
      "name": "UC_GlobalMisconfigured",
      "type": "error"
    },
    {
      "inputs": [
        {
          "internalType": "address",
          "name": "fromAccount",
          "type": "address"
        },
        {
          "internalType": "uint256",
          "name": "id",
          "type": "uint256"
        },
        {
          "internalType": "uint256",
          "name": "have",
          "type": "uint256"
        },
        {
          "internalType": "uint256",
          "name": "need",
          "type": "uint256"
        }
      ],
      "name": "UC_InsufficientBalance",
      "type": "error"
    },
    {
      "inputs": [],
      "name": "UC_InvalidProposal",
      "type": "error"
    },
    {
      "inputs": [],
      "name": "UC_NoBeamioAccount",
      "type": "error"
    },
    {
      "inputs": [],
      "name": "UC_NotAdmin",
      "type": "error"
    },
    {
      "inputs": [],
      "name": "UC_PointsToNotWhitelisted",
      "type": "error"
    },
    {
      "inputs": [],
      "name": "UC_PriceZero",
      "type": "error"
    },
    {
      "inputs": [
        {
          "internalType": "bytes",
          "name": "data",
          "type": "bytes"
        }
      ],
      "name": "UC_RedeemDelegateFailed",
      "type": "error"
    },
    {
      "inputs": [],
      "name": "UC_RedeemModuleZero",
      "type": "error"
    },
    {
      "inputs": [
        {
          "internalType": "address",
          "name": "eoa",
          "type": "address"
        },
        {
          "internalType": "address",
          "name": "aaFactory",
          "type": "address"
        },
        {
          "internalType": "address",
          "name": "acct",
          "type": "address"
        }
      ],
      "name": "UC_ResolveAccountFailed",
      "type": "error"
    },
    {
      "inputs": [],
      "name": "UC_SBTNonTransferable",
      "type": "error"
    },
    {
      "inputs": [],
      "name": "UC_StatsModuleZero",
      "type": "error"
    },
    {
      "inputs": [],
      "name": "UC_TierLenMismatch",
      "type": "error"
    },
    {
      "inputs": [],
      "name": "UC_TierMinZero",
      "type": "error"
    },
    {
      "inputs": [],
      "name": "UC_UnauthorizedGateway",
      "type": "error"
    },
    {
      "anonymous": false,
      "inputs": [
        {
          "indexed": true,
          "internalType": "address",
          "name": "beneficiaryAccount",
          "type": "address"
        },
        {
          "indexed": true,
          "internalType": "uint256",
          "name": "tokenId",
          "type": "uint256"
        },
        {
          "indexed": false,
          "internalType": "uint256",
          "name": "attr",
          "type": "uint256"
        },
        {
          "indexed": false,
          "internalType": "uint256",
          "name": "expiry",
          "type": "uint256"
        }
      ],
      "name": "AdminCardMinted",
      "type": "event"
    },
    {
      "anonymous": false,
      "inputs": [
        {
          "indexed": true,
          "internalType": "address",
          "name": "account",
          "type": "address"
        },
        {
          "indexed": false,
          "internalType": "uint256",
          "name": "amount",
          "type": "uint256"
        }
      ],
      "name": "AdminPointsBurned",
      "type": "event"
    },
    {
      "anonymous": false,
      "inputs": [
        {
          "indexed": true,
          "internalType": "address",
          "name": "beneficiaryAccount",
          "type": "address"
        },
        {
          "indexed": false,
          "internalType": "uint256",
          "name": "points6",
          "type": "uint256"
        }
      ],
      "name": "AdminPointsMinted",
      "type": "event"
    },
    {
      "anonymous": false,
      "inputs": [
        {
          "indexed": true,
          "internalType": "address",
          "name": "account",
          "type": "address"
        },
        {
          "indexed": true,
          "internalType": "address",
          "name": "operator",
          "type": "address"
        },
        {
          "indexed": false,
          "internalType": "bool",
          "name": "approved",
          "type": "bool"
        }
      ],
      "name": "ApprovalForAll",
      "type": "event"
    },
    {
      "anonymous": false,
      "inputs": [
        {
          "indexed": false,
          "internalType": "uint256",
          "name": "attr",
          "type": "uint256"
        }
      ],
      "name": "DefaultAttrUpdated",
      "type": "event"
    },
    {
      "anonymous": false,
      "inputs": [
        {
          "indexed": false,
          "internalType": "uint256",
          "name": "oldSecs",
          "type": "uint256"
        },
        {
          "indexed": false,
          "internalType": "uint256",
          "name": "newSecs",
          "type": "uint256"
        }
      ],
      "name": "ExpirySecondsUpdated",
      "type": "event"
    },
    {
      "anonymous": false,
      "inputs": [
        {
          "indexed": true,
          "internalType": "uint256",
          "name": "id",
          "type": "uint256"
        },
        {
          "indexed": true,
          "internalType": "address",
          "name": "userEOA",
          "type": "address"
        },
        {
          "indexed": true,
          "internalType": "address",
          "name": "acct",
          "type": "address"
        },
        {
          "indexed": false,
          "internalType": "uint256",
          "name": "amount",
          "type": "uint256"
        },
        {
          "indexed": false,
          "internalType": "uint256",
          "name": "claimedAfter",
          "type": "uint256"
        }
      ],
      "name": "FaucetClaimed",
      "type": "event"
    },
    {
      "anonymous": false,
      "inputs": [
        {
          "indexed": true,
          "internalType": "uint256",
          "name": "id",
          "type": "uint256"
        },
        {
          "components": [
            {
              "internalType": "uint64",
              "name": "validUntil",
              "type": "uint64"
            },
            {
              "internalType": "uint64",
              "name": "perClaimMax",
              "type": "uint64"
            },
            {
              "internalType": "uint128",
              "name": "maxPerUser",
              "type": "uint128"
            },
            {
              "internalType": "uint128",
              "name": "maxGlobal",
              "type": "uint128"
            },
            {
              "internalType": "bool",
              "name": "enabled",
              "type": "bool"
            },
            {
              "internalType": "uint8",
              "name": "currency",
              "type": "uint8"
            },
            {
              "internalType": "uint8",
              "name": "decimals",
              "type": "uint8"
            },
            {
              "internalType": "uint128",
              "name": "priceInCurrency6",
              "type": "uint128"
            }
          ],
          "indexed": false,
          "internalType": "struct FaucetStorage.FaucetConfig",
          "name": "cfg",
          "type": "tuple"
        }
      ],
      "name": "FaucetConfigUpdated",
      "type": "event"
    },
    {
      "anonymous": false,
      "inputs": [
        {
          "indexed": true,
          "internalType": "uint256",
          "name": "tokenId",
          "type": "uint256"
        },
        {
          "indexed": false,
          "internalType": "bytes32",
          "name": "title",
          "type": "bytes32"
        },
        {
          "indexed": false,
          "internalType": "uint64",
          "name": "validAfter",
          "type": "uint64"
        },
        {
          "indexed": false,
          "internalType": "uint64",
          "name": "validBefore",
          "type": "uint64"
        },
        {
          "indexed": false,
          "internalType": "uint256",
          "name": "maxSupply",
          "type": "uint256"
        },
        {
          "indexed": false,
          "internalType": "uint256",
          "name": "priceInCurrency6",
          "type": "uint256"
        },
        {
          "indexed": false,
          "internalType": "bytes32",
          "name": "sharedMetadataHash",
          "type": "bytes32"
        }
      ],
      "name": "IssuedNftCreated",
      "type": "event"
    },
    {
      "anonymous": false,
      "inputs": [
        {
          "indexed": true,
          "internalType": "uint256",
          "name": "tokenId",
          "type": "uint256"
        },
        {
          "indexed": true,
          "internalType": "address",
          "name": "recipient",
          "type": "address"
        },
        {
          "indexed": false,
          "internalType": "uint256",
          "name": "amount",
          "type": "uint256"
        }
      ],
      "name": "IssuedNftMinted",
      "type": "event"
    },
    {
      "anonymous": false,
      "inputs": [
        {
          "indexed": true,
          "internalType": "address",
          "name": "user",
          "type": "address"
        },
        {
          "indexed": true,
          "internalType": "uint256",
          "name": "tokenId",
          "type": "uint256"
        },
        {
          "indexed": false,
          "internalType": "uint256",
          "name": "tierIndexOrMax",
          "type": "uint256"
        },
        {
          "indexed": false,
          "internalType": "uint256",
          "name": "minUsdc6",
          "type": "uint256"
        },
        {
          "indexed": false,
          "internalType": "uint256",
          "name": "expiry",
          "type": "uint256"
        }
      ],
      "name": "MemberNFTIssued",
      "type": "event"
    },
    {
      "anonymous": false,
      "inputs": [
        {
          "indexed": true,
          "internalType": "address",
          "name": "user",
          "type": "address"
        },
        {
          "indexed": true,
          "internalType": "uint256",
          "name": "oldActiveTokenId",
          "type": "uint256"
        },
        {
          "indexed": true,
          "internalType": "uint256",
          "name": "newTokenId",
          "type": "uint256"
        },
        {
          "indexed": false,
          "internalType": "uint256",
          "name": "oldTierIndexOrMax",
          "type": "uint256"
        },
        {
          "indexed": false,
          "internalType": "uint256",
          "name": "newTierIndex",
          "type": "uint256"
        },
        {
          "indexed": false,
          "internalType": "uint256",
          "name": "newExpiry",
          "type": "uint256"
        }
      ],
      "name": "MemberNFTUpgraded",
      "type": "event"
    },
    {
      "anonymous": false,
      "inputs": [
        {
          "indexed": true,
          "internalType": "address",
          "name": "previousOwner",
          "type": "address"
        },
        {
          "indexed": true,
          "internalType": "address",
          "name": "newOwner",
          "type": "address"
        }
      ],
      "name": "OwnershipTransferred",
      "type": "event"
    },
    {
      "anonymous": false,
      "inputs": [
        {
          "indexed": true,
          "internalType": "address",
          "name": "userEOA",
          "type": "address"
        },
        {
          "indexed": true,
          "internalType": "address",
          "name": "acct",
          "type": "address"
        },
        {
          "indexed": false,
          "internalType": "uint256",
          "name": "points6",
          "type": "uint256"
        }
      ],
      "name": "PointsMintedByGateway",
      "type": "event"
    },
    {
      "anonymous": false,
      "inputs": [
        {
          "indexed": true,
          "internalType": "address",
          "name": "payerEOA",
          "type": "address"
        },
        {
          "indexed": true,
          "internalType": "address",
          "name": "beneficiaryAccount",
          "type": "address"
        },
        {
          "indexed": true,
          "internalType": "address",
          "name": "usdc",
          "type": "address"
        },
        {
          "indexed": false,
          "internalType": "uint256",
          "name": "usdcIn6",
          "type": "uint256"
        },
        {
          "indexed": false,
          "internalType": "uint256",
          "name": "pointsMinted6",
          "type": "uint256"
        },
        {
          "indexed": false,
          "internalType": "uint256",
          "name": "unitPointPriceUsdc6",
          "type": "uint256"
        },
        {
          "indexed": false,
          "internalType": "bytes32",
          "name": "nonce",
          "type": "bytes32"
        }
      ],
      "name": "PointsPurchasedWithUSDC",
      "type": "event"
    },
    {
      "anonymous": false,
      "inputs": [
        {
          "indexed": false,
          "internalType": "uint256",
          "name": "priceInCurrencyE6",
          "type": "uint256"
        }
      ],
      "name": "PointsUnitPriceUpdated",
      "type": "event"
    },
    {
      "anonymous": false,
      "inputs": [
        {
          "indexed": true,
          "internalType": "uint256",
          "name": "id",
          "type": "uint256"
        },
        {
          "indexed": true,
          "internalType": "address",
          "name": "admin",
          "type": "address"
        }
      ],
      "name": "ProposalApproved",
      "type": "event"
    },
    {
      "anonymous": false,
      "inputs": [
        {
          "indexed": true,
          "internalType": "uint256",
          "name": "id",
          "type": "uint256"
        },
        {
          "indexed": true,
          "internalType": "bytes4",
          "name": "selector",
          "type": "bytes4"
        },
        {
          "indexed": true,
          "internalType": "address",
          "name": "proposer",
          "type": "address"
        }
      ],
      "name": "ProposalCreated",
      "type": "event"
    },
    {
      "anonymous": false,
      "inputs": [
        {
          "indexed": true,
          "internalType": "uint256",
          "name": "id",
          "type": "uint256"
        }
      ],
      "name": "ProposalExecuted",
      "type": "event"
    },
    {
      "anonymous": false,
      "inputs": [
        {
          "indexed": true,
          "internalType": "bytes32",
          "name": "hash",
          "type": "bytes32"
        }
      ],
      "name": "RedeemCancelled",
      "type": "event"
    },
    {
      "anonymous": false,
      "inputs": [
        {
          "indexed": true,
          "internalType": "bytes32",
          "name": "hash",
          "type": "bytes32"
        },
        {
          "indexed": false,
          "internalType": "uint256",
          "name": "points6",
          "type": "uint256"
        },
        {
          "indexed": false,
          "internalType": "uint256",
          "name": "attr",
          "type": "uint256"
        }
      ],
      "name": "RedeemCreated",
      "type": "event"
    },
    {
      "anonymous": false,
      "inputs": [
        {
          "indexed": false,
          "internalType": "uint256",
          "name": "index",
          "type": "uint256"
        },
        {
          "indexed": false,
          "internalType": "uint256",
          "name": "minUsdc6",
          "type": "uint256"
        },
        {
          "indexed": false,
          "internalType": "uint256",
          "name": "attr",
          "type": "uint256"
        },
        {
          "indexed": false,
          "internalType": "uint256",
          "name": "tierExpirySeconds",
          "type": "uint256"
        },
        {
          "indexed": false,
          "internalType": "bool",
          "name": "upgradeByBalance",
          "type": "bool"
        }
      ],
      "name": "TierAppended",
      "type": "event"
    },
    {
      "anonymous": false,
      "inputs": [
        {
          "indexed": false,
          "internalType": "uint256",
          "name": "count",
          "type": "uint256"
        }
      ],
      "name": "TiersUpdated",
      "type": "event"
    },
    {
      "anonymous": false,
      "inputs": [
        {
          "indexed": true,
          "internalType": "address",
          "name": "operator",
          "type": "address"
        },
        {
          "indexed": true,
          "internalType": "address",
          "name": "from",
          "type": "address"
        },
        {
          "indexed": true,
          "internalType": "address",
          "name": "to",
          "type": "address"
        },
        {
          "indexed": false,
          "internalType": "uint256[]",
          "name": "ids",
          "type": "uint256[]"
        },
        {
          "indexed": false,
          "internalType": "uint256[]",
          "name": "values",
          "type": "uint256[]"
        }
      ],
      "name": "TransferBatch",
      "type": "event"
    },
    {
      "anonymous": false,
      "inputs": [
        {
          "indexed": true,
          "internalType": "address",
          "name": "operator",
          "type": "address"
        },
        {
          "indexed": true,
          "internalType": "address",
          "name": "from",
          "type": "address"
        },
        {
          "indexed": true,
          "internalType": "address",
          "name": "to",
          "type": "address"
        },
        {
          "indexed": false,
          "internalType": "uint256",
          "name": "id",
          "type": "uint256"
        },
        {
          "indexed": false,
          "internalType": "uint256",
          "name": "value",
          "type": "uint256"
        }
      ],
      "name": "TransferSingle",
      "type": "event"
    },
    {
      "anonymous": false,
      "inputs": [
        {
          "indexed": false,
          "internalType": "bool",
          "name": "enabled",
          "type": "bool"
        }
      ],
      "name": "TransferWhitelistEnabledUpdated",
      "type": "event"
    },
    {
      "anonymous": false,
      "inputs": [
        {
          "indexed": false,
          "internalType": "string",
          "name": "value",
          "type": "string"
        },
        {
          "indexed": true,
          "internalType": "uint256",
          "name": "id",
          "type": "uint256"
        }
      ],
      "name": "URI",
      "type": "event"
    },
    {
      "stateMutability": "nonpayable",
      "type": "fallback"
    },
    {
      "inputs": [],
      "name": "ISSUED_NFT_START_ID",
      "outputs": [
        {
          "internalType": "uint256",
          "name": "",
          "type": "uint256"
        }
      ],
      "stateMutability": "view",
      "type": "function"
    },
    {
      "inputs": [],
      "name": "NFT_START_ID",
      "outputs": [
        {
          "internalType": "uint256",
          "name": "",
          "type": "uint256"
        }
      ],
      "stateMutability": "view",
      "type": "function"
    },
    {
      "inputs": [],
      "name": "POINTS_DECIMALS",
      "outputs": [
        {
          "internalType": "uint8",
          "name": "",
          "type": "uint8"
        }
      ],
      "stateMutability": "view",
      "type": "function"
    },
    {
      "inputs": [],
      "name": "POINTS_ID",
      "outputs": [
        {
          "internalType": "uint256",
          "name": "",
          "type": "uint256"
        }
      ],
      "stateMutability": "view",
      "type": "function"
    },
    {
      "inputs": [],
      "name": "VERSION",
      "outputs": [
        {
          "internalType": "uint256",
          "name": "",
          "type": "uint256"
        }
      ],
      "stateMutability": "view",
      "type": "function"
    },
    {
      "inputs": [
        {
          "internalType": "address",
          "name": "",
          "type": "address"
        },
        {
          "internalType": "uint256",
          "name": "",
          "type": "uint256"
        }
      ],
      "name": "_userOwnedNfts",
      "outputs": [
        {
          "internalType": "uint256",
          "name": "",
          "type": "uint256"
        }
      ],
      "stateMutability": "view",
      "type": "function"
    },
    {
      "inputs": [
        {
          "internalType": "uint256",
          "name": "",
          "type": "uint256"
        }
      ],
      "name": "activeMembershipCountByTierIndex",
      "outputs": [
        {
          "internalType": "uint256",
          "name": "",
          "type": "uint256"
        }
      ],
      "stateMutability": "view",
      "type": "function"
    },
    {
      "inputs": [
        {
          "internalType": "uint256",
          "name": "",
          "type": "uint256"
        }
      ],
      "name": "activeMembershipCountByTokenId",
      "outputs": [
        {
          "internalType": "uint256",
          "name": "",
          "type": "uint256"
        }
      ],
      "stateMutability": "view",
      "type": "function"
    },
    {
      "inputs": [
        {
          "internalType": "address",
          "name": "",
          "type": "address"
        }
      ],
      "name": "activeMembershipId",
      "outputs": [
        {
          "internalType": "uint256",
          "name": "",
          "type": "uint256"
        }
      ],
      "stateMutability": "view",
      "type": "function"
    },
    {
      "inputs": [
        {
          "internalType": "address",
          "name": "",
          "type": "address"
        }
      ],
      "name": "activeTierIndexOrMax",
      "outputs": [
        {
          "internalType": "uint256",
          "name": "",
          "type": "uint256"
        }
      ],
      "stateMutability": "view",
      "type": "function"
    },
    {
      "inputs": [
        {
          "internalType": "address",
          "name": "a",
          "type": "address"
        }
      ],
      "name": "adminParent",
      "outputs": [
        {
          "internalType": "address",
          "name": "",
          "type": "address"
        }
      ],
      "stateMutability": "view",
      "type": "function"
    },
    {
      "inputs": [
        {
          "internalType": "uint256",
          "name": "minUsdc6",
          "type": "uint256"
        },
        {
          "internalType": "uint256",
          "name": "attr",
          "type": "uint256"
        },
        {
          "internalType": "uint256",
          "name": "tierExpirySeconds",
          "type": "uint256"
        },
        {
          "internalType": "bool",
          "name": "upgradeByBalance",
          "type": "bool"
        }
      ],
      "name": "appendTier",
      "outputs": [],
      "stateMutability": "nonpayable",
      "type": "function"
    },
    {
      "inputs": [
        {
          "internalType": "uint256",
          "name": "id",
          "type": "uint256"
        }
      ],
      "name": "approveProposal",
      "outputs": [],
      "stateMutability": "nonpayable",
      "type": "function"
    },
    {
      "inputs": [
        {
          "internalType": "uint256",
          "name": "id",
          "type": "uint256"
        },
        {
          "internalType": "address",
          "name": "adminSigner",
          "type": "address"
        }
      ],
      "name": "approveProposalByGateway",
      "outputs": [],
      "stateMutability": "nonpayable",
      "type": "function"
    },
    {
      "inputs": [
        {
          "internalType": "uint256",
          "name": "",
          "type": "uint256"
        }
      ],
      "name": "attributes",
      "outputs": [
        {
          "internalType": "uint256",
          "name": "",
          "type": "uint256"
        }
      ],
      "stateMutability": "view",
      "type": "function"
    },
    {
      "inputs": [
        {
          "internalType": "address",
          "name": "account",
          "type": "address"
        },
        {
          "internalType": "uint256",
          "name": "id",
          "type": "uint256"
        }
      ],
      "name": "balanceOf",
      "outputs": [
        {
          "internalType": "uint256",
          "name": "",
          "type": "uint256"
        }
      ],
      "stateMutability": "view",
      "type": "function"
    },
    {
      "inputs": [
        {
          "internalType": "address[]",
          "name": "accounts",
          "type": "address[]"
        },
        {
          "internalType": "uint256[]",
          "name": "ids",
          "type": "uint256[]"
        }
      ],
      "name": "balanceOfBatch",
      "outputs": [
        {
          "internalType": "uint256[]",
          "name": "",
          "type": "uint256[]"
        }
      ],
      "stateMutability": "view",
      "type": "function"
    },
    {
      "inputs": [
        {
          "internalType": "address",
          "name": "target",
          "type": "address"
        },
        {
          "internalType": "uint256",
          "name": "amount",
          "type": "uint256"
        }
      ],
      "name": "burnPointsByAdmin",
      "outputs": [],
      "stateMutability": "nonpayable",
      "type": "function"
    },
    {
      "inputs": [
        {
          "internalType": "address",
          "name": "subordinate",
          "type": "address"
        },
        {
          "internalType": "address",
          "name": "authorizer",
          "type": "address"
        }
      ],
      "name": "clearAdminMintCounterForSubordinate",
      "outputs": [],
      "stateMutability": "nonpayable",
      "type": "function"
    },
    {
      "inputs": [
        {
          "internalType": "bytes4",
          "name": "selector",
          "type": "bytes4"
        },
        {
          "internalType": "address",
          "name": "target",
          "type": "address"
        },
        {
          "internalType": "uint256",
          "name": "v1",
          "type": "uint256"
        },
        {
          "internalType": "uint256",
          "name": "v2",
          "type": "uint256"
        },
        {
          "internalType": "uint256",
          "name": "v3",
          "type": "uint256"
        }
      ],
      "name": "createProposal",
      "outputs": [
        {
          "internalType": "uint256",
          "name": "",
          "type": "uint256"
        }
      ],
      "stateMutability": "nonpayable",
      "type": "function"
    },
    {
      "inputs": [],
      "name": "currency",
      "outputs": [
        {
          "internalType": "enum BeamioCurrency.CurrencyType",
          "name": "",
          "type": "uint8"
        }
      ],
      "stateMutability": "view",
      "type": "function"
    },
    {
      "inputs": [],
      "name": "debugGateway",
      "outputs": [
        {
          "internalType": "address",
          "name": "",
          "type": "address"
        }
      ],
      "stateMutability": "view",
      "type": "function"
    },
    {
      "inputs": [],
      "name": "defaultAttrWhenNoTiers",
      "outputs": [
        {
          "internalType": "uint256",
          "name": "",
          "type": "uint256"
        }
      ],
      "stateMutability": "view",
      "type": "function"
    },
    {
      "inputs": [],
      "name": "deployer",
      "outputs": [
        {
          "internalType": "address",
          "name": "",
          "type": "address"
        }
      ],
      "stateMutability": "view",
      "type": "function"
    },
    {
      "inputs": [
        {
          "internalType": "uint256",
          "name": "",
          "type": "uint256"
        }
      ],
      "name": "expiresAt",
      "outputs": [
        {
          "internalType": "uint256",
          "name": "",
          "type": "uint256"
        }
      ],
      "stateMutability": "view",
      "type": "function"
    },
    {
      "inputs": [],
      "name": "expirySeconds",
      "outputs": [
        {
          "internalType": "uint256",
          "name": "",
          "type": "uint256"
        }
      ],
      "stateMutability": "view",
      "type": "function"
    },
    {
      "inputs": [],
      "name": "factoryGateway",
      "outputs": [
        {
          "internalType": "address",
          "name": "",
          "type": "address"
        }
      ],
      "stateMutability": "view",
      "type": "function"
    },
    {
      "inputs": [
        {
          "internalType": "address",
          "name": "userEOA",
          "type": "address"
        },
        {
          "internalType": "uint256",
          "name": "id",
          "type": "uint256"
        },
        {
          "internalType": "uint256",
          "name": "amount",
          "type": "uint256"
        }
      ],
      "name": "faucetByGateway",
      "outputs": [],
      "stateMutability": "nonpayable",
      "type": "function"
    },
    {
      "inputs": [
        {
          "internalType": "uint256",
          "name": "id",
          "type": "uint256"
        }
      ],
      "name": "faucetConfig",
      "outputs": [
        {
          "components": [
            {
              "internalType": "uint64",
              "name": "validUntil",
              "type": "uint64"
            },
            {
              "internalType": "uint64",
              "name": "perClaimMax",
              "type": "uint64"
            },
            {
              "internalType": "uint128",
              "name": "maxPerUser",
              "type": "uint128"
            },
            {
              "internalType": "uint128",
              "name": "maxGlobal",
              "type": "uint128"
            },
            {
              "internalType": "bool",
              "name": "enabled",
              "type": "bool"
            },
            {
              "internalType": "uint8",
              "name": "currency",
              "type": "uint8"
            },
            {
              "internalType": "uint8",
              "name": "decimals",
              "type": "uint8"
            },
            {
              "internalType": "uint128",
              "name": "priceInCurrency6",
              "type": "uint128"
            }
          ],
          "internalType": "struct FaucetStorage.FaucetConfig",
          "name": "",
          "type": "tuple"
        }
      ],
      "stateMutability": "view",
      "type": "function"
    },
    {
      "inputs": [],
      "name": "gateway",
      "outputs": [
        {
          "internalType": "address",
          "name": "",
          "type": "address"
        }
      ],
      "stateMutability": "view",
      "type": "function"
    },
    {
      "inputs": [
        {
          "internalType": "address",
          "name": "admin",
          "type": "address"
        }
      ],
      "name": "getAdminBurnCounter",
      "outputs": [
        {
          "internalType": "uint256",
          "name": "",
          "type": "uint256"
        }
      ],
      "stateMutability": "view",
      "type": "function"
    },
    {
      "inputs": [
        {
          "internalType": "address",
          "name": "admin",
          "type": "address"
        }
      ],
      "name": "getAdminMintCounter",
      "outputs": [
        {
          "internalType": "uint256",
          "name": "",
          "type": "uint256"
        }
      ],
      "stateMutability": "view",
      "type": "function"
    },
    {
      "inputs": [
        {
          "internalType": "address",
          "name": "admin",
          "type": "address"
        }
      ],
      "name": "getAdminRedeemMintCounter",
      "outputs": [
        {
          "internalType": "uint256",
          "name": "",
          "type": "uint256"
        }
      ],
      "stateMutability": "view",
      "type": "function"
    },
    {
      "inputs": [
        {
          "internalType": "address",
          "name": "admin",
          "type": "address"
        }
      ],
      "name": "getAdminTransferAmountCounter",
      "outputs": [
        {
          "internalType": "uint256",
          "name": "",
          "type": "uint256"
        }
      ],
      "stateMutability": "view",
      "type": "function"
    },
    {
      "inputs": [
        {
          "internalType": "address",
          "name": "admin",
          "type": "address"
        }
      ],
      "name": "getAdminTransferCounter",
      "outputs": [
        {
          "internalType": "uint256",
          "name": "",
          "type": "uint256"
        }
      ],
      "stateMutability": "view",
      "type": "function"
    },
    {
      "inputs": [
        {
          "internalType": "address",
          "name": "admin",
          "type": "address"
        }
      ],
      "name": "getAdminUSDCMintCounter",
      "outputs": [
        {
          "internalType": "uint256",
          "name": "",
          "type": "uint256"
        }
      ],
      "stateMutability": "view",
      "type": "function"
    },
    {
      "inputs": [
        {
          "internalType": "address",
          "name": "user",
          "type": "address"
        }
      ],
      "name": "getOwnership",
      "outputs": [
        {
          "internalType": "uint256",
          "name": "pt",
          "type": "uint256"
        },
        {
          "components": [
            {
              "internalType": "uint256",
              "name": "tokenId",
              "type": "uint256"
            },
            {
              "internalType": "uint256",
              "name": "attribute",
              "type": "uint256"
            },
            {
              "internalType": "uint256",
              "name": "tierIndexOrMax",
              "type": "uint256"
            },
            {
              "internalType": "uint256",
              "name": "expiry",
              "type": "uint256"
            },
            {
              "internalType": "bool",
              "name": "isExpired",
              "type": "bool"
            }
          ],
          "internalType": "struct BeamioUserCard.NFTDetail[]",
          "name": "nfts",
          "type": "tuple[]"
        }
      ],
      "stateMutability": "view",
      "type": "function"
    },
    {
      "inputs": [
        {
          "internalType": "address",
          "name": "userEOA",
          "type": "address"
        }
      ],
      "name": "getOwnershipByEOA",
      "outputs": [
        {
          "internalType": "uint256",
          "name": "pt",
          "type": "uint256"
        },
        {
          "components": [
            {
              "internalType": "uint256",
              "name": "tokenId",
              "type": "uint256"
            },
            {
              "internalType": "uint256",
              "name": "attribute",
              "type": "uint256"
            },
            {
              "internalType": "uint256",
              "name": "tierIndexOrMax",
              "type": "uint256"
            },
            {
              "internalType": "uint256",
              "name": "expiry",
              "type": "uint256"
            },
            {
              "internalType": "bool",
              "name": "isExpired",
              "type": "bool"
            }
          ],
          "internalType": "struct BeamioUserCard.NFTDetail[]",
          "name": "nfts",
          "type": "tuple[]"
        }
      ],
      "stateMutability": "view",
      "type": "function"
    },
    {
      "inputs": [
        {
          "internalType": "address",
          "name": "a",
          "type": "address"
        }
      ],
      "name": "isAdmin",
      "outputs": [
        {
          "internalType": "bool",
          "name": "",
          "type": "bool"
        }
      ],
      "stateMutability": "view",
      "type": "function"
    },
    {
      "inputs": [
        {
          "internalType": "address",
          "name": "account",
          "type": "address"
        },
        {
          "internalType": "address",
          "name": "operator",
          "type": "address"
        }
      ],
      "name": "isApprovedForAll",
      "outputs": [
        {
          "internalType": "bool",
          "name": "",
          "type": "bool"
        }
      ],
      "stateMutability": "view",
      "type": "function"
    },
    {
      "inputs": [
        {
          "internalType": "uint256",
          "name": "tokenId",
          "type": "uint256"
        }
      ],
      "name": "isIssuedNftValid",
      "outputs": [
        {
          "internalType": "bool",
          "name": "",
          "type": "bool"
        }
      ],
      "stateMutability": "view",
      "type": "function"
    },
    {
      "inputs": [
        {
          "internalType": "uint256",
          "name": "tokenId",
          "type": "uint256"
        }
      ],
      "name": "issuedNftPriceInCurrency6",
      "outputs": [
        {
          "internalType": "uint256",
          "name": "",
          "type": "uint256"
        }
      ],
      "stateMutability": "view",
      "type": "function"
    },
    {
      "inputs": [
        {
          "internalType": "uint64",
          "name": "hourIndex",
          "type": "uint64"
        }
      ],
      "name": "membershipFlowBucketAtHour",
      "outputs": [
        {
          "internalType": "uint256",
          "name": "issuedCount",
          "type": "uint256"
        },
        {
          "internalType": "uint256",
          "name": "upgradedCount",
          "type": "uint256"
        },
        {
          "internalType": "uint256",
          "name": "expiredDiscoveredCount",
          "type": "uint256"
        },
        {
          "internalType": "uint256",
          "name": "activeSwitchCount",
          "type": "uint256"
        },
        {
          "internalType": "uint256",
          "name": "activatedCount",
          "type": "uint256"
        },
        {
          "internalType": "uint256",
          "name": "deactivatedCount",
          "type": "uint256"
        },
        {
          "internalType": "bool",
          "name": "hasData",
          "type": "bool"
        }
      ],
      "stateMutability": "view",
      "type": "function"
    },
    {
      "inputs": [
        {
          "internalType": "uint8",
          "name": "scopeType",
          "type": "uint8"
        },
        {
          "internalType": "uint256",
          "name": "scopeKey",
          "type": "uint256"
        },
        {
          "internalType": "uint64",
          "name": "hourIndex",
          "type": "uint64"
        }
      ],
      "name": "membershipScopedFlowBucketAtHour",
      "outputs": [
        {
          "internalType": "uint256",
          "name": "issuedCount",
          "type": "uint256"
        },
        {
          "internalType": "uint256",
          "name": "upgradedCount",
          "type": "uint256"
        },
        {
          "internalType": "uint256",
          "name": "expiredDiscoveredCount",
          "type": "uint256"
        },
        {
          "internalType": "uint256",
          "name": "activeSwitchCount",
          "type": "uint256"
        },
        {
          "internalType": "uint256",
          "name": "activatedCount",
          "type": "uint256"
        },
        {
          "internalType": "uint256",
          "name": "deactivatedCount",
          "type": "uint256"
        },
        {
          "internalType": "bool",
          "name": "hasData",
          "type": "bool"
        }
      ],
      "stateMutability": "view",
      "type": "function"
    },
    {
      "inputs": [],
      "name": "metadataBaseURI",
      "outputs": [
        {
          "internalType": "string",
          "name": "",
          "type": "string"
        }
      ],
      "stateMutability": "view",
      "type": "function"
    },
    {
      "inputs": [
        {
          "internalType": "address",
          "name": "userEOA",
          "type": "address"
        },
        {
          "internalType": "uint256",
          "name": "id",
          "type": "uint256"
        },
        {
          "internalType": "uint256",
          "name": "amount6",
          "type": "uint256"
        }
      ],
      "name": "mintFaucetByGateway",
      "outputs": [],
      "stateMutability": "nonpayable",
      "type": "function"
    },
    {
      "inputs": [
        {
          "internalType": "address",
          "name": "userEOA",
          "type": "address"
        },
        {
          "internalType": "uint256",
          "name": "tokenId",
          "type": "uint256"
        },
        {
          "internalType": "uint256",
          "name": "amount",
          "type": "uint256"
        }
      ],
      "name": "mintIssuedNftByGateway",
      "outputs": [],
      "stateMutability": "nonpayable",
      "type": "function"
    },
    {
      "inputs": [
        {
          "internalType": "address",
          "name": "to",
          "type": "address"
        },
        {
          "internalType": "uint256",
          "name": "tokenId",
          "type": "uint256"
        },
        {
          "internalType": "uint256",
          "name": "amount",
          "type": "uint256"
        }
      ],
      "name": "mintIssuedNftByOwner",
      "outputs": [],
      "stateMutability": "nonpayable",
      "type": "function"
    },
    {
      "inputs": [
        {
          "internalType": "address",
          "name": "user",
          "type": "address"
        },
        {
          "internalType": "uint256",
          "name": "tierIndex",
          "type": "uint256"
        }
      ],
      "name": "mintMemberCardByAdmin",
      "outputs": [],
      "stateMutability": "nonpayable",
      "type": "function"
    },
    {
      "inputs": [
        {
          "internalType": "address",
          "name": "user",
          "type": "address"
        },
        {
          "internalType": "uint256",
          "name": "points6",
          "type": "uint256"
        }
      ],
      "name": "mintPointsByAdmin",
      "outputs": [],
      "stateMutability": "nonpayable",
      "type": "function"
    },
    {
      "inputs": [
        {
          "internalType": "address",
          "name": "user",
          "type": "address"
        },
        {
          "internalType": "uint256",
          "name": "points6",
          "type": "uint256"
        },
        {
          "internalType": "address",
          "name": "operator",
          "type": "address"
        }
      ],
      "name": "mintPointsByAdminWithOperator",
      "outputs": [],
      "stateMutability": "nonpayable",
      "type": "function"
    },
    {
      "inputs": [
        {
          "internalType": "address",
          "name": "userEOA",
          "type": "address"
        },
        {
          "internalType": "uint256",
          "name": "points6",
          "type": "uint256"
        }
      ],
      "name": "mintPointsByGateway",
      "outputs": [],
      "stateMutability": "nonpayable",
      "type": "function"
    },
    {
      "inputs": [
        {
          "internalType": "address",
          "name": "userEOA",
          "type": "address"
        },
        {
          "internalType": "uint256",
          "name": "points6",
          "type": "uint256"
        },
        {
          "internalType": "address",
          "name": "operator",
          "type": "address"
        }
      ],
      "name": "mintPointsByGatewayWithOperator",
      "outputs": [],
      "stateMutability": "nonpayable",
      "type": "function"
    },
    {
      "inputs": [],
      "name": "owner",
      "outputs": [
        {
          "internalType": "address",
          "name": "",
          "type": "address"
        }
      ],
      "stateMutability": "view",
      "type": "function"
    },
    {
      "inputs": [],
      "name": "pointsUnitPriceInCurrencyE6",
      "outputs": [
        {
          "internalType": "uint256",
          "name": "",
          "type": "uint256"
        }
      ],
      "stateMutability": "view",
      "type": "function"
    },
    {
      "inputs": [
        {
          "internalType": "address",
          "name": "operator",
          "type": "address"
        },
        {
          "internalType": "uint256",
          "name": "amount",
          "type": "uint256"
        }
      ],
      "name": "recordAdminBurnForStats",
      "outputs": [],
      "stateMutability": "nonpayable",
      "type": "function"
    },
    {
      "inputs": [
        {
          "internalType": "address",
          "name": "admin",
          "type": "address"
        },
        {
          "internalType": "uint256",
          "name": "amount",
          "type": "uint256"
        }
      ],
      "name": "recordAdminMintForStats",
      "outputs": [],
      "stateMutability": "nonpayable",
      "type": "function"
    },
    {
      "inputs": [
        {
          "internalType": "string",
          "name": "code",
          "type": "string"
        },
        {
          "internalType": "address",
          "name": "to",
          "type": "address"
        }
      ],
      "name": "redeemAdminByGateway",
      "outputs": [],
      "stateMutability": "nonpayable",
      "type": "function"
    },
    {
      "inputs": [
        {
          "internalType": "string[]",
          "name": "codes",
          "type": "string[]"
        },
        {
          "internalType": "address",
          "name": "userEOA",
          "type": "address"
        }
      ],
      "name": "redeemBatchByGateway",
      "outputs": [],
      "stateMutability": "nonpayable",
      "type": "function"
    },
    {
      "inputs": [
        {
          "internalType": "string",
          "name": "code",
          "type": "string"
        },
        {
          "internalType": "address",
          "name": "userEOA",
          "type": "address"
        }
      ],
      "name": "redeemByGateway",
      "outputs": [],
      "stateMutability": "nonpayable",
      "type": "function"
    },
    {
      "inputs": [
        {
          "internalType": "string",
          "name": "code",
          "type": "string"
        },
        {
          "internalType": "address",
          "name": "userEOA",
          "type": "address"
        }
      ],
      "name": "redeemPoolByGateway",
      "outputs": [],
      "stateMutability": "nonpayable",
      "type": "function"
    },
    {
      "inputs": [],
      "name": "renounceOwnership",
      "outputs": [],
      "stateMutability": "nonpayable",
      "type": "function"
    },
    {
      "inputs": [
        {
          "internalType": "address",
          "name": "adminAddr",
          "type": "address"
        }
      ],
      "name": "resetAdminLimit",
      "outputs": [],
      "stateMutability": "nonpayable",
      "type": "function"
    },
    {
      "inputs": [
        {
          "internalType": "address",
          "name": "adminAddr",
          "type": "address"
        },
        {
          "internalType": "address",
          "name": "authorizer",
          "type": "address"
        }
      ],
      "name": "resetAdminLimitByAdmin",
      "outputs": [],
      "stateMutability": "nonpayable",
      "type": "function"
    },
    {
      "inputs": [
        {
          "internalType": "address",
          "name": "from",
          "type": "address"
        },
        {
          "internalType": "address",
          "name": "to",
          "type": "address"
        },
        {
          "internalType": "uint256[]",
          "name": "ids",
          "type": "uint256[]"
        },
        {
          "internalType": "uint256[]",
          "name": "values",
          "type": "uint256[]"
        },
        {
          "internalType": "bytes",
          "name": "data",
          "type": "bytes"
        }
      ],
      "name": "safeBatchTransferFrom",
      "outputs": [],
      "stateMutability": "nonpayable",
      "type": "function"
    },
    {
      "inputs": [
        {
          "internalType": "address",
          "name": "from",
          "type": "address"
        },
        {
          "internalType": "address",
          "name": "to",
          "type": "address"
        },
        {
          "internalType": "uint256",
          "name": "id",
          "type": "uint256"
        },
        {
          "internalType": "uint256",
          "name": "value",
          "type": "uint256"
        },
        {
          "internalType": "bytes",
          "name": "data",
          "type": "bytes"
        }
      ],
      "name": "safeTransferFrom",
      "outputs": [],
      "stateMutability": "nonpayable",
      "type": "function"
    },
    {
      "inputs": [
        {
          "internalType": "address",
          "name": "operator",
          "type": "address"
        },
        {
          "internalType": "bool",
          "name": "approved",
          "type": "bool"
        }
      ],
      "name": "setApprovalForAll",
      "outputs": [],
      "stateMutability": "nonpayable",
      "type": "function"
    },
    {
      "inputs": [
        {
          "internalType": "uint256",
          "name": "attr",
          "type": "uint256"
        }
      ],
      "name": "setDefaultAttr",
      "outputs": [],
      "stateMutability": "nonpayable",
      "type": "function"
    },
    {
      "inputs": [
        {
          "internalType": "uint256",
          "name": "secs",
          "type": "uint256"
        }
      ],
      "name": "setExpirySeconds",
      "outputs": [],
      "stateMutability": "nonpayable",
      "type": "function"
    },
    {
      "inputs": [
        {
          "internalType": "uint256",
          "name": "priceInCurrencyE6",
          "type": "uint256"
        }
      ],
      "name": "setPointsUnitPrice",
      "outputs": [],
      "stateMutability": "nonpayable",
      "type": "function"
    },
    {
      "inputs": [
        {
          "components": [
            {
              "internalType": "uint256",
              "name": "minUsdc6",
              "type": "uint256"
            },
            {
              "internalType": "uint256",
              "name": "attr",
              "type": "uint256"
            },
            {
              "internalType": "uint256",
              "name": "tierExpirySeconds",
              "type": "uint256"
            },
            {
              "internalType": "bool",
              "name": "upgradeByBalance",
              "type": "bool"
            }
          ],
          "internalType": "struct BeamioUserCard.Tier[]",
          "name": "newTiers",
          "type": "tuple[]"
        }
      ],
      "name": "setTiers",
      "outputs": [],
      "stateMutability": "nonpayable",
      "type": "function"
    },
    {
      "inputs": [
        {
          "internalType": "address",
          "name": "target",
          "type": "address"
        },
        {
          "internalType": "bool",
          "name": "allowed",
          "type": "bool"
        }
      ],
      "name": "setTransferWhitelist",
      "outputs": [],
      "stateMutability": "nonpayable",
      "type": "function"
    },
    {
      "inputs": [
        {
          "internalType": "bool",
          "name": "enabled",
          "type": "bool"
        }
      ],
      "name": "setTransferWhitelistEnabled",
      "outputs": [],
      "stateMutability": "nonpayable",
      "type": "function"
    },
    {
      "inputs": [
        {
          "internalType": "bytes4",
          "name": "interfaceId",
          "type": "bytes4"
        }
      ],
      "name": "supportsInterface",
      "outputs": [
        {
          "internalType": "bool",
          "name": "",
          "type": "bool"
        }
      ],
      "stateMutability": "view",
      "type": "function"
    },
    {
      "inputs": [
        {
          "internalType": "uint256",
          "name": "",
          "type": "uint256"
        }
      ],
      "name": "tiers",
      "outputs": [
        {
          "internalType": "uint256",
          "name": "minUsdc6",
          "type": "uint256"
        },
        {
          "internalType": "uint256",
          "name": "attr",
          "type": "uint256"
        },
        {
          "internalType": "uint256",
          "name": "tierExpirySeconds",
          "type": "uint256"
        },
        {
          "internalType": "bool",
          "name": "upgradeByBalance",
          "type": "bool"
        }
      ],
      "stateMutability": "view",
      "type": "function"
    },
    {
      "inputs": [
        {
          "internalType": "uint256",
          "name": "",
          "type": "uint256"
        }
      ],
      "name": "tokenTierIndexOrMax",
      "outputs": [
        {
          "internalType": "uint256",
          "name": "",
          "type": "uint256"
        }
      ],
      "stateMutability": "view",
      "type": "function"
    },
    {
      "inputs": [],
      "name": "totalActiveMemberships",
      "outputs": [
        {
          "internalType": "uint256",
          "name": "",
          "type": "uint256"
        }
      ],
      "stateMutability": "view",
      "type": "function"
    },
    {
      "inputs": [],
      "name": "totalMembershipIssued",
      "outputs": [
        {
          "internalType": "uint256",
          "name": "",
          "type": "uint256"
        }
      ],
      "stateMutability": "view",
      "type": "function"
    },
    {
      "inputs": [
        {
          "internalType": "uint256",
          "name": "",
          "type": "uint256"
        }
      ],
      "name": "totalMembershipIssuedByTierIndex",
      "outputs": [
        {
          "internalType": "uint256",
          "name": "",
          "type": "uint256"
        }
      ],
      "stateMutability": "view",
      "type": "function"
    },
    {
      "inputs": [],
      "name": "totalMembershipUpgraded",
      "outputs": [
        {
          "internalType": "uint256",
          "name": "",
          "type": "uint256"
        }
      ],
      "stateMutability": "view",
      "type": "function"
    },
    {
      "inputs": [],
      "name": "totalSupply",
      "outputs": [
        {
          "internalType": "uint256",
          "name": "",
          "type": "uint256"
        }
      ],
      "stateMutability": "view",
      "type": "function"
    },
    {
      "inputs": [
        {
          "internalType": "uint256",
          "name": "id",
          "type": "uint256"
        }
      ],
      "name": "totalSupply",
      "outputs": [
        {
          "internalType": "uint256",
          "name": "",
          "type": "uint256"
        }
      ],
      "stateMutability": "view",
      "type": "function"
    },
    {
      "inputs": [
        {
          "internalType": "address",
          "name": "newOwner",
          "type": "address"
        }
      ],
      "name": "transferOwnership",
      "outputs": [],
      "stateMutability": "nonpayable",
      "type": "function"
    },
    {
      "inputs": [
        {
          "internalType": "address",
          "name": "",
          "type": "address"
        }
      ],
      "name": "transferWhitelist",
      "outputs": [
        {
          "internalType": "bool",
          "name": "",
          "type": "bool"
        }
      ],
      "stateMutability": "view",
      "type": "function"
    },
    {
      "inputs": [],
      "name": "transferWhitelistEnabled",
      "outputs": [
        {
          "internalType": "bool",
          "name": "",
          "type": "bool"
        }
      ],
      "stateMutability": "view",
      "type": "function"
    },
    {
      "inputs": [
        {
          "internalType": "uint256",
          "name": "",
          "type": "uint256"
        }
      ],
      "name": "uri",
      "outputs": [
        {
          "internalType": "string",
          "name": "",
          "type": "string"
        }
      ],
      "stateMutability": "view",
      "type": "function"
    }
  ],
  "bytecode": "0x60a06040523461033e5761631e8038038061001981610342565b928339810160a08282031261033e5781516001600160401b03811161033e57820181601f8201121561033e5780516001600160401b0381116102ae57610068601f8201601f1916602001610342565b928184526020828401011161033e575f928160208094018483015e0101526020810151600981101561033e576040820151916100b260806100ab60608401610367565b9201610367565b926020915f6100c084610342565b52600254600181811c91168015610334575b8482101461032057601f81116102ee575b505f6002556001600160a01b03169283156102db57600380546001600160a01b031981168617909155604051959085906001600160a01b03167f8be0079c531659141344cd1fd0a4f28419497f9722a3daafe3b4186f6b6457e05f80a3600160045560646019556001600160a01b0381169081159081156102d1575b506102c25733608052600580546001600160a01b03191682179055600680546001600160a81b03191690911760a09290921b60ff60a01b1691909117905560075560017fbc488d3e2575f0f2113dc4d9a0cd6bc52445c6bc28a8974ed97a6ba3ecfd657a8190555f8381527fbc488d3e2575f0f2113dc4d9a0cd6bc52445c6bc28a8974ed97a6ba3ecfd657b835260409020805460ff191690911790555f5160206162fe5f395f51905f525490680100000000000000008210156102ae5760018201805f5160206162fe5f395f51905f525582101561029a575f5160206162fe5f395f51905f525f908152200180546001600160a01b031916909117905564174876e8007ffed699897f2561c8a98f833aa3de83c4904370d413fe5fb15abe26e9f8150b2955615f82908161037c8239608051816129260152f35b634e487b7160e01b5f52603260045260245ffd5b634e487b7160e01b5f52604160045260245ffd5b63ab82bb9960e01b5f5260045ffd5b90503b155f61015f565b631e4fbdf760e01b5f525f60045260245ffd5b80156100e35760025f52601f845f20910160051c905f5b8281106103135750506100e3565b5f82820155600101610305565b634e487b7160e01b5f52602260045260245ffd5b90607f16906100d2565b5f80fd5b6040519190601f01601f191682016001600160401b038111838210176102ae57604052565b51906001600160a01b038216820361033e5756fe60806040526004361015610019575b3415613a85575b5f80fd5b5f3560e01c8062fdd58e1461056d57806301ffc9a714610568578063039af9eb1461056357806303ca3e381461055e5780630a106e9c146105595780630b6c8d71146105545780630cb856411461054f5780630e4ab4871461054a5780630e89341c146105455780630ec3786b146105405780631018c34b1461053b57806310bba86414610536578063116191b6146104d75780631284b92f1461053157806317c957091461052c57806318160ddd146105275780631c790e24146105225780631fe56e6a1461051d57806324d7806c146105185780632aff2a59146105135780632b681a541461050e5780632eb2c2d614610509578063312e76a9146105045780633c703d45146104ff5780633c970fb9146104fa57806343159ce5146104f5578063475e53ec146104f057806348ed7ebe146104eb57806349dd0900146104e65780634dda2215146104e15780634e1273f4146104dc57806353785619146104d75780635476d071146104d257806356217848146104cd5780635637d5bc146104c8578063564da757146104c357806356c689fa146104be5780636465c3a7146104b9578063671395c8146104b45780636f0fa0cb146104af5780636f5def39146104aa578063706e0132146104a5578063715018a6146104a057806371b8982f146103d85780637766fa441461049b5780637ffbe2411461049657806382b720c91461049157806383dbbf531461048c578063897828a8146104875780638a1b32bb146104825780638da5cb5b1461047d5780638db553081461047857806394b2e946146104735780639565c5421461046e57806398951b56146104695780639b52f90d146104645780639f1bbda71461045f5780639f3d1a2a1461045a5780639f48facc14610455578063a22cb46514610450578063a47904461461044b578063a876c75914610446578063a98d916e14610441578063acf12d3d1461043c578063aeadb04b14610437578063af7ffa2b14610432578063b84f1fe81461042d578063bd85b03914610428578063c926bbfd14610423578063c9840daf1461041e578063d05dcc6a14610419578063d182793714610414578063d4506e771461040f578063d52dc5151461040a578063d5f3948814610405578063dd1bc5e914610400578063e141dcb8146103fb578063e4a34dce146103f6578063e5a6b10f146103f1578063e985e9c5146103ec578063f242432a146103e7578063f2fde38b146103e2578063f540f227146103dd578063f986f676146103d8578063fcef6b01146103d35763ffa1ad740361000e57612ce1565b612cc4565b611d7e565b612c9a565b612c23565b612b36565b612b05565b612ac5565b612a90565b61297f565b612955565b612911565b6128ef565b612897565b612870565b612846565b61276b565b612746565b612710565b6126e9565b612676565b61264f565b612632565b612613565b6125f6565b61258e565b61250f565b6123b1565b6122fa565b6122dd565b6122b6565b612242565b61221a565b6121df565b6121b7565b61218f565b61210a565b6120a8565b61203c565b611f45565b611f05565b611dcb565b611cdd565b611cbe565b611c97565b611c70565b611c35565b611b2b565b611a9c565b6119bb565b6119a0565b611976565b611959565b610d36565b611898565b611837565b6117fc565b6116e1565b61166f565b611524565b6114e1565b611498565b61143d565b6113a9565b611225565b6111be565b611189565b61115f565b6110a2565b611079565b61104f565b610f99565b610cf7565b610c9a565b610c3e565b610ad8565b610a55565b6109f8565b6109b7565b6108dd565b6106fd565b610680565b6105dd565b61058f565b6001600160a01b031690565b6001600160a01b0381160361001557565b346100155760403660031901126100155760206105c26004356105b18161057e565b6024355f525f835260405f20610f6f565b54604051908152f35b6001600160e01b031981160361001557565b346100155760203660031901126100155760206004356105fc816105cb565b63ffffffff60e01b16636cdb3d1360e11b811490811561063a575b8115610629575b506040519015158152f35b6301ffc9a760e01b1490505f61061e565b6303a24d0760e21b81149150610617565b634e487b7160e01b5f52603260045260245ffd5b60175481101561067b5760175f5260205f209060021b01905f90565b61064b565b3461001557602036600319011261001557600435601754811015610015576106a960809161065f565b5080549060018101549060ff6003600283015492015416916040519384526020840152604083015215156060820152f35b6060906003190112610015576004356106f28161057e565b906024359060443590565b346100155761070b366106da565b600654919290916001600160a01b0316806108b057506005546001600160a01b03165b6001600160a01b031633036108a157610745613b88565b6001600160a01b038116918215610892578015610883576107a86107b7916107a35f516020615e765f395f51905f529661079560405193849263c791063b60e01b60208501528860248501612cfc565b03601f198101835282611295565b613ba8565b60208082518301019101612d1a565b9390916108356107c682613c32565b916107d083613d44565b6108276107dc84610d5e565b54156107f16107e9612d30565b8a8988613da6565b8661087c5788905b60135460145492909115610860576108119087613ded565b6003546001600160a01b0316613e22565b613e22565b61083085610ff5565b610f6f565b546040516001600160a01b039092169582916108519183612d44565b0390a461085e6001600455565b005b8061086c575b50610811565b6108769087613dc6565b5f610866565b5f906107f9565b63201165f360e21b5f5260045ffd5b63a9b8048960e01b5f5260045ffd5b6396f47d2360e01b5f5260045ffd5b61072e565b6040906003190112610015576004356108cd8161057e565b906024356108da8161057e565b90565b34610015576108eb366108b5565b6006546001600160a01b03168061094457506005546001600160a01b03165b6001600160a01b031633036108a15761093f61085e926107956040519384926302841ba760e21b602085015260248401612d55565b613bd5565b61090a565b6060602091604081019381526040838201528451809452019201905f5b8181106109735750505090565b909192602060a06001926080875180518352848101518584015260408101516040840152606081015160608401520151151560808201520194019101919091610966565b34610015576020366003190112610015576109e46109df6004356109da8161057e565b613ed5565b612e53565b906109f460405192839283610949565b0390f35b3461001557604036600319011261001557600435610a158161057e565b600654602435906001600160a01b031680610a5057506005546001600160a01b03165b6001600160a01b031633036108a15761085e91613fdc565b610a38565b3461001557602036600319011261001557600435610a716140ec565b7ff316e065e93b4fddef3d2d93a57817985081f76ea9e0ca7417ed5b4b086b1fcb6020601854604051908152a1601855005b805180835260209291819084018484015e5f828201840152601f01601f1916010190565b9060206108da928181520190610aa3565b3461001557602036600319011261001557610af1614150565b6040516001600160601b03193060601b1660208201526014815290610b17603483611295565b610b1f6141e2565b91610b28614210565b925f5b60148110610b79576040516109f490610b6d81610795610b588a610b52602085018c612d80565b90612d80565b683db4b23e973539b7b760b91b815260090190565b60405191829182610ac7565b80610bc1610b98610bbb610bb5610bac610ba6610b986001988b614232565b516001600160f81b03191690565b60f81c90565b60041c600f1690565b60ff1690565b85614232565b610bd7610bcd83612fd1565b915f1a9188614232565b53610bfa610b98610bbb600f610bf3610ba6610b98878b614232565b1660ff1690565b610c0e610bcd610c0984612fd1565b613a4a565b5301610b2b565b606090600319011261001557600435610c2d8161057e565b90602435906044356108da8161057e565b3461001557610c4c36610c15565b6006549091906001600160a01b031680610c9557506005546001600160a01b03165b6001600160a01b031633036108a157610c8e92610c89613b88565b614243565b6001600455005b610c6e565b3461001557604036600319011261001557600435610cb78161057e565b600654602435906001600160a01b031680610cf257506005546001600160a01b03165b6001600160a01b031633036108a15761085e916142e0565b610cda565b34610015575f36600319011261001557602060405160068152f35b6001600160a01b0316600452602490565b6001600160a01b03909116815260200190565b34610015575f366003190112610015576005546040516001600160a01b039091168152602090f35b6001600160a01b03165f908152600f6020526040902090565b6001600160a01b03165f9081527fbc488d3e2575f0f2113dc4d9a0cd6bc52445c6bc28a8974ed97a6ba3ecfd657b6020526040902090565b6001600160a01b03165f9081527fbc488d3e2575f0f2113dc4d9a0cd6bc52445c6bc28a8974ed97a6ba3ecfd65816020526040902090565b6001600160a01b03165f9081527fbe5c2328713858b26c97b83c5ace333ac35b55572be4794180ba426b12cc48be6020526040902090565b6001600160a01b03165f9081527fbe5c2328713858b26c97b83c5ace333ac35b55572be4794180ba426b12cc48bf6020526040902090565b6001600160a01b03165f9081527fbe5c2328713858b26c97b83c5ace333ac35b55572be4794180ba426b12cc48c26020526040902090565b6001600160a01b03165f9081527fbe5c2328713858b26c97b83c5ace333ac35b55572be4794180ba426b12cc48c36020526040902090565b6001600160a01b03165f9081527fbe5c2328713858b26c97b83c5ace333ac35b55572be4794180ba426b12cc48c06020526040902090565b6001600160a01b03165f9081527fbe5c2328713858b26c97b83c5ace333ac35b55572be4794180ba426b12cc48c16020526040902090565b6001600160a01b03165f9081527fbe5c2328713858b26c97b83c5ace333ac35b55572be4794180ba426b12cc48c46020526040902090565b9060018060a01b03165f5260205260405f2090565b805482101561067b575f5260205f2001905f90565b3461001557604036600319011261001557600435610fb68161057e565b6001600160a01b03165f908152600e602052604090208054602435919082101561001557602091610fe691610f84565b90549060031b1c604051908152f35b5f527fe5fcefe92466b78c655fa732b80b16e07a00f2a897e833e17d9914703cad563360205260405f2090565b5f527fcb1a422c9916903f224af4db9a3bf1529921bf95ff7b75d7d9ed9073a48394ac60205260405f2090565b34610015576020366003190112610015576004355f52600b602052602060405f2054604051908152f35b34610015575f3660031901126100155760205f516020615f365f395f51905f5254604051908152f35b34610015576040366003190112610015576024356004356110c28261057e565b6006546001600160a01b03168061115a57506005546001600160a01b03165b6001600160a01b031633036108a1575f806110fa61438d565b93604051602081019163071e438960e21b835285602483015260018060a01b031660448201526044815261112f606482611295565b5190855af461113c612d92565b501561114b5761085e9161473d565b6363bc5ecb60e11b5f5260045ffd5b6110e1565b34610015576020366003190112610015576004355f526011602052602060405f2054604051908152f35b3461001557602036600319011261001557602060ff6111b26004356111ad8161057e565b610d77565b54166040519015158152f35b34610015576111cc366108b5565b6006546001600160a01b03168061122057506005546001600160a01b03165b6001600160a01b031633036108a15761093f61085e92610795604051938492630ed647d960e11b602085015260248401612d55565b6111eb565b34610015576020366003190112610015576109e46004356109df8161057e565b634e487b7160e01b5f52604160045260245ffd5b61010081019081106001600160401b0382111761127557604052565b611245565b608081019081106001600160401b0382111761127557604052565b601f909101601f19168101906001600160401b0382119082101761127557604052565b604051906112c760a083611295565b565b6001600160401b0381116112755760051b60200190565b9080601f830112156100155781356112f7816112c9565b926113056040519485611295565b81845260208085019260051b82010192831161001557602001905b82821061132d5750505090565b8135815260209182019101611320565b6001600160401b03811161127557601f01601f191660200190565b9291926113648261133d565b916113726040519384611295565b829481845281830111610015578281602093845f960137010152565b9080601f83011215610015578160206108da93359101611358565b346100155760a0366003190112610015576004356113c68161057e565b602435906113d38261057e565b6044356001600160401b038111610015576113f29036906004016112e0565b6064356001600160401b038111610015576114119036906004016112e0565b608435939091906001600160401b0385116100155761143761085e95369060040161138e565b93612f54565b34610015576020366003190112610015576004356001600160401b03811161001557366023820112156100155760048101356001600160401b038111610015573660248260071b8401011161001557602461085e92016130df565b34610015576020366003190112610015576004355f527ffed699897f2561c8a98f833aa3de83c4904370d413fe5fb15abe26e9f8150b30602052602060405f2054604051908152f35b3461001557604036600319011261001557610c8e6004356115018161057e565b60243561150c613b88565b6115146140ec565b610811601354916014549361481e565b34610015576040366003190112610015576004356115418161057e565b6024356006546001600160a01b03168061166a57506005546001600160a01b03165b6001600160a01b031633036108a15761157a613b88565b9081906001600160a01b038116156108925761159590613c32565b5f808052602052906115b4825f516020615f565f395f51905f52610f6f565b54908115610883575f1914611662575b808311611628575081156108835761161b81611601847fcfaedf921126ed75cd0b52e9418d816572c256b67104e03066bd3f067f2d53c094614845565b6040519384526001600160a01b0316929081906020820190565b0390a261085e6001600455565b60405163406e3ab960e01b81526001600160a01b0390921660048301525f60248301526044820152606481019190915280608481015b0390fd5b9150816115c4565b611563565b346100155761167d366106da565b6006549091906001600160a01b0316806116dc57506005546001600160a01b03165b6001600160a01b031633036108a1576116b6613b88565b6001600160a01b03831615610892578115610883576116d7610c8e93613c32565b61495e565b61169f565b34610015576116ef36610c15565b600654919290916001600160a01b0316806117f757506005546001600160a01b03165b6001600160a01b031633036108a157611729613b88565b6001600160a01b0381161580156117e6575b6108925782156108835761175f61175b61175484610d77565b5460ff1690565b1590565b61114b575f516020615eb65f395f51905f52916116016117a761161b936117a1604051631deff10f60e11b602082015261093f816107958b896024840161317c565b50613c32565b916117b56013549060145490565b916117c86117c1612d30565b8987613d81565b6117d28882613fdc565b6117dc88866149db565b6108228886613dc6565b506001600160a01b0382161561173b565b611712565b3461001557602036600319011261001557602060043561181b8161057e565b6001600160a01b039061182d90610daf565b5416604051908152f35b34610015575f366003190112610015576020600754604051908152f35b90602080835192838152019201905f5b8181106118715750505090565b8251845260209384019390920191600101611864565b9060206108da928181520190611854565b34610015576040366003190112610015576004356001600160401b0381116100155736602382011215610015578060040135906118d4826112c9565b916118e26040519384611295565b8083526024602084019160051b8301019136831161001557602401905b82821061193f57836024356001600160401b038111610015576109f49161192d6119339236906004016112e0565b906131c9565b60405191829182611887565b60208091833561194e8161057e565b8152019101906118ff565b34610015575f366003190112610015576020601554604051908152f35b34610015576020366003190112610015576004355f526012602052602060405f2054604051908152f35b34610015575f36600319011261001557602060405160648152f35b34610015576040366003190112610015576004356119d88161057e565b602435906119e4613b88565b6119ec6140ec565b6001600160a01b038116156108925781156108835761161b611a1b5f516020615eb65f395f51905f5292613c32565b61160160135460145490611a40604051611a36602082611295565b5f81528886613d81565b611a4a87856149db565b6108118785613dc6565b604435906001600160401b038216820361001557565b959260c09592989794919860e08801998852602088015260408701526060860152608085015260a08401521515910152565b34610015576020366003190112610015576004356001600160401b0381168103610015576001600160401b03165f9081527f348bae4e1f5cd16c7acea618682eb9de87b5f8161d5b94b9b5591b7620ae71a26020526040902080546109f4600183015492600281015490600381015460048201549060ff60066005850154940154169360405197889788611a6a565b3461001557611b39366106da565b600654919290916001600160a01b031680611c3057506005546001600160a01b03165b6001600160a01b031633036108a157611b73613b88565b6001600160a01b038116918215610892578015610883576107a8611bc3916107a35f516020615e765f395f51905f5296610795604051938492634404589760e01b60208501528860248501612cfc565b939091610835611bd282613c32565b91611be6611bde612d30565b888786613da6565b84611c2a57865b80611bfd575b5061083085610ff5565b610811611c2491611c116013549060145490565b929091611c1e81896149db565b87613dc6565b5f611bf3565b5f611bed565b611b5c565b3461001557602036600319011261001557600435611c528161057e565b60018060a01b03165f52600f602052602060405f2054604051908152f35b346100155760203660031901126100155760206105c2600435611c928161057e565b610de7565b346100155760203660031901126100155760206105c2600435611cb98161057e565b610e1f565b3461001557611ccc366106da565b90611cd5613b88565b6116b66140ec565b34610015575f36600319011261001557611cf5614a02565b600380546001600160a01b031981169091555f906001600160a01b03165f516020615ef65f395f51905f528280a3005b906040600319830112610015576004356001600160401b0381116100155782602382011215610015576004810135926001600160401b03841161001557602484830101116100155760240191906024356108da8161057e565b3461001557611d8c36611d25565b6006549091906001600160a01b031680611dc657506005546001600160a01b03165b6001600160a01b031633036108a15761085e92613258565b611dae565b3461001557611dd936611d25565b6006549192916001600160a01b031680611f0057506005546001600160a01b03165b6001600160a01b031633036108a157611e12613b88565b6001600160a01b0381161561089257611e61611e525f94611e4d8695610795604051938492633aa2954160e11b60208501526024840161350b565b613be2565b60208082518301019101613562565b611e6c92919261438d565b928115158514611ec757611e9b90610795604051938492602084019663d8bdbdf560e01b8852602485016135c2565b51915af4611ea7612d92565b505b15611eb85761085e6001600455565b63fb713d2b60e01b5f5260045ffd5b6107959150611eee906040519283916020830195630b18ae1d60e11b875260248401613592565b51915af4611efa612d92565b50611ea9565b611dfb565b3461001557602036600319011261001557600435611f228161057e565b60018060a01b03165f526009602052602060ff60405f2054166040519015158152f35b346100155760a036600319011261001557600435611f62816105cb565b60243590611f6f8261057e565b604435906064356084356006549091906001600160a01b03168061203757506005546001600160a01b03165b6001600160a01b031633036108a15761200793611fb661438d565b6040516382b720c960e01b60208201526001600160e01b031990951660248601526001600160a01b0390961660448501526064840152608483015260a480830191909152815261093f60c482611295565b906020828051810103126100155761202760206109f4930151809261473d565b6040519081529081906020820190565b611f9b565b34610015576020366003190112610015576004356120586140ec565b801561208f576020817fd45b01a2f21a7aa8a0f57023efdce73147de071e77875c3f4d486b1e13eaef7092600755604051908152a1005b6376024b7160e01b5f5260045ffd5b8015150361001557565b34610015576020366003190112610015577fc52867146282c253c04e94eb2a948478a1f7ef84cf2d6f5864facc99f2203f2c60206004356120e88161209e565b6120f06140ec565b151560ff19600a541660ff821617600a55604051908152a1005b34610015576020366003190112610015576004356121278161057e565b6006546001600160a01b03168061218a57506005546001600160a01b03165b6001600160a01b031633036108a157604051638a1b32bb60e01b60208201526001600160a01b03909116602480830191909152815261085e9061093f604482611295565b612146565b34610015575f366003190112610015576003546040516001600160a01b039091168152602090f35b346100155760203660031901126100155760206121d56004356135fa565b6040519015158152f35b34610015576020366003190112610015576004356121fc8161057e565b60018060a01b03165f526010602052602060405f2054604051908152f35b34610015575f366003190112610015576006546040516001600160a01b039091168152602090f35b346100155760203660031901126100155760043560ff61226133610d77565b54161561114b5761227061438d565b905f806040516020810190634c4a8dab60e11b82528460248201526024815261229a604482611295565b5190855af46122a7612d92565b5015611eb85761085e9161473d565b346100155760203660031901126100155760206105c26004356122d88161057e565b610e57565b34610015575f366003190112610015576020600854604051908152f35b34610015575f366003190112610015576109f4612315614150565b604051918291602083526020830190610aa3565b81516001600160401b039081168252602080840151909116908201526040808301516001600160801b039081169183019190915260608084015190911690820152610100810192916112c7919060e090819060808181015115159085015260a08181015160ff169085015260c08181015160ff169085015201516001600160801b0316910152565b34610015576020366003190112610015576004355f60e06040516123d481611259565b8281528260208201528260408201528260608201528260808201528260a08201528260c082015201525f527fe5fcefe92466b78c655fa732b80b16e07a00f2a897e833e17d9914703cad56326020526109f460405f206124de6124ce60026040519361243f85611259565b80546001600160401b038082168752604082901c1660208701526124709060801c6001600160801b03166040870152565b60018101546001600160801b03811660608701526124c0906124b6906124a0608082901c60ff16151560808a0152565b60ff608882901c1660a089015260901c60ff1690565b60ff1660c0870152565b01546001600160801b031690565b6001600160801b031660e0830152565b60405191829182612329565b6040906003190112610015576004356125028161057e565b906024356108da8161209e565b346100155761251d366124ea565b6001600160a01b03821691821561257c578161254761254c92335f52600160205260405f20610f6f565b613066565b60405190151581527f17307eab39ab6107e8899845ad3d59bd9653f200f220920489ca2b5937696c3160203392a3005b62ced3e160e81b5f525f60045260245ffd5b34610015576040366003190112610015576004356001600160401b0381116100155736602382011215610015576004810135906001600160401b038211610015573660248360051b830101116100155761085e9160248035926125f08461057e565b016136b4565b34610015575f366003190112610015576020601854604051908152f35b34610015575f36600319011261001557602060405164174876e8008152f35b34610015575f366003190112610015576020601354604051908152f35b346100155760203660031901126100155760206105c26004356126718161057e565b610e8f565b34610015576040366003190112610015576004356126938161057e565b60065460243591906001600160a01b0316806126e457506005546001600160a01b03165b6001600160a01b031633036108a157610c8e916126d2613b88565b6003546001600160a01b031691614243565b6126b7565b346100155760203660031901126100155760206105c260043561270b8161057e565b610ec7565b34610015576020366003190112610015576004355f525f516020615ed65f395f51905f52602052602060405f2054604051908152f35b34610015575f3660031901126100155760206040515f8152f35b60ff81160361001557565b346100155760603660031901126100155760043561278881612760565b60243590600160ff612798611a54565b92160361280e576127d2915f527f348bae4e1f5cd16c7acea618682eb9de87b5f8161d5b94b9b5591b7620ae71a360205260405f20613243565b80546109f460018301549260028101549060038101546004820154906128016006600585015494015460ff1690565b9360405197889788611a6a565b612841915f527f348bae4e1f5cd16c7acea618682eb9de87b5f8161d5b94b9b5591b7620ae71a460205260405f20613243565b6127d2565b34610015576020366003190112610015576004355f52600c602052602060405f2054604051908152f35b346100155760203660031901126100155760206105c26004356128928161057e565b610eff565b34610015576020366003190112610015576004356128b36140ec565b7f1c8121c98d871a1523a6112e29ac660378afbcb9b921cff8f187c3da35d17081816008546128e760405192839283612d44565b0390a1600855005b34610015575f36600319011261001557602060ff600a54166040519015158152f35b34610015575f366003190112610015576040517f00000000000000000000000000000000000000000000000000000000000000006001600160a01b03168152602090f35b34610015576020366003190112610015576004355f526016602052602060405f2054604051908152f35b34610015576080366003190112610015576044356004356064356024356129a58261209e565b6129ad6140ec565b8215612a815760175491604051946129c48661127a565b8486526020860192808452604087019382855260608801978415158952600160401b87101561127557600187016017556129fd8761065f565b919091612a7c577fb08290a3275552d4032ce96418c8bc739fd6be2860fe5897558f5c0af90e91fb99612a7797612a4a946003935185555160018501555160028401555115159101613066565b6040519586958693909594919260809360a086019786526020860152604085015260608401521515910152565b0390a1005b612fec565b639033099360e01b5f5260045ffd5b346100155761085e612aa1366124ea565b90612aaa6140ec565b6001600160a01b03165f908152600960205260409020613066565b34610015575f3660031901126100155760ff60065460a01c166040516009821015612af1576020918152f35b634e487b7160e01b5f52602160045260245ffd5b3461001557602060ff6111b2612b1a366108b5565b6001600160a01b039091165f9081526001855260409020610f6f565b346100155760a036600319011261001557600435612b538161057e565b602435612b5f8161057e565b60443590606435926084356001600160401b03811161001557612b8690369060040161138e565b926001600160a01b0382163381141580612c03575b612bed576001600160a01b03841615612bda5715612bc85761085e94612bc091614cf5565b929091614ea3565b626a0d4560e21b5f525f60045260245ffd5b632bfa23e760e11b5f525f60045260245ffd5b63711bec9160e11b5f523360045260245260445ffd5b50805f52600160205260ff612c1b3360405f20610f6f565b541615612b9b565b3461001557602036600319011261001557600435612c408161057e565b612c48614a02565b6001600160a01b03168015612c8757600380546001600160a01b0319811683179091556001600160a01b03165f516020615ef65f395f51905f525f80a3005b631e4fbdf760e01b5f525f60045260245ffd5b34610015576020366003190112610015576004355f52600d602052602060405f2054604051908152f35b34610015575f366003190112610015576020601454604051908152f35b34610015575f366003190112610015576020604051600c8152f35b604091949392606082019560018060a01b0316825260208201520152565b9190826040910312610015576020825192015190565b60405190612d3f602083611295565b5f8252565b908152602081019190915260400190565b6001600160a01b0391821681529116602082015260400190565b5f516020615f365f395f51905f5255565b805191908290602001825e015f815290565b3d15612dbc573d90612da38261133d565b91612db16040519384611295565b82523d5f602084013e565b606090565b90612dcb826112c9565b612dd86040519182611295565b8281528092612de9601f19916112c9565b015f5b818110612df857505050565b60405160a0810191906001600160401b03831181841017611275576020926040525f81525f838201525f60408201525f60608201525f608082015282828601015201612dec565b805182101561067b5760209160051b010190565b6001600160a01b0381165f908152600e60205260409020909190918254612e7981612dc1565b935f5b828110612ea95750505f80805260205250612ea4905f516020615f565f395f51905f52610f6f565b549190565b80612ec3612eb960019385610f84565b90549060031b1c90565b612f2d612ed8825f52600b60205260405f2090565b548015159081612f49575b612ef5845f52600c60205260405f2090565b54612f08855f52600d60205260405f2090565b5490612f126112b8565b95865260208601526040850152606084015215156080830152565b612f378289612e3f565b52612f428188612e3f565b5001612e7c565b809150421190612ee3565b939291906001600160a01b0385163381141580612f8d575b612bed576001600160a01b03821615612bda5715612bc8576112c794614ea3565b50805f52600160205260ff612fa53360405f20610f6f565b541615612f6c565b919081101561067b5760071b0190565b634e487b7160e01b5f52601160045260245ffd5b908160011b9180830460021490151715612fe757565b612fbd565b634e487b7160e01b5f525f60045260245ffd5b6017545f6017558061300e5750565b600281901b906001600160fe1b03811603612fe75760175f5260205f205f5b82811061303957505050565b805f6003600493850182815582600182015582600282015501550161302d565b805460ff19166001179055565b9060ff801983541691151516179055565b601754600160401b811015611275576001810160175560175481101561067b5760175f5260021b5f516020615f165f395f51905f5201600360606112c7938035845560208101356001850155604081013560028501550135916130d98361209e565b01613066565b6130e76140ec565b811561316d575f5b82811061315457506130ff612fff565b5f5b8281106131385750506040519081527f2f291eaf494dc7eca20457441a1df7d9119f0c0d764309daf9cb6b148810ee3690602090a1565b8061314e6131496001938686612fad565b613077565b01613101565b61315f818484612fad565b3515612a81576001016130ef565b6308ba5b6160e01b5f5260045ffd5b6001600160a01b039091168152602081019190915260400190565b906131a1826112c9565b6131ae6040519182611295565b82815280926131bf601f19916112c9565b0190602036910137565b9190918051835180820361322e5750506131e38151613197565b905f5b8151811015613227578061321560019260051b602080828701015191890101515f525f60205260405f20610f6f565b546132208286612e3f565b52016131e6565b5090925050565b635b05999160e01b5f5260045260245260445ffd5b9060018060401b03165f5260205260405f2090565b9092613262613b88565b6001600160a01b03831615610892576132ad61327e8584614a52565b94611e4d61328c8286614ace565b946107958760405194859363fd44e85560e01b602086015260248501614a29565b936132c160208651870101602087016139f8565b94929691509687518551036134ce57506132da90613c32565b906132e482613d44565b6132ed82610d5e565b54155f955f975f5b8a5181101561333a57613308818c612e3f565b5115613317575b6001016132f5565b98509661332f906133288a89612e3f565b5190613a58565b60019890979061330f565b509091929497969396156134c6575b5081806134bb575b613493575b8280613444575b50505f5b87518110156133ea576133748186612e3f565b5190811561088357600191613389828b612e3f565b51156133e45764174876e80061339f838c612e3f565b51106133c0576133ba906133b3838c612e3f565b518961495e565b01613361565b6133df906133ce838c612e3f565b51906133d8612d30565b918a613da6565b6133ba565b506133ba565b5091955061341f9490939192506001600160a01b0381161561343257905b601354601454949093156134295761082291613ded565b6112c76001600455565b61082291613dc6565b5061343e600354610572565b90613408565b6134789161345a613453612d30565b838a613d81565b6001600160a01b0389161561347f57613473828a613fdc565b614baf565b5f8261335d565b6134738261348e600354610572565b613fdc565b6134a361349e614b44565b61065f565b50548310156133565763559d06d760e01b5f5260045ffd5b506017541515613351565b92505f613349565b60405163dccff66960e01b815290819061165e9060048301610ac7565b908060209392818452848401375f828201840152601f01601f1916010190565b9160206108da9381815201916134eb565b81601f82011215610015578051906135338261133d565b926135416040519485611295565b8284526020838301011161001557815f9260208093018386015e8301015290565b91906040838203126100155782516001600160401b0381116100155760209161358c91850161351c565b92015190565b6001600160a01b03909116815260016020820181905260408201526080606082018190526108da92910190610aa3565b9392916135f59060809260018060a01b03168652600160208701526001604087015260a0606087015260a0860190610aa3565b930152565b64174876e80081106136a5575f9081527ffed699897f2561c8a98f833aa3de83c4904370d413fe5fb15abe26e9f8150b2a60209081526040808320547ffed699897f2561c8a98f833aa3de83c4904370d413fe5fb15abe26e9f8150b2b909252909120546001600160401b03908116911680151590816136aa575b506136a5576001600160401b0316801515908161369b575b5061369757600190565b5f90565b905042115f61368d565b505f90565b905042105f613675565b600654919390916001600160a01b0316806138bb57506005546001600160a01b03165b6001600160a01b031633036108a1576136ee613b88565b6001600160a01b03831615610892578315611eb85761375161371961371386856138c0565b90614a52565b94611e4d61373061372a83876138c0565b90614ace565b946107958760405194859363bca0e27d60e01b6020860152602485016138fa565b9361376560208651870101602087016139f8565b94929691509687518551036134ce575061377e90613c32565b9061378882613d44565b61379182610d5e565b54155f955f975f5b8a518110156137d7576137ac818c612e3f565b51156137bb575b600101613799565b9850966137cc906133288a89612e3f565b6001989097906137b3565b509091929497969396156138b3575b5081806138a8575b613885575b828061386f575b50505f5b87518110156133ea576138118186612e3f565b5190811561088357600191613826828b612e3f565b51156138695764174876e80061383c838c612e3f565b511061385657613850906133b3838c612e3f565b016137fe565b613864906133ce838c612e3f565b613850565b50613850565b61387e9161345a613453612d30565b5f826137fa565b61389061349e614b44565b50548310156137f35763559d06d760e01b5f5260045ffd5b5060175415156137ee565b92505f6137e6565b6136d7565b901561067b57803590601e19813603018212156100155701803591906001600160401b038311610015576020018236038113610015579190565b93929190816040860160408752526060850160608360051b87010192825f90601e19813603015b838310613944575050505050509060206112c79294019060018060a01b03169052565b909192939495605f198a8203018652863582811215610015578301602081019190356001600160401b0381116100155780360383136100155761398d60209283926001956134eb565b980196019493019190613921565b9080601f830112156100155781516139b2816112c9565b926139c06040519485611295565b81845260208085019260051b82010192831161001557602001905b8282106139e85750505090565b81518152602091820191016139db565b9060808282031261001557815192602083015192604081015160018060401b0381116100155783613a2a91830161399b565b60608201519093906001600160401b038111610015576108da920161399b565b9060018201809211612fe757565b91908201809211612fe757565b9081602091031261001557516108da81612760565b6040513d5f823e3d90fd5b613a8d614c27565b60405163426dc88f60e01b81526001600160e01b03195f351660048201526020816024816001600160a01b0386165afa908115613b83575f91613b54575b5060ff1660fd198101613af757505f80915b368280378136915af43d90815f803e15613af4575ff35b5ffd5b905080613b0e57505f80613b09614503565b613add565b60038103613b2157505f80613b0961438d565b60018103613b3457505f80613b09614491565b600203613b45575f80613b0961441f565b633655084960e01b5f5260045ffd5b613b76915060203d602011613b7c575b613b6e8183611295565b810190613a65565b5f613acb565b503d613b64565b613a7a565b600260045414613b99576002600455565b633ee5aeb560e01b5f5260045ffd5b5f8091613bb56001614574565b602082519201905af490613bc7612d92565b9115613bcf57565b50614cc3565b5f8091613bb56003614574565b5f8091613bb582614574565b5f8091613bb56004614574565b5f8091613bb56002614574565b9081602091031261001557516108da8161057e565b9081602091031261001557516108da8161209e565b60046020613c4c613c47613c47600554610572565b610572565b604051630e83251360e01b815292839182905afa908115613b83575f91613d15575b506001600160a01b03168015613d0657602060405180926303330c7960e41b82528180613c9e8760048301610d23565b03915afa908115613b83575f91613cd7575b50613cbe576108da90613ed5565b803b15613cc85790565b632ad05f3360e11b5f5260045ffd5b613cf9915060203d602011613cff575b613cf18183611295565b810190613c1d565b5f613cb0565b503d613ce7565b63ab82bb9960e01b5f5260045ffd5b613d37915060203d602011613d3d575b613d2f8183611295565b810190613c08565b5f613c6e565b503d613d25565b60405163e6a84c7760e01b60208201526001600160a01b039091166024808301919091528152613d7e90613d79604482611295565b613bee565b50565b9091906001600160a01b03811615612bda57613da06112c7935f614cf5565b91614d1a565b919291906001600160a01b03821615612bda576112c793613da091614cf5565b90613d79613d7e9261079560405193849263a55d613f60e01b60208501526024840161317c565b90613d79613d7e9261079560405193849263179953bf60e11b60208501526024840161317c565b5f198114612fe75760010190565b601354828103949392818611612fe757601454938403938411612fe7576001600160a01b03831615918215613ebd575b5050613eb757925f935b6001600160a01b038116151580613ead575b15613ea657613e9a613e8d82613e888686613ea096615094565b610daf565b546001600160a01b031690565b94613e14565b93613e5c565b5050509050565b5060408510613e6e565b50509050565b14905080613ecd575b5f80613e52565b508115613ec6565b60046020613eea613c47613c47600554610572565b60405163fb3894d360e01b815292839182905afa908115613b83575f91613fbd575b506001600160a01b038116918215613d0657602060405180946308a8c59960e01b82528180613f3e8660048301610d23565b03915afa928315613b83575f93613f9c575b506001600160a01b038316158015613f93575b613f6c57505090565b63ad12d34160e01b5f526001600160a01b039081166004529081166024521660445260645ffd5b50823b15613f63565b613fb691935060203d602011613d3d57613d2f8183611295565b915f613f50565b613fd6915060203d602011613d3d57613d2f8183611295565b5f613f0c565b906001600160a01b0382161580156140e4575b6140e057613ffc82610de7565b805492828401809411612fe7576008936140169255610f37565b610e1042045f5260205260405f20906009820161403761175b825460ff1690565b6140d1575b506140485f8354613a58565b825561405960018301918254613a58565b90556002810161406a5f8254613a58565b90556003810161407b5f8254613a58565b90556004810161408c5f8254613a58565b90556005810161409d5f8254613a58565b9055600681016140ae5f8254613a58565b9055600781016140bf5f8254613a58565b9055016140cd5f8254613a58565b9055565b6140da90613059565b5f61403c565b5050565b508015613fef565b6006546001600160a01b03168061414b57506005546001600160a01b03165b6003546001600160a01b03163314159081614137575b5061412857565b630fc5e1ab60e41b5f5260045ffd5b6001600160a01b031633141590505f614121565b61410b565b6005546001600160a01b031680158181156141d8575b50613d06575f60049160405192838092634f9e8d1560e11b82525afa908115613b83575f9161419b575b50805115613d065790565b90503d805f833e6141ac8183611295565b81016020828203126100155781516001600160401b038111610015576141d2920161351c565b5f614190565b90503b155f614166565b604051906141f1604083611295565b601082526f181899199a1a9b1b9c1cb0b131b232b360811b6020830152565b604051606091906142218382611295565b6028815291601f1901366020840137565b90815181101561067b570160200190565b90916001600160a01b03821691908215610892576001600160a01b03811615610892578315610883576142ca6142997f6ac4f60455173f2148d89d52868ac4ffb14111720d245aa36ad26e0d7e64c59b93613c32565b91601354601454916142ac6117c1612d30565b6142b688866149db565b6142c08886613dc6565b6108228882615192565b6040519384526001600160a01b031692602090a3565b906001600160a01b038216158015614385575b6140e05761430082610e1f565b805492828401809411612fe7576008936143309255614323610e10420491610f37565b905f5260205260405f2090565b906009820161434361175b825460ff1690565b614376575b506143545f8354613a58565b8255600182016143655f8254613a58565b905561406a60028301918254613a58565b61437f90613059565b5f614348565b5080156142f3565b614398600554610572565b6001600160a01b038116908115908115614415575b50613d0657602060049160405192838092632502c7e760e11b82525afa908115613b83575f916143f6575b506001600160a01b0381166108da5763a9d04f8760e01b5f5260045ffd5b61440f915060203d602011613d3d57613d2f8183611295565b5f6143d8565b90503b155f6143ad565b61442a600554610572565b6001600160a01b038116908115908115614487575b50613d0657602060049160405192838092632b5e757b60e11b82525afa908115613b83575f916143f657506001600160a01b0381166108da5763a9d04f8760e01b5f5260045ffd5b90503b155f61443f565b61449c600554610572565b6001600160a01b0381169081159081156144f9575b50613d0657602060049160405192838092635ee738d560e11b82525afa908115613b83575f916143f657506001600160a01b0381166108da5763a9d04f8760e01b5f5260045ffd5b90503b155f6144b1565b61450e600554610572565b6001600160a01b03811690811590811561456a575b50613d0657602060049160405192838092620c3c5d60e81b82525afa908115613b83575f916143f657506001600160a01b0381166108da5763a9d04f8760e01b5f5260045ffd5b90503b155f614523565b61457f600554610572565b6001600160a01b038116919082159081156146fa575b50613d0657602060ff600492169283155f1461462657604051620c3c5d60e81b815292839182905afa908115613b83575f91614607575b505b6001600160a01b03811661460257600482146145f35763a9d04f8760e01b5f5260045ffd5b632dc6cc2360e01b5f5260045ffd5b905090565b614620915060203d602011613d3d57613d2f8183611295565b5f6145cc565b6001840361467557604051635ee738d560e11b815292839182905afa908115613b83575f91614656575b506145ce565b61466f915060203d602011613d3d57613d2f8183611295565b5f614650565b600284036146a457604051632b5e757b60e11b815292839182905afa908115613b83575f9161465657506145ce565b600384036146d357604051632502c7e760e11b815292839182905afa908115613b83575f9161465657506145ce565b6040516324e1067960e11b815292839182905afa908115613b83575f9161465657506145ce565b90503b155f614595565b908160a091031261001557805161471a816105cb565b9160208201516147298161057e565b916040810151916080606083015192015190565b9061476f815f527fbc488d3e2575f0f2113dc4d9a0cd6bc52445c6bc28a8974ed97a6ba3ecfd657d60205260405f2090565b600681015460ff169081156147ef575b506140e0575f9182916040516147af816107956020820194630d61b51960e01b8652602483019190602083019252565b51915af46147bb612d92565b90156147ea576147d7816020806112c794518301019101614704565b509290916001600160a01b0316906151eb565b614cc3565b6005915001547fbc488d3e2575f0f2113dc4d9a0cd6bc52445c6bc28a8974ed97a6ba3ecfd657a54115f61477f565b90613d79613d7e92610795604051938492635bcc7ca960e11b60208501526024840161317c565b906001600160a01b03821615612bc85761485f905f614cf5565b925f60405161486f602082611295565b52614892848361488182825f89615682565b9561488c8751610572565b9061591a565b5f90815b83518310156148e5576001906148ac8488612e3f565b51906148d66148bb8688612e3f565b515f525f516020615ed65f395f51905f5260205260405f2090565b82815403905501920191614896565b915092935061490491505f516020615f365f395f51905f525403612d6f565b5f9160e081019160c060a083019201935b8351811015614957578061495161493f6149326001948751612e3f565b516001600160a01b031690565b61494a838951612e3f565b5190615b8d565b01614915565b5092505050565b60207fae2f87dbf103db294ddd4ab45caa7a914d70bb3d06eeb8a8dc23e03e84548c8d916149ac604051633c2f328b60e11b848201526149a78161079589898760248501612cfc565b613bfb565b506149c86040516149bd8482611295565b5f8152868684613da6565b6040519485526001600160a01b031693a3565b90613d79613d7e9261079560405193849263b932546160e01b60208501526024840161317c565b6003546001600160a01b03163303614a1657565b63118cdaa760e01b5f523360045260245ffd5b91602091614a42919594956040855260408501916134eb565b6001600160a01b03909416910152565b8115614ac857614a63913691611358565b60208151910120805f525f516020615e965f395f51905f5260205260405f2060ff815460a01c16614ab65750614a9890611022565b60ff815416614aa657505f90565b600201546001600160a01b031690565b600401546001600160a01b0316919050565b50505f90565b8115614ac857614adf913691611358565b60208151910120805f525f516020615e965f395f51905f5260205260405f2060ff815460a01c16614b325750614b1490611022565b60ff815416614b2257505f90565b600301546001600160a01b031690565b600501546001600160a01b0316919050565b6017548015614ba9575f906017541561067b5760175f525f516020615f165f395f51905f525460015b828110614b7a5750505090565b81614b848261065f565b505410614b94575b600101614b6d565b809350614ba1915061065f565b505482614b8c565b505f1990565b9091906001600160a01b038116158015614c1f575b614c1a575f905b6001600160a01b038116151580614c10575b15613eb75780614bf085614c0a9361525a565b6001600160a01b0390614c0290610daf565b541691613e14565b90614bcb565b5060408210614bdd565b509050565b508215614bc4565b614c32600554610572565b6001600160a01b03811691908215908115614cb9575b50613d0657602060049260405193848092634e077ded60e11b82525afa918215613b83575f92614c98575b506001600160a01b03821615828115614c8e575b50613d0657565b90503b155f614c87565b614cb291925060203d602011613d3d57613d2f8183611295565b905f614c73565b90503b155f614c48565b80519081614cf05760405163dccff66960e01b81526020600482015290819061165e906024830190610aa3565b602001fd5b9160405192600184526020840152604083019160018352606084015260808301604052565b909193614d298584845f615682565b91614d3f8685614d398651610572565b5f61591a565b5f5b8451811015614d975780614d91614d8c614d5d6001948b612e3f565b51614d6b6148bb858b612e3f565b614d76828254613a58565b90555f516020615f365f395f51905f5254613a58565b612d6f565b01614d41565b509091929360018060a01b038216159586614e3c575b5f969560e086019660c060a088019701985b8851811015614dee5780614de88b61494a83614de16149326001978f51612e3f565b9251612e3f565b01614dbf565b5092955092955092955015614e04575b50505050565b8051600103614e2c5790602080614e2395930151910151915f336154b3565b5f808080614dfe565b614e37935f33615395565b614e23565b9591925f95949195935f945b8651861015614e7c57600190614e5e878b612e3f565b5190614e6d6148bb898b612e3f565b82815403905501950194614e48565b614e9e919498929550969295965f516020615f365f395f51905f525403612d6f565b614dad565b9294919093614eb486838787615682565b93614eca8784614ec48851610572565b8461591a565b6001600160a01b03811615801580615082575b80615068575b615034575b614ff0575b6001600160a01b038616159687614f89575b5f979660e087019760c060a089019801995b8951811015614f3a5780614f348c61494a83614de16149328f9760019851612e3f565b01614f11565b509295985092955092955015614f52575b5050505050565b8451600103614f7857602080614f6e96015192015192336154b3565b5f80808080614f4b565b614f8494919233615395565b614f6e565b969294909591935f945f955b8751871015614fc957600190614fab888c612e3f565b5190614fba6148bb8a8c612e3f565b82815403905501960195614f95565b614feb919498939795999296505f516020615f365f395f51905f525403612d6f565b614eff565b9492905f9492945b85518110156150285780615022614d8c6150146001948c612e3f565b51614d6b6148bb858c612e3f565b01614ff8565b50909294939193614eed565b6150636150446020880151610572565b6150516040890151610572565b60608901519060808a01519286615ad3565b614ee8565b506060860151151580614ee3575060808601511515614ee3565b506001600160a01b0387161515614edd565b6001600160a01b038116158015615181575b61517c576140cd916150b9600892610f37565b610e1042045f5260205260405f2090600982016150da61175b825460ff1690565b61516d575b506150eb5f8354613a58565b8255600182016150fc5f8254613a58565b90556002820161510d5f8254613a58565b90556003820161511e5f8254613a58565b90556004820161512f5f8254613a58565b9055600582016151405f8254613a58565b9055600682016151515f8254613a58565b905561516260078301918254613a58565b905501918254613a58565b61517690613059565b5f6150df565b505050565b50811580156150a6575082156150a6565b9091906001600160a01b0381161580156151e3575b614c1a575f905b6001600160a01b0381161515806151d9575b15613eb75780614bf0856151d393615551565b906151ae565b50604082106151c0565b5082156151a7565b9092906001600160e01b031916630b18ae1d60e11b810361521557632bb82cb360e01b5f5260045ffd5b631cb4772560e21b8103615241575050906112c79160405191615239602084611295565b5f8352613d81565b90915063178fb21b60e11b03611eb8576112c79161481e565b906001600160a01b038216158015615325575b6140e05761527a82610e57565b805492828401809411612fe75760089361529d9255614323610e10420491610f37565b90600982016152b061175b825460ff1690565b615316575b506152c15f8354613a58565b8255600182016152d25f8254613a58565b9055600282016152e35f8254613a58565b9055600382016152f45f8254613a58565b9055600482016153055f8254613a58565b905561409d60058301918254613a58565b61531f90613059565b5f6152b5565b50801561526d565b9081602091031261001557516108da816105cb565b6001600160a01b0391821681529116602082015260a0604082018190526108da949193919261538792916153799190860190611854565b908482036060860152611854565b916080818403910152610aa3565b9091949293853b6153a9575b505050505050565b6020936153cb91604051968795869563bc197c8160e01b875260048701615342565b03815f6001600160a01b0387165af15f9181615449575b5061541357506153f0612d92565b805191908261540c57632bfa23e760e11b5f52613af482610d12565b6020915001fd5b6001600160e01b0319166343e6837f60e01b0161543657505f80808080806153a1565b632bfa23e760e11b5f52613af490610d12565b61546c91925060203d602011615473575b6154648183611295565b81019061532d565b905f6153e2565b503d61545a565b6001600160a01b039182168152911660208201526040810191909152606081019190915260a0608082018190526108da92910190610aa3565b9091949293853b6154c657505050505050565b6020936154e891604051968795869563f23a6e6160e01b87526004870161547a565b03815f6001600160a01b0387165af15f9181615530575b5061550d57506153f0612d92565b6001600160e01b031916630dc5919f60e01b0161543657505f80808080806153a1565b61554a91925060203d602011615473576154648183611295565b905f6154ff565b906001600160a01b03821615801561562d575b6140e05761557182610e8f565b805492828401809411612fe7576008936155949255614323610e10420491610f37565b90600982016155a761175b825460ff1690565b61561e575b506155b85f8354613a58565b8255600182016155c95f8254613a58565b9055600282016155da5f8254613a58565b9055600382016155eb5f8254613a58565b9055600482016155fc5f8254613a58565b90556005820161560d5f8254613a58565b90556140ae60068301918254613a58565b61562790613059565b5f6155ac565b508015615564565b6040519061564282611259565b5f60e083828152826020820152826040820152826060820152826080820152606060a0820152606060c08201520152565b6001600160a01b039091169052565b9291909261568e615635565b936001600160a01b0382161580159390929084806158e2575b85806158d9575b6158ca576156e060406156da8a6156d16156c789615bb4565b9195909301615673565b60208c01615673565b89615673565b6156ea8251613197565b9060a089019182526156fc8351613197565b9260c08a019384525f5b81518110156158bd576157198183612e3f565b516064811015806158af575b61581d571580615816575b61573f575b6001905b01615706565b615749818b612e3f565b516157e5575b600a5460ff16806157ab575b8b81615777575b501561573557639798976560e01b5f5260045ffd5b6157a5915061175461578c61175b9251610572565b6001600160a01b03165f90815260096020526040902090565b8b615762565b505f805260096020526157e061175b7fec8156718a8372b1db44bb411437d0870f3e3790d4a08526d024ce1b0b668f6b611754565b61575b565b60608b016157f38151613a4a565b90526157ff818b612e3f565b5161580f60808d01918251613a58565b905261574f565b5088615730565b90888461589e575b1561588f576001918c906001600160a01b038a161580615888575b61584c575b5050615739565b6158678961586260e08a51950194855190612e3f565b615673565b6158748851835190612e3f565b5261587f8151613e14565b90528b5f615845565b5085615840565b63b8333dc960e01b5f5260045ffd5b506001600160a01b03881615615825565b5064174876e8008110615725565b5050505050505050505090565b630be8c0f160e11b5f5260045ffd5b50833b156156ae565b6001600160a01b038416151595506156a7565b909161590c6108da93604084526040840190611854565b916020818403910152611854565b9392918051835190818103615abe5750505f5b8151811015615a19578060051b90602080838501015192860101518460018060a01b03891661599c575b6001936001600160a01b038216615972575b5050500161592d565b6159929161083061598a925f525f60205260405f2090565b918254613a58565b90555f8481615969565b5090916159b488610830835f525f60205260405f2090565b548281106159e2578291600194938792036159da8b610830845f525f60205260405f2090565b559350615957565b6040516303dee4c560e01b81526001600160a01b038a16600482015260248101919091526044810183905260648101829052608490fd5b508051939493919291600103615a7b576020908101519101516040516001600160a01b03938416949093169233927fc3d58168c5ae7397731d063d5bbf3d657854427343f4c083240f7aacaa2d0f62928291615a76919083612d44565b0390a4565b6040516001600160a01b03938416949093169233927f4a39dc06d4c0dbc64b70af90fd698a233a518aa5d07e595d983b8c0526c8f7fb928291615a7691836158f5565b635b05999160e01b5f5260045260245260445ffd5b615ae1909493929194615c6e565b6001600160a01b0385168015159190859085908480615b7b575b615b3f575b50615b0a92615d15565b80615b2d575b615b1a5750505050565b615b288383614e2396615d93565b615d93565b506001600160a01b0381161515615b10565b6001600160a01b038416908114908115615b68575b50615b60575b5f615b00565b5f9250615b5a565b6001600160a01b0387161490505f615b54565b506001600160a01b0386161515615afb565b90613d79613d7e92610795604051938492637e4152e760e11b60208501526024840161317c565b803b15615c67575f806040516020810190638da5cb5b60e01b825260048152615bde602482611295565b5190845afa615beb612d92565b90158015615c5c575b615c5457613c4781602080615c0e94518301019101613c08565b615c1d61175b61175483610d77565b615c5457615c2d613e8d82610daf565b916001600160a01b03831615615c4b575090615c4881613c32565b92565b925f9250829150565b50905f905f90565b506020815110615bf4565b905f905f90565b615c7a61175433610d77565b615d10576001600160a01b038116158015615d07575b6136a5575f80916040516020810190638da5cb5b60e01b825260048152615cb8602482611295565b51915afa615cc4612d92565b90158015615cfc575b6136a557613c4781602080615ce794518301019101613c08565b615cf361175482610d77565b6108da57505f90565b506020815110615ccd565b50803b15615c90565b503390565b9192916001600160a01b038116158015615d82575b613eb757905f915b6001600160a01b038116151580615d78575b15613ea65780615d588684615d7294615d93565b6001600160a01b0390615d6a90610daf565b541692613e14565b91615d32565b5060408310615d44565b5081158015615d2a57508315615d2a565b916001600160a01b038316158015615e64575b61517c57615db383610ec7565b805490838201809211612fe75755615dca83610eff565b805493828501809511612fe757600894615ded9255614323610e10420491610f37565b9160098301615e0061175b825460ff1690565b615e55575b50615e115f8454613a58565b835560018301615e225f8254613a58565b905560028301615e335f8254613a58565b9055615e4460038401918254613a58565b905561408c60048301918254613a58565b615e5e90613059565b5f615e05565b5081158015615da657508015615da656fe3bf2de114e2e7636c289f21be023528e47d89b45e873b976c78989c3ddc683f5cb1a422c9916903f224af4db9a3bf1529921bf95ff7b75d7d9ed9073a48394ab3e38a9410c08ddb4af8b083bfd2b197b1c3e61a651bd1c54c51ebce0cdcdc48ed34312c2e21f45f2b6715cf87d9e919b2098c835582e2b5c6e716490b0dfd0d48be0079c531659141344cd1fd0a4f28419497f9722a3daafe3b4186f6b6457e0c624b66cc0138b8fabc209247f72d758e1cf3343756d543badbf24212bed8c15d34312c2e21f45f2b6715cf87d9e919b2098c835582e2b5c6e716490b0dfd0d5ad3228b676f7d3cd4284a5443f17f1962b36e491b30a40b2405849e597ba5fb5a164736f6c6343000821000abc488d3e2575f0f2113dc4d9a0cd6bc52445c6bc28a8974ed97a6ba3ecfd657c",
  "linkReferences": {},
  "deployedLinkReferences": {},
  "immutableReferences": {
    "16580": [
      {
        "length": 32,
        "start": 10534
      }
    ]
  },
  "inputSourceName": "project/src/BeamioUserCard/BeamioUserCard.sol",
  "buildInfoId": "solc-0_8_33-3db3db04c06c29d04eb00ed9de628c1eff89eb71"
}