{
  "_format": "hh3-artifact-1",
  "contractName": "BeamioUserCard",
  "sourceName": "src/BeamioUserCard/BeamioUserCard.sol",
  "abi": [
    {
      "inputs": [
        {
          "internalType": "string",
          "name": "uri_",
          "type": "string"
        },
        {
          "internalType": "enum BeamioCurrency.CurrencyType",
          "name": "currency_",
          "type": "uint8"
        },
        {
          "internalType": "uint256",
          "name": "pointsUnitPriceInCurrencyE6_",
          "type": "uint256"
        },
        {
          "internalType": "address",
          "name": "initialOwner",
          "type": "address"
        },
        {
          "internalType": "address",
          "name": "gateway_",
          "type": "address"
        },
        {
          "internalType": "uint8",
          "name": "upgradeType_",
          "type": "uint8"
        },
        {
          "internalType": "bool",
          "name": "initialTransferWhitelistEnabled",
          "type": "bool"
        },
        {
          "internalType": "string",
          "name": "contractName_",
          "type": "string"
        }
      ],
      "stateMutability": "nonpayable",
      "type": "constructor"
    },
    {
      "inputs": [],
      "name": "BM_NotAuthorized",
      "type": "error"
    },
    {
      "inputs": [],
      "name": "BM_ZeroAddress",
      "type": "error"
    },
    {
      "inputs": [
        {
          "internalType": "address",
          "name": "sender",
          "type": "address"
        },
        {
          "internalType": "uint256",
          "name": "balance",
          "type": "uint256"
        },
        {
          "internalType": "uint256",
          "name": "needed",
          "type": "uint256"
        },
        {
          "internalType": "uint256",
          "name": "tokenId",
          "type": "uint256"
        }
      ],
      "name": "ERC1155InsufficientBalance",
      "type": "error"
    },
    {
      "inputs": [
        {
          "internalType": "address",
          "name": "approver",
          "type": "address"
        }
      ],
      "name": "ERC1155InvalidApprover",
      "type": "error"
    },
    {
      "inputs": [
        {
          "internalType": "uint256",
          "name": "idsLength",
          "type": "uint256"
        },
        {
          "internalType": "uint256",
          "name": "valuesLength",
          "type": "uint256"
        }
      ],
      "name": "ERC1155InvalidArrayLength",
      "type": "error"
    },
    {
      "inputs": [
        {
          "internalType": "address",
          "name": "operator",
          "type": "address"
        }
      ],
      "name": "ERC1155InvalidOperator",
      "type": "error"
    },
    {
      "inputs": [
        {
          "internalType": "address",
          "name": "receiver",
          "type": "address"
        }
      ],
      "name": "ERC1155InvalidReceiver",
      "type": "error"
    },
    {
      "inputs": [
        {
          "internalType": "address",
          "name": "sender",
          "type": "address"
        }
      ],
      "name": "ERC1155InvalidSender",
      "type": "error"
    },
    {
      "inputs": [
        {
          "internalType": "address",
          "name": "operator",
          "type": "address"
        },
        {
          "internalType": "address",
          "name": "owner",
          "type": "address"
        }
      ],
      "name": "ERC1155MissingApprovalForAll",
      "type": "error"
    },
    {
      "inputs": [
        {
          "internalType": "address",
          "name": "owner",
          "type": "address"
        }
      ],
      "name": "OwnableInvalidOwner",
      "type": "error"
    },
    {
      "inputs": [
        {
          "internalType": "address",
          "name": "account",
          "type": "address"
        }
      ],
      "name": "OwnableUnauthorizedAccount",
      "type": "error"
    },
    {
      "inputs": [],
      "name": "ReentrancyGuardReentrantCall",
      "type": "error"
    },
    {
      "inputs": [],
      "name": "UC_AmountZero",
      "type": "error"
    },
    {
      "inputs": [],
      "name": "UC_GlobalMisconfigured",
      "type": "error"
    },
    {
      "inputs": [
        {
          "internalType": "address",
          "name": "fromAccount",
          "type": "address"
        },
        {
          "internalType": "uint256",
          "name": "id",
          "type": "uint256"
        },
        {
          "internalType": "uint256",
          "name": "have",
          "type": "uint256"
        },
        {
          "internalType": "uint256",
          "name": "need",
          "type": "uint256"
        }
      ],
      "name": "UC_InsufficientBalance",
      "type": "error"
    },
    {
      "inputs": [],
      "name": "UC_InvalidUpgradeType",
      "type": "error"
    },
    {
      "inputs": [],
      "name": "UC_NoBeamioAccount",
      "type": "error"
    },
    {
      "inputs": [],
      "name": "UC_NotAdmin",
      "type": "error"
    },
    {
      "inputs": [],
      "name": "UC_OpenMintExecutorUnauthorized",
      "type": "error"
    },
    {
      "inputs": [],
      "name": "UC_PriceZero",
      "type": "error"
    },
    {
      "inputs": [
        {
          "internalType": "bytes",
          "name": "data",
          "type": "bytes"
        }
      ],
      "name": "UC_RedeemDelegateFailed",
      "type": "error"
    },
    {
      "inputs": [],
      "name": "UC_TierLenMismatch",
      "type": "error"
    },
    {
      "inputs": [],
      "name": "UC_TierMinZero",
      "type": "error"
    },
    {
      "inputs": [],
      "name": "UC_UnauthorizedGateway",
      "type": "error"
    },
    {
      "anonymous": false,
      "inputs": [
        {
          "indexed": true,
          "internalType": "address",
          "name": "beneficiaryAccount",
          "type": "address"
        },
        {
          "indexed": true,
          "internalType": "uint256",
          "name": "tokenId",
          "type": "uint256"
        },
        {
          "indexed": false,
          "internalType": "uint256",
          "name": "attr",
          "type": "uint256"
        },
        {
          "indexed": false,
          "internalType": "uint256",
          "name": "expiry",
          "type": "uint256"
        }
      ],
      "name": "AdminCardMinted",
      "type": "event"
    },
    {
      "anonymous": false,
      "inputs": [
        {
          "indexed": true,
          "internalType": "address",
          "name": "account",
          "type": "address"
        },
        {
          "indexed": false,
          "internalType": "uint256",
          "name": "amount",
          "type": "uint256"
        }
      ],
      "name": "AdminPointsBurned",
      "type": "event"
    },
    {
      "anonymous": false,
      "inputs": [
        {
          "indexed": true,
          "internalType": "address",
          "name": "beneficiaryAccount",
          "type": "address"
        },
        {
          "indexed": false,
          "internalType": "uint256",
          "name": "points6",
          "type": "uint256"
        }
      ],
      "name": "AdminPointsMinted",
      "type": "event"
    },
    {
      "anonymous": false,
      "inputs": [
        {
          "indexed": true,
          "internalType": "address",
          "name": "account",
          "type": "address"
        },
        {
          "indexed": true,
          "internalType": "address",
          "name": "operator",
          "type": "address"
        },
        {
          "indexed": false,
          "internalType": "bool",
          "name": "approved",
          "type": "bool"
        }
      ],
      "name": "ApprovalForAll",
      "type": "event"
    },
    {
      "anonymous": false,
      "inputs": [
        {
          "indexed": true,
          "internalType": "address",
          "name": "userEOA",
          "type": "address"
        },
        {
          "indexed": true,
          "internalType": "address",
          "name": "acct",
          "type": "address"
        },
        {
          "indexed": false,
          "internalType": "uint8",
          "name": "chargeCurrency",
          "type": "uint8"
        },
        {
          "indexed": false,
          "internalType": "uint256",
          "name": "amountFiat6",
          "type": "uint256"
        },
        {
          "indexed": false,
          "internalType": "uint256",
          "name": "rewardMinted",
          "type": "uint256"
        }
      ],
      "name": "ChargeRewardAirdropped",
      "type": "event"
    },
    {
      "anonymous": false,
      "inputs": [
        {
          "indexed": false,
          "internalType": "uint256",
          "name": "attr",
          "type": "uint256"
        }
      ],
      "name": "DefaultAttrUpdated",
      "type": "event"
    },
    {
      "anonymous": false,
      "inputs": [
        {
          "indexed": false,
          "internalType": "uint256",
          "name": "oldSecs",
          "type": "uint256"
        },
        {
          "indexed": false,
          "internalType": "uint256",
          "name": "newSecs",
          "type": "uint256"
        }
      ],
      "name": "ExpirySecondsUpdated",
      "type": "event"
    },
    {
      "anonymous": false,
      "inputs": [
        {
          "indexed": true,
          "internalType": "uint256",
          "name": "id",
          "type": "uint256"
        },
        {
          "indexed": true,
          "internalType": "address",
          "name": "userEOA",
          "type": "address"
        },
        {
          "indexed": true,
          "internalType": "address",
          "name": "acct",
          "type": "address"
        },
        {
          "indexed": false,
          "internalType": "uint256",
          "name": "amount",
          "type": "uint256"
        },
        {
          "indexed": false,
          "internalType": "uint256",
          "name": "claimedAfter",
          "type": "uint256"
        }
      ],
      "name": "FaucetClaimed",
      "type": "event"
    },
    {
      "anonymous": false,
      "inputs": [
        {
          "indexed": true,
          "internalType": "uint256",
          "name": "id",
          "type": "uint256"
        },
        {
          "components": [
            {
              "internalType": "uint64",
              "name": "validUntil",
              "type": "uint64"
            },
            {
              "internalType": "uint64",
              "name": "perClaimMax",
              "type": "uint64"
            },
            {
              "internalType": "uint128",
              "name": "maxPerUser",
              "type": "uint128"
            },
            {
              "internalType": "uint128",
              "name": "maxGlobal",
              "type": "uint128"
            },
            {
              "internalType": "bool",
              "name": "enabled",
              "type": "bool"
            },
            {
              "internalType": "uint8",
              "name": "currency",
              "type": "uint8"
            },
            {
              "internalType": "uint8",
              "name": "decimals",
              "type": "uint8"
            },
            {
              "internalType": "uint128",
              "name": "priceInCurrency6",
              "type": "uint128"
            }
          ],
          "indexed": false,
          "internalType": "struct FaucetStorage.FaucetConfig",
          "name": "cfg",
          "type": "tuple"
        }
      ],
      "name": "FaucetConfigUpdated",
      "type": "event"
    },
    {
      "anonymous": false,
      "inputs": [
        {
          "indexed": true,
          "internalType": "uint256",
          "name": "tokenId",
          "type": "uint256"
        },
        {
          "indexed": false,
          "internalType": "bytes32",
          "name": "title",
          "type": "bytes32"
        },
        {
          "indexed": false,
          "internalType": "uint64",
          "name": "validAfter",
          "type": "uint64"
        },
        {
          "indexed": false,
          "internalType": "uint64",
          "name": "validBefore",
          "type": "uint64"
        },
        {
          "indexed": false,
          "internalType": "uint256",
          "name": "maxSupply",
          "type": "uint256"
        },
        {
          "indexed": false,
          "internalType": "uint256",
          "name": "priceInCurrency6",
          "type": "uint256"
        },
        {
          "indexed": false,
          "internalType": "bytes32",
          "name": "sharedMetadataHash",
          "type": "bytes32"
        }
      ],
      "name": "IssuedNftCreated",
      "type": "event"
    },
    {
      "anonymous": false,
      "inputs": [
        {
          "indexed": true,
          "internalType": "uint256",
          "name": "tokenId",
          "type": "uint256"
        },
        {
          "indexed": true,
          "internalType": "address",
          "name": "recipient",
          "type": "address"
        },
        {
          "indexed": false,
          "internalType": "uint256",
          "name": "amount",
          "type": "uint256"
        }
      ],
      "name": "IssuedNftMinted",
      "type": "event"
    },
    {
      "anonymous": false,
      "inputs": [
        {
          "indexed": true,
          "internalType": "address",
          "name": "userEOA",
          "type": "address"
        },
        {
          "indexed": true,
          "internalType": "address",
          "name": "payeeEOA",
          "type": "address"
        },
        {
          "indexed": true,
          "internalType": "uint256",
          "name": "tokenId",
          "type": "uint256"
        },
        {
          "indexed": false,
          "internalType": "uint256",
          "name": "amount",
          "type": "uint256"
        },
        {
          "indexed": false,
          "internalType": "uint256",
          "name": "totalPriceInCurrency6",
          "type": "uint256"
        },
        {
          "indexed": false,
          "internalType": "uint256",
          "name": "pointsCharged6",
          "type": "uint256"
        }
      ],
      "name": "IssuedNftPurchasedWithPointsCharge",
      "type": "event"
    },
    {
      "anonymous": false,
      "inputs": [
        {
          "indexed": true,
          "internalType": "address",
          "name": "user",
          "type": "address"
        },
        {
          "indexed": true,
          "internalType": "uint256",
          "name": "tokenId",
          "type": "uint256"
        },
        {
          "indexed": false,
          "internalType": "uint256",
          "name": "tierIndexOrMax",
          "type": "uint256"
        },
        {
          "indexed": false,
          "internalType": "uint256",
          "name": "minUsdc6",
          "type": "uint256"
        },
        {
          "indexed": false,
          "internalType": "uint256",
          "name": "expiry",
          "type": "uint256"
        }
      ],
      "name": "MemberNFTIssued",
      "type": "event"
    },
    {
      "anonymous": false,
      "inputs": [
        {
          "indexed": true,
          "internalType": "address",
          "name": "user",
          "type": "address"
        },
        {
          "indexed": true,
          "internalType": "uint256",
          "name": "oldActiveTokenId",
          "type": "uint256"
        },
        {
          "indexed": true,
          "internalType": "uint256",
          "name": "newTokenId",
          "type": "uint256"
        },
        {
          "indexed": false,
          "internalType": "uint256",
          "name": "oldTierIndexOrMax",
          "type": "uint256"
        },
        {
          "indexed": false,
          "internalType": "uint256",
          "name": "newTierIndex",
          "type": "uint256"
        },
        {
          "indexed": false,
          "internalType": "uint256",
          "name": "newExpiry",
          "type": "uint256"
        }
      ],
      "name": "MemberNFTUpgraded",
      "type": "event"
    },
    {
      "anonymous": false,
      "inputs": [
        {
          "indexed": true,
          "internalType": "address",
          "name": "previousOwner",
          "type": "address"
        },
        {
          "indexed": true,
          "internalType": "address",
          "name": "newOwner",
          "type": "address"
        }
      ],
      "name": "OwnershipTransferred",
      "type": "event"
    },
    {
      "anonymous": false,
      "inputs": [
        {
          "indexed": true,
          "internalType": "address",
          "name": "userEOA",
          "type": "address"
        },
        {
          "indexed": true,
          "internalType": "address",
          "name": "acct",
          "type": "address"
        },
        {
          "indexed": false,
          "internalType": "uint256",
          "name": "points6",
          "type": "uint256"
        }
      ],
      "name": "PointsMintedByGateway",
      "type": "event"
    },
    {
      "anonymous": false,
      "inputs": [
        {
          "indexed": true,
          "internalType": "address",
          "name": "payerEOA",
          "type": "address"
        },
        {
          "indexed": true,
          "internalType": "address",
          "name": "beneficiaryAccount",
          "type": "address"
        },
        {
          "indexed": true,
          "internalType": "address",
          "name": "usdc",
          "type": "address"
        },
        {
          "indexed": false,
          "internalType": "uint256",
          "name": "usdcIn6",
          "type": "uint256"
        },
        {
          "indexed": false,
          "internalType": "uint256",
          "name": "pointsMinted6",
          "type": "uint256"
        },
        {
          "indexed": false,
          "internalType": "uint256",
          "name": "unitPointPriceUsdc6",
          "type": "uint256"
        },
        {
          "indexed": false,
          "internalType": "bytes32",
          "name": "nonce",
          "type": "bytes32"
        }
      ],
      "name": "PointsPurchasedWithUSDC",
      "type": "event"
    },
    {
      "anonymous": false,
      "inputs": [
        {
          "indexed": false,
          "internalType": "uint256",
          "name": "priceInCurrencyE6",
          "type": "uint256"
        }
      ],
      "name": "PointsUnitPriceUpdated",
      "type": "event"
    },
    {
      "anonymous": false,
      "inputs": [
        {
          "indexed": true,
          "internalType": "uint256",
          "name": "id",
          "type": "uint256"
        },
        {
          "indexed": true,
          "internalType": "address",
          "name": "admin",
          "type": "address"
        }
      ],
      "name": "ProposalApproved",
      "type": "event"
    },
    {
      "anonymous": false,
      "inputs": [
        {
          "indexed": true,
          "internalType": "uint256",
          "name": "id",
          "type": "uint256"
        },
        {
          "indexed": true,
          "internalType": "bytes4",
          "name": "selector",
          "type": "bytes4"
        },
        {
          "indexed": true,
          "internalType": "address",
          "name": "proposer",
          "type": "address"
        }
      ],
      "name": "ProposalCreated",
      "type": "event"
    },
    {
      "anonymous": false,
      "inputs": [
        {
          "indexed": true,
          "internalType": "uint256",
          "name": "id",
          "type": "uint256"
        }
      ],
      "name": "ProposalExecuted",
      "type": "event"
    },
    {
      "anonymous": false,
      "inputs": [
        {
          "indexed": true,
          "internalType": "bytes32",
          "name": "hash",
          "type": "bytes32"
        }
      ],
      "name": "RedeemCancelled",
      "type": "event"
    },
    {
      "anonymous": false,
      "inputs": [
        {
          "indexed": true,
          "internalType": "bytes32",
          "name": "hash",
          "type": "bytes32"
        },
        {
          "indexed": false,
          "internalType": "uint256",
          "name": "points6",
          "type": "uint256"
        },
        {
          "indexed": false,
          "internalType": "uint256",
          "name": "attr",
          "type": "uint256"
        }
      ],
      "name": "RedeemCreated",
      "type": "event"
    },
    {
      "anonymous": false,
      "inputs": [
        {
          "indexed": true,
          "internalType": "address",
          "name": "refereeAA",
          "type": "address"
        },
        {
          "indexed": true,
          "internalType": "address",
          "name": "referrerAA",
          "type": "address"
        },
        {
          "indexed": true,
          "internalType": "address",
          "name": "operator",
          "type": "address"
        }
      ],
      "name": "RefereeReferrerUpdated",
      "type": "event"
    },
    {
      "anonymous": false,
      "inputs": [
        {
          "indexed": true,
          "internalType": "address",
          "name": "refereeAA",
          "type": "address"
        },
        {
          "indexed": true,
          "internalType": "address",
          "name": "operator",
          "type": "address"
        }
      ],
      "name": "RefereeRegistered",
      "type": "event"
    },
    {
      "anonymous": false,
      "inputs": [
        {
          "indexed": true,
          "internalType": "address",
          "name": "refereeAA",
          "type": "address"
        },
        {
          "indexed": true,
          "internalType": "address",
          "name": "operator",
          "type": "address"
        }
      ],
      "name": "RefereeUnregistered",
      "type": "event"
    },
    {
      "anonymous": false,
      "inputs": [
        {
          "indexed": true,
          "internalType": "address",
          "name": "refereeAA",
          "type": "address"
        },
        {
          "indexed": true,
          "internalType": "address",
          "name": "referrerAA",
          "type": "address"
        },
        {
          "indexed": false,
          "internalType": "uint256",
          "name": "rewardAmount",
          "type": "uint256"
        }
      ],
      "name": "ReferrerRewardMinted",
      "type": "event"
    },
    {
      "anonymous": false,
      "inputs": [
        {
          "indexed": false,
          "internalType": "uint256",
          "name": "oldRatioE6",
          "type": "uint256"
        },
        {
          "indexed": false,
          "internalType": "uint256",
          "name": "newRatioE6",
          "type": "uint256"
        }
      ],
      "name": "ReferrerRewardRatioUpdated",
      "type": "event"
    },
    {
      "anonymous": false,
      "inputs": [
        {
          "indexed": false,
          "internalType": "uint256",
          "name": "index",
          "type": "uint256"
        },
        {
          "indexed": false,
          "internalType": "uint256",
          "name": "minUsdc6",
          "type": "uint256"
        },
        {
          "indexed": false,
          "internalType": "uint256",
          "name": "attr",
          "type": "uint256"
        },
        {
          "indexed": false,
          "internalType": "uint256",
          "name": "tierExpirySeconds",
          "type": "uint256"
        }
      ],
      "name": "TierAppended",
      "type": "event"
    },
    {
      "anonymous": false,
      "inputs": [
        {
          "indexed": false,
          "internalType": "uint256",
          "name": "count",
          "type": "uint256"
        }
      ],
      "name": "TiersUpdated",
      "type": "event"
    },
    {
      "anonymous": false,
      "inputs": [
        {
          "indexed": true,
          "internalType": "address",
          "name": "operator",
          "type": "address"
        },
        {
          "indexed": true,
          "internalType": "address",
          "name": "from",
          "type": "address"
        },
        {
          "indexed": true,
          "internalType": "address",
          "name": "to",
          "type": "address"
        },
        {
          "indexed": false,
          "internalType": "uint256[]",
          "name": "ids",
          "type": "uint256[]"
        },
        {
          "indexed": false,
          "internalType": "uint256[]",
          "name": "values",
          "type": "uint256[]"
        }
      ],
      "name": "TransferBatch",
      "type": "event"
    },
    {
      "anonymous": false,
      "inputs": [
        {
          "indexed": true,
          "internalType": "address",
          "name": "operator",
          "type": "address"
        },
        {
          "indexed": true,
          "internalType": "address",
          "name": "from",
          "type": "address"
        },
        {
          "indexed": true,
          "internalType": "address",
          "name": "to",
          "type": "address"
        },
        {
          "indexed": false,
          "internalType": "uint256",
          "name": "id",
          "type": "uint256"
        },
        {
          "indexed": false,
          "internalType": "uint256",
          "name": "value",
          "type": "uint256"
        }
      ],
      "name": "TransferSingle",
      "type": "event"
    },
    {
      "anonymous": false,
      "inputs": [
        {
          "indexed": false,
          "internalType": "bool",
          "name": "enabled",
          "type": "bool"
        }
      ],
      "name": "TransferWhitelistEnabledUpdated",
      "type": "event"
    },
    {
      "anonymous": false,
      "inputs": [
        {
          "indexed": false,
          "internalType": "string",
          "name": "value",
          "type": "string"
        },
        {
          "indexed": true,
          "internalType": "uint256",
          "name": "id",
          "type": "uint256"
        }
      ],
      "name": "URI",
      "type": "event"
    },
    {
      "stateMutability": "nonpayable",
      "type": "fallback"
    },
    {
      "inputs": [],
      "name": "CHARGE_REWARD_TOKEN_ID",
      "outputs": [
        {
          "internalType": "uint256",
          "name": "",
          "type": "uint256"
        }
      ],
      "stateMutability": "view",
      "type": "function"
    },
    {
      "inputs": [],
      "name": "ISSUED_NFT_START_ID",
      "outputs": [
        {
          "internalType": "uint256",
          "name": "",
          "type": "uint256"
        }
      ],
      "stateMutability": "view",
      "type": "function"
    },
    {
      "inputs": [],
      "name": "NFT_START_ID",
      "outputs": [
        {
          "internalType": "uint256",
          "name": "",
          "type": "uint256"
        }
      ],
      "stateMutability": "view",
      "type": "function"
    },
    {
      "inputs": [],
      "name": "POINTS_DECIMALS",
      "outputs": [
        {
          "internalType": "uint8",
          "name": "",
          "type": "uint8"
        }
      ],
      "stateMutability": "view",
      "type": "function"
    },
    {
      "inputs": [],
      "name": "POINTS_ID",
      "outputs": [
        {
          "internalType": "uint256",
          "name": "",
          "type": "uint256"
        }
      ],
      "stateMutability": "view",
      "type": "function"
    },
    {
      "inputs": [],
      "name": "REFERRER_REWARD_TOKEN_ID",
      "outputs": [
        {
          "internalType": "uint256",
          "name": "",
          "type": "uint256"
        }
      ],
      "stateMutability": "view",
      "type": "function"
    },
    {
      "inputs": [],
      "name": "VERSION",
      "outputs": [
        {
          "internalType": "uint256",
          "name": "",
          "type": "uint256"
        }
      ],
      "stateMutability": "view",
      "type": "function"
    },
    {
      "inputs": [
        {
          "internalType": "address",
          "name": "",
          "type": "address"
        },
        {
          "internalType": "uint256",
          "name": "",
          "type": "uint256"
        }
      ],
      "name": "_userOwnedNfts",
      "outputs": [
        {
          "internalType": "uint256",
          "name": "",
          "type": "uint256"
        }
      ],
      "stateMutability": "view",
      "type": "function"
    },
    {
      "inputs": [
        {
          "internalType": "uint256",
          "name": "",
          "type": "uint256"
        }
      ],
      "name": "activeMembershipCountByTierIndex",
      "outputs": [
        {
          "internalType": "uint256",
          "name": "",
          "type": "uint256"
        }
      ],
      "stateMutability": "view",
      "type": "function"
    },
    {
      "inputs": [
        {
          "internalType": "uint256",
          "name": "",
          "type": "uint256"
        }
      ],
      "name": "activeMembershipCountByTokenId",
      "outputs": [
        {
          "internalType": "uint256",
          "name": "",
          "type": "uint256"
        }
      ],
      "stateMutability": "view",
      "type": "function"
    },
    {
      "inputs": [
        {
          "internalType": "address",
          "name": "",
          "type": "address"
        }
      ],
      "name": "activeMembershipId",
      "outputs": [
        {
          "internalType": "uint256",
          "name": "",
          "type": "uint256"
        }
      ],
      "stateMutability": "view",
      "type": "function"
    },
    {
      "inputs": [
        {
          "internalType": "address",
          "name": "",
          "type": "address"
        }
      ],
      "name": "activeTierIndexOrMax",
      "outputs": [
        {
          "internalType": "uint256",
          "name": "",
          "type": "uint256"
        }
      ],
      "stateMutability": "view",
      "type": "function"
    },
    {
      "inputs": [
        {
          "internalType": "address",
          "name": "a",
          "type": "address"
        }
      ],
      "name": "adminParent",
      "outputs": [
        {
          "internalType": "address",
          "name": "",
          "type": "address"
        }
      ],
      "stateMutability": "view",
      "type": "function"
    },
    {
      "inputs": [
        {
          "internalType": "uint256",
          "name": "minUsdc6",
          "type": "uint256"
        },
        {
          "internalType": "uint256",
          "name": "attr",
          "type": "uint256"
        },
        {
          "internalType": "uint256",
          "name": "tierExpirySeconds",
          "type": "uint256"
        }
      ],
      "name": "appendTier",
      "outputs": [],
      "stateMutability": "nonpayable",
      "type": "function"
    },
    {
      "inputs": [
        {
          "internalType": "uint256",
          "name": "id",
          "type": "uint256"
        }
      ],
      "name": "approveProposal",
      "outputs": [],
      "stateMutability": "nonpayable",
      "type": "function"
    },
    {
      "inputs": [
        {
          "internalType": "uint256",
          "name": "id",
          "type": "uint256"
        },
        {
          "internalType": "address",
          "name": "adminSigner",
          "type": "address"
        }
      ],
      "name": "approveProposalByGateway",
      "outputs": [],
      "stateMutability": "nonpayable",
      "type": "function"
    },
    {
      "inputs": [
        {
          "internalType": "uint256",
          "name": "",
          "type": "uint256"
        }
      ],
      "name": "attributes",
      "outputs": [
        {
          "internalType": "uint256",
          "name": "",
          "type": "uint256"
        }
      ],
      "stateMutability": "view",
      "type": "function"
    },
    {
      "inputs": [
        {
          "internalType": "address",
          "name": "account",
          "type": "address"
        },
        {
          "internalType": "uint256",
          "name": "id",
          "type": "uint256"
        }
      ],
      "name": "balanceOf",
      "outputs": [
        {
          "internalType": "uint256",
          "name": "",
          "type": "uint256"
        }
      ],
      "stateMutability": "view",
      "type": "function"
    },
    {
      "inputs": [
        {
          "internalType": "address[]",
          "name": "accounts",
          "type": "address[]"
        },
        {
          "internalType": "uint256[]",
          "name": "ids",
          "type": "uint256[]"
        }
      ],
      "name": "balanceOfBatch",
      "outputs": [
        {
          "internalType": "uint256[]",
          "name": "",
          "type": "uint256[]"
        }
      ],
      "stateMutability": "view",
      "type": "function"
    },
    {
      "inputs": [
        {
          "internalType": "address",
          "name": "target",
          "type": "address"
        },
        {
          "internalType": "uint256",
          "name": "amount",
          "type": "uint256"
        }
      ],
      "name": "burnPointsByAdmin",
      "outputs": [],
      "stateMutability": "nonpayable",
      "type": "function"
    },
    {
      "inputs": [
        {
          "internalType": "address",
          "name": "userEOA",
          "type": "address"
        },
        {
          "internalType": "uint256",
          "name": "pointsCost",
          "type": "uint256"
        }
      ],
      "name": "burnSocialPointsForExchange",
      "outputs": [],
      "stateMutability": "nonpayable",
      "type": "function"
    },
    {
      "inputs": [
        {
          "internalType": "address",
          "name": "acct",
          "type": "address"
        },
        {
          "internalType": "uint256",
          "name": "id",
          "type": "uint256"
        }
      ],
      "name": "cardSelfAppendMembershipNftIfMissing",
      "outputs": [],
      "stateMutability": "nonpayable",
      "type": "function"
    },
    {
      "inputs": [
        {
          "internalType": "address",
          "name": "from",
          "type": "address"
        },
        {
          "internalType": "uint256",
          "name": "id",
          "type": "uint256"
        },
        {
          "internalType": "uint256",
          "name": "amount",
          "type": "uint256"
        }
      ],
      "name": "cardSelfBurn",
      "outputs": [],
      "stateMutability": "nonpayable",
      "type": "function"
    },
    {
      "inputs": [
        {
          "internalType": "uint8",
          "name": "kind",
          "type": "uint8"
        },
        {
          "internalType": "bytes",
          "name": "data",
          "type": "bytes"
        }
      ],
      "name": "cardSelfCallModule",
      "outputs": [
        {
          "internalType": "bytes",
          "name": "",
          "type": "bytes"
        }
      ],
      "stateMutability": "nonpayable",
      "type": "function"
    },
    {
      "inputs": [],
      "name": "cardSelfCurrencyType",
      "outputs": [
        {
          "internalType": "uint8",
          "name": "",
          "type": "uint8"
        }
      ],
      "stateMutability": "view",
      "type": "function"
    },
    {
      "inputs": [
        {
          "internalType": "address",
          "name": "acct",
          "type": "address"
        },
        {
          "internalType": "uint256",
          "name": "points6",
          "type": "uint256"
        }
      ],
      "name": "cardSelfEmitAdminPointsMinted",
      "outputs": [],
      "stateMutability": "nonpayable",
      "type": "function"
    },
    {
      "inputs": [
        {
          "internalType": "address",
          "name": "userEOA",
          "type": "address"
        },
        {
          "internalType": "address",
          "name": "acct",
          "type": "address"
        },
        {
          "internalType": "uint8",
          "name": "chargeCurrency",
          "type": "uint8"
        },
        {
          "internalType": "uint256",
          "name": "amountFiat6",
          "type": "uint256"
        },
        {
          "internalType": "uint256",
          "name": "reward",
          "type": "uint256"
        }
      ],
      "name": "cardSelfEmitChargeRewardAirdropped",
      "outputs": [],
      "stateMutability": "nonpayable",
      "type": "function"
    },
    {
      "inputs": [
        {
          "internalType": "uint256",
          "name": "id",
          "type": "uint256"
        },
        {
          "internalType": "address",
          "name": "userEOA",
          "type": "address"
        },
        {
          "internalType": "address",
          "name": "acct",
          "type": "address"
        },
        {
          "internalType": "uint256",
          "name": "amount",
          "type": "uint256"
        },
        {
          "internalType": "uint256",
          "name": "claimedAfter",
          "type": "uint256"
        }
      ],
      "name": "cardSelfEmitFaucetClaimed",
      "outputs": [],
      "stateMutability": "nonpayable",
      "type": "function"
    },
    {
      "inputs": [
        {
          "internalType": "uint256",
          "name": "tokenId",
          "type": "uint256"
        },
        {
          "internalType": "address",
          "name": "acct",
          "type": "address"
        },
        {
          "internalType": "uint256",
          "name": "amount",
          "type": "uint256"
        }
      ],
      "name": "cardSelfEmitIssuedNftMinted",
      "outputs": [],
      "stateMutability": "nonpayable",
      "type": "function"
    },
    {
      "inputs": [
        {
          "internalType": "address",
          "name": "userEOA",
          "type": "address"
        },
        {
          "internalType": "address",
          "name": "payeeEOA",
          "type": "address"
        },
        {
          "internalType": "uint256",
          "name": "tokenId",
          "type": "uint256"
        },
        {
          "internalType": "uint256",
          "name": "amount",
          "type": "uint256"
        },
        {
          "internalType": "uint256",
          "name": "totalPriceInCurrency6",
          "type": "uint256"
        },
        {
          "internalType": "uint256",
          "name": "pointsCharged6",
          "type": "uint256"
        }
      ],
      "name": "cardSelfEmitIssuedNftPurchasedWithPointsCharge",
      "outputs": [],
      "stateMutability": "nonpayable",
      "type": "function"
    },
    {
      "inputs": [
        {
          "internalType": "address",
          "name": "userEOA",
          "type": "address"
        },
        {
          "internalType": "address",
          "name": "acct",
          "type": "address"
        },
        {
          "internalType": "uint256",
          "name": "points6",
          "type": "uint256"
        }
      ],
      "name": "cardSelfEmitPointsMintedByGateway",
      "outputs": [],
      "stateMutability": "nonpayable",
      "type": "function"
    },
    {
      "inputs": [
        {
          "internalType": "address",
          "name": "refereeAA",
          "type": "address"
        },
        {
          "internalType": "address",
          "name": "referrerAA",
          "type": "address"
        },
        {
          "internalType": "uint256",
          "name": "rewardAmount",
          "type": "uint256"
        }
      ],
      "name": "cardSelfEmitReferrerRewardMinted",
      "outputs": [],
      "stateMutability": "nonpayable",
      "type": "function"
    },
    {
      "inputs": [
        {
          "internalType": "address",
          "name": "module",
          "type": "address"
        },
        {
          "internalType": "bytes",
          "name": "data",
          "type": "bytes"
        }
      ],
      "name": "cardSelfGovernanceDelegate",
      "outputs": [
        {
          "internalType": "bool",
          "name": "",
          "type": "bool"
        }
      ],
      "stateMutability": "nonpayable",
      "type": "function"
    },
    {
      "inputs": [
        {
          "internalType": "address",
          "name": "acct",
          "type": "address"
        }
      ],
      "name": "cardSelfHasValidCard",
      "outputs": [
        {
          "internalType": "bool",
          "name": "",
          "type": "bool"
        }
      ],
      "stateMutability": "view",
      "type": "function"
    },
    {
      "inputs": [],
      "name": "cardSelfMembershipFlowTotals",
      "outputs": [
        {
          "internalType": "uint256",
          "name": "issued",
          "type": "uint256"
        },
        {
          "internalType": "uint256",
          "name": "upgraded",
          "type": "uint256"
        }
      ],
      "stateMutability": "view",
      "type": "function"
    },
    {
      "inputs": [
        {
          "internalType": "address",
          "name": "to",
          "type": "address"
        },
        {
          "internalType": "uint256",
          "name": "id",
          "type": "uint256"
        },
        {
          "internalType": "uint256",
          "name": "amount",
          "type": "uint256"
        }
      ],
      "name": "cardSelfMint",
      "outputs": [],
      "stateMutability": "nonpayable",
      "type": "function"
    },
    {
      "inputs": [],
      "name": "cardSelfOwner",
      "outputs": [
        {
          "internalType": "address",
          "name": "",
          "type": "address"
        }
      ],
      "stateMutability": "view",
      "type": "function"
    },
    {
      "inputs": [],
      "name": "cardSelfPointsUnitPriceInCurrencyE6",
      "outputs": [
        {
          "internalType": "uint256",
          "name": "",
          "type": "uint256"
        }
      ],
      "stateMutability": "view",
      "type": "function"
    },
    {
      "inputs": [
        {
          "internalType": "address",
          "name": "operator",
          "type": "address"
        },
        {
          "internalType": "uint256",
          "name": "issuedBefore",
          "type": "uint256"
        },
        {
          "internalType": "uint256",
          "name": "upgradedBefore",
          "type": "uint256"
        }
      ],
      "name": "cardSelfRecordAdminMembershipFlow",
      "outputs": [],
      "stateMutability": "nonpayable",
      "type": "function"
    },
    {
      "inputs": [
        {
          "internalType": "address",
          "name": "operator",
          "type": "address"
        },
        {
          "internalType": "uint256",
          "name": "amount",
          "type": "uint256"
        }
      ],
      "name": "cardSelfRecordAdminRedeemMint",
      "outputs": [],
      "stateMutability": "nonpayable",
      "type": "function"
    },
    {
      "inputs": [
        {
          "internalType": "address",
          "name": "operator",
          "type": "address"
        },
        {
          "internalType": "uint256",
          "name": "amount",
          "type": "uint256"
        }
      ],
      "name": "cardSelfRecordAdminStatsMint",
      "outputs": [],
      "stateMutability": "nonpayable",
      "type": "function"
    },
    {
      "inputs": [
        {
          "internalType": "address",
          "name": "operator",
          "type": "address"
        },
        {
          "internalType": "uint256",
          "name": "amount",
          "type": "uint256"
        }
      ],
      "name": "cardSelfRecordAdminUsdcMint",
      "outputs": [],
      "stateMutability": "nonpayable",
      "type": "function"
    },
    {
      "inputs": [
        {
          "internalType": "address",
          "name": "acct",
          "type": "address"
        },
        {
          "internalType": "uint256",
          "name": "points6",
          "type": "uint256"
        }
      ],
      "name": "cardSelfRequirePointsMintAllowsFirstMembership",
      "outputs": [],
      "stateMutability": "view",
      "type": "function"
    },
    {
      "inputs": [
        {
          "internalType": "address",
          "name": "eoa",
          "type": "address"
        }
      ],
      "name": "cardSelfToAccount",
      "outputs": [
        {
          "internalType": "address",
          "name": "",
          "type": "address"
        }
      ],
      "stateMutability": "view",
      "type": "function"
    },
    {
      "inputs": [
        {
          "internalType": "address",
          "name": "from",
          "type": "address"
        },
        {
          "internalType": "address",
          "name": "to",
          "type": "address"
        },
        {
          "internalType": "uint256",
          "name": "amount",
          "type": "uint256"
        }
      ],
      "name": "cardSelfTransferPointsUpdate",
      "outputs": [],
      "stateMutability": "nonpayable",
      "type": "function"
    },
    {
      "inputs": [],
      "name": "cardSelfUpgradeType",
      "outputs": [
        {
          "internalType": "uint8",
          "name": "",
          "type": "uint8"
        }
      ],
      "stateMutability": "view",
      "type": "function"
    },
    {
      "inputs": [
        {
          "internalType": "address",
          "name": "subordinate",
          "type": "address"
        },
        {
          "internalType": "address",
          "name": "authorizer",
          "type": "address"
        }
      ],
      "name": "clearAdminMintCounterForSubordinate",
      "outputs": [],
      "stateMutability": "nonpayable",
      "type": "function"
    },
    {
      "inputs": [
        {
          "internalType": "address",
          "name": "refereeAA",
          "type": "address"
        }
      ],
      "name": "clearRefereeReferrer",
      "outputs": [],
      "stateMutability": "nonpayable",
      "type": "function"
    },
    {
      "inputs": [
        {
          "internalType": "bytes4",
          "name": "selector",
          "type": "bytes4"
        },
        {
          "internalType": "address",
          "name": "target",
          "type": "address"
        },
        {
          "internalType": "uint256",
          "name": "v1",
          "type": "uint256"
        },
        {
          "internalType": "uint256",
          "name": "v2",
          "type": "uint256"
        },
        {
          "internalType": "uint256",
          "name": "v3",
          "type": "uint256"
        }
      ],
      "name": "createProposal",
      "outputs": [
        {
          "internalType": "uint256",
          "name": "",
          "type": "uint256"
        }
      ],
      "stateMutability": "nonpayable",
      "type": "function"
    },
    {
      "inputs": [],
      "name": "currency",
      "outputs": [
        {
          "internalType": "enum BeamioCurrency.CurrencyType",
          "name": "",
          "type": "uint8"
        }
      ],
      "stateMutability": "view",
      "type": "function"
    },
    {
      "inputs": [],
      "name": "debugGateway",
      "outputs": [
        {
          "internalType": "address",
          "name": "",
          "type": "address"
        }
      ],
      "stateMutability": "view",
      "type": "function"
    },
    {
      "inputs": [],
      "name": "defaultAttrWhenNoTiers",
      "outputs": [
        {
          "internalType": "uint256",
          "name": "",
          "type": "uint256"
        }
      ],
      "stateMutability": "view",
      "type": "function"
    },
    {
      "inputs": [],
      "name": "deployer",
      "outputs": [
        {
          "internalType": "address",
          "name": "",
          "type": "address"
        }
      ],
      "stateMutability": "view",
      "type": "function"
    },
    {
      "inputs": [
        {
          "internalType": "uint256",
          "name": "",
          "type": "uint256"
        }
      ],
      "name": "expiresAt",
      "outputs": [
        {
          "internalType": "uint256",
          "name": "",
          "type": "uint256"
        }
      ],
      "stateMutability": "view",
      "type": "function"
    },
    {
      "inputs": [],
      "name": "expirySeconds",
      "outputs": [
        {
          "internalType": "uint256",
          "name": "",
          "type": "uint256"
        }
      ],
      "stateMutability": "view",
      "type": "function"
    },
    {
      "inputs": [],
      "name": "factoryGateway",
      "outputs": [
        {
          "internalType": "address",
          "name": "",
          "type": "address"
        }
      ],
      "stateMutability": "view",
      "type": "function"
    },
    {
      "inputs": [
        {
          "internalType": "address",
          "name": "userEOA",
          "type": "address"
        },
        {
          "internalType": "uint256",
          "name": "id",
          "type": "uint256"
        },
        {
          "internalType": "uint256",
          "name": "amount",
          "type": "uint256"
        }
      ],
      "name": "faucetByGateway",
      "outputs": [],
      "stateMutability": "nonpayable",
      "type": "function"
    },
    {
      "inputs": [
        {
          "internalType": "uint256",
          "name": "id",
          "type": "uint256"
        }
      ],
      "name": "faucetConfig",
      "outputs": [
        {
          "components": [
            {
              "internalType": "uint64",
              "name": "validUntil",
              "type": "uint64"
            },
            {
              "internalType": "uint64",
              "name": "perClaimMax",
              "type": "uint64"
            },
            {
              "internalType": "uint128",
              "name": "maxPerUser",
              "type": "uint128"
            },
            {
              "internalType": "uint128",
              "name": "maxGlobal",
              "type": "uint128"
            },
            {
              "internalType": "bool",
              "name": "enabled",
              "type": "bool"
            },
            {
              "internalType": "uint8",
              "name": "currency",
              "type": "uint8"
            },
            {
              "internalType": "uint8",
              "name": "decimals",
              "type": "uint8"
            },
            {
              "internalType": "uint128",
              "name": "priceInCurrency6",
              "type": "uint128"
            }
          ],
          "internalType": "struct FaucetStorage.FaucetConfig",
          "name": "",
          "type": "tuple"
        }
      ],
      "stateMutability": "view",
      "type": "function"
    },
    {
      "inputs": [
        {
          "internalType": "address",
          "name": "payerEOA",
          "type": "address"
        },
        {
          "internalType": "uint256",
          "name": "amount6",
          "type": "uint256"
        }
      ],
      "name": "fundSocialExchangeUsdcEscrow",
      "outputs": [],
      "stateMutability": "nonpayable",
      "type": "function"
    },
    {
      "inputs": [],
      "name": "gateway",
      "outputs": [
        {
          "internalType": "address",
          "name": "",
          "type": "address"
        }
      ],
      "stateMutability": "view",
      "type": "function"
    },
    {
      "inputs": [
        {
          "internalType": "address",
          "name": "user",
          "type": "address"
        }
      ],
      "name": "getOwnership",
      "outputs": [
        {
          "internalType": "uint256",
          "name": "pt",
          "type": "uint256"
        },
        {
          "components": [
            {
              "internalType": "uint256",
              "name": "tokenId",
              "type": "uint256"
            },
            {
              "internalType": "uint256",
              "name": "attribute",
              "type": "uint256"
            },
            {
              "internalType": "uint256",
              "name": "tierIndexOrMax",
              "type": "uint256"
            },
            {
              "internalType": "uint256",
              "name": "expiry",
              "type": "uint256"
            },
            {
              "internalType": "bool",
              "name": "isExpired",
              "type": "bool"
            }
          ],
          "internalType": "struct NFTDetail[]",
          "name": "nfts",
          "type": "tuple[]"
        }
      ],
      "stateMutability": "view",
      "type": "function"
    },
    {
      "inputs": [
        {
          "internalType": "address",
          "name": "userEOA",
          "type": "address"
        }
      ],
      "name": "getOwnershipByEOA",
      "outputs": [
        {
          "internalType": "uint256",
          "name": "pt",
          "type": "uint256"
        },
        {
          "components": [
            {
              "internalType": "uint256",
              "name": "tokenId",
              "type": "uint256"
            },
            {
              "internalType": "uint256",
              "name": "attribute",
              "type": "uint256"
            },
            {
              "internalType": "uint256",
              "name": "tierIndexOrMax",
              "type": "uint256"
            },
            {
              "internalType": "uint256",
              "name": "expiry",
              "type": "uint256"
            },
            {
              "internalType": "bool",
              "name": "isExpired",
              "type": "bool"
            }
          ],
          "internalType": "struct NFTDetail[]",
          "name": "nfts",
          "type": "tuple[]"
        }
      ],
      "stateMutability": "view",
      "type": "function"
    },
    {
      "inputs": [
        {
          "internalType": "address",
          "name": "a",
          "type": "address"
        }
      ],
      "name": "isAdmin",
      "outputs": [
        {
          "internalType": "bool",
          "name": "",
          "type": "bool"
        }
      ],
      "stateMutability": "view",
      "type": "function"
    },
    {
      "inputs": [
        {
          "internalType": "address",
          "name": "account",
          "type": "address"
        },
        {
          "internalType": "address",
          "name": "operator",
          "type": "address"
        }
      ],
      "name": "isApprovedForAll",
      "outputs": [
        {
          "internalType": "bool",
          "name": "",
          "type": "bool"
        }
      ],
      "stateMutability": "view",
      "type": "function"
    },
    {
      "inputs": [
        {
          "internalType": "address",
          "name": "effectiveTo",
          "type": "address"
        }
      ],
      "name": "isPointsTransferRecipientAllowed",
      "outputs": [
        {
          "internalType": "bool",
          "name": "",
          "type": "bool"
        }
      ],
      "stateMutability": "view",
      "type": "function"
    },
    {
      "inputs": [
        {
          "internalType": "address",
          "name": "refereeAA",
          "type": "address"
        }
      ],
      "name": "isRegisteredReferee",
      "outputs": [
        {
          "internalType": "bool",
          "name": "",
          "type": "bool"
        }
      ],
      "stateMutability": "view",
      "type": "function"
    },
    {
      "inputs": [
        {
          "internalType": "uint256",
          "name": "tokenId",
          "type": "uint256"
        }
      ],
      "name": "issuedNftPriceInCurrency6",
      "outputs": [
        {
          "internalType": "uint256",
          "name": "",
          "type": "uint256"
        }
      ],
      "stateMutability": "view",
      "type": "function"
    },
    {
      "inputs": [
        {
          "internalType": "uint256",
          "name": "tokenId",
          "type": "uint256"
        }
      ],
      "name": "issuedNftSharedMetadataHash",
      "outputs": [
        {
          "internalType": "bytes32",
          "name": "",
          "type": "bytes32"
        }
      ],
      "stateMutability": "view",
      "type": "function"
    },
    {
      "inputs": [],
      "name": "metadataBaseURI",
      "outputs": [
        {
          "internalType": "string",
          "name": "",
          "type": "string"
        }
      ],
      "stateMutability": "view",
      "type": "function"
    },
    {
      "inputs": [
        {
          "internalType": "address",
          "name": "userEOA",
          "type": "address"
        },
        {
          "internalType": "uint256",
          "name": "id",
          "type": "uint256"
        },
        {
          "internalType": "uint256",
          "name": "amount6",
          "type": "uint256"
        }
      ],
      "name": "mintFaucetByGateway",
      "outputs": [],
      "stateMutability": "nonpayable",
      "type": "function"
    },
    {
      "inputs": [
        {
          "internalType": "address",
          "name": "userEOA",
          "type": "address"
        },
        {
          "internalType": "uint256",
          "name": "tokenId",
          "type": "uint256"
        },
        {
          "internalType": "uint256",
          "name": "amount",
          "type": "uint256"
        }
      ],
      "name": "mintIssuedNftByGateway",
      "outputs": [],
      "stateMutability": "nonpayable",
      "type": "function"
    },
    {
      "inputs": [
        {
          "internalType": "address",
          "name": "to",
          "type": "address"
        },
        {
          "internalType": "uint256",
          "name": "tokenId",
          "type": "uint256"
        },
        {
          "internalType": "uint256",
          "name": "amount",
          "type": "uint256"
        }
      ],
      "name": "mintIssuedNftByOwner",
      "outputs": [],
      "stateMutability": "nonpayable",
      "type": "function"
    },
    {
      "inputs": [
        {
          "internalType": "address",
          "name": "userEOA",
          "type": "address"
        },
        {
          "internalType": "uint256",
          "name": "tokenId",
          "type": "uint256"
        }
      ],
      "name": "mintIssuedNftByUserSigClaim",
      "outputs": [],
      "stateMutability": "nonpayable",
      "type": "function"
    },
    {
      "inputs": [
        {
          "internalType": "address",
          "name": "user",
          "type": "address"
        },
        {
          "internalType": "uint256",
          "name": "tierIndex",
          "type": "uint256"
        }
      ],
      "name": "mintMemberCardByAdmin",
      "outputs": [],
      "stateMutability": "nonpayable",
      "type": "function"
    },
    {
      "inputs": [
        {
          "internalType": "address",
          "name": "user",
          "type": "address"
        },
        {
          "internalType": "uint256",
          "name": "points6",
          "type": "uint256"
        }
      ],
      "name": "mintPointsByAdmin",
      "outputs": [],
      "stateMutability": "nonpayable",
      "type": "function"
    },
    {
      "inputs": [
        {
          "internalType": "address",
          "name": "user",
          "type": "address"
        },
        {
          "internalType": "uint256",
          "name": "points6",
          "type": "uint256"
        },
        {
          "internalType": "address",
          "name": "operator",
          "type": "address"
        }
      ],
      "name": "mintPointsByAdminWithOperator",
      "outputs": [],
      "stateMutability": "nonpayable",
      "type": "function"
    },
    {
      "inputs": [
        {
          "internalType": "address",
          "name": "userEOA",
          "type": "address"
        },
        {
          "internalType": "uint256",
          "name": "points6",
          "type": "uint256"
        }
      ],
      "name": "mintPointsByGateway",
      "outputs": [],
      "stateMutability": "nonpayable",
      "type": "function"
    },
    {
      "inputs": [
        {
          "internalType": "address",
          "name": "userEOA",
          "type": "address"
        },
        {
          "internalType": "uint256",
          "name": "points6",
          "type": "uint256"
        },
        {
          "internalType": "address",
          "name": "operator",
          "type": "address"
        }
      ],
      "name": "mintPointsByGatewayWithOperator",
      "outputs": [],
      "stateMutability": "nonpayable",
      "type": "function"
    },
    {
      "inputs": [
        {
          "internalType": "address",
          "name": "payerAA",
          "type": "address"
        },
        {
          "internalType": "uint256",
          "name": "points6",
          "type": "uint256"
        },
        {
          "internalType": "address",
          "name": "operatorForStats",
          "type": "address"
        }
      ],
      "name": "mintPointsOpenContainerRelay",
      "outputs": [],
      "stateMutability": "nonpayable",
      "type": "function"
    },
    {
      "inputs": [],
      "name": "name",
      "outputs": [
        {
          "internalType": "string",
          "name": "",
          "type": "string"
        }
      ],
      "stateMutability": "view",
      "type": "function"
    },
    {
      "inputs": [
        {
          "internalType": "uint256",
          "name": "tokenId",
          "type": "uint256"
        }
      ],
      "name": "nftAttributes",
      "outputs": [
        {
          "internalType": "uint256",
          "name": "",
          "type": "uint256"
        }
      ],
      "stateMutability": "view",
      "type": "function"
    },
    {
      "inputs": [
        {
          "internalType": "uint256",
          "name": "tokenId",
          "type": "uint256"
        }
      ],
      "name": "nftExpiresAt",
      "outputs": [
        {
          "internalType": "uint256",
          "name": "",
          "type": "uint256"
        }
      ],
      "stateMutability": "view",
      "type": "function"
    },
    {
      "inputs": [
        {
          "internalType": "address",
          "name": "user",
          "type": "address"
        },
        {
          "internalType": "uint256",
          "name": "index",
          "type": "uint256"
        }
      ],
      "name": "nftInventoryAt",
      "outputs": [
        {
          "internalType": "uint256",
          "name": "",
          "type": "uint256"
        }
      ],
      "stateMutability": "view",
      "type": "function"
    },
    {
      "inputs": [
        {
          "internalType": "address",
          "name": "user",
          "type": "address"
        }
      ],
      "name": "nftInventoryLength",
      "outputs": [
        {
          "internalType": "uint256",
          "name": "",
          "type": "uint256"
        }
      ],
      "stateMutability": "view",
      "type": "function"
    },
    {
      "inputs": [
        {
          "internalType": "uint256",
          "name": "tokenId",
          "type": "uint256"
        }
      ],
      "name": "nftTierIndexOrMax",
      "outputs": [
        {
          "internalType": "uint256",
          "name": "",
          "type": "uint256"
        }
      ],
      "stateMutability": "view",
      "type": "function"
    },
    {
      "inputs": [],
      "name": "owner",
      "outputs": [
        {
          "internalType": "address",
          "name": "",
          "type": "address"
        }
      ],
      "stateMutability": "view",
      "type": "function"
    },
    {
      "inputs": [
        {
          "internalType": "address",
          "name": "userEOA",
          "type": "address"
        },
        {
          "internalType": "uint256",
          "name": "usdcReward6",
          "type": "uint256"
        }
      ],
      "name": "payoutSocialExchangeUsdc",
      "outputs": [],
      "stateMutability": "nonpayable",
      "type": "function"
    },
    {
      "inputs": [
        {
          "internalType": "address",
          "name": "user",
          "type": "address"
        }
      ],
      "name": "pointsBalanceOf",
      "outputs": [
        {
          "internalType": "uint256",
          "name": "",
          "type": "uint256"
        }
      ],
      "stateMutability": "view",
      "type": "function"
    },
    {
      "inputs": [],
      "name": "pointsUnitPriceInCurrencyE6",
      "outputs": [
        {
          "internalType": "uint256",
          "name": "",
          "type": "uint256"
        }
      ],
      "stateMutability": "view",
      "type": "function"
    },
    {
      "inputs": [
        {
          "internalType": "uint256",
          "name": "chargeRewardAmount",
          "type": "uint256"
        }
      ],
      "name": "previewReferrerRewardFromChargeReward",
      "outputs": [
        {
          "internalType": "uint256",
          "name": "",
          "type": "uint256"
        }
      ],
      "stateMutability": "view",
      "type": "function"
    },
    {
      "inputs": [
        {
          "internalType": "address",
          "name": "userEOA",
          "type": "address"
        },
        {
          "internalType": "uint256",
          "name": "tokenId",
          "type": "uint256"
        },
        {
          "internalType": "uint256",
          "name": "amount",
          "type": "uint256"
        },
        {
          "internalType": "address",
          "name": "payeeEOA",
          "type": "address"
        }
      ],
      "name": "purchaseIssuedNftWithPointsCharge",
      "outputs": [],
      "stateMutability": "nonpayable",
      "type": "function"
    },
    {
      "inputs": [
        {
          "internalType": "uint256",
          "name": "tokenId",
          "type": "uint256"
        },
        {
          "internalType": "uint256",
          "name": "amount",
          "type": "uint256"
        }
      ],
      "name": "quoteIssuedNftPurchasePoints6",
      "outputs": [
        {
          "internalType": "uint256",
          "name": "points6",
          "type": "uint256"
        },
        {
          "internalType": "uint256",
          "name": "totalPriceInCurrency6",
          "type": "uint256"
        }
      ],
      "stateMutability": "view",
      "type": "function"
    },
    {
      "inputs": [
        {
          "internalType": "address",
          "name": "operator",
          "type": "address"
        },
        {
          "internalType": "uint256",
          "name": "amount",
          "type": "uint256"
        }
      ],
      "name": "recordAdminBurnForStats",
      "outputs": [],
      "stateMutability": "nonpayable",
      "type": "function"
    },
    {
      "inputs": [
        {
          "internalType": "address",
          "name": "admin",
          "type": "address"
        },
        {
          "internalType": "uint256",
          "name": "amount",
          "type": "uint256"
        }
      ],
      "name": "recordAdminMintForStats",
      "outputs": [],
      "stateMutability": "nonpayable",
      "type": "function"
    },
    {
      "inputs": [
        {
          "internalType": "address",
          "name": "userEOA",
          "type": "address"
        },
        {
          "internalType": "uint256",
          "name": "tokenId",
          "type": "uint256"
        }
      ],
      "name": "recordSocialExchangeUsdcClaim",
      "outputs": [],
      "stateMutability": "nonpayable",
      "type": "function"
    },
    {
      "inputs": [
        {
          "internalType": "string",
          "name": "code",
          "type": "string"
        },
        {
          "internalType": "address",
          "name": "to",
          "type": "address"
        }
      ],
      "name": "redeemAdminByGateway",
      "outputs": [],
      "stateMutability": "nonpayable",
      "type": "function"
    },
    {
      "inputs": [
        {
          "internalType": "string[]",
          "name": "codes",
          "type": "string[]"
        },
        {
          "internalType": "address",
          "name": "userEOA",
          "type": "address"
        }
      ],
      "name": "redeemBatchByGateway",
      "outputs": [],
      "stateMutability": "nonpayable",
      "type": "function"
    },
    {
      "inputs": [
        {
          "internalType": "string",
          "name": "code",
          "type": "string"
        },
        {
          "internalType": "address",
          "name": "userEOA",
          "type": "address"
        }
      ],
      "name": "redeemByGateway",
      "outputs": [],
      "stateMutability": "nonpayable",
      "type": "function"
    },
    {
      "inputs": [
        {
          "internalType": "string",
          "name": "code",
          "type": "string"
        },
        {
          "internalType": "address",
          "name": "userEOA",
          "type": "address"
        }
      ],
      "name": "redeemPoolByGateway",
      "outputs": [],
      "stateMutability": "nonpayable",
      "type": "function"
    },
    {
      "inputs": [
        {
          "internalType": "address",
          "name": "refereeAA",
          "type": "address"
        }
      ],
      "name": "refereeChargePointsTotal6",
      "outputs": [
        {
          "internalType": "uint256",
          "name": "",
          "type": "uint256"
        }
      ],
      "stateMutability": "view",
      "type": "function"
    },
    {
      "inputs": [
        {
          "internalType": "address",
          "name": "referrerAA",
          "type": "address"
        }
      ],
      "name": "refereeCountByReferrer",
      "outputs": [
        {
          "internalType": "uint256",
          "name": "",
          "type": "uint256"
        }
      ],
      "stateMutability": "view",
      "type": "function"
    },
    {
      "inputs": [
        {
          "internalType": "address",
          "name": "refereeAA",
          "type": "address"
        }
      ],
      "name": "refereeReferrer",
      "outputs": [
        {
          "internalType": "address",
          "name": "",
          "type": "address"
        }
      ],
      "stateMutability": "view",
      "type": "function"
    },
    {
      "inputs": [],
      "name": "referrerRewardFromChargeRewardRatioE6",
      "outputs": [
        {
          "internalType": "uint256",
          "name": "",
          "type": "uint256"
        }
      ],
      "stateMutability": "view",
      "type": "function"
    },
    {
      "inputs": [],
      "name": "referrerTotalCount",
      "outputs": [
        {
          "internalType": "uint256",
          "name": "",
          "type": "uint256"
        }
      ],
      "stateMutability": "view",
      "type": "function"
    },
    {
      "inputs": [
        {
          "internalType": "address",
          "name": "refereeAA",
          "type": "address"
        }
      ],
      "name": "registerReferee",
      "outputs": [],
      "stateMutability": "nonpayable",
      "type": "function"
    },
    {
      "inputs": [],
      "name": "registeredRefereeTotalCount",
      "outputs": [
        {
          "internalType": "uint256",
          "name": "",
          "type": "uint256"
        }
      ],
      "stateMutability": "view",
      "type": "function"
    },
    {
      "inputs": [],
      "name": "renounceOwnership",
      "outputs": [],
      "stateMutability": "nonpayable",
      "type": "function"
    },
    {
      "inputs": [
        {
          "internalType": "address",
          "name": "adminAddr",
          "type": "address"
        }
      ],
      "name": "resetAdminLimit",
      "outputs": [],
      "stateMutability": "nonpayable",
      "type": "function"
    },
    {
      "inputs": [
        {
          "internalType": "address",
          "name": "adminAddr",
          "type": "address"
        },
        {
          "internalType": "address",
          "name": "authorizer",
          "type": "address"
        }
      ],
      "name": "resetAdminLimitByAdmin",
      "outputs": [],
      "stateMutability": "nonpayable",
      "type": "function"
    },
    {
      "inputs": [
        {
          "internalType": "address",
          "name": "from",
          "type": "address"
        },
        {
          "internalType": "address",
          "name": "to",
          "type": "address"
        },
        {
          "internalType": "uint256[]",
          "name": "ids",
          "type": "uint256[]"
        },
        {
          "internalType": "uint256[]",
          "name": "values",
          "type": "uint256[]"
        },
        {
          "internalType": "bytes",
          "name": "data",
          "type": "bytes"
        }
      ],
      "name": "safeBatchTransferFrom",
      "outputs": [],
      "stateMutability": "nonpayable",
      "type": "function"
    },
    {
      "inputs": [
        {
          "internalType": "address",
          "name": "from",
          "type": "address"
        },
        {
          "internalType": "address",
          "name": "to",
          "type": "address"
        },
        {
          "internalType": "uint256",
          "name": "id",
          "type": "uint256"
        },
        {
          "internalType": "uint256",
          "name": "value",
          "type": "uint256"
        },
        {
          "internalType": "bytes",
          "name": "data",
          "type": "bytes"
        }
      ],
      "name": "safeTransferFrom",
      "outputs": [],
      "stateMutability": "nonpayable",
      "type": "function"
    },
    {
      "inputs": [
        {
          "internalType": "address",
          "name": "operator",
          "type": "address"
        },
        {
          "internalType": "bool",
          "name": "approved",
          "type": "bool"
        }
      ],
      "name": "setApprovalForAll",
      "outputs": [],
      "stateMutability": "nonpayable",
      "type": "function"
    },
    {
      "inputs": [
        {
          "internalType": "uint256",
          "name": "attr",
          "type": "uint256"
        }
      ],
      "name": "setDefaultAttr",
      "outputs": [],
      "stateMutability": "nonpayable",
      "type": "function"
    },
    {
      "inputs": [
        {
          "internalType": "uint256",
          "name": "secs",
          "type": "uint256"
        }
      ],
      "name": "setExpirySeconds",
      "outputs": [],
      "stateMutability": "nonpayable",
      "type": "function"
    },
    {
      "inputs": [
        {
          "internalType": "uint256",
          "name": "priceInCurrencyE6",
          "type": "uint256"
        }
      ],
      "name": "setPointsUnitPrice",
      "outputs": [],
      "stateMutability": "nonpayable",
      "type": "function"
    },
    {
      "inputs": [
        {
          "internalType": "address",
          "name": "refereeAA",
          "type": "address"
        },
        {
          "internalType": "address",
          "name": "referrerAA",
          "type": "address"
        }
      ],
      "name": "setRefereeReferrer",
      "outputs": [],
      "stateMutability": "nonpayable",
      "type": "function"
    },
    {
      "inputs": [
        {
          "internalType": "uint256",
          "name": "ratioE6",
          "type": "uint256"
        }
      ],
      "name": "setReferrerRewardRatio",
      "outputs": [],
      "stateMutability": "nonpayable",
      "type": "function"
    },
    {
      "inputs": [
        {
          "components": [
            {
              "internalType": "uint256",
              "name": "minUsdc6",
              "type": "uint256"
            },
            {
              "internalType": "uint256",
              "name": "attr",
              "type": "uint256"
            },
            {
              "internalType": "uint256",
              "name": "tierExpirySeconds",
              "type": "uint256"
            }
          ],
          "internalType": "struct Tier[]",
          "name": "newTiers",
          "type": "tuple[]"
        }
      ],
      "name": "setTiers",
      "outputs": [],
      "stateMutability": "nonpayable",
      "type": "function"
    },
    {
      "inputs": [
        {
          "internalType": "address",
          "name": "target",
          "type": "address"
        },
        {
          "internalType": "bool",
          "name": "allowed",
          "type": "bool"
        }
      ],
      "name": "setTransferWhitelist",
      "outputs": [],
      "stateMutability": "nonpayable",
      "type": "function"
    },
    {
      "inputs": [
        {
          "internalType": "bool",
          "name": "enabled",
          "type": "bool"
        }
      ],
      "name": "setTransferWhitelistEnabled",
      "outputs": [],
      "stateMutability": "nonpayable",
      "type": "function"
    },
    {
      "inputs": [
        {
          "internalType": "bytes4",
          "name": "interfaceId",
          "type": "bytes4"
        }
      ],
      "name": "supportsInterface",
      "outputs": [
        {
          "internalType": "bool",
          "name": "",
          "type": "bool"
        }
      ],
      "stateMutability": "view",
      "type": "function"
    },
    {
      "inputs": [],
      "name": "symbol",
      "outputs": [
        {
          "internalType": "string",
          "name": "",
          "type": "string"
        }
      ],
      "stateMutability": "pure",
      "type": "function"
    },
    {
      "inputs": [
        {
          "internalType": "uint256",
          "name": "",
          "type": "uint256"
        }
      ],
      "name": "tiers",
      "outputs": [
        {
          "internalType": "uint256",
          "name": "minUsdc6",
          "type": "uint256"
        },
        {
          "internalType": "uint256",
          "name": "attr",
          "type": "uint256"
        },
        {
          "internalType": "uint256",
          "name": "tierExpirySeconds",
          "type": "uint256"
        }
      ],
      "stateMutability": "view",
      "type": "function"
    },
    {
      "inputs": [],
      "name": "tiersLength",
      "outputs": [
        {
          "internalType": "uint256",
          "name": "",
          "type": "uint256"
        }
      ],
      "stateMutability": "view",
      "type": "function"
    },
    {
      "inputs": [
        {
          "internalType": "uint256",
          "name": "",
          "type": "uint256"
        }
      ],
      "name": "tokenTierIndexOrMax",
      "outputs": [
        {
          "internalType": "uint256",
          "name": "",
          "type": "uint256"
        }
      ],
      "stateMutability": "view",
      "type": "function"
    },
    {
      "inputs": [],
      "name": "totalActiveMemberships",
      "outputs": [
        {
          "internalType": "uint256",
          "name": "",
          "type": "uint256"
        }
      ],
      "stateMutability": "view",
      "type": "function"
    },
    {
      "inputs": [],
      "name": "totalMembershipIssued",
      "outputs": [
        {
          "internalType": "uint256",
          "name": "",
          "type": "uint256"
        }
      ],
      "stateMutability": "view",
      "type": "function"
    },
    {
      "inputs": [
        {
          "internalType": "uint256",
          "name": "",
          "type": "uint256"
        }
      ],
      "name": "totalMembershipIssuedByTierIndex",
      "outputs": [
        {
          "internalType": "uint256",
          "name": "",
          "type": "uint256"
        }
      ],
      "stateMutability": "view",
      "type": "function"
    },
    {
      "inputs": [],
      "name": "totalMembershipUpgraded",
      "outputs": [
        {
          "internalType": "uint256",
          "name": "",
          "type": "uint256"
        }
      ],
      "stateMutability": "view",
      "type": "function"
    },
    {
      "inputs": [],
      "name": "totalSupply",
      "outputs": [
        {
          "internalType": "uint256",
          "name": "",
          "type": "uint256"
        }
      ],
      "stateMutability": "view",
      "type": "function"
    },
    {
      "inputs": [
        {
          "internalType": "uint256",
          "name": "id",
          "type": "uint256"
        }
      ],
      "name": "totalSupply",
      "outputs": [
        {
          "internalType": "uint256",
          "name": "",
          "type": "uint256"
        }
      ],
      "stateMutability": "view",
      "type": "function"
    },
    {
      "inputs": [
        {
          "internalType": "address",
          "name": "newOwner",
          "type": "address"
        }
      ],
      "name": "transferOwnership",
      "outputs": [],
      "stateMutability": "nonpayable",
      "type": "function"
    },
    {
      "inputs": [
        {
          "internalType": "address",
          "name": "",
          "type": "address"
        }
      ],
      "name": "transferWhitelist",
      "outputs": [
        {
          "internalType": "bool",
          "name": "",
          "type": "bool"
        }
      ],
      "stateMutability": "view",
      "type": "function"
    },
    {
      "inputs": [],
      "name": "transferWhitelistEnabled",
      "outputs": [
        {
          "internalType": "bool",
          "name": "",
          "type": "bool"
        }
      ],
      "stateMutability": "view",
      "type": "function"
    },
    {
      "inputs": [
        {
          "internalType": "address",
          "name": "refereeAA",
          "type": "address"
        }
      ],
      "name": "unregisterReferee",
      "outputs": [],
      "stateMutability": "nonpayable",
      "type": "function"
    },
    {
      "inputs": [],
      "name": "upgradeType",
      "outputs": [
        {
          "internalType": "uint8",
          "name": "",
          "type": "uint8"
        }
      ],
      "stateMutability": "view",
      "type": "function"
    },
    {
      "inputs": [
        {
          "internalType": "uint256",
          "name": "",
          "type": "uint256"
        }
      ],
      "name": "uri",
      "outputs": [
        {
          "internalType": "string",
          "name": "",
          "type": "string"
        }
      ],
      "stateMutability": "view",
      "type": "function"
    }
  ],
  "bytecode": "0x60a06040523461051d5761655b8038038061001981610521565b92833981016101008282031261051d5781516001600160401b03811161051d5781610045918401610546565b50602082015191600983101561051d5760408101519061006760608201610597565b9361007460808301610597565b9260a08301519260ff841680940361051d5760c081015195861515870361051d5760e08201516001600160401b03811161051d576100b29201610546565b916020965f6100c089610521565b52600254600181811c91168015610513575b8982101461048857601f81116104e1575b505f6002556001600160a01b03169485156104ce57600380546001600160a01b03198116881790915586906001600160a01b03167f8be0079c531659141344cd1fd0a4f28419497f9722a3daafe3b4186f6b6457e05f80a3600160045560646019556001600160a01b0381169081159081156104c4575b506104b557600285116104a65733608052600580546001600160a01b03191682179055600680546001600160a81b03191690911760a09290921b60ff60a01b169190911790556007558051906001600160401b0382116103ab57601b5490600182811c9216801561049c575b878310146104885781601f849311610430575b508690601f83116001146103ca575f926103bf575b50508160011b915f199060031b1c191617601b555b620f42407f669d986a32f5e30674d7f66bb8d44cc28fe3e0e39e2f1cd4349a57cbd64d6cc855620f42407f22c0a15d444e21db16bbb52e03d65846fb96a18771ae18cefb26e2b75b089ee25560ff19601a541617601a5560017fbc488d3e2575f0f2113dc4d9a0cd6bc52445c6bc28a8974ed97a6ba3ecfd657a55805f527fbc488d3e2575f0f2113dc4d9a0cd6bc52445c6bc28a8974ed97a6ba3ecfd657b835260405f20600160ff198254161790555f51602061653b5f395f51905f5254680100000000000000008110156103ab5760018101805f51602061653b5f395f51905f5255811015610397575f51602061653b5f395f51905f525f9081528490200180546001600160a01b031916909117905564174876e8007ffed699897f2561c8a98f833aa3de83c4904370d413fe5fb15abe26e9f8150b295561035a575b604051615f8f90816105ac82396080518161394e0152f35b7fc52867146282c253c04e94eb2a948478a1f7ef84cf2d6f5864facc99f2203f2c90600160ff19600a541617600a5560405160018152a15f610342565b634e487b7160e01b5f52603260045260245ffd5b634e487b7160e01b5f52604160045260245ffd5b015190505f806101ee565b601b5f9081528881209350601f198516905b8982821061041a575050908460019594939210610402575b505050811b01601b55610203565b01515f1960f88460031b161c191690555f80806103f4565b60018596829396860151815501950193016103dc565b828111156101d957909150601b5f52865f20601f840160051c90888510610480575b849392601f0160051c82900391015f5b8281106104705750506101d9565b5f81830155859450600101610462565b5f9150610452565b634e487b7160e01b5f52602260045260245ffd5b91607f16916101c6565b63c7e283e160e01b5f5260045ffd5b63ab82bb9960e01b5f5260045ffd5b90503b155f61015a565b631e4fbdf760e01b5f525f60045260245ffd5b80156100e35760025f52601f895f20910160051c905f5b8281106105065750506100e3565b5f828201556001016104f8565b90607f16906100d2565b5f80fd5b6040519190601f01601f191682016001600160401b038111838210176103ab57604052565b81601f8201121561051d578051906001600160401b0382116103ab57610575601f8301601f1916602001610521565b928284526020838301011161051d57815f9260208093018386015e8301015290565b51906001600160a01b038216820361051d5756fe60806040526004361015610019575b3415614c43575b5f80fd5b5f3560e01c80629019b214610888578062fdd58e1461088357806301ffc9a71461087e578063039af9eb1461087957806303ca3e381461087457806304edc1a71461086f57806306fdde031461086a5780630a106e9c146108655780630b6c8d71146108605780630cb856411461085b5780630e4ab487146108565780630e89341c146108515780630ec3786b1461084c5780631018c34b1461084757806310bba86414610842578063116191b6146107a75780631284b92f1461083d578063132220f01461083857806315c39d9d1461083357806317c957091461069957806318160ddd1461082e5780631b09a97e146107115780631c790e24146108295780631fe56e6a1461082457806324d7806c1461081f578063279181f31461081a5780632a27fc3c146108155780632aff2a59146108105780632b681a541461080b5780632d0da7d2146108065780632dd50a49146108015780632df08b9c146107fc5780632eb2c2d6146107f757806330617703146107f257806333d4e562146107ed5780633c703d45146107e85780633c970fb9146107e357806343159ce5146107de5780634321976f146107d9578063475e53ec146107d457806348ed7ebe146107cf5780634932c0d6146107ca57806349dd0900146107c55780634a1fb451146107c05780634dda2215146107bb5780634e1273f4146107b65780634e6ef844146107b157806352304691146107ac57806353785619146107a75780635476d071146107a2578063562178481461079d5780635637d5bc14610798578063564da757146107935780635932ab261461078e5780635cae09f2146107895780636465c3a714610784578063671395c81461077f578063684cc3a51461077a5780636d31542114610775578063706e013214610770578063715018a61461076b57806371b8982f146106175780637766fa44146107665780637d879f9b146107615780637e1ed94b1461075c5780637ffbe24114610757578063810b0e011461075257806382b720c91461074d57806383dbbf5314610748578063897828a8146107435780638a1b32bb1461073e5780638abc9b25146107395780638c29dce0146107345780638da5cb5b1461072f578063918e29991461072a57806394b2e946146107255780639557ff44146107205780639565c5421461071b57806395d89b4114610716578063976ae3861461071157806398951b561461070c5780639a1ffd55146107075780639d712e3b146107025780639f1bbda7146106fd5780639f3d1a2a146106f85780639f48facc146106f3578063a22cb465146106ee578063a4790446146106e9578063a657a65b146106e4578063a876c759146106df578063a98d916e146106da578063aad3d45e146106d5578063acf12d3d146106d0578063af7ffa2b146106cb578063b676a96c146106c6578063b6c12c5f1461061c578063b9ad3aa7146106c1578063bd85b039146106bc578063bdf70fd9146106b7578063bf70f559146106b2578063c163292e146106ad578063c231c2a7146106a8578063c926bbfd146106a3578063cb9409691461069e578063cb975e8114610699578063cc73bcbe14610694578063d05dcc6a14610685578063d4506e771461068f578063d4772f521461068a578063d4b5d60314610685578063d52dc51514610680578063d5f394881461067b578063d85fa36214610676578063dd1bc5e914610671578063df1f44ac1461066c578063df6811dd14610667578063e221c8f314610662578063e2f972711461065d578063e4a34dce14610658578063e5a6b10f14610653578063e5df8c2f1461064e578063e6b7082514610649578063e985e9c514610644578063ea2b86721461063f578063eae134fd1461063a578063ec12577114610635578063ee3bb7b814610630578063f141b0a11461062b578063f242432a14610626578063f2fde38b14610621578063f540f2271461061c578063f986f67614610617578063fcef6b0114610612578063fd4c7a291461060d578063fee3d73e14610608578063ff9b25f4146106035763ffa1ad740361000e57614199565b6140e1565b6140c1565b6140a4565b614087565b612610565b61340a565b614010565b613f48565b613eca565b613eaf565b613e5d565b613dad565b613d0e565b613cdd565b613c48565b613bdd565b613bb1565b613b73565b613afb565b613aa9565b613a82565b6139f2565b61399c565b61397d565b613939565b613917565b613808565b61388a565b613832565b613752565b61133d565b613722565b613708565b6136df565b61363c565b6134ed565b6134c9565b613480565b613434565b61335d565b6132ea565b6132cd565b61329e565b61327f565b613262565b613207565b61319f565b613114565b612fb6565b612eff565b612ee2565b612ea7565b612e7a565b612df8565b6113a3565b612db0565b612d88565b612d35565b612cfa565b612c6a565b612c42565b612bb2565b612ad1565b612a29565b6129c7565b61295b565b612863565b612823565b6127e3565b61275b565b61272b565b61265d565b612590565b612511565b6124b3565b61246a565b61242f565b6123a2565b612343565b612302565b61228f565b612274565b61224a565b61222d565b61118b565b61216f565b6120d2565b612011565b611fb0565b611f1d565b611eba565b611e36565b611d65565b611cd8565b611bd6565b611a80565b6119fb565b6119b2565b611981565b61191e565b61188a565b6116b0565b611691565b611660565b61163b565b6115b6565b611533565b6114d0565b61149b565b611471565b6113d3565b611367565b6112c4565b6112a9565b61124d565b61114c565b6110ef565b611093565b610fcc565b610f7e565b610f21565b610e69565b610d56565b610c32565b610bbf565b610a7e565b610a14565b61095b565b61090d565b61089e565b6001600160a01b0381160361001557565b34610015576040366003190112610015576004356108bb8161088d565b602435903033036108fe576040519182526001600160a01b0316907f3e38a9410c08ddb4af8b083bfd2b197b1c3e61a651bd1c54c51ebce0cdcdc48e90602090a2005b630fc5e1ab60e41b5f5260045ffd5b3461001557604036600319011261001557602061094060043561092f8161088d565b6024355f525f835260405f20611223565b54604051908152f35b6001600160e01b031981160361001557565b3461001557602036600319011261001557602060043561097a81610949565b63ffffffff60e01b16636cdb3d1360e11b81149081156109b8575b81156109a7575b506040519015158152f35b6301ffc9a760e01b1490505f61099c565b6303a24d0760e21b81149150610995565b634e487b7160e01b5f52603260045260245ffd5b6017548110156109f95760175f52600360205f20910201905f90565b6109c9565b6040919493926060820195825260208201520152565b346100155760203660031901126100155760043560175481101561001557610a3b906109dd565b508054610a5760026001840154930154604051938493846109fe565b0390f35b606090600319011261001557600435610a738161088d565b906024359060443590565b3461001557610a8c36610a5b565b6006545f9391906001600160a01b031680610b4557506005546001600160a01b03165b6001600160a01b03163303610b3657610ac6614cda565b73__$3eaf591ed8966daf2821da51125ab266f1$__803b1561001557610b06935f9360405195869485938493636f246bab60e11b855230600486016141b4565b03915af48015610b3157610b1e575b50600160045580f35b610b2a91505f90611775565b5f5f610b15565b6141de565b6396f47d2360e01b5f5260045ffd5b610aaf565b6044359060ff8216820361001557565b9181601f84011215610015578235916001600160401b038311610015576020838186019501011161001557565b805180835260209291819084018484015e5f828201840152601f01601f1916010190565b906020610bbc928181520190610b87565b90565b346100155760403660031901126100155760043560ff81168103610015576024356001600160401b03811161001557610bfc903690600401610b5a565b913033036108fe57610c16610c1c92610a57943691611839565b90614d6e565b60405191829182610bab565b5f91031261001557565b34610015575f366003190112610015576040515f601b548060011c91600182168015610d27575b602084108114610d135783855284926020840191908115610cfa5750600114610ca5575b50610c8a92500382611775565b8051610c9c5750610a57610c1c6141e9565b610a5790610c1c565b601b5f90815291507f3ad8aa4f87544323a9d1e5dd902f40c356527a7955687113db5f9a85ad579dc15b848310610ce35750610c8a9350015f610c7d565b805482840152859350602090920191600101610ccf565b60ff1916825250610c8a93151560051b0190505f610c7d565b634e487b7160e01b5f52602260045260245ffd5b92607f1692610c59565b604090600319011261001557600435610d498161088d565b90602435610bbc8161088d565b3461001557610d6436610d31565b6006545f92906001600160a01b031680610df657506005546001600160a01b03165b6001600160a01b03163303610b365773__$3c477d5d68b513e5270f7570f908764970$__91823b156100155760405163055a8d8160e51b8152925f92849283918291610dd6913060048501614217565b03915af48015610b3157610de8575080f35b610df491505f90611775565b005b610d86565b6060602091604081019381526040838201528451809452019201905f5b818110610e255750505090565b909192602060a06001926080875180518352848101518584015260408101516040840152606081015160608401520151151560808201520194019101919091610e18565b3461001557602036600319011261001557610eb26020600435610e8b8161088d565b60055460405163805a016360e01b815293849283926001600160a01b031660048401614619565b038173__$a9219284c3f0d74f57f4dcfc58f5429559$__5af48015610b3157610ee2915f91610ef2575b50614304565b90610a5760405192839283610dfb565b610f14915060203d602011610f1a575b610f0c8183611775565b810190614443565b5f610edc565b503d610f02565b3461001557604036600319011261001557600435610f3e8161088d565b600654602435906001600160a01b031680610f7957506005546001600160a01b03165b6001600160a01b03163303610b3657610df491614d87565b610f61565b3461001557602036600319011261001557600435610f9a614eb5565b7ff316e065e93b4fddef3d2d93a57817985081f76ea9e0ca7417ed5b4b086b1fcb6020601854604051908152a1601855005b346100155760203660031901126100155761100b5f610fe9614f0a565b604051809381926319c56d4160e21b8352604060048401526044830190610b87565b306024830152038173__$9326044641c87b14e434c703319e7fbd9b$__5af48015610b3157610a57915f91611048575b5060405191829182610bab565b61106491503d805f833e61105c8183611775565b81019061423a565b5f61103b565b6060906003190112610015576004356110828161088d565b9060243590604435610bbc8161088d565b34610015576110a13661106a565b6006549091906001600160a01b0316806110ea57506005546001600160a01b03165b6001600160a01b03163303610b36576110e3926110de614cda565b614f79565b6001600455005b6110c3565b346100155760403660031901126100155760043561110c8161088d565b600654602435906001600160a01b03168061114757506005546001600160a01b03165b6001600160a01b03163303610b3657610df491614fd6565b61112f565b34610015575f36600319011261001557602060405160068152f35b6001600160a01b0316600452602490565b6001600160a01b03909116815260200190565b34610015575f366003190112610015576005546040516001600160a01b039091168152602090f35b6001600160a01b03165f9081527fbc488d3e2575f0f2113dc4d9a0cd6bc52445c6bc28a8974ed97a6ba3ecfd657b6020526040902090565b6001600160a01b03165f9081527fbe5c2328713858b26c97b83c5ace333ac35b55572be4794180ba426b12cc48c46020526040902090565b9060018060a01b03165f5260205260405f2090565b80548210156109f9575f5260205f2001905f90565b346100155760403660031901126100155760043561126a8161088d565b6001600160a01b03165f908152600e60205260409020805460243591908210156100155760209161129a91611238565b90549060031b1c604051908152f35b34610015575f36600319011261001557602060405160018152f35b34610015576040366003190112610015576004356112e18161088d565b6024356001600160401b03811161001557611300903690600401610b5a565b903033036108fe575f83838293610a57956040519283928337810184815203915af461132a61429c565b5060405190151581529081906020820190565b34610015576020366003190112610015576004355f52600b602052602060405f2054604051908152f35b34610015575f3660031901126100155760207fd34312c2e21f45f2b6715cf87d9e919b2098c835582e2b5c6e716490b0dfd0d554604051908152f35b34610015576040366003190112610015576004356113c08161088d565b6024353033036108fe57610df4916148f7565b34610015575f6040366003190112610015576004356024356113f48161088d565b6006546001600160a01b03168061146c57506005546001600160a01b03165b6001600160a01b03163303610b365773__$9c8bea727f7bd63306a827421d136dff37$__906114406150a5565b91803b1561001557610dd6935f9360405195869485938493634961ea3960e01b855230600486016142cb565b611413565b34610015576020366003190112610015576004355f526011602052602060405f2054604051908152f35b3461001557602036600319011261001557602060ff6114c46004356114bf8161088d565b6111b3565b54166040519015158152f35b34610015576060366003190112610015576024356004356114f08261088d565b604435913033036108fe576040519283526001600160a01b0316917fae2f87dbf103db294ddd4ab45caa7a914d70bb3d06eeb8a8dc23e03e84548c8d90602090a3005b34610015575f36600319011261001557604051630a89ff0f60e21b815260208160048173__$d22e98e2656d9a6189be97d809b75d9ca7$__5af4908115610b31575f91611587575b50604051908152602090f35b6115a9915060203d6020116115af575b6115a18183611775565b8101906142f5565b5f61157b565b503d611597565b34610015576115c436610d31565b6006545f92906001600160a01b03168061163657506005546001600160a01b03165b6001600160a01b03163303610b365773__$3c477d5d68b513e5270f7570f908764970$__91823b1561001557604051638461257560e01b8152925f92849283918291610dd6913060048501614217565b6115e6565b3461001557602036600319011261001557610ee260043561165b8161088d565b614304565b346100155760203660031901126100155760206109406004356116828161088d565b5f80525f835260405f20611223565b34610015576110e36116a23661106a565b916116ab614cda565b61446d565b34610015576020366003190112610015576004356116cd8161088d565b60018060a01b03165f527f22c0a15d444e21db16bbb52e03d65846fb96a18771ae18cefb26e2b75b089ee9602052602060405f2054604051908152f35b634e487b7160e01b5f52604160045260245ffd5b606081019081106001600160401b0382111761173957604052565b61170a565b61010081019081106001600160401b0382111761173957604052565b60a081019081106001600160401b0382111761173957604052565b601f909101601f19168101906001600160401b0382119082101761173957604052565b604051906117a861010083611775565b565b6001600160401b0381116117395760051b60200190565b9080601f830112156100155781356117d8816117aa565b926117e66040519485611775565b81845260208085019260051b82010192831161001557602001905b82821061180e5750505090565b8135815260209182019101611801565b6001600160401b03811161173957601f01601f191660200190565b9291926118458261181e565b916118536040519384611775565b829481845281830111610015578281602093845f960137010152565b9080601f8301121561001557816020610bbc93359101611839565b346100155760a0366003190112610015576004356118a78161088d565b602435906118b48261088d565b6044356001600160401b038111610015576118d39036906004016117c1565b6064356001600160401b038111610015576118f29036906004016117c1565b608435939091906001600160401b03851161001557611918610df495369060040161186f565b93614633565b346100155760203660031901126100155760043561193b8161088d565b6001600160a01b039081165f9081527f22c0a15d444e21db16bbb52e03d65846fb96a18771ae18cefb26e2b75b089ee16020908152604091829020549151919092168152f35b346100155760203660031901126100155760206119a86004356119a38161088d565b61468c565b6040519015158152f35b34610015576020366003190112610015576004355f527ffed699897f2561c8a98f833aa3de83c4904370d413fe5fb15abe26e9f8150b30602052602060405f2054604051908152f35b34610015576040366003190112610015576110e3600435611a1b8161088d565b602435611a26614cda565b611a2e614eb5565b611a6e60135491611a6960145494611a5b604051938492635bcc7ca960e11b6020850152602484016146f4565b03601f198101835282611775565b614cfa565b506003546001600160a01b031661516c565b3461001557604036600319011261001557600435611a9d8161088d565b6024356006546001600160a01b031680611bd157506005546001600160a01b03165b6001600160a01b03163303610b3657611ad6614cda565b9081906001600160a01b03811615611bc257611af1906151cd565b5f80805260205290611b15825f516020615f635f395f51905f52611223565b611223565b54908115611b89575f1914611bba575b808311611b9857508115611b8957611b7c81611b62847fcfaedf921126ed75cd0b52e9418d816572c256b67104e03066bd3f067f2d53c094615226565b6040519384526001600160a01b0316929081906020820190565b0390a2610df46001600455565b63201165f360e21b5f5260045ffd5b60405163406e3ab960e01b8152928392611bb692906004850161470f565b0390fd5b915081611b25565b63a9b8048960e01b5f5260045ffd5b611abf565b3461001557608036600319011261001557600435611bf38161088d565b60443590602435606435611c068161088d565b6006546001600160a01b031680611cd357506005546001600160a01b03165b6001600160a01b03163303610b3657611c3c614cda565b6007549273__$ff68ecfc9a6b7df0c313e683766fad5a92$__803b15610015575f9460c4936040519788968795639120622d60e01b875230600488015260018060a01b031660248701526044860152606485015260018060a01b0316608484015260a48301525af48015610b3157611cb9575b610df46001600455565b80611cc75f611ccd93611775565b80610c28565b5f611caf565b611c25565b3461001557611ce636610a5b565b6006545f9391906001600160a01b031680611d6057506005546001600160a01b03165b6001600160a01b03163303610b3657611d20614cda565b73__$ff68ecfc9a6b7df0c313e683766fad5a92$__803b1561001557610b06935f93604051958694859384936302f46e9b60e41b855230600486016141b4565b611d09565b3461001557611d733661106a565b6006549192916001600160a01b031680611e3157506005546001600160a01b03165b6001600160a01b03163303610b3657611dac614cda565b611dc6611dc2611dbb836111b3565b5460ff1690565b1590565b611e225773__$91c961bf2335aa1fea43924da854687380$__803b1561001557611e0a935f936040519586948593849363298a0b4f60e01b855230600486016142cb565b03915af48015610b3157611cb957610df46001600455565b6363bc5ecb60e11b5f5260045ffd5b611d95565b346100155760203660031901126100155760405163272048d960e01b8152600480359082015260208160248173__$d22e98e2656d9a6189be97d809b75d9ca7$__5af48015610b3157610a57915f91611e9b575b506040519081529081906020820190565b611eb4915060203d6020116115af576115a18183611775565b5f611e8a565b3461001557602036600319011261001557600435611ed78161088d565b6001600160a01b039081165f9081527fbc488d3e2575f0f2113dc4d9a0cd6bc52445c6bc28a8974ed97a6ba3ecfd65816020908152604091829020549151919092168152f35b3461001557604036600319011261001557600435611f3a8161088d565b602435903033036108fe5773__$adebdcecd2f155df8eaaefe9132ef681e6$__91823b156100155760405163b8220efb60e01b81523060048201526001600160a01b0390921660248301526044820152905f90829060649082905af48015610b3157611fa257005b80611cc75f610df493611775565b34610015575f366003190112610015576020600754604051908152f35b90602080835192838152019201905f5b818110611fea5750505090565b8251845260209384019390920191600101611fdd565b906020610bbc928181520190611fcd565b34610015576040366003190112610015576004356001600160401b03811161001557366023820112156100155780600401359061204d826117aa565b9161205b6040519384611775565b8083526024602084019160051b8301019136831161001557602401905b8282106120b857836024356001600160401b03811161001557610a57916120a66120ac9236906004016117c1565b9061479b565b60405191829182612000565b6020809183356120c78161088d565b815201910190612078565b34610015576040366003190112610015576004356120ef8161088d565b6024356006546001600160a01b03168061216a57506005546001600160a01b03165b6001600160a01b03163303610b3657612128614cda565b6001600160a01b03821615611bc25761215d61216292611a5b60405193849263139bbe1160e21b6020850152602484016146f4565b614d54565b506001600455005b612111565b346100155760203660031901126100155760043561218c8161088d565b612194615245565b61219d81615274565b73__$d22e98e2656d9a6189be97d809b75d9ca7$__90813b1561001557604051635230469160e01b81526001600160a01b0390911660048201819052915f90829060249082905af48015610b3157612219575b5033907fb414de90006d2f0dee7e12639f50b309b8fbca8e8e9323c07fd358cef0ce92085f80a3005b80611cc75f61222793611775565b5f6121f0565b34610015575f366003190112610015576020601554604051908152f35b34610015576020366003190112610015576004355f526012602052602060405f2054604051908152f35b34610015575f36600319011261001557602060405160648152f35b34610015575f6040366003190112610015576004356122ad8161088d565b602435906122b9614cda565b6122c1614eb5565b73__$91c961bf2335aa1fea43924da854687380$__91823b1561001557604051636042127160e11b8152925f92849283918291610b06913060048501614815565b346100155760203660031901126100155760043561231f8161088d565b3033036108fe576123316020916151cd565b6040516001600160a01b039091168152f35b34610015576020366003190112610015576004356123608161088d565b60018060a01b03165f527f22c0a15d444e21db16bbb52e03d65846fb96a18771ae18cefb26e2b75b089ee0602052602060ff60405f2054166040519015158152f35b34610015576123b036610a5b565b6006545f9391906001600160a01b03168061242a57506005546001600160a01b03165b6001600160a01b03163303610b36576123ea614cda565b73__$3eaf591ed8966daf2821da51125ab266f1$__803b1561001557610b06935f936040519586948593849363379d191f60e01b855230600486016141b4565b6123d3565b346100155760203660031901126100155760043561244c8161088d565b60018060a01b03165f52600f602052602060405f2054604051908152f35b34610015576020366003190112610015576004355f527ffed699897f2561c8a98f833aa3de83c4904370d413fe5fb15abe26e9f8150b2d602052602060405f2054604051908152f35b34610015576124c136610a5b565b90913033036108fe576001600160a01b038116156124ff576124e75f92610df4946158fb565b929091816040516124f9602082611775565b526155c2565b626a0d4560e21b5f525f60045260245ffd5b346100155761251f36610a5b565b61252a929192614cda565b612532614eb5565b6001600160a01b03821615611bc2578015611b895761256573__$ff68ecfc9a6b7df0c313e683766fad5a92$__926151cd565b91803b1561001557611e0a935f9360405195869485938493626fbc3360e31b855230600486016141b4565b34610015575f366003190112610015576125a8615350565b600380546001600160a01b031981169091555f906001600160a01b03165f516020615f435f395f51905f528280a3005b604060031982011261001557600435906001600160401b0382116100155761260291600401610b5a565b9091602435610bbc8161088d565b346100155761261e366125d8565b6006549091906001600160a01b03168061265857506005546001600160a01b03165b6001600160a01b03163303610b3657610df492614837565b612640565b346100155761266b366125d8565b6006546001600160a01b03168061272657506005546001600160a01b03165b6001600160a01b03163303610b36576126a1614cda565b73__$14fcd45fd929aea0b8f272435d174b619d$__6126be6150a5565b93813b15610015575f936126f7936040519687958694859463add0055d60e01b86523060048701526080602487015260848601916148c4565b6001600160a01b0392831660448501529116606483015203915af48015610b3157611cb957610df46001600455565b61268a565b34610015576040366003190112610015576004356127488161088d565b6024353033036108fe57610df491615377565b346100155760c0366003190112610015576004356127788161088d565b602435906127858261088d565b604435916064359060843560a435913033036108fe576127de7fd8315aa093986599acfce9ddc9df890135154ffe58abebb49d1874c03575f9d99360405193849360018060a01b03169760018060a01b031696846109fe565b0390a4005b34610015576020366003190112610015576004356128008161088d565b60018060a01b03165f526009602052602060ff60405f2054166040519015158152f35b3461001557604036600319011261001557602061129a6004356128458161088d565b6001600160a01b03165f908152600e83526040902060243590611238565b346100155760a03660031901126100155760043561288081610949565b60243561288c8161088d565b604435606435906084356006549093906001600160a01b03168061295657506005546001600160a01b03165b6001600160a01b03163303610b36576128cf6150a5565b6040516333033a9960e21b81523060048201526001600160a01b0391821660248201526001600160e01b03199096166044870152166064850152608484015260a483015260c482015260208160e48173__$9c8bea727f7bd63306a827421d136dff37$__5af48015610b3157610a57915f91611e9b57506040519081529081906020820190565b6128b8565b3461001557602036600319011261001557600435612977614eb5565b80156129ae576020817fd45b01a2f21a7aa8a0f57023efdce73147de071e77875c3f4d486b1e13eaef7092600755604051908152a1005b6376024b7160e01b5f5260045ffd5b8015150361001557565b34610015576020366003190112610015577fc52867146282c253c04e94eb2a948478a1f7ef84cf2d6f5864facc99f2203f2c6020600435612a07816129bd565b612a0f614eb5565b151560ff19600a541660ff821617600a55604051908152a1005b3461001557602036600319011261001557600435612a468161088d565b6006546001600160a01b031680612acc57506005546001600160a01b03165b6001600160a01b03163303610b365773__$3c477d5d68b513e5270f7570f908764970$__90813b1561001557604051630c94249760e21b81523060048201526001600160a01b039091166024820152905f90829060449082905af48015610b3157611fa257005b612a65565b3461001557606036600319011261001557604435600435602435612af3614eb5565b8115612ba3576017549060405193612b0a8561171e565b83855260208501918083526040860195828752600160401b8510156117395760018501601755612b39856109dd565b919091612b9e577fc9553df3224b08515381089b4a0e07d62144ba87c402485fabd66899cadc2ab197612b999560029251845551600184015551910155604051948594859094939260609260808301968352602083015260408201520152565b0390a1005b6148e4565b639033099360e01b5f5260045ffd5b3461001557604036600319011261001557600435612bcf8161088d565b6024356006546001600160a01b031680612c3d57506005546001600160a01b03165b6001600160a01b03163303610b3657612c08614cda565b6001600160a01b03821615611bc25761215d61216292611a5b604051938492633acaf10960e01b6020850152602484016146f4565b612bf1565b34610015575f366003190112610015576003546040516001600160a01b039091168152602090f35b3461001557604036600319011261001557600435612c878161088d565b6024356006546001600160a01b031680612cf557506005546001600160a01b03165b6001600160a01b03163303610b3657612cc0614cda565b6001600160a01b03821615611bc25761215d61216292611a5b60405193849263b933dba960e01b6020850152602484016146f4565b612ca9565b3461001557602036600319011261001557600435612d178161088d565b60018060a01b03165f526010602052602060405f2054604051908152f35b34610015575f36600319011261001557604051632555ffd160e21b815260208160048173__$d22e98e2656d9a6189be97d809b75d9ca7$__5af4908115610b31575f916115875750604051908152602090f35b34610015575f366003190112610015576006546040516001600160a01b039091168152602090f35b34610015575f36600319011261001557610a57604051612dd1604082611775565b60068152654245414d494f60d01b6020820152604051918291602083526020830190610b87565b34610015575f60203660031901126100155760043560ff612e18336111b3565b541615611e225773__$9c8bea727f7bd63306a827421d136dff37$__90612e3d6150a5565b90823b1561001557604051633225b39f60e01b8152925f92849283918291610dd6913060048501614815565b908152602081019190915260400190565b34610015575f366003190112610015573033036108fe5760135460145490610a5760405192839283612e69565b3461001557602036600319011261001557600435612ec48161088d565b60018060a01b03165f52600e602052602060405f2054604051908152f35b34610015575f366003190112610015576020600854604051908152f35b34610015575f36600319011261001557610a57612f1a614f0a565b604051918291602083526020830190610b87565b81516001600160401b039081168252602080840151909116908201526040808301516001600160801b039081169183019190915260608084015190911690820152610100810192916117a8919060e090819060808181015115159085015260a08181015160ff169085015260c08181015160ff169085015201516001600160801b0316910152565b34610015576020366003190112610015576004355f60e0604051612fd98161173e565b8281528260208201528260408201528260608201528260808201528260a08201528260c082015201525f527fe5fcefe92466b78c655fa732b80b16e07a00f2a897e833e17d9914703cad5632602052610a5760405f206130e36130d36002604051936130448561173e565b80546001600160401b038082168752604082901c1660208701526130759060801c6001600160801b03166040870152565b60018101546001600160801b03811660608701526130c5906130bb906130a5608082901c60ff16151560808a0152565b60ff608882901c1660a089015260901c60ff1690565b60ff1660c0870152565b01546001600160801b031690565b6001600160801b031660e0830152565b60405191829182612f2e565b6040906003190112610015576004356131078161088d565b90602435610bbc816129bd565b3461001557613122366130ef565b6001600160a01b03821691821561318d578161314c61315d92335f52600160205260405f20611223565b9060ff801983541691151516179055565b60405190151581527f17307eab39ab6107e8899845ad3d59bd9653f200f220920489ca2b5937696c3160203392a3005b62ced3e160e81b5f525f60045260245ffd5b34610015576040366003190112610015576004356001600160401b0381116100155736602382011215610015576004810135906001600160401b038211610015573660248360051b8301011161001557610df49160248035926132018461088d565b01614923565b34610015576020366003190112610015576004356001600160401b03811161001557366023820112156100155760048101356001600160401b038111610015573660246060830284010111610015576024610df49201614b2c565b34610015575f366003190112610015576020601854604051908152f35b34610015575f36600319011261001557602060405164174876e8008152f35b34610015575f366003190112610015573033036108fe576003546040516001600160a01b039091168152602090f35b34610015575f366003190112610015576020601354604051908152f35b34610015576040366003190112610015576004356133078161088d565b60065460243591906001600160a01b03168061335857506005546001600160a01b03165b6001600160a01b03163303610b36576110e391613346614cda565b6003546001600160a01b031691614f79565b61332b565b34610015576040366003190112610015576007546040805163cc383d9f60e01b8152918290819061339790602435600480359085016109fe565b038173__$ff68ecfc9a6b7df0c313e683766fad5a92$__5af4908115610b31575f905f926133d0575b50610a5760405192839283612e69565b9150506040813d604011613402575b816133ec60409383611775565b810103126100155760208151910151905f6133c0565b3d91506133df565b34610015576020366003190112610015576004355f52600d602052602060405f2054604051908152f35b34610015575f366003190112610015573033036108fe5760ff60065460a01c16600981101561346c5760405160ff9091168152602090f35b634e487b7160e01b5f52602160045260245ffd5b34610015576020366003190112610015576004355f527fd34312c2e21f45f2b6715cf87d9e919b2098c835582e2b5c6e716490b0dfd0d4602052602060405f2054604051908152f35b34610015575f366003190112610015573033036108fe576020600754604051908152f35b34610015576134fb36610a5b565b913033036108fe57602092604051926135148585611775565b5f84526001600160a01b03831691821561362957613531916158fb565b9161353e8383865f6155c2565b815160010361355b57509380610df4950151910151915f33615e64565b83949192933b61356757005b61358d935f87946040519687958694859363bc197c8160e01b8552853360048701615dd8565b03925af15f91816135fa575b506135cb57506135a761429c565b80519290836135c657632bfa23e760e11b5f526135c383611167565b5ffd5b019050fd5b9091506001600160e01b0319166343e6837f60e01b016135e757005b632bfa23e760e11b5f526135c390611167565b61361b919250843d8611613622575b6136138183611775565b810190615dc3565b905f613599565b503d613609565b632bfa23e760e11b5f525f60045260245ffd5b34610015576020366003190112610015576004356136598161088d565b613661615245565b73__$d22e98e2656d9a6189be97d809b75d9ca7$__90813b15610015576040516360b1949760e11b81526001600160a01b0390911660048201819052915f90829060249082905af48015610b31576136cb575b505f33915f516020615f035f395f51905f528280a4005b80611cc75f6136d993611775565b5f6136b4565b34610015575f3660031901126100155760205f516020615f235f395f51905f5254604051908152f35b34610015575f3660031901126100155760206040515f8152f35b346100155760403660031901126100155760043561373f8161088d565b6024353033036108fe57610df491614bc9565b346100155760203660031901126100155760043561376f8161088d565b3033036108fe57604051633e0b1ec360e21b81523060048201526001600160a01b03909116602482015260208160448173__$adebdcecd2f155df8eaaefe9132ef681e6$__5af48015610b3157610a57915f916137d9575060405190151581529081906020820190565b6137fb915060203d602011613801575b6137f38183611775565b810190614458565b5f61132a565b503d6137e9565b34610015576020366003190112610015576004355f52600c602052602060405f2054604051908152f35b346100155760203660031901126100155760043561384e614eb5565b7f1c8121c98d871a1523a6112e29ac660378afbcb9b921cff8f187c3da35d170818160085461388260405192839283612e69565b0390a1600855005b346100155760a0366003190112610015576004356138a78161088d565b6024356138b38161088d565b6138bb610b4a565b90606435608435913033036108fe577faec7eac010683474b50da2ca2793836009e34ef09022b5ec5d16de3342dbb7469260609260ff604051961686526020860152604085015260018060a01b03169360018060a01b031692a3005b34610015575f36600319011261001557602060ff600a54166040519015158152f35b34610015575f366003190112610015576040517f00000000000000000000000000000000000000000000000000000000000000006001600160a01b03168152602090f35b346100155761398b36610a5b565b903033036108fe57610df49261516c565b34610015576020366003190112610015576004355f526016602052602060405f2054604051908152f35b6060906003190112610015576004356139de8161088d565b906024356139eb8161088d565b9060443590565b3461001557613a00366139c6565b91903033036108fe575f808052602052613a27825f516020615f635f395f51905f52611223565b54808411613a645750613a38614733565b90613a41614733565b928251156109f9575f60208401528351156109f957610df49460208501526155c2565b82611bb68560405193849363406e3ab960e01b85526004850161470f565b34610015575f366003190112610015573033036108fe57602060ff601a5416604051908152f35b3461001557613ab7366139c6565b903033036108fe576040519182526001600160a01b039081169216907f6ac4f60455173f2148d89d52868ac4ffb14111720d245aa36ad26e0d7e64c59b90602090a3005b3461001557602036600319011261001557600435613b188161088d565b60405163e2f9727160e01b81526001600160a01b03909116600482015260208160248173__$d22e98e2656d9a6189be97d809b75d9ca7$__5af48015610b3157610a57915f91611e9b57506040519081529081906020820190565b3461001557610df4613b84366130ef565b90613b8d614eb5565b60018060a01b03165f52600960205260405f209060ff801983541691151516179055565b34610015575f3660031901126100155760ff60065460a01c16604051600982101561346c576020918152f35b34610015576020366003190112610015577f22347ec833323e597ceae8cffe5b0b7024b50a318357296b6ad3a548e1c66ec7600435613c1a615245565b5f516020615f235f395f51905f5254815f516020615f235f395f51905f5255612b9960405192839283612e69565b3461001557604036600319011261001557600435613c658161088d565b6024356006546001600160a01b031680613cd857506005546001600160a01b03165b6001600160a01b03163303610b3657613c9e614cda565b6001600160a01b03821615611bc257613cd361216292611a5b604051938492631f79107d60e21b6020850152602484016146f4565b614d61565b613c87565b3461001557602060ff6114c4613cf236610d31565b6001600160a01b039091165f9081526001855260409020611223565b34610015575f604036600319011261001557600435613d2c8161088d565b60065460243591906001600160a01b031680613da857506005546001600160a01b03165b6001600160a01b03163303610b3657613d67614cda565b73__$ff68ecfc9a6b7df0c313e683766fad5a92$__91823b15610015576040516351aa172f60e01b8152925f92849283918291610b06913060048501614815565b613d50565b3461001557613dbb36610d31565b90613dc4615245565b613dcd81615274565b613dd682615274565b73__$d22e98e2656d9a6189be97d809b75d9ca7$__803b15610015575f604051809263eae134fd60e01b82528180613e12888860048401614619565b03915af48015610b3157613e44575b5033916001600160a01b0390811691165f516020615f035f395f51905f525f80a4005b80613e505f8093611775565b800312610015575f613e21565b3461001557613e6b366139c6565b903033036108fe576040519182526001600160a01b039081169216907f01ff503732e46b833fc2900bbc89c476968a545f18c9ec757e33526c88b4002e90602090a3005b34610015575f36600319011261001557602060405160028152f35b346100155760a036600319011261001557602435600435613eea8261088d565b60443590613ef78261088d565b606435916084353033036108fe576040516001600160a01b0392831695909216937f3bf2de114e2e7636c289f21be023528e47d89b45e873b976c78989c3ddc683f5929182916127de919083612e69565b346100155760a036600319011261001557600435613f658161088d565b602435613f718161088d565b60443590606435926084356001600160401b03811161001557613f9890369060040161186f565b926001600160a01b0382163381141580613ff0575b613fda576001600160a01b0384161561362957156124ff57610df494613fd2916158fb565b9290916156f7565b63711bec9160e11b5f523360045260245260445ffd5b50805f52600160205260ff6140083360405f20611223565b541615613fad565b346100155760203660031901126100155760043561402d8161088d565b614035615350565b6001600160a01b0316801561407457600380546001600160a01b0319811683179091556001600160a01b03165f516020615f435f395f51905f525f80a3005b631e4fbdf760e01b5f525f60045260245ffd5b34610015575f366003190112610015576020601454604051908152f35b34610015575f366003190112610015576020601754604051908152f35b34610015575f36600319011261001557602060ff601a5416604051908152f35b34610015576020366003190112610015576004356140fe8161088d565b614106615245565b73__$d22e98e2656d9a6189be97d809b75d9ca7$__90813b156100155760405160016219368360e21b031981526001600160a01b0390911660048201819052915f90829060249082905af48015610b3157614185575b5033907fd6aa15bb31cca0774d36bdd90707bb8705e5031d7392febcb7678dd8e1c9c2405f80a3005b80611cc75f61419393611775565b5f61415c565b34610015575f366003190112610015576020604051601c8152f35b6001600160a01b039182168152911660208201526040810191909152606081019190915260800190565b6040513d5f823e3d90fd5b604051906141f8604083611775565b601082526f1099585b5a5bc8155cd95c8810d85c9960821b6020830152565b6001600160a01b0391821681529181166020830152909116604082015260600190565b602081830312610015578051906001600160401b038211610015570181601f820112156100155780519061426d8261181e565b9261427b6040519485611775565b8284526020838301011161001557815f9260208093018386015e8301015290565b3d156142c6573d906142ad8261181e565b916142bb6040519384611775565b82523d5f602084013e565b606090565b6001600160a01b039182168152918116602083015260408201929092529116606082015260800190565b90816020910312610015575190565b604051630789b7b160e51b81523060048201526001600160a01b039091166024820152905f8260448173__$c358c1027d02ab1c17f0ade0d7945ec897$__5af4918215610b31575f905f9361435857509190565b9250503d805f843e61436a8184611775565b820191604081840312610015578051602082015190916001600160401b038211610015570183601f82011215610015578051906143a6826117aa565b946143b46040519687611775565b828652602060a081880194028301019181831161001557602001925b8284106143df57505050509190565b60a08483031261001557602060a0916040516143fa8161175a565b86518152828701518382015260408701516040820152606087015160608201526080870151614428816129bd565b60808201528152019301926143d0565b51906117a88261088d565b908160209103126100155751610bbc8161088d565b908160209103126100155751610bbc816129bd565b91908015614614576001600160a01b038316928315611bc2576001600160a01b03831615611bc25760405163c45a015560e01b8152602081600481885afa908115610b31575f916145f5575b506001600160a01b03168015611bc25760405163054c14ed60e51b8152602081600481855afa908115610b31575f916145d6575b506001600160a01b031680156145c75733036145b9576145259160209160405180809581946303330c7960e41b835260048301611178565b03915afa908115610b31575f9161459a575b501561458b57602060049360405194858092638da5cb5b60e01b82525afa8015610b31576117a8935f9161456c575b50614f79565b614585915060203d602011610f1a57610f0c8183611775565b5f614566565b632ad05f3360e11b5f5260045ffd5b6145b3915060203d602011613801576137f38183611775565b5f614537565b62645ab960e51b5f5260045ffd5b63ab82bb9960e01b5f5260045ffd5b6145ef915060203d602011610f1a57610f0c8183611775565b5f6144ed565b61460e915060203d602011610f1a57610f0c8183611775565b5f6144b9565b505050565b6001600160a01b0391821681529116602082015260400190565b939291906001600160a01b038516338114158061466c575b613fda576001600160a01b0382161561362957156124ff576117a8946156f7565b50805f52600160205260ff6146843360405f20611223565b54161561464b565b60ff600a5416156146ee575f805260096020527fec8156718a8372b1db44bb411437d0870f3e3790d4a08526d024ce1b0b668f6b5460ff169081156146cf575090565b6001600160a01b03165f9081526009602052604090205460ff16919050565b50600190565b6001600160a01b039091168152602081019190915260400190565b606091949392608082019560018060a01b031682525f602083015260408201520152565b604080519091906147448382611775565b6001815291601f1901366020840137565b9061475f826117aa565b61476c6040519182611775565b828152809261477d601f19916117aa565b0190602036910137565b80518210156109f95760209160051b010190565b919091805183518082036148005750506147b58151614755565b905f5b81518110156147f957806147e760019260051b602080828701015191890101515f525f60205260405f20611223565b546147f28286614787565b52016147b8565b5090925050565b635b05999160e01b5f5260045260245260445ffd5b6001600160a01b03918216815291166020820152604081019190915260600190565b90614840614cda565b73__$14fcd45fd929aea0b8f272435d174b619d$__803b15610015575f9261488d92604051958694859384936379616bbd60e11b85523060048601526060602486015260648501916148c4565b6001600160a01b03909116604483015203915af48015610b31576148b4575b506001600455565b5f6148be91611775565b5f6148ac565b908060209392818452848401375f828201840152601f01601f1916010190565b634e487b7160e01b5f525f60045260245ffd5b906001600160a01b03821615801561491b575b614917576117a8916153ac565b5050565b50801561490a565b600654909291906001600160a01b031680614a6957506005546001600160a01b03165b6001600160a01b03163303610b365761495d614cda565b73__$14fcd45fd929aea0b8f272435d174b619d$__91823b15610015579290604051938492633d88d6a560e11b8452826064850130600487015260606024870152526084840160848460051b86010193825f90601e19813603015b838310614a0a575050506001600160a01b039093166044860152505f949284925082915003915af48015610b31576149f6575b506117a86001600455565b80611cc75f614a0493611775565b5f6149eb565b9193959690929497506083198a8203018652873582811215610015578301602081019190356001600160401b03811161001557803603831361001557614a5660209283926001956148c4565b99019601930190918997969594926149b8565b614946565b91908110156109f9576060020190565b634e487b7160e01b5f52601160045260245ffd5b6017545f60175580614aa15750565b80600302906003820403614adf5760175f5260205f205f5b828110614ac557505050565b805f60026003938501828155826001820155015501614ab9565b614a7e565b601754600160401b81101561173957600181016017556017548110156109f957604060029160175f52600360205f209102019280358455602081013560018501550135910155565b614b34614eb5565b8115614bba575f5b828110614ba15750614b4c614a92565b5f5b828110614b855750506040519081527f2f291eaf494dc7eca20457441a1df7d9119f0c0d764309daf9cb6b148810ee3690602090a1565b80614b9b614b966001938686614a6e565b614ae4565b01614b4e565b614bac818484614a6e565b3515612ba357600101614b3c565b6308ba5b6160e01b5f5260045ffd5b6001600160a01b03165f908152600e60205260408120805490915b818110614c1e5750600160401b81101561173957614c0791600182018155611238565b819291549060031b91821b915f19901b1916179055565b83614c298285611238565b90549060031b1c14614c3d57600101614be4565b50505050565b600554604051635f62570d60e11b81526001600160a01b0390911660048201526001600160e01b03195f3516602482015260208160448173__$071cf681b03e9c24fcf6005bc28358a856$__5af4908115610b31575f9182918291614cbb575b50368280378136915af43d90815f803e156135c3575ff35b614cd4915060203d602011610f1a57610f0c8183611775565b5f614ca3565b600260045414614ceb576002600455565b633ee5aeb560e01b5f5260045ffd5b5f8091614d076004615113565b602082519201905af490614d1961429c565b9115614d2157565b5080519081614d4f5760405163dccff66960e01b815260206004820152908190611bb6906024830190610b87565b602001fd5b5f8091614d076005615113565b5f8091614d076002615113565b5f91614d078392615113565b91908201809211614adf57565b906001600160a01b03821680158015614ead575b614614575f527fbe5c2328713858b26c97b83c5ace333ac35b55572be4794180ba426b12cc48be60205260405f20805492828401809411614adf57600893614de392556111eb565b610e1042045f5260205260405f209060098201614e04611dc2825460ff1690565b614e9e575b50614e155f8354614d7a565b8255614e2660018301918254614d7a565b905560028101614e375f8254614d7a565b905560038101614e485f8254614d7a565b905560048101614e595f8254614d7a565b905560058101614e6a5f8254614d7a565b905560068101614e7b5f8254614d7a565b905560078101614e8c5f8254614d7a565b905501614e9a5f8254614d7a565b9055565b614ea79061539f565b5f614e09565b508115614d9b565b6006546001600160a01b031680614f0557506005546001600160a01b03165b6003546001600160a01b03163314159081614ef1575b506108fe57565b6001600160a01b031633141590505f614eea565b614ed4565b6005546001600160a01b03168015818115614f6f575b506145c7575f60049160405192838092634f9e8d1560e11b82525afa908115610b31575f91614f55575b508051156145c75790565b614f6991503d805f833e61105c8183611775565b5f614f4a565b90503b155f614f20565b909173__$91c961bf2335aa1fea43924da854687380$__803b1561001557614fbb935f936040519586948593849363f3523b7360e01b855230600486016142cb565b03915af48015610b3157614fcc5750565b5f6117a891611775565b906001600160a01b0382168015801561509d575b614614575f527fbe5c2328713858b26c97b83c5ace333ac35b55572be4794180ba426b12cc48bf60205260405f20805492828401809411614adf57600893615048925561503b610e104204916111eb565b905f5260205260405f2090565b906009820161505b611dc2825460ff1690565b61508e575b5061506c5f8354614d7a565b82556001820161507d5f8254614d7a565b9055614e3760028301918254614d7a565b6150979061539f565b5f615060565b508115614fea565b600554604051636664034560e11b81526001600160a01b0390911660048201526003602482015260208160448173__$071cf681b03e9c24fcf6005bc28358a856$__5af4908115610b31575f916150fa575090565b610bbc915060203d602011610f1a57610f0c8183611775565b600554604051636664034560e11b81526001600160a01b03909116600482015260ff91909116602482015260208160448173__$071cf681b03e9c24fcf6005bc28358a856$__5af4908115610b31575f916150fa575090565b9160135482810391818311614adf576014549080820394828611614adf576001600160a01b038716159384156151ae575b50505050614614576117a892615802565b14925090826151c3575b50505f80808061519d565b1490505f806151b8565b6005546040516306e0faf160e21b815291602091839182916151fc91906001600160a01b031660048401614619565b038173__$a9219284c3f0d74f57f4dcfc58f5429559$__5af4908115610b31575f916150fa575090565b906001600160a01b038216156124ff576117a8916124e75f92836158fb565b6003546001600160a01b031633141580615260575b6108fe57565b5060ff61526c336111b3565b54161561525a565b6001600160a01b03811615611bc2576005546004906020906152ac906152a0906001600160a01b031681565b6001600160a01b031690565b604051630e83251360e01b815292839182905afa918215610b31576152f1926020925f91615333575b5060405180809581946303330c7960e41b835260048301611178565b03916001600160a01b03165afa908115610b31575f91615314575b501561458b57565b61532d915060203d602011613801576137f38183611775565b5f61530c565b61534a9150833d8511610f1a57610f0c8183611775565b5f6152d5565b6003546001600160a01b0316330361536457565b63118cdaa760e01b5f523360045260245ffd5b906001600160a01b038216158015615397575b614917576117a891615920565b50801561538a565b805460ff19166001179055565b906001600160a01b038216801580156154aa575b614614575f527fbe5c2328713858b26c97b83c5ace333ac35b55572be4794180ba426b12cc48c360205260405f20805492828401809411614adf57600893615411925561503b610e104204916111eb565b9060098201615424611dc2825460ff1690565b61549b575b506154355f8354614d7a565b8255600182016154465f8254614d7a565b9055600282016154575f8254614d7a565b9055600382016154685f8254614d7a565b9055600482016154795f8254614d7a565b90556005820161548a5f8254614d7a565b9055614e7b60068301918254614d7a565b6154a49061539f565b5f615429565b5081156153c0565b90602080835192838152019201905f5b8181106154cf5750505090565b82516001600160a01b03168452602093840193909201916001016154c2565b6001600160a01b0391821681529181166020830152909116604082015260c06060820181905290926155379290916155299190850190611fcd565b908382036080850152611fcd565b81810360a09092019190915281516001600160a01b039081168252602080840151909116908201526040828101516001600160a01b031690820152606082015160608201526080820151608082015260e0806155b96155a760a086015161010060a08701526101008601906154b2565b60c086015185820360c0870152611fcd565b93015191015290565b9190915f60e06040516155d48161173e565b828152826020820152826040820152826060820152826080820152606060a0820152606060c08201520152825f8261561360055460018060a01b031690565b6156338887604051998a958695637bd8ece960e11b875260048701615b9f565b038173__$a9219284c3f0d74f57f4dcfc58f5429559$__5af4938415610b31575f946156d3575b50835161567490869085906001600160a01b031685615c0a565b73__$22d83b6ff1da5ba98b89a83b211093667b$__91823b15610015576156b45f95604051978896879586956304c70af760e31b875230600488016154ee565b03915af48015610b31576156c55750565b80611cc75f6117a893611775565b6156f09194503d805f833e6156e88183611775565b810190615ad9565b925f61565a565b9193929093615708828287866155c2565b6001600160a01b03851680615720575b505050505050565b815160010361574957509360208061573e9601519201519233615e64565b5f8080808080615718565b90853b61575c575b50505050505061573e565b5f6020946157816040519788968795869463bc197c8160e01b86523360048701615dd8565b03925af15f91816157e1575b506157be575061579b61429c565b80519190826157b757632bfa23e760e11b5f526135c382611167565b6020915001fd5b6001600160e01b0319166343e6837f60e01b016135e757505f8080808080615751565b6157fb91925060203d602011613622576136138183611775565b905f61578d565b6001600160a01b0381161580156158ea575b61461457614e9a916158276008926111eb565b610e1042045f5260205260405f209060098201615848611dc2825460ff1690565b6158db575b506158595f8354614d7a565b82556001820161586a5f8254614d7a565b90556002820161587b5f8254614d7a565b90556003820161588c5f8254614d7a565b90556004820161589d5f8254614d7a565b9055600582016158ae5f8254614d7a565b9055600682016158bf5f8254614d7a565b90556158d060078301918254614d7a565b905501918254614d7a565b6158e49061539f565b5f61584d565b508115801561581457508215615814565b9160405192600184526020840152604083019160018352606084015260808301604052565b906001600160a01b03821680158015615a0d575b614614575f527fbe5c2328713858b26c97b83c5ace333ac35b55572be4794180ba426b12cc48c260205260405f20805492828401809411614adf57600893615985925561503b610e104204916111eb565b9060098201615998611dc2825460ff1690565b6159fe575b506159a95f8354614d7a565b8255600182016159ba5f8254614d7a565b9055600282016159cb5f8254614d7a565b9055600382016159dc5f8254614d7a565b9055600482016159ed5f8254614d7a565b9055614e6a60058301918254614d7a565b615a079061539f565b5f61599d565b508115615934565b9080601f83011215610015578151615a2c816117aa565b92615a3a6040519485611775565b81845260208085019260051b82010192831161001557602001905b828210615a625750505090565b602080918351615a718161088d565b815201910190615a55565b9080601f83011215610015578151615a93816117aa565b92615aa16040519485611775565b81845260208085019260051b82010192831161001557602001905b828210615ac95750505090565b8151815260209182019101615abc565b602081830312610015578051906001600160401b0382116100155701906101008282031261001557615b09611798565b91615b1381614438565b8352615b2160208201614438565b6020840152615b3260408201614438565b6040840152606081810151908401526080808201519084015260a08101516001600160401b0381116100155782615b6a918301615a15565b60a084015260c08101516001600160401b0381116100155760e092615b90918301615a7c565b60c0840152015160e082015290565b6001600160a01b0391821681529181166020830152909116604082015260a060608201819052610bbc939192615bd791840190611fcd565b916080818403910152611fcd565b9091615bfc610bbc93604084526040840190611fcd565b916020818403910152611fcd565b9392918051835190818103615dae5750505f5b8151811015615d09578060051b90602080838501015192860101518460018060a01b038916615c8c575b6001936001600160a01b038216615c62575b50505001615c1d565b615c8291611b10615c7a925f525f60205260405f2090565b918254614d7a565b90555f8481615c59565b509091615ca488611b10835f525f60205260405f2090565b54828110615cd257829160019493879203615cca8b611b10845f525f60205260405f2090565b559350615c47565b6040516303dee4c560e01b81526001600160a01b038a16600482015260248101919091526044810183905260648101829052608490fd5b508051939493919291600103615d6b576020908101519101516040516001600160a01b03938416949093169233927fc3d58168c5ae7397731d063d5bbf3d657854427343f4c083240f7aacaa2d0f62928291615d66919083612e69565b0390a4565b6040516001600160a01b03938416949093169233927f4a39dc06d4c0dbc64b70af90fd698a233a518aa5d07e595d983b8c0526c8f7fb928291615d669183615be5565b635b05999160e01b5f5260045260245260445ffd5b908160209103126100155751610bbc81610949565b6001600160a01b0391821681529116602082015260a060408201819052610bbc9491939192615e1d9291615e0f9190860190611fcd565b908482036060860152611fcd565b916080818403910152610b87565b6001600160a01b039182168152911660208201526040810191909152606081019190915260a060808201819052610bbc92910190610b87565b9091949293853b615e7757505050505050565b602093615e9991604051968795869563f23a6e6160e01b875260048701615e2b565b03815f6001600160a01b0387165af15f9181615ee1575b50615ebe575061579b61429c565b6001600160e01b031916630dc5919f60e01b016135e757505f8080808080615718565b615efb91925060203d602011613622576136138183611775565b905f615eb056fef1b2bf0f075c4489d90ad473efa5fb2849d46fa0376db8fab751a98e03b3ce1b22c0a15d444e21db16bbb52e03d65846fb96a18771ae18cefb26e2b75b089ee28be0079c531659141344cd1fd0a4f28419497f9722a3daafe3b4186f6b6457e0ad3228b676f7d3cd4284a5443f17f1962b36e491b30a40b2405849e597ba5fb5a164736f6c6343000823000abc488d3e2575f0f2113dc4d9a0cd6bc52445c6bc28a8974ed97a6ba3ecfd657c",
  "linkReferences": {
    "project/src/BeamioUserCard/BeamioUserCardAdminGatewayLib.sol": {
      "BeamioUserCardAdminGatewayLib": [
        {
          "length": 20,
          "start": 4931
        },
        {
          "length": 20,
          "start": 7075
        },
        {
          "length": 20,
          "start": 12322
        }
      ]
    },
    "project/src/BeamioUserCard/BeamioUserCardFaucetGatewayLib.sol": {
      "BeamioUserCardFaucetGatewayLib": [
        {
          "length": 20,
          "start": 4212
        },
        {
          "length": 20,
          "start": 10648
        }
      ]
    },
    "project/src/BeamioUserCard/BeamioUserCardFormattingLib.sol": {
      "BeamioUserCardFormattingLib": [
        {
          "length": 20,
          "start": 5569
        }
      ]
    },
    "project/src/BeamioUserCard/BeamioUserCardGatewayMintLib.sol": {
      "BeamioUserCardGatewayMintLib": [
        {
          "length": 20,
          "start": 9080
        },
        {
          "length": 20,
          "start": 10351
        },
        {
          "length": 20,
          "start": 21801
        }
      ]
    },
    "project/src/BeamioUserCard/BeamioUserCardGovernanceLib.sol": {
      "BeamioUserCardGovernanceLib": [
        {
          "length": 20,
          "start": 6608
        },
        {
          "length": 20,
          "start": 11980
        },
        {
          "length": 20,
          "start": 13261
        }
      ]
    },
    "project/src/BeamioUserCard/BeamioUserCardIssuedNftGatewayLib.sol": {
      "BeamioUserCardIssuedNftGatewayLib": [
        {
          "length": 20,
          "start": 8686
        },
        {
          "length": 20,
          "start": 8910
        },
        {
          "length": 20,
          "start": 11000
        },
        {
          "length": 20,
          "start": 14663
        },
        {
          "length": 20,
          "start": 17173
        }
      ]
    },
    "project/src/BeamioUserCard/BeamioUserCardMembershipGateLib.sol": {
      "BeamioUserCardMembershipGateLib": [
        {
          "length": 20,
          "start": 9459
        },
        {
          "length": 20,
          "start": 15693
        }
      ]
    },
    "project/src/BeamioUserCard/BeamioUserCardModuleRouterLib.sol": {
      "BeamioUserCardModuleRouterLib": [
        {
          "length": 20,
          "start": 21032
        },
        {
          "length": 20,
          "start": 22144
        },
        {
          "length": 20,
          "start": 22258
        }
      ]
    },
    "project/src/BeamioUserCard/BeamioUserCardRedeemGatewayLib.sol": {
      "BeamioUserCardRedeemGatewayLib": [
        {
          "length": 20,
          "start": 11343
        },
        {
          "length": 20,
          "start": 19950
        },
        {
          "length": 20,
          "start": 20235
        }
      ]
    },
    "project/src/BeamioUserCard/BeamioUserCardReferrerLib.sol": {
      "BeamioUserCardReferrerLib": [
        {
          "length": 20,
          "start": 6916
        },
        {
          "length": 20,
          "start": 9232
        },
        {
          "length": 20,
          "start": 10059
        },
        {
          "length": 20,
          "start": 13062
        },
        {
          "length": 20,
          "start": 15375
        },
        {
          "length": 20,
          "start": 16617
        },
        {
          "length": 20,
          "start": 17284
        },
        {
          "length": 20,
          "start": 18100
        }
      ]
    },
    "project/src/BeamioUserCard/BeamioUserCardTransferLib.sol": {
      "BeamioUserCardTransferLib": [
        {
          "length": 20,
          "start": 5218
        },
        {
          "length": 20,
          "start": 22444
        },
        {
          "length": 20,
          "start": 23523
        }
      ]
    },
    "project/src/BeamioUserCard/BeamioUserCardUpdateLib.sol": {
      "BeamioUserCardUpdateLib": [
        {
          "length": 20,
          "start": 23586
        }
      ]
    },
    "project/src/BeamioUserCard/BeamioUserCardViewsLib.sol": {
      "BeamioUserCardViewsLib": [
        {
          "length": 20,
          "start": 18651
        }
      ]
    }
  },
  "deployedLinkReferences": {
    "project/src/BeamioUserCard/BeamioUserCardAdminGatewayLib.sol": {
      "BeamioUserCardAdminGatewayLib": [
        {
          "length": 20,
          "start": 3479
        },
        {
          "length": 20,
          "start": 5623
        },
        {
          "length": 20,
          "start": 10870
        }
      ]
    },
    "project/src/BeamioUserCard/BeamioUserCardFaucetGatewayLib.sol": {
      "BeamioUserCardFaucetGatewayLib": [
        {
          "length": 20,
          "start": 2760
        },
        {
          "length": 20,
          "start": 9196
        }
      ]
    },
    "project/src/BeamioUserCard/BeamioUserCardFormattingLib.sol": {
      "BeamioUserCardFormattingLib": [
        {
          "length": 20,
          "start": 4117
        }
      ]
    },
    "project/src/BeamioUserCard/BeamioUserCardGatewayMintLib.sol": {
      "BeamioUserCardGatewayMintLib": [
        {
          "length": 20,
          "start": 7628
        },
        {
          "length": 20,
          "start": 8899
        },
        {
          "length": 20,
          "start": 20349
        }
      ]
    },
    "project/src/BeamioUserCard/BeamioUserCardGovernanceLib.sol": {
      "BeamioUserCardGovernanceLib": [
        {
          "length": 20,
          "start": 5156
        },
        {
          "length": 20,
          "start": 10528
        },
        {
          "length": 20,
          "start": 11809
        }
      ]
    },
    "project/src/BeamioUserCard/BeamioUserCardIssuedNftGatewayLib.sol": {
      "BeamioUserCardIssuedNftGatewayLib": [
        {
          "length": 20,
          "start": 7234
        },
        {
          "length": 20,
          "start": 7458
        },
        {
          "length": 20,
          "start": 9548
        },
        {
          "length": 20,
          "start": 13211
        },
        {
          "length": 20,
          "start": 15721
        }
      ]
    },
    "project/src/BeamioUserCard/BeamioUserCardMembershipGateLib.sol": {
      "BeamioUserCardMembershipGateLib": [
        {
          "length": 20,
          "start": 8007
        },
        {
          "length": 20,
          "start": 14241
        }
      ]
    },
    "project/src/BeamioUserCard/BeamioUserCardModuleRouterLib.sol": {
      "BeamioUserCardModuleRouterLib": [
        {
          "length": 20,
          "start": 19580
        },
        {
          "length": 20,
          "start": 20692
        },
        {
          "length": 20,
          "start": 20806
        }
      ]
    },
    "project/src/BeamioUserCard/BeamioUserCardRedeemGatewayLib.sol": {
      "BeamioUserCardRedeemGatewayLib": [
        {
          "length": 20,
          "start": 9891
        },
        {
          "length": 20,
          "start": 18498
        },
        {
          "length": 20,
          "start": 18783
        }
      ]
    },
    "project/src/BeamioUserCard/BeamioUserCardReferrerLib.sol": {
      "BeamioUserCardReferrerLib": [
        {
          "length": 20,
          "start": 5464
        },
        {
          "length": 20,
          "start": 7780
        },
        {
          "length": 20,
          "start": 8607
        },
        {
          "length": 20,
          "start": 11610
        },
        {
          "length": 20,
          "start": 13923
        },
        {
          "length": 20,
          "start": 15165
        },
        {
          "length": 20,
          "start": 15832
        },
        {
          "length": 20,
          "start": 16648
        }
      ]
    },
    "project/src/BeamioUserCard/BeamioUserCardTransferLib.sol": {
      "BeamioUserCardTransferLib": [
        {
          "length": 20,
          "start": 3766
        },
        {
          "length": 20,
          "start": 20992
        },
        {
          "length": 20,
          "start": 22071
        }
      ]
    },
    "project/src/BeamioUserCard/BeamioUserCardUpdateLib.sol": {
      "BeamioUserCardUpdateLib": [
        {
          "length": 20,
          "start": 22134
        }
      ]
    },
    "project/src/BeamioUserCard/BeamioUserCardViewsLib.sol": {
      "BeamioUserCardViewsLib": [
        {
          "length": 20,
          "start": 17199
        }
      ]
    }
  },
  "immutableReferences": {
    "32632": [
      {
        "length": 32,
        "start": 14670
      }
    ]
  },
  "inputSourceName": "project/src/BeamioUserCard/BeamioUserCard.sol",
  "buildInfoId": "solc-0_8_35-e1bc7979b13916f94cfaf94dd6732a805cb02fdd"
}