{
  "_format": "hh3-artifact-1",
  "contractName": "BeamioUserCard",
  "sourceName": "src/BeamioUserCard/BeamioUserCard.sol",
  "abi": [
    {
      "inputs": [
        {
          "internalType": "string",
          "name": "uri_",
          "type": "string"
        },
        {
          "internalType": "enum BeamioCurrency.CurrencyType",
          "name": "currency_",
          "type": "uint8"
        },
        {
          "internalType": "uint256",
          "name": "pointsUnitPriceInCurrencyE6_",
          "type": "uint256"
        },
        {
          "internalType": "address",
          "name": "initialOwner",
          "type": "address"
        },
        {
          "internalType": "address",
          "name": "gateway_",
          "type": "address"
        }
      ],
      "stateMutability": "nonpayable",
      "type": "constructor"
    },
    {
      "inputs": [],
      "name": "BM_NotAuthorized",
      "type": "error"
    },
    {
      "inputs": [],
      "name": "BM_ZeroAddress",
      "type": "error"
    },
    {
      "inputs": [
        {
          "internalType": "address",
          "name": "sender",
          "type": "address"
        },
        {
          "internalType": "uint256",
          "name": "balance",
          "type": "uint256"
        },
        {
          "internalType": "uint256",
          "name": "needed",
          "type": "uint256"
        },
        {
          "internalType": "uint256",
          "name": "tokenId",
          "type": "uint256"
        }
      ],
      "name": "ERC1155InsufficientBalance",
      "type": "error"
    },
    {
      "inputs": [
        {
          "internalType": "address",
          "name": "approver",
          "type": "address"
        }
      ],
      "name": "ERC1155InvalidApprover",
      "type": "error"
    },
    {
      "inputs": [
        {
          "internalType": "uint256",
          "name": "idsLength",
          "type": "uint256"
        },
        {
          "internalType": "uint256",
          "name": "valuesLength",
          "type": "uint256"
        }
      ],
      "name": "ERC1155InvalidArrayLength",
      "type": "error"
    },
    {
      "inputs": [
        {
          "internalType": "address",
          "name": "operator",
          "type": "address"
        }
      ],
      "name": "ERC1155InvalidOperator",
      "type": "error"
    },
    {
      "inputs": [
        {
          "internalType": "address",
          "name": "receiver",
          "type": "address"
        }
      ],
      "name": "ERC1155InvalidReceiver",
      "type": "error"
    },
    {
      "inputs": [
        {
          "internalType": "address",
          "name": "sender",
          "type": "address"
        }
      ],
      "name": "ERC1155InvalidSender",
      "type": "error"
    },
    {
      "inputs": [
        {
          "internalType": "address",
          "name": "operator",
          "type": "address"
        },
        {
          "internalType": "address",
          "name": "owner",
          "type": "address"
        }
      ],
      "name": "ERC1155MissingApprovalForAll",
      "type": "error"
    },
    {
      "inputs": [
        {
          "internalType": "address",
          "name": "owner",
          "type": "address"
        }
      ],
      "name": "OwnableInvalidOwner",
      "type": "error"
    },
    {
      "inputs": [
        {
          "internalType": "address",
          "name": "account",
          "type": "address"
        }
      ],
      "name": "OwnableUnauthorizedAccount",
      "type": "error"
    },
    {
      "inputs": [],
      "name": "ReentrancyGuardReentrantCall",
      "type": "error"
    },
    {
      "inputs": [],
      "name": "UC_AmountZero",
      "type": "error"
    },
    {
      "inputs": [],
      "name": "UC_BelowMinThreshold",
      "type": "error"
    },
    {
      "inputs": [],
      "name": "UC_GlobalMisconfigured",
      "type": "error"
    },
    {
      "inputs": [],
      "name": "UC_InvalidProposal",
      "type": "error"
    },
    {
      "inputs": [],
      "name": "UC_NoBeamioAccount",
      "type": "error"
    },
    {
      "inputs": [],
      "name": "UC_NotAdmin",
      "type": "error"
    },
    {
      "inputs": [],
      "name": "UC_PointsToNotWhitelisted",
      "type": "error"
    },
    {
      "inputs": [],
      "name": "UC_PriceZero",
      "type": "error"
    },
    {
      "inputs": [
        {
          "internalType": "bytes",
          "name": "data",
          "type": "bytes"
        }
      ],
      "name": "UC_RedeemDelegateFailed",
      "type": "error"
    },
    {
      "inputs": [],
      "name": "UC_RedeemModuleZero",
      "type": "error"
    },
    {
      "inputs": [
        {
          "internalType": "address",
          "name": "eoa",
          "type": "address"
        },
        {
          "internalType": "address",
          "name": "aaFactory",
          "type": "address"
        },
        {
          "internalType": "address",
          "name": "acct",
          "type": "address"
        }
      ],
      "name": "UC_ResolveAccountFailed",
      "type": "error"
    },
    {
      "inputs": [],
      "name": "UC_SBTNonTransferable",
      "type": "error"
    },
    {
      "inputs": [],
      "name": "UC_StatsModuleZero",
      "type": "error"
    },
    {
      "inputs": [],
      "name": "UC_TierLenMismatch",
      "type": "error"
    },
    {
      "inputs": [],
      "name": "UC_TierMinZero",
      "type": "error"
    },
    {
      "inputs": [],
      "name": "UC_UnauthorizedGateway",
      "type": "error"
    },
    {
      "anonymous": false,
      "inputs": [
        {
          "indexed": true,
          "internalType": "address",
          "name": "beneficiaryAccount",
          "type": "address"
        },
        {
          "indexed": true,
          "internalType": "uint256",
          "name": "tokenId",
          "type": "uint256"
        },
        {
          "indexed": false,
          "internalType": "uint256",
          "name": "attr",
          "type": "uint256"
        },
        {
          "indexed": false,
          "internalType": "uint256",
          "name": "expiry",
          "type": "uint256"
        }
      ],
      "name": "AdminCardMinted",
      "type": "event"
    },
    {
      "anonymous": false,
      "inputs": [
        {
          "indexed": true,
          "internalType": "address",
          "name": "beneficiaryAccount",
          "type": "address"
        },
        {
          "indexed": false,
          "internalType": "uint256",
          "name": "points6",
          "type": "uint256"
        }
      ],
      "name": "AdminPointsMinted",
      "type": "event"
    },
    {
      "anonymous": false,
      "inputs": [
        {
          "indexed": true,
          "internalType": "address",
          "name": "account",
          "type": "address"
        },
        {
          "indexed": true,
          "internalType": "address",
          "name": "operator",
          "type": "address"
        },
        {
          "indexed": false,
          "internalType": "bool",
          "name": "approved",
          "type": "bool"
        }
      ],
      "name": "ApprovalForAll",
      "type": "event"
    },
    {
      "anonymous": false,
      "inputs": [
        {
          "indexed": false,
          "internalType": "uint256",
          "name": "attr",
          "type": "uint256"
        }
      ],
      "name": "DefaultAttrUpdated",
      "type": "event"
    },
    {
      "anonymous": false,
      "inputs": [
        {
          "indexed": false,
          "internalType": "uint256",
          "name": "oldSecs",
          "type": "uint256"
        },
        {
          "indexed": false,
          "internalType": "uint256",
          "name": "newSecs",
          "type": "uint256"
        }
      ],
      "name": "ExpirySecondsUpdated",
      "type": "event"
    },
    {
      "anonymous": false,
      "inputs": [
        {
          "indexed": true,
          "internalType": "uint256",
          "name": "id",
          "type": "uint256"
        },
        {
          "indexed": true,
          "internalType": "address",
          "name": "userEOA",
          "type": "address"
        },
        {
          "indexed": true,
          "internalType": "address",
          "name": "acct",
          "type": "address"
        },
        {
          "indexed": false,
          "internalType": "uint256",
          "name": "amount",
          "type": "uint256"
        },
        {
          "indexed": false,
          "internalType": "uint256",
          "name": "claimedAfter",
          "type": "uint256"
        }
      ],
      "name": "FaucetClaimed",
      "type": "event"
    },
    {
      "anonymous": false,
      "inputs": [
        {
          "indexed": true,
          "internalType": "uint256",
          "name": "id",
          "type": "uint256"
        },
        {
          "components": [
            {
              "internalType": "uint64",
              "name": "validUntil",
              "type": "uint64"
            },
            {
              "internalType": "uint64",
              "name": "perClaimMax",
              "type": "uint64"
            },
            {
              "internalType": "uint128",
              "name": "maxPerUser",
              "type": "uint128"
            },
            {
              "internalType": "uint128",
              "name": "maxGlobal",
              "type": "uint128"
            },
            {
              "internalType": "bool",
              "name": "enabled",
              "type": "bool"
            },
            {
              "internalType": "uint8",
              "name": "currency",
              "type": "uint8"
            },
            {
              "internalType": "uint8",
              "name": "decimals",
              "type": "uint8"
            },
            {
              "internalType": "uint128",
              "name": "priceInCurrency6",
              "type": "uint128"
            }
          ],
          "indexed": false,
          "internalType": "struct FaucetStorage.FaucetConfig",
          "name": "cfg",
          "type": "tuple"
        }
      ],
      "name": "FaucetConfigUpdated",
      "type": "event"
    },
    {
      "anonymous": false,
      "inputs": [
        {
          "indexed": true,
          "internalType": "uint256",
          "name": "tokenId",
          "type": "uint256"
        },
        {
          "indexed": false,
          "internalType": "bytes32",
          "name": "title",
          "type": "bytes32"
        },
        {
          "indexed": false,
          "internalType": "uint64",
          "name": "validAfter",
          "type": "uint64"
        },
        {
          "indexed": false,
          "internalType": "uint64",
          "name": "validBefore",
          "type": "uint64"
        },
        {
          "indexed": false,
          "internalType": "uint256",
          "name": "maxSupply",
          "type": "uint256"
        },
        {
          "indexed": false,
          "internalType": "uint256",
          "name": "priceInCurrency6",
          "type": "uint256"
        },
        {
          "indexed": false,
          "internalType": "bytes32",
          "name": "sharedMetadataHash",
          "type": "bytes32"
        }
      ],
      "name": "IssuedNftCreated",
      "type": "event"
    },
    {
      "anonymous": false,
      "inputs": [
        {
          "indexed": true,
          "internalType": "uint256",
          "name": "tokenId",
          "type": "uint256"
        },
        {
          "indexed": true,
          "internalType": "address",
          "name": "recipient",
          "type": "address"
        },
        {
          "indexed": false,
          "internalType": "uint256",
          "name": "amount",
          "type": "uint256"
        }
      ],
      "name": "IssuedNftMinted",
      "type": "event"
    },
    {
      "anonymous": false,
      "inputs": [
        {
          "indexed": true,
          "internalType": "address",
          "name": "user",
          "type": "address"
        },
        {
          "indexed": true,
          "internalType": "uint256",
          "name": "tokenId",
          "type": "uint256"
        },
        {
          "indexed": false,
          "internalType": "uint256",
          "name": "tierIndexOrMax",
          "type": "uint256"
        },
        {
          "indexed": false,
          "internalType": "uint256",
          "name": "minUsdc6",
          "type": "uint256"
        },
        {
          "indexed": false,
          "internalType": "uint256",
          "name": "expiry",
          "type": "uint256"
        }
      ],
      "name": "MemberNFTIssued",
      "type": "event"
    },
    {
      "anonymous": false,
      "inputs": [
        {
          "indexed": true,
          "internalType": "address",
          "name": "user",
          "type": "address"
        },
        {
          "indexed": true,
          "internalType": "uint256",
          "name": "oldActiveTokenId",
          "type": "uint256"
        },
        {
          "indexed": true,
          "internalType": "uint256",
          "name": "newTokenId",
          "type": "uint256"
        },
        {
          "indexed": false,
          "internalType": "uint256",
          "name": "oldTierIndexOrMax",
          "type": "uint256"
        },
        {
          "indexed": false,
          "internalType": "uint256",
          "name": "newTierIndex",
          "type": "uint256"
        },
        {
          "indexed": false,
          "internalType": "uint256",
          "name": "newExpiry",
          "type": "uint256"
        }
      ],
      "name": "MemberNFTUpgraded",
      "type": "event"
    },
    {
      "anonymous": false,
      "inputs": [
        {
          "indexed": true,
          "internalType": "address",
          "name": "previousOwner",
          "type": "address"
        },
        {
          "indexed": true,
          "internalType": "address",
          "name": "newOwner",
          "type": "address"
        }
      ],
      "name": "OwnershipTransferred",
      "type": "event"
    },
    {
      "anonymous": false,
      "inputs": [
        {
          "indexed": true,
          "internalType": "address",
          "name": "userEOA",
          "type": "address"
        },
        {
          "indexed": true,
          "internalType": "address",
          "name": "acct",
          "type": "address"
        },
        {
          "indexed": false,
          "internalType": "uint256",
          "name": "points6",
          "type": "uint256"
        }
      ],
      "name": "PointsMintedByGateway",
      "type": "event"
    },
    {
      "anonymous": false,
      "inputs": [
        {
          "indexed": true,
          "internalType": "address",
          "name": "payerEOA",
          "type": "address"
        },
        {
          "indexed": true,
          "internalType": "address",
          "name": "beneficiaryAccount",
          "type": "address"
        },
        {
          "indexed": true,
          "internalType": "address",
          "name": "usdc",
          "type": "address"
        },
        {
          "indexed": false,
          "internalType": "uint256",
          "name": "usdcIn6",
          "type": "uint256"
        },
        {
          "indexed": false,
          "internalType": "uint256",
          "name": "pointsMinted6",
          "type": "uint256"
        },
        {
          "indexed": false,
          "internalType": "uint256",
          "name": "unitPointPriceUsdc6",
          "type": "uint256"
        },
        {
          "indexed": false,
          "internalType": "bytes32",
          "name": "nonce",
          "type": "bytes32"
        }
      ],
      "name": "PointsPurchasedWithUSDC",
      "type": "event"
    },
    {
      "anonymous": false,
      "inputs": [
        {
          "indexed": false,
          "internalType": "uint256",
          "name": "priceInCurrencyE6",
          "type": "uint256"
        }
      ],
      "name": "PointsUnitPriceUpdated",
      "type": "event"
    },
    {
      "anonymous": false,
      "inputs": [
        {
          "indexed": true,
          "internalType": "uint256",
          "name": "id",
          "type": "uint256"
        },
        {
          "indexed": true,
          "internalType": "address",
          "name": "admin",
          "type": "address"
        }
      ],
      "name": "ProposalApproved",
      "type": "event"
    },
    {
      "anonymous": false,
      "inputs": [
        {
          "indexed": true,
          "internalType": "uint256",
          "name": "id",
          "type": "uint256"
        },
        {
          "indexed": true,
          "internalType": "bytes4",
          "name": "selector",
          "type": "bytes4"
        },
        {
          "indexed": true,
          "internalType": "address",
          "name": "proposer",
          "type": "address"
        }
      ],
      "name": "ProposalCreated",
      "type": "event"
    },
    {
      "anonymous": false,
      "inputs": [
        {
          "indexed": true,
          "internalType": "uint256",
          "name": "id",
          "type": "uint256"
        }
      ],
      "name": "ProposalExecuted",
      "type": "event"
    },
    {
      "anonymous": false,
      "inputs": [
        {
          "indexed": true,
          "internalType": "bytes32",
          "name": "hash",
          "type": "bytes32"
        }
      ],
      "name": "RedeemCancelled",
      "type": "event"
    },
    {
      "anonymous": false,
      "inputs": [
        {
          "indexed": true,
          "internalType": "bytes32",
          "name": "hash",
          "type": "bytes32"
        },
        {
          "indexed": false,
          "internalType": "uint256",
          "name": "points6",
          "type": "uint256"
        },
        {
          "indexed": false,
          "internalType": "uint256",
          "name": "attr",
          "type": "uint256"
        }
      ],
      "name": "RedeemCreated",
      "type": "event"
    },
    {
      "anonymous": false,
      "inputs": [
        {
          "indexed": false,
          "internalType": "uint256",
          "name": "index",
          "type": "uint256"
        },
        {
          "indexed": false,
          "internalType": "uint256",
          "name": "minUsdc6",
          "type": "uint256"
        },
        {
          "indexed": false,
          "internalType": "uint256",
          "name": "attr",
          "type": "uint256"
        },
        {
          "indexed": false,
          "internalType": "uint256",
          "name": "tierExpirySeconds",
          "type": "uint256"
        },
        {
          "indexed": false,
          "internalType": "bool",
          "name": "upgradeByBalance",
          "type": "bool"
        }
      ],
      "name": "TierAppended",
      "type": "event"
    },
    {
      "anonymous": false,
      "inputs": [
        {
          "indexed": false,
          "internalType": "uint256",
          "name": "count",
          "type": "uint256"
        }
      ],
      "name": "TiersUpdated",
      "type": "event"
    },
    {
      "anonymous": false,
      "inputs": [
        {
          "indexed": true,
          "internalType": "address",
          "name": "operator",
          "type": "address"
        },
        {
          "indexed": true,
          "internalType": "address",
          "name": "from",
          "type": "address"
        },
        {
          "indexed": true,
          "internalType": "address",
          "name": "to",
          "type": "address"
        },
        {
          "indexed": false,
          "internalType": "uint256[]",
          "name": "ids",
          "type": "uint256[]"
        },
        {
          "indexed": false,
          "internalType": "uint256[]",
          "name": "values",
          "type": "uint256[]"
        }
      ],
      "name": "TransferBatch",
      "type": "event"
    },
    {
      "anonymous": false,
      "inputs": [
        {
          "indexed": true,
          "internalType": "address",
          "name": "operator",
          "type": "address"
        },
        {
          "indexed": true,
          "internalType": "address",
          "name": "from",
          "type": "address"
        },
        {
          "indexed": true,
          "internalType": "address",
          "name": "to",
          "type": "address"
        },
        {
          "indexed": false,
          "internalType": "uint256",
          "name": "id",
          "type": "uint256"
        },
        {
          "indexed": false,
          "internalType": "uint256",
          "name": "value",
          "type": "uint256"
        }
      ],
      "name": "TransferSingle",
      "type": "event"
    },
    {
      "anonymous": false,
      "inputs": [
        {
          "indexed": false,
          "internalType": "bool",
          "name": "enabled",
          "type": "bool"
        }
      ],
      "name": "TransferWhitelistEnabledUpdated",
      "type": "event"
    },
    {
      "anonymous": false,
      "inputs": [
        {
          "indexed": false,
          "internalType": "string",
          "name": "value",
          "type": "string"
        },
        {
          "indexed": true,
          "internalType": "uint256",
          "name": "id",
          "type": "uint256"
        }
      ],
      "name": "URI",
      "type": "event"
    },
    {
      "inputs": [],
      "name": "ISSUED_NFT_START_ID",
      "outputs": [
        {
          "internalType": "uint256",
          "name": "",
          "type": "uint256"
        }
      ],
      "stateMutability": "view",
      "type": "function"
    },
    {
      "inputs": [],
      "name": "NFT_START_ID",
      "outputs": [
        {
          "internalType": "uint256",
          "name": "",
          "type": "uint256"
        }
      ],
      "stateMutability": "view",
      "type": "function"
    },
    {
      "inputs": [],
      "name": "POINTS_DECIMALS",
      "outputs": [
        {
          "internalType": "uint8",
          "name": "",
          "type": "uint8"
        }
      ],
      "stateMutability": "view",
      "type": "function"
    },
    {
      "inputs": [],
      "name": "POINTS_ID",
      "outputs": [
        {
          "internalType": "uint256",
          "name": "",
          "type": "uint256"
        }
      ],
      "stateMutability": "view",
      "type": "function"
    },
    {
      "inputs": [],
      "name": "VERSION",
      "outputs": [
        {
          "internalType": "uint256",
          "name": "",
          "type": "uint256"
        }
      ],
      "stateMutability": "view",
      "type": "function"
    },
    {
      "inputs": [
        {
          "internalType": "address",
          "name": "",
          "type": "address"
        },
        {
          "internalType": "uint256",
          "name": "",
          "type": "uint256"
        }
      ],
      "name": "_userOwnedNfts",
      "outputs": [
        {
          "internalType": "uint256",
          "name": "",
          "type": "uint256"
        }
      ],
      "stateMutability": "view",
      "type": "function"
    },
    {
      "inputs": [
        {
          "internalType": "uint256",
          "name": "",
          "type": "uint256"
        }
      ],
      "name": "activeMembershipCountByTierIndex",
      "outputs": [
        {
          "internalType": "uint256",
          "name": "",
          "type": "uint256"
        }
      ],
      "stateMutability": "view",
      "type": "function"
    },
    {
      "inputs": [
        {
          "internalType": "uint256",
          "name": "",
          "type": "uint256"
        }
      ],
      "name": "activeMembershipCountByTokenId",
      "outputs": [
        {
          "internalType": "uint256",
          "name": "",
          "type": "uint256"
        }
      ],
      "stateMutability": "view",
      "type": "function"
    },
    {
      "inputs": [
        {
          "internalType": "address",
          "name": "",
          "type": "address"
        }
      ],
      "name": "activeMembershipId",
      "outputs": [
        {
          "internalType": "uint256",
          "name": "",
          "type": "uint256"
        }
      ],
      "stateMutability": "view",
      "type": "function"
    },
    {
      "inputs": [
        {
          "internalType": "address",
          "name": "",
          "type": "address"
        }
      ],
      "name": "activeTierIndexOrMax",
      "outputs": [
        {
          "internalType": "uint256",
          "name": "",
          "type": "uint256"
        }
      ],
      "stateMutability": "view",
      "type": "function"
    },
    {
      "inputs": [
        {
          "internalType": "address",
          "name": "newAdmin",
          "type": "address"
        },
        {
          "internalType": "uint256",
          "name": "newThreshold",
          "type": "uint256"
        }
      ],
      "name": "addAdmin",
      "outputs": [],
      "stateMutability": "nonpayable",
      "type": "function"
    },
    {
      "inputs": [
        {
          "internalType": "uint256",
          "name": "i",
          "type": "uint256"
        }
      ],
      "name": "adminList",
      "outputs": [
        {
          "internalType": "address",
          "name": "",
          "type": "address"
        }
      ],
      "stateMutability": "view",
      "type": "function"
    },
    {
      "inputs": [
        {
          "internalType": "uint256",
          "name": "minUsdc6",
          "type": "uint256"
        },
        {
          "internalType": "uint256",
          "name": "attr",
          "type": "uint256"
        },
        {
          "internalType": "uint256",
          "name": "tierExpirySeconds",
          "type": "uint256"
        },
        {
          "internalType": "bool",
          "name": "upgradeByBalance",
          "type": "bool"
        }
      ],
      "name": "appendTier",
      "outputs": [],
      "stateMutability": "nonpayable",
      "type": "function"
    },
    {
      "inputs": [
        {
          "internalType": "uint256",
          "name": "id",
          "type": "uint256"
        }
      ],
      "name": "approveProposal",
      "outputs": [],
      "stateMutability": "nonpayable",
      "type": "function"
    },
    {
      "inputs": [
        {
          "internalType": "uint256",
          "name": "id",
          "type": "uint256"
        },
        {
          "internalType": "address",
          "name": "adminSigner",
          "type": "address"
        }
      ],
      "name": "approveProposalByGateway",
      "outputs": [],
      "stateMutability": "nonpayable",
      "type": "function"
    },
    {
      "inputs": [
        {
          "internalType": "uint256",
          "name": "",
          "type": "uint256"
        }
      ],
      "name": "attributes",
      "outputs": [
        {
          "internalType": "uint256",
          "name": "",
          "type": "uint256"
        }
      ],
      "stateMutability": "view",
      "type": "function"
    },
    {
      "inputs": [
        {
          "internalType": "address",
          "name": "account",
          "type": "address"
        },
        {
          "internalType": "uint256",
          "name": "id",
          "type": "uint256"
        }
      ],
      "name": "balanceOf",
      "outputs": [
        {
          "internalType": "uint256",
          "name": "",
          "type": "uint256"
        }
      ],
      "stateMutability": "view",
      "type": "function"
    },
    {
      "inputs": [
        {
          "internalType": "address[]",
          "name": "accounts",
          "type": "address[]"
        },
        {
          "internalType": "uint256[]",
          "name": "ids",
          "type": "uint256[]"
        }
      ],
      "name": "balanceOfBatch",
      "outputs": [
        {
          "internalType": "uint256[]",
          "name": "",
          "type": "uint256[]"
        }
      ],
      "stateMutability": "view",
      "type": "function"
    },
    {
      "inputs": [
        {
          "internalType": "string",
          "name": "code",
          "type": "string"
        }
      ],
      "name": "cancelRedeem",
      "outputs": [],
      "stateMutability": "nonpayable",
      "type": "function"
    },
    {
      "inputs": [
        {
          "internalType": "bytes32",
          "name": "title",
          "type": "bytes32"
        },
        {
          "internalType": "uint64",
          "name": "validAfter",
          "type": "uint64"
        },
        {
          "internalType": "uint64",
          "name": "validBefore",
          "type": "uint64"
        },
        {
          "internalType": "uint256",
          "name": "maxSupply",
          "type": "uint256"
        },
        {
          "internalType": "uint256",
          "name": "priceInCurrency6",
          "type": "uint256"
        },
        {
          "internalType": "bytes32",
          "name": "sharedMetadataHash",
          "type": "bytes32"
        }
      ],
      "name": "createIssuedNft",
      "outputs": [
        {
          "internalType": "uint256",
          "name": "tokenId",
          "type": "uint256"
        }
      ],
      "stateMutability": "nonpayable",
      "type": "function"
    },
    {
      "inputs": [
        {
          "internalType": "bytes4",
          "name": "selector",
          "type": "bytes4"
        },
        {
          "internalType": "address",
          "name": "target",
          "type": "address"
        },
        {
          "internalType": "uint256",
          "name": "v1",
          "type": "uint256"
        },
        {
          "internalType": "uint256",
          "name": "v2",
          "type": "uint256"
        },
        {
          "internalType": "uint256",
          "name": "v3",
          "type": "uint256"
        }
      ],
      "name": "createProposal",
      "outputs": [
        {
          "internalType": "uint256",
          "name": "",
          "type": "uint256"
        }
      ],
      "stateMutability": "nonpayable",
      "type": "function"
    },
    {
      "inputs": [
        {
          "internalType": "bytes32",
          "name": "hash",
          "type": "bytes32"
        },
        {
          "internalType": "uint256",
          "name": "points6",
          "type": "uint256"
        },
        {
          "internalType": "uint256",
          "name": "attr",
          "type": "uint256"
        },
        {
          "internalType": "uint64",
          "name": "validAfter",
          "type": "uint64"
        },
        {
          "internalType": "uint64",
          "name": "validBefore",
          "type": "uint64"
        },
        {
          "internalType": "uint256[]",
          "name": "tokenIds",
          "type": "uint256[]"
        },
        {
          "internalType": "uint256[]",
          "name": "amounts",
          "type": "uint256[]"
        }
      ],
      "name": "createRedeem",
      "outputs": [],
      "stateMutability": "nonpayable",
      "type": "function"
    },
    {
      "inputs": [
        {
          "internalType": "bytes32[]",
          "name": "hashes",
          "type": "bytes32[]"
        },
        {
          "internalType": "uint256",
          "name": "points6",
          "type": "uint256"
        },
        {
          "internalType": "uint256",
          "name": "attr",
          "type": "uint256"
        },
        {
          "internalType": "uint64",
          "name": "validAfter",
          "type": "uint64"
        },
        {
          "internalType": "uint64",
          "name": "validBefore",
          "type": "uint64"
        },
        {
          "internalType": "uint256[]",
          "name": "tokenIds",
          "type": "uint256[]"
        },
        {
          "internalType": "uint256[]",
          "name": "amounts",
          "type": "uint256[]"
        }
      ],
      "name": "createRedeemBatch",
      "outputs": [],
      "stateMutability": "nonpayable",
      "type": "function"
    },
    {
      "inputs": [
        {
          "internalType": "bytes32",
          "name": "poolHash",
          "type": "bytes32"
        },
        {
          "internalType": "uint64",
          "name": "validAfter",
          "type": "uint64"
        },
        {
          "internalType": "uint64",
          "name": "validBefore",
          "type": "uint64"
        },
        {
          "internalType": "uint256[][]",
          "name": "tokenIdsList",
          "type": "uint256[][]"
        },
        {
          "internalType": "uint256[][]",
          "name": "amountsList",
          "type": "uint256[][]"
        },
        {
          "internalType": "uint32[]",
          "name": "counts",
          "type": "uint32[]"
        }
      ],
      "name": "createRedeemPool",
      "outputs": [],
      "stateMutability": "nonpayable",
      "type": "function"
    },
    {
      "inputs": [],
      "name": "currency",
      "outputs": [
        {
          "internalType": "enum BeamioCurrency.CurrencyType",
          "name": "",
          "type": "uint8"
        }
      ],
      "stateMutability": "view",
      "type": "function"
    },
    {
      "inputs": [],
      "name": "debugGateway",
      "outputs": [
        {
          "internalType": "address",
          "name": "",
          "type": "address"
        }
      ],
      "stateMutability": "view",
      "type": "function"
    },
    {
      "inputs": [],
      "name": "defaultAttrWhenNoTiers",
      "outputs": [
        {
          "internalType": "uint256",
          "name": "",
          "type": "uint256"
        }
      ],
      "stateMutability": "view",
      "type": "function"
    },
    {
      "inputs": [],
      "name": "deployer",
      "outputs": [
        {
          "internalType": "address",
          "name": "",
          "type": "address"
        }
      ],
      "stateMutability": "view",
      "type": "function"
    },
    {
      "inputs": [
        {
          "internalType": "uint256",
          "name": "",
          "type": "uint256"
        }
      ],
      "name": "expiresAt",
      "outputs": [
        {
          "internalType": "uint256",
          "name": "",
          "type": "uint256"
        }
      ],
      "stateMutability": "view",
      "type": "function"
    },
    {
      "inputs": [],
      "name": "expirySeconds",
      "outputs": [
        {
          "internalType": "uint256",
          "name": "",
          "type": "uint256"
        }
      ],
      "stateMutability": "view",
      "type": "function"
    },
    {
      "inputs": [],
      "name": "factoryGateway",
      "outputs": [
        {
          "internalType": "address",
          "name": "",
          "type": "address"
        }
      ],
      "stateMutability": "view",
      "type": "function"
    },
    {
      "inputs": [
        {
          "internalType": "address",
          "name": "userEOA",
          "type": "address"
        },
        {
          "internalType": "uint256",
          "name": "id",
          "type": "uint256"
        },
        {
          "internalType": "uint256",
          "name": "amount",
          "type": "uint256"
        }
      ],
      "name": "faucetByGateway",
      "outputs": [],
      "stateMutability": "nonpayable",
      "type": "function"
    },
    {
      "inputs": [
        {
          "internalType": "uint256",
          "name": "id",
          "type": "uint256"
        }
      ],
      "name": "faucetConfig",
      "outputs": [
        {
          "components": [
            {
              "internalType": "uint64",
              "name": "validUntil",
              "type": "uint64"
            },
            {
              "internalType": "uint64",
              "name": "perClaimMax",
              "type": "uint64"
            },
            {
              "internalType": "uint128",
              "name": "maxPerUser",
              "type": "uint128"
            },
            {
              "internalType": "uint128",
              "name": "maxGlobal",
              "type": "uint128"
            },
            {
              "internalType": "bool",
              "name": "enabled",
              "type": "bool"
            },
            {
              "internalType": "uint8",
              "name": "currency",
              "type": "uint8"
            },
            {
              "internalType": "uint8",
              "name": "decimals",
              "type": "uint8"
            },
            {
              "internalType": "uint128",
              "name": "priceInCurrency6",
              "type": "uint128"
            }
          ],
          "internalType": "struct FaucetStorage.FaucetConfig",
          "name": "",
          "type": "tuple"
        }
      ],
      "stateMutability": "view",
      "type": "function"
    },
    {
      "inputs": [],
      "name": "gateway",
      "outputs": [
        {
          "internalType": "address",
          "name": "",
          "type": "address"
        }
      ],
      "stateMutability": "view",
      "type": "function"
    },
    {
      "inputs": [
        {
          "internalType": "address",
          "name": "user",
          "type": "address"
        }
      ],
      "name": "getOwnership",
      "outputs": [
        {
          "internalType": "uint256",
          "name": "pt",
          "type": "uint256"
        },
        {
          "components": [
            {
              "internalType": "uint256",
              "name": "tokenId",
              "type": "uint256"
            },
            {
              "internalType": "uint256",
              "name": "attribute",
              "type": "uint256"
            },
            {
              "internalType": "uint256",
              "name": "tierIndexOrMax",
              "type": "uint256"
            },
            {
              "internalType": "uint256",
              "name": "expiry",
              "type": "uint256"
            },
            {
              "internalType": "bool",
              "name": "isExpired",
              "type": "bool"
            }
          ],
          "internalType": "struct BeamioUserCard.NFTDetail[]",
          "name": "nfts",
          "type": "tuple[]"
        }
      ],
      "stateMutability": "view",
      "type": "function"
    },
    {
      "inputs": [
        {
          "internalType": "address",
          "name": "userEOA",
          "type": "address"
        }
      ],
      "name": "getOwnershipByEOA",
      "outputs": [
        {
          "internalType": "uint256",
          "name": "pt",
          "type": "uint256"
        },
        {
          "components": [
            {
              "internalType": "uint256",
              "name": "tokenId",
              "type": "uint256"
            },
            {
              "internalType": "uint256",
              "name": "attribute",
              "type": "uint256"
            },
            {
              "internalType": "uint256",
              "name": "tierIndexOrMax",
              "type": "uint256"
            },
            {
              "internalType": "uint256",
              "name": "expiry",
              "type": "uint256"
            },
            {
              "internalType": "bool",
              "name": "isExpired",
              "type": "bool"
            }
          ],
          "internalType": "struct BeamioUserCard.NFTDetail[]",
          "name": "nfts",
          "type": "tuple[]"
        }
      ],
      "stateMutability": "view",
      "type": "function"
    },
    {
      "inputs": [
        {
          "internalType": "bytes32",
          "name": "hash",
          "type": "bytes32"
        }
      ],
      "name": "getRedeemStatus",
      "outputs": [
        {
          "internalType": "bool",
          "name": "active",
          "type": "bool"
        },
        {
          "internalType": "uint256",
          "name": "totalPoints6",
          "type": "uint256"
        }
      ],
      "stateMutability": "view",
      "type": "function"
    },
    {
      "inputs": [
        {
          "internalType": "string[]",
          "name": "codes",
          "type": "string[]"
        }
      ],
      "name": "getRedeemStatusBatch",
      "outputs": [
        {
          "internalType": "bool[]",
          "name": "active",
          "type": "bool[]"
        },
        {
          "internalType": "uint256[]",
          "name": "totalPoints6",
          "type": "uint256[]"
        }
      ],
      "stateMutability": "view",
      "type": "function"
    },
    {
      "inputs": [
        {
          "internalType": "bytes32[]",
          "name": "hashes",
          "type": "bytes32[]"
        }
      ],
      "name": "getRedeemStatusBatch",
      "outputs": [
        {
          "internalType": "bool[]",
          "name": "active",
          "type": "bool[]"
        },
        {
          "internalType": "uint256[]",
          "name": "totalPoints6",
          "type": "uint256[]"
        }
      ],
      "stateMutability": "view",
      "type": "function"
    },
    {
      "inputs": [
        {
          "internalType": "bytes32",
          "name": "hash",
          "type": "bytes32"
        },
        {
          "internalType": "address",
          "name": "claimer",
          "type": "address"
        }
      ],
      "name": "getRedeemStatusEx",
      "outputs": [
        {
          "internalType": "bool",
          "name": "active",
          "type": "bool"
        },
        {
          "internalType": "uint128",
          "name": "points6",
          "type": "uint128"
        },
        {
          "internalType": "bool",
          "name": "isPool",
          "type": "bool"
        }
      ],
      "stateMutability": "view",
      "type": "function"
    },
    {
      "inputs": [
        {
          "internalType": "uint256",
          "name": "idx",
          "type": "uint256"
        }
      ],
      "name": "getTierAt",
      "outputs": [
        {
          "components": [
            {
              "internalType": "uint256",
              "name": "minUsdc6",
              "type": "uint256"
            },
            {
              "internalType": "uint256",
              "name": "attr",
              "type": "uint256"
            },
            {
              "internalType": "uint256",
              "name": "tierExpirySeconds",
              "type": "uint256"
            },
            {
              "internalType": "bool",
              "name": "upgradeByBalance",
              "type": "bool"
            }
          ],
          "internalType": "struct BeamioUserCard.Tier",
          "name": "",
          "type": "tuple"
        }
      ],
      "stateMutability": "view",
      "type": "function"
    },
    {
      "inputs": [],
      "name": "getTiersCount",
      "outputs": [
        {
          "internalType": "uint256",
          "name": "",
          "type": "uint256"
        }
      ],
      "stateMutability": "view",
      "type": "function"
    },
    {
      "inputs": [
        {
          "internalType": "address",
          "name": "a",
          "type": "address"
        }
      ],
      "name": "isAdmin",
      "outputs": [
        {
          "internalType": "bool",
          "name": "",
          "type": "bool"
        }
      ],
      "stateMutability": "view",
      "type": "function"
    },
    {
      "inputs": [
        {
          "internalType": "address",
          "name": "account",
          "type": "address"
        },
        {
          "internalType": "address",
          "name": "operator",
          "type": "address"
        }
      ],
      "name": "isApprovedForAll",
      "outputs": [
        {
          "internalType": "bool",
          "name": "",
          "type": "bool"
        }
      ],
      "stateMutability": "view",
      "type": "function"
    },
    {
      "inputs": [
        {
          "internalType": "uint256",
          "name": "tokenId",
          "type": "uint256"
        }
      ],
      "name": "isIssuedNftValid",
      "outputs": [
        {
          "internalType": "bool",
          "name": "",
          "type": "bool"
        }
      ],
      "stateMutability": "view",
      "type": "function"
    },
    {
      "inputs": [],
      "name": "issuedNftIndex",
      "outputs": [
        {
          "internalType": "uint256",
          "name": "",
          "type": "uint256"
        }
      ],
      "stateMutability": "view",
      "type": "function"
    },
    {
      "inputs": [
        {
          "internalType": "uint256",
          "name": "tokenId",
          "type": "uint256"
        }
      ],
      "name": "issuedNftMaxSupply",
      "outputs": [
        {
          "internalType": "uint256",
          "name": "",
          "type": "uint256"
        }
      ],
      "stateMutability": "view",
      "type": "function"
    },
    {
      "inputs": [
        {
          "internalType": "uint256",
          "name": "tokenId",
          "type": "uint256"
        }
      ],
      "name": "issuedNftMintedCount",
      "outputs": [
        {
          "internalType": "uint256",
          "name": "",
          "type": "uint256"
        }
      ],
      "stateMutability": "view",
      "type": "function"
    },
    {
      "inputs": [
        {
          "internalType": "uint256",
          "name": "tokenId",
          "type": "uint256"
        }
      ],
      "name": "issuedNftPriceInCurrency6",
      "outputs": [
        {
          "internalType": "uint256",
          "name": "",
          "type": "uint256"
        }
      ],
      "stateMutability": "view",
      "type": "function"
    },
    {
      "inputs": [
        {
          "internalType": "uint256",
          "name": "tokenId",
          "type": "uint256"
        }
      ],
      "name": "issuedNftSharedMetadataHash",
      "outputs": [
        {
          "internalType": "bytes32",
          "name": "",
          "type": "bytes32"
        }
      ],
      "stateMutability": "view",
      "type": "function"
    },
    {
      "inputs": [
        {
          "internalType": "uint256",
          "name": "tokenId",
          "type": "uint256"
        }
      ],
      "name": "issuedNftTitle",
      "outputs": [
        {
          "internalType": "bytes32",
          "name": "",
          "type": "bytes32"
        }
      ],
      "stateMutability": "view",
      "type": "function"
    },
    {
      "inputs": [
        {
          "internalType": "uint256",
          "name": "tokenId",
          "type": "uint256"
        }
      ],
      "name": "issuedNftValidAfter",
      "outputs": [
        {
          "internalType": "uint64",
          "name": "",
          "type": "uint64"
        }
      ],
      "stateMutability": "view",
      "type": "function"
    },
    {
      "inputs": [
        {
          "internalType": "uint256",
          "name": "tokenId",
          "type": "uint256"
        }
      ],
      "name": "issuedNftValidBefore",
      "outputs": [
        {
          "internalType": "uint64",
          "name": "",
          "type": "uint64"
        }
      ],
      "stateMutability": "view",
      "type": "function"
    },
    {
      "inputs": [
        {
          "internalType": "uint64",
          "name": "hourIndex",
          "type": "uint64"
        }
      ],
      "name": "membershipFlowBucketAtHour",
      "outputs": [
        {
          "internalType": "uint256",
          "name": "issuedCount",
          "type": "uint256"
        },
        {
          "internalType": "uint256",
          "name": "upgradedCount",
          "type": "uint256"
        },
        {
          "internalType": "uint256",
          "name": "expiredDiscoveredCount",
          "type": "uint256"
        },
        {
          "internalType": "uint256",
          "name": "activeSwitchCount",
          "type": "uint256"
        },
        {
          "internalType": "uint256",
          "name": "activatedCount",
          "type": "uint256"
        },
        {
          "internalType": "uint256",
          "name": "deactivatedCount",
          "type": "uint256"
        },
        {
          "internalType": "bool",
          "name": "hasData",
          "type": "bool"
        }
      ],
      "stateMutability": "view",
      "type": "function"
    },
    {
      "inputs": [
        {
          "internalType": "uint8",
          "name": "scopeType",
          "type": "uint8"
        },
        {
          "internalType": "uint256",
          "name": "scopeKey",
          "type": "uint256"
        },
        {
          "internalType": "uint64",
          "name": "hourIndex",
          "type": "uint64"
        }
      ],
      "name": "membershipScopedFlowBucketAtHour",
      "outputs": [
        {
          "internalType": "uint256",
          "name": "issuedCount",
          "type": "uint256"
        },
        {
          "internalType": "uint256",
          "name": "upgradedCount",
          "type": "uint256"
        },
        {
          "internalType": "uint256",
          "name": "expiredDiscoveredCount",
          "type": "uint256"
        },
        {
          "internalType": "uint256",
          "name": "activeSwitchCount",
          "type": "uint256"
        },
        {
          "internalType": "uint256",
          "name": "activatedCount",
          "type": "uint256"
        },
        {
          "internalType": "uint256",
          "name": "deactivatedCount",
          "type": "uint256"
        },
        {
          "internalType": "bool",
          "name": "hasData",
          "type": "bool"
        }
      ],
      "stateMutability": "view",
      "type": "function"
    },
    {
      "inputs": [],
      "name": "metadataBaseURI",
      "outputs": [
        {
          "internalType": "string",
          "name": "",
          "type": "string"
        }
      ],
      "stateMutability": "view",
      "type": "function"
    },
    {
      "inputs": [
        {
          "internalType": "address",
          "name": "userEOA",
          "type": "address"
        },
        {
          "internalType": "uint256",
          "name": "id",
          "type": "uint256"
        },
        {
          "internalType": "uint256",
          "name": "amount6",
          "type": "uint256"
        }
      ],
      "name": "mintFaucetByGateway",
      "outputs": [],
      "stateMutability": "nonpayable",
      "type": "function"
    },
    {
      "inputs": [
        {
          "internalType": "address",
          "name": "userEOA",
          "type": "address"
        },
        {
          "internalType": "uint256",
          "name": "tokenId",
          "type": "uint256"
        },
        {
          "internalType": "uint256",
          "name": "amount",
          "type": "uint256"
        }
      ],
      "name": "mintIssuedNftByGateway",
      "outputs": [],
      "stateMutability": "nonpayable",
      "type": "function"
    },
    {
      "inputs": [
        {
          "internalType": "address",
          "name": "to",
          "type": "address"
        },
        {
          "internalType": "uint256",
          "name": "tokenId",
          "type": "uint256"
        },
        {
          "internalType": "uint256",
          "name": "amount",
          "type": "uint256"
        }
      ],
      "name": "mintIssuedNftByOwner",
      "outputs": [],
      "stateMutability": "nonpayable",
      "type": "function"
    },
    {
      "inputs": [
        {
          "internalType": "address",
          "name": "user",
          "type": "address"
        },
        {
          "internalType": "uint256",
          "name": "tierIndex",
          "type": "uint256"
        }
      ],
      "name": "mintMemberCardByAdmin",
      "outputs": [],
      "stateMutability": "nonpayable",
      "type": "function"
    },
    {
      "inputs": [
        {
          "internalType": "address",
          "name": "user",
          "type": "address"
        },
        {
          "internalType": "uint256",
          "name": "points6",
          "type": "uint256"
        }
      ],
      "name": "mintPointsByAdmin",
      "outputs": [],
      "stateMutability": "nonpayable",
      "type": "function"
    },
    {
      "inputs": [
        {
          "internalType": "address",
          "name": "userEOA",
          "type": "address"
        },
        {
          "internalType": "uint256",
          "name": "points6",
          "type": "uint256"
        }
      ],
      "name": "mintPointsByGateway",
      "outputs": [],
      "stateMutability": "nonpayable",
      "type": "function"
    },
    {
      "inputs": [],
      "name": "owner",
      "outputs": [
        {
          "internalType": "address",
          "name": "",
          "type": "address"
        }
      ],
      "stateMutability": "view",
      "type": "function"
    },
    {
      "inputs": [],
      "name": "pointsUnitPriceInCurrencyE6",
      "outputs": [
        {
          "internalType": "uint256",
          "name": "",
          "type": "uint256"
        }
      ],
      "stateMutability": "view",
      "type": "function"
    },
    {
      "inputs": [],
      "name": "proposalCount",
      "outputs": [
        {
          "internalType": "uint256",
          "name": "",
          "type": "uint256"
        }
      ],
      "stateMutability": "view",
      "type": "function"
    },
    {
      "inputs": [
        {
          "internalType": "uint256",
          "name": "id",
          "type": "uint256"
        }
      ],
      "name": "proposals",
      "outputs": [
        {
          "components": [
            {
              "internalType": "address",
              "name": "target",
              "type": "address"
            },
            {
              "internalType": "uint256",
              "name": "v1",
              "type": "uint256"
            },
            {
              "internalType": "uint256",
              "name": "v2",
              "type": "uint256"
            },
            {
              "internalType": "uint256",
              "name": "v3",
              "type": "uint256"
            },
            {
              "internalType": "bytes4",
              "name": "selector",
              "type": "bytes4"
            },
            {
              "internalType": "uint256",
              "name": "approvals",
              "type": "uint256"
            },
            {
              "internalType": "bool",
              "name": "executed",
              "type": "bool"
            }
          ],
          "internalType": "struct GovernanceStorage.Proposal",
          "name": "",
          "type": "tuple"
        }
      ],
      "stateMutability": "view",
      "type": "function"
    },
    {
      "inputs": [
        {
          "internalType": "string[]",
          "name": "codes",
          "type": "string[]"
        },
        {
          "internalType": "address",
          "name": "userEOA",
          "type": "address"
        }
      ],
      "name": "redeemBatchByGateway",
      "outputs": [],
      "stateMutability": "nonpayable",
      "type": "function"
    },
    {
      "inputs": [
        {
          "internalType": "string",
          "name": "code",
          "type": "string"
        },
        {
          "internalType": "address",
          "name": "userEOA",
          "type": "address"
        }
      ],
      "name": "redeemByGateway",
      "outputs": [],
      "stateMutability": "nonpayable",
      "type": "function"
    },
    {
      "inputs": [
        {
          "internalType": "string",
          "name": "code",
          "type": "string"
        },
        {
          "internalType": "address",
          "name": "userEOA",
          "type": "address"
        }
      ],
      "name": "redeemPoolByGateway",
      "outputs": [],
      "stateMutability": "nonpayable",
      "type": "function"
    },
    {
      "inputs": [
        {
          "internalType": "address",
          "name": "adminToRemove",
          "type": "address"
        },
        {
          "internalType": "uint256",
          "name": "newThreshold",
          "type": "uint256"
        }
      ],
      "name": "removeAdmin",
      "outputs": [],
      "stateMutability": "nonpayable",
      "type": "function"
    },
    {
      "inputs": [],
      "name": "renounceOwnership",
      "outputs": [],
      "stateMutability": "nonpayable",
      "type": "function"
    },
    {
      "inputs": [
        {
          "internalType": "address",
          "name": "from",
          "type": "address"
        },
        {
          "internalType": "address",
          "name": "to",
          "type": "address"
        },
        {
          "internalType": "uint256[]",
          "name": "ids",
          "type": "uint256[]"
        },
        {
          "internalType": "uint256[]",
          "name": "values",
          "type": "uint256[]"
        },
        {
          "internalType": "bytes",
          "name": "data",
          "type": "bytes"
        }
      ],
      "name": "safeBatchTransferFrom",
      "outputs": [],
      "stateMutability": "nonpayable",
      "type": "function"
    },
    {
      "inputs": [
        {
          "internalType": "address",
          "name": "from",
          "type": "address"
        },
        {
          "internalType": "address",
          "name": "to",
          "type": "address"
        },
        {
          "internalType": "uint256",
          "name": "id",
          "type": "uint256"
        },
        {
          "internalType": "uint256",
          "name": "value",
          "type": "uint256"
        },
        {
          "internalType": "bytes",
          "name": "data",
          "type": "bytes"
        }
      ],
      "name": "safeTransferFrom",
      "outputs": [],
      "stateMutability": "nonpayable",
      "type": "function"
    },
    {
      "inputs": [
        {
          "internalType": "address",
          "name": "operator",
          "type": "address"
        },
        {
          "internalType": "bool",
          "name": "approved",
          "type": "bool"
        }
      ],
      "name": "setApprovalForAll",
      "outputs": [],
      "stateMutability": "nonpayable",
      "type": "function"
    },
    {
      "inputs": [
        {
          "internalType": "uint256",
          "name": "attr",
          "type": "uint256"
        }
      ],
      "name": "setDefaultAttr",
      "outputs": [],
      "stateMutability": "nonpayable",
      "type": "function"
    },
    {
      "inputs": [
        {
          "internalType": "uint256",
          "name": "secs",
          "type": "uint256"
        }
      ],
      "name": "setExpirySeconds",
      "outputs": [],
      "stateMutability": "nonpayable",
      "type": "function"
    },
    {
      "inputs": [
        {
          "internalType": "uint256",
          "name": "id",
          "type": "uint256"
        },
        {
          "internalType": "uint64",
          "name": "validUntil",
          "type": "uint64"
        },
        {
          "internalType": "uint64",
          "name": "perClaimMax",
          "type": "uint64"
        },
        {
          "internalType": "uint128",
          "name": "maxPerUser",
          "type": "uint128"
        },
        {
          "internalType": "uint128",
          "name": "maxGlobal",
          "type": "uint128"
        },
        {
          "internalType": "bool",
          "name": "enabled",
          "type": "bool"
        },
        {
          "internalType": "enum BeamioCurrency.CurrencyType",
          "name": "cur",
          "type": "uint8"
        },
        {
          "internalType": "uint128",
          "name": "priceInCurrency6",
          "type": "uint128"
        }
      ],
      "name": "setFaucetConfig",
      "outputs": [],
      "stateMutability": "nonpayable",
      "type": "function"
    },
    {
      "inputs": [
        {
          "internalType": "uint256",
          "name": "priceInCurrencyE6",
          "type": "uint256"
        }
      ],
      "name": "setPointsUnitPrice",
      "outputs": [],
      "stateMutability": "nonpayable",
      "type": "function"
    },
    {
      "inputs": [
        {
          "components": [
            {
              "internalType": "uint256",
              "name": "minUsdc6",
              "type": "uint256"
            },
            {
              "internalType": "uint256",
              "name": "attr",
              "type": "uint256"
            },
            {
              "internalType": "uint256",
              "name": "tierExpirySeconds",
              "type": "uint256"
            },
            {
              "internalType": "bool",
              "name": "upgradeByBalance",
              "type": "bool"
            }
          ],
          "internalType": "struct BeamioUserCard.Tier[]",
          "name": "newTiers",
          "type": "tuple[]"
        }
      ],
      "name": "setTiers",
      "outputs": [],
      "stateMutability": "nonpayable",
      "type": "function"
    },
    {
      "inputs": [
        {
          "internalType": "address",
          "name": "target",
          "type": "address"
        },
        {
          "internalType": "bool",
          "name": "allowed",
          "type": "bool"
        }
      ],
      "name": "setTransferWhitelist",
      "outputs": [],
      "stateMutability": "nonpayable",
      "type": "function"
    },
    {
      "inputs": [
        {
          "internalType": "bool",
          "name": "enabled",
          "type": "bool"
        }
      ],
      "name": "setTransferWhitelistEnabled",
      "outputs": [],
      "stateMutability": "nonpayable",
      "type": "function"
    },
    {
      "inputs": [
        {
          "internalType": "bytes4",
          "name": "interfaceId",
          "type": "bytes4"
        }
      ],
      "name": "supportsInterface",
      "outputs": [
        {
          "internalType": "bool",
          "name": "",
          "type": "bool"
        }
      ],
      "stateMutability": "view",
      "type": "function"
    },
    {
      "inputs": [
        {
          "internalType": "bytes32",
          "name": "poolHash",
          "type": "bytes32"
        }
      ],
      "name": "terminateRedeemPool",
      "outputs": [],
      "stateMutability": "nonpayable",
      "type": "function"
    },
    {
      "inputs": [],
      "name": "threshold",
      "outputs": [
        {
          "internalType": "uint256",
          "name": "",
          "type": "uint256"
        }
      ],
      "stateMutability": "view",
      "type": "function"
    },
    {
      "inputs": [
        {
          "internalType": "uint256",
          "name": "",
          "type": "uint256"
        }
      ],
      "name": "tiers",
      "outputs": [
        {
          "internalType": "uint256",
          "name": "minUsdc6",
          "type": "uint256"
        },
        {
          "internalType": "uint256",
          "name": "attr",
          "type": "uint256"
        },
        {
          "internalType": "uint256",
          "name": "tierExpirySeconds",
          "type": "uint256"
        },
        {
          "internalType": "bool",
          "name": "upgradeByBalance",
          "type": "bool"
        }
      ],
      "stateMutability": "view",
      "type": "function"
    },
    {
      "inputs": [
        {
          "internalType": "uint256",
          "name": "",
          "type": "uint256"
        }
      ],
      "name": "tokenTierIndexOrMax",
      "outputs": [
        {
          "internalType": "uint256",
          "name": "",
          "type": "uint256"
        }
      ],
      "stateMutability": "view",
      "type": "function"
    },
    {
      "inputs": [],
      "name": "totalActiveMemberships",
      "outputs": [
        {
          "internalType": "uint256",
          "name": "",
          "type": "uint256"
        }
      ],
      "stateMutability": "view",
      "type": "function"
    },
    {
      "inputs": [],
      "name": "totalMembershipIssued",
      "outputs": [
        {
          "internalType": "uint256",
          "name": "",
          "type": "uint256"
        }
      ],
      "stateMutability": "view",
      "type": "function"
    },
    {
      "inputs": [
        {
          "internalType": "uint256",
          "name": "",
          "type": "uint256"
        }
      ],
      "name": "totalMembershipIssuedByTierIndex",
      "outputs": [
        {
          "internalType": "uint256",
          "name": "",
          "type": "uint256"
        }
      ],
      "stateMutability": "view",
      "type": "function"
    },
    {
      "inputs": [],
      "name": "totalMembershipUpgraded",
      "outputs": [
        {
          "internalType": "uint256",
          "name": "",
          "type": "uint256"
        }
      ],
      "stateMutability": "view",
      "type": "function"
    },
    {
      "inputs": [
        {
          "internalType": "address",
          "name": "newOwner",
          "type": "address"
        }
      ],
      "name": "transferOwnership",
      "outputs": [],
      "stateMutability": "nonpayable",
      "type": "function"
    },
    {
      "inputs": [
        {
          "internalType": "address",
          "name": "",
          "type": "address"
        }
      ],
      "name": "transferWhitelist",
      "outputs": [
        {
          "internalType": "bool",
          "name": "",
          "type": "bool"
        }
      ],
      "stateMutability": "view",
      "type": "function"
    },
    {
      "inputs": [],
      "name": "transferWhitelistEnabled",
      "outputs": [
        {
          "internalType": "bool",
          "name": "",
          "type": "bool"
        }
      ],
      "stateMutability": "view",
      "type": "function"
    },
    {
      "inputs": [
        {
          "internalType": "uint256",
          "name": "",
          "type": "uint256"
        }
      ],
      "name": "uri",
      "outputs": [
        {
          "internalType": "string",
          "name": "",
          "type": "string"
        }
      ],
      "stateMutability": "view",
      "type": "function"
    }
  ],
  "bytecode": "0x60a06040523461033e57615f2c8038038061001981610342565b928339810160a08282031261033e5781516001600160401b03811161033e57820181601f8201121561033e5780516001600160401b0381116102ae57610068601f8201601f1916602001610342565b928184526020828401011161033e575f928160208094018483015e0101526020810151600981101561033e576040820151916100b260806100ab60608401610367565b9201610367565b926020915f6100c084610342565b52600254600181811c91168015610334575b8482101461032057601f81116102ee575b505f6002556001600160a01b03169283156102db57600380546001600160a01b031981168617909155604051959085906001600160a01b03167f8be0079c531659141344cd1fd0a4f28419497f9722a3daafe3b4186f6b6457e05f80a3600160045560646019556001600160a01b0381169081159081156102d1575b506102c25733608052600580546001600160a01b03191682179055600680546001600160a81b03191690911760a09290921b60ff60a01b1691909117905560075560017fbc488d3e2575f0f2113dc4d9a0cd6bc52445c6bc28a8974ed97a6ba3ecfd657a8190555f8381527fbc488d3e2575f0f2113dc4d9a0cd6bc52445c6bc28a8974ed97a6ba3ecfd657b835260409020805460ff191690911790555f516020615f0c5f395f51905f525490680100000000000000008210156102ae5760018201805f516020615f0c5f395f51905f525582101561029a575f516020615f0c5f395f51905f525f908152200180546001600160a01b031916909117905564174876e8007ffed699897f2561c8a98f833aa3de83c4904370d413fe5fb15abe26e9f8150b2955615b90908161037c823960805181612ec70152f35b634e487b7160e01b5f52603260045260245ffd5b634e487b7160e01b5f52604160045260245ffd5b63ab82bb9960e01b5f5260045ffd5b90503b155f61015f565b631e4fbdf760e01b5f525f60045260245ffd5b80156100e35760025f52601f845f20910160051c905f5b8281106103135750506100e3565b5f82820155600101610305565b634e487b7160e01b5f52602260045260245ffd5b90607f16906100d2565b5f80fd5b6040519190601f01601f191682016001600160401b038111838210176102ae57604052565b51906001600160a01b038216820361033e5756fe60806040526004361015610011575f80fd5b5f3560e01c8062fdd58e146105e9578063013cf08b146105e457806301f28d91146105df57806301ffc9a7146105da578063039af9eb146105d557806303ca3e38146105d05780630b6c8d71146105cb5780630bd67833146105c65780630e4ab487146105c15780630e89341c146105bc57806310bba864146105b757806311117fc8146105b2578063116191b6146105495780631284b92f146105ad57806315a76229146105a857806317c95709146105a35780631c790e241461059e5780631fe56e6a1461059957806322c6102e1461059457806324d7806c1461058f578063254582651461058a5780632b681a54146105855780632eb2c2d614610580578063312e76a91461057b57806331b86d351461057657806334bca52c146105715780633c703d451461056c5780633c970fb91461056757806342cde4e814610562578063475e53ec1461055d5780634dda2215146105585780634e1273f41461055357806352b9ec231461054e57806353785619146105495780635476d07114610544578063562178481461053f5780635637d5bc1461053a578063564da75714610535578063569881301461053057806356c689fa1461052b5780636465c3a714610526578063671395c814610521578063677f58b91461051c578063684cc3a514610517578063706e013214610512578063715018a61461050d57806371b8982f1461042c57806371d7193b146105085780637940482b146105035780637fcb29c9146104fe5780637ffbe241146104f957806382b720c9146104f457806383dbbf53146104ef578063897828a8146104ea5780638b3c6f8f146104e55780638da5cb5b146104e05780638db55308146104db57806391afe172146104d657806394b2e946146104d15780639565c542146104cc57806395f7b2ff146104c757806398951b56146104c25780639f1bbda7146104bd5780639f3d1a2a146104b85780639f48facc146104b3578063a22cb465146104ae578063a4790446146104a9578063a876c759146104a4578063a98d916e1461049f578063acf12d3d1461049a578063af7ffa2b14610495578063b3b86ddc14610490578063c6073f161461048b578063c6e0ddfa14610486578063c926bbfd14610481578063c9840daf1461047c578063cbc4e1aa14610477578063d05dcc6a14610472578063d4506e771461046d578063d52dc51514610468578063d5f3948814610463578063da35c6641461045e578063dd1bc5e914610459578063e141dcb814610454578063e4a34dce1461044f578063e5a6b10f1461044a578063e985e9c514610445578063f242432a14610440578063f2fde38b1461043b578063f51089f614610436578063f540f22714610431578063f986f6761461042c578063fcef6b01146104275763ffa1ad7414610422575f80fd5b6133bf565b6133a2565b611e21565b613378565b613291565b61321a565b61312d565b6130e2565b6130a2565b61306d565b612f5c565b612f32565b612ef6565b612eb2565b612e90565b612e38565b612e0e565b612d65565b612c8b565b612c71565b612c19565b612b57565b612b19565b612a33565b612a16565b6129f7565b6129da565b612754565b6126d5565b61258a565b6124d7565b6124ba565b612446565b6123fd565b6123d5565b61239a565b612346565b61231e565b6122f6565b6122ad565b61224b565b6121e9565b6120ed565b6120ad565b612032565b611ff4565b611eed565b611d74565b611d55565b611d0c565b611cc1565b611c79565b611bb0565b611b21565b6119ce565b611916565b6118fb565b6118d1565b6118b4565b610e3f565b611820565b61175f565b6116fe565b61168c565b611663565b611623565b6115da565b611591565b611565565b61150a565b611476565b6112d7565b61129b565b611266565b6111cf565b611175565b6110b8565b61108e565b610f87565b610f2b565b610e08565b610dc9565b610c8c565b610c06565b610b8e565b610ad9565b6108ea565b61086d565b6107ca565b61079b565b61064b565b61060f565b6001600160a01b031690565b6001600160a01b0381160361060b57565b5f80fd5b3461060b57604036600319011261060b576020610642600435610631816105fa565b6024355f525f835260405f20610ed1565b54604051908152f35b3461060b57602036600319011261060b576004355f60c060405161066e8161130b565b8281528260208201528260408201528260608201528260808201528260a082015201525f525f516020615b1b5f395f51905f5260205261079760405f2061073561072c6006604051936106c08561130b565b6106da6106cd82546105ee565b6001600160a01b03168652565b60018101546020860152600281015460408601526003810154606086015261071a610709600483015460e01b90565b6001600160e01b0319166080870152565b600581015460a0860152015460ff1690565b151560c0830152565b6040519182918291909160c08060e083019460018060a01b03815116845260208101516020850152604081015160408501526060810151606085015263ffffffff60e01b608082015116608085015260a081015160a085015201511515910152565b0390f35b3461060b575f36600319011261060b576020601754604051908152f35b6001600160e01b031981160361060b57565b3461060b57602036600319011261060b5760206004356107e9816107b8565b63ffffffff60e01b16636cdb3d1360e11b8114908115610827575b8115610816575b506040519015158152f35b6301ffc9a760e01b1490505f61080b565b6303a24d0760e21b81149150610804565b634e487b7160e01b5f52603260045260245ffd5b6017548110156108685760175f5260205f209060021b01905f90565b610838565b3461060b57602036600319011261060b5760043560175481101561060b5761089660809161084c565b5080549060018101549060ff6003600283015492015416916040519384526020840152604083015215156060820152f35b606090600319011261060b576004356108df816105fa565b906024359060443590565b3461060b576108f8366108c7565b600654919290916001600160a01b031680610a6657506005546001600160a01b03165b6001600160a01b03163303610a5757610932614325565b6001600160a01b038116918215610a48578015610a39576109956109a4916109905f5160206159db5f395f51905f529661098260405193849263c791063b60e01b602085015288602485016133da565b03601f198101835282611362565b614345565b602080825183010191016133f8565b9390916109f76109b3826143da565b916109bd836144f1565b6109c683610e67565b54156109db6109d361340e565b898887614553565b85610a325787905b610a22575b506109f28561102d565b610ed1565b546040516001600160a01b03909216958291610a139183613422565b0390a4610a206001600455565b005b610a2c9084614573565b5f6109e8565b5f906109e3565b63201165f360e21b5f5260045ffd5b63a9b8048960e01b5f5260045ffd5b6396f47d2360e01b5f5260045ffd5b61091b565b6060602091604081019381526040838201528451809452019201905f5b818110610a955750505090565b909192602060a06001926080875180518352848101518584015260408101516040840152606081015160608401520151151560808201520194019101919091610a88565b3461060b57602036600319011261060b57610b06610b01600435610afc816105fa565b61459a565b6137d2565b9061079760405192839283610a6b565b602435906001600160401b038216820361060b57565b604435906001600160401b038216820361060b57565b606435906001600160401b038216820361060b57565b608435906001600160401b038216820361060b57565b60e435906001600160801b038216820361060b57565b8015150361060b57565b3461060b5761010036600319011261060b57600435610bab610b16565b90610bb4610b2c565b6064356001600160801b038116810361060b576084356001600160801b038116810361060b5760a43591610be783610b84565b60c43593600985101561060b57610a2096610c00610b6e565b96613433565b3461060b57602036600319011261060b57600435610c226146a2565b7ff316e065e93b4fddef3d2d93a57817985081f76ea9e0ca7417ed5b4b086b1fcb6020601854604051908152a1601855005b805180835260209291819084018484015e5f828201840152601f01601f1916010190565b906020610c89928181520190610c54565b90565b3461060b57602036600319011261060b57610ca5614706565b6040516001600160601b03193060601b1660208201526014815290610ccb603483611362565b610cd36147d4565b91610cdc614802565b925f5b60148110610d2d5760405161079790610d2181610982610d0c8a610d06602085018c6135f6565b906135f6565b683db4b23e973539b7b760b91b815260090190565b60405191829182610c78565b80610d75610d4c610d6f610d69610d60610d5a610d4c6001988b614824565b516001600160f81b03191690565b60f81c90565b60041c600f1690565b60ff1690565b85614824565b610d8b610d8183613963565b915f1a9188614824565b53610dae610d4c610d6f600f610da7610d5a610d4c878b614824565b1660ff1690565b610dc2610d81610dbd84613963565b6142d2565b5301610cdf565b3461060b575f36600319011261060b57602060405160068152f35b6001600160a01b0316600452602490565b6001600160a01b03909116815260200190565b3461060b57602036600319011261060b576020610e26600435610ee6565b905460405160039290921b1c6001600160a01b03168152f35b3461060b575f36600319011261060b576005546040516001600160a01b039091168152602090f35b6001600160a01b03165f908152600f6020526040902090565b6001600160a01b03165f9081527fbc488d3e2575f0f2113dc4d9a0cd6bc52445c6bc28a8974ed97a6ba3ecfd657b6020526040902090565b6001600160a01b03165f90815260096020526040902090565b9060018060a01b03165f5260205260405f2090565b5f5160206159fb5f395f51905f5254811015610868575f5160206159fb5f395f51905f525f5260205f2001905f90565b8054821015610868575f5260205f2001905f90565b3461060b57604036600319011261060b57600435610f48816105fa565b6001600160a01b03165f908152600e602052604090208054602435919082101561060b57602091610f7891610f16565b90549060031b1c604051908152f35b3461060b57602036600319011261060b57610797610fc66004355f6060604051610fb08161132b565b828152826020820152826040820152015261084c565b5060ff600360405192610fd88461132b565b8054845260018101546020850152600281015460408501520154161515606082015260405191829182919091606080608083019480518452602081015160208501526040810151604085015201511515910152565b5f527fe5fcefe92466b78c655fa732b80b16e07a00f2a897e833e17d9914703cad563360205260405f2090565b5f525f516020615a7b5f395f51905f5260205260405f2090565b5f525f516020615a3b5f395f51905f5260205260405f2090565b3461060b57602036600319011261060b576004355f52600b602052602060405f2054604051908152f35b3461060b57604036600319011261060b576024356004356110d8826105fa565b6006546001600160a01b03168061117057506005546001600160a01b03165b6001600160a01b03163303610a57575f80611110614835565b93604051602081019163071e438960e21b835285602483015260018060a01b0316604482015260448152611145606482611362565b5190855af4611152613608565b501561116157610a2091614a90565b6363bc5ecb60e11b5f5260045ffd5b6110f7565b3461060b57602036600319011261060b576004355f526011602052602060405f2054604051908152f35b9181601f8401121561060b578235916001600160401b03831161060b576020808501948460051b01011161060b57565b3461060b5760e036600319011261060b576004356001600160401b03811161060b576111ff90369060040161119f565b6024359160443561120e610b42565b90611217610b58565b60a4356001600160401b03811161060b5761123690369060040161119f565b60c4359790949193906001600160401b03891161060b5761125e610a2099369060040161119f565b989097613637565b3461060b57602036600319011261060b57602060ff61128f60043561128a816105fa565b610e80565b54166040519015158152f35b3461060b575f36600319011261060b5760207ffed699897f2561c8a98f833aa3de83c4904370d413fe5fb15abe26e9f8150b2954604051908152f35b3461060b57602036600319011261060b57610b06600435610b01816105fa565b634e487b7160e01b5f52604160045260245ffd5b60e081019081106001600160401b0382111761132657604052565b6112f7565b608081019081106001600160401b0382111761132657604052565b61010081019081106001600160401b0382111761132657604052565b601f909101601f19168101906001600160401b0382119082101761132657604052565b6040519061139460a083611362565b565b6001600160401b0381116113265760051b60200190565b9080601f8301121561060b5781356113c481611396565b926113d26040519485611362565b81845260208085019260051b82010192831161060b57602001905b8282106113fa5750505090565b81358152602091820191016113ed565b6001600160401b03811161132657601f01601f191660200190565b9291926114318261140a565b9161143f6040519384611362565b82948184528183011161060b578281602093845f960137010152565b9080601f8301121561060b57816020610c8993359101611425565b3461060b5760a036600319011261060b57600435611493816105fa565b602435906114a0826105fa565b6044356001600160401b03811161060b576114bf9036906004016113ad565b6064356001600160401b03811161060b576114de9036906004016113ad565b608435939091906001600160401b03851161060b57611504610a2095369060040161145b565b936138e6565b3461060b57602036600319011261060b576004356001600160401b03811161060b573660238201121561060b5760048101356001600160401b03811161060b573660248260071b8401011161060b576024610a209201613a64565b3461060b57602036600319011261060b576040611583600435613b01565b825191151582526020820152f35b3461060b57602036600319011261060b576004355f527ffed699897f2561c8a98f833aa3de83c4904370d413fe5fb15abe26e9f8150b2f602052602060405f2054604051908152f35b3461060b57602036600319011261060b576004355f527ffed699897f2561c8a98f833aa3de83c4904370d413fe5fb15abe26e9f8150b30602052602060405f2054604051908152f35b3461060b57604036600319011261060b5761165c600435611643816105fa565b6024359061164f614325565b6116576146a2565b614ca8565b6001600455005b3461060b575f36600319011261060b5760205f516020615a1b5f395f51905f5254604051908152f35b3461060b5761169a366108c7565b6006549091906001600160a01b0316806116f957506005546001600160a01b03165b6001600160a01b03163303610a57576116d3614325565b6001600160a01b03831615610a48578115610a39576116f461165c936143da565b614ccf565b6116bc565b3461060b575f36600319011261060b576020600754604051908152f35b90602080835192838152019201905f5b8181106117385750505090565b825184526020938401939092019160010161172b565b906020610c8992818152019061171b565b3461060b57604036600319011261060b576004356001600160401b03811161060b573660238201121561060b5780600401359061179b82611396565b916117a96040519384611362565b8083526024602084019160051b8301019136831161060b57602401905b82821061180657836024356001600160401b03811161060b57610797916117f46117fa9236906004016113ad565b90613bb3565b6040519182918261174e565b602080918335611815816105fa565b8152019101906117c6565b3461060b5760c036600319011261060b5760043561183c610b16565b611844610b2c565b916064356001600160401b03811161060b5761186490369060040161119f565b906084356001600160401b03811161060b5761188490369060040161119f565b60a4359690939192906001600160401b03881161060b576118ac610a2098369060040161119f565b979096613c2d565b3461060b575f36600319011261060b576020601554604051908152f35b3461060b57602036600319011261060b576004355f526012602052602060405f2054604051908152f35b3461060b575f36600319011261060b57602060405160648152f35b3461060b57604036600319011261060b57600435611933816105fa565b6024359061193f614325565b6119476146a2565b6001600160a01b03811615610a48578115610a395760206119887f3e38a9410c08ddb4af8b083bfd2b197b1c3e61a651bd1c54c51ebce0cdcdc48e926143da565b6119a26040516119988482611362565b5f8152858361452e565b6119ac8482614d47565b6119b68482614d6e565b6040519384526001600160a01b031692a26001600455005b3461060b5760e036600319011261060b576004356024356044356119f0610b42565b916119f9610b58565b60a4356001600160401b03811161060b57611a1890369060040161119f565b90949060c4356001600160401b03811161060b57610982611ad294611acd93611abb5f516020615b3b5f395f51905f529a611a588d96369060040161119f565b939094611a63614325565b611a6b6146a2565b604051998a98630569881360e41b60208b015260248a01528c60448a01528d60648a015260018060401b0316608489015260018060401b031660a488015260e060c488015261010487019161370c565b8481036023190160e48601529161370c565b61437f565b50611ae260405192839283613422565b0390a2610a206001600455565b959260c09592989794919860e08801998852602088015260408701526060860152608085015260a08401521515910152565b3461060b57602036600319011261060b576004356001600160401b038116810361060b576001600160401b03165f9081527f348bae4e1f5cd16c7acea618682eb9de87b5f8161d5b94b9b5591b7620ae71a2602052604090208054610797600183015492600281015490600381015460048201549060ff60066005850154940154169360405197889788611aef565b3461060b57611bbe366108c7565b600654919290916001600160a01b031680611c7457506005546001600160a01b03165b6001600160a01b03163303610a5757611bf8614325565b6001600160a01b038116918215610a48578015610a3957610995611c48916109905f5160206159db5f395f51905f5296610982604051938492634404589760e01b602085015288602485016133da565b9390916109f7611c57826143da565b91611c6b611c6361340e565b888786614553565b6109f28561102d565b611be1565b3461060b57602036600319011261060b57600435611c96816105fa565b60018060a01b03165f52600f602052602060405f2054604051908152f35b6001600160801b03169052565b3461060b57604036600319011261060b576060611ceb602435600435611ce6826105fa565b613da2565b6040805193151584526001600160801b039092166020840152151590820152f35b3461060b57602036600319011261060b576004355f527ffed699897f2561c8a98f833aa3de83c4904370d413fe5fb15abe26e9f8150b2d602052602060405f2054604051908152f35b3461060b57611d63366108c7565b90611d6c614325565b6116d36146a2565b3461060b575f36600319011261060b57611d8c614d95565b600380546001600160a01b031981169091555f906001600160a01b03165f516020615adb5f395f51905f528280a3005b9181601f8401121561060b578235916001600160401b03831161060b576020838186019501011161060b57565b604060031982011261060b57600435906001600160401b03821161060b57611e1391600401611dbc565b9091602435610c89816105fa565b3461060b57611e2f36611de9565b6006549091906001600160a01b031680611e6957506005546001600160a01b03165b6001600160a01b03163303610a5757610a2092613e79565b611e51565b602060031982011261060b57600435906001600160401b03821161060b57611e989160040161119f565b9091565b9291604084019360408152825180955260206060820193015f955b808710611ed3575050610c89939450602081840391015261171b565b909360208060019287511515815201950196019590611eb7565b3461060b57611efb36611e6e565b90611f0582613b81565b90611f0f83613b81565b925f5b818110611f2b5750505061079760405192839283611e9c565b80611f43611f3c6001938587614063565b3691611425565b60208151910120611f538161105a565b90611f63825460ff9060a01c1690565b15611f975750611f8590611f80611f7a84896137be565b60019052565b614b4f565b611f8f82886137be565b525b01611f12565b611fa19150611074565b805460ff81169081611fe1575b50611fba575b50611f91565b611fd090611fcb611f7a84896137be565b614bf3565b611fda82886137be565b525f611fb4565b60881c63ffffffff16151590505f611fae565b3461060b57602036600319011261060b576004355f525f516020615abb5f395f51905f52602052602060018060401b0360405f205416604051908152f35b3461060b57604036600319011261060b575f80600435612051816105fa565b6024359061205d6146a2565b61098261208a61206b614835565b936040519283916020830195637fcb29c960e01b8752602484016140a4565b51915af4612096613608565b501561209e57005b63fb713d2b60e01b5f5260045ffd5b3461060b57602036600319011261060b576004356120ca816105fa565b60018060a01b03165f526009602052602060ff60405f2054166040519015158152f35b3461060b5760a036600319011261060b5760043561210a816107b8565b602435612116816105fa565b6044356064356084356006549092906001600160a01b0316806121e457506005546001600160a01b03165b6001600160a01b03163303610a5757610797946121d4936121cd936121be93612168614835565b6040516382b720c960e01b60208201526001600160e01b031990951660248601526001600160a01b0390981660448501526064840152608483015260a48083019190915281526121b960c482611362565b614372565b602080825183010191016140bf565b8092614a90565b6040519081529081906020820190565b612141565b3461060b57602036600319011261060b576004356122056146a2565b801561223c576020817fd45b01a2f21a7aa8a0f57023efdce73147de071e77875c3f4d486b1e13eaef7092600755604051908152a1005b6376024b7160e01b5f5260045ffd5b3461060b57602036600319011261060b577fc52867146282c253c04e94eb2a948478a1f7ef84cf2d6f5864facc99f2203f2c602060043561228b81610b84565b6122936146a2565b151560ff19600a541660ff821617600a55604051908152a1005b3461060b57602036600319011261060b576004355f527ffed699897f2561c8a98f833aa3de83c4904370d413fe5fb15abe26e9f8150b2c602052602060405f2054604051908152f35b3461060b575f36600319011261060b576003546040516001600160a01b039091168152602090f35b3461060b57602036600319011261060b57602061233c6004356140ce565b6040519015158152f35b3461060b57602036600319011261060b57612392600435612365614325565b61236d6146a2565b604051906348d7f0b960e11b6020830152602482015260248152611acd604482611362565b506001600455005b3461060b57602036600319011261060b576004356123b7816105fa565b60018060a01b03165f526010602052602060405f2054604051908152f35b3461060b575f36600319011261060b576006546040516001600160a01b039091168152602090f35b3461060b57602036600319011261060b576004355f527ffed699897f2561c8a98f833aa3de83c4904370d413fe5fb15abe26e9f8150b2e602052602060405f2054604051908152f35b3461060b57602036600319011261060b5760043560ff61246533610e80565b54161561116157612474614835565b905f806040516020810190634c4a8dab60e11b82528460248201526024815261249e604482611362565b5190855af46124ab613608565b501561209e57610a2091614a90565b3461060b575f36600319011261060b576020600854604051908152f35b3461060b575f36600319011261060b576107976124f2614706565b604051918291602083526020830190610c54565b81516001600160401b039081168252602080840151909116908201526040808301516001600160801b03169082015260608083015161010083019493611394939260e09283929161255a9190860190611cb4565b60808181015115159085015260a08181015160ff169085015260c08181015160ff16908501520151910190611cb4565b3461060b57602036600319011261060b576004355f60e06040516125ad81611346565b8281528260208201528260408201528260608201528260808201528260a08201528260c082015201525f525f516020615a5b5f395f51905f5260205261079760405f206126a461269460026040519361260585611346565b80546001600160401b038082168752604082901c1660208701526126369060801c6001600160801b03166040870152565b60018101546001600160801b03811660608701526126869061267c90612666608082901c60ff16151560808a0152565b60ff608882901c1660a089015260901c60ff1690565b60ff1660c0870152565b01546001600160801b031690565b6001600160801b031660e0830152565b60405191829182612506565b604090600319011261060b576004356126c8816105fa565b90602435610c8981610b84565b3461060b576126e3366126b0565b6001600160a01b038216918215612742578161270d61271292335f52600160205260405f20610ed1565b6139eb565b60405190151581527f17307eab39ab6107e8899845ad3d59bd9653f200f220920489ca2b5937696c3160203392a3005b62ced3e160e81b5f525f60045260245ffd5b3461060b57604036600319011261060b576004356001600160401b03811161060b5761278490369060040161119f565b9060243591612792836105fa565b6006546001600160a01b0316806129d557506005546001600160a01b03165b6001600160a01b03163303610a57576127c8614325565b6001600160a01b03831615610a4857801561209e57611acd612804926109828560405194859363bca0e27d60e01b602086015260248501614182565b906128186020835184010160208401614280565b929391509384518351036129b45750612830906143da565b9061283a826144f1565b61284382610e67565b54155f925f945f5b87518110156128905761285e81896137be565b511561286d575b60010161284b565b9550936128859061287e87866137be565b51906142e0565b600195909490612865565b5090939194156129ac575b5083806129a1575b612979575b80612962575b5f5b8551811015612939576128c381846137be565b51908115610a39576001916128d882896137be565b51156129335764174876e8006128ee838a6137be565b511061290f5761290990612902838a6137be565b5187614ccf565b016128b0565b61292e9061291d838a6137be565b519061292761340e565b9188614553565b612909565b50612909565b838286156129545761294a91614573565b610a206001600455565b61295d91614d6e565b61294a565b61297461296d61340e565b828561452e565b6128ae565b612989612984614de5565b61084c565b50548110156128a85763559d06d760e01b5f5260045ffd5b5060175415156128a3565b90505f61289b565b60405163dccff66960e01b81529081906129d19060048301610c78565b0390fd5b6127b1565b3461060b575f36600319011261060b576020601854604051908152f35b3461060b575f36600319011261060b57602060405164174876e8008152f35b3461060b575f36600319011261060b576020601354604051908152f35b3461060b57604036600319011261060b57600435612a50816105fa565b60065460243591906001600160a01b031680612b1457506005546001600160a01b03165b6001600160a01b03163303610a5757612a8b614325565b6001600160a01b038116908115610a48578215610a39576020612ace7f6ac4f60455173f2148d89d52868ac4ffb14111720d245aa36ad26e0d7e64c59b926143da565b612ae8604051612ade8482611362565b5f8152868361452e565b612af28582614d47565b612afc8582614d6e565b6040519485526001600160a01b031693a36001600455005b612a74565b3461060b57602036600319011261060b576004355f525f516020615a9b5f395f51905f52602052602060018060401b0360405f205416604051908152f35b3461060b5760c036600319011261060b57610797600435612b76610b16565b7f0d52bfb4760322d7d520c725a53d2a1b3a1d17bdc1615c95867a525cbf7916f3612b9f610b2c565b9160643593612c0185608435612bf26121be86612bed876109828c8760a435998a92612bc9614325565b612bd16146a2565b6040516363039f8b60e11b6020820152978896602488016142ed565b61438b565b978897604051968796876142ed565b0390a260016004556040519081529081906020820190565b3461060b57604036600319011261060b575f80600435612c38816105fa565b60243590612c446146a2565b61098261208a612c52614835565b9360405192839160208301956363706efd60e11b8752602484016140a4565b3461060b575f36600319011261060b5760206040515f8152f35b3461060b57606036600319011261060b5760043560ff811680910361060b57602435906001612cb8610b2c565b9103612d2d57612cf1915f527f348bae4e1f5cd16c7acea618682eb9de87b5f8161d5b94b9b5591b7620ae71a360205260405f20613d8d565b80546107976001830154926002810154906003810154600482015490612d206006600585015494015460ff1690565b9360405197889788611aef565b612d60915f527f348bae4e1f5cd16c7acea618682eb9de87b5f8161d5b94b9b5591b7620ae71a460205260405f20613d8d565b612cf1565b3461060b57602036600319011261060b576004356001600160401b03811161060b57612d98612ddc913690600401611dbc565b612da0614325565b612da86146a2565b612dd46040516365e270d560e11b602082015260206024820152611acd81610982604482018688614162565b503691611425565b602081519101207fc0701a0c15577896ad516e3ca2668eb0cee26a8f32bc862c0d94950619e368035f80a26001600455005b3461060b57602036600319011261060b576004355f52600c602052602060405f2054604051908152f35b3461060b57602036600319011261060b57600435612e546146a2565b7f1c8121c98d871a1523a6112e29ac660378afbcb9b921cff8f187c3da35d1708181600854612e8860405192839283613422565b0390a1600855005b3461060b575f36600319011261060b57602060ff600a54166040519015158152f35b3461060b575f36600319011261060b576040517f00000000000000000000000000000000000000000000000000000000000000006001600160a01b03168152602090f35b3461060b575f36600319011261060b5760207fbc488d3e2575f0f2113dc4d9a0cd6bc52445c6bc28a8974ed97a6ba3ecfd657f54604051908152f35b3461060b57602036600319011261060b576004355f526016602052602060405f2054604051908152f35b3461060b57608036600319011261060b57604435600435606435602435612f8282610b84565b612f8a6146a2565b821561305e576017549160405194612fa18661132b565b8486526020860192808452604087019382855260608801978415158952600160401b8710156113265760018701601755612fda8761084c565b919091613059577fb08290a3275552d4032ce96418c8bc739fd6be2860fe5897558f5c0af90e91fb99613054976130279460039351855551600185015551600284015551151591016139eb565b6040519586958693909594919260809360a086019786526020860152604085015260608401521515910152565b0390a1005b61397e565b639033099360e01b5f5260045ffd5b3461060b57610a2061307e366126b0565b906130876146a2565b6001600160a01b03165f9081526009602052604090206139eb565b3461060b575f36600319011261060b5760ff60065460a01c1660405160098210156130ce576020918152f35b634e487b7160e01b5f52602160045260245ffd5b3461060b57604036600319011261060b57602060ff61128f600435613106816105fa565b60243590613113826105fa565b6001600160a01b03165f9081526001855260409020610ed1565b3461060b5760a036600319011261060b5760043561314a816105fa565b602435613156816105fa565b60443590606435926084356001600160401b03811161060b5761317d90369060040161145b565b926001600160a01b03821633811415806131fa575b6131e4576001600160a01b038416156131d157156131bf57610a20946131b791614e82565b929091615079565b626a0d4560e21b5f525f60045260245ffd5b632bfa23e760e11b5f525f60045260245ffd5b63711bec9160e11b5f523360045260245260445ffd5b50805f52600160205260ff6132123360405f20610ed1565b541615613192565b3461060b57602036600319011261060b57600435613237816105fa565b61323f614d95565b6001600160a01b0316801561327e57600380546001600160a01b0319811683179091556001600160a01b03165f516020615adb5f395f51905f525f80a3005b631e4fbdf760e01b5f525f60045260245ffd5b3461060b5761329f36611e6e565b906132a982613b81565b906132b383613b81565b925f5b8181106132cf5750505061079760405192839283611e9c565b806132dd6001928486613730565b356132e78161105a565b906132f7825460ff9060a01c1690565b15613320575061330e90611f80611f7a84896137be565b61331882886137be565b525b016132b6565b61332a9150611074565b805460ff81169081613365575b50613343575b5061331a565b61335490611fcb611f7a84896137be565b61335e82886137be565b525f61333d565b60881c63ffffffff16151590505f613337565b3461060b57602036600319011261060b576004355f52600d602052602060405f2054604051908152f35b3461060b575f36600319011261060b576020601454604051908152f35b3461060b575f36600319011261060b576020604051600b8152f35b604091949392606082019560018060a01b0316825260208201520152565b919082604091031261060b576020825192015190565b6040519061341d602083611362565b5f8252565b908152602081019190915260400190565b600654909793969195939492939192906001600160a01b03168061354257506005546001600160a01b03165b6001600160a01b03163303610a575760098310156130ce57604051630bd6783360e01b6020820152602481018990526001600160401b0396871660448201529590931660648601526001600160801b03958616608486015291851660a485015290151560c484015260ff1660e48301529091166101048083019190915281526134ee9061099061012482611362565b507ff236e4a60720cc79b1fa956ec64fd78f4d702ba14614ed969c4912a86a3e995161353d613531835f525f516020615a5b5f395f51905f5260205260405f2090565b60405191829182613547565b0390a2565b61345f565b81546001600160401b038116825261010082019392611394929160e0916135dd916002919061359090604081901c6001600160401b03166020880152604087019060801c611cb4565b6001810154612686906135af606088016001600160801b038316611cb4565b6135c36080880160ff8360801c1615159052565b608881901c60ff1660a088015260901c60ff1660c0870152565b910190611cb4565b5f516020615a1b5f395f51905f5255565b805191908290602001825e015f815290565b3d15613632573d906136198261140a565b916136276040519384611362565b82523d5f602084013e565b606090565b98978298611abb61010494869a859a6136be9a8f9a611acd9a61368a6109829a9d613660614325565b6136686146a2565b604051631163081760e11b602082015260e060248201529e8f9d8e019161370c565b60448c019690965260648b01526001600160401b0390811660848b01521660a48901528783036023190160c489015261370c565b505f5b8181106136d75750505050506113946001600455565b806136e56001928488613730565b355f516020615b3b5f395f51905f5260405180613703888a83613422565b0390a2016136c1565b81835290916001600160fb1b03831161060b5760209260051b809284830137010190565b91908110156108685760051b0190565b9061374a82611396565b6137576040519182611362565b8281528092613768601f1991611396565b015f5b81811061377757505050565b60405160a0810191906001600160401b03831181841017611326576020926040525f81525f838201525f60408201525f60608201525f60808201528282860101520161376b565b80518210156108685760209160051b010190565b6001600160a01b0381165f908152600e602052604090209091909182546137f881613740565b935f5b82811061383b5750505f80805260205250613836907fad3228b676f7d3cd4284a5443f17f1962b36e491b30a40b2405849e597ba5fb5610ed1565b549190565b8061385561384b60019385610f16565b90549060031b1c90565b6138bf61386a825f52600b60205260405f2090565b5480151590816138db575b613887845f52600c60205260405f2090565b5461389a855f52600d60205260405f2090565b54906138a4611385565b95865260208601526040850152606084015215156080830152565b6138c982896137be565b526138d481886137be565b50016137fb565b809150421190613875565b939291906001600160a01b038516338114158061391f575b6131e4576001600160a01b038216156131d157156131bf5761139494615079565b50805f52600160205260ff6139373360405f20610ed1565b5416156138fe565b91908110156108685760071b0190565b634e487b7160e01b5f52601160045260245ffd5b908160011b918083046002149015171561397957565b61394f565b634e487b7160e01b5f525f60045260245ffd5b6017545f601755806139a05750565b600281901b906001600160fe1b038116036139795760175f5260205f205f5b8281106139cb57505050565b805f600360049385018281558260018201558260028201550155016139bf565b9060ff801983541691151516179055565b601754600160401b81101561132657600181016017556017548110156108685760175f5260021b5f516020615afb5f395f51905f52016003606061139493803584556020810135600185015560408101356002850155013591613a5e83610b84565b016139eb565b613a6c6146a2565b8115613af2575f5b828110613ad95750613a84613991565b5f5b828110613abd5750506040519081527f2f291eaf494dc7eca20457441a1df7d9119f0c0d764309daf9cb6b148810ee3690602090a1565b80613ad3613ace600193868661393f565b6139fc565b01613a86565b613ae481848461393f565b351561305e57600101613a74565b6308ba5b6160e01b5f5260045ffd5b805f525f516020615a7b5f395f51905f5260205260405f2060ff815460a01c16613b7757505f525f516020615a3b5f395f51905f5260205260405f20805460ff81169081613b64575b50613b5657505f905f90565b613b5f90614bf3565b600191565b63ffffffff915060881c1615155f613b4a565b613b5f9150614b4f565b90613b8b82611396565b613b986040519182611362565b8281528092613ba9601f1991611396565b0190602036910137565b91909180518351808203613c18575050613bcd8151613b81565b905f5b8151811015613c115780613bff60019260051b602080828701015191890101515f525f60205260405f20610ed1565b54613c0a82866137be565b5201613bd0565b5090925050565b635b05999160e01b5f5260045260245260445ffd5b97959192613c9d9460209694613c8b93613c45614325565b613c4d6146a2565b6040516352b9ec2360e01b8a820152602481019c909c526001600160401b0390811660448d01521660648b015260c060848b015260e48a0191613d06565b8781036023190160a489015291613d06565b8481036023190160c48601528281520191905f905b808210613cde5750505090611acd81613cd39303601f198101835282611362565b506113946001600455565b90919283359063ffffffff821680920361060b57602081600193829352019401920190613cb2565b90602083828152019060208160051b85010193835f915b838310613d2d5750505050505090565b909192939495601f198282030186528635601e198436030181121561060b578301602081019190356001600160401b03811161060b578060051b3603831361060b57613d7f602092839260019561370c565b980196019493019190613d1d565b9060018060401b03165f5260205260405f2090565b90613dac8261105a565b5460ff8160a01c16613e645750613dc282611074565b5460ff81169081613e51575b50613ddd5750505f905f905f90565b6001600160a01b03811615159182613e09575b5050613e00576001905f90600190565b5f905f90600190565b613e4a9250906109f2613e43925f527fcb1a422c9916903f224af4db9a3bf1529921bf95ff7b75d7d9ed9073a48394ad60205260405f2090565b5460ff1690565b5f80613df0565b60881c63ffffffff16151590505f613dce565b6001936001600160801b0390911692505f9150565b90613e82614325565b6001600160a01b03831615610a4857611acd613eb8926109828560405194859363fd44e85560e01b602086015260248501614dbc565b91613ecc6020845185010160208501614280565b929491509485518351036129b45750613ee4906143da565b613eed816144f1565b613ef681610e67565b5415905f935f955f5b8851811015613f3d57613f12818a6137be565b5115613f21575b600101613eff565b965094613f329061287e88876137be565b600196909590613f19565b509092959491941561405b575b508480614050575b61402d575b80614016575b5f5b8651811015613fe857613f7281856137be565b51908115610a3957600191613f87828a6137be565b5115613fe25764174876e800613f9d838b6137be565b5110613fbe57613fb890613fb1838b6137be565b5188614ccf565b01613f5f565b613fdd90613fcc838b6137be565b5190613fd661340e565b9189614553565b613fb8565b50613fb8565b509293915093505f1461400857613ffe91614573565b6113946001600455565b61401191614d6e565b613ffe565b61402861402161340e565b828661452e565b613f5d565b614038612984614de5565b5054811015613f575763559d06d760e01b5f5260045ffd5b506017541515613f52565b90505f613f4a565b91908110156108685760051b81013590601e198136030182121561060b5701803591906001600160401b03831161060b57602001823603811361060b579190565b6001600160a01b039091168152602081019190915260400190565b9081602091031261060b575190565b64174876e8008110614153575f9081525f516020615a9b5f395f51905f5260209081526040808320545f516020615abb5f395f51905f52909252909120546001600160401b0390811691168015159081614158575b50614153576001600160401b03168015159081614149575b5061414557600190565b5f90565b905042115f61413b565b505f90565b905042105f614123565b908060209392818452848401375f828201840152601f01601f1916010190565b93929190816040860160408752526060850160608360051b87010192825f90601e19813603015b8383106141cc575050505050509060206113949294019060018060a01b03169052565b909192939495605f198a820301865286358281121561060b578301602081019190356001600160401b03811161060b57803603831361060b576142156020928392600195614162565b9801960194930191906141a9565b9080601f8301121561060b57815161423a81611396565b926142486040519485611362565b81845260208085019260051b82010192831161060b57602001905b8282106142705750505090565b8151815260209182019101614263565b9060808282031261060b57815192602083015192604081015160018060401b03811161060b57836142b2918301614223565b60608201519093906001600160401b03811161060b57610c899201614223565b906001820180921161397957565b9190820180921161397957565b9081526001600160401b039182166020820152911660408201526060810191909152608081019190915260a081019190915260c00190565b600260045414614336576002600455565b633ee5aeb560e01b5f5260045ffd5b5f809161435260016148c7565b602082519201905af490614364613608565b911561436c57565b50614e50565b5f809161435260036148c7565b5f8091614352826148c7565b5f809161435260026148c7565b5f809161435260046148c7565b9081602091031261060b5751610c89816105fa565b6040513d5f823e3d90fd5b9081602091031261060b5751610c8981610b84565b600460206143f46143ef6143ef6005546105ee565b6105ee565b604051630e83251360e01b815292839182905afa9081156144ae575f916144c2575b506001600160a01b031680156144b357602060405180926303330c7960e41b825281806144468760048301610df5565b03915afa9081156144ae575f9161447f575b5061446657610c899061459a565b803b156144705790565b632ad05f3360e11b5f5260045ffd5b6144a1915060203d6020116144a7575b6144998183611362565b8101906143c5565b5f614458565b503d61448f565b6143ba565b63ab82bb9960e01b5f5260045ffd5b6144e4915060203d6020116144ea575b6144dc8183611362565b8101906143a5565b5f614416565b503d6144d2565b60405163e6a84c7760e01b60208201526001600160a01b03909116602480830191909152815261452b90614526604482611362565b614398565b50565b9091906001600160a01b038116156131d15761454d611394935f614e82565b91614ea7565b919291906001600160a01b038216156131d1576113949361454d91614e82565b9061452661452b9261098260405193849263179953bf60e11b6020850152602484016140a4565b600460206145af6143ef6143ef6005546105ee565b60405163fb3894d360e01b815292839182905afa9081156144ae575f91614683575b506001600160a01b0381169182156144b357602060405180946308a8c59960e01b825281806146038660048301610df5565b03915afa9283156144ae575f93614662575b506001600160a01b038316158015614659575b61463157505090565b63ad12d34160e01b5f526001600160a01b039081166004529081166024521660445260645b5ffd5b50823b15614628565b61467c91935060203d6020116144ea576144dc8183611362565b915f614615565b61469c915060203d6020116144ea576144dc8183611362565b5f6145d1565b6006546001600160a01b03168061470157506005546001600160a01b03165b6003546001600160a01b031633141590816146ed575b506146de57565b630fc5e1ab60e41b5f5260045ffd5b6001600160a01b031633141590505f6146d7565b6146c1565b6005546001600160a01b031680158181156147ca575b506144b3575f60049160405192838092634f9e8d1560e11b82525afa9081156144ae575f91614751575b508051156144b35790565b90503d805f833e6147628183611362565b81019060208183031261060b578051906001600160401b03821161060b570181601f8201121561060b578051906147988261140a565b926147a66040519485611362565b8284526020838301011161060b57815f9260208093018386015e830101525f614746565b90503b155f61471c565b604051906147e3604083611362565b601082526f181899199a1a9b1b9c1cb0b131b232b360811b6020830152565b604051606091906148138382611362565b6028815291601f1901366020840137565b908151811015610868570160200190565b6148406005546105ee565b6001600160a01b0381169081159081156148bd575b506144b357602060049160405192838092632502c7e760e11b82525afa9081156144ae575f9161489e575b506001600160a01b038116610c895763a9d04f8760e01b5f5260045ffd5b6148b7915060203d6020116144ea576144dc8183611362565b5f614880565b90503b155f614855565b6148d26005546105ee565b6001600160a01b03811691908215908115614a4d575b506144b357602060ff600492169283155f1461497957604051620c3c5d60e81b815292839182905afa9081156144ae575f9161495a575b505b6001600160a01b03811661495557600482146149465763a9d04f8760e01b5f5260045ffd5b632dc6cc2360e01b5f5260045ffd5b905090565b614973915060203d6020116144ea576144dc8183611362565b5f61491f565b600184036149c857604051635ee738d560e11b815292839182905afa9081156144ae575f916149a9575b50614921565b6149c2915060203d6020116144ea576144dc8183611362565b5f6149a3565b600284036149f757604051632b5e757b60e11b815292839182905afa9081156144ae575f916149a95750614921565b60038403614a2657604051632502c7e760e11b815292839182905afa9081156144ae575f916149a95750614921565b6040516324e1067960e11b815292839182905afa9081156144ae575f916149a95750614921565b90503b155f6148e8565b908160a091031261060b578051614a6d816107b8565b916020820151614a7c816105fa565b916040810151916080606083015192015190565b90614aaf815f525f516020615b1b5f395f51905f5260205260405f2090565b600681015460ff16908115614b33575b50614b2f575f918291604051614aef816109826020820194630d61b51960e01b8652602483019190602083019252565b51915af4614afb613608565b9015614b2a57614b178160208061139494518301019101614a57565b509290916001600160a01b031690615267565b614e50565b5050565b6005915001545f516020615a1b5f395f51905f5254115f614abf565b60018060801b038154169060028101600381549201908154838110614bd2575b5060408311614bc9575b5f5b838110614b89575050505090565b614b938183610f16565b90549060031b1c15614ba8575b600101614b7b565b93614bb38584610f16565b90549060031b1c81018091116139795793614ba0565b60409250614b79565b92505f614b6f565b8054821015610868575f52600360205f20910201905f90565b60010180545f9160208211614c9f575b5f5b828110614c125750505090565b614c1c8183614bda565b5060018101600281549201908154838110614c97575b5060408311614c8e575b5f5b838110614c515750505050600101614c05565b614c5e61384b8284610f16565b15614c6c575b600101614c3e565b96614c86600191614c8061384b8b87610f16565b906142e0565b979050614c64565b60409250614c3c565b92505f614c32565b60209150614c03565b9061452661452b92610982604051938492635bcc7ca960e11b6020850152602484016140a4565b60207fae2f87dbf103db294ddd4ab45caa7a914d70bb3d06eeb8a8dc23e03e84548c8d91614d18604051633c2f328b60e11b84820152612bed81610982898987602485016133da565b50614d34604051614d298482611362565b5f8152868684614553565b6040519485526001600160a01b031693a3565b9061452661452b9261098260405193849263b932546160e01b6020850152602484016140a4565b9061452661452b9261098260405193849263a55d613f60e01b6020850152602484016140a4565b6003546001600160a01b03163303614da957565b63118cdaa760e01b5f523360045260245ffd5b91602091614dd591959495604085526040850191614162565b6001600160a01b03909416910152565b6017548015614e4a575f90601754156108685760175f525f516020615afb5f395f51905f525460015b828110614e1b5750505090565b81614e258261084c565b505410614e35575b600101614e0e565b809350614e42915061084c565b505482614e2d565b505f1990565b80519081614e7d5760405163dccff66960e01b8152602060048201529081906129d1906024830190610c54565b602001fd5b9160405192600184526020840152604083019160018352606084015260808301604052565b92939193614eb58251613b81565b91614ec08151613b81565b935f925f5b8351811015614fd357614ed881856137be565b51606481101580614fc5575b614f63571580614f5c575b614efe575b6001905b01614ec5565b600a5460ff16614f0e575b614ef4565b5f80526009602052614f33614f2f5f5160206159bb5f395f51905f52613e43565b1590565b15614ef457614f47614f2f613e438a610eb8565b15614f09575b639798976560e01b5f5260045ffd5b505f614eef565b6001600160a01b0389161580614fbe575b614f82575b50600190614ef8565b85614fb791614fa75f614f986001969a8c6137be565b6001600160a01b039091169052565b614fb1828b6137be565b526153ea565b9490614f79565b505f614f74565b5064174876e8008110614ee4565b5094909693929192614fe78585895f6157da565b5f5b838110615042575050506001600160a01b038516905061500a575b50505050565b8051600103615032579060208061502995930151910151915f3361557e565b5f808080615004565b61503d935f33615460565b615029565b80615073615062615055600194866137be565b516001600160a01b031690565b61506c83876137be565b5190615993565b01614fe9565b929490936001600160a01b038416158015949093908580615254575b61509f8351613b81565b926150aa8151613b81565b955f955f5b83518110156151c7576150c281856137be565b516064811015806151b9575b615140571580615139575b6150e8575b6001905b016150af565b600a5460ff16156150de575f805260096020528b615115614f2f5f5160206159bb5f395f51905f52613e43565b615120575b506150de565b614f2f613e4361512f92610eb8565b614f4d578b61511a565b508a6150d9565b8a866151a8575b15615199576001600160a01b038d161580615192575b61516b575b506001906150e2565b8861518b9161518189614f986001969d8d6137be565b614fb1828d6137be565b9790615162565b508561515d565b63b8333dc960e01b5f5260045ffd5b506001600160a01b038d1615615147565b5064174876e80081106150ce565b509850999592965097939290506151e0858986896157da565b5f5b83811061523b575050506001600160a01b0382169050615204575b5050505050565b845160010361522a57602080615220960151920151923361557e565b5f808080806151fd565b61523694919233615460565b615220565b8061524e615062615055600194866137be565b016151e2565b6001600160a01b03881615159650615095565b9092906001600160e01b031916637fcb29c960e01b810361528d575050611394916156d8565b6363706efd60e11b81036153ae575090916001600160a01b03811691508115610a48576152bf614f2f613e4383610e80565b61209e5760015f5160206159fb5f395f51905f5254111561209e576152e66152f091610e80565b805460ff19169055565b5f905f5160206159fb5f395f51905f52545f5b818110615340575b5050501561209e5780158015615329575b61209e57611394906135e5565b505f5160206159fb5f395f51905f5254811161531c565b826153656143ef61535084610ee6565b905460039190911b1c6001600160a01b031690565b1461537257600101615303565b915061539c925061539061535061538b6153969361561c565b610ee6565b91610ee6565b9061562a565b6153a461564d565b60015f808061530b565b631cb4772560e21b81036153d157505090611394916153cb61340e565b9161452e565b90915063178fb21b60e11b0361209e5761139491614ca8565b5f1981146139795760010190565b9081602091031261060b5751610c89816107b8565b6001600160a01b0391821681529116602082015260a060408201819052610c8994919391926154529291615444919086019061171b565b90848203606086015261171b565b916080818403910152610c54565b9091949293853b615474575b505050505050565b60209361549691604051968795869563bc197c8160e01b87526004870161540d565b03815f6001600160a01b0387165af15f9181615514575b506154de57506154bb613608565b80519190826154d757632bfa23e760e11b5f5261465682610de4565b6020915001fd5b6001600160e01b0319166343e6837f60e01b0161550157505f808080808061546c565b632bfa23e760e11b5f5261465690610de4565b61553791925060203d60201161553e575b61552f8183611362565b8101906153f8565b905f6154ad565b503d615525565b6001600160a01b039182168152911660208201526040810191909152606081019190915260a060808201819052610c8992910190610c54565b9091949293853b61559157505050505050565b6020936155b391604051968795869563f23a6e6160e01b875260048701615545565b03815f6001600160a01b0387165af15f91816155fb575b506155d857506154bb613608565b6001600160e01b031916630dc5919f60e01b0161550157505f808080808061546c565b61561591925060203d60201161553e5761552f8183611362565b905f6155ca565b5f1981019190821161397957565b80546001600160a01b0360039390931b83811b199091169290931690921b179055565b5f5160206159fb5f395f51905f525480156156c4575f198101905f5160206159fb5f395f51905f5254821015610868575f5160206159fb5f395f51905f525f8190527f1e7af2776b414202f4d0720b6aeaf88d7ffd91a44ea0aa781eb527e3c97a87b890910180546001600160a01b031916905555565b634e487b7160e01b5f52603160045260245ffd5b6001600160a01b03811615610a485760ff6156f282610e80565b541615615719575b505f5160206159fb5f395f51905f5254811161209e57611394906135e5565b61572281610e80565b805460ff191660011790555f5160206159fb5f395f51905f525490600160401b82101561132657600182015f5160206159fb5f395f51905f52555f5160206159fb5f395f51905f5254821015610868575f5160206159fb5f395f51905f525f9081526157af927f1e7af2776b414202f4d0720b6aeaf88d7ffd91a44ea0aa781eb527e3c97a87b90161562a565b5f6156fa565b90916157cc610c899360408452604084019061171b565b91602081840391015261171b565b939291805183519081810361597e5750505f5b81518110156158d9578060051b90602080838501015192860101518460018060a01b03891661585c575b6001936001600160a01b038216615832575b505050016157ed565b615852916109f261584a925f525f60205260405f2090565b9182546142e0565b90555f8481615829565b509091615874886109f2835f525f60205260405f2090565b548281106158a25782916001949387920361589a8b6109f2845f525f60205260405f2090565b559350615817565b6040516303dee4c560e01b81526001600160a01b038a16600482015260248101919091526044810183905260648101829052608490fd5b50805193949391929160010361593b576020908101519101516040516001600160a01b03938416949093169233927fc3d58168c5ae7397731d063d5bbf3d657854427343f4c083240f7aacaa2d0f62928291615936919083613422565b0390a4565b6040516001600160a01b03938416949093169233927f4a39dc06d4c0dbc64b70af90fd698a233a518aa5d07e595d983b8c0526c8f7fb92829161593691836157b5565b635b05999160e01b5f5260045260245260445ffd5b9061452661452b92610982604051938492637e4152e760e11b6020850152602484016140a456feec8156718a8372b1db44bb411437d0870f3e3790d4a08526d024ce1b0b668f6b3bf2de114e2e7636c289f21be023528e47d89b45e873b976c78989c3ddc683f5bc488d3e2575f0f2113dc4d9a0cd6bc52445c6bc28a8974ed97a6ba3ecfd657cbc488d3e2575f0f2113dc4d9a0cd6bc52445c6bc28a8974ed97a6ba3ecfd657acb1a422c9916903f224af4db9a3bf1529921bf95ff7b75d7d9ed9073a48394ace5fcefe92466b78c655fa732b80b16e07a00f2a897e833e17d9914703cad5632cb1a422c9916903f224af4db9a3bf1529921bf95ff7b75d7d9ed9073a48394abfed699897f2561c8a98f833aa3de83c4904370d413fe5fb15abe26e9f8150b2afed699897f2561c8a98f833aa3de83c4904370d413fe5fb15abe26e9f8150b2b8be0079c531659141344cd1fd0a4f28419497f9722a3daafe3b4186f6b6457e0c624b66cc0138b8fabc209247f72d758e1cf3343756d543badbf24212bed8c15bc488d3e2575f0f2113dc4d9a0cd6bc52445c6bc28a8974ed97a6ba3ecfd657d5d5ebc8105f0482c05c969b7e79cf039bd47ae3ad5b49c5ffe0e2e1e26f3974fa2646970667358221220433e1e2d1db4b9ecd908edc5f833e1d11cea403a1d7a322cf93eac9316fcaded64736f6c63430008210033bc488d3e2575f0f2113dc4d9a0cd6bc52445c6bc28a8974ed97a6ba3ecfd657c",
  "linkReferences": {},
  "deployedLinkReferences": {},
  "immutableReferences": {
    "12626": [
      {
        "length": 32,
        "start": 11975
      }
    ]
  },
  "inputSourceName": "project/src/BeamioUserCard/BeamioUserCard.sol",
  "buildInfoId": "solc-0_8_33-7fcd1064b6e520c9cbd2dbdc68f84433dcf9c1a6"
}