{
  "_format": "hh3-artifact-1",
  "contractName": "BeamioUserCard",
  "sourceName": "src/BeamioUserCard/BeamioUserCard.sol",
  "abi": [
    {
      "inputs": [
        {
          "internalType": "string",
          "name": "uri_",
          "type": "string"
        },
        {
          "internalType": "enum BeamioCurrency.CurrencyType",
          "name": "currency_",
          "type": "uint8"
        },
        {
          "internalType": "uint256",
          "name": "pointsUnitPriceInCurrencyE6_",
          "type": "uint256"
        },
        {
          "internalType": "address",
          "name": "initialOwner",
          "type": "address"
        },
        {
          "internalType": "address",
          "name": "gateway_",
          "type": "address"
        }
      ],
      "stateMutability": "nonpayable",
      "type": "constructor"
    },
    {
      "inputs": [],
      "name": "BM_CallFailed",
      "type": "error"
    },
    {
      "inputs": [],
      "name": "BM_NotAuthorized",
      "type": "error"
    },
    {
      "inputs": [],
      "name": "BM_ZeroAddress",
      "type": "error"
    },
    {
      "inputs": [
        {
          "internalType": "address",
          "name": "sender",
          "type": "address"
        },
        {
          "internalType": "uint256",
          "name": "balance",
          "type": "uint256"
        },
        {
          "internalType": "uint256",
          "name": "needed",
          "type": "uint256"
        },
        {
          "internalType": "uint256",
          "name": "tokenId",
          "type": "uint256"
        }
      ],
      "name": "ERC1155InsufficientBalance",
      "type": "error"
    },
    {
      "inputs": [
        {
          "internalType": "address",
          "name": "approver",
          "type": "address"
        }
      ],
      "name": "ERC1155InvalidApprover",
      "type": "error"
    },
    {
      "inputs": [
        {
          "internalType": "uint256",
          "name": "idsLength",
          "type": "uint256"
        },
        {
          "internalType": "uint256",
          "name": "valuesLength",
          "type": "uint256"
        }
      ],
      "name": "ERC1155InvalidArrayLength",
      "type": "error"
    },
    {
      "inputs": [
        {
          "internalType": "address",
          "name": "operator",
          "type": "address"
        }
      ],
      "name": "ERC1155InvalidOperator",
      "type": "error"
    },
    {
      "inputs": [
        {
          "internalType": "address",
          "name": "receiver",
          "type": "address"
        }
      ],
      "name": "ERC1155InvalidReceiver",
      "type": "error"
    },
    {
      "inputs": [
        {
          "internalType": "address",
          "name": "sender",
          "type": "address"
        }
      ],
      "name": "ERC1155InvalidSender",
      "type": "error"
    },
    {
      "inputs": [
        {
          "internalType": "address",
          "name": "operator",
          "type": "address"
        },
        {
          "internalType": "address",
          "name": "owner",
          "type": "address"
        }
      ],
      "name": "ERC1155MissingApprovalForAll",
      "type": "error"
    },
    {
      "inputs": [
        {
          "internalType": "address",
          "name": "owner",
          "type": "address"
        }
      ],
      "name": "OwnableInvalidOwner",
      "type": "error"
    },
    {
      "inputs": [
        {
          "internalType": "address",
          "name": "account",
          "type": "address"
        }
      ],
      "name": "OwnableUnauthorizedAccount",
      "type": "error"
    },
    {
      "inputs": [],
      "name": "ReentrancyGuardReentrantCall",
      "type": "error"
    },
    {
      "inputs": [],
      "name": "UC_AdminManagerRequiresOwnerSignature",
      "type": "error"
    },
    {
      "inputs": [],
      "name": "UC_AmountZero",
      "type": "error"
    },
    {
      "inputs": [],
      "name": "UC_BelowMinThreshold",
      "type": "error"
    },
    {
      "inputs": [],
      "name": "UC_BeneficiaryMustBeAA",
      "type": "error"
    },
    {
      "inputs": [],
      "name": "UC_GlobalMisconfigured",
      "type": "error"
    },
    {
      "inputs": [
        {
          "internalType": "address",
          "name": "fromAccount",
          "type": "address"
        },
        {
          "internalType": "uint256",
          "name": "id",
          "type": "uint256"
        },
        {
          "internalType": "uint256",
          "name": "have",
          "type": "uint256"
        },
        {
          "internalType": "uint256",
          "name": "need",
          "type": "uint256"
        }
      ],
      "name": "UC_InsufficientBalance",
      "type": "error"
    },
    {
      "inputs": [],
      "name": "UC_InvalidProposal",
      "type": "error"
    },
    {
      "inputs": [],
      "name": "UC_NoBeamioAccount",
      "type": "error"
    },
    {
      "inputs": [],
      "name": "UC_NotAdmin",
      "type": "error"
    },
    {
      "inputs": [],
      "name": "UC_OpenMintExecutorUnauthorized",
      "type": "error"
    },
    {
      "inputs": [],
      "name": "UC_PointsToNotWhitelisted",
      "type": "error"
    },
    {
      "inputs": [],
      "name": "UC_PriceZero",
      "type": "error"
    },
    {
      "inputs": [
        {
          "internalType": "bytes",
          "name": "data",
          "type": "bytes"
        }
      ],
      "name": "UC_RedeemDelegateFailed",
      "type": "error"
    },
    {
      "inputs": [],
      "name": "UC_RedeemModuleZero",
      "type": "error"
    },
    {
      "inputs": [
        {
          "internalType": "address",
          "name": "eoa",
          "type": "address"
        },
        {
          "internalType": "address",
          "name": "aaFactory",
          "type": "address"
        },
        {
          "internalType": "address",
          "name": "acct",
          "type": "address"
        }
      ],
      "name": "UC_ResolveAccountFailed",
      "type": "error"
    },
    {
      "inputs": [],
      "name": "UC_StatsModuleZero",
      "type": "error"
    },
    {
      "inputs": [],
      "name": "UC_TierLenMismatch",
      "type": "error"
    },
    {
      "inputs": [],
      "name": "UC_TierMinZero",
      "type": "error"
    },
    {
      "inputs": [],
      "name": "UC_UnauthorizedGateway",
      "type": "error"
    },
    {
      "anonymous": false,
      "inputs": [
        {
          "indexed": true,
          "internalType": "address",
          "name": "beneficiaryAccount",
          "type": "address"
        },
        {
          "indexed": true,
          "internalType": "uint256",
          "name": "tokenId",
          "type": "uint256"
        },
        {
          "indexed": false,
          "internalType": "uint256",
          "name": "attr",
          "type": "uint256"
        },
        {
          "indexed": false,
          "internalType": "uint256",
          "name": "expiry",
          "type": "uint256"
        }
      ],
      "name": "AdminCardMinted",
      "type": "event"
    },
    {
      "anonymous": false,
      "inputs": [
        {
          "indexed": true,
          "internalType": "address",
          "name": "account",
          "type": "address"
        },
        {
          "indexed": false,
          "internalType": "uint256",
          "name": "amount",
          "type": "uint256"
        }
      ],
      "name": "AdminPointsBurned",
      "type": "event"
    },
    {
      "anonymous": false,
      "inputs": [
        {
          "indexed": true,
          "internalType": "address",
          "name": "beneficiaryAccount",
          "type": "address"
        },
        {
          "indexed": false,
          "internalType": "uint256",
          "name": "points6",
          "type": "uint256"
        }
      ],
      "name": "AdminPointsMinted",
      "type": "event"
    },
    {
      "anonymous": false,
      "inputs": [
        {
          "indexed": true,
          "internalType": "address",
          "name": "account",
          "type": "address"
        },
        {
          "indexed": true,
          "internalType": "address",
          "name": "operator",
          "type": "address"
        },
        {
          "indexed": false,
          "internalType": "bool",
          "name": "approved",
          "type": "bool"
        }
      ],
      "name": "ApprovalForAll",
      "type": "event"
    },
    {
      "anonymous": false,
      "inputs": [
        {
          "indexed": false,
          "internalType": "uint256",
          "name": "attr",
          "type": "uint256"
        }
      ],
      "name": "DefaultAttrUpdated",
      "type": "event"
    },
    {
      "anonymous": false,
      "inputs": [
        {
          "indexed": false,
          "internalType": "uint256",
          "name": "oldSecs",
          "type": "uint256"
        },
        {
          "indexed": false,
          "internalType": "uint256",
          "name": "newSecs",
          "type": "uint256"
        }
      ],
      "name": "ExpirySecondsUpdated",
      "type": "event"
    },
    {
      "anonymous": false,
      "inputs": [
        {
          "indexed": true,
          "internalType": "uint256",
          "name": "id",
          "type": "uint256"
        },
        {
          "indexed": true,
          "internalType": "address",
          "name": "userEOA",
          "type": "address"
        },
        {
          "indexed": true,
          "internalType": "address",
          "name": "acct",
          "type": "address"
        },
        {
          "indexed": false,
          "internalType": "uint256",
          "name": "amount",
          "type": "uint256"
        },
        {
          "indexed": false,
          "internalType": "uint256",
          "name": "claimedAfter",
          "type": "uint256"
        }
      ],
      "name": "FaucetClaimed",
      "type": "event"
    },
    {
      "anonymous": false,
      "inputs": [
        {
          "indexed": true,
          "internalType": "uint256",
          "name": "id",
          "type": "uint256"
        },
        {
          "components": [
            {
              "internalType": "uint64",
              "name": "validUntil",
              "type": "uint64"
            },
            {
              "internalType": "uint64",
              "name": "perClaimMax",
              "type": "uint64"
            },
            {
              "internalType": "uint128",
              "name": "maxPerUser",
              "type": "uint128"
            },
            {
              "internalType": "uint128",
              "name": "maxGlobal",
              "type": "uint128"
            },
            {
              "internalType": "bool",
              "name": "enabled",
              "type": "bool"
            },
            {
              "internalType": "uint8",
              "name": "currency",
              "type": "uint8"
            },
            {
              "internalType": "uint8",
              "name": "decimals",
              "type": "uint8"
            },
            {
              "internalType": "uint128",
              "name": "priceInCurrency6",
              "type": "uint128"
            }
          ],
          "indexed": false,
          "internalType": "struct FaucetStorage.FaucetConfig",
          "name": "cfg",
          "type": "tuple"
        }
      ],
      "name": "FaucetConfigUpdated",
      "type": "event"
    },
    {
      "anonymous": false,
      "inputs": [
        {
          "indexed": true,
          "internalType": "uint256",
          "name": "tokenId",
          "type": "uint256"
        },
        {
          "indexed": false,
          "internalType": "bytes32",
          "name": "title",
          "type": "bytes32"
        },
        {
          "indexed": false,
          "internalType": "uint64",
          "name": "validAfter",
          "type": "uint64"
        },
        {
          "indexed": false,
          "internalType": "uint64",
          "name": "validBefore",
          "type": "uint64"
        },
        {
          "indexed": false,
          "internalType": "uint256",
          "name": "maxSupply",
          "type": "uint256"
        },
        {
          "indexed": false,
          "internalType": "uint256",
          "name": "priceInCurrency6",
          "type": "uint256"
        },
        {
          "indexed": false,
          "internalType": "bytes32",
          "name": "sharedMetadataHash",
          "type": "bytes32"
        }
      ],
      "name": "IssuedNftCreated",
      "type": "event"
    },
    {
      "anonymous": false,
      "inputs": [
        {
          "indexed": true,
          "internalType": "uint256",
          "name": "tokenId",
          "type": "uint256"
        },
        {
          "indexed": true,
          "internalType": "address",
          "name": "recipient",
          "type": "address"
        },
        {
          "indexed": false,
          "internalType": "uint256",
          "name": "amount",
          "type": "uint256"
        }
      ],
      "name": "IssuedNftMinted",
      "type": "event"
    },
    {
      "anonymous": false,
      "inputs": [
        {
          "indexed": true,
          "internalType": "address",
          "name": "user",
          "type": "address"
        },
        {
          "indexed": true,
          "internalType": "uint256",
          "name": "tokenId",
          "type": "uint256"
        },
        {
          "indexed": false,
          "internalType": "uint256",
          "name": "tierIndexOrMax",
          "type": "uint256"
        },
        {
          "indexed": false,
          "internalType": "uint256",
          "name": "minUsdc6",
          "type": "uint256"
        },
        {
          "indexed": false,
          "internalType": "uint256",
          "name": "expiry",
          "type": "uint256"
        }
      ],
      "name": "MemberNFTIssued",
      "type": "event"
    },
    {
      "anonymous": false,
      "inputs": [
        {
          "indexed": true,
          "internalType": "address",
          "name": "user",
          "type": "address"
        },
        {
          "indexed": true,
          "internalType": "uint256",
          "name": "oldActiveTokenId",
          "type": "uint256"
        },
        {
          "indexed": true,
          "internalType": "uint256",
          "name": "newTokenId",
          "type": "uint256"
        },
        {
          "indexed": false,
          "internalType": "uint256",
          "name": "oldTierIndexOrMax",
          "type": "uint256"
        },
        {
          "indexed": false,
          "internalType": "uint256",
          "name": "newTierIndex",
          "type": "uint256"
        },
        {
          "indexed": false,
          "internalType": "uint256",
          "name": "newExpiry",
          "type": "uint256"
        }
      ],
      "name": "MemberNFTUpgraded",
      "type": "event"
    },
    {
      "anonymous": false,
      "inputs": [
        {
          "indexed": true,
          "internalType": "address",
          "name": "previousOwner",
          "type": "address"
        },
        {
          "indexed": true,
          "internalType": "address",
          "name": "newOwner",
          "type": "address"
        }
      ],
      "name": "OwnershipTransferred",
      "type": "event"
    },
    {
      "anonymous": false,
      "inputs": [
        {
          "indexed": true,
          "internalType": "address",
          "name": "userEOA",
          "type": "address"
        },
        {
          "indexed": true,
          "internalType": "address",
          "name": "acct",
          "type": "address"
        },
        {
          "indexed": false,
          "internalType": "uint256",
          "name": "points6",
          "type": "uint256"
        }
      ],
      "name": "PointsMintedByGateway",
      "type": "event"
    },
    {
      "anonymous": false,
      "inputs": [
        {
          "indexed": true,
          "internalType": "address",
          "name": "payerEOA",
          "type": "address"
        },
        {
          "indexed": true,
          "internalType": "address",
          "name": "beneficiaryAccount",
          "type": "address"
        },
        {
          "indexed": true,
          "internalType": "address",
          "name": "usdc",
          "type": "address"
        },
        {
          "indexed": false,
          "internalType": "uint256",
          "name": "usdcIn6",
          "type": "uint256"
        },
        {
          "indexed": false,
          "internalType": "uint256",
          "name": "pointsMinted6",
          "type": "uint256"
        },
        {
          "indexed": false,
          "internalType": "uint256",
          "name": "unitPointPriceUsdc6",
          "type": "uint256"
        },
        {
          "indexed": false,
          "internalType": "bytes32",
          "name": "nonce",
          "type": "bytes32"
        }
      ],
      "name": "PointsPurchasedWithUSDC",
      "type": "event"
    },
    {
      "anonymous": false,
      "inputs": [
        {
          "indexed": false,
          "internalType": "uint256",
          "name": "priceInCurrencyE6",
          "type": "uint256"
        }
      ],
      "name": "PointsUnitPriceUpdated",
      "type": "event"
    },
    {
      "anonymous": false,
      "inputs": [
        {
          "indexed": true,
          "internalType": "uint256",
          "name": "id",
          "type": "uint256"
        },
        {
          "indexed": true,
          "internalType": "address",
          "name": "admin",
          "type": "address"
        }
      ],
      "name": "ProposalApproved",
      "type": "event"
    },
    {
      "anonymous": false,
      "inputs": [
        {
          "indexed": true,
          "internalType": "uint256",
          "name": "id",
          "type": "uint256"
        },
        {
          "indexed": true,
          "internalType": "bytes4",
          "name": "selector",
          "type": "bytes4"
        },
        {
          "indexed": true,
          "internalType": "address",
          "name": "proposer",
          "type": "address"
        }
      ],
      "name": "ProposalCreated",
      "type": "event"
    },
    {
      "anonymous": false,
      "inputs": [
        {
          "indexed": true,
          "internalType": "uint256",
          "name": "id",
          "type": "uint256"
        }
      ],
      "name": "ProposalExecuted",
      "type": "event"
    },
    {
      "anonymous": false,
      "inputs": [
        {
          "indexed": true,
          "internalType": "bytes32",
          "name": "hash",
          "type": "bytes32"
        }
      ],
      "name": "RedeemCancelled",
      "type": "event"
    },
    {
      "anonymous": false,
      "inputs": [
        {
          "indexed": true,
          "internalType": "bytes32",
          "name": "hash",
          "type": "bytes32"
        },
        {
          "indexed": false,
          "internalType": "uint256",
          "name": "points6",
          "type": "uint256"
        },
        {
          "indexed": false,
          "internalType": "uint256",
          "name": "attr",
          "type": "uint256"
        }
      ],
      "name": "RedeemCreated",
      "type": "event"
    },
    {
      "anonymous": false,
      "inputs": [
        {
          "indexed": false,
          "internalType": "uint256",
          "name": "index",
          "type": "uint256"
        },
        {
          "indexed": false,
          "internalType": "uint256",
          "name": "minUsdc6",
          "type": "uint256"
        },
        {
          "indexed": false,
          "internalType": "uint256",
          "name": "attr",
          "type": "uint256"
        },
        {
          "indexed": false,
          "internalType": "uint256",
          "name": "tierExpirySeconds",
          "type": "uint256"
        },
        {
          "indexed": false,
          "internalType": "bool",
          "name": "upgradeByBalance",
          "type": "bool"
        }
      ],
      "name": "TierAppended",
      "type": "event"
    },
    {
      "anonymous": false,
      "inputs": [
        {
          "indexed": false,
          "internalType": "uint256",
          "name": "count",
          "type": "uint256"
        }
      ],
      "name": "TiersUpdated",
      "type": "event"
    },
    {
      "anonymous": false,
      "inputs": [
        {
          "indexed": true,
          "internalType": "address",
          "name": "operator",
          "type": "address"
        },
        {
          "indexed": true,
          "internalType": "address",
          "name": "from",
          "type": "address"
        },
        {
          "indexed": true,
          "internalType": "address",
          "name": "to",
          "type": "address"
        },
        {
          "indexed": false,
          "internalType": "uint256[]",
          "name": "ids",
          "type": "uint256[]"
        },
        {
          "indexed": false,
          "internalType": "uint256[]",
          "name": "values",
          "type": "uint256[]"
        }
      ],
      "name": "TransferBatch",
      "type": "event"
    },
    {
      "anonymous": false,
      "inputs": [
        {
          "indexed": true,
          "internalType": "address",
          "name": "operator",
          "type": "address"
        },
        {
          "indexed": true,
          "internalType": "address",
          "name": "from",
          "type": "address"
        },
        {
          "indexed": true,
          "internalType": "address",
          "name": "to",
          "type": "address"
        },
        {
          "indexed": false,
          "internalType": "uint256",
          "name": "id",
          "type": "uint256"
        },
        {
          "indexed": false,
          "internalType": "uint256",
          "name": "value",
          "type": "uint256"
        }
      ],
      "name": "TransferSingle",
      "type": "event"
    },
    {
      "anonymous": false,
      "inputs": [
        {
          "indexed": false,
          "internalType": "bool",
          "name": "enabled",
          "type": "bool"
        }
      ],
      "name": "TransferWhitelistEnabledUpdated",
      "type": "event"
    },
    {
      "anonymous": false,
      "inputs": [
        {
          "indexed": false,
          "internalType": "string",
          "name": "value",
          "type": "string"
        },
        {
          "indexed": true,
          "internalType": "uint256",
          "name": "id",
          "type": "uint256"
        }
      ],
      "name": "URI",
      "type": "event"
    },
    {
      "stateMutability": "nonpayable",
      "type": "fallback"
    },
    {
      "inputs": [],
      "name": "ISSUED_NFT_START_ID",
      "outputs": [
        {
          "internalType": "uint256",
          "name": "",
          "type": "uint256"
        }
      ],
      "stateMutability": "view",
      "type": "function"
    },
    {
      "inputs": [],
      "name": "NFT_START_ID",
      "outputs": [
        {
          "internalType": "uint256",
          "name": "",
          "type": "uint256"
        }
      ],
      "stateMutability": "view",
      "type": "function"
    },
    {
      "inputs": [],
      "name": "POINTS_DECIMALS",
      "outputs": [
        {
          "internalType": "uint8",
          "name": "",
          "type": "uint8"
        }
      ],
      "stateMutability": "view",
      "type": "function"
    },
    {
      "inputs": [],
      "name": "POINTS_ID",
      "outputs": [
        {
          "internalType": "uint256",
          "name": "",
          "type": "uint256"
        }
      ],
      "stateMutability": "view",
      "type": "function"
    },
    {
      "inputs": [],
      "name": "VERSION",
      "outputs": [
        {
          "internalType": "uint256",
          "name": "",
          "type": "uint256"
        }
      ],
      "stateMutability": "view",
      "type": "function"
    },
    {
      "inputs": [
        {
          "internalType": "address",
          "name": "",
          "type": "address"
        },
        {
          "internalType": "uint256",
          "name": "",
          "type": "uint256"
        }
      ],
      "name": "_userOwnedNfts",
      "outputs": [
        {
          "internalType": "uint256",
          "name": "",
          "type": "uint256"
        }
      ],
      "stateMutability": "view",
      "type": "function"
    },
    {
      "inputs": [
        {
          "internalType": "uint256",
          "name": "",
          "type": "uint256"
        }
      ],
      "name": "activeMembershipCountByTierIndex",
      "outputs": [
        {
          "internalType": "uint256",
          "name": "",
          "type": "uint256"
        }
      ],
      "stateMutability": "view",
      "type": "function"
    },
    {
      "inputs": [
        {
          "internalType": "uint256",
          "name": "",
          "type": "uint256"
        }
      ],
      "name": "activeMembershipCountByTokenId",
      "outputs": [
        {
          "internalType": "uint256",
          "name": "",
          "type": "uint256"
        }
      ],
      "stateMutability": "view",
      "type": "function"
    },
    {
      "inputs": [
        {
          "internalType": "address",
          "name": "",
          "type": "address"
        }
      ],
      "name": "activeMembershipId",
      "outputs": [
        {
          "internalType": "uint256",
          "name": "",
          "type": "uint256"
        }
      ],
      "stateMutability": "view",
      "type": "function"
    },
    {
      "inputs": [
        {
          "internalType": "address",
          "name": "",
          "type": "address"
        }
      ],
      "name": "activeTierIndexOrMax",
      "outputs": [
        {
          "internalType": "uint256",
          "name": "",
          "type": "uint256"
        }
      ],
      "stateMutability": "view",
      "type": "function"
    },
    {
      "inputs": [
        {
          "internalType": "address",
          "name": "a",
          "type": "address"
        }
      ],
      "name": "adminParent",
      "outputs": [
        {
          "internalType": "address",
          "name": "",
          "type": "address"
        }
      ],
      "stateMutability": "view",
      "type": "function"
    },
    {
      "inputs": [
        {
          "internalType": "uint256",
          "name": "minUsdc6",
          "type": "uint256"
        },
        {
          "internalType": "uint256",
          "name": "attr",
          "type": "uint256"
        },
        {
          "internalType": "uint256",
          "name": "tierExpirySeconds",
          "type": "uint256"
        },
        {
          "internalType": "bool",
          "name": "upgradeByBalance",
          "type": "bool"
        }
      ],
      "name": "appendTier",
      "outputs": [],
      "stateMutability": "nonpayable",
      "type": "function"
    },
    {
      "inputs": [
        {
          "internalType": "uint256",
          "name": "id",
          "type": "uint256"
        }
      ],
      "name": "approveProposal",
      "outputs": [],
      "stateMutability": "nonpayable",
      "type": "function"
    },
    {
      "inputs": [
        {
          "internalType": "uint256",
          "name": "id",
          "type": "uint256"
        },
        {
          "internalType": "address",
          "name": "adminSigner",
          "type": "address"
        }
      ],
      "name": "approveProposalByGateway",
      "outputs": [],
      "stateMutability": "nonpayable",
      "type": "function"
    },
    {
      "inputs": [
        {
          "internalType": "uint256",
          "name": "",
          "type": "uint256"
        }
      ],
      "name": "attributes",
      "outputs": [
        {
          "internalType": "uint256",
          "name": "",
          "type": "uint256"
        }
      ],
      "stateMutability": "view",
      "type": "function"
    },
    {
      "inputs": [
        {
          "internalType": "address",
          "name": "account",
          "type": "address"
        },
        {
          "internalType": "uint256",
          "name": "id",
          "type": "uint256"
        }
      ],
      "name": "balanceOf",
      "outputs": [
        {
          "internalType": "uint256",
          "name": "",
          "type": "uint256"
        }
      ],
      "stateMutability": "view",
      "type": "function"
    },
    {
      "inputs": [
        {
          "internalType": "address[]",
          "name": "accounts",
          "type": "address[]"
        },
        {
          "internalType": "uint256[]",
          "name": "ids",
          "type": "uint256[]"
        }
      ],
      "name": "balanceOfBatch",
      "outputs": [
        {
          "internalType": "uint256[]",
          "name": "",
          "type": "uint256[]"
        }
      ],
      "stateMutability": "view",
      "type": "function"
    },
    {
      "inputs": [
        {
          "internalType": "address",
          "name": "target",
          "type": "address"
        },
        {
          "internalType": "uint256",
          "name": "amount",
          "type": "uint256"
        }
      ],
      "name": "burnPointsByAdmin",
      "outputs": [],
      "stateMutability": "nonpayable",
      "type": "function"
    },
    {
      "inputs": [
        {
          "internalType": "address",
          "name": "subordinate",
          "type": "address"
        },
        {
          "internalType": "address",
          "name": "authorizer",
          "type": "address"
        }
      ],
      "name": "clearAdminMintCounterForSubordinate",
      "outputs": [],
      "stateMutability": "nonpayable",
      "type": "function"
    },
    {
      "inputs": [
        {
          "internalType": "bytes4",
          "name": "selector",
          "type": "bytes4"
        },
        {
          "internalType": "address",
          "name": "target",
          "type": "address"
        },
        {
          "internalType": "uint256",
          "name": "v1",
          "type": "uint256"
        },
        {
          "internalType": "uint256",
          "name": "v2",
          "type": "uint256"
        },
        {
          "internalType": "uint256",
          "name": "v3",
          "type": "uint256"
        }
      ],
      "name": "createProposal",
      "outputs": [
        {
          "internalType": "uint256",
          "name": "",
          "type": "uint256"
        }
      ],
      "stateMutability": "nonpayable",
      "type": "function"
    },
    {
      "inputs": [],
      "name": "currency",
      "outputs": [
        {
          "internalType": "enum BeamioCurrency.CurrencyType",
          "name": "",
          "type": "uint8"
        }
      ],
      "stateMutability": "view",
      "type": "function"
    },
    {
      "inputs": [],
      "name": "debugGateway",
      "outputs": [
        {
          "internalType": "address",
          "name": "",
          "type": "address"
        }
      ],
      "stateMutability": "view",
      "type": "function"
    },
    {
      "inputs": [],
      "name": "defaultAttrWhenNoTiers",
      "outputs": [
        {
          "internalType": "uint256",
          "name": "",
          "type": "uint256"
        }
      ],
      "stateMutability": "view",
      "type": "function"
    },
    {
      "inputs": [],
      "name": "deployer",
      "outputs": [
        {
          "internalType": "address",
          "name": "",
          "type": "address"
        }
      ],
      "stateMutability": "view",
      "type": "function"
    },
    {
      "inputs": [
        {
          "internalType": "uint256",
          "name": "",
          "type": "uint256"
        }
      ],
      "name": "expiresAt",
      "outputs": [
        {
          "internalType": "uint256",
          "name": "",
          "type": "uint256"
        }
      ],
      "stateMutability": "view",
      "type": "function"
    },
    {
      "inputs": [],
      "name": "expirySeconds",
      "outputs": [
        {
          "internalType": "uint256",
          "name": "",
          "type": "uint256"
        }
      ],
      "stateMutability": "view",
      "type": "function"
    },
    {
      "inputs": [],
      "name": "factoryGateway",
      "outputs": [
        {
          "internalType": "address",
          "name": "",
          "type": "address"
        }
      ],
      "stateMutability": "view",
      "type": "function"
    },
    {
      "inputs": [
        {
          "internalType": "address",
          "name": "userEOA",
          "type": "address"
        },
        {
          "internalType": "uint256",
          "name": "id",
          "type": "uint256"
        },
        {
          "internalType": "uint256",
          "name": "amount",
          "type": "uint256"
        }
      ],
      "name": "faucetByGateway",
      "outputs": [],
      "stateMutability": "nonpayable",
      "type": "function"
    },
    {
      "inputs": [
        {
          "internalType": "uint256",
          "name": "id",
          "type": "uint256"
        }
      ],
      "name": "faucetConfig",
      "outputs": [
        {
          "components": [
            {
              "internalType": "uint64",
              "name": "validUntil",
              "type": "uint64"
            },
            {
              "internalType": "uint64",
              "name": "perClaimMax",
              "type": "uint64"
            },
            {
              "internalType": "uint128",
              "name": "maxPerUser",
              "type": "uint128"
            },
            {
              "internalType": "uint128",
              "name": "maxGlobal",
              "type": "uint128"
            },
            {
              "internalType": "bool",
              "name": "enabled",
              "type": "bool"
            },
            {
              "internalType": "uint8",
              "name": "currency",
              "type": "uint8"
            },
            {
              "internalType": "uint8",
              "name": "decimals",
              "type": "uint8"
            },
            {
              "internalType": "uint128",
              "name": "priceInCurrency6",
              "type": "uint128"
            }
          ],
          "internalType": "struct FaucetStorage.FaucetConfig",
          "name": "",
          "type": "tuple"
        }
      ],
      "stateMutability": "view",
      "type": "function"
    },
    {
      "inputs": [],
      "name": "gateway",
      "outputs": [
        {
          "internalType": "address",
          "name": "",
          "type": "address"
        }
      ],
      "stateMutability": "view",
      "type": "function"
    },
    {
      "inputs": [
        {
          "internalType": "address",
          "name": "admin",
          "type": "address"
        }
      ],
      "name": "getAdminBurnCounter",
      "outputs": [
        {
          "internalType": "uint256",
          "name": "",
          "type": "uint256"
        }
      ],
      "stateMutability": "view",
      "type": "function"
    },
    {
      "inputs": [
        {
          "internalType": "address",
          "name": "admin",
          "type": "address"
        }
      ],
      "name": "getAdminMintCounter",
      "outputs": [
        {
          "internalType": "uint256",
          "name": "",
          "type": "uint256"
        }
      ],
      "stateMutability": "view",
      "type": "function"
    },
    {
      "inputs": [
        {
          "internalType": "address",
          "name": "admin",
          "type": "address"
        }
      ],
      "name": "getAdminRedeemMintCounter",
      "outputs": [
        {
          "internalType": "uint256",
          "name": "",
          "type": "uint256"
        }
      ],
      "stateMutability": "view",
      "type": "function"
    },
    {
      "inputs": [
        {
          "internalType": "address",
          "name": "admin",
          "type": "address"
        }
      ],
      "name": "getAdminTransferAmountCounter",
      "outputs": [
        {
          "internalType": "uint256",
          "name": "",
          "type": "uint256"
        }
      ],
      "stateMutability": "view",
      "type": "function"
    },
    {
      "inputs": [
        {
          "internalType": "address",
          "name": "admin",
          "type": "address"
        }
      ],
      "name": "getAdminTransferCounter",
      "outputs": [
        {
          "internalType": "uint256",
          "name": "",
          "type": "uint256"
        }
      ],
      "stateMutability": "view",
      "type": "function"
    },
    {
      "inputs": [
        {
          "internalType": "address",
          "name": "admin",
          "type": "address"
        }
      ],
      "name": "getAdminUSDCMintCounter",
      "outputs": [
        {
          "internalType": "uint256",
          "name": "",
          "type": "uint256"
        }
      ],
      "stateMutability": "view",
      "type": "function"
    },
    {
      "inputs": [
        {
          "internalType": "address",
          "name": "user",
          "type": "address"
        }
      ],
      "name": "getOwnership",
      "outputs": [
        {
          "internalType": "uint256",
          "name": "pt",
          "type": "uint256"
        },
        {
          "components": [
            {
              "internalType": "uint256",
              "name": "tokenId",
              "type": "uint256"
            },
            {
              "internalType": "uint256",
              "name": "attribute",
              "type": "uint256"
            },
            {
              "internalType": "uint256",
              "name": "tierIndexOrMax",
              "type": "uint256"
            },
            {
              "internalType": "uint256",
              "name": "expiry",
              "type": "uint256"
            },
            {
              "internalType": "bool",
              "name": "isExpired",
              "type": "bool"
            }
          ],
          "internalType": "struct BeamioUserCard.NFTDetail[]",
          "name": "nfts",
          "type": "tuple[]"
        }
      ],
      "stateMutability": "view",
      "type": "function"
    },
    {
      "inputs": [
        {
          "internalType": "address",
          "name": "userEOA",
          "type": "address"
        }
      ],
      "name": "getOwnershipByEOA",
      "outputs": [
        {
          "internalType": "uint256",
          "name": "pt",
          "type": "uint256"
        },
        {
          "components": [
            {
              "internalType": "uint256",
              "name": "tokenId",
              "type": "uint256"
            },
            {
              "internalType": "uint256",
              "name": "attribute",
              "type": "uint256"
            },
            {
              "internalType": "uint256",
              "name": "tierIndexOrMax",
              "type": "uint256"
            },
            {
              "internalType": "uint256",
              "name": "expiry",
              "type": "uint256"
            },
            {
              "internalType": "bool",
              "name": "isExpired",
              "type": "bool"
            }
          ],
          "internalType": "struct BeamioUserCard.NFTDetail[]",
          "name": "nfts",
          "type": "tuple[]"
        }
      ],
      "stateMutability": "view",
      "type": "function"
    },
    {
      "inputs": [
        {
          "internalType": "address",
          "name": "a",
          "type": "address"
        }
      ],
      "name": "isAdmin",
      "outputs": [
        {
          "internalType": "bool",
          "name": "",
          "type": "bool"
        }
      ],
      "stateMutability": "view",
      "type": "function"
    },
    {
      "inputs": [
        {
          "internalType": "address",
          "name": "account",
          "type": "address"
        },
        {
          "internalType": "address",
          "name": "operator",
          "type": "address"
        }
      ],
      "name": "isApprovedForAll",
      "outputs": [
        {
          "internalType": "bool",
          "name": "",
          "type": "bool"
        }
      ],
      "stateMutability": "view",
      "type": "function"
    },
    {
      "inputs": [
        {
          "internalType": "uint256",
          "name": "tokenId",
          "type": "uint256"
        }
      ],
      "name": "isIssuedNftValid",
      "outputs": [
        {
          "internalType": "bool",
          "name": "",
          "type": "bool"
        }
      ],
      "stateMutability": "view",
      "type": "function"
    },
    {
      "inputs": [
        {
          "internalType": "uint256",
          "name": "tokenId",
          "type": "uint256"
        }
      ],
      "name": "issuedNftPriceInCurrency6",
      "outputs": [
        {
          "internalType": "uint256",
          "name": "",
          "type": "uint256"
        }
      ],
      "stateMutability": "view",
      "type": "function"
    },
    {
      "inputs": [
        {
          "internalType": "uint64",
          "name": "hourIndex",
          "type": "uint64"
        }
      ],
      "name": "membershipFlowBucketAtHour",
      "outputs": [
        {
          "internalType": "uint256",
          "name": "issuedCount",
          "type": "uint256"
        },
        {
          "internalType": "uint256",
          "name": "upgradedCount",
          "type": "uint256"
        },
        {
          "internalType": "uint256",
          "name": "expiredDiscoveredCount",
          "type": "uint256"
        },
        {
          "internalType": "uint256",
          "name": "activeSwitchCount",
          "type": "uint256"
        },
        {
          "internalType": "uint256",
          "name": "activatedCount",
          "type": "uint256"
        },
        {
          "internalType": "uint256",
          "name": "deactivatedCount",
          "type": "uint256"
        },
        {
          "internalType": "bool",
          "name": "hasData",
          "type": "bool"
        }
      ],
      "stateMutability": "view",
      "type": "function"
    },
    {
      "inputs": [
        {
          "internalType": "uint8",
          "name": "scopeType",
          "type": "uint8"
        },
        {
          "internalType": "uint256",
          "name": "scopeKey",
          "type": "uint256"
        },
        {
          "internalType": "uint64",
          "name": "hourIndex",
          "type": "uint64"
        }
      ],
      "name": "membershipScopedFlowBucketAtHour",
      "outputs": [
        {
          "internalType": "uint256",
          "name": "issuedCount",
          "type": "uint256"
        },
        {
          "internalType": "uint256",
          "name": "upgradedCount",
          "type": "uint256"
        },
        {
          "internalType": "uint256",
          "name": "expiredDiscoveredCount",
          "type": "uint256"
        },
        {
          "internalType": "uint256",
          "name": "activeSwitchCount",
          "type": "uint256"
        },
        {
          "internalType": "uint256",
          "name": "activatedCount",
          "type": "uint256"
        },
        {
          "internalType": "uint256",
          "name": "deactivatedCount",
          "type": "uint256"
        },
        {
          "internalType": "bool",
          "name": "hasData",
          "type": "bool"
        }
      ],
      "stateMutability": "view",
      "type": "function"
    },
    {
      "inputs": [],
      "name": "metadataBaseURI",
      "outputs": [
        {
          "internalType": "string",
          "name": "",
          "type": "string"
        }
      ],
      "stateMutability": "view",
      "type": "function"
    },
    {
      "inputs": [
        {
          "internalType": "address",
          "name": "userEOA",
          "type": "address"
        },
        {
          "internalType": "uint256",
          "name": "id",
          "type": "uint256"
        },
        {
          "internalType": "uint256",
          "name": "amount6",
          "type": "uint256"
        }
      ],
      "name": "mintFaucetByGateway",
      "outputs": [],
      "stateMutability": "nonpayable",
      "type": "function"
    },
    {
      "inputs": [
        {
          "internalType": "address",
          "name": "userEOA",
          "type": "address"
        },
        {
          "internalType": "uint256",
          "name": "tokenId",
          "type": "uint256"
        },
        {
          "internalType": "uint256",
          "name": "amount",
          "type": "uint256"
        }
      ],
      "name": "mintIssuedNftByGateway",
      "outputs": [],
      "stateMutability": "nonpayable",
      "type": "function"
    },
    {
      "inputs": [
        {
          "internalType": "address",
          "name": "to",
          "type": "address"
        },
        {
          "internalType": "uint256",
          "name": "tokenId",
          "type": "uint256"
        },
        {
          "internalType": "uint256",
          "name": "amount",
          "type": "uint256"
        }
      ],
      "name": "mintIssuedNftByOwner",
      "outputs": [],
      "stateMutability": "nonpayable",
      "type": "function"
    },
    {
      "inputs": [
        {
          "internalType": "address",
          "name": "user",
          "type": "address"
        },
        {
          "internalType": "uint256",
          "name": "tierIndex",
          "type": "uint256"
        }
      ],
      "name": "mintMemberCardByAdmin",
      "outputs": [],
      "stateMutability": "nonpayable",
      "type": "function"
    },
    {
      "inputs": [
        {
          "internalType": "address",
          "name": "user",
          "type": "address"
        },
        {
          "internalType": "uint256",
          "name": "points6",
          "type": "uint256"
        }
      ],
      "name": "mintPointsByAdmin",
      "outputs": [],
      "stateMutability": "nonpayable",
      "type": "function"
    },
    {
      "inputs": [
        {
          "internalType": "address",
          "name": "user",
          "type": "address"
        },
        {
          "internalType": "uint256",
          "name": "points6",
          "type": "uint256"
        },
        {
          "internalType": "address",
          "name": "operator",
          "type": "address"
        }
      ],
      "name": "mintPointsByAdminWithOperator",
      "outputs": [],
      "stateMutability": "nonpayable",
      "type": "function"
    },
    {
      "inputs": [
        {
          "internalType": "address",
          "name": "userEOA",
          "type": "address"
        },
        {
          "internalType": "uint256",
          "name": "points6",
          "type": "uint256"
        }
      ],
      "name": "mintPointsByGateway",
      "outputs": [],
      "stateMutability": "nonpayable",
      "type": "function"
    },
    {
      "inputs": [
        {
          "internalType": "address",
          "name": "userEOA",
          "type": "address"
        },
        {
          "internalType": "uint256",
          "name": "points6",
          "type": "uint256"
        },
        {
          "internalType": "address",
          "name": "operator",
          "type": "address"
        }
      ],
      "name": "mintPointsByGatewayWithOperator",
      "outputs": [],
      "stateMutability": "nonpayable",
      "type": "function"
    },
    {
      "inputs": [
        {
          "internalType": "address",
          "name": "payerAA",
          "type": "address"
        },
        {
          "internalType": "uint256",
          "name": "points6",
          "type": "uint256"
        },
        {
          "internalType": "address",
          "name": "operatorForStats",
          "type": "address"
        }
      ],
      "name": "mintPointsOpenContainerRelay",
      "outputs": [],
      "stateMutability": "nonpayable",
      "type": "function"
    },
    {
      "inputs": [],
      "name": "owner",
      "outputs": [
        {
          "internalType": "address",
          "name": "",
          "type": "address"
        }
      ],
      "stateMutability": "view",
      "type": "function"
    },
    {
      "inputs": [],
      "name": "pointsUnitPriceInCurrencyE6",
      "outputs": [
        {
          "internalType": "uint256",
          "name": "",
          "type": "uint256"
        }
      ],
      "stateMutability": "view",
      "type": "function"
    },
    {
      "inputs": [
        {
          "internalType": "address",
          "name": "operator",
          "type": "address"
        },
        {
          "internalType": "uint256",
          "name": "amount",
          "type": "uint256"
        }
      ],
      "name": "recordAdminBurnForStats",
      "outputs": [],
      "stateMutability": "nonpayable",
      "type": "function"
    },
    {
      "inputs": [
        {
          "internalType": "address",
          "name": "admin",
          "type": "address"
        },
        {
          "internalType": "uint256",
          "name": "amount",
          "type": "uint256"
        }
      ],
      "name": "recordAdminMintForStats",
      "outputs": [],
      "stateMutability": "nonpayable",
      "type": "function"
    },
    {
      "inputs": [
        {
          "internalType": "string",
          "name": "code",
          "type": "string"
        },
        {
          "internalType": "address",
          "name": "to",
          "type": "address"
        }
      ],
      "name": "redeemAdminByGateway",
      "outputs": [],
      "stateMutability": "nonpayable",
      "type": "function"
    },
    {
      "inputs": [
        {
          "internalType": "string[]",
          "name": "codes",
          "type": "string[]"
        },
        {
          "internalType": "address",
          "name": "userEOA",
          "type": "address"
        }
      ],
      "name": "redeemBatchByGateway",
      "outputs": [],
      "stateMutability": "nonpayable",
      "type": "function"
    },
    {
      "inputs": [
        {
          "internalType": "string",
          "name": "code",
          "type": "string"
        },
        {
          "internalType": "address",
          "name": "userEOA",
          "type": "address"
        }
      ],
      "name": "redeemByGateway",
      "outputs": [],
      "stateMutability": "nonpayable",
      "type": "function"
    },
    {
      "inputs": [
        {
          "internalType": "string",
          "name": "code",
          "type": "string"
        },
        {
          "internalType": "address",
          "name": "userEOA",
          "type": "address"
        }
      ],
      "name": "redeemPoolByGateway",
      "outputs": [],
      "stateMutability": "nonpayable",
      "type": "function"
    },
    {
      "inputs": [],
      "name": "renounceOwnership",
      "outputs": [],
      "stateMutability": "nonpayable",
      "type": "function"
    },
    {
      "inputs": [
        {
          "internalType": "address",
          "name": "adminAddr",
          "type": "address"
        }
      ],
      "name": "resetAdminLimit",
      "outputs": [],
      "stateMutability": "nonpayable",
      "type": "function"
    },
    {
      "inputs": [
        {
          "internalType": "address",
          "name": "adminAddr",
          "type": "address"
        },
        {
          "internalType": "address",
          "name": "authorizer",
          "type": "address"
        }
      ],
      "name": "resetAdminLimitByAdmin",
      "outputs": [],
      "stateMutability": "nonpayable",
      "type": "function"
    },
    {
      "inputs": [
        {
          "internalType": "address",
          "name": "from",
          "type": "address"
        },
        {
          "internalType": "address",
          "name": "to",
          "type": "address"
        },
        {
          "internalType": "uint256[]",
          "name": "ids",
          "type": "uint256[]"
        },
        {
          "internalType": "uint256[]",
          "name": "values",
          "type": "uint256[]"
        },
        {
          "internalType": "bytes",
          "name": "data",
          "type": "bytes"
        }
      ],
      "name": "safeBatchTransferFrom",
      "outputs": [],
      "stateMutability": "nonpayable",
      "type": "function"
    },
    {
      "inputs": [
        {
          "internalType": "address",
          "name": "from",
          "type": "address"
        },
        {
          "internalType": "address",
          "name": "to",
          "type": "address"
        },
        {
          "internalType": "uint256",
          "name": "id",
          "type": "uint256"
        },
        {
          "internalType": "uint256",
          "name": "value",
          "type": "uint256"
        },
        {
          "internalType": "bytes",
          "name": "data",
          "type": "bytes"
        }
      ],
      "name": "safeTransferFrom",
      "outputs": [],
      "stateMutability": "nonpayable",
      "type": "function"
    },
    {
      "inputs": [
        {
          "internalType": "address",
          "name": "operator",
          "type": "address"
        },
        {
          "internalType": "bool",
          "name": "approved",
          "type": "bool"
        }
      ],
      "name": "setApprovalForAll",
      "outputs": [],
      "stateMutability": "nonpayable",
      "type": "function"
    },
    {
      "inputs": [
        {
          "internalType": "uint256",
          "name": "attr",
          "type": "uint256"
        }
      ],
      "name": "setDefaultAttr",
      "outputs": [],
      "stateMutability": "nonpayable",
      "type": "function"
    },
    {
      "inputs": [
        {
          "internalType": "uint256",
          "name": "secs",
          "type": "uint256"
        }
      ],
      "name": "setExpirySeconds",
      "outputs": [],
      "stateMutability": "nonpayable",
      "type": "function"
    },
    {
      "inputs": [
        {
          "internalType": "uint256",
          "name": "priceInCurrencyE6",
          "type": "uint256"
        }
      ],
      "name": "setPointsUnitPrice",
      "outputs": [],
      "stateMutability": "nonpayable",
      "type": "function"
    },
    {
      "inputs": [
        {
          "components": [
            {
              "internalType": "uint256",
              "name": "minUsdc6",
              "type": "uint256"
            },
            {
              "internalType": "uint256",
              "name": "attr",
              "type": "uint256"
            },
            {
              "internalType": "uint256",
              "name": "tierExpirySeconds",
              "type": "uint256"
            },
            {
              "internalType": "bool",
              "name": "upgradeByBalance",
              "type": "bool"
            }
          ],
          "internalType": "struct BeamioUserCard.Tier[]",
          "name": "newTiers",
          "type": "tuple[]"
        }
      ],
      "name": "setTiers",
      "outputs": [],
      "stateMutability": "nonpayable",
      "type": "function"
    },
    {
      "inputs": [
        {
          "internalType": "address",
          "name": "target",
          "type": "address"
        },
        {
          "internalType": "bool",
          "name": "allowed",
          "type": "bool"
        }
      ],
      "name": "setTransferWhitelist",
      "outputs": [],
      "stateMutability": "nonpayable",
      "type": "function"
    },
    {
      "inputs": [
        {
          "internalType": "bool",
          "name": "enabled",
          "type": "bool"
        }
      ],
      "name": "setTransferWhitelistEnabled",
      "outputs": [],
      "stateMutability": "nonpayable",
      "type": "function"
    },
    {
      "inputs": [
        {
          "internalType": "bytes4",
          "name": "interfaceId",
          "type": "bytes4"
        }
      ],
      "name": "supportsInterface",
      "outputs": [
        {
          "internalType": "bool",
          "name": "",
          "type": "bool"
        }
      ],
      "stateMutability": "view",
      "type": "function"
    },
    {
      "inputs": [
        {
          "internalType": "uint256",
          "name": "",
          "type": "uint256"
        }
      ],
      "name": "tiers",
      "outputs": [
        {
          "internalType": "uint256",
          "name": "minUsdc6",
          "type": "uint256"
        },
        {
          "internalType": "uint256",
          "name": "attr",
          "type": "uint256"
        },
        {
          "internalType": "uint256",
          "name": "tierExpirySeconds",
          "type": "uint256"
        },
        {
          "internalType": "bool",
          "name": "upgradeByBalance",
          "type": "bool"
        }
      ],
      "stateMutability": "view",
      "type": "function"
    },
    {
      "inputs": [
        {
          "internalType": "uint256",
          "name": "",
          "type": "uint256"
        }
      ],
      "name": "tokenTierIndexOrMax",
      "outputs": [
        {
          "internalType": "uint256",
          "name": "",
          "type": "uint256"
        }
      ],
      "stateMutability": "view",
      "type": "function"
    },
    {
      "inputs": [],
      "name": "totalActiveMemberships",
      "outputs": [
        {
          "internalType": "uint256",
          "name": "",
          "type": "uint256"
        }
      ],
      "stateMutability": "view",
      "type": "function"
    },
    {
      "inputs": [],
      "name": "totalMembershipIssued",
      "outputs": [
        {
          "internalType": "uint256",
          "name": "",
          "type": "uint256"
        }
      ],
      "stateMutability": "view",
      "type": "function"
    },
    {
      "inputs": [
        {
          "internalType": "uint256",
          "name": "",
          "type": "uint256"
        }
      ],
      "name": "totalMembershipIssuedByTierIndex",
      "outputs": [
        {
          "internalType": "uint256",
          "name": "",
          "type": "uint256"
        }
      ],
      "stateMutability": "view",
      "type": "function"
    },
    {
      "inputs": [],
      "name": "totalMembershipUpgraded",
      "outputs": [
        {
          "internalType": "uint256",
          "name": "",
          "type": "uint256"
        }
      ],
      "stateMutability": "view",
      "type": "function"
    },
    {
      "inputs": [],
      "name": "totalSupply",
      "outputs": [
        {
          "internalType": "uint256",
          "name": "",
          "type": "uint256"
        }
      ],
      "stateMutability": "view",
      "type": "function"
    },
    {
      "inputs": [
        {
          "internalType": "uint256",
          "name": "id",
          "type": "uint256"
        }
      ],
      "name": "totalSupply",
      "outputs": [
        {
          "internalType": "uint256",
          "name": "",
          "type": "uint256"
        }
      ],
      "stateMutability": "view",
      "type": "function"
    },
    {
      "inputs": [
        {
          "internalType": "address",
          "name": "newOwner",
          "type": "address"
        }
      ],
      "name": "transferOwnership",
      "outputs": [],
      "stateMutability": "nonpayable",
      "type": "function"
    },
    {
      "inputs": [
        {
          "internalType": "address",
          "name": "",
          "type": "address"
        }
      ],
      "name": "transferWhitelist",
      "outputs": [
        {
          "internalType": "bool",
          "name": "",
          "type": "bool"
        }
      ],
      "stateMutability": "view",
      "type": "function"
    },
    {
      "inputs": [],
      "name": "transferWhitelistEnabled",
      "outputs": [
        {
          "internalType": "bool",
          "name": "",
          "type": "bool"
        }
      ],
      "stateMutability": "view",
      "type": "function"
    },
    {
      "inputs": [
        {
          "internalType": "uint256",
          "name": "",
          "type": "uint256"
        }
      ],
      "name": "uri",
      "outputs": [
        {
          "internalType": "string",
          "name": "",
          "type": "string"
        }
      ],
      "stateMutability": "view",
      "type": "function"
    }
  ],
  "bytecode": "0x60a06040523461033e576164188038038061001981610342565b928339810160a08282031261033e5781516001600160401b03811161033e57820181601f8201121561033e5780516001600160401b0381116102ae57610068601f8201601f1916602001610342565b928184526020828401011161033e575f928160208094018483015e0101526020810151600981101561033e576040820151916100b260806100ab60608401610367565b9201610367565b926020915f6100c084610342565b52600254600181811c91168015610334575b8482101461032057601f81116102ee575b505f6002556001600160a01b03169283156102db57600380546001600160a01b031981168617909155604051959085906001600160a01b03167f8be0079c531659141344cd1fd0a4f28419497f9722a3daafe3b4186f6b6457e05f80a3600160045560646019556001600160a01b0381169081159081156102d1575b506102c25733608052600580546001600160a01b03191682179055600680546001600160a81b03191690911760a09290921b60ff60a01b1691909117905560075560017fbc488d3e2575f0f2113dc4d9a0cd6bc52445c6bc28a8974ed97a6ba3ecfd657a8190555f8381527fbc488d3e2575f0f2113dc4d9a0cd6bc52445c6bc28a8974ed97a6ba3ecfd657b835260409020805460ff191690911790555f5160206163f85f395f51905f525490680100000000000000008210156102ae5760018201805f5160206163f85f395f51905f525582101561029a575f5160206163f85f395f51905f525f908152200180546001600160a01b031916909117905564174876e8007ffed699897f2561c8a98f833aa3de83c4904370d413fe5fb15abe26e9f8150b295561607c908161037c8239608051816129550152f35b634e487b7160e01b5f52603260045260245ffd5b634e487b7160e01b5f52604160045260245ffd5b63ab82bb9960e01b5f5260045ffd5b90503b155f61015f565b631e4fbdf760e01b5f525f60045260245ffd5b80156100e35760025f52601f845f20910160051c905f5b8281106103135750506100e3565b5f82820155600101610305565b634e487b7160e01b5f52602260045260245ffd5b90607f16906100d2565b5f80fd5b6040519190601f01601f191682016001600160401b038111838210176102ae57604052565b51906001600160a01b038216820361033e5756fe60806040526004361015610019575b3415613caf575b5f80fd5b5f3560e01c8062fdd58e1461057d57806301ffc9a714610578578063039af9eb1461057357806303ca3e381461056e5780630a106e9c146105695780630b6c8d71146105645780630cb856411461055f5780630e4ab4871461055a5780630e89341c146105555780630ec3786b146105505780631018c34b1461054b57806310bba86414610546578063116191b6146104e25780631284b92f1461054157806317c957091461053c57806318160ddd146105375780631c790e24146105325780631fe56e6a1461052d57806324d7806c146105285780632aff2a59146105235780632b681a541461051e5780632dd50a49146105195780632eb2c2d614610514578063312e76a91461050f5780633c703d451461050a5780633c970fb91461050557806343159ce514610500578063475e53ec146104fb57806348ed7ebe146104f657806349dd0900146104f15780634dda2215146104ec5780634e1273f4146104e757806353785619146104e25780635476d071146104dd57806356217848146104d85780635637d5bc146104d3578063564da757146104ce57806356c689fa146104c95780636465c3a7146104c4578063671395c8146104bf5780636f0fa0cb146104ba5780636f5def39146104b5578063706e0132146104b0578063715018a6146104ab57806371b8982f146103e35780637766fa44146104a65780637ffbe241146104a157806382b720c91461049c57806383dbbf5314610497578063897828a8146104925780638a1b32bb1461048d5780638da5cb5b146104885780638db553081461048357806394b2e9461461047e5780639565c5421461047957806398951b56146104745780639b52f90d1461046f5780639f1bbda71461046a5780639f3d1a2a146104655780639f48facc14610460578063a22cb4651461045b578063a479044614610456578063a876c75914610451578063a98d916e1461044c578063acf12d3d14610447578063aeadb04b14610442578063af7ffa2b1461043d578063b84f1fe814610438578063bd85b03914610433578063c926bbfd1461042e578063c9840daf14610429578063d05dcc6a14610424578063d18279371461041f578063d4506e771461041a578063d52dc51514610415578063d5f3948814610410578063dd1bc5e91461040b578063e141dcb814610406578063e4a34dce14610401578063e5a6b10f146103fc578063e985e9c5146103f7578063f242432a146103f2578063f2fde38b146103ed578063f540f227146103e8578063f986f676146103e3578063fcef6b01146103de5763ffa1ad740361000e57612d10565b612cf3565b611dad565b612cc9565b612c52565b612b65565b612b34565b612af4565b612abf565b6129ae565b612984565b612940565b61291e565b6128c6565b61289f565b612875565b61279a565b612775565b61273f565b612718565b6126a5565b61267e565b612661565b612642565b612625565b6125bd565b61253e565b6123e0565b612329565b61230c565b6122e5565b612271565b612249565b61220e565b6121e6565b6121be565b612139565b6120d7565b61206b565b611f74565b611f34565b611dfa565b611d0c565b611ced565b611cc6565b611c9f565b611c64565b611b5a565b611acb565b6119ea565b6119cf565b6119a5565b611988565b610d46565b6118c7565b611866565b61182b565b611710565b61169e565b611553565b611510565b6114c7565b61146c565b6113d8565b611255565b611235565b6111ce565b611199565b61116f565b6110b2565b611089565b61105f565b610fa9565b610d07565b610caa565b610c4e565b610ae8565b610a65565b610a08565b6109c7565b6108ed565b61070d565b610690565b6105ed565b61059f565b6001600160a01b031690565b6001600160a01b0381160361001557565b346100155760403660031901126100155760206105d26004356105c18161058e565b6024355f525f835260405f20610f7f565b54604051908152f35b6001600160e01b031981160361001557565b3461001557602036600319011261001557602060043561060c816105db565b63ffffffff60e01b16636cdb3d1360e11b811490811561064a575b8115610639575b506040519015158152f35b6301ffc9a760e01b1490505f61062e565b6303a24d0760e21b81149150610627565b634e487b7160e01b5f52603260045260245ffd5b60175481101561068b5760175f5260205f209060021b01905f90565b61065b565b3461001557602036600319011261001557600435601754811015610015576106b960809161066f565b5080549060018101549060ff6003600283015492015416916040519384526020840152604083015215156060820152f35b6060906003190112610015576004356107028161058e565b906024359060443590565b346100155761071b366106ea565b600654919290916001600160a01b0316806108c057506005546001600160a01b03165b6001600160a01b031633036108b157610755613dad565b6001600160a01b0381169182156108a2578015610893576107b86107c7916107b35f516020615f705f395f51905f52966107a560405193849263c791063b60e01b60208501528860248501612d2b565b03601f1981018352826112c4565b613dcd565b60208082518301019101612d49565b9390916108456107d682613e2d565b916107e083613f01565b6108376107ec84610d6e565b54156108016107f9612d5f565b8a8988613f63565b8661088c5788905b60135460145492909115610870576108219087613faa565b6003546001600160a01b0316613fd1565b613fd1565b61084085611005565b610f7f565b546040516001600160a01b039092169582916108619183612d73565b0390a461086e6001600455565b005b8061087c575b50610821565b6108869087613f83565b5f610876565b5f90610809565b63201165f360e21b5f5260045ffd5b63a9b8048960e01b5f5260045ffd5b6396f47d2360e01b5f5260045ffd5b61073e565b6040906003190112610015576004356108dd8161058e565b906024356108ea8161058e565b90565b34610015576108fb366108c5565b6006546001600160a01b03168061095457506005546001600160a01b03165b6001600160a01b031633036108b15761094f61086e926107a56040519384926302841ba760e21b602085015260248401612d84565b613dfa565b61091a565b6060602091604081019381526040838201528451809452019201905f5b8181106109835750505090565b909192602060a06001926080875180518352848101518584015260408101516040840152606081015160608401520151151560808201520194019101919091610976565b34610015576020366003190112610015576109f46109ef6004356109ea8161058e565b614032565b612e82565b90610a0460405192839283610959565b0390f35b3461001557604036600319011261001557600435610a258161058e565b600654602435906001600160a01b031680610a6057506005546001600160a01b03165b6001600160a01b031633036108b15761086e91614139565b610a48565b3461001557602036600319011261001557600435610a81614249565b7ff316e065e93b4fddef3d2d93a57817985081f76ea9e0ca7417ed5b4b086b1fcb6020601854604051908152a1601855005b805180835260209291819084018484015e5f828201840152601f01601f1916010190565b9060206108ea928181520190610ab3565b3461001557602036600319011261001557610b016142ad565b6040516001600160601b03193060601b1660208201526014815290610b276034836112c4565b610b2f61433f565b91610b3861436d565b925f5b60148110610b8957604051610a0490610b7d816107a5610b688a610b62602085018c612daf565b90612daf565b683db4b23e973539b7b760b91b815260090190565b60405191829182610ad7565b80610bd1610ba8610bcb610bc5610bbc610bb6610ba86001988b61438f565b516001600160f81b03191690565b60f81c90565b60041c600f1690565b60ff1690565b8561438f565b610be7610bdd83613206565b915f1a918861438f565b53610c0a610ba8610bcb600f610c03610bb6610ba8878b61438f565b1660ff1690565b610c1e610bdd610c1984613206565b613c7f565b5301610b3b565b606090600319011261001557600435610c3d8161058e565b90602435906044356108ea8161058e565b3461001557610c5c36610c25565b6006549091906001600160a01b031680610ca557506005546001600160a01b03165b6001600160a01b031633036108b157610c9e92610c99613dad565b6143a0565b6001600455005b610c7e565b3461001557604036600319011261001557600435610cc78161058e565b600654602435906001600160a01b031680610d0257506005546001600160a01b03165b6001600160a01b031633036108b15761086e9161443d565b610cea565b34610015575f36600319011261001557602060405160068152f35b6001600160a01b0316600452602490565b6001600160a01b03909116815260200190565b34610015575f366003190112610015576005546040516001600160a01b039091168152602090f35b6001600160a01b03165f908152600f6020526040902090565b6001600160a01b03165f9081527fbc488d3e2575f0f2113dc4d9a0cd6bc52445c6bc28a8974ed97a6ba3ecfd657b6020526040902090565b6001600160a01b03165f9081527fbc488d3e2575f0f2113dc4d9a0cd6bc52445c6bc28a8974ed97a6ba3ecfd65816020526040902090565b6001600160a01b03165f9081527fbe5c2328713858b26c97b83c5ace333ac35b55572be4794180ba426b12cc48be6020526040902090565b6001600160a01b03165f9081527fbe5c2328713858b26c97b83c5ace333ac35b55572be4794180ba426b12cc48bf6020526040902090565b6001600160a01b03165f9081527fbe5c2328713858b26c97b83c5ace333ac35b55572be4794180ba426b12cc48c26020526040902090565b6001600160a01b03165f9081527fbe5c2328713858b26c97b83c5ace333ac35b55572be4794180ba426b12cc48c36020526040902090565b6001600160a01b03165f9081527fbe5c2328713858b26c97b83c5ace333ac35b55572be4794180ba426b12cc48c06020526040902090565b6001600160a01b03165f9081527fbe5c2328713858b26c97b83c5ace333ac35b55572be4794180ba426b12cc48c16020526040902090565b6001600160a01b03165f9081527fbe5c2328713858b26c97b83c5ace333ac35b55572be4794180ba426b12cc48c46020526040902090565b9060018060a01b03165f5260205260405f2090565b805482101561068b575f5260205f2001905f90565b3461001557604036600319011261001557600435610fc68161058e565b6001600160a01b03165f908152600e602052604090208054602435919082101561001557602091610ff691610f94565b90549060031b1c604051908152f35b5f527fe5fcefe92466b78c655fa732b80b16e07a00f2a897e833e17d9914703cad563360205260405f2090565b5f527fcb1a422c9916903f224af4db9a3bf1529921bf95ff7b75d7d9ed9073a48394ac60205260405f2090565b34610015576020366003190112610015576004355f52600b602052602060405f2054604051908152f35b34610015575f3660031901126100155760205f5160206160305f395f51905f5254604051908152f35b34610015576040366003190112610015576024356004356110d28261058e565b6006546001600160a01b03168061116a57506005546001600160a01b03165b6001600160a01b031633036108b1575f8061110a6144ea565b93604051602081019163071e438960e21b835285602483015260018060a01b031660448201526044815261113f6064826112c4565b5190855af461114c612dc1565b501561115b5761086e9161489a565b6363bc5ecb60e11b5f5260045ffd5b6110f1565b34610015576020366003190112610015576004355f526011602052602060405f2054604051908152f35b3461001557602036600319011261001557602060ff6111c26004356111bd8161058e565b610d87565b54166040519015158152f35b34610015576111dc366108c5565b6006546001600160a01b03168061123057506005546001600160a01b03165b6001600160a01b031633036108b15761094f61086e926107a5604051938492630ed647d960e11b602085015260248401612d84565b6111fb565b34610015576020366003190112610015576109f46004356109ef8161058e565b3461001557610c9e61126636610c25565b9161126f613dad565b612fb8565b634e487b7160e01b5f52604160045260245ffd5b61010081019081106001600160401b038211176112a457604052565b611274565b608081019081106001600160401b038211176112a457604052565b601f909101601f19168101906001600160401b038211908210176112a457604052565b604051906112f660a0836112c4565b565b6001600160401b0381116112a45760051b60200190565b9080601f83011215610015578135611326816112f8565b9261133460405194856112c4565b81845260208085019260051b82010192831161001557602001905b82821061135c5750505090565b813581526020918201910161134f565b6001600160401b0381116112a457601f01601f191660200190565b9291926113938261136c565b916113a160405193846112c4565b829481845281830111610015578281602093845f960137010152565b9080601f83011215610015578160206108ea93359101611387565b346100155760a0366003190112610015576004356113f58161058e565b602435906114028261058e565b6044356001600160401b0381116100155761142190369060040161130f565b6064356001600160401b0381116100155761144090369060040161130f565b608435939091906001600160401b0385116100155761146661086e9536906004016113bd565b93613189565b34610015576020366003190112610015576004356001600160401b03811161001557366023820112156100155760048101356001600160401b038111610015573660248260071b8401011161001557602461086e9201613314565b34610015576020366003190112610015576004355f527ffed699897f2561c8a98f833aa3de83c4904370d413fe5fb15abe26e9f8150b30602052602060405f2054604051908152f35b3461001557604036600319011261001557610c9e6004356115308161058e565b60243561153b613dad565b611543614249565b610821601354916014549361497b565b34610015576040366003190112610015576004356115708161058e565b6024356006546001600160a01b03168061169957506005546001600160a01b03165b6001600160a01b031633036108b1576115a9613dad565b9081906001600160a01b038116156108a2576115c490613e2d565b5f808052602052906115e3825f5160206160505f395f51905f52610f7f565b54908115610893575f1914611691575b808311611657575081156108935761164a81611630847fcfaedf921126ed75cd0b52e9418d816572c256b67104e03066bd3f067f2d53c0946149a2565b6040519384526001600160a01b0316929081906020820190565b0390a261086e6001600455565b60405163406e3ab960e01b81526001600160a01b0390921660048301525f60248301526044820152606481019190915280608481015b0390fd5b9150816115f3565b611592565b34610015576116ac366106ea565b6006549091906001600160a01b03168061170b57506005546001600160a01b03165b6001600160a01b031633036108b1576116e5613dad565b6001600160a01b038316156108a257811561089357611706610c9e93613e2d565b614abb565b6116ce565b346100155761171e36610c25565b600654919290916001600160a01b03168061182657506005546001600160a01b03165b6001600160a01b031633036108b157611758613dad565b6001600160a01b038116158015611815575b6108a25782156108935761178e61178a61178384610d87565b5460ff1690565b1590565b61115b575f516020615fb05f395f51905f52916116306117d661164a936117d0604051631deff10f60e11b602082015261094f816107a58b89602484016133b1565b50613e2d565b916117e46013549060145490565b916117f76117f0612d5f565b8987613f3e565b6118018882614139565b61180b8886614b38565b6108328886613f83565b506001600160a01b0382161561176a565b611741565b3461001557602036600319011261001557602060043561184a8161058e565b6001600160a01b039061185c90610dbf565b5416604051908152f35b34610015575f366003190112610015576020600754604051908152f35b90602080835192838152019201905f5b8181106118a05750505090565b8251845260209384019390920191600101611893565b9060206108ea928181520190611883565b34610015576040366003190112610015576004356001600160401b038111610015573660238201121561001557806004013590611903826112f8565b9161191160405193846112c4565b8083526024602084019160051b8301019136831161001557602401905b82821061196e57836024356001600160401b03811161001557610a049161195c61196292369060040161130f565b906133fe565b604051918291826118b6565b60208091833561197d8161058e565b81520191019061192e565b34610015575f366003190112610015576020601554604051908152f35b34610015576020366003190112610015576004355f526012602052602060405f2054604051908152f35b34610015575f36600319011261001557602060405160648152f35b3461001557604036600319011261001557600435611a078161058e565b60243590611a13613dad565b611a1b614249565b6001600160a01b038116156108a25781156108935761164a611a4a5f516020615fb05f395f51905f5292613e2d565b61163060135460145490611a6f604051611a656020826112c4565b5f81528886613f3e565b611a798785614b38565b6108218785613f83565b604435906001600160401b038216820361001557565b959260c09592989794919860e08801998852602088015260408701526060860152608085015260a08401521515910152565b34610015576020366003190112610015576004356001600160401b0381168103610015576001600160401b03165f9081527f348bae4e1f5cd16c7acea618682eb9de87b5f8161d5b94b9b5591b7620ae71a2602052604090208054610a04600183015492600281015490600381015460048201549060ff60066005850154940154169360405197889788611a99565b3461001557611b68366106ea565b600654919290916001600160a01b031680611c5f57506005546001600160a01b03165b6001600160a01b031633036108b157611ba2613dad565b6001600160a01b0381169182156108a2578015610893576107b8611bf2916107b35f516020615f705f395f51905f52966107a5604051938492634404589760e01b60208501528860248501612d2b565b939091610845611c0182613e2d565b91611c15611c0d612d5f565b888786613f63565b84611c5957865b80611c2c575b5061084085611005565b610821611c5391611c406013549060145490565b929091611c4d8189614b38565b87613f83565b5f611c22565b5f611c1c565b611b8b565b3461001557602036600319011261001557600435611c818161058e565b60018060a01b03165f52600f602052602060405f2054604051908152f35b346100155760203660031901126100155760206105d2600435611cc18161058e565b610df7565b346100155760203660031901126100155760206105d2600435611ce88161058e565b610e2f565b3461001557611cfb366106ea565b90611d04613dad565b6116e5614249565b34610015575f36600319011261001557611d24614b5f565b600380546001600160a01b031981169091555f906001600160a01b03165f516020615ff05f395f51905f528280a3005b906040600319830112610015576004356001600160401b0381116100155782602382011215610015576004810135926001600160401b03841161001557602484830101116100155760240191906024356108ea8161058e565b3461001557611dbb36611d54565b6006549091906001600160a01b031680611df557506005546001600160a01b03165b6001600160a01b031633036108b15761086e9261348d565b611ddd565b3461001557611e0836611d54565b6006549192916001600160a01b031680611f2f57506005546001600160a01b03165b6001600160a01b031633036108b157611e41613dad565b6001600160a01b038116156108a257611e90611e815f94611e7c86956107a5604051938492633aa2954160e11b602085015260248401613740565b613e07565b60208082518301019101613797565b611e9b9291926144ea565b928115158514611ef657611eca906107a5604051938492602084019663d8bdbdf560e01b8852602485016137f7565b51915af4611ed6612dc1565b505b15611ee75761086e6001600455565b63fb713d2b60e01b5f5260045ffd5b6107a59150611f1d906040519283916020830195630b18ae1d60e11b8752602484016137c7565b51915af4611f29612dc1565b50611ed8565b611e2a565b3461001557602036600319011261001557600435611f518161058e565b60018060a01b03165f526009602052602060ff60405f2054166040519015158152f35b346100155760a036600319011261001557600435611f91816105db565b60243590611f9e8261058e565b604435906064356084356006549091906001600160a01b03168061206657506005546001600160a01b03165b6001600160a01b031633036108b15761203693611fe56144ea565b6040516382b720c960e01b60208201526001600160e01b031990951660248601526001600160a01b0390961660448501526064840152608483015260a480830191909152815261094f60c4826112c4565b90602082805181010312610015576120566020610a04930151809261489a565b6040519081529081906020820190565b611fca565b3461001557602036600319011261001557600435612087614249565b80156120be576020817fd45b01a2f21a7aa8a0f57023efdce73147de071e77875c3f4d486b1e13eaef7092600755604051908152a1005b6376024b7160e01b5f5260045ffd5b8015150361001557565b34610015576020366003190112610015577fc52867146282c253c04e94eb2a948478a1f7ef84cf2d6f5864facc99f2203f2c6020600435612117816120cd565b61211f614249565b151560ff19600a541660ff821617600a55604051908152a1005b34610015576020366003190112610015576004356121568161058e565b6006546001600160a01b0316806121b957506005546001600160a01b03165b6001600160a01b031633036108b157604051638a1b32bb60e01b60208201526001600160a01b03909116602480830191909152815261086e9061094f6044826112c4565b612175565b34610015575f366003190112610015576003546040516001600160a01b039091168152602090f35b3461001557602036600319011261001557602061220460043561382f565b6040519015158152f35b346100155760203660031901126100155760043561222b8161058e565b60018060a01b03165f526010602052602060405f2054604051908152f35b34610015575f366003190112610015576006546040516001600160a01b039091168152602090f35b346100155760203660031901126100155760043560ff61229033610d87565b54161561115b5761229f6144ea565b905f806040516020810190634c4a8dab60e11b8252846024820152602481526122c96044826112c4565b5190855af46122d6612dc1565b5015611ee75761086e9161489a565b346100155760203660031901126100155760206105d26004356123078161058e565b610e67565b34610015575f366003190112610015576020600854604051908152f35b34610015575f36600319011261001557610a046123446142ad565b604051918291602083526020830190610ab3565b81516001600160401b039081168252602080840151909116908201526040808301516001600160801b039081169183019190915260608084015190911690820152610100810192916112f6919060e090819060808181015115159085015260a08181015160ff169085015260c08181015160ff169085015201516001600160801b0316910152565b34610015576020366003190112610015576004355f60e060405161240381611288565b8281528260208201528260408201528260608201528260808201528260a08201528260c082015201525f527fe5fcefe92466b78c655fa732b80b16e07a00f2a897e833e17d9914703cad5632602052610a0460405f2061250d6124fd60026040519361246e85611288565b80546001600160401b038082168752604082901c16602087015261249f9060801c6001600160801b03166040870152565b60018101546001600160801b03811660608701526124ef906124e5906124cf608082901c60ff16151560808a0152565b60ff608882901c1660a089015260901c60ff1690565b60ff1660c0870152565b01546001600160801b031690565b6001600160801b031660e0830152565b60405191829182612358565b6040906003190112610015576004356125318161058e565b906024356108ea816120cd565b346100155761254c36612519565b6001600160a01b0382169182156125ab578161257661257b92335f52600160205260405f20610f7f565b61329b565b60405190151581527f17307eab39ab6107e8899845ad3d59bd9653f200f220920489ca2b5937696c3160203392a3005b62ced3e160e81b5f525f60045260245ffd5b34610015576040366003190112610015576004356001600160401b0381116100155736602382011215610015576004810135906001600160401b038211610015573660248360051b830101116100155761086e91602480359261261f8461058e565b016138e9565b34610015575f366003190112610015576020601854604051908152f35b34610015575f36600319011261001557602060405164174876e8008152f35b34610015575f366003190112610015576020601354604051908152f35b346100155760203660031901126100155760206105d26004356126a08161058e565b610e9f565b34610015576040366003190112610015576004356126c28161058e565b60065460243591906001600160a01b03168061271357506005546001600160a01b03165b6001600160a01b031633036108b157610c9e91612701613dad565b6003546001600160a01b0316916143a0565b6126e6565b346100155760203660031901126100155760206105d260043561273a8161058e565b610ed7565b34610015576020366003190112610015576004355f525f516020615fd05f395f51905f52602052602060405f2054604051908152f35b34610015575f3660031901126100155760206040515f8152f35b60ff81160361001557565b34610015576060366003190112610015576004356127b78161278f565b60243590600160ff6127c7611a83565b92160361283d57612801915f527f348bae4e1f5cd16c7acea618682eb9de87b5f8161d5b94b9b5591b7620ae71a360205260405f20613478565b8054610a0460018301549260028101549060038101546004820154906128306006600585015494015460ff1690565b9360405197889788611a99565b612870915f527f348bae4e1f5cd16c7acea618682eb9de87b5f8161d5b94b9b5591b7620ae71a460205260405f20613478565b612801565b34610015576020366003190112610015576004355f52600c602052602060405f2054604051908152f35b346100155760203660031901126100155760206105d26004356128c18161058e565b610f0f565b34610015576020366003190112610015576004356128e2614249565b7f1c8121c98d871a1523a6112e29ac660378afbcb9b921cff8f187c3da35d170818160085461291660405192839283612d73565b0390a1600855005b34610015575f36600319011261001557602060ff600a54166040519015158152f35b34610015575f366003190112610015576040517f00000000000000000000000000000000000000000000000000000000000000006001600160a01b03168152602090f35b34610015576020366003190112610015576004355f526016602052602060405f2054604051908152f35b34610015576080366003190112610015576044356004356064356024356129d4826120cd565b6129dc614249565b8215612ab05760175491604051946129f3866112a9565b8486526020860192808452604087019382855260608801978415158952600160401b8710156112a45760018701601755612a2c8761066f565b919091612aab577fb08290a3275552d4032ce96418c8bc739fd6be2860fe5897558f5c0af90e91fb99612aa697612a7994600393518555516001850155516002840155511515910161329b565b6040519586958693909594919260809360a086019786526020860152604085015260608401521515910152565b0390a1005b613221565b639033099360e01b5f5260045ffd5b346100155761086e612ad036612519565b90612ad9614249565b6001600160a01b03165f90815260096020526040902061329b565b34610015575f3660031901126100155760ff60065460a01c166040516009821015612b20576020918152f35b634e487b7160e01b5f52602160045260245ffd5b3461001557602060ff6111c2612b49366108c5565b6001600160a01b039091165f9081526001855260409020610f7f565b346100155760a036600319011261001557600435612b828161058e565b602435612b8e8161058e565b60443590606435926084356001600160401b03811161001557612bb59036906004016113bd565b926001600160a01b0382163381141580612c32575b612c1c576001600160a01b03841615612c095715612bf75761086e94612bef91614e02565b929091614fb0565b626a0d4560e21b5f525f60045260245ffd5b632bfa23e760e11b5f525f60045260245ffd5b63711bec9160e11b5f523360045260245260445ffd5b50805f52600160205260ff612c4a3360405f20610f7f565b541615612bca565b3461001557602036600319011261001557600435612c6f8161058e565b612c77614b5f565b6001600160a01b03168015612cb657600380546001600160a01b0319811683179091556001600160a01b03165f516020615ff05f395f51905f525f80a3005b631e4fbdf760e01b5f525f60045260245ffd5b34610015576020366003190112610015576004355f52600d602052602060405f2054604051908152f35b34610015575f366003190112610015576020601454604051908152f35b34610015575f366003190112610015576020604051600c8152f35b604091949392606082019560018060a01b0316825260208201520152565b9190826040910312610015576020825192015190565b60405190612d6e6020836112c4565b5f8252565b908152602081019190915260400190565b6001600160a01b0391821681529116602082015260400190565b5f5160206160305f395f51905f5255565b805191908290602001825e015f815290565b3d15612deb573d90612dd28261136c565b91612de060405193846112c4565b82523d5f602084013e565b606090565b90612dfa826112f8565b612e0760405191826112c4565b8281528092612e18601f19916112f8565b015f5b818110612e2757505050565b60405160a0810191906001600160401b038311818410176112a4576020926040525f81525f838201525f60408201525f60608201525f608082015282828601015201612e1b565b805182101561068b5760209160051b010190565b6001600160a01b0381165f908152600e60205260409020909190918254612ea881612df0565b935f5b828110612ed85750505f80805260205250612ed3905f5160206160505f395f51905f52610f7f565b549190565b80612ef2612ee860019385610f94565b90549060031b1c90565b612f5c612f07825f52600b60205260405f2090565b548015159081612f78575b612f24845f52600c60205260405f2090565b54612f37855f52600d60205260405f2090565b5490612f416112e7565b95865260208601526040850152606084015215156080830152565b612f668289612e6e565b52612f718188612e6e565b5001612eab565b809150421190612f12565b9081602091031261001557516108ea8161058e565b6040513d5f823e3d90fd5b9081602091031261001557516108ea816120cd565b91908015613184576001600160a01b0383169283156108a2576001600160a01b038316156108a25760405163c45a015560e01b8152602081600481885afa9081156130e6575f91613165575b506001600160a01b031680156108a25760405163054c14ed60e51b8152602081600481855afa9081156130e6575f91613146575b506001600160a01b03168015613137573303613129576130709160209160405180809581946303330c7960e41b835260048301610d33565b03915afa9081156130e6575f916130fa575b50156130eb57602060049360405194858092638da5cb5b60e01b82525afa80156130e6576112f6935f916130b7575b506143a0565b6130d9915060203d6020116130df575b6130d181836112c4565b810190612f83565b5f6130b1565b503d6130c7565b612f98565b632ad05f3360e11b5f5260045ffd5b61311c915060203d602011613122575b61311481836112c4565b810190612fa3565b5f613082565b503d61310a565b62645ab960e51b5f5260045ffd5b63ab82bb9960e01b5f5260045ffd5b61315f915060203d6020116130df576130d181836112c4565b5f613038565b61317e915060203d6020116130df576130d181836112c4565b5f613004565b505050565b939291906001600160a01b03851633811415806131c2575b612c1c576001600160a01b03821615612c095715612bf7576112f694614fb0565b50805f52600160205260ff6131da3360405f20610f7f565b5416156131a1565b919081101561068b5760071b0190565b634e487b7160e01b5f52601160045260245ffd5b908160011b918083046002149015171561321c57565b6131f2565b634e487b7160e01b5f525f60045260245ffd5b6017545f601755806132435750565b600281901b906001600160fe1b0381160361321c5760175f5260205f205f5b82811061326e57505050565b805f60036004938501828155826001820155826002820155015501613262565b805460ff19166001179055565b9060ff801983541691151516179055565b601754600160401b8110156112a4576001810160175560175481101561068b5760175f5260021b5f5160206160105f395f51905f5201600360606112f69380358455602081013560018501556040810135600285015501359161330e836120cd565b0161329b565b61331c614249565b81156133a2575f5b8281106133895750613334613234565b5f5b82811061336d5750506040519081527f2f291eaf494dc7eca20457441a1df7d9119f0c0d764309daf9cb6b148810ee3690602090a1565b8061338361337e60019386866131e2565b6132ac565b01613336565b6133948184846131e2565b3515612ab057600101613324565b6308ba5b6160e01b5f5260045ffd5b6001600160a01b039091168152602081019190915260400190565b906133d6826112f8565b6133e360405191826112c4565b82815280926133f4601f19916112f8565b0190602036910137565b9190918051835180820361346357505061341881516133cc565b905f5b815181101561345c578061344a60019260051b602080828701015191890101515f525f60205260405f20610f7f565b546134558286612e6e565b520161341b565b5090925050565b635b05999160e01b5f5260045260245260445ffd5b9060018060401b03165f5260205260405f2090565b9092613497613dad565b6001600160a01b038316156108a2576134e26134b38584614baf565b94611e7c6134c18286614c2b565b946107a58760405194859363fd44e85560e01b602086015260248501614b86565b936134f66020865187010160208701613c2d565b9492969150968751855103613703575061350f90613e2d565b9061351982613f01565b61352282610d6e565b54155f955f975f5b8a5181101561356f5761353d818c612e6e565b511561354c575b60010161352a565b9850966135649061355d8a89612e6e565b5190613c8d565b600198909790613544565b509091929497969396156136fb575b5081806136f0575b6136c8575b8280613679575b50505f5b875181101561361f576135a98186612e6e565b51908115610893576001916135be828b612e6e565b51156136195764174876e8006135d4838c612e6e565b51106135f5576135ef906135e8838c612e6e565b5189614abb565b01613596565b61361490613603838c612e6e565b519061360d612d5f565b918a613f63565b6135ef565b506135ef565b509195506136549490939192506001600160a01b0381161561366757905b6013546014549490931561365e5761083291613faa565b6112f66001600455565b61083291613f83565b50613673600354610582565b9061363d565b6136ad9161368f613688612d5f565b838a613f3e565b6001600160a01b038916156136b4576136a8828a614139565b614d0c565b5f82613592565b6136a8826136c3600354610582565b614139565b6136d86136d3614ca1565b61066f565b505483101561358b5763559d06d760e01b5f5260045ffd5b506017541515613586565b92505f61357e565b60405163dccff66960e01b815290819061168d9060048301610ad7565b908060209392818452848401375f828201840152601f01601f1916010190565b9160206108ea938181520191613720565b81601f82011215610015578051906137688261136c565b9261377660405194856112c4565b8284526020838301011161001557815f9260208093018386015e8301015290565b91906040838203126100155782516001600160401b038111610015576020916137c1918501613751565b92015190565b6001600160a01b03909116815260016020820181905260408201526080606082018190526108ea92910190610ab3565b93929161382a9060809260018060a01b03168652600160208701526001604087015260a0606087015260a0860190610ab3565b930152565b64174876e80081106138da575f9081527ffed699897f2561c8a98f833aa3de83c4904370d413fe5fb15abe26e9f8150b2a60209081526040808320547ffed699897f2561c8a98f833aa3de83c4904370d413fe5fb15abe26e9f8150b2b909252909120546001600160401b03908116911680151590816138df575b506138da576001600160401b031680151590816138d0575b506138cc57600190565b5f90565b905042115f6138c2565b505f90565b905042105f6138aa565b600654919390916001600160a01b031680613af057506005546001600160a01b03165b6001600160a01b031633036108b157613923613dad565b6001600160a01b038316156108a2578315611ee75761398661394e6139488685613af5565b90614baf565b94611e7c61396561395f8387613af5565b90614c2b565b946107a58760405194859363bca0e27d60e01b602086015260248501613b2f565b9361399a6020865187010160208701613c2d565b949296915096875185510361370357506139b390613e2d565b906139bd82613f01565b6139c682610d6e565b54155f955f975f5b8a51811015613a0c576139e1818c612e6e565b51156139f0575b6001016139ce565b985096613a019061355d8a89612e6e565b6001989097906139e8565b50909192949796939615613ae8575b508180613add575b613aba575b8280613aa4575b50505f5b875181101561361f57613a468186612e6e565b5190811561089357600191613a5b828b612e6e565b5115613a9e5764174876e800613a71838c612e6e565b5110613a8b57613a85906135e8838c612e6e565b01613a33565b613a9990613603838c612e6e565b613a85565b50613a85565b613ab39161368f613688612d5f565b5f82613a2f565b613ac56136d3614ca1565b5054831015613a285763559d06d760e01b5f5260045ffd5b506017541515613a23565b92505f613a1b565b61390c565b901561068b57803590601e19813603018212156100155701803591906001600160401b038311610015576020018236038113610015579190565b93929190816040860160408752526060850160608360051b87010192825f90601e19813603015b838310613b79575050505050509060206112f69294019060018060a01b03169052565b909192939495605f198a8203018652863582811215610015578301602081019190356001600160401b03811161001557803603831361001557613bc26020928392600195613720565b980196019493019190613b56565b9080601f83011215610015578151613be7816112f8565b92613bf560405194856112c4565b81845260208085019260051b82010192831161001557602001905b828210613c1d5750505090565b8151815260209182019101613c10565b9060808282031261001557815192602083015192604081015160018060401b0381116100155783613c5f918301613bd0565b60608201519093906001600160401b038111610015576108ea9201613bd0565b906001820180921161321c57565b9190820180921161321c57565b9081602091031261001557516108ea8161278f565b613cb7614d34565b60405163426dc88f60e01b81526001600160e01b03195f351660048201526020816024816001600160a01b0386165afa9081156130e6575f91613d7e575b5060ff1660fd198101613d2157505f80915b368280378136915af43d90815f803e15613d1e575ff35b5ffd5b905080613d3857505f80613d33614660565b613d07565b60038103613d4b57505f80613d336144ea565b60018103613d5e57505f80613d336145ee565b600203613d6f575f80613d3361457c565b633655084960e01b5f5260045ffd5b613da0915060203d602011613da6575b613d9881836112c4565b810190613c9a565b5f613cf5565b503d613d8e565b600260045414613dbe576002600455565b633ee5aeb560e01b5f5260045ffd5b5f8091613dda60016146d1565b602082519201905af490613dec612dc1565b9115613df457565b50614dd0565b5f8091613dda60036146d1565b5f8091613dda826146d1565b5f8091613dda60046146d1565b5f8091613dda60026146d1565b60046020613e47613e42613e42600554610582565b610582565b604051630e83251360e01b815292839182905afa9081156130e6575f91613ee2575b506001600160a01b0316801561313757602060405180926303330c7960e41b82528180613e998760048301610d33565b03915afa9081156130e6575f91613ec3575b50613eb9576108ea90614032565b803b156130eb5790565b613edc915060203d6020116131225761311481836112c4565b5f613eab565b613efb915060203d6020116130df576130d181836112c4565b5f613e69565b60405163e6a84c7760e01b60208201526001600160a01b039091166024808301919091528152613f3b90613f366044826112c4565b613e13565b50565b9091906001600160a01b03811615612c0957613f5d6112f6935f614e02565b91614e27565b919291906001600160a01b03821615612c09576112f693613f5d91614e02565b90613f36613f3b926107a560405193849263a55d613f60e01b6020850152602484016133b1565b90613f36613f3b926107a560405193849263179953bf60e11b6020850152602484016133b1565b916013548281039181831161321c57601454908082039482861161321c576001600160a01b03871615938415614013575b50505050613184576112f692615245565b1492509082614028575b50505f808080614002565b1490505f8061401d565b60046020614047613e42613e42600554610582565b60405163fb3894d360e01b815292839182905afa9081156130e6575f9161411a575b506001600160a01b03811691821561313757602060405180946308a8c59960e01b8252818061409b8660048301610d33565b03915afa9283156130e6575f936140f9575b506001600160a01b0383161580156140f0575b6140c957505090565b63ad12d34160e01b5f526001600160a01b039081166004529081166024521660445260645ffd5b50823b156140c0565b61411391935060203d6020116130df576130d181836112c4565b915f6140ad565b614133915060203d6020116130df576130d181836112c4565b5f614069565b906001600160a01b038216158015614241575b61423d5761415982610df7565b80549282840180941161321c576008936141739255610f47565b610e1042045f5260205260405f20906009820161419461178a825460ff1690565b61422e575b506141a55f8354613c8d565b82556141b660018301918254613c8d565b9055600281016141c75f8254613c8d565b9055600381016141d85f8254613c8d565b9055600481016141e95f8254613c8d565b9055600581016141fa5f8254613c8d565b90556006810161420b5f8254613c8d565b90556007810161421c5f8254613c8d565b90550161422a5f8254613c8d565b9055565b6142379061328e565b5f614199565b5050565b50801561414c565b6006546001600160a01b0316806142a857506005546001600160a01b03165b6003546001600160a01b03163314159081614294575b5061428557565b630fc5e1ab60e41b5f5260045ffd5b6001600160a01b031633141590505f61427e565b614268565b6005546001600160a01b03168015818115614335575b50613137575f60049160405192838092634f9e8d1560e11b82525afa9081156130e6575f916142f8575b508051156131375790565b90503d805f833e61430981836112c4565b81016020828203126100155781516001600160401b0381116100155761432f9201613751565b5f6142ed565b90503b155f6142c3565b6040519061434e6040836112c4565b601082526f181899199a1a9b1b9c1cb0b131b232b360811b6020830152565b6040516060919061437e83826112c4565b6028815291601f1901366020840137565b90815181101561068b570160200190565b90916001600160a01b038216919082156108a2576001600160a01b038116156108a2578315610893576144276143f67f6ac4f60455173f2148d89d52868ac4ffb14111720d245aa36ad26e0d7e64c59b93613e2d565b91601354601454916144096117f0612d5f565b6144138886614b38565b61441d8886613f83565b610832888261533e565b6040519384526001600160a01b031692602090a3565b906001600160a01b0382161580156144e2575b61423d5761445d82610e2f565b80549282840180941161321c5760089361448d9255614480610e10420491610f47565b905f5260205260405f2090565b90600982016144a061178a825460ff1690565b6144d3575b506144b15f8354613c8d565b8255600182016144c25f8254613c8d565b90556141c760028301918254613c8d565b6144dc9061328e565b5f6144a5565b508015614450565b6144f5600554610582565b6001600160a01b038116908115908115614572575b5061313757602060049160405192838092632502c7e760e11b82525afa9081156130e6575f91614553575b506001600160a01b0381166108ea5763a9d04f8760e01b5f5260045ffd5b61456c915060203d6020116130df576130d181836112c4565b5f614535565b90503b155f61450a565b614587600554610582565b6001600160a01b0381169081159081156145e4575b5061313757602060049160405192838092632b5e757b60e11b82525afa9081156130e6575f9161455357506001600160a01b0381166108ea5763a9d04f8760e01b5f5260045ffd5b90503b155f61459c565b6145f9600554610582565b6001600160a01b038116908115908115614656575b5061313757602060049160405192838092635ee738d560e11b82525afa9081156130e6575f9161455357506001600160a01b0381166108ea5763a9d04f8760e01b5f5260045ffd5b90503b155f61460e565b61466b600554610582565b6001600160a01b0381169081159081156146c7575b5061313757602060049160405192838092620c3c5d60e81b82525afa9081156130e6575f9161455357506001600160a01b0381166108ea5763a9d04f8760e01b5f5260045ffd5b90503b155f614680565b6146dc600554610582565b6001600160a01b03811691908215908115614857575b5061313757602060ff600492169283155f1461478357604051620c3c5d60e81b815292839182905afa9081156130e6575f91614764575b505b6001600160a01b03811661475f57600482146147505763a9d04f8760e01b5f5260045ffd5b632dc6cc2360e01b5f5260045ffd5b905090565b61477d915060203d6020116130df576130d181836112c4565b5f614729565b600184036147d257604051635ee738d560e11b815292839182905afa9081156130e6575f916147b3575b5061472b565b6147cc915060203d6020116130df576130d181836112c4565b5f6147ad565b6002840361480157604051632b5e757b60e11b815292839182905afa9081156130e6575f916147b3575061472b565b6003840361483057604051632502c7e760e11b815292839182905afa9081156130e6575f916147b3575061472b565b6040516324e1067960e11b815292839182905afa9081156130e6575f916147b3575061472b565b90503b155f6146f2565b908160a0910312610015578051614877816105db565b9160208201516148868161058e565b916040810151916080606083015192015190565b906148cc815f527fbc488d3e2575f0f2113dc4d9a0cd6bc52445c6bc28a8974ed97a6ba3ecfd657d60205260405f2090565b600681015460ff1690811561494c575b5061423d575f91829160405161490c816107a56020820194630d61b51960e01b8652602483019190602083019252565b51915af4614918612dc1565b901561494757614934816020806112f694518301019101614861565b509290916001600160a01b031690615366565b614dd0565b6005915001547fbc488d3e2575f0f2113dc4d9a0cd6bc52445c6bc28a8974ed97a6ba3ecfd657a54115f6148dc565b90613f36613f3b926107a5604051938492635bcc7ca960e11b6020850152602484016133b1565b906001600160a01b03821615612bf7576149bc905f614e02565b925f6040516149cc6020826112c4565b526149ef84836149de82825f8961580b565b956149e98751610582565b90615a6d565b5f90815b8351831015614a4257600190614a098488612e6e565b5190614a33614a188688612e6e565b515f525f516020615fd05f395f51905f5260205260405f2090565b828154039055019201916149f3565b9150929350614a6191505f5160206160305f395f51905f525403612d9e565b5f9160e081019160c060a083019201935b8351811015614ab45780614aae614a9c614a8f6001948751612e6e565b516001600160a01b031690565b614aa7838951612e6e565b5190615c26565b01614a72565b5092505050565b60207fae2f87dbf103db294ddd4ab45caa7a914d70bb3d06eeb8a8dc23e03e84548c8d91614b09604051633c2f328b60e11b84820152614b04816107a589898760248501612d2b565b613e20565b50614b25604051614b1a84826112c4565b5f8152868684613f63565b6040519485526001600160a01b031693a3565b90613f36613f3b926107a560405193849263b932546160e01b6020850152602484016133b1565b6003546001600160a01b03163303614b7357565b63118cdaa760e01b5f523360045260245ffd5b91602091614b9f91959495604085526040850191613720565b6001600160a01b03909416910152565b8115614c2557614bc0913691611387565b60208151910120805f525f516020615f905f395f51905f5260205260405f2060ff815460a01c16614c135750614bf590611032565b60ff815416614c0357505f90565b600201546001600160a01b031690565b600401546001600160a01b0316919050565b50505f90565b8115614c2557614c3c913691611387565b60208151910120805f525f516020615f905f395f51905f5260205260405f2060ff815460a01c16614c8f5750614c7190611032565b60ff815416614c7f57505f90565b600301546001600160a01b031690565b600501546001600160a01b0316919050565b6017548015614d06575f906017541561068b5760175f525f5160206160105f395f51905f525460015b828110614cd75750505090565b81614ce18261066f565b505410614cf1575b600101614cca565b809350614cfe915061066f565b505482614ce9565b505f1990565b906001600160a01b038216158015614d2c575b61423d576112f6916153d5565b508015614d1f565b614d3f600554610582565b6001600160a01b03811691908215908115614dc6575b5061313757602060049260405193848092634e077ded60e11b82525afa9182156130e6575f92614da5575b506001600160a01b03821615828115614d9b575b5061313757565b90503b155f614d94565b614dbf91925060203d6020116130df576130d181836112c4565b905f614d80565b90503b155f614d55565b80519081614dfd5760405163dccff66960e01b81526020600482015290819061168d906024830190610ab3565b602001fd5b9160405192600184526020840152604083019160018352606084015260808301604052565b909193614e368584845f61580b565b91614e4c8685614e468651610582565b5f615a6d565b5f5b8451811015614ea45780614e9e614e99614e6a6001948b612e6e565b51614e78614a18858b612e6e565b614e83828254613c8d565b90555f5160206160305f395f51905f5254613c8d565b612d9e565b01614e4e565b509091929360018060a01b038216159586614f49575b5f969560e086019660c060a088019701985b8851811015614efb5780614ef58b614aa783614eee614a8f6001978f51612e6e565b9251612e6e565b01614ecc565b5092955092955092955015614f11575b50505050565b8051600103614f395790602080614f3095930151910151915f3361562e565b5f808080614f0b565b614f44935f33615510565b614f30565b9591925f95949195935f945b8651861015614f8957600190614f6b878b612e6e565b5190614f7a614a18898b612e6e565b82815403905501950194614f55565b614fab919498929550969295965f5160206160305f395f51905f525403612d9e565b614eba565b9294919093614fc18683878761580b565b93614fd78784614fd18851610582565b84615a6d565b6001600160a01b03811615801580615233575b80615187575b8061516d575b615147575b615103575b6001600160a01b03861615968761509c575b5f979660e087019760c060a089019801995b895181101561504d57806150478c614aa783614eee614a8f8f9760019851612e6e565b01615024565b509295985092955092955015615065575b5050505050565b845160010361508b57602080615081960151920151923361562e565b5f8080808061505e565b61509794919233615510565b615081565b969294909591935f945f955b87518710156150dc576001906150be888c612e6e565b51906150cd614a188a8c612e6e565b828154039055019601956150a8565b6150fe919498939795999296505f5160206160305f395f51905f525403612d9e565b615012565b9492905f9492945b855181101561513b5780615135614e996151276001948c612e6e565b51614e78614a18858c612e6e565b0161510b565b50909294939193615000565b6151686151576020880151610582565b606088015160808901519185615cc1565b614ffb565b506060860151151580614ff6575060808601511515614ff6565b5f9890979095929493909291895b85518b101561520c576151a88b87612e6e565b51906064821080156151fd575b6151f3576151c38c8a612e6e565b51156151f35750806151d86151e79289615c26565b6151e28a51610582565b615c4d565b6001809a5b0199615195565b9a600191506151ec565b5064174876e8008210156151b5565b909296995097909394929715614ff05761522e6152298851610582565b613f01565b614ff0565b506001600160a01b0387161515614fea565b6001600160a01b03811615801561532d575b6131845761422a9161526a600892610f47565b610e1042045f5260205260405f20906009820161528b61178a825460ff1690565b61531e575b5061529c5f8354613c8d565b8255600182016152ad5f8254613c8d565b9055600282016152be5f8254613c8d565b9055600382016152cf5f8254613c8d565b9055600482016152e05f8254613c8d565b9055600582016152f15f8254613c8d565b9055600682016153025f8254613c8d565b905561531360078301918254613c8d565b905501918254613c8d565b6153279061328e565b5f615290565b508115801561525757508215615257565b906001600160a01b03821615801561535e575b61423d576112f6916156cc565b508015615351565b9092906001600160e01b031916630b18ae1d60e11b810361539057632bb82cb360e01b5f5260045ffd5b631cb4772560e21b81036153bc575050906112f691604051916153b46020846112c4565b5f8352613f3e565b90915063178fb21b60e11b03611ee7576112f69161497b565b906001600160a01b0382161580156154a0575b61423d576153f582610e67565b80549282840180941161321c576008936154189255614480610e10420491610f47565b906009820161542b61178a825460ff1690565b615491575b5061543c5f8354613c8d565b82556001820161544d5f8254613c8d565b90556002820161545e5f8254613c8d565b90556003820161546f5f8254613c8d565b9055600482016154805f8254613c8d565b90556141fa60058301918254613c8d565b61549a9061328e565b5f615430565b5080156153e8565b9081602091031261001557516108ea816105db565b6001600160a01b0391821681529116602082015260a0604082018190526108ea949193919261550292916154f49190860190611883565b908482036060860152611883565b916080818403910152610ab3565b9091949293853b615524575b505050505050565b60209361554691604051968795869563bc197c8160e01b8752600487016154bd565b03815f6001600160a01b0387165af15f91816155c4575b5061558e575061556b612dc1565b805191908261558757632bfa23e760e11b5f52613d1e82610d22565b6020915001fd5b6001600160e01b0319166343e6837f60e01b016155b157505f808080808061551c565b632bfa23e760e11b5f52613d1e90610d22565b6155e791925060203d6020116155ee575b6155df81836112c4565b8101906154a8565b905f61555d565b503d6155d5565b6001600160a01b039182168152911660208201526040810191909152606081019190915260a0608082018190526108ea92910190610ab3565b9091949293853b61564157505050505050565b60209361566391604051968795869563f23a6e6160e01b8752600487016155f5565b03815f6001600160a01b0387165af15f91816156ab575b50615688575061556b612dc1565b6001600160e01b031916630dc5919f60e01b016155b157505f808080808061551c565b6156c591925060203d6020116155ee576155df81836112c4565b905f61567a565b906001600160a01b0382161580156157a8575b61423d576156ec82610e9f565b80549282840180941161321c5760089361570f9255614480610e10420491610f47565b906009820161572261178a825460ff1690565b615799575b506157335f8354613c8d565b8255600182016157445f8254613c8d565b9055600282016157555f8254613c8d565b9055600382016157665f8254613c8d565b9055600482016157775f8254613c8d565b9055600582016157885f8254613c8d565b905561420b60068301918254613c8d565b6157a29061328e565b5f615727565b5080156156df565b604051906157bd82611288565b5f60e083828152826020820152826040820152826060820152826080820152606060a0820152606060c08201520152565b6001600160a01b039091169052565b5f19811461321c5760010190565b9291906158166157b0565b936001600160a01b0381161515928380615a35575b8480615a2c575b615a1d5761586461585561585e61584887615d1f565b60408d95929395016157ee565b60208b016157ee565b886157ee565b61586e82516133cc565b9060a0880191825261588083516133cc565b9260c089019384525f5b8151811015615a115761589d8183612e6e565b518a606482101580615a03575b61599f57501580615998575b6158c5575b6001905b0161588a565b6158cf818a612e6e565b51615967575b600a5460ff168061592d575b806158fb575b156158bb57639798976560e01b5f5260045ffd5b5061592861178a61178361590f8d51610582565b6001600160a01b03165f90815260096020526040902090565b6158e7565b505f8052600960205261596261178a7fec8156718a8372b1db44bb411437d0870f3e3790d4a08526d024ce1b0b668f6b611783565b6158e1565b60608a016159758151613c7f565b9052615981818a612e6e565b5161599160808c01918251613c8d565b90526158d5565b50876158b6565b600192916001600160a01b038a1615806159fc575b6159c0575b50506158bf565b6159db896159d660e08a51950194855190612e6e565b6157ee565b6159e88851835190612e6e565b526159f381516157fd565b90528a5f6159b9565b50856159b4565b5064174876e80082106158aa565b50505050505050505090565b630be8c0f160e11b5f5260045ffd5b50833b15615832565b6001600160a01b0384161515945061582b565b9091615a5f6108ea93604084526040840190611883565b916020818403910152611883565b9392918051835190818103615c115750505f5b8151811015615b6c578060051b90602080838501015192860101518460018060a01b038916615aef575b6001936001600160a01b038216615ac5575b50505001615a80565b615ae591610840615add925f525f60205260405f2090565b918254613c8d565b90555f8481615abc565b509091615b0788610840835f525f60205260405f2090565b54828110615b3557829160019493879203615b2d8b610840845f525f60205260405f2090565b559350615aaa565b6040516303dee4c560e01b81526001600160a01b038a16600482015260248101919091526044810183905260648101829052608490fd5b508051939493919291600103615bce576020908101519101516040516001600160a01b03938416949093169233927fc3d58168c5ae7397731d063d5bbf3d657854427343f4c083240f7aacaa2d0f62928291615bc9919083612d73565b0390a4565b6040516001600160a01b03938416949093169233927f4a39dc06d4c0dbc64b70af90fd698a233a518aa5d07e595d983b8c0526c8f7fb928291615bc99183615a48565b635b05999160e01b5f5260045260245260445ffd5b90613f36613f3b926107a5604051938492637e4152e760e11b6020850152602484016133b1565b6001600160a01b03165f908152600e60205260408120805490915b818110615ca25750600160401b8110156112a457615c8b91600182018155610f94565b819291549060031b91821b915f19901b1916179055565b83615cad8285610f94565b90549060031b1c14614f0b57600101615c68565b919291906001600160a01b038116615d145750615cdd90615ec8565b916001600160a01b038316151580615d02575b615cf957505050565b6112f692615de6565b5080151580615cf05750811515615cf0565b6112f6939150615de6565b803b15615ddf575f806040516020810190638da5cb5b60e01b825260048152615d496024826112c4565b5190845afa615d56612dc1565b90158015615dd4575b615dcc57613e4281602080615d7994518301019101612f83565b615d8861178a61178383610d87565b615dcc57615da5615d9882610dbf565b546001600160a01b031690565b916001600160a01b03831615615dc3575090615dc081613e2d565b92565b925f9250829150565b50905f905f90565b506020815110615d5f565b905f905f90565b916001600160a01b038316158015615eb7575b61318457615e0683610ed7565b80549083820180921161321c5755615e1d83610f0f565b80549382850180951161321c57600894615e409255614480610e10420491610f47565b9160098301615e5361178a825460ff1690565b615ea8575b50615e645f8454613c8d565b835560018301615e755f8254613c8d565b905560028301615e865f8254613c8d565b9055615e9760038401918254613c8d565b90556141e960048301918254613c8d565b615eb19061328e565b5f615e58565b5081158015615df957508015615df9565b615ed461178333610d87565b615f6a576001600160a01b038116158015615f61575b6138da575f80916040516020810190638da5cb5b60e01b825260048152615f126024826112c4565b51915afa615f1e612dc1565b90158015615f56575b6138da57613e4281602080615f4194518301019101612f83565b615f4d61178382610d87565b6108ea57505f90565b506020815110615f27565b50803b15615eea565b50339056fe3bf2de114e2e7636c289f21be023528e47d89b45e873b976c78989c3ddc683f5cb1a422c9916903f224af4db9a3bf1529921bf95ff7b75d7d9ed9073a48394ab3e38a9410c08ddb4af8b083bfd2b197b1c3e61a651bd1c54c51ebce0cdcdc48ed34312c2e21f45f2b6715cf87d9e919b2098c835582e2b5c6e716490b0dfd0d48be0079c531659141344cd1fd0a4f28419497f9722a3daafe3b4186f6b6457e0c624b66cc0138b8fabc209247f72d758e1cf3343756d543badbf24212bed8c15d34312c2e21f45f2b6715cf87d9e919b2098c835582e2b5c6e716490b0dfd0d5ad3228b676f7d3cd4284a5443f17f1962b36e491b30a40b2405849e597ba5fb5a164736f6c6343000821000abc488d3e2575f0f2113dc4d9a0cd6bc52445c6bc28a8974ed97a6ba3ecfd657c",
  "linkReferences": {},
  "deployedLinkReferences": {},
  "immutableReferences": {
    "14687": [
      {
        "length": 32,
        "start": 10581
      }
    ]
  },
  "inputSourceName": "project/src/BeamioUserCard/BeamioUserCard.sol",
  "buildInfoId": "solc-0_8_33-8756a0c84966f21da7ce1b23e425f3766e35f376"
}